{
  "_format": "hh-sol-artifact-1",
  "contractName": "CCFL",
  "sourceName": "contracts/CCFL.sol",
  "abi": [
    {
      "inputs": [],
      "name": "ERC1167FailedCreateClone",
      "type": "error"
    },
    {
      "inputs": [],
      "name": "InvalidInitialization",
      "type": "error"
    },
    {
      "inputs": [],
      "name": "NotInitializing",
      "type": "error"
    },
    {
      "anonymous": false,
      "inputs": [
        {
          "indexed": false,
          "internalType": "uint64",
          "name": "version",
          "type": "uint64"
        }
      ],
      "name": "Initialized",
      "type": "event"
    },
    {
      "anonymous": false,
      "inputs": [
        {
          "indexed": true,
          "internalType": "address",
          "name": "onBehalfOf",
          "type": "address"
        },
        {
          "indexed": true,
          "internalType": "address",
          "name": "_token",
          "type": "address"
        },
        {
          "indexed": true,
          "internalType": "uint256",
          "name": "_amount",
          "type": "uint256"
        }
      ],
      "name": "LiquiditySupplied",
      "type": "event"
    },
    {
      "anonymous": false,
      "inputs": [
        {
          "indexed": true,
          "internalType": "address",
          "name": "to",
          "type": "address"
        },
        {
          "indexed": true,
          "internalType": "address",
          "name": "_token",
          "type": "address"
        },
        {
          "indexed": true,
          "internalType": "uint256",
          "name": "_amount",
          "type": "uint256"
        }
      ],
      "name": "LiquidityWithdrawn",
      "type": "event"
    },
    {
      "anonymous": false,
      "inputs": [
        {
          "indexed": false,
          "internalType": "address",
          "name": "borrower",
          "type": "address"
        },
        {
          "indexed": false,
          "internalType": "uint256",
          "name": "amount",
          "type": "uint256"
        },
        {
          "indexed": false,
          "internalType": "uint256",
          "name": "when",
          "type": "uint256"
        }
      ],
      "name": "Withdraw",
      "type": "event"
    },
    {
      "inputs": [
        {
          "internalType": "contract IERC20Standard",
          "name": "",
          "type": "address"
        }
      ],
      "name": "aTokens",
      "outputs": [
        {
          "internalType": "contract IERC20Standard",
          "name": "",
          "type": "address"
        }
      ],
      "stateMutability": "view",
      "type": "function"
    },
    {
      "inputs": [],
      "name": "aaveAddressProvider",
      "outputs": [
        {
          "internalType": "contract IPoolAddressesProvider",
          "name": "",
          "type": "address"
        }
      ],
      "stateMutability": "view",
      "type": "function"
    },
    {
      "inputs": [
        {
          "internalType": "uint256",
          "name": "_loanId",
          "type": "uint256"
        },
        {
          "internalType": "uint256",
          "name": "_amountCollateral",
          "type": "uint256"
        },
        {
          "internalType": "contract IERC20Standard",
          "name": "_collateral",
          "type": "address"
        },
        {
          "internalType": "bool",
          "name": "_isETH",
          "type": "bool"
        }
      ],
      "name": "addCollateral",
      "outputs": [],
      "stateMutability": "payable",
      "type": "function"
    },
    {
      "inputs": [
        {
          "internalType": "contract IERC20Standard",
          "name": "",
          "type": "address"
        }
      ],
      "name": "ccflActiveCollaterals",
      "outputs": [
        {
          "internalType": "bool",
          "name": "",
          "type": "bool"
        }
      ],
      "stateMutability": "view",
      "type": "function"
    },
    {
      "inputs": [
        {
          "internalType": "contract IERC20Standard",
          "name": "",
          "type": "address"
        }
      ],
      "name": "ccflActivePoolStableCoins",
      "outputs": [
        {
          "internalType": "bool",
          "name": "",
          "type": "bool"
        }
      ],
      "stateMutability": "view",
      "type": "function"
    },
    {
      "inputs": [
        {
          "internalType": "uint256",
          "name": "",
          "type": "uint256"
        }
      ],
      "name": "ccflPoolStableCoins",
      "outputs": [
        {
          "internalType": "contract IERC20Standard",
          "name": "",
          "type": "address"
        }
      ],
      "stateMutability": "view",
      "type": "function"
    },
    {
      "inputs": [
        {
          "internalType": "contract IERC20Standard",
          "name": "",
          "type": "address"
        }
      ],
      "name": "ccflPools",
      "outputs": [
        {
          "internalType": "contract ICCFLPool",
          "name": "",
          "type": "address"
        }
      ],
      "stateMutability": "view",
      "type": "function"
    },
    {
      "inputs": [
        {
          "internalType": "contract IERC20Standard[]",
          "name": "array",
          "type": "address[]"
        },
        {
          "internalType": "contract IERC20Standard",
          "name": "el",
          "type": "address"
        }
      ],
      "name": "checkExistElement",
      "outputs": [
        {
          "internalType": "bool",
          "name": "",
          "type": "bool"
        }
      ],
      "stateMutability": "pure",
      "type": "function"
    },
    {
      "inputs": [
        {
          "internalType": "uint256",
          "name": "",
          "type": "uint256"
        }
      ],
      "name": "collateralTokens",
      "outputs": [
        {
          "internalType": "contract IERC20Standard",
          "name": "",
          "type": "address"
        }
      ],
      "stateMutability": "view",
      "type": "function"
    },
    {
      "inputs": [
        {
          "internalType": "address",
          "name": "",
          "type": "address"
        },
        {
          "internalType": "contract IERC20Standard",
          "name": "",
          "type": "address"
        }
      ],
      "name": "collaterals",
      "outputs": [
        {
          "internalType": "uint256",
          "name": "",
          "type": "uint256"
        }
      ],
      "stateMutability": "view",
      "type": "function"
    },
    {
      "inputs": [
        {
          "internalType": "uint256",
          "name": "_amount",
          "type": "uint256"
        },
        {
          "internalType": "contract IERC20Standard",
          "name": "_stableCoin",
          "type": "address"
        },
        {
          "internalType": "uint256",
          "name": "_amountCollateral",
          "type": "uint256"
        },
        {
          "internalType": "contract IERC20Standard",
          "name": "_collateral",
          "type": "address"
        },
        {
          "internalType": "bool",
          "name": "_isYieldGenerating",
          "type": "bool"
        },
        {
          "internalType": "bool",
          "name": "_isETH",
          "type": "bool"
        }
      ],
      "name": "createLoan",
      "outputs": [],
      "stateMutability": "payable",
      "type": "function"
    },
    {
      "inputs": [
        {
          "internalType": "uint256",
          "name": "_loanId",
          "type": "uint256"
        }
      ],
      "name": "getHealthFactor",
      "outputs": [
        {
          "internalType": "uint256",
          "name": "",
          "type": "uint256"
        }
      ],
      "stateMutability": "view",
      "type": "function"
    },
    {
      "inputs": [
        {
          "internalType": "contract IERC20Standard",
          "name": "_stableCoin",
          "type": "address"
        },
        {
          "internalType": "bool",
          "name": "isPool",
          "type": "bool"
        }
      ],
      "name": "getLatestPrice",
      "outputs": [
        {
          "internalType": "uint256",
          "name": "",
          "type": "uint256"
        }
      ],
      "stateMutability": "view",
      "type": "function"
    },
    {
      "inputs": [
        {
          "internalType": "uint256",
          "name": "_loanId",
          "type": "uint256"
        }
      ],
      "name": "getLoanAddress",
      "outputs": [
        {
          "internalType": "address",
          "name": "",
          "type": "address"
        }
      ],
      "stateMutability": "view",
      "type": "function"
    },
    {
      "inputs": [
        {
          "internalType": "uint256",
          "name": "_amount",
          "type": "uint256"
        },
        {
          "internalType": "contract IERC20Standard",
          "name": "_stableCoin",
          "type": "address"
        },
        {
          "internalType": "contract IERC20Standard",
          "name": "_collateral",
          "type": "address"
        }
      ],
      "name": "getMinimalCollateral",
      "outputs": [
        {
          "internalType": "uint256",
          "name": "",
          "type": "uint256"
        }
      ],
      "stateMutability": "view",
      "type": "function"
    },
    {
      "inputs": [
        {
          "internalType": "contract IERC20Standard[]",
          "name": "_ccflPoolStableCoin",
          "type": "address[]"
        },
        {
          "internalType": "contract AggregatorV3Interface[]",
          "name": "_poolAggregators",
          "type": "address[]"
        },
        {
          "internalType": "contract ICCFLPool[]",
          "name": "_ccflPools",
          "type": "address[]"
        },
        {
          "internalType": "contract IERC20Standard[]",
          "name": "_collateralTokens",
          "type": "address[]"
        },
        {
          "internalType": "contract AggregatorV3Interface[]",
          "name": "_collateralAggregators",
          "type": "address[]"
        },
        {
          "internalType": "contract IERC20Standard[]",
          "name": "_aTokens",
          "type": "address[]"
        },
        {
          "internalType": "contract IPoolAddressesProvider",
          "name": "_aaveAddressProvider",
          "type": "address"
        },
        {
          "internalType": "uint256",
          "name": "_maxLTV",
          "type": "uint256"
        },
        {
          "internalType": "uint256",
          "name": "_liquidationThreshold",
          "type": "uint256"
        },
        {
          "internalType": "contract ICCFLLoan",
          "name": "_ccflLoan",
          "type": "address"
        }
      ],
      "name": "initialize",
      "outputs": [],
      "stateMutability": "nonpayable",
      "type": "function"
    },
    {
      "inputs": [
        {
          "internalType": "uint256",
          "name": "_loanId",
          "type": "uint256"
        }
      ],
      "name": "liquidate",
      "outputs": [],
      "stateMutability": "nonpayable",
      "type": "function"
    },
    {
      "inputs": [],
      "name": "liquidationThreshold",
      "outputs": [
        {
          "internalType": "uint256",
          "name": "",
          "type": "uint256"
        }
      ],
      "stateMutability": "view",
      "type": "function"
    },
    {
      "inputs": [],
      "name": "liquidator",
      "outputs": [
        {
          "internalType": "address",
          "name": "",
          "type": "address"
        }
      ],
      "stateMutability": "view",
      "type": "function"
    },
    {
      "inputs": [],
      "name": "loandIds",
      "outputs": [
        {
          "internalType": "uint256",
          "name": "",
          "type": "uint256"
        }
      ],
      "stateMutability": "view",
      "type": "function"
    },
    {
      "inputs": [],
      "name": "maxLTV",
      "outputs": [
        {
          "internalType": "uint256",
          "name": "",
          "type": "uint256"
        }
      ],
      "stateMutability": "view",
      "type": "function"
    },
    {
      "inputs": [],
      "name": "owner",
      "outputs": [
        {
          "internalType": "address",
          "name": "",
          "type": "address"
        }
      ],
      "stateMutability": "view",
      "type": "function"
    },
    {
      "inputs": [],
      "name": "penaltyLender",
      "outputs": [
        {
          "internalType": "uint256",
          "name": "",
          "type": "uint256"
        }
      ],
      "stateMutability": "view",
      "type": "function"
    },
    {
      "inputs": [],
      "name": "penaltyLiquidator",
      "outputs": [
        {
          "internalType": "uint256",
          "name": "",
          "type": "uint256"
        }
      ],
      "stateMutability": "view",
      "type": "function"
    },
    {
      "inputs": [],
      "name": "penaltyPlatform",
      "outputs": [
        {
          "internalType": "uint256",
          "name": "",
          "type": "uint256"
        }
      ],
      "stateMutability": "view",
      "type": "function"
    },
    {
      "inputs": [],
      "name": "platform",
      "outputs": [
        {
          "internalType": "address",
          "name": "",
          "type": "address"
        }
      ],
      "stateMutability": "view",
      "type": "function"
    },
    {
      "inputs": [
        {
          "internalType": "contract IERC20Standard",
          "name": "",
          "type": "address"
        }
      ],
      "name": "priceFeeds",
      "outputs": [
        {
          "internalType": "contract AggregatorV3Interface",
          "name": "",
          "type": "address"
        }
      ],
      "stateMutability": "view",
      "type": "function"
    },
    {
      "inputs": [
        {
          "internalType": "contract IERC20Standard",
          "name": "",
          "type": "address"
        }
      ],
      "name": "pricePoolFeeds",
      "outputs": [
        {
          "internalType": "contract AggregatorV3Interface",
          "name": "",
          "type": "address"
        }
      ],
      "stateMutability": "view",
      "type": "function"
    },
    {
      "inputs": [
        {
          "internalType": "uint256",
          "name": "_loanId",
          "type": "uint256"
        },
        {
          "internalType": "uint256",
          "name": "_amount",
          "type": "uint256"
        },
        {
          "internalType": "contract IERC20Standard",
          "name": "_stableCoin",
          "type": "address"
        }
      ],
      "name": "repayLoan",
      "outputs": [],
      "stateMutability": "nonpayable",
      "type": "function"
    },
    {
      "inputs": [
        {
          "internalType": "contract IPoolAddressesProvider",
          "name": "_aaveAddressProvider",
          "type": "address"
        }
      ],
      "name": "setAaveProvider",
      "outputs": [],
      "stateMutability": "nonpayable",
      "type": "function"
    },
    {
      "inputs": [
        {
          "internalType": "contract IERC20Standard",
          "name": "_token",
          "type": "address"
        },
        {
          "internalType": "bool",
          "name": "_isActived",
          "type": "bool"
        },
        {
          "internalType": "bool",
          "name": "_isPoolToken",
          "type": "bool"
        }
      ],
      "name": "setActiveToken",
      "outputs": [],
      "stateMutability": "nonpayable",
      "type": "function"
    },
    {
      "inputs": [
        {
          "internalType": "contract IERC20Standard[]",
          "name": "_collateralTokens",
          "type": "address[]"
        },
        {
          "internalType": "contract AggregatorV3Interface[]",
          "name": "_collateralAggregators",
          "type": "address[]"
        },
        {
          "internalType": "contract IERC20Standard[]",
          "name": "_aTokens",
          "type": "address[]"
        }
      ],
      "name": "setCollaterals",
      "outputs": [],
      "stateMutability": "nonpayable",
      "type": "function"
    },
    {
      "inputs": [
        {
          "internalType": "uint256",
          "name": "_platform",
          "type": "uint256"
        },
        {
          "internalType": "uint256",
          "name": "_liquidator",
          "type": "uint256"
        },
        {
          "internalType": "uint256",
          "name": "_lender",
          "type": "uint256"
        }
      ],
      "name": "setPenalty",
      "outputs": [],
      "stateMutability": "nonpayable",
      "type": "function"
    },
    {
      "inputs": [
        {
          "internalType": "address",
          "name": "_liquidator",
          "type": "address"
        },
        {
          "internalType": "address",
          "name": "_platform",
          "type": "address"
        }
      ],
      "name": "setPlatformAddress",
      "outputs": [],
      "stateMutability": "nonpayable",
      "type": "function"
    },
    {
      "inputs": [
        {
          "internalType": "contract IERC20Standard[]",
          "name": "_ccflPoolStableCoin",
          "type": "address[]"
        },
        {
          "internalType": "contract AggregatorV3Interface[]",
          "name": "_poolAggregators",
          "type": "address[]"
        },
        {
          "internalType": "contract ICCFLPool[]",
          "name": "_ccflPools",
          "type": "address[]"
        }
      ],
      "name": "setPools",
      "outputs": [],
      "stateMutability": "nonpayable",
      "type": "function"
    },
    {
      "inputs": [
        {
          "internalType": "contract ISwapRouter",
          "name": "_swapRouter",
          "type": "address"
        }
      ],
      "name": "setSwapRouter",
      "outputs": [],
      "stateMutability": "nonpayable",
      "type": "function"
    },
    {
      "inputs": [
        {
          "internalType": "uint256",
          "name": "_maxLTV",
          "type": "uint256"
        },
        {
          "internalType": "uint256",
          "name": "_liquidationThreshold",
          "type": "uint256"
        }
      ],
      "name": "setThreshold",
      "outputs": [],
      "stateMutability": "nonpayable",
      "type": "function"
    },
    {
      "inputs": [
        {
          "internalType": "contract IWETH",
          "name": "_iWETH",
          "type": "address"
        }
      ],
      "name": "setWETH",
      "outputs": [],
      "stateMutability": "nonpayable",
      "type": "function"
    },
    {
      "inputs": [],
      "name": "wETH",
      "outputs": [
        {
          "internalType": "contract IWETH",
          "name": "",
          "type": "address"
        }
      ],
      "stateMutability": "view",
      "type": "function"
    },
    {
      "inputs": [
        {
          "internalType": "uint256",
          "name": "_loanId",
          "type": "uint256"
        },
        {
          "internalType": "bool",
          "name": "isETH",
          "type": "bool"
        }
      ],
      "name": "withdrawAllCollateral",
      "outputs": [],
      "stateMutability": "nonpayable",
      "type": "function"
    },
    {
      "inputs": [
        {
          "internalType": "contract IERC20Standard",
          "name": "_stableCoin",
          "type": "address"
        },
        {
          "internalType": "uint256",
          "name": "_loanId",
          "type": "uint256"
        }
      ],
      "name": "withdrawLoan",
      "outputs": [],
      "stateMutability": "nonpayable",
      "type": "function"
    },
    {
      "stateMutability": "payable",
      "type": "receive"
    }
  ],
  "bytecode": "0x608060405234801561001057600080fd5b50613b23806100206000396000f3fe6080604052600436106102ca5760003560e01c80638ba02e1c11610179578063c694fdc1116100d6578063f24286211161008a578063f6597bbb11610064578063f6597bbb14610814578063f8f126ff1461082a578063fdb2b32c1461084a57600080fd5b8063f2428621146107be578063f384bd05146107de578063f3cf4ada146107f457600080fd5b8063e51e119e116100bb578063e51e119e14610739578063e787ea2c1461076e578063ec7be39d1461079e57600080fd5b8063c694fdc1146106f9578063cdaabe411461071957600080fd5b8063a8700c3c1161012d578063b92dd92511610112578063b92dd92514610673578063b9c36209146106a3578063c0d01546146106c357600080fd5b8063a8700c3c14610640578063b3bffeaa1461065357600080fd5b8063989397d41161015e578063989397d4146105be5780639dcb511a146105f4578063a58bab621461062a57600080fd5b80638ba02e1c146105885780638da5cb5b1461059e57600080fd5b806341273657116102275780635c8edac4116101db57806364b52097116101c057806364b52097146105285780636eb0fdd014610548578063756078151461056857600080fd5b80635c8edac4146104e8578063611f347d1461050857600080fd5b80634bde38c81161020c5780634bde38c8146104955780634dd7bd3f146104b55780635b769f3c146104c857600080fd5b80634127365714610455578063415f12401461047557600080fd5b806338ef67171161027e5780633e108ad9116102635780633e108ad9146103e95780634031234c1461041f5780634046ebae1461043557600080fd5b806338ef6717146103a95780633a2ad9ae146103c957600080fd5b8063172c48c7116102af578063172c48c71461032157806317845c69146103595780631d9eb5d91461037957600080fd5b80630769594d146102d6578063101b9d31146102f857600080fd5b366102d157005b600080fd5b3480156102e257600080fd5b506102f66102f1366004613239565b610880565b005b34801561030457600080fd5b5061030e60165481565b6040519081526020015b60405180910390f35b34801561032d57600080fd5b5061034161033c3660046132c1565b610a84565b6040516001600160a01b039091168152602001610318565b34801561036557600080fd5b5061030e6103743660046132c1565b610aae565b34801561038557600080fd5b506103996103943660046132da565b610c3d565b6040519015158152602001610318565b3480156103b557600080fd5b506102f66103c4366004613337565b610c98565b3480156103d557600080fd5b506102f66103e4366004613369565b610d05565b3480156103f557600080fd5b50610341610404366004613337565b600a602052600090815260409020546001600160a01b031681565b34801561042b57600080fd5b5061030e600c5481565b34801561044157600080fd5b50601054610341906001600160a01b031681565b34801561046157600080fd5b506102f6610470366004613337565b610f14565b34801561048157600080fd5b506102f66104903660046132c1565b610f81565b3480156104a157600080fd5b50601154610341906001600160a01b031681565b6102f66104c33660046133b4565b61164e565b3480156104d457600080fd5b506102f66104e3366004613337565b6118ec565b3480156104f457600080fd5b506102f66105033660046133fe565b611959565b34801561051457600080fd5b506102f6610523366004613423565b611a60565b34801561053457600080fd5b506102f6610543366004613239565b611e23565b34801561055457600080fd5b506102f6610563366004613550565b61201a565b34801561057457600080fd5b5061030e61058336600461357e565b6122c8565b34801561059457600080fd5b5061030e60015481565b3480156105aa57600080fd5b50601254610341906001600160a01b031681565b3480156105ca57600080fd5b506103416105d9366004613337565b600e602052600090815260409020546001600160a01b031681565b34801561060057600080fd5b5061034161060f366004613337565b600d602052600090815260409020546001600160a01b031681565b34801561063657600080fd5b5061030e60155481565b6102f661064e3660046135b5565b612404565b34801561065f57600080fd5b5061030e61066e366004613625565b612cb5565b34801561067f57600080fd5b5061039961068e366004613337565b60066020526000908152604090205460ff1681565b3480156106af57600080fd5b506102f66106be366004613653565b612db6565b3480156106cf57600080fd5b506103416106de366004613337565b6002602052600090815260409020546001600160a01b031681565b34801561070557600080fd5b506103416107143660046132c1565b612e0c565b34801561072557600080fd5b50600954610341906001600160a01b031681565b34801561074557600080fd5b5061030e610754366004613675565b600060208181529281526040808220909352908152205481565b34801561077a57600080fd5b50610399610789366004613337565b60086020526000908152604090205460ff1681565b3480156107aa57600080fd5b506102f66107b93660046136a3565b612e1c565b3480156107ca57600080fd5b50601354610341906001600160a01b031681565b3480156107ea57600080fd5b5061030e600b5481565b34801561080057600080fd5b506102f661080f3660046136cf565b612f02565b34801561082057600080fd5b5061030e60145481565b34801561083657600080fd5b506102f6610845366004613675565b612f58565b34801561085657600080fd5b506103416108653660046132c1565b6000908152600560205260409020546001600160a01b031690565b6012546001600160a01b031633146108d05760405162461bcd60e51b815260206004820152600e60248201526d37b7363c903a34329037bbb732b960911b60448201526064015b60405180910390fd5b60005b8351811015610a7e5760008482815181106108f0576108f06136fb565b6020026020010151905061095e600380548060200260200160405190810160405280929190818152602001828054801561095357602002820191906000526020600020905b81546001600160a01b03168152600190910190602001808311610935575b505050505082610c3d565b15156000036109b357600380546001810182556000919091527fc2575a0e9e593c00f959f8c92f12db2869c3395a3b0502d05e2516446f71f85b0180546001600160a01b0319166001600160a01b0383161790555b8282815181106109c5576109c56136fb565b602002602001015160026000836001600160a01b03166001600160a01b0316815260200190815260200160002060006101000a8154816001600160a01b0302191690836001600160a01b03160217905550838281518110610a2857610a286136fb565b6020908102919091018101516001600160a01b039283166000908152600e8352604080822080546001600160a01b0319169590931694909417909155600690915220805460ff19166001908117909155016108d3565b50505050565b60078181548110610a9457600080fd5b6000918252602090912001546001600160a01b0316905081565b600081815260056020526040808220548151635d3e2fa160e01b815291516001600160a01b039091169183918391635d3e2fa19160048083019260c09291908290030181865afa158015610b06573d6000803e3d6000fd5b505050506040513d601f19601f82011682018060405250810190610b2a9190613711565b60808101516001600160a01b0390811660009081526002602052604080822054905163a52f38d160e01b815260048101899052939450909291169063a52f38d190602401602060405180830381865afa158015610b8b573d6000803e3d6000fd5b505050506040513d601f19601f82011682018060405250810190610baf91906137aa565b6040517f17845c69000000000000000000000000000000000000000000000000000000008152600481018290529091506001600160a01b038416906317845c6990602401602060405180830381865afa158015610c10573d6000803e3d6000fd5b505050506040513d601f19601f82011682018060405250810190610c3491906137aa565b95945050505050565b600080805b8451811015610c8e57836001600160a01b0316858281518110610c6757610c676136fb565b60200260200101516001600160a01b031603610c865760019150610c8e565b600101610c42565b5090505b92915050565b6012546001600160a01b03163314610ce35760405162461bcd60e51b815260206004820152600e60248201526d37b7363c903a34329037bbb732b960911b60448201526064016108c7565b600980546001600160a01b0319166001600160a01b0392909216919091179055565b6012546001600160a01b03163314610d505760405162461bcd60e51b815260206004820152600e60248201526d37b7363c903a34329037bbb732b960911b60448201526064016108c7565b8015610e3657610dba6003805480602002602001604051908101604052809291908181526020018280548015610daf57602002820191906000526020600020905b81546001600160a01b03168152600190910190602001808311610d91575b505050505084610c3d565b1515600114610e0b5760405162461bcd60e51b815260206004820152601460248201527f546f6b656e206973206e6f74206578697374656400000000000000000000000060448201526064016108c7565b6001600160a01b0383166000908152600860205260409020805483151560ff19909116179055505050565b610e986007805480602002602001604051908101604052809291908181526020018280548015610daf576020028201919060005260206000209081546001600160a01b03168152600190910190602001808311610d9157505050505084610c3d565b1515600114610ee95760405162461bcd60e51b815260206004820152601460248201527f546f6b656e206973206e6f74206578697374656400000000000000000000000060448201526064016108c7565b6001600160a01b0383166000908152600660205260409020805483151560ff19909116179055505050565b6012546001600160a01b03163314610f5f5760405162461bcd60e51b815260206004820152600e60248201526d37b7363c903a34329037bbb732b960911b60448201526064016108c7565b600f80546001600160a01b0319166001600160a01b0392909216919091179055565b600081815260056020526040808220548151635d3e2fa160e01b815291516001600160a01b0390911692918391635d3e2fa19160048082019260c0929091908290030181865afa158015610fd9573d6000803e3d6000fd5b505050506040513d601f19601f82011682018060405250810190610ffd9190613711565b60808101516001600160a01b0390811660009081526002602052604080822054905163a52f38d160e01b815260048101889052939450909291169063a52f38d190602401602060405180830381865afa15801561105e573d6000803e3d6000fd5b505050506040513d601f19601f8201168201806040525081019061108291906137aa565b9050826001600160a01b031663d296d1f1826014546015546016546110a791906137d9565b6110b191906137d9565b6040516001600160e01b031960e085901b16815260048101929092526024820152604401600060405180830381600087803b1580156110ef57600080fd5b505af1158015611103573d6000803e3d6000fd5b5050505081608001516001600160a01b03166323b872dd84306103e86014546015546016546103e861113591906137d9565b61113f91906137d9565b61114991906137d9565b61115390876137ec565b61115d9190613803565b6040516001600160e01b031960e086901b1681526001600160a01b03938416600482015292909116602483015260448201526064016020604051808303816000875af11580156111b1573d6000803e3d6000fd5b505050506040513d601f19601f820116820180604052508101906111d59190613825565b5060808201516001600160a01b039081166000818152600260205260409081902054905163095ea7b360e01b815292166004830152602482018390529063095ea7b3906044016020604051808303816000875af115801561123a573d6000803e3d6000fd5b505050506040513d601f19601f8201168201806040525081019061125e9190613825565b5060808201516001600160a01b039081166000908152600260205260409081902054905163d8aed14560e01b8152600481018790526024810184905291169063d8aed14590604401600060405180830381600087803b1580156112c057600080fd5b505af11580156112d4573d6000803e3d6000fd5b5050505081608001516001600160a01b031663a9059cbb601160009054906101000a90046001600160a01b03166103e86014548561131291906137ec565b61131c9190613803565b6040516001600160e01b031960e085901b1681526001600160a01b03909216600483015260248201526044016020604051808303816000875af1158015611367573d6000803e3d6000fd5b505050506040513d601f19601f8201168201806040525081019061138b9190613825565b5060808201516010546015546001600160a01b039283169263a9059cbb9216906103e8906113b990866137ec565b6113c39190613803565b6040516001600160e01b031960e085901b1681526001600160a01b03909216600483015260248201526044016020604051808303816000875af115801561140e573d6000803e3d6000fd5b505050506040513d601f19601f820116820180604052508101906114329190613825565b5060006103e86015548361144691906137ec565b6114509190613803565b6103e86014548461146191906137ec565b61146b9190613803565b836103e86014546015546016546103e861148591906137d9565b61148f91906137d9565b61149991906137d9565b6114a390876137ec565b6114ad9190613803565b6114b79190613842565b6114c19190613842565b6114cb9190613842565b60808401516001600160a01b039081166000818152600260205260409081902054905163095ea7b360e01b8152921660048301526024820183905291925063095ea7b3906044016020604051808303816000875af1158015611531573d6000803e3d6000fd5b505050506040513d601f19601f820116820180604052508101906115559190613825565b5060808301516001600160a01b03908116600090815260026020526040908190205490517f5737910200000000000000000000000000000000000000000000000000000000815260048101849052911690635737910290602401600060405180830381600087803b1580156115c957600080fd5b505af11580156115dd573d6000803e3d6000fd5b50505060008681526005602052604080822054815163232fa73360e01b815291516001600160a01b03909116935063232fa7339260048084019391929182900301818387803b15801561162f57600080fd5b505af1158015611643573d6000803e3d6000fd5b505050505050505050565b6001600160a01b038216600090815260086020526040902054829060ff1615156001146116bd5760405162461bcd60e51b815260206004820152601f60248201527f436f6c6c61746572616c20746f6b656e206973206e6f7420616374697665640060448201526064016108c7565b811561177d57348411156117135760405162461bcd60e51b815260206004820181905260248201527f646f206e6f74206861766520656e6f756768206465706f73697465642045544860448201526064016108c7565b601360009054906101000a90046001600160a01b03166001600160a01b031663d0e30db0856040518263ffffffff1660e01b81526004016000604051808303818588803b15801561176357600080fd5b505af1158015611777573d6000803e3d6000fd5b50505050505b60008581526005602052604090819020549051633390ef1360e11b8152600481018690526001600160a01b03909116908190636721de2690602401600060405180830381600087803b1580156117d257600080fd5b505af11580156117e6573d6000803e3d6000fd5b5050505082156118695760405163a9059cbb60e01b81526001600160a01b0382811660048301526024820187905285169063a9059cbb906044016020604051808303816000875af115801561183f573d6000803e3d6000fd5b505050506040513d601f19601f820116820180604052508101906118639190613825565b506118e4565b6040516323b872dd60e01b81523360048201526001600160a01b038281166024830152604482018790528516906323b872dd906064016020604051808303816000875af11580156118be573d6000803e3d6000fd5b505050506040513d601f19601f820116820180604052508101906118e29190613825565b505b505050505050565b6012546001600160a01b031633146119375760405162461bcd60e51b815260206004820152600e60248201526d37b7363c903a34329037bbb732b960911b60448201526064016108c7565b601380546001600160a01b0319166001600160a01b0392909216919091179055565b600082815260056020526040808220548151635d3e2fa160e01b815291516001600160a01b0390911692918391635d3e2fa19160048082019260c0929091908290030181865afa1580156119b1573d6000803e3d6000fd5b505050506040513d601f19601f820116820180604052508101906119d59190613711565b60208101516040517f102cb82e0000000000000000000000000000000000000000000000000000000081526001600160a01b039182166004820152851515602482015291925083169063102cb82e906044015b600060405180830381600087803b158015611a4257600080fd5b505af1158015611a56573d6000803e3d6000fd5b5050505050505050565b7ff0c57e16840df040f15088dc2f81fe391c3923bec73e23a9662efc9c229c6a00805468010000000000000000810460ff16159067ffffffffffffffff16600081158015611aab5750825b905060008267ffffffffffffffff166001148015611ac85750303b155b905081158015611ad6575080155b15611b0d576040517ff92ee8a900000000000000000000000000000000000000000000000000000000815260040160405180910390fd5b845467ffffffffffffffff191660011785558315611b4157845468ff00000000000000001916680100000000000000001785555b8e60039080519060200190611b5792919061305c565b506001805560005b600354811015611c6457600060038281548110611b7e57611b7e6136fb565b6000918252602090912001548f516001600160a01b0390911691508f9083908110611bab57611bab6136fb565b602002602001015160026000836001600160a01b03166001600160a01b0316815260200190815260200160002060006101000a8154816001600160a01b0302191690836001600160a01b031602179055508f8281518110611c0e57611c0e6136fb565b6020908102919091018101516001600160a01b039283166000908152600e8352604080822080546001600160a01b0319169590931694909417909155600690915220805460ff1916600190811790915501611b5f565b508b51611c789060079060208f019061305c565b5060005b600754811015611d8157600060078281548110611c9b57611c9b6136fb565b6000918252602090912001548d516001600160a01b0390911691508d9083908110611cc857611cc86136fb565b6020026020010151600d6000836001600160a01b03166001600160a01b0316815260200190815260200160002060006101000a8154816001600160a01b0302191690836001600160a01b031602179055508b8281518110611d2b57611d2b6136fb565b6020908102919091018101516001600160a01b039283166000908152600a8352604080822080546001600160a01b0319169590931694909417909155600890915220805460ff1916600190811790915501611c7c565b50600980546001600160a01b03808c166001600160a01b0319928316179092556004805492891692821692909217909155600b899055600c88905560128054909116331790558315611e1257845468ff000000000000000019168555604051600181527fc7f505b2f371ae2175ee4913f4499e1f2633a7b5936321eed1cdaeb6115181d29060200160405180910390a15b505050505050505050505050505050565b6012546001600160a01b03163314611e6e5760405162461bcd60e51b815260206004820152600e60248201526d37b7363c903a34329037bbb732b960911b60448201526064016108c7565b60005b8351811015610a7e576000848281518110611e8e57611e8e6136fb565b60200260200101519050611efa6007805480602002602001604051908101604052809291908181526020018280548015610953576020028201919060005260206000209081546001600160a01b0316815260019091019060200180831161093557505050505082610c3d565b1515600003611f4f57600780546001810182556000919091527fa66cc928b5edb82af9bd49922954155ab7b0942694bea4ce44661d9a8736c6880180546001600160a01b0319166001600160a01b0383161790555b838281518110611f6157611f616136fb565b6020026020010151600d6000836001600160a01b03166001600160a01b0316815260200190815260200160002060006101000a8154816001600160a01b0302191690836001600160a01b03160217905550828281518110611fc457611fc46136fb565b6020908102919091018101516001600160a01b039283166000908152600a8352604080822080546001600160a01b0319169590931694909417909155600890915220805460ff1916600190811790915501611e71565b6001600160a01b038116600090815260066020526040902054819060ff1615156001146120895760405162461bcd60e51b815260206004820152601960248201527f506f6f6c20746f6b656e206973206e6f7420616374697665640000000000000060448201526064016108c7565b6040516323b872dd60e01b8152336004820152306024820152604481018490526001600160a01b038316906323b872dd906064016020604051808303816000875af11580156120dc573d6000803e3d6000fd5b505050506040513d601f19601f820116820180604052508101906121009190613825565b506001600160a01b038281166000818152600260205260409081902054905163095ea7b360e01b815292166004830152602482018590529063095ea7b3906044016020604051808303816000875af1158015612160573d6000803e3d6000fd5b505050506040513d601f19601f820116820180604052508101906121849190613825565b506001600160a01b038281166000908152600260205260409081902054905163d8aed14560e01b8152600481018790526024810186905291169063d8aed14590604401600060405180830381600087803b1580156121e157600080fd5b505af11580156121f5573d6000803e3d6000fd5b505050506001600160a01b038281166000908152600260205260409081902054905163a52f38d160e01b81526004810187905291169063a52f38d190602401602060405180830381865afa158015612251573d6000803e3d6000fd5b505050506040513d601f19601f8201168201806040525081019061227591906137aa565b600003610a7e5760008481526005602052604080822054815163232fa73360e01b815291516001600160a01b039091169263232fa733926004808201939182900301818387803b158015611a4257600080fd5b60006122d5826000612cb5565b612710846001600160a01b031663313ce5676040518163ffffffff1660e01b8152600401602060405180830381865afa158015612316573d6000803e3d6000fd5b505050506040513d601f19601f8201168201806040525081019061233a9190613855565b61234590600a61395c565b612350866001612cb5565b600b54866001600160a01b031663313ce5676040518163ffffffff1660e01b8152600401602060405180830381865afa158015612391573d6000803e3d6000fd5b505050506040513d601f19601f820116820180604052508101906123b59190613855565b6123c090600a61395c565b6123ca908a6137ec565b6123d491906137ec565b6123de91906137ec565b6123e89190613803565b6123f29190613803565b6123fc9190613803565b949350505050565b6001600160a01b038516600090815260066020526040902054859060ff1615156001146124735760405162461bcd60e51b815260206004820152601960248201527f506f6f6c20746f6b656e206973206e6f7420616374697665640000000000000060448201526064016108c7565b6001600160a01b038416600090815260086020526040902054849060ff1615156001146124e25760405162461bcd60e51b815260206004820152601f60248201527f436f6c6c61746572616c20746f6b656e206973206e6f7420616374697665640060448201526064016108c7565b82156125a257348611156125385760405162461bcd60e51b815260206004820181905260248201527f646f206e6f74206861766520656e6f756768206465706f73697465642045544860448201526064016108c7565b601360009054906101000a90046001600160a01b03166001600160a01b031663d0e30db0876040518263ffffffff1660e01b81526004016000604051808303818588803b15801561258857600080fd5b505af115801561259c573d6000803e3d6000fd5b50505050505b866001600160a01b031663313ce5676040518163ffffffff1660e01b8152600401602060405180830381865afa1580156125e0573d6000803e3d6000fd5b505050506040513d601f19601f820116820180604052508101906126049190613855565b61260f90600a61395c565b61261a886001612cb5565b612624908a6137ec565b612630906127106137ec565b61263a9190613803565b856001600160a01b031663313ce5676040518163ffffffff1660e01b8152600401602060405180830381865afa158015612678573d6000803e3d6000fd5b505050506040513d601f19601f8201168201806040525081019061269c9190613855565b6126a790600a61395c565b600b546126b5886000612cb5565b6126bf908a6137ec565b6126c991906137ec565b6126d39190613803565b10156127215760405162461bcd60e51b815260206004820152601c60248201527f446f6e2774206861766520656e6f75676820636f6c6c61746572616c0000000060448201526064016108c7565b6001600160a01b038088166000908152600260209081526040918290205482517f3b24cc2100000000000000000000000000000000000000000000000000000000815292518c949190911692633b24cc219260048083019391928290030181865afa158015612794573d6000803e3d6000fd5b505050506040513d601f19601f820116820180604052508101906127b891906137aa565b10156128065760405162461bcd60e51b815260206004820152601b60248201527f506f6f6c20646f6e2774206861766520656e6f7567682066756e64000000000060448201526064016108c7565b6040805160c081018252600081830181905260a08201819052336020808401828152606085018e815260015486526001600160a01b038e81166080880181905286526002909352938690205485519451915196517fd6bda0c000000000000000000000000000000000000000000000000000000000815260048101959095526024850191909152948116604484015292939092169063d6bda0c090606401600060405180830381600087803b1580156128be57600080fd5b505af11580156128d2573d6000803e3d6000fd5b5050506001600160a01b03808b166000908152600e602052604081205460045490831693508a926129039116612fd1565b90506000819050806001600160a01b03166383f8964e8785600960009054906101000a90046001600160a01b0316600a6000896001600160a01b03166001600160a01b0316815260200190815260200160002060009054906101000a90046001600160a01b0316600b54600c54600d60008c6001600160a01b03166001600160a01b0316815260200190815260200160002060009054906101000a90046001600160a01b03168c600f60009054906101000a90046001600160a01b0316601160009054906101000a90046001600160a01b0316601360009054906101000a90046001600160a01b03166040518c63ffffffff1660e01b8152600401612a129b9a9998979695949392919061396b565b600060405180830381600087803b158015612a2c57600080fd5b505af1158015612a40573d6000803e3d6000fd5b50506040517f8ac1b7750000000000000000000000000000000000000000000000000000000081523060048201526001600160a01b0384169250638ac1b7759150602401600060405180830381600087803b158015612a9e57600080fd5b505af1158015612ab2573d6000803e3d6000fd5b50505050891515600103612b1457806001600160a01b03166307a6bf696040518163ffffffff1660e01b8152600401600060405180830381600087803b158015612afb57600080fd5b505af1158015612b0f573d6000803e3d6000fd5b505050505b604051633390ef1360e11b8152600481018d90526001600160a01b03821690636721de2690602401600060405180830381600087803b158015612b5657600080fd5b505af1158015612b6a573d6000803e3d6000fd5b505050508815612bed5760405163a9059cbb60e01b81526001600160a01b038381166004830152602482018e90528c169063a9059cbb906044016020604051808303816000875af1158015612bc3573d6000803e3d6000fd5b505050506040513d601f19601f82011682018060405250810190612be79190613825565b50612c68565b6040516323b872dd60e01b81523360048201526001600160a01b038381166024830152604482018e90528c16906323b872dd906064016020604051808303816000875af1158015612c42573d6000803e3d6000fd5b505050506040513d601f19601f82011682018060405250810190612c669190613825565b505b60018054600090815260056020526040812080546001600160a01b0319166001600160a01b03851617905581549190612ca083613a6a565b91905055505050505050505050505050505050565b60008115158103612d56576001600160a01b038084166000908152600d6020526040808220548151633fabe5a360e21b8152915192938493849384938493169163feaf968c9160048082019260a0929091908290030181865afa158015612d20573d6000803e3d6000fd5b505050506040513d601f19601f82011682018060405250810190612d449190613a9d565b50919850610c92975050505050505050565b6001600160a01b038084166000908152600e6020526040808220548151633fabe5a360e21b8152915192938493849384938493169163feaf968c9160048082019260a0929091908290030181865afa158015612d20573d6000803e3d6000fd5b6012546001600160a01b03163314612e015760405162461bcd60e51b815260206004820152600e60248201526d37b7363c903a34329037bbb732b960911b60448201526064016108c7565b600b91909155600c55565b60038181548110610a9457600080fd5b600081815260056020526040808220548151635d3e2fa160e01b815291516001600160a01b0390911692918391635d3e2fa19160048082019260c0929091908290030181865afa158015612e74573d6000803e3d6000fd5b505050506040513d601f19601f82011682018060405250810190612e989190613711565b6001600160a01b03858116600090815260026020908152604091829020549084015191517fec7be39d00000000000000000000000000000000000000000000000000000000815291831660048301526024820187905292935091169063ec7be39d90604401611a28565b6012546001600160a01b03163314612f4d5760405162461bcd60e51b815260206004820152600e60248201526d37b7363c903a34329037bbb732b960911b60448201526064016108c7565b601655601555601455565b6012546001600160a01b03163314612fa35760405162461bcd60e51b815260206004820152600e60248201526d37b7363c903a34329037bbb732b960911b60448201526064016108c7565b601080546001600160a01b039384166001600160a01b03199182161790915560118054929093169116179055565b6000763d602d80600a3d3981f3363d3d373d3d3d363d730000008260601b60e81c176000526e5af43d82803e903d91602b57fd5bf38260781b17602052603760096000f090506001600160a01b038116613057576040517fc2f868f400000000000000000000000000000000000000000000000000000000815260040160405180910390fd5b919050565b8280548282559060005260206000209081019282156130b1579160200282015b828111156130b157825182546001600160a01b0319166001600160a01b0390911617825560209092019160019091019061307c565b506130bd9291506130c1565b5090565b5b808211156130bd57600081556001016130c2565b634e487b7160e01b600052604160045260246000fd5b604051601f8201601f1916810167ffffffffffffffff81118282101715613115576131156130d6565b604052919050565b600067ffffffffffffffff821115613137576131376130d6565b5060051b60200190565b6001600160a01b038116811461315657600080fd5b50565b600082601f83011261316a57600080fd5b8135602061317f61317a8361311d565b6130ec565b8083825260208201915060208460051b8701019350868411156131a157600080fd5b602086015b848110156131c65780356131b981613141565b83529183019183016131a6565b509695505050505050565b600082601f8301126131e257600080fd5b813560206131f261317a8361311d565b8083825260208201915060208460051b87010193508684111561321457600080fd5b602086015b848110156131c657803561322c81613141565b8352918301918301613219565b60008060006060848603121561324e57600080fd5b833567ffffffffffffffff8082111561326657600080fd5b61327287838801613159565b9450602086013591508082111561328857600080fd5b613294878388016131d1565b935060408601359150808211156132aa57600080fd5b506132b786828701613159565b9150509250925092565b6000602082840312156132d357600080fd5b5035919050565b600080604083850312156132ed57600080fd5b823567ffffffffffffffff81111561330457600080fd5b61331085828601613159565b925050602083013561332181613141565b809150509250929050565b803561305781613141565b60006020828403121561334957600080fd5b813561335481613141565b9392505050565b801515811461315657600080fd5b60008060006060848603121561337e57600080fd5b833561338981613141565b925060208401356133998161335b565b915060408401356133a98161335b565b809150509250925092565b600080600080608085870312156133ca57600080fd5b843593506020850135925060408501356133e381613141565b915060608501356133f38161335b565b939692955090935050565b6000806040838503121561341157600080fd5b8235915060208301356133218161335b565b6000806000806000806000806000806101408b8d03121561344357600080fd5b8a3567ffffffffffffffff8082111561345b57600080fd5b6134678e838f01613159565b9b5060208d013591508082111561347d57600080fd5b6134898e838f016131d1565b9a5060408d013591508082111561349f57600080fd5b6134ab8e838f01613159565b995060608d01359150808211156134c157600080fd5b6134cd8e838f01613159565b985060808d01359150808211156134e357600080fd5b6134ef8e838f016131d1565b975060a08d013591508082111561350557600080fd5b506135128d828e01613159565b95505061352160c08c0161332c565b935060e08b013592506101008b0135915061353f6101208c0161332c565b90509295989b9194979a5092959850565b60008060006060848603121561356557600080fd5b833592506020840135915060408401356133a981613141565b60008060006060848603121561359357600080fd5b8335925060208401356135a581613141565b915060408401356133a981613141565b60008060008060008060c087890312156135ce57600080fd5b8635955060208701356135e081613141565b94506040870135935060608701356135f781613141565b925060808701356136078161335b565b915060a08701356136178161335b565b809150509295509295509295565b6000806040838503121561363857600080fd5b823561364381613141565b915060208301356133218161335b565b6000806040838503121561366657600080fd5b50508035926020909101359150565b6000806040838503121561368857600080fd5b823561369381613141565b9150602083013561332181613141565b600080604083850312156136b657600080fd5b82356136c181613141565b946020939093013593505050565b6000806000606084860312156136e457600080fd5b505081359360208301359350604090920135919050565b634e487b7160e01b600052603260045260246000fd5b600060c0828403121561372357600080fd5b60405160c0810181811067ffffffffffffffff82111715613746576137466130d6565b60405282518152602083015161375b81613141565b6020820152604083015161376e8161335b565b604082015260608381015190820152608083015161378b81613141565b608082015260a083015161379e8161335b565b60a08201529392505050565b6000602082840312156137bc57600080fd5b5051919050565b634e487b7160e01b600052601160045260246000fd5b80820180821115610c9257610c926137c3565b8082028115828204841417610c9257610c926137c3565b60008261382057634e487b7160e01b600052601260045260246000fd5b500490565b60006020828403121561383757600080fd5b81516133548161335b565b81810381811115610c9257610c926137c3565b60006020828403121561386757600080fd5b815160ff8116811461335457600080fd5b600181815b808511156138b3578160001904821115613899576138996137c3565b808516156138a657918102915b93841c939080029061387d565b509250929050565b6000826138ca57506001610c92565b816138d757506000610c92565b81600181146138ed57600281146138f757613913565b6001915050610c92565b60ff841115613908576139086137c3565b50506001821b610c92565b5060208310610133831016604e8410600b8410161715613936575081810a610c92565b6139408383613878565b8060001904821115613954576139546137c3565b029392505050565b600061335460ff8416836138bb565b6000610200820190508c51825260208d01516001600160a01b03811660208401525060408d01511515604083015260608d015160608301526001600160a01b0360808e015116608083015260a08d0151151560a08301526139d760c083018d6001600160a01b03169052565b6001600160a01b038b1660e08301526001600160a01b038a166101008301528861012083015287610140830152613a1a6101608301886001600160a01b03169052565b6001600160a01b0386166101808301526001600160a01b0385166101a08301526001600160a01b0384166101c08301526001600160a01b0383166101e08301529c9b505050505050505050505050565b600060018201613a7c57613a7c6137c3565b5060010190565b805169ffffffffffffffffffff8116811461305757600080fd5b600080600080600060a08688031215613ab557600080fd5b613abe86613a83565b9450602086015193506040860151925060608601519150613ae160808701613a83565b9050929550929590935056fea264697066735822122082c877b1c132ce594bc1e0ff3c655b63d864b7fdf040df7a4984173d3eedca9264736f6c63430008180033",
  "linkReferences": {},
  "deployedLinkReferences": {}
}