{
	"MockAggregator.sol": {
		"MockAggregator": {
			"abi": [
				{
					"inputs": [],
					"stateMutability": "payable",
					"type": "constructor"
				},
				{
					"inputs": [],
					"name": "latestRoundData",
					"outputs": [
						{
							"internalType": "uint80",
							"name": "roundId",
							"type": "uint80"
						},
						{
							"internalType": "int256",
							"name": "answer",
							"type": "int256"
						},
						{
							"internalType": "uint256",
							"name": "startedAt",
							"type": "uint256"
						},
						{
							"internalType": "uint256",
							"name": "updatedAt",
							"type": "uint256"
						},
						{
							"internalType": "uint80",
							"name": "answeredInRound",
							"type": "uint80"
						}
					],
					"stateMutability": "view",
					"type": "function"
				},
				{
					"inputs": [],
					"name": "price",
					"outputs": [
						{
							"internalType": "int256",
							"name": "",
							"type": "int256"
						}
					],
					"stateMutability": "view",
					"type": "function"
				},
				{
					"inputs": [
						{
							"internalType": "int256",
							"name": "_price",
							"type": "int256"
						}
					],
					"name": "setPrice",
					"outputs": [],
					"stateMutability": "nonpayable",
					"type": "function"
				}
			],
			"devdoc": {
				"kind": "dev",
				"methods": {},
				"version": 1
			},
			"evm": {
				"assembly": "    /* \"MockAggregator.sol\":420:940  contract MockAggregator is AggregatorV3Interface {... */\n  mstore(0x40, 0x80)\n    /* \"MockAggregator.sol\":538:548  1423075000 */\n  0x54d266b8\n    /* \"MockAggregator.sol\":530:535  price */\n  0x00\n    /* \"MockAggregator.sol\":530:548  price = 1423075000 */\n  dup2\n  swap1\n  sstore\n  pop\n    /* \"MockAggregator.sol\":420:940  contract MockAggregator is AggregatorV3Interface {... */\n  dataSize(sub_0)\n  dup1\n  dataOffset(sub_0)\n  0x00\n  codecopy\n  0x00\n  return\nstop\n\nsub_0: assembly {\n        /* \"MockAggregator.sol\":420:940  contract MockAggregator is AggregatorV3Interface {... */\n      mstore(0x40, 0x80)\n      callvalue\n      dup1\n      iszero\n      tag_1\n      jumpi\n      0x00\n      dup1\n      revert\n    tag_1:\n      pop\n      jumpi(tag_2, lt(calldatasize, 0x04))\n      shr(0xe0, calldataload(0x00))\n      dup1\n      0xa035b1fe\n      eq\n      tag_3\n      jumpi\n      dup1\n      0xf7a30806\n      eq\n      tag_4\n      jumpi\n      dup1\n      0xfeaf968c\n      eq\n      tag_5\n      jumpi\n    tag_2:\n      0x00\n      dup1\n      revert\n        /* \"MockAggregator.sol\":475:491  int public price */\n    tag_3:\n      tag_6\n      tag_7\n      jump\t// in\n    tag_6:\n      mload(0x40)\n      tag_8\n      swap2\n      swap1\n      tag_9\n      jump\t// in\n    tag_8:\n      mload(0x40)\n      dup1\n      swap2\n      sub\n      swap1\n      return\n        /* \"MockAggregator.sol\":561:631  function setPrice(int _price) external {... */\n    tag_4:\n      tag_10\n      0x04\n      dup1\n      calldatasize\n      sub\n      dup2\n      add\n      swap1\n      tag_11\n      swap2\n      swap1\n      tag_12\n      jump\t// in\n    tag_11:\n      tag_13\n      jump\t// in\n    tag_10:\n      stop\n        /* \"MockAggregator.sol\":637:938  function latestRoundData()... */\n    tag_5:\n      tag_14\n      tag_15\n      jump\t// in\n    tag_14:\n      mload(0x40)\n      tag_16\n      swap6\n      swap5\n      swap4\n      swap3\n      swap2\n      swap1\n      tag_17\n      jump\t// in\n    tag_16:\n      mload(0x40)\n      dup1\n      swap2\n      sub\n      swap1\n      return\n        /* \"MockAggregator.sol\":475:491  int public price */\n    tag_7:\n      sload(0x00)\n      dup2\n      jump\t// out\n        /* \"MockAggregator.sol\":561:631  function setPrice(int _price) external {... */\n    tag_13:\n        /* \"MockAggregator.sol\":618:624  _price */\n      dup1\n        /* \"MockAggregator.sol\":610:615  price */\n      0x00\n        /* \"MockAggregator.sol\":610:624  price = _price */\n      dup2\n      swap1\n      sstore\n      pop\n        /* \"MockAggregator.sol\":561:631  function setPrice(int _price) external {... */\n      pop\n      jump\t// out\n        /* \"MockAggregator.sol\":637:938  function latestRoundData()... */\n    tag_15:\n        /* \"MockAggregator.sol\":741:755  uint80 roundId */\n      0x00\n        /* \"MockAggregator.sol\":769:782  int256 answer */\n      dup1\n        /* \"MockAggregator.sol\":796:813  uint256 startedAt */\n      0x00\n        /* \"MockAggregator.sol\":827:844  uint256 updatedAt */\n      dup1\n        /* \"MockAggregator.sol\":858:880  uint80 answeredInRound */\n      0x00\n        /* \"MockAggregator.sol\":913:914  0 */\n      dup1\n        /* \"MockAggregator.sol\":916:921  price */\n      sload(0x00)\n        /* \"MockAggregator.sol\":923:924  0 */\n      0x00\n        /* \"MockAggregator.sol\":926:927  0 */\n      dup1\n        /* \"MockAggregator.sol\":929:930  0 */\n      0x00\n        /* \"MockAggregator.sol\":905:931  return (0, price, 0, 0, 0) */\n      swap5\n      pop\n      swap5\n      pop\n      swap5\n      pop\n      swap5\n      pop\n      swap5\n      pop\n        /* \"MockAggregator.sol\":637:938  function latestRoundData()... */\n      swap1\n      swap2\n      swap3\n      swap4\n      swap5\n      jump\t// out\n        /* \"#utility.yul\":7:83   */\n    tag_20:\n        /* \"#utility.yul\":43:50   */\n      0x00\n        /* \"#utility.yul\":72:77   */\n      dup2\n        /* \"#utility.yul\":61:77   */\n      swap1\n      pop\n        /* \"#utility.yul\":7:83   */\n      swap2\n      swap1\n      pop\n      jump\t// out\n        /* \"#utility.yul\":89:204   */\n    tag_21:\n        /* \"#utility.yul\":174:197   */\n      tag_34\n        /* \"#utility.yul\":191:196   */\n      dup2\n        /* \"#utility.yul\":174:197   */\n      tag_20\n      jump\t// in\n    tag_34:\n        /* \"#utility.yul\":169:172   */\n      dup3\n        /* \"#utility.yul\":162:198   */\n      mstore\n        /* \"#utility.yul\":89:204   */\n      pop\n      pop\n      jump\t// out\n        /* \"#utility.yul\":210:428   */\n    tag_9:\n        /* \"#utility.yul\":301:305   */\n      0x00\n        /* \"#utility.yul\":339:341   */\n      0x20\n        /* \"#utility.yul\":328:337   */\n      dup3\n        /* \"#utility.yul\":324:342   */\n      add\n        /* \"#utility.yul\":316:342   */\n      swap1\n      pop\n        /* \"#utility.yul\":352:421   */\n      tag_36\n        /* \"#utility.yul\":418:419   */\n      0x00\n        /* \"#utility.yul\":407:416   */\n      dup4\n        /* \"#utility.yul\":403:420   */\n      add\n        /* \"#utility.yul\":394:400   */\n      dup5\n        /* \"#utility.yul\":352:421   */\n      tag_21\n      jump\t// in\n    tag_36:\n        /* \"#utility.yul\":210:428   */\n      swap3\n      swap2\n      pop\n      pop\n      jump\t// out\n        /* \"#utility.yul\":515:632   */\n    tag_23:\n        /* \"#utility.yul\":624:625   */\n      0x00\n        /* \"#utility.yul\":621:622   */\n      dup1\n        /* \"#utility.yul\":614:626   */\n      revert\n        /* \"#utility.yul\":761:881   */\n    tag_25:\n        /* \"#utility.yul\":833:856   */\n      tag_41\n        /* \"#utility.yul\":850:855   */\n      dup2\n        /* \"#utility.yul\":833:856   */\n      tag_20\n      jump\t// in\n    tag_41:\n        /* \"#utility.yul\":826:831   */\n      dup2\n        /* \"#utility.yul\":823:857   */\n      eq\n        /* \"#utility.yul\":813:875   */\n      tag_42\n      jumpi\n        /* \"#utility.yul\":871:872   */\n      0x00\n        /* \"#utility.yul\":868:869   */\n      dup1\n        /* \"#utility.yul\":861:873   */\n      revert\n        /* \"#utility.yul\":813:875   */\n    tag_42:\n        /* \"#utility.yul\":761:881   */\n      pop\n      jump\t// out\n        /* \"#utility.yul\":887:1024   */\n    tag_26:\n        /* \"#utility.yul\":932:937   */\n      0x00\n        /* \"#utility.yul\":970:976   */\n      dup2\n        /* \"#utility.yul\":957:977   */\n      calldataload\n        /* \"#utility.yul\":948:977   */\n      swap1\n      pop\n        /* \"#utility.yul\":986:1018   */\n      tag_44\n        /* \"#utility.yul\":1012:1017   */\n      dup2\n        /* \"#utility.yul\":986:1018   */\n      tag_25\n      jump\t// in\n    tag_44:\n        /* \"#utility.yul\":887:1024   */\n      swap3\n      swap2\n      pop\n      pop\n      jump\t// out\n        /* \"#utility.yul\":1030:1357   */\n    tag_12:\n        /* \"#utility.yul\":1088:1094   */\n      0x00\n        /* \"#utility.yul\":1137:1139   */\n      0x20\n        /* \"#utility.yul\":1125:1134   */\n      dup3\n        /* \"#utility.yul\":1116:1123   */\n      dup5\n        /* \"#utility.yul\":1112:1135   */\n      sub\n        /* \"#utility.yul\":1108:1140   */\n      slt\n        /* \"#utility.yul\":1105:1224   */\n      iszero\n      tag_46\n      jumpi\n        /* \"#utility.yul\":1143:1222   */\n      tag_47\n      tag_23\n      jump\t// in\n    tag_47:\n        /* \"#utility.yul\":1105:1224   */\n    tag_46:\n        /* \"#utility.yul\":1263:1264   */\n      0x00\n        /* \"#utility.yul\":1288:1340   */\n      tag_48\n        /* \"#utility.yul\":1332:1339   */\n      dup5\n        /* \"#utility.yul\":1323:1329   */\n      dup3\n        /* \"#utility.yul\":1312:1321   */\n      dup6\n        /* \"#utility.yul\":1308:1330   */\n      add\n        /* \"#utility.yul\":1288:1340   */\n      tag_26\n      jump\t// in\n    tag_48:\n        /* \"#utility.yul\":1278:1340   */\n      swap2\n      pop\n        /* \"#utility.yul\":1234:1350   */\n      pop\n        /* \"#utility.yul\":1030:1357   */\n      swap3\n      swap2\n      pop\n      pop\n      jump\t// out\n        /* \"#utility.yul\":1363:1468   */\n    tag_27:\n        /* \"#utility.yul\":1399:1406   */\n      0x00\n        /* \"#utility.yul\":1439:1461   */\n      0xffffffffffffffffffff\n        /* \"#utility.yul\":1432:1437   */\n      dup3\n        /* \"#utility.yul\":1428:1462   */\n      and\n        /* \"#utility.yul\":1417:1462   */\n      swap1\n      pop\n        /* \"#utility.yul\":1363:1468   */\n      swap2\n      swap1\n      pop\n      jump\t// out\n        /* \"#utility.yul\":1474:1589   */\n    tag_28:\n        /* \"#utility.yul\":1559:1582   */\n      tag_51\n        /* \"#utility.yul\":1576:1581   */\n      dup2\n        /* \"#utility.yul\":1559:1582   */\n      tag_27\n      jump\t// in\n    tag_51:\n        /* \"#utility.yul\":1554:1557   */\n      dup3\n        /* \"#utility.yul\":1547:1583   */\n      mstore\n        /* \"#utility.yul\":1474:1589   */\n      pop\n      pop\n      jump\t// out\n        /* \"#utility.yul\":1595:1672   */\n    tag_29:\n        /* \"#utility.yul\":1632:1639   */\n      0x00\n        /* \"#utility.yul\":1661:1666   */\n      dup2\n        /* \"#utility.yul\":1650:1666   */\n      swap1\n      pop\n        /* \"#utility.yul\":1595:1672   */\n      swap2\n      swap1\n      pop\n      jump\t// out\n        /* \"#utility.yul\":1678:1796   */\n    tag_30:\n        /* \"#utility.yul\":1765:1789   */\n      tag_54\n        /* \"#utility.yul\":1783:1788   */\n      dup2\n        /* \"#utility.yul\":1765:1789   */\n      tag_29\n      jump\t// in\n    tag_54:\n        /* \"#utility.yul\":1760:1763   */\n      dup3\n        /* \"#utility.yul\":1753:1790   */\n      mstore\n        /* \"#utility.yul\":1678:1796   */\n      pop\n      pop\n      jump\t// out\n        /* \"#utility.yul\":1802:2454   */\n    tag_17:\n        /* \"#utility.yul\":2001:2005   */\n      0x00\n        /* \"#utility.yul\":2039:2042   */\n      0xa0\n        /* \"#utility.yul\":2028:2037   */\n      dup3\n        /* \"#utility.yul\":2024:2043   */\n      add\n        /* \"#utility.yul\":2016:2043   */\n      swap1\n      pop\n        /* \"#utility.yul\":2053:2122   */\n      tag_56\n        /* \"#utility.yul\":2119:2120   */\n      0x00\n        /* \"#utility.yul\":2108:2117   */\n      dup4\n        /* \"#utility.yul\":2104:2121   */\n      add\n        /* \"#utility.yul\":2095:2101   */\n      dup9\n        /* \"#utility.yul\":2053:2122   */\n      tag_28\n      jump\t// in\n    tag_56:\n        /* \"#utility.yul\":2132:2202   */\n      tag_57\n        /* \"#utility.yul\":2198:2200   */\n      0x20\n        /* \"#utility.yul\":2187:2196   */\n      dup4\n        /* \"#utility.yul\":2183:2201   */\n      add\n        /* \"#utility.yul\":2174:2180   */\n      dup8\n        /* \"#utility.yul\":2132:2202   */\n      tag_21\n      jump\t// in\n    tag_57:\n        /* \"#utility.yul\":2212:2284   */\n      tag_58\n        /* \"#utility.yul\":2280:2282   */\n      0x40\n        /* \"#utility.yul\":2269:2278   */\n      dup4\n        /* \"#utility.yul\":2265:2283   */\n      add\n        /* \"#utility.yul\":2256:2262   */\n      dup7\n        /* \"#utility.yul\":2212:2284   */\n      tag_30\n      jump\t// in\n    tag_58:\n        /* \"#utility.yul\":2294:2366   */\n      tag_59\n        /* \"#utility.yul\":2362:2364   */\n      0x60\n        /* \"#utility.yul\":2351:2360   */\n      dup4\n        /* \"#utility.yul\":2347:2365   */\n      add\n        /* \"#utility.yul\":2338:2344   */\n      dup6\n        /* \"#utility.yul\":2294:2366   */\n      tag_30\n      jump\t// in\n    tag_59:\n        /* \"#utility.yul\":2376:2447   */\n      tag_60\n        /* \"#utility.yul\":2442:2445   */\n      0x80\n        /* \"#utility.yul\":2431:2440   */\n      dup4\n        /* \"#utility.yul\":2427:2446   */\n      add\n        /* \"#utility.yul\":2418:2424   */\n      dup5\n        /* \"#utility.yul\":2376:2447   */\n      tag_28\n      jump\t// in\n    tag_60:\n        /* \"#utility.yul\":1802:2454   */\n      swap7\n      swap6\n      pop\n      pop\n      pop\n      pop\n      pop\n      pop\n      jump\t// out\n\n    auxdata: 0xa2646970667358221220f155b85198f382c760a92f4ef9171b4ef69565edc73bd13501fa9612cd801df264736f6c634300081a0033\n}\n",
				"bytecode": {
					"linkReferences": {},
					"object": "60806040526354d266b85f819055506102168061001b5f395ff3fe608060405234801561000f575f80fd5b506004361061003f575f3560e01c8063a035b1fe14610043578063f7a3080614610061578063feaf968c1461007d575b5f80fd5b61004b61009f565b60405161005891906100e1565b60405180910390f35b61007b60048036038101906100769190610128565b6100a4565b005b6100856100ad565b60405161009695949392919061018f565b60405180910390f35b5f5481565b805f8190555050565b5f805f805f805f545f805f945094509450945094509091929394565b5f819050919050565b6100db816100c9565b82525050565b5f6020820190506100f45f8301846100d2565b92915050565b5f80fd5b610107816100c9565b8114610111575f80fd5b50565b5f81359050610122816100fe565b92915050565b5f6020828403121561013d5761013c6100fa565b5b5f61014a84828501610114565b91505092915050565b5f69ffffffffffffffffffff82169050919050565b61017181610153565b82525050565b5f819050919050565b61018981610177565b82525050565b5f60a0820190506101a25f830188610168565b6101af60208301876100d2565b6101bc6040830186610180565b6101c96060830185610180565b6101d66080830184610168565b969550505050505056fea2646970667358221220f155b85198f382c760a92f4ef9171b4ef69565edc73bd13501fa9612cd801df264736f6c634300081a0033",
					"opcodes": "PUSH1 0x80 PUSH1 0x40 MSTORE PUSH4 0x54D266B8 PUSH0 DUP2 SWAP1 SSTORE POP PUSH2 0x216 DUP1 PUSH2 0x1B PUSH0 CODECOPY PUSH0 RETURN INVALID PUSH1 0x80 PUSH1 0x40 MSTORE CALLVALUE DUP1 ISZERO PUSH2 0xF JUMPI PUSH0 DUP1 REVERT JUMPDEST POP PUSH1 0x4 CALLDATASIZE LT PUSH2 0x3F JUMPI PUSH0 CALLDATALOAD PUSH1 0xE0 SHR DUP1 PUSH4 0xA035B1FE EQ PUSH2 0x43 JUMPI DUP1 PUSH4 0xF7A30806 EQ PUSH2 0x61 JUMPI DUP1 PUSH4 0xFEAF968C EQ PUSH2 0x7D JUMPI JUMPDEST PUSH0 DUP1 REVERT JUMPDEST PUSH2 0x4B PUSH2 0x9F JUMP JUMPDEST PUSH1 0x40 MLOAD PUSH2 0x58 SWAP2 SWAP1 PUSH2 0xE1 JUMP JUMPDEST PUSH1 0x40 MLOAD DUP1 SWAP2 SUB SWAP1 RETURN JUMPDEST PUSH2 0x7B PUSH1 0x4 DUP1 CALLDATASIZE SUB DUP2 ADD SWAP1 PUSH2 0x76 SWAP2 SWAP1 PUSH2 0x128 JUMP JUMPDEST PUSH2 0xA4 JUMP JUMPDEST STOP JUMPDEST PUSH2 0x85 PUSH2 0xAD JUMP JUMPDEST PUSH1 0x40 MLOAD PUSH2 0x96 SWAP6 SWAP5 SWAP4 SWAP3 SWAP2 SWAP1 PUSH2 0x18F JUMP JUMPDEST PUSH1 0x40 MLOAD DUP1 SWAP2 SUB SWAP1 RETURN JUMPDEST PUSH0 SLOAD DUP2 JUMP JUMPDEST DUP1 PUSH0 DUP2 SWAP1 SSTORE POP POP JUMP JUMPDEST PUSH0 DUP1 PUSH0 DUP1 PUSH0 DUP1 PUSH0 SLOAD PUSH0 DUP1 PUSH0 SWAP5 POP SWAP5 POP SWAP5 POP SWAP5 POP SWAP5 POP SWAP1 SWAP2 SWAP3 SWAP4 SWAP5 JUMP JUMPDEST PUSH0 DUP2 SWAP1 POP SWAP2 SWAP1 POP JUMP JUMPDEST PUSH2 0xDB DUP2 PUSH2 0xC9 JUMP JUMPDEST DUP3 MSTORE POP POP JUMP JUMPDEST PUSH0 PUSH1 0x20 DUP3 ADD SWAP1 POP PUSH2 0xF4 PUSH0 DUP4 ADD DUP5 PUSH2 0xD2 JUMP JUMPDEST SWAP3 SWAP2 POP POP JUMP JUMPDEST PUSH0 DUP1 REVERT JUMPDEST PUSH2 0x107 DUP2 PUSH2 0xC9 JUMP JUMPDEST DUP2 EQ PUSH2 0x111 JUMPI PUSH0 DUP1 REVERT JUMPDEST POP JUMP JUMPDEST PUSH0 DUP2 CALLDATALOAD SWAP1 POP PUSH2 0x122 DUP2 PUSH2 0xFE JUMP JUMPDEST SWAP3 SWAP2 POP POP JUMP JUMPDEST PUSH0 PUSH1 0x20 DUP3 DUP5 SUB SLT ISZERO PUSH2 0x13D JUMPI PUSH2 0x13C PUSH2 0xFA JUMP JUMPDEST JUMPDEST PUSH0 PUSH2 0x14A DUP5 DUP3 DUP6 ADD PUSH2 0x114 JUMP JUMPDEST SWAP2 POP POP SWAP3 SWAP2 POP POP JUMP JUMPDEST PUSH0 PUSH10 0xFFFFFFFFFFFFFFFFFFFF DUP3 AND SWAP1 POP SWAP2 SWAP1 POP JUMP JUMPDEST PUSH2 0x171 DUP2 PUSH2 0x153 JUMP JUMPDEST DUP3 MSTORE POP POP JUMP JUMPDEST PUSH0 DUP2 SWAP1 POP SWAP2 SWAP1 POP JUMP JUMPDEST PUSH2 0x189 DUP2 PUSH2 0x177 JUMP JUMPDEST DUP3 MSTORE POP POP JUMP JUMPDEST PUSH0 PUSH1 0xA0 DUP3 ADD SWAP1 POP PUSH2 0x1A2 PUSH0 DUP4 ADD DUP9 PUSH2 0x168 JUMP JUMPDEST PUSH2 0x1AF PUSH1 0x20 DUP4 ADD DUP8 PUSH2 0xD2 JUMP JUMPDEST PUSH2 0x1BC PUSH1 0x40 DUP4 ADD DUP7 PUSH2 0x180 JUMP JUMPDEST PUSH2 0x1C9 PUSH1 0x60 DUP4 ADD DUP6 PUSH2 0x180 JUMP JUMPDEST PUSH2 0x1D6 PUSH1 0x80 DUP4 ADD DUP5 PUSH2 0x168 JUMP JUMPDEST SWAP7 SWAP6 POP POP POP POP POP POP JUMP INVALID LOG2 PUSH5 0x6970667358 0x22 SLT KECCAK256 CALL SSTORE 0xB8 MLOAD SWAP9 RETURN DUP3 0xC7 PUSH1 0xA9 0x2F 0x4E 0xF9 OR SHL 0x4E 0xF6 SWAP6 PUSH6 0xEDC73BD13501 STATICCALL SWAP7 SLT 0xCD DUP1 SAR CALLCODE PUSH5 0x736F6C6343 STOP ADDMOD BYTE STOP CALLER "
				},
				"gasEstimates": {
					"creation": {
						"codeDepositCost": "106800",
						"executionCost": "22240",
						"totalCost": "129040"
					},
					"external": {
						"latestRoundData()": "infinite",
						"price()": "2402",
						"setPrice(int256)": "22514"
					}
				},
				"methodIdentifiers": {
					"latestRoundData()": "feaf968c",
					"price()": "a035b1fe",
					"setPrice(int256)": "f7a30806"
				}
			},
			"storageLayout": {
				"storage": [
					{
						"astId": 19,
						"contract": "MockAggregator.sol:MockAggregator",
						"label": "price",
						"offset": 0,
						"slot": "0",
						"type": "t_int256"
					}
				],
				"types": {
					"t_int256": {
						"encoding": "inplace",
						"label": "int256",
						"numberOfBytes": "32"
					}
				}
			},
			"userdoc": {
				"kind": "user",
				"methods": {},
				"version": 1
			}
		}
	}
}