{
	"MockAavePool.sol": {
		"MockAavePool": {
			"abi": [
				{
					"inputs": [],
					"stateMutability": "payable",
					"type": "constructor"
				},
				{
					"anonymous": false,
					"inputs": [
						{
							"indexed": true,
							"internalType": "address",
							"name": "reserve",
							"type": "address"
						},
						{
							"indexed": true,
							"internalType": "address",
							"name": "backer",
							"type": "address"
						},
						{
							"indexed": false,
							"internalType": "uint256",
							"name": "amount",
							"type": "uint256"
						},
						{
							"indexed": false,
							"internalType": "uint256",
							"name": "fee",
							"type": "uint256"
						}
					],
					"name": "BackUnbacked",
					"type": "event"
				},
				{
					"anonymous": false,
					"inputs": [
						{
							"indexed": true,
							"internalType": "address",
							"name": "reserve",
							"type": "address"
						},
						{
							"indexed": false,
							"internalType": "address",
							"name": "user",
							"type": "address"
						},
						{
							"indexed": true,
							"internalType": "address",
							"name": "onBehalfOf",
							"type": "address"
						},
						{
							"indexed": false,
							"internalType": "uint256",
							"name": "amount",
							"type": "uint256"
						},
						{
							"indexed": false,
							"internalType": "enum DataTypes.InterestRateMode",
							"name": "interestRateMode",
							"type": "uint8"
						},
						{
							"indexed": false,
							"internalType": "uint256",
							"name": "borrowRate",
							"type": "uint256"
						},
						{
							"indexed": true,
							"internalType": "uint16",
							"name": "referralCode",
							"type": "uint16"
						}
					],
					"name": "Borrow",
					"type": "event"
				},
				{
					"anonymous": false,
					"inputs": [
						{
							"indexed": true,
							"internalType": "address",
							"name": "target",
							"type": "address"
						},
						{
							"indexed": false,
							"internalType": "address",
							"name": "initiator",
							"type": "address"
						},
						{
							"indexed": true,
							"internalType": "address",
							"name": "asset",
							"type": "address"
						},
						{
							"indexed": false,
							"internalType": "uint256",
							"name": "amount",
							"type": "uint256"
						},
						{
							"indexed": false,
							"internalType": "enum DataTypes.InterestRateMode",
							"name": "interestRateMode",
							"type": "uint8"
						},
						{
							"indexed": false,
							"internalType": "uint256",
							"name": "premium",
							"type": "uint256"
						},
						{
							"indexed": true,
							"internalType": "uint16",
							"name": "referralCode",
							"type": "uint16"
						}
					],
					"name": "FlashLoan",
					"type": "event"
				},
				{
					"anonymous": false,
					"inputs": [
						{
							"indexed": true,
							"internalType": "address",
							"name": "asset",
							"type": "address"
						},
						{
							"indexed": false,
							"internalType": "uint256",
							"name": "totalDebt",
							"type": "uint256"
						}
					],
					"name": "IsolationModeTotalDebtUpdated",
					"type": "event"
				},
				{
					"anonymous": false,
					"inputs": [
						{
							"indexed": true,
							"internalType": "address",
							"name": "collateralAsset",
							"type": "address"
						},
						{
							"indexed": true,
							"internalType": "address",
							"name": "debtAsset",
							"type": "address"
						},
						{
							"indexed": true,
							"internalType": "address",
							"name": "user",
							"type": "address"
						},
						{
							"indexed": false,
							"internalType": "uint256",
							"name": "debtToCover",
							"type": "uint256"
						},
						{
							"indexed": false,
							"internalType": "uint256",
							"name": "liquidatedCollateralAmount",
							"type": "uint256"
						},
						{
							"indexed": false,
							"internalType": "address",
							"name": "liquidator",
							"type": "address"
						},
						{
							"indexed": false,
							"internalType": "bool",
							"name": "receiveAToken",
							"type": "bool"
						}
					],
					"name": "LiquidationCall",
					"type": "event"
				},
				{
					"anonymous": false,
					"inputs": [
						{
							"indexed": true,
							"internalType": "address",
							"name": "reserve",
							"type": "address"
						},
						{
							"indexed": false,
							"internalType": "address",
							"name": "user",
							"type": "address"
						},
						{
							"indexed": true,
							"internalType": "address",
							"name": "onBehalfOf",
							"type": "address"
						},
						{
							"indexed": false,
							"internalType": "uint256",
							"name": "amount",
							"type": "uint256"
						},
						{
							"indexed": true,
							"internalType": "uint16",
							"name": "referralCode",
							"type": "uint16"
						}
					],
					"name": "MintUnbacked",
					"type": "event"
				},
				{
					"anonymous": false,
					"inputs": [
						{
							"indexed": true,
							"internalType": "address",
							"name": "reserve",
							"type": "address"
						},
						{
							"indexed": false,
							"internalType": "uint256",
							"name": "amountMinted",
							"type": "uint256"
						}
					],
					"name": "MintedToTreasury",
					"type": "event"
				},
				{
					"anonymous": false,
					"inputs": [
						{
							"indexed": true,
							"internalType": "address",
							"name": "reserve",
							"type": "address"
						},
						{
							"indexed": true,
							"internalType": "address",
							"name": "user",
							"type": "address"
						}
					],
					"name": "RebalanceStableBorrowRate",
					"type": "event"
				},
				{
					"anonymous": false,
					"inputs": [
						{
							"indexed": true,
							"internalType": "address",
							"name": "reserve",
							"type": "address"
						},
						{
							"indexed": true,
							"internalType": "address",
							"name": "user",
							"type": "address"
						},
						{
							"indexed": true,
							"internalType": "address",
							"name": "repayer",
							"type": "address"
						},
						{
							"indexed": false,
							"internalType": "uint256",
							"name": "amount",
							"type": "uint256"
						},
						{
							"indexed": false,
							"internalType": "bool",
							"name": "useATokens",
							"type": "bool"
						}
					],
					"name": "Repay",
					"type": "event"
				},
				{
					"anonymous": false,
					"inputs": [
						{
							"indexed": true,
							"internalType": "address",
							"name": "reserve",
							"type": "address"
						},
						{
							"indexed": false,
							"internalType": "uint256",
							"name": "liquidityRate",
							"type": "uint256"
						},
						{
							"indexed": false,
							"internalType": "uint256",
							"name": "stableBorrowRate",
							"type": "uint256"
						},
						{
							"indexed": false,
							"internalType": "uint256",
							"name": "variableBorrowRate",
							"type": "uint256"
						},
						{
							"indexed": false,
							"internalType": "uint256",
							"name": "liquidityIndex",
							"type": "uint256"
						},
						{
							"indexed": false,
							"internalType": "uint256",
							"name": "variableBorrowIndex",
							"type": "uint256"
						}
					],
					"name": "ReserveDataUpdated",
					"type": "event"
				},
				{
					"anonymous": false,
					"inputs": [
						{
							"indexed": true,
							"internalType": "address",
							"name": "reserve",
							"type": "address"
						},
						{
							"indexed": true,
							"internalType": "address",
							"name": "user",
							"type": "address"
						}
					],
					"name": "ReserveUsedAsCollateralDisabled",
					"type": "event"
				},
				{
					"anonymous": false,
					"inputs": [
						{
							"indexed": true,
							"internalType": "address",
							"name": "reserve",
							"type": "address"
						},
						{
							"indexed": true,
							"internalType": "address",
							"name": "user",
							"type": "address"
						}
					],
					"name": "ReserveUsedAsCollateralEnabled",
					"type": "event"
				},
				{
					"anonymous": false,
					"inputs": [
						{
							"indexed": true,
							"internalType": "address",
							"name": "reserve",
							"type": "address"
						},
						{
							"indexed": false,
							"internalType": "address",
							"name": "user",
							"type": "address"
						},
						{
							"indexed": true,
							"internalType": "address",
							"name": "onBehalfOf",
							"type": "address"
						},
						{
							"indexed": false,
							"internalType": "uint256",
							"name": "amount",
							"type": "uint256"
						},
						{
							"indexed": true,
							"internalType": "uint16",
							"name": "referralCode",
							"type": "uint16"
						}
					],
					"name": "Supply",
					"type": "event"
				},
				{
					"anonymous": false,
					"inputs": [
						{
							"indexed": true,
							"internalType": "address",
							"name": "reserve",
							"type": "address"
						},
						{
							"indexed": true,
							"internalType": "address",
							"name": "user",
							"type": "address"
						},
						{
							"indexed": false,
							"internalType": "enum DataTypes.InterestRateMode",
							"name": "interestRateMode",
							"type": "uint8"
						}
					],
					"name": "SwapBorrowRateMode",
					"type": "event"
				},
				{
					"anonymous": false,
					"inputs": [
						{
							"indexed": true,
							"internalType": "address",
							"name": "user",
							"type": "address"
						},
						{
							"indexed": false,
							"internalType": "uint8",
							"name": "categoryId",
							"type": "uint8"
						}
					],
					"name": "UserEModeSet",
					"type": "event"
				},
				{
					"anonymous": false,
					"inputs": [
						{
							"indexed": true,
							"internalType": "address",
							"name": "reserve",
							"type": "address"
						},
						{
							"indexed": true,
							"internalType": "address",
							"name": "user",
							"type": "address"
						},
						{
							"indexed": true,
							"internalType": "address",
							"name": "to",
							"type": "address"
						},
						{
							"indexed": false,
							"internalType": "uint256",
							"name": "amount",
							"type": "uint256"
						}
					],
					"name": "Withdraw",
					"type": "event"
				},
				{
					"inputs": [],
					"name": "ADDRESSES_PROVIDER",
					"outputs": [
						{
							"internalType": "contract IPoolAddressesProvider",
							"name": "",
							"type": "address"
						}
					],
					"stateMutability": "view",
					"type": "function"
				},
				{
					"inputs": [],
					"name": "BRIDGE_PROTOCOL_FEE",
					"outputs": [
						{
							"internalType": "uint256",
							"name": "",
							"type": "uint256"
						}
					],
					"stateMutability": "view",
					"type": "function"
				},
				{
					"inputs": [],
					"name": "FLASHLOAN_PREMIUM_TOTAL",
					"outputs": [
						{
							"internalType": "uint128",
							"name": "",
							"type": "uint128"
						}
					],
					"stateMutability": "view",
					"type": "function"
				},
				{
					"inputs": [],
					"name": "FLASHLOAN_PREMIUM_TO_PROTOCOL",
					"outputs": [
						{
							"internalType": "uint128",
							"name": "",
							"type": "uint128"
						}
					],
					"stateMutability": "view",
					"type": "function"
				},
				{
					"inputs": [],
					"name": "MAX_NUMBER_RESERVES",
					"outputs": [
						{
							"internalType": "uint16",
							"name": "",
							"type": "uint16"
						}
					],
					"stateMutability": "view",
					"type": "function"
				},
				{
					"inputs": [],
					"name": "MAX_STABLE_RATE_BORROW_SIZE_PERCENT",
					"outputs": [
						{
							"internalType": "uint256",
							"name": "",
							"type": "uint256"
						}
					],
					"stateMutability": "view",
					"type": "function"
				},
				{
					"inputs": [
						{
							"internalType": "address",
							"name": "asset",
							"type": "address"
						},
						{
							"internalType": "uint256",
							"name": "amount",
							"type": "uint256"
						},
						{
							"internalType": "uint256",
							"name": "fee",
							"type": "uint256"
						}
					],
					"name": "backUnbacked",
					"outputs": [
						{
							"internalType": "uint256",
							"name": "",
							"type": "uint256"
						}
					],
					"stateMutability": "nonpayable",
					"type": "function"
				},
				{
					"inputs": [
						{
							"internalType": "address",
							"name": "asset",
							"type": "address"
						},
						{
							"internalType": "uint256",
							"name": "amount",
							"type": "uint256"
						},
						{
							"internalType": "uint256",
							"name": "interestRateMode",
							"type": "uint256"
						},
						{
							"internalType": "uint16",
							"name": "referralCode",
							"type": "uint16"
						},
						{
							"internalType": "address",
							"name": "onBehalfOf",
							"type": "address"
						}
					],
					"name": "borrow",
					"outputs": [],
					"stateMutability": "nonpayable",
					"type": "function"
				},
				{
					"inputs": [
						{
							"internalType": "uint8",
							"name": "id",
							"type": "uint8"
						},
						{
							"components": [
								{
									"internalType": "uint16",
									"name": "ltv",
									"type": "uint16"
								},
								{
									"internalType": "uint16",
									"name": "liquidationThreshold",
									"type": "uint16"
								},
								{
									"internalType": "uint16",
									"name": "liquidationBonus",
									"type": "uint16"
								},
								{
									"internalType": "address",
									"name": "priceSource",
									"type": "address"
								},
								{
									"internalType": "string",
									"name": "label",
									"type": "string"
								}
							],
							"internalType": "struct DataTypes.EModeCategory",
							"name": "config",
							"type": "tuple"
						}
					],
					"name": "configureEModeCategory",
					"outputs": [],
					"stateMutability": "nonpayable",
					"type": "function"
				},
				{
					"inputs": [
						{
							"internalType": "address",
							"name": "asset",
							"type": "address"
						},
						{
							"internalType": "uint256",
							"name": "amount",
							"type": "uint256"
						},
						{
							"internalType": "address",
							"name": "onBehalfOf",
							"type": "address"
						},
						{
							"internalType": "uint16",
							"name": "referralCode",
							"type": "uint16"
						}
					],
					"name": "deposit",
					"outputs": [],
					"stateMutability": "nonpayable",
					"type": "function"
				},
				{
					"inputs": [
						{
							"internalType": "address",
							"name": "asset",
							"type": "address"
						}
					],
					"name": "dropReserve",
					"outputs": [],
					"stateMutability": "nonpayable",
					"type": "function"
				},
				{
					"inputs": [
						{
							"internalType": "address",
							"name": "asset",
							"type": "address"
						},
						{
							"internalType": "address",
							"name": "from",
							"type": "address"
						},
						{
							"internalType": "address",
							"name": "to",
							"type": "address"
						},
						{
							"internalType": "uint256",
							"name": "amount",
							"type": "uint256"
						},
						{
							"internalType": "uint256",
							"name": "balanceFromBefore",
							"type": "uint256"
						},
						{
							"internalType": "uint256",
							"name": "balanceToBefore",
							"type": "uint256"
						}
					],
					"name": "finalizeTransfer",
					"outputs": [],
					"stateMutability": "nonpayable",
					"type": "function"
				},
				{
					"inputs": [
						{
							"internalType": "address",
							"name": "receiverAddress",
							"type": "address"
						},
						{
							"internalType": "address[]",
							"name": "assets",
							"type": "address[]"
						},
						{
							"internalType": "uint256[]",
							"name": "amounts",
							"type": "uint256[]"
						},
						{
							"internalType": "uint256[]",
							"name": "interestRateModes",
							"type": "uint256[]"
						},
						{
							"internalType": "address",
							"name": "onBehalfOf",
							"type": "address"
						},
						{
							"internalType": "bytes",
							"name": "params",
							"type": "bytes"
						},
						{
							"internalType": "uint16",
							"name": "referralCode",
							"type": "uint16"
						}
					],
					"name": "flashLoan",
					"outputs": [],
					"stateMutability": "nonpayable",
					"type": "function"
				},
				{
					"inputs": [
						{
							"internalType": "address",
							"name": "receiverAddress",
							"type": "address"
						},
						{
							"internalType": "address",
							"name": "asset",
							"type": "address"
						},
						{
							"internalType": "uint256",
							"name": "amount",
							"type": "uint256"
						},
						{
							"internalType": "bytes",
							"name": "params",
							"type": "bytes"
						},
						{
							"internalType": "uint16",
							"name": "referralCode",
							"type": "uint16"
						}
					],
					"name": "flashLoanSimple",
					"outputs": [],
					"stateMutability": "nonpayable",
					"type": "function"
				},
				{
					"inputs": [
						{
							"internalType": "address",
							"name": "asset",
							"type": "address"
						}
					],
					"name": "getConfiguration",
					"outputs": [
						{
							"components": [
								{
									"internalType": "uint256",
									"name": "data",
									"type": "uint256"
								}
							],
							"internalType": "struct DataTypes.ReserveConfigurationMap",
							"name": "",
							"type": "tuple"
						}
					],
					"stateMutability": "view",
					"type": "function"
				},
				{
					"inputs": [
						{
							"internalType": "uint8",
							"name": "id",
							"type": "uint8"
						}
					],
					"name": "getEModeCategoryData",
					"outputs": [
						{
							"components": [
								{
									"internalType": "uint16",
									"name": "ltv",
									"type": "uint16"
								},
								{
									"internalType": "uint16",
									"name": "liquidationThreshold",
									"type": "uint16"
								},
								{
									"internalType": "uint16",
									"name": "liquidationBonus",
									"type": "uint16"
								},
								{
									"internalType": "address",
									"name": "priceSource",
									"type": "address"
								},
								{
									"internalType": "string",
									"name": "label",
									"type": "string"
								}
							],
							"internalType": "struct DataTypes.EModeCategory",
							"name": "",
							"type": "tuple"
						}
					],
					"stateMutability": "view",
					"type": "function"
				},
				{
					"inputs": [
						{
							"internalType": "uint16",
							"name": "id",
							"type": "uint16"
						}
					],
					"name": "getReserveAddressById",
					"outputs": [
						{
							"internalType": "address",
							"name": "",
							"type": "address"
						}
					],
					"stateMutability": "view",
					"type": "function"
				},
				{
					"inputs": [
						{
							"internalType": "address",
							"name": "asset",
							"type": "address"
						}
					],
					"name": "getReserveData",
					"outputs": [
						{
							"components": [
								{
									"components": [
										{
											"internalType": "uint256",
											"name": "data",
											"type": "uint256"
										}
									],
									"internalType": "struct DataTypes.ReserveConfigurationMap",
									"name": "configuration",
									"type": "tuple"
								},
								{
									"internalType": "uint128",
									"name": "liquidityIndex",
									"type": "uint128"
								},
								{
									"internalType": "uint128",
									"name": "currentLiquidityRate",
									"type": "uint128"
								},
								{
									"internalType": "uint128",
									"name": "variableBorrowIndex",
									"type": "uint128"
								},
								{
									"internalType": "uint128",
									"name": "currentVariableBorrowRate",
									"type": "uint128"
								},
								{
									"internalType": "uint128",
									"name": "currentStableBorrowRate",
									"type": "uint128"
								},
								{
									"internalType": "uint40",
									"name": "lastUpdateTimestamp",
									"type": "uint40"
								},
								{
									"internalType": "uint16",
									"name": "id",
									"type": "uint16"
								},
								{
									"internalType": "address",
									"name": "aTokenAddress",
									"type": "address"
								},
								{
									"internalType": "address",
									"name": "stableDebtTokenAddress",
									"type": "address"
								},
								{
									"internalType": "address",
									"name": "variableDebtTokenAddress",
									"type": "address"
								},
								{
									"internalType": "address",
									"name": "interestRateStrategyAddress",
									"type": "address"
								},
								{
									"internalType": "uint128",
									"name": "accruedToTreasury",
									"type": "uint128"
								},
								{
									"internalType": "uint128",
									"name": "unbacked",
									"type": "uint128"
								},
								{
									"internalType": "uint128",
									"name": "isolationModeTotalDebt",
									"type": "uint128"
								}
							],
							"internalType": "struct DataTypes.ReserveData",
							"name": "",
							"type": "tuple"
						}
					],
					"stateMutability": "view",
					"type": "function"
				},
				{
					"inputs": [
						{
							"internalType": "address",
							"name": "asset",
							"type": "address"
						}
					],
					"name": "getReserveNormalizedIncome",
					"outputs": [
						{
							"internalType": "uint256",
							"name": "",
							"type": "uint256"
						}
					],
					"stateMutability": "view",
					"type": "function"
				},
				{
					"inputs": [
						{
							"internalType": "address",
							"name": "asset",
							"type": "address"
						}
					],
					"name": "getReserveNormalizedVariableDebt",
					"outputs": [
						{
							"internalType": "uint256",
							"name": "",
							"type": "uint256"
						}
					],
					"stateMutability": "view",
					"type": "function"
				},
				{
					"inputs": [],
					"name": "getReservesList",
					"outputs": [
						{
							"internalType": "address[]",
							"name": "",
							"type": "address[]"
						}
					],
					"stateMutability": "view",
					"type": "function"
				},
				{
					"inputs": [
						{
							"internalType": "address",
							"name": "user",
							"type": "address"
						}
					],
					"name": "getUserAccountData",
					"outputs": [
						{
							"internalType": "uint256",
							"name": "totalCollateralBase",
							"type": "uint256"
						},
						{
							"internalType": "uint256",
							"name": "totalDebtBase",
							"type": "uint256"
						},
						{
							"internalType": "uint256",
							"name": "availableBorrowsBase",
							"type": "uint256"
						},
						{
							"internalType": "uint256",
							"name": "currentLiquidationThreshold",
							"type": "uint256"
						},
						{
							"internalType": "uint256",
							"name": "ltv",
							"type": "uint256"
						},
						{
							"internalType": "uint256",
							"name": "healthFactor",
							"type": "uint256"
						}
					],
					"stateMutability": "view",
					"type": "function"
				},
				{
					"inputs": [
						{
							"internalType": "address",
							"name": "user",
							"type": "address"
						}
					],
					"name": "getUserConfiguration",
					"outputs": [
						{
							"components": [
								{
									"internalType": "uint256",
									"name": "data",
									"type": "uint256"
								}
							],
							"internalType": "struct DataTypes.UserConfigurationMap",
							"name": "",
							"type": "tuple"
						}
					],
					"stateMutability": "view",
					"type": "function"
				},
				{
					"inputs": [
						{
							"internalType": "address",
							"name": "user",
							"type": "address"
						}
					],
					"name": "getUserEMode",
					"outputs": [
						{
							"internalType": "uint256",
							"name": "",
							"type": "uint256"
						}
					],
					"stateMutability": "view",
					"type": "function"
				},
				{
					"inputs": [
						{
							"internalType": "address",
							"name": "asset",
							"type": "address"
						},
						{
							"internalType": "address",
							"name": "aTokenAddress",
							"type": "address"
						},
						{
							"internalType": "address",
							"name": "stableDebtAddress",
							"type": "address"
						},
						{
							"internalType": "address",
							"name": "variableDebtAddress",
							"type": "address"
						},
						{
							"internalType": "address",
							"name": "interestRateStrategyAddress",
							"type": "address"
						}
					],
					"name": "initReserve",
					"outputs": [],
					"stateMutability": "nonpayable",
					"type": "function"
				},
				{
					"inputs": [
						{
							"internalType": "address",
							"name": "collateralAsset",
							"type": "address"
						},
						{
							"internalType": "address",
							"name": "debtAsset",
							"type": "address"
						},
						{
							"internalType": "address",
							"name": "user",
							"type": "address"
						},
						{
							"internalType": "uint256",
							"name": "debtToCover",
							"type": "uint256"
						},
						{
							"internalType": "bool",
							"name": "receiveAToken",
							"type": "bool"
						}
					],
					"name": "liquidationCall",
					"outputs": [],
					"stateMutability": "nonpayable",
					"type": "function"
				},
				{
					"inputs": [
						{
							"internalType": "address[]",
							"name": "assets",
							"type": "address[]"
						}
					],
					"name": "mintToTreasury",
					"outputs": [],
					"stateMutability": "nonpayable",
					"type": "function"
				},
				{
					"inputs": [
						{
							"internalType": "address",
							"name": "asset",
							"type": "address"
						},
						{
							"internalType": "uint256",
							"name": "amount",
							"type": "uint256"
						},
						{
							"internalType": "address",
							"name": "onBehalfOf",
							"type": "address"
						},
						{
							"internalType": "uint16",
							"name": "referralCode",
							"type": "uint16"
						}
					],
					"name": "mintUnbacked",
					"outputs": [],
					"stateMutability": "nonpayable",
					"type": "function"
				},
				{
					"inputs": [
						{
							"internalType": "address",
							"name": "asset",
							"type": "address"
						},
						{
							"internalType": "address",
							"name": "user",
							"type": "address"
						}
					],
					"name": "rebalanceStableBorrowRate",
					"outputs": [],
					"stateMutability": "nonpayable",
					"type": "function"
				},
				{
					"inputs": [
						{
							"internalType": "address",
							"name": "asset",
							"type": "address"
						},
						{
							"internalType": "uint256",
							"name": "amount",
							"type": "uint256"
						},
						{
							"internalType": "uint256",
							"name": "interestRateMode",
							"type": "uint256"
						},
						{
							"internalType": "address",
							"name": "onBehalfOf",
							"type": "address"
						}
					],
					"name": "repay",
					"outputs": [
						{
							"internalType": "uint256",
							"name": "",
							"type": "uint256"
						}
					],
					"stateMutability": "nonpayable",
					"type": "function"
				},
				{
					"inputs": [
						{
							"internalType": "address",
							"name": "asset",
							"type": "address"
						},
						{
							"internalType": "uint256",
							"name": "amount",
							"type": "uint256"
						},
						{
							"internalType": "uint256",
							"name": "interestRateMode",
							"type": "uint256"
						}
					],
					"name": "repayWithATokens",
					"outputs": [
						{
							"internalType": "uint256",
							"name": "",
							"type": "uint256"
						}
					],
					"stateMutability": "nonpayable",
					"type": "function"
				},
				{
					"inputs": [
						{
							"internalType": "address",
							"name": "asset",
							"type": "address"
						},
						{
							"internalType": "uint256",
							"name": "amount",
							"type": "uint256"
						},
						{
							"internalType": "uint256",
							"name": "interestRateMode",
							"type": "uint256"
						},
						{
							"internalType": "address",
							"name": "onBehalfOf",
							"type": "address"
						},
						{
							"internalType": "uint256",
							"name": "deadline",
							"type": "uint256"
						},
						{
							"internalType": "uint8",
							"name": "permitV",
							"type": "uint8"
						},
						{
							"internalType": "bytes32",
							"name": "permitR",
							"type": "bytes32"
						},
						{
							"internalType": "bytes32",
							"name": "permitS",
							"type": "bytes32"
						}
					],
					"name": "repayWithPermit",
					"outputs": [
						{
							"internalType": "uint256",
							"name": "",
							"type": "uint256"
						}
					],
					"stateMutability": "nonpayable",
					"type": "function"
				},
				{
					"inputs": [
						{
							"internalType": "address",
							"name": "token",
							"type": "address"
						},
						{
							"internalType": "address",
							"name": "to",
							"type": "address"
						},
						{
							"internalType": "uint256",
							"name": "amount",
							"type": "uint256"
						}
					],
					"name": "rescueTokens",
					"outputs": [],
					"stateMutability": "nonpayable",
					"type": "function"
				},
				{
					"inputs": [
						{
							"internalType": "address",
							"name": "asset",
							"type": "address"
						}
					],
					"name": "resetIsolationModeTotalDebt",
					"outputs": [],
					"stateMutability": "nonpayable",
					"type": "function"
				},
				{
					"inputs": [
						{
							"internalType": "address",
							"name": "asset",
							"type": "address"
						},
						{
							"components": [
								{
									"internalType": "uint256",
									"name": "data",
									"type": "uint256"
								}
							],
							"internalType": "struct DataTypes.ReserveConfigurationMap",
							"name": "configuration",
							"type": "tuple"
						}
					],
					"name": "setConfiguration",
					"outputs": [],
					"stateMutability": "nonpayable",
					"type": "function"
				},
				{
					"inputs": [
						{
							"internalType": "address",
							"name": "asset",
							"type": "address"
						},
						{
							"internalType": "address",
							"name": "rateStrategyAddress",
							"type": "address"
						}
					],
					"name": "setReserveInterestRateStrategyAddress",
					"outputs": [],
					"stateMutability": "nonpayable",
					"type": "function"
				},
				{
					"inputs": [
						{
							"internalType": "uint8",
							"name": "categoryId",
							"type": "uint8"
						}
					],
					"name": "setUserEMode",
					"outputs": [],
					"stateMutability": "nonpayable",
					"type": "function"
				},
				{
					"inputs": [
						{
							"internalType": "address",
							"name": "asset",
							"type": "address"
						},
						{
							"internalType": "bool",
							"name": "useAsCollateral",
							"type": "bool"
						}
					],
					"name": "setUserUseReserveAsCollateral",
					"outputs": [],
					"stateMutability": "nonpayable",
					"type": "function"
				},
				{
					"inputs": [
						{
							"internalType": "address",
							"name": "asset",
							"type": "address"
						},
						{
							"internalType": "uint256",
							"name": "amount",
							"type": "uint256"
						},
						{
							"internalType": "address",
							"name": "onBehalfOf",
							"type": "address"
						},
						{
							"internalType": "uint16",
							"name": "referralCode",
							"type": "uint16"
						}
					],
					"name": "supply",
					"outputs": [],
					"stateMutability": "nonpayable",
					"type": "function"
				},
				{
					"inputs": [
						{
							"internalType": "address",
							"name": "asset",
							"type": "address"
						},
						{
							"internalType": "uint256",
							"name": "amount",
							"type": "uint256"
						},
						{
							"internalType": "address",
							"name": "onBehalfOf",
							"type": "address"
						},
						{
							"internalType": "uint16",
							"name": "referralCode",
							"type": "uint16"
						},
						{
							"internalType": "uint256",
							"name": "deadline",
							"type": "uint256"
						},
						{
							"internalType": "uint8",
							"name": "permitV",
							"type": "uint8"
						},
						{
							"internalType": "bytes32",
							"name": "permitR",
							"type": "bytes32"
						},
						{
							"internalType": "bytes32",
							"name": "permitS",
							"type": "bytes32"
						}
					],
					"name": "supplyWithPermit",
					"outputs": [],
					"stateMutability": "nonpayable",
					"type": "function"
				},
				{
					"inputs": [
						{
							"internalType": "address",
							"name": "asset",
							"type": "address"
						},
						{
							"internalType": "uint256",
							"name": "interestRateMode",
							"type": "uint256"
						}
					],
					"name": "swapBorrowRateMode",
					"outputs": [],
					"stateMutability": "nonpayable",
					"type": "function"
				},
				{
					"inputs": [
						{
							"internalType": "uint256",
							"name": "bridgeProtocolFee",
							"type": "uint256"
						}
					],
					"name": "updateBridgeProtocolFee",
					"outputs": [],
					"stateMutability": "nonpayable",
					"type": "function"
				},
				{
					"inputs": [
						{
							"internalType": "uint128",
							"name": "flashLoanPremiumTotal",
							"type": "uint128"
						},
						{
							"internalType": "uint128",
							"name": "flashLoanPremiumToProtocol",
							"type": "uint128"
						}
					],
					"name": "updateFlashloanPremiums",
					"outputs": [],
					"stateMutability": "nonpayable",
					"type": "function"
				},
				{
					"inputs": [
						{
							"internalType": "address",
							"name": "asset",
							"type": "address"
						},
						{
							"internalType": "uint256",
							"name": "amount",
							"type": "uint256"
						},
						{
							"internalType": "address",
							"name": "to",
							"type": "address"
						}
					],
					"name": "withdraw",
					"outputs": [
						{
							"internalType": "uint256",
							"name": "",
							"type": "uint256"
						}
					],
					"stateMutability": "nonpayable",
					"type": "function"
				}
			],
			"devdoc": {
				"events": {
					"BackUnbacked(address,address,uint256,uint256)": {
						"details": "Emitted on backUnbacked()",
						"params": {
							"amount": "The amount added as backing",
							"backer": "The address paying for the backing",
							"fee": "The amount paid in fees",
							"reserve": "The address of the underlying asset of the reserve"
						}
					},
					"Borrow(address,address,address,uint256,uint8,uint256,uint16)": {
						"details": "Emitted on borrow() and flashLoan() when debt needs to be opened",
						"params": {
							"amount": "The amount borrowed out",
							"borrowRate": "The numeric rate at which the user has borrowed, expressed in ray",
							"interestRateMode": "The rate mode: 1 for Stable, 2 for Variable",
							"onBehalfOf": "The address that will be getting the debt",
							"referralCode": "The referral code used",
							"reserve": "The address of the underlying asset being borrowed",
							"user": "The address of the user initiating the borrow(), receiving the funds on borrow() or just initiator of the transaction on flashLoan()"
						}
					},
					"FlashLoan(address,address,address,uint256,uint8,uint256,uint16)": {
						"details": "Emitted on flashLoan()",
						"params": {
							"amount": "The amount flash borrowed",
							"asset": "The address of the asset being flash borrowed",
							"initiator": "The address initiating the flash loan",
							"interestRateMode": "The flashloan mode: 0 for regular flashloan, 1 for Stable debt, 2 for Variable debt",
							"premium": "The fee flash borrowed",
							"referralCode": "The referral code used",
							"target": "The address of the flash loan receiver contract"
						}
					},
					"IsolationModeTotalDebtUpdated(address,uint256)": {
						"details": "Emitted on borrow(), repay() and liquidationCall() when using isolated assets",
						"params": {
							"asset": "The address of the underlying asset of the reserve",
							"totalDebt": "The total isolation mode debt for the reserve"
						}
					},
					"LiquidationCall(address,address,address,uint256,uint256,address,bool)": {
						"details": "Emitted when a borrower is liquidated.",
						"params": {
							"collateralAsset": "The address of the underlying asset used as collateral, to receive as result of the liquidation",
							"debtAsset": "The address of the underlying borrowed asset to be repaid with the liquidation",
							"debtToCover": "The debt amount of borrowed `asset` the liquidator wants to cover",
							"liquidatedCollateralAmount": "The amount of collateral received by the liquidator",
							"liquidator": "The address of the liquidator",
							"receiveAToken": "True if the liquidators wants to receive the collateral aTokens, `false` if he wants to receive the underlying collateral asset directly",
							"user": "The address of the borrower getting liquidated"
						}
					},
					"MintUnbacked(address,address,address,uint256,uint16)": {
						"details": "Emitted on mintUnbacked()",
						"params": {
							"amount": "The amount of supplied assets",
							"onBehalfOf": "The beneficiary of the supplied assets, receiving the aTokens",
							"referralCode": "The referral code used",
							"reserve": "The address of the underlying asset of the reserve",
							"user": "The address initiating the supply"
						}
					},
					"MintedToTreasury(address,uint256)": {
						"details": "Emitted when the protocol treasury receives minted aTokens from the accrued interest.",
						"params": {
							"amountMinted": "The amount minted to the treasury",
							"reserve": "The address of the reserve"
						}
					},
					"RebalanceStableBorrowRate(address,address)": {
						"details": "Emitted on rebalanceStableBorrowRate()",
						"params": {
							"reserve": "The address of the underlying asset of the reserve",
							"user": "The address of the user for which the rebalance has been executed"
						}
					},
					"Repay(address,address,address,uint256,bool)": {
						"details": "Emitted on repay()",
						"params": {
							"amount": "The amount repaid",
							"repayer": "The address of the user initiating the repay(), providing the funds",
							"reserve": "The address of the underlying asset of the reserve",
							"useATokens": "True if the repayment is done using aTokens, `false` if done with underlying asset directly",
							"user": "The beneficiary of the repayment, getting his debt reduced"
						}
					},
					"ReserveDataUpdated(address,uint256,uint256,uint256,uint256,uint256)": {
						"details": "Emitted when the state of a reserve is updated.",
						"params": {
							"liquidityIndex": "The next liquidity index",
							"liquidityRate": "The next liquidity rate",
							"reserve": "The address of the underlying asset of the reserve",
							"stableBorrowRate": "The next stable borrow rate",
							"variableBorrowIndex": "The next variable borrow index",
							"variableBorrowRate": "The next variable borrow rate"
						}
					},
					"ReserveUsedAsCollateralDisabled(address,address)": {
						"details": "Emitted on setUserUseReserveAsCollateral()",
						"params": {
							"reserve": "The address of the underlying asset of the reserve",
							"user": "The address of the user enabling the usage as collateral"
						}
					},
					"ReserveUsedAsCollateralEnabled(address,address)": {
						"details": "Emitted on setUserUseReserveAsCollateral()",
						"params": {
							"reserve": "The address of the underlying asset of the reserve",
							"user": "The address of the user enabling the usage as collateral"
						}
					},
					"Supply(address,address,address,uint256,uint16)": {
						"details": "Emitted on supply()",
						"params": {
							"amount": "The amount supplied",
							"onBehalfOf": "The beneficiary of the supply, receiving the aTokens",
							"referralCode": "The referral code used",
							"reserve": "The address of the underlying asset of the reserve",
							"user": "The address initiating the supply"
						}
					},
					"SwapBorrowRateMode(address,address,uint8)": {
						"details": "Emitted on swapBorrowRateMode()",
						"params": {
							"interestRateMode": "The current interest rate mode of the position being swapped: 1 for Stable, 2 for Variable",
							"reserve": "The address of the underlying asset of the reserve",
							"user": "The address of the user swapping his rate mode"
						}
					},
					"UserEModeSet(address,uint8)": {
						"details": "Emitted when the user selects a certain asset category for eMode",
						"params": {
							"categoryId": "The category id",
							"user": "The address of the user"
						}
					},
					"Withdraw(address,address,address,uint256)": {
						"details": "Emitted on withdraw()",
						"params": {
							"amount": "The amount to be withdrawn",
							"reserve": "The address of the underlying asset being withdrawn",
							"to": "The address that will receive the underlying",
							"user": "The address initiating the withdrawal, owner of aTokens"
						}
					}
				},
				"kind": "dev",
				"methods": {
					"ADDRESSES_PROVIDER()": {
						"returns": {
							"_0": "The address of the PoolAddressesProvider"
						}
					},
					"BRIDGE_PROTOCOL_FEE()": {
						"returns": {
							"_0": "The bridge fee sent to the protocol treasury"
						}
					},
					"FLASHLOAN_PREMIUM_TOTAL()": {
						"returns": {
							"_0": "The total fee on flashloans"
						}
					},
					"FLASHLOAN_PREMIUM_TO_PROTOCOL()": {
						"returns": {
							"_0": "The flashloan fee sent to the protocol treasury"
						}
					},
					"MAX_NUMBER_RESERVES()": {
						"returns": {
							"_0": "The maximum number of reserves supported"
						}
					},
					"MAX_STABLE_RATE_BORROW_SIZE_PERCENT()": {
						"returns": {
							"_0": "The percentage of available liquidity to borrow, expressed in bps"
						}
					},
					"backUnbacked(address,uint256,uint256)": {
						"params": {
							"amount": "The amount to back",
							"asset": "The address of the underlying asset to back",
							"fee": "The amount paid in fees"
						},
						"returns": {
							"_0": "The backed amount"
						}
					},
					"borrow(address,uint256,uint256,uint16,address)": {
						"params": {
							"amount": "The amount to be borrowed",
							"asset": "The address of the underlying asset to borrow",
							"interestRateMode": "The interest rate mode at which the user wants to borrow: 1 for Stable, 2 for Variable",
							"onBehalfOf": "The address of the user who will receive the debt. Should be the address of the borrower itself calling the function if he wants to borrow against his own collateral, or the address of the credit delegator if he has been given credit delegation allowance",
							"referralCode": "The code used to register the integrator originating the operation, for potential rewards.   0 if the action is executed directly by the user, without any middle-man"
						}
					},
					"configureEModeCategory(uint8,(uint16,uint16,uint16,address,string))": {
						"details": "In eMode, the protocol allows very high borrowing power to borrow assets of the same category. The category 0 is reserved as it's the default for volatile assets",
						"params": {
							"config": "The configuration of the category",
							"id": "The id of the category"
						}
					},
					"deposit(address,uint256,address,uint16)": {
						"details": "Deprecated: Use the `supply` function instead",
						"params": {
							"amount": "The amount to be supplied",
							"asset": "The address of the underlying asset to supply",
							"onBehalfOf": "The address that will receive the aTokens, same as msg.sender if the user   wants to receive them on his own wallet, or a different address if the beneficiary of aTokens   is a different wallet",
							"referralCode": "Code used to register the integrator originating the operation, for potential rewards.   0 if the action is executed directly by the user, without any middle-man"
						}
					},
					"dropReserve(address)": {
						"details": "Only callable by the PoolConfigurator contract",
						"params": {
							"asset": "The address of the underlying asset of the reserve"
						}
					},
					"finalizeTransfer(address,address,address,uint256,uint256,uint256)": {
						"details": "Only callable by the overlying aToken of the `asset`",
						"params": {
							"amount": "The amount being transferred/withdrawn",
							"asset": "The address of the underlying asset of the aToken",
							"balanceFromBefore": "The aToken balance of the `from` user before the transfer",
							"balanceToBefore": "The aToken balance of the `to` user before the transfer",
							"from": "The user from which the aTokens are transferred",
							"to": "The user receiving the aTokens"
						}
					},
					"flashLoan(address,address[],uint256[],uint256[],address,bytes,uint16)": {
						"details": "IMPORTANT There are security concerns for developers of flashloan receiver contracts that must be kept into consideration. For further details please visit https://docs.aave.com/developers/",
						"params": {
							"amounts": "The amounts of the assets being flash-borrowed",
							"assets": "The addresses of the assets being flash-borrowed",
							"interestRateModes": "Types of the debt to open if the flash loan is not returned:   0 -> Don't open any debt, just revert if funds can't be transferred from the receiver   1 -> Open debt at stable rate for the value of the amount flash-borrowed to the `onBehalfOf` address   2 -> Open debt at variable rate for the value of the amount flash-borrowed to the `onBehalfOf` address",
							"onBehalfOf": "The address  that will receive the debt in the case of using on `modes` 1 or 2",
							"params": "Variadic packed params to pass to the receiver as extra information",
							"receiverAddress": "The address of the contract receiving the funds, implementing IFlashLoanReceiver interface",
							"referralCode": "The code used to register the integrator originating the operation, for potential rewards.   0 if the action is executed directly by the user, without any middle-man"
						}
					},
					"flashLoanSimple(address,address,uint256,bytes,uint16)": {
						"details": "IMPORTANT There are security concerns for developers of flashloan receiver contracts that must be kept into consideration. For further details please visit https://docs.aave.com/developers/",
						"params": {
							"amount": "The amount of the asset being flash-borrowed",
							"asset": "The address of the asset being flash-borrowed",
							"params": "Variadic packed params to pass to the receiver as extra information",
							"receiverAddress": "The address of the contract receiving the funds, implementing IFlashLoanSimpleReceiver interface",
							"referralCode": "The code used to register the integrator originating the operation, for potential rewards.   0 if the action is executed directly by the user, without any middle-man"
						}
					},
					"getConfiguration(address)": {
						"params": {
							"asset": "The address of the underlying asset of the reserve"
						},
						"returns": {
							"_0": "The configuration of the reserve"
						}
					},
					"getEModeCategoryData(uint8)": {
						"params": {
							"id": "The id of the category"
						},
						"returns": {
							"_0": "The configuration data of the category"
						}
					},
					"getReserveAddressById(uint16)": {
						"params": {
							"id": "The id of the reserve as stored in the DataTypes.ReserveData struct"
						},
						"returns": {
							"_0": "The address of the reserve associated with id"
						}
					},
					"getReserveData(address)": {
						"params": {
							"asset": "The address of the underlying asset of the reserve"
						},
						"returns": {
							"_0": "The state and configuration data of the reserve"
						}
					},
					"getReserveNormalizedIncome(address)": {
						"params": {
							"asset": "The address of the underlying asset of the reserve"
						},
						"returns": {
							"_0": "The reserve's normalized income"
						}
					},
					"getReserveNormalizedVariableDebt(address)": {
						"details": "WARNING: This function is intended to be used primarily by the protocol itself to get a \"dynamic\" variable index based on time, current stored index and virtual rate at the current moment (approx. a borrower would get if opening a position). This means that is always used in combination with variable debt supply/balances. If using this function externally, consider that is possible to have an increasing normalized variable debt that is not equivalent to how the variable debt index would be updated in storage (e.g. only updates with non-zero variable debt supply)",
						"params": {
							"asset": "The address of the underlying asset of the reserve"
						},
						"returns": {
							"_0": "The reserve normalized variable debt"
						}
					},
					"getReservesList()": {
						"details": "It does not include dropped reserves",
						"returns": {
							"_0": "The addresses of the underlying assets of the initialized reserves"
						}
					},
					"getUserAccountData(address)": {
						"params": {
							"user": "The address of the user"
						},
						"returns": {
							"availableBorrowsBase": "The borrowing power left of the user in the base currency used by the price feed",
							"currentLiquidationThreshold": "The liquidation threshold of the user",
							"healthFactor": "The current health factor of the user",
							"ltv": "The loan to value of The user",
							"totalCollateralBase": "The total collateral of the user in the base currency used by the price feed",
							"totalDebtBase": "The total debt of the user in the base currency used by the price feed"
						}
					},
					"getUserConfiguration(address)": {
						"params": {
							"user": "The user address"
						},
						"returns": {
							"_0": "The configuration of the user"
						}
					},
					"getUserEMode(address)": {
						"params": {
							"user": "The address of the user"
						},
						"returns": {
							"_0": "The eMode id"
						}
					},
					"initReserve(address,address,address,address,address)": {
						"details": "Only callable by the PoolConfigurator contract",
						"params": {
							"aTokenAddress": "The address of the aToken that will be assigned to the reserve",
							"asset": "The address of the underlying asset of the reserve",
							"interestRateStrategyAddress": "The address of the interest rate strategy contract",
							"stableDebtAddress": "The address of the StableDebtToken that will be assigned to the reserve",
							"variableDebtAddress": "The address of the VariableDebtToken that will be assigned to the reserve"
						}
					},
					"liquidationCall(address,address,address,uint256,bool)": {
						"params": {
							"collateralAsset": "The address of the underlying asset used as collateral, to receive as result of the liquidation",
							"debtAsset": "The address of the underlying borrowed asset to be repaid with the liquidation",
							"debtToCover": "The debt amount of borrowed `asset` the liquidator wants to cover",
							"receiveAToken": "True if the liquidators wants to receive the collateral aTokens, `false` if he wants to receive the underlying collateral asset directly",
							"user": "The address of the borrower getting liquidated"
						}
					},
					"mintToTreasury(address[])": {
						"params": {
							"assets": "The list of reserves for which the minting needs to be executed"
						}
					},
					"mintUnbacked(address,uint256,address,uint16)": {
						"params": {
							"amount": "The amount to mint",
							"asset": "The address of the underlying asset to mint",
							"onBehalfOf": "The address that will receive the aTokens",
							"referralCode": "Code used to register the integrator originating the operation, for potential rewards.   0 if the action is executed directly by the user, without any middle-man"
						}
					},
					"rebalanceStableBorrowRate(address,address)": {
						"params": {
							"asset": "The address of the underlying asset borrowed",
							"user": "The address of the user to be rebalanced"
						}
					},
					"repay(address,uint256,uint256,address)": {
						"params": {
							"amount": "The amount to repay - Send the value type(uint256).max in order to repay the whole debt for `asset` on the specific `debtMode`",
							"asset": "The address of the borrowed underlying asset previously borrowed",
							"interestRateMode": "The interest rate mode at of the debt the user wants to repay: 1 for Stable, 2 for Variable",
							"onBehalfOf": "The address of the user who will get his debt reduced/removed. Should be the address of the user calling the function if he wants to reduce/remove his own debt, or the address of any other other borrower whose debt should be removed"
						},
						"returns": {
							"_0": "The final amount repaid"
						}
					},
					"repayWithATokens(address,uint256,uint256)": {
						"details": "Passing uint256.max as amount will clean up any residual aToken dust balance, if the user aToken balance is not enough to cover the whole debt",
						"params": {
							"amount": "The amount to repay - Send the value type(uint256).max in order to repay the whole debt for `asset` on the specific `debtMode`",
							"asset": "The address of the borrowed underlying asset previously borrowed",
							"interestRateMode": "The interest rate mode at of the debt the user wants to repay: 1 for Stable, 2 for Variable"
						},
						"returns": {
							"_0": "The final amount repaid"
						}
					},
					"repayWithPermit(address,uint256,uint256,address,uint256,uint8,bytes32,bytes32)": {
						"params": {
							"amount": "The amount to repay - Send the value type(uint256).max in order to repay the whole debt for `asset` on the specific `debtMode`",
							"asset": "The address of the borrowed underlying asset previously borrowed",
							"deadline": "The deadline timestamp that the permit is valid",
							"interestRateMode": "The interest rate mode at of the debt the user wants to repay: 1 for Stable, 2 for Variable",
							"onBehalfOf": "Address of the user who will get his debt reduced/removed. Should be the address of the user calling the function if he wants to reduce/remove his own debt, or the address of any other other borrower whose debt should be removed",
							"permitR": "The R parameter of ERC712 permit sig",
							"permitS": "The S parameter of ERC712 permit sig",
							"permitV": "The V parameter of ERC712 permit sig"
						},
						"returns": {
							"_0": "The final amount repaid"
						}
					},
					"rescueTokens(address,address,uint256)": {
						"params": {
							"amount": "The amount of token to transfer",
							"to": "The address of the recipient",
							"token": "The address of the token"
						}
					},
					"resetIsolationModeTotalDebt(address)": {
						"details": "It requires the given asset has zero debt ceiling",
						"params": {
							"asset": "The address of the underlying asset to reset the isolationModeTotalDebt"
						}
					},
					"setConfiguration(address,(uint256))": {
						"details": "Only callable by the PoolConfigurator contract",
						"params": {
							"asset": "The address of the underlying asset of the reserve",
							"configuration": "The new configuration bitmap"
						}
					},
					"setReserveInterestRateStrategyAddress(address,address)": {
						"details": "Only callable by the PoolConfigurator contract",
						"params": {
							"asset": "The address of the underlying asset of the reserve",
							"rateStrategyAddress": "The address of the interest rate strategy contract"
						}
					},
					"setUserEMode(uint8)": {
						"params": {
							"categoryId": "The id of the category"
						}
					},
					"setUserUseReserveAsCollateral(address,bool)": {
						"params": {
							"asset": "The address of the underlying asset supplied",
							"useAsCollateral": "True if the user wants to use the supply as collateral, false otherwise"
						}
					},
					"supply(address,uint256,address,uint16)": {
						"params": {
							"amount": "The amount to be supplied",
							"asset": "The address of the underlying asset to supply",
							"onBehalfOf": "The address that will receive the aTokens, same as msg.sender if the user   wants to receive them on his own wallet, or a different address if the beneficiary of aTokens   is a different wallet",
							"referralCode": "Code used to register the integrator originating the operation, for potential rewards.   0 if the action is executed directly by the user, without any middle-man"
						}
					},
					"supplyWithPermit(address,uint256,address,uint16,uint256,uint8,bytes32,bytes32)": {
						"params": {
							"amount": "The amount to be supplied",
							"asset": "The address of the underlying asset to supply",
							"deadline": "The deadline timestamp that the permit is valid",
							"onBehalfOf": "The address that will receive the aTokens, same as msg.sender if the user   wants to receive them on his own wallet, or a different address if the beneficiary of aTokens   is a different wallet",
							"permitR": "The R parameter of ERC712 permit sig",
							"permitS": "The S parameter of ERC712 permit sig",
							"permitV": "The V parameter of ERC712 permit sig",
							"referralCode": "Code used to register the integrator originating the operation, for potential rewards.   0 if the action is executed directly by the user, without any middle-man"
						}
					},
					"swapBorrowRateMode(address,uint256)": {
						"params": {
							"asset": "The address of the underlying asset borrowed",
							"interestRateMode": "The current interest rate mode of the position being swapped: 1 for Stable, 2 for Variable"
						}
					},
					"updateBridgeProtocolFee(uint256)": {
						"params": {
							"bridgeProtocolFee": "The part of the premium sent to the protocol treasury"
						}
					},
					"updateFlashloanPremiums(uint128,uint128)": {
						"details": "The total premium is calculated on the total borrowed amountThe premium to protocol is calculated on the total premium, being a percentage of `flashLoanPremiumTotal`Only callable by the PoolConfigurator contract",
						"params": {
							"flashLoanPremiumToProtocol": "The part of the premium sent to the protocol treasury, expressed in bps",
							"flashLoanPremiumTotal": "The total premium, expressed in bps"
						}
					},
					"withdraw(address,uint256,address)": {
						"params": {
							"amount": "The underlying amount to be withdrawn   - Send the value type(uint256).max in order to withdraw the whole aToken balance",
							"asset": "The address of the underlying asset to withdraw",
							"to": "The address that will receive the underlying, same as msg.sender if the user   wants to receive it on his own wallet, or a different address if the beneficiary is a   different wallet"
						},
						"returns": {
							"_0": "The final amount withdrawn"
						}
					}
				},
				"version": 1
			},
			"evm": {
				"assembly": "    /* \"MockAavePool.sol\":246:6870  contract MockAavePool is IPool {... */\n  mstore(0x40, 0x80)\n  dataSize(sub_0)\n  dup1\n  dataOffset(sub_0)\n  0x00\n  codecopy\n  0x00\n  return\nstop\n\nsub_0: assembly {\n        /* \"MockAavePool.sol\":246:6870  contract MockAavePool is IPool {... */\n      mstore(0x40, 0x80)\n      callvalue\n      dup1\n      iszero\n      tag_1\n      jumpi\n      0x00\n      dup1\n      revert\n    tag_1:\n      pop\n      jumpi(tag_2, lt(calldatasize, 0x04))\n      shr(0xe0, calldataload(0x00))\n      dup1\n      0x7a708e92\n      gt\n      tag_47\n      jumpi\n      dup1\n      0xd1946dbc\n      gt\n      tag_48\n      jumpi\n      dup1\n      0xe82fec2f\n      gt\n      tag_49\n      jumpi\n      dup1\n      0xe82fec2f\n      eq\n      tag_8\n      jumpi\n      dup1\n      0xe8eda9df\n      eq\n      tag_19\n      jumpi\n      dup1\n      0xeddf1b79\n      eq\n      tag_13\n      jumpi\n      dup1\n      0xee3e210b\n      eq\n      tag_44\n      jumpi\n      dup1\n      0xf51e435b\n      eq\n      tag_45\n      jumpi\n      dup1\n      0xf8119d51\n      eq\n      tag_6\n      jumpi\n      0x00\n      dup1\n      revert\n    tag_49:\n      dup1\n      0xd1946dbc\n      eq\n      tag_36\n      jumpi\n      dup1\n      0xd579ea7d\n      eq\n      tag_37\n      jumpi\n      dup1\n      0xd5ed3933\n      eq\n      tag_38\n      jumpi\n      dup1\n      0xd65dc7a1\n      eq\n      tag_10\n      jumpi\n      dup1\n      0xe43e88a1\n      eq\n      tag_20\n      jumpi\n      0x00\n      dup1\n      revert\n    tag_48:\n      dup1\n      0xbcb6e522\n      gt\n      tag_50\n      jumpi\n      dup1\n      0xbcb6e522\n      eq\n      tag_30\n      jumpi\n      dup1\n      0xbf92857c\n      eq\n      tag_31\n      jumpi\n      dup1\n      0xc44b11f7\n      eq\n      tag_15\n      jumpi\n      dup1\n      0xcd112382\n      eq\n      tag_7\n      jumpi\n      dup1\n      0xcea9d26f\n      eq\n      tag_34\n      jumpi\n      dup1\n      0xd15e0053\n      eq\n      tag_13\n      jumpi\n      0x00\n      dup1\n      revert\n    tag_50:\n      dup1\n      0x7a708e92\n      eq\n      tag_25\n      jumpi\n      dup1\n      0x94ba89a2\n      eq\n      tag_26\n      jumpi\n      dup1\n      0x9cd19996\n      eq\n      tag_27\n      jumpi\n      dup1\n      0xa415bcad\n      eq\n      tag_28\n      jumpi\n      dup1\n      0xab9c4b5d\n      eq\n      tag_29\n      jumpi\n      0x00\n      dup1\n      revert\n    tag_47:\n      dup1\n      0x42b0b77c\n      gt\n      tag_51\n      jumpi\n      dup1\n      0x617ba037\n      gt\n      tag_52\n      jumpi\n      dup1\n      0x617ba037\n      eq\n      tag_19\n      jumpi\n      dup1\n      0x63c9b860\n      eq\n      tag_20\n      jumpi\n      dup1\n      0x69328dec\n      eq\n      tag_21\n      jumpi\n      dup1\n      0x69a933a5\n      eq\n      tag_19\n      jumpi\n      dup1\n      0x6a99c036\n      eq\n      tag_6\n      jumpi\n      dup1\n      0x6c6f6ae1\n      eq\n      tag_24\n      jumpi\n      0x00\n      dup1\n      revert\n    tag_52:\n      dup1\n      0x42b0b77c\n      eq\n      tag_14\n      jumpi\n      dup1\n      0x4417a583\n      eq\n      tag_15\n      jumpi\n      dup1\n      0x52751797\n      eq\n      tag_16\n      jumpi\n      dup1\n      0x573ade81\n      eq\n      tag_17\n      jumpi\n      dup1\n      0x5a3b74b9\n      eq\n      tag_18\n      jumpi\n      0x00\n      dup1\n      revert\n    tag_51:\n      dup1\n      0x272d9072\n      gt\n      tag_53\n      jumpi\n      dup1\n      0x272d9072\n      eq\n      tag_8\n      jumpi\n      dup1\n      0x28530a47\n      eq\n      tag_9\n      jumpi\n      dup1\n      0x2dad97d4\n      eq\n      tag_10\n      jumpi\n      dup1\n      0x3036b439\n      eq\n      tag_11\n      jumpi\n      dup1\n      0x35ea6a75\n      eq\n      tag_12\n      jumpi\n      dup1\n      0x386497fd\n      eq\n      tag_13\n      jumpi\n      0x00\n      dup1\n      revert\n    tag_53:\n      dup1\n      0xa718a9\n      eq\n      tag_3\n      jumpi\n      dup1\n      0x02c205f0\n      eq\n      tag_4\n      jumpi\n      dup1\n      0x0542975c\n      eq\n      tag_5\n      jumpi\n      dup1\n      0x074b2e43\n      eq\n      tag_6\n      jumpi\n      dup1\n      0x1d2118f9\n      eq\n      tag_7\n      jumpi\n    tag_2:\n      0x00\n      dup1\n      revert\n        /* \"MockAavePool.sol\":2340:2530  function liquidationCall(... */\n    tag_3:\n      tag_54\n      tag_55\n      calldatasize\n      0x04\n      tag_56\n      jump\t// in\n    tag_55:\n      pop\n      pop\n      pop\n      pop\n      pop\n      jump\n    tag_54:\n      stop\n        /* \"MockAavePool.sol\":763:1018  function supplyWithPermit(... */\n    tag_4:\n      tag_54\n      tag_59\n      calldatasize\n      0x04\n      tag_60\n      jump\t// in\n    tag_59:\n      pop\n      pop\n      pop\n      pop\n      pop\n      pop\n      pop\n      pop\n      jump\n        /* \"MockAavePool.sol\":5110:5234  function ADDRESSES_PROVIDER()... */\n    tag_5:\n        /* \"MockAavePool.sol\":5204:5226  IPoolAddressesProvider */\n      0x00\n        /* \"MockAavePool.sol\":5110:5234  function ADDRESSES_PROVIDER()... */\n    tag_62:\n      mload(0x40)\n      sub(shl(0xa0, 0x01), 0x01)\n        /* \"#utility.yul\":2285:2317   */\n      swap1\n      swap2\n      and\n        /* \"#utility.yul\":2267:2318   */\n      dup2\n      mstore\n        /* \"#utility.yul\":2255:2257   */\n      0x20\n        /* \"#utility.yul\":2240:2258   */\n      add\n        /* \"MockAavePool.sol\":5110:5234  function ADDRESSES_PROVIDER()... */\n    tag_64:\n      mload(0x40)\n      dup1\n      swap2\n      sub\n      swap1\n      return\n        /* \"MockAavePool.sol\":6118:6232  function FLASHLOAN_PREMIUM_TOTAL()... */\n    tag_6:\n      mload(0x40)\n        /* \"MockAavePool.sol\":5204:5226  IPoolAddressesProvider */\n      0x00\n        /* \"#utility.yul\":2599:2665   */\n      dup2\n      mstore\n        /* \"#utility.yul\":2587:2589   */\n      0x20\n        /* \"#utility.yul\":2572:2590   */\n      add\n        /* \"MockAavePool.sol\":6118:6232  function FLASHLOAN_PREMIUM_TOTAL()... */\n      tag_64\n        /* \"#utility.yul\":2453:2671   */\n      jump\n        /* \"MockAavePool.sol\":3716:3849  function setReserveInterestRateStrategyAddress(... */\n    tag_7:\n      tag_54\n      tag_71\n      calldatasize\n      0x04\n      tag_72\n      jump\t// in\n    tag_71:\n      pop\n      pop\n      jump\n        /* \"MockAavePool.sol\":6238:6312  function BRIDGE_PROTOCOL_FEE() external view override returns (uint256) {} */\n    tag_8:\n        /* \"MockAavePool.sol\":5204:5226  IPoolAddressesProvider */\n      0x00\n        /* \"MockAavePool.sol\":6238:6312  function BRIDGE_PROTOCOL_FEE() external view override returns (uint256) {} */\n    tag_74:\n      mload(0x40)\n        /* \"#utility.yul\":3087:3112   */\n      swap1\n      dup2\n      mstore\n        /* \"#utility.yul\":3075:3077   */\n      0x20\n        /* \"#utility.yul\":3060:3078   */\n      add\n        /* \"MockAavePool.sol\":6238:6312  function BRIDGE_PROTOCOL_FEE() external view override returns (uint256) {} */\n      tag_64\n        /* \"#utility.yul\":2941:3118   */\n      jump\n        /* \"MockAavePool.sol\":5743:5803  function setUserEMode(uint8 categoryId) external override {} */\n    tag_9:\n      tag_54\n      tag_79\n      calldatasize\n      0x04\n      tag_80\n      jump\t// in\n    tag_79:\n      pop\n      jump\n        /* \"MockAavePool.sol\":1830:1981  function repayWithATokens(... */\n    tag_10:\n      tag_74\n      tag_83\n      calldatasize\n      0x04\n      tag_84\n      jump\t// in\n    tag_83:\n        /* \"MockAavePool.sol\":1970:1977  uint256 */\n      0x00\n        /* \"MockAavePool.sol\":1830:1981  function repayWithATokens(... */\n      swap4\n      swap3\n      pop\n      pop\n      pop\n      jump\n        /* \"MockAavePool.sol\":5240:5334  function updateBridgeProtocolFee(... */\n    tag_11:\n      tag_54\n      tag_79\n      calldatasize\n      0x04\n      tag_89\n      jump\t// in\n        /* \"MockAavePool.sol\":4546:4663  function getReserveData(... */\n    tag_12:\n      tag_91\n      tag_92\n      calldatasize\n      0x04\n      tag_93\n      jump\t// in\n    tag_92:\n      pop\n      0x40\n      dup1\n      mload\n      0x0200\n      dup2\n      add\n      dup3\n      mstore\n      0x00\n      0x01e0\n      dup3\n      add\n      dup2\n      dup2\n      mstore\n      dup3\n      mstore\n      0x20\n      dup3\n      add\n      dup2\n      swap1\n      mstore\n      swap2\n      dup2\n      add\n      dup3\n      swap1\n      mstore\n      0x60\n      dup2\n      add\n      dup3\n      swap1\n      mstore\n      0x80\n      dup2\n      add\n      dup3\n      swap1\n      mstore\n      0xa0\n      dup2\n      add\n      dup3\n      swap1\n      mstore\n      0xc0\n      dup2\n      add\n      dup3\n      swap1\n      mstore\n      0xe0\n      dup2\n      add\n      dup3\n      swap1\n      mstore\n      0x0100\n      dup2\n      add\n      dup3\n      swap1\n      mstore\n      0x0120\n      dup2\n      add\n      dup3\n      swap1\n      mstore\n      0x0140\n      dup2\n      add\n      dup3\n      swap1\n      mstore\n      0x0160\n      dup2\n      add\n      dup3\n      swap1\n      mstore\n      0x0180\n      dup2\n      add\n      dup3\n      swap1\n      mstore\n      0x01a0\n      dup2\n      add\n      dup3\n      swap1\n      mstore\n      0x01c0\n      dup2\n      add\n      swap2\n      swap1\n      swap2\n      mstore\n      swap1\n      jump\n    tag_91:\n      mload(0x40)\n      tag_64\n      swap2\n      swap1\n      tag_96\n      jump\t// in\n        /* \"MockAavePool.sol\":4426:4540  function getReserveNormalizedVariableDebt(... */\n    tag_13:\n      tag_74\n      tag_98\n      calldatasize\n      0x04\n      tag_93\n      jump\t// in\n    tag_98:\n      pop\n        /* \"MockAavePool.sol\":4529:4536  uint256 */\n      0x00\n      swap1\n        /* \"MockAavePool.sol\":4426:4540  function getReserveNormalizedVariableDebt(... */\n      jump\n        /* \"MockAavePool.sol\":2825:3016  function flashLoanSimple(... */\n    tag_14:\n      tag_54\n      tag_102\n      calldatasize\n      0x04\n      tag_103\n      jump\t// in\n    tag_102:\n      pop\n      pop\n      pop\n      pop\n      pop\n      pop\n      jump\n        /* \"MockAavePool.sol\":4175:4306  function getUserConfiguration(... */\n    tag_15:\n      tag_105\n      tag_106\n      calldatasize\n      0x04\n      tag_93\n      jump\t// in\n    tag_106:\n      pop\n      0x40\n      dup1\n      mload\n      0x20\n      dup2\n      add\n      swap1\n      swap2\n      mstore\n      0x00\n      dup2\n      mstore\n      swap1\n        /* \"MockAavePool.sol\":4546:4663  function getReserveData(... */\n      jump\n        /* \"MockAavePool.sol\":4175:4306  function getUserConfiguration(... */\n    tag_105:\n      mload(0x40)\n        /* \"#utility.yul\":7894:7907   */\n      swap1\n      mload\n        /* \"#utility.yul\":7876:7908   */\n      dup2\n      mstore\n        /* \"#utility.yul\":7864:7866   */\n      0x20\n        /* \"#utility.yul\":7849:7867   */\n      add\n        /* \"MockAavePool.sol\":4175:4306  function getUserConfiguration(... */\n      tag_64\n        /* \"#utility.yul\":7656:7914   */\n      jump\n        /* \"MockAavePool.sol\":5005:5104  function getReserveAddressById(... */\n    tag_16:\n      tag_62\n      tag_98\n      calldatasize\n      0x04\n      tag_112\n      jump\t// in\n        /* \"MockAavePool.sol\":1373:1541  function repay(... */\n    tag_17:\n      tag_74\n      tag_117\n      calldatasize\n      0x04\n      tag_118\n      jump\t// in\n    tag_117:\n        /* \"MockAavePool.sol\":1530:1537  uint256 */\n      0x00\n        /* \"MockAavePool.sol\":1373:1541  function repay(... */\n      swap5\n      swap4\n      pop\n      pop\n      pop\n      pop\n      jump\n        /* \"MockAavePool.sol\":2216:2334  function setUserUseReserveAsCollateral(... */\n    tag_18:\n      tag_54\n      tag_71\n      calldatasize\n      0x04\n      tag_123\n      jump\t// in\n        /* \"MockAavePool.sol\":611:757  function supply(... */\n    tag_19:\n      tag_54\n      tag_126\n      calldatasize\n      0x04\n      tag_127\n      jump\t// in\n    tag_126:\n      pop\n      pop\n      pop\n      pop\n      jump\n        /* \"MockAavePool.sol\":3654:3710  function dropReserve(address asset) external override {} */\n    tag_20:\n      tag_54\n      tag_79\n      calldatasize\n      0x04\n      tag_93\n      jump\t// in\n        /* \"MockAavePool.sol\":1024:1181  function withdraw(... */\n    tag_21:\n      tag_74\n      tag_133\n      calldatasize\n      0x04\n      tag_134\n      jump\t// in\n    tag_133:\n      pop\n        /* \"MockAavePool.sol\":1168:1174  amount */\n      swap2\n        /* \"MockAavePool.sol\":1024:1181  function withdraw(... */\n      swap1\n      pop\n      jump\n        /* \"MockAavePool.sol\":5617:5737  function getEModeCategoryData(... */\n    tag_24:\n      tag_143\n      tag_144\n      calldatasize\n      0x04\n      tag_80\n      jump\t// in\n    tag_144:\n      pop\n      0x40\n      dup1\n      mload\n      0xa0\n      dup2\n      add\n      dup3\n      mstore\n      0x00\n      dup1\n      dup3\n      mstore\n      0x20\n      dup3\n      add\n      dup2\n      swap1\n      mstore\n      swap2\n      dup2\n      add\n      dup3\n      swap1\n      mstore\n      0x60\n      dup1\n      dup3\n      add\n      swap3\n      swap1\n      swap3\n      mstore\n      0x80\n      dup2\n      add\n      swap2\n      swap1\n      swap2\n      mstore\n      swap1\n        /* \"MockAavePool.sol\":4546:4663  function getReserveData(... */\n      jump\n        /* \"MockAavePool.sol\":5617:5737  function getEModeCategoryData(... */\n    tag_143:\n      mload(0x40)\n      tag_64\n      swap2\n      swap1\n      tag_147\n      jump\t// in\n        /* \"MockAavePool.sol\":3430:3648  function initReserve(... */\n    tag_25:\n      tag_54\n      tag_55\n      calldatasize\n      0x04\n      tag_150\n      jump\t// in\n        /* \"MockAavePool.sol\":1987:2098  function swapBorrowRateMode(... */\n    tag_26:\n      tag_54\n      tag_71\n      calldatasize\n      0x04\n      tag_154\n      jump\t// in\n        /* \"MockAavePool.sol\":6523:6594  function mintToTreasury(address[] calldata assets) external override {} */\n    tag_27:\n      tag_54\n      tag_71\n      calldatasize\n      0x04\n      tag_158\n      jump\t// in\n        /* \"MockAavePool.sol\":1187:1367  function borrow(... */\n    tag_28:\n      tag_54\n      tag_55\n      calldatasize\n      0x04\n      tag_162\n      jump\t// in\n        /* \"MockAavePool.sol\":2536:2819  function flashLoan(... */\n    tag_29:\n      tag_54\n      tag_165\n      calldatasize\n      0x04\n      tag_166\n      jump\t// in\n    tag_165:\n      pop\n      pop\n      pop\n      pop\n      pop\n      pop\n      pop\n      pop\n      pop\n      pop\n      pop\n      jump\n        /* \"MockAavePool.sol\":5340:5482  function updateFlashloanPremiums(... */\n    tag_30:\n      tag_54\n      tag_71\n      calldatasize\n      0x04\n      tag_170\n      jump\t// in\n        /* \"MockAavePool.sol\":3022:3424  function getUserAccountData(... */\n    tag_31:\n      tag_172\n      tag_173\n      calldatasize\n      0x04\n      tag_93\n      jump\t// in\n    tag_173:\n        /* \"MockAavePool.sol\":3155:3182  uint256 totalCollateralBase */\n      0x00\n      dup1\n      dup1\n      dup1\n      dup1\n      dup1\n        /* \"MockAavePool.sol\":3022:3424  function getUserAccountData(... */\n      swap2\n      swap4\n      swap6\n      pop\n      swap2\n      swap4\n      swap6\n      jump\n    tag_172:\n      0x40\n      dup1\n      mload\n        /* \"#utility.yul\":15332:15357   */\n      swap7\n      dup8\n      mstore\n        /* \"#utility.yul\":15388:15390   */\n      0x20\n        /* \"#utility.yul\":15373:15391   */\n      dup8\n      add\n        /* \"#utility.yul\":15366:15400   */\n      swap6\n      swap1\n      swap6\n      mstore\n        /* \"#utility.yul\":15416:15434   */\n      swap4\n      dup6\n      add\n        /* \"#utility.yul\":15409:15443   */\n      swap3\n      swap1\n      swap3\n      mstore\n        /* \"#utility.yul\":15474:15476   */\n      0x60\n        /* \"#utility.yul\":15459:15477   */\n      dup5\n      add\n        /* \"#utility.yul\":15452:15486   */\n      mstore\n        /* \"#utility.yul\":15517:15520   */\n      0x80\n        /* \"#utility.yul\":15502:15521   */\n      dup4\n      add\n        /* \"#utility.yul\":15495:15530   */\n      mstore\n        /* \"#utility.yul\":15561:15564   */\n      0xa0\n        /* \"#utility.yul\":15546:15565   */\n      dup3\n      add\n        /* \"#utility.yul\":15539:15574   */\n      mstore\n        /* \"#utility.yul\":15319:15322   */\n      0xc0\n        /* \"#utility.yul\":15304:15323   */\n      add\n        /* \"MockAavePool.sol\":3022:3424  function getUserAccountData(... */\n      tag_64\n        /* \"#utility.yul\":15045:15580   */\n      jump\n        /* \"MockAavePool.sol\":6600:6715  function rescueTokens(... */\n    tag_34:\n      tag_54\n      tag_186\n      calldatasize\n      0x04\n      tag_187\n      jump\t// in\n    tag_186:\n      pop\n      pop\n      pop\n      jump\n        /* \"MockAavePool.sol\":4884:4999  function getReservesList()... */\n    tag_36:\n        /* \"MockAavePool.sol\":4975:4991  address[] memory */\n      0x60\n        /* \"MockAavePool.sol\":4884:4999  function getReservesList()... */\n      mload(0x40)\n      tag_64\n      swap2\n      swap1\n      tag_196\n      jump\t// in\n        /* \"MockAavePool.sol\":5488:5611  function configureEModeCategory(... */\n    tag_37:\n      tag_54\n      tag_71\n      calldatasize\n      0x04\n      tag_199\n      jump\t// in\n        /* \"MockAavePool.sol\":4669:4878  function finalizeTransfer(... */\n    tag_38:\n      tag_54\n      tag_102\n      calldatasize\n      0x04\n      tag_203\n      jump\t// in\n        /* \"MockAavePool.sol\":1547:1824  function repayWithPermit(... */\n    tag_44:\n      tag_74\n      tag_223\n      calldatasize\n      0x04\n      tag_224\n      jump\t// in\n    tag_223:\n        /* \"MockAavePool.sol\":1813:1820  uint256 */\n      0x00\n        /* \"MockAavePool.sol\":1547:1824  function repayWithPermit(... */\n      swap9\n      swap8\n      pop\n      pop\n      pop\n      pop\n      pop\n      pop\n      pop\n      pop\n      jump\n        /* \"MockAavePool.sol\":3855:3996  function setConfiguration(... */\n    tag_45:\n      tag_54\n      tag_71\n      calldatasize\n      0x04\n      tag_229\n      jump\t// in\n        /* \"MockAavePool.sol\":4631:4659  DataTypes.ReserveData memory */\n    tag_244:\n        /* \"MockAavePool.sol\":4546:4663  function getReserveData(... */\n      swap2\n      swap1\n      pop\n      jump\t// out\n        /* \"#utility.yul\":14:187   */\n    tag_288:\n        /* \"#utility.yul\":82:102   */\n      dup1\n      calldataload\n      sub(shl(0xa0, 0x01), 0x01)\n        /* \"#utility.yul\":131:162   */\n      dup2\n      and\n        /* \"#utility.yul\":121:163   */\n      dup2\n      eq\n        /* \"#utility.yul\":111:181   */\n      tag_244\n      jumpi\n        /* \"#utility.yul\":177:178   */\n      0x00\n        /* \"#utility.yul\":174:175   */\n      dup1\n        /* \"#utility.yul\":167:179   */\n      revert\n        /* \"#utility.yul\":192:352   */\n    tag_289:\n        /* \"#utility.yul\":257:277   */\n      dup1\n      calldataload\n        /* \"#utility.yul\":313:326   */\n      dup1\n      iszero\n        /* \"#utility.yul\":306:327   */\n      iszero\n        /* \"#utility.yul\":296:328   */\n      dup2\n      eq\n        /* \"#utility.yul\":286:346   */\n      tag_244\n      jumpi\n        /* \"#utility.yul\":342:343   */\n      0x00\n        /* \"#utility.yul\":339:340   */\n      dup1\n        /* \"#utility.yul\":332:344   */\n      revert\n        /* \"#utility.yul\":357:875   */\n    tag_56:\n        /* \"#utility.yul\":449:455   */\n      0x00\n        /* \"#utility.yul\":457:463   */\n      dup1\n        /* \"#utility.yul\":465:471   */\n      0x00\n        /* \"#utility.yul\":473:479   */\n      dup1\n        /* \"#utility.yul\":481:487   */\n      0x00\n        /* \"#utility.yul\":534:537   */\n      0xa0\n        /* \"#utility.yul\":522:531   */\n      dup7\n        /* \"#utility.yul\":513:520   */\n      dup9\n        /* \"#utility.yul\":509:532   */\n      sub\n        /* \"#utility.yul\":505:538   */\n      slt\n        /* \"#utility.yul\":502:555   */\n      iszero\n      tag_309\n      jumpi\n        /* \"#utility.yul\":551:552   */\n      0x00\n        /* \"#utility.yul\":548:549   */\n      dup1\n        /* \"#utility.yul\":541:553   */\n      revert\n        /* \"#utility.yul\":502:555   */\n    tag_309:\n        /* \"#utility.yul\":574:603   */\n      tag_310\n        /* \"#utility.yul\":593:602   */\n      dup7\n        /* \"#utility.yul\":574:603   */\n      tag_288\n      jump\t// in\n    tag_310:\n        /* \"#utility.yul\":564:603   */\n      swap5\n      pop\n        /* \"#utility.yul\":622:660   */\n      tag_311\n        /* \"#utility.yul\":656:658   */\n      0x20\n        /* \"#utility.yul\":645:654   */\n      dup8\n        /* \"#utility.yul\":641:659   */\n      add\n        /* \"#utility.yul\":622:660   */\n      tag_288\n      jump\t// in\n    tag_311:\n        /* \"#utility.yul\":612:660   */\n      swap4\n      pop\n        /* \"#utility.yul\":679:717   */\n      tag_312\n        /* \"#utility.yul\":713:715   */\n      0x40\n        /* \"#utility.yul\":702:711   */\n      dup8\n        /* \"#utility.yul\":698:716   */\n      add\n        /* \"#utility.yul\":679:717   */\n      tag_288\n      jump\t// in\n    tag_312:\n        /* \"#utility.yul\":669:717   */\n      swap3\n      pop\n        /* \"#utility.yul\":786:788   */\n      0x60\n        /* \"#utility.yul\":771:789   */\n      dup7\n      add\n        /* \"#utility.yul\":758:790   */\n      calldataload\n      swap2\n      pop\n        /* \"#utility.yul\":833:869   */\n      tag_313\n        /* \"#utility.yul\":864:867   */\n      0x80\n        /* \"#utility.yul\":849:868   */\n      dup8\n      add\n        /* \"#utility.yul\":833:869   */\n      tag_289\n      jump\t// in\n    tag_313:\n        /* \"#utility.yul\":823:869   */\n      swap1\n      pop\n        /* \"#utility.yul\":357:875   */\n      swap3\n      swap6\n      pop\n      swap3\n      swap6\n      swap1\n      swap4\n      pop\n      jump\t// out\n        /* \"#utility.yul\":880:1039   */\n    tag_290:\n        /* \"#utility.yul\":947:967   */\n      dup1\n      calldataload\n        /* \"#utility.yul\":1007:1013   */\n      0xffff\n        /* \"#utility.yul\":996:1014   */\n      dup2\n      and\n        /* \"#utility.yul\":986:1015   */\n      dup2\n      eq\n        /* \"#utility.yul\":976:1033   */\n      tag_244\n      jumpi\n        /* \"#utility.yul\":1029:1030   */\n      0x00\n        /* \"#utility.yul\":1026:1027   */\n      dup1\n        /* \"#utility.yul\":1019:1031   */\n      revert\n        /* \"#utility.yul\":1044:1200   */\n    tag_291:\n        /* \"#utility.yul\":1110:1130   */\n      dup1\n      calldataload\n        /* \"#utility.yul\":1170:1174   */\n      0xff\n        /* \"#utility.yul\":1159:1175   */\n      dup2\n      and\n        /* \"#utility.yul\":1149:1176   */\n      dup2\n      eq\n        /* \"#utility.yul\":1139:1194   */\n      tag_244\n      jumpi\n        /* \"#utility.yul\":1190:1191   */\n      0x00\n        /* \"#utility.yul\":1187:1188   */\n      dup1\n        /* \"#utility.yul\":1180:1192   */\n      revert\n        /* \"#utility.yul\":1205:2086   */\n    tag_60:\n        /* \"#utility.yul\":1324:1330   */\n      0x00\n        /* \"#utility.yul\":1332:1338   */\n      dup1\n        /* \"#utility.yul\":1340:1346   */\n      0x00\n        /* \"#utility.yul\":1348:1354   */\n      dup1\n        /* \"#utility.yul\":1356:1362   */\n      0x00\n        /* \"#utility.yul\":1364:1370   */\n      dup1\n        /* \"#utility.yul\":1372:1378   */\n      0x00\n        /* \"#utility.yul\":1380:1386   */\n      dup1\n        /* \"#utility.yul\":1433:1436   */\n      0x0100\n        /* \"#utility.yul\":1421:1430   */\n      dup10\n        /* \"#utility.yul\":1412:1419   */\n      dup12\n        /* \"#utility.yul\":1408:1431   */\n      sub\n        /* \"#utility.yul\":1404:1437   */\n      slt\n        /* \"#utility.yul\":1401:1454   */\n      iszero\n      tag_319\n      jumpi\n        /* \"#utility.yul\":1450:1451   */\n      0x00\n        /* \"#utility.yul\":1447:1448   */\n      dup1\n        /* \"#utility.yul\":1440:1452   */\n      revert\n        /* \"#utility.yul\":1401:1454   */\n    tag_319:\n        /* \"#utility.yul\":1473:1502   */\n      tag_320\n        /* \"#utility.yul\":1492:1501   */\n      dup10\n        /* \"#utility.yul\":1473:1502   */\n      tag_288\n      jump\t// in\n    tag_320:\n        /* \"#utility.yul\":1463:1502   */\n      swap8\n      pop\n        /* \"#utility.yul\":1571:1573   */\n      0x20\n        /* \"#utility.yul\":1556:1574   */\n      dup10\n      add\n        /* \"#utility.yul\":1543:1575   */\n      calldataload\n      swap7\n      pop\n        /* \"#utility.yul\":1618:1656   */\n      tag_321\n        /* \"#utility.yul\":1652:1654   */\n      0x40\n        /* \"#utility.yul\":1637:1655   */\n      dup11\n      add\n        /* \"#utility.yul\":1618:1656   */\n      tag_288\n      jump\t// in\n    tag_321:\n        /* \"#utility.yul\":1608:1656   */\n      swap6\n      pop\n        /* \"#utility.yul\":1675:1712   */\n      tag_322\n        /* \"#utility.yul\":1708:1710   */\n      0x60\n        /* \"#utility.yul\":1697:1706   */\n      dup11\n        /* \"#utility.yul\":1693:1711   */\n      add\n        /* \"#utility.yul\":1675:1712   */\n      tag_290\n      jump\t// in\n    tag_322:\n        /* \"#utility.yul\":1665:1712   */\n      swap5\n      pop\n        /* \"#utility.yul\":1785:1788   */\n      0x80\n        /* \"#utility.yul\":1770:1789   */\n      dup10\n      add\n        /* \"#utility.yul\":1757:1790   */\n      calldataload\n      swap4\n      pop\n        /* \"#utility.yul\":1835:1872   */\n      tag_323\n        /* \"#utility.yul\":1867:1870   */\n      0xa0\n        /* \"#utility.yul\":1852:1871   */\n      dup11\n      add\n        /* \"#utility.yul\":1835:1872   */\n      tag_291\n      jump\t// in\n    tag_323:\n        /* \"#utility.yul\":1205:2086   */\n      swap8\n      swap11\n      swap7\n      swap10\n      pop\n      swap5\n      swap8\n      swap4\n      swap7\n      swap3\n      swap6\n        /* \"#utility.yul\":1825:1872   */\n      swap3\n      swap5\n      pop\n      pop\n      pop\n        /* \"#utility.yul\":1945:1948   */\n      0xc0\n        /* \"#utility.yul\":1930:1949   */\n      dup3\n      add\n        /* \"#utility.yul\":1917:1950   */\n      calldataload\n      swap2\n        /* \"#utility.yul\":2049:2052   */\n      0xe0\n        /* \"#utility.yul\":2034:2053   */\n      add\n        /* \"#utility.yul\":2021:2054   */\n      calldataload\n      swap1\n        /* \"#utility.yul\":1205:2086   */\n      jump\t// out\n        /* \"#utility.yul\":2676:2936   */\n    tag_72:\n        /* \"#utility.yul\":2744:2750   */\n      0x00\n        /* \"#utility.yul\":2752:2758   */\n      dup1\n        /* \"#utility.yul\":2805:2807   */\n      0x40\n        /* \"#utility.yul\":2793:2802   */\n      dup4\n        /* \"#utility.yul\":2784:2791   */\n      dup6\n        /* \"#utility.yul\":2780:2803   */\n      sub\n        /* \"#utility.yul\":2776:2808   */\n      slt\n        /* \"#utility.yul\":2773:2825   */\n      iszero\n      tag_328\n      jumpi\n        /* \"#utility.yul\":2821:2822   */\n      0x00\n        /* \"#utility.yul\":2818:2819   */\n      dup1\n        /* \"#utility.yul\":2811:2823   */\n      revert\n        /* \"#utility.yul\":2773:2825   */\n    tag_328:\n        /* \"#utility.yul\":2844:2873   */\n      tag_329\n        /* \"#utility.yul\":2863:2872   */\n      dup4\n        /* \"#utility.yul\":2844:2873   */\n      tag_288\n      jump\t// in\n    tag_329:\n        /* \"#utility.yul\":2834:2873   */\n      swap2\n      pop\n        /* \"#utility.yul\":2892:2930   */\n      tag_330\n        /* \"#utility.yul\":2926:2928   */\n      0x20\n        /* \"#utility.yul\":2915:2924   */\n      dup5\n        /* \"#utility.yul\":2911:2929   */\n      add\n        /* \"#utility.yul\":2892:2930   */\n      tag_288\n      jump\t// in\n    tag_330:\n        /* \"#utility.yul\":2882:2930   */\n      swap1\n      pop\n        /* \"#utility.yul\":2676:2936   */\n      swap3\n      pop\n      swap3\n      swap1\n      pop\n      jump\t// out\n        /* \"#utility.yul\":3123:3305   */\n    tag_80:\n        /* \"#utility.yul\":3180:3186   */\n      0x00\n        /* \"#utility.yul\":3233:3235   */\n      0x20\n        /* \"#utility.yul\":3221:3230   */\n      dup3\n        /* \"#utility.yul\":3212:3219   */\n      dup5\n        /* \"#utility.yul\":3208:3231   */\n      sub\n        /* \"#utility.yul\":3204:3236   */\n      slt\n        /* \"#utility.yul\":3201:3253   */\n      iszero\n      tag_333\n      jumpi\n        /* \"#utility.yul\":3249:3250   */\n      0x00\n        /* \"#utility.yul\":3246:3247   */\n      dup1\n        /* \"#utility.yul\":3239:3251   */\n      revert\n        /* \"#utility.yul\":3201:3253   */\n    tag_333:\n        /* \"#utility.yul\":3272:3299   */\n      tag_334\n        /* \"#utility.yul\":3289:3298   */\n      dup3\n        /* \"#utility.yul\":3272:3299   */\n      tag_291\n      jump\t// in\n    tag_334:\n        /* \"#utility.yul\":3262:3299   */\n      swap4\n        /* \"#utility.yul\":3123:3305   */\n      swap3\n      pop\n      pop\n      pop\n      jump\t// out\n        /* \"#utility.yul\":3310:3730   */\n    tag_84:\n        /* \"#utility.yul\":3387:3393   */\n      0x00\n        /* \"#utility.yul\":3395:3401   */\n      dup1\n        /* \"#utility.yul\":3403:3409   */\n      0x00\n        /* \"#utility.yul\":3456:3458   */\n      0x60\n        /* \"#utility.yul\":3444:3453   */\n      dup5\n        /* \"#utility.yul\":3435:3442   */\n      dup7\n        /* \"#utility.yul\":3431:3454   */\n      sub\n        /* \"#utility.yul\":3427:3459   */\n      slt\n        /* \"#utility.yul\":3424:3476   */\n      iszero\n      tag_336\n      jumpi\n        /* \"#utility.yul\":3472:3473   */\n      0x00\n        /* \"#utility.yul\":3469:3470   */\n      dup1\n        /* \"#utility.yul\":3462:3474   */\n      revert\n        /* \"#utility.yul\":3424:3476   */\n    tag_336:\n        /* \"#utility.yul\":3495:3524   */\n      tag_337\n        /* \"#utility.yul\":3514:3523   */\n      dup5\n        /* \"#utility.yul\":3495:3524   */\n      tag_288\n      jump\t// in\n    tag_337:\n        /* \"#utility.yul\":3485:3524   */\n      swap6\n        /* \"#utility.yul\":3593:3595   */\n      0x20\n        /* \"#utility.yul\":3578:3596   */\n      dup6\n      add\n        /* \"#utility.yul\":3565:3597   */\n      calldataload\n      swap6\n      pop\n        /* \"#utility.yul\":3694:3696   */\n      0x40\n        /* \"#utility.yul\":3679:3697   */\n      swap1\n      swap5\n      add\n        /* \"#utility.yul\":3666:3698   */\n      calldataload\n      swap4\n        /* \"#utility.yul\":3310:3730   */\n      swap3\n      pop\n      pop\n      pop\n      jump\t// out\n        /* \"#utility.yul\":3735:3961   */\n    tag_89:\n        /* \"#utility.yul\":3794:3800   */\n      0x00\n        /* \"#utility.yul\":3847:3849   */\n      0x20\n        /* \"#utility.yul\":3835:3844   */\n      dup3\n        /* \"#utility.yul\":3826:3833   */\n      dup5\n        /* \"#utility.yul\":3822:3845   */\n      sub\n        /* \"#utility.yul\":3818:3850   */\n      slt\n        /* \"#utility.yul\":3815:3867   */\n      iszero\n      tag_339\n      jumpi\n        /* \"#utility.yul\":3863:3864   */\n      0x00\n        /* \"#utility.yul\":3860:3861   */\n      dup1\n        /* \"#utility.yul\":3853:3865   */\n      revert\n        /* \"#utility.yul\":3815:3867   */\n    tag_339:\n      pop\n        /* \"#utility.yul\":3908:3931   */\n      calldataload\n      swap2\n        /* \"#utility.yul\":3735:3961   */\n      swap1\n      pop\n      jump\t// out\n        /* \"#utility.yul\":3966:4152   */\n    tag_93:\n        /* \"#utility.yul\":4025:4031   */\n      0x00\n        /* \"#utility.yul\":4078:4080   */\n      0x20\n        /* \"#utility.yul\":4066:4075   */\n      dup3\n        /* \"#utility.yul\":4057:4064   */\n      dup5\n        /* \"#utility.yul\":4053:4076   */\n      sub\n        /* \"#utility.yul\":4049:4081   */\n      slt\n        /* \"#utility.yul\":4046:4098   */\n      iszero\n      tag_341\n      jumpi\n        /* \"#utility.yul\":4094:4095   */\n      0x00\n        /* \"#utility.yul\":4091:4092   */\n      dup1\n        /* \"#utility.yul\":4084:4096   */\n      revert\n        /* \"#utility.yul\":4046:4098   */\n    tag_341:\n        /* \"#utility.yul\":4117:4146   */\n      tag_334\n        /* \"#utility.yul\":4136:4145   */\n      dup3\n        /* \"#utility.yul\":4117:4146   */\n      tag_288\n      jump\t// in\n        /* \"#utility.yul\":4563:6549   */\n    tag_96:\n        /* \"#utility.yul\":4808:4821   */\n      dup2\n      mload\n        /* \"#utility.yul\":4238:4250   */\n      mload\n        /* \"#utility.yul\":4226:4251   */\n      dup2\n      mstore\n        /* \"#utility.yul\":4753:4756   */\n      0x01e0\n        /* \"#utility.yul\":4738:4757   */\n      dup2\n      add\n        /* \"#utility.yul\":4880:4884   */\n      0x20\n        /* \"#utility.yul\":4872:4878   */\n      dup4\n        /* \"#utility.yul\":4868:4885   */\n      add\n        /* \"#utility.yul\":4862:4886   */\n      mload\n        /* \"#utility.yul\":4895:4949   */\n      tag_349\n        /* \"#utility.yul\":4943:4947   */\n      0x20\n        /* \"#utility.yul\":4932:4941   */\n      dup5\n        /* \"#utility.yul\":4928:4948   */\n      add\n        /* \"#utility.yul\":4914:4926   */\n      dup3\n      sub(shl(0x80, 0x01), 0x01)\n        /* \"#utility.yul\":2395:2441   */\n      and\n        /* \"#utility.yul\":2383:2442   */\n      swap1\n      mstore\n        /* \"#utility.yul\":2329:2448   */\n      jump\n        /* \"#utility.yul\":4895:4949   */\n    tag_349:\n      pop\n        /* \"#utility.yul\":4998:5002   */\n      0x40\n        /* \"#utility.yul\":4990:4996   */\n      dup4\n        /* \"#utility.yul\":4986:5003   */\n      add\n        /* \"#utility.yul\":4980:5004   */\n      mload\n        /* \"#utility.yul\":5013:5069   */\n      tag_350\n        /* \"#utility.yul\":5063:5067   */\n      0x40\n        /* \"#utility.yul\":5052:5061   */\n      dup5\n        /* \"#utility.yul\":5048:5068   */\n      add\n        /* \"#utility.yul\":5032:5046   */\n      dup3\n      sub(shl(0x80, 0x01), 0x01)\n        /* \"#utility.yul\":2395:2441   */\n      and\n        /* \"#utility.yul\":2383:2442   */\n      swap1\n      mstore\n        /* \"#utility.yul\":2329:2448   */\n      jump\n        /* \"#utility.yul\":5013:5069   */\n    tag_350:\n      pop\n        /* \"#utility.yul\":5118:5122   */\n      0x60\n        /* \"#utility.yul\":5110:5116   */\n      dup4\n        /* \"#utility.yul\":5106:5123   */\n      add\n        /* \"#utility.yul\":5100:5124   */\n      mload\n        /* \"#utility.yul\":5133:5189   */\n      tag_351\n        /* \"#utility.yul\":5183:5187   */\n      0x60\n        /* \"#utility.yul\":5172:5181   */\n      dup5\n        /* \"#utility.yul\":5168:5188   */\n      add\n        /* \"#utility.yul\":5152:5166   */\n      dup3\n      sub(shl(0x80, 0x01), 0x01)\n        /* \"#utility.yul\":2395:2441   */\n      and\n        /* \"#utility.yul\":2383:2442   */\n      swap1\n      mstore\n        /* \"#utility.yul\":2329:2448   */\n      jump\n        /* \"#utility.yul\":5133:5189   */\n    tag_351:\n      pop\n        /* \"#utility.yul\":5238:5242   */\n      0x80\n        /* \"#utility.yul\":5230:5236   */\n      dup4\n        /* \"#utility.yul\":5226:5243   */\n      add\n        /* \"#utility.yul\":5220:5244   */\n      mload\n        /* \"#utility.yul\":5253:5309   */\n      tag_352\n        /* \"#utility.yul\":5303:5307   */\n      0x80\n        /* \"#utility.yul\":5292:5301   */\n      dup5\n        /* \"#utility.yul\":5288:5308   */\n      add\n        /* \"#utility.yul\":5272:5286   */\n      dup3\n      sub(shl(0x80, 0x01), 0x01)\n        /* \"#utility.yul\":2395:2441   */\n      and\n        /* \"#utility.yul\":2383:2442   */\n      swap1\n      mstore\n        /* \"#utility.yul\":2329:2448   */\n      jump\n        /* \"#utility.yul\":5253:5309   */\n    tag_352:\n      pop\n        /* \"#utility.yul\":5358:5362   */\n      0xa0\n        /* \"#utility.yul\":5350:5356   */\n      dup4\n        /* \"#utility.yul\":5346:5363   */\n      add\n        /* \"#utility.yul\":5340:5364   */\n      mload\n        /* \"#utility.yul\":5373:5429   */\n      tag_353\n        /* \"#utility.yul\":5423:5427   */\n      0xa0\n        /* \"#utility.yul\":5412:5421   */\n      dup5\n        /* \"#utility.yul\":5408:5428   */\n      add\n        /* \"#utility.yul\":5392:5406   */\n      dup3\n      sub(shl(0x80, 0x01), 0x01)\n        /* \"#utility.yul\":2395:2441   */\n      and\n        /* \"#utility.yul\":2383:2442   */\n      swap1\n      mstore\n        /* \"#utility.yul\":2329:2448   */\n      jump\n        /* \"#utility.yul\":5373:5429   */\n    tag_353:\n      pop\n        /* \"#utility.yul\":5478:5482   */\n      0xc0\n        /* \"#utility.yul\":5470:5476   */\n      dup4\n        /* \"#utility.yul\":5466:5483   */\n      add\n        /* \"#utility.yul\":5460:5484   */\n      mload\n        /* \"#utility.yul\":5493:5548   */\n      tag_354\n        /* \"#utility.yul\":5542:5546   */\n      0xc0\n        /* \"#utility.yul\":5531:5540   */\n      dup5\n        /* \"#utility.yul\":5527:5547   */\n      add\n        /* \"#utility.yul\":5511:5525   */\n      dup3\n        /* \"#utility.yul\":4334:4346   */\n      0xffffffffff\n        /* \"#utility.yul\":4323:4347   */\n      and\n        /* \"#utility.yul\":4311:4348   */\n      swap1\n      mstore\n        /* \"#utility.yul\":4258:4354   */\n      jump\n        /* \"#utility.yul\":5493:5548   */\n    tag_354:\n      pop\n        /* \"#utility.yul\":5597:5601   */\n      0xe0\n        /* \"#utility.yul\":5589:5595   */\n      dup4\n        /* \"#utility.yul\":5585:5602   */\n      add\n        /* \"#utility.yul\":5579:5603   */\n      mload\n        /* \"#utility.yul\":5612:5667   */\n      tag_355\n        /* \"#utility.yul\":5661:5665   */\n      0xe0\n        /* \"#utility.yul\":5650:5659   */\n      dup5\n        /* \"#utility.yul\":5646:5666   */\n      add\n        /* \"#utility.yul\":5630:5644   */\n      dup3\n        /* \"#utility.yul\":4435:4441   */\n      0xffff\n        /* \"#utility.yul\":4424:4442   */\n      and\n        /* \"#utility.yul\":4412:4443   */\n      swap1\n      mstore\n        /* \"#utility.yul\":4359:4449   */\n      jump\n        /* \"#utility.yul\":5612:5667   */\n    tag_355:\n      pop\n        /* \"#utility.yul\":5716:5722   */\n      0x0100\n        /* \"#utility.yul\":5708:5714   */\n      dup4\n        /* \"#utility.yul\":5704:5723   */\n      add\n        /* \"#utility.yul\":5698:5724   */\n      mload\n        /* \"#utility.yul\":5733:5791   */\n      tag_356\n        /* \"#utility.yul\":5783:5789   */\n      0x0100\n        /* \"#utility.yul\":5772:5781   */\n      dup5\n        /* \"#utility.yul\":5768:5790   */\n      add\n        /* \"#utility.yul\":5752:5766   */\n      dup3\n      sub(shl(0xa0, 0x01), 0x01)\n        /* \"#utility.yul\":4520:4551   */\n      and\n        /* \"#utility.yul\":4508:4552   */\n      swap1\n      mstore\n        /* \"#utility.yul\":4454:4558   */\n      jump\n        /* \"#utility.yul\":5733:5791   */\n    tag_356:\n      pop\n        /* \"#utility.yul\":5840:5846   */\n      0x0120\n        /* \"#utility.yul\":5832:5838   */\n      dup4\n        /* \"#utility.yul\":5828:5847   */\n      add\n        /* \"#utility.yul\":5822:5848   */\n      mload\n        /* \"#utility.yul\":5857:5915   */\n      tag_357\n        /* \"#utility.yul\":5907:5913   */\n      0x0120\n        /* \"#utility.yul\":5896:5905   */\n      dup5\n        /* \"#utility.yul\":5892:5914   */\n      add\n        /* \"#utility.yul\":5876:5890   */\n      dup3\n      sub(shl(0xa0, 0x01), 0x01)\n        /* \"#utility.yul\":4520:4551   */\n      and\n        /* \"#utility.yul\":4508:4552   */\n      swap1\n      mstore\n        /* \"#utility.yul\":4454:4558   */\n      jump\n        /* \"#utility.yul\":5857:5915   */\n    tag_357:\n      pop\n        /* \"#utility.yul\":5964:5970   */\n      0x0140\n        /* \"#utility.yul\":5956:5962   */\n      dup4\n        /* \"#utility.yul\":5952:5971   */\n      add\n        /* \"#utility.yul\":5946:5972   */\n      mload\n        /* \"#utility.yul\":5981:6039   */\n      tag_358\n        /* \"#utility.yul\":6031:6037   */\n      0x0140\n        /* \"#utility.yul\":6020:6029   */\n      dup5\n        /* \"#utility.yul\":6016:6038   */\n      add\n        /* \"#utility.yul\":6000:6014   */\n      dup3\n      sub(shl(0xa0, 0x01), 0x01)\n        /* \"#utility.yul\":4520:4551   */\n      and\n        /* \"#utility.yul\":4508:4552   */\n      swap1\n      mstore\n        /* \"#utility.yul\":4454:4558   */\n      jump\n        /* \"#utility.yul\":5981:6039   */\n    tag_358:\n      pop\n        /* \"#utility.yul\":6089:6095   */\n      0x0160\n        /* \"#utility.yul\":6081:6087   */\n      dup4\n        /* \"#utility.yul\":6077:6096   */\n      add\n        /* \"#utility.yul\":6071:6097   */\n      mload\n        /* \"#utility.yul\":6106:6165   */\n      tag_359\n        /* \"#utility.yul\":6157:6163   */\n      0x0160\n        /* \"#utility.yul\":6146:6155   */\n      dup5\n        /* \"#utility.yul\":6142:6164   */\n      add\n        /* \"#utility.yul\":6125:6140   */\n      dup3\n      sub(shl(0xa0, 0x01), 0x01)\n        /* \"#utility.yul\":4520:4551   */\n      and\n        /* \"#utility.yul\":4508:4552   */\n      swap1\n      mstore\n        /* \"#utility.yul\":4454:4558   */\n      jump\n        /* \"#utility.yul\":6106:6165   */\n    tag_359:\n      pop\n        /* \"#utility.yul\":6215:6221   */\n      0x0180\n        /* \"#utility.yul\":6207:6213   */\n      dup4\n        /* \"#utility.yul\":6203:6222   */\n      add\n        /* \"#utility.yul\":6197:6223   */\n      mload\n        /* \"#utility.yul\":6232:6291   */\n      tag_360\n        /* \"#utility.yul\":6283:6289   */\n      0x0180\n        /* \"#utility.yul\":6272:6281   */\n      dup5\n        /* \"#utility.yul\":6268:6290   */\n      add\n        /* \"#utility.yul\":6251:6266   */\n      dup3\n      sub(shl(0x80, 0x01), 0x01)\n        /* \"#utility.yul\":2395:2441   */\n      and\n        /* \"#utility.yul\":2383:2442   */\n      swap1\n      mstore\n        /* \"#utility.yul\":2329:2448   */\n      jump\n        /* \"#utility.yul\":6232:6291   */\n    tag_360:\n      pop\n        /* \"#utility.yul\":6341:6347   */\n      0x01a0\n        /* \"#utility.yul\":6333:6339   */\n      dup4\n        /* \"#utility.yul\":6329:6348   */\n      add\n        /* \"#utility.yul\":6323:6349   */\n      mload\n        /* \"#utility.yul\":6358:6417   */\n      tag_361\n        /* \"#utility.yul\":6409:6415   */\n      0x01a0\n        /* \"#utility.yul\":6398:6407   */\n      dup5\n        /* \"#utility.yul\":6394:6416   */\n      add\n        /* \"#utility.yul\":6377:6392   */\n      dup3\n      sub(shl(0x80, 0x01), 0x01)\n        /* \"#utility.yul\":2395:2441   */\n      and\n        /* \"#utility.yul\":2383:2442   */\n      swap1\n      mstore\n        /* \"#utility.yul\":2329:2448   */\n      jump\n        /* \"#utility.yul\":6358:6417   */\n    tag_361:\n      pop\n        /* \"#utility.yul\":6467:6473   */\n      0x01c0\n        /* \"#utility.yul\":6459:6465   */\n      dup4\n        /* \"#utility.yul\":6455:6474   */\n      add\n        /* \"#utility.yul\":6449:6475   */\n      mload\n        /* \"#utility.yul\":6484:6543   */\n      tag_362\n        /* \"#utility.yul\":6535:6541   */\n      0x01c0\n        /* \"#utility.yul\":6524:6533   */\n      dup5\n        /* \"#utility.yul\":6520:6542   */\n      add\n        /* \"#utility.yul\":6503:6518   */\n      dup3\n      sub(shl(0x80, 0x01), 0x01)\n        /* \"#utility.yul\":2395:2441   */\n      and\n        /* \"#utility.yul\":2383:2442   */\n      swap1\n      mstore\n        /* \"#utility.yul\":2329:2448   */\n      jump\n        /* \"#utility.yul\":6484:6543   */\n    tag_362:\n      pop\n        /* \"#utility.yul\":4563:6549   */\n      swap3\n      swap2\n      pop\n      pop\n      jump\t// out\n        /* \"#utility.yul\":6554:6901   */\n    tag_297:\n        /* \"#utility.yul\":6605:6613   */\n      0x00\n        /* \"#utility.yul\":6615:6621   */\n      dup1\n        /* \"#utility.yul\":6669:6672   */\n      dup4\n        /* \"#utility.yul\":6662:6666   */\n      0x1f\n        /* \"#utility.yul\":6654:6660   */\n      dup5\n        /* \"#utility.yul\":6650:6667   */\n      add\n        /* \"#utility.yul\":6646:6673   */\n      slt\n        /* \"#utility.yul\":6636:6691   */\n      tag_364\n      jumpi\n        /* \"#utility.yul\":6687:6688   */\n      0x00\n        /* \"#utility.yul\":6684:6685   */\n      dup1\n        /* \"#utility.yul\":6677:6689   */\n      revert\n        /* \"#utility.yul\":6636:6691   */\n    tag_364:\n      pop\n        /* \"#utility.yul\":6710:6730   */\n      dup2\n      calldataload\n      sub(shl(0x40, 0x01), 0x01)\n        /* \"#utility.yul\":6742:6772   */\n      dup2\n      gt\n        /* \"#utility.yul\":6739:6789   */\n      iszero\n      tag_365\n      jumpi\n        /* \"#utility.yul\":6785:6786   */\n      0x00\n        /* \"#utility.yul\":6782:6783   */\n      dup1\n        /* \"#utility.yul\":6775:6787   */\n      revert\n        /* \"#utility.yul\":6739:6789   */\n    tag_365:\n        /* \"#utility.yul\":6822:6826   */\n      0x20\n        /* \"#utility.yul\":6814:6820   */\n      dup4\n        /* \"#utility.yul\":6810:6827   */\n      add\n        /* \"#utility.yul\":6798:6827   */\n      swap2\n      pop\n        /* \"#utility.yul\":6874:6877   */\n      dup4\n        /* \"#utility.yul\":6867:6871   */\n      0x20\n        /* \"#utility.yul\":6858:6864   */\n      dup3\n        /* \"#utility.yul\":6850:6856   */\n      dup6\n        /* \"#utility.yul\":6846:6865   */\n      add\n        /* \"#utility.yul\":6842:6872   */\n      add\n        /* \"#utility.yul\":6839:6878   */\n      gt\n        /* \"#utility.yul\":6836:6895   */\n      iszero\n      tag_366\n      jumpi\n        /* \"#utility.yul\":6891:6892   */\n      0x00\n        /* \"#utility.yul\":6888:6889   */\n      dup1\n        /* \"#utility.yul\":6881:6893   */\n      revert\n        /* \"#utility.yul\":6836:6895   */\n    tag_366:\n        /* \"#utility.yul\":6554:6901   */\n      swap3\n      pop\n      swap3\n      swap1\n      pop\n      jump\t// out\n        /* \"#utility.yul\":6906:7651   */\n    tag_103:\n        /* \"#utility.yul\":7011:7017   */\n      0x00\n        /* \"#utility.yul\":7019:7025   */\n      dup1\n        /* \"#utility.yul\":7027:7033   */\n      0x00\n        /* \"#utility.yul\":7035:7041   */\n      dup1\n        /* \"#utility.yul\":7043:7049   */\n      0x00\n        /* \"#utility.yul\":7051:7057   */\n      dup1\n        /* \"#utility.yul\":7104:7107   */\n      0xa0\n        /* \"#utility.yul\":7092:7101   */\n      dup8\n        /* \"#utility.yul\":7083:7090   */\n      dup10\n        /* \"#utility.yul\":7079:7102   */\n      sub\n        /* \"#utility.yul\":7075:7108   */\n      slt\n        /* \"#utility.yul\":7072:7125   */\n      iszero\n      tag_368\n      jumpi\n        /* \"#utility.yul\":7121:7122   */\n      0x00\n        /* \"#utility.yul\":7118:7119   */\n      dup1\n        /* \"#utility.yul\":7111:7123   */\n      revert\n        /* \"#utility.yul\":7072:7125   */\n    tag_368:\n        /* \"#utility.yul\":7144:7173   */\n      tag_369\n        /* \"#utility.yul\":7163:7172   */\n      dup8\n        /* \"#utility.yul\":7144:7173   */\n      tag_288\n      jump\t// in\n    tag_369:\n        /* \"#utility.yul\":7134:7173   */\n      swap6\n      pop\n        /* \"#utility.yul\":7192:7230   */\n      tag_370\n        /* \"#utility.yul\":7226:7228   */\n      0x20\n        /* \"#utility.yul\":7215:7224   */\n      dup9\n        /* \"#utility.yul\":7211:7229   */\n      add\n        /* \"#utility.yul\":7192:7230   */\n      tag_288\n      jump\t// in\n    tag_370:\n        /* \"#utility.yul\":7182:7230   */\n      swap5\n      pop\n        /* \"#utility.yul\":7299:7301   */\n      0x40\n        /* \"#utility.yul\":7284:7302   */\n      dup8\n      add\n        /* \"#utility.yul\":7271:7303   */\n      calldataload\n      swap4\n      pop\n        /* \"#utility.yul\":7378:7380   */\n      0x60\n        /* \"#utility.yul\":7363:7381   */\n      dup8\n      add\n        /* \"#utility.yul\":7350:7382   */\n      calldataload\n      sub(shl(0x40, 0x01), 0x01)\n        /* \"#utility.yul\":7394:7424   */\n      dup2\n      gt\n        /* \"#utility.yul\":7391:7441   */\n      iszero\n      tag_371\n      jumpi\n        /* \"#utility.yul\":7437:7438   */\n      0x00\n        /* \"#utility.yul\":7434:7435   */\n      dup1\n        /* \"#utility.yul\":7427:7439   */\n      revert\n        /* \"#utility.yul\":7391:7441   */\n    tag_371:\n        /* \"#utility.yul\":7476:7534   */\n      tag_372\n        /* \"#utility.yul\":7526:7533   */\n      dup10\n        /* \"#utility.yul\":7517:7523   */\n      dup3\n        /* \"#utility.yul\":7506:7515   */\n      dup11\n        /* \"#utility.yul\":7502:7524   */\n      add\n        /* \"#utility.yul\":7476:7534   */\n      tag_297\n      jump\t// in\n    tag_372:\n        /* \"#utility.yul\":7553:7561   */\n      swap1\n      swap5\n      pop\n        /* \"#utility.yul\":7450:7534   */\n      swap3\n      pop\n        /* \"#utility.yul\":7607:7645   */\n      tag_373\n      swap1\n      pop\n        /* \"#utility.yul\":7640:7643   */\n      0x80\n        /* \"#utility.yul\":7625:7644   */\n      dup9\n      add\n        /* \"#utility.yul\":7607:7645   */\n      tag_290\n      jump\t// in\n    tag_373:\n        /* \"#utility.yul\":7597:7645   */\n      swap1\n      pop\n        /* \"#utility.yul\":6906:7651   */\n      swap3\n      swap6\n      pop\n      swap3\n      swap6\n      pop\n      swap3\n      swap6\n      jump\t// out\n        /* \"#utility.yul\":7919:8103   */\n    tag_112:\n        /* \"#utility.yul\":7977:7983   */\n      0x00\n        /* \"#utility.yul\":8030:8032   */\n      0x20\n        /* \"#utility.yul\":8018:8027   */\n      dup3\n        /* \"#utility.yul\":8009:8016   */\n      dup5\n        /* \"#utility.yul\":8005:8028   */\n      sub\n        /* \"#utility.yul\":8001:8033   */\n      slt\n        /* \"#utility.yul\":7998:8050   */\n      iszero\n      tag_376\n      jumpi\n        /* \"#utility.yul\":8046:8047   */\n      0x00\n        /* \"#utility.yul\":8043:8044   */\n      dup1\n        /* \"#utility.yul\":8036:8048   */\n      revert\n        /* \"#utility.yul\":7998:8050   */\n    tag_376:\n        /* \"#utility.yul\":8069:8097   */\n      tag_334\n        /* \"#utility.yul\":8087:8096   */\n      dup3\n        /* \"#utility.yul\":8069:8097   */\n      tag_290\n      jump\t// in\n        /* \"#utility.yul\":8316:8811   */\n    tag_118:\n        /* \"#utility.yul\":8402:8408   */\n      0x00\n        /* \"#utility.yul\":8410:8416   */\n      dup1\n        /* \"#utility.yul\":8418:8424   */\n      0x00\n        /* \"#utility.yul\":8426:8432   */\n      dup1\n        /* \"#utility.yul\":8479:8482   */\n      0x80\n        /* \"#utility.yul\":8467:8476   */\n      dup6\n        /* \"#utility.yul\":8458:8465   */\n      dup8\n        /* \"#utility.yul\":8454:8477   */\n      sub\n        /* \"#utility.yul\":8450:8483   */\n      slt\n        /* \"#utility.yul\":8447:8500   */\n      iszero\n      tag_380\n      jumpi\n        /* \"#utility.yul\":8496:8497   */\n      0x00\n        /* \"#utility.yul\":8493:8494   */\n      dup1\n        /* \"#utility.yul\":8486:8498   */\n      revert\n        /* \"#utility.yul\":8447:8500   */\n    tag_380:\n        /* \"#utility.yul\":8519:8548   */\n      tag_381\n        /* \"#utility.yul\":8538:8547   */\n      dup6\n        /* \"#utility.yul\":8519:8548   */\n      tag_288\n      jump\t// in\n    tag_381:\n        /* \"#utility.yul\":8509:8548   */\n      swap4\n      pop\n        /* \"#utility.yul\":8617:8619   */\n      0x20\n        /* \"#utility.yul\":8602:8620   */\n      dup6\n      add\n        /* \"#utility.yul\":8589:8621   */\n      calldataload\n      swap3\n      pop\n        /* \"#utility.yul\":8718:8720   */\n      0x40\n        /* \"#utility.yul\":8703:8721   */\n      dup6\n      add\n        /* \"#utility.yul\":8690:8722   */\n      calldataload\n      swap2\n      pop\n        /* \"#utility.yul\":8767:8805   */\n      tag_382\n        /* \"#utility.yul\":8801:8803   */\n      0x60\n        /* \"#utility.yul\":8786:8804   */\n      dup7\n      add\n        /* \"#utility.yul\":8767:8805   */\n      tag_288\n      jump\t// in\n    tag_382:\n        /* \"#utility.yul\":8757:8805   */\n      swap1\n      pop\n        /* \"#utility.yul\":8316:8811   */\n      swap3\n      swap6\n      swap2\n      swap5\n      pop\n      swap3\n      pop\n      jump\t// out\n        /* \"#utility.yul\":8816:9070   */\n    tag_123:\n        /* \"#utility.yul\":8881:8887   */\n      0x00\n        /* \"#utility.yul\":8889:8895   */\n      dup1\n        /* \"#utility.yul\":8942:8944   */\n      0x40\n        /* \"#utility.yul\":8930:8939   */\n      dup4\n        /* \"#utility.yul\":8921:8928   */\n      dup6\n        /* \"#utility.yul\":8917:8940   */\n      sub\n        /* \"#utility.yul\":8913:8945   */\n      slt\n        /* \"#utility.yul\":8910:8962   */\n      iszero\n      tag_384\n      jumpi\n        /* \"#utility.yul\":8958:8959   */\n      0x00\n        /* \"#utility.yul\":8955:8956   */\n      dup1\n        /* \"#utility.yul\":8948:8960   */\n      revert\n        /* \"#utility.yul\":8910:8962   */\n    tag_384:\n        /* \"#utility.yul\":8981:9010   */\n      tag_385\n        /* \"#utility.yul\":9000:9009   */\n      dup4\n        /* \"#utility.yul\":8981:9010   */\n      tag_288\n      jump\t// in\n    tag_385:\n        /* \"#utility.yul\":8971:9010   */\n      swap2\n      pop\n        /* \"#utility.yul\":9029:9064   */\n      tag_330\n        /* \"#utility.yul\":9060:9062   */\n      0x20\n        /* \"#utility.yul\":9049:9058   */\n      dup5\n        /* \"#utility.yul\":9045:9063   */\n      add\n        /* \"#utility.yul\":9029:9064   */\n      tag_289\n      jump\t// in\n        /* \"#utility.yul\":9075:9522   */\n    tag_127:\n        /* \"#utility.yul\":9160:9166   */\n      0x00\n        /* \"#utility.yul\":9168:9174   */\n      dup1\n        /* \"#utility.yul\":9176:9182   */\n      0x00\n        /* \"#utility.yul\":9184:9190   */\n      dup1\n        /* \"#utility.yul\":9237:9240   */\n      0x80\n        /* \"#utility.yul\":9225:9234   */\n      dup6\n        /* \"#utility.yul\":9216:9223   */\n      dup8\n        /* \"#utility.yul\":9212:9235   */\n      sub\n        /* \"#utility.yul\":9208:9241   */\n      slt\n        /* \"#utility.yul\":9205:9258   */\n      iszero\n      tag_388\n      jumpi\n        /* \"#utility.yul\":9254:9255   */\n      0x00\n        /* \"#utility.yul\":9251:9252   */\n      dup1\n        /* \"#utility.yul\":9244:9256   */\n      revert\n        /* \"#utility.yul\":9205:9258   */\n    tag_388:\n        /* \"#utility.yul\":9277:9306   */\n      tag_389\n        /* \"#utility.yul\":9296:9305   */\n      dup6\n        /* \"#utility.yul\":9277:9306   */\n      tag_288\n      jump\t// in\n    tag_389:\n        /* \"#utility.yul\":9267:9306   */\n      swap4\n      pop\n        /* \"#utility.yul\":9375:9377   */\n      0x20\n        /* \"#utility.yul\":9360:9378   */\n      dup6\n      add\n        /* \"#utility.yul\":9347:9379   */\n      calldataload\n      swap3\n      pop\n        /* \"#utility.yul\":9422:9460   */\n      tag_390\n        /* \"#utility.yul\":9456:9458   */\n      0x40\n        /* \"#utility.yul\":9441:9459   */\n      dup7\n      add\n        /* \"#utility.yul\":9422:9460   */\n      tag_288\n      jump\t// in\n    tag_390:\n        /* \"#utility.yul\":9412:9460   */\n      swap2\n      pop\n        /* \"#utility.yul\":9479:9516   */\n      tag_382\n        /* \"#utility.yul\":9512:9514   */\n      0x60\n        /* \"#utility.yul\":9501:9510   */\n      dup7\n        /* \"#utility.yul\":9497:9515   */\n      add\n        /* \"#utility.yul\":9479:9516   */\n      tag_290\n      jump\t// in\n        /* \"#utility.yul\":9527:9901   */\n    tag_134:\n        /* \"#utility.yul\":9604:9610   */\n      0x00\n        /* \"#utility.yul\":9612:9618   */\n      dup1\n        /* \"#utility.yul\":9620:9626   */\n      0x00\n        /* \"#utility.yul\":9673:9675   */\n      0x60\n        /* \"#utility.yul\":9661:9670   */\n      dup5\n        /* \"#utility.yul\":9652:9659   */\n      dup7\n        /* \"#utility.yul\":9648:9671   */\n      sub\n        /* \"#utility.yul\":9644:9676   */\n      slt\n        /* \"#utility.yul\":9641:9693   */\n      iszero\n      tag_393\n      jumpi\n        /* \"#utility.yul\":9689:9690   */\n      0x00\n        /* \"#utility.yul\":9686:9687   */\n      dup1\n        /* \"#utility.yul\":9679:9691   */\n      revert\n        /* \"#utility.yul\":9641:9693   */\n    tag_393:\n        /* \"#utility.yul\":9712:9741   */\n      tag_394\n        /* \"#utility.yul\":9731:9740   */\n      dup5\n        /* \"#utility.yul\":9712:9741   */\n      tag_288\n      jump\t// in\n    tag_394:\n        /* \"#utility.yul\":9702:9741   */\n      swap3\n      pop\n        /* \"#utility.yul\":9810:9812   */\n      0x20\n        /* \"#utility.yul\":9795:9813   */\n      dup5\n      add\n        /* \"#utility.yul\":9782:9814   */\n      calldataload\n      swap2\n      pop\n        /* \"#utility.yul\":9857:9895   */\n      tag_395\n        /* \"#utility.yul\":9891:9893   */\n      0x40\n        /* \"#utility.yul\":9876:9894   */\n      dup6\n      add\n        /* \"#utility.yul\":9857:9895   */\n      tag_288\n      jump\t// in\n    tag_395:\n        /* \"#utility.yul\":9847:9895   */\n      swap1\n      pop\n        /* \"#utility.yul\":9527:9901   */\n      swap3\n      pop\n      swap3\n      pop\n      swap3\n      jump\t// out\n        /* \"#utility.yul\":9906:10768   */\n    tag_147:\n        /* \"#utility.yul\":10095:10097   */\n      0x20\n        /* \"#utility.yul\":10084:10093   */\n      dup2\n        /* \"#utility.yul\":10077:10098   */\n      mstore\n        /* \"#utility.yul\":10153:10159   */\n      0xffff\n        /* \"#utility.yul\":10144:10150   */\n      dup3\n        /* \"#utility.yul\":10138:10151   */\n      mload\n        /* \"#utility.yul\":10134:10160   */\n      and\n        /* \"#utility.yul\":10129:10131   */\n      0x20\n        /* \"#utility.yul\":10118:10127   */\n      dup3\n        /* \"#utility.yul\":10114:10132   */\n      add\n        /* \"#utility.yul\":10107:10161   */\n      mstore\n        /* \"#utility.yul\":10225:10231   */\n      0xffff\n        /* \"#utility.yul\":10219:10221   */\n      0x20\n        /* \"#utility.yul\":10211:10217   */\n      dup4\n        /* \"#utility.yul\":10207:10222   */\n      add\n        /* \"#utility.yul\":10201:10223   */\n      mload\n        /* \"#utility.yul\":10197:10232   */\n      and\n        /* \"#utility.yul\":10192:10194   */\n      0x40\n        /* \"#utility.yul\":10181:10190   */\n      dup3\n        /* \"#utility.yul\":10177:10195   */\n      add\n        /* \"#utility.yul\":10170:10233   */\n      mstore\n        /* \"#utility.yul\":10297:10303   */\n      0xffff\n        /* \"#utility.yul\":10291:10293   */\n      0x40\n        /* \"#utility.yul\":10283:10289   */\n      dup4\n        /* \"#utility.yul\":10279:10294   */\n      add\n        /* \"#utility.yul\":10273:10295   */\n      mload\n        /* \"#utility.yul\":10269:10304   */\n      and\n        /* \"#utility.yul\":10264:10266   */\n      0x60\n        /* \"#utility.yul\":10253:10262   */\n      dup3\n        /* \"#utility.yul\":10249:10267   */\n      add\n        /* \"#utility.yul\":10242:10305   */\n      mstore\n        /* \"#utility.yul\":10387:10388   */\n      0x01\n        /* \"#utility.yul\":10383:10384   */\n      dup1\n        /* \"#utility.yul\":10378:10381   */\n      0xa0\n        /* \"#utility.yul\":10374:10385   */\n      shl\n        /* \"#utility.yul\":10370:10389   */\n      sub\n        /* \"#utility.yul\":10364:10366   */\n      0x60\n        /* \"#utility.yul\":10356:10362   */\n      dup4\n        /* \"#utility.yul\":10352:10367   */\n      add\n        /* \"#utility.yul\":10346:10368   */\n      mload\n        /* \"#utility.yul\":10342:10390   */\n      and\n        /* \"#utility.yul\":10336:10339   */\n      0x80\n        /* \"#utility.yul\":10325:10334   */\n      dup3\n        /* \"#utility.yul\":10321:10340   */\n      add\n        /* \"#utility.yul\":10314:10391   */\n      mstore\n        /* \"#utility.yul\":10058:10062   */\n      0x00\n        /* \"#utility.yul\":10438:10441   */\n      0x80\n        /* \"#utility.yul\":10430:10436   */\n      dup4\n        /* \"#utility.yul\":10426:10442   */\n      add\n        /* \"#utility.yul\":10420:10443   */\n      mload\n        /* \"#utility.yul\":10481:10485   */\n      0xa0\n        /* \"#utility.yul\":10474:10478   */\n      dup1\n        /* \"#utility.yul\":10463:10472   */\n      dup5\n        /* \"#utility.yul\":10459:10479   */\n      add\n        /* \"#utility.yul\":10452:10486   */\n      mstore\n        /* \"#utility.yul\":10515:10527   */\n      dup1\n        /* \"#utility.yul\":10509:10528   */\n      mload\n        /* \"#utility.yul\":10565:10571   */\n      dup1\n        /* \"#utility.yul\":10559:10562   */\n      0xc0\n        /* \"#utility.yul\":10548:10557   */\n      dup6\n        /* \"#utility.yul\":10544:10563   */\n      add\n        /* \"#utility.yul\":10537:10572   */\n      mstore\n        /* \"#utility.yul\":10631:10637   */\n      dup1\n        /* \"#utility.yul\":10626:10628   */\n      0x20\n        /* \"#utility.yul\":10612:10624   */\n      dup4\n        /* \"#utility.yul\":10608:10629   */\n      add\n        /* \"#utility.yul\":10602:10605   */\n      0xe0\n        /* \"#utility.yul\":10591:10600   */\n      dup7\n        /* \"#utility.yul\":10587:10606   */\n      add\n        /* \"#utility.yul\":10581:10638   */\n      mcopy\n        /* \"#utility.yul\":10688:10689   */\n      0x00\n        /* \"#utility.yul\":10682:10685   */\n      0xe0\n        /* \"#utility.yul\":10673:10679   */\n      dup3\n        /* \"#utility.yul\":10662:10671   */\n      dup7\n        /* \"#utility.yul\":10658:10680   */\n      add\n        /* \"#utility.yul\":10654:10686   */\n      add\n        /* \"#utility.yul\":10647:10690   */\n      mstore\n        /* \"#utility.yul\":10758:10761   */\n      0xe0\n        /* \"#utility.yul\":10751:10753   */\n      0x1f\n        /* \"#utility.yul\":10747:10754   */\n      not\n        /* \"#utility.yul\":10742:10744   */\n      0x1f\n        /* \"#utility.yul\":10734:10740   */\n      dup4\n        /* \"#utility.yul\":10730:10745   */\n      add\n        /* \"#utility.yul\":10726:10755   */\n      and\n        /* \"#utility.yul\":10715:10724   */\n      dup6\n        /* \"#utility.yul\":10711:10756   */\n      add\n        /* \"#utility.yul\":10707:10762   */\n      add\n        /* \"#utility.yul\":10699:10762   */\n      swap3\n      pop\n      pop\n      pop\n        /* \"#utility.yul\":9906:10768   */\n      swap3\n      swap2\n      pop\n      pop\n      jump\t// out\n        /* \"#utility.yul\":10773:11257   */\n    tag_150:\n        /* \"#utility.yul\":10868:10874   */\n      0x00\n        /* \"#utility.yul\":10876:10882   */\n      dup1\n        /* \"#utility.yul\":10884:10890   */\n      0x00\n        /* \"#utility.yul\":10892:10898   */\n      dup1\n        /* \"#utility.yul\":10900:10906   */\n      0x00\n        /* \"#utility.yul\":10953:10956   */\n      0xa0\n        /* \"#utility.yul\":10941:10950   */\n      dup7\n        /* \"#utility.yul\":10932:10939   */\n      dup9\n        /* \"#utility.yul\":10928:10951   */\n      sub\n        /* \"#utility.yul\":10924:10957   */\n      slt\n        /* \"#utility.yul\":10921:10974   */\n      iszero\n      tag_398\n      jumpi\n        /* \"#utility.yul\":10970:10971   */\n      0x00\n        /* \"#utility.yul\":10967:10968   */\n      dup1\n        /* \"#utility.yul\":10960:10972   */\n      revert\n        /* \"#utility.yul\":10921:10974   */\n    tag_398:\n        /* \"#utility.yul\":10993:11022   */\n      tag_399\n        /* \"#utility.yul\":11012:11021   */\n      dup7\n        /* \"#utility.yul\":10993:11022   */\n      tag_288\n      jump\t// in\n    tag_399:\n        /* \"#utility.yul\":10983:11022   */\n      swap5\n      pop\n        /* \"#utility.yul\":11041:11079   */\n      tag_400\n        /* \"#utility.yul\":11075:11077   */\n      0x20\n        /* \"#utility.yul\":11064:11073   */\n      dup8\n        /* \"#utility.yul\":11060:11078   */\n      add\n        /* \"#utility.yul\":11041:11079   */\n      tag_288\n      jump\t// in\n    tag_400:\n        /* \"#utility.yul\":11031:11079   */\n      swap4\n      pop\n        /* \"#utility.yul\":11098:11136   */\n      tag_401\n        /* \"#utility.yul\":11132:11134   */\n      0x40\n        /* \"#utility.yul\":11121:11130   */\n      dup8\n        /* \"#utility.yul\":11117:11135   */\n      add\n        /* \"#utility.yul\":11098:11136   */\n      tag_288\n      jump\t// in\n    tag_401:\n        /* \"#utility.yul\":11088:11136   */\n      swap3\n      pop\n        /* \"#utility.yul\":11155:11193   */\n      tag_402\n        /* \"#utility.yul\":11189:11191   */\n      0x60\n        /* \"#utility.yul\":11178:11187   */\n      dup8\n        /* \"#utility.yul\":11174:11192   */\n      add\n        /* \"#utility.yul\":11155:11193   */\n      tag_288\n      jump\t// in\n    tag_402:\n        /* \"#utility.yul\":11145:11193   */\n      swap2\n      pop\n        /* \"#utility.yul\":11212:11251   */\n      tag_313\n        /* \"#utility.yul\":11246:11249   */\n      0x80\n        /* \"#utility.yul\":11235:11244   */\n      dup8\n        /* \"#utility.yul\":11231:11250   */\n      add\n        /* \"#utility.yul\":11212:11251   */\n      tag_288\n      jump\t// in\n        /* \"#utility.yul\":11262:11562   */\n    tag_154:\n        /* \"#utility.yul\":11330:11336   */\n      0x00\n        /* \"#utility.yul\":11338:11344   */\n      dup1\n        /* \"#utility.yul\":11391:11393   */\n      0x40\n        /* \"#utility.yul\":11379:11388   */\n      dup4\n        /* \"#utility.yul\":11370:11377   */\n      dup6\n        /* \"#utility.yul\":11366:11389   */\n      sub\n        /* \"#utility.yul\":11362:11394   */\n      slt\n        /* \"#utility.yul\":11359:11411   */\n      iszero\n      tag_405\n      jumpi\n        /* \"#utility.yul\":11407:11408   */\n      0x00\n        /* \"#utility.yul\":11404:11405   */\n      dup1\n        /* \"#utility.yul\":11397:11409   */\n      revert\n        /* \"#utility.yul\":11359:11411   */\n    tag_405:\n        /* \"#utility.yul\":11430:11459   */\n      tag_406\n        /* \"#utility.yul\":11449:11458   */\n      dup4\n        /* \"#utility.yul\":11430:11459   */\n      tag_288\n      jump\t// in\n    tag_406:\n        /* \"#utility.yul\":11420:11459   */\n      swap5\n        /* \"#utility.yul\":11528:11530   */\n      0x20\n        /* \"#utility.yul\":11513:11531   */\n      swap4\n      swap1\n      swap4\n      add\n        /* \"#utility.yul\":11500:11532   */\n      calldataload\n      swap4\n      pop\n      pop\n      pop\n        /* \"#utility.yul\":11262:11562   */\n      jump\t// out\n        /* \"#utility.yul\":11567:11934   */\n    tag_298:\n        /* \"#utility.yul\":11630:11638   */\n      0x00\n        /* \"#utility.yul\":11640:11646   */\n      dup1\n        /* \"#utility.yul\":11694:11697   */\n      dup4\n        /* \"#utility.yul\":11687:11691   */\n      0x1f\n        /* \"#utility.yul\":11679:11685   */\n      dup5\n        /* \"#utility.yul\":11675:11692   */\n      add\n        /* \"#utility.yul\":11671:11698   */\n      slt\n        /* \"#utility.yul\":11661:11716   */\n      tag_408\n      jumpi\n        /* \"#utility.yul\":11712:11713   */\n      0x00\n        /* \"#utility.yul\":11709:11710   */\n      dup1\n        /* \"#utility.yul\":11702:11714   */\n      revert\n        /* \"#utility.yul\":11661:11716   */\n    tag_408:\n      pop\n        /* \"#utility.yul\":11735:11755   */\n      dup2\n      calldataload\n      sub(shl(0x40, 0x01), 0x01)\n        /* \"#utility.yul\":11767:11797   */\n      dup2\n      gt\n        /* \"#utility.yul\":11764:11814   */\n      iszero\n      tag_409\n      jumpi\n        /* \"#utility.yul\":11810:11811   */\n      0x00\n        /* \"#utility.yul\":11807:11808   */\n      dup1\n        /* \"#utility.yul\":11800:11812   */\n      revert\n        /* \"#utility.yul\":11764:11814   */\n    tag_409:\n        /* \"#utility.yul\":11847:11851   */\n      0x20\n        /* \"#utility.yul\":11839:11845   */\n      dup4\n        /* \"#utility.yul\":11835:11852   */\n      add\n        /* \"#utility.yul\":11823:11852   */\n      swap2\n      pop\n        /* \"#utility.yul\":11907:11910   */\n      dup4\n        /* \"#utility.yul\":11900:11904   */\n      0x20\n        /* \"#utility.yul\":11890:11896   */\n      dup3\n        /* \"#utility.yul\":11887:11888   */\n      0x05\n        /* \"#utility.yul\":11883:11897   */\n      shl\n        /* \"#utility.yul\":11875:11881   */\n      dup6\n        /* \"#utility.yul\":11871:11898   */\n      add\n        /* \"#utility.yul\":11867:11905   */\n      add\n        /* \"#utility.yul\":11864:11911   */\n      gt\n        /* \"#utility.yul\":11861:11928   */\n      iszero\n      tag_366\n      jumpi\n        /* \"#utility.yul\":11924:11925   */\n      0x00\n        /* \"#utility.yul\":11921:11922   */\n      dup1\n        /* \"#utility.yul\":11914:11926   */\n      revert\n        /* \"#utility.yul\":11939:12376   */\n    tag_158:\n        /* \"#utility.yul\":12025:12031   */\n      0x00\n        /* \"#utility.yul\":12033:12039   */\n      dup1\n        /* \"#utility.yul\":12086:12088   */\n      0x20\n        /* \"#utility.yul\":12074:12083   */\n      dup4\n        /* \"#utility.yul\":12065:12072   */\n      dup6\n        /* \"#utility.yul\":12061:12084   */\n      sub\n        /* \"#utility.yul\":12057:12089   */\n      slt\n        /* \"#utility.yul\":12054:12106   */\n      iszero\n      tag_412\n      jumpi\n        /* \"#utility.yul\":12102:12103   */\n      0x00\n        /* \"#utility.yul\":12099:12100   */\n      dup1\n        /* \"#utility.yul\":12092:12104   */\n      revert\n        /* \"#utility.yul\":12054:12106   */\n    tag_412:\n        /* \"#utility.yul\":12142:12151   */\n      dup3\n        /* \"#utility.yul\":12129:12152   */\n      calldataload\n      sub(shl(0x40, 0x01), 0x01)\n        /* \"#utility.yul\":12167:12173   */\n      dup2\n        /* \"#utility.yul\":12164:12194   */\n      gt\n        /* \"#utility.yul\":12161:12211   */\n      iszero\n      tag_413\n      jumpi\n        /* \"#utility.yul\":12207:12208   */\n      0x00\n        /* \"#utility.yul\":12204:12205   */\n      dup1\n        /* \"#utility.yul\":12197:12209   */\n      revert\n        /* \"#utility.yul\":12161:12211   */\n    tag_413:\n        /* \"#utility.yul\":12246:12316   */\n      tag_414\n        /* \"#utility.yul\":12308:12315   */\n      dup6\n        /* \"#utility.yul\":12299:12305   */\n      dup3\n        /* \"#utility.yul\":12288:12297   */\n      dup7\n        /* \"#utility.yul\":12284:12306   */\n      add\n        /* \"#utility.yul\":12246:12316   */\n      tag_298\n      jump\t// in\n    tag_414:\n        /* \"#utility.yul\":12335:12343   */\n      swap1\n      swap7\n        /* \"#utility.yul\":12220:12316   */\n      swap1\n      swap6\n      pop\n        /* \"#utility.yul\":11939:12376   */\n      swap4\n      pop\n      pop\n      pop\n      pop\n      jump\t// out\n        /* \"#utility.yul\":12381:12949   */\n    tag_162:\n        /* \"#utility.yul\":12475:12481   */\n      0x00\n        /* \"#utility.yul\":12483:12489   */\n      dup1\n        /* \"#utility.yul\":12491:12497   */\n      0x00\n        /* \"#utility.yul\":12499:12505   */\n      dup1\n        /* \"#utility.yul\":12507:12513   */\n      0x00\n        /* \"#utility.yul\":12560:12563   */\n      0xa0\n        /* \"#utility.yul\":12548:12557   */\n      dup7\n        /* \"#utility.yul\":12539:12546   */\n      dup9\n        /* \"#utility.yul\":12535:12558   */\n      sub\n        /* \"#utility.yul\":12531:12564   */\n      slt\n        /* \"#utility.yul\":12528:12581   */\n      iszero\n      tag_416\n      jumpi\n        /* \"#utility.yul\":12577:12578   */\n      0x00\n        /* \"#utility.yul\":12574:12575   */\n      dup1\n        /* \"#utility.yul\":12567:12579   */\n      revert\n        /* \"#utility.yul\":12528:12581   */\n    tag_416:\n        /* \"#utility.yul\":12600:12629   */\n      tag_417\n        /* \"#utility.yul\":12619:12628   */\n      dup7\n        /* \"#utility.yul\":12600:12629   */\n      tag_288\n      jump\t// in\n    tag_417:\n        /* \"#utility.yul\":12590:12629   */\n      swap5\n      pop\n        /* \"#utility.yul\":12698:12700   */\n      0x20\n        /* \"#utility.yul\":12683:12701   */\n      dup7\n      add\n        /* \"#utility.yul\":12670:12702   */\n      calldataload\n      swap4\n      pop\n        /* \"#utility.yul\":12799:12801   */\n      0x40\n        /* \"#utility.yul\":12784:12802   */\n      dup7\n      add\n        /* \"#utility.yul\":12771:12803   */\n      calldataload\n      swap3\n      pop\n        /* \"#utility.yul\":12848:12885   */\n      tag_402\n        /* \"#utility.yul\":12881:12883   */\n      0x60\n        /* \"#utility.yul\":12866:12884   */\n      dup8\n      add\n        /* \"#utility.yul\":12848:12885   */\n      tag_290\n      jump\t// in\n        /* \"#utility.yul\":12954:14582   */\n    tag_166:\n        /* \"#utility.yul\":13158:13164   */\n      0x00\n        /* \"#utility.yul\":13166:13172   */\n      dup1\n        /* \"#utility.yul\":13174:13180   */\n      0x00\n        /* \"#utility.yul\":13182:13188   */\n      dup1\n        /* \"#utility.yul\":13190:13196   */\n      0x00\n        /* \"#utility.yul\":13198:13204   */\n      dup1\n        /* \"#utility.yul\":13206:13212   */\n      0x00\n        /* \"#utility.yul\":13214:13220   */\n      dup1\n        /* \"#utility.yul\":13222:13228   */\n      0x00\n        /* \"#utility.yul\":13230:13236   */\n      dup1\n        /* \"#utility.yul\":13238:13245   */\n      0x00\n        /* \"#utility.yul\":13292:13295   */\n      0xe0\n        /* \"#utility.yul\":13280:13289   */\n      dup13\n        /* \"#utility.yul\":13271:13278   */\n      dup15\n        /* \"#utility.yul\":13267:13290   */\n      sub\n        /* \"#utility.yul\":13263:13296   */\n      slt\n        /* \"#utility.yul\":13260:13313   */\n      iszero\n      tag_421\n      jumpi\n        /* \"#utility.yul\":13309:13310   */\n      0x00\n        /* \"#utility.yul\":13306:13307   */\n      dup1\n        /* \"#utility.yul\":13299:13311   */\n      revert\n        /* \"#utility.yul\":13260:13313   */\n    tag_421:\n        /* \"#utility.yul\":13332:13361   */\n      tag_422\n        /* \"#utility.yul\":13351:13360   */\n      dup13\n        /* \"#utility.yul\":13332:13361   */\n      tag_288\n      jump\t// in\n    tag_422:\n        /* \"#utility.yul\":13322:13361   */\n      swap11\n      pop\n        /* \"#utility.yul\":13412:13414   */\n      0x20\n        /* \"#utility.yul\":13401:13410   */\n      dup13\n        /* \"#utility.yul\":13397:13415   */\n      add\n        /* \"#utility.yul\":13384:13416   */\n      calldataload\n      sub(shl(0x40, 0x01), 0x01)\n        /* \"#utility.yul\":13431:13437   */\n      dup2\n        /* \"#utility.yul\":13428:13458   */\n      gt\n        /* \"#utility.yul\":13425:13475   */\n      iszero\n      tag_423\n      jumpi\n        /* \"#utility.yul\":13471:13472   */\n      0x00\n        /* \"#utility.yul\":13468:13469   */\n      dup1\n        /* \"#utility.yul\":13461:13473   */\n      revert\n        /* \"#utility.yul\":13425:13475   */\n    tag_423:\n        /* \"#utility.yul\":13510:13580   */\n      tag_424\n        /* \"#utility.yul\":13572:13579   */\n      dup15\n        /* \"#utility.yul\":13563:13569   */\n      dup3\n        /* \"#utility.yul\":13552:13561   */\n      dup16\n        /* \"#utility.yul\":13548:13570   */\n      add\n        /* \"#utility.yul\":13510:13580   */\n      tag_298\n      jump\t// in\n    tag_424:\n        /* \"#utility.yul\":13599:13607   */\n      swap1\n      swap12\n      pop\n        /* \"#utility.yul\":13484:13580   */\n      swap10\n      pop\n      pop\n        /* \"#utility.yul\":13687:13689   */\n      0x40\n        /* \"#utility.yul\":13672:13690   */\n      dup13\n      add\n        /* \"#utility.yul\":13659:13691   */\n      calldataload\n      sub(shl(0x40, 0x01), 0x01)\n        /* \"#utility.yul\":13703:13735   */\n      dup2\n      gt\n        /* \"#utility.yul\":13700:13752   */\n      iszero\n      tag_425\n      jumpi\n        /* \"#utility.yul\":13748:13749   */\n      0x00\n        /* \"#utility.yul\":13745:13746   */\n      dup1\n        /* \"#utility.yul\":13738:13750   */\n      revert\n        /* \"#utility.yul\":13700:13752   */\n    tag_425:\n        /* \"#utility.yul\":13787:13859   */\n      tag_426\n        /* \"#utility.yul\":13851:13858   */\n      dup15\n        /* \"#utility.yul\":13840:13848   */\n      dup3\n        /* \"#utility.yul\":13829:13838   */\n      dup16\n        /* \"#utility.yul\":13825:13849   */\n      add\n        /* \"#utility.yul\":13787:13859   */\n      tag_298\n      jump\t// in\n    tag_426:\n        /* \"#utility.yul\":13878:13886   */\n      swap1\n      swap10\n      pop\n        /* \"#utility.yul\":13761:13859   */\n      swap8\n      pop\n      pop\n        /* \"#utility.yul\":13966:13968   */\n      0x60\n        /* \"#utility.yul\":13951:13969   */\n      dup13\n      add\n        /* \"#utility.yul\":13938:13970   */\n      calldataload\n      sub(shl(0x40, 0x01), 0x01)\n        /* \"#utility.yul\":13982:14014   */\n      dup2\n      gt\n        /* \"#utility.yul\":13979:14031   */\n      iszero\n      tag_427\n      jumpi\n        /* \"#utility.yul\":14027:14028   */\n      0x00\n        /* \"#utility.yul\":14024:14025   */\n      dup1\n        /* \"#utility.yul\":14017:14029   */\n      revert\n        /* \"#utility.yul\":13979:14031   */\n    tag_427:\n        /* \"#utility.yul\":14066:14138   */\n      tag_428\n        /* \"#utility.yul\":14130:14137   */\n      dup15\n        /* \"#utility.yul\":14119:14127   */\n      dup3\n        /* \"#utility.yul\":14108:14117   */\n      dup16\n        /* \"#utility.yul\":14104:14128   */\n      add\n        /* \"#utility.yul\":14066:14138   */\n      tag_298\n      jump\t// in\n    tag_428:\n        /* \"#utility.yul\":14157:14165   */\n      swap1\n      swap8\n      pop\n        /* \"#utility.yul\":14040:14138   */\n      swap6\n      pop\n        /* \"#utility.yul\":14211:14250   */\n      tag_429\n      swap1\n      pop\n        /* \"#utility.yul\":14245:14248   */\n      0x80\n        /* \"#utility.yul\":14230:14249   */\n      dup14\n      add\n        /* \"#utility.yul\":14211:14250   */\n      tag_288\n      jump\t// in\n    tag_429:\n        /* \"#utility.yul\":14201:14250   */\n      swap4\n      pop\n        /* \"#utility.yul\":14303:14306   */\n      0xa0\n        /* \"#utility.yul\":14292:14301   */\n      dup13\n        /* \"#utility.yul\":14288:14307   */\n      add\n        /* \"#utility.yul\":14275:14308   */\n      calldataload\n      sub(shl(0x40, 0x01), 0x01)\n        /* \"#utility.yul\":14323:14331   */\n      dup2\n        /* \"#utility.yul\":14320:14352   */\n      gt\n        /* \"#utility.yul\":14317:14369   */\n      iszero\n      tag_430\n      jumpi\n        /* \"#utility.yul\":14365:14366   */\n      0x00\n        /* \"#utility.yul\":14362:14363   */\n      dup1\n        /* \"#utility.yul\":14355:14367   */\n      revert\n        /* \"#utility.yul\":14317:14369   */\n    tag_430:\n        /* \"#utility.yul\":14404:14464   */\n      tag_431\n        /* \"#utility.yul\":14456:14463   */\n      dup15\n        /* \"#utility.yul\":14445:14453   */\n      dup3\n        /* \"#utility.yul\":14434:14443   */\n      dup16\n        /* \"#utility.yul\":14430:14454   */\n      add\n        /* \"#utility.yul\":14404:14464   */\n      tag_297\n      jump\t// in\n    tag_431:\n        /* \"#utility.yul\":14483:14491   */\n      swap1\n      swap5\n      pop\n        /* \"#utility.yul\":14378:14464   */\n      swap3\n      pop\n        /* \"#utility.yul\":14538:14576   */\n      tag_432\n      swap1\n      pop\n        /* \"#utility.yul\":14571:14574   */\n      0xc0\n        /* \"#utility.yul\":14556:14575   */\n      dup14\n      add\n        /* \"#utility.yul\":14538:14576   */\n      tag_290\n      jump\t// in\n    tag_432:\n        /* \"#utility.yul\":14527:14576   */\n      swap1\n      pop\n        /* \"#utility.yul\":12954:14582   */\n      swap3\n      swap6\n      swap9\n      swap12\n      pop\n      swap3\n      swap6\n      swap9\n      swap12\n      swap1\n      swap4\n      swap7\n      swap10\n      pop\n      jump\t// out\n        /* \"#utility.yul\":14587:14775   */\n    tag_299:\n        /* \"#utility.yul\":14655:14675   */\n      dup1\n      calldataload\n      sub(shl(0x80, 0x01), 0x01)\n        /* \"#utility.yul\":14704:14750   */\n      dup2\n      and\n        /* \"#utility.yul\":14694:14751   */\n      dup2\n      eq\n        /* \"#utility.yul\":14684:14769   */\n      tag_244\n      jumpi\n        /* \"#utility.yul\":14765:14766   */\n      0x00\n        /* \"#utility.yul\":14762:14763   */\n      dup1\n        /* \"#utility.yul\":14755:14767   */\n      revert\n        /* \"#utility.yul\":14780:15040   */\n    tag_170:\n        /* \"#utility.yul\":14848:14854   */\n      0x00\n        /* \"#utility.yul\":14856:14862   */\n      dup1\n        /* \"#utility.yul\":14909:14911   */\n      0x40\n        /* \"#utility.yul\":14897:14906   */\n      dup4\n        /* \"#utility.yul\":14888:14895   */\n      dup6\n        /* \"#utility.yul\":14884:14907   */\n      sub\n        /* \"#utility.yul\":14880:14912   */\n      slt\n        /* \"#utility.yul\":14877:14929   */\n      iszero\n      tag_436\n      jumpi\n        /* \"#utility.yul\":14925:14926   */\n      0x00\n        /* \"#utility.yul\":14922:14923   */\n      dup1\n        /* \"#utility.yul\":14915:14927   */\n      revert\n        /* \"#utility.yul\":14877:14929   */\n    tag_436:\n        /* \"#utility.yul\":14948:14977   */\n      tag_437\n        /* \"#utility.yul\":14967:14976   */\n      dup4\n        /* \"#utility.yul\":14948:14977   */\n      tag_299\n      jump\t// in\n    tag_437:\n        /* \"#utility.yul\":14938:14977   */\n      swap2\n      pop\n        /* \"#utility.yul\":14996:15034   */\n      tag_330\n        /* \"#utility.yul\":15030:15032   */\n      0x20\n        /* \"#utility.yul\":15019:15028   */\n      dup5\n        /* \"#utility.yul\":15015:15033   */\n      add\n        /* \"#utility.yul\":14996:15034   */\n      tag_299\n      jump\t// in\n        /* \"#utility.yul\":15854:16228   */\n    tag_187:\n        /* \"#utility.yul\":15931:15937   */\n      0x00\n        /* \"#utility.yul\":15939:15945   */\n      dup1\n        /* \"#utility.yul\":15947:15953   */\n      0x00\n        /* \"#utility.yul\":16000:16002   */\n      0x60\n        /* \"#utility.yul\":15988:15997   */\n      dup5\n        /* \"#utility.yul\":15979:15986   */\n      dup7\n        /* \"#utility.yul\":15975:15998   */\n      sub\n        /* \"#utility.yul\":15971:16003   */\n      slt\n        /* \"#utility.yul\":15968:16020   */\n      iszero\n      tag_442\n      jumpi\n        /* \"#utility.yul\":16016:16017   */\n      0x00\n        /* \"#utility.yul\":16013:16014   */\n      dup1\n        /* \"#utility.yul\":16006:16018   */\n      revert\n        /* \"#utility.yul\":15968:16020   */\n    tag_442:\n        /* \"#utility.yul\":16039:16068   */\n      tag_443\n        /* \"#utility.yul\":16058:16067   */\n      dup5\n        /* \"#utility.yul\":16039:16068   */\n      tag_288\n      jump\t// in\n    tag_443:\n        /* \"#utility.yul\":16029:16068   */\n      swap3\n      pop\n        /* \"#utility.yul\":16087:16125   */\n      tag_444\n        /* \"#utility.yul\":16121:16123   */\n      0x20\n        /* \"#utility.yul\":16110:16119   */\n      dup6\n        /* \"#utility.yul\":16106:16124   */\n      add\n        /* \"#utility.yul\":16087:16125   */\n      tag_288\n      jump\t// in\n    tag_444:\n        /* \"#utility.yul\":15854:16228   */\n      swap3\n      swap6\n        /* \"#utility.yul\":16077:16125   */\n      swap3\n      swap5\n      pop\n      pop\n      pop\n        /* \"#utility.yul\":16194:16196   */\n      0x40\n        /* \"#utility.yul\":16179:16197   */\n      swap2\n      swap1\n      swap2\n      add\n        /* \"#utility.yul\":16166:16198   */\n      calldataload\n      swap1\n        /* \"#utility.yul\":15854:16228   */\n      jump\t// out\n        /* \"#utility.yul\":16233:16870   */\n    tag_196:\n        /* \"#utility.yul\":16423:16425   */\n      0x20\n        /* \"#utility.yul\":16435:16456   */\n      dup1\n      dup3\n      mstore\n        /* \"#utility.yul\":16505:16518   */\n      dup3\n      mload\n        /* \"#utility.yul\":16408:16426   */\n      dup3\n      dup3\n      add\n        /* \"#utility.yul\":16527:16549   */\n      dup2\n      swap1\n      mstore\n        /* \"#utility.yul\":16375:16379   */\n      0x00\n      swap2\n        /* \"#utility.yul\":16606:16621   */\n      dup5\n      add\n      swap1\n        /* \"#utility.yul\":16580:16582   */\n      0x40\n        /* \"#utility.yul\":16565:16583   */\n      dup5\n      add\n      swap1\n        /* \"#utility.yul\":16375:16379   */\n      dup4\n        /* \"#utility.yul\":16649:16844   */\n    tag_446:\n        /* \"#utility.yul\":16663:16669   */\n      dup2\n        /* \"#utility.yul\":16660:16661   */\n      dup2\n        /* \"#utility.yul\":16657:16670   */\n      lt\n        /* \"#utility.yul\":16649:16844   */\n      iszero\n      tag_448\n      jumpi\n        /* \"#utility.yul\":16728:16741   */\n      dup4\n      mload\n      sub(shl(0xa0, 0x01), 0x01)\n        /* \"#utility.yul\":16724:16763   */\n      and\n        /* \"#utility.yul\":16712:16764   */\n      dup4\n      mstore\n        /* \"#utility.yul\":16793:16795   */\n      0x20\n        /* \"#utility.yul\":16819:16834   */\n      swap4\n      dup5\n      add\n      swap4\n        /* \"#utility.yul\":16784:16796   */\n      swap1\n      swap3\n      add\n      swap2\n        /* \"#utility.yul\":16760:16761   */\n      0x01\n        /* \"#utility.yul\":16678:16687   */\n      add\n        /* \"#utility.yul\":16649:16844   */\n      jump(tag_446)\n    tag_448:\n      pop\n        /* \"#utility.yul\":16861:16864   */\n      swap1\n      swap6\n        /* \"#utility.yul\":16233:16870   */\n      swap5\n      pop\n      pop\n      pop\n      pop\n      pop\n      jump\t// out\n        /* \"#utility.yul\":16875:17002   */\n    tag_300:\n        /* \"#utility.yul\":16936:16946   */\n      0x4e487b71\n        /* \"#utility.yul\":16931:16934   */\n      0xe0\n        /* \"#utility.yul\":16927:16947   */\n      shl\n        /* \"#utility.yul\":16924:16925   */\n      0x00\n        /* \"#utility.yul\":16917:16948   */\n      mstore\n        /* \"#utility.yul\":16967:16971   */\n      0x41\n        /* \"#utility.yul\":16964:16965   */\n      0x04\n        /* \"#utility.yul\":16957:16972   */\n      mstore\n        /* \"#utility.yul\":16991:16995   */\n      0x24\n        /* \"#utility.yul\":16988:16989   */\n      0x00\n        /* \"#utility.yul\":16981:16996   */\n      revert\n        /* \"#utility.yul\":17007:17260   */\n    tag_301:\n        /* \"#utility.yul\":17079:17081   */\n      0x40\n        /* \"#utility.yul\":17073:17082   */\n      mload\n        /* \"#utility.yul\":17121:17125   */\n      0xa0\n        /* \"#utility.yul\":17109:17126   */\n      dup2\n      add\n      sub(shl(0x40, 0x01), 0x01)\n        /* \"#utility.yul\":17141:17175   */\n      dup2\n      gt\n        /* \"#utility.yul\":17177:17199   */\n      dup3\n      dup3\n      lt\n        /* \"#utility.yul\":17138:17200   */\n      or\n        /* \"#utility.yul\":17135:17223   */\n      iszero\n      tag_452\n      jumpi\n        /* \"#utility.yul\":17203:17221   */\n      tag_452\n      tag_300\n      jump\t// in\n    tag_452:\n        /* \"#utility.yul\":17239:17241   */\n      0x40\n        /* \"#utility.yul\":17232:17254   */\n      mstore\n        /* \"#utility.yul\":17007:17260   */\n      swap1\n      jump\t// out\n        /* \"#utility.yul\":17265:17540   */\n    tag_302:\n        /* \"#utility.yul\":17336:17338   */\n      0x40\n        /* \"#utility.yul\":17330:17339   */\n      mload\n        /* \"#utility.yul\":17401:17403   */\n      0x1f\n        /* \"#utility.yul\":17382:17395   */\n      dup3\n      add\n      not(0x1f)\n        /* \"#utility.yul\":17378:17405   */\n      and\n        /* \"#utility.yul\":17366:17406   */\n      dup2\n      add\n      sub(shl(0x40, 0x01), 0x01)\n        /* \"#utility.yul\":17421:17455   */\n      dup2\n      gt\n        /* \"#utility.yul\":17457:17479   */\n      dup3\n      dup3\n      lt\n        /* \"#utility.yul\":17418:17480   */\n      or\n        /* \"#utility.yul\":17415:17503   */\n      iszero\n      tag_455\n      jumpi\n        /* \"#utility.yul\":17483:17501   */\n      tag_455\n      tag_300\n      jump\t// in\n    tag_455:\n        /* \"#utility.yul\":17519:17521   */\n      0x40\n        /* \"#utility.yul\":17512:17534   */\n      mstore\n        /* \"#utility.yul\":17265:17540   */\n      swap2\n      swap1\n      pop\n      jump\t// out\n        /* \"#utility.yul\":17545:18923   */\n    tag_199:\n        /* \"#utility.yul\":17641:17647   */\n      0x00\n        /* \"#utility.yul\":17649:17655   */\n      dup1\n        /* \"#utility.yul\":17702:17704   */\n      0x40\n        /* \"#utility.yul\":17690:17699   */\n      dup4\n        /* \"#utility.yul\":17681:17688   */\n      dup6\n        /* \"#utility.yul\":17677:17700   */\n      sub\n        /* \"#utility.yul\":17673:17705   */\n      slt\n        /* \"#utility.yul\":17670:17722   */\n      iszero\n      tag_457\n      jumpi\n        /* \"#utility.yul\":17718:17719   */\n      0x00\n        /* \"#utility.yul\":17715:17716   */\n      dup1\n        /* \"#utility.yul\":17708:17720   */\n      revert\n        /* \"#utility.yul\":17670:17722   */\n    tag_457:\n        /* \"#utility.yul\":17741:17768   */\n      tag_458\n        /* \"#utility.yul\":17758:17767   */\n      dup4\n        /* \"#utility.yul\":17741:17768   */\n      tag_291\n      jump\t// in\n    tag_458:\n        /* \"#utility.yul\":17731:17768   */\n      swap2\n      pop\n        /* \"#utility.yul\":17819:17821   */\n      0x20\n        /* \"#utility.yul\":17808:17817   */\n      dup4\n        /* \"#utility.yul\":17804:17822   */\n      add\n        /* \"#utility.yul\":17791:17823   */\n      calldataload\n      sub(shl(0x40, 0x01), 0x01)\n        /* \"#utility.yul\":17838:17844   */\n      dup2\n        /* \"#utility.yul\":17835:17865   */\n      gt\n        /* \"#utility.yul\":17832:17882   */\n      iszero\n      tag_459\n      jumpi\n        /* \"#utility.yul\":17878:17879   */\n      0x00\n        /* \"#utility.yul\":17875:17876   */\n      dup1\n        /* \"#utility.yul\":17868:17880   */\n      revert\n        /* \"#utility.yul\":17832:17882   */\n    tag_459:\n        /* \"#utility.yul\":17901:17923   */\n      dup4\n      add\n        /* \"#utility.yul\":17957:17961   */\n      0xa0\n        /* \"#utility.yul\":17939:17955   */\n      dup2\n      dup7\n      sub\n        /* \"#utility.yul\":17935:17962   */\n      slt\n        /* \"#utility.yul\":17932:17979   */\n      iszero\n      tag_460\n      jumpi\n        /* \"#utility.yul\":17975:17976   */\n      0x00\n        /* \"#utility.yul\":17972:17973   */\n      dup1\n        /* \"#utility.yul\":17965:17977   */\n      revert\n        /* \"#utility.yul\":17932:17979   */\n    tag_460:\n        /* \"#utility.yul\":18001:18023   */\n      tag_461\n      tag_301\n      jump\t// in\n    tag_461:\n        /* \"#utility.yul\":18046:18067   */\n      tag_462\n        /* \"#utility.yul\":18064:18066   */\n      dup3\n        /* \"#utility.yul\":18046:18067   */\n      tag_290\n      jump\t// in\n    tag_462:\n        /* \"#utility.yul\":18039:18044   */\n      dup2\n        /* \"#utility.yul\":18032:18068   */\n      mstore\n        /* \"#utility.yul\":18100:18130   */\n      tag_463\n        /* \"#utility.yul\":18126:18128   */\n      0x20\n        /* \"#utility.yul\":18122:18124   */\n      dup4\n        /* \"#utility.yul\":18118:18129   */\n      add\n        /* \"#utility.yul\":18100:18130   */\n      tag_290\n      jump\t// in\n    tag_463:\n        /* \"#utility.yul\":18095:18097   */\n      0x20\n        /* \"#utility.yul\":18088:18093   */\n      dup3\n        /* \"#utility.yul\":18084:18098   */\n      add\n        /* \"#utility.yul\":18077:18131   */\n      mstore\n        /* \"#utility.yul\":18163:18193   */\n      tag_464\n        /* \"#utility.yul\":18189:18191   */\n      0x40\n        /* \"#utility.yul\":18185:18187   */\n      dup4\n        /* \"#utility.yul\":18181:18192   */\n      add\n        /* \"#utility.yul\":18163:18193   */\n      tag_290\n      jump\t// in\n    tag_464:\n        /* \"#utility.yul\":18158:18160   */\n      0x40\n        /* \"#utility.yul\":18151:18156   */\n      dup3\n        /* \"#utility.yul\":18147:18161   */\n      add\n        /* \"#utility.yul\":18140:18194   */\n      mstore\n        /* \"#utility.yul\":18226:18257   */\n      tag_465\n        /* \"#utility.yul\":18253:18255   */\n      0x60\n        /* \"#utility.yul\":18249:18251   */\n      dup4\n        /* \"#utility.yul\":18245:18256   */\n      add\n        /* \"#utility.yul\":18226:18257   */\n      tag_288\n      jump\t// in\n    tag_465:\n        /* \"#utility.yul\":18221:18223   */\n      0x60\n        /* \"#utility.yul\":18214:18219   */\n      dup3\n        /* \"#utility.yul\":18210:18224   */\n      add\n        /* \"#utility.yul\":18203:18258   */\n      mstore\n        /* \"#utility.yul\":18304:18307   */\n      0x80\n        /* \"#utility.yul\":18300:18302   */\n      dup3\n        /* \"#utility.yul\":18296:18308   */\n      add\n        /* \"#utility.yul\":18283:18309   */\n      calldataload\n      sub(shl(0x40, 0x01), 0x01)\n        /* \"#utility.yul\":18324:18332   */\n      dup2\n        /* \"#utility.yul\":18321:18353   */\n      gt\n        /* \"#utility.yul\":18318:18370   */\n      iszero\n      tag_466\n      jumpi\n        /* \"#utility.yul\":18366:18367   */\n      0x00\n        /* \"#utility.yul\":18363:18364   */\n      dup1\n        /* \"#utility.yul\":18356:18368   */\n      revert\n        /* \"#utility.yul\":18318:18370   */\n    tag_466:\n        /* \"#utility.yul\":18397:18405   */\n      dup1\n        /* \"#utility.yul\":18393:18395   */\n      dup4\n        /* \"#utility.yul\":18389:18406   */\n      add\n        /* \"#utility.yul\":18379:18406   */\n      swap3\n      pop\n      pop\n        /* \"#utility.yul\":18444:18451   */\n      dup6\n        /* \"#utility.yul\":18437:18441   */\n      0x1f\n        /* \"#utility.yul\":18433:18435   */\n      dup4\n        /* \"#utility.yul\":18429:18442   */\n      add\n        /* \"#utility.yul\":18425:18452   */\n      slt\n        /* \"#utility.yul\":18415:18470   */\n      tag_467\n      jumpi\n        /* \"#utility.yul\":18466:18467   */\n      0x00\n        /* \"#utility.yul\":18463:18464   */\n      dup1\n        /* \"#utility.yul\":18456:18468   */\n      revert\n        /* \"#utility.yul\":18415:18470   */\n    tag_467:\n        /* \"#utility.yul\":18506:18508   */\n      dup2\n        /* \"#utility.yul\":18493:18509   */\n      calldataload\n      sub(shl(0x40, 0x01), 0x01)\n        /* \"#utility.yul\":18524:18530   */\n      dup2\n        /* \"#utility.yul\":18521:18551   */\n      gt\n        /* \"#utility.yul\":18518:18574   */\n      iszero\n      tag_469\n      jumpi\n        /* \"#utility.yul\":18554:18572   */\n      tag_469\n      tag_300\n      jump\t// in\n    tag_469:\n        /* \"#utility.yul\":18596:18653   */\n      tag_470\n        /* \"#utility.yul\":18643:18645   */\n      0x1f\n        /* \"#utility.yul\":18620:18637   */\n      dup3\n      add\n      not(0x1f)\n        /* \"#utility.yul\":18616:18647   */\n      and\n        /* \"#utility.yul\":18649:18651   */\n      0x20\n        /* \"#utility.yul\":18612:18652   */\n      add\n        /* \"#utility.yul\":18596:18653   */\n      tag_302\n      jump\t// in\n    tag_470:\n        /* \"#utility.yul\":18676:18682   */\n      dup2\n        /* \"#utility.yul\":18669:18674   */\n      dup2\n        /* \"#utility.yul\":18662:18683   */\n      mstore\n        /* \"#utility.yul\":18724:18731   */\n      dup8\n        /* \"#utility.yul\":18719:18721   */\n      0x20\n        /* \"#utility.yul\":18710:18716   */\n      dup4\n        /* \"#utility.yul\":18706:18708   */\n      dup7\n        /* \"#utility.yul\":18702:18717   */\n      add\n        /* \"#utility.yul\":18698:18722   */\n      add\n        /* \"#utility.yul\":18695:18732   */\n      gt\n        /* \"#utility.yul\":18692:18749   */\n      iszero\n      tag_471\n      jumpi\n        /* \"#utility.yul\":18745:18746   */\n      0x00\n        /* \"#utility.yul\":18742:18743   */\n      dup1\n        /* \"#utility.yul\":18735:18747   */\n      revert\n        /* \"#utility.yul\":18692:18749   */\n    tag_471:\n        /* \"#utility.yul\":18800:18806   */\n      dup2\n        /* \"#utility.yul\":18795:18797   */\n      0x20\n        /* \"#utility.yul\":18791:18793   */\n      dup6\n        /* \"#utility.yul\":18787:18798   */\n      add\n        /* \"#utility.yul\":18782:18784   */\n      0x20\n        /* \"#utility.yul\":18775:18780   */\n      dup4\n        /* \"#utility.yul\":18771:18785   */\n      add\n        /* \"#utility.yul\":18758:18807   */\n      calldatacopy\n        /* \"#utility.yul\":18852:18853   */\n      0x00\n        /* \"#utility.yul\":18847:18849   */\n      0x20\n        /* \"#utility.yul\":18838:18844   */\n      dup4\n        /* \"#utility.yul\":18831:18836   */\n      dup4\n        /* \"#utility.yul\":18827:18845   */\n      add\n        /* \"#utility.yul\":18823:18850   */\n      add\n        /* \"#utility.yul\":18816:18854   */\n      mstore\n        /* \"#utility.yul\":18887:18892   */\n      dup1\n        /* \"#utility.yul\":18881:18884   */\n      0x80\n        /* \"#utility.yul\":18874:18879   */\n      dup5\n        /* \"#utility.yul\":18870:18885   */\n      add\n        /* \"#utility.yul\":18863:18893   */\n      mstore\n      pop\n      pop\n        /* \"#utility.yul\":18912:18917   */\n      dup1\n        /* \"#utility.yul\":18902:18917   */\n      swap3\n      pop\n      pop\n      pop\n        /* \"#utility.yul\":17545:18923   */\n      swap3\n      pop\n      swap3\n      swap1\n      pop\n      jump\t// out\n        /* \"#utility.yul\":18928:19619   */\n    tag_203:\n        /* \"#utility.yul\":19032:19038   */\n      0x00\n        /* \"#utility.yul\":19040:19046   */\n      dup1\n        /* \"#utility.yul\":19048:19054   */\n      0x00\n        /* \"#utility.yul\":19056:19062   */\n      dup1\n        /* \"#utility.yul\":19064:19070   */\n      0x00\n        /* \"#utility.yul\":19072:19078   */\n      dup1\n        /* \"#utility.yul\":19125:19128   */\n      0xc0\n        /* \"#utility.yul\":19113:19122   */\n      dup8\n        /* \"#utility.yul\":19104:19111   */\n      dup10\n        /* \"#utility.yul\":19100:19123   */\n      sub\n        /* \"#utility.yul\":19096:19129   */\n      slt\n        /* \"#utility.yul\":19093:19146   */\n      iszero\n      tag_473\n      jumpi\n        /* \"#utility.yul\":19142:19143   */\n      0x00\n        /* \"#utility.yul\":19139:19140   */\n      dup1\n        /* \"#utility.yul\":19132:19144   */\n      revert\n        /* \"#utility.yul\":19093:19146   */\n    tag_473:\n        /* \"#utility.yul\":19165:19194   */\n      tag_474\n        /* \"#utility.yul\":19184:19193   */\n      dup8\n        /* \"#utility.yul\":19165:19194   */\n      tag_288\n      jump\t// in\n    tag_474:\n        /* \"#utility.yul\":19155:19194   */\n      swap6\n      pop\n        /* \"#utility.yul\":19213:19251   */\n      tag_475\n        /* \"#utility.yul\":19247:19249   */\n      0x20\n        /* \"#utility.yul\":19236:19245   */\n      dup9\n        /* \"#utility.yul\":19232:19250   */\n      add\n        /* \"#utility.yul\":19213:19251   */\n      tag_288\n      jump\t// in\n    tag_475:\n        /* \"#utility.yul\":19203:19251   */\n      swap5\n      pop\n        /* \"#utility.yul\":19270:19308   */\n      tag_476\n        /* \"#utility.yul\":19304:19306   */\n      0x40\n        /* \"#utility.yul\":19293:19302   */\n      dup9\n        /* \"#utility.yul\":19289:19307   */\n      add\n        /* \"#utility.yul\":19270:19308   */\n      tag_288\n      jump\t// in\n    tag_476:\n        /* \"#utility.yul\":18928:19619   */\n      swap6\n      swap9\n      swap5\n      swap8\n      pop\n        /* \"#utility.yul\":19260:19308   */\n      swap5\n      swap6\n        /* \"#utility.yul\":19377:19379   */\n      0x60\n        /* \"#utility.yul\":19362:19380   */\n      dup2\n      add\n        /* \"#utility.yul\":19349:19381   */\n      calldataload\n      swap6\n      pop\n        /* \"#utility.yul\":19478:19481   */\n      0x80\n        /* \"#utility.yul\":19463:19482   */\n      dup2\n      add\n        /* \"#utility.yul\":19450:19483   */\n      calldataload\n      swap5\n        /* \"#utility.yul\":19582:19585   */\n      0xa0\n        /* \"#utility.yul\":19567:19586   */\n      swap1\n      swap2\n      add\n        /* \"#utility.yul\":19554:19587   */\n      calldataload\n      swap4\n      pop\n        /* \"#utility.yul\":18928:19619   */\n      swap2\n      pop\n      pop\n      jump\t// out\n        /* \"#utility.yul\":19624:20553   */\n    tag_224:\n        /* \"#utility.yul\":19744:19750   */\n      0x00\n        /* \"#utility.yul\":19752:19758   */\n      dup1\n        /* \"#utility.yul\":19760:19766   */\n      0x00\n        /* \"#utility.yul\":19768:19774   */\n      dup1\n        /* \"#utility.yul\":19776:19782   */\n      0x00\n        /* \"#utility.yul\":19784:19790   */\n      dup1\n        /* \"#utility.yul\":19792:19798   */\n      0x00\n        /* \"#utility.yul\":19800:19806   */\n      dup1\n        /* \"#utility.yul\":19853:19856   */\n      0x0100\n        /* \"#utility.yul\":19841:19850   */\n      dup10\n        /* \"#utility.yul\":19832:19839   */\n      dup12\n        /* \"#utility.yul\":19828:19851   */\n      sub\n        /* \"#utility.yul\":19824:19857   */\n      slt\n        /* \"#utility.yul\":19821:19874   */\n      iszero\n      tag_478\n      jumpi\n        /* \"#utility.yul\":19870:19871   */\n      0x00\n        /* \"#utility.yul\":19867:19868   */\n      dup1\n        /* \"#utility.yul\":19860:19872   */\n      revert\n        /* \"#utility.yul\":19821:19874   */\n    tag_478:\n        /* \"#utility.yul\":19893:19922   */\n      tag_479\n        /* \"#utility.yul\":19912:19921   */\n      dup10\n        /* \"#utility.yul\":19893:19922   */\n      tag_288\n      jump\t// in\n    tag_479:\n        /* \"#utility.yul\":19883:19922   */\n      swap8\n      pop\n        /* \"#utility.yul\":19991:19993   */\n      0x20\n        /* \"#utility.yul\":19976:19994   */\n      dup10\n      add\n        /* \"#utility.yul\":19963:19995   */\n      calldataload\n      swap7\n      pop\n        /* \"#utility.yul\":20092:20094   */\n      0x40\n        /* \"#utility.yul\":20077:20095   */\n      dup10\n      add\n        /* \"#utility.yul\":20064:20096   */\n      calldataload\n      swap6\n      pop\n        /* \"#utility.yul\":20141:20179   */\n      tag_322\n        /* \"#utility.yul\":20175:20177   */\n      0x60\n        /* \"#utility.yul\":20160:20178   */\n      dup11\n      add\n        /* \"#utility.yul\":20141:20179   */\n      tag_288\n      jump\t// in\n        /* \"#utility.yul\":20558:20915   */\n    tag_229:\n        /* \"#utility.yul\":20668:20674   */\n      0x00\n        /* \"#utility.yul\":20676:20682   */\n      dup1\n        /* \"#utility.yul\":20720:20729   */\n      dup3\n        /* \"#utility.yul\":20711:20718   */\n      dup5\n        /* \"#utility.yul\":20707:20730   */\n      sub\n        /* \"#utility.yul\":20750:20752   */\n      0x40\n        /* \"#utility.yul\":20746:20748   */\n      dup2\n        /* \"#utility.yul\":20742:20753   */\n      slt\n        /* \"#utility.yul\":20739:20770   */\n      iszero\n      tag_483\n      jumpi\n        /* \"#utility.yul\":20766:20767   */\n      0x00\n        /* \"#utility.yul\":20763:20764   */\n      dup1\n        /* \"#utility.yul\":20756:20768   */\n      revert\n        /* \"#utility.yul\":20739:20770   */\n    tag_483:\n        /* \"#utility.yul\":20789:20818   */\n      tag_484\n        /* \"#utility.yul\":20808:20817   */\n      dup5\n        /* \"#utility.yul\":20789:20818   */\n      tag_288\n      jump\t// in\n    tag_484:\n        /* \"#utility.yul\":20779:20818   */\n      swap3\n      pop\n        /* \"#utility.yul\":20852:20854   */\n      0x20\n      not(0x1f)\n        /* \"#utility.yul\":20834:20850   */\n      dup3\n      add\n        /* \"#utility.yul\":20830:20855   */\n      slt\n        /* \"#utility.yul\":20827:20872   */\n      iszero\n      tag_485\n      jumpi\n        /* \"#utility.yul\":20868:20869   */\n      0x00\n        /* \"#utility.yul\":20865:20866   */\n      dup1\n        /* \"#utility.yul\":20858:20870   */\n      revert\n        /* \"#utility.yul\":20827:20872   */\n    tag_485:\n      pop\n        /* \"#utility.yul\":20906:20908   */\n      0x20\n        /* \"#utility.yul\":20895:20904   */\n      dup4\n        /* \"#utility.yul\":20891:20909   */\n      add\n        /* \"#utility.yul\":20881:20909   */\n      swap1\n      pop\n        /* \"#utility.yul\":20558:20915   */\n      swap3\n      pop\n      swap3\n      swap1\n      pop\n      jump\t// out\n\n    auxdata: 0xa2646970667358221220456c2f2760c4d4a390a152e5952ddef5dc00f5c127a73e03d86a76a059636e3364736f6c634300081a0033\n}\n",
				"bytecode": {
					"linkReferences": {},
					"object": "60806040526110f1806100115f395ff3fe608060405234801561000f575f80fd5b506004361061026a575f3560e01c80637a708e921161014b578063d1946dbc116100bf578063e82fec2f11610084578063e82fec2f146102dc578063e8eda9df1461044a578063eddf1b79146103bf578063ee3e210b146105b4578063f51e435b146105cf578063f8119d51146102bc575f80fd5b8063d1946dbc14610589578063d579ea7d14610598578063d5ed3933146105a6578063d65dc7a1146102fd578063e43e88a11461045e575f80fd5b8063bcb6e52211610110578063bcb6e5221461051e578063bf92857c1461052c578063c44b11f7146103e8578063cd112382146102ca578063cea9d26f14610576578063d15e0053146103bf575f80fd5b80637a708e92146104cb57806394ba89a2146104d95780639cd19996146104e7578063a415bcad146104f5578063ab9c4b5d14610503575f80fd5b806342b0b77c116101e2578063617ba037116101a7578063617ba0371461044a57806363c9b8601461045e57806369328dec1461046c57806369a933a51461044a5780636a99c036146102bc5780636c6f6ae114610480575f80fd5b806342b0b77c146103d25780634417a583146103e85780635275179714610417578063573ade81146104255780635a3b74b91461043c575f80fd5b8063272d907211610233578063272d9072146102dc57806328530a47146102ec5780632dad97d4146102fd5780633036b4391461031357806335ea6a7514610321578063386497fd146103bf575f80fd5b8062a718a91461026e57806302c205f0146102855780630542975c1461029d578063074b2e43146102bc5780631d2118f9146102ca575b5f80fd5b61028361027c366004610607565b5050505050565b005b610283610293366004610682565b5050505050505050565b5f5b6040516001600160a01b0390911681526020015b60405180910390f35b6040515f81526020016102b3565b6102836102d83660046106f8565b5050565b5f5b6040519081526020016102b3565b6102836102fa366004610729565b50565b6102de61030b366004610749565b5f9392505050565b6102836102fa366004610779565b6103b261032f366004610790565b5060408051610200810182525f6101e08201818152825260208201819052918101829052606081018290526080810182905260a0810182905260c0810182905260e08101829052610100810182905261012081018290526101408101829052610160810182905261018081018290526101a081018290526101c081019190915290565b6040516102b391906107a9565b6102de6103cd366004610790565b505f90565b6102836103e036600461097e565b505050505050565b6104086103f6366004610790565b5060408051602081019091525f815290565b604051905181526020016102b3565b61029f6103cd3660046109f6565b6102de610433366004610a0f565b5f949350505050565b6102836102d8366004610a52565b610283610458366004610a7a565b50505050565b6102836102fa366004610790565b6102de61047a366004610ab9565b50919050565b6104be61048e366004610729565b506040805160a0810182525f80825260208201819052918101829052606080820192909252608081019190915290565b6040516102b39190610af2565b61028361027c366004610b6c565b6102836102d8366004610bc1565b6102836102d8366004610c29565b61028361027c366004610c67565b610283610511366004610ca0565b5050505050505050505050565b6102836102d8366004610db1565b61054961053a366004610790565b5f808080808091939550919395565b604080519687526020870195909552938501929092526060840152608083015260a082015260c0016102b3565b610283610584366004610dd9565b505050565b60606040516102b39190610e13565b6102836102d8366004610eca565b6102836103e0366004610fe7565b6102de6105c2366004611042565b5f98975050505050505050565b6102836102d836600461107f565b919050565b80356001600160a01b03811681146105dd575f80fd5b803580151581146105dd575f80fd5b5f805f805f60a0868803121561061b575f80fd5b610624866105e2565b9450610632602087016105e2565b9350610640604087016105e2565b925060608601359150610655608087016105f8565b90509295509295909350565b803561ffff811681146105dd575f80fd5b803560ff811681146105dd575f80fd5b5f805f805f805f80610100898b03121561069a575f80fd5b6106a3896105e2565b9750602089013596506106b860408a016105e2565b95506106c660608a01610661565b9450608089013593506106db60a08a01610672565b979a969950949793969295929450505060c08201359160e0013590565b5f8060408385031215610709575f80fd5b610712836105e2565b9150610720602084016105e2565b90509250929050565b5f60208284031215610739575f80fd5b61074282610672565b9392505050565b5f805f6060848603121561075b575f80fd5b610764846105e2565b95602085013595506040909401359392505050565b5f60208284031215610789575f80fd5b5035919050565b5f602082840312156107a0575f80fd5b610742826105e2565b81515181526101e0810160208301516107cd60208401826001600160801b03169052565b5060408301516107e860408401826001600160801b03169052565b50606083015161080360608401826001600160801b03169052565b50608083015161081e60808401826001600160801b03169052565b5060a083015161083960a08401826001600160801b03169052565b5060c083015161085260c084018264ffffffffff169052565b5060e083015161086860e084018261ffff169052565b506101008301516108856101008401826001600160a01b03169052565b506101208301516108a26101208401826001600160a01b03169052565b506101408301516108bf6101408401826001600160a01b03169052565b506101608301516108dc6101608401826001600160a01b03169052565b506101808301516108f96101808401826001600160801b03169052565b506101a08301516109166101a08401826001600160801b03169052565b506101c08301516109336101c08401826001600160801b03169052565b5092915050565b5f8083601f84011261094a575f80fd5b5081356001600160401b03811115610960575f80fd5b602083019150836020828501011115610977575f80fd5b9250929050565b5f805f805f8060a08789031215610993575f80fd5b61099c876105e2565b95506109aa602088016105e2565b94506040870135935060608701356001600160401b038111156109cb575f80fd5b6109d789828a0161093a565b90945092506109ea905060808801610661565b90509295509295509295565b5f60208284031215610a06575f80fd5b61074282610661565b5f805f8060808587031215610a22575f80fd5b610a2b856105e2565b93506020850135925060408501359150610a47606086016105e2565b905092959194509250565b5f8060408385031215610a63575f80fd5b610a6c836105e2565b9150610720602084016105f8565b5f805f8060808587031215610a8d575f80fd5b610a96856105e2565b935060208501359250610aab604086016105e2565b9150610a4760608601610661565b5f805f60608486031215610acb575f80fd5b610ad4846105e2565b925060208401359150610ae9604085016105e2565b90509250925092565b6020815261ffff825116602082015261ffff602083015116604082015261ffff604083015116606082015260018060a01b0360608301511660808201525f608083015160a08084015280518060c0850152806020830160e086015e5f60e0828601015260e0601f19601f8301168501019250505092915050565b5f805f805f60a08688031215610b80575f80fd5b610b89866105e2565b9450610b97602087016105e2565b9350610ba5604087016105e2565b9250610bb3606087016105e2565b9150610655608087016105e2565b5f8060408385031215610bd2575f80fd5b610bdb836105e2565b946020939093013593505050565b5f8083601f840112610bf9575f80fd5b5081356001600160401b03811115610c0f575f80fd5b6020830191508360208260051b8501011115610977575f80fd5b5f8060208385031215610c3a575f80fd5b82356001600160401b03811115610c4f575f80fd5b610c5b85828601610be9565b90969095509350505050565b5f805f805f60a08688031215610c7b575f80fd5b610c84866105e2565b94506020860135935060408601359250610bb360608701610661565b5f805f805f805f805f805f60e08c8e031215610cba575f80fd5b610cc38c6105e2565b9a5060208c01356001600160401b03811115610cdd575f80fd5b610ce98e828f01610be9565b909b5099505060408c01356001600160401b03811115610d07575f80fd5b610d138e828f01610be9565b90995097505060608c01356001600160401b03811115610d31575f80fd5b610d3d8e828f01610be9565b9097509550610d50905060808d016105e2565b935060a08c01356001600160401b03811115610d6a575f80fd5b610d768e828f0161093a565b9094509250610d89905060c08d01610661565b90509295989b509295989b9093969950565b80356001600160801b03811681146105dd575f80fd5b5f8060408385031215610dc2575f80fd5b610dcb83610d9b565b915061072060208401610d9b565b5f805f60608486031215610deb575f80fd5b610df4846105e2565b9250610e02602085016105e2565b929592945050506040919091013590565b602080825282518282018190525f918401906040840190835b81811015610e535783516001600160a01b0316835260209384019390920191600101610e2c565b509095945050505050565b634e487b7160e01b5f52604160045260245ffd5b60405160a081016001600160401b0381118282101715610e9457610e94610e5e565b60405290565b604051601f8201601f191681016001600160401b0381118282101715610ec257610ec2610e5e565b604052919050565b5f8060408385031215610edb575f80fd5b610ee483610672565b915060208301356001600160401b03811115610efe575f80fd5b830160a08186031215610f0f575f80fd5b610f17610e72565b610f2082610661565b8152610f2e60208301610661565b6020820152610f3f60408301610661565b6040820152610f50606083016105e2565b606082015260808201356001600160401b03811115610f6d575f80fd5b80830192505085601f830112610f81575f80fd5b81356001600160401b03811115610f9a57610f9a610e5e565b610fad601f8201601f1916602001610e9a565b818152876020838601011115610fc1575f80fd5b816020850160208301375f60208383010152806080840152505080925050509250929050565b5f805f805f8060c08789031215610ffc575f80fd5b611005876105e2565b9550611013602088016105e2565b9450611021604088016105e2565b959894975094956060810135955060808101359460a0909101359350915050565b5f805f805f805f80610100898b03121561105a575f80fd5b611063896105e2565b975060208901359650604089013595506106c660608a016105e2565b5f808284036040811215611091575f80fd5b61109a846105e2565b92506020601f19820112156110ad575f80fd5b50602083019050925092905056fea2646970667358221220456c2f2760c4d4a390a152e5952ddef5dc00f5c127a73e03d86a76a059636e3364736f6c634300081a0033",
					"opcodes": "PUSH1 0x80 PUSH1 0x40 MSTORE PUSH2 0x10F1 DUP1 PUSH2 0x11 PUSH0 CODECOPY PUSH0 RETURN INVALID PUSH1 0x80 PUSH1 0x40 MSTORE CALLVALUE DUP1 ISZERO PUSH2 0xF JUMPI PUSH0 DUP1 REVERT JUMPDEST POP PUSH1 0x4 CALLDATASIZE LT PUSH2 0x26A JUMPI PUSH0 CALLDATALOAD PUSH1 0xE0 SHR DUP1 PUSH4 0x7A708E92 GT PUSH2 0x14B JUMPI DUP1 PUSH4 0xD1946DBC GT PUSH2 0xBF JUMPI DUP1 PUSH4 0xE82FEC2F GT PUSH2 0x84 JUMPI DUP1 PUSH4 0xE82FEC2F EQ PUSH2 0x2DC JUMPI DUP1 PUSH4 0xE8EDA9DF EQ PUSH2 0x44A JUMPI DUP1 PUSH4 0xEDDF1B79 EQ PUSH2 0x3BF JUMPI DUP1 PUSH4 0xEE3E210B EQ PUSH2 0x5B4 JUMPI DUP1 PUSH4 0xF51E435B EQ PUSH2 0x5CF JUMPI DUP1 PUSH4 0xF8119D51 EQ PUSH2 0x2BC JUMPI PUSH0 DUP1 REVERT JUMPDEST DUP1 PUSH4 0xD1946DBC EQ PUSH2 0x589 JUMPI DUP1 PUSH4 0xD579EA7D EQ PUSH2 0x598 JUMPI DUP1 PUSH4 0xD5ED3933 EQ PUSH2 0x5A6 JUMPI DUP1 PUSH4 0xD65DC7A1 EQ PUSH2 0x2FD JUMPI DUP1 PUSH4 0xE43E88A1 EQ PUSH2 0x45E JUMPI PUSH0 DUP1 REVERT JUMPDEST DUP1 PUSH4 0xBCB6E522 GT PUSH2 0x110 JUMPI DUP1 PUSH4 0xBCB6E522 EQ PUSH2 0x51E JUMPI DUP1 PUSH4 0xBF92857C EQ PUSH2 0x52C JUMPI DUP1 PUSH4 0xC44B11F7 EQ PUSH2 0x3E8 JUMPI DUP1 PUSH4 0xCD112382 EQ PUSH2 0x2CA JUMPI DUP1 PUSH4 0xCEA9D26F EQ PUSH2 0x576 JUMPI DUP1 PUSH4 0xD15E0053 EQ PUSH2 0x3BF JUMPI PUSH0 DUP1 REVERT JUMPDEST DUP1 PUSH4 0x7A708E92 EQ PUSH2 0x4CB JUMPI DUP1 PUSH4 0x94BA89A2 EQ PUSH2 0x4D9 JUMPI DUP1 PUSH4 0x9CD19996 EQ PUSH2 0x4E7 JUMPI DUP1 PUSH4 0xA415BCAD EQ PUSH2 0x4F5 JUMPI DUP1 PUSH4 0xAB9C4B5D EQ PUSH2 0x503 JUMPI PUSH0 DUP1 REVERT JUMPDEST DUP1 PUSH4 0x42B0B77C GT PUSH2 0x1E2 JUMPI DUP1 PUSH4 0x617BA037 GT PUSH2 0x1A7 JUMPI DUP1 PUSH4 0x617BA037 EQ PUSH2 0x44A JUMPI DUP1 PUSH4 0x63C9B860 EQ PUSH2 0x45E JUMPI DUP1 PUSH4 0x69328DEC EQ PUSH2 0x46C JUMPI DUP1 PUSH4 0x69A933A5 EQ PUSH2 0x44A JUMPI DUP1 PUSH4 0x6A99C036 EQ PUSH2 0x2BC JUMPI DUP1 PUSH4 0x6C6F6AE1 EQ PUSH2 0x480 JUMPI PUSH0 DUP1 REVERT JUMPDEST DUP1 PUSH4 0x42B0B77C EQ PUSH2 0x3D2 JUMPI DUP1 PUSH4 0x4417A583 EQ PUSH2 0x3E8 JUMPI DUP1 PUSH4 0x52751797 EQ PUSH2 0x417 JUMPI DUP1 PUSH4 0x573ADE81 EQ PUSH2 0x425 JUMPI DUP1 PUSH4 0x5A3B74B9 EQ PUSH2 0x43C JUMPI PUSH0 DUP1 REVERT JUMPDEST DUP1 PUSH4 0x272D9072 GT PUSH2 0x233 JUMPI DUP1 PUSH4 0x272D9072 EQ PUSH2 0x2DC JUMPI DUP1 PUSH4 0x28530A47 EQ PUSH2 0x2EC JUMPI DUP1 PUSH4 0x2DAD97D4 EQ PUSH2 0x2FD JUMPI DUP1 PUSH4 0x3036B439 EQ PUSH2 0x313 JUMPI DUP1 PUSH4 0x35EA6A75 EQ PUSH2 0x321 JUMPI DUP1 PUSH4 0x386497FD EQ PUSH2 0x3BF JUMPI PUSH0 DUP1 REVERT JUMPDEST DUP1 PUSH3 0xA718A9 EQ PUSH2 0x26E JUMPI DUP1 PUSH4 0x2C205F0 EQ PUSH2 0x285 JUMPI DUP1 PUSH4 0x542975C EQ PUSH2 0x29D JUMPI DUP1 PUSH4 0x74B2E43 EQ PUSH2 0x2BC JUMPI DUP1 PUSH4 0x1D2118F9 EQ PUSH2 0x2CA JUMPI JUMPDEST PUSH0 DUP1 REVERT JUMPDEST PUSH2 0x283 PUSH2 0x27C CALLDATASIZE PUSH1 0x4 PUSH2 0x607 JUMP JUMPDEST POP POP POP POP POP JUMP JUMPDEST STOP JUMPDEST PUSH2 0x283 PUSH2 0x293 CALLDATASIZE PUSH1 0x4 PUSH2 0x682 JUMP JUMPDEST POP POP POP POP POP POP POP POP JUMP JUMPDEST PUSH0 JUMPDEST PUSH1 0x40 MLOAD PUSH1 0x1 PUSH1 0x1 PUSH1 0xA0 SHL SUB SWAP1 SWAP2 AND DUP2 MSTORE PUSH1 0x20 ADD JUMPDEST PUSH1 0x40 MLOAD DUP1 SWAP2 SUB SWAP1 RETURN JUMPDEST PUSH1 0x40 MLOAD PUSH0 DUP2 MSTORE PUSH1 0x20 ADD PUSH2 0x2B3 JUMP JUMPDEST PUSH2 0x283 PUSH2 0x2D8 CALLDATASIZE PUSH1 0x4 PUSH2 0x6F8 JUMP JUMPDEST POP POP JUMP JUMPDEST PUSH0 JUMPDEST PUSH1 0x40 MLOAD SWAP1 DUP2 MSTORE PUSH1 0x20 ADD PUSH2 0x2B3 JUMP JUMPDEST PUSH2 0x283 PUSH2 0x2FA CALLDATASIZE PUSH1 0x4 PUSH2 0x729 JUMP JUMPDEST POP JUMP JUMPDEST PUSH2 0x2DE PUSH2 0x30B CALLDATASIZE PUSH1 0x4 PUSH2 0x749 JUMP JUMPDEST PUSH0 SWAP4 SWAP3 POP POP POP JUMP JUMPDEST PUSH2 0x283 PUSH2 0x2FA CALLDATASIZE PUSH1 0x4 PUSH2 0x779 JUMP JUMPDEST PUSH2 0x3B2 PUSH2 0x32F CALLDATASIZE PUSH1 0x4 PUSH2 0x790 JUMP JUMPDEST POP PUSH1 0x40 DUP1 MLOAD PUSH2 0x200 DUP2 ADD DUP3 MSTORE PUSH0 PUSH2 0x1E0 DUP3 ADD DUP2 DUP2 MSTORE DUP3 MSTORE PUSH1 0x20 DUP3 ADD DUP2 SWAP1 MSTORE SWAP2 DUP2 ADD DUP3 SWAP1 MSTORE PUSH1 0x60 DUP2 ADD DUP3 SWAP1 MSTORE PUSH1 0x80 DUP2 ADD DUP3 SWAP1 MSTORE PUSH1 0xA0 DUP2 ADD DUP3 SWAP1 MSTORE PUSH1 0xC0 DUP2 ADD DUP3 SWAP1 MSTORE PUSH1 0xE0 DUP2 ADD DUP3 SWAP1 MSTORE PUSH2 0x100 DUP2 ADD DUP3 SWAP1 MSTORE PUSH2 0x120 DUP2 ADD DUP3 SWAP1 MSTORE PUSH2 0x140 DUP2 ADD DUP3 SWAP1 MSTORE PUSH2 0x160 DUP2 ADD DUP3 SWAP1 MSTORE PUSH2 0x180 DUP2 ADD DUP3 SWAP1 MSTORE PUSH2 0x1A0 DUP2 ADD DUP3 SWAP1 MSTORE PUSH2 0x1C0 DUP2 ADD SWAP2 SWAP1 SWAP2 MSTORE SWAP1 JUMP JUMPDEST PUSH1 0x40 MLOAD PUSH2 0x2B3 SWAP2 SWAP1 PUSH2 0x7A9 JUMP JUMPDEST PUSH2 0x2DE PUSH2 0x3CD CALLDATASIZE PUSH1 0x4 PUSH2 0x790 JUMP JUMPDEST POP PUSH0 SWAP1 JUMP JUMPDEST PUSH2 0x283 PUSH2 0x3E0 CALLDATASIZE PUSH1 0x4 PUSH2 0x97E JUMP JUMPDEST POP POP POP POP POP POP JUMP JUMPDEST PUSH2 0x408 PUSH2 0x3F6 CALLDATASIZE PUSH1 0x4 PUSH2 0x790 JUMP JUMPDEST POP PUSH1 0x40 DUP1 MLOAD PUSH1 0x20 DUP2 ADD SWAP1 SWAP2 MSTORE PUSH0 DUP2 MSTORE SWAP1 JUMP JUMPDEST PUSH1 0x40 MLOAD SWAP1 MLOAD DUP2 MSTORE PUSH1 0x20 ADD PUSH2 0x2B3 JUMP JUMPDEST PUSH2 0x29F PUSH2 0x3CD CALLDATASIZE PUSH1 0x4 PUSH2 0x9F6 JUMP JUMPDEST PUSH2 0x2DE PUSH2 0x433 CALLDATASIZE PUSH1 0x4 PUSH2 0xA0F JUMP JUMPDEST PUSH0 SWAP5 SWAP4 POP POP POP POP JUMP JUMPDEST PUSH2 0x283 PUSH2 0x2D8 CALLDATASIZE PUSH1 0x4 PUSH2 0xA52 JUMP JUMPDEST PUSH2 0x283 PUSH2 0x458 CALLDATASIZE PUSH1 0x4 PUSH2 0xA7A JUMP JUMPDEST POP POP POP POP JUMP JUMPDEST PUSH2 0x283 PUSH2 0x2FA CALLDATASIZE PUSH1 0x4 PUSH2 0x790 JUMP JUMPDEST PUSH2 0x2DE PUSH2 0x47A CALLDATASIZE PUSH1 0x4 PUSH2 0xAB9 JUMP JUMPDEST POP SWAP2 SWAP1 POP JUMP JUMPDEST PUSH2 0x4BE PUSH2 0x48E CALLDATASIZE PUSH1 0x4 PUSH2 0x729 JUMP JUMPDEST POP PUSH1 0x40 DUP1 MLOAD PUSH1 0xA0 DUP2 ADD DUP3 MSTORE PUSH0 DUP1 DUP3 MSTORE PUSH1 0x20 DUP3 ADD DUP2 SWAP1 MSTORE SWAP2 DUP2 ADD DUP3 SWAP1 MSTORE PUSH1 0x60 DUP1 DUP3 ADD SWAP3 SWAP1 SWAP3 MSTORE PUSH1 0x80 DUP2 ADD SWAP2 SWAP1 SWAP2 MSTORE SWAP1 JUMP JUMPDEST PUSH1 0x40 MLOAD PUSH2 0x2B3 SWAP2 SWAP1 PUSH2 0xAF2 JUMP JUMPDEST PUSH2 0x283 PUSH2 0x27C CALLDATASIZE PUSH1 0x4 PUSH2 0xB6C JUMP JUMPDEST PUSH2 0x283 PUSH2 0x2D8 CALLDATASIZE PUSH1 0x4 PUSH2 0xBC1 JUMP JUMPDEST PUSH2 0x283 PUSH2 0x2D8 CALLDATASIZE PUSH1 0x4 PUSH2 0xC29 JUMP JUMPDEST PUSH2 0x283 PUSH2 0x27C CALLDATASIZE PUSH1 0x4 PUSH2 0xC67 JUMP JUMPDEST PUSH2 0x283 PUSH2 0x511 CALLDATASIZE PUSH1 0x4 PUSH2 0xCA0 JUMP JUMPDEST POP POP POP POP POP POP POP POP POP POP POP JUMP JUMPDEST PUSH2 0x283 PUSH2 0x2D8 CALLDATASIZE PUSH1 0x4 PUSH2 0xDB1 JUMP JUMPDEST PUSH2 0x549 PUSH2 0x53A CALLDATASIZE PUSH1 0x4 PUSH2 0x790 JUMP JUMPDEST PUSH0 DUP1 DUP1 DUP1 DUP1 DUP1 SWAP2 SWAP4 SWAP6 POP SWAP2 SWAP4 SWAP6 JUMP JUMPDEST PUSH1 0x40 DUP1 MLOAD SWAP7 DUP8 MSTORE PUSH1 0x20 DUP8 ADD SWAP6 SWAP1 SWAP6 MSTORE SWAP4 DUP6 ADD SWAP3 SWAP1 SWAP3 MSTORE PUSH1 0x60 DUP5 ADD MSTORE PUSH1 0x80 DUP4 ADD MSTORE PUSH1 0xA0 DUP3 ADD MSTORE PUSH1 0xC0 ADD PUSH2 0x2B3 JUMP JUMPDEST PUSH2 0x283 PUSH2 0x584 CALLDATASIZE PUSH1 0x4 PUSH2 0xDD9 JUMP JUMPDEST POP POP POP JUMP JUMPDEST PUSH1 0x60 PUSH1 0x40 MLOAD PUSH2 0x2B3 SWAP2 SWAP1 PUSH2 0xE13 JUMP JUMPDEST PUSH2 0x283 PUSH2 0x2D8 CALLDATASIZE PUSH1 0x4 PUSH2 0xECA JUMP JUMPDEST PUSH2 0x283 PUSH2 0x3E0 CALLDATASIZE PUSH1 0x4 PUSH2 0xFE7 JUMP JUMPDEST PUSH2 0x2DE PUSH2 0x5C2 CALLDATASIZE PUSH1 0x4 PUSH2 0x1042 JUMP JUMPDEST PUSH0 SWAP9 SWAP8 POP POP POP POP POP POP POP POP JUMP JUMPDEST PUSH2 0x283 PUSH2 0x2D8 CALLDATASIZE PUSH1 0x4 PUSH2 0x107F JUMP JUMPDEST SWAP2 SWAP1 POP JUMP JUMPDEST DUP1 CALLDATALOAD PUSH1 0x1 PUSH1 0x1 PUSH1 0xA0 SHL SUB DUP2 AND DUP2 EQ PUSH2 0x5DD JUMPI PUSH0 DUP1 REVERT JUMPDEST DUP1 CALLDATALOAD DUP1 ISZERO ISZERO DUP2 EQ PUSH2 0x5DD JUMPI PUSH0 DUP1 REVERT JUMPDEST PUSH0 DUP1 PUSH0 DUP1 PUSH0 PUSH1 0xA0 DUP7 DUP9 SUB SLT ISZERO PUSH2 0x61B JUMPI PUSH0 DUP1 REVERT JUMPDEST PUSH2 0x624 DUP7 PUSH2 0x5E2 JUMP JUMPDEST SWAP5 POP PUSH2 0x632 PUSH1 0x20 DUP8 ADD PUSH2 0x5E2 JUMP JUMPDEST SWAP4 POP PUSH2 0x640 PUSH1 0x40 DUP8 ADD PUSH2 0x5E2 JUMP JUMPDEST SWAP3 POP PUSH1 0x60 DUP7 ADD CALLDATALOAD SWAP2 POP PUSH2 0x655 PUSH1 0x80 DUP8 ADD PUSH2 0x5F8 JUMP JUMPDEST SWAP1 POP SWAP3 SWAP6 POP SWAP3 SWAP6 SWAP1 SWAP4 POP JUMP JUMPDEST DUP1 CALLDATALOAD PUSH2 0xFFFF DUP2 AND DUP2 EQ PUSH2 0x5DD JUMPI PUSH0 DUP1 REVERT JUMPDEST DUP1 CALLDATALOAD PUSH1 0xFF DUP2 AND DUP2 EQ PUSH2 0x5DD JUMPI PUSH0 DUP1 REVERT JUMPDEST PUSH0 DUP1 PUSH0 DUP1 PUSH0 DUP1 PUSH0 DUP1 PUSH2 0x100 DUP10 DUP12 SUB SLT ISZERO PUSH2 0x69A JUMPI PUSH0 DUP1 REVERT JUMPDEST PUSH2 0x6A3 DUP10 PUSH2 0x5E2 JUMP JUMPDEST SWAP8 POP PUSH1 0x20 DUP10 ADD CALLDATALOAD SWAP7 POP PUSH2 0x6B8 PUSH1 0x40 DUP11 ADD PUSH2 0x5E2 JUMP JUMPDEST SWAP6 POP PUSH2 0x6C6 PUSH1 0x60 DUP11 ADD PUSH2 0x661 JUMP JUMPDEST SWAP5 POP PUSH1 0x80 DUP10 ADD CALLDATALOAD SWAP4 POP PUSH2 0x6DB PUSH1 0xA0 DUP11 ADD PUSH2 0x672 JUMP JUMPDEST SWAP8 SWAP11 SWAP7 SWAP10 POP SWAP5 SWAP8 SWAP4 SWAP7 SWAP3 SWAP6 SWAP3 SWAP5 POP POP POP PUSH1 0xC0 DUP3 ADD CALLDATALOAD SWAP2 PUSH1 0xE0 ADD CALLDATALOAD SWAP1 JUMP JUMPDEST PUSH0 DUP1 PUSH1 0x40 DUP4 DUP6 SUB SLT ISZERO PUSH2 0x709 JUMPI PUSH0 DUP1 REVERT JUMPDEST PUSH2 0x712 DUP4 PUSH2 0x5E2 JUMP JUMPDEST SWAP2 POP PUSH2 0x720 PUSH1 0x20 DUP5 ADD PUSH2 0x5E2 JUMP JUMPDEST SWAP1 POP SWAP3 POP SWAP3 SWAP1 POP JUMP JUMPDEST PUSH0 PUSH1 0x20 DUP3 DUP5 SUB SLT ISZERO PUSH2 0x739 JUMPI PUSH0 DUP1 REVERT JUMPDEST PUSH2 0x742 DUP3 PUSH2 0x672 JUMP JUMPDEST SWAP4 SWAP3 POP POP POP JUMP JUMPDEST PUSH0 DUP1 PUSH0 PUSH1 0x60 DUP5 DUP7 SUB SLT ISZERO PUSH2 0x75B JUMPI PUSH0 DUP1 REVERT JUMPDEST PUSH2 0x764 DUP5 PUSH2 0x5E2 JUMP JUMPDEST SWAP6 PUSH1 0x20 DUP6 ADD CALLDATALOAD SWAP6 POP PUSH1 0x40 SWAP1 SWAP5 ADD CALLDATALOAD SWAP4 SWAP3 POP POP POP JUMP JUMPDEST PUSH0 PUSH1 0x20 DUP3 DUP5 SUB SLT ISZERO PUSH2 0x789 JUMPI PUSH0 DUP1 REVERT JUMPDEST POP CALLDATALOAD SWAP2 SWAP1 POP JUMP JUMPDEST PUSH0 PUSH1 0x20 DUP3 DUP5 SUB SLT ISZERO PUSH2 0x7A0 JUMPI PUSH0 DUP1 REVERT JUMPDEST PUSH2 0x742 DUP3 PUSH2 0x5E2 JUMP JUMPDEST DUP2 MLOAD MLOAD DUP2 MSTORE PUSH2 0x1E0 DUP2 ADD PUSH1 0x20 DUP4 ADD MLOAD PUSH2 0x7CD PUSH1 0x20 DUP5 ADD DUP3 PUSH1 0x1 PUSH1 0x1 PUSH1 0x80 SHL SUB AND SWAP1 MSTORE JUMP JUMPDEST POP PUSH1 0x40 DUP4 ADD MLOAD PUSH2 0x7E8 PUSH1 0x40 DUP5 ADD DUP3 PUSH1 0x1 PUSH1 0x1 PUSH1 0x80 SHL SUB AND SWAP1 MSTORE JUMP JUMPDEST POP PUSH1 0x60 DUP4 ADD MLOAD PUSH2 0x803 PUSH1 0x60 DUP5 ADD DUP3 PUSH1 0x1 PUSH1 0x1 PUSH1 0x80 SHL SUB AND SWAP1 MSTORE JUMP JUMPDEST POP PUSH1 0x80 DUP4 ADD MLOAD PUSH2 0x81E PUSH1 0x80 DUP5 ADD DUP3 PUSH1 0x1 PUSH1 0x1 PUSH1 0x80 SHL SUB AND SWAP1 MSTORE JUMP JUMPDEST POP PUSH1 0xA0 DUP4 ADD MLOAD PUSH2 0x839 PUSH1 0xA0 DUP5 ADD DUP3 PUSH1 0x1 PUSH1 0x1 PUSH1 0x80 SHL SUB AND SWAP1 MSTORE JUMP JUMPDEST POP PUSH1 0xC0 DUP4 ADD MLOAD PUSH2 0x852 PUSH1 0xC0 DUP5 ADD DUP3 PUSH5 0xFFFFFFFFFF AND SWAP1 MSTORE JUMP JUMPDEST POP PUSH1 0xE0 DUP4 ADD MLOAD PUSH2 0x868 PUSH1 0xE0 DUP5 ADD DUP3 PUSH2 0xFFFF AND SWAP1 MSTORE JUMP JUMPDEST POP PUSH2 0x100 DUP4 ADD MLOAD PUSH2 0x885 PUSH2 0x100 DUP5 ADD DUP3 PUSH1 0x1 PUSH1 0x1 PUSH1 0xA0 SHL SUB AND SWAP1 MSTORE JUMP JUMPDEST POP PUSH2 0x120 DUP4 ADD MLOAD PUSH2 0x8A2 PUSH2 0x120 DUP5 ADD DUP3 PUSH1 0x1 PUSH1 0x1 PUSH1 0xA0 SHL SUB AND SWAP1 MSTORE JUMP JUMPDEST POP PUSH2 0x140 DUP4 ADD MLOAD PUSH2 0x8BF PUSH2 0x140 DUP5 ADD DUP3 PUSH1 0x1 PUSH1 0x1 PUSH1 0xA0 SHL SUB AND SWAP1 MSTORE JUMP JUMPDEST POP PUSH2 0x160 DUP4 ADD MLOAD PUSH2 0x8DC PUSH2 0x160 DUP5 ADD DUP3 PUSH1 0x1 PUSH1 0x1 PUSH1 0xA0 SHL SUB AND SWAP1 MSTORE JUMP JUMPDEST POP PUSH2 0x180 DUP4 ADD MLOAD PUSH2 0x8F9 PUSH2 0x180 DUP5 ADD DUP3 PUSH1 0x1 PUSH1 0x1 PUSH1 0x80 SHL SUB AND SWAP1 MSTORE JUMP JUMPDEST POP PUSH2 0x1A0 DUP4 ADD MLOAD PUSH2 0x916 PUSH2 0x1A0 DUP5 ADD DUP3 PUSH1 0x1 PUSH1 0x1 PUSH1 0x80 SHL SUB AND SWAP1 MSTORE JUMP JUMPDEST POP PUSH2 0x1C0 DUP4 ADD MLOAD PUSH2 0x933 PUSH2 0x1C0 DUP5 ADD DUP3 PUSH1 0x1 PUSH1 0x1 PUSH1 0x80 SHL SUB AND SWAP1 MSTORE JUMP JUMPDEST POP SWAP3 SWAP2 POP POP JUMP JUMPDEST PUSH0 DUP1 DUP4 PUSH1 0x1F DUP5 ADD SLT PUSH2 0x94A JUMPI PUSH0 DUP1 REVERT JUMPDEST POP DUP2 CALLDATALOAD PUSH1 0x1 PUSH1 0x1 PUSH1 0x40 SHL SUB DUP2 GT ISZERO PUSH2 0x960 JUMPI PUSH0 DUP1 REVERT JUMPDEST PUSH1 0x20 DUP4 ADD SWAP2 POP DUP4 PUSH1 0x20 DUP3 DUP6 ADD ADD GT ISZERO PUSH2 0x977 JUMPI PUSH0 DUP1 REVERT JUMPDEST SWAP3 POP SWAP3 SWAP1 POP JUMP JUMPDEST PUSH0 DUP1 PUSH0 DUP1 PUSH0 DUP1 PUSH1 0xA0 DUP8 DUP10 SUB SLT ISZERO PUSH2 0x993 JUMPI PUSH0 DUP1 REVERT JUMPDEST PUSH2 0x99C DUP8 PUSH2 0x5E2 JUMP JUMPDEST SWAP6 POP PUSH2 0x9AA PUSH1 0x20 DUP9 ADD PUSH2 0x5E2 JUMP JUMPDEST SWAP5 POP PUSH1 0x40 DUP8 ADD CALLDATALOAD SWAP4 POP PUSH1 0x60 DUP8 ADD CALLDATALOAD PUSH1 0x1 PUSH1 0x1 PUSH1 0x40 SHL SUB DUP2 GT ISZERO PUSH2 0x9CB JUMPI PUSH0 DUP1 REVERT JUMPDEST PUSH2 0x9D7 DUP10 DUP3 DUP11 ADD PUSH2 0x93A JUMP JUMPDEST SWAP1 SWAP5 POP SWAP3 POP PUSH2 0x9EA SWAP1 POP PUSH1 0x80 DUP9 ADD PUSH2 0x661 JUMP JUMPDEST SWAP1 POP SWAP3 SWAP6 POP SWAP3 SWAP6 POP SWAP3 SWAP6 JUMP JUMPDEST PUSH0 PUSH1 0x20 DUP3 DUP5 SUB SLT ISZERO PUSH2 0xA06 JUMPI PUSH0 DUP1 REVERT JUMPDEST PUSH2 0x742 DUP3 PUSH2 0x661 JUMP JUMPDEST PUSH0 DUP1 PUSH0 DUP1 PUSH1 0x80 DUP6 DUP8 SUB SLT ISZERO PUSH2 0xA22 JUMPI PUSH0 DUP1 REVERT JUMPDEST PUSH2 0xA2B DUP6 PUSH2 0x5E2 JUMP JUMPDEST SWAP4 POP PUSH1 0x20 DUP6 ADD CALLDATALOAD SWAP3 POP PUSH1 0x40 DUP6 ADD CALLDATALOAD SWAP2 POP PUSH2 0xA47 PUSH1 0x60 DUP7 ADD PUSH2 0x5E2 JUMP JUMPDEST SWAP1 POP SWAP3 SWAP6 SWAP2 SWAP5 POP SWAP3 POP JUMP JUMPDEST PUSH0 DUP1 PUSH1 0x40 DUP4 DUP6 SUB SLT ISZERO PUSH2 0xA63 JUMPI PUSH0 DUP1 REVERT JUMPDEST PUSH2 0xA6C DUP4 PUSH2 0x5E2 JUMP JUMPDEST SWAP2 POP PUSH2 0x720 PUSH1 0x20 DUP5 ADD PUSH2 0x5F8 JUMP JUMPDEST PUSH0 DUP1 PUSH0 DUP1 PUSH1 0x80 DUP6 DUP8 SUB SLT ISZERO PUSH2 0xA8D JUMPI PUSH0 DUP1 REVERT JUMPDEST PUSH2 0xA96 DUP6 PUSH2 0x5E2 JUMP JUMPDEST SWAP4 POP PUSH1 0x20 DUP6 ADD CALLDATALOAD SWAP3 POP PUSH2 0xAAB PUSH1 0x40 DUP7 ADD PUSH2 0x5E2 JUMP JUMPDEST SWAP2 POP PUSH2 0xA47 PUSH1 0x60 DUP7 ADD PUSH2 0x661 JUMP JUMPDEST PUSH0 DUP1 PUSH0 PUSH1 0x60 DUP5 DUP7 SUB SLT ISZERO PUSH2 0xACB JUMPI PUSH0 DUP1 REVERT JUMPDEST PUSH2 0xAD4 DUP5 PUSH2 0x5E2 JUMP JUMPDEST SWAP3 POP PUSH1 0x20 DUP5 ADD CALLDATALOAD SWAP2 POP PUSH2 0xAE9 PUSH1 0x40 DUP6 ADD PUSH2 0x5E2 JUMP JUMPDEST SWAP1 POP SWAP3 POP SWAP3 POP SWAP3 JUMP JUMPDEST PUSH1 0x20 DUP2 MSTORE PUSH2 0xFFFF DUP3 MLOAD AND PUSH1 0x20 DUP3 ADD MSTORE PUSH2 0xFFFF PUSH1 0x20 DUP4 ADD MLOAD AND PUSH1 0x40 DUP3 ADD MSTORE PUSH2 0xFFFF PUSH1 0x40 DUP4 ADD MLOAD AND PUSH1 0x60 DUP3 ADD MSTORE PUSH1 0x1 DUP1 PUSH1 0xA0 SHL SUB PUSH1 0x60 DUP4 ADD MLOAD AND PUSH1 0x80 DUP3 ADD MSTORE PUSH0 PUSH1 0x80 DUP4 ADD MLOAD PUSH1 0xA0 DUP1 DUP5 ADD MSTORE DUP1 MLOAD DUP1 PUSH1 0xC0 DUP6 ADD MSTORE DUP1 PUSH1 0x20 DUP4 ADD PUSH1 0xE0 DUP7 ADD MCOPY PUSH0 PUSH1 0xE0 DUP3 DUP7 ADD ADD MSTORE PUSH1 0xE0 PUSH1 0x1F NOT PUSH1 0x1F DUP4 ADD AND DUP6 ADD ADD SWAP3 POP POP POP SWAP3 SWAP2 POP POP JUMP JUMPDEST PUSH0 DUP1 PUSH0 DUP1 PUSH0 PUSH1 0xA0 DUP7 DUP9 SUB SLT ISZERO PUSH2 0xB80 JUMPI PUSH0 DUP1 REVERT JUMPDEST PUSH2 0xB89 DUP7 PUSH2 0x5E2 JUMP JUMPDEST SWAP5 POP PUSH2 0xB97 PUSH1 0x20 DUP8 ADD PUSH2 0x5E2 JUMP JUMPDEST SWAP4 POP PUSH2 0xBA5 PUSH1 0x40 DUP8 ADD PUSH2 0x5E2 JUMP JUMPDEST SWAP3 POP PUSH2 0xBB3 PUSH1 0x60 DUP8 ADD PUSH2 0x5E2 JUMP JUMPDEST SWAP2 POP PUSH2 0x655 PUSH1 0x80 DUP8 ADD PUSH2 0x5E2 JUMP JUMPDEST PUSH0 DUP1 PUSH1 0x40 DUP4 DUP6 SUB SLT ISZERO PUSH2 0xBD2 JUMPI PUSH0 DUP1 REVERT JUMPDEST PUSH2 0xBDB DUP4 PUSH2 0x5E2 JUMP JUMPDEST SWAP5 PUSH1 0x20 SWAP4 SWAP1 SWAP4 ADD CALLDATALOAD SWAP4 POP POP POP JUMP JUMPDEST PUSH0 DUP1 DUP4 PUSH1 0x1F DUP5 ADD SLT PUSH2 0xBF9 JUMPI PUSH0 DUP1 REVERT JUMPDEST POP DUP2 CALLDATALOAD PUSH1 0x1 PUSH1 0x1 PUSH1 0x40 SHL SUB DUP2 GT ISZERO PUSH2 0xC0F JUMPI PUSH0 DUP1 REVERT JUMPDEST PUSH1 0x20 DUP4 ADD SWAP2 POP DUP4 PUSH1 0x20 DUP3 PUSH1 0x5 SHL DUP6 ADD ADD GT ISZERO PUSH2 0x977 JUMPI PUSH0 DUP1 REVERT JUMPDEST PUSH0 DUP1 PUSH1 0x20 DUP4 DUP6 SUB SLT ISZERO PUSH2 0xC3A JUMPI PUSH0 DUP1 REVERT JUMPDEST DUP3 CALLDATALOAD PUSH1 0x1 PUSH1 0x1 PUSH1 0x40 SHL SUB DUP2 GT ISZERO PUSH2 0xC4F JUMPI PUSH0 DUP1 REVERT JUMPDEST PUSH2 0xC5B DUP6 DUP3 DUP7 ADD PUSH2 0xBE9 JUMP JUMPDEST SWAP1 SWAP7 SWAP1 SWAP6 POP SWAP4 POP POP POP POP JUMP JUMPDEST PUSH0 DUP1 PUSH0 DUP1 PUSH0 PUSH1 0xA0 DUP7 DUP9 SUB SLT ISZERO PUSH2 0xC7B JUMPI PUSH0 DUP1 REVERT JUMPDEST PUSH2 0xC84 DUP7 PUSH2 0x5E2 JUMP JUMPDEST SWAP5 POP PUSH1 0x20 DUP7 ADD CALLDATALOAD SWAP4 POP PUSH1 0x40 DUP7 ADD CALLDATALOAD SWAP3 POP PUSH2 0xBB3 PUSH1 0x60 DUP8 ADD PUSH2 0x661 JUMP JUMPDEST PUSH0 DUP1 PUSH0 DUP1 PUSH0 DUP1 PUSH0 DUP1 PUSH0 DUP1 PUSH0 PUSH1 0xE0 DUP13 DUP15 SUB SLT ISZERO PUSH2 0xCBA JUMPI PUSH0 DUP1 REVERT JUMPDEST PUSH2 0xCC3 DUP13 PUSH2 0x5E2 JUMP JUMPDEST SWAP11 POP PUSH1 0x20 DUP13 ADD CALLDATALOAD PUSH1 0x1 PUSH1 0x1 PUSH1 0x40 SHL SUB DUP2 GT ISZERO PUSH2 0xCDD JUMPI PUSH0 DUP1 REVERT JUMPDEST PUSH2 0xCE9 DUP15 DUP3 DUP16 ADD PUSH2 0xBE9 JUMP JUMPDEST SWAP1 SWAP12 POP SWAP10 POP POP PUSH1 0x40 DUP13 ADD CALLDATALOAD PUSH1 0x1 PUSH1 0x1 PUSH1 0x40 SHL SUB DUP2 GT ISZERO PUSH2 0xD07 JUMPI PUSH0 DUP1 REVERT JUMPDEST PUSH2 0xD13 DUP15 DUP3 DUP16 ADD PUSH2 0xBE9 JUMP JUMPDEST SWAP1 SWAP10 POP SWAP8 POP POP PUSH1 0x60 DUP13 ADD CALLDATALOAD PUSH1 0x1 PUSH1 0x1 PUSH1 0x40 SHL SUB DUP2 GT ISZERO PUSH2 0xD31 JUMPI PUSH0 DUP1 REVERT JUMPDEST PUSH2 0xD3D DUP15 DUP3 DUP16 ADD PUSH2 0xBE9 JUMP JUMPDEST SWAP1 SWAP8 POP SWAP6 POP PUSH2 0xD50 SWAP1 POP PUSH1 0x80 DUP14 ADD PUSH2 0x5E2 JUMP JUMPDEST SWAP4 POP PUSH1 0xA0 DUP13 ADD CALLDATALOAD PUSH1 0x1 PUSH1 0x1 PUSH1 0x40 SHL SUB DUP2 GT ISZERO PUSH2 0xD6A JUMPI PUSH0 DUP1 REVERT JUMPDEST PUSH2 0xD76 DUP15 DUP3 DUP16 ADD PUSH2 0x93A JUMP JUMPDEST SWAP1 SWAP5 POP SWAP3 POP PUSH2 0xD89 SWAP1 POP PUSH1 0xC0 DUP14 ADD PUSH2 0x661 JUMP JUMPDEST SWAP1 POP SWAP3 SWAP6 SWAP9 SWAP12 POP SWAP3 SWAP6 SWAP9 SWAP12 SWAP1 SWAP4 SWAP7 SWAP10 POP JUMP JUMPDEST DUP1 CALLDATALOAD PUSH1 0x1 PUSH1 0x1 PUSH1 0x80 SHL SUB DUP2 AND DUP2 EQ PUSH2 0x5DD JUMPI PUSH0 DUP1 REVERT JUMPDEST PUSH0 DUP1 PUSH1 0x40 DUP4 DUP6 SUB SLT ISZERO PUSH2 0xDC2 JUMPI PUSH0 DUP1 REVERT JUMPDEST PUSH2 0xDCB DUP4 PUSH2 0xD9B JUMP JUMPDEST SWAP2 POP PUSH2 0x720 PUSH1 0x20 DUP5 ADD PUSH2 0xD9B JUMP JUMPDEST PUSH0 DUP1 PUSH0 PUSH1 0x60 DUP5 DUP7 SUB SLT ISZERO PUSH2 0xDEB JUMPI PUSH0 DUP1 REVERT JUMPDEST PUSH2 0xDF4 DUP5 PUSH2 0x5E2 JUMP JUMPDEST SWAP3 POP PUSH2 0xE02 PUSH1 0x20 DUP6 ADD PUSH2 0x5E2 JUMP JUMPDEST SWAP3 SWAP6 SWAP3 SWAP5 POP POP POP PUSH1 0x40 SWAP2 SWAP1 SWAP2 ADD CALLDATALOAD SWAP1 JUMP JUMPDEST PUSH1 0x20 DUP1 DUP3 MSTORE DUP3 MLOAD DUP3 DUP3 ADD DUP2 SWAP1 MSTORE PUSH0 SWAP2 DUP5 ADD SWAP1 PUSH1 0x40 DUP5 ADD SWAP1 DUP4 JUMPDEST DUP2 DUP2 LT ISZERO PUSH2 0xE53 JUMPI DUP4 MLOAD PUSH1 0x1 PUSH1 0x1 PUSH1 0xA0 SHL SUB AND DUP4 MSTORE PUSH1 0x20 SWAP4 DUP5 ADD SWAP4 SWAP1 SWAP3 ADD SWAP2 PUSH1 0x1 ADD PUSH2 0xE2C JUMP JUMPDEST POP SWAP1 SWAP6 SWAP5 POP POP POP POP POP JUMP JUMPDEST PUSH4 0x4E487B71 PUSH1 0xE0 SHL PUSH0 MSTORE PUSH1 0x41 PUSH1 0x4 MSTORE PUSH1 0x24 PUSH0 REVERT JUMPDEST PUSH1 0x40 MLOAD PUSH1 0xA0 DUP2 ADD PUSH1 0x1 PUSH1 0x1 PUSH1 0x40 SHL SUB DUP2 GT DUP3 DUP3 LT OR ISZERO PUSH2 0xE94 JUMPI PUSH2 0xE94 PUSH2 0xE5E JUMP JUMPDEST PUSH1 0x40 MSTORE SWAP1 JUMP JUMPDEST PUSH1 0x40 MLOAD PUSH1 0x1F DUP3 ADD PUSH1 0x1F NOT AND DUP2 ADD PUSH1 0x1 PUSH1 0x1 PUSH1 0x40 SHL SUB DUP2 GT DUP3 DUP3 LT OR ISZERO PUSH2 0xEC2 JUMPI PUSH2 0xEC2 PUSH2 0xE5E JUMP JUMPDEST PUSH1 0x40 MSTORE SWAP2 SWAP1 POP JUMP JUMPDEST PUSH0 DUP1 PUSH1 0x40 DUP4 DUP6 SUB SLT ISZERO PUSH2 0xEDB JUMPI PUSH0 DUP1 REVERT JUMPDEST PUSH2 0xEE4 DUP4 PUSH2 0x672 JUMP JUMPDEST SWAP2 POP PUSH1 0x20 DUP4 ADD CALLDATALOAD PUSH1 0x1 PUSH1 0x1 PUSH1 0x40 SHL SUB DUP2 GT ISZERO PUSH2 0xEFE JUMPI PUSH0 DUP1 REVERT JUMPDEST DUP4 ADD PUSH1 0xA0 DUP2 DUP7 SUB SLT ISZERO PUSH2 0xF0F JUMPI PUSH0 DUP1 REVERT JUMPDEST PUSH2 0xF17 PUSH2 0xE72 JUMP JUMPDEST PUSH2 0xF20 DUP3 PUSH2 0x661 JUMP JUMPDEST DUP2 MSTORE PUSH2 0xF2E PUSH1 0x20 DUP4 ADD PUSH2 0x661 JUMP JUMPDEST PUSH1 0x20 DUP3 ADD MSTORE PUSH2 0xF3F PUSH1 0x40 DUP4 ADD PUSH2 0x661 JUMP JUMPDEST PUSH1 0x40 DUP3 ADD MSTORE PUSH2 0xF50 PUSH1 0x60 DUP4 ADD PUSH2 0x5E2 JUMP JUMPDEST PUSH1 0x60 DUP3 ADD MSTORE PUSH1 0x80 DUP3 ADD CALLDATALOAD PUSH1 0x1 PUSH1 0x1 PUSH1 0x40 SHL SUB DUP2 GT ISZERO PUSH2 0xF6D JUMPI PUSH0 DUP1 REVERT JUMPDEST DUP1 DUP4 ADD SWAP3 POP POP DUP6 PUSH1 0x1F DUP4 ADD SLT PUSH2 0xF81 JUMPI PUSH0 DUP1 REVERT JUMPDEST DUP2 CALLDATALOAD PUSH1 0x1 PUSH1 0x1 PUSH1 0x40 SHL SUB DUP2 GT ISZERO PUSH2 0xF9A JUMPI PUSH2 0xF9A PUSH2 0xE5E JUMP JUMPDEST PUSH2 0xFAD PUSH1 0x1F DUP3 ADD PUSH1 0x1F NOT AND PUSH1 0x20 ADD PUSH2 0xE9A JUMP JUMPDEST DUP2 DUP2 MSTORE DUP8 PUSH1 0x20 DUP4 DUP7 ADD ADD GT ISZERO PUSH2 0xFC1 JUMPI PUSH0 DUP1 REVERT JUMPDEST DUP2 PUSH1 0x20 DUP6 ADD PUSH1 0x20 DUP4 ADD CALLDATACOPY PUSH0 PUSH1 0x20 DUP4 DUP4 ADD ADD MSTORE DUP1 PUSH1 0x80 DUP5 ADD MSTORE POP POP DUP1 SWAP3 POP POP POP SWAP3 POP SWAP3 SWAP1 POP JUMP JUMPDEST PUSH0 DUP1 PUSH0 DUP1 PUSH0 DUP1 PUSH1 0xC0 DUP8 DUP10 SUB SLT ISZERO PUSH2 0xFFC JUMPI PUSH0 DUP1 REVERT JUMPDEST PUSH2 0x1005 DUP8 PUSH2 0x5E2 JUMP JUMPDEST SWAP6 POP PUSH2 0x1013 PUSH1 0x20 DUP9 ADD PUSH2 0x5E2 JUMP JUMPDEST SWAP5 POP PUSH2 0x1021 PUSH1 0x40 DUP9 ADD PUSH2 0x5E2 JUMP JUMPDEST SWAP6 SWAP9 SWAP5 SWAP8 POP SWAP5 SWAP6 PUSH1 0x60 DUP2 ADD CALLDATALOAD SWAP6 POP PUSH1 0x80 DUP2 ADD CALLDATALOAD SWAP5 PUSH1 0xA0 SWAP1 SWAP2 ADD CALLDATALOAD SWAP4 POP SWAP2 POP POP JUMP JUMPDEST PUSH0 DUP1 PUSH0 DUP1 PUSH0 DUP1 PUSH0 DUP1 PUSH2 0x100 DUP10 DUP12 SUB SLT ISZERO PUSH2 0x105A JUMPI PUSH0 DUP1 REVERT JUMPDEST PUSH2 0x1063 DUP10 PUSH2 0x5E2 JUMP JUMPDEST SWAP8 POP PUSH1 0x20 DUP10 ADD CALLDATALOAD SWAP7 POP PUSH1 0x40 DUP10 ADD CALLDATALOAD SWAP6 POP PUSH2 0x6C6 PUSH1 0x60 DUP11 ADD PUSH2 0x5E2 JUMP JUMPDEST PUSH0 DUP1 DUP3 DUP5 SUB PUSH1 0x40 DUP2 SLT ISZERO PUSH2 0x1091 JUMPI PUSH0 DUP1 REVERT JUMPDEST PUSH2 0x109A DUP5 PUSH2 0x5E2 JUMP JUMPDEST SWAP3 POP PUSH1 0x20 PUSH1 0x1F NOT DUP3 ADD SLT ISZERO PUSH2 0x10AD JUMPI PUSH0 DUP1 REVERT JUMPDEST POP PUSH1 0x20 DUP4 ADD SWAP1 POP SWAP3 POP SWAP3 SWAP1 POP JUMP INVALID LOG2 PUSH5 0x6970667358 0x22 SLT KECCAK256 GASLIMIT PUSH13 0x2F2760C4D4A390A152E5952DDE CREATE2 0xDC STOP CREATE2 0xC1 0x27 0xA7 RETURNDATACOPY SUB 0xD8 PUSH11 0x76A059636E3364736F6C63 NUMBER STOP ADDMOD BYTE STOP CALLER "
				},
				"gasEstimates": {
					"creation": {
						"codeDepositCost": "867400",
						"executionCost": "877",
						"totalCost": "868277"
					},
					"external": {
						"ADDRESSES_PROVIDER()": "280",
						"BRIDGE_PROTOCOL_FEE()": "225",
						"FLASHLOAN_PREMIUM_TOTAL()": "288",
						"FLASHLOAN_PREMIUM_TO_PROTOCOL()": "308",
						"MAX_NUMBER_RESERVES()": "329",
						"MAX_STABLE_RATE_BORROW_SIZE_PERCENT()": "223",
						"backUnbacked(address,uint256,uint256)": "510",
						"borrow(address,uint256,uint256,uint16,address)": "infinite",
						"configureEModeCategory(uint8,(uint16,uint16,uint16,address,string))": "infinite",
						"deposit(address,uint256,address,uint16)": "infinite",
						"dropReserve(address)": "357",
						"finalizeTransfer(address,address,address,uint256,uint256,uint256)": "infinite",
						"flashLoan(address,address[],uint256[],uint256[],address,bytes,uint16)": "infinite",
						"flashLoanSimple(address,address,uint256,bytes,uint16)": "infinite",
						"getConfiguration(address)": "480",
						"getEModeCategoryData(uint8)": "infinite",
						"getReserveAddressById(uint16)": "440",
						"getReserveData(address)": "1762",
						"getReserveNormalizedIncome(address)": "507",
						"getReserveNormalizedVariableDebt(address)": "508",
						"getReservesList()": "infinite",
						"getUserAccountData(address)": "545",
						"getUserConfiguration(address)": "459",
						"getUserEMode(address)": "440",
						"initReserve(address,address,address,address,address)": "infinite",
						"liquidationCall(address,address,address,uint256,bool)": "infinite",
						"mintToTreasury(address[])": "547",
						"mintUnbacked(address,uint256,address,uint16)": "infinite",
						"rebalanceStableBorrowRate(address,address)": "infinite",
						"repay(address,uint256,uint256,address)": "infinite",
						"repayWithATokens(address,uint256,uint256)": "489",
						"repayWithPermit(address,uint256,uint256,address,uint256,uint8,bytes32,bytes32)": "infinite",
						"rescueTokens(address,address,uint256)": "infinite",
						"resetIsolationModeTotalDebt(address)": "423",
						"setConfiguration(address,(uint256))": "487",
						"setReserveInterestRateStrategyAddress(address,address)": "infinite",
						"setUserEMode(uint8)": "346",
						"setUserUseReserveAsCollateral(address,bool)": "infinite",
						"supply(address,uint256,address,uint16)": "infinite",
						"supplyWithPermit(address,uint256,address,uint16,uint256,uint8,bytes32,bytes32)": "infinite",
						"swapBorrowRateMode(address,uint256)": "381",
						"updateBridgeProtocolFee(uint256)": "321",
						"updateFlashloanPremiums(uint128,uint128)": "infinite",
						"withdraw(address,uint256,address)": "infinite"
					}
				},
				"methodIdentifiers": {
					"ADDRESSES_PROVIDER()": "0542975c",
					"BRIDGE_PROTOCOL_FEE()": "272d9072",
					"FLASHLOAN_PREMIUM_TOTAL()": "074b2e43",
					"FLASHLOAN_PREMIUM_TO_PROTOCOL()": "6a99c036",
					"MAX_NUMBER_RESERVES()": "f8119d51",
					"MAX_STABLE_RATE_BORROW_SIZE_PERCENT()": "e82fec2f",
					"backUnbacked(address,uint256,uint256)": "d65dc7a1",
					"borrow(address,uint256,uint256,uint16,address)": "a415bcad",
					"configureEModeCategory(uint8,(uint16,uint16,uint16,address,string))": "d579ea7d",
					"deposit(address,uint256,address,uint16)": "e8eda9df",
					"dropReserve(address)": "63c9b860",
					"finalizeTransfer(address,address,address,uint256,uint256,uint256)": "d5ed3933",
					"flashLoan(address,address[],uint256[],uint256[],address,bytes,uint16)": "ab9c4b5d",
					"flashLoanSimple(address,address,uint256,bytes,uint16)": "42b0b77c",
					"getConfiguration(address)": "c44b11f7",
					"getEModeCategoryData(uint8)": "6c6f6ae1",
					"getReserveAddressById(uint16)": "52751797",
					"getReserveData(address)": "35ea6a75",
					"getReserveNormalizedIncome(address)": "d15e0053",
					"getReserveNormalizedVariableDebt(address)": "386497fd",
					"getReservesList()": "d1946dbc",
					"getUserAccountData(address)": "bf92857c",
					"getUserConfiguration(address)": "4417a583",
					"getUserEMode(address)": "eddf1b79",
					"initReserve(address,address,address,address,address)": "7a708e92",
					"liquidationCall(address,address,address,uint256,bool)": "00a718a9",
					"mintToTreasury(address[])": "9cd19996",
					"mintUnbacked(address,uint256,address,uint16)": "69a933a5",
					"rebalanceStableBorrowRate(address,address)": "cd112382",
					"repay(address,uint256,uint256,address)": "573ade81",
					"repayWithATokens(address,uint256,uint256)": "2dad97d4",
					"repayWithPermit(address,uint256,uint256,address,uint256,uint8,bytes32,bytes32)": "ee3e210b",
					"rescueTokens(address,address,uint256)": "cea9d26f",
					"resetIsolationModeTotalDebt(address)": "e43e88a1",
					"setConfiguration(address,(uint256))": "f51e435b",
					"setReserveInterestRateStrategyAddress(address,address)": "1d2118f9",
					"setUserEMode(uint8)": "28530a47",
					"setUserUseReserveAsCollateral(address,bool)": "5a3b74b9",
					"supply(address,uint256,address,uint16)": "617ba037",
					"supplyWithPermit(address,uint256,address,uint16,uint256,uint8,bytes32,bytes32)": "02c205f0",
					"swapBorrowRateMode(address,uint256)": "94ba89a2",
					"updateBridgeProtocolFee(uint256)": "3036b439",
					"updateFlashloanPremiums(uint128,uint128)": "bcb6e522",
					"withdraw(address,uint256,address)": "69328dec"
				}
			},
			"storageLayout": {
				"storage": [],
				"types": null
			},
			"userdoc": {
				"kind": "user",
				"methods": {
					"ADDRESSES_PROVIDER()": {
						"notice": "Returns the PoolAddressesProvider connected to this contract"
					},
					"BRIDGE_PROTOCOL_FEE()": {
						"notice": "Returns the part of the bridge fees sent to protocol"
					},
					"FLASHLOAN_PREMIUM_TOTAL()": {
						"notice": "Returns the total fee on flash loans"
					},
					"FLASHLOAN_PREMIUM_TO_PROTOCOL()": {
						"notice": "Returns the part of the flashloan fees sent to protocol"
					},
					"MAX_NUMBER_RESERVES()": {
						"notice": "Returns the maximum number of reserves supported to be listed in this Pool"
					},
					"MAX_STABLE_RATE_BORROW_SIZE_PERCENT()": {
						"notice": "Returns the percentage of available liquidity that can be borrowed at once at stable rate"
					},
					"backUnbacked(address,uint256,uint256)": {
						"notice": "Back the current unbacked underlying with `amount` and pay `fee`."
					},
					"borrow(address,uint256,uint256,uint16,address)": {
						"notice": "Allows users to borrow a specific `amount` of the reserve underlying asset, provided that the borrower already supplied enough collateral, or he was given enough allowance by a credit delegator on the corresponding debt token (StableDebtToken or VariableDebtToken) - E.g. User borrows 100 USDC passing as `onBehalfOf` his own address, receiving the 100 USDC in his wallet   and 100 stable/variable debt tokens, depending on the `interestRateMode`"
					},
					"configureEModeCategory(uint8,(uint16,uint16,uint16,address,string))": {
						"notice": "Configures a new category for the eMode."
					},
					"deposit(address,uint256,address,uint16)": {
						"notice": "Supplies an `amount` of underlying asset into the reserve, receiving in return overlying aTokens. - E.g. User supplies 100 USDC and gets in return 100 aUSDC"
					},
					"dropReserve(address)": {
						"notice": "Drop a reserve"
					},
					"finalizeTransfer(address,address,address,uint256,uint256,uint256)": {
						"notice": "Validates and finalizes an aToken transfer"
					},
					"flashLoan(address,address[],uint256[],uint256[],address,bytes,uint16)": {
						"notice": "Allows smartcontracts to access the liquidity of the pool within one transaction, as long as the amount taken plus a fee is returned."
					},
					"flashLoanSimple(address,address,uint256,bytes,uint16)": {
						"notice": "Allows smartcontracts to access the liquidity of the pool within one transaction, as long as the amount taken plus a fee is returned."
					},
					"getConfiguration(address)": {
						"notice": "Returns the configuration of the reserve"
					},
					"getEModeCategoryData(uint8)": {
						"notice": "Returns the data of an eMode category"
					},
					"getReserveAddressById(uint16)": {
						"notice": "Returns the address of the underlying asset of a reserve by the reserve id as stored in the DataTypes.ReserveData struct"
					},
					"getReserveData(address)": {
						"notice": "Returns the state and configuration of the reserve"
					},
					"getReserveNormalizedIncome(address)": {
						"notice": "Returns the normalized income of the reserve"
					},
					"getReserveNormalizedVariableDebt(address)": {
						"notice": "Returns the normalized variable debt per unit of asset"
					},
					"getReservesList()": {
						"notice": "Returns the list of the underlying assets of all the initialized reserves"
					},
					"getUserAccountData(address)": {
						"notice": "Returns the user account data across all the reserves"
					},
					"getUserConfiguration(address)": {
						"notice": "Returns the configuration of the user across all the reserves"
					},
					"getUserEMode(address)": {
						"notice": "Returns the eMode the user is using"
					},
					"initReserve(address,address,address,address,address)": {
						"notice": "Initializes a reserve, activating it, assigning an aToken and debt tokens and an interest rate strategy"
					},
					"liquidationCall(address,address,address,uint256,bool)": {
						"notice": "Function to liquidate a non-healthy position collateral-wise, with Health Factor below 1 - The caller (liquidator) covers `debtToCover` amount of debt of the user getting liquidated, and receives   a proportionally amount of the `collateralAsset` plus a bonus to cover market risk"
					},
					"mintToTreasury(address[])": {
						"notice": "Mints the assets accrued through the reserve factor to the treasury in the form of aTokens"
					},
					"mintUnbacked(address,uint256,address,uint16)": {
						"notice": "Mints an `amount` of aTokens to the `onBehalfOf`"
					},
					"rebalanceStableBorrowRate(address,address)": {
						"notice": "Rebalances the stable interest rate of a user to the current stable rate defined on the reserve. - Users can be rebalanced if the following conditions are satisfied:     1. Usage ratio is above 95%     2. the current supply APY is below REBALANCE_UP_THRESHOLD * maxVariableBorrowRate, which means that too        much has been borrowed at a stable rate and suppliers are not earning enough"
					},
					"repay(address,uint256,uint256,address)": {
						"notice": "Repays a borrowed `amount` on a specific reserve, burning the equivalent debt tokens owned - E.g. User repays 100 USDC, burning 100 variable/stable debt tokens of the `onBehalfOf` address"
					},
					"repayWithATokens(address,uint256,uint256)": {
						"notice": "Repays a borrowed `amount` on a specific reserve using the reserve aTokens, burning the equivalent debt tokens - E.g. User repays 100 USDC using 100 aUSDC, burning 100 variable/stable debt tokens"
					},
					"repayWithPermit(address,uint256,uint256,address,uint256,uint8,bytes32,bytes32)": {
						"notice": "Repay with transfer approval of asset to be repaid done via permit function see: https://eips.ethereum.org/EIPS/eip-2612 and https://eips.ethereum.org/EIPS/eip-713"
					},
					"rescueTokens(address,address,uint256)": {
						"notice": "Rescue and transfer tokens locked in this contract"
					},
					"resetIsolationModeTotalDebt(address)": {
						"notice": "Resets the isolation mode total debt of the given asset to zero"
					},
					"setConfiguration(address,(uint256))": {
						"notice": "Sets the configuration bitmap of the reserve as a whole"
					},
					"setReserveInterestRateStrategyAddress(address,address)": {
						"notice": "Updates the address of the interest rate strategy contract"
					},
					"setUserEMode(uint8)": {
						"notice": "Allows a user to use the protocol in eMode"
					},
					"setUserUseReserveAsCollateral(address,bool)": {
						"notice": "Allows suppliers to enable/disable a specific supplied asset as collateral"
					},
					"supply(address,uint256,address,uint16)": {
						"notice": "Supplies an `amount` of underlying asset into the reserve, receiving in return overlying aTokens. - E.g. User supplies 100 USDC and gets in return 100 aUSDC"
					},
					"supplyWithPermit(address,uint256,address,uint16,uint256,uint8,bytes32,bytes32)": {
						"notice": "Supply with transfer approval of asset to be supplied done via permit function see: https://eips.ethereum.org/EIPS/eip-2612 and https://eips.ethereum.org/EIPS/eip-713"
					},
					"swapBorrowRateMode(address,uint256)": {
						"notice": "Allows a borrower to swap his debt between stable and variable mode, or vice versa"
					},
					"updateBridgeProtocolFee(uint256)": {
						"notice": "Updates the protocol fee on the bridging"
					},
					"updateFlashloanPremiums(uint128,uint128)": {
						"notice": "Updates flash loan premiums. Flash loan premium consists of two parts: - A part is sent to aToken holders as extra, one time accumulated interest - A part is collected by the protocol treasury"
					},
					"withdraw(address,uint256,address)": {
						"notice": "Withdraws an `amount` of underlying asset from the reserve, burning the equivalent aTokens owned E.g. User has 100 aUSDC, calls withdraw() and receives 100 USDC, burning the 100 aUSDC"
					}
				},
				"version": 1
			}
		}
	}
}