{
	"MockSwapRouter.sol": {
		"MockSwapRouter": {
			"abi": [
				{
					"inputs": [],
					"stateMutability": "payable",
					"type": "constructor"
				},
				{
					"inputs": [
						{
							"components": [
								{
									"internalType": "bytes",
									"name": "path",
									"type": "bytes"
								},
								{
									"internalType": "address",
									"name": "recipient",
									"type": "address"
								},
								{
									"internalType": "uint256",
									"name": "deadline",
									"type": "uint256"
								},
								{
									"internalType": "uint256",
									"name": "amountIn",
									"type": "uint256"
								},
								{
									"internalType": "uint256",
									"name": "amountOutMinimum",
									"type": "uint256"
								}
							],
							"internalType": "struct ISwapRouter.ExactInputParams",
							"name": "params",
							"type": "tuple"
						}
					],
					"name": "exactInput",
					"outputs": [
						{
							"internalType": "uint256",
							"name": "amountOut",
							"type": "uint256"
						}
					],
					"stateMutability": "payable",
					"type": "function"
				},
				{
					"inputs": [
						{
							"components": [
								{
									"internalType": "address",
									"name": "tokenIn",
									"type": "address"
								},
								{
									"internalType": "address",
									"name": "tokenOut",
									"type": "address"
								},
								{
									"internalType": "uint24",
									"name": "fee",
									"type": "uint24"
								},
								{
									"internalType": "address",
									"name": "recipient",
									"type": "address"
								},
								{
									"internalType": "uint256",
									"name": "deadline",
									"type": "uint256"
								},
								{
									"internalType": "uint256",
									"name": "amountIn",
									"type": "uint256"
								},
								{
									"internalType": "uint256",
									"name": "amountOutMinimum",
									"type": "uint256"
								},
								{
									"internalType": "uint160",
									"name": "sqrtPriceLimitX96",
									"type": "uint160"
								}
							],
							"internalType": "struct ISwapRouter.ExactInputSingleParams",
							"name": "params",
							"type": "tuple"
						}
					],
					"name": "exactInputSingle",
					"outputs": [
						{
							"internalType": "uint256",
							"name": "amountOut",
							"type": "uint256"
						}
					],
					"stateMutability": "payable",
					"type": "function"
				},
				{
					"inputs": [
						{
							"components": [
								{
									"internalType": "bytes",
									"name": "path",
									"type": "bytes"
								},
								{
									"internalType": "address",
									"name": "recipient",
									"type": "address"
								},
								{
									"internalType": "uint256",
									"name": "deadline",
									"type": "uint256"
								},
								{
									"internalType": "uint256",
									"name": "amountOut",
									"type": "uint256"
								},
								{
									"internalType": "uint256",
									"name": "amountInMaximum",
									"type": "uint256"
								}
							],
							"internalType": "struct ISwapRouter.ExactOutputParams",
							"name": "params",
							"type": "tuple"
						}
					],
					"name": "exactOutput",
					"outputs": [
						{
							"internalType": "uint256",
							"name": "amountIn",
							"type": "uint256"
						}
					],
					"stateMutability": "payable",
					"type": "function"
				},
				{
					"inputs": [
						{
							"components": [
								{
									"internalType": "address",
									"name": "tokenIn",
									"type": "address"
								},
								{
									"internalType": "address",
									"name": "tokenOut",
									"type": "address"
								},
								{
									"internalType": "uint24",
									"name": "fee",
									"type": "uint24"
								},
								{
									"internalType": "address",
									"name": "recipient",
									"type": "address"
								},
								{
									"internalType": "uint256",
									"name": "deadline",
									"type": "uint256"
								},
								{
									"internalType": "uint256",
									"name": "amountOut",
									"type": "uint256"
								},
								{
									"internalType": "uint256",
									"name": "amountInMaximum",
									"type": "uint256"
								},
								{
									"internalType": "uint160",
									"name": "sqrtPriceLimitX96",
									"type": "uint160"
								}
							],
							"internalType": "struct ISwapRouter.ExactOutputSingleParams",
							"name": "params",
							"type": "tuple"
						}
					],
					"name": "exactOutputSingle",
					"outputs": [
						{
							"internalType": "uint256",
							"name": "amountIn",
							"type": "uint256"
						}
					],
					"stateMutability": "payable",
					"type": "function"
				},
				{
					"inputs": [
						{
							"internalType": "int256",
							"name": "amount0Delta",
							"type": "int256"
						},
						{
							"internalType": "int256",
							"name": "amount1Delta",
							"type": "int256"
						},
						{
							"internalType": "bytes",
							"name": "data",
							"type": "bytes"
						}
					],
					"name": "uniswapV3SwapCallback",
					"outputs": [],
					"stateMutability": "nonpayable",
					"type": "function"
				}
			],
			"devdoc": {
				"kind": "dev",
				"methods": {
					"exactInput((bytes,address,uint256,uint256,uint256))": {
						"params": {
							"params": "The parameters necessary for the multi-hop swap, encoded as `ExactInputParams` in calldata"
						},
						"returns": {
							"amountOut": "The amount of the received token"
						}
					},
					"exactInputSingle((address,address,uint24,address,uint256,uint256,uint256,uint160))": {
						"params": {
							"params": "The parameters necessary for the swap, encoded as `ExactInputSingleParams` in calldata"
						},
						"returns": {
							"amountOut": "The amount of the received token"
						}
					},
					"exactOutput((bytes,address,uint256,uint256,uint256))": {
						"params": {
							"params": "The parameters necessary for the multi-hop swap, encoded as `ExactOutputParams` in calldata"
						},
						"returns": {
							"amountIn": "The amount of the input token"
						}
					},
					"exactOutputSingle((address,address,uint24,address,uint256,uint256,uint256,uint160))": {
						"params": {
							"params": "The parameters necessary for the swap, encoded as `ExactOutputSingleParams` in calldata"
						},
						"returns": {
							"amountIn": "The amount of the input token"
						}
					},
					"uniswapV3SwapCallback(int256,int256,bytes)": {
						"details": "In the implementation you must pay the pool tokens owed for the swap. The caller of this method must be checked to be a UniswapV3Pool deployed by the canonical UniswapV3Factory. amount0Delta and amount1Delta can both be 0 if no tokens were swapped.",
						"params": {
							"amount0Delta": "The amount of token0 that was sent (negative) or must be received (positive) by the pool by the end of the swap. If positive, the callback must send that amount of token0 to the pool.",
							"amount1Delta": "The amount of token1 that was sent (negative) or must be received (positive) by the pool by the end of the swap. If positive, the callback must send that amount of token1 to the pool.",
							"data": "Any data passed through by the caller via the IUniswapV3PoolActions#swap call"
						}
					}
				},
				"version": 1
			},
			"evm": {
				"assembly": "    /* \"MockSwapRouter.sol\":348:1221  contract MockSwapRouter is ISwapRouter {... */\n  mstore(0x40, 0x80)\n  dataSize(sub_0)\n  dup1\n  dataOffset(sub_0)\n  0x00\n  codecopy\n  0x00\n  return\nstop\n\nsub_0: assembly {\n        /* \"MockSwapRouter.sol\":348:1221  contract MockSwapRouter is ISwapRouter {... */\n      mstore(0x40, 0x80)\n      jumpi(tag_1, lt(calldatasize, 0x04))\n      shr(0xe0, calldataload(0x00))\n      dup1\n      0x414bf389\n      eq\n      tag_2\n      jumpi\n      dup1\n      0xc04b8d59\n      eq\n      tag_3\n      jumpi\n      dup1\n      0xdb3e2198\n      eq\n      tag_4\n      jumpi\n      dup1\n      0xf28c0498\n      eq\n      tag_5\n      jumpi\n      dup1\n      0xfa461e33\n      eq\n      tag_6\n      jumpi\n    tag_1:\n      0x00\n      dup1\n      revert\n        /* \"MockSwapRouter.sol\":573:746  function exactInputSingle(... */\n    tag_2:\n      tag_7\n      0x04\n      dup1\n      calldatasize\n      sub\n      dup2\n      add\n      swap1\n      tag_8\n      swap2\n      swap1\n      tag_9\n      jump\t// in\n    tag_8:\n      tag_10\n      jump\t// in\n    tag_7:\n      mload(0x40)\n      tag_11\n      swap2\n      swap1\n      tag_12\n      jump\t// in\n    tag_11:\n      mload(0x40)\n      dup1\n      swap2\n      sub\n      swap1\n      return\n        /* \"MockSwapRouter.sol\":752:899  function exactInput(... */\n    tag_3:\n      tag_13\n      0x04\n      dup1\n      calldatasize\n      sub\n      dup2\n      add\n      swap1\n      tag_14\n      swap2\n      swap1\n      tag_15\n      jump\t// in\n    tag_14:\n      tag_16\n      jump\t// in\n    tag_13:\n      mload(0x40)\n      tag_17\n      swap2\n      swap1\n      tag_12\n      jump\t// in\n    tag_17:\n      mload(0x40)\n      dup1\n      swap2\n      sub\n      swap1\n      return\n        /* \"MockSwapRouter.sol\":905:1065  function exactOutputSingle(... */\n    tag_4:\n      tag_18\n      0x04\n      dup1\n      calldatasize\n      sub\n      dup2\n      add\n      swap1\n      tag_19\n      swap2\n      swap1\n      tag_20\n      jump\t// in\n    tag_19:\n      tag_21\n      jump\t// in\n    tag_18:\n      mload(0x40)\n      tag_22\n      swap2\n      swap1\n      tag_12\n      jump\t// in\n    tag_22:\n      mload(0x40)\n      dup1\n      swap2\n      sub\n      swap1\n      return\n        /* \"MockSwapRouter.sol\":1071:1219  function exactOutput(... */\n    tag_5:\n      tag_23\n      0x04\n      dup1\n      calldatasize\n      sub\n      dup2\n      add\n      swap1\n      tag_24\n      swap2\n      swap1\n      tag_25\n      jump\t// in\n    tag_24:\n      tag_26\n      jump\t// in\n    tag_23:\n      mload(0x40)\n      tag_27\n      swap2\n      swap1\n      tag_12\n      jump\t// in\n    tag_27:\n      mload(0x40)\n      dup1\n      swap2\n      sub\n      swap1\n      return\n        /* \"MockSwapRouter.sol\":423:567  function uniswapV3SwapCallback(... */\n    tag_6:\n      callvalue\n      dup1\n      iszero\n      tag_28\n      jumpi\n      0x00\n      dup1\n      revert\n    tag_28:\n      pop\n      tag_29\n      0x04\n      dup1\n      calldatasize\n      sub\n      dup2\n      add\n      swap1\n      tag_30\n      swap2\n      swap1\n      tag_31\n      jump\t// in\n    tag_30:\n      tag_32\n      jump\t// in\n    tag_29:\n      stop\n        /* \"MockSwapRouter.sol\":573:746  function exactInputSingle(... */\n    tag_10:\n        /* \"MockSwapRouter.sol\":688:705  uint256 amountOut */\n      0x00\n        /* \"MockSwapRouter.sol\":724:730  params */\n      dup2\n        /* \"MockSwapRouter.sol\":724:739  params.amountIn */\n      0xa0\n      add\n      calldataload\n        /* \"MockSwapRouter.sol\":717:739  return params.amountIn */\n      swap1\n      pop\n        /* \"MockSwapRouter.sol\":573:746  function exactInputSingle(... */\n      swap2\n      swap1\n      pop\n      jump\t// out\n        /* \"MockSwapRouter.sol\":752:899  function exactInput(... */\n    tag_16:\n        /* \"MockSwapRouter.sol\":855:872  uint256 amountOut */\n      0x00\n        /* \"MockSwapRouter.sol\":752:899  function exactInput(... */\n      swap2\n      swap1\n      pop\n      jump\t// out\n        /* \"MockSwapRouter.sol\":905:1065  function exactOutputSingle(... */\n    tag_21:\n        /* \"MockSwapRouter.sol\":1022:1038  uint256 amountIn */\n      0x00\n        /* \"MockSwapRouter.sol\":905:1065  function exactOutputSingle(... */\n      swap2\n      swap1\n      pop\n      jump\t// out\n        /* \"MockSwapRouter.sol\":1071:1219  function exactOutput(... */\n    tag_26:\n        /* \"MockSwapRouter.sol\":1176:1192  uint256 amountIn */\n      0x00\n        /* \"MockSwapRouter.sol\":1071:1219  function exactOutput(... */\n      swap2\n      swap1\n      pop\n      jump\t// out\n        /* \"MockSwapRouter.sol\":423:567  function uniswapV3SwapCallback(... */\n    tag_32:\n      pop\n      pop\n      pop\n      pop\n      jump\t// out\n        /* \"#utility.yul\":88:205   */\n    tag_39:\n        /* \"#utility.yul\":197:198   */\n      0x00\n        /* \"#utility.yul\":194:195   */\n      dup1\n        /* \"#utility.yul\":187:199   */\n      revert\n        /* \"#utility.yul\":211:328   */\n    tag_40:\n        /* \"#utility.yul\":320:321   */\n      0x00\n        /* \"#utility.yul\":317:318   */\n      dup1\n        /* \"#utility.yul\":310:322   */\n      revert\n        /* \"#utility.yul\":334:451   */\n    tag_41:\n        /* \"#utility.yul\":443:444   */\n      0x00\n        /* \"#utility.yul\":440:441   */\n      dup1\n        /* \"#utility.yul\":433:445   */\n      revert\n        /* \"#utility.yul\":506:752   */\n    tag_42:\n        /* \"#utility.yul\":593:598   */\n      0x00\n        /* \"#utility.yul\":634:637   */\n      0x0100\n        /* \"#utility.yul\":625:631   */\n      dup3\n        /* \"#utility.yul\":620:623   */\n      dup5\n        /* \"#utility.yul\":616:632   */\n      sub\n        /* \"#utility.yul\":612:638   */\n      slt\n        /* \"#utility.yul\":609:722   */\n      iszero\n      tag_61\n      jumpi\n        /* \"#utility.yul\":641:720   */\n      tag_62\n      tag_41\n      jump\t// in\n    tag_62:\n        /* \"#utility.yul\":609:722   */\n    tag_61:\n        /* \"#utility.yul\":740:746   */\n      dup2\n        /* \"#utility.yul\":731:746   */\n      swap1\n      pop\n        /* \"#utility.yul\":506:752   */\n      swap3\n      swap2\n      pop\n      pop\n      jump\t// out\n        /* \"#utility.yul\":758:1170   */\n    tag_9:\n        /* \"#utility.yul\":858:864   */\n      0x00\n        /* \"#utility.yul\":907:910   */\n      0x0100\n        /* \"#utility.yul\":895:904   */\n      dup3\n        /* \"#utility.yul\":886:893   */\n      dup5\n        /* \"#utility.yul\":882:905   */\n      sub\n        /* \"#utility.yul\":878:911   */\n      slt\n        /* \"#utility.yul\":875:995   */\n      iszero\n      tag_64\n      jumpi\n        /* \"#utility.yul\":914:993   */\n      tag_65\n      tag_39\n      jump\t// in\n    tag_65:\n        /* \"#utility.yul\":875:995   */\n    tag_64:\n        /* \"#utility.yul\":1034:1035   */\n      0x00\n        /* \"#utility.yul\":1059:1153   */\n      tag_66\n        /* \"#utility.yul\":1145:1152   */\n      dup5\n        /* \"#utility.yul\":1136:1142   */\n      dup3\n        /* \"#utility.yul\":1125:1134   */\n      dup6\n        /* \"#utility.yul\":1121:1143   */\n      add\n        /* \"#utility.yul\":1059:1153   */\n      tag_42\n      jump\t// in\n    tag_66:\n        /* \"#utility.yul\":1049:1153   */\n      swap2\n      pop\n        /* \"#utility.yul\":1005:1163   */\n      pop\n        /* \"#utility.yul\":758:1170   */\n      swap3\n      swap2\n      pop\n      pop\n      jump\t// out\n        /* \"#utility.yul\":1176:1253   */\n    tag_43:\n        /* \"#utility.yul\":1213:1220   */\n      0x00\n        /* \"#utility.yul\":1242:1247   */\n      dup2\n        /* \"#utility.yul\":1231:1247   */\n      swap1\n      pop\n        /* \"#utility.yul\":1176:1253   */\n      swap2\n      swap1\n      pop\n      jump\t// out\n        /* \"#utility.yul\":1259:1377   */\n    tag_44:\n        /* \"#utility.yul\":1346:1370   */\n      tag_69\n        /* \"#utility.yul\":1364:1369   */\n      dup2\n        /* \"#utility.yul\":1346:1370   */\n      tag_43\n      jump\t// in\n    tag_69:\n        /* \"#utility.yul\":1341:1344   */\n      dup3\n        /* \"#utility.yul\":1334:1371   */\n      mstore\n        /* \"#utility.yul\":1259:1377   */\n      pop\n      pop\n      jump\t// out\n        /* \"#utility.yul\":1383:1605   */\n    tag_12:\n        /* \"#utility.yul\":1476:1480   */\n      0x00\n        /* \"#utility.yul\":1514:1516   */\n      0x20\n        /* \"#utility.yul\":1503:1512   */\n      dup3\n        /* \"#utility.yul\":1499:1517   */\n      add\n        /* \"#utility.yul\":1491:1517   */\n      swap1\n      pop\n        /* \"#utility.yul\":1527:1598   */\n      tag_71\n        /* \"#utility.yul\":1595:1596   */\n      0x00\n        /* \"#utility.yul\":1584:1593   */\n      dup4\n        /* \"#utility.yul\":1580:1597   */\n      add\n        /* \"#utility.yul\":1571:1577   */\n      dup5\n        /* \"#utility.yul\":1527:1598   */\n      tag_44\n      jump\t// in\n    tag_71:\n        /* \"#utility.yul\":1383:1605   */\n      swap3\n      swap2\n      pop\n      pop\n      jump\t// out\n        /* \"#utility.yul\":1654:1894   */\n    tag_45:\n        /* \"#utility.yul\":1735:1740   */\n      0x00\n        /* \"#utility.yul\":1776:1779   */\n      0xa0\n        /* \"#utility.yul\":1767:1773   */\n      dup3\n        /* \"#utility.yul\":1762:1765   */\n      dup5\n        /* \"#utility.yul\":1758:1774   */\n      sub\n        /* \"#utility.yul\":1754:1780   */\n      slt\n        /* \"#utility.yul\":1751:1864   */\n      iszero\n      tag_73\n      jumpi\n        /* \"#utility.yul\":1783:1862   */\n      tag_74\n      tag_41\n      jump\t// in\n    tag_74:\n        /* \"#utility.yul\":1751:1864   */\n    tag_73:\n        /* \"#utility.yul\":1882:1888   */\n      dup2\n        /* \"#utility.yul\":1873:1888   */\n      swap1\n      pop\n        /* \"#utility.yul\":1654:1894   */\n      swap3\n      swap2\n      pop\n      pop\n      jump\t// out\n        /* \"#utility.yul\":1900:2459   */\n    tag_15:\n        /* \"#utility.yul\":1994:2000   */\n      0x00\n        /* \"#utility.yul\":2043:2045   */\n      0x20\n        /* \"#utility.yul\":2031:2040   */\n      dup3\n        /* \"#utility.yul\":2022:2029   */\n      dup5\n        /* \"#utility.yul\":2018:2041   */\n      sub\n        /* \"#utility.yul\":2014:2046   */\n      slt\n        /* \"#utility.yul\":2011:2130   */\n      iszero\n      tag_76\n      jumpi\n        /* \"#utility.yul\":2049:2128   */\n      tag_77\n      tag_39\n      jump\t// in\n    tag_77:\n        /* \"#utility.yul\":2011:2130   */\n    tag_76:\n        /* \"#utility.yul\":2197:2198   */\n      0x00\n        /* \"#utility.yul\":2186:2195   */\n      dup3\n        /* \"#utility.yul\":2182:2199   */\n      add\n        /* \"#utility.yul\":2169:2200   */\n      calldataload\n        /* \"#utility.yul\":2227:2245   */\n      0xffffffffffffffff\n        /* \"#utility.yul\":2219:2225   */\n      dup2\n        /* \"#utility.yul\":2216:2246   */\n      gt\n        /* \"#utility.yul\":2213:2330   */\n      iszero\n      tag_78\n      jumpi\n        /* \"#utility.yul\":2249:2328   */\n      tag_79\n      tag_40\n      jump\t// in\n    tag_79:\n        /* \"#utility.yul\":2213:2330   */\n    tag_78:\n        /* \"#utility.yul\":2354:2442   */\n      tag_80\n        /* \"#utility.yul\":2434:2441   */\n      dup5\n        /* \"#utility.yul\":2425:2431   */\n      dup3\n        /* \"#utility.yul\":2414:2423   */\n      dup6\n        /* \"#utility.yul\":2410:2432   */\n      add\n        /* \"#utility.yul\":2354:2442   */\n      tag_45\n      jump\t// in\n    tag_80:\n        /* \"#utility.yul\":2344:2442   */\n      swap2\n      pop\n        /* \"#utility.yul\":2140:2452   */\n      pop\n        /* \"#utility.yul\":1900:2459   */\n      swap3\n      swap2\n      pop\n      pop\n      jump\t// out\n        /* \"#utility.yul\":2515:2762   */\n    tag_46:\n        /* \"#utility.yul\":2603:2608   */\n      0x00\n        /* \"#utility.yul\":2644:2647   */\n      0x0100\n        /* \"#utility.yul\":2635:2641   */\n      dup3\n        /* \"#utility.yul\":2630:2633   */\n      dup5\n        /* \"#utility.yul\":2626:2642   */\n      sub\n        /* \"#utility.yul\":2622:2648   */\n      slt\n        /* \"#utility.yul\":2619:2732   */\n      iszero\n      tag_82\n      jumpi\n        /* \"#utility.yul\":2651:2730   */\n      tag_83\n      tag_41\n      jump\t// in\n    tag_83:\n        /* \"#utility.yul\":2619:2732   */\n    tag_82:\n        /* \"#utility.yul\":2750:2756   */\n      dup2\n        /* \"#utility.yul\":2741:2756   */\n      swap1\n      pop\n        /* \"#utility.yul\":2515:2762   */\n      swap3\n      swap2\n      pop\n      pop\n      jump\t// out\n        /* \"#utility.yul\":2768:3182   */\n    tag_20:\n        /* \"#utility.yul\":2869:2875   */\n      0x00\n        /* \"#utility.yul\":2918:2921   */\n      0x0100\n        /* \"#utility.yul\":2906:2915   */\n      dup3\n        /* \"#utility.yul\":2897:2904   */\n      dup5\n        /* \"#utility.yul\":2893:2916   */\n      sub\n        /* \"#utility.yul\":2889:2922   */\n      slt\n        /* \"#utility.yul\":2886:3006   */\n      iszero\n      tag_85\n      jumpi\n        /* \"#utility.yul\":2925:3004   */\n      tag_86\n      tag_39\n      jump\t// in\n    tag_86:\n        /* \"#utility.yul\":2886:3006   */\n    tag_85:\n        /* \"#utility.yul\":3045:3046   */\n      0x00\n        /* \"#utility.yul\":3070:3165   */\n      tag_87\n        /* \"#utility.yul\":3157:3164   */\n      dup5\n        /* \"#utility.yul\":3148:3154   */\n      dup3\n        /* \"#utility.yul\":3137:3146   */\n      dup6\n        /* \"#utility.yul\":3133:3155   */\n      add\n        /* \"#utility.yul\":3070:3165   */\n      tag_46\n      jump\t// in\n    tag_87:\n        /* \"#utility.yul\":3060:3165   */\n      swap2\n      pop\n        /* \"#utility.yul\":3016:3175   */\n      pop\n        /* \"#utility.yul\":2768:3182   */\n      swap3\n      swap2\n      pop\n      pop\n      jump\t// out\n        /* \"#utility.yul\":3232:3473   */\n    tag_47:\n        /* \"#utility.yul\":3314:3319   */\n      0x00\n        /* \"#utility.yul\":3355:3358   */\n      0xa0\n        /* \"#utility.yul\":3346:3352   */\n      dup3\n        /* \"#utility.yul\":3341:3344   */\n      dup5\n        /* \"#utility.yul\":3337:3353   */\n      sub\n        /* \"#utility.yul\":3333:3359   */\n      slt\n        /* \"#utility.yul\":3330:3443   */\n      iszero\n      tag_89\n      jumpi\n        /* \"#utility.yul\":3362:3441   */\n      tag_90\n      tag_41\n      jump\t// in\n    tag_90:\n        /* \"#utility.yul\":3330:3443   */\n    tag_89:\n        /* \"#utility.yul\":3461:3467   */\n      dup2\n        /* \"#utility.yul\":3452:3467   */\n      swap1\n      pop\n        /* \"#utility.yul\":3232:3473   */\n      swap3\n      swap2\n      pop\n      pop\n      jump\t// out\n        /* \"#utility.yul\":3479:4040   */\n    tag_25:\n        /* \"#utility.yul\":3574:3580   */\n      0x00\n        /* \"#utility.yul\":3623:3625   */\n      0x20\n        /* \"#utility.yul\":3611:3620   */\n      dup3\n        /* \"#utility.yul\":3602:3609   */\n      dup5\n        /* \"#utility.yul\":3598:3621   */\n      sub\n        /* \"#utility.yul\":3594:3626   */\n      slt\n        /* \"#utility.yul\":3591:3710   */\n      iszero\n      tag_92\n      jumpi\n        /* \"#utility.yul\":3629:3708   */\n      tag_93\n      tag_39\n      jump\t// in\n    tag_93:\n        /* \"#utility.yul\":3591:3710   */\n    tag_92:\n        /* \"#utility.yul\":3777:3778   */\n      0x00\n        /* \"#utility.yul\":3766:3775   */\n      dup3\n        /* \"#utility.yul\":3762:3779   */\n      add\n        /* \"#utility.yul\":3749:3780   */\n      calldataload\n        /* \"#utility.yul\":3807:3825   */\n      0xffffffffffffffff\n        /* \"#utility.yul\":3799:3805   */\n      dup2\n        /* \"#utility.yul\":3796:3826   */\n      gt\n        /* \"#utility.yul\":3793:3910   */\n      iszero\n      tag_94\n      jumpi\n        /* \"#utility.yul\":3829:3908   */\n      tag_95\n      tag_40\n      jump\t// in\n    tag_95:\n        /* \"#utility.yul\":3793:3910   */\n    tag_94:\n        /* \"#utility.yul\":3934:4023   */\n      tag_96\n        /* \"#utility.yul\":4015:4022   */\n      dup5\n        /* \"#utility.yul\":4006:4012   */\n      dup3\n        /* \"#utility.yul\":3995:4004   */\n      dup6\n        /* \"#utility.yul\":3991:4013   */\n      add\n        /* \"#utility.yul\":3934:4023   */\n      tag_47\n      jump\t// in\n    tag_96:\n        /* \"#utility.yul\":3924:4023   */\n      swap2\n      pop\n        /* \"#utility.yul\":3720:4033   */\n      pop\n        /* \"#utility.yul\":3479:4040   */\n      swap3\n      swap2\n      pop\n      pop\n      jump\t// out\n        /* \"#utility.yul\":4046:4122   */\n    tag_48:\n        /* \"#utility.yul\":4082:4089   */\n      0x00\n        /* \"#utility.yul\":4111:4116   */\n      dup2\n        /* \"#utility.yul\":4100:4116   */\n      swap1\n      pop\n        /* \"#utility.yul\":4046:4122   */\n      swap2\n      swap1\n      pop\n      jump\t// out\n        /* \"#utility.yul\":4128:4248   */\n    tag_49:\n        /* \"#utility.yul\":4200:4223   */\n      tag_99\n        /* \"#utility.yul\":4217:4222   */\n      dup2\n        /* \"#utility.yul\":4200:4223   */\n      tag_48\n      jump\t// in\n    tag_99:\n        /* \"#utility.yul\":4193:4198   */\n      dup2\n        /* \"#utility.yul\":4190:4224   */\n      eq\n        /* \"#utility.yul\":4180:4242   */\n      tag_100\n      jumpi\n        /* \"#utility.yul\":4238:4239   */\n      0x00\n        /* \"#utility.yul\":4235:4236   */\n      dup1\n        /* \"#utility.yul\":4228:4240   */\n      revert\n        /* \"#utility.yul\":4180:4242   */\n    tag_100:\n        /* \"#utility.yul\":4128:4248   */\n      pop\n      jump\t// out\n        /* \"#utility.yul\":4254:4391   */\n    tag_50:\n        /* \"#utility.yul\":4299:4304   */\n      0x00\n        /* \"#utility.yul\":4337:4343   */\n      dup2\n        /* \"#utility.yul\":4324:4344   */\n      calldataload\n        /* \"#utility.yul\":4315:4344   */\n      swap1\n      pop\n        /* \"#utility.yul\":4353:4385   */\n      tag_102\n        /* \"#utility.yul\":4379:4384   */\n      dup2\n        /* \"#utility.yul\":4353:4385   */\n      tag_49\n      jump\t// in\n    tag_102:\n        /* \"#utility.yul\":4254:4391   */\n      swap3\n      swap2\n      pop\n      pop\n      jump\t// out\n        /* \"#utility.yul\":4397:4514   */\n    tag_51:\n        /* \"#utility.yul\":4506:4507   */\n      0x00\n        /* \"#utility.yul\":4503:4504   */\n      dup1\n        /* \"#utility.yul\":4496:4508   */\n      revert\n        /* \"#utility.yul\":4520:4637   */\n    tag_52:\n        /* \"#utility.yul\":4629:4630   */\n      0x00\n        /* \"#utility.yul\":4626:4627   */\n      dup1\n        /* \"#utility.yul\":4619:4631   */\n      revert\n        /* \"#utility.yul\":4643:4760   */\n    tag_53:\n        /* \"#utility.yul\":4752:4753   */\n      0x00\n        /* \"#utility.yul\":4749:4750   */\n      dup1\n        /* \"#utility.yul\":4742:4754   */\n      revert\n        /* \"#utility.yul\":4779:5331   */\n    tag_54:\n        /* \"#utility.yul\":4836:4844   */\n      0x00\n        /* \"#utility.yul\":4846:4852   */\n      dup1\n        /* \"#utility.yul\":4896:4899   */\n      dup4\n        /* \"#utility.yul\":4889:4893   */\n      0x1f\n        /* \"#utility.yul\":4881:4887   */\n      dup5\n        /* \"#utility.yul\":4877:4894   */\n      add\n        /* \"#utility.yul\":4873:4900   */\n      slt\n        /* \"#utility.yul\":4863:4985   */\n      tag_107\n      jumpi\n        /* \"#utility.yul\":4904:4983   */\n      tag_108\n      tag_51\n      jump\t// in\n    tag_108:\n        /* \"#utility.yul\":4863:4985   */\n    tag_107:\n        /* \"#utility.yul\":5017:5023   */\n      dup3\n        /* \"#utility.yul\":5004:5024   */\n      calldataload\n        /* \"#utility.yul\":4994:5024   */\n      swap1\n      pop\n        /* \"#utility.yul\":5047:5065   */\n      0xffffffffffffffff\n        /* \"#utility.yul\":5039:5045   */\n      dup2\n        /* \"#utility.yul\":5036:5066   */\n      gt\n        /* \"#utility.yul\":5033:5150   */\n      iszero\n      tag_109\n      jumpi\n        /* \"#utility.yul\":5069:5148   */\n      tag_110\n      tag_52\n      jump\t// in\n    tag_110:\n        /* \"#utility.yul\":5033:5150   */\n    tag_109:\n        /* \"#utility.yul\":5183:5187   */\n      0x20\n        /* \"#utility.yul\":5175:5181   */\n      dup4\n        /* \"#utility.yul\":5171:5188   */\n      add\n        /* \"#utility.yul\":5159:5188   */\n      swap2\n      pop\n        /* \"#utility.yul\":5237:5240   */\n      dup4\n        /* \"#utility.yul\":5229:5233   */\n      0x01\n        /* \"#utility.yul\":5221:5227   */\n      dup3\n        /* \"#utility.yul\":5217:5234   */\n      mul\n        /* \"#utility.yul\":5207:5215   */\n      dup4\n        /* \"#utility.yul\":5203:5235   */\n      add\n        /* \"#utility.yul\":5200:5241   */\n      gt\n        /* \"#utility.yul\":5197:5325   */\n      iszero\n      tag_111\n      jumpi\n        /* \"#utility.yul\":5244:5323   */\n      tag_112\n      tag_53\n      jump\t// in\n    tag_112:\n        /* \"#utility.yul\":5197:5325   */\n    tag_111:\n        /* \"#utility.yul\":4779:5331   */\n      swap3\n      pop\n      swap3\n      swap1\n      pop\n      jump\t// out\n        /* \"#utility.yul\":5337:6150   */\n    tag_31:\n        /* \"#utility.yul\":5423:5429   */\n      0x00\n        /* \"#utility.yul\":5431:5437   */\n      dup1\n        /* \"#utility.yul\":5439:5445   */\n      0x00\n        /* \"#utility.yul\":5447:5453   */\n      dup1\n        /* \"#utility.yul\":5496:5498   */\n      0x60\n        /* \"#utility.yul\":5484:5493   */\n      dup6\n        /* \"#utility.yul\":5475:5482   */\n      dup8\n        /* \"#utility.yul\":5471:5494   */\n      sub\n        /* \"#utility.yul\":5467:5499   */\n      slt\n        /* \"#utility.yul\":5464:5583   */\n      iszero\n      tag_114\n      jumpi\n        /* \"#utility.yul\":5502:5581   */\n      tag_115\n      tag_39\n      jump\t// in\n    tag_115:\n        /* \"#utility.yul\":5464:5583   */\n    tag_114:\n        /* \"#utility.yul\":5622:5623   */\n      0x00\n        /* \"#utility.yul\":5647:5699   */\n      tag_116\n        /* \"#utility.yul\":5691:5698   */\n      dup8\n        /* \"#utility.yul\":5682:5688   */\n      dup3\n        /* \"#utility.yul\":5671:5680   */\n      dup9\n        /* \"#utility.yul\":5667:5689   */\n      add\n        /* \"#utility.yul\":5647:5699   */\n      tag_50\n      jump\t// in\n    tag_116:\n        /* \"#utility.yul\":5637:5699   */\n      swap5\n      pop\n        /* \"#utility.yul\":5593:5709   */\n      pop\n        /* \"#utility.yul\":5748:5750   */\n      0x20\n        /* \"#utility.yul\":5774:5826   */\n      tag_117\n        /* \"#utility.yul\":5818:5825   */\n      dup8\n        /* \"#utility.yul\":5809:5815   */\n      dup3\n        /* \"#utility.yul\":5798:5807   */\n      dup9\n        /* \"#utility.yul\":5794:5816   */\n      add\n        /* \"#utility.yul\":5774:5826   */\n      tag_50\n      jump\t// in\n    tag_117:\n        /* \"#utility.yul\":5764:5826   */\n      swap4\n      pop\n        /* \"#utility.yul\":5719:5836   */\n      pop\n        /* \"#utility.yul\":5903:5905   */\n      0x40\n        /* \"#utility.yul\":5892:5901   */\n      dup6\n        /* \"#utility.yul\":5888:5906   */\n      add\n        /* \"#utility.yul\":5875:5907   */\n      calldataload\n        /* \"#utility.yul\":5934:5952   */\n      0xffffffffffffffff\n        /* \"#utility.yul\":5926:5932   */\n      dup2\n        /* \"#utility.yul\":5923:5953   */\n      gt\n        /* \"#utility.yul\":5920:6037   */\n      iszero\n      tag_118\n      jumpi\n        /* \"#utility.yul\":5956:6035   */\n      tag_119\n      tag_40\n      jump\t// in\n    tag_119:\n        /* \"#utility.yul\":5920:6037   */\n    tag_118:\n        /* \"#utility.yul\":6069:6133   */\n      tag_120\n        /* \"#utility.yul\":6125:6132   */\n      dup8\n        /* \"#utility.yul\":6116:6122   */\n      dup3\n        /* \"#utility.yul\":6105:6114   */\n      dup9\n        /* \"#utility.yul\":6101:6123   */\n      add\n        /* \"#utility.yul\":6069:6133   */\n      tag_54\n      jump\t// in\n    tag_120:\n        /* \"#utility.yul\":6051:6133   */\n      swap3\n      pop\n      swap3\n      pop\n        /* \"#utility.yul\":5846:6143   */\n      pop\n        /* \"#utility.yul\":5337:6150   */\n      swap3\n      swap6\n      swap2\n      swap5\n      pop\n      swap3\n      pop\n      jump\t// out\n\n    auxdata: 0xa2646970667358221220d950d1b3b78d3d96f7d0b236cf95f5a272a1dd56241006addc4a889cf28fb04264736f6c634300081a0033\n}\n",
				"bytecode": {
					"linkReferences": {},
					"object": "6080604052610432806100115f395ff3fe608060405260043610610049575f3560e01c8063414bf3891461004d578063c04b8d591461007d578063db3e2198146100ad578063f28c0498146100dd578063fa461e331461010d575b5f80fd5b61006760048036038101906100629190610185565b610135565b60405161007491906101c9565b60405180910390f35b61009760048036038101906100929190610200565b610142565b6040516100a491906101c9565b60405180910390f35b6100c760048036038101906100c29190610266565b610148565b6040516100d491906101c9565b60405180910390f35b6100f760048036038101906100f291906102b0565b61014e565b60405161010491906101c9565b60405180910390f35b348015610118575f80fd5b50610133600480360381019061012e919061038b565b610154565b005b5f8160a001359050919050565b5f919050565b5f919050565b5f919050565b50505050565b5f80fd5b5f80fd5b5f80fd5b5f610100828403121561017c5761017b610162565b5b81905092915050565b5f610100828403121561019b5761019a61015a565b5b5f6101a884828501610166565b91505092915050565b5f819050919050565b6101c3816101b1565b82525050565b5f6020820190506101dc5f8301846101ba565b92915050565b5f60a082840312156101f7576101f6610162565b5b81905092915050565b5f602082840312156102155761021461015a565b5b5f82013567ffffffffffffffff8111156102325761023161015e565b5b61023e848285016101e2565b91505092915050565b5f610100828403121561025d5761025c610162565b5b81905092915050565b5f610100828403121561027c5761027b61015a565b5b5f61028984828501610247565b91505092915050565b5f60a082840312156102a7576102a6610162565b5b81905092915050565b5f602082840312156102c5576102c461015a565b5b5f82013567ffffffffffffffff8111156102e2576102e161015e565b5b6102ee84828501610292565b91505092915050565b5f819050919050565b610309816102f7565b8114610313575f80fd5b50565b5f8135905061032481610300565b92915050565b5f80fd5b5f80fd5b5f80fd5b5f8083601f84011261034b5761034a61032a565b5b8235905067ffffffffffffffff8111156103685761036761032e565b5b60208301915083600182028301111561038457610383610332565b5b9250929050565b5f805f80606085870312156103a3576103a261015a565b5b5f6103b087828801610316565b94505060206103c187828801610316565b935050604085013567ffffffffffffffff8111156103e2576103e161015e565b5b6103ee87828801610336565b92509250509295919450925056fea2646970667358221220d950d1b3b78d3d96f7d0b236cf95f5a272a1dd56241006addc4a889cf28fb04264736f6c634300081a0033",
					"opcodes": "PUSH1 0x80 PUSH1 0x40 MSTORE PUSH2 0x432 DUP1 PUSH2 0x11 PUSH0 CODECOPY PUSH0 RETURN INVALID PUSH1 0x80 PUSH1 0x40 MSTORE PUSH1 0x4 CALLDATASIZE LT PUSH2 0x49 JUMPI PUSH0 CALLDATALOAD PUSH1 0xE0 SHR DUP1 PUSH4 0x414BF389 EQ PUSH2 0x4D JUMPI DUP1 PUSH4 0xC04B8D59 EQ PUSH2 0x7D JUMPI DUP1 PUSH4 0xDB3E2198 EQ PUSH2 0xAD JUMPI DUP1 PUSH4 0xF28C0498 EQ PUSH2 0xDD JUMPI DUP1 PUSH4 0xFA461E33 EQ PUSH2 0x10D JUMPI JUMPDEST PUSH0 DUP1 REVERT JUMPDEST PUSH2 0x67 PUSH1 0x4 DUP1 CALLDATASIZE SUB DUP2 ADD SWAP1 PUSH2 0x62 SWAP2 SWAP1 PUSH2 0x185 JUMP JUMPDEST PUSH2 0x135 JUMP JUMPDEST PUSH1 0x40 MLOAD PUSH2 0x74 SWAP2 SWAP1 PUSH2 0x1C9 JUMP JUMPDEST PUSH1 0x40 MLOAD DUP1 SWAP2 SUB SWAP1 RETURN JUMPDEST PUSH2 0x97 PUSH1 0x4 DUP1 CALLDATASIZE SUB DUP2 ADD SWAP1 PUSH2 0x92 SWAP2 SWAP1 PUSH2 0x200 JUMP JUMPDEST PUSH2 0x142 JUMP JUMPDEST PUSH1 0x40 MLOAD PUSH2 0xA4 SWAP2 SWAP1 PUSH2 0x1C9 JUMP JUMPDEST PUSH1 0x40 MLOAD DUP1 SWAP2 SUB SWAP1 RETURN JUMPDEST PUSH2 0xC7 PUSH1 0x4 DUP1 CALLDATASIZE SUB DUP2 ADD SWAP1 PUSH2 0xC2 SWAP2 SWAP1 PUSH2 0x266 JUMP JUMPDEST PUSH2 0x148 JUMP JUMPDEST PUSH1 0x40 MLOAD PUSH2 0xD4 SWAP2 SWAP1 PUSH2 0x1C9 JUMP JUMPDEST PUSH1 0x40 MLOAD DUP1 SWAP2 SUB SWAP1 RETURN JUMPDEST PUSH2 0xF7 PUSH1 0x4 DUP1 CALLDATASIZE SUB DUP2 ADD SWAP1 PUSH2 0xF2 SWAP2 SWAP1 PUSH2 0x2B0 JUMP JUMPDEST PUSH2 0x14E JUMP JUMPDEST PUSH1 0x40 MLOAD PUSH2 0x104 SWAP2 SWAP1 PUSH2 0x1C9 JUMP JUMPDEST PUSH1 0x40 MLOAD DUP1 SWAP2 SUB SWAP1 RETURN JUMPDEST CALLVALUE DUP1 ISZERO PUSH2 0x118 JUMPI PUSH0 DUP1 REVERT JUMPDEST POP PUSH2 0x133 PUSH1 0x4 DUP1 CALLDATASIZE SUB DUP2 ADD SWAP1 PUSH2 0x12E SWAP2 SWAP1 PUSH2 0x38B JUMP JUMPDEST PUSH2 0x154 JUMP JUMPDEST STOP JUMPDEST PUSH0 DUP2 PUSH1 0xA0 ADD CALLDATALOAD SWAP1 POP SWAP2 SWAP1 POP JUMP JUMPDEST PUSH0 SWAP2 SWAP1 POP JUMP JUMPDEST PUSH0 SWAP2 SWAP1 POP JUMP JUMPDEST PUSH0 SWAP2 SWAP1 POP JUMP JUMPDEST POP POP POP POP JUMP JUMPDEST PUSH0 DUP1 REVERT JUMPDEST PUSH0 DUP1 REVERT JUMPDEST PUSH0 DUP1 REVERT JUMPDEST PUSH0 PUSH2 0x100 DUP3 DUP5 SUB SLT ISZERO PUSH2 0x17C JUMPI PUSH2 0x17B PUSH2 0x162 JUMP JUMPDEST JUMPDEST DUP2 SWAP1 POP SWAP3 SWAP2 POP POP JUMP JUMPDEST PUSH0 PUSH2 0x100 DUP3 DUP5 SUB SLT ISZERO PUSH2 0x19B JUMPI PUSH2 0x19A PUSH2 0x15A JUMP JUMPDEST JUMPDEST PUSH0 PUSH2 0x1A8 DUP5 DUP3 DUP6 ADD PUSH2 0x166 JUMP JUMPDEST SWAP2 POP POP SWAP3 SWAP2 POP POP JUMP JUMPDEST PUSH0 DUP2 SWAP1 POP SWAP2 SWAP1 POP JUMP JUMPDEST PUSH2 0x1C3 DUP2 PUSH2 0x1B1 JUMP JUMPDEST DUP3 MSTORE POP POP JUMP JUMPDEST PUSH0 PUSH1 0x20 DUP3 ADD SWAP1 POP PUSH2 0x1DC PUSH0 DUP4 ADD DUP5 PUSH2 0x1BA JUMP JUMPDEST SWAP3 SWAP2 POP POP JUMP JUMPDEST PUSH0 PUSH1 0xA0 DUP3 DUP5 SUB SLT ISZERO PUSH2 0x1F7 JUMPI PUSH2 0x1F6 PUSH2 0x162 JUMP JUMPDEST JUMPDEST DUP2 SWAP1 POP SWAP3 SWAP2 POP POP JUMP JUMPDEST PUSH0 PUSH1 0x20 DUP3 DUP5 SUB SLT ISZERO PUSH2 0x215 JUMPI PUSH2 0x214 PUSH2 0x15A JUMP JUMPDEST JUMPDEST PUSH0 DUP3 ADD CALLDATALOAD PUSH8 0xFFFFFFFFFFFFFFFF DUP2 GT ISZERO PUSH2 0x232 JUMPI PUSH2 0x231 PUSH2 0x15E JUMP JUMPDEST JUMPDEST PUSH2 0x23E DUP5 DUP3 DUP6 ADD PUSH2 0x1E2 JUMP JUMPDEST SWAP2 POP POP SWAP3 SWAP2 POP POP JUMP JUMPDEST PUSH0 PUSH2 0x100 DUP3 DUP5 SUB SLT ISZERO PUSH2 0x25D JUMPI PUSH2 0x25C PUSH2 0x162 JUMP JUMPDEST JUMPDEST DUP2 SWAP1 POP SWAP3 SWAP2 POP POP JUMP JUMPDEST PUSH0 PUSH2 0x100 DUP3 DUP5 SUB SLT ISZERO PUSH2 0x27C JUMPI PUSH2 0x27B PUSH2 0x15A JUMP JUMPDEST JUMPDEST PUSH0 PUSH2 0x289 DUP5 DUP3 DUP6 ADD PUSH2 0x247 JUMP JUMPDEST SWAP2 POP POP SWAP3 SWAP2 POP POP JUMP JUMPDEST PUSH0 PUSH1 0xA0 DUP3 DUP5 SUB SLT ISZERO PUSH2 0x2A7 JUMPI PUSH2 0x2A6 PUSH2 0x162 JUMP JUMPDEST JUMPDEST DUP2 SWAP1 POP SWAP3 SWAP2 POP POP JUMP JUMPDEST PUSH0 PUSH1 0x20 DUP3 DUP5 SUB SLT ISZERO PUSH2 0x2C5 JUMPI PUSH2 0x2C4 PUSH2 0x15A JUMP JUMPDEST JUMPDEST PUSH0 DUP3 ADD CALLDATALOAD PUSH8 0xFFFFFFFFFFFFFFFF DUP2 GT ISZERO PUSH2 0x2E2 JUMPI PUSH2 0x2E1 PUSH2 0x15E JUMP JUMPDEST JUMPDEST PUSH2 0x2EE DUP5 DUP3 DUP6 ADD PUSH2 0x292 JUMP JUMPDEST SWAP2 POP POP SWAP3 SWAP2 POP POP JUMP JUMPDEST PUSH0 DUP2 SWAP1 POP SWAP2 SWAP1 POP JUMP JUMPDEST PUSH2 0x309 DUP2 PUSH2 0x2F7 JUMP JUMPDEST DUP2 EQ PUSH2 0x313 JUMPI PUSH0 DUP1 REVERT JUMPDEST POP JUMP JUMPDEST PUSH0 DUP2 CALLDATALOAD SWAP1 POP PUSH2 0x324 DUP2 PUSH2 0x300 JUMP JUMPDEST SWAP3 SWAP2 POP POP JUMP JUMPDEST PUSH0 DUP1 REVERT JUMPDEST PUSH0 DUP1 REVERT JUMPDEST PUSH0 DUP1 REVERT JUMPDEST PUSH0 DUP1 DUP4 PUSH1 0x1F DUP5 ADD SLT PUSH2 0x34B JUMPI PUSH2 0x34A PUSH2 0x32A JUMP JUMPDEST JUMPDEST DUP3 CALLDATALOAD SWAP1 POP PUSH8 0xFFFFFFFFFFFFFFFF DUP2 GT ISZERO PUSH2 0x368 JUMPI PUSH2 0x367 PUSH2 0x32E JUMP JUMPDEST JUMPDEST PUSH1 0x20 DUP4 ADD SWAP2 POP DUP4 PUSH1 0x1 DUP3 MUL DUP4 ADD GT ISZERO PUSH2 0x384 JUMPI PUSH2 0x383 PUSH2 0x332 JUMP JUMPDEST JUMPDEST SWAP3 POP SWAP3 SWAP1 POP JUMP JUMPDEST PUSH0 DUP1 PUSH0 DUP1 PUSH1 0x60 DUP6 DUP8 SUB SLT ISZERO PUSH2 0x3A3 JUMPI PUSH2 0x3A2 PUSH2 0x15A JUMP JUMPDEST JUMPDEST PUSH0 PUSH2 0x3B0 DUP8 DUP3 DUP9 ADD PUSH2 0x316 JUMP JUMPDEST SWAP5 POP POP PUSH1 0x20 PUSH2 0x3C1 DUP8 DUP3 DUP9 ADD PUSH2 0x316 JUMP JUMPDEST SWAP4 POP POP PUSH1 0x40 DUP6 ADD CALLDATALOAD PUSH8 0xFFFFFFFFFFFFFFFF DUP2 GT ISZERO PUSH2 0x3E2 JUMPI PUSH2 0x3E1 PUSH2 0x15E JUMP JUMPDEST JUMPDEST PUSH2 0x3EE DUP8 DUP3 DUP9 ADD PUSH2 0x336 JUMP JUMPDEST SWAP3 POP SWAP3 POP POP SWAP3 SWAP6 SWAP2 SWAP5 POP SWAP3 POP JUMP INVALID LOG2 PUSH5 0x6970667358 0x22 SLT KECCAK256 0xD9 POP 0xD1 0xB3 0xB7 DUP14 RETURNDATASIZE SWAP7 0xF7 0xD0 0xB2 CALLDATASIZE 0xCF SWAP6 CREATE2 LOG2 PUSH19 0xA1DD56241006ADDC4A889CF28FB04264736F6C PUSH4 0x4300081A STOP CALLER "
				},
				"gasEstimates": {
					"creation": {
						"codeDepositCost": "214800",
						"executionCost": "231",
						"totalCost": "215031"
					},
					"external": {
						"exactInput((bytes,address,uint256,uint256,uint256))": "531",
						"exactInputSingle((address,address,uint24,address,uint256,uint256,uint256,uint160))": "491",
						"exactOutput((bytes,address,uint256,uint256,uint256))": "575",
						"exactOutputSingle((address,address,uint24,address,uint256,uint256,uint256,uint160))": "518",
						"uniswapV3SwapCallback(int256,int256,bytes)": "infinite"
					}
				},
				"methodIdentifiers": {
					"exactInput((bytes,address,uint256,uint256,uint256))": "c04b8d59",
					"exactInputSingle((address,address,uint24,address,uint256,uint256,uint256,uint160))": "414bf389",
					"exactOutput((bytes,address,uint256,uint256,uint256))": "f28c0498",
					"exactOutputSingle((address,address,uint24,address,uint256,uint256,uint256,uint160))": "db3e2198",
					"uniswapV3SwapCallback(int256,int256,bytes)": "fa461e33"
				}
			},
			"storageLayout": {
				"storage": [],
				"types": null
			},
			"userdoc": {
				"kind": "user",
				"methods": {
					"exactInput((bytes,address,uint256,uint256,uint256))": {
						"notice": "Swaps `amountIn` of one token for as much as possible of another along the specified path"
					},
					"exactInputSingle((address,address,uint24,address,uint256,uint256,uint256,uint160))": {
						"notice": "Swaps `amountIn` of one token for as much as possible of another token"
					},
					"exactOutput((bytes,address,uint256,uint256,uint256))": {
						"notice": "Swaps as little as possible of one token for `amountOut` of another along the specified path (reversed)"
					},
					"exactOutputSingle((address,address,uint24,address,uint256,uint256,uint256,uint160))": {
						"notice": "Swaps as little as possible of one token for `amountOut` of another token"
					},
					"uniswapV3SwapCallback(int256,int256,bytes)": {
						"notice": "Called to `msg.sender` after executing a swap via IUniswapV3Pool#swap."
					}
				},
				"version": 1
			}
		}
	}
}