{
  "contracts/MockFactory.sol": {
    "MockFactory": {
      "abi": [
        {
          "inputs": [],
          "stateMutability": "payable",
          "type": "constructor"
        },
        {
          "anonymous": false,
          "inputs": [
            {
              "indexed": true,
              "internalType": "uint24",
              "name": "fee",
              "type": "uint24"
            },
            {
              "indexed": true,
              "internalType": "int24",
              "name": "tickSpacing",
              "type": "int24"
            }
          ],
          "name": "FeeAmountEnabled",
          "type": "event"
        },
        {
          "anonymous": false,
          "inputs": [
            {
              "indexed": true,
              "internalType": "address",
              "name": "oldOwner",
              "type": "address"
            },
            {
              "indexed": true,
              "internalType": "address",
              "name": "newOwner",
              "type": "address"
            }
          ],
          "name": "OwnerChanged",
          "type": "event"
        },
        {
          "anonymous": false,
          "inputs": [
            {
              "indexed": true,
              "internalType": "address",
              "name": "token0",
              "type": "address"
            },
            {
              "indexed": true,
              "internalType": "address",
              "name": "token1",
              "type": "address"
            },
            {
              "indexed": true,
              "internalType": "uint24",
              "name": "fee",
              "type": "uint24"
            },
            {
              "indexed": false,
              "internalType": "int24",
              "name": "tickSpacing",
              "type": "int24"
            },
            {
              "indexed": false,
              "internalType": "address",
              "name": "pool",
              "type": "address"
            }
          ],
          "name": "PoolCreated",
          "type": "event"
        },
        {
          "inputs": [
            {
              "internalType": "address",
              "name": "tokenA",
              "type": "address"
            },
            {
              "internalType": "address",
              "name": "tokenB",
              "type": "address"
            },
            {
              "internalType": "uint24",
              "name": "fee",
              "type": "uint24"
            }
          ],
          "name": "createPool",
          "outputs": [
            {
              "internalType": "address",
              "name": "pool",
              "type": "address"
            }
          ],
          "stateMutability": "nonpayable",
          "type": "function"
        },
        {
          "inputs": [
            {
              "internalType": "uint24",
              "name": "fee",
              "type": "uint24"
            },
            {
              "internalType": "int24",
              "name": "tickSpacing",
              "type": "int24"
            }
          ],
          "name": "enableFeeAmount",
          "outputs": [],
          "stateMutability": "nonpayable",
          "type": "function"
        },
        {
          "inputs": [
            {
              "internalType": "uint24",
              "name": "fee",
              "type": "uint24"
            }
          ],
          "name": "feeAmountTickSpacing",
          "outputs": [
            {
              "internalType": "int24",
              "name": "",
              "type": "int24"
            }
          ],
          "stateMutability": "view",
          "type": "function"
        },
        {
          "inputs": [
            {
              "internalType": "address",
              "name": "tokenA",
              "type": "address"
            },
            {
              "internalType": "address",
              "name": "tokenB",
              "type": "address"
            },
            {
              "internalType": "uint24",
              "name": "fee",
              "type": "uint24"
            }
          ],
          "name": "getPool",
          "outputs": [
            {
              "internalType": "address",
              "name": "",
              "type": "address"
            }
          ],
          "stateMutability": "view",
          "type": "function"
        },
        {
          "inputs": [],
          "name": "owner",
          "outputs": [
            {
              "internalType": "address",
              "name": "",
              "type": "address"
            }
          ],
          "stateMutability": "view",
          "type": "function"
        },
        {
          "inputs": [],
          "name": "pool",
          "outputs": [
            {
              "internalType": "contract IUniswapV3Pool",
              "name": "",
              "type": "address"
            }
          ],
          "stateMutability": "view",
          "type": "function"
        },
        {
          "inputs": [
            {
              "internalType": "address",
              "name": "_owner",
              "type": "address"
            }
          ],
          "name": "setOwner",
          "outputs": [],
          "stateMutability": "nonpayable",
          "type": "function"
        },
        {
          "inputs": [
            {
              "internalType": "contract IUniswapV3Pool",
              "name": "_pool",
              "type": "address"
            }
          ],
          "name": "setPool",
          "outputs": [],
          "stateMutability": "nonpayable",
          "type": "function"
        }
      ],
      "evm": {
        "bytecode": {
          "linkReferences": {},
          "object": "60806040526102b6806100136000396000f3fe608060405234801561001057600080fd5b50600436106100885760003560e01c80634437152a1161005b5780634437152a146101185780638a7c195f146101605780638da5cb5b14610172578063a16712951461017957600080fd5b806313af40351461008d5780631698ee82146100a057806316f0115b146100de57806322afcccb146100f1575b600080fd5b61009e61009b3660046101a5565b50565b005b6100c16100ae3660046101e1565b6000546001600160a01b03169392505050565b6040516001600160a01b0390911681526020015b60405180910390f35b6000546100c1906001600160a01b031681565b6101056100ff366004610228565b50600090565b60405160029190910b81526020016100d5565b61009e6101263660046101a5565b600080547fffffffffffffffffffffffff0000000000000000000000000000000000000000166001600160a01b0392909216919091179055565b61009e61016e366004610243565b5050565b60006100c1565b6100c16101873660046101e1565b60009392505050565b6001600160a01b038116811461009b57600080fd5b6000602082840312156101b757600080fd5b81356101c281610190565b9392505050565b803562ffffff811681146101dc57600080fd5b919050565b6000806000606084860312156101f657600080fd5b833561020181610190565b9250602084013561021181610190565b915061021f604085016101c9565b90509250925092565b60006020828403121561023a57600080fd5b6101c2826101c9565b6000806040838503121561025657600080fd5b61025f836101c9565b915060208301358060020b811461027557600080fd5b80915050925092905056fea264697066735822122085cc2dbd650d39c22b85c4261c8c0fdf3f3f574262e187f53ff1831b104fc3e964736f6c63430008180033",
          "opcodes": "PUSH1 0x80 PUSH1 0x40 MSTORE PUSH2 0x2B6 DUP1 PUSH2 0x13 PUSH1 0x0 CODECOPY PUSH1 0x0 RETURN INVALID PUSH1 0x80 PUSH1 0x40 MSTORE CALLVALUE DUP1 ISZERO PUSH2 0x10 JUMPI PUSH1 0x0 DUP1 REVERT JUMPDEST POP PUSH1 0x4 CALLDATASIZE LT PUSH2 0x88 JUMPI PUSH1 0x0 CALLDATALOAD PUSH1 0xE0 SHR DUP1 PUSH4 0x4437152A GT PUSH2 0x5B JUMPI DUP1 PUSH4 0x4437152A EQ PUSH2 0x118 JUMPI DUP1 PUSH4 0x8A7C195F EQ PUSH2 0x160 JUMPI DUP1 PUSH4 0x8DA5CB5B EQ PUSH2 0x172 JUMPI DUP1 PUSH4 0xA1671295 EQ PUSH2 0x179 JUMPI PUSH1 0x0 DUP1 REVERT JUMPDEST DUP1 PUSH4 0x13AF4035 EQ PUSH2 0x8D JUMPI DUP1 PUSH4 0x1698EE82 EQ PUSH2 0xA0 JUMPI DUP1 PUSH4 0x16F0115B EQ PUSH2 0xDE JUMPI DUP1 PUSH4 0x22AFCCCB EQ PUSH2 0xF1 JUMPI JUMPDEST PUSH1 0x0 DUP1 REVERT JUMPDEST PUSH2 0x9E PUSH2 0x9B CALLDATASIZE PUSH1 0x4 PUSH2 0x1A5 JUMP JUMPDEST POP JUMP JUMPDEST STOP JUMPDEST PUSH2 0xC1 PUSH2 0xAE CALLDATASIZE PUSH1 0x4 PUSH2 0x1E1 JUMP JUMPDEST PUSH1 0x0 SLOAD PUSH1 0x1 PUSH1 0x1 PUSH1 0xA0 SHL SUB AND SWAP4 SWAP3 POP POP POP JUMP JUMPDEST PUSH1 0x40 MLOAD PUSH1 0x1 PUSH1 0x1 PUSH1 0xA0 SHL SUB SWAP1 SWAP2 AND DUP2 MSTORE PUSH1 0x20 ADD JUMPDEST PUSH1 0x40 MLOAD DUP1 SWAP2 SUB SWAP1 RETURN JUMPDEST PUSH1 0x0 SLOAD PUSH2 0xC1 SWAP1 PUSH1 0x1 PUSH1 0x1 PUSH1 0xA0 SHL SUB AND DUP2 JUMP JUMPDEST PUSH2 0x105 PUSH2 0xFF CALLDATASIZE PUSH1 0x4 PUSH2 0x228 JUMP JUMPDEST POP PUSH1 0x0 SWAP1 JUMP JUMPDEST PUSH1 0x40 MLOAD PUSH1 0x2 SWAP2 SWAP1 SWAP2 SIGNEXTEND DUP2 MSTORE PUSH1 0x20 ADD PUSH2 0xD5 JUMP JUMPDEST PUSH2 0x9E PUSH2 0x126 CALLDATASIZE PUSH1 0x4 PUSH2 0x1A5 JUMP JUMPDEST PUSH1 0x0 DUP1 SLOAD PUSH32 0xFFFFFFFFFFFFFFFFFFFFFFFF0000000000000000000000000000000000000000 AND PUSH1 0x1 PUSH1 0x1 PUSH1 0xA0 SHL SUB SWAP3 SWAP1 SWAP3 AND SWAP2 SWAP1 SWAP2 OR SWAP1 SSTORE JUMP JUMPDEST PUSH2 0x9E PUSH2 0x16E CALLDATASIZE PUSH1 0x4 PUSH2 0x243 JUMP JUMPDEST POP POP JUMP JUMPDEST PUSH1 0x0 PUSH2 0xC1 JUMP JUMPDEST PUSH2 0xC1 PUSH2 0x187 CALLDATASIZE PUSH1 0x4 PUSH2 0x1E1 JUMP JUMPDEST PUSH1 0x0 SWAP4 SWAP3 POP POP POP JUMP JUMPDEST PUSH1 0x1 PUSH1 0x1 PUSH1 0xA0 SHL SUB DUP2 AND DUP2 EQ PUSH2 0x9B JUMPI PUSH1 0x0 DUP1 REVERT JUMPDEST PUSH1 0x0 PUSH1 0x20 DUP3 DUP5 SUB SLT ISZERO PUSH2 0x1B7 JUMPI PUSH1 0x0 DUP1 REVERT JUMPDEST DUP2 CALLDATALOAD PUSH2 0x1C2 DUP2 PUSH2 0x190 JUMP JUMPDEST SWAP4 SWAP3 POP POP POP JUMP JUMPDEST DUP1 CALLDATALOAD PUSH3 0xFFFFFF DUP2 AND DUP2 EQ PUSH2 0x1DC JUMPI PUSH1 0x0 DUP1 REVERT JUMPDEST SWAP2 SWAP1 POP JUMP JUMPDEST PUSH1 0x0 DUP1 PUSH1 0x0 PUSH1 0x60 DUP5 DUP7 SUB SLT ISZERO PUSH2 0x1F6 JUMPI PUSH1 0x0 DUP1 REVERT JUMPDEST DUP4 CALLDATALOAD PUSH2 0x201 DUP2 PUSH2 0x190 JUMP JUMPDEST SWAP3 POP PUSH1 0x20 DUP5 ADD CALLDATALOAD PUSH2 0x211 DUP2 PUSH2 0x190 JUMP JUMPDEST SWAP2 POP PUSH2 0x21F PUSH1 0x40 DUP6 ADD PUSH2 0x1C9 JUMP JUMPDEST SWAP1 POP SWAP3 POP SWAP3 POP SWAP3 JUMP JUMPDEST PUSH1 0x0 PUSH1 0x20 DUP3 DUP5 SUB SLT ISZERO PUSH2 0x23A JUMPI PUSH1 0x0 DUP1 REVERT JUMPDEST PUSH2 0x1C2 DUP3 PUSH2 0x1C9 JUMP JUMPDEST PUSH1 0x0 DUP1 PUSH1 0x40 DUP4 DUP6 SUB SLT ISZERO PUSH2 0x256 JUMPI PUSH1 0x0 DUP1 REVERT JUMPDEST PUSH2 0x25F DUP4 PUSH2 0x1C9 JUMP JUMPDEST SWAP2 POP PUSH1 0x20 DUP4 ADD CALLDATALOAD DUP1 PUSH1 0x2 SIGNEXTEND DUP2 EQ PUSH2 0x275 JUMPI PUSH1 0x0 DUP1 REVERT JUMPDEST DUP1 SWAP2 POP POP SWAP3 POP SWAP3 SWAP1 POP JUMP INVALID LOG2 PUSH5 0x6970667358 0x22 SLT KECCAK256 DUP6 0xCC 0x2D 0xBD PUSH6 0xD39C22B85C4 0x26 SHR DUP13 0xF 0xDF EXTCODEHASH EXTCODEHASH JUMPI TIMESTAMP PUSH3 0xE187F5 EXTCODEHASH CALL DUP4 SHL LT 0x4F 0xC3 0xE9 PUSH5 0x736F6C6343 STOP ADDMOD XOR STOP CALLER "
        },
        "methodIdentifiers": {
          "createPool(address,address,uint24)": "a1671295",
          "enableFeeAmount(uint24,int24)": "8a7c195f",
          "feeAmountTickSpacing(uint24)": "22afcccb",
          "getPool(address,address,uint24)": "1698ee82",
          "owner()": "8da5cb5b",
          "pool()": "16f0115b",
          "setOwner(address)": "13af4035",
          "setPool(address)": "4437152a"
        }
      },
      "storageLayout": {
        "storage": [
          {
            "astId": 902,
            "contract": "contracts/MockFactory.sol:MockFactory",
            "label": "pool",
            "offset": 0,
            "slot": "0",
            "type": "t_contract(IUniswapV3Pool)182"
          }
        ],
        "types": {
          "t_contract(IUniswapV3Pool)182": {
            "encoding": "inplace",
            "label": "contract IUniswapV3Pool",
            "numberOfBytes": "20"
          }
        }
      }
    }
  }
}