{
	"data": {
		"bytecode": {
			"linkReferences": {},
			"object": "6080604052348015600e575f80fd5b50611efa8061001c5f395ff3fe60806040526004361061014a575f3560e01c8063929eea21116100b3578063d6bda0c01161006d578063d6bda0c01461042a578063d8aed14514610449578063e1ec3c6814610468578063ec7be39d14610503578063f7fb07b014610522578063fc7b9c181461056e575f80fd5b8063929eea21146102e4578063982aae4614610303578063a52f38d114610321578063b14d37c014610340578063c4e41b2214610355578063cd3293de14610369575f80fd5b80633540302311610104578063354030231461021d5780633b24cc211461023c5780633b4675a714610250578063485cc9551461028757806357379102146102a65780638ac1b775146102c5575f80fd5b806303ec357f1461015557806315770f921461017c57806318160ddd146101915780631877bb5c146101a65780631e0029c8146101d15780632e1a7d4d146101fc575f80fd5b3661015157005b5f80fd5b348015610160575f80fd5b50610169610583565b6040519081526020015b60405180910390f35b348015610187575f80fd5b50610169600a5481565b34801561019c575f80fd5b5061016960095481565b3480156101b1575f80fd5b506101696101c0366004611bde565b60076020525f908152604090205481565b3480156101dc575f80fd5b506101696101eb366004611bf9565b60086020525f908152604090205481565b348015610207575f80fd5b5061021b610216366004611bf9565b61066d565b005b348015610228575f80fd5b5061021b610237366004611bf9565b610843565b348015610247575f80fd5b50600c54610169565b34801561025b575f80fd5b5060035461026f906001600160a01b031681565b6040516001600160a01b039091168152602001610173565b348015610292575f80fd5b5061021b6102a1366004611c10565b6109cc565b3480156102b1575f80fd5b5061021b6102c0366004611bf9565b610b50565b3480156102d0575f80fd5b5061021b6102df366004611bde565b610cae565b3480156102ef575f80fd5b5061026f6102fe366004611bf9565b610d1b565b34801561030e575f80fd5b505f5461026f906001600160a01b031681565b34801561032c575f80fd5b5061016961033b366004611bf9565b610d43565b34801561034b575f80fd5b50610169600c5481565b348015610360575f80fd5b50610169610e39565b348015610374575f80fd5b506004546005546006546103cf926001600160801b0380821693600160801b92839004821693828216939091049091169064ffffffffff81169065010000000000810461ffff1690600160381b90046001600160a01b031687565b604080516001600160801b03988916815296881660208801529487169486019490945294909116606084015264ffffffffff16608083015261ffff90921660a08201526001600160a01b0390911660c082015260e001610173565b348015610435575f80fd5b5061021b610444366004611c47565b610f0b565b348015610454575f80fd5b5061021b610463366004611c7d565b611121565b348015610473575f80fd5b506104c9610482366004611bf9565b600260208190525f91825260409091208054600182015492820154600390920154909260ff908116929181811691610100820416906201000090046001600160a01b031686565b6040805196875294151560208701529385019290925215156060840152151560808301526001600160a01b031660a082015260c001610173565b34801561050e575f80fd5b5061021b61051d366004611c9d565b611513565b34801561052d575f80fd5b50600554600454604080516001600160801b03600160801b808604821683528404811660208301529384169181019190915291166060820152608001610173565b348015610579575f80fd5b50610169600b5481565b5f8061058d61167f565b90505f6105a28260c001518360e001516116ee565b6005549091506105bc9082906001600160801b0316611703565b60808301525f546040805163313ce56760e01b81529051676765c793fa10079d601b1b926001600160a01b03169163313ce5679160048083019260209291908290030181865afa158015610612573d5f803e3d5ffd5b505050506040513d601f19601f820116820180604052508101906106369190611cc7565b61064190600a611dde565b6080840151600b5461065291611703565b61065c9190611dec565b6106669190611e17565b9250505090565b5f61067661167f565b905061068181611744565b5f805f9054906101000a90046001600160a01b03166001600160a01b031663313ce5676040518163ffffffff1660e01b8152600401602060405180830381865afa1580156106d1573d5f803e3d5ffd5b505050506040513d601f19601f820116820180604052508101906106f59190611cc7565b61070090600a611dde565b610715676765c793fa10079d601b1b85611dec565b61071f9190611e17565b905061072b5f8261177d565b6004545f906107449083906001600160801b03166118e4565b335f9081526007602052604081205491925090610762908390611e36565b90508160095f8282546107759190611e36565b9250508190555081600a5f82825461078d9190611e36565b909155506107a19050565b60405180910390fd5b335f908152600760205260408120829055600c80548792906107c4908490611e36565b90915550505f5460405163a9059cbb60e01b8152336004820152602481018790526001600160a01b039091169063a9059cbb906044015b6020604051808303815f875af1158015610817573d5f803e3d5ffd5b505050506040513d601f19601f8201168201806040525081019061083b9190611e49565b505050505050565b5f61084c61167f565b905061085781611744565b5f805f9054906101000a90046001600160a01b03166001600160a01b031663313ce5676040518163ffffffff1660e01b8152600401602060405180830381865afa1580156108a7573d5f803e3d5ffd5b505050506040513d601f19601f820116820180604052508101906108cb9190611cc7565b6108d690600a611dde565b6108eb676765c793fa10079d601b1b85611dec565b6108f59190611e17565b9050610901815f61177d565b6004545f9061091a9083906001600160801b03166118e4565b335f9081526007602052604081205491925090610938908390611e68565b90508160095f82825461094b9190611e68565b9250508190555081600a5f8282546109639190611e68565b9091555050335f908152600760205260408120829055600c805487929061098b908490611e68565b90915550505f546040516323b872dd60e01b8152336004820152306024820152604481018790526001600160a01b03909116906323b872dd906064016107fb565b7ff0c57e16840df040f15088dc2f81fe391c3923bec73e23a9662efc9c229c6a008054600160401b810460ff16159067ffffffffffffffff165f81158015610a115750825b90505f8267ffffffffffffffff166001148015610a2d5750303b155b905081158015610a3b575080155b15610a595760405163f92ee8a960e01b815260040160405180910390fd5b845467ffffffffffffffff191660011785558315610a8357845460ff60401b1916600160401b1785555b5f80546001600160a01b03808a166001600160a01b03199283161790925560068054928916600160381b02670100000000000000600160d81b031990931692909217909155600480546001600160801b0319908116676765c793fa10079d601b1b908117909255600580549091169091179055600d8054909116331790558315610b4757845460ff60401b19168555604051600181527fc7f505b2f371ae2175ee4913f4499e1f2633a7b5936321eed1cdaeb6115181d29060200160405180910390a15b50505050505050565b6003546001600160a01b03163314610b7a5760405162461bcd60e51b815260040161079890611e7b565b5f610b8361167f565b9050610b8e81611744565b5f805f9054906101000a90046001600160a01b03166001600160a01b031663313ce5676040518163ffffffff1660e01b8152600401602060405180830381865afa158015610bde573d5f803e3d5ffd5b505050506040513d601f19601f82011682018060405250810190610c029190611cc7565b610c0d90600a611dde565b610c22676765c793fa10079d601b1b85611dec565b610c2c9190611e17565b90505f610c488360400151600a5461170390919063ffffffff16565b90505f610c6f82610c6986604001518686610c639190611e68565b90611703565b906118e4565b9050610c7a8161191f565b600480546001600160801b0319166001600160801b0392909216919091179055600c80548691905f9061098b908490611e68565b600d546001600160a01b03163314610cf95760405162461bcd60e51b815260206004820152600e60248201526d37b7363c903a34329037bbb732b960911b6044820152606401610798565b600380546001600160a01b0319166001600160a01b0392909216919091179055565b60018181548110610d2a575f80fd5b5f918252602090912001546001600160a01b0316905081565b5f80610d4d61167f565b90505f610d628260c001518360e001516116ee565b600554909150610d7c9082906001600160801b0316611703565b60808301525f546040805163313ce56760e01b81529051676765c793fa10079d601b1b926001600160a01b03169163313ce5679160048083019260209291908290030181865afa158015610dd2573d5f803e3d5ffd5b505050506040513d601f19601f82011682018060405250810190610df69190611cc7565b610e0190600a611dde565b60808401515f87815260086020526040902054610e1d91611703565b610e279190611dec565b610e319190611e17565b949350505050565b5f80610e4361167f565b90505f610e588260a001518360e00151611956565b9050610e7182604001518261170390919063ffffffff16565b6040808401919091525f54815163313ce56760e01b81529151676765c793fa10079d601b1b926001600160a01b039092169163313ce5679160048083019260209291908290030181865afa158015610ecb573d5f803e3d5ffd5b505050506040513d601f19601f82011682018060405250810190610eef9190611cc7565b610efa90600a611dde565b604084015160095461065291611703565b6003546001600160a01b03163314610f355760405162461bcd60e51b815260040161079890611e7b565b5f610f3e61167f565b9050610f4981611744565b5f805f9054906101000a90046001600160a01b03166001600160a01b031663313ce5676040518163ffffffff1660e01b8152600401602060405180830381865afa158015610f99573d5f803e3d5ffd5b505050506040513d601f19601f82011682018060405250810190610fbd9190611cc7565b610fc890600a611dde565b610fdd676765c793fa10079d601b1b86611dec565b610fe79190611e17565b90505f6110018360800151836118e490919063ffffffff16565b5f878152600860205260408120549192509061101e908390611e68565b905081600b5f8282546110319190611e68565b9091555050600c548611156110885760405162461bcd60e51b815260206004820152601c60248201527f446f206e6f74206861766520656e6f756768206c6971756964697479000000006044820152606401610798565b5f8781526002602081815260408084206008909252832084905589815590810188905560038101805462010000600160b01b031916620100006001600160a01b038a1602179055906110da908561177d565b60408501516110ea9085906118e4565b600a5f8282546110fa9190611e36565b9250508190555086600c5f8282546111129190611e36565b90915550505050505050505050565b6003546001600160a01b0316331461114b5760405162461bcd60e51b815260040161079890611e7b565b5f61115461167f565b905061115f81611744565b5f805f9054906101000a90046001600160a01b03166001600160a01b031663313ce5676040518163ffffffff1660e01b8152600401602060405180830381865afa1580156111af573d5f803e3d5ffd5b505050506040513d601f19601f820116820180604052508101906111d39190611cc7565b6111de90600a611dde565b6111f3676765c793fa10079d601b1b85611dec565b6111fd9190611e17565b6005549091505f906112199083906001600160801b03166118e4565b5f8681526008602052604090205490915081111561140c575f85815260086020526040812054600b805491929091611252908490611e36565b90915550506005545f86815260086020526040812054909161127d91906001600160801b0316611703565b90505f676765c793fa10079d601b1b6001600160801b03165f8054906101000a90046001600160a01b03166001600160a01b031663313ce5676040518163ffffffff1660e01b8152600401602060405180830381865afa1580156112e3573d5f803e3d5ffd5b505050506040513d601f19601f820116820180604052508101906113079190611cc7565b61131290600a611dde565b61131c9084611dec565b6113269190611e17565b5f888152600860205260408120819055909150611343908061177d565b6040808601515f89815260086020529190912054611360916118e4565b600a5f8282546113709190611e68565b9250508190555080600c5f8282546113889190611e68565b90915550505f546040516323b872dd60e01b8152336004820152306024820152604481018390526001600160a01b03909116906323b872dd906064016020604051808303815f875af11580156113e0573d5f803e3d5ffd5b505050506040513d601f19601f820116820180604052508101906114049190611e49565b50505061150c565b5f85815260086020526040812054611425908390611e36565b905081600b5f8282546114389190611e36565b90915550505f86815260086020526040812082905561145890849061177d565b60408401516114689084906118e4565b600a5f8282546114789190611e68565b9250508190555084600c5f8282546114909190611e68565b90915550505f546040516323b872dd60e01b8152336004820152306024820152604481018790526001600160a01b03909116906323b872dd906064016020604051808303815f875af11580156114e8573d5f803e3d5ffd5b505050506040513d601f19601f82011682018060405250810190610b479190611e49565b5050505050565b6003546001600160a01b0316331461153d5760405162461bcd60e51b815260040161079890611e7b565b5f8181526002602052604090206001015460ff161561158d5760405162461bcd60e51b815260206004820152600c60248201526b131bd85b881a5cc81c185a5960a21b6044820152606401610798565b5f818152600260208181526040928390206001808201805460ff191690911790559091015482516001600160a01b038616815291820152428183015290517fec2db68ed4a8b09a4c7173e6e4230e6cca7e1b48e58a0affc9c550470e0e14819181900360600190a15f8054828252600260208190526040928390200154915163a9059cbb60e01b81526001600160a01b038581166004830152602482019390935291169063a9059cbb906044016020604051808303815f875af1158015611656573d5f803e3d5ffd5b505050506040513d601f19601f8201168201806040525081019061167a9190611e49565b505050565b611687611b86565b61168f611b86565b6004546001600160801b03808216604084018190526020840152600554808216608085018190526060850152600160801b92839004821660a0850152919091041660c082015260065464ffffffffff1660e0820152600b548152919050565b5f6116fa838342611991565b90505b92915050565b5f81156b019d971e4fe8401e740000001983900484111517611723575f80fd5b50676765c793fa10079d601b1b91026b019d971e4fe8401e74000000010490565b60065464ffffffffff42811691160361175a5750565b61176381611ab6565b506006805464ffffffffff19164264ffffffffff16179055565b61179e60405180606001604052805f81526020015f81526020015f81525090565b6006546040805160808101825285815260208101859052600554600b54600160381b9094046001600160a01b0316936356eaf264938301916117e991906001600160801b0316611703565b8152600454600a54602090920191611809916001600160801b0316611703565b9052604080516001600160e01b031960e085901b168152825160048201526020830151602482015290820151604482015260609091015160648201526084016040805180830381865afa158015611862573d5f803e3d5ffd5b505050506040513d601f19601f820116820180604052508101906118869190611ea2565b60208301528082526118979061191f565b600480546001600160801b03928316600160801b02921691909117905560208101516118c29061191f565b600580546001600160801b03928316600160801b029216919091179055505050565b5f8115676765c793fa10079d601b1b60028404190484111715611905575f80fd5b50676765c793fa10079d601b1b9190910260028204010490565b5f6001600160801b03821115611952576040516306dfcc6560e41b81526080600482015260248101839052604401610798565b5090565b5f8061196964ffffffffff841642611e36565b6119739085611dec565b6301e1338090049050610e3181676765c793fa10079d601b1b611e68565b5f806119a464ffffffffff851684611e36565b9050805f036119c157676765c793fa10079d601b1b915050611aaf565b5f1981015f8080600285116119d6575f6119db565b600285035b925066038882915c40006119ef8a80611703565b816119fc576119fc611e03565b0491506301e13380611a0e838b611703565b81611a1b57611a1b611e03565b0490505f82611a2a8688611dec565b611a349190611dec565b6002900490505f8285611a47888a611dec565b611a519190611dec565b611a5b9190611dec565b60069004905080826301e13380611a728a8f611dec565b611a7c9190611e17565b611a9190676765c793fa10079d601b1b611e68565b611a9b9190611e68565b611aa59190611e68565b9750505050505050505b9392505050565b60a081015115611b1e575f611ad38260a001518360e00151611956565b9050611aec82602001518261170390919063ffffffff16565b60408301819052611afc9061191f565b600480546001600160801b0319166001600160801b0392909216919091179055505b805115611b83575f611b388260c001518360e001516116ee565b9050611b5182606001518261170390919063ffffffff16565b60808301819052611b619061191f565b600580546001600160801b0319166001600160801b0392909216919091179055505b50565b6040518061010001604052805f81526020015f81526020015f81526020015f81526020015f81526020015f81526020015f81526020015f64ffffffffff1681525090565b6001600160a01b0381168114611b83575f80fd5b5f60208284031215611bee575f80fd5b8135611aaf81611bca565b5f60208284031215611c09575f80fd5b5035919050565b5f8060408385031215611c21575f80fd5b8235611c2c81611bca565b91506020830135611c3c81611bca565b809150509250929050565b5f805f60608486031215611c59575f80fd5b83359250602084013591506040840135611c7281611bca565b809150509250925092565b5f8060408385031215611c8e575f80fd5b50508035926020909101359150565b5f8060408385031215611cae575f80fd5b8235611cb981611bca565b946020939093013593505050565b5f60208284031215611cd7575f80fd5b815160ff81168114611aaf575f80fd5b634e487b7160e01b5f52601160045260245ffd5b6001815b6001841115611d3657808504811115611d1a57611d1a611ce7565b6001841615611d2857908102905b60019390931c928002611cff565b935093915050565b5f82611d4c575060016116fd565b81611d5857505f6116fd565b8160018114611d6e5760028114611d7857611d94565b60019150506116fd565b60ff841115611d8957611d89611ce7565b50506001821b6116fd565b5060208310610133831016604e8410600b8410161715611db7575081810a6116fd565b611dc35f198484611cfb565b805f1904821115611dd657611dd6611ce7565b029392505050565b5f6116fa60ff841683611d3e565b80820281158282048414176116fd576116fd611ce7565b634e487b7160e01b5f52601260045260245ffd5b5f82611e3157634e487b7160e01b5f52601260045260245ffd5b500490565b818103818111156116fd576116fd611ce7565b5f60208284031215611e59575f80fd5b81518015158114611aaf575f80fd5b808201808211156116fd576116fd611ce7565b6020808252600d908201526c1bdb9b1e481d1a194818d8d99b609a1b604082015260600190565b5f8060408385031215611eb3575f80fd5b50508051602090910151909290915056fea2646970667358221220e60af653d6f6ad4f23d6172b1729620e761e2b069cd2a6490742a6b03986bb5a64736f6c634300081a0033",
			"opcodes": "PUSH1 0x80 PUSH1 0x40 MSTORE CALLVALUE DUP1 ISZERO PUSH1 0xE JUMPI PUSH0 DUP1 REVERT JUMPDEST POP PUSH2 0x1EFA DUP1 PUSH2 0x1C PUSH0 CODECOPY PUSH0 RETURN INVALID PUSH1 0x80 PUSH1 0x40 MSTORE PUSH1 0x4 CALLDATASIZE LT PUSH2 0x14A JUMPI PUSH0 CALLDATALOAD PUSH1 0xE0 SHR DUP1 PUSH4 0x929EEA21 GT PUSH2 0xB3 JUMPI DUP1 PUSH4 0xD6BDA0C0 GT PUSH2 0x6D JUMPI DUP1 PUSH4 0xD6BDA0C0 EQ PUSH2 0x42A JUMPI DUP1 PUSH4 0xD8AED145 EQ PUSH2 0x449 JUMPI DUP1 PUSH4 0xE1EC3C68 EQ PUSH2 0x468 JUMPI DUP1 PUSH4 0xEC7BE39D EQ PUSH2 0x503 JUMPI DUP1 PUSH4 0xF7FB07B0 EQ PUSH2 0x522 JUMPI DUP1 PUSH4 0xFC7B9C18 EQ PUSH2 0x56E JUMPI PUSH0 DUP1 REVERT JUMPDEST DUP1 PUSH4 0x929EEA21 EQ PUSH2 0x2E4 JUMPI DUP1 PUSH4 0x982AAE46 EQ PUSH2 0x303 JUMPI DUP1 PUSH4 0xA52F38D1 EQ PUSH2 0x321 JUMPI DUP1 PUSH4 0xB14D37C0 EQ PUSH2 0x340 JUMPI DUP1 PUSH4 0xC4E41B22 EQ PUSH2 0x355 JUMPI DUP1 PUSH4 0xCD3293DE EQ PUSH2 0x369 JUMPI PUSH0 DUP1 REVERT JUMPDEST DUP1 PUSH4 0x35403023 GT PUSH2 0x104 JUMPI DUP1 PUSH4 0x35403023 EQ PUSH2 0x21D JUMPI DUP1 PUSH4 0x3B24CC21 EQ PUSH2 0x23C JUMPI DUP1 PUSH4 0x3B4675A7 EQ PUSH2 0x250 JUMPI DUP1 PUSH4 0x485CC955 EQ PUSH2 0x287 JUMPI DUP1 PUSH4 0x57379102 EQ PUSH2 0x2A6 JUMPI DUP1 PUSH4 0x8AC1B775 EQ PUSH2 0x2C5 JUMPI PUSH0 DUP1 REVERT JUMPDEST DUP1 PUSH4 0x3EC357F EQ PUSH2 0x155 JUMPI DUP1 PUSH4 0x15770F92 EQ PUSH2 0x17C JUMPI DUP1 PUSH4 0x18160DDD EQ PUSH2 0x191 JUMPI DUP1 PUSH4 0x1877BB5C EQ PUSH2 0x1A6 JUMPI DUP1 PUSH4 0x1E0029C8 EQ PUSH2 0x1D1 JUMPI DUP1 PUSH4 0x2E1A7D4D EQ PUSH2 0x1FC JUMPI PUSH0 DUP1 REVERT JUMPDEST CALLDATASIZE PUSH2 0x151 JUMPI STOP JUMPDEST PUSH0 DUP1 REVERT JUMPDEST CALLVALUE DUP1 ISZERO PUSH2 0x160 JUMPI PUSH0 DUP1 REVERT JUMPDEST POP PUSH2 0x169 PUSH2 0x583 JUMP JUMPDEST PUSH1 0x40 MLOAD SWAP1 DUP2 MSTORE PUSH1 0x20 ADD JUMPDEST PUSH1 0x40 MLOAD DUP1 SWAP2 SUB SWAP1 RETURN JUMPDEST CALLVALUE DUP1 ISZERO PUSH2 0x187 JUMPI PUSH0 DUP1 REVERT JUMPDEST POP PUSH2 0x169 PUSH1 0xA SLOAD DUP2 JUMP JUMPDEST CALLVALUE DUP1 ISZERO PUSH2 0x19C JUMPI PUSH0 DUP1 REVERT JUMPDEST POP PUSH2 0x169 PUSH1 0x9 SLOAD DUP2 JUMP JUMPDEST CALLVALUE DUP1 ISZERO PUSH2 0x1B1 JUMPI PUSH0 DUP1 REVERT JUMPDEST POP PUSH2 0x169 PUSH2 0x1C0 CALLDATASIZE PUSH1 0x4 PUSH2 0x1BDE JUMP JUMPDEST PUSH1 0x7 PUSH1 0x20 MSTORE PUSH0 SWAP1 DUP2 MSTORE PUSH1 0x40 SWAP1 KECCAK256 SLOAD DUP2 JUMP JUMPDEST CALLVALUE DUP1 ISZERO PUSH2 0x1DC JUMPI PUSH0 DUP1 REVERT JUMPDEST POP PUSH2 0x169 PUSH2 0x1EB CALLDATASIZE PUSH1 0x4 PUSH2 0x1BF9 JUMP JUMPDEST PUSH1 0x8 PUSH1 0x20 MSTORE PUSH0 SWAP1 DUP2 MSTORE PUSH1 0x40 SWAP1 KECCAK256 SLOAD DUP2 JUMP JUMPDEST CALLVALUE DUP1 ISZERO PUSH2 0x207 JUMPI PUSH0 DUP1 REVERT JUMPDEST POP PUSH2 0x21B PUSH2 0x216 CALLDATASIZE PUSH1 0x4 PUSH2 0x1BF9 JUMP JUMPDEST PUSH2 0x66D JUMP JUMPDEST STOP JUMPDEST CALLVALUE DUP1 ISZERO PUSH2 0x228 JUMPI PUSH0 DUP1 REVERT JUMPDEST POP PUSH2 0x21B PUSH2 0x237 CALLDATASIZE PUSH1 0x4 PUSH2 0x1BF9 JUMP JUMPDEST PUSH2 0x843 JUMP JUMPDEST CALLVALUE DUP1 ISZERO PUSH2 0x247 JUMPI PUSH0 DUP1 REVERT JUMPDEST POP PUSH1 0xC SLOAD PUSH2 0x169 JUMP JUMPDEST CALLVALUE DUP1 ISZERO PUSH2 0x25B JUMPI PUSH0 DUP1 REVERT JUMPDEST POP PUSH1 0x3 SLOAD PUSH2 0x26F SWAP1 PUSH1 0x1 PUSH1 0x1 PUSH1 0xA0 SHL SUB AND DUP2 JUMP JUMPDEST PUSH1 0x40 MLOAD PUSH1 0x1 PUSH1 0x1 PUSH1 0xA0 SHL SUB SWAP1 SWAP2 AND DUP2 MSTORE PUSH1 0x20 ADD PUSH2 0x173 JUMP JUMPDEST CALLVALUE DUP1 ISZERO PUSH2 0x292 JUMPI PUSH0 DUP1 REVERT JUMPDEST POP PUSH2 0x21B PUSH2 0x2A1 CALLDATASIZE PUSH1 0x4 PUSH2 0x1C10 JUMP JUMPDEST PUSH2 0x9CC JUMP JUMPDEST CALLVALUE DUP1 ISZERO PUSH2 0x2B1 JUMPI PUSH0 DUP1 REVERT JUMPDEST POP PUSH2 0x21B PUSH2 0x2C0 CALLDATASIZE PUSH1 0x4 PUSH2 0x1BF9 JUMP JUMPDEST PUSH2 0xB50 JUMP JUMPDEST CALLVALUE DUP1 ISZERO PUSH2 0x2D0 JUMPI PUSH0 DUP1 REVERT JUMPDEST POP PUSH2 0x21B PUSH2 0x2DF CALLDATASIZE PUSH1 0x4 PUSH2 0x1BDE JUMP JUMPDEST PUSH2 0xCAE JUMP JUMPDEST CALLVALUE DUP1 ISZERO PUSH2 0x2EF JUMPI PUSH0 DUP1 REVERT JUMPDEST POP PUSH2 0x26F PUSH2 0x2FE CALLDATASIZE PUSH1 0x4 PUSH2 0x1BF9 JUMP JUMPDEST PUSH2 0xD1B JUMP JUMPDEST CALLVALUE DUP1 ISZERO PUSH2 0x30E JUMPI PUSH0 DUP1 REVERT JUMPDEST POP PUSH0 SLOAD PUSH2 0x26F SWAP1 PUSH1 0x1 PUSH1 0x1 PUSH1 0xA0 SHL SUB AND DUP2 JUMP JUMPDEST CALLVALUE DUP1 ISZERO PUSH2 0x32C JUMPI PUSH0 DUP1 REVERT JUMPDEST POP PUSH2 0x169 PUSH2 0x33B CALLDATASIZE PUSH1 0x4 PUSH2 0x1BF9 JUMP JUMPDEST PUSH2 0xD43 JUMP JUMPDEST CALLVALUE DUP1 ISZERO PUSH2 0x34B JUMPI PUSH0 DUP1 REVERT JUMPDEST POP PUSH2 0x169 PUSH1 0xC SLOAD DUP2 JUMP JUMPDEST CALLVALUE DUP1 ISZERO PUSH2 0x360 JUMPI PUSH0 DUP1 REVERT JUMPDEST POP PUSH2 0x169 PUSH2 0xE39 JUMP JUMPDEST CALLVALUE DUP1 ISZERO PUSH2 0x374 JUMPI PUSH0 DUP1 REVERT JUMPDEST POP PUSH1 0x4 SLOAD PUSH1 0x5 SLOAD PUSH1 0x6 SLOAD PUSH2 0x3CF SWAP3 PUSH1 0x1 PUSH1 0x1 PUSH1 0x80 SHL SUB DUP1 DUP3 AND SWAP4 PUSH1 0x1 PUSH1 0x80 SHL SWAP3 DUP4 SWAP1 DIV DUP3 AND SWAP4 DUP3 DUP3 AND SWAP4 SWAP1 SWAP2 DIV SWAP1 SWAP2 AND SWAP1 PUSH5 0xFFFFFFFFFF DUP2 AND SWAP1 PUSH6 0x10000000000 DUP2 DIV PUSH2 0xFFFF AND SWAP1 PUSH1 0x1 PUSH1 0x38 SHL SWAP1 DIV PUSH1 0x1 PUSH1 0x1 PUSH1 0xA0 SHL SUB AND DUP8 JUMP JUMPDEST PUSH1 0x40 DUP1 MLOAD PUSH1 0x1 PUSH1 0x1 PUSH1 0x80 SHL SUB SWAP9 DUP10 AND DUP2 MSTORE SWAP7 DUP9 AND PUSH1 0x20 DUP9 ADD MSTORE SWAP5 DUP8 AND SWAP5 DUP7 ADD SWAP5 SWAP1 SWAP5 MSTORE SWAP5 SWAP1 SWAP2 AND PUSH1 0x60 DUP5 ADD MSTORE PUSH5 0xFFFFFFFFFF AND PUSH1 0x80 DUP4 ADD MSTORE PUSH2 0xFFFF SWAP1 SWAP3 AND PUSH1 0xA0 DUP3 ADD MSTORE PUSH1 0x1 PUSH1 0x1 PUSH1 0xA0 SHL SUB SWAP1 SWAP2 AND PUSH1 0xC0 DUP3 ADD MSTORE PUSH1 0xE0 ADD PUSH2 0x173 JUMP JUMPDEST CALLVALUE DUP1 ISZERO PUSH2 0x435 JUMPI PUSH0 DUP1 REVERT JUMPDEST POP PUSH2 0x21B PUSH2 0x444 CALLDATASIZE PUSH1 0x4 PUSH2 0x1C47 JUMP JUMPDEST PUSH2 0xF0B JUMP JUMPDEST CALLVALUE DUP1 ISZERO PUSH2 0x454 JUMPI PUSH0 DUP1 REVERT JUMPDEST POP PUSH2 0x21B PUSH2 0x463 CALLDATASIZE PUSH1 0x4 PUSH2 0x1C7D JUMP JUMPDEST PUSH2 0x1121 JUMP JUMPDEST CALLVALUE DUP1 ISZERO PUSH2 0x473 JUMPI PUSH0 DUP1 REVERT JUMPDEST POP PUSH2 0x4C9 PUSH2 0x482 CALLDATASIZE PUSH1 0x4 PUSH2 0x1BF9 JUMP JUMPDEST PUSH1 0x2 PUSH1 0x20 DUP2 SWAP1 MSTORE PUSH0 SWAP2 DUP3 MSTORE PUSH1 0x40 SWAP1 SWAP2 KECCAK256 DUP1 SLOAD PUSH1 0x1 DUP3 ADD SLOAD SWAP3 DUP3 ADD SLOAD PUSH1 0x3 SWAP1 SWAP3 ADD SLOAD SWAP1 SWAP3 PUSH1 0xFF SWAP1 DUP2 AND SWAP3 SWAP2 DUP2 DUP2 AND SWAP2 PUSH2 0x100 DUP3 DIV AND SWAP1 PUSH3 0x10000 SWAP1 DIV PUSH1 0x1 PUSH1 0x1 PUSH1 0xA0 SHL SUB AND DUP7 JUMP JUMPDEST PUSH1 0x40 DUP1 MLOAD SWAP7 DUP8 MSTORE SWAP5 ISZERO ISZERO PUSH1 0x20 DUP8 ADD MSTORE SWAP4 DUP6 ADD SWAP3 SWAP1 SWAP3 MSTORE ISZERO ISZERO PUSH1 0x60 DUP5 ADD MSTORE ISZERO ISZERO PUSH1 0x80 DUP4 ADD MSTORE PUSH1 0x1 PUSH1 0x1 PUSH1 0xA0 SHL SUB AND PUSH1 0xA0 DUP3 ADD MSTORE PUSH1 0xC0 ADD PUSH2 0x173 JUMP JUMPDEST CALLVALUE DUP1 ISZERO PUSH2 0x50E JUMPI PUSH0 DUP1 REVERT JUMPDEST POP PUSH2 0x21B PUSH2 0x51D CALLDATASIZE PUSH1 0x4 PUSH2 0x1C9D JUMP JUMPDEST PUSH2 0x1513 JUMP JUMPDEST CALLVALUE DUP1 ISZERO PUSH2 0x52D JUMPI PUSH0 DUP1 REVERT JUMPDEST POP PUSH1 0x5 SLOAD PUSH1 0x4 SLOAD PUSH1 0x40 DUP1 MLOAD PUSH1 0x1 PUSH1 0x1 PUSH1 0x80 SHL SUB PUSH1 0x1 PUSH1 0x80 SHL DUP1 DUP7 DIV DUP3 AND DUP4 MSTORE DUP5 DIV DUP2 AND PUSH1 0x20 DUP4 ADD MSTORE SWAP4 DUP5 AND SWAP2 DUP2 ADD SWAP2 SWAP1 SWAP2 MSTORE SWAP2 AND PUSH1 0x60 DUP3 ADD MSTORE PUSH1 0x80 ADD PUSH2 0x173 JUMP JUMPDEST CALLVALUE DUP1 ISZERO PUSH2 0x579 JUMPI PUSH0 DUP1 REVERT JUMPDEST POP PUSH2 0x169 PUSH1 0xB SLOAD DUP2 JUMP JUMPDEST PUSH0 DUP1 PUSH2 0x58D PUSH2 0x167F JUMP JUMPDEST SWAP1 POP PUSH0 PUSH2 0x5A2 DUP3 PUSH1 0xC0 ADD MLOAD DUP4 PUSH1 0xE0 ADD MLOAD PUSH2 0x16EE JUMP JUMPDEST PUSH1 0x5 SLOAD SWAP1 SWAP2 POP PUSH2 0x5BC SWAP1 DUP3 SWAP1 PUSH1 0x1 PUSH1 0x1 PUSH1 0x80 SHL SUB AND PUSH2 0x1703 JUMP JUMPDEST PUSH1 0x80 DUP4 ADD MSTORE PUSH0 SLOAD PUSH1 0x40 DUP1 MLOAD PUSH4 0x313CE567 PUSH1 0xE0 SHL DUP2 MSTORE SWAP1 MLOAD PUSH8 0x6765C793FA10079D PUSH1 0x1B SHL SWAP3 PUSH1 0x1 PUSH1 0x1 PUSH1 0xA0 SHL SUB AND SWAP2 PUSH4 0x313CE567 SWAP2 PUSH1 0x4 DUP1 DUP4 ADD SWAP3 PUSH1 0x20 SWAP3 SWAP2 SWAP1 DUP3 SWAP1 SUB ADD DUP2 DUP7 GAS STATICCALL ISZERO DUP1 ISZERO PUSH2 0x612 JUMPI RETURNDATASIZE PUSH0 DUP1 RETURNDATACOPY RETURNDATASIZE PUSH0 REVERT JUMPDEST POP POP POP POP PUSH1 0x40 MLOAD RETURNDATASIZE PUSH1 0x1F NOT PUSH1 0x1F DUP3 ADD AND DUP3 ADD DUP1 PUSH1 0x40 MSTORE POP DUP2 ADD SWAP1 PUSH2 0x636 SWAP2 SWAP1 PUSH2 0x1CC7 JUMP JUMPDEST PUSH2 0x641 SWAP1 PUSH1 0xA PUSH2 0x1DDE JUMP JUMPDEST PUSH1 0x80 DUP5 ADD MLOAD PUSH1 0xB SLOAD PUSH2 0x652 SWAP2 PUSH2 0x1703 JUMP JUMPDEST PUSH2 0x65C SWAP2 SWAP1 PUSH2 0x1DEC JUMP JUMPDEST PUSH2 0x666 SWAP2 SWAP1 PUSH2 0x1E17 JUMP JUMPDEST SWAP3 POP POP POP SWAP1 JUMP JUMPDEST PUSH0 PUSH2 0x676 PUSH2 0x167F JUMP JUMPDEST SWAP1 POP PUSH2 0x681 DUP2 PUSH2 0x1744 JUMP JUMPDEST PUSH0 DUP1 PUSH0 SWAP1 SLOAD SWAP1 PUSH2 0x100 EXP SWAP1 DIV PUSH1 0x1 PUSH1 0x1 PUSH1 0xA0 SHL SUB AND PUSH1 0x1 PUSH1 0x1 PUSH1 0xA0 SHL SUB AND PUSH4 0x313CE567 PUSH1 0x40 MLOAD DUP2 PUSH4 0xFFFFFFFF AND PUSH1 0xE0 SHL DUP2 MSTORE PUSH1 0x4 ADD PUSH1 0x20 PUSH1 0x40 MLOAD DUP1 DUP4 SUB DUP2 DUP7 GAS STATICCALL ISZERO DUP1 ISZERO PUSH2 0x6D1 JUMPI RETURNDATASIZE PUSH0 DUP1 RETURNDATACOPY RETURNDATASIZE PUSH0 REVERT JUMPDEST POP POP POP POP PUSH1 0x40 MLOAD RETURNDATASIZE PUSH1 0x1F NOT PUSH1 0x1F DUP3 ADD AND DUP3 ADD DUP1 PUSH1 0x40 MSTORE POP DUP2 ADD SWAP1 PUSH2 0x6F5 SWAP2 SWAP1 PUSH2 0x1CC7 JUMP JUMPDEST PUSH2 0x700 SWAP1 PUSH1 0xA PUSH2 0x1DDE JUMP JUMPDEST PUSH2 0x715 PUSH8 0x6765C793FA10079D PUSH1 0x1B SHL DUP6 PUSH2 0x1DEC JUMP JUMPDEST PUSH2 0x71F SWAP2 SWAP1 PUSH2 0x1E17 JUMP JUMPDEST SWAP1 POP PUSH2 0x72B PUSH0 DUP3 PUSH2 0x177D JUMP JUMPDEST PUSH1 0x4 SLOAD PUSH0 SWAP1 PUSH2 0x744 SWAP1 DUP4 SWAP1 PUSH1 0x1 PUSH1 0x1 PUSH1 0x80 SHL SUB AND PUSH2 0x18E4 JUMP JUMPDEST CALLER PUSH0 SWAP1 DUP2 MSTORE PUSH1 0x7 PUSH1 0x20 MSTORE PUSH1 0x40 DUP2 KECCAK256 SLOAD SWAP2 SWAP3 POP SWAP1 PUSH2 0x762 SWAP1 DUP4 SWAP1 PUSH2 0x1E36 JUMP JUMPDEST SWAP1 POP DUP2 PUSH1 0x9 PUSH0 DUP3 DUP3 SLOAD PUSH2 0x775 SWAP2 SWAP1 PUSH2 0x1E36 JUMP JUMPDEST SWAP3 POP POP DUP2 SWAP1 SSTORE POP DUP2 PUSH1 0xA PUSH0 DUP3 DUP3 SLOAD PUSH2 0x78D SWAP2 SWAP1 PUSH2 0x1E36 JUMP JUMPDEST SWAP1 SWAP2 SSTORE POP PUSH2 0x7A1 SWAP1 POP JUMP JUMPDEST PUSH1 0x40 MLOAD DUP1 SWAP2 SUB SWAP1 REVERT JUMPDEST CALLER PUSH0 SWAP1 DUP2 MSTORE PUSH1 0x7 PUSH1 0x20 MSTORE PUSH1 0x40 DUP2 KECCAK256 DUP3 SWAP1 SSTORE PUSH1 0xC DUP1 SLOAD DUP8 SWAP3 SWAP1 PUSH2 0x7C4 SWAP1 DUP5 SWAP1 PUSH2 0x1E36 JUMP JUMPDEST SWAP1 SWAP2 SSTORE POP POP PUSH0 SLOAD PUSH1 0x40 MLOAD PUSH4 0xA9059CBB PUSH1 0xE0 SHL DUP2 MSTORE CALLER PUSH1 0x4 DUP3 ADD MSTORE PUSH1 0x24 DUP2 ADD DUP8 SWAP1 MSTORE PUSH1 0x1 PUSH1 0x1 PUSH1 0xA0 SHL SUB SWAP1 SWAP2 AND SWAP1 PUSH4 0xA9059CBB SWAP1 PUSH1 0x44 ADD JUMPDEST PUSH1 0x20 PUSH1 0x40 MLOAD DUP1 DUP4 SUB DUP2 PUSH0 DUP8 GAS CALL ISZERO DUP1 ISZERO PUSH2 0x817 JUMPI RETURNDATASIZE PUSH0 DUP1 RETURNDATACOPY RETURNDATASIZE PUSH0 REVERT JUMPDEST POP POP POP POP PUSH1 0x40 MLOAD RETURNDATASIZE PUSH1 0x1F NOT PUSH1 0x1F DUP3 ADD AND DUP3 ADD DUP1 PUSH1 0x40 MSTORE POP DUP2 ADD SWAP1 PUSH2 0x83B SWAP2 SWAP1 PUSH2 0x1E49 JUMP JUMPDEST POP POP POP POP POP POP JUMP JUMPDEST PUSH0 PUSH2 0x84C PUSH2 0x167F JUMP JUMPDEST SWAP1 POP PUSH2 0x857 DUP2 PUSH2 0x1744 JUMP JUMPDEST PUSH0 DUP1 PUSH0 SWAP1 SLOAD SWAP1 PUSH2 0x100 EXP SWAP1 DIV PUSH1 0x1 PUSH1 0x1 PUSH1 0xA0 SHL SUB AND PUSH1 0x1 PUSH1 0x1 PUSH1 0xA0 SHL SUB AND PUSH4 0x313CE567 PUSH1 0x40 MLOAD DUP2 PUSH4 0xFFFFFFFF AND PUSH1 0xE0 SHL DUP2 MSTORE PUSH1 0x4 ADD PUSH1 0x20 PUSH1 0x40 MLOAD DUP1 DUP4 SUB DUP2 DUP7 GAS STATICCALL ISZERO DUP1 ISZERO PUSH2 0x8A7 JUMPI RETURNDATASIZE PUSH0 DUP1 RETURNDATACOPY RETURNDATASIZE PUSH0 REVERT JUMPDEST POP POP POP POP PUSH1 0x40 MLOAD RETURNDATASIZE PUSH1 0x1F NOT PUSH1 0x1F DUP3 ADD AND DUP3 ADD DUP1 PUSH1 0x40 MSTORE POP DUP2 ADD SWAP1 PUSH2 0x8CB SWAP2 SWAP1 PUSH2 0x1CC7 JUMP JUMPDEST PUSH2 0x8D6 SWAP1 PUSH1 0xA PUSH2 0x1DDE JUMP JUMPDEST PUSH2 0x8EB PUSH8 0x6765C793FA10079D PUSH1 0x1B SHL DUP6 PUSH2 0x1DEC JUMP JUMPDEST PUSH2 0x8F5 SWAP2 SWAP1 PUSH2 0x1E17 JUMP JUMPDEST SWAP1 POP PUSH2 0x901 DUP2 PUSH0 PUSH2 0x177D JUMP JUMPDEST PUSH1 0x4 SLOAD PUSH0 SWAP1 PUSH2 0x91A SWAP1 DUP4 SWAP1 PUSH1 0x1 PUSH1 0x1 PUSH1 0x80 SHL SUB AND PUSH2 0x18E4 JUMP JUMPDEST CALLER PUSH0 SWAP1 DUP2 MSTORE PUSH1 0x7 PUSH1 0x20 MSTORE PUSH1 0x40 DUP2 KECCAK256 SLOAD SWAP2 SWAP3 POP SWAP1 PUSH2 0x938 SWAP1 DUP4 SWAP1 PUSH2 0x1E68 JUMP JUMPDEST SWAP1 POP DUP2 PUSH1 0x9 PUSH0 DUP3 DUP3 SLOAD PUSH2 0x94B SWAP2 SWAP1 PUSH2 0x1E68 JUMP JUMPDEST SWAP3 POP POP DUP2 SWAP1 SSTORE POP DUP2 PUSH1 0xA PUSH0 DUP3 DUP3 SLOAD PUSH2 0x963 SWAP2 SWAP1 PUSH2 0x1E68 JUMP JUMPDEST SWAP1 SWAP2 SSTORE POP POP CALLER PUSH0 SWAP1 DUP2 MSTORE PUSH1 0x7 PUSH1 0x20 MSTORE PUSH1 0x40 DUP2 KECCAK256 DUP3 SWAP1 SSTORE PUSH1 0xC DUP1 SLOAD DUP8 SWAP3 SWAP1 PUSH2 0x98B SWAP1 DUP5 SWAP1 PUSH2 0x1E68 JUMP JUMPDEST SWAP1 SWAP2 SSTORE POP POP PUSH0 SLOAD PUSH1 0x40 MLOAD PUSH4 0x23B872DD PUSH1 0xE0 SHL DUP2 MSTORE CALLER PUSH1 0x4 DUP3 ADD MSTORE ADDRESS PUSH1 0x24 DUP3 ADD MSTORE PUSH1 0x44 DUP2 ADD DUP8 SWAP1 MSTORE PUSH1 0x1 PUSH1 0x1 PUSH1 0xA0 SHL SUB SWAP1 SWAP2 AND SWAP1 PUSH4 0x23B872DD SWAP1 PUSH1 0x64 ADD PUSH2 0x7FB JUMP JUMPDEST PUSH32 0xF0C57E16840DF040F15088DC2F81FE391C3923BEC73E23A9662EFC9C229C6A00 DUP1 SLOAD PUSH1 0x1 PUSH1 0x40 SHL DUP2 DIV PUSH1 0xFF AND ISZERO SWAP1 PUSH8 0xFFFFFFFFFFFFFFFF AND PUSH0 DUP2 ISZERO DUP1 ISZERO PUSH2 0xA11 JUMPI POP DUP3 JUMPDEST SWAP1 POP PUSH0 DUP3 PUSH8 0xFFFFFFFFFFFFFFFF AND PUSH1 0x1 EQ DUP1 ISZERO PUSH2 0xA2D JUMPI POP ADDRESS EXTCODESIZE ISZERO JUMPDEST SWAP1 POP DUP2 ISZERO DUP1 ISZERO PUSH2 0xA3B JUMPI POP DUP1 ISZERO JUMPDEST ISZERO PUSH2 0xA59 JUMPI PUSH1 0x40 MLOAD PUSH4 0xF92EE8A9 PUSH1 0xE0 SHL DUP2 MSTORE PUSH1 0x4 ADD PUSH1 0x40 MLOAD DUP1 SWAP2 SUB SWAP1 REVERT JUMPDEST DUP5 SLOAD PUSH8 0xFFFFFFFFFFFFFFFF NOT AND PUSH1 0x1 OR DUP6 SSTORE DUP4 ISZERO PUSH2 0xA83 JUMPI DUP5 SLOAD PUSH1 0xFF PUSH1 0x40 SHL NOT AND PUSH1 0x1 PUSH1 0x40 SHL OR DUP6 SSTORE JUMPDEST PUSH0 DUP1 SLOAD PUSH1 0x1 PUSH1 0x1 PUSH1 0xA0 SHL SUB DUP1 DUP11 AND PUSH1 0x1 PUSH1 0x1 PUSH1 0xA0 SHL SUB NOT SWAP3 DUP4 AND OR SWAP1 SWAP3 SSTORE PUSH1 0x6 DUP1 SLOAD SWAP3 DUP10 AND PUSH1 0x1 PUSH1 0x38 SHL MUL PUSH8 0x100000000000000 PUSH1 0x1 PUSH1 0xD8 SHL SUB NOT SWAP1 SWAP4 AND SWAP3 SWAP1 SWAP3 OR SWAP1 SWAP2 SSTORE PUSH1 0x4 DUP1 SLOAD PUSH1 0x1 PUSH1 0x1 PUSH1 0x80 SHL SUB NOT SWAP1 DUP2 AND PUSH8 0x6765C793FA10079D PUSH1 0x1B SHL SWAP1 DUP2 OR SWAP1 SWAP3 SSTORE PUSH1 0x5 DUP1 SLOAD SWAP1 SWAP2 AND SWAP1 SWAP2 OR SWAP1 SSTORE PUSH1 0xD DUP1 SLOAD SWAP1 SWAP2 AND CALLER OR SWAP1 SSTORE DUP4 ISZERO PUSH2 0xB47 JUMPI DUP5 SLOAD PUSH1 0xFF PUSH1 0x40 SHL NOT AND DUP6 SSTORE PUSH1 0x40 MLOAD PUSH1 0x1 DUP2 MSTORE PUSH32 0xC7F505B2F371AE2175EE4913F4499E1F2633A7B5936321EED1CDAEB6115181D2 SWAP1 PUSH1 0x20 ADD PUSH1 0x40 MLOAD DUP1 SWAP2 SUB SWAP1 LOG1 JUMPDEST POP POP POP POP POP POP POP JUMP JUMPDEST PUSH1 0x3 SLOAD PUSH1 0x1 PUSH1 0x1 PUSH1 0xA0 SHL SUB AND CALLER EQ PUSH2 0xB7A JUMPI PUSH1 0x40 MLOAD PUSH3 0x461BCD PUSH1 0xE5 SHL DUP2 MSTORE PUSH1 0x4 ADD PUSH2 0x798 SWAP1 PUSH2 0x1E7B JUMP JUMPDEST PUSH0 PUSH2 0xB83 PUSH2 0x167F JUMP JUMPDEST SWAP1 POP PUSH2 0xB8E DUP2 PUSH2 0x1744 JUMP JUMPDEST PUSH0 DUP1 PUSH0 SWAP1 SLOAD SWAP1 PUSH2 0x100 EXP SWAP1 DIV PUSH1 0x1 PUSH1 0x1 PUSH1 0xA0 SHL SUB AND PUSH1 0x1 PUSH1 0x1 PUSH1 0xA0 SHL SUB AND PUSH4 0x313CE567 PUSH1 0x40 MLOAD DUP2 PUSH4 0xFFFFFFFF AND PUSH1 0xE0 SHL DUP2 MSTORE PUSH1 0x4 ADD PUSH1 0x20 PUSH1 0x40 MLOAD DUP1 DUP4 SUB DUP2 DUP7 GAS STATICCALL ISZERO DUP1 ISZERO PUSH2 0xBDE JUMPI RETURNDATASIZE PUSH0 DUP1 RETURNDATACOPY RETURNDATASIZE PUSH0 REVERT JUMPDEST POP POP POP POP PUSH1 0x40 MLOAD RETURNDATASIZE PUSH1 0x1F NOT PUSH1 0x1F DUP3 ADD AND DUP3 ADD DUP1 PUSH1 0x40 MSTORE POP DUP2 ADD SWAP1 PUSH2 0xC02 SWAP2 SWAP1 PUSH2 0x1CC7 JUMP JUMPDEST PUSH2 0xC0D SWAP1 PUSH1 0xA PUSH2 0x1DDE JUMP JUMPDEST PUSH2 0xC22 PUSH8 0x6765C793FA10079D PUSH1 0x1B SHL DUP6 PUSH2 0x1DEC JUMP JUMPDEST PUSH2 0xC2C SWAP2 SWAP1 PUSH2 0x1E17 JUMP JUMPDEST SWAP1 POP PUSH0 PUSH2 0xC48 DUP4 PUSH1 0x40 ADD MLOAD PUSH1 0xA SLOAD PUSH2 0x1703 SWAP1 SWAP2 SWAP1 PUSH4 0xFFFFFFFF AND JUMP JUMPDEST SWAP1 POP PUSH0 PUSH2 0xC6F DUP3 PUSH2 0xC69 DUP7 PUSH1 0x40 ADD MLOAD DUP7 DUP7 PUSH2 0xC63 SWAP2 SWAP1 PUSH2 0x1E68 JUMP JUMPDEST SWAP1 PUSH2 0x1703 JUMP JUMPDEST SWAP1 PUSH2 0x18E4 JUMP JUMPDEST SWAP1 POP PUSH2 0xC7A DUP2 PUSH2 0x191F JUMP JUMPDEST PUSH1 0x4 DUP1 SLOAD PUSH1 0x1 PUSH1 0x1 PUSH1 0x80 SHL SUB NOT AND PUSH1 0x1 PUSH1 0x1 PUSH1 0x80 SHL SUB SWAP3 SWAP1 SWAP3 AND SWAP2 SWAP1 SWAP2 OR SWAP1 SSTORE PUSH1 0xC DUP1 SLOAD DUP7 SWAP2 SWAP1 PUSH0 SWAP1 PUSH2 0x98B SWAP1 DUP5 SWAP1 PUSH2 0x1E68 JUMP JUMPDEST PUSH1 0xD SLOAD PUSH1 0x1 PUSH1 0x1 PUSH1 0xA0 SHL SUB AND CALLER EQ PUSH2 0xCF9 JUMPI PUSH1 0x40 MLOAD PUSH3 0x461BCD PUSH1 0xE5 SHL DUP2 MSTORE PUSH1 0x20 PUSH1 0x4 DUP3 ADD MSTORE PUSH1 0xE PUSH1 0x24 DUP3 ADD MSTORE PUSH14 0x37B7363C903A34329037BBB732B9 PUSH1 0x91 SHL PUSH1 0x44 DUP3 ADD MSTORE PUSH1 0x64 ADD PUSH2 0x798 JUMP JUMPDEST PUSH1 0x3 DUP1 SLOAD PUSH1 0x1 PUSH1 0x1 PUSH1 0xA0 SHL SUB NOT AND PUSH1 0x1 PUSH1 0x1 PUSH1 0xA0 SHL SUB SWAP3 SWAP1 SWAP3 AND SWAP2 SWAP1 SWAP2 OR SWAP1 SSTORE JUMP JUMPDEST PUSH1 0x1 DUP2 DUP2 SLOAD DUP2 LT PUSH2 0xD2A JUMPI PUSH0 DUP1 REVERT JUMPDEST PUSH0 SWAP2 DUP3 MSTORE PUSH1 0x20 SWAP1 SWAP2 KECCAK256 ADD SLOAD PUSH1 0x1 PUSH1 0x1 PUSH1 0xA0 SHL SUB AND SWAP1 POP DUP2 JUMP JUMPDEST PUSH0 DUP1 PUSH2 0xD4D PUSH2 0x167F JUMP JUMPDEST SWAP1 POP PUSH0 PUSH2 0xD62 DUP3 PUSH1 0xC0 ADD MLOAD DUP4 PUSH1 0xE0 ADD MLOAD PUSH2 0x16EE JUMP JUMPDEST PUSH1 0x5 SLOAD SWAP1 SWAP2 POP PUSH2 0xD7C SWAP1 DUP3 SWAP1 PUSH1 0x1 PUSH1 0x1 PUSH1 0x80 SHL SUB AND PUSH2 0x1703 JUMP JUMPDEST PUSH1 0x80 DUP4 ADD MSTORE PUSH0 SLOAD PUSH1 0x40 DUP1 MLOAD PUSH4 0x313CE567 PUSH1 0xE0 SHL DUP2 MSTORE SWAP1 MLOAD PUSH8 0x6765C793FA10079D PUSH1 0x1B SHL SWAP3 PUSH1 0x1 PUSH1 0x1 PUSH1 0xA0 SHL SUB AND SWAP2 PUSH4 0x313CE567 SWAP2 PUSH1 0x4 DUP1 DUP4 ADD SWAP3 PUSH1 0x20 SWAP3 SWAP2 SWAP1 DUP3 SWAP1 SUB ADD DUP2 DUP7 GAS STATICCALL ISZERO DUP1 ISZERO PUSH2 0xDD2 JUMPI RETURNDATASIZE PUSH0 DUP1 RETURNDATACOPY RETURNDATASIZE PUSH0 REVERT JUMPDEST POP POP POP POP PUSH1 0x40 MLOAD RETURNDATASIZE PUSH1 0x1F NOT PUSH1 0x1F DUP3 ADD AND DUP3 ADD DUP1 PUSH1 0x40 MSTORE POP DUP2 ADD SWAP1 PUSH2 0xDF6 SWAP2 SWAP1 PUSH2 0x1CC7 JUMP JUMPDEST PUSH2 0xE01 SWAP1 PUSH1 0xA PUSH2 0x1DDE JUMP JUMPDEST PUSH1 0x80 DUP5 ADD MLOAD PUSH0 DUP8 DUP2 MSTORE PUSH1 0x8 PUSH1 0x20 MSTORE PUSH1 0x40 SWAP1 KECCAK256 SLOAD PUSH2 0xE1D SWAP2 PUSH2 0x1703 JUMP JUMPDEST PUSH2 0xE27 SWAP2 SWAP1 PUSH2 0x1DEC JUMP JUMPDEST PUSH2 0xE31 SWAP2 SWAP1 PUSH2 0x1E17 JUMP JUMPDEST SWAP5 SWAP4 POP POP POP POP JUMP JUMPDEST PUSH0 DUP1 PUSH2 0xE43 PUSH2 0x167F JUMP JUMPDEST SWAP1 POP PUSH0 PUSH2 0xE58 DUP3 PUSH1 0xA0 ADD MLOAD DUP4 PUSH1 0xE0 ADD MLOAD PUSH2 0x1956 JUMP JUMPDEST SWAP1 POP PUSH2 0xE71 DUP3 PUSH1 0x40 ADD MLOAD DUP3 PUSH2 0x1703 SWAP1 SWAP2 SWAP1 PUSH4 0xFFFFFFFF AND JUMP JUMPDEST PUSH1 0x40 DUP1 DUP5 ADD SWAP2 SWAP1 SWAP2 MSTORE PUSH0 SLOAD DUP2 MLOAD PUSH4 0x313CE567 PUSH1 0xE0 SHL DUP2 MSTORE SWAP2 MLOAD PUSH8 0x6765C793FA10079D PUSH1 0x1B SHL SWAP3 PUSH1 0x1 PUSH1 0x1 PUSH1 0xA0 SHL SUB SWAP1 SWAP3 AND SWAP2 PUSH4 0x313CE567 SWAP2 PUSH1 0x4 DUP1 DUP4 ADD SWAP3 PUSH1 0x20 SWAP3 SWAP2 SWAP1 DUP3 SWAP1 SUB ADD DUP2 DUP7 GAS STATICCALL ISZERO DUP1 ISZERO PUSH2 0xECB JUMPI RETURNDATASIZE PUSH0 DUP1 RETURNDATACOPY RETURNDATASIZE PUSH0 REVERT JUMPDEST POP POP POP POP PUSH1 0x40 MLOAD RETURNDATASIZE PUSH1 0x1F NOT PUSH1 0x1F DUP3 ADD AND DUP3 ADD DUP1 PUSH1 0x40 MSTORE POP DUP2 ADD SWAP1 PUSH2 0xEEF SWAP2 SWAP1 PUSH2 0x1CC7 JUMP JUMPDEST PUSH2 0xEFA SWAP1 PUSH1 0xA PUSH2 0x1DDE JUMP JUMPDEST PUSH1 0x40 DUP5 ADD MLOAD PUSH1 0x9 SLOAD PUSH2 0x652 SWAP2 PUSH2 0x1703 JUMP JUMPDEST PUSH1 0x3 SLOAD PUSH1 0x1 PUSH1 0x1 PUSH1 0xA0 SHL SUB AND CALLER EQ PUSH2 0xF35 JUMPI PUSH1 0x40 MLOAD PUSH3 0x461BCD PUSH1 0xE5 SHL DUP2 MSTORE PUSH1 0x4 ADD PUSH2 0x798 SWAP1 PUSH2 0x1E7B JUMP JUMPDEST PUSH0 PUSH2 0xF3E PUSH2 0x167F JUMP JUMPDEST SWAP1 POP PUSH2 0xF49 DUP2 PUSH2 0x1744 JUMP JUMPDEST PUSH0 DUP1 PUSH0 SWAP1 SLOAD SWAP1 PUSH2 0x100 EXP SWAP1 DIV PUSH1 0x1 PUSH1 0x1 PUSH1 0xA0 SHL SUB AND PUSH1 0x1 PUSH1 0x1 PUSH1 0xA0 SHL SUB AND PUSH4 0x313CE567 PUSH1 0x40 MLOAD DUP2 PUSH4 0xFFFFFFFF AND PUSH1 0xE0 SHL DUP2 MSTORE PUSH1 0x4 ADD PUSH1 0x20 PUSH1 0x40 MLOAD DUP1 DUP4 SUB DUP2 DUP7 GAS STATICCALL ISZERO DUP1 ISZERO PUSH2 0xF99 JUMPI RETURNDATASIZE PUSH0 DUP1 RETURNDATACOPY RETURNDATASIZE PUSH0 REVERT JUMPDEST POP POP POP POP PUSH1 0x40 MLOAD RETURNDATASIZE PUSH1 0x1F NOT PUSH1 0x1F DUP3 ADD AND DUP3 ADD DUP1 PUSH1 0x40 MSTORE POP DUP2 ADD SWAP1 PUSH2 0xFBD SWAP2 SWAP1 PUSH2 0x1CC7 JUMP JUMPDEST PUSH2 0xFC8 SWAP1 PUSH1 0xA PUSH2 0x1DDE JUMP JUMPDEST PUSH2 0xFDD PUSH8 0x6765C793FA10079D PUSH1 0x1B SHL DUP7 PUSH2 0x1DEC JUMP JUMPDEST PUSH2 0xFE7 SWAP2 SWAP1 PUSH2 0x1E17 JUMP JUMPDEST SWAP1 POP PUSH0 PUSH2 0x1001 DUP4 PUSH1 0x80 ADD MLOAD DUP4 PUSH2 0x18E4 SWAP1 SWAP2 SWAP1 PUSH4 0xFFFFFFFF AND JUMP JUMPDEST PUSH0 DUP8 DUP2 MSTORE PUSH1 0x8 PUSH1 0x20 MSTORE PUSH1 0x40 DUP2 KECCAK256 SLOAD SWAP2 SWAP3 POP SWAP1 PUSH2 0x101E SWAP1 DUP4 SWAP1 PUSH2 0x1E68 JUMP JUMPDEST SWAP1 POP DUP2 PUSH1 0xB PUSH0 DUP3 DUP3 SLOAD PUSH2 0x1031 SWAP2 SWAP1 PUSH2 0x1E68 JUMP JUMPDEST SWAP1 SWAP2 SSTORE POP POP PUSH1 0xC SLOAD DUP7 GT ISZERO PUSH2 0x1088 JUMPI PUSH1 0x40 MLOAD PUSH3 0x461BCD PUSH1 0xE5 SHL DUP2 MSTORE PUSH1 0x20 PUSH1 0x4 DUP3 ADD MSTORE PUSH1 0x1C PUSH1 0x24 DUP3 ADD MSTORE PUSH32 0x446F206E6F74206861766520656E6F756768206C697175696469747900000000 PUSH1 0x44 DUP3 ADD MSTORE PUSH1 0x64 ADD PUSH2 0x798 JUMP JUMPDEST PUSH0 DUP8 DUP2 MSTORE PUSH1 0x2 PUSH1 0x20 DUP2 DUP2 MSTORE PUSH1 0x40 DUP1 DUP5 KECCAK256 PUSH1 0x8 SWAP1 SWAP3 MSTORE DUP4 KECCAK256 DUP5 SWAP1 SSTORE DUP10 DUP2 SSTORE SWAP1 DUP2 ADD DUP9 SWAP1 SSTORE PUSH1 0x3 DUP2 ADD DUP1 SLOAD PUSH3 0x10000 PUSH1 0x1 PUSH1 0xB0 SHL SUB NOT AND PUSH3 0x10000 PUSH1 0x1 PUSH1 0x1 PUSH1 0xA0 SHL SUB DUP11 AND MUL OR SWAP1 SSTORE SWAP1 PUSH2 0x10DA SWAP1 DUP6 PUSH2 0x177D JUMP JUMPDEST PUSH1 0x40 DUP6 ADD MLOAD PUSH2 0x10EA SWAP1 DUP6 SWAP1 PUSH2 0x18E4 JUMP JUMPDEST PUSH1 0xA PUSH0 DUP3 DUP3 SLOAD PUSH2 0x10FA SWAP2 SWAP1 PUSH2 0x1E36 JUMP JUMPDEST SWAP3 POP POP DUP2 SWAP1 SSTORE POP DUP7 PUSH1 0xC PUSH0 DUP3 DUP3 SLOAD PUSH2 0x1112 SWAP2 SWAP1 PUSH2 0x1E36 JUMP JUMPDEST SWAP1 SWAP2 SSTORE POP POP POP POP POP POP POP POP POP POP JUMP JUMPDEST PUSH1 0x3 SLOAD PUSH1 0x1 PUSH1 0x1 PUSH1 0xA0 SHL SUB AND CALLER EQ PUSH2 0x114B JUMPI PUSH1 0x40 MLOAD PUSH3 0x461BCD PUSH1 0xE5 SHL DUP2 MSTORE PUSH1 0x4 ADD PUSH2 0x798 SWAP1 PUSH2 0x1E7B JUMP JUMPDEST PUSH0 PUSH2 0x1154 PUSH2 0x167F JUMP JUMPDEST SWAP1 POP PUSH2 0x115F DUP2 PUSH2 0x1744 JUMP JUMPDEST PUSH0 DUP1 PUSH0 SWAP1 SLOAD SWAP1 PUSH2 0x100 EXP SWAP1 DIV PUSH1 0x1 PUSH1 0x1 PUSH1 0xA0 SHL SUB AND PUSH1 0x1 PUSH1 0x1 PUSH1 0xA0 SHL SUB AND PUSH4 0x313CE567 PUSH1 0x40 MLOAD DUP2 PUSH4 0xFFFFFFFF AND PUSH1 0xE0 SHL DUP2 MSTORE PUSH1 0x4 ADD PUSH1 0x20 PUSH1 0x40 MLOAD DUP1 DUP4 SUB DUP2 DUP7 GAS STATICCALL ISZERO DUP1 ISZERO PUSH2 0x11AF JUMPI RETURNDATASIZE PUSH0 DUP1 RETURNDATACOPY RETURNDATASIZE PUSH0 REVERT JUMPDEST POP POP POP POP PUSH1 0x40 MLOAD RETURNDATASIZE PUSH1 0x1F NOT PUSH1 0x1F DUP3 ADD AND DUP3 ADD DUP1 PUSH1 0x40 MSTORE POP DUP2 ADD SWAP1 PUSH2 0x11D3 SWAP2 SWAP1 PUSH2 0x1CC7 JUMP JUMPDEST PUSH2 0x11DE SWAP1 PUSH1 0xA PUSH2 0x1DDE JUMP JUMPDEST PUSH2 0x11F3 PUSH8 0x6765C793FA10079D PUSH1 0x1B SHL DUP6 PUSH2 0x1DEC JUMP JUMPDEST PUSH2 0x11FD SWAP2 SWAP1 PUSH2 0x1E17 JUMP JUMPDEST PUSH1 0x5 SLOAD SWAP1 SWAP2 POP PUSH0 SWAP1 PUSH2 0x1219 SWAP1 DUP4 SWAP1 PUSH1 0x1 PUSH1 0x1 PUSH1 0x80 SHL SUB AND PUSH2 0x18E4 JUMP JUMPDEST PUSH0 DUP7 DUP2 MSTORE PUSH1 0x8 PUSH1 0x20 MSTORE PUSH1 0x40 SWAP1 KECCAK256 SLOAD SWAP1 SWAP2 POP DUP2 GT ISZERO PUSH2 0x140C JUMPI PUSH0 DUP6 DUP2 MSTORE PUSH1 0x8 PUSH1 0x20 MSTORE PUSH1 0x40 DUP2 KECCAK256 SLOAD PUSH1 0xB DUP1 SLOAD SWAP2 SWAP3 SWAP1 SWAP2 PUSH2 0x1252 SWAP1 DUP5 SWAP1 PUSH2 0x1E36 JUMP JUMPDEST SWAP1 SWAP2 SSTORE POP POP PUSH1 0x5 SLOAD PUSH0 DUP7 DUP2 MSTORE PUSH1 0x8 PUSH1 0x20 MSTORE PUSH1 0x40 DUP2 KECCAK256 SLOAD SWAP1 SWAP2 PUSH2 0x127D SWAP2 SWAP1 PUSH1 0x1 PUSH1 0x1 PUSH1 0x80 SHL SUB AND PUSH2 0x1703 JUMP JUMPDEST SWAP1 POP PUSH0 PUSH8 0x6765C793FA10079D PUSH1 0x1B SHL PUSH1 0x1 PUSH1 0x1 PUSH1 0x80 SHL SUB AND PUSH0 DUP1 SLOAD SWAP1 PUSH2 0x100 EXP SWAP1 DIV PUSH1 0x1 PUSH1 0x1 PUSH1 0xA0 SHL SUB AND PUSH1 0x1 PUSH1 0x1 PUSH1 0xA0 SHL SUB AND PUSH4 0x313CE567 PUSH1 0x40 MLOAD DUP2 PUSH4 0xFFFFFFFF AND PUSH1 0xE0 SHL DUP2 MSTORE PUSH1 0x4 ADD PUSH1 0x20 PUSH1 0x40 MLOAD DUP1 DUP4 SUB DUP2 DUP7 GAS STATICCALL ISZERO DUP1 ISZERO PUSH2 0x12E3 JUMPI RETURNDATASIZE PUSH0 DUP1 RETURNDATACOPY RETURNDATASIZE PUSH0 REVERT JUMPDEST POP POP POP POP PUSH1 0x40 MLOAD RETURNDATASIZE PUSH1 0x1F NOT PUSH1 0x1F DUP3 ADD AND DUP3 ADD DUP1 PUSH1 0x40 MSTORE POP DUP2 ADD SWAP1 PUSH2 0x1307 SWAP2 SWAP1 PUSH2 0x1CC7 JUMP JUMPDEST PUSH2 0x1312 SWAP1 PUSH1 0xA PUSH2 0x1DDE JUMP JUMPDEST PUSH2 0x131C SWAP1 DUP5 PUSH2 0x1DEC JUMP JUMPDEST PUSH2 0x1326 SWAP2 SWAP1 PUSH2 0x1E17 JUMP JUMPDEST PUSH0 DUP9 DUP2 MSTORE PUSH1 0x8 PUSH1 0x20 MSTORE PUSH1 0x40 DUP2 KECCAK256 DUP2 SWAP1 SSTORE SWAP1 SWAP2 POP PUSH2 0x1343 SWAP1 DUP1 PUSH2 0x177D JUMP JUMPDEST PUSH1 0x40 DUP1 DUP7 ADD MLOAD PUSH0 DUP10 DUP2 MSTORE PUSH1 0x8 PUSH1 0x20 MSTORE SWAP2 SWAP1 SWAP2 KECCAK256 SLOAD PUSH2 0x1360 SWAP2 PUSH2 0x18E4 JUMP JUMPDEST PUSH1 0xA PUSH0 DUP3 DUP3 SLOAD PUSH2 0x1370 SWAP2 SWAP1 PUSH2 0x1E68 JUMP JUMPDEST SWAP3 POP POP DUP2 SWAP1 SSTORE POP DUP1 PUSH1 0xC PUSH0 DUP3 DUP3 SLOAD PUSH2 0x1388 SWAP2 SWAP1 PUSH2 0x1E68 JUMP JUMPDEST SWAP1 SWAP2 SSTORE POP POP PUSH0 SLOAD PUSH1 0x40 MLOAD PUSH4 0x23B872DD PUSH1 0xE0 SHL DUP2 MSTORE CALLER PUSH1 0x4 DUP3 ADD MSTORE ADDRESS PUSH1 0x24 DUP3 ADD MSTORE PUSH1 0x44 DUP2 ADD DUP4 SWAP1 MSTORE PUSH1 0x1 PUSH1 0x1 PUSH1 0xA0 SHL SUB SWAP1 SWAP2 AND SWAP1 PUSH4 0x23B872DD SWAP1 PUSH1 0x64 ADD PUSH1 0x20 PUSH1 0x40 MLOAD DUP1 DUP4 SUB DUP2 PUSH0 DUP8 GAS CALL ISZERO DUP1 ISZERO PUSH2 0x13E0 JUMPI RETURNDATASIZE PUSH0 DUP1 RETURNDATACOPY RETURNDATASIZE PUSH0 REVERT JUMPDEST POP POP POP POP PUSH1 0x40 MLOAD RETURNDATASIZE PUSH1 0x1F NOT PUSH1 0x1F DUP3 ADD AND DUP3 ADD DUP1 PUSH1 0x40 MSTORE POP DUP2 ADD SWAP1 PUSH2 0x1404 SWAP2 SWAP1 PUSH2 0x1E49 JUMP JUMPDEST POP POP POP PUSH2 0x150C JUMP JUMPDEST PUSH0 DUP6 DUP2 MSTORE PUSH1 0x8 PUSH1 0x20 MSTORE PUSH1 0x40 DUP2 KECCAK256 SLOAD PUSH2 0x1425 SWAP1 DUP4 SWAP1 PUSH2 0x1E36 JUMP JUMPDEST SWAP1 POP DUP2 PUSH1 0xB PUSH0 DUP3 DUP3 SLOAD PUSH2 0x1438 SWAP2 SWAP1 PUSH2 0x1E36 JUMP JUMPDEST SWAP1 SWAP2 SSTORE POP POP PUSH0 DUP7 DUP2 MSTORE PUSH1 0x8 PUSH1 0x20 MSTORE PUSH1 0x40 DUP2 KECCAK256 DUP3 SWAP1 SSTORE PUSH2 0x1458 SWAP1 DUP5 SWAP1 PUSH2 0x177D JUMP JUMPDEST PUSH1 0x40 DUP5 ADD MLOAD PUSH2 0x1468 SWAP1 DUP5 SWAP1 PUSH2 0x18E4 JUMP JUMPDEST PUSH1 0xA PUSH0 DUP3 DUP3 SLOAD PUSH2 0x1478 SWAP2 SWAP1 PUSH2 0x1E68 JUMP JUMPDEST SWAP3 POP POP DUP2 SWAP1 SSTORE POP DUP5 PUSH1 0xC PUSH0 DUP3 DUP3 SLOAD PUSH2 0x1490 SWAP2 SWAP1 PUSH2 0x1E68 JUMP JUMPDEST SWAP1 SWAP2 SSTORE POP POP PUSH0 SLOAD PUSH1 0x40 MLOAD PUSH4 0x23B872DD PUSH1 0xE0 SHL DUP2 MSTORE CALLER PUSH1 0x4 DUP3 ADD MSTORE ADDRESS PUSH1 0x24 DUP3 ADD MSTORE PUSH1 0x44 DUP2 ADD DUP8 SWAP1 MSTORE PUSH1 0x1 PUSH1 0x1 PUSH1 0xA0 SHL SUB SWAP1 SWAP2 AND SWAP1 PUSH4 0x23B872DD SWAP1 PUSH1 0x64 ADD PUSH1 0x20 PUSH1 0x40 MLOAD DUP1 DUP4 SUB DUP2 PUSH0 DUP8 GAS CALL ISZERO DUP1 ISZERO PUSH2 0x14E8 JUMPI RETURNDATASIZE PUSH0 DUP1 RETURNDATACOPY RETURNDATASIZE PUSH0 REVERT JUMPDEST POP POP POP POP PUSH1 0x40 MLOAD RETURNDATASIZE PUSH1 0x1F NOT PUSH1 0x1F DUP3 ADD AND DUP3 ADD DUP1 PUSH1 0x40 MSTORE POP DUP2 ADD SWAP1 PUSH2 0xB47 SWAP2 SWAP1 PUSH2 0x1E49 JUMP JUMPDEST POP POP POP POP POP JUMP JUMPDEST PUSH1 0x3 SLOAD PUSH1 0x1 PUSH1 0x1 PUSH1 0xA0 SHL SUB AND CALLER EQ PUSH2 0x153D JUMPI PUSH1 0x40 MLOAD PUSH3 0x461BCD PUSH1 0xE5 SHL DUP2 MSTORE PUSH1 0x4 ADD PUSH2 0x798 SWAP1 PUSH2 0x1E7B JUMP JUMPDEST PUSH0 DUP2 DUP2 MSTORE PUSH1 0x2 PUSH1 0x20 MSTORE PUSH1 0x40 SWAP1 KECCAK256 PUSH1 0x1 ADD SLOAD PUSH1 0xFF AND ISZERO PUSH2 0x158D JUMPI PUSH1 0x40 MLOAD PUSH3 0x461BCD PUSH1 0xE5 SHL DUP2 MSTORE PUSH1 0x20 PUSH1 0x4 DUP3 ADD MSTORE PUSH1 0xC PUSH1 0x24 DUP3 ADD MSTORE PUSH12 0x131BD85B881A5CC81C185A59 PUSH1 0xA2 SHL PUSH1 0x44 DUP3 ADD MSTORE PUSH1 0x64 ADD PUSH2 0x798 JUMP JUMPDEST PUSH0 DUP2 DUP2 MSTORE PUSH1 0x2 PUSH1 0x20 DUP2 DUP2 MSTORE PUSH1 0x40 SWAP3 DUP4 SWAP1 KECCAK256 PUSH1 0x1 DUP1 DUP3 ADD DUP1 SLOAD PUSH1 0xFF NOT AND SWAP1 SWAP2 OR SWAP1 SSTORE SWAP1 SWAP2 ADD SLOAD DUP3 MLOAD PUSH1 0x1 PUSH1 0x1 PUSH1 0xA0 SHL SUB DUP7 AND DUP2 MSTORE SWAP2 DUP3 ADD MSTORE TIMESTAMP DUP2 DUP4 ADD MSTORE SWAP1 MLOAD PUSH32 0xEC2DB68ED4A8B09A4C7173E6E4230E6CCA7E1B48E58A0AFFC9C550470E0E1481 SWAP2 DUP2 SWAP1 SUB PUSH1 0x60 ADD SWAP1 LOG1 PUSH0 DUP1 SLOAD DUP3 DUP3 MSTORE PUSH1 0x2 PUSH1 0x20 DUP2 SWAP1 MSTORE PUSH1 0x40 SWAP3 DUP4 SWAP1 KECCAK256 ADD SLOAD SWAP2 MLOAD PUSH4 0xA9059CBB PUSH1 0xE0 SHL DUP2 MSTORE PUSH1 0x1 PUSH1 0x1 PUSH1 0xA0 SHL SUB DUP6 DUP2 AND PUSH1 0x4 DUP4 ADD MSTORE PUSH1 0x24 DUP3 ADD SWAP4 SWAP1 SWAP4 MSTORE SWAP2 AND SWAP1 PUSH4 0xA9059CBB SWAP1 PUSH1 0x44 ADD PUSH1 0x20 PUSH1 0x40 MLOAD DUP1 DUP4 SUB DUP2 PUSH0 DUP8 GAS CALL ISZERO DUP1 ISZERO PUSH2 0x1656 JUMPI RETURNDATASIZE PUSH0 DUP1 RETURNDATACOPY RETURNDATASIZE PUSH0 REVERT JUMPDEST POP POP POP POP PUSH1 0x40 MLOAD RETURNDATASIZE PUSH1 0x1F NOT PUSH1 0x1F DUP3 ADD AND DUP3 ADD DUP1 PUSH1 0x40 MSTORE POP DUP2 ADD SWAP1 PUSH2 0x167A SWAP2 SWAP1 PUSH2 0x1E49 JUMP JUMPDEST POP POP POP JUMP JUMPDEST PUSH2 0x1687 PUSH2 0x1B86 JUMP JUMPDEST PUSH2 0x168F PUSH2 0x1B86 JUMP JUMPDEST PUSH1 0x4 SLOAD PUSH1 0x1 PUSH1 0x1 PUSH1 0x80 SHL SUB DUP1 DUP3 AND PUSH1 0x40 DUP5 ADD DUP2 SWAP1 MSTORE PUSH1 0x20 DUP5 ADD MSTORE PUSH1 0x5 SLOAD DUP1 DUP3 AND PUSH1 0x80 DUP6 ADD DUP2 SWAP1 MSTORE PUSH1 0x60 DUP6 ADD MSTORE PUSH1 0x1 PUSH1 0x80 SHL SWAP3 DUP4 SWAP1 DIV DUP3 AND PUSH1 0xA0 DUP6 ADD MSTORE SWAP2 SWAP1 SWAP2 DIV AND PUSH1 0xC0 DUP3 ADD MSTORE PUSH1 0x6 SLOAD PUSH5 0xFFFFFFFFFF AND PUSH1 0xE0 DUP3 ADD MSTORE PUSH1 0xB SLOAD DUP2 MSTORE SWAP2 SWAP1 POP JUMP JUMPDEST PUSH0 PUSH2 0x16FA DUP4 DUP4 TIMESTAMP PUSH2 0x1991 JUMP JUMPDEST SWAP1 POP JUMPDEST SWAP3 SWAP2 POP POP JUMP JUMPDEST PUSH0 DUP2 ISZERO PUSH12 0x19D971E4FE8401E74000000 NOT DUP4 SWAP1 DIV DUP5 GT ISZERO OR PUSH2 0x1723 JUMPI PUSH0 DUP1 REVERT JUMPDEST POP PUSH8 0x6765C793FA10079D PUSH1 0x1B SHL SWAP2 MUL PUSH12 0x19D971E4FE8401E74000000 ADD DIV SWAP1 JUMP JUMPDEST PUSH1 0x6 SLOAD PUSH5 0xFFFFFFFFFF TIMESTAMP DUP2 AND SWAP2 AND SUB PUSH2 0x175A JUMPI POP JUMP JUMPDEST PUSH2 0x1763 DUP2 PUSH2 0x1AB6 JUMP JUMPDEST POP PUSH1 0x6 DUP1 SLOAD PUSH5 0xFFFFFFFFFF NOT AND TIMESTAMP PUSH5 0xFFFFFFFFFF AND OR SWAP1 SSTORE JUMP JUMPDEST PUSH2 0x179E PUSH1 0x40 MLOAD DUP1 PUSH1 0x60 ADD PUSH1 0x40 MSTORE DUP1 PUSH0 DUP2 MSTORE PUSH1 0x20 ADD PUSH0 DUP2 MSTORE PUSH1 0x20 ADD PUSH0 DUP2 MSTORE POP SWAP1 JUMP JUMPDEST PUSH1 0x6 SLOAD PUSH1 0x40 DUP1 MLOAD PUSH1 0x80 DUP2 ADD DUP3 MSTORE DUP6 DUP2 MSTORE PUSH1 0x20 DUP2 ADD DUP6 SWAP1 MSTORE PUSH1 0x5 SLOAD PUSH1 0xB SLOAD PUSH1 0x1 PUSH1 0x38 SHL SWAP1 SWAP5 DIV PUSH1 0x1 PUSH1 0x1 PUSH1 0xA0 SHL SUB AND SWAP4 PUSH4 0x56EAF264 SWAP4 DUP4 ADD SWAP2 PUSH2 0x17E9 SWAP2 SWAP1 PUSH1 0x1 PUSH1 0x1 PUSH1 0x80 SHL SUB AND PUSH2 0x1703 JUMP JUMPDEST DUP2 MSTORE PUSH1 0x4 SLOAD PUSH1 0xA SLOAD PUSH1 0x20 SWAP1 SWAP3 ADD SWAP2 PUSH2 0x1809 SWAP2 PUSH1 0x1 PUSH1 0x1 PUSH1 0x80 SHL SUB AND PUSH2 0x1703 JUMP JUMPDEST SWAP1 MSTORE PUSH1 0x40 DUP1 MLOAD PUSH1 0x1 PUSH1 0x1 PUSH1 0xE0 SHL SUB NOT PUSH1 0xE0 DUP6 SWAP1 SHL AND DUP2 MSTORE DUP3 MLOAD PUSH1 0x4 DUP3 ADD MSTORE PUSH1 0x20 DUP4 ADD MLOAD PUSH1 0x24 DUP3 ADD MSTORE SWAP1 DUP3 ADD MLOAD PUSH1 0x44 DUP3 ADD MSTORE PUSH1 0x60 SWAP1 SWAP2 ADD MLOAD PUSH1 0x64 DUP3 ADD MSTORE PUSH1 0x84 ADD PUSH1 0x40 DUP1 MLOAD DUP1 DUP4 SUB DUP2 DUP7 GAS STATICCALL ISZERO DUP1 ISZERO PUSH2 0x1862 JUMPI RETURNDATASIZE PUSH0 DUP1 RETURNDATACOPY RETURNDATASIZE PUSH0 REVERT JUMPDEST POP POP POP POP PUSH1 0x40 MLOAD RETURNDATASIZE PUSH1 0x1F NOT PUSH1 0x1F DUP3 ADD AND DUP3 ADD DUP1 PUSH1 0x40 MSTORE POP DUP2 ADD SWAP1 PUSH2 0x1886 SWAP2 SWAP1 PUSH2 0x1EA2 JUMP JUMPDEST PUSH1 0x20 DUP4 ADD MSTORE DUP1 DUP3 MSTORE PUSH2 0x1897 SWAP1 PUSH2 0x191F JUMP JUMPDEST PUSH1 0x4 DUP1 SLOAD PUSH1 0x1 PUSH1 0x1 PUSH1 0x80 SHL SUB SWAP3 DUP4 AND PUSH1 0x1 PUSH1 0x80 SHL MUL SWAP3 AND SWAP2 SWAP1 SWAP2 OR SWAP1 SSTORE PUSH1 0x20 DUP2 ADD MLOAD PUSH2 0x18C2 SWAP1 PUSH2 0x191F JUMP JUMPDEST PUSH1 0x5 DUP1 SLOAD PUSH1 0x1 PUSH1 0x1 PUSH1 0x80 SHL SUB SWAP3 DUP4 AND PUSH1 0x1 PUSH1 0x80 SHL MUL SWAP3 AND SWAP2 SWAP1 SWAP2 OR SWAP1 SSTORE POP POP POP JUMP JUMPDEST PUSH0 DUP2 ISZERO PUSH8 0x6765C793FA10079D PUSH1 0x1B SHL PUSH1 0x2 DUP5 DIV NOT DIV DUP5 GT OR ISZERO PUSH2 0x1905 JUMPI PUSH0 DUP1 REVERT JUMPDEST POP PUSH8 0x6765C793FA10079D PUSH1 0x1B SHL SWAP2 SWAP1 SWAP2 MUL PUSH1 0x2 DUP3 DIV ADD DIV SWAP1 JUMP JUMPDEST PUSH0 PUSH1 0x1 PUSH1 0x1 PUSH1 0x80 SHL SUB DUP3 GT ISZERO PUSH2 0x1952 JUMPI PUSH1 0x40 MLOAD PUSH4 0x6DFCC65 PUSH1 0xE4 SHL DUP2 MSTORE PUSH1 0x80 PUSH1 0x4 DUP3 ADD MSTORE PUSH1 0x24 DUP2 ADD DUP4 SWAP1 MSTORE PUSH1 0x44 ADD PUSH2 0x798 JUMP JUMPDEST POP SWAP1 JUMP JUMPDEST PUSH0 DUP1 PUSH2 0x1969 PUSH5 0xFFFFFFFFFF DUP5 AND TIMESTAMP PUSH2 0x1E36 JUMP JUMPDEST PUSH2 0x1973 SWAP1 DUP6 PUSH2 0x1DEC JUMP JUMPDEST PUSH4 0x1E13380 SWAP1 DIV SWAP1 POP PUSH2 0xE31 DUP2 PUSH8 0x6765C793FA10079D PUSH1 0x1B SHL PUSH2 0x1E68 JUMP JUMPDEST PUSH0 DUP1 PUSH2 0x19A4 PUSH5 0xFFFFFFFFFF DUP6 AND DUP5 PUSH2 0x1E36 JUMP JUMPDEST SWAP1 POP DUP1 PUSH0 SUB PUSH2 0x19C1 JUMPI PUSH8 0x6765C793FA10079D PUSH1 0x1B SHL SWAP2 POP POP PUSH2 0x1AAF JUMP JUMPDEST PUSH0 NOT DUP2 ADD PUSH0 DUP1 DUP1 PUSH1 0x2 DUP6 GT PUSH2 0x19D6 JUMPI PUSH0 PUSH2 0x19DB JUMP JUMPDEST PUSH1 0x2 DUP6 SUB JUMPDEST SWAP3 POP PUSH7 0x38882915C4000 PUSH2 0x19EF DUP11 DUP1 PUSH2 0x1703 JUMP JUMPDEST DUP2 PUSH2 0x19FC JUMPI PUSH2 0x19FC PUSH2 0x1E03 JUMP JUMPDEST DIV SWAP2 POP PUSH4 0x1E13380 PUSH2 0x1A0E DUP4 DUP12 PUSH2 0x1703 JUMP JUMPDEST DUP2 PUSH2 0x1A1B JUMPI PUSH2 0x1A1B PUSH2 0x1E03 JUMP JUMPDEST DIV SWAP1 POP PUSH0 DUP3 PUSH2 0x1A2A DUP7 DUP9 PUSH2 0x1DEC JUMP JUMPDEST PUSH2 0x1A34 SWAP2 SWAP1 PUSH2 0x1DEC JUMP JUMPDEST PUSH1 0x2 SWAP1 DIV SWAP1 POP PUSH0 DUP3 DUP6 PUSH2 0x1A47 DUP9 DUP11 PUSH2 0x1DEC JUMP JUMPDEST PUSH2 0x1A51 SWAP2 SWAP1 PUSH2 0x1DEC JUMP JUMPDEST PUSH2 0x1A5B SWAP2 SWAP1 PUSH2 0x1DEC JUMP JUMPDEST PUSH1 0x6 SWAP1 DIV SWAP1 POP DUP1 DUP3 PUSH4 0x1E13380 PUSH2 0x1A72 DUP11 DUP16 PUSH2 0x1DEC JUMP JUMPDEST PUSH2 0x1A7C SWAP2 SWAP1 PUSH2 0x1E17 JUMP JUMPDEST PUSH2 0x1A91 SWAP1 PUSH8 0x6765C793FA10079D PUSH1 0x1B SHL PUSH2 0x1E68 JUMP JUMPDEST PUSH2 0x1A9B SWAP2 SWAP1 PUSH2 0x1E68 JUMP JUMPDEST PUSH2 0x1AA5 SWAP2 SWAP1 PUSH2 0x1E68 JUMP JUMPDEST SWAP8 POP POP POP POP POP POP POP POP JUMPDEST SWAP4 SWAP3 POP POP POP JUMP JUMPDEST PUSH1 0xA0 DUP2 ADD MLOAD ISZERO PUSH2 0x1B1E JUMPI PUSH0 PUSH2 0x1AD3 DUP3 PUSH1 0xA0 ADD MLOAD DUP4 PUSH1 0xE0 ADD MLOAD PUSH2 0x1956 JUMP JUMPDEST SWAP1 POP PUSH2 0x1AEC DUP3 PUSH1 0x20 ADD MLOAD DUP3 PUSH2 0x1703 SWAP1 SWAP2 SWAP1 PUSH4 0xFFFFFFFF AND JUMP JUMPDEST PUSH1 0x40 DUP4 ADD DUP2 SWAP1 MSTORE PUSH2 0x1AFC SWAP1 PUSH2 0x191F JUMP JUMPDEST PUSH1 0x4 DUP1 SLOAD PUSH1 0x1 PUSH1 0x1 PUSH1 0x80 SHL SUB NOT AND PUSH1 0x1 PUSH1 0x1 PUSH1 0x80 SHL SUB SWAP3 SWAP1 SWAP3 AND SWAP2 SWAP1 SWAP2 OR SWAP1 SSTORE POP JUMPDEST DUP1 MLOAD ISZERO PUSH2 0x1B83 JUMPI PUSH0 PUSH2 0x1B38 DUP3 PUSH1 0xC0 ADD MLOAD DUP4 PUSH1 0xE0 ADD MLOAD PUSH2 0x16EE JUMP JUMPDEST SWAP1 POP PUSH2 0x1B51 DUP3 PUSH1 0x60 ADD MLOAD DUP3 PUSH2 0x1703 SWAP1 SWAP2 SWAP1 PUSH4 0xFFFFFFFF AND JUMP JUMPDEST PUSH1 0x80 DUP4 ADD DUP2 SWAP1 MSTORE PUSH2 0x1B61 SWAP1 PUSH2 0x191F JUMP JUMPDEST PUSH1 0x5 DUP1 SLOAD PUSH1 0x1 PUSH1 0x1 PUSH1 0x80 SHL SUB NOT AND PUSH1 0x1 PUSH1 0x1 PUSH1 0x80 SHL SUB SWAP3 SWAP1 SWAP3 AND SWAP2 SWAP1 SWAP2 OR SWAP1 SSTORE POP JUMPDEST POP JUMP JUMPDEST PUSH1 0x40 MLOAD DUP1 PUSH2 0x100 ADD PUSH1 0x40 MSTORE DUP1 PUSH0 DUP2 MSTORE PUSH1 0x20 ADD PUSH0 DUP2 MSTORE PUSH1 0x20 ADD PUSH0 DUP2 MSTORE PUSH1 0x20 ADD PUSH0 DUP2 MSTORE PUSH1 0x20 ADD PUSH0 DUP2 MSTORE PUSH1 0x20 ADD PUSH0 DUP2 MSTORE PUSH1 0x20 ADD PUSH0 DUP2 MSTORE PUSH1 0x20 ADD PUSH0 PUSH5 0xFFFFFFFFFF AND DUP2 MSTORE POP SWAP1 JUMP JUMPDEST PUSH1 0x1 PUSH1 0x1 PUSH1 0xA0 SHL SUB DUP2 AND DUP2 EQ PUSH2 0x1B83 JUMPI PUSH0 DUP1 REVERT JUMPDEST PUSH0 PUSH1 0x20 DUP3 DUP5 SUB SLT ISZERO PUSH2 0x1BEE JUMPI PUSH0 DUP1 REVERT JUMPDEST DUP2 CALLDATALOAD PUSH2 0x1AAF DUP2 PUSH2 0x1BCA JUMP JUMPDEST PUSH0 PUSH1 0x20 DUP3 DUP5 SUB SLT ISZERO PUSH2 0x1C09 JUMPI PUSH0 DUP1 REVERT JUMPDEST POP CALLDATALOAD SWAP2 SWAP1 POP JUMP JUMPDEST PUSH0 DUP1 PUSH1 0x40 DUP4 DUP6 SUB SLT ISZERO PUSH2 0x1C21 JUMPI PUSH0 DUP1 REVERT JUMPDEST DUP3 CALLDATALOAD PUSH2 0x1C2C DUP2 PUSH2 0x1BCA JUMP JUMPDEST SWAP2 POP PUSH1 0x20 DUP4 ADD CALLDATALOAD PUSH2 0x1C3C DUP2 PUSH2 0x1BCA JUMP JUMPDEST DUP1 SWAP2 POP POP SWAP3 POP SWAP3 SWAP1 POP JUMP JUMPDEST PUSH0 DUP1 PUSH0 PUSH1 0x60 DUP5 DUP7 SUB SLT ISZERO PUSH2 0x1C59 JUMPI PUSH0 DUP1 REVERT JUMPDEST DUP4 CALLDATALOAD SWAP3 POP PUSH1 0x20 DUP5 ADD CALLDATALOAD SWAP2 POP PUSH1 0x40 DUP5 ADD CALLDATALOAD PUSH2 0x1C72 DUP2 PUSH2 0x1BCA JUMP JUMPDEST DUP1 SWAP2 POP POP SWAP3 POP SWAP3 POP SWAP3 JUMP JUMPDEST PUSH0 DUP1 PUSH1 0x40 DUP4 DUP6 SUB SLT ISZERO PUSH2 0x1C8E JUMPI PUSH0 DUP1 REVERT JUMPDEST POP POP DUP1 CALLDATALOAD SWAP3 PUSH1 0x20 SWAP1 SWAP2 ADD CALLDATALOAD SWAP2 POP JUMP JUMPDEST PUSH0 DUP1 PUSH1 0x40 DUP4 DUP6 SUB SLT ISZERO PUSH2 0x1CAE JUMPI PUSH0 DUP1 REVERT JUMPDEST DUP3 CALLDATALOAD PUSH2 0x1CB9 DUP2 PUSH2 0x1BCA JUMP JUMPDEST SWAP5 PUSH1 0x20 SWAP4 SWAP1 SWAP4 ADD CALLDATALOAD SWAP4 POP POP POP JUMP JUMPDEST PUSH0 PUSH1 0x20 DUP3 DUP5 SUB SLT ISZERO PUSH2 0x1CD7 JUMPI PUSH0 DUP1 REVERT JUMPDEST DUP2 MLOAD PUSH1 0xFF DUP2 AND DUP2 EQ PUSH2 0x1AAF JUMPI PUSH0 DUP1 REVERT JUMPDEST PUSH4 0x4E487B71 PUSH1 0xE0 SHL PUSH0 MSTORE PUSH1 0x11 PUSH1 0x4 MSTORE PUSH1 0x24 PUSH0 REVERT JUMPDEST PUSH1 0x1 DUP2 JUMPDEST PUSH1 0x1 DUP5 GT ISZERO PUSH2 0x1D36 JUMPI DUP1 DUP6 DIV DUP2 GT ISZERO PUSH2 0x1D1A JUMPI PUSH2 0x1D1A PUSH2 0x1CE7 JUMP JUMPDEST PUSH1 0x1 DUP5 AND ISZERO PUSH2 0x1D28 JUMPI SWAP1 DUP2 MUL SWAP1 JUMPDEST PUSH1 0x1 SWAP4 SWAP1 SWAP4 SHR SWAP3 DUP1 MUL PUSH2 0x1CFF JUMP JUMPDEST SWAP4 POP SWAP4 SWAP2 POP POP JUMP JUMPDEST PUSH0 DUP3 PUSH2 0x1D4C JUMPI POP PUSH1 0x1 PUSH2 0x16FD JUMP JUMPDEST DUP2 PUSH2 0x1D58 JUMPI POP PUSH0 PUSH2 0x16FD JUMP JUMPDEST DUP2 PUSH1 0x1 DUP2 EQ PUSH2 0x1D6E JUMPI PUSH1 0x2 DUP2 EQ PUSH2 0x1D78 JUMPI PUSH2 0x1D94 JUMP JUMPDEST PUSH1 0x1 SWAP2 POP POP PUSH2 0x16FD JUMP JUMPDEST PUSH1 0xFF DUP5 GT ISZERO PUSH2 0x1D89 JUMPI PUSH2 0x1D89 PUSH2 0x1CE7 JUMP JUMPDEST POP POP PUSH1 0x1 DUP3 SHL PUSH2 0x16FD JUMP JUMPDEST POP PUSH1 0x20 DUP4 LT PUSH2 0x133 DUP4 LT AND PUSH1 0x4E DUP5 LT PUSH1 0xB DUP5 LT AND OR ISZERO PUSH2 0x1DB7 JUMPI POP DUP2 DUP2 EXP PUSH2 0x16FD JUMP JUMPDEST PUSH2 0x1DC3 PUSH0 NOT DUP5 DUP5 PUSH2 0x1CFB JUMP JUMPDEST DUP1 PUSH0 NOT DIV DUP3 GT ISZERO PUSH2 0x1DD6 JUMPI PUSH2 0x1DD6 PUSH2 0x1CE7 JUMP JUMPDEST MUL SWAP4 SWAP3 POP POP POP JUMP JUMPDEST PUSH0 PUSH2 0x16FA PUSH1 0xFF DUP5 AND DUP4 PUSH2 0x1D3E JUMP JUMPDEST DUP1 DUP3 MUL DUP2 ISZERO DUP3 DUP3 DIV DUP5 EQ OR PUSH2 0x16FD JUMPI PUSH2 0x16FD PUSH2 0x1CE7 JUMP JUMPDEST PUSH4 0x4E487B71 PUSH1 0xE0 SHL PUSH0 MSTORE PUSH1 0x12 PUSH1 0x4 MSTORE PUSH1 0x24 PUSH0 REVERT JUMPDEST PUSH0 DUP3 PUSH2 0x1E31 JUMPI PUSH4 0x4E487B71 PUSH1 0xE0 SHL PUSH0 MSTORE PUSH1 0x12 PUSH1 0x4 MSTORE PUSH1 0x24 PUSH0 REVERT JUMPDEST POP DIV SWAP1 JUMP JUMPDEST DUP2 DUP2 SUB DUP2 DUP2 GT ISZERO PUSH2 0x16FD JUMPI PUSH2 0x16FD PUSH2 0x1CE7 JUMP JUMPDEST PUSH0 PUSH1 0x20 DUP3 DUP5 SUB SLT ISZERO PUSH2 0x1E59 JUMPI PUSH0 DUP1 REVERT JUMPDEST DUP2 MLOAD DUP1 ISZERO ISZERO DUP2 EQ PUSH2 0x1AAF JUMPI PUSH0 DUP1 REVERT JUMPDEST DUP1 DUP3 ADD DUP1 DUP3 GT ISZERO PUSH2 0x16FD JUMPI PUSH2 0x16FD PUSH2 0x1CE7 JUMP JUMPDEST PUSH1 0x20 DUP1 DUP3 MSTORE PUSH1 0xD SWAP1 DUP3 ADD MSTORE PUSH13 0x1BDB9B1E481D1A194818D8D99B PUSH1 0x9A SHL PUSH1 0x40 DUP3 ADD MSTORE PUSH1 0x60 ADD SWAP1 JUMP JUMPDEST PUSH0 DUP1 PUSH1 0x40 DUP4 DUP6 SUB SLT ISZERO PUSH2 0x1EB3 JUMPI PUSH0 DUP1 REVERT JUMPDEST POP POP DUP1 MLOAD PUSH1 0x20 SWAP1 SWAP2 ADD MLOAD SWAP1 SWAP3 SWAP1 SWAP2 POP JUMP INVALID LOG2 PUSH5 0x6970667358 0x22 SLT KECCAK256 0xE6 EXP 0xF6 MSTORE8 0xD6 0xF6 0xAD 0x4F 0x23 0xD6 OR 0x2B OR 0x29 PUSH3 0xE761E 0x2B MOD SWAP13 0xD2 0xA6 BLOBHASH SMOD TIMESTAMP 0xA6 0xB0 CODECOPY DUP7 0xBB GAS PUSH5 0x736F6C6343 STOP ADDMOD BYTE STOP CALLER "
		},
		"gasEstimates": {
			"creation": {
				"codeDepositCost": "1586000",
				"executionCost": "1657",
				"totalCost": "1587657"
			},
			"external": {
				"CCFL()": "2403",
				"borrow(uint256,uint256,address)": "infinite",
				"debt(uint256)": "2536",
				"getCurrentLoan(uint256)": "infinite",
				"getCurrentRate()": "4616",
				"getDebtPool()": "infinite",
				"getRemainingPool()": "2325",
				"getTotalSupply()": "infinite",
				"initialize(address,address)": "infinite",
				"lenders(uint256)": "4634",
				"liquidatePenalty(uint256)": "infinite",
				"loans(uint256)": "9051",
				"remainingPool()": "2372",
				"repay(uint256,uint256)": "infinite",
				"reserve()": "6992",
				"setCCFL(address)": "26836",
				"share(address)": "2589",
				"stableCoinAddress()": "2380",
				"supply(uint256)": "infinite",
				"totalDebt()": "2415",
				"totalLiquidity()": "2329",
				"totalSupply()": "2351",
				"withdraw(uint256)": "infinite",
				"withdrawLoan(address,uint256)": "infinite"
			},
			"internal": {
				"_updateIndexes(struct DataTypes.ReserveCache memory)": "infinite",
				"cache()": "infinite",
				"updateInterestRates(uint256,uint256)": "infinite",
				"updateState(struct DataTypes.ReserveCache memory)": "infinite"
			}
		},
		"methodIdentifiers": {
			"CCFL()": "3b4675a7",
			"borrow(uint256,uint256,address)": "d6bda0c0",
			"debt(uint256)": "1e0029c8",
			"getCurrentLoan(uint256)": "a52f38d1",
			"getCurrentRate()": "f7fb07b0",
			"getDebtPool()": "03ec357f",
			"getRemainingPool()": "3b24cc21",
			"getTotalSupply()": "c4e41b22",
			"initialize(address,address)": "485cc955",
			"lenders(uint256)": "929eea21",
			"liquidatePenalty(uint256)": "57379102",
			"loans(uint256)": "e1ec3c68",
			"remainingPool()": "b14d37c0",
			"repay(uint256,uint256)": "d8aed145",
			"reserve()": "cd3293de",
			"setCCFL(address)": "8ac1b775",
			"share(address)": "1877bb5c",
			"stableCoinAddress()": "982aae46",
			"supply(uint256)": "35403023",
			"totalDebt()": "fc7b9c18",
			"totalLiquidity()": "15770f92",
			"totalSupply()": "18160ddd",
			"withdraw(uint256)": "2e1a7d4d",
			"withdrawLoan(address,uint256)": "ec7be39d"
		}
	},
	"abi": [
		{
			"inputs": [],
			"name": "InvalidInitialization",
			"type": "error"
		},
		{
			"inputs": [],
			"name": "NotInitializing",
			"type": "error"
		},
		{
			"inputs": [
				{
					"internalType": "uint8",
					"name": "bits",
					"type": "uint8"
				},
				{
					"internalType": "uint256",
					"name": "value",
					"type": "uint256"
				}
			],
			"name": "SafeCastOverflowedUintDowncast",
			"type": "error"
		},
		{
			"anonymous": false,
			"inputs": [
				{
					"indexed": false,
					"internalType": "uint256",
					"name": "loanId",
					"type": "uint256"
				},
				{
					"indexed": false,
					"internalType": "uint256",
					"name": "amount",
					"type": "uint256"
				},
				{
					"indexed": false,
					"internalType": "address",
					"name": "borrower",
					"type": "address"
				},
				{
					"indexed": false,
					"internalType": "uint256",
					"name": "when",
					"type": "uint256"
				}
			],
			"name": "CloseLoan",
			"type": "event"
		},
		{
			"anonymous": false,
			"inputs": [
				{
					"indexed": false,
					"internalType": "address",
					"name": "user",
					"type": "address"
				},
				{
					"indexed": false,
					"internalType": "uint256",
					"name": "amount",
					"type": "uint256"
				},
				{
					"indexed": false,
					"internalType": "uint256",
					"name": "when",
					"type": "uint256"
				}
			],
			"name": "Deposit",
			"type": "event"
		},
		{
			"anonymous": false,
			"inputs": [
				{
					"indexed": false,
					"internalType": "uint64",
					"name": "version",
					"type": "uint64"
				}
			],
			"name": "Initialized",
			"type": "event"
		},
		{
			"anonymous": false,
			"inputs": [
				{
					"indexed": false,
					"internalType": "address",
					"name": "user",
					"type": "address"
				},
				{
					"indexed": false,
					"internalType": "uint256",
					"name": "amount",
					"type": "uint256"
				},
				{
					"indexed": false,
					"internalType": "uint256",
					"name": "when",
					"type": "uint256"
				}
			],
			"name": "Withdraw",
			"type": "event"
		},
		{
			"anonymous": false,
			"inputs": [
				{
					"indexed": false,
					"internalType": "address",
					"name": "user",
					"type": "address"
				},
				{
					"indexed": false,
					"internalType": "uint256",
					"name": "amount",
					"type": "uint256"
				},
				{
					"indexed": false,
					"internalType": "uint256",
					"name": "when",
					"type": "uint256"
				}
			],
			"name": "WithdrawLoan",
			"type": "event"
		},
		{
			"inputs": [],
			"name": "CCFL",
			"outputs": [
				{
					"internalType": "address",
					"name": "",
					"type": "address"
				}
			],
			"stateMutability": "view",
			"type": "function"
		},
		{
			"inputs": [
				{
					"internalType": "uint256",
					"name": "_loanId",
					"type": "uint256"
				},
				{
					"internalType": "uint256",
					"name": "_amount",
					"type": "uint256"
				},
				{
					"internalType": "address",
					"name": "_borrower",
					"type": "address"
				}
			],
			"name": "borrow",
			"outputs": [],
			"stateMutability": "nonpayable",
			"type": "function"
		},
		{
			"inputs": [
				{
					"internalType": "uint256",
					"name": "",
					"type": "uint256"
				}
			],
			"name": "debt",
			"outputs": [
				{
					"internalType": "uint256",
					"name": "",
					"type": "uint256"
				}
			],
			"stateMutability": "view",
			"type": "function"
		},
		{
			"inputs": [
				{
					"internalType": "uint256",
					"name": "_loanId",
					"type": "uint256"
				}
			],
			"name": "getCurrentLoan",
			"outputs": [
				{
					"internalType": "uint256",
					"name": "",
					"type": "uint256"
				}
			],
			"stateMutability": "view",
			"type": "function"
		},
		{
			"inputs": [],
			"name": "getCurrentRate",
			"outputs": [
				{
					"internalType": "uint256",
					"name": "",
					"type": "uint256"
				},
				{
					"internalType": "uint256",
					"name": "",
					"type": "uint256"
				},
				{
					"internalType": "uint256",
					"name": "",
					"type": "uint256"
				},
				{
					"internalType": "uint256",
					"name": "",
					"type": "uint256"
				}
			],
			"stateMutability": "view",
			"type": "function"
		},
		{
			"inputs": [],
			"name": "getDebtPool",
			"outputs": [
				{
					"internalType": "uint256",
					"name": "amount",
					"type": "uint256"
				}
			],
			"stateMutability": "view",
			"type": "function"
		},
		{
			"inputs": [],
			"name": "getRemainingPool",
			"outputs": [
				{
					"internalType": "uint256",
					"name": "amount",
					"type": "uint256"
				}
			],
			"stateMutability": "view",
			"type": "function"
		},
		{
			"inputs": [],
			"name": "getTotalSupply",
			"outputs": [
				{
					"internalType": "uint256",
					"name": "",
					"type": "uint256"
				}
			],
			"stateMutability": "view",
			"type": "function"
		},
		{
			"inputs": [
				{
					"internalType": "contract IERC20Standard",
					"name": "_stableCoinAddress",
					"type": "address"
				},
				{
					"internalType": "address",
					"name": "interestRateStrategyAddress",
					"type": "address"
				}
			],
			"name": "initialize",
			"outputs": [],
			"stateMutability": "nonpayable",
			"type": "function"
		},
		{
			"inputs": [
				{
					"internalType": "uint256",
					"name": "",
					"type": "uint256"
				}
			],
			"name": "lenders",
			"outputs": [
				{
					"internalType": "address",
					"name": "",
					"type": "address"
				}
			],
			"stateMutability": "view",
			"type": "function"
		},
		{
			"inputs": [
				{
					"internalType": "uint256",
					"name": "_amount",
					"type": "uint256"
				}
			],
			"name": "liquidatePenalty",
			"outputs": [],
			"stateMutability": "nonpayable",
			"type": "function"
		},
		{
			"inputs": [
				{
					"internalType": "uint256",
					"name": "",
					"type": "uint256"
				}
			],
			"name": "loans",
			"outputs": [
				{
					"internalType": "uint256",
					"name": "loanId",
					"type": "uint256"
				},
				{
					"internalType": "bool",
					"name": "isPaid",
					"type": "bool"
				},
				{
					"internalType": "uint256",
					"name": "amount",
					"type": "uint256"
				},
				{
					"internalType": "bool",
					"name": "isClosed",
					"type": "bool"
				},
				{
					"internalType": "bool",
					"name": "isLocked",
					"type": "bool"
				},
				{
					"internalType": "address",
					"name": "borrower",
					"type": "address"
				}
			],
			"stateMutability": "view",
			"type": "function"
		},
		{
			"inputs": [],
			"name": "remainingPool",
			"outputs": [
				{
					"internalType": "uint256",
					"name": "",
					"type": "uint256"
				}
			],
			"stateMutability": "view",
			"type": "function"
		},
		{
			"inputs": [
				{
					"internalType": "uint256",
					"name": "_loanId",
					"type": "uint256"
				},
				{
					"internalType": "uint256",
					"name": "_amount",
					"type": "uint256"
				}
			],
			"name": "repay",
			"outputs": [],
			"stateMutability": "nonpayable",
			"type": "function"
		},
		{
			"inputs": [],
			"name": "reserve",
			"outputs": [
				{
					"internalType": "uint128",
					"name": "liquidityIndex",
					"type": "uint128"
				},
				{
					"internalType": "uint128",
					"name": "currentLiquidityRate",
					"type": "uint128"
				},
				{
					"internalType": "uint128",
					"name": "variableBorrowIndex",
					"type": "uint128"
				},
				{
					"internalType": "uint128",
					"name": "currentVariableBorrowRate",
					"type": "uint128"
				},
				{
					"internalType": "uint40",
					"name": "lastUpdateTimestamp",
					"type": "uint40"
				},
				{
					"internalType": "uint16",
					"name": "id",
					"type": "uint16"
				},
				{
					"internalType": "address",
					"name": "interestRateStrategyAddress",
					"type": "address"
				}
			],
			"stateMutability": "view",
			"type": "function"
		},
		{
			"inputs": [
				{
					"internalType": "address",
					"name": "_ccfl",
					"type": "address"
				}
			],
			"name": "setCCFL",
			"outputs": [],
			"stateMutability": "nonpayable",
			"type": "function"
		},
		{
			"inputs": [
				{
					"internalType": "address",
					"name": "",
					"type": "address"
				}
			],
			"name": "share",
			"outputs": [
				{
					"internalType": "uint256",
					"name": "",
					"type": "uint256"
				}
			],
			"stateMutability": "view",
			"type": "function"
		},
		{
			"inputs": [],
			"name": "stableCoinAddress",
			"outputs": [
				{
					"internalType": "contract IERC20Standard",
					"name": "",
					"type": "address"
				}
			],
			"stateMutability": "view",
			"type": "function"
		},
		{
			"inputs": [
				{
					"internalType": "uint256",
					"name": "_amount",
					"type": "uint256"
				}
			],
			"name": "supply",
			"outputs": [],
			"stateMutability": "nonpayable",
			"type": "function"
		},
		{
			"inputs": [],
			"name": "totalDebt",
			"outputs": [
				{
					"internalType": "uint256",
					"name": "",
					"type": "uint256"
				}
			],
			"stateMutability": "view",
			"type": "function"
		},
		{
			"inputs": [],
			"name": "totalLiquidity",
			"outputs": [
				{
					"internalType": "uint256",
					"name": "",
					"type": "uint256"
				}
			],
			"stateMutability": "view",
			"type": "function"
		},
		{
			"inputs": [],
			"name": "totalSupply",
			"outputs": [
				{
					"internalType": "uint256",
					"name": "",
					"type": "uint256"
				}
			],
			"stateMutability": "view",
			"type": "function"
		},
		{
			"inputs": [
				{
					"internalType": "uint256",
					"name": "_amount",
					"type": "uint256"
				}
			],
			"name": "withdraw",
			"outputs": [],
			"stateMutability": "nonpayable",
			"type": "function"
		},
		{
			"inputs": [
				{
					"internalType": "address",
					"name": "_receiver",
					"type": "address"
				},
				{
					"internalType": "uint256",
					"name": "_loanId",
					"type": "uint256"
				}
			],
			"name": "withdrawLoan",
			"outputs": [],
			"stateMutability": "nonpayable",
			"type": "function"
		},
		{
			"stateMutability": "payable",
			"type": "receive"
		}
	]
}