{
	"data": {
		"bytecode": {
			"linkReferences": {},
			"object": "6080604052348015600e575f80fd5b5061393e8061001c5f395ff3fe6080604052600436106101ba575f3560e01c80637ce67d60116100eb578063b2016bd411610089578063c31c9c0711610063578063c31c9c07146105b1578063cdaabe41146105db578063d296d1f114610605578063f24286211461062d576101c1565b8063b2016bd41461050a578063b3bffeaa14610534578063bf92857c14610570576101c1565b80638ac1b775116100c55780638ac1b775146104645780638da5cb5b1461048c57806392d09ceb146104b6578063a0c1f15e146104e0576101c1565b80637ce67d60146103f75780637ea382c11461042657806383f8964e1461043c576101c1565b80635825f535116101585780636721de26116101325780636721de261461035157806368dcad581461037957806372f5d98a146103a3578063741bef1a146103cd576101c1565b80635825f535146102d35780635d3e2fa1146102fd57806362965d8e14610327576101c1565b8063232fa73311610194578063232fa7331461022d5780634031234c146102435780634bde38c81461026d5780634d2c872a14610297576101c1565b806307a6bf69146101c5578063102cb82e146101db5780631125660314610203576101c1565b366101c157005b5f80fd5b3480156101d0575f80fd5b506101d9610657565b005b3480156101e6575f80fd5b5061020160048036038101906101fc91906127a7565b610903565b005b34801561020e575f80fd5b50610217610d29565b60405161022491906127f4565b60405180910390f35b348015610238575f80fd5b50610241610d3c565b005b34801561024e575f80fd5b50610257610e07565b6040516102649190612825565b60405180910390f35b348015610278575f80fd5b50610281610e0d565b60405161028e919061284d565b60405180910390f35b3480156102a2575f80fd5b506102bd60048036038101906102b89190612890565b610e32565b6040516102ca9190612825565b60405180910390f35b3480156102de575f80fd5b506102e7611049565b6040516102f4919061284d565b60405180910390f35b348015610308575f80fd5b5061031161106e565b60405161031e91906129cf565b60405180910390f35b348015610332575f80fd5b5061033b61117b565b6040516103489190612825565b60405180910390f35b34801561035c575f80fd5b50610377600480360381019061037291906129e8565b611181565b005b348015610384575f80fd5b5061038d611229565b60405161039a9190612a33565b60405180910390f35b3480156103ae575f80fd5b506103b761124e565b6040516103c49190612a69565b60405180910390f35b3480156103d8575f80fd5b506103e1611254565b6040516103ee9190612a33565b60405180910390f35b348015610402575f80fd5b5061040b611279565b60405161041d96959493929190612a91565b60405180910390f35b348015610431575f80fd5b5061043a6112fa565b005b348015610447575f80fd5b50610462600480360381019061045d9190612d40565b611772565b005b34801561046f575f80fd5b5061048a60048036038101906104859190612e32565b611c64565b005b348015610497575f80fd5b506104a0611d34565b6040516104ad919061284d565b60405180910390f35b3480156104c1575f80fd5b506104ca611d57565b6040516104d79190612825565b60405180910390f35b3480156104eb575f80fd5b506104f4611d5d565b6040516105019190612e5d565b60405180910390f35b348015610515575f80fd5b5061051e611d82565b60405161052b9190612e5d565b60405180910390f35b34801561053f575f80fd5b5061055a60048036038101906105559190612e76565b611da7565b6040516105679190612825565b60405180910390f35b34801561057b575f80fd5b5061059660048036038101906105919190612e32565b611f09565b6040516105a896959493929190612eb4565b60405180910390f35b3480156105bc575f80fd5b506105c561202e565b6040516105d29190612f33565b60405180910390f35b3480156105e6575f80fd5b506105ef612053565b6040516105fc9190612f6c565b60405180910390f35b348015610610575f80fd5b5061062b60048036038101906106269190612890565b612078565b005b348015610638575f80fd5b5061064161236d565b60405161064e9190612fa5565b60405180910390f35b5f8054906101000a900473ffffffffffffffffffffffffffffffffffffffff1673ffffffffffffffffffffffffffffffffffffffff163373ffffffffffffffffffffffffffffffffffffffff16146106e4576040517f08c379a00000000000000000000000000000000000000000000000000000000081526004016106db90613018565b60405180910390fd5b5f60075f9054906101000a900473ffffffffffffffffffffffffffffffffffffffff1690505f8173ffffffffffffffffffffffffffffffffffffffff166370a08231306040518263ffffffff1660e01b8152600401610743919061284d565b602060405180830381865afa15801561075e573d5f803e3d5ffd5b505050506040513d601f19601f82011682018060405250810190610782919061304a565b90505f3090505f8060015f9054906101000a900473ffffffffffffffffffffffffffffffffffffffff1673ffffffffffffffffffffffffffffffffffffffff1663026b1d5f6040518163ffffffff1660e01b8152600401602060405180830381865afa1580156107f4573d5f803e3d5ffd5b505050506040513d601f19601f820116820180604052508101906108189190613089565b90508073ffffffffffffffffffffffffffffffffffffffff1663617ba037868686866040518563ffffffff1660e01b815260040161085994939291906130d0565b5f604051808303815f87803b158015610870575f80fd5b505af1158015610882573d5f803e3d5ffd5b50505050838573ffffffffffffffffffffffffffffffffffffffff168473ffffffffffffffffffffffffffffffffffffffff167f51a2b359618aeb0bcc2a495a6667c0bdbfddc3bb27eb0dd5b8e3b33a4c15865f60405160405180910390a46001600260146101000a81548160ff0219169083151502179055505050505050565b5f8054906101000a900473ffffffffffffffffffffffffffffffffffffffff1673ffffffffffffffffffffffffffffffffffffffff163373ffffffffffffffffffffffffffffffffffffffff1614610990576040517f08c379a000000000000000000000000000000000000000000000000000000000815260040161098790613018565b60405180910390fd5b60011515600860030160149054906101000a900460ff161515146109e9576040517f08c379a00000000000000000000000000000000000000000000000000000000081526004016109e09061315d565b60405180910390fd5b8015610bef5760105f9054906101000a900473ffffffffffffffffffffffffffffffffffffffff1673ffffffffffffffffffffffffffffffffffffffff16632e1a7d4d60075f9054906101000a900473ffffffffffffffffffffffffffffffffffffffff1673ffffffffffffffffffffffffffffffffffffffff166370a08231306040518263ffffffff1660e01b8152600401610a86919061284d565b602060405180830381865afa158015610aa1573d5f803e3d5ffd5b505050506040513d601f19601f82011682018060405250810190610ac5919061304a565b6040518263ffffffff1660e01b8152600401610ae19190612825565b5f604051808303815f87803b158015610af8575f80fd5b505af1158015610b0a573d5f803e3d5ffd5b505050508173ffffffffffffffffffffffffffffffffffffffff166108fc60075f9054906101000a900473ffffffffffffffffffffffffffffffffffffffff1673ffffffffffffffffffffffffffffffffffffffff166370a08231306040518263ffffffff1660e01b8152600401610b82919061284d565b602060405180830381865afa158015610b9d573d5f803e3d5ffd5b505050506040513d601f19601f82011682018060405250810190610bc1919061304a565b90811502906040515f60405180830381858888f19350505050158015610be9573d5f803e3d5ffd5b50610d25565b60075f9054906101000a900473ffffffffffffffffffffffffffffffffffffffff1673ffffffffffffffffffffffffffffffffffffffff1663a9059cbb8360075f9054906101000a900473ffffffffffffffffffffffffffffffffffffffff1673ffffffffffffffffffffffffffffffffffffffff166370a08231306040518263ffffffff1660e01b8152600401610c87919061284d565b602060405180830381865afa158015610ca2573d5f803e3d5ffd5b505050506040513d601f19601f82011682018060405250810190610cc6919061304a565b6040518363ffffffff1660e01b8152600401610ce392919061317b565b6020604051808303815f875af1158015610cff573d5f803e3d5ffd5b505050506040513d601f19601f82011682018060405250810190610d2391906131b6565b505b5050565b600260149054906101000a900460ff1681565b5f8054906101000a900473ffffffffffffffffffffffffffffffffffffffff1673ffffffffffffffffffffffffffffffffffffffff163373ffffffffffffffffffffffffffffffffffffffff1614610dc9576040517f08c379a0000000000000000000000000000000000000000000000000000000008152600401610dc090613018565b60405180910390fd5b6001600860030160146101000a81548160ff021916908315150217905550600260149054906101000a900460ff1615610e0557610e046112fa565b5b565b60045481565b600f5f9054906101000a900473ffffffffffffffffffffffffffffffffffffffff1681565b5f80610e6360086003015f9054906101000a900473ffffffffffffffffffffffffffffffffffffffff166001611da7565b90505f8084600654610e75919061320e565b90505f60075f9054906101000a900473ffffffffffffffffffffffffffffffffffffffff1690505f821115610f69575f610eaf825f611da7565b90508173ffffffffffffffffffffffffffffffffffffffff1663313ce5676040518163ffffffff1660e01b8152600401602060405180830381865afa158015610efa573d5f803e3d5ffd5b505050506040513d601f19601f82011682018060405250810190610f1e9190613277565b600a610f2a91906133d1565b6127106004548386610f3c919061341b565b610f46919061341b565b610f509190613489565b610f5a9190613489565b84610f65919061320e565b9350505b5f60086003015f9054906101000a900473ffffffffffffffffffffffffffffffffffffffff1673ffffffffffffffffffffffffffffffffffffffff1663313ce5676040518163ffffffff1660e01b8152600401602060405180830381865afa158015610fd7573d5f803e3d5ffd5b505050506040513d601f19601f82011682018060405250810190610ffb9190613277565b600a61100791906133d1565b8589611013919061341b565b61101d9190613489565b90505f8160648661102e919061341b565b6110389190613489565b905080965050505050505092915050565b600e5f9054906101000a900473ffffffffffffffffffffffffffffffffffffffff1681565b6110766126ab565b60086040518060c00160405290815f8201548152602001600182015f9054906101000a900473ffffffffffffffffffffffffffffffffffffffff1673ffffffffffffffffffffffffffffffffffffffff1673ffffffffffffffffffffffffffffffffffffffff1681526020016001820160149054906101000a900460ff1615151515815260200160028201548152602001600382015f9054906101000a900473ffffffffffffffffffffffffffffffffffffffff1673ffffffffffffffffffffffffffffffffffffffff1673ffffffffffffffffffffffffffffffffffffffff1681526020016003820160149054906101000a900460ff161515151581525050905090565b60055481565b5f8054906101000a900473ffffffffffffffffffffffffffffffffffffffff1673ffffffffffffffffffffffffffffffffffffffff163373ffffffffffffffffffffffffffffffffffffffff161461120e576040517f08c379a000000000000000000000000000000000000000000000000000000000815260040161120590613018565b60405180910390fd5b8060065f82825461121f919061320e565b9250508190555050565b600d5f9054906101000a900473ffffffffffffffffffffffffffffffffffffffff1681565b610bb881565b600c5f9054906101000a900473ffffffffffffffffffffffffffffffffffffffff1681565b6008805f015490806001015f9054906101000a900473ffffffffffffffffffffffffffffffffffffffff16908060010160149054906101000a900460ff1690806002015490806003015f9054906101000a900473ffffffffffffffffffffffffffffffffffffffff16908060030160149054906101000a900460ff16905086565b5f8054906101000a900473ffffffffffffffffffffffffffffffffffffffff1673ffffffffffffffffffffffffffffffffffffffff163373ffffffffffffffffffffffffffffffffffffffff1614611387576040517f08c379a000000000000000000000000000000000000000000000000000000000815260040161137e90613018565b60405180910390fd5b5f60025f9054906101000a900473ffffffffffffffffffffffffffffffffffffffff1673ffffffffffffffffffffffffffffffffffffffff166370a08231306040518263ffffffff1660e01b81526004016113e2919061284d565b602060405180830381865afa1580156113fd573d5f803e3d5ffd5b505050506040513d601f19601f82011682018060405250810190611421919061304a565b90505f60015f9054906101000a900473ffffffffffffffffffffffffffffffffffffffff1673ffffffffffffffffffffffffffffffffffffffff1663026b1d5f6040518163ffffffff1660e01b8152600401602060405180830381865afa15801561148e573d5f803e3d5ffd5b505050506040513d601f19601f820116820180604052508101906114b29190613089565b90508073ffffffffffffffffffffffffffffffffffffffff166369328dec60025f9054906101000a900473ffffffffffffffffffffffffffffffffffffffff1684306040518463ffffffff1660e01b8152600401611512939291906134b9565b6020604051808303815f875af115801561152e573d5f803e3d5ffd5b505050506040513d601f19601f82011682018060405250810190611552919061304a565b508160025f9054906101000a900473ffffffffffffffffffffffffffffffffffffffff1673ffffffffffffffffffffffffffffffffffffffff163073ffffffffffffffffffffffffffffffffffffffff167f83aa598dd3e269af677698c6847b3ba594a67d286a771d01099aafa911a91b6460405160405180910390a45f600260146101000a81548160ff0219169083151502179055505f60075f9054906101000a900473ffffffffffffffffffffffffffffffffffffffff1673ffffffffffffffffffffffffffffffffffffffff166370a08231306040518263ffffffff1660e01b8152600401611644919061284d565b602060405180830381865afa15801561165f573d5f803e3d5ffd5b505050506040513d601f19601f82011682018060405250810190611683919061304a565b90505f6064601e6006548461169891906134ee565b6116a2919061341b565b6116ac9190613489565b905060075f9054906101000a900473ffffffffffffffffffffffffffffffffffffffff1673ffffffffffffffffffffffffffffffffffffffff1663a9059cbb600f5f9054906101000a900473ffffffffffffffffffffffffffffffffffffffff16836040518363ffffffff1660e01b815260040161172b92919061317b565b6020604051808303815f875af1158015611747573d5f803e3d5ffd5b505050506040513d601f19601f8201168201806040525081019061176b91906131b6565b5050505050565b5f61177b612392565b90505f815f0160089054906101000a900460ff161590505f825f015f9054906101000a900467ffffffffffffffff1690505f808267ffffffffffffffff161480156117c35750825b90505f60018367ffffffffffffffff161480156117f657505f3073ffffffffffffffffffffffffffffffffffffffff163b145b905081158015611804575080155b1561183b576040517ff92ee8a900000000000000000000000000000000000000000000000000000000815260040160405180910390fd5b6001855f015f6101000a81548167ffffffffffffffff021916908367ffffffffffffffff1602179055508315611888576001855f0160086101000a81548160ff0219169083151502179055505b335f806101000a81548173ffffffffffffffffffffffffffffffffffffffff021916908373ffffffffffffffffffffffffffffffffffffffff1602179055508f60085f820151815f01556020820151816001015f6101000a81548173ffffffffffffffffffffffffffffffffffffffff021916908373ffffffffffffffffffffffffffffffffffffffff16021790555060408201518160010160146101000a81548160ff021916908315150217905550606082015181600201556080820151816003015f6101000a81548173ffffffffffffffffffffffffffffffffffffffff021916908373ffffffffffffffffffffffffffffffffffffffff16021790555060a08201518160030160146101000a81548160ff0219169083151502179055509050508e60075f6101000a81548173ffffffffffffffffffffffffffffffffffffffff021916908373ffffffffffffffffffffffffffffffffffffffff160217905550335f806101000a81548173ffffffffffffffffffffffffffffffffffffffff021916908373ffffffffffffffffffffffffffffffffffffffff1602179055508d60015f6101000a81548173ffffffffffffffffffffffffffffffffffffffff021916908373ffffffffffffffffffffffffffffffffffffffff1602179055508b6005819055508a6004819055508c60025f6101000a81548173ffffffffffffffffffffffffffffffffffffffff021916908373ffffffffffffffffffffffffffffffffffffffff16021790555089600c5f6101000a81548173ffffffffffffffffffffffffffffffffffffffff021916908373ffffffffffffffffffffffffffffffffffffffff16021790555088600d5f6101000a81548173ffffffffffffffffffffffffffffffffffffffff021916908373ffffffffffffffffffffffffffffffffffffffff1602179055508760035f6101000a81548173ffffffffffffffffffffffffffffffffffffffff021916908373ffffffffffffffffffffffffffffffffffffffff16021790555086600f5f6101000a81548173ffffffffffffffffffffffffffffffffffffffff021916908373ffffffffffffffffffffffffffffffffffffffff1602179055508560105f6101000a81548173ffffffffffffffffffffffffffffffffffffffff021916908373ffffffffffffffffffffffffffffffffffffffff1602179055508315611c52575f855f0160086101000a81548160ff0219169083151502179055507fc7f505b2f371ae2175ee4913f4499e1f2633a7b5936321eed1cdaeb6115181d26001604051611c49919061356d565b60405180910390a15b50505050505050505050505050505050565b5f8054906101000a900473ffffffffffffffffffffffffffffffffffffffff1673ffffffffffffffffffffffffffffffffffffffff163373ffffffffffffffffffffffffffffffffffffffff1614611cf1576040517f08c379a0000000000000000000000000000000000000000000000000000000008152600401611ce890613018565b60405180910390fd5b80600e5f6101000a81548173ffffffffffffffffffffffffffffffffffffffff021916908373ffffffffffffffffffffffffffffffffffffffff16021790555050565b5f8054906101000a900473ffffffffffffffffffffffffffffffffffffffff1681565b60065481565b60025f9054906101000a900473ffffffffffffffffffffffffffffffffffffffff1681565b60075f9054906101000a900473ffffffffffffffffffffffffffffffffffffffff1681565b5f80151582151503611e5d575f805f805f600c5f9054906101000a900473ffffffffffffffffffffffffffffffffffffffff1673ffffffffffffffffffffffffffffffffffffffff1663feaf968c6040518163ffffffff1660e01b815260040160a060405180830381865afa158015611e22573d5f803e3d5ffd5b505050506040513d601f19601f82011682018060405250810190611e4691906135f8565b945094509450945094508395505050505050611f03565b5f805f805f600d5f9054906101000a900473ffffffffffffffffffffffffffffffffffffffff1673ffffffffffffffffffffffffffffffffffffffff1663feaf968c6040518163ffffffff1660e01b815260040160a060405180830381865afa158015611ecc573d5f803e3d5ffd5b505050506040513d601f19601f82011682018060405250810190611ef091906135f8565b9450945094509450945083955050505050505b92915050565b5f805f805f805f60015f9054906101000a900473ffffffffffffffffffffffffffffffffffffffff1673ffffffffffffffffffffffffffffffffffffffff1663026b1d5f6040518163ffffffff1660e01b8152600401602060405180830381865afa158015611f7a573d5f803e3d5ffd5b505050506040513d601f19601f82011682018060405250810190611f9e9190613089565b90508073ffffffffffffffffffffffffffffffffffffffff1663bf92857c896040518263ffffffff1660e01b8152600401611fd9919061284d565b60c060405180830381865afa158015611ff4573d5f803e3d5ffd5b505050506040513d601f19601f82011682018060405250810190612018919061366f565b9650965096509650965096505091939550919395565b60035f9054906101000a900473ffffffffffffffffffffffffffffffffffffffff1681565b60015f9054906101000a900473ffffffffffffffffffffffffffffffffffffffff1681565b5f8054906101000a900473ffffffffffffffffffffffffffffffffffffffff1673ffffffffffffffffffffffffffffffffffffffff163373ffffffffffffffffffffffffffffffffffffffff1614612105576040517f08c379a00000000000000000000000000000000000000000000000000000000081526004016120fc90613018565b60405180910390fd5b6064612111835f610e32565b10612151576040517f08c379a000000000000000000000000000000000000000000000000000000000815260040161214890613742565b60405180910390fd5b600260149054906101000a900460ff161561216f5761216e6112fa565b5b5f60075f9054906101000a900473ffffffffffffffffffffffffffffffffffffffff1690506122816103e8836103e86121a8919061320e565b856121b3919061341b565b6121bd9190613489565b60075f9054906101000a900473ffffffffffffffffffffffffffffffffffffffff1673ffffffffffffffffffffffffffffffffffffffff166370a08231306040518263ffffffff1660e01b8152600401612217919061284d565b602060405180830381865afa158015612232573d5f803e3d5ffd5b505050506040513d601f19601f82011682018060405250810190612256919061304a565b60086003015f9054906101000a900473ffffffffffffffffffffffffffffffffffffffff16846123b9565b5060086003015f9054906101000a900473ffffffffffffffffffffffffffffffffffffffff1673ffffffffffffffffffffffffffffffffffffffff1663095ea7b3600e5f9054906101000a900473ffffffffffffffffffffffffffffffffffffffff166103e8856103e86122f5919061320e565b87612300919061341b565b61230a9190613489565b6040518363ffffffff1660e01b815260040161232792919061317b565b6020604051808303815f875af1158015612343573d5f803e3d5ffd5b505050506040513d601f19601f8201168201806040525081019061236791906131b6565b50505050565b60105f9054906101000a900473ffffffffffffffffffffffffffffffffffffffff1681565b5f7ff0c57e16840df040f15088dc2f81fe391c3923bec73e23a9662efc9c229c6a00905090565b5f6123e68260035f9054906101000a900473ffffffffffffffffffffffffffffffffffffffff168661255c565b5f6040518061010001604052808473ffffffffffffffffffffffffffffffffffffffff1681526020018573ffffffffffffffffffffffffffffffffffffffff168152602001610bb862ffffff1681526020013373ffffffffffffffffffffffffffffffffffffffff1681526020014281526020018781526020018681526020015f73ffffffffffffffffffffffffffffffffffffffff16815250905060035f9054906101000a900473ffffffffffffffffffffffffffffffffffffffff1673ffffffffffffffffffffffffffffffffffffffff1663db3e2198826040518263ffffffff1660e01b81526004016124dc919061381e565b6020604051808303815f875af11580156124f8573d5f803e3d5ffd5b505050506040513d601f19601f8201168201806040525081019061251c919061304a565b915084821015612553576125528360035f9054906101000a900473ffffffffffffffffffffffffffffffffffffffff165f61255c565b5b50949350505050565b5f808473ffffffffffffffffffffffffffffffffffffffff1663095ea7b360e01b858560405160240161259092919061317b565b604051602081830303815290604052907bffffffffffffffffffffffffffffffffffffffffffffffffffffffff19166020820180517bffffffffffffffffffffffffffffffffffffffffffffffffffffffff83818316178352505050506040516125fa919061388a565b5f604051808303815f865af19150503d805f8114612633576040519150601f19603f3d011682016040523d82523d5f602084013e612638565b606091505b509150915081801561266557505f8151148061266457508080602001905181019061266391906131b6565b5b5b6126a4576040517f08c379a000000000000000000000000000000000000000000000000000000000815260040161269b906138ea565b60405180910390fd5b5050505050565b6040518060c001604052805f81526020015f73ffffffffffffffffffffffffffffffffffffffff1681526020015f151581526020015f81526020015f73ffffffffffffffffffffffffffffffffffffffff1681526020015f151581525090565b5f604051905090565b5f80fd5b5f73ffffffffffffffffffffffffffffffffffffffff82169050919050565b5f61274182612718565b9050919050565b61275181612737565b811461275b575f80fd5b50565b5f8135905061276c81612748565b92915050565b5f8115159050919050565b61278681612772565b8114612790575f80fd5b50565b5f813590506127a18161277d565b92915050565b5f80604083850312156127bd576127bc612714565b5b5f6127ca8582860161275e565b92505060206127db85828601612793565b9150509250929050565b6127ee81612772565b82525050565b5f6020820190506128075f8301846127e5565b92915050565b5f819050919050565b61281f8161280d565b82525050565b5f6020820190506128385f830184612816565b92915050565b61284781612737565b82525050565b5f6020820190506128605f83018461283e565b92915050565b61286f8161280d565b8114612879575f80fd5b50565b5f8135905061288a81612866565b92915050565b5f80604083850312156128a6576128a5612714565b5b5f6128b38582860161287c565b92505060206128c48582860161287c565b9150509250929050565b6128d78161280d565b82525050565b6128e681612737565b82525050565b6128f581612772565b82525050565b5f819050919050565b5f61291e61291961291484612718565b6128fb565b612718565b9050919050565b5f61292f82612904565b9050919050565b5f61294082612925565b9050919050565b61295081612936565b82525050565b60c082015f82015161296a5f8501826128ce565b50602082015161297d60208501826128dd565b50604082015161299060408501826128ec565b5060608201516129a360608501826128ce565b5060808201516129b66080850182612947565b5060a08201516129c960a08501826128ec565b50505050565b5f60c0820190506129e25f830184612956565b92915050565b5f602082840312156129fd576129fc612714565b5b5f612a0a8482850161287c565b91505092915050565b5f612a1d82612925565b9050919050565b612a2d81612a13565b82525050565b5f602082019050612a465f830184612a24565b92915050565b5f62ffffff82169050919050565b612a6381612a4c565b82525050565b5f602082019050612a7c5f830184612a5a565b92915050565b612a8b81612936565b82525050565b5f60c082019050612aa45f830189612816565b612ab1602083018861283e565b612abe60408301876127e5565b612acb6060830186612816565b612ad86080830185612a82565b612ae560a08301846127e5565b979650505050505050565b5f80fd5b5f601f19601f8301169050919050565b7f4e487b71000000000000000000000000000000000000000000000000000000005f52604160045260245ffd5b612b3a82612af4565b810181811067ffffffffffffffff82111715612b5957612b58612b04565b5b80604052505050565b5f612b6b61270b565b9050612b778282612b31565b919050565b5f612b8682612737565b9050919050565b612b9681612b7c565b8114612ba0575f80fd5b50565b5f81359050612bb181612b8d565b92915050565b5f60c08284031215612bcc57612bcb612af0565b5b612bd660c0612b62565b90505f612be58482850161287c565b5f830152506020612bf88482850161275e565b6020830152506040612c0c84828501612793565b6040830152506060612c208482850161287c565b6060830152506080612c3484828501612ba3565b60808301525060a0612c4884828501612793565b60a08301525092915050565b5f612c5e82612737565b9050919050565b612c6e81612c54565b8114612c78575f80fd5b50565b5f81359050612c8981612c65565b92915050565b5f612c9982612737565b9050919050565b612ca981612c8f565b8114612cb3575f80fd5b50565b5f81359050612cc481612ca0565b92915050565b5f612cd482612737565b9050919050565b612ce481612cca565b8114612cee575f80fd5b50565b5f81359050612cff81612cdb565b92915050565b5f612d0f82612737565b9050919050565b612d1f81612d05565b8114612d29575f80fd5b50565b5f81359050612d3a81612d16565b92915050565b5f805f805f805f805f805f6102008c8e031215612d6057612d5f612714565b5b5f612d6d8e828f01612bb7565b9b505060c0612d7e8e828f01612ba3565b9a505060e0612d8f8e828f01612c7b565b995050610100612da18e828f01612ba3565b985050610120612db38e828f0161287c565b975050610140612dc58e828f0161287c565b965050610160612dd78e828f01612cb6565b955050610180612de98e828f01612cb6565b9450506101a0612dfb8e828f01612cf1565b9350506101c0612e0d8e828f0161275e565b9250506101e0612e1f8e828f01612d2c565b9150509295989b509295989b9093969950565b5f60208284031215612e4757612e46612714565b5b5f612e548482850161275e565b91505092915050565b5f602082019050612e705f830184612a82565b92915050565b5f8060408385031215612e8c57612e8b612714565b5b5f612e9985828601612ba3565b9250506020612eaa85828601612793565b9150509250929050565b5f60c082019050612ec75f830189612816565b612ed46020830188612816565b612ee16040830187612816565b612eee6060830186612816565b612efb6080830185612816565b612f0860a0830184612816565b979650505050505050565b5f612f1d82612925565b9050919050565b612f2d81612f13565b82525050565b5f602082019050612f465f830184612f24565b92915050565b5f612f5682612925565b9050919050565b612f6681612f4c565b82525050565b5f602082019050612f7f5f830184612f5d565b92915050565b5f612f8f82612925565b9050919050565b612f9f81612f85565b82525050565b5f602082019050612fb85f830184612f96565b92915050565b5f82825260208201905092915050565b7f6f6e6c7920746865206f776e65720000000000000000000000000000000000005f82015250565b5f613002600e83612fbe565b915061300d82612fce565b602082019050919050565b5f6020820190508181035f83015261302f81612ff6565b9050919050565b5f8151905061304481612866565b92915050565b5f6020828403121561305f5761305e612714565b5b5f61306c84828501613036565b91505092915050565b5f8151905061308381612748565b92915050565b5f6020828403121561309e5761309d612714565b5b5f6130ab84828501613075565b91505092915050565b5f61ffff82169050919050565b6130ca816130b4565b82525050565b5f6080820190506130e35f83018761283e565b6130f06020830186612816565b6130fd604083018561283e565b61310a60608301846130c1565b95945050505050565b7f4c6f616e206973206e6f7420636c6f73656400000000000000000000000000005f82015250565b5f613147601283612fbe565b915061315282613113565b602082019050919050565b5f6020820190508181035f8301526131748161313b565b9050919050565b5f60408201905061318e5f83018561283e565b61319b6020830184612816565b9392505050565b5f815190506131b08161277d565b92915050565b5f602082840312156131cb576131ca612714565b5b5f6131d8848285016131a2565b91505092915050565b7f4e487b71000000000000000000000000000000000000000000000000000000005f52601160045260245ffd5b5f6132188261280d565b91506132238361280d565b925082820190508082111561323b5761323a6131e1565b5b92915050565b5f60ff82169050919050565b61325681613241565b8114613260575f80fd5b50565b5f815190506132718161324d565b92915050565b5f6020828403121561328c5761328b612714565b5b5f61329984828501613263565b91505092915050565b5f8160011c9050919050565b5f808291508390505b60018511156132f7578086048111156132d3576132d26131e1565b5b60018516156132e25780820291505b80810290506132f0856132a2565b94506132b7565b94509492505050565b5f8261330f57600190506133ca565b8161331c575f90506133ca565b8160018114613332576002811461333c5761336b565b60019150506133ca565b60ff84111561334e5761334d6131e1565b5b8360020a915084821115613365576133646131e1565b5b506133ca565b5060208310610133831016604e8410600b84101617156133a05782820a90508381111561339b5761339a6131e1565b5b6133ca565b6133ad84848460016132ae565b925090508184048111156133c4576133c36131e1565b5b81810290505b9392505050565b5f6133db8261280d565b91506133e683613241565b92506134137fffffffffffffffffffffffffffffffffffffffffffffffffffffffffffffffff8484613300565b905092915050565b5f6134258261280d565b91506134308361280d565b925082820261343e8161280d565b91508282048414831517613455576134546131e1565b5b5092915050565b7f4e487b71000000000000000000000000000000000000000000000000000000005f52601260045260245ffd5b5f6134938261280d565b915061349e8361280d565b9250826134ae576134ad61345c565b5b828204905092915050565b5f6060820190506134cc5f83018661283e565b6134d96020830185612816565b6134e6604083018461283e565b949350505050565b5f6134f88261280d565b91506135038361280d565b925082820390508181111561351b5761351a6131e1565b5b92915050565b5f819050919050565b5f67ffffffffffffffff82169050919050565b5f61355761355261354d84613521565b6128fb565b61352a565b9050919050565b6135678161353d565b82525050565b5f6020820190506135805f83018461355e565b92915050565b5f69ffffffffffffffffffff82169050919050565b6135a481613586565b81146135ae575f80fd5b50565b5f815190506135bf8161359b565b92915050565b5f819050919050565b6135d7816135c5565b81146135e1575f80fd5b50565b5f815190506135f2816135ce565b92915050565b5f805f805f60a0868803121561361157613610612714565b5b5f61361e888289016135b1565b955050602061362f888289016135e4565b945050604061364088828901613036565b935050606061365188828901613036565b9250506080613662888289016135b1565b9150509295509295909350565b5f805f805f8060c0878903121561368957613688612714565b5b5f61369689828a01613036565b96505060206136a789828a01613036565b95505060406136b889828a01613036565b94505060606136c989828a01613036565b93505060806136da89828a01613036565b92505060a06136eb89828a01613036565b9150509295509295509295565b7f43616e206e6f74206c69717569646174650000000000000000000000000000005f82015250565b5f61372c601183612fbe565b9150613737826136f8565b602082019050919050565b5f6020820190508181035f83015261375981613720565b9050919050565b61376981612a4c565b82525050565b61377881612718565b82525050565b61010082015f8201516137935f8501826128dd565b5060208201516137a660208501826128dd565b5060408201516137b96040850182613760565b5060608201516137cc60608501826128dd565b5060808201516137df60808501826128ce565b5060a08201516137f260a08501826128ce565b5060c082015161380560c08501826128ce565b5060e082015161381860e085018261376f565b50505050565b5f610100820190506138325f83018461377e565b92915050565b5f81519050919050565b5f81905092915050565b8281835e5f83830152505050565b5f61386482613838565b61386e8185613842565b935061387e81856020860161384c565b80840191505092915050565b5f613895828461385a565b915081905092915050565b7f53410000000000000000000000000000000000000000000000000000000000005f82015250565b5f6138d4600283612fbe565b91506138df826138a0565b602082019050919050565b5f6020820190508181035f830152613901816138c8565b905091905056fea2646970667358221220f2c166209a6157791f69d9a1f13cf8fa14103bdf939015ec796113b96d72e9e064736f6c634300081a0033",
			"opcodes": "PUSH1 0x80 PUSH1 0x40 MSTORE CALLVALUE DUP1 ISZERO PUSH1 0xE JUMPI PUSH0 DUP1 REVERT JUMPDEST POP PUSH2 0x393E DUP1 PUSH2 0x1C PUSH0 CODECOPY PUSH0 RETURN INVALID PUSH1 0x80 PUSH1 0x40 MSTORE PUSH1 0x4 CALLDATASIZE LT PUSH2 0x1BA JUMPI PUSH0 CALLDATALOAD PUSH1 0xE0 SHR DUP1 PUSH4 0x7CE67D60 GT PUSH2 0xEB JUMPI DUP1 PUSH4 0xB2016BD4 GT PUSH2 0x89 JUMPI DUP1 PUSH4 0xC31C9C07 GT PUSH2 0x63 JUMPI DUP1 PUSH4 0xC31C9C07 EQ PUSH2 0x5B1 JUMPI DUP1 PUSH4 0xCDAABE41 EQ PUSH2 0x5DB JUMPI DUP1 PUSH4 0xD296D1F1 EQ PUSH2 0x605 JUMPI DUP1 PUSH4 0xF2428621 EQ PUSH2 0x62D JUMPI PUSH2 0x1C1 JUMP JUMPDEST DUP1 PUSH4 0xB2016BD4 EQ PUSH2 0x50A JUMPI DUP1 PUSH4 0xB3BFFEAA EQ PUSH2 0x534 JUMPI DUP1 PUSH4 0xBF92857C EQ PUSH2 0x570 JUMPI PUSH2 0x1C1 JUMP JUMPDEST DUP1 PUSH4 0x8AC1B775 GT PUSH2 0xC5 JUMPI DUP1 PUSH4 0x8AC1B775 EQ PUSH2 0x464 JUMPI DUP1 PUSH4 0x8DA5CB5B EQ PUSH2 0x48C JUMPI DUP1 PUSH4 0x92D09CEB EQ PUSH2 0x4B6 JUMPI DUP1 PUSH4 0xA0C1F15E EQ PUSH2 0x4E0 JUMPI PUSH2 0x1C1 JUMP JUMPDEST DUP1 PUSH4 0x7CE67D60 EQ PUSH2 0x3F7 JUMPI DUP1 PUSH4 0x7EA382C1 EQ PUSH2 0x426 JUMPI DUP1 PUSH4 0x83F8964E EQ PUSH2 0x43C JUMPI PUSH2 0x1C1 JUMP JUMPDEST DUP1 PUSH4 0x5825F535 GT PUSH2 0x158 JUMPI DUP1 PUSH4 0x6721DE26 GT PUSH2 0x132 JUMPI DUP1 PUSH4 0x6721DE26 EQ PUSH2 0x351 JUMPI DUP1 PUSH4 0x68DCAD58 EQ PUSH2 0x379 JUMPI DUP1 PUSH4 0x72F5D98A EQ PUSH2 0x3A3 JUMPI DUP1 PUSH4 0x741BEF1A EQ PUSH2 0x3CD JUMPI PUSH2 0x1C1 JUMP JUMPDEST DUP1 PUSH4 0x5825F535 EQ PUSH2 0x2D3 JUMPI DUP1 PUSH4 0x5D3E2FA1 EQ PUSH2 0x2FD JUMPI DUP1 PUSH4 0x62965D8E EQ PUSH2 0x327 JUMPI PUSH2 0x1C1 JUMP JUMPDEST DUP1 PUSH4 0x232FA733 GT PUSH2 0x194 JUMPI DUP1 PUSH4 0x232FA733 EQ PUSH2 0x22D JUMPI DUP1 PUSH4 0x4031234C EQ PUSH2 0x243 JUMPI DUP1 PUSH4 0x4BDE38C8 EQ PUSH2 0x26D JUMPI DUP1 PUSH4 0x4D2C872A EQ PUSH2 0x297 JUMPI PUSH2 0x1C1 JUMP JUMPDEST DUP1 PUSH4 0x7A6BF69 EQ PUSH2 0x1C5 JUMPI DUP1 PUSH4 0x102CB82E EQ PUSH2 0x1DB JUMPI DUP1 PUSH4 0x11256603 EQ PUSH2 0x203 JUMPI PUSH2 0x1C1 JUMP JUMPDEST CALLDATASIZE PUSH2 0x1C1 JUMPI STOP JUMPDEST PUSH0 DUP1 REVERT JUMPDEST CALLVALUE DUP1 ISZERO PUSH2 0x1D0 JUMPI PUSH0 DUP1 REVERT JUMPDEST POP PUSH2 0x1D9 PUSH2 0x657 JUMP JUMPDEST STOP JUMPDEST CALLVALUE DUP1 ISZERO PUSH2 0x1E6 JUMPI PUSH0 DUP1 REVERT JUMPDEST POP PUSH2 0x201 PUSH1 0x4 DUP1 CALLDATASIZE SUB DUP2 ADD SWAP1 PUSH2 0x1FC SWAP2 SWAP1 PUSH2 0x27A7 JUMP JUMPDEST PUSH2 0x903 JUMP JUMPDEST STOP JUMPDEST CALLVALUE DUP1 ISZERO PUSH2 0x20E JUMPI PUSH0 DUP1 REVERT JUMPDEST POP PUSH2 0x217 PUSH2 0xD29 JUMP JUMPDEST PUSH1 0x40 MLOAD PUSH2 0x224 SWAP2 SWAP1 PUSH2 0x27F4 JUMP JUMPDEST PUSH1 0x40 MLOAD DUP1 SWAP2 SUB SWAP1 RETURN JUMPDEST CALLVALUE DUP1 ISZERO PUSH2 0x238 JUMPI PUSH0 DUP1 REVERT JUMPDEST POP PUSH2 0x241 PUSH2 0xD3C JUMP JUMPDEST STOP JUMPDEST CALLVALUE DUP1 ISZERO PUSH2 0x24E JUMPI PUSH0 DUP1 REVERT JUMPDEST POP PUSH2 0x257 PUSH2 0xE07 JUMP JUMPDEST PUSH1 0x40 MLOAD PUSH2 0x264 SWAP2 SWAP1 PUSH2 0x2825 JUMP JUMPDEST PUSH1 0x40 MLOAD DUP1 SWAP2 SUB SWAP1 RETURN JUMPDEST CALLVALUE DUP1 ISZERO PUSH2 0x278 JUMPI PUSH0 DUP1 REVERT JUMPDEST POP PUSH2 0x281 PUSH2 0xE0D JUMP JUMPDEST PUSH1 0x40 MLOAD PUSH2 0x28E SWAP2 SWAP1 PUSH2 0x284D JUMP JUMPDEST PUSH1 0x40 MLOAD DUP1 SWAP2 SUB SWAP1 RETURN JUMPDEST CALLVALUE DUP1 ISZERO PUSH2 0x2A2 JUMPI PUSH0 DUP1 REVERT JUMPDEST POP PUSH2 0x2BD PUSH1 0x4 DUP1 CALLDATASIZE SUB DUP2 ADD SWAP1 PUSH2 0x2B8 SWAP2 SWAP1 PUSH2 0x2890 JUMP JUMPDEST PUSH2 0xE32 JUMP JUMPDEST PUSH1 0x40 MLOAD PUSH2 0x2CA SWAP2 SWAP1 PUSH2 0x2825 JUMP JUMPDEST PUSH1 0x40 MLOAD DUP1 SWAP2 SUB SWAP1 RETURN JUMPDEST CALLVALUE DUP1 ISZERO PUSH2 0x2DE JUMPI PUSH0 DUP1 REVERT JUMPDEST POP PUSH2 0x2E7 PUSH2 0x1049 JUMP JUMPDEST PUSH1 0x40 MLOAD PUSH2 0x2F4 SWAP2 SWAP1 PUSH2 0x284D JUMP JUMPDEST PUSH1 0x40 MLOAD DUP1 SWAP2 SUB SWAP1 RETURN JUMPDEST CALLVALUE DUP1 ISZERO PUSH2 0x308 JUMPI PUSH0 DUP1 REVERT JUMPDEST POP PUSH2 0x311 PUSH2 0x106E JUMP JUMPDEST PUSH1 0x40 MLOAD PUSH2 0x31E SWAP2 SWAP1 PUSH2 0x29CF JUMP JUMPDEST PUSH1 0x40 MLOAD DUP1 SWAP2 SUB SWAP1 RETURN JUMPDEST CALLVALUE DUP1 ISZERO PUSH2 0x332 JUMPI PUSH0 DUP1 REVERT JUMPDEST POP PUSH2 0x33B PUSH2 0x117B JUMP JUMPDEST PUSH1 0x40 MLOAD PUSH2 0x348 SWAP2 SWAP1 PUSH2 0x2825 JUMP JUMPDEST PUSH1 0x40 MLOAD DUP1 SWAP2 SUB SWAP1 RETURN JUMPDEST CALLVALUE DUP1 ISZERO PUSH2 0x35C JUMPI PUSH0 DUP1 REVERT JUMPDEST POP PUSH2 0x377 PUSH1 0x4 DUP1 CALLDATASIZE SUB DUP2 ADD SWAP1 PUSH2 0x372 SWAP2 SWAP1 PUSH2 0x29E8 JUMP JUMPDEST PUSH2 0x1181 JUMP JUMPDEST STOP JUMPDEST CALLVALUE DUP1 ISZERO PUSH2 0x384 JUMPI PUSH0 DUP1 REVERT JUMPDEST POP PUSH2 0x38D PUSH2 0x1229 JUMP JUMPDEST PUSH1 0x40 MLOAD PUSH2 0x39A SWAP2 SWAP1 PUSH2 0x2A33 JUMP JUMPDEST PUSH1 0x40 MLOAD DUP1 SWAP2 SUB SWAP1 RETURN JUMPDEST CALLVALUE DUP1 ISZERO PUSH2 0x3AE JUMPI PUSH0 DUP1 REVERT JUMPDEST POP PUSH2 0x3B7 PUSH2 0x124E JUMP JUMPDEST PUSH1 0x40 MLOAD PUSH2 0x3C4 SWAP2 SWAP1 PUSH2 0x2A69 JUMP JUMPDEST PUSH1 0x40 MLOAD DUP1 SWAP2 SUB SWAP1 RETURN JUMPDEST CALLVALUE DUP1 ISZERO PUSH2 0x3D8 JUMPI PUSH0 DUP1 REVERT JUMPDEST POP PUSH2 0x3E1 PUSH2 0x1254 JUMP JUMPDEST PUSH1 0x40 MLOAD PUSH2 0x3EE SWAP2 SWAP1 PUSH2 0x2A33 JUMP JUMPDEST PUSH1 0x40 MLOAD DUP1 SWAP2 SUB SWAP1 RETURN JUMPDEST CALLVALUE DUP1 ISZERO PUSH2 0x402 JUMPI PUSH0 DUP1 REVERT JUMPDEST POP PUSH2 0x40B PUSH2 0x1279 JUMP JUMPDEST PUSH1 0x40 MLOAD PUSH2 0x41D SWAP7 SWAP6 SWAP5 SWAP4 SWAP3 SWAP2 SWAP1 PUSH2 0x2A91 JUMP JUMPDEST PUSH1 0x40 MLOAD DUP1 SWAP2 SUB SWAP1 RETURN JUMPDEST CALLVALUE DUP1 ISZERO PUSH2 0x431 JUMPI PUSH0 DUP1 REVERT JUMPDEST POP PUSH2 0x43A PUSH2 0x12FA JUMP JUMPDEST STOP JUMPDEST CALLVALUE DUP1 ISZERO PUSH2 0x447 JUMPI PUSH0 DUP1 REVERT JUMPDEST POP PUSH2 0x462 PUSH1 0x4 DUP1 CALLDATASIZE SUB DUP2 ADD SWAP1 PUSH2 0x45D SWAP2 SWAP1 PUSH2 0x2D40 JUMP JUMPDEST PUSH2 0x1772 JUMP JUMPDEST STOP JUMPDEST CALLVALUE DUP1 ISZERO PUSH2 0x46F JUMPI PUSH0 DUP1 REVERT JUMPDEST POP PUSH2 0x48A PUSH1 0x4 DUP1 CALLDATASIZE SUB DUP2 ADD SWAP1 PUSH2 0x485 SWAP2 SWAP1 PUSH2 0x2E32 JUMP JUMPDEST PUSH2 0x1C64 JUMP JUMPDEST STOP JUMPDEST CALLVALUE DUP1 ISZERO PUSH2 0x497 JUMPI PUSH0 DUP1 REVERT JUMPDEST POP PUSH2 0x4A0 PUSH2 0x1D34 JUMP JUMPDEST PUSH1 0x40 MLOAD PUSH2 0x4AD SWAP2 SWAP1 PUSH2 0x284D JUMP JUMPDEST PUSH1 0x40 MLOAD DUP1 SWAP2 SUB SWAP1 RETURN JUMPDEST CALLVALUE DUP1 ISZERO PUSH2 0x4C1 JUMPI PUSH0 DUP1 REVERT JUMPDEST POP PUSH2 0x4CA PUSH2 0x1D57 JUMP JUMPDEST PUSH1 0x40 MLOAD PUSH2 0x4D7 SWAP2 SWAP1 PUSH2 0x2825 JUMP JUMPDEST PUSH1 0x40 MLOAD DUP1 SWAP2 SUB SWAP1 RETURN JUMPDEST CALLVALUE DUP1 ISZERO PUSH2 0x4EB JUMPI PUSH0 DUP1 REVERT JUMPDEST POP PUSH2 0x4F4 PUSH2 0x1D5D JUMP JUMPDEST PUSH1 0x40 MLOAD PUSH2 0x501 SWAP2 SWAP1 PUSH2 0x2E5D JUMP JUMPDEST PUSH1 0x40 MLOAD DUP1 SWAP2 SUB SWAP1 RETURN JUMPDEST CALLVALUE DUP1 ISZERO PUSH2 0x515 JUMPI PUSH0 DUP1 REVERT JUMPDEST POP PUSH2 0x51E PUSH2 0x1D82 JUMP JUMPDEST PUSH1 0x40 MLOAD PUSH2 0x52B SWAP2 SWAP1 PUSH2 0x2E5D JUMP JUMPDEST PUSH1 0x40 MLOAD DUP1 SWAP2 SUB SWAP1 RETURN JUMPDEST CALLVALUE DUP1 ISZERO PUSH2 0x53F JUMPI PUSH0 DUP1 REVERT JUMPDEST POP PUSH2 0x55A PUSH1 0x4 DUP1 CALLDATASIZE SUB DUP2 ADD SWAP1 PUSH2 0x555 SWAP2 SWAP1 PUSH2 0x2E76 JUMP JUMPDEST PUSH2 0x1DA7 JUMP JUMPDEST PUSH1 0x40 MLOAD PUSH2 0x567 SWAP2 SWAP1 PUSH2 0x2825 JUMP JUMPDEST PUSH1 0x40 MLOAD DUP1 SWAP2 SUB SWAP1 RETURN JUMPDEST CALLVALUE DUP1 ISZERO PUSH2 0x57B JUMPI PUSH0 DUP1 REVERT JUMPDEST POP PUSH2 0x596 PUSH1 0x4 DUP1 CALLDATASIZE SUB DUP2 ADD SWAP1 PUSH2 0x591 SWAP2 SWAP1 PUSH2 0x2E32 JUMP JUMPDEST PUSH2 0x1F09 JUMP JUMPDEST PUSH1 0x40 MLOAD PUSH2 0x5A8 SWAP7 SWAP6 SWAP5 SWAP4 SWAP3 SWAP2 SWAP1 PUSH2 0x2EB4 JUMP JUMPDEST PUSH1 0x40 MLOAD DUP1 SWAP2 SUB SWAP1 RETURN JUMPDEST CALLVALUE DUP1 ISZERO PUSH2 0x5BC JUMPI PUSH0 DUP1 REVERT JUMPDEST POP PUSH2 0x5C5 PUSH2 0x202E JUMP JUMPDEST PUSH1 0x40 MLOAD PUSH2 0x5D2 SWAP2 SWAP1 PUSH2 0x2F33 JUMP JUMPDEST PUSH1 0x40 MLOAD DUP1 SWAP2 SUB SWAP1 RETURN JUMPDEST CALLVALUE DUP1 ISZERO PUSH2 0x5E6 JUMPI PUSH0 DUP1 REVERT JUMPDEST POP PUSH2 0x5EF PUSH2 0x2053 JUMP JUMPDEST PUSH1 0x40 MLOAD PUSH2 0x5FC SWAP2 SWAP1 PUSH2 0x2F6C JUMP JUMPDEST PUSH1 0x40 MLOAD DUP1 SWAP2 SUB SWAP1 RETURN JUMPDEST CALLVALUE DUP1 ISZERO PUSH2 0x610 JUMPI PUSH0 DUP1 REVERT JUMPDEST POP PUSH2 0x62B PUSH1 0x4 DUP1 CALLDATASIZE SUB DUP2 ADD SWAP1 PUSH2 0x626 SWAP2 SWAP1 PUSH2 0x2890 JUMP JUMPDEST PUSH2 0x2078 JUMP JUMPDEST STOP JUMPDEST CALLVALUE DUP1 ISZERO PUSH2 0x638 JUMPI PUSH0 DUP1 REVERT JUMPDEST POP PUSH2 0x641 PUSH2 0x236D JUMP JUMPDEST PUSH1 0x40 MLOAD PUSH2 0x64E SWAP2 SWAP1 PUSH2 0x2FA5 JUMP JUMPDEST PUSH1 0x40 MLOAD DUP1 SWAP2 SUB SWAP1 RETURN JUMPDEST PUSH0 DUP1 SLOAD SWAP1 PUSH2 0x100 EXP SWAP1 DIV PUSH20 0xFFFFFFFFFFFFFFFFFFFFFFFFFFFFFFFFFFFFFFFF AND PUSH20 0xFFFFFFFFFFFFFFFFFFFFFFFFFFFFFFFFFFFFFFFF AND CALLER PUSH20 0xFFFFFFFFFFFFFFFFFFFFFFFFFFFFFFFFFFFFFFFF AND EQ PUSH2 0x6E4 JUMPI PUSH1 0x40 MLOAD PUSH32 0x8C379A000000000000000000000000000000000000000000000000000000000 DUP2 MSTORE PUSH1 0x4 ADD PUSH2 0x6DB SWAP1 PUSH2 0x3018 JUMP JUMPDEST PUSH1 0x40 MLOAD DUP1 SWAP2 SUB SWAP1 REVERT JUMPDEST PUSH0 PUSH1 0x7 PUSH0 SWAP1 SLOAD SWAP1 PUSH2 0x100 EXP SWAP1 DIV PUSH20 0xFFFFFFFFFFFFFFFFFFFFFFFFFFFFFFFFFFFFFFFF AND SWAP1 POP PUSH0 DUP2 PUSH20 0xFFFFFFFFFFFFFFFFFFFFFFFFFFFFFFFFFFFFFFFF AND PUSH4 0x70A08231 ADDRESS PUSH1 0x40 MLOAD DUP3 PUSH4 0xFFFFFFFF AND PUSH1 0xE0 SHL DUP2 MSTORE PUSH1 0x4 ADD PUSH2 0x743 SWAP2 SWAP1 PUSH2 0x284D JUMP JUMPDEST PUSH1 0x20 PUSH1 0x40 MLOAD DUP1 DUP4 SUB DUP2 DUP7 GAS STATICCALL ISZERO DUP1 ISZERO PUSH2 0x75E JUMPI RETURNDATASIZE PUSH0 DUP1 RETURNDATACOPY RETURNDATASIZE PUSH0 REVERT JUMPDEST POP POP POP POP PUSH1 0x40 MLOAD RETURNDATASIZE PUSH1 0x1F NOT PUSH1 0x1F DUP3 ADD AND DUP3 ADD DUP1 PUSH1 0x40 MSTORE POP DUP2 ADD SWAP1 PUSH2 0x782 SWAP2 SWAP1 PUSH2 0x304A JUMP JUMPDEST SWAP1 POP PUSH0 ADDRESS SWAP1 POP PUSH0 DUP1 PUSH1 0x1 PUSH0 SWAP1 SLOAD SWAP1 PUSH2 0x100 EXP SWAP1 DIV PUSH20 0xFFFFFFFFFFFFFFFFFFFFFFFFFFFFFFFFFFFFFFFF AND PUSH20 0xFFFFFFFFFFFFFFFFFFFFFFFFFFFFFFFFFFFFFFFF AND PUSH4 0x26B1D5F PUSH1 0x40 MLOAD DUP2 PUSH4 0xFFFFFFFF AND PUSH1 0xE0 SHL DUP2 MSTORE PUSH1 0x4 ADD PUSH1 0x20 PUSH1 0x40 MLOAD DUP1 DUP4 SUB DUP2 DUP7 GAS STATICCALL ISZERO DUP1 ISZERO PUSH2 0x7F4 JUMPI RETURNDATASIZE PUSH0 DUP1 RETURNDATACOPY RETURNDATASIZE PUSH0 REVERT JUMPDEST POP POP POP POP PUSH1 0x40 MLOAD RETURNDATASIZE PUSH1 0x1F NOT PUSH1 0x1F DUP3 ADD AND DUP3 ADD DUP1 PUSH1 0x40 MSTORE POP DUP2 ADD SWAP1 PUSH2 0x818 SWAP2 SWAP1 PUSH2 0x3089 JUMP JUMPDEST SWAP1 POP DUP1 PUSH20 0xFFFFFFFFFFFFFFFFFFFFFFFFFFFFFFFFFFFFFFFF AND PUSH4 0x617BA037 DUP7 DUP7 DUP7 DUP7 PUSH1 0x40 MLOAD DUP6 PUSH4 0xFFFFFFFF AND PUSH1 0xE0 SHL DUP2 MSTORE PUSH1 0x4 ADD PUSH2 0x859 SWAP5 SWAP4 SWAP3 SWAP2 SWAP1 PUSH2 0x30D0 JUMP JUMPDEST PUSH0 PUSH1 0x40 MLOAD DUP1 DUP4 SUB DUP2 PUSH0 DUP8 DUP1 EXTCODESIZE ISZERO DUP1 ISZERO PUSH2 0x870 JUMPI PUSH0 DUP1 REVERT JUMPDEST POP GAS CALL ISZERO DUP1 ISZERO PUSH2 0x882 JUMPI RETURNDATASIZE PUSH0 DUP1 RETURNDATACOPY RETURNDATASIZE PUSH0 REVERT JUMPDEST POP POP POP POP DUP4 DUP6 PUSH20 0xFFFFFFFFFFFFFFFFFFFFFFFFFFFFFFFFFFFFFFFF AND DUP5 PUSH20 0xFFFFFFFFFFFFFFFFFFFFFFFFFFFFFFFFFFFFFFFF AND PUSH32 0x51A2B359618AEB0BCC2A495A6667C0BDBFDDC3BB27EB0DD5B8E3B33A4C15865F PUSH1 0x40 MLOAD PUSH1 0x40 MLOAD DUP1 SWAP2 SUB SWAP1 LOG4 PUSH1 0x1 PUSH1 0x2 PUSH1 0x14 PUSH2 0x100 EXP DUP2 SLOAD DUP2 PUSH1 0xFF MUL NOT AND SWAP1 DUP4 ISZERO ISZERO MUL OR SWAP1 SSTORE POP POP POP POP POP POP JUMP JUMPDEST PUSH0 DUP1 SLOAD SWAP1 PUSH2 0x100 EXP SWAP1 DIV PUSH20 0xFFFFFFFFFFFFFFFFFFFFFFFFFFFFFFFFFFFFFFFF AND PUSH20 0xFFFFFFFFFFFFFFFFFFFFFFFFFFFFFFFFFFFFFFFF AND CALLER PUSH20 0xFFFFFFFFFFFFFFFFFFFFFFFFFFFFFFFFFFFFFFFF AND EQ PUSH2 0x990 JUMPI PUSH1 0x40 MLOAD PUSH32 0x8C379A000000000000000000000000000000000000000000000000000000000 DUP2 MSTORE PUSH1 0x4 ADD PUSH2 0x987 SWAP1 PUSH2 0x3018 JUMP JUMPDEST PUSH1 0x40 MLOAD DUP1 SWAP2 SUB SWAP1 REVERT JUMPDEST PUSH1 0x1 ISZERO ISZERO PUSH1 0x8 PUSH1 0x3 ADD PUSH1 0x14 SWAP1 SLOAD SWAP1 PUSH2 0x100 EXP SWAP1 DIV PUSH1 0xFF AND ISZERO ISZERO EQ PUSH2 0x9E9 JUMPI PUSH1 0x40 MLOAD PUSH32 0x8C379A000000000000000000000000000000000000000000000000000000000 DUP2 MSTORE PUSH1 0x4 ADD PUSH2 0x9E0 SWAP1 PUSH2 0x315D JUMP JUMPDEST PUSH1 0x40 MLOAD DUP1 SWAP2 SUB SWAP1 REVERT JUMPDEST DUP1 ISZERO PUSH2 0xBEF JUMPI PUSH1 0x10 PUSH0 SWAP1 SLOAD SWAP1 PUSH2 0x100 EXP SWAP1 DIV PUSH20 0xFFFFFFFFFFFFFFFFFFFFFFFFFFFFFFFFFFFFFFFF AND PUSH20 0xFFFFFFFFFFFFFFFFFFFFFFFFFFFFFFFFFFFFFFFF AND PUSH4 0x2E1A7D4D PUSH1 0x7 PUSH0 SWAP1 SLOAD SWAP1 PUSH2 0x100 EXP SWAP1 DIV PUSH20 0xFFFFFFFFFFFFFFFFFFFFFFFFFFFFFFFFFFFFFFFF AND PUSH20 0xFFFFFFFFFFFFFFFFFFFFFFFFFFFFFFFFFFFFFFFF AND PUSH4 0x70A08231 ADDRESS PUSH1 0x40 MLOAD DUP3 PUSH4 0xFFFFFFFF AND PUSH1 0xE0 SHL DUP2 MSTORE PUSH1 0x4 ADD PUSH2 0xA86 SWAP2 SWAP1 PUSH2 0x284D JUMP JUMPDEST PUSH1 0x20 PUSH1 0x40 MLOAD DUP1 DUP4 SUB DUP2 DUP7 GAS STATICCALL ISZERO DUP1 ISZERO PUSH2 0xAA1 JUMPI RETURNDATASIZE PUSH0 DUP1 RETURNDATACOPY RETURNDATASIZE PUSH0 REVERT JUMPDEST POP POP POP POP PUSH1 0x40 MLOAD RETURNDATASIZE PUSH1 0x1F NOT PUSH1 0x1F DUP3 ADD AND DUP3 ADD DUP1 PUSH1 0x40 MSTORE POP DUP2 ADD SWAP1 PUSH2 0xAC5 SWAP2 SWAP1 PUSH2 0x304A JUMP JUMPDEST PUSH1 0x40 MLOAD DUP3 PUSH4 0xFFFFFFFF AND PUSH1 0xE0 SHL DUP2 MSTORE PUSH1 0x4 ADD PUSH2 0xAE1 SWAP2 SWAP1 PUSH2 0x2825 JUMP JUMPDEST PUSH0 PUSH1 0x40 MLOAD DUP1 DUP4 SUB DUP2 PUSH0 DUP8 DUP1 EXTCODESIZE ISZERO DUP1 ISZERO PUSH2 0xAF8 JUMPI PUSH0 DUP1 REVERT JUMPDEST POP GAS CALL ISZERO DUP1 ISZERO PUSH2 0xB0A JUMPI RETURNDATASIZE PUSH0 DUP1 RETURNDATACOPY RETURNDATASIZE PUSH0 REVERT JUMPDEST POP POP POP POP DUP2 PUSH20 0xFFFFFFFFFFFFFFFFFFFFFFFFFFFFFFFFFFFFFFFF AND PUSH2 0x8FC PUSH1 0x7 PUSH0 SWAP1 SLOAD SWAP1 PUSH2 0x100 EXP SWAP1 DIV PUSH20 0xFFFFFFFFFFFFFFFFFFFFFFFFFFFFFFFFFFFFFFFF AND PUSH20 0xFFFFFFFFFFFFFFFFFFFFFFFFFFFFFFFFFFFFFFFF AND PUSH4 0x70A08231 ADDRESS PUSH1 0x40 MLOAD DUP3 PUSH4 0xFFFFFFFF AND PUSH1 0xE0 SHL DUP2 MSTORE PUSH1 0x4 ADD PUSH2 0xB82 SWAP2 SWAP1 PUSH2 0x284D JUMP JUMPDEST PUSH1 0x20 PUSH1 0x40 MLOAD DUP1 DUP4 SUB DUP2 DUP7 GAS STATICCALL ISZERO DUP1 ISZERO PUSH2 0xB9D JUMPI RETURNDATASIZE PUSH0 DUP1 RETURNDATACOPY RETURNDATASIZE PUSH0 REVERT JUMPDEST POP POP POP POP PUSH1 0x40 MLOAD RETURNDATASIZE PUSH1 0x1F NOT PUSH1 0x1F DUP3 ADD AND DUP3 ADD DUP1 PUSH1 0x40 MSTORE POP DUP2 ADD SWAP1 PUSH2 0xBC1 SWAP2 SWAP1 PUSH2 0x304A JUMP JUMPDEST SWAP1 DUP2 ISZERO MUL SWAP1 PUSH1 0x40 MLOAD PUSH0 PUSH1 0x40 MLOAD DUP1 DUP4 SUB DUP2 DUP6 DUP9 DUP9 CALL SWAP4 POP POP POP POP ISZERO DUP1 ISZERO PUSH2 0xBE9 JUMPI RETURNDATASIZE PUSH0 DUP1 RETURNDATACOPY RETURNDATASIZE PUSH0 REVERT JUMPDEST POP PUSH2 0xD25 JUMP JUMPDEST PUSH1 0x7 PUSH0 SWAP1 SLOAD SWAP1 PUSH2 0x100 EXP SWAP1 DIV PUSH20 0xFFFFFFFFFFFFFFFFFFFFFFFFFFFFFFFFFFFFFFFF AND PUSH20 0xFFFFFFFFFFFFFFFFFFFFFFFFFFFFFFFFFFFFFFFF AND PUSH4 0xA9059CBB DUP4 PUSH1 0x7 PUSH0 SWAP1 SLOAD SWAP1 PUSH2 0x100 EXP SWAP1 DIV PUSH20 0xFFFFFFFFFFFFFFFFFFFFFFFFFFFFFFFFFFFFFFFF AND PUSH20 0xFFFFFFFFFFFFFFFFFFFFFFFFFFFFFFFFFFFFFFFF AND PUSH4 0x70A08231 ADDRESS PUSH1 0x40 MLOAD DUP3 PUSH4 0xFFFFFFFF AND PUSH1 0xE0 SHL DUP2 MSTORE PUSH1 0x4 ADD PUSH2 0xC87 SWAP2 SWAP1 PUSH2 0x284D JUMP JUMPDEST PUSH1 0x20 PUSH1 0x40 MLOAD DUP1 DUP4 SUB DUP2 DUP7 GAS STATICCALL ISZERO DUP1 ISZERO PUSH2 0xCA2 JUMPI RETURNDATASIZE PUSH0 DUP1 RETURNDATACOPY RETURNDATASIZE PUSH0 REVERT JUMPDEST POP POP POP POP PUSH1 0x40 MLOAD RETURNDATASIZE PUSH1 0x1F NOT PUSH1 0x1F DUP3 ADD AND DUP3 ADD DUP1 PUSH1 0x40 MSTORE POP DUP2 ADD SWAP1 PUSH2 0xCC6 SWAP2 SWAP1 PUSH2 0x304A JUMP JUMPDEST PUSH1 0x40 MLOAD DUP4 PUSH4 0xFFFFFFFF AND PUSH1 0xE0 SHL DUP2 MSTORE PUSH1 0x4 ADD PUSH2 0xCE3 SWAP3 SWAP2 SWAP1 PUSH2 0x317B JUMP JUMPDEST PUSH1 0x20 PUSH1 0x40 MLOAD DUP1 DUP4 SUB DUP2 PUSH0 DUP8 GAS CALL ISZERO DUP1 ISZERO PUSH2 0xCFF JUMPI RETURNDATASIZE PUSH0 DUP1 RETURNDATACOPY RETURNDATASIZE PUSH0 REVERT JUMPDEST POP POP POP POP PUSH1 0x40 MLOAD RETURNDATASIZE PUSH1 0x1F NOT PUSH1 0x1F DUP3 ADD AND DUP3 ADD DUP1 PUSH1 0x40 MSTORE POP DUP2 ADD SWAP1 PUSH2 0xD23 SWAP2 SWAP1 PUSH2 0x31B6 JUMP JUMPDEST POP JUMPDEST POP POP JUMP JUMPDEST PUSH1 0x2 PUSH1 0x14 SWAP1 SLOAD SWAP1 PUSH2 0x100 EXP SWAP1 DIV PUSH1 0xFF AND DUP2 JUMP JUMPDEST PUSH0 DUP1 SLOAD SWAP1 PUSH2 0x100 EXP SWAP1 DIV PUSH20 0xFFFFFFFFFFFFFFFFFFFFFFFFFFFFFFFFFFFFFFFF AND PUSH20 0xFFFFFFFFFFFFFFFFFFFFFFFFFFFFFFFFFFFFFFFF AND CALLER PUSH20 0xFFFFFFFFFFFFFFFFFFFFFFFFFFFFFFFFFFFFFFFF AND EQ PUSH2 0xDC9 JUMPI PUSH1 0x40 MLOAD PUSH32 0x8C379A000000000000000000000000000000000000000000000000000000000 DUP2 MSTORE PUSH1 0x4 ADD PUSH2 0xDC0 SWAP1 PUSH2 0x3018 JUMP JUMPDEST PUSH1 0x40 MLOAD DUP1 SWAP2 SUB SWAP1 REVERT JUMPDEST PUSH1 0x1 PUSH1 0x8 PUSH1 0x3 ADD PUSH1 0x14 PUSH2 0x100 EXP DUP2 SLOAD DUP2 PUSH1 0xFF MUL NOT AND SWAP1 DUP4 ISZERO ISZERO MUL OR SWAP1 SSTORE POP PUSH1 0x2 PUSH1 0x14 SWAP1 SLOAD SWAP1 PUSH2 0x100 EXP SWAP1 DIV PUSH1 0xFF AND ISZERO PUSH2 0xE05 JUMPI PUSH2 0xE04 PUSH2 0x12FA JUMP JUMPDEST JUMPDEST JUMP JUMPDEST PUSH1 0x4 SLOAD DUP2 JUMP JUMPDEST PUSH1 0xF PUSH0 SWAP1 SLOAD SWAP1 PUSH2 0x100 EXP SWAP1 DIV PUSH20 0xFFFFFFFFFFFFFFFFFFFFFFFFFFFFFFFFFFFFFFFF AND DUP2 JUMP JUMPDEST PUSH0 DUP1 PUSH2 0xE63 PUSH1 0x8 PUSH1 0x3 ADD PUSH0 SWAP1 SLOAD SWAP1 PUSH2 0x100 EXP SWAP1 DIV PUSH20 0xFFFFFFFFFFFFFFFFFFFFFFFFFFFFFFFFFFFFFFFF AND PUSH1 0x1 PUSH2 0x1DA7 JUMP JUMPDEST SWAP1 POP PUSH0 DUP1 DUP5 PUSH1 0x6 SLOAD PUSH2 0xE75 SWAP2 SWAP1 PUSH2 0x320E JUMP JUMPDEST SWAP1 POP PUSH0 PUSH1 0x7 PUSH0 SWAP1 SLOAD SWAP1 PUSH2 0x100 EXP SWAP1 DIV PUSH20 0xFFFFFFFFFFFFFFFFFFFFFFFFFFFFFFFFFFFFFFFF AND SWAP1 POP PUSH0 DUP3 GT ISZERO PUSH2 0xF69 JUMPI PUSH0 PUSH2 0xEAF DUP3 PUSH0 PUSH2 0x1DA7 JUMP JUMPDEST SWAP1 POP DUP2 PUSH20 0xFFFFFFFFFFFFFFFFFFFFFFFFFFFFFFFFFFFFFFFF AND PUSH4 0x313CE567 PUSH1 0x40 MLOAD DUP2 PUSH4 0xFFFFFFFF AND PUSH1 0xE0 SHL DUP2 MSTORE PUSH1 0x4 ADD PUSH1 0x20 PUSH1 0x40 MLOAD DUP1 DUP4 SUB DUP2 DUP7 GAS STATICCALL ISZERO DUP1 ISZERO PUSH2 0xEFA JUMPI RETURNDATASIZE PUSH0 DUP1 RETURNDATACOPY RETURNDATASIZE PUSH0 REVERT JUMPDEST POP POP POP POP PUSH1 0x40 MLOAD RETURNDATASIZE PUSH1 0x1F NOT PUSH1 0x1F DUP3 ADD AND DUP3 ADD DUP1 PUSH1 0x40 MSTORE POP DUP2 ADD SWAP1 PUSH2 0xF1E SWAP2 SWAP1 PUSH2 0x3277 JUMP JUMPDEST PUSH1 0xA PUSH2 0xF2A SWAP2 SWAP1 PUSH2 0x33D1 JUMP JUMPDEST PUSH2 0x2710 PUSH1 0x4 SLOAD DUP4 DUP7 PUSH2 0xF3C SWAP2 SWAP1 PUSH2 0x341B JUMP JUMPDEST PUSH2 0xF46 SWAP2 SWAP1 PUSH2 0x341B JUMP JUMPDEST PUSH2 0xF50 SWAP2 SWAP1 PUSH2 0x3489 JUMP JUMPDEST PUSH2 0xF5A SWAP2 SWAP1 PUSH2 0x3489 JUMP JUMPDEST DUP5 PUSH2 0xF65 SWAP2 SWAP1 PUSH2 0x320E JUMP JUMPDEST SWAP4 POP POP JUMPDEST PUSH0 PUSH1 0x8 PUSH1 0x3 ADD PUSH0 SWAP1 SLOAD SWAP1 PUSH2 0x100 EXP SWAP1 DIV PUSH20 0xFFFFFFFFFFFFFFFFFFFFFFFFFFFFFFFFFFFFFFFF AND PUSH20 0xFFFFFFFFFFFFFFFFFFFFFFFFFFFFFFFFFFFFFFFF AND PUSH4 0x313CE567 PUSH1 0x40 MLOAD DUP2 PUSH4 0xFFFFFFFF AND PUSH1 0xE0 SHL DUP2 MSTORE PUSH1 0x4 ADD PUSH1 0x20 PUSH1 0x40 MLOAD DUP1 DUP4 SUB DUP2 DUP7 GAS STATICCALL ISZERO DUP1 ISZERO PUSH2 0xFD7 JUMPI RETURNDATASIZE PUSH0 DUP1 RETURNDATACOPY RETURNDATASIZE PUSH0 REVERT JUMPDEST POP POP POP POP PUSH1 0x40 MLOAD RETURNDATASIZE PUSH1 0x1F NOT PUSH1 0x1F DUP3 ADD AND DUP3 ADD DUP1 PUSH1 0x40 MSTORE POP DUP2 ADD SWAP1 PUSH2 0xFFB SWAP2 SWAP1 PUSH2 0x3277 JUMP JUMPDEST PUSH1 0xA PUSH2 0x1007 SWAP2 SWAP1 PUSH2 0x33D1 JUMP JUMPDEST DUP6 DUP10 PUSH2 0x1013 SWAP2 SWAP1 PUSH2 0x341B JUMP JUMPDEST PUSH2 0x101D SWAP2 SWAP1 PUSH2 0x3489 JUMP JUMPDEST SWAP1 POP PUSH0 DUP2 PUSH1 0x64 DUP7 PUSH2 0x102E SWAP2 SWAP1 PUSH2 0x341B JUMP JUMPDEST PUSH2 0x1038 SWAP2 SWAP1 PUSH2 0x3489 JUMP JUMPDEST SWAP1 POP DUP1 SWAP7 POP POP POP POP POP POP POP SWAP3 SWAP2 POP POP JUMP JUMPDEST PUSH1 0xE PUSH0 SWAP1 SLOAD SWAP1 PUSH2 0x100 EXP SWAP1 DIV PUSH20 0xFFFFFFFFFFFFFFFFFFFFFFFFFFFFFFFFFFFFFFFF AND DUP2 JUMP JUMPDEST PUSH2 0x1076 PUSH2 0x26AB JUMP JUMPDEST PUSH1 0x8 PUSH1 0x40 MLOAD DUP1 PUSH1 0xC0 ADD PUSH1 0x40 MSTORE SWAP1 DUP2 PUSH0 DUP3 ADD SLOAD DUP2 MSTORE PUSH1 0x20 ADD PUSH1 0x1 DUP3 ADD PUSH0 SWAP1 SLOAD SWAP1 PUSH2 0x100 EXP SWAP1 DIV PUSH20 0xFFFFFFFFFFFFFFFFFFFFFFFFFFFFFFFFFFFFFFFF AND PUSH20 0xFFFFFFFFFFFFFFFFFFFFFFFFFFFFFFFFFFFFFFFF AND PUSH20 0xFFFFFFFFFFFFFFFFFFFFFFFFFFFFFFFFFFFFFFFF AND DUP2 MSTORE PUSH1 0x20 ADD PUSH1 0x1 DUP3 ADD PUSH1 0x14 SWAP1 SLOAD SWAP1 PUSH2 0x100 EXP SWAP1 DIV PUSH1 0xFF AND ISZERO ISZERO ISZERO ISZERO DUP2 MSTORE PUSH1 0x20 ADD PUSH1 0x2 DUP3 ADD SLOAD DUP2 MSTORE PUSH1 0x20 ADD PUSH1 0x3 DUP3 ADD PUSH0 SWAP1 SLOAD SWAP1 PUSH2 0x100 EXP SWAP1 DIV PUSH20 0xFFFFFFFFFFFFFFFFFFFFFFFFFFFFFFFFFFFFFFFF AND PUSH20 0xFFFFFFFFFFFFFFFFFFFFFFFFFFFFFFFFFFFFFFFF AND PUSH20 0xFFFFFFFFFFFFFFFFFFFFFFFFFFFFFFFFFFFFFFFF AND DUP2 MSTORE PUSH1 0x20 ADD PUSH1 0x3 DUP3 ADD PUSH1 0x14 SWAP1 SLOAD SWAP1 PUSH2 0x100 EXP SWAP1 DIV PUSH1 0xFF AND ISZERO ISZERO ISZERO ISZERO DUP2 MSTORE POP POP SWAP1 POP SWAP1 JUMP JUMPDEST PUSH1 0x5 SLOAD DUP2 JUMP JUMPDEST PUSH0 DUP1 SLOAD SWAP1 PUSH2 0x100 EXP SWAP1 DIV PUSH20 0xFFFFFFFFFFFFFFFFFFFFFFFFFFFFFFFFFFFFFFFF AND PUSH20 0xFFFFFFFFFFFFFFFFFFFFFFFFFFFFFFFFFFFFFFFF AND CALLER PUSH20 0xFFFFFFFFFFFFFFFFFFFFFFFFFFFFFFFFFFFFFFFF AND EQ PUSH2 0x120E JUMPI PUSH1 0x40 MLOAD PUSH32 0x8C379A000000000000000000000000000000000000000000000000000000000 DUP2 MSTORE PUSH1 0x4 ADD PUSH2 0x1205 SWAP1 PUSH2 0x3018 JUMP JUMPDEST PUSH1 0x40 MLOAD DUP1 SWAP2 SUB SWAP1 REVERT JUMPDEST DUP1 PUSH1 0x6 PUSH0 DUP3 DUP3 SLOAD PUSH2 0x121F SWAP2 SWAP1 PUSH2 0x320E JUMP JUMPDEST SWAP3 POP POP DUP2 SWAP1 SSTORE POP POP JUMP JUMPDEST PUSH1 0xD PUSH0 SWAP1 SLOAD SWAP1 PUSH2 0x100 EXP SWAP1 DIV PUSH20 0xFFFFFFFFFFFFFFFFFFFFFFFFFFFFFFFFFFFFFFFF AND DUP2 JUMP JUMPDEST PUSH2 0xBB8 DUP2 JUMP JUMPDEST PUSH1 0xC PUSH0 SWAP1 SLOAD SWAP1 PUSH2 0x100 EXP SWAP1 DIV PUSH20 0xFFFFFFFFFFFFFFFFFFFFFFFFFFFFFFFFFFFFFFFF AND DUP2 JUMP JUMPDEST PUSH1 0x8 DUP1 PUSH0 ADD SLOAD SWAP1 DUP1 PUSH1 0x1 ADD PUSH0 SWAP1 SLOAD SWAP1 PUSH2 0x100 EXP SWAP1 DIV PUSH20 0xFFFFFFFFFFFFFFFFFFFFFFFFFFFFFFFFFFFFFFFF AND SWAP1 DUP1 PUSH1 0x1 ADD PUSH1 0x14 SWAP1 SLOAD SWAP1 PUSH2 0x100 EXP SWAP1 DIV PUSH1 0xFF AND SWAP1 DUP1 PUSH1 0x2 ADD SLOAD SWAP1 DUP1 PUSH1 0x3 ADD PUSH0 SWAP1 SLOAD SWAP1 PUSH2 0x100 EXP SWAP1 DIV PUSH20 0xFFFFFFFFFFFFFFFFFFFFFFFFFFFFFFFFFFFFFFFF AND SWAP1 DUP1 PUSH1 0x3 ADD PUSH1 0x14 SWAP1 SLOAD SWAP1 PUSH2 0x100 EXP SWAP1 DIV PUSH1 0xFF AND SWAP1 POP DUP7 JUMP JUMPDEST PUSH0 DUP1 SLOAD SWAP1 PUSH2 0x100 EXP SWAP1 DIV PUSH20 0xFFFFFFFFFFFFFFFFFFFFFFFFFFFFFFFFFFFFFFFF AND PUSH20 0xFFFFFFFFFFFFFFFFFFFFFFFFFFFFFFFFFFFFFFFF AND CALLER PUSH20 0xFFFFFFFFFFFFFFFFFFFFFFFFFFFFFFFFFFFFFFFF AND EQ PUSH2 0x1387 JUMPI PUSH1 0x40 MLOAD PUSH32 0x8C379A000000000000000000000000000000000000000000000000000000000 DUP2 MSTORE PUSH1 0x4 ADD PUSH2 0x137E SWAP1 PUSH2 0x3018 JUMP JUMPDEST PUSH1 0x40 MLOAD DUP1 SWAP2 SUB SWAP1 REVERT JUMPDEST PUSH0 PUSH1 0x2 PUSH0 SWAP1 SLOAD SWAP1 PUSH2 0x100 EXP SWAP1 DIV PUSH20 0xFFFFFFFFFFFFFFFFFFFFFFFFFFFFFFFFFFFFFFFF AND PUSH20 0xFFFFFFFFFFFFFFFFFFFFFFFFFFFFFFFFFFFFFFFF AND PUSH4 0x70A08231 ADDRESS PUSH1 0x40 MLOAD DUP3 PUSH4 0xFFFFFFFF AND PUSH1 0xE0 SHL DUP2 MSTORE PUSH1 0x4 ADD PUSH2 0x13E2 SWAP2 SWAP1 PUSH2 0x284D JUMP JUMPDEST PUSH1 0x20 PUSH1 0x40 MLOAD DUP1 DUP4 SUB DUP2 DUP7 GAS STATICCALL ISZERO DUP1 ISZERO PUSH2 0x13FD JUMPI RETURNDATASIZE PUSH0 DUP1 RETURNDATACOPY RETURNDATASIZE PUSH0 REVERT JUMPDEST POP POP POP POP PUSH1 0x40 MLOAD RETURNDATASIZE PUSH1 0x1F NOT PUSH1 0x1F DUP3 ADD AND DUP3 ADD DUP1 PUSH1 0x40 MSTORE POP DUP2 ADD SWAP1 PUSH2 0x1421 SWAP2 SWAP1 PUSH2 0x304A JUMP JUMPDEST SWAP1 POP PUSH0 PUSH1 0x1 PUSH0 SWAP1 SLOAD SWAP1 PUSH2 0x100 EXP SWAP1 DIV PUSH20 0xFFFFFFFFFFFFFFFFFFFFFFFFFFFFFFFFFFFFFFFF AND PUSH20 0xFFFFFFFFFFFFFFFFFFFFFFFFFFFFFFFFFFFFFFFF AND PUSH4 0x26B1D5F PUSH1 0x40 MLOAD DUP2 PUSH4 0xFFFFFFFF AND PUSH1 0xE0 SHL DUP2 MSTORE PUSH1 0x4 ADD PUSH1 0x20 PUSH1 0x40 MLOAD DUP1 DUP4 SUB DUP2 DUP7 GAS STATICCALL ISZERO DUP1 ISZERO PUSH2 0x148E JUMPI RETURNDATASIZE PUSH0 DUP1 RETURNDATACOPY RETURNDATASIZE PUSH0 REVERT JUMPDEST POP POP POP POP PUSH1 0x40 MLOAD RETURNDATASIZE PUSH1 0x1F NOT PUSH1 0x1F DUP3 ADD AND DUP3 ADD DUP1 PUSH1 0x40 MSTORE POP DUP2 ADD SWAP1 PUSH2 0x14B2 SWAP2 SWAP1 PUSH2 0x3089 JUMP JUMPDEST SWAP1 POP DUP1 PUSH20 0xFFFFFFFFFFFFFFFFFFFFFFFFFFFFFFFFFFFFFFFF AND PUSH4 0x69328DEC PUSH1 0x2 PUSH0 SWAP1 SLOAD SWAP1 PUSH2 0x100 EXP SWAP1 DIV PUSH20 0xFFFFFFFFFFFFFFFFFFFFFFFFFFFFFFFFFFFFFFFF AND DUP5 ADDRESS PUSH1 0x40 MLOAD DUP5 PUSH4 0xFFFFFFFF AND PUSH1 0xE0 SHL DUP2 MSTORE PUSH1 0x4 ADD PUSH2 0x1512 SWAP4 SWAP3 SWAP2 SWAP1 PUSH2 0x34B9 JUMP JUMPDEST PUSH1 0x20 PUSH1 0x40 MLOAD DUP1 DUP4 SUB DUP2 PUSH0 DUP8 GAS CALL ISZERO DUP1 ISZERO PUSH2 0x152E JUMPI RETURNDATASIZE PUSH0 DUP1 RETURNDATACOPY RETURNDATASIZE PUSH0 REVERT JUMPDEST POP POP POP POP PUSH1 0x40 MLOAD RETURNDATASIZE PUSH1 0x1F NOT PUSH1 0x1F DUP3 ADD AND DUP3 ADD DUP1 PUSH1 0x40 MSTORE POP DUP2 ADD SWAP1 PUSH2 0x1552 SWAP2 SWAP1 PUSH2 0x304A JUMP JUMPDEST POP DUP2 PUSH1 0x2 PUSH0 SWAP1 SLOAD SWAP1 PUSH2 0x100 EXP SWAP1 DIV PUSH20 0xFFFFFFFFFFFFFFFFFFFFFFFFFFFFFFFFFFFFFFFF AND PUSH20 0xFFFFFFFFFFFFFFFFFFFFFFFFFFFFFFFFFFFFFFFF AND ADDRESS PUSH20 0xFFFFFFFFFFFFFFFFFFFFFFFFFFFFFFFFFFFFFFFF AND PUSH32 0x83AA598DD3E269AF677698C6847B3BA594A67D286A771D01099AAFA911A91B64 PUSH1 0x40 MLOAD PUSH1 0x40 MLOAD DUP1 SWAP2 SUB SWAP1 LOG4 PUSH0 PUSH1 0x2 PUSH1 0x14 PUSH2 0x100 EXP DUP2 SLOAD DUP2 PUSH1 0xFF MUL NOT AND SWAP1 DUP4 ISZERO ISZERO MUL OR SWAP1 SSTORE POP PUSH0 PUSH1 0x7 PUSH0 SWAP1 SLOAD SWAP1 PUSH2 0x100 EXP SWAP1 DIV PUSH20 0xFFFFFFFFFFFFFFFFFFFFFFFFFFFFFFFFFFFFFFFF AND PUSH20 0xFFFFFFFFFFFFFFFFFFFFFFFFFFFFFFFFFFFFFFFF AND PUSH4 0x70A08231 ADDRESS PUSH1 0x40 MLOAD DUP3 PUSH4 0xFFFFFFFF AND PUSH1 0xE0 SHL DUP2 MSTORE PUSH1 0x4 ADD PUSH2 0x1644 SWAP2 SWAP1 PUSH2 0x284D JUMP JUMPDEST PUSH1 0x20 PUSH1 0x40 MLOAD DUP1 DUP4 SUB DUP2 DUP7 GAS STATICCALL ISZERO DUP1 ISZERO PUSH2 0x165F JUMPI RETURNDATASIZE PUSH0 DUP1 RETURNDATACOPY RETURNDATASIZE PUSH0 REVERT JUMPDEST POP POP POP POP PUSH1 0x40 MLOAD RETURNDATASIZE PUSH1 0x1F NOT PUSH1 0x1F DUP3 ADD AND DUP3 ADD DUP1 PUSH1 0x40 MSTORE POP DUP2 ADD SWAP1 PUSH2 0x1683 SWAP2 SWAP1 PUSH2 0x304A JUMP JUMPDEST SWAP1 POP PUSH0 PUSH1 0x64 PUSH1 0x1E PUSH1 0x6 SLOAD DUP5 PUSH2 0x1698 SWAP2 SWAP1 PUSH2 0x34EE JUMP JUMPDEST PUSH2 0x16A2 SWAP2 SWAP1 PUSH2 0x341B JUMP JUMPDEST PUSH2 0x16AC SWAP2 SWAP1 PUSH2 0x3489 JUMP JUMPDEST SWAP1 POP PUSH1 0x7 PUSH0 SWAP1 SLOAD SWAP1 PUSH2 0x100 EXP SWAP1 DIV PUSH20 0xFFFFFFFFFFFFFFFFFFFFFFFFFFFFFFFFFFFFFFFF AND PUSH20 0xFFFFFFFFFFFFFFFFFFFFFFFFFFFFFFFFFFFFFFFF AND PUSH4 0xA9059CBB PUSH1 0xF PUSH0 SWAP1 SLOAD SWAP1 PUSH2 0x100 EXP SWAP1 DIV PUSH20 0xFFFFFFFFFFFFFFFFFFFFFFFFFFFFFFFFFFFFFFFF AND DUP4 PUSH1 0x40 MLOAD DUP4 PUSH4 0xFFFFFFFF AND PUSH1 0xE0 SHL DUP2 MSTORE PUSH1 0x4 ADD PUSH2 0x172B SWAP3 SWAP2 SWAP1 PUSH2 0x317B JUMP JUMPDEST PUSH1 0x20 PUSH1 0x40 MLOAD DUP1 DUP4 SUB DUP2 PUSH0 DUP8 GAS CALL ISZERO DUP1 ISZERO PUSH2 0x1747 JUMPI RETURNDATASIZE PUSH0 DUP1 RETURNDATACOPY RETURNDATASIZE PUSH0 REVERT JUMPDEST POP POP POP POP PUSH1 0x40 MLOAD RETURNDATASIZE PUSH1 0x1F NOT PUSH1 0x1F DUP3 ADD AND DUP3 ADD DUP1 PUSH1 0x40 MSTORE POP DUP2 ADD SWAP1 PUSH2 0x176B SWAP2 SWAP1 PUSH2 0x31B6 JUMP JUMPDEST POP POP POP POP POP JUMP JUMPDEST PUSH0 PUSH2 0x177B PUSH2 0x2392 JUMP JUMPDEST SWAP1 POP PUSH0 DUP2 PUSH0 ADD PUSH1 0x8 SWAP1 SLOAD SWAP1 PUSH2 0x100 EXP SWAP1 DIV PUSH1 0xFF AND ISZERO SWAP1 POP PUSH0 DUP3 PUSH0 ADD PUSH0 SWAP1 SLOAD SWAP1 PUSH2 0x100 EXP SWAP1 DIV PUSH8 0xFFFFFFFFFFFFFFFF AND SWAP1 POP PUSH0 DUP1 DUP3 PUSH8 0xFFFFFFFFFFFFFFFF AND EQ DUP1 ISZERO PUSH2 0x17C3 JUMPI POP DUP3 JUMPDEST SWAP1 POP PUSH0 PUSH1 0x1 DUP4 PUSH8 0xFFFFFFFFFFFFFFFF AND EQ DUP1 ISZERO PUSH2 0x17F6 JUMPI POP PUSH0 ADDRESS PUSH20 0xFFFFFFFFFFFFFFFFFFFFFFFFFFFFFFFFFFFFFFFF AND EXTCODESIZE EQ JUMPDEST SWAP1 POP DUP2 ISZERO DUP1 ISZERO PUSH2 0x1804 JUMPI POP DUP1 ISZERO JUMPDEST ISZERO PUSH2 0x183B JUMPI PUSH1 0x40 MLOAD PUSH32 0xF92EE8A900000000000000000000000000000000000000000000000000000000 DUP2 MSTORE PUSH1 0x4 ADD PUSH1 0x40 MLOAD DUP1 SWAP2 SUB SWAP1 REVERT JUMPDEST PUSH1 0x1 DUP6 PUSH0 ADD PUSH0 PUSH2 0x100 EXP DUP2 SLOAD DUP2 PUSH8 0xFFFFFFFFFFFFFFFF MUL NOT AND SWAP1 DUP4 PUSH8 0xFFFFFFFFFFFFFFFF AND MUL OR SWAP1 SSTORE POP DUP4 ISZERO PUSH2 0x1888 JUMPI PUSH1 0x1 DUP6 PUSH0 ADD PUSH1 0x8 PUSH2 0x100 EXP DUP2 SLOAD DUP2 PUSH1 0xFF MUL NOT AND SWAP1 DUP4 ISZERO ISZERO MUL OR SWAP1 SSTORE POP JUMPDEST CALLER PUSH0 DUP1 PUSH2 0x100 EXP DUP2 SLOAD DUP2 PUSH20 0xFFFFFFFFFFFFFFFFFFFFFFFFFFFFFFFFFFFFFFFF MUL NOT AND SWAP1 DUP4 PUSH20 0xFFFFFFFFFFFFFFFFFFFFFFFFFFFFFFFFFFFFFFFF AND MUL OR SWAP1 SSTORE POP DUP16 PUSH1 0x8 PUSH0 DUP3 ADD MLOAD DUP2 PUSH0 ADD SSTORE PUSH1 0x20 DUP3 ADD MLOAD DUP2 PUSH1 0x1 ADD PUSH0 PUSH2 0x100 EXP DUP2 SLOAD DUP2 PUSH20 0xFFFFFFFFFFFFFFFFFFFFFFFFFFFFFFFFFFFFFFFF MUL NOT AND SWAP1 DUP4 PUSH20 0xFFFFFFFFFFFFFFFFFFFFFFFFFFFFFFFFFFFFFFFF AND MUL OR SWAP1 SSTORE POP PUSH1 0x40 DUP3 ADD MLOAD DUP2 PUSH1 0x1 ADD PUSH1 0x14 PUSH2 0x100 EXP DUP2 SLOAD DUP2 PUSH1 0xFF MUL NOT AND SWAP1 DUP4 ISZERO ISZERO MUL OR SWAP1 SSTORE POP PUSH1 0x60 DUP3 ADD MLOAD DUP2 PUSH1 0x2 ADD SSTORE PUSH1 0x80 DUP3 ADD MLOAD DUP2 PUSH1 0x3 ADD PUSH0 PUSH2 0x100 EXP DUP2 SLOAD DUP2 PUSH20 0xFFFFFFFFFFFFFFFFFFFFFFFFFFFFFFFFFFFFFFFF MUL NOT AND SWAP1 DUP4 PUSH20 0xFFFFFFFFFFFFFFFFFFFFFFFFFFFFFFFFFFFFFFFF AND MUL OR SWAP1 SSTORE POP PUSH1 0xA0 DUP3 ADD MLOAD DUP2 PUSH1 0x3 ADD PUSH1 0x14 PUSH2 0x100 EXP DUP2 SLOAD DUP2 PUSH1 0xFF MUL NOT AND SWAP1 DUP4 ISZERO ISZERO MUL OR SWAP1 SSTORE POP SWAP1 POP POP DUP15 PUSH1 0x7 PUSH0 PUSH2 0x100 EXP DUP2 SLOAD DUP2 PUSH20 0xFFFFFFFFFFFFFFFFFFFFFFFFFFFFFFFFFFFFFFFF MUL NOT AND SWAP1 DUP4 PUSH20 0xFFFFFFFFFFFFFFFFFFFFFFFFFFFFFFFFFFFFFFFF AND MUL OR SWAP1 SSTORE POP CALLER PUSH0 DUP1 PUSH2 0x100 EXP DUP2 SLOAD DUP2 PUSH20 0xFFFFFFFFFFFFFFFFFFFFFFFFFFFFFFFFFFFFFFFF MUL NOT AND SWAP1 DUP4 PUSH20 0xFFFFFFFFFFFFFFFFFFFFFFFFFFFFFFFFFFFFFFFF AND MUL OR SWAP1 SSTORE POP DUP14 PUSH1 0x1 PUSH0 PUSH2 0x100 EXP DUP2 SLOAD DUP2 PUSH20 0xFFFFFFFFFFFFFFFFFFFFFFFFFFFFFFFFFFFFFFFF MUL NOT AND SWAP1 DUP4 PUSH20 0xFFFFFFFFFFFFFFFFFFFFFFFFFFFFFFFFFFFFFFFF AND MUL OR SWAP1 SSTORE POP DUP12 PUSH1 0x5 DUP2 SWAP1 SSTORE POP DUP11 PUSH1 0x4 DUP2 SWAP1 SSTORE POP DUP13 PUSH1 0x2 PUSH0 PUSH2 0x100 EXP DUP2 SLOAD DUP2 PUSH20 0xFFFFFFFFFFFFFFFFFFFFFFFFFFFFFFFFFFFFFFFF MUL NOT AND SWAP1 DUP4 PUSH20 0xFFFFFFFFFFFFFFFFFFFFFFFFFFFFFFFFFFFFFFFF AND MUL OR SWAP1 SSTORE POP DUP10 PUSH1 0xC PUSH0 PUSH2 0x100 EXP DUP2 SLOAD DUP2 PUSH20 0xFFFFFFFFFFFFFFFFFFFFFFFFFFFFFFFFFFFFFFFF MUL NOT AND SWAP1 DUP4 PUSH20 0xFFFFFFFFFFFFFFFFFFFFFFFFFFFFFFFFFFFFFFFF AND MUL OR SWAP1 SSTORE POP DUP9 PUSH1 0xD PUSH0 PUSH2 0x100 EXP DUP2 SLOAD DUP2 PUSH20 0xFFFFFFFFFFFFFFFFFFFFFFFFFFFFFFFFFFFFFFFF MUL NOT AND SWAP1 DUP4 PUSH20 0xFFFFFFFFFFFFFFFFFFFFFFFFFFFFFFFFFFFFFFFF AND MUL OR SWAP1 SSTORE POP DUP8 PUSH1 0x3 PUSH0 PUSH2 0x100 EXP DUP2 SLOAD DUP2 PUSH20 0xFFFFFFFFFFFFFFFFFFFFFFFFFFFFFFFFFFFFFFFF MUL NOT AND SWAP1 DUP4 PUSH20 0xFFFFFFFFFFFFFFFFFFFFFFFFFFFFFFFFFFFFFFFF AND MUL OR SWAP1 SSTORE POP DUP7 PUSH1 0xF PUSH0 PUSH2 0x100 EXP DUP2 SLOAD DUP2 PUSH20 0xFFFFFFFFFFFFFFFFFFFFFFFFFFFFFFFFFFFFFFFF MUL NOT AND SWAP1 DUP4 PUSH20 0xFFFFFFFFFFFFFFFFFFFFFFFFFFFFFFFFFFFFFFFF AND MUL OR SWAP1 SSTORE POP DUP6 PUSH1 0x10 PUSH0 PUSH2 0x100 EXP DUP2 SLOAD DUP2 PUSH20 0xFFFFFFFFFFFFFFFFFFFFFFFFFFFFFFFFFFFFFFFF MUL NOT AND SWAP1 DUP4 PUSH20 0xFFFFFFFFFFFFFFFFFFFFFFFFFFFFFFFFFFFFFFFF AND MUL OR SWAP1 SSTORE POP DUP4 ISZERO PUSH2 0x1C52 JUMPI PUSH0 DUP6 PUSH0 ADD PUSH1 0x8 PUSH2 0x100 EXP DUP2 SLOAD DUP2 PUSH1 0xFF MUL NOT AND SWAP1 DUP4 ISZERO ISZERO MUL OR SWAP1 SSTORE POP PUSH32 0xC7F505B2F371AE2175EE4913F4499E1F2633A7B5936321EED1CDAEB6115181D2 PUSH1 0x1 PUSH1 0x40 MLOAD PUSH2 0x1C49 SWAP2 SWAP1 PUSH2 0x356D JUMP JUMPDEST PUSH1 0x40 MLOAD DUP1 SWAP2 SUB SWAP1 LOG1 JUMPDEST POP POP POP POP POP POP POP POP POP POP POP POP POP POP POP POP JUMP JUMPDEST PUSH0 DUP1 SLOAD SWAP1 PUSH2 0x100 EXP SWAP1 DIV PUSH20 0xFFFFFFFFFFFFFFFFFFFFFFFFFFFFFFFFFFFFFFFF AND PUSH20 0xFFFFFFFFFFFFFFFFFFFFFFFFFFFFFFFFFFFFFFFF AND CALLER PUSH20 0xFFFFFFFFFFFFFFFFFFFFFFFFFFFFFFFFFFFFFFFF AND EQ PUSH2 0x1CF1 JUMPI PUSH1 0x40 MLOAD PUSH32 0x8C379A000000000000000000000000000000000000000000000000000000000 DUP2 MSTORE PUSH1 0x4 ADD PUSH2 0x1CE8 SWAP1 PUSH2 0x3018 JUMP JUMPDEST PUSH1 0x40 MLOAD DUP1 SWAP2 SUB SWAP1 REVERT JUMPDEST DUP1 PUSH1 0xE PUSH0 PUSH2 0x100 EXP DUP2 SLOAD DUP2 PUSH20 0xFFFFFFFFFFFFFFFFFFFFFFFFFFFFFFFFFFFFFFFF MUL NOT AND SWAP1 DUP4 PUSH20 0xFFFFFFFFFFFFFFFFFFFFFFFFFFFFFFFFFFFFFFFF AND MUL OR SWAP1 SSTORE POP POP JUMP JUMPDEST PUSH0 DUP1 SLOAD SWAP1 PUSH2 0x100 EXP SWAP1 DIV PUSH20 0xFFFFFFFFFFFFFFFFFFFFFFFFFFFFFFFFFFFFFFFF AND DUP2 JUMP JUMPDEST PUSH1 0x6 SLOAD DUP2 JUMP JUMPDEST PUSH1 0x2 PUSH0 SWAP1 SLOAD SWAP1 PUSH2 0x100 EXP SWAP1 DIV PUSH20 0xFFFFFFFFFFFFFFFFFFFFFFFFFFFFFFFFFFFFFFFF AND DUP2 JUMP JUMPDEST PUSH1 0x7 PUSH0 SWAP1 SLOAD SWAP1 PUSH2 0x100 EXP SWAP1 DIV PUSH20 0xFFFFFFFFFFFFFFFFFFFFFFFFFFFFFFFFFFFFFFFF AND DUP2 JUMP JUMPDEST PUSH0 DUP1 ISZERO ISZERO DUP3 ISZERO ISZERO SUB PUSH2 0x1E5D JUMPI PUSH0 DUP1 PUSH0 DUP1 PUSH0 PUSH1 0xC PUSH0 SWAP1 SLOAD SWAP1 PUSH2 0x100 EXP SWAP1 DIV PUSH20 0xFFFFFFFFFFFFFFFFFFFFFFFFFFFFFFFFFFFFFFFF AND PUSH20 0xFFFFFFFFFFFFFFFFFFFFFFFFFFFFFFFFFFFFFFFF AND PUSH4 0xFEAF968C PUSH1 0x40 MLOAD DUP2 PUSH4 0xFFFFFFFF AND PUSH1 0xE0 SHL DUP2 MSTORE PUSH1 0x4 ADD PUSH1 0xA0 PUSH1 0x40 MLOAD DUP1 DUP4 SUB DUP2 DUP7 GAS STATICCALL ISZERO DUP1 ISZERO PUSH2 0x1E22 JUMPI RETURNDATASIZE PUSH0 DUP1 RETURNDATACOPY RETURNDATASIZE PUSH0 REVERT JUMPDEST POP POP POP POP PUSH1 0x40 MLOAD RETURNDATASIZE PUSH1 0x1F NOT PUSH1 0x1F DUP3 ADD AND DUP3 ADD DUP1 PUSH1 0x40 MSTORE POP DUP2 ADD SWAP1 PUSH2 0x1E46 SWAP2 SWAP1 PUSH2 0x35F8 JUMP JUMPDEST SWAP5 POP SWAP5 POP SWAP5 POP SWAP5 POP SWAP5 POP DUP4 SWAP6 POP POP POP POP POP POP PUSH2 0x1F03 JUMP JUMPDEST PUSH0 DUP1 PUSH0 DUP1 PUSH0 PUSH1 0xD PUSH0 SWAP1 SLOAD SWAP1 PUSH2 0x100 EXP SWAP1 DIV PUSH20 0xFFFFFFFFFFFFFFFFFFFFFFFFFFFFFFFFFFFFFFFF AND PUSH20 0xFFFFFFFFFFFFFFFFFFFFFFFFFFFFFFFFFFFFFFFF AND PUSH4 0xFEAF968C PUSH1 0x40 MLOAD DUP2 PUSH4 0xFFFFFFFF AND PUSH1 0xE0 SHL DUP2 MSTORE PUSH1 0x4 ADD PUSH1 0xA0 PUSH1 0x40 MLOAD DUP1 DUP4 SUB DUP2 DUP7 GAS STATICCALL ISZERO DUP1 ISZERO PUSH2 0x1ECC JUMPI RETURNDATASIZE PUSH0 DUP1 RETURNDATACOPY RETURNDATASIZE PUSH0 REVERT JUMPDEST POP POP POP POP PUSH1 0x40 MLOAD RETURNDATASIZE PUSH1 0x1F NOT PUSH1 0x1F DUP3 ADD AND DUP3 ADD DUP1 PUSH1 0x40 MSTORE POP DUP2 ADD SWAP1 PUSH2 0x1EF0 SWAP2 SWAP1 PUSH2 0x35F8 JUMP JUMPDEST SWAP5 POP SWAP5 POP SWAP5 POP SWAP5 POP SWAP5 POP DUP4 SWAP6 POP POP POP POP POP POP JUMPDEST SWAP3 SWAP2 POP POP JUMP JUMPDEST PUSH0 DUP1 PUSH0 DUP1 PUSH0 DUP1 PUSH0 PUSH1 0x1 PUSH0 SWAP1 SLOAD SWAP1 PUSH2 0x100 EXP SWAP1 DIV PUSH20 0xFFFFFFFFFFFFFFFFFFFFFFFFFFFFFFFFFFFFFFFF AND PUSH20 0xFFFFFFFFFFFFFFFFFFFFFFFFFFFFFFFFFFFFFFFF AND PUSH4 0x26B1D5F PUSH1 0x40 MLOAD DUP2 PUSH4 0xFFFFFFFF AND PUSH1 0xE0 SHL DUP2 MSTORE PUSH1 0x4 ADD PUSH1 0x20 PUSH1 0x40 MLOAD DUP1 DUP4 SUB DUP2 DUP7 GAS STATICCALL ISZERO DUP1 ISZERO PUSH2 0x1F7A JUMPI RETURNDATASIZE PUSH0 DUP1 RETURNDATACOPY RETURNDATASIZE PUSH0 REVERT JUMPDEST POP POP POP POP PUSH1 0x40 MLOAD RETURNDATASIZE PUSH1 0x1F NOT PUSH1 0x1F DUP3 ADD AND DUP3 ADD DUP1 PUSH1 0x40 MSTORE POP DUP2 ADD SWAP1 PUSH2 0x1F9E SWAP2 SWAP1 PUSH2 0x3089 JUMP JUMPDEST SWAP1 POP DUP1 PUSH20 0xFFFFFFFFFFFFFFFFFFFFFFFFFFFFFFFFFFFFFFFF AND PUSH4 0xBF92857C DUP10 PUSH1 0x40 MLOAD DUP3 PUSH4 0xFFFFFFFF AND PUSH1 0xE0 SHL DUP2 MSTORE PUSH1 0x4 ADD PUSH2 0x1FD9 SWAP2 SWAP1 PUSH2 0x284D JUMP JUMPDEST PUSH1 0xC0 PUSH1 0x40 MLOAD DUP1 DUP4 SUB DUP2 DUP7 GAS STATICCALL ISZERO DUP1 ISZERO PUSH2 0x1FF4 JUMPI RETURNDATASIZE PUSH0 DUP1 RETURNDATACOPY RETURNDATASIZE PUSH0 REVERT JUMPDEST POP POP POP POP PUSH1 0x40 MLOAD RETURNDATASIZE PUSH1 0x1F NOT PUSH1 0x1F DUP3 ADD AND DUP3 ADD DUP1 PUSH1 0x40 MSTORE POP DUP2 ADD SWAP1 PUSH2 0x2018 SWAP2 SWAP1 PUSH2 0x366F JUMP JUMPDEST SWAP7 POP SWAP7 POP SWAP7 POP SWAP7 POP SWAP7 POP SWAP7 POP POP SWAP2 SWAP4 SWAP6 POP SWAP2 SWAP4 SWAP6 JUMP JUMPDEST PUSH1 0x3 PUSH0 SWAP1 SLOAD SWAP1 PUSH2 0x100 EXP SWAP1 DIV PUSH20 0xFFFFFFFFFFFFFFFFFFFFFFFFFFFFFFFFFFFFFFFF AND DUP2 JUMP JUMPDEST PUSH1 0x1 PUSH0 SWAP1 SLOAD SWAP1 PUSH2 0x100 EXP SWAP1 DIV PUSH20 0xFFFFFFFFFFFFFFFFFFFFFFFFFFFFFFFFFFFFFFFF AND DUP2 JUMP JUMPDEST PUSH0 DUP1 SLOAD SWAP1 PUSH2 0x100 EXP SWAP1 DIV PUSH20 0xFFFFFFFFFFFFFFFFFFFFFFFFFFFFFFFFFFFFFFFF AND PUSH20 0xFFFFFFFFFFFFFFFFFFFFFFFFFFFFFFFFFFFFFFFF AND CALLER PUSH20 0xFFFFFFFFFFFFFFFFFFFFFFFFFFFFFFFFFFFFFFFF AND EQ PUSH2 0x2105 JUMPI PUSH1 0x40 MLOAD PUSH32 0x8C379A000000000000000000000000000000000000000000000000000000000 DUP2 MSTORE PUSH1 0x4 ADD PUSH2 0x20FC SWAP1 PUSH2 0x3018 JUMP JUMPDEST PUSH1 0x40 MLOAD DUP1 SWAP2 SUB SWAP1 REVERT JUMPDEST PUSH1 0x64 PUSH2 0x2111 DUP4 PUSH0 PUSH2 0xE32 JUMP JUMPDEST LT PUSH2 0x2151 JUMPI PUSH1 0x40 MLOAD PUSH32 0x8C379A000000000000000000000000000000000000000000000000000000000 DUP2 MSTORE PUSH1 0x4 ADD PUSH2 0x2148 SWAP1 PUSH2 0x3742 JUMP JUMPDEST PUSH1 0x40 MLOAD DUP1 SWAP2 SUB SWAP1 REVERT JUMPDEST PUSH1 0x2 PUSH1 0x14 SWAP1 SLOAD SWAP1 PUSH2 0x100 EXP SWAP1 DIV PUSH1 0xFF AND ISZERO PUSH2 0x216F JUMPI PUSH2 0x216E PUSH2 0x12FA JUMP JUMPDEST JUMPDEST PUSH0 PUSH1 0x7 PUSH0 SWAP1 SLOAD SWAP1 PUSH2 0x100 EXP SWAP1 DIV PUSH20 0xFFFFFFFFFFFFFFFFFFFFFFFFFFFFFFFFFFFFFFFF AND SWAP1 POP PUSH2 0x2281 PUSH2 0x3E8 DUP4 PUSH2 0x3E8 PUSH2 0x21A8 SWAP2 SWAP1 PUSH2 0x320E JUMP JUMPDEST DUP6 PUSH2 0x21B3 SWAP2 SWAP1 PUSH2 0x341B JUMP JUMPDEST PUSH2 0x21BD SWAP2 SWAP1 PUSH2 0x3489 JUMP JUMPDEST PUSH1 0x7 PUSH0 SWAP1 SLOAD SWAP1 PUSH2 0x100 EXP SWAP1 DIV PUSH20 0xFFFFFFFFFFFFFFFFFFFFFFFFFFFFFFFFFFFFFFFF AND PUSH20 0xFFFFFFFFFFFFFFFFFFFFFFFFFFFFFFFFFFFFFFFF AND PUSH4 0x70A08231 ADDRESS PUSH1 0x40 MLOAD DUP3 PUSH4 0xFFFFFFFF AND PUSH1 0xE0 SHL DUP2 MSTORE PUSH1 0x4 ADD PUSH2 0x2217 SWAP2 SWAP1 PUSH2 0x284D JUMP JUMPDEST PUSH1 0x20 PUSH1 0x40 MLOAD DUP1 DUP4 SUB DUP2 DUP7 GAS STATICCALL ISZERO DUP1 ISZERO PUSH2 0x2232 JUMPI RETURNDATASIZE PUSH0 DUP1 RETURNDATACOPY RETURNDATASIZE PUSH0 REVERT JUMPDEST POP POP POP POP PUSH1 0x40 MLOAD RETURNDATASIZE PUSH1 0x1F NOT PUSH1 0x1F DUP3 ADD AND DUP3 ADD DUP1 PUSH1 0x40 MSTORE POP DUP2 ADD SWAP1 PUSH2 0x2256 SWAP2 SWAP1 PUSH2 0x304A JUMP JUMPDEST PUSH1 0x8 PUSH1 0x3 ADD PUSH0 SWAP1 SLOAD SWAP1 PUSH2 0x100 EXP SWAP1 DIV PUSH20 0xFFFFFFFFFFFFFFFFFFFFFFFFFFFFFFFFFFFFFFFF AND DUP5 PUSH2 0x23B9 JUMP JUMPDEST POP PUSH1 0x8 PUSH1 0x3 ADD PUSH0 SWAP1 SLOAD SWAP1 PUSH2 0x100 EXP SWAP1 DIV PUSH20 0xFFFFFFFFFFFFFFFFFFFFFFFFFFFFFFFFFFFFFFFF AND PUSH20 0xFFFFFFFFFFFFFFFFFFFFFFFFFFFFFFFFFFFFFFFF AND PUSH4 0x95EA7B3 PUSH1 0xE PUSH0 SWAP1 SLOAD SWAP1 PUSH2 0x100 EXP SWAP1 DIV PUSH20 0xFFFFFFFFFFFFFFFFFFFFFFFFFFFFFFFFFFFFFFFF AND PUSH2 0x3E8 DUP6 PUSH2 0x3E8 PUSH2 0x22F5 SWAP2 SWAP1 PUSH2 0x320E JUMP JUMPDEST DUP8 PUSH2 0x2300 SWAP2 SWAP1 PUSH2 0x341B JUMP JUMPDEST PUSH2 0x230A SWAP2 SWAP1 PUSH2 0x3489 JUMP JUMPDEST PUSH1 0x40 MLOAD DUP4 PUSH4 0xFFFFFFFF AND PUSH1 0xE0 SHL DUP2 MSTORE PUSH1 0x4 ADD PUSH2 0x2327 SWAP3 SWAP2 SWAP1 PUSH2 0x317B JUMP JUMPDEST PUSH1 0x20 PUSH1 0x40 MLOAD DUP1 DUP4 SUB DUP2 PUSH0 DUP8 GAS CALL ISZERO DUP1 ISZERO PUSH2 0x2343 JUMPI RETURNDATASIZE PUSH0 DUP1 RETURNDATACOPY RETURNDATASIZE PUSH0 REVERT JUMPDEST POP POP POP POP PUSH1 0x40 MLOAD RETURNDATASIZE PUSH1 0x1F NOT PUSH1 0x1F DUP3 ADD AND DUP3 ADD DUP1 PUSH1 0x40 MSTORE POP DUP2 ADD SWAP1 PUSH2 0x2367 SWAP2 SWAP1 PUSH2 0x31B6 JUMP JUMPDEST POP POP POP POP JUMP JUMPDEST PUSH1 0x10 PUSH0 SWAP1 SLOAD SWAP1 PUSH2 0x100 EXP SWAP1 DIV PUSH20 0xFFFFFFFFFFFFFFFFFFFFFFFFFFFFFFFFFFFFFFFF AND DUP2 JUMP JUMPDEST PUSH0 PUSH32 0xF0C57E16840DF040F15088DC2F81FE391C3923BEC73E23A9662EFC9C229C6A00 SWAP1 POP SWAP1 JUMP JUMPDEST PUSH0 PUSH2 0x23E6 DUP3 PUSH1 0x3 PUSH0 SWAP1 SLOAD SWAP1 PUSH2 0x100 EXP SWAP1 DIV PUSH20 0xFFFFFFFFFFFFFFFFFFFFFFFFFFFFFFFFFFFFFFFF AND DUP7 PUSH2 0x255C JUMP JUMPDEST PUSH0 PUSH1 0x40 MLOAD DUP1 PUSH2 0x100 ADD PUSH1 0x40 MSTORE DUP1 DUP5 PUSH20 0xFFFFFFFFFFFFFFFFFFFFFFFFFFFFFFFFFFFFFFFF AND DUP2 MSTORE PUSH1 0x20 ADD DUP6 PUSH20 0xFFFFFFFFFFFFFFFFFFFFFFFFFFFFFFFFFFFFFFFF AND DUP2 MSTORE PUSH1 0x20 ADD PUSH2 0xBB8 PUSH3 0xFFFFFF AND DUP2 MSTORE PUSH1 0x20 ADD CALLER PUSH20 0xFFFFFFFFFFFFFFFFFFFFFFFFFFFFFFFFFFFFFFFF AND DUP2 MSTORE PUSH1 0x20 ADD TIMESTAMP DUP2 MSTORE PUSH1 0x20 ADD DUP8 DUP2 MSTORE PUSH1 0x20 ADD DUP7 DUP2 MSTORE PUSH1 0x20 ADD PUSH0 PUSH20 0xFFFFFFFFFFFFFFFFFFFFFFFFFFFFFFFFFFFFFFFF AND DUP2 MSTORE POP SWAP1 POP PUSH1 0x3 PUSH0 SWAP1 SLOAD SWAP1 PUSH2 0x100 EXP SWAP1 DIV PUSH20 0xFFFFFFFFFFFFFFFFFFFFFFFFFFFFFFFFFFFFFFFF AND PUSH20 0xFFFFFFFFFFFFFFFFFFFFFFFFFFFFFFFFFFFFFFFF AND PUSH4 0xDB3E2198 DUP3 PUSH1 0x40 MLOAD DUP3 PUSH4 0xFFFFFFFF AND PUSH1 0xE0 SHL DUP2 MSTORE PUSH1 0x4 ADD PUSH2 0x24DC SWAP2 SWAP1 PUSH2 0x381E JUMP JUMPDEST PUSH1 0x20 PUSH1 0x40 MLOAD DUP1 DUP4 SUB DUP2 PUSH0 DUP8 GAS CALL ISZERO DUP1 ISZERO PUSH2 0x24F8 JUMPI RETURNDATASIZE PUSH0 DUP1 RETURNDATACOPY RETURNDATASIZE PUSH0 REVERT JUMPDEST POP POP POP POP PUSH1 0x40 MLOAD RETURNDATASIZE PUSH1 0x1F NOT PUSH1 0x1F DUP3 ADD AND DUP3 ADD DUP1 PUSH1 0x40 MSTORE POP DUP2 ADD SWAP1 PUSH2 0x251C SWAP2 SWAP1 PUSH2 0x304A JUMP JUMPDEST SWAP2 POP DUP5 DUP3 LT ISZERO PUSH2 0x2553 JUMPI PUSH2 0x2552 DUP4 PUSH1 0x3 PUSH0 SWAP1 SLOAD SWAP1 PUSH2 0x100 EXP SWAP1 DIV PUSH20 0xFFFFFFFFFFFFFFFFFFFFFFFFFFFFFFFFFFFFFFFF AND PUSH0 PUSH2 0x255C JUMP JUMPDEST JUMPDEST POP SWAP5 SWAP4 POP POP POP POP JUMP JUMPDEST PUSH0 DUP1 DUP5 PUSH20 0xFFFFFFFFFFFFFFFFFFFFFFFFFFFFFFFFFFFFFFFF AND PUSH4 0x95EA7B3 PUSH1 0xE0 SHL DUP6 DUP6 PUSH1 0x40 MLOAD PUSH1 0x24 ADD PUSH2 0x2590 SWAP3 SWAP2 SWAP1 PUSH2 0x317B JUMP JUMPDEST PUSH1 0x40 MLOAD PUSH1 0x20 DUP2 DUP4 SUB SUB DUP2 MSTORE SWAP1 PUSH1 0x40 MSTORE SWAP1 PUSH28 0xFFFFFFFFFFFFFFFFFFFFFFFFFFFFFFFFFFFFFFFFFFFFFFFFFFFFFFFF NOT AND PUSH1 0x20 DUP3 ADD DUP1 MLOAD PUSH28 0xFFFFFFFFFFFFFFFFFFFFFFFFFFFFFFFFFFFFFFFFFFFFFFFFFFFFFFFF DUP4 DUP2 DUP4 AND OR DUP4 MSTORE POP POP POP POP PUSH1 0x40 MLOAD PUSH2 0x25FA SWAP2 SWAP1 PUSH2 0x388A JUMP JUMPDEST PUSH0 PUSH1 0x40 MLOAD DUP1 DUP4 SUB DUP2 PUSH0 DUP7 GAS CALL SWAP2 POP POP RETURNDATASIZE DUP1 PUSH0 DUP2 EQ PUSH2 0x2633 JUMPI PUSH1 0x40 MLOAD SWAP2 POP PUSH1 0x1F NOT PUSH1 0x3F RETURNDATASIZE ADD AND DUP3 ADD PUSH1 0x40 MSTORE RETURNDATASIZE DUP3 MSTORE RETURNDATASIZE PUSH0 PUSH1 0x20 DUP5 ADD RETURNDATACOPY PUSH2 0x2638 JUMP JUMPDEST PUSH1 0x60 SWAP2 POP JUMPDEST POP SWAP2 POP SWAP2 POP DUP2 DUP1 ISZERO PUSH2 0x2665 JUMPI POP PUSH0 DUP2 MLOAD EQ DUP1 PUSH2 0x2664 JUMPI POP DUP1 DUP1 PUSH1 0x20 ADD SWAP1 MLOAD DUP2 ADD SWAP1 PUSH2 0x2663 SWAP2 SWAP1 PUSH2 0x31B6 JUMP JUMPDEST JUMPDEST JUMPDEST PUSH2 0x26A4 JUMPI PUSH1 0x40 MLOAD PUSH32 0x8C379A000000000000000000000000000000000000000000000000000000000 DUP2 MSTORE PUSH1 0x4 ADD PUSH2 0x269B SWAP1 PUSH2 0x38EA JUMP JUMPDEST PUSH1 0x40 MLOAD DUP1 SWAP2 SUB SWAP1 REVERT JUMPDEST POP POP POP POP POP JUMP JUMPDEST PUSH1 0x40 MLOAD DUP1 PUSH1 0xC0 ADD PUSH1 0x40 MSTORE DUP1 PUSH0 DUP2 MSTORE PUSH1 0x20 ADD PUSH0 PUSH20 0xFFFFFFFFFFFFFFFFFFFFFFFFFFFFFFFFFFFFFFFF AND DUP2 MSTORE PUSH1 0x20 ADD PUSH0 ISZERO ISZERO DUP2 MSTORE PUSH1 0x20 ADD PUSH0 DUP2 MSTORE PUSH1 0x20 ADD PUSH0 PUSH20 0xFFFFFFFFFFFFFFFFFFFFFFFFFFFFFFFFFFFFFFFF AND DUP2 MSTORE PUSH1 0x20 ADD PUSH0 ISZERO ISZERO DUP2 MSTORE POP SWAP1 JUMP JUMPDEST PUSH0 PUSH1 0x40 MLOAD SWAP1 POP SWAP1 JUMP JUMPDEST PUSH0 DUP1 REVERT JUMPDEST PUSH0 PUSH20 0xFFFFFFFFFFFFFFFFFFFFFFFFFFFFFFFFFFFFFFFF DUP3 AND SWAP1 POP SWAP2 SWAP1 POP JUMP JUMPDEST PUSH0 PUSH2 0x2741 DUP3 PUSH2 0x2718 JUMP JUMPDEST SWAP1 POP SWAP2 SWAP1 POP JUMP JUMPDEST PUSH2 0x2751 DUP2 PUSH2 0x2737 JUMP JUMPDEST DUP2 EQ PUSH2 0x275B JUMPI PUSH0 DUP1 REVERT JUMPDEST POP JUMP JUMPDEST PUSH0 DUP2 CALLDATALOAD SWAP1 POP PUSH2 0x276C DUP2 PUSH2 0x2748 JUMP JUMPDEST SWAP3 SWAP2 POP POP JUMP JUMPDEST PUSH0 DUP2 ISZERO ISZERO SWAP1 POP SWAP2 SWAP1 POP JUMP JUMPDEST PUSH2 0x2786 DUP2 PUSH2 0x2772 JUMP JUMPDEST DUP2 EQ PUSH2 0x2790 JUMPI PUSH0 DUP1 REVERT JUMPDEST POP JUMP JUMPDEST PUSH0 DUP2 CALLDATALOAD SWAP1 POP PUSH2 0x27A1 DUP2 PUSH2 0x277D JUMP JUMPDEST SWAP3 SWAP2 POP POP JUMP JUMPDEST PUSH0 DUP1 PUSH1 0x40 DUP4 DUP6 SUB SLT ISZERO PUSH2 0x27BD JUMPI PUSH2 0x27BC PUSH2 0x2714 JUMP JUMPDEST JUMPDEST PUSH0 PUSH2 0x27CA DUP6 DUP3 DUP7 ADD PUSH2 0x275E JUMP JUMPDEST SWAP3 POP POP PUSH1 0x20 PUSH2 0x27DB DUP6 DUP3 DUP7 ADD PUSH2 0x2793 JUMP JUMPDEST SWAP2 POP POP SWAP3 POP SWAP3 SWAP1 POP JUMP JUMPDEST PUSH2 0x27EE DUP2 PUSH2 0x2772 JUMP JUMPDEST DUP3 MSTORE POP POP JUMP JUMPDEST PUSH0 PUSH1 0x20 DUP3 ADD SWAP1 POP PUSH2 0x2807 PUSH0 DUP4 ADD DUP5 PUSH2 0x27E5 JUMP JUMPDEST SWAP3 SWAP2 POP POP JUMP JUMPDEST PUSH0 DUP2 SWAP1 POP SWAP2 SWAP1 POP JUMP JUMPDEST PUSH2 0x281F DUP2 PUSH2 0x280D JUMP JUMPDEST DUP3 MSTORE POP POP JUMP JUMPDEST PUSH0 PUSH1 0x20 DUP3 ADD SWAP1 POP PUSH2 0x2838 PUSH0 DUP4 ADD DUP5 PUSH2 0x2816 JUMP JUMPDEST SWAP3 SWAP2 POP POP JUMP JUMPDEST PUSH2 0x2847 DUP2 PUSH2 0x2737 JUMP JUMPDEST DUP3 MSTORE POP POP JUMP JUMPDEST PUSH0 PUSH1 0x20 DUP3 ADD SWAP1 POP PUSH2 0x2860 PUSH0 DUP4 ADD DUP5 PUSH2 0x283E JUMP JUMPDEST SWAP3 SWAP2 POP POP JUMP JUMPDEST PUSH2 0x286F DUP2 PUSH2 0x280D JUMP JUMPDEST DUP2 EQ PUSH2 0x2879 JUMPI PUSH0 DUP1 REVERT JUMPDEST POP JUMP JUMPDEST PUSH0 DUP2 CALLDATALOAD SWAP1 POP PUSH2 0x288A DUP2 PUSH2 0x2866 JUMP JUMPDEST SWAP3 SWAP2 POP POP JUMP JUMPDEST PUSH0 DUP1 PUSH1 0x40 DUP4 DUP6 SUB SLT ISZERO PUSH2 0x28A6 JUMPI PUSH2 0x28A5 PUSH2 0x2714 JUMP JUMPDEST JUMPDEST PUSH0 PUSH2 0x28B3 DUP6 DUP3 DUP7 ADD PUSH2 0x287C JUMP JUMPDEST SWAP3 POP POP PUSH1 0x20 PUSH2 0x28C4 DUP6 DUP3 DUP7 ADD PUSH2 0x287C JUMP JUMPDEST SWAP2 POP POP SWAP3 POP SWAP3 SWAP1 POP JUMP JUMPDEST PUSH2 0x28D7 DUP2 PUSH2 0x280D JUMP JUMPDEST DUP3 MSTORE POP POP JUMP JUMPDEST PUSH2 0x28E6 DUP2 PUSH2 0x2737 JUMP JUMPDEST DUP3 MSTORE POP POP JUMP JUMPDEST PUSH2 0x28F5 DUP2 PUSH2 0x2772 JUMP JUMPDEST DUP3 MSTORE POP POP JUMP JUMPDEST PUSH0 DUP2 SWAP1 POP SWAP2 SWAP1 POP JUMP JUMPDEST PUSH0 PUSH2 0x291E PUSH2 0x2919 PUSH2 0x2914 DUP5 PUSH2 0x2718 JUMP JUMPDEST PUSH2 0x28FB JUMP JUMPDEST PUSH2 0x2718 JUMP JUMPDEST SWAP1 POP SWAP2 SWAP1 POP JUMP JUMPDEST PUSH0 PUSH2 0x292F DUP3 PUSH2 0x2904 JUMP JUMPDEST SWAP1 POP SWAP2 SWAP1 POP JUMP JUMPDEST PUSH0 PUSH2 0x2940 DUP3 PUSH2 0x2925 JUMP JUMPDEST SWAP1 POP SWAP2 SWAP1 POP JUMP JUMPDEST PUSH2 0x2950 DUP2 PUSH2 0x2936 JUMP JUMPDEST DUP3 MSTORE POP POP JUMP JUMPDEST PUSH1 0xC0 DUP3 ADD PUSH0 DUP3 ADD MLOAD PUSH2 0x296A PUSH0 DUP6 ADD DUP3 PUSH2 0x28CE JUMP JUMPDEST POP PUSH1 0x20 DUP3 ADD MLOAD PUSH2 0x297D PUSH1 0x20 DUP6 ADD DUP3 PUSH2 0x28DD JUMP JUMPDEST POP PUSH1 0x40 DUP3 ADD MLOAD PUSH2 0x2990 PUSH1 0x40 DUP6 ADD DUP3 PUSH2 0x28EC JUMP JUMPDEST POP PUSH1 0x60 DUP3 ADD MLOAD PUSH2 0x29A3 PUSH1 0x60 DUP6 ADD DUP3 PUSH2 0x28CE JUMP JUMPDEST POP PUSH1 0x80 DUP3 ADD MLOAD PUSH2 0x29B6 PUSH1 0x80 DUP6 ADD DUP3 PUSH2 0x2947 JUMP JUMPDEST POP PUSH1 0xA0 DUP3 ADD MLOAD PUSH2 0x29C9 PUSH1 0xA0 DUP6 ADD DUP3 PUSH2 0x28EC JUMP JUMPDEST POP POP POP POP JUMP JUMPDEST PUSH0 PUSH1 0xC0 DUP3 ADD SWAP1 POP PUSH2 0x29E2 PUSH0 DUP4 ADD DUP5 PUSH2 0x2956 JUMP JUMPDEST SWAP3 SWAP2 POP POP JUMP JUMPDEST PUSH0 PUSH1 0x20 DUP3 DUP5 SUB SLT ISZERO PUSH2 0x29FD JUMPI PUSH2 0x29FC PUSH2 0x2714 JUMP JUMPDEST JUMPDEST PUSH0 PUSH2 0x2A0A DUP5 DUP3 DUP6 ADD PUSH2 0x287C JUMP JUMPDEST SWAP2 POP POP SWAP3 SWAP2 POP POP JUMP JUMPDEST PUSH0 PUSH2 0x2A1D DUP3 PUSH2 0x2925 JUMP JUMPDEST SWAP1 POP SWAP2 SWAP1 POP JUMP JUMPDEST PUSH2 0x2A2D DUP2 PUSH2 0x2A13 JUMP JUMPDEST DUP3 MSTORE POP POP JUMP JUMPDEST PUSH0 PUSH1 0x20 DUP3 ADD SWAP1 POP PUSH2 0x2A46 PUSH0 DUP4 ADD DUP5 PUSH2 0x2A24 JUMP JUMPDEST SWAP3 SWAP2 POP POP JUMP JUMPDEST PUSH0 PUSH3 0xFFFFFF DUP3 AND SWAP1 POP SWAP2 SWAP1 POP JUMP JUMPDEST PUSH2 0x2A63 DUP2 PUSH2 0x2A4C JUMP JUMPDEST DUP3 MSTORE POP POP JUMP JUMPDEST PUSH0 PUSH1 0x20 DUP3 ADD SWAP1 POP PUSH2 0x2A7C PUSH0 DUP4 ADD DUP5 PUSH2 0x2A5A JUMP JUMPDEST SWAP3 SWAP2 POP POP JUMP JUMPDEST PUSH2 0x2A8B DUP2 PUSH2 0x2936 JUMP JUMPDEST DUP3 MSTORE POP POP JUMP JUMPDEST PUSH0 PUSH1 0xC0 DUP3 ADD SWAP1 POP PUSH2 0x2AA4 PUSH0 DUP4 ADD DUP10 PUSH2 0x2816 JUMP JUMPDEST PUSH2 0x2AB1 PUSH1 0x20 DUP4 ADD DUP9 PUSH2 0x283E JUMP JUMPDEST PUSH2 0x2ABE PUSH1 0x40 DUP4 ADD DUP8 PUSH2 0x27E5 JUMP JUMPDEST PUSH2 0x2ACB PUSH1 0x60 DUP4 ADD DUP7 PUSH2 0x2816 JUMP JUMPDEST PUSH2 0x2AD8 PUSH1 0x80 DUP4 ADD DUP6 PUSH2 0x2A82 JUMP JUMPDEST PUSH2 0x2AE5 PUSH1 0xA0 DUP4 ADD DUP5 PUSH2 0x27E5 JUMP JUMPDEST SWAP8 SWAP7 POP POP POP POP POP POP POP JUMP JUMPDEST PUSH0 DUP1 REVERT JUMPDEST PUSH0 PUSH1 0x1F NOT PUSH1 0x1F DUP4 ADD AND SWAP1 POP SWAP2 SWAP1 POP JUMP JUMPDEST PUSH32 0x4E487B7100000000000000000000000000000000000000000000000000000000 PUSH0 MSTORE PUSH1 0x41 PUSH1 0x4 MSTORE PUSH1 0x24 PUSH0 REVERT JUMPDEST PUSH2 0x2B3A DUP3 PUSH2 0x2AF4 JUMP JUMPDEST DUP2 ADD DUP2 DUP2 LT PUSH8 0xFFFFFFFFFFFFFFFF DUP3 GT OR ISZERO PUSH2 0x2B59 JUMPI PUSH2 0x2B58 PUSH2 0x2B04 JUMP JUMPDEST JUMPDEST DUP1 PUSH1 0x40 MSTORE POP POP POP JUMP JUMPDEST PUSH0 PUSH2 0x2B6B PUSH2 0x270B JUMP JUMPDEST SWAP1 POP PUSH2 0x2B77 DUP3 DUP3 PUSH2 0x2B31 JUMP JUMPDEST SWAP2 SWAP1 POP JUMP JUMPDEST PUSH0 PUSH2 0x2B86 DUP3 PUSH2 0x2737 JUMP JUMPDEST SWAP1 POP SWAP2 SWAP1 POP JUMP JUMPDEST PUSH2 0x2B96 DUP2 PUSH2 0x2B7C JUMP JUMPDEST DUP2 EQ PUSH2 0x2BA0 JUMPI PUSH0 DUP1 REVERT JUMPDEST POP JUMP JUMPDEST PUSH0 DUP2 CALLDATALOAD SWAP1 POP PUSH2 0x2BB1 DUP2 PUSH2 0x2B8D JUMP JUMPDEST SWAP3 SWAP2 POP POP JUMP JUMPDEST PUSH0 PUSH1 0xC0 DUP3 DUP5 SUB SLT ISZERO PUSH2 0x2BCC JUMPI PUSH2 0x2BCB PUSH2 0x2AF0 JUMP JUMPDEST JUMPDEST PUSH2 0x2BD6 PUSH1 0xC0 PUSH2 0x2B62 JUMP JUMPDEST SWAP1 POP PUSH0 PUSH2 0x2BE5 DUP5 DUP3 DUP6 ADD PUSH2 0x287C JUMP JUMPDEST PUSH0 DUP4 ADD MSTORE POP PUSH1 0x20 PUSH2 0x2BF8 DUP5 DUP3 DUP6 ADD PUSH2 0x275E JUMP JUMPDEST PUSH1 0x20 DUP4 ADD MSTORE POP PUSH1 0x40 PUSH2 0x2C0C DUP5 DUP3 DUP6 ADD PUSH2 0x2793 JUMP JUMPDEST PUSH1 0x40 DUP4 ADD MSTORE POP PUSH1 0x60 PUSH2 0x2C20 DUP5 DUP3 DUP6 ADD PUSH2 0x287C JUMP JUMPDEST PUSH1 0x60 DUP4 ADD MSTORE POP PUSH1 0x80 PUSH2 0x2C34 DUP5 DUP3 DUP6 ADD PUSH2 0x2BA3 JUMP JUMPDEST PUSH1 0x80 DUP4 ADD MSTORE POP PUSH1 0xA0 PUSH2 0x2C48 DUP5 DUP3 DUP6 ADD PUSH2 0x2793 JUMP JUMPDEST PUSH1 0xA0 DUP4 ADD MSTORE POP SWAP3 SWAP2 POP POP JUMP JUMPDEST PUSH0 PUSH2 0x2C5E DUP3 PUSH2 0x2737 JUMP JUMPDEST SWAP1 POP SWAP2 SWAP1 POP JUMP JUMPDEST PUSH2 0x2C6E DUP2 PUSH2 0x2C54 JUMP JUMPDEST DUP2 EQ PUSH2 0x2C78 JUMPI PUSH0 DUP1 REVERT JUMPDEST POP JUMP JUMPDEST PUSH0 DUP2 CALLDATALOAD SWAP1 POP PUSH2 0x2C89 DUP2 PUSH2 0x2C65 JUMP JUMPDEST SWAP3 SWAP2 POP POP JUMP JUMPDEST PUSH0 PUSH2 0x2C99 DUP3 PUSH2 0x2737 JUMP JUMPDEST SWAP1 POP SWAP2 SWAP1 POP JUMP JUMPDEST PUSH2 0x2CA9 DUP2 PUSH2 0x2C8F JUMP JUMPDEST DUP2 EQ PUSH2 0x2CB3 JUMPI PUSH0 DUP1 REVERT JUMPDEST POP JUMP JUMPDEST PUSH0 DUP2 CALLDATALOAD SWAP1 POP PUSH2 0x2CC4 DUP2 PUSH2 0x2CA0 JUMP JUMPDEST SWAP3 SWAP2 POP POP JUMP JUMPDEST PUSH0 PUSH2 0x2CD4 DUP3 PUSH2 0x2737 JUMP JUMPDEST SWAP1 POP SWAP2 SWAP1 POP JUMP JUMPDEST PUSH2 0x2CE4 DUP2 PUSH2 0x2CCA JUMP JUMPDEST DUP2 EQ PUSH2 0x2CEE JUMPI PUSH0 DUP1 REVERT JUMPDEST POP JUMP JUMPDEST PUSH0 DUP2 CALLDATALOAD SWAP1 POP PUSH2 0x2CFF DUP2 PUSH2 0x2CDB JUMP JUMPDEST SWAP3 SWAP2 POP POP JUMP JUMPDEST PUSH0 PUSH2 0x2D0F DUP3 PUSH2 0x2737 JUMP JUMPDEST SWAP1 POP SWAP2 SWAP1 POP JUMP JUMPDEST PUSH2 0x2D1F DUP2 PUSH2 0x2D05 JUMP JUMPDEST DUP2 EQ PUSH2 0x2D29 JUMPI PUSH0 DUP1 REVERT JUMPDEST POP JUMP JUMPDEST PUSH0 DUP2 CALLDATALOAD SWAP1 POP PUSH2 0x2D3A DUP2 PUSH2 0x2D16 JUMP JUMPDEST SWAP3 SWAP2 POP POP JUMP JUMPDEST PUSH0 DUP1 PUSH0 DUP1 PUSH0 DUP1 PUSH0 DUP1 PUSH0 DUP1 PUSH0 PUSH2 0x200 DUP13 DUP15 SUB SLT ISZERO PUSH2 0x2D60 JUMPI PUSH2 0x2D5F PUSH2 0x2714 JUMP JUMPDEST JUMPDEST PUSH0 PUSH2 0x2D6D DUP15 DUP3 DUP16 ADD PUSH2 0x2BB7 JUMP JUMPDEST SWAP12 POP POP PUSH1 0xC0 PUSH2 0x2D7E DUP15 DUP3 DUP16 ADD PUSH2 0x2BA3 JUMP JUMPDEST SWAP11 POP POP PUSH1 0xE0 PUSH2 0x2D8F DUP15 DUP3 DUP16 ADD PUSH2 0x2C7B JUMP JUMPDEST SWAP10 POP POP PUSH2 0x100 PUSH2 0x2DA1 DUP15 DUP3 DUP16 ADD PUSH2 0x2BA3 JUMP JUMPDEST SWAP9 POP POP PUSH2 0x120 PUSH2 0x2DB3 DUP15 DUP3 DUP16 ADD PUSH2 0x287C JUMP JUMPDEST SWAP8 POP POP PUSH2 0x140 PUSH2 0x2DC5 DUP15 DUP3 DUP16 ADD PUSH2 0x287C JUMP JUMPDEST SWAP7 POP POP PUSH2 0x160 PUSH2 0x2DD7 DUP15 DUP3 DUP16 ADD PUSH2 0x2CB6 JUMP JUMPDEST SWAP6 POP POP PUSH2 0x180 PUSH2 0x2DE9 DUP15 DUP3 DUP16 ADD PUSH2 0x2CB6 JUMP JUMPDEST SWAP5 POP POP PUSH2 0x1A0 PUSH2 0x2DFB DUP15 DUP3 DUP16 ADD PUSH2 0x2CF1 JUMP JUMPDEST SWAP4 POP POP PUSH2 0x1C0 PUSH2 0x2E0D DUP15 DUP3 DUP16 ADD PUSH2 0x275E JUMP JUMPDEST SWAP3 POP POP PUSH2 0x1E0 PUSH2 0x2E1F DUP15 DUP3 DUP16 ADD PUSH2 0x2D2C JUMP JUMPDEST SWAP2 POP POP SWAP3 SWAP6 SWAP9 SWAP12 POP SWAP3 SWAP6 SWAP9 SWAP12 SWAP1 SWAP4 SWAP7 SWAP10 POP JUMP JUMPDEST PUSH0 PUSH1 0x20 DUP3 DUP5 SUB SLT ISZERO PUSH2 0x2E47 JUMPI PUSH2 0x2E46 PUSH2 0x2714 JUMP JUMPDEST JUMPDEST PUSH0 PUSH2 0x2E54 DUP5 DUP3 DUP6 ADD PUSH2 0x275E JUMP JUMPDEST SWAP2 POP POP SWAP3 SWAP2 POP POP JUMP JUMPDEST PUSH0 PUSH1 0x20 DUP3 ADD SWAP1 POP PUSH2 0x2E70 PUSH0 DUP4 ADD DUP5 PUSH2 0x2A82 JUMP JUMPDEST SWAP3 SWAP2 POP POP JUMP JUMPDEST PUSH0 DUP1 PUSH1 0x40 DUP4 DUP6 SUB SLT ISZERO PUSH2 0x2E8C JUMPI PUSH2 0x2E8B PUSH2 0x2714 JUMP JUMPDEST JUMPDEST PUSH0 PUSH2 0x2E99 DUP6 DUP3 DUP7 ADD PUSH2 0x2BA3 JUMP JUMPDEST SWAP3 POP POP PUSH1 0x20 PUSH2 0x2EAA DUP6 DUP3 DUP7 ADD PUSH2 0x2793 JUMP JUMPDEST SWAP2 POP POP SWAP3 POP SWAP3 SWAP1 POP JUMP JUMPDEST PUSH0 PUSH1 0xC0 DUP3 ADD SWAP1 POP PUSH2 0x2EC7 PUSH0 DUP4 ADD DUP10 PUSH2 0x2816 JUMP JUMPDEST PUSH2 0x2ED4 PUSH1 0x20 DUP4 ADD DUP9 PUSH2 0x2816 JUMP JUMPDEST PUSH2 0x2EE1 PUSH1 0x40 DUP4 ADD DUP8 PUSH2 0x2816 JUMP JUMPDEST PUSH2 0x2EEE PUSH1 0x60 DUP4 ADD DUP7 PUSH2 0x2816 JUMP JUMPDEST PUSH2 0x2EFB PUSH1 0x80 DUP4 ADD DUP6 PUSH2 0x2816 JUMP JUMPDEST PUSH2 0x2F08 PUSH1 0xA0 DUP4 ADD DUP5 PUSH2 0x2816 JUMP JUMPDEST SWAP8 SWAP7 POP POP POP POP POP POP POP JUMP JUMPDEST PUSH0 PUSH2 0x2F1D DUP3 PUSH2 0x2925 JUMP JUMPDEST SWAP1 POP SWAP2 SWAP1 POP JUMP JUMPDEST PUSH2 0x2F2D DUP2 PUSH2 0x2F13 JUMP JUMPDEST DUP3 MSTORE POP POP JUMP JUMPDEST PUSH0 PUSH1 0x20 DUP3 ADD SWAP1 POP PUSH2 0x2F46 PUSH0 DUP4 ADD DUP5 PUSH2 0x2F24 JUMP JUMPDEST SWAP3 SWAP2 POP POP JUMP JUMPDEST PUSH0 PUSH2 0x2F56 DUP3 PUSH2 0x2925 JUMP JUMPDEST SWAP1 POP SWAP2 SWAP1 POP JUMP JUMPDEST PUSH2 0x2F66 DUP2 PUSH2 0x2F4C JUMP JUMPDEST DUP3 MSTORE POP POP JUMP JUMPDEST PUSH0 PUSH1 0x20 DUP3 ADD SWAP1 POP PUSH2 0x2F7F PUSH0 DUP4 ADD DUP5 PUSH2 0x2F5D JUMP JUMPDEST SWAP3 SWAP2 POP POP JUMP JUMPDEST PUSH0 PUSH2 0x2F8F DUP3 PUSH2 0x2925 JUMP JUMPDEST SWAP1 POP SWAP2 SWAP1 POP JUMP JUMPDEST PUSH2 0x2F9F DUP2 PUSH2 0x2F85 JUMP JUMPDEST DUP3 MSTORE POP POP JUMP JUMPDEST PUSH0 PUSH1 0x20 DUP3 ADD SWAP1 POP PUSH2 0x2FB8 PUSH0 DUP4 ADD DUP5 PUSH2 0x2F96 JUMP JUMPDEST SWAP3 SWAP2 POP POP JUMP JUMPDEST PUSH0 DUP3 DUP3 MSTORE PUSH1 0x20 DUP3 ADD SWAP1 POP SWAP3 SWAP2 POP POP JUMP JUMPDEST PUSH32 0x6F6E6C7920746865206F776E6572000000000000000000000000000000000000 PUSH0 DUP3 ADD MSTORE POP JUMP JUMPDEST PUSH0 PUSH2 0x3002 PUSH1 0xE DUP4 PUSH2 0x2FBE JUMP JUMPDEST SWAP2 POP PUSH2 0x300D DUP3 PUSH2 0x2FCE JUMP JUMPDEST PUSH1 0x20 DUP3 ADD SWAP1 POP SWAP2 SWAP1 POP JUMP JUMPDEST PUSH0 PUSH1 0x20 DUP3 ADD SWAP1 POP DUP2 DUP2 SUB PUSH0 DUP4 ADD MSTORE PUSH2 0x302F DUP2 PUSH2 0x2FF6 JUMP JUMPDEST SWAP1 POP SWAP2 SWAP1 POP JUMP JUMPDEST PUSH0 DUP2 MLOAD SWAP1 POP PUSH2 0x3044 DUP2 PUSH2 0x2866 JUMP JUMPDEST SWAP3 SWAP2 POP POP JUMP JUMPDEST PUSH0 PUSH1 0x20 DUP3 DUP5 SUB SLT ISZERO PUSH2 0x305F JUMPI PUSH2 0x305E PUSH2 0x2714 JUMP JUMPDEST JUMPDEST PUSH0 PUSH2 0x306C DUP5 DUP3 DUP6 ADD PUSH2 0x3036 JUMP JUMPDEST SWAP2 POP POP SWAP3 SWAP2 POP POP JUMP JUMPDEST PUSH0 DUP2 MLOAD SWAP1 POP PUSH2 0x3083 DUP2 PUSH2 0x2748 JUMP JUMPDEST SWAP3 SWAP2 POP POP JUMP JUMPDEST PUSH0 PUSH1 0x20 DUP3 DUP5 SUB SLT ISZERO PUSH2 0x309E JUMPI PUSH2 0x309D PUSH2 0x2714 JUMP JUMPDEST JUMPDEST PUSH0 PUSH2 0x30AB DUP5 DUP3 DUP6 ADD PUSH2 0x3075 JUMP JUMPDEST SWAP2 POP POP SWAP3 SWAP2 POP POP JUMP JUMPDEST PUSH0 PUSH2 0xFFFF DUP3 AND SWAP1 POP SWAP2 SWAP1 POP JUMP JUMPDEST PUSH2 0x30CA DUP2 PUSH2 0x30B4 JUMP JUMPDEST DUP3 MSTORE POP POP JUMP JUMPDEST PUSH0 PUSH1 0x80 DUP3 ADD SWAP1 POP PUSH2 0x30E3 PUSH0 DUP4 ADD DUP8 PUSH2 0x283E JUMP JUMPDEST PUSH2 0x30F0 PUSH1 0x20 DUP4 ADD DUP7 PUSH2 0x2816 JUMP JUMPDEST PUSH2 0x30FD PUSH1 0x40 DUP4 ADD DUP6 PUSH2 0x283E JUMP JUMPDEST PUSH2 0x310A PUSH1 0x60 DUP4 ADD DUP5 PUSH2 0x30C1 JUMP JUMPDEST SWAP6 SWAP5 POP POP POP POP POP JUMP JUMPDEST PUSH32 0x4C6F616E206973206E6F7420636C6F7365640000000000000000000000000000 PUSH0 DUP3 ADD MSTORE POP JUMP JUMPDEST PUSH0 PUSH2 0x3147 PUSH1 0x12 DUP4 PUSH2 0x2FBE JUMP JUMPDEST SWAP2 POP PUSH2 0x3152 DUP3 PUSH2 0x3113 JUMP JUMPDEST PUSH1 0x20 DUP3 ADD SWAP1 POP SWAP2 SWAP1 POP JUMP JUMPDEST PUSH0 PUSH1 0x20 DUP3 ADD SWAP1 POP DUP2 DUP2 SUB PUSH0 DUP4 ADD MSTORE PUSH2 0x3174 DUP2 PUSH2 0x313B JUMP JUMPDEST SWAP1 POP SWAP2 SWAP1 POP JUMP JUMPDEST PUSH0 PUSH1 0x40 DUP3 ADD SWAP1 POP PUSH2 0x318E PUSH0 DUP4 ADD DUP6 PUSH2 0x283E JUMP JUMPDEST PUSH2 0x319B PUSH1 0x20 DUP4 ADD DUP5 PUSH2 0x2816 JUMP JUMPDEST SWAP4 SWAP3 POP POP POP JUMP JUMPDEST PUSH0 DUP2 MLOAD SWAP1 POP PUSH2 0x31B0 DUP2 PUSH2 0x277D JUMP JUMPDEST SWAP3 SWAP2 POP POP JUMP JUMPDEST PUSH0 PUSH1 0x20 DUP3 DUP5 SUB SLT ISZERO PUSH2 0x31CB JUMPI PUSH2 0x31CA PUSH2 0x2714 JUMP JUMPDEST JUMPDEST PUSH0 PUSH2 0x31D8 DUP5 DUP3 DUP6 ADD PUSH2 0x31A2 JUMP JUMPDEST SWAP2 POP POP SWAP3 SWAP2 POP POP JUMP JUMPDEST PUSH32 0x4E487B7100000000000000000000000000000000000000000000000000000000 PUSH0 MSTORE PUSH1 0x11 PUSH1 0x4 MSTORE PUSH1 0x24 PUSH0 REVERT JUMPDEST PUSH0 PUSH2 0x3218 DUP3 PUSH2 0x280D JUMP JUMPDEST SWAP2 POP PUSH2 0x3223 DUP4 PUSH2 0x280D JUMP JUMPDEST SWAP3 POP DUP3 DUP3 ADD SWAP1 POP DUP1 DUP3 GT ISZERO PUSH2 0x323B JUMPI PUSH2 0x323A PUSH2 0x31E1 JUMP JUMPDEST JUMPDEST SWAP3 SWAP2 POP POP JUMP JUMPDEST PUSH0 PUSH1 0xFF DUP3 AND SWAP1 POP SWAP2 SWAP1 POP JUMP JUMPDEST PUSH2 0x3256 DUP2 PUSH2 0x3241 JUMP JUMPDEST DUP2 EQ PUSH2 0x3260 JUMPI PUSH0 DUP1 REVERT JUMPDEST POP JUMP JUMPDEST PUSH0 DUP2 MLOAD SWAP1 POP PUSH2 0x3271 DUP2 PUSH2 0x324D JUMP JUMPDEST SWAP3 SWAP2 POP POP JUMP JUMPDEST PUSH0 PUSH1 0x20 DUP3 DUP5 SUB SLT ISZERO PUSH2 0x328C JUMPI PUSH2 0x328B PUSH2 0x2714 JUMP JUMPDEST JUMPDEST PUSH0 PUSH2 0x3299 DUP5 DUP3 DUP6 ADD PUSH2 0x3263 JUMP JUMPDEST SWAP2 POP POP SWAP3 SWAP2 POP POP JUMP JUMPDEST PUSH0 DUP2 PUSH1 0x1 SHR SWAP1 POP SWAP2 SWAP1 POP JUMP JUMPDEST PUSH0 DUP1 DUP3 SWAP2 POP DUP4 SWAP1 POP JUMPDEST PUSH1 0x1 DUP6 GT ISZERO PUSH2 0x32F7 JUMPI DUP1 DUP7 DIV DUP2 GT ISZERO PUSH2 0x32D3 JUMPI PUSH2 0x32D2 PUSH2 0x31E1 JUMP JUMPDEST JUMPDEST PUSH1 0x1 DUP6 AND ISZERO PUSH2 0x32E2 JUMPI DUP1 DUP3 MUL SWAP2 POP JUMPDEST DUP1 DUP2 MUL SWAP1 POP PUSH2 0x32F0 DUP6 PUSH2 0x32A2 JUMP JUMPDEST SWAP5 POP PUSH2 0x32B7 JUMP JUMPDEST SWAP5 POP SWAP5 SWAP3 POP POP POP JUMP JUMPDEST PUSH0 DUP3 PUSH2 0x330F JUMPI PUSH1 0x1 SWAP1 POP PUSH2 0x33CA JUMP JUMPDEST DUP2 PUSH2 0x331C JUMPI PUSH0 SWAP1 POP PUSH2 0x33CA JUMP JUMPDEST DUP2 PUSH1 0x1 DUP2 EQ PUSH2 0x3332 JUMPI PUSH1 0x2 DUP2 EQ PUSH2 0x333C JUMPI PUSH2 0x336B JUMP JUMPDEST PUSH1 0x1 SWAP2 POP POP PUSH2 0x33CA JUMP JUMPDEST PUSH1 0xFF DUP5 GT ISZERO PUSH2 0x334E JUMPI PUSH2 0x334D PUSH2 0x31E1 JUMP JUMPDEST JUMPDEST DUP4 PUSH1 0x2 EXP SWAP2 POP DUP5 DUP3 GT ISZERO PUSH2 0x3365 JUMPI PUSH2 0x3364 PUSH2 0x31E1 JUMP JUMPDEST JUMPDEST POP PUSH2 0x33CA JUMP JUMPDEST POP PUSH1 0x20 DUP4 LT PUSH2 0x133 DUP4 LT AND PUSH1 0x4E DUP5 LT PUSH1 0xB DUP5 LT AND OR ISZERO PUSH2 0x33A0 JUMPI DUP3 DUP3 EXP SWAP1 POP DUP4 DUP2 GT ISZERO PUSH2 0x339B JUMPI PUSH2 0x339A PUSH2 0x31E1 JUMP JUMPDEST JUMPDEST PUSH2 0x33CA JUMP JUMPDEST PUSH2 0x33AD DUP5 DUP5 DUP5 PUSH1 0x1 PUSH2 0x32AE JUMP JUMPDEST SWAP3 POP SWAP1 POP DUP2 DUP5 DIV DUP2 GT ISZERO PUSH2 0x33C4 JUMPI PUSH2 0x33C3 PUSH2 0x31E1 JUMP JUMPDEST JUMPDEST DUP2 DUP2 MUL SWAP1 POP JUMPDEST SWAP4 SWAP3 POP POP POP JUMP JUMPDEST PUSH0 PUSH2 0x33DB DUP3 PUSH2 0x280D JUMP JUMPDEST SWAP2 POP PUSH2 0x33E6 DUP4 PUSH2 0x3241 JUMP JUMPDEST SWAP3 POP PUSH2 0x3413 PUSH32 0xFFFFFFFFFFFFFFFFFFFFFFFFFFFFFFFFFFFFFFFFFFFFFFFFFFFFFFFFFFFFFFFF DUP5 DUP5 PUSH2 0x3300 JUMP JUMPDEST SWAP1 POP SWAP3 SWAP2 POP POP JUMP JUMPDEST PUSH0 PUSH2 0x3425 DUP3 PUSH2 0x280D JUMP JUMPDEST SWAP2 POP PUSH2 0x3430 DUP4 PUSH2 0x280D JUMP JUMPDEST SWAP3 POP DUP3 DUP3 MUL PUSH2 0x343E DUP2 PUSH2 0x280D JUMP JUMPDEST SWAP2 POP DUP3 DUP3 DIV DUP5 EQ DUP4 ISZERO OR PUSH2 0x3455 JUMPI PUSH2 0x3454 PUSH2 0x31E1 JUMP JUMPDEST JUMPDEST POP SWAP3 SWAP2 POP POP JUMP JUMPDEST PUSH32 0x4E487B7100000000000000000000000000000000000000000000000000000000 PUSH0 MSTORE PUSH1 0x12 PUSH1 0x4 MSTORE PUSH1 0x24 PUSH0 REVERT JUMPDEST PUSH0 PUSH2 0x3493 DUP3 PUSH2 0x280D JUMP JUMPDEST SWAP2 POP PUSH2 0x349E DUP4 PUSH2 0x280D JUMP JUMPDEST SWAP3 POP DUP3 PUSH2 0x34AE JUMPI PUSH2 0x34AD PUSH2 0x345C JUMP JUMPDEST JUMPDEST DUP3 DUP3 DIV SWAP1 POP SWAP3 SWAP2 POP POP JUMP JUMPDEST PUSH0 PUSH1 0x60 DUP3 ADD SWAP1 POP PUSH2 0x34CC PUSH0 DUP4 ADD DUP7 PUSH2 0x283E JUMP JUMPDEST PUSH2 0x34D9 PUSH1 0x20 DUP4 ADD DUP6 PUSH2 0x2816 JUMP JUMPDEST PUSH2 0x34E6 PUSH1 0x40 DUP4 ADD DUP5 PUSH2 0x283E JUMP JUMPDEST SWAP5 SWAP4 POP POP POP POP JUMP JUMPDEST PUSH0 PUSH2 0x34F8 DUP3 PUSH2 0x280D JUMP JUMPDEST SWAP2 POP PUSH2 0x3503 DUP4 PUSH2 0x280D JUMP JUMPDEST SWAP3 POP DUP3 DUP3 SUB SWAP1 POP DUP2 DUP2 GT ISZERO PUSH2 0x351B JUMPI PUSH2 0x351A PUSH2 0x31E1 JUMP JUMPDEST JUMPDEST SWAP3 SWAP2 POP POP JUMP JUMPDEST PUSH0 DUP2 SWAP1 POP SWAP2 SWAP1 POP JUMP JUMPDEST PUSH0 PUSH8 0xFFFFFFFFFFFFFFFF DUP3 AND SWAP1 POP SWAP2 SWAP1 POP JUMP JUMPDEST PUSH0 PUSH2 0x3557 PUSH2 0x3552 PUSH2 0x354D DUP5 PUSH2 0x3521 JUMP JUMPDEST PUSH2 0x28FB JUMP JUMPDEST PUSH2 0x352A JUMP JUMPDEST SWAP1 POP SWAP2 SWAP1 POP JUMP JUMPDEST PUSH2 0x3567 DUP2 PUSH2 0x353D JUMP JUMPDEST DUP3 MSTORE POP POP JUMP JUMPDEST PUSH0 PUSH1 0x20 DUP3 ADD SWAP1 POP PUSH2 0x3580 PUSH0 DUP4 ADD DUP5 PUSH2 0x355E JUMP JUMPDEST SWAP3 SWAP2 POP POP JUMP JUMPDEST PUSH0 PUSH10 0xFFFFFFFFFFFFFFFFFFFF DUP3 AND SWAP1 POP SWAP2 SWAP1 POP JUMP JUMPDEST PUSH2 0x35A4 DUP2 PUSH2 0x3586 JUMP JUMPDEST DUP2 EQ PUSH2 0x35AE JUMPI PUSH0 DUP1 REVERT JUMPDEST POP JUMP JUMPDEST PUSH0 DUP2 MLOAD SWAP1 POP PUSH2 0x35BF DUP2 PUSH2 0x359B JUMP JUMPDEST SWAP3 SWAP2 POP POP JUMP JUMPDEST PUSH0 DUP2 SWAP1 POP SWAP2 SWAP1 POP JUMP JUMPDEST PUSH2 0x35D7 DUP2 PUSH2 0x35C5 JUMP JUMPDEST DUP2 EQ PUSH2 0x35E1 JUMPI PUSH0 DUP1 REVERT JUMPDEST POP JUMP JUMPDEST PUSH0 DUP2 MLOAD SWAP1 POP PUSH2 0x35F2 DUP2 PUSH2 0x35CE JUMP JUMPDEST SWAP3 SWAP2 POP POP JUMP JUMPDEST PUSH0 DUP1 PUSH0 DUP1 PUSH0 PUSH1 0xA0 DUP7 DUP9 SUB SLT ISZERO PUSH2 0x3611 JUMPI PUSH2 0x3610 PUSH2 0x2714 JUMP JUMPDEST JUMPDEST PUSH0 PUSH2 0x361E DUP9 DUP3 DUP10 ADD PUSH2 0x35B1 JUMP JUMPDEST SWAP6 POP POP PUSH1 0x20 PUSH2 0x362F DUP9 DUP3 DUP10 ADD PUSH2 0x35E4 JUMP JUMPDEST SWAP5 POP POP PUSH1 0x40 PUSH2 0x3640 DUP9 DUP3 DUP10 ADD PUSH2 0x3036 JUMP JUMPDEST SWAP4 POP POP PUSH1 0x60 PUSH2 0x3651 DUP9 DUP3 DUP10 ADD PUSH2 0x3036 JUMP JUMPDEST SWAP3 POP POP PUSH1 0x80 PUSH2 0x3662 DUP9 DUP3 DUP10 ADD PUSH2 0x35B1 JUMP JUMPDEST SWAP2 POP POP SWAP3 SWAP6 POP SWAP3 SWAP6 SWAP1 SWAP4 POP JUMP JUMPDEST PUSH0 DUP1 PUSH0 DUP1 PUSH0 DUP1 PUSH1 0xC0 DUP8 DUP10 SUB SLT ISZERO PUSH2 0x3689 JUMPI PUSH2 0x3688 PUSH2 0x2714 JUMP JUMPDEST JUMPDEST PUSH0 PUSH2 0x3696 DUP10 DUP3 DUP11 ADD PUSH2 0x3036 JUMP JUMPDEST SWAP7 POP POP PUSH1 0x20 PUSH2 0x36A7 DUP10 DUP3 DUP11 ADD PUSH2 0x3036 JUMP JUMPDEST SWAP6 POP POP PUSH1 0x40 PUSH2 0x36B8 DUP10 DUP3 DUP11 ADD PUSH2 0x3036 JUMP JUMPDEST SWAP5 POP POP PUSH1 0x60 PUSH2 0x36C9 DUP10 DUP3 DUP11 ADD PUSH2 0x3036 JUMP JUMPDEST SWAP4 POP POP PUSH1 0x80 PUSH2 0x36DA DUP10 DUP3 DUP11 ADD PUSH2 0x3036 JUMP JUMPDEST SWAP3 POP POP PUSH1 0xA0 PUSH2 0x36EB DUP10 DUP3 DUP11 ADD PUSH2 0x3036 JUMP JUMPDEST SWAP2 POP POP SWAP3 SWAP6 POP SWAP3 SWAP6 POP SWAP3 SWAP6 JUMP JUMPDEST PUSH32 0x43616E206E6F74206C6971756964617465000000000000000000000000000000 PUSH0 DUP3 ADD MSTORE POP JUMP JUMPDEST PUSH0 PUSH2 0x372C PUSH1 0x11 DUP4 PUSH2 0x2FBE JUMP JUMPDEST SWAP2 POP PUSH2 0x3737 DUP3 PUSH2 0x36F8 JUMP JUMPDEST PUSH1 0x20 DUP3 ADD SWAP1 POP SWAP2 SWAP1 POP JUMP JUMPDEST PUSH0 PUSH1 0x20 DUP3 ADD SWAP1 POP DUP2 DUP2 SUB PUSH0 DUP4 ADD MSTORE PUSH2 0x3759 DUP2 PUSH2 0x3720 JUMP JUMPDEST SWAP1 POP SWAP2 SWAP1 POP JUMP JUMPDEST PUSH2 0x3769 DUP2 PUSH2 0x2A4C JUMP JUMPDEST DUP3 MSTORE POP POP JUMP JUMPDEST PUSH2 0x3778 DUP2 PUSH2 0x2718 JUMP JUMPDEST DUP3 MSTORE POP POP JUMP JUMPDEST PUSH2 0x100 DUP3 ADD PUSH0 DUP3 ADD MLOAD PUSH2 0x3793 PUSH0 DUP6 ADD DUP3 PUSH2 0x28DD JUMP JUMPDEST POP PUSH1 0x20 DUP3 ADD MLOAD PUSH2 0x37A6 PUSH1 0x20 DUP6 ADD DUP3 PUSH2 0x28DD JUMP JUMPDEST POP PUSH1 0x40 DUP3 ADD MLOAD PUSH2 0x37B9 PUSH1 0x40 DUP6 ADD DUP3 PUSH2 0x3760 JUMP JUMPDEST POP PUSH1 0x60 DUP3 ADD MLOAD PUSH2 0x37CC PUSH1 0x60 DUP6 ADD DUP3 PUSH2 0x28DD JUMP JUMPDEST POP PUSH1 0x80 DUP3 ADD MLOAD PUSH2 0x37DF PUSH1 0x80 DUP6 ADD DUP3 PUSH2 0x28CE JUMP JUMPDEST POP PUSH1 0xA0 DUP3 ADD MLOAD PUSH2 0x37F2 PUSH1 0xA0 DUP6 ADD DUP3 PUSH2 0x28CE JUMP JUMPDEST POP PUSH1 0xC0 DUP3 ADD MLOAD PUSH2 0x3805 PUSH1 0xC0 DUP6 ADD DUP3 PUSH2 0x28CE JUMP JUMPDEST POP PUSH1 0xE0 DUP3 ADD MLOAD PUSH2 0x3818 PUSH1 0xE0 DUP6 ADD DUP3 PUSH2 0x376F JUMP JUMPDEST POP POP POP POP JUMP JUMPDEST PUSH0 PUSH2 0x100 DUP3 ADD SWAP1 POP PUSH2 0x3832 PUSH0 DUP4 ADD DUP5 PUSH2 0x377E JUMP JUMPDEST SWAP3 SWAP2 POP POP JUMP JUMPDEST PUSH0 DUP2 MLOAD SWAP1 POP SWAP2 SWAP1 POP JUMP JUMPDEST PUSH0 DUP2 SWAP1 POP SWAP3 SWAP2 POP POP JUMP JUMPDEST DUP3 DUP2 DUP4 MCOPY PUSH0 DUP4 DUP4 ADD MSTORE POP POP POP JUMP JUMPDEST PUSH0 PUSH2 0x3864 DUP3 PUSH2 0x3838 JUMP JUMPDEST PUSH2 0x386E DUP2 DUP6 PUSH2 0x3842 JUMP JUMPDEST SWAP4 POP PUSH2 0x387E DUP2 DUP6 PUSH1 0x20 DUP7 ADD PUSH2 0x384C JUMP JUMPDEST DUP1 DUP5 ADD SWAP2 POP POP SWAP3 SWAP2 POP POP JUMP JUMPDEST PUSH0 PUSH2 0x3895 DUP3 DUP5 PUSH2 0x385A JUMP JUMPDEST SWAP2 POP DUP2 SWAP1 POP SWAP3 SWAP2 POP POP JUMP JUMPDEST PUSH32 0x5341000000000000000000000000000000000000000000000000000000000000 PUSH0 DUP3 ADD MSTORE POP JUMP JUMPDEST PUSH0 PUSH2 0x38D4 PUSH1 0x2 DUP4 PUSH2 0x2FBE JUMP JUMPDEST SWAP2 POP PUSH2 0x38DF DUP3 PUSH2 0x38A0 JUMP JUMPDEST PUSH1 0x20 DUP3 ADD SWAP1 POP SWAP2 SWAP1 POP JUMP JUMPDEST PUSH0 PUSH1 0x20 DUP3 ADD SWAP1 POP DUP2 DUP2 SUB PUSH0 DUP4 ADD MSTORE PUSH2 0x3901 DUP2 PUSH2 0x38C8 JUMP JUMPDEST SWAP1 POP SWAP2 SWAP1 POP JUMP INVALID LOG2 PUSH5 0x6970667358 0x22 SLT KECCAK256 CALLCODE 0xC1 PUSH7 0x209A6157791F69 0xD9 LOG1 CALL EXTCODECOPY 0xF8 STATICCALL EQ LT EXTCODESIZE 0xDF SWAP4 SWAP1 ISZERO 0xEC PUSH26 0x6113B96D72E9E064736F6C634300081A00330000000000000000 "
		},
		"gasEstimates": {
			"creation": {
				"codeDepositCost": "2930800",
				"executionCost": "3206",
				"totalCost": "2934006"
			},
			"external": {
				"LTV()": "2515",
				"aToken()": "infinite",
				"aaveAddressProvider()": "infinite",
				"ccfl()": "2554",
				"closeLoan()": "infinite",
				"collateralAmount()": "2514",
				"collateralToken()": "infinite",
				"feeTier()": "420",
				"getHealthFactor(uint256,uint256)": "infinite",
				"getLatestPrice(address,bool)": "infinite",
				"getLoanInfo()": "infinite",
				"getUserAccountData(address)": "infinite",
				"initLoan()": "infinite",
				"initialize((uint256,address,bool,uint256,address,bool),address,address,address,uint256,uint256,address,address,address,address,address)": "infinite",
				"isStakeAave()": "2608",
				"liquidate(uint256,uint256)": "infinite",
				"liquidationThreshold()": "2493",
				"owner()": "2572",
				"platform()": "2598",
				"priceFeed()": "infinite",
				"pricePoolFeed()": "infinite",
				"setCCFL(address)": "26926",
				"supplyLiquidity()": "infinite",
				"swapRouter()": "infinite",
				"updateCollateral(uint256)": "infinite",
				"wETH()": "infinite",
				"withdrawAllCollateral(address,bool)": "infinite",
				"withdrawLiquidity()": "infinite"
			},
			"internal": {
				"swapTokenForUSD(uint256,uint256,contract IERC20Standard,contract IERC20Standard)": "infinite"
			}
		},
		"methodIdentifiers": {
			"LTV()": "62965d8e",
			"aToken()": "a0c1f15e",
			"aaveAddressProvider()": "cdaabe41",
			"ccfl()": "5825f535",
			"closeLoan()": "232fa733",
			"collateralAmount()": "92d09ceb",
			"collateralToken()": "b2016bd4",
			"feeTier()": "72f5d98a",
			"getHealthFactor(uint256,uint256)": "4d2c872a",
			"getLatestPrice(address,bool)": "b3bffeaa",
			"getLoanInfo()": "5d3e2fa1",
			"getUserAccountData(address)": "bf92857c",
			"initLoan()": "7ce67d60",
			"initialize((uint256,address,bool,uint256,address,bool),address,address,address,uint256,uint256,address,address,address,address,address)": "83f8964e",
			"isStakeAave()": "11256603",
			"liquidate(uint256,uint256)": "d296d1f1",
			"liquidationThreshold()": "4031234c",
			"owner()": "8da5cb5b",
			"platform()": "4bde38c8",
			"priceFeed()": "741bef1a",
			"pricePoolFeed()": "68dcad58",
			"setCCFL(address)": "8ac1b775",
			"supplyLiquidity()": "07a6bf69",
			"swapRouter()": "c31c9c07",
			"updateCollateral(uint256)": "6721de26",
			"wETH()": "f2428621",
			"withdrawAllCollateral(address,bool)": "102cb82e",
			"withdrawLiquidity()": "7ea382c1"
		}
	},
	"abi": [
		{
			"inputs": [],
			"stateMutability": "nonpayable",
			"type": "constructor"
		},
		{
			"inputs": [],
			"name": "InvalidInitialization",
			"type": "error"
		},
		{
			"inputs": [],
			"name": "NotInitializing",
			"type": "error"
		},
		{
			"anonymous": false,
			"inputs": [
				{
					"indexed": false,
					"internalType": "uint64",
					"name": "version",
					"type": "uint64"
				}
			],
			"name": "Initialized",
			"type": "event"
		},
		{
			"anonymous": false,
			"inputs": [
				{
					"indexed": true,
					"internalType": "address",
					"name": "onBehalfOf",
					"type": "address"
				},
				{
					"indexed": true,
					"internalType": "address",
					"name": "_token",
					"type": "address"
				},
				{
					"indexed": true,
					"internalType": "uint256",
					"name": "_amount",
					"type": "uint256"
				}
			],
			"name": "LiquiditySupplied",
			"type": "event"
		},
		{
			"anonymous": false,
			"inputs": [
				{
					"indexed": true,
					"internalType": "address",
					"name": "to",
					"type": "address"
				},
				{
					"indexed": true,
					"internalType": "address",
					"name": "_token",
					"type": "address"
				},
				{
					"indexed": true,
					"internalType": "uint256",
					"name": "_amount",
					"type": "uint256"
				}
			],
			"name": "LiquidityWithdrawn",
			"type": "event"
		},
		{
			"anonymous": false,
			"inputs": [
				{
					"indexed": false,
					"internalType": "uint256",
					"name": "amount",
					"type": "uint256"
				},
				{
					"indexed": false,
					"internalType": "uint256",
					"name": "when",
					"type": "uint256"
				}
			],
			"name": "Withdrawal",
			"type": "event"
		},
		{
			"inputs": [],
			"name": "LTV",
			"outputs": [
				{
					"internalType": "uint256",
					"name": "",
					"type": "uint256"
				}
			],
			"stateMutability": "view",
			"type": "function"
		},
		{
			"inputs": [],
			"name": "aToken",
			"outputs": [
				{
					"internalType": "contract IERC20Standard",
					"name": "",
					"type": "address"
				}
			],
			"stateMutability": "view",
			"type": "function"
		},
		{
			"inputs": [],
			"name": "aaveAddressProvider",
			"outputs": [
				{
					"internalType": "contract IPoolAddressesProvider",
					"name": "",
					"type": "address"
				}
			],
			"stateMutability": "view",
			"type": "function"
		},
		{
			"inputs": [],
			"name": "ccfl",
			"outputs": [
				{
					"internalType": "address",
					"name": "",
					"type": "address"
				}
			],
			"stateMutability": "view",
			"type": "function"
		},
		{
			"inputs": [],
			"name": "closeLoan",
			"outputs": [],
			"stateMutability": "nonpayable",
			"type": "function"
		},
		{
			"inputs": [],
			"name": "collateralAmount",
			"outputs": [
				{
					"internalType": "uint256",
					"name": "",
					"type": "uint256"
				}
			],
			"stateMutability": "view",
			"type": "function"
		},
		{
			"inputs": [],
			"name": "collateralToken",
			"outputs": [
				{
					"internalType": "contract IERC20Standard",
					"name": "",
					"type": "address"
				}
			],
			"stateMutability": "view",
			"type": "function"
		},
		{
			"inputs": [],
			"name": "feeTier",
			"outputs": [
				{
					"internalType": "uint24",
					"name": "",
					"type": "uint24"
				}
			],
			"stateMutability": "view",
			"type": "function"
		},
		{
			"inputs": [
				{
					"internalType": "uint256",
					"name": "currentDebt",
					"type": "uint256"
				},
				{
					"internalType": "uint256",
					"name": "addCollateral",
					"type": "uint256"
				}
			],
			"name": "getHealthFactor",
			"outputs": [
				{
					"internalType": "uint256",
					"name": "",
					"type": "uint256"
				}
			],
			"stateMutability": "view",
			"type": "function"
		},
		{
			"inputs": [
				{
					"internalType": "contract IERC20Standard",
					"name": "_coin",
					"type": "address"
				},
				{
					"internalType": "bool",
					"name": "isPool",
					"type": "bool"
				}
			],
			"name": "getLatestPrice",
			"outputs": [
				{
					"internalType": "uint256",
					"name": "",
					"type": "uint256"
				}
			],
			"stateMutability": "view",
			"type": "function"
		},
		{
			"inputs": [],
			"name": "getLoanInfo",
			"outputs": [
				{
					"components": [
						{
							"internalType": "uint256",
							"name": "loanId",
							"type": "uint256"
						},
						{
							"internalType": "address",
							"name": "borrower",
							"type": "address"
						},
						{
							"internalType": "bool",
							"name": "isPaid",
							"type": "bool"
						},
						{
							"internalType": "uint256",
							"name": "amount",
							"type": "uint256"
						},
						{
							"internalType": "contract IERC20Standard",
							"name": "stableCoin",
							"type": "address"
						},
						{
							"internalType": "bool",
							"name": "isClosed",
							"type": "bool"
						}
					],
					"internalType": "struct Loan",
					"name": "",
					"type": "tuple"
				}
			],
			"stateMutability": "view",
			"type": "function"
		},
		{
			"inputs": [
				{
					"internalType": "address",
					"name": "user",
					"type": "address"
				}
			],
			"name": "getUserAccountData",
			"outputs": [
				{
					"internalType": "uint256",
					"name": "totalCollateralBase",
					"type": "uint256"
				},
				{
					"internalType": "uint256",
					"name": "totalDebtBase",
					"type": "uint256"
				},
				{
					"internalType": "uint256",
					"name": "availableBorrowsBase",
					"type": "uint256"
				},
				{
					"internalType": "uint256",
					"name": "currentLiquidationThreshold",
					"type": "uint256"
				},
				{
					"internalType": "uint256",
					"name": "ltv",
					"type": "uint256"
				},
				{
					"internalType": "uint256",
					"name": "healthFactor",
					"type": "uint256"
				}
			],
			"stateMutability": "view",
			"type": "function"
		},
		{
			"inputs": [],
			"name": "initLoan",
			"outputs": [
				{
					"internalType": "uint256",
					"name": "loanId",
					"type": "uint256"
				},
				{
					"internalType": "address",
					"name": "borrower",
					"type": "address"
				},
				{
					"internalType": "bool",
					"name": "isPaid",
					"type": "bool"
				},
				{
					"internalType": "uint256",
					"name": "amount",
					"type": "uint256"
				},
				{
					"internalType": "contract IERC20Standard",
					"name": "stableCoin",
					"type": "address"
				},
				{
					"internalType": "bool",
					"name": "isClosed",
					"type": "bool"
				}
			],
			"stateMutability": "view",
			"type": "function"
		},
		{
			"inputs": [
				{
					"components": [
						{
							"internalType": "uint256",
							"name": "loanId",
							"type": "uint256"
						},
						{
							"internalType": "address",
							"name": "borrower",
							"type": "address"
						},
						{
							"internalType": "bool",
							"name": "isPaid",
							"type": "bool"
						},
						{
							"internalType": "uint256",
							"name": "amount",
							"type": "uint256"
						},
						{
							"internalType": "contract IERC20Standard",
							"name": "stableCoin",
							"type": "address"
						},
						{
							"internalType": "bool",
							"name": "isClosed",
							"type": "bool"
						}
					],
					"internalType": "struct Loan",
					"name": "_loan",
					"type": "tuple"
				},
				{
					"internalType": "contract IERC20Standard",
					"name": "_collateralToken",
					"type": "address"
				},
				{
					"internalType": "contract IPoolAddressesProvider",
					"name": "_aaveAddressProvider",
					"type": "address"
				},
				{
					"internalType": "contract IERC20Standard",
					"name": "_aToken",
					"type": "address"
				},
				{
					"internalType": "uint256",
					"name": "_ltv",
					"type": "uint256"
				},
				{
					"internalType": "uint256",
					"name": "_threshold",
					"type": "uint256"
				},
				{
					"internalType": "contract AggregatorV3Interface",
					"name": "_priceFeed",
					"type": "address"
				},
				{
					"internalType": "contract AggregatorV3Interface",
					"name": "_pricePoolFeed",
					"type": "address"
				},
				{
					"internalType": "contract ISwapRouter",
					"name": "_swapRouter",
					"type": "address"
				},
				{
					"internalType": "address",
					"name": "_platform",
					"type": "address"
				},
				{
					"internalType": "contract IWETH",
					"name": "_iWETH",
					"type": "address"
				}
			],
			"name": "initialize",
			"outputs": [],
			"stateMutability": "nonpayable",
			"type": "function"
		},
		{
			"inputs": [],
			"name": "isStakeAave",
			"outputs": [
				{
					"internalType": "bool",
					"name": "",
					"type": "bool"
				}
			],
			"stateMutability": "view",
			"type": "function"
		},
		{
			"inputs": [
				{
					"internalType": "uint256",
					"name": "_currentDebt",
					"type": "uint256"
				},
				{
					"internalType": "uint256",
					"name": "_percent",
					"type": "uint256"
				}
			],
			"name": "liquidate",
			"outputs": [],
			"stateMutability": "nonpayable",
			"type": "function"
		},
		{
			"inputs": [],
			"name": "liquidationThreshold",
			"outputs": [
				{
					"internalType": "uint256",
					"name": "",
					"type": "uint256"
				}
			],
			"stateMutability": "view",
			"type": "function"
		},
		{
			"inputs": [],
			"name": "owner",
			"outputs": [
				{
					"internalType": "address",
					"name": "",
					"type": "address"
				}
			],
			"stateMutability": "view",
			"type": "function"
		},
		{
			"inputs": [],
			"name": "platform",
			"outputs": [
				{
					"internalType": "address",
					"name": "",
					"type": "address"
				}
			],
			"stateMutability": "view",
			"type": "function"
		},
		{
			"inputs": [],
			"name": "priceFeed",
			"outputs": [
				{
					"internalType": "contract AggregatorV3Interface",
					"name": "",
					"type": "address"
				}
			],
			"stateMutability": "view",
			"type": "function"
		},
		{
			"inputs": [],
			"name": "pricePoolFeed",
			"outputs": [
				{
					"internalType": "contract AggregatorV3Interface",
					"name": "",
					"type": "address"
				}
			],
			"stateMutability": "view",
			"type": "function"
		},
		{
			"inputs": [
				{
					"internalType": "address",
					"name": "_ccfl",
					"type": "address"
				}
			],
			"name": "setCCFL",
			"outputs": [],
			"stateMutability": "nonpayable",
			"type": "function"
		},
		{
			"inputs": [],
			"name": "supplyLiquidity",
			"outputs": [],
			"stateMutability": "nonpayable",
			"type": "function"
		},
		{
			"inputs": [],
			"name": "swapRouter",
			"outputs": [
				{
					"internalType": "contract ISwapRouter",
					"name": "",
					"type": "address"
				}
			],
			"stateMutability": "view",
			"type": "function"
		},
		{
			"inputs": [
				{
					"internalType": "uint256",
					"name": "amount",
					"type": "uint256"
				}
			],
			"name": "updateCollateral",
			"outputs": [],
			"stateMutability": "nonpayable",
			"type": "function"
		},
		{
			"inputs": [],
			"name": "wETH",
			"outputs": [
				{
					"internalType": "contract IWETH",
					"name": "",
					"type": "address"
				}
			],
			"stateMutability": "view",
			"type": "function"
		},
		{
			"inputs": [
				{
					"internalType": "address",
					"name": "_receiver",
					"type": "address"
				},
				{
					"internalType": "bool",
					"name": "_isETH",
					"type": "bool"
				}
			],
			"name": "withdrawAllCollateral",
			"outputs": [],
			"stateMutability": "nonpayable",
			"type": "function"
		},
		{
			"inputs": [],
			"name": "withdrawLiquidity",
			"outputs": [],
			"stateMutability": "nonpayable",
			"type": "function"
		},
		{
			"stateMutability": "payable",
			"type": "receive"
		}
	]
}