{
	"data": {
		"bytecode": {
			"linkReferences": {},
			"object": "6080604052348015600e575f80fd5b5061576c8061001c5f395ff3fe6080604052600436106102b1575f3560e01c80636a7b35db11610174578063a58bab62116100db578063c45a015511610094578063f24286211161006e578063f242862114610a90578063f3cf4ada14610aba578063f6597bbb14610ae2578063fab320e914610b0c576102b8565b8063c45a015514610a12578063c6bbd5a714610a3c578063cdaabe4114610a66576102b8565b8063a58bab62146108ed578063a95d713214610917578063b2016bd414610941578063b3bffeaa1461096b578063bf92857c146109a7578063c31c9c07146109e8576102b8565b8063894059c61161012d578063894059c6146107f55780638ac1b7751461081d5780638da5cb5b1461084557806392d09ceb1461086f5780639642366314610899578063a0c1f15e146108c3576102b8565b80636a7b35db146106f45780636cb0ab5e1461071c57806372f5d98a14610744578063741bef1a1461076e578063792f436f146107985780637ce67d60146107c2576102b8565b80633a0720e61161021857806358b275d7116101d157806358b275d7146105d35780635d3e2fa11461061257806362965d8e1461063c5780636721de261461066657806368dcad581461068e57806369fa97c0146106b8576102b8565b80633a0720e6146104b05780634031234c146104da578063415f1240146105045780634bde38c8146105435780634d2c872a1461056d5780635825f535146105a9576102b8565b80631c783def1161026a5780631c783def146103a0578063232fa733146103ca578063288cc89e146103f5578063315deeaa1461041f57806332df398e146104495780633666eefa14610473576102b8565b806305b57c0b146102bc57806307a6bf69146102e6578063101b9d31146102fc578063102cb82e1461032657806310ac5c3c1461034e5780631125660314610376576102b8565b366102b857005b5f80fd5b3480156102c7575f80fd5b506102d0610b22565b6040516102dd9190614119565b60405180910390f35b3480156102f1575f80fd5b506102fa610b28565b005b348015610307575f80fd5b50610310610f0e565b60405161031d9190614119565b60405180910390f35b348015610331575f80fd5b5061034c600480360381019061034791906141ce565b610f14565b005b348015610359575f80fd5b50610374600480360381019061036f91906142bd565b6113ea565b005b348015610381575f80fd5b5061038a611575565b604051610397919061431c565b60405180910390f35b3480156103ab575f80fd5b506103b4611588565b6040516103c1919061431c565b60405180910390f35b3480156103d5575f80fd5b506103de61159e565b6040516103ec929190614335565b60405180910390f35b348015610400575f80fd5b506104096119b5565b6040516104169190614119565b60405180910390f35b34801561042a575f80fd5b506104336119bb565b6040516104409190614119565b60405180910390f35b348015610454575f80fd5b5061045d6119c4565b60405161046a9190614119565b60405180910390f35b34801561047e575f80fd5b5061049960048036038101906104949190614386565b6119ca565b6040516104a7929190614335565b60405180910390f35b3480156104bb575f80fd5b506104c4611b98565b6040516104d19190614119565b60405180910390f35b3480156104e5575f80fd5b506104ee611b9e565b6040516104fb9190614119565b60405180910390f35b34801561050f575f80fd5b5061052a60048036038101906105259190614386565b611ba4565b60405161053a94939291906143b1565b60405180910390f35b34801561054e575f80fd5b50610557611f05565b6040516105649190614403565b60405180910390f35b348015610578575f80fd5b50610593600480360381019061058e919061441c565b611f2a565b6040516105a09190614119565b60405180910390f35b3480156105b4575f80fd5b506105bd612141565b6040516105ca9190614403565b60405180910390f35b3480156105de575f80fd5b506105f960048036038101906105f4919061441c565b612166565b60405161060994939291906143b1565b60405180910390f35b34801561061d575f80fd5b50610626612259565b60405161063391906145ac565b60405180910390f35b348015610647575f80fd5b506106506123c1565b60405161065d9190614119565b60405180910390f35b348015610671575f80fd5b5061068c60048036038101906106879190614386565b6123c7565b005b348015610699575f80fd5b506106a26124a8565b6040516106af91906145e6565b60405180910390f35b3480156106c3575f80fd5b506106de60048036038101906106d99190614386565b6124cd565b6040516106eb9190614119565b60405180910390f35b3480156106ff575f80fd5b5061071a6004803603810190610715919061486a565b61259d565b005b348015610727575f80fd5b50610742600480360381019061073d9190614935565b612a39565b005b34801561074f575f80fd5b50610758612b19565b60405161076591906149a2565b60405180910390f35b348015610779575f80fd5b50610782612b1f565b60405161078f91906145e6565b60405180910390f35b3480156107a3575f80fd5b506107ac612b44565b6040516107b99190614119565b60405180910390f35b3480156107cd575f80fd5b506107d6612b4a565b6040516107ec9a999897969594939291906149ca565b60405180910390f35b348015610800575f80fd5b5061081b60048036038101906108169190614935565b612c09565b005b348015610828575f80fd5b50610843600480360381019061083e9190614a64565b6130f0565b005b348015610850575f80fd5b506108596131f9565b6040516108669190614403565b60405180910390f35b34801561087a575f80fd5b5061088361321c565b6040516108909190614119565b60405180910390f35b3480156108a4575f80fd5b506108ad613222565b6040516108ba9190614a8f565b60405180910390f35b3480156108ce575f80fd5b506108d761324a565b6040516108e49190614a8f565b60405180910390f35b3480156108f8575f80fd5b5061090161326f565b60405161090e9190614119565b60405180910390f35b348015610922575f80fd5b5061092b613275565b6040516109389190614119565b60405180910390f35b34801561094c575f80fd5b5061095561327b565b6040516109629190614a8f565b60405180910390f35b348015610976575f80fd5b50610991600480360381019061098c9190614aa8565b6132a0565b60405161099e9190614119565b60405180910390f35b3480156109b2575f80fd5b506109cd60048036038101906109c89190614a64565b613402565b6040516109df96959493929190614ae6565b60405180910390f35b3480156109f3575f80fd5b506109fc613527565b604051610a099190614b65565b60405180910390f35b348015610a1d575f80fd5b50610a2661354c565b604051610a339190614b9e565b60405180910390f35b348015610a47575f80fd5b50610a50613571565b604051610a5d9190614bd7565b60405180910390f35b348015610a71575f80fd5b50610a7a613596565b604051610a879190614c10565b60405180910390f35b348015610a9b575f80fd5b50610aa46135bb565b604051610ab19190614c49565b60405180910390f35b348015610ac5575f80fd5b50610ae06004803603810190610adb9190614935565b6135e0565b005b348015610aed575f80fd5b50610af66136c0565b604051610b039190614119565b60405180910390f35b348015610b17575f80fd5b50610b206136c6565b005b601a5481565b5f8054906101000a900473ffffffffffffffffffffffffffffffffffffffff1673ffffffffffffffffffffffffffffffffffffffff163373ffffffffffffffffffffffffffffffffffffffff16146040518060400160405280600181526020017f320000000000000000000000000000000000000000000000000000000000000081525090610bed576040517f08c379a0000000000000000000000000000000000000000000000000000000008152600401610be49190614cc2565b60405180910390fd5b505f60095f9054906101000a900473ffffffffffffffffffffffffffffffffffffffff1690505f8173ffffffffffffffffffffffffffffffffffffffff166370a08231306040518263ffffffff1660e01b8152600401610c4d9190614403565b602060405180830381865afa158015610c68573d5f803e3d5ffd5b505050506040513d601f19601f82011682018060405250810190610c8c9190614cf6565b90505f81116040518060400160405280600281526020017f313000000000000000000000000000000000000000000000000000000000000081525090610d08576040517f08c379a0000000000000000000000000000000000000000000000000000000008152600401610cff9190614cc2565b60405180910390fd5b505f3090505f8060015f9054906101000a900473ffffffffffffffffffffffffffffffffffffffff1673ffffffffffffffffffffffffffffffffffffffff1663026b1d5f6040518163ffffffff1660e01b8152600401602060405180830381865afa158015610d79573d5f803e3d5ffd5b505050506040513d601f19601f82011682018060405250810190610d9d9190614d35565b90508473ffffffffffffffffffffffffffffffffffffffff1663095ea7b382866040518363ffffffff1660e01b8152600401610dda929190614d60565b6020604051808303815f875af1158015610df6573d5f803e3d5ffd5b505050506040513d601f19601f82011682018060405250810190610e1a9190614d9b565b508073ffffffffffffffffffffffffffffffffffffffff1663617ba037868686866040518563ffffffff1660e01b8152600401610e5a9493929190614de2565b5f604051808303815f87803b158015610e71575f80fd5b505af1158015610e83573d5f803e3d5ffd5b505050508473ffffffffffffffffffffffffffffffffffffffff168373ffffffffffffffffffffffffffffffffffffffff167f51a2b359618aeb0bcc2a495a6667c0bdbfddc3bb27eb0dd5b8e3b33a4c15865f86604051610ee49190614119565b60405180910390a36001600260146101000a81548160ff0219169083151502179055505050505050565b601d5481565b5f8054906101000a900473ffffffffffffffffffffffffffffffffffffffff1673ffffffffffffffffffffffffffffffffffffffff163373ffffffffffffffffffffffffffffffffffffffff16146040518060400160405280600181526020017f320000000000000000000000000000000000000000000000000000000000000081525090610fd9576040517f08c379a0000000000000000000000000000000000000000000000000000000008152600401610fd09190614cc2565b60405180910390fd5b5060011515600a6003015f9054906101000a900460ff16151514801561101457505f1515600a60040160149054906101000a900460ff161515145b6040518060400160405280600281526020017f31320000000000000000000000000000000000000000000000000000000000008152509061108b576040517f08c379a00000000000000000000000000000000000000000000000000000000081526004016110829190614cc2565b60405180910390fd5b5080156112925760145f9054906101000a900473ffffffffffffffffffffffffffffffffffffffff1673ffffffffffffffffffffffffffffffffffffffff16632e1a7d4d60095f9054906101000a900473ffffffffffffffffffffffffffffffffffffffff1673ffffffffffffffffffffffffffffffffffffffff166370a08231306040518263ffffffff1660e01b81526004016111299190614403565b602060405180830381865afa158015611144573d5f803e3d5ffd5b505050506040513d601f19601f820116820180604052508101906111689190614cf6565b6040518263ffffffff1660e01b81526004016111849190614119565b5f604051808303815f87803b15801561119b575f80fd5b505af11580156111ad573d5f803e3d5ffd5b505050508173ffffffffffffffffffffffffffffffffffffffff166108fc60095f9054906101000a900473ffffffffffffffffffffffffffffffffffffffff1673ffffffffffffffffffffffffffffffffffffffff166370a08231306040518263ffffffff1660e01b81526004016112259190614403565b602060405180830381865afa158015611240573d5f803e3d5ffd5b505050506040513d601f19601f820116820180604052508101906112649190614cf6565b90811502906040515f60405180830381858888f1935050505015801561128c573d5f803e3d5ffd5b506113c8565b60095f9054906101000a900473ffffffffffffffffffffffffffffffffffffffff1673ffffffffffffffffffffffffffffffffffffffff1663a9059cbb8360095f9054906101000a900473ffffffffffffffffffffffffffffffffffffffff1673ffffffffffffffffffffffffffffffffffffffff166370a08231306040518263ffffffff1660e01b815260040161132a9190614403565b602060405180830381865afa158015611345573d5f803e3d5ffd5b505050506040513d601f19601f820116820180604052508101906113699190614cf6565b6040518363ffffffff1660e01b8152600401611386929190614d60565b6020604051808303815f875af11580156113a2573d5f803e3d5ffd5b505050506040513d601f19601f820116820180604052508101906113c69190614d9b565b505b6001600a60040160146101000a81548160ff0219169083151502179055505050565b5f8054906101000a900473ffffffffffffffffffffffffffffffffffffffff1673ffffffffffffffffffffffffffffffffffffffff163373ffffffffffffffffffffffffffffffffffffffff16146040518060400160405280600181526020017f3200000000000000000000000000000000000000000000000000000000000000815250906114af576040517f08c379a00000000000000000000000000000000000000000000000000000000081526004016114a69190614cc2565b60405180910390fd5b508260035f6101000a81548173ffffffffffffffffffffffffffffffffffffffff021916908373ffffffffffffffffffffffffffffffffffffffff1602179055508160045f6101000a81548173ffffffffffffffffffffffffffffffffffffffff021916908373ffffffffffffffffffffffffffffffffffffffff1602179055508060055f6101000a81548173ffffffffffffffffffffffffffffffffffffffff021916908373ffffffffffffffffffffffffffffffffffffffff160217905550505050565b600260149054906101000a900460ff1681565b5f600260149054906101000a900460ff16905090565b5f805f8054906101000a900473ffffffffffffffffffffffffffffffffffffffff1673ffffffffffffffffffffffffffffffffffffffff163373ffffffffffffffffffffffffffffffffffffffff16146040518060400160405280600181526020017f320000000000000000000000000000000000000000000000000000000000000081525090611665576040517f08c379a000000000000000000000000000000000000000000000000000000000815260040161165c9190614cc2565b60405180910390fd5b506001600a6003015f6101000a81548160ff021916908315150217905550600a60020154600a60050181905550600260149054906101000a900460ff161561175b5760025f9054906101000a900473ffffffffffffffffffffffffffffffffffffffff1673ffffffffffffffffffffffffffffffffffffffff166370a08231306040518263ffffffff1660e01b81526004016117019190614403565b602060405180830381865afa15801561171c573d5f803e3d5ffd5b505050506040513d601f19601f820116820180604052508101906117409190614cf6565b600a6005018190555061175a601554601654601754612c09565b5b5f60185460195461176c9190614e52565b11156119aa5760095f9054906101000a900473ffffffffffffffffffffffffffffffffffffffff1673ffffffffffffffffffffffffffffffffffffffff1663095ea7b360035f9054906101000a900473ffffffffffffffffffffffffffffffffffffffff166018546019546117e19190614e52565b6040518363ffffffff1660e01b81526004016117fe929190614d60565b6020604051808303815f875af115801561181a573d5f803e3d5ffd5b505050506040513d601f19601f8201168201806040525081019061183e9190614d9b565b505f61189f6018546019546118539190614e52565b600a6004015f9054906101000a900473ffffffffffffffffffffffffffffffffffffffff1660095f9054906101000a900473ffffffffffffffffffffffffffffffffffffffff166137ab565b9050600a6004015f9054906101000a900473ffffffffffffffffffffffffffffffffffffffff1673ffffffffffffffffffffffffffffffffffffffff1663095ea7b360125f9054906101000a900473ffffffffffffffffffffffffffffffffffffffff16836040518363ffffffff1660e01b8152600401611921929190614d60565b6020604051808303815f875af115801561193d573d5f803e3d5ffd5b505050506040513d601f19601f820116820180604052508101906119619190614d9b565b505f6015546017546119739190614e52565b826017546119819190614e85565b61198b9190614ef3565b90505f818361199a9190614f23565b90508181945094505050506119b1565b5f80915091505b9091565b60185481565b5f600854905090565b60155481565b5f805f601b54601c54601d546119e09190614e52565b6119ea9190614e52565b90505f806018546019546119fe9190614e52565b1115611a6657611a63601854601954611a179190614e52565b60095f9054906101000a900473ffffffffffffffffffffffffffffffffffffffff16600a6004015f9054906101000a900473ffffffffffffffffffffffffffffffffffffffff16613a23565b90505b5f6127108387611a769190614e85565b611a809190614ef3565b90505f828288611a909190614e52565b611a9a9190614e52565b90505f611b868260095f9054906101000a900473ffffffffffffffffffffffffffffffffffffffff1673ffffffffffffffffffffffffffffffffffffffff166370a08231306040518263ffffffff1660e01b8152600401611afb9190614403565b602060405180830381865afa158015611b16573d5f803e3d5ffd5b505050506040513d601f19601f82011682018060405250810190611b3a9190614cf6565b600a6004015f9054906101000a900473ffffffffffffffffffffffffffffffffffffffff1660095f9054906101000a900473ffffffffffffffffffffffffffffffffffffffff16613c5e565b90508084965096505050505050915091565b60175481565b60065481565b5f805f805f8054906101000a900473ffffffffffffffffffffffffffffffffffffffff1673ffffffffffffffffffffffffffffffffffffffff163373ffffffffffffffffffffffffffffffffffffffff16146040518060400160405280600181526020017f320000000000000000000000000000000000000000000000000000000000000081525090611c6d576040517f08c379a0000000000000000000000000000000000000000000000000000000008152600401611c649190614cc2565b60405180910390fd5b506064611c7a865f611f2a565b106040518060400160405280600281526020017f313100000000000000000000000000000000000000000000000000000000000081525090611cf2576040517f08c379a0000000000000000000000000000000000000000000000000000000008152600401611ce99190614cc2565b60405180910390fd5b50600a60020154600a60050181905550600260149054906101000a900460ff1615611dcb5760025f9054906101000a900473ffffffffffffffffffffffffffffffffffffffff1673ffffffffffffffffffffffffffffffffffffffff166370a08231306040518263ffffffff1660e01b8152600401611d719190614403565b602060405180830381865afa158015611d8c573d5f803e3d5ffd5b505050506040513d601f19601f82011682018060405250810190611db09190614cf6565b600a60050181905550611dca601554601654601754612c09565b5b5f80611dd6876119ca565b915091505f805f80611de88b86612166565b93509350935093506001600a60030160156101000a81548160ff0219169083151502179055506001600a6003015f6101000a81548160ff021916908315150217905550600a6004015f9054906101000a900473ffffffffffffffffffffffffffffffffffffffff1673ffffffffffffffffffffffffffffffffffffffff1663095ea7b360125f9054906101000a900473ffffffffffffffffffffffffffffffffffffffff16886040518363ffffffff1660e01b8152600401611eab929190614d60565b6020604051808303815f875af1158015611ec7573d5f803e3d5ffd5b505050506040513d601f19601f82011682018060405250810190611eeb9190614d9b565b508383838399509950995099505050505050509193509193565b60135f9054906101000a900473ffffffffffffffffffffffffffffffffffffffff1681565b5f80611f5b600a6004015f9054906101000a900473ffffffffffffffffffffffffffffffffffffffff1660016132a0565b90505f8084600854611f6d9190614e52565b90505f60095f9054906101000a900473ffffffffffffffffffffffffffffffffffffffff1690505f821115612061575f611fa7825f6132a0565b90508173ffffffffffffffffffffffffffffffffffffffff1663313ce5676040518163ffffffff1660e01b8152600401602060405180830381865afa158015611ff2573d5f803e3d5ffd5b505050506040513d601f19601f820116820180604052508101906120169190614f8c565b600a61202291906150e6565b61271060065483866120349190614e85565b61203e9190614e85565b6120489190614ef3565b6120529190614ef3565b8461205d9190614e52565b9350505b5f600a6004015f9054906101000a900473ffffffffffffffffffffffffffffffffffffffff1673ffffffffffffffffffffffffffffffffffffffff1663313ce5676040518163ffffffff1660e01b8152600401602060405180830381865afa1580156120cf573d5f803e3d5ffd5b505050506040513d601f19601f820116820180604052508101906120f39190614f8c565b600a6120ff91906150e6565b858961210b9190614e85565b6121159190614ef3565b90505f816064866121269190614e85565b6121309190614ef3565b905080965050505050505092915050565b60125f9054906101000a900473ffffffffffffffffffffffffffffffffffffffff1681565b5f805f805f601b54601c54601d5461217e9190614e52565b6121889190614e52565b90505f612710828961219a9190614e85565b6121a49190614ef3565b90505f82601d54836121b69190614e85565b6121c09190614ef3565b90505f83601b54846121d29190614e85565b6121dc9190614ef3565b90505f8183856121ec9190614f23565b6121f69190614f23565b90505f6015546017546122099190614e52565b6017548c6122179190614e85565b6122219190614ef3565b90505f818c6122309190614f23565b9050848282866122409190614e52565b859a509a509a509a505050505050505092959194509250565b612261614082565b600a604051806101400160405290815f8201548152602001600182015f9054906101000a900460ff1615151515815260200160028201548152602001600382015f9054906101000a900460ff161515151581526020016003820160019054906101000a900473ffffffffffffffffffffffffffffffffffffffff1673ffffffffffffffffffffffffffffffffffffffff1673ffffffffffffffffffffffffffffffffffffffff1681526020016003820160159054906101000a900460ff16151515158152602001600482015f9054906101000a900473ffffffffffffffffffffffffffffffffffffffff1673ffffffffffffffffffffffffffffffffffffffff1673ffffffffffffffffffffffffffffffffffffffff1681526020016004820160149054906101000a900460ff161515151581526020016004820160159054906101000a900460ff16151515158152602001600582015481525050905090565b60075481565b5f8054906101000a900473ffffffffffffffffffffffffffffffffffffffff1673ffffffffffffffffffffffffffffffffffffffff163373ffffffffffffffffffffffffffffffffffffffff16146040518060400160405280600181526020017f32000000000000000000000000000000000000000000000000000000000000008152509061248c576040517f08c379a00000000000000000000000000000000000000000000000000000000081526004016124839190614cc2565b60405180910390fd5b508060085f82825461249e9190614e52565b9250508190555050565b60115f9054906101000a900473ffffffffffffffffffffffffffffffffffffffff1681565b5f8060025f9054906101000a900473ffffffffffffffffffffffffffffffffffffffff1673ffffffffffffffffffffffffffffffffffffffff166370a08231306040518263ffffffff1660e01b81526004016125299190614403565b602060405180830381865afa158015612544573d5f803e3d5ffd5b505050506040513d601f19601f820116820180604052508101906125689190614cf6565b90505f600854826125799190614f23565b9050612710848261258a9190614e85565b6125949190614ef3565b92505050919050565b5f6125a6613f0c565b90505f815f0160089054906101000a900460ff161590505f825f015f9054906101000a900467ffffffffffffffff1690505f808267ffffffffffffffff161480156125ee5750825b90505f60018367ffffffffffffffff1614801561262157505f3073ffffffffffffffffffffffffffffffffffffffff163b145b90508115801561262f575080155b15612666576040517ff92ee8a900000000000000000000000000000000000000000000000000000000815260040160405180910390fd5b6001855f015f6101000a81548167ffffffffffffffff021916908367ffffffffffffffff16021790555083156126b3576001855f0160086101000a81548160ff0219169083151502179055505b335f806101000a81548173ffffffffffffffffffffffffffffffffffffffff021916908373ffffffffffffffffffffffffffffffffffffffff1602179055508d600a5f820151815f01556020820151816001015f6101000a81548160ff021916908315150217905550604082015181600201556060820151816003015f6101000a81548160ff02191690831515021790555060808201518160030160016101000a81548173ffffffffffffffffffffffffffffffffffffffff021916908373ffffffffffffffffffffffffffffffffffffffff16021790555060a08201518160030160156101000a81548160ff02191690831515021790555060c0820151816004015f6101000a81548173ffffffffffffffffffffffffffffffffffffffff021916908373ffffffffffffffffffffffffffffffffffffffff16021790555060e08201518160040160146101000a81548160ff0219169083151502179055506101008201518160040160156101000a81548160ff02191690831515021790555061012082015181600501559050508c60095f6101000a81548173ffffffffffffffffffffffffffffffffffffffff021916908373ffffffffffffffffffffffffffffffffffffffff1602179055508b60015f6101000a81548173ffffffffffffffffffffffffffffffffffffffff021916908373ffffffffffffffffffffffffffffffffffffffff16021790555089600781905550886006819055508a60025f6101000a81548173ffffffffffffffffffffffffffffffffffffffff021916908373ffffffffffffffffffffffffffffffffffffffff1602179055508760105f6101000a81548173ffffffffffffffffffffffffffffffffffffffff021916908373ffffffffffffffffffffffffffffffffffffffff1602179055508660115f6101000a81548173ffffffffffffffffffffffffffffffffffffffff021916908373ffffffffffffffffffffffffffffffffffffffff1602179055508560145f6101000a81548173ffffffffffffffffffffffffffffffffffffffff021916908373ffffffffffffffffffffffffffffffffffffffff1602179055508315612a29575f855f0160086101000a81548160ff0219169083151502179055507fc7f505b2f371ae2175ee4913f4499e1f2633a7b5936321eed1cdaeb6115181d26001604051612a20919061517c565b60405180910390a15b5050505050505050505050505050565b5f8054906101000a900473ffffffffffffffffffffffffffffffffffffffff1673ffffffffffffffffffffffffffffffffffffffff163373ffffffffffffffffffffffffffffffffffffffff16146040518060400160405280600181526020017f320000000000000000000000000000000000000000000000000000000000000081525090612afe576040517f08c379a0000000000000000000000000000000000000000000000000000000008152600401612af59190614cc2565b60405180910390fd5b50806017819055508260168190555081601581905550505050565b610bb881565b60105f9054906101000a900473ffffffffffffffffffffffffffffffffffffffff1681565b60195481565b600a805f015490806001015f9054906101000a900460ff1690806002015490806003015f9054906101000a900460ff16908060030160019054906101000a900473ffffffffffffffffffffffffffffffffffffffff16908060030160159054906101000a900460ff1690806004015f9054906101000a900473ffffffffffffffffffffffffffffffffffffffff16908060040160149054906101000a900460ff16908060040160159054906101000a900460ff1690806005015490508a565b5f8054906101000a900473ffffffffffffffffffffffffffffffffffffffff1673ffffffffffffffffffffffffffffffffffffffff163373ffffffffffffffffffffffffffffffffffffffff16146040518060400160405280600181526020017f320000000000000000000000000000000000000000000000000000000000000081525090612cce576040517f08c379a0000000000000000000000000000000000000000000000000000000008152600401612cc59190614cc2565b60405180910390fd5b505f60095f9054906101000a900473ffffffffffffffffffffffffffffffffffffffff1690505f60025f9054906101000a900473ffffffffffffffffffffffffffffffffffffffff1673ffffffffffffffffffffffffffffffffffffffff166370a08231306040518263ffffffff1660e01b8152600401612d4f9190614403565b602060405180830381865afa158015612d6a573d5f803e3d5ffd5b505050506040513d601f19601f82011682018060405250810190612d8e9190614cf6565b90505f81116040518060400160405280600281526020017f313000000000000000000000000000000000000000000000000000000000000081525090612e0a576040517f08c379a0000000000000000000000000000000000000000000000000000000008152600401612e019190614cc2565b60405180910390fd5b505f60015f9054906101000a900473ffffffffffffffffffffffffffffffffffffffff1673ffffffffffffffffffffffffffffffffffffffff1663026b1d5f6040518163ffffffff1660e01b8152600401602060405180830381865afa158015612e76573d5f803e3d5ffd5b505050506040513d601f19601f82011682018060405250810190612e9a9190614d35565b90508073ffffffffffffffffffffffffffffffffffffffff166369328dec8484306040518463ffffffff1660e01b8152600401612ed993929190615195565b6020604051808303815f875af1158015612ef5573d5f803e3d5ffd5b505050506040513d601f19601f82011682018060405250810190612f199190614cf6565b508273ffffffffffffffffffffffffffffffffffffffff163073ffffffffffffffffffffffffffffffffffffffff167f83aa598dd3e269af677698c6847b3ba594a67d286a771d01099aafa911a91b6484604051612f779190614119565b60405180910390a35f600260146101000a81548160ff0219169083151502179055505f60095f9054906101000a900473ffffffffffffffffffffffffffffffffffffffff1673ffffffffffffffffffffffffffffffffffffffff166370a08231306040518263ffffffff1660e01b8152600401612ff49190614403565b602060405180830381865afa15801561300f573d5f803e3d5ffd5b505050506040513d601f19601f820116820180604052508101906130339190614cf6565b90505f600854826130449190614f23565b11156130e757612710866008548361305c9190614f23565b6130669190614e85565b6130709190614ef3565b601a8190555086856130829190614e52565b87601a54600854846130949190614f23565b61309e9190614f23565b6130a89190614e85565b6130b29190614ef3565b601881905550601854601a54600854836130cc9190614f23565b6130d69190614f23565b6130e09190614f23565b6019819055505b50505050505050565b5f8054906101000a900473ffffffffffffffffffffffffffffffffffffffff1673ffffffffffffffffffffffffffffffffffffffff163373ffffffffffffffffffffffffffffffffffffffff16146040518060400160405280600181526020017f3200000000000000000000000000000000000000000000000000000000000000815250906131b5576040517f08c379a00000000000000000000000000000000000000000000000000000000081526004016131ac9190614cc2565b60405180910390fd5b508060125f6101000a81548173ffffffffffffffffffffffffffffffffffffffff021916908373ffffffffffffffffffffffffffffffffffffffff16021790555050565b5f8054906101000a900473ffffffffffffffffffffffffffffffffffffffff1681565b60085481565b5f60095f9054906101000a900473ffffffffffffffffffffffffffffffffffffffff16905090565b60025f9054906101000a900473ffffffffffffffffffffffffffffffffffffffff1681565b601c5481565b60165481565b60095f9054906101000a900473ffffffffffffffffffffffffffffffffffffffff1681565b5f80151582151503613356575f805f805f60105f9054906101000a900473ffffffffffffffffffffffffffffffffffffffff1673ffffffffffffffffffffffffffffffffffffffff1663feaf968c6040518163ffffffff1660e01b815260040160a060405180830381865afa15801561331b573d5f803e3d5ffd5b505050506040513d601f19601f8201168201806040525081019061333f919061523c565b9450945094509450945083955050505050506133fc565b5f805f805f60115f9054906101000a900473ffffffffffffffffffffffffffffffffffffffff1673ffffffffffffffffffffffffffffffffffffffff1663feaf968c6040518163ffffffff1660e01b815260040160a060405180830381865afa1580156133c5573d5f803e3d5ffd5b505050506040513d601f19601f820116820180604052508101906133e9919061523c565b9450945094509450945083955050505050505b92915050565b5f805f805f805f60015f9054906101000a900473ffffffffffffffffffffffffffffffffffffffff1673ffffffffffffffffffffffffffffffffffffffff1663026b1d5f6040518163ffffffff1660e01b8152600401602060405180830381865afa158015613473573d5f803e3d5ffd5b505050506040513d601f19601f820116820180604052508101906134979190614d35565b90508073ffffffffffffffffffffffffffffffffffffffff1663bf92857c896040518263ffffffff1660e01b81526004016134d29190614403565b60c060405180830381865afa1580156134ed573d5f803e3d5ffd5b505050506040513d601f19601f8201168201806040525081019061351191906152b3565b9650965096509650965096505091939550919395565b60035f9054906101000a900473ffffffffffffffffffffffffffffffffffffffff1681565b60045f9054906101000a900473ffffffffffffffffffffffffffffffffffffffff1681565b60055f9054906101000a900473ffffffffffffffffffffffffffffffffffffffff1681565b60015f9054906101000a900473ffffffffffffffffffffffffffffffffffffffff1681565b60145f9054906101000a900473ffffffffffffffffffffffffffffffffffffffff1681565b5f8054906101000a900473ffffffffffffffffffffffffffffffffffffffff1673ffffffffffffffffffffffffffffffffffffffff163373ffffffffffffffffffffffffffffffffffffffff16146040518060400160405280600181526020017f3200000000000000000000000000000000000000000000000000000000000000815250906136a5576040517f08c379a000000000000000000000000000000000000000000000000000000000815260040161369c9190614cc2565b60405180910390fd5b5080601d8190555081601c8190555082601b81905550505050565b601b5481565b5f8054906101000a900473ffffffffffffffffffffffffffffffffffffffff1673ffffffffffffffffffffffffffffffffffffffff163373ffffffffffffffffffffffffffffffffffffffff16146040518060400160405280600181526020017f32000000000000000000000000000000000000000000000000000000000000008152509061378b576040517f08c379a00000000000000000000000000000000000000000000000000000000081526004016137829190614cc2565b60405180910390fd5b506001600a6001015f6101000a81548160ff021916908315150217905550565b5f6137d88260035f9054906101000a900473ffffffffffffffffffffffffffffffffffffffff1686613f33565b5f60045f9054906101000a900473ffffffffffffffffffffffffffffffffffffffff1673ffffffffffffffffffffffffffffffffffffffff16631698ee828486610bb86040518463ffffffff1660e01b81526004016138399392919061533c565b602060405180830381865afa158015613854573d5f803e3d5ffd5b505050506040513d601f19601f820116820180604052508101906138789190614d35565b90505f8173ffffffffffffffffffffffffffffffffffffffff1663ddca3f436040518163ffffffff1660e01b8152600401602060405180830381865afa1580156138c4573d5f803e3d5ffd5b505050506040513d601f19601f820116820180604052508101906138e8919061539b565b90505f6040518060e001604052808673ffffffffffffffffffffffffffffffffffffffff1681526020018773ffffffffffffffffffffffffffffffffffffffff1681526020018362ffffff1681526020013073ffffffffffffffffffffffffffffffffffffffff1681526020018881526020015f81526020015f73ffffffffffffffffffffffffffffffffffffffff16815250905060035f9054906101000a900473ffffffffffffffffffffffffffffffffffffffff1673ffffffffffffffffffffffffffffffffffffffff166304e45aaf826040518263ffffffff1660e01b81526004016139d79190615470565b6020604051808303815f875af11580156139f3573d5f803e3d5ffd5b505050506040513d601f19601f82011682018060405250810190613a179190614cf6565b93505050509392505050565b5f8060045f9054906101000a900473ffffffffffffffffffffffffffffffffffffffff1673ffffffffffffffffffffffffffffffffffffffff16631698ee828486610bb86040518463ffffffff1660e01b8152600401613a859392919061533c565b602060405180830381865afa158015613aa0573d5f803e3d5ffd5b505050506040513d601f19601f82011682018060405250810190613ac49190614d35565b90505f8173ffffffffffffffffffffffffffffffffffffffff1663ddca3f436040518163ffffffff1660e01b8152600401602060405180830381865afa158015613b10573d5f803e3d5ffd5b505050506040513d601f19601f82011682018060405250810190613b34919061539b565b90505f6040518060a001604052808673ffffffffffffffffffffffffffffffffffffffff1681526020018773ffffffffffffffffffffffffffffffffffffffff1681526020018881526020018362ffffff1681526020015f73ffffffffffffffffffffffffffffffffffffffff1681525090505f805f8060055f9054906101000a900473ffffffffffffffffffffffffffffffffffffffff1673ffffffffffffffffffffffffffffffffffffffff1663c6a5026a866040518263ffffffff1660e01b8152600401613c0591906154ef565b6080604051808303815f875af1158015613c21573d5f803e3d5ffd5b505050506040513d601f19601f82011682018060405250810190613c45919061556b565b9350935093509350839750505050505050509392505050565b5f613c8b8260035f9054906101000a900473ffffffffffffffffffffffffffffffffffffffff1686613f33565b5f60045f9054906101000a900473ffffffffffffffffffffffffffffffffffffffff1673ffffffffffffffffffffffffffffffffffffffff16631698ee828486610bb86040518463ffffffff1660e01b8152600401613cec9392919061533c565b602060405180830381865afa158015613d07573d5f803e3d5ffd5b505050506040513d601f19601f82011682018060405250810190613d2b9190614d35565b90505f8173ffffffffffffffffffffffffffffffffffffffff1663ddca3f436040518163ffffffff1660e01b8152600401602060405180830381865afa158015613d77573d5f803e3d5ffd5b505050506040513d601f19601f82011682018060405250810190613d9b919061539b565b90505f6040518060e001604052808673ffffffffffffffffffffffffffffffffffffffff1681526020018773ffffffffffffffffffffffffffffffffffffffff1681526020018362ffffff1681526020013073ffffffffffffffffffffffffffffffffffffffff1681526020018981526020018881526020015f73ffffffffffffffffffffffffffffffffffffffff16815250905060035f9054906101000a900473ffffffffffffffffffffffffffffffffffffffff1673ffffffffffffffffffffffffffffffffffffffff16635023b4df826040518263ffffffff1660e01b8152600401613e8a919061565b565b6020604051808303815f875af1158015613ea6573d5f803e3d5ffd5b505050506040513d601f19601f82011682018060405250810190613eca9190614cf6565b935086841015613f0157613f008560035f9054906101000a900473ffffffffffffffffffffffffffffffffffffffff165f613f33565b5b505050949350505050565b5f7ff0c57e16840df040f15088dc2f81fe391c3923bec73e23a9662efc9c229c6a00905090565b5f808473ffffffffffffffffffffffffffffffffffffffff1663095ea7b360e01b8585604051602401613f67929190614d60565b604051602081830303815290604052907bffffffffffffffffffffffffffffffffffffffffffffffffffffffff19166020820180517bffffffffffffffffffffffffffffffffffffffffffffffffffffffff8381831617835250505050604051613fd191906156b8565b5f604051808303815f865af19150503d805f811461400a576040519150601f19603f3d011682016040523d82523d5f602084013e61400f565b606091505b509150915081801561403c57505f8151148061403b57508080602001905181019061403a9190614d9b565b5b5b61407b576040517f08c379a000000000000000000000000000000000000000000000000000000000815260040161407290615718565b60405180910390fd5b5050505050565b6040518061014001604052805f81526020015f151581526020015f81526020015f151581526020015f73ffffffffffffffffffffffffffffffffffffffff1681526020015f151581526020015f73ffffffffffffffffffffffffffffffffffffffff1681526020015f151581526020015f151581526020015f81525090565b5f819050919050565b61411381614101565b82525050565b5f60208201905061412c5f83018461410a565b92915050565b5f604051905090565b5f80fd5b5f73ffffffffffffffffffffffffffffffffffffffff82169050919050565b5f6141688261413f565b9050919050565b6141788161415e565b8114614182575f80fd5b50565b5f813590506141938161416f565b92915050565b5f8115159050919050565b6141ad81614199565b81146141b7575f80fd5b50565b5f813590506141c8816141a4565b92915050565b5f80604083850312156141e4576141e361413b565b5b5f6141f185828601614185565b9250506020614202858286016141ba565b9150509250929050565b5f6142168261415e565b9050919050565b6142268161420c565b8114614230575f80fd5b50565b5f813590506142418161421d565b92915050565b5f6142518261415e565b9050919050565b61426181614247565b811461426b575f80fd5b50565b5f8135905061427c81614258565b92915050565b5f61428c8261415e565b9050919050565b61429c81614282565b81146142a6575f80fd5b50565b5f813590506142b781614293565b92915050565b5f805f606084860312156142d4576142d361413b565b5b5f6142e186828701614233565b93505060206142f28682870161426e565b9250506040614303868287016142a9565b9150509250925092565b61431681614199565b82525050565b5f60208201905061432f5f83018461430d565b92915050565b5f6040820190506143485f83018561410a565b614355602083018461410a565b9392505050565b61436581614101565b811461436f575f80fd5b50565b5f813590506143808161435c565b92915050565b5f6020828403121561439b5761439a61413b565b5b5f6143a884828501614372565b91505092915050565b5f6080820190506143c45f83018761410a565b6143d1602083018661410a565b6143de604083018561410a565b6143eb606083018461410a565b95945050505050565b6143fd8161415e565b82525050565b5f6020820190506144165f8301846143f4565b92915050565b5f80604083850312156144325761443161413b565b5b5f61443f85828601614372565b925050602061445085828601614372565b9150509250929050565b61446381614101565b82525050565b61447281614199565b82525050565b6144818161415e565b82525050565b5f819050919050565b5f6144aa6144a56144a08461413f565b614487565b61413f565b9050919050565b5f6144bb82614490565b9050919050565b5f6144cc826144b1565b9050919050565b6144dc816144c2565b82525050565b61014082015f8201516144f75f85018261445a565b50602082015161450a6020850182614469565b50604082015161451d604085018261445a565b5060608201516145306060850182614469565b5060808201516145436080850182614478565b5060a082015161455660a0850182614469565b5060c082015161456960c08501826144d3565b5060e082015161457c60e0850182614469565b50610100820151614591610100850182614469565b506101208201516145a661012085018261445a565b50505050565b5f610140820190506145c05f8301846144e2565b92915050565b5f6145d0826144b1565b9050919050565b6145e0816145c6565b82525050565b5f6020820190506145f95f8301846145d7565b92915050565b5f80fd5b5f601f19601f8301169050919050565b7f4e487b71000000000000000000000000000000000000000000000000000000005f52604160045260245ffd5b61464982614603565b810181811067ffffffffffffffff8211171561466857614667614613565b5b80604052505050565b5f61467a614132565b90506146868282614640565b919050565b5f6146958261415e565b9050919050565b6146a58161468b565b81146146af575f80fd5b50565b5f813590506146c08161469c565b92915050565b5f61014082840312156146dc576146db6145ff565b5b6146e7610140614671565b90505f6146f684828501614372565b5f830152506020614709848285016141ba565b602083015250604061471d84828501614372565b6040830152506060614731848285016141ba565b606083015250608061474584828501614185565b60808301525060a0614759848285016141ba565b60a08301525060c061476d848285016146b2565b60c08301525060e0614781848285016141ba565b60e083015250610100614796848285016141ba565b610100830152506101206147ac84828501614372565b6101208301525092915050565b5f6147c38261415e565b9050919050565b6147d3816147b9565b81146147dd575f80fd5b50565b5f813590506147ee816147ca565b92915050565b5f6147fe8261415e565b9050919050565b61480e816147f4565b8114614818575f80fd5b50565b5f8135905061482981614805565b92915050565b5f6148398261415e565b9050919050565b6148498161482f565b8114614853575f80fd5b50565b5f8135905061486481614840565b92915050565b5f805f805f805f805f6102408a8c0312156148885761488761413b565b5b5f6148958c828d016146c6565b9950506101406148a78c828d016146b2565b9850506101606148b98c828d016147e0565b9750506101806148cb8c828d016146b2565b9650506101a06148dd8c828d01614372565b9550506101c06148ef8c828d01614372565b9450506101e06149018c828d0161481b565b9350506102006149138c828d0161481b565b9250506102206149258c828d01614856565b9150509295985092959850929598565b5f805f6060848603121561494c5761494b61413b565b5b5f61495986828701614372565b935050602061496a86828701614372565b925050604061497b86828701614372565b9150509250925092565b5f62ffffff82169050919050565b61499c81614985565b82525050565b5f6020820190506149b55f830184614993565b92915050565b6149c4816144c2565b82525050565b5f610140820190506149de5f83018d61410a565b6149eb602083018c61430d565b6149f8604083018b61410a565b614a05606083018a61430d565b614a1260808301896143f4565b614a1f60a083018861430d565b614a2c60c08301876149bb565b614a3960e083018661430d565b614a4761010083018561430d565b614a5561012083018461410a565b9b9a5050505050505050505050565b5f60208284031215614a7957614a7861413b565b5b5f614a8684828501614185565b91505092915050565b5f602082019050614aa25f8301846149bb565b92915050565b5f8060408385031215614abe57614abd61413b565b5b5f614acb858286016146b2565b9250506020614adc858286016141ba565b9150509250929050565b5f60c082019050614af95f83018961410a565b614b06602083018861410a565b614b13604083018761410a565b614b20606083018661410a565b614b2d608083018561410a565b614b3a60a083018461410a565b979650505050505050565b5f614b4f826144b1565b9050919050565b614b5f81614b45565b82525050565b5f602082019050614b785f830184614b56565b92915050565b5f614b88826144b1565b9050919050565b614b9881614b7e565b82525050565b5f602082019050614bb15f830184614b8f565b92915050565b5f614bc1826144b1565b9050919050565b614bd181614bb7565b82525050565b5f602082019050614bea5f830184614bc8565b92915050565b5f614bfa826144b1565b9050919050565b614c0a81614bf0565b82525050565b5f602082019050614c235f830184614c01565b92915050565b5f614c33826144b1565b9050919050565b614c4381614c29565b82525050565b5f602082019050614c5c5f830184614c3a565b92915050565b5f81519050919050565b5f82825260208201905092915050565b8281835e5f83830152505050565b5f614c9482614c62565b614c9e8185614c6c565b9350614cae818560208601614c7c565b614cb781614603565b840191505092915050565b5f6020820190508181035f830152614cda8184614c8a565b905092915050565b5f81519050614cf08161435c565b92915050565b5f60208284031215614d0b57614d0a61413b565b5b5f614d1884828501614ce2565b91505092915050565b5f81519050614d2f8161416f565b92915050565b5f60208284031215614d4a57614d4961413b565b5b5f614d5784828501614d21565b91505092915050565b5f604082019050614d735f8301856143f4565b614d80602083018461410a565b9392505050565b5f81519050614d95816141a4565b92915050565b5f60208284031215614db057614daf61413b565b5b5f614dbd84828501614d87565b91505092915050565b5f61ffff82169050919050565b614ddc81614dc6565b82525050565b5f608082019050614df55f8301876143f4565b614e02602083018661410a565b614e0f60408301856143f4565b614e1c6060830184614dd3565b95945050505050565b7f4e487b71000000000000000000000000000000000000000000000000000000005f52601160045260245ffd5b5f614e5c82614101565b9150614e6783614101565b9250828201905080821115614e7f57614e7e614e25565b5b92915050565b5f614e8f82614101565b9150614e9a83614101565b9250828202614ea881614101565b91508282048414831517614ebf57614ebe614e25565b5b5092915050565b7f4e487b71000000000000000000000000000000000000000000000000000000005f52601260045260245ffd5b5f614efd82614101565b9150614f0883614101565b925082614f1857614f17614ec6565b5b828204905092915050565b5f614f2d82614101565b9150614f3883614101565b9250828203905081811115614f5057614f4f614e25565b5b92915050565b5f60ff82169050919050565b614f6b81614f56565b8114614f75575f80fd5b50565b5f81519050614f8681614f62565b92915050565b5f60208284031215614fa157614fa061413b565b5b5f614fae84828501614f78565b91505092915050565b5f8160011c9050919050565b5f808291508390505b600185111561500c57808604811115614fe857614fe7614e25565b5b6001851615614ff75780820291505b808102905061500585614fb7565b9450614fcc565b94509492505050565b5f8261502457600190506150df565b81615031575f90506150df565b8160018114615047576002811461505157615080565b60019150506150df565b60ff84111561506357615062614e25565b5b8360020a91508482111561507a57615079614e25565b5b506150df565b5060208310610133831016604e8410600b84101617156150b55782820a9050838111156150b0576150af614e25565b5b6150df565b6150c28484846001614fc3565b925090508184048111156150d9576150d8614e25565b5b81810290505b9392505050565b5f6150f082614101565b91506150fb83614f56565b92506151287fffffffffffffffffffffffffffffffffffffffffffffffffffffffffffffffff8484615015565b905092915050565b5f819050919050565b5f67ffffffffffffffff82169050919050565b5f61516661516161515c84615130565b614487565b615139565b9050919050565b6151768161514c565b82525050565b5f60208201905061518f5f83018461516d565b92915050565b5f6060820190506151a85f8301866143f4565b6151b5602083018561410a565b6151c260408301846143f4565b949350505050565b5f69ffffffffffffffffffff82169050919050565b6151e8816151ca565b81146151f2575f80fd5b50565b5f81519050615203816151df565b92915050565b5f819050919050565b61521b81615209565b8114615225575f80fd5b50565b5f8151905061523681615212565b92915050565b5f805f805f60a086880312156152555761525461413b565b5b5f615262888289016151f5565b955050602061527388828901615228565b945050604061528488828901614ce2565b935050606061529588828901614ce2565b92505060806152a6888289016151f5565b9150509295509295909350565b5f805f805f8060c087890312156152cd576152cc61413b565b5b5f6152da89828a01614ce2565b96505060206152eb89828a01614ce2565b95505060406152fc89828a01614ce2565b945050606061530d89828a01614ce2565b935050608061531e89828a01614ce2565b92505060a061532f89828a01614ce2565b9150509295509295509295565b5f60608201905061534f5f8301866143f4565b61535c60208301856143f4565b6153696040830184614993565b949350505050565b61537a81614985565b8114615384575f80fd5b50565b5f8151905061539581615371565b92915050565b5f602082840312156153b0576153af61413b565b5b5f6153bd84828501615387565b91505092915050565b6153cf81614985565b82525050565b6153de8161413f565b82525050565b60e082015f8201516153f85f850182614478565b50602082015161540b6020850182614478565b50604082015161541e60408501826153c6565b5060608201516154316060850182614478565b506080820151615444608085018261445a565b5060a082015161545760a085018261445a565b5060c082015161546a60c08501826153d5565b50505050565b5f60e0820190506154835f8301846153e4565b92915050565b60a082015f82015161549d5f850182614478565b5060208201516154b06020850182614478565b5060408201516154c3604085018261445a565b5060608201516154d660608501826153c6565b5060808201516154e960808501826153d5565b50505050565b5f60a0820190506155025f830184615489565b92915050565b6155118161413f565b811461551b575f80fd5b50565b5f8151905061552c81615508565b92915050565b5f63ffffffff82169050919050565b61554a81615532565b8114615554575f80fd5b50565b5f8151905061556581615541565b92915050565b5f805f80608085870312156155835761558261413b565b5b5f61559087828801614ce2565b94505060206155a18782880161551e565b93505060406155b287828801615557565b92505060606155c387828801614ce2565b91505092959194509250565b60e082015f8201516155e35f850182614478565b5060208201516155f66020850182614478565b50604082015161560960408501826153c6565b50606082015161561c6060850182614478565b50608082015161562f608085018261445a565b5060a082015161564260a085018261445a565b5060c082015161565560c08501826153d5565b50505050565b5f60e08201905061566e5f8301846155cf565b92915050565b5f81519050919050565b5f81905092915050565b5f61569282615674565b61569c818561567e565b93506156ac818560208601614c7c565b80840191505092915050565b5f6156c38284615688565b915081905092915050565b7f53410000000000000000000000000000000000000000000000000000000000005f82015250565b5f615702600283614c6c565b915061570d826156ce565b602082019050919050565b5f6020820190508181035f83015261572f816156f6565b905091905056fea2646970667358221220bc32574b84a50ec06ed57aa4f43502fa4f726e62d1db02bce28ec9e65a1d00e264736f6c634300081a0033",
			"opcodes": "PUSH1 0x80 PUSH1 0x40 MSTORE CALLVALUE DUP1 ISZERO PUSH1 0xE JUMPI PUSH0 DUP1 REVERT JUMPDEST POP PUSH2 0x576C DUP1 PUSH2 0x1C PUSH0 CODECOPY PUSH0 RETURN INVALID PUSH1 0x80 PUSH1 0x40 MSTORE PUSH1 0x4 CALLDATASIZE LT PUSH2 0x2B1 JUMPI PUSH0 CALLDATALOAD PUSH1 0xE0 SHR DUP1 PUSH4 0x6A7B35DB GT PUSH2 0x174 JUMPI DUP1 PUSH4 0xA58BAB62 GT PUSH2 0xDB JUMPI DUP1 PUSH4 0xC45A0155 GT PUSH2 0x94 JUMPI DUP1 PUSH4 0xF2428621 GT PUSH2 0x6E JUMPI DUP1 PUSH4 0xF2428621 EQ PUSH2 0xA90 JUMPI DUP1 PUSH4 0xF3CF4ADA EQ PUSH2 0xABA JUMPI DUP1 PUSH4 0xF6597BBB EQ PUSH2 0xAE2 JUMPI DUP1 PUSH4 0xFAB320E9 EQ PUSH2 0xB0C JUMPI PUSH2 0x2B8 JUMP JUMPDEST DUP1 PUSH4 0xC45A0155 EQ PUSH2 0xA12 JUMPI DUP1 PUSH4 0xC6BBD5A7 EQ PUSH2 0xA3C JUMPI DUP1 PUSH4 0xCDAABE41 EQ PUSH2 0xA66 JUMPI PUSH2 0x2B8 JUMP JUMPDEST DUP1 PUSH4 0xA58BAB62 EQ PUSH2 0x8ED JUMPI DUP1 PUSH4 0xA95D7132 EQ PUSH2 0x917 JUMPI DUP1 PUSH4 0xB2016BD4 EQ PUSH2 0x941 JUMPI DUP1 PUSH4 0xB3BFFEAA EQ PUSH2 0x96B JUMPI DUP1 PUSH4 0xBF92857C EQ PUSH2 0x9A7 JUMPI DUP1 PUSH4 0xC31C9C07 EQ PUSH2 0x9E8 JUMPI PUSH2 0x2B8 JUMP JUMPDEST DUP1 PUSH4 0x894059C6 GT PUSH2 0x12D JUMPI DUP1 PUSH4 0x894059C6 EQ PUSH2 0x7F5 JUMPI DUP1 PUSH4 0x8AC1B775 EQ PUSH2 0x81D JUMPI DUP1 PUSH4 0x8DA5CB5B EQ PUSH2 0x845 JUMPI DUP1 PUSH4 0x92D09CEB EQ PUSH2 0x86F JUMPI DUP1 PUSH4 0x96423663 EQ PUSH2 0x899 JUMPI DUP1 PUSH4 0xA0C1F15E EQ PUSH2 0x8C3 JUMPI PUSH2 0x2B8 JUMP JUMPDEST DUP1 PUSH4 0x6A7B35DB EQ PUSH2 0x6F4 JUMPI DUP1 PUSH4 0x6CB0AB5E EQ PUSH2 0x71C JUMPI DUP1 PUSH4 0x72F5D98A EQ PUSH2 0x744 JUMPI DUP1 PUSH4 0x741BEF1A EQ PUSH2 0x76E JUMPI DUP1 PUSH4 0x792F436F EQ PUSH2 0x798 JUMPI DUP1 PUSH4 0x7CE67D60 EQ PUSH2 0x7C2 JUMPI PUSH2 0x2B8 JUMP JUMPDEST DUP1 PUSH4 0x3A0720E6 GT PUSH2 0x218 JUMPI DUP1 PUSH4 0x58B275D7 GT PUSH2 0x1D1 JUMPI DUP1 PUSH4 0x58B275D7 EQ PUSH2 0x5D3 JUMPI DUP1 PUSH4 0x5D3E2FA1 EQ PUSH2 0x612 JUMPI DUP1 PUSH4 0x62965D8E EQ PUSH2 0x63C JUMPI DUP1 PUSH4 0x6721DE26 EQ PUSH2 0x666 JUMPI DUP1 PUSH4 0x68DCAD58 EQ PUSH2 0x68E JUMPI DUP1 PUSH4 0x69FA97C0 EQ PUSH2 0x6B8 JUMPI PUSH2 0x2B8 JUMP JUMPDEST DUP1 PUSH4 0x3A0720E6 EQ PUSH2 0x4B0 JUMPI DUP1 PUSH4 0x4031234C EQ PUSH2 0x4DA JUMPI DUP1 PUSH4 0x415F1240 EQ PUSH2 0x504 JUMPI DUP1 PUSH4 0x4BDE38C8 EQ PUSH2 0x543 JUMPI DUP1 PUSH4 0x4D2C872A EQ PUSH2 0x56D JUMPI DUP1 PUSH4 0x5825F535 EQ PUSH2 0x5A9 JUMPI PUSH2 0x2B8 JUMP JUMPDEST DUP1 PUSH4 0x1C783DEF GT PUSH2 0x26A JUMPI DUP1 PUSH4 0x1C783DEF EQ PUSH2 0x3A0 JUMPI DUP1 PUSH4 0x232FA733 EQ PUSH2 0x3CA JUMPI DUP1 PUSH4 0x288CC89E EQ PUSH2 0x3F5 JUMPI DUP1 PUSH4 0x315DEEAA EQ PUSH2 0x41F JUMPI DUP1 PUSH4 0x32DF398E EQ PUSH2 0x449 JUMPI DUP1 PUSH4 0x3666EEFA EQ PUSH2 0x473 JUMPI PUSH2 0x2B8 JUMP JUMPDEST DUP1 PUSH4 0x5B57C0B EQ PUSH2 0x2BC JUMPI DUP1 PUSH4 0x7A6BF69 EQ PUSH2 0x2E6 JUMPI DUP1 PUSH4 0x101B9D31 EQ PUSH2 0x2FC JUMPI DUP1 PUSH4 0x102CB82E EQ PUSH2 0x326 JUMPI DUP1 PUSH4 0x10AC5C3C EQ PUSH2 0x34E JUMPI DUP1 PUSH4 0x11256603 EQ PUSH2 0x376 JUMPI PUSH2 0x2B8 JUMP JUMPDEST CALLDATASIZE PUSH2 0x2B8 JUMPI STOP JUMPDEST PUSH0 DUP1 REVERT JUMPDEST CALLVALUE DUP1 ISZERO PUSH2 0x2C7 JUMPI PUSH0 DUP1 REVERT JUMPDEST POP PUSH2 0x2D0 PUSH2 0xB22 JUMP JUMPDEST PUSH1 0x40 MLOAD PUSH2 0x2DD SWAP2 SWAP1 PUSH2 0x4119 JUMP JUMPDEST PUSH1 0x40 MLOAD DUP1 SWAP2 SUB SWAP1 RETURN JUMPDEST CALLVALUE DUP1 ISZERO PUSH2 0x2F1 JUMPI PUSH0 DUP1 REVERT JUMPDEST POP PUSH2 0x2FA PUSH2 0xB28 JUMP JUMPDEST STOP JUMPDEST CALLVALUE DUP1 ISZERO PUSH2 0x307 JUMPI PUSH0 DUP1 REVERT JUMPDEST POP PUSH2 0x310 PUSH2 0xF0E JUMP JUMPDEST PUSH1 0x40 MLOAD PUSH2 0x31D SWAP2 SWAP1 PUSH2 0x4119 JUMP JUMPDEST PUSH1 0x40 MLOAD DUP1 SWAP2 SUB SWAP1 RETURN JUMPDEST CALLVALUE DUP1 ISZERO PUSH2 0x331 JUMPI PUSH0 DUP1 REVERT JUMPDEST POP PUSH2 0x34C PUSH1 0x4 DUP1 CALLDATASIZE SUB DUP2 ADD SWAP1 PUSH2 0x347 SWAP2 SWAP1 PUSH2 0x41CE JUMP JUMPDEST PUSH2 0xF14 JUMP JUMPDEST STOP JUMPDEST CALLVALUE DUP1 ISZERO PUSH2 0x359 JUMPI PUSH0 DUP1 REVERT JUMPDEST POP PUSH2 0x374 PUSH1 0x4 DUP1 CALLDATASIZE SUB DUP2 ADD SWAP1 PUSH2 0x36F SWAP2 SWAP1 PUSH2 0x42BD JUMP JUMPDEST PUSH2 0x13EA JUMP JUMPDEST STOP JUMPDEST CALLVALUE DUP1 ISZERO PUSH2 0x381 JUMPI PUSH0 DUP1 REVERT JUMPDEST POP PUSH2 0x38A PUSH2 0x1575 JUMP JUMPDEST PUSH1 0x40 MLOAD PUSH2 0x397 SWAP2 SWAP1 PUSH2 0x431C JUMP JUMPDEST PUSH1 0x40 MLOAD DUP1 SWAP2 SUB SWAP1 RETURN JUMPDEST CALLVALUE DUP1 ISZERO PUSH2 0x3AB JUMPI PUSH0 DUP1 REVERT JUMPDEST POP PUSH2 0x3B4 PUSH2 0x1588 JUMP JUMPDEST PUSH1 0x40 MLOAD PUSH2 0x3C1 SWAP2 SWAP1 PUSH2 0x431C JUMP JUMPDEST PUSH1 0x40 MLOAD DUP1 SWAP2 SUB SWAP1 RETURN JUMPDEST CALLVALUE DUP1 ISZERO PUSH2 0x3D5 JUMPI PUSH0 DUP1 REVERT JUMPDEST POP PUSH2 0x3DE PUSH2 0x159E JUMP JUMPDEST PUSH1 0x40 MLOAD PUSH2 0x3EC SWAP3 SWAP2 SWAP1 PUSH2 0x4335 JUMP JUMPDEST PUSH1 0x40 MLOAD DUP1 SWAP2 SUB SWAP1 RETURN JUMPDEST CALLVALUE DUP1 ISZERO PUSH2 0x400 JUMPI PUSH0 DUP1 REVERT JUMPDEST POP PUSH2 0x409 PUSH2 0x19B5 JUMP JUMPDEST PUSH1 0x40 MLOAD PUSH2 0x416 SWAP2 SWAP1 PUSH2 0x4119 JUMP JUMPDEST PUSH1 0x40 MLOAD DUP1 SWAP2 SUB SWAP1 RETURN JUMPDEST CALLVALUE DUP1 ISZERO PUSH2 0x42A JUMPI PUSH0 DUP1 REVERT JUMPDEST POP PUSH2 0x433 PUSH2 0x19BB JUMP JUMPDEST PUSH1 0x40 MLOAD PUSH2 0x440 SWAP2 SWAP1 PUSH2 0x4119 JUMP JUMPDEST PUSH1 0x40 MLOAD DUP1 SWAP2 SUB SWAP1 RETURN JUMPDEST CALLVALUE DUP1 ISZERO PUSH2 0x454 JUMPI PUSH0 DUP1 REVERT JUMPDEST POP PUSH2 0x45D PUSH2 0x19C4 JUMP JUMPDEST PUSH1 0x40 MLOAD PUSH2 0x46A SWAP2 SWAP1 PUSH2 0x4119 JUMP JUMPDEST PUSH1 0x40 MLOAD DUP1 SWAP2 SUB SWAP1 RETURN JUMPDEST CALLVALUE DUP1 ISZERO PUSH2 0x47E JUMPI PUSH0 DUP1 REVERT JUMPDEST POP PUSH2 0x499 PUSH1 0x4 DUP1 CALLDATASIZE SUB DUP2 ADD SWAP1 PUSH2 0x494 SWAP2 SWAP1 PUSH2 0x4386 JUMP JUMPDEST PUSH2 0x19CA JUMP JUMPDEST PUSH1 0x40 MLOAD PUSH2 0x4A7 SWAP3 SWAP2 SWAP1 PUSH2 0x4335 JUMP JUMPDEST PUSH1 0x40 MLOAD DUP1 SWAP2 SUB SWAP1 RETURN JUMPDEST CALLVALUE DUP1 ISZERO PUSH2 0x4BB JUMPI PUSH0 DUP1 REVERT JUMPDEST POP PUSH2 0x4C4 PUSH2 0x1B98 JUMP JUMPDEST PUSH1 0x40 MLOAD PUSH2 0x4D1 SWAP2 SWAP1 PUSH2 0x4119 JUMP JUMPDEST PUSH1 0x40 MLOAD DUP1 SWAP2 SUB SWAP1 RETURN JUMPDEST CALLVALUE DUP1 ISZERO PUSH2 0x4E5 JUMPI PUSH0 DUP1 REVERT JUMPDEST POP PUSH2 0x4EE PUSH2 0x1B9E JUMP JUMPDEST PUSH1 0x40 MLOAD PUSH2 0x4FB SWAP2 SWAP1 PUSH2 0x4119 JUMP JUMPDEST PUSH1 0x40 MLOAD DUP1 SWAP2 SUB SWAP1 RETURN JUMPDEST CALLVALUE DUP1 ISZERO PUSH2 0x50F JUMPI PUSH0 DUP1 REVERT JUMPDEST POP PUSH2 0x52A PUSH1 0x4 DUP1 CALLDATASIZE SUB DUP2 ADD SWAP1 PUSH2 0x525 SWAP2 SWAP1 PUSH2 0x4386 JUMP JUMPDEST PUSH2 0x1BA4 JUMP JUMPDEST PUSH1 0x40 MLOAD PUSH2 0x53A SWAP5 SWAP4 SWAP3 SWAP2 SWAP1 PUSH2 0x43B1 JUMP JUMPDEST PUSH1 0x40 MLOAD DUP1 SWAP2 SUB SWAP1 RETURN JUMPDEST CALLVALUE DUP1 ISZERO PUSH2 0x54E JUMPI PUSH0 DUP1 REVERT JUMPDEST POP PUSH2 0x557 PUSH2 0x1F05 JUMP JUMPDEST PUSH1 0x40 MLOAD PUSH2 0x564 SWAP2 SWAP1 PUSH2 0x4403 JUMP JUMPDEST PUSH1 0x40 MLOAD DUP1 SWAP2 SUB SWAP1 RETURN JUMPDEST CALLVALUE DUP1 ISZERO PUSH2 0x578 JUMPI PUSH0 DUP1 REVERT JUMPDEST POP PUSH2 0x593 PUSH1 0x4 DUP1 CALLDATASIZE SUB DUP2 ADD SWAP1 PUSH2 0x58E SWAP2 SWAP1 PUSH2 0x441C JUMP JUMPDEST PUSH2 0x1F2A JUMP JUMPDEST PUSH1 0x40 MLOAD PUSH2 0x5A0 SWAP2 SWAP1 PUSH2 0x4119 JUMP JUMPDEST PUSH1 0x40 MLOAD DUP1 SWAP2 SUB SWAP1 RETURN JUMPDEST CALLVALUE DUP1 ISZERO PUSH2 0x5B4 JUMPI PUSH0 DUP1 REVERT JUMPDEST POP PUSH2 0x5BD PUSH2 0x2141 JUMP JUMPDEST PUSH1 0x40 MLOAD PUSH2 0x5CA SWAP2 SWAP1 PUSH2 0x4403 JUMP JUMPDEST PUSH1 0x40 MLOAD DUP1 SWAP2 SUB SWAP1 RETURN JUMPDEST CALLVALUE DUP1 ISZERO PUSH2 0x5DE JUMPI PUSH0 DUP1 REVERT JUMPDEST POP PUSH2 0x5F9 PUSH1 0x4 DUP1 CALLDATASIZE SUB DUP2 ADD SWAP1 PUSH2 0x5F4 SWAP2 SWAP1 PUSH2 0x441C JUMP JUMPDEST PUSH2 0x2166 JUMP JUMPDEST PUSH1 0x40 MLOAD PUSH2 0x609 SWAP5 SWAP4 SWAP3 SWAP2 SWAP1 PUSH2 0x43B1 JUMP JUMPDEST PUSH1 0x40 MLOAD DUP1 SWAP2 SUB SWAP1 RETURN JUMPDEST CALLVALUE DUP1 ISZERO PUSH2 0x61D JUMPI PUSH0 DUP1 REVERT JUMPDEST POP PUSH2 0x626 PUSH2 0x2259 JUMP JUMPDEST PUSH1 0x40 MLOAD PUSH2 0x633 SWAP2 SWAP1 PUSH2 0x45AC JUMP JUMPDEST PUSH1 0x40 MLOAD DUP1 SWAP2 SUB SWAP1 RETURN JUMPDEST CALLVALUE DUP1 ISZERO PUSH2 0x647 JUMPI PUSH0 DUP1 REVERT JUMPDEST POP PUSH2 0x650 PUSH2 0x23C1 JUMP JUMPDEST PUSH1 0x40 MLOAD PUSH2 0x65D SWAP2 SWAP1 PUSH2 0x4119 JUMP JUMPDEST PUSH1 0x40 MLOAD DUP1 SWAP2 SUB SWAP1 RETURN JUMPDEST CALLVALUE DUP1 ISZERO PUSH2 0x671 JUMPI PUSH0 DUP1 REVERT JUMPDEST POP PUSH2 0x68C PUSH1 0x4 DUP1 CALLDATASIZE SUB DUP2 ADD SWAP1 PUSH2 0x687 SWAP2 SWAP1 PUSH2 0x4386 JUMP JUMPDEST PUSH2 0x23C7 JUMP JUMPDEST STOP JUMPDEST CALLVALUE DUP1 ISZERO PUSH2 0x699 JUMPI PUSH0 DUP1 REVERT JUMPDEST POP PUSH2 0x6A2 PUSH2 0x24A8 JUMP JUMPDEST PUSH1 0x40 MLOAD PUSH2 0x6AF SWAP2 SWAP1 PUSH2 0x45E6 JUMP JUMPDEST PUSH1 0x40 MLOAD DUP1 SWAP2 SUB SWAP1 RETURN JUMPDEST CALLVALUE DUP1 ISZERO PUSH2 0x6C3 JUMPI PUSH0 DUP1 REVERT JUMPDEST POP PUSH2 0x6DE PUSH1 0x4 DUP1 CALLDATASIZE SUB DUP2 ADD SWAP1 PUSH2 0x6D9 SWAP2 SWAP1 PUSH2 0x4386 JUMP JUMPDEST PUSH2 0x24CD JUMP JUMPDEST PUSH1 0x40 MLOAD PUSH2 0x6EB SWAP2 SWAP1 PUSH2 0x4119 JUMP JUMPDEST PUSH1 0x40 MLOAD DUP1 SWAP2 SUB SWAP1 RETURN JUMPDEST CALLVALUE DUP1 ISZERO PUSH2 0x6FF JUMPI PUSH0 DUP1 REVERT JUMPDEST POP PUSH2 0x71A PUSH1 0x4 DUP1 CALLDATASIZE SUB DUP2 ADD SWAP1 PUSH2 0x715 SWAP2 SWAP1 PUSH2 0x486A JUMP JUMPDEST PUSH2 0x259D JUMP JUMPDEST STOP JUMPDEST CALLVALUE DUP1 ISZERO PUSH2 0x727 JUMPI PUSH0 DUP1 REVERT JUMPDEST POP PUSH2 0x742 PUSH1 0x4 DUP1 CALLDATASIZE SUB DUP2 ADD SWAP1 PUSH2 0x73D SWAP2 SWAP1 PUSH2 0x4935 JUMP JUMPDEST PUSH2 0x2A39 JUMP JUMPDEST STOP JUMPDEST CALLVALUE DUP1 ISZERO PUSH2 0x74F JUMPI PUSH0 DUP1 REVERT JUMPDEST POP PUSH2 0x758 PUSH2 0x2B19 JUMP JUMPDEST PUSH1 0x40 MLOAD PUSH2 0x765 SWAP2 SWAP1 PUSH2 0x49A2 JUMP JUMPDEST PUSH1 0x40 MLOAD DUP1 SWAP2 SUB SWAP1 RETURN JUMPDEST CALLVALUE DUP1 ISZERO PUSH2 0x779 JUMPI PUSH0 DUP1 REVERT JUMPDEST POP PUSH2 0x782 PUSH2 0x2B1F JUMP JUMPDEST PUSH1 0x40 MLOAD PUSH2 0x78F SWAP2 SWAP1 PUSH2 0x45E6 JUMP JUMPDEST PUSH1 0x40 MLOAD DUP1 SWAP2 SUB SWAP1 RETURN JUMPDEST CALLVALUE DUP1 ISZERO PUSH2 0x7A3 JUMPI PUSH0 DUP1 REVERT JUMPDEST POP PUSH2 0x7AC PUSH2 0x2B44 JUMP JUMPDEST PUSH1 0x40 MLOAD PUSH2 0x7B9 SWAP2 SWAP1 PUSH2 0x4119 JUMP JUMPDEST PUSH1 0x40 MLOAD DUP1 SWAP2 SUB SWAP1 RETURN JUMPDEST CALLVALUE DUP1 ISZERO PUSH2 0x7CD JUMPI PUSH0 DUP1 REVERT JUMPDEST POP PUSH2 0x7D6 PUSH2 0x2B4A JUMP JUMPDEST PUSH1 0x40 MLOAD PUSH2 0x7EC SWAP11 SWAP10 SWAP9 SWAP8 SWAP7 SWAP6 SWAP5 SWAP4 SWAP3 SWAP2 SWAP1 PUSH2 0x49CA JUMP JUMPDEST PUSH1 0x40 MLOAD DUP1 SWAP2 SUB SWAP1 RETURN JUMPDEST CALLVALUE DUP1 ISZERO PUSH2 0x800 JUMPI PUSH0 DUP1 REVERT JUMPDEST POP PUSH2 0x81B PUSH1 0x4 DUP1 CALLDATASIZE SUB DUP2 ADD SWAP1 PUSH2 0x816 SWAP2 SWAP1 PUSH2 0x4935 JUMP JUMPDEST PUSH2 0x2C09 JUMP JUMPDEST STOP JUMPDEST CALLVALUE DUP1 ISZERO PUSH2 0x828 JUMPI PUSH0 DUP1 REVERT JUMPDEST POP PUSH2 0x843 PUSH1 0x4 DUP1 CALLDATASIZE SUB DUP2 ADD SWAP1 PUSH2 0x83E SWAP2 SWAP1 PUSH2 0x4A64 JUMP JUMPDEST PUSH2 0x30F0 JUMP JUMPDEST STOP JUMPDEST CALLVALUE DUP1 ISZERO PUSH2 0x850 JUMPI PUSH0 DUP1 REVERT JUMPDEST POP PUSH2 0x859 PUSH2 0x31F9 JUMP JUMPDEST PUSH1 0x40 MLOAD PUSH2 0x866 SWAP2 SWAP1 PUSH2 0x4403 JUMP JUMPDEST PUSH1 0x40 MLOAD DUP1 SWAP2 SUB SWAP1 RETURN JUMPDEST CALLVALUE DUP1 ISZERO PUSH2 0x87A JUMPI PUSH0 DUP1 REVERT JUMPDEST POP PUSH2 0x883 PUSH2 0x321C JUMP JUMPDEST PUSH1 0x40 MLOAD PUSH2 0x890 SWAP2 SWAP1 PUSH2 0x4119 JUMP JUMPDEST PUSH1 0x40 MLOAD DUP1 SWAP2 SUB SWAP1 RETURN JUMPDEST CALLVALUE DUP1 ISZERO PUSH2 0x8A4 JUMPI PUSH0 DUP1 REVERT JUMPDEST POP PUSH2 0x8AD PUSH2 0x3222 JUMP JUMPDEST PUSH1 0x40 MLOAD PUSH2 0x8BA SWAP2 SWAP1 PUSH2 0x4A8F JUMP JUMPDEST PUSH1 0x40 MLOAD DUP1 SWAP2 SUB SWAP1 RETURN JUMPDEST CALLVALUE DUP1 ISZERO PUSH2 0x8CE JUMPI PUSH0 DUP1 REVERT JUMPDEST POP PUSH2 0x8D7 PUSH2 0x324A JUMP JUMPDEST PUSH1 0x40 MLOAD PUSH2 0x8E4 SWAP2 SWAP1 PUSH2 0x4A8F JUMP JUMPDEST PUSH1 0x40 MLOAD DUP1 SWAP2 SUB SWAP1 RETURN JUMPDEST CALLVALUE DUP1 ISZERO PUSH2 0x8F8 JUMPI PUSH0 DUP1 REVERT JUMPDEST POP PUSH2 0x901 PUSH2 0x326F JUMP JUMPDEST PUSH1 0x40 MLOAD PUSH2 0x90E SWAP2 SWAP1 PUSH2 0x4119 JUMP JUMPDEST PUSH1 0x40 MLOAD DUP1 SWAP2 SUB SWAP1 RETURN JUMPDEST CALLVALUE DUP1 ISZERO PUSH2 0x922 JUMPI PUSH0 DUP1 REVERT JUMPDEST POP PUSH2 0x92B PUSH2 0x3275 JUMP JUMPDEST PUSH1 0x40 MLOAD PUSH2 0x938 SWAP2 SWAP1 PUSH2 0x4119 JUMP JUMPDEST PUSH1 0x40 MLOAD DUP1 SWAP2 SUB SWAP1 RETURN JUMPDEST CALLVALUE DUP1 ISZERO PUSH2 0x94C JUMPI PUSH0 DUP1 REVERT JUMPDEST POP PUSH2 0x955 PUSH2 0x327B JUMP JUMPDEST PUSH1 0x40 MLOAD PUSH2 0x962 SWAP2 SWAP1 PUSH2 0x4A8F JUMP JUMPDEST PUSH1 0x40 MLOAD DUP1 SWAP2 SUB SWAP1 RETURN JUMPDEST CALLVALUE DUP1 ISZERO PUSH2 0x976 JUMPI PUSH0 DUP1 REVERT JUMPDEST POP PUSH2 0x991 PUSH1 0x4 DUP1 CALLDATASIZE SUB DUP2 ADD SWAP1 PUSH2 0x98C SWAP2 SWAP1 PUSH2 0x4AA8 JUMP JUMPDEST PUSH2 0x32A0 JUMP JUMPDEST PUSH1 0x40 MLOAD PUSH2 0x99E SWAP2 SWAP1 PUSH2 0x4119 JUMP JUMPDEST PUSH1 0x40 MLOAD DUP1 SWAP2 SUB SWAP1 RETURN JUMPDEST CALLVALUE DUP1 ISZERO PUSH2 0x9B2 JUMPI PUSH0 DUP1 REVERT JUMPDEST POP PUSH2 0x9CD PUSH1 0x4 DUP1 CALLDATASIZE SUB DUP2 ADD SWAP1 PUSH2 0x9C8 SWAP2 SWAP1 PUSH2 0x4A64 JUMP JUMPDEST PUSH2 0x3402 JUMP JUMPDEST PUSH1 0x40 MLOAD PUSH2 0x9DF SWAP7 SWAP6 SWAP5 SWAP4 SWAP3 SWAP2 SWAP1 PUSH2 0x4AE6 JUMP JUMPDEST PUSH1 0x40 MLOAD DUP1 SWAP2 SUB SWAP1 RETURN JUMPDEST CALLVALUE DUP1 ISZERO PUSH2 0x9F3 JUMPI PUSH0 DUP1 REVERT JUMPDEST POP PUSH2 0x9FC PUSH2 0x3527 JUMP JUMPDEST PUSH1 0x40 MLOAD PUSH2 0xA09 SWAP2 SWAP1 PUSH2 0x4B65 JUMP JUMPDEST PUSH1 0x40 MLOAD DUP1 SWAP2 SUB SWAP1 RETURN JUMPDEST CALLVALUE DUP1 ISZERO PUSH2 0xA1D JUMPI PUSH0 DUP1 REVERT JUMPDEST POP PUSH2 0xA26 PUSH2 0x354C JUMP JUMPDEST PUSH1 0x40 MLOAD PUSH2 0xA33 SWAP2 SWAP1 PUSH2 0x4B9E JUMP JUMPDEST PUSH1 0x40 MLOAD DUP1 SWAP2 SUB SWAP1 RETURN JUMPDEST CALLVALUE DUP1 ISZERO PUSH2 0xA47 JUMPI PUSH0 DUP1 REVERT JUMPDEST POP PUSH2 0xA50 PUSH2 0x3571 JUMP JUMPDEST PUSH1 0x40 MLOAD PUSH2 0xA5D SWAP2 SWAP1 PUSH2 0x4BD7 JUMP JUMPDEST PUSH1 0x40 MLOAD DUP1 SWAP2 SUB SWAP1 RETURN JUMPDEST CALLVALUE DUP1 ISZERO PUSH2 0xA71 JUMPI PUSH0 DUP1 REVERT JUMPDEST POP PUSH2 0xA7A PUSH2 0x3596 JUMP JUMPDEST PUSH1 0x40 MLOAD PUSH2 0xA87 SWAP2 SWAP1 PUSH2 0x4C10 JUMP JUMPDEST PUSH1 0x40 MLOAD DUP1 SWAP2 SUB SWAP1 RETURN JUMPDEST CALLVALUE DUP1 ISZERO PUSH2 0xA9B JUMPI PUSH0 DUP1 REVERT JUMPDEST POP PUSH2 0xAA4 PUSH2 0x35BB JUMP JUMPDEST PUSH1 0x40 MLOAD PUSH2 0xAB1 SWAP2 SWAP1 PUSH2 0x4C49 JUMP JUMPDEST PUSH1 0x40 MLOAD DUP1 SWAP2 SUB SWAP1 RETURN JUMPDEST CALLVALUE DUP1 ISZERO PUSH2 0xAC5 JUMPI PUSH0 DUP1 REVERT JUMPDEST POP PUSH2 0xAE0 PUSH1 0x4 DUP1 CALLDATASIZE SUB DUP2 ADD SWAP1 PUSH2 0xADB SWAP2 SWAP1 PUSH2 0x4935 JUMP JUMPDEST PUSH2 0x35E0 JUMP JUMPDEST STOP JUMPDEST CALLVALUE DUP1 ISZERO PUSH2 0xAED JUMPI PUSH0 DUP1 REVERT JUMPDEST POP PUSH2 0xAF6 PUSH2 0x36C0 JUMP JUMPDEST PUSH1 0x40 MLOAD PUSH2 0xB03 SWAP2 SWAP1 PUSH2 0x4119 JUMP JUMPDEST PUSH1 0x40 MLOAD DUP1 SWAP2 SUB SWAP1 RETURN JUMPDEST CALLVALUE DUP1 ISZERO PUSH2 0xB17 JUMPI PUSH0 DUP1 REVERT JUMPDEST POP PUSH2 0xB20 PUSH2 0x36C6 JUMP JUMPDEST STOP JUMPDEST PUSH1 0x1A SLOAD DUP2 JUMP JUMPDEST PUSH0 DUP1 SLOAD SWAP1 PUSH2 0x100 EXP SWAP1 DIV PUSH20 0xFFFFFFFFFFFFFFFFFFFFFFFFFFFFFFFFFFFFFFFF AND PUSH20 0xFFFFFFFFFFFFFFFFFFFFFFFFFFFFFFFFFFFFFFFF AND CALLER PUSH20 0xFFFFFFFFFFFFFFFFFFFFFFFFFFFFFFFFFFFFFFFF AND EQ PUSH1 0x40 MLOAD DUP1 PUSH1 0x40 ADD PUSH1 0x40 MSTORE DUP1 PUSH1 0x1 DUP2 MSTORE PUSH1 0x20 ADD PUSH32 0x3200000000000000000000000000000000000000000000000000000000000000 DUP2 MSTORE POP SWAP1 PUSH2 0xBED JUMPI PUSH1 0x40 MLOAD PUSH32 0x8C379A000000000000000000000000000000000000000000000000000000000 DUP2 MSTORE PUSH1 0x4 ADD PUSH2 0xBE4 SWAP2 SWAP1 PUSH2 0x4CC2 JUMP JUMPDEST PUSH1 0x40 MLOAD DUP1 SWAP2 SUB SWAP1 REVERT JUMPDEST POP PUSH0 PUSH1 0x9 PUSH0 SWAP1 SLOAD SWAP1 PUSH2 0x100 EXP SWAP1 DIV PUSH20 0xFFFFFFFFFFFFFFFFFFFFFFFFFFFFFFFFFFFFFFFF AND SWAP1 POP PUSH0 DUP2 PUSH20 0xFFFFFFFFFFFFFFFFFFFFFFFFFFFFFFFFFFFFFFFF AND PUSH4 0x70A08231 ADDRESS PUSH1 0x40 MLOAD DUP3 PUSH4 0xFFFFFFFF AND PUSH1 0xE0 SHL DUP2 MSTORE PUSH1 0x4 ADD PUSH2 0xC4D SWAP2 SWAP1 PUSH2 0x4403 JUMP JUMPDEST PUSH1 0x20 PUSH1 0x40 MLOAD DUP1 DUP4 SUB DUP2 DUP7 GAS STATICCALL ISZERO DUP1 ISZERO PUSH2 0xC68 JUMPI RETURNDATASIZE PUSH0 DUP1 RETURNDATACOPY RETURNDATASIZE PUSH0 REVERT JUMPDEST POP POP POP POP PUSH1 0x40 MLOAD RETURNDATASIZE PUSH1 0x1F NOT PUSH1 0x1F DUP3 ADD AND DUP3 ADD DUP1 PUSH1 0x40 MSTORE POP DUP2 ADD SWAP1 PUSH2 0xC8C SWAP2 SWAP1 PUSH2 0x4CF6 JUMP JUMPDEST SWAP1 POP PUSH0 DUP2 GT PUSH1 0x40 MLOAD DUP1 PUSH1 0x40 ADD PUSH1 0x40 MSTORE DUP1 PUSH1 0x2 DUP2 MSTORE PUSH1 0x20 ADD PUSH32 0x3130000000000000000000000000000000000000000000000000000000000000 DUP2 MSTORE POP SWAP1 PUSH2 0xD08 JUMPI PUSH1 0x40 MLOAD PUSH32 0x8C379A000000000000000000000000000000000000000000000000000000000 DUP2 MSTORE PUSH1 0x4 ADD PUSH2 0xCFF SWAP2 SWAP1 PUSH2 0x4CC2 JUMP JUMPDEST PUSH1 0x40 MLOAD DUP1 SWAP2 SUB SWAP1 REVERT JUMPDEST POP PUSH0 ADDRESS SWAP1 POP PUSH0 DUP1 PUSH1 0x1 PUSH0 SWAP1 SLOAD SWAP1 PUSH2 0x100 EXP SWAP1 DIV PUSH20 0xFFFFFFFFFFFFFFFFFFFFFFFFFFFFFFFFFFFFFFFF AND PUSH20 0xFFFFFFFFFFFFFFFFFFFFFFFFFFFFFFFFFFFFFFFF AND PUSH4 0x26B1D5F PUSH1 0x40 MLOAD DUP2 PUSH4 0xFFFFFFFF AND PUSH1 0xE0 SHL DUP2 MSTORE PUSH1 0x4 ADD PUSH1 0x20 PUSH1 0x40 MLOAD DUP1 DUP4 SUB DUP2 DUP7 GAS STATICCALL ISZERO DUP1 ISZERO PUSH2 0xD79 JUMPI RETURNDATASIZE PUSH0 DUP1 RETURNDATACOPY RETURNDATASIZE PUSH0 REVERT JUMPDEST POP POP POP POP PUSH1 0x40 MLOAD RETURNDATASIZE PUSH1 0x1F NOT PUSH1 0x1F DUP3 ADD AND DUP3 ADD DUP1 PUSH1 0x40 MSTORE POP DUP2 ADD SWAP1 PUSH2 0xD9D SWAP2 SWAP1 PUSH2 0x4D35 JUMP JUMPDEST SWAP1 POP DUP5 PUSH20 0xFFFFFFFFFFFFFFFFFFFFFFFFFFFFFFFFFFFFFFFF AND PUSH4 0x95EA7B3 DUP3 DUP7 PUSH1 0x40 MLOAD DUP4 PUSH4 0xFFFFFFFF AND PUSH1 0xE0 SHL DUP2 MSTORE PUSH1 0x4 ADD PUSH2 0xDDA SWAP3 SWAP2 SWAP1 PUSH2 0x4D60 JUMP JUMPDEST PUSH1 0x20 PUSH1 0x40 MLOAD DUP1 DUP4 SUB DUP2 PUSH0 DUP8 GAS CALL ISZERO DUP1 ISZERO PUSH2 0xDF6 JUMPI RETURNDATASIZE PUSH0 DUP1 RETURNDATACOPY RETURNDATASIZE PUSH0 REVERT JUMPDEST POP POP POP POP PUSH1 0x40 MLOAD RETURNDATASIZE PUSH1 0x1F NOT PUSH1 0x1F DUP3 ADD AND DUP3 ADD DUP1 PUSH1 0x40 MSTORE POP DUP2 ADD SWAP1 PUSH2 0xE1A SWAP2 SWAP1 PUSH2 0x4D9B JUMP JUMPDEST POP DUP1 PUSH20 0xFFFFFFFFFFFFFFFFFFFFFFFFFFFFFFFFFFFFFFFF AND PUSH4 0x617BA037 DUP7 DUP7 DUP7 DUP7 PUSH1 0x40 MLOAD DUP6 PUSH4 0xFFFFFFFF AND PUSH1 0xE0 SHL DUP2 MSTORE PUSH1 0x4 ADD PUSH2 0xE5A SWAP5 SWAP4 SWAP3 SWAP2 SWAP1 PUSH2 0x4DE2 JUMP JUMPDEST PUSH0 PUSH1 0x40 MLOAD DUP1 DUP4 SUB DUP2 PUSH0 DUP8 DUP1 EXTCODESIZE ISZERO DUP1 ISZERO PUSH2 0xE71 JUMPI PUSH0 DUP1 REVERT JUMPDEST POP GAS CALL ISZERO DUP1 ISZERO PUSH2 0xE83 JUMPI RETURNDATASIZE PUSH0 DUP1 RETURNDATACOPY RETURNDATASIZE PUSH0 REVERT JUMPDEST POP POP POP POP DUP5 PUSH20 0xFFFFFFFFFFFFFFFFFFFFFFFFFFFFFFFFFFFFFFFF AND DUP4 PUSH20 0xFFFFFFFFFFFFFFFFFFFFFFFFFFFFFFFFFFFFFFFF AND PUSH32 0x51A2B359618AEB0BCC2A495A6667C0BDBFDDC3BB27EB0DD5B8E3B33A4C15865F DUP7 PUSH1 0x40 MLOAD PUSH2 0xEE4 SWAP2 SWAP1 PUSH2 0x4119 JUMP JUMPDEST PUSH1 0x40 MLOAD DUP1 SWAP2 SUB SWAP1 LOG3 PUSH1 0x1 PUSH1 0x2 PUSH1 0x14 PUSH2 0x100 EXP DUP2 SLOAD DUP2 PUSH1 0xFF MUL NOT AND SWAP1 DUP4 ISZERO ISZERO MUL OR SWAP1 SSTORE POP POP POP POP POP POP JUMP JUMPDEST PUSH1 0x1D SLOAD DUP2 JUMP JUMPDEST PUSH0 DUP1 SLOAD SWAP1 PUSH2 0x100 EXP SWAP1 DIV PUSH20 0xFFFFFFFFFFFFFFFFFFFFFFFFFFFFFFFFFFFFFFFF AND PUSH20 0xFFFFFFFFFFFFFFFFFFFFFFFFFFFFFFFFFFFFFFFF AND CALLER PUSH20 0xFFFFFFFFFFFFFFFFFFFFFFFFFFFFFFFFFFFFFFFF AND EQ PUSH1 0x40 MLOAD DUP1 PUSH1 0x40 ADD PUSH1 0x40 MSTORE DUP1 PUSH1 0x1 DUP2 MSTORE PUSH1 0x20 ADD PUSH32 0x3200000000000000000000000000000000000000000000000000000000000000 DUP2 MSTORE POP SWAP1 PUSH2 0xFD9 JUMPI PUSH1 0x40 MLOAD PUSH32 0x8C379A000000000000000000000000000000000000000000000000000000000 DUP2 MSTORE PUSH1 0x4 ADD PUSH2 0xFD0 SWAP2 SWAP1 PUSH2 0x4CC2 JUMP JUMPDEST PUSH1 0x40 MLOAD DUP1 SWAP2 SUB SWAP1 REVERT JUMPDEST POP PUSH1 0x1 ISZERO ISZERO PUSH1 0xA PUSH1 0x3 ADD PUSH0 SWAP1 SLOAD SWAP1 PUSH2 0x100 EXP SWAP1 DIV PUSH1 0xFF AND ISZERO ISZERO EQ DUP1 ISZERO PUSH2 0x1014 JUMPI POP PUSH0 ISZERO ISZERO PUSH1 0xA PUSH1 0x4 ADD PUSH1 0x14 SWAP1 SLOAD SWAP1 PUSH2 0x100 EXP SWAP1 DIV PUSH1 0xFF AND ISZERO ISZERO EQ JUMPDEST PUSH1 0x40 MLOAD DUP1 PUSH1 0x40 ADD PUSH1 0x40 MSTORE DUP1 PUSH1 0x2 DUP2 MSTORE PUSH1 0x20 ADD PUSH32 0x3132000000000000000000000000000000000000000000000000000000000000 DUP2 MSTORE POP SWAP1 PUSH2 0x108B JUMPI PUSH1 0x40 MLOAD PUSH32 0x8C379A000000000000000000000000000000000000000000000000000000000 DUP2 MSTORE PUSH1 0x4 ADD PUSH2 0x1082 SWAP2 SWAP1 PUSH2 0x4CC2 JUMP JUMPDEST PUSH1 0x40 MLOAD DUP1 SWAP2 SUB SWAP1 REVERT JUMPDEST POP DUP1 ISZERO PUSH2 0x1292 JUMPI PUSH1 0x14 PUSH0 SWAP1 SLOAD SWAP1 PUSH2 0x100 EXP SWAP1 DIV PUSH20 0xFFFFFFFFFFFFFFFFFFFFFFFFFFFFFFFFFFFFFFFF AND PUSH20 0xFFFFFFFFFFFFFFFFFFFFFFFFFFFFFFFFFFFFFFFF AND PUSH4 0x2E1A7D4D PUSH1 0x9 PUSH0 SWAP1 SLOAD SWAP1 PUSH2 0x100 EXP SWAP1 DIV PUSH20 0xFFFFFFFFFFFFFFFFFFFFFFFFFFFFFFFFFFFFFFFF AND PUSH20 0xFFFFFFFFFFFFFFFFFFFFFFFFFFFFFFFFFFFFFFFF AND PUSH4 0x70A08231 ADDRESS PUSH1 0x40 MLOAD DUP3 PUSH4 0xFFFFFFFF AND PUSH1 0xE0 SHL DUP2 MSTORE PUSH1 0x4 ADD PUSH2 0x1129 SWAP2 SWAP1 PUSH2 0x4403 JUMP JUMPDEST PUSH1 0x20 PUSH1 0x40 MLOAD DUP1 DUP4 SUB DUP2 DUP7 GAS STATICCALL ISZERO DUP1 ISZERO PUSH2 0x1144 JUMPI RETURNDATASIZE PUSH0 DUP1 RETURNDATACOPY RETURNDATASIZE PUSH0 REVERT JUMPDEST POP POP POP POP PUSH1 0x40 MLOAD RETURNDATASIZE PUSH1 0x1F NOT PUSH1 0x1F DUP3 ADD AND DUP3 ADD DUP1 PUSH1 0x40 MSTORE POP DUP2 ADD SWAP1 PUSH2 0x1168 SWAP2 SWAP1 PUSH2 0x4CF6 JUMP JUMPDEST PUSH1 0x40 MLOAD DUP3 PUSH4 0xFFFFFFFF AND PUSH1 0xE0 SHL DUP2 MSTORE PUSH1 0x4 ADD PUSH2 0x1184 SWAP2 SWAP1 PUSH2 0x4119 JUMP JUMPDEST PUSH0 PUSH1 0x40 MLOAD DUP1 DUP4 SUB DUP2 PUSH0 DUP8 DUP1 EXTCODESIZE ISZERO DUP1 ISZERO PUSH2 0x119B JUMPI PUSH0 DUP1 REVERT JUMPDEST POP GAS CALL ISZERO DUP1 ISZERO PUSH2 0x11AD JUMPI RETURNDATASIZE PUSH0 DUP1 RETURNDATACOPY RETURNDATASIZE PUSH0 REVERT JUMPDEST POP POP POP POP DUP2 PUSH20 0xFFFFFFFFFFFFFFFFFFFFFFFFFFFFFFFFFFFFFFFF AND PUSH2 0x8FC PUSH1 0x9 PUSH0 SWAP1 SLOAD SWAP1 PUSH2 0x100 EXP SWAP1 DIV PUSH20 0xFFFFFFFFFFFFFFFFFFFFFFFFFFFFFFFFFFFFFFFF AND PUSH20 0xFFFFFFFFFFFFFFFFFFFFFFFFFFFFFFFFFFFFFFFF AND PUSH4 0x70A08231 ADDRESS PUSH1 0x40 MLOAD DUP3 PUSH4 0xFFFFFFFF AND PUSH1 0xE0 SHL DUP2 MSTORE PUSH1 0x4 ADD PUSH2 0x1225 SWAP2 SWAP1 PUSH2 0x4403 JUMP JUMPDEST PUSH1 0x20 PUSH1 0x40 MLOAD DUP1 DUP4 SUB DUP2 DUP7 GAS STATICCALL ISZERO DUP1 ISZERO PUSH2 0x1240 JUMPI RETURNDATASIZE PUSH0 DUP1 RETURNDATACOPY RETURNDATASIZE PUSH0 REVERT JUMPDEST POP POP POP POP PUSH1 0x40 MLOAD RETURNDATASIZE PUSH1 0x1F NOT PUSH1 0x1F DUP3 ADD AND DUP3 ADD DUP1 PUSH1 0x40 MSTORE POP DUP2 ADD SWAP1 PUSH2 0x1264 SWAP2 SWAP1 PUSH2 0x4CF6 JUMP JUMPDEST SWAP1 DUP2 ISZERO MUL SWAP1 PUSH1 0x40 MLOAD PUSH0 PUSH1 0x40 MLOAD DUP1 DUP4 SUB DUP2 DUP6 DUP9 DUP9 CALL SWAP4 POP POP POP POP ISZERO DUP1 ISZERO PUSH2 0x128C JUMPI RETURNDATASIZE PUSH0 DUP1 RETURNDATACOPY RETURNDATASIZE PUSH0 REVERT JUMPDEST POP PUSH2 0x13C8 JUMP JUMPDEST PUSH1 0x9 PUSH0 SWAP1 SLOAD SWAP1 PUSH2 0x100 EXP SWAP1 DIV PUSH20 0xFFFFFFFFFFFFFFFFFFFFFFFFFFFFFFFFFFFFFFFF AND PUSH20 0xFFFFFFFFFFFFFFFFFFFFFFFFFFFFFFFFFFFFFFFF AND PUSH4 0xA9059CBB DUP4 PUSH1 0x9 PUSH0 SWAP1 SLOAD SWAP1 PUSH2 0x100 EXP SWAP1 DIV PUSH20 0xFFFFFFFFFFFFFFFFFFFFFFFFFFFFFFFFFFFFFFFF AND PUSH20 0xFFFFFFFFFFFFFFFFFFFFFFFFFFFFFFFFFFFFFFFF AND PUSH4 0x70A08231 ADDRESS PUSH1 0x40 MLOAD DUP3 PUSH4 0xFFFFFFFF AND PUSH1 0xE0 SHL DUP2 MSTORE PUSH1 0x4 ADD PUSH2 0x132A SWAP2 SWAP1 PUSH2 0x4403 JUMP JUMPDEST PUSH1 0x20 PUSH1 0x40 MLOAD DUP1 DUP4 SUB DUP2 DUP7 GAS STATICCALL ISZERO DUP1 ISZERO PUSH2 0x1345 JUMPI RETURNDATASIZE PUSH0 DUP1 RETURNDATACOPY RETURNDATASIZE PUSH0 REVERT JUMPDEST POP POP POP POP PUSH1 0x40 MLOAD RETURNDATASIZE PUSH1 0x1F NOT PUSH1 0x1F DUP3 ADD AND DUP3 ADD DUP1 PUSH1 0x40 MSTORE POP DUP2 ADD SWAP1 PUSH2 0x1369 SWAP2 SWAP1 PUSH2 0x4CF6 JUMP JUMPDEST PUSH1 0x40 MLOAD DUP4 PUSH4 0xFFFFFFFF AND PUSH1 0xE0 SHL DUP2 MSTORE PUSH1 0x4 ADD PUSH2 0x1386 SWAP3 SWAP2 SWAP1 PUSH2 0x4D60 JUMP JUMPDEST PUSH1 0x20 PUSH1 0x40 MLOAD DUP1 DUP4 SUB DUP2 PUSH0 DUP8 GAS CALL ISZERO DUP1 ISZERO PUSH2 0x13A2 JUMPI RETURNDATASIZE PUSH0 DUP1 RETURNDATACOPY RETURNDATASIZE PUSH0 REVERT JUMPDEST POP POP POP POP PUSH1 0x40 MLOAD RETURNDATASIZE PUSH1 0x1F NOT PUSH1 0x1F DUP3 ADD AND DUP3 ADD DUP1 PUSH1 0x40 MSTORE POP DUP2 ADD SWAP1 PUSH2 0x13C6 SWAP2 SWAP1 PUSH2 0x4D9B JUMP JUMPDEST POP JUMPDEST PUSH1 0x1 PUSH1 0xA PUSH1 0x4 ADD PUSH1 0x14 PUSH2 0x100 EXP DUP2 SLOAD DUP2 PUSH1 0xFF MUL NOT AND SWAP1 DUP4 ISZERO ISZERO MUL OR SWAP1 SSTORE POP POP POP JUMP JUMPDEST PUSH0 DUP1 SLOAD SWAP1 PUSH2 0x100 EXP SWAP1 DIV PUSH20 0xFFFFFFFFFFFFFFFFFFFFFFFFFFFFFFFFFFFFFFFF AND PUSH20 0xFFFFFFFFFFFFFFFFFFFFFFFFFFFFFFFFFFFFFFFF AND CALLER PUSH20 0xFFFFFFFFFFFFFFFFFFFFFFFFFFFFFFFFFFFFFFFF AND EQ PUSH1 0x40 MLOAD DUP1 PUSH1 0x40 ADD PUSH1 0x40 MSTORE DUP1 PUSH1 0x1 DUP2 MSTORE PUSH1 0x20 ADD PUSH32 0x3200000000000000000000000000000000000000000000000000000000000000 DUP2 MSTORE POP SWAP1 PUSH2 0x14AF JUMPI PUSH1 0x40 MLOAD PUSH32 0x8C379A000000000000000000000000000000000000000000000000000000000 DUP2 MSTORE PUSH1 0x4 ADD PUSH2 0x14A6 SWAP2 SWAP1 PUSH2 0x4CC2 JUMP JUMPDEST PUSH1 0x40 MLOAD DUP1 SWAP2 SUB SWAP1 REVERT JUMPDEST POP DUP3 PUSH1 0x3 PUSH0 PUSH2 0x100 EXP DUP2 SLOAD DUP2 PUSH20 0xFFFFFFFFFFFFFFFFFFFFFFFFFFFFFFFFFFFFFFFF MUL NOT AND SWAP1 DUP4 PUSH20 0xFFFFFFFFFFFFFFFFFFFFFFFFFFFFFFFFFFFFFFFF AND MUL OR SWAP1 SSTORE POP DUP2 PUSH1 0x4 PUSH0 PUSH2 0x100 EXP DUP2 SLOAD DUP2 PUSH20 0xFFFFFFFFFFFFFFFFFFFFFFFFFFFFFFFFFFFFFFFF MUL NOT AND SWAP1 DUP4 PUSH20 0xFFFFFFFFFFFFFFFFFFFFFFFFFFFFFFFFFFFFFFFF AND MUL OR SWAP1 SSTORE POP DUP1 PUSH1 0x5 PUSH0 PUSH2 0x100 EXP DUP2 SLOAD DUP2 PUSH20 0xFFFFFFFFFFFFFFFFFFFFFFFFFFFFFFFFFFFFFFFF MUL NOT AND SWAP1 DUP4 PUSH20 0xFFFFFFFFFFFFFFFFFFFFFFFFFFFFFFFFFFFFFFFF AND MUL OR SWAP1 SSTORE POP POP POP POP JUMP JUMPDEST PUSH1 0x2 PUSH1 0x14 SWAP1 SLOAD SWAP1 PUSH2 0x100 EXP SWAP1 DIV PUSH1 0xFF AND DUP2 JUMP JUMPDEST PUSH0 PUSH1 0x2 PUSH1 0x14 SWAP1 SLOAD SWAP1 PUSH2 0x100 EXP SWAP1 DIV PUSH1 0xFF AND SWAP1 POP SWAP1 JUMP JUMPDEST PUSH0 DUP1 PUSH0 DUP1 SLOAD SWAP1 PUSH2 0x100 EXP SWAP1 DIV PUSH20 0xFFFFFFFFFFFFFFFFFFFFFFFFFFFFFFFFFFFFFFFF AND PUSH20 0xFFFFFFFFFFFFFFFFFFFFFFFFFFFFFFFFFFFFFFFF AND CALLER PUSH20 0xFFFFFFFFFFFFFFFFFFFFFFFFFFFFFFFFFFFFFFFF AND EQ PUSH1 0x40 MLOAD DUP1 PUSH1 0x40 ADD PUSH1 0x40 MSTORE DUP1 PUSH1 0x1 DUP2 MSTORE PUSH1 0x20 ADD PUSH32 0x3200000000000000000000000000000000000000000000000000000000000000 DUP2 MSTORE POP SWAP1 PUSH2 0x1665 JUMPI PUSH1 0x40 MLOAD PUSH32 0x8C379A000000000000000000000000000000000000000000000000000000000 DUP2 MSTORE PUSH1 0x4 ADD PUSH2 0x165C SWAP2 SWAP1 PUSH2 0x4CC2 JUMP JUMPDEST PUSH1 0x40 MLOAD DUP1 SWAP2 SUB SWAP1 REVERT JUMPDEST POP PUSH1 0x1 PUSH1 0xA PUSH1 0x3 ADD PUSH0 PUSH2 0x100 EXP DUP2 SLOAD DUP2 PUSH1 0xFF MUL NOT AND SWAP1 DUP4 ISZERO ISZERO MUL OR SWAP1 SSTORE POP PUSH1 0xA PUSH1 0x2 ADD SLOAD PUSH1 0xA PUSH1 0x5 ADD DUP2 SWAP1 SSTORE POP PUSH1 0x2 PUSH1 0x14 SWAP1 SLOAD SWAP1 PUSH2 0x100 EXP SWAP1 DIV PUSH1 0xFF AND ISZERO PUSH2 0x175B JUMPI PUSH1 0x2 PUSH0 SWAP1 SLOAD SWAP1 PUSH2 0x100 EXP SWAP1 DIV PUSH20 0xFFFFFFFFFFFFFFFFFFFFFFFFFFFFFFFFFFFFFFFF AND PUSH20 0xFFFFFFFFFFFFFFFFFFFFFFFFFFFFFFFFFFFFFFFF AND PUSH4 0x70A08231 ADDRESS PUSH1 0x40 MLOAD DUP3 PUSH4 0xFFFFFFFF AND PUSH1 0xE0 SHL DUP2 MSTORE PUSH1 0x4 ADD PUSH2 0x1701 SWAP2 SWAP1 PUSH2 0x4403 JUMP JUMPDEST PUSH1 0x20 PUSH1 0x40 MLOAD DUP1 DUP4 SUB DUP2 DUP7 GAS STATICCALL ISZERO DUP1 ISZERO PUSH2 0x171C JUMPI RETURNDATASIZE PUSH0 DUP1 RETURNDATACOPY RETURNDATASIZE PUSH0 REVERT JUMPDEST POP POP POP POP PUSH1 0x40 MLOAD RETURNDATASIZE PUSH1 0x1F NOT PUSH1 0x1F DUP3 ADD AND DUP3 ADD DUP1 PUSH1 0x40 MSTORE POP DUP2 ADD SWAP1 PUSH2 0x1740 SWAP2 SWAP1 PUSH2 0x4CF6 JUMP JUMPDEST PUSH1 0xA PUSH1 0x5 ADD DUP2 SWAP1 SSTORE POP PUSH2 0x175A PUSH1 0x15 SLOAD PUSH1 0x16 SLOAD PUSH1 0x17 SLOAD PUSH2 0x2C09 JUMP JUMPDEST JUMPDEST PUSH0 PUSH1 0x18 SLOAD PUSH1 0x19 SLOAD PUSH2 0x176C SWAP2 SWAP1 PUSH2 0x4E52 JUMP JUMPDEST GT ISZERO PUSH2 0x19AA JUMPI PUSH1 0x9 PUSH0 SWAP1 SLOAD SWAP1 PUSH2 0x100 EXP SWAP1 DIV PUSH20 0xFFFFFFFFFFFFFFFFFFFFFFFFFFFFFFFFFFFFFFFF AND PUSH20 0xFFFFFFFFFFFFFFFFFFFFFFFFFFFFFFFFFFFFFFFF AND PUSH4 0x95EA7B3 PUSH1 0x3 PUSH0 SWAP1 SLOAD SWAP1 PUSH2 0x100 EXP SWAP1 DIV PUSH20 0xFFFFFFFFFFFFFFFFFFFFFFFFFFFFFFFFFFFFFFFF AND PUSH1 0x18 SLOAD PUSH1 0x19 SLOAD PUSH2 0x17E1 SWAP2 SWAP1 PUSH2 0x4E52 JUMP JUMPDEST PUSH1 0x40 MLOAD DUP4 PUSH4 0xFFFFFFFF AND PUSH1 0xE0 SHL DUP2 MSTORE PUSH1 0x4 ADD PUSH2 0x17FE SWAP3 SWAP2 SWAP1 PUSH2 0x4D60 JUMP JUMPDEST PUSH1 0x20 PUSH1 0x40 MLOAD DUP1 DUP4 SUB DUP2 PUSH0 DUP8 GAS CALL ISZERO DUP1 ISZERO PUSH2 0x181A JUMPI RETURNDATASIZE PUSH0 DUP1 RETURNDATACOPY RETURNDATASIZE PUSH0 REVERT JUMPDEST POP POP POP POP PUSH1 0x40 MLOAD RETURNDATASIZE PUSH1 0x1F NOT PUSH1 0x1F DUP3 ADD AND DUP3 ADD DUP1 PUSH1 0x40 MSTORE POP DUP2 ADD SWAP1 PUSH2 0x183E SWAP2 SWAP1 PUSH2 0x4D9B JUMP JUMPDEST POP PUSH0 PUSH2 0x189F PUSH1 0x18 SLOAD PUSH1 0x19 SLOAD PUSH2 0x1853 SWAP2 SWAP1 PUSH2 0x4E52 JUMP JUMPDEST PUSH1 0xA PUSH1 0x4 ADD PUSH0 SWAP1 SLOAD SWAP1 PUSH2 0x100 EXP SWAP1 DIV PUSH20 0xFFFFFFFFFFFFFFFFFFFFFFFFFFFFFFFFFFFFFFFF AND PUSH1 0x9 PUSH0 SWAP1 SLOAD SWAP1 PUSH2 0x100 EXP SWAP1 DIV PUSH20 0xFFFFFFFFFFFFFFFFFFFFFFFFFFFFFFFFFFFFFFFF AND PUSH2 0x37AB JUMP JUMPDEST SWAP1 POP PUSH1 0xA PUSH1 0x4 ADD PUSH0 SWAP1 SLOAD SWAP1 PUSH2 0x100 EXP SWAP1 DIV PUSH20 0xFFFFFFFFFFFFFFFFFFFFFFFFFFFFFFFFFFFFFFFF AND PUSH20 0xFFFFFFFFFFFFFFFFFFFFFFFFFFFFFFFFFFFFFFFF AND PUSH4 0x95EA7B3 PUSH1 0x12 PUSH0 SWAP1 SLOAD SWAP1 PUSH2 0x100 EXP SWAP1 DIV PUSH20 0xFFFFFFFFFFFFFFFFFFFFFFFFFFFFFFFFFFFFFFFF AND DUP4 PUSH1 0x40 MLOAD DUP4 PUSH4 0xFFFFFFFF AND PUSH1 0xE0 SHL DUP2 MSTORE PUSH1 0x4 ADD PUSH2 0x1921 SWAP3 SWAP2 SWAP1 PUSH2 0x4D60 JUMP JUMPDEST PUSH1 0x20 PUSH1 0x40 MLOAD DUP1 DUP4 SUB DUP2 PUSH0 DUP8 GAS CALL ISZERO DUP1 ISZERO PUSH2 0x193D JUMPI RETURNDATASIZE PUSH0 DUP1 RETURNDATACOPY RETURNDATASIZE PUSH0 REVERT JUMPDEST POP POP POP POP PUSH1 0x40 MLOAD RETURNDATASIZE PUSH1 0x1F NOT PUSH1 0x1F DUP3 ADD AND DUP3 ADD DUP1 PUSH1 0x40 MSTORE POP DUP2 ADD SWAP1 PUSH2 0x1961 SWAP2 SWAP1 PUSH2 0x4D9B JUMP JUMPDEST POP PUSH0 PUSH1 0x15 SLOAD PUSH1 0x17 SLOAD PUSH2 0x1973 SWAP2 SWAP1 PUSH2 0x4E52 JUMP JUMPDEST DUP3 PUSH1 0x17 SLOAD PUSH2 0x1981 SWAP2 SWAP1 PUSH2 0x4E85 JUMP JUMPDEST PUSH2 0x198B SWAP2 SWAP1 PUSH2 0x4EF3 JUMP JUMPDEST SWAP1 POP PUSH0 DUP2 DUP4 PUSH2 0x199A SWAP2 SWAP1 PUSH2 0x4F23 JUMP JUMPDEST SWAP1 POP DUP2 DUP2 SWAP5 POP SWAP5 POP POP POP POP PUSH2 0x19B1 JUMP JUMPDEST PUSH0 DUP1 SWAP2 POP SWAP2 POP JUMPDEST SWAP1 SWAP2 JUMP JUMPDEST PUSH1 0x18 SLOAD DUP2 JUMP JUMPDEST PUSH0 PUSH1 0x8 SLOAD SWAP1 POP SWAP1 JUMP JUMPDEST PUSH1 0x15 SLOAD DUP2 JUMP JUMPDEST PUSH0 DUP1 PUSH0 PUSH1 0x1B SLOAD PUSH1 0x1C SLOAD PUSH1 0x1D SLOAD PUSH2 0x19E0 SWAP2 SWAP1 PUSH2 0x4E52 JUMP JUMPDEST PUSH2 0x19EA SWAP2 SWAP1 PUSH2 0x4E52 JUMP JUMPDEST SWAP1 POP PUSH0 DUP1 PUSH1 0x18 SLOAD PUSH1 0x19 SLOAD PUSH2 0x19FE SWAP2 SWAP1 PUSH2 0x4E52 JUMP JUMPDEST GT ISZERO PUSH2 0x1A66 JUMPI PUSH2 0x1A63 PUSH1 0x18 SLOAD PUSH1 0x19 SLOAD PUSH2 0x1A17 SWAP2 SWAP1 PUSH2 0x4E52 JUMP JUMPDEST PUSH1 0x9 PUSH0 SWAP1 SLOAD SWAP1 PUSH2 0x100 EXP SWAP1 DIV PUSH20 0xFFFFFFFFFFFFFFFFFFFFFFFFFFFFFFFFFFFFFFFF AND PUSH1 0xA PUSH1 0x4 ADD PUSH0 SWAP1 SLOAD SWAP1 PUSH2 0x100 EXP SWAP1 DIV PUSH20 0xFFFFFFFFFFFFFFFFFFFFFFFFFFFFFFFFFFFFFFFF AND PUSH2 0x3A23 JUMP JUMPDEST SWAP1 POP JUMPDEST PUSH0 PUSH2 0x2710 DUP4 DUP8 PUSH2 0x1A76 SWAP2 SWAP1 PUSH2 0x4E85 JUMP JUMPDEST PUSH2 0x1A80 SWAP2 SWAP1 PUSH2 0x4EF3 JUMP JUMPDEST SWAP1 POP PUSH0 DUP3 DUP3 DUP9 PUSH2 0x1A90 SWAP2 SWAP1 PUSH2 0x4E52 JUMP JUMPDEST PUSH2 0x1A9A SWAP2 SWAP1 PUSH2 0x4E52 JUMP JUMPDEST SWAP1 POP PUSH0 PUSH2 0x1B86 DUP3 PUSH1 0x9 PUSH0 SWAP1 SLOAD SWAP1 PUSH2 0x100 EXP SWAP1 DIV PUSH20 0xFFFFFFFFFFFFFFFFFFFFFFFFFFFFFFFFFFFFFFFF AND PUSH20 0xFFFFFFFFFFFFFFFFFFFFFFFFFFFFFFFFFFFFFFFF AND PUSH4 0x70A08231 ADDRESS PUSH1 0x40 MLOAD DUP3 PUSH4 0xFFFFFFFF AND PUSH1 0xE0 SHL DUP2 MSTORE PUSH1 0x4 ADD PUSH2 0x1AFB SWAP2 SWAP1 PUSH2 0x4403 JUMP JUMPDEST PUSH1 0x20 PUSH1 0x40 MLOAD DUP1 DUP4 SUB DUP2 DUP7 GAS STATICCALL ISZERO DUP1 ISZERO PUSH2 0x1B16 JUMPI RETURNDATASIZE PUSH0 DUP1 RETURNDATACOPY RETURNDATASIZE PUSH0 REVERT JUMPDEST POP POP POP POP PUSH1 0x40 MLOAD RETURNDATASIZE PUSH1 0x1F NOT PUSH1 0x1F DUP3 ADD AND DUP3 ADD DUP1 PUSH1 0x40 MSTORE POP DUP2 ADD SWAP1 PUSH2 0x1B3A SWAP2 SWAP1 PUSH2 0x4CF6 JUMP JUMPDEST PUSH1 0xA PUSH1 0x4 ADD PUSH0 SWAP1 SLOAD SWAP1 PUSH2 0x100 EXP SWAP1 DIV PUSH20 0xFFFFFFFFFFFFFFFFFFFFFFFFFFFFFFFFFFFFFFFF AND PUSH1 0x9 PUSH0 SWAP1 SLOAD SWAP1 PUSH2 0x100 EXP SWAP1 DIV PUSH20 0xFFFFFFFFFFFFFFFFFFFFFFFFFFFFFFFFFFFFFFFF AND PUSH2 0x3C5E JUMP JUMPDEST SWAP1 POP DUP1 DUP5 SWAP7 POP SWAP7 POP POP POP POP POP POP SWAP2 POP SWAP2 JUMP JUMPDEST PUSH1 0x17 SLOAD DUP2 JUMP JUMPDEST PUSH1 0x6 SLOAD DUP2 JUMP JUMPDEST PUSH0 DUP1 PUSH0 DUP1 PUSH0 DUP1 SLOAD SWAP1 PUSH2 0x100 EXP SWAP1 DIV PUSH20 0xFFFFFFFFFFFFFFFFFFFFFFFFFFFFFFFFFFFFFFFF AND PUSH20 0xFFFFFFFFFFFFFFFFFFFFFFFFFFFFFFFFFFFFFFFF AND CALLER PUSH20 0xFFFFFFFFFFFFFFFFFFFFFFFFFFFFFFFFFFFFFFFF AND EQ PUSH1 0x40 MLOAD DUP1 PUSH1 0x40 ADD PUSH1 0x40 MSTORE DUP1 PUSH1 0x1 DUP2 MSTORE PUSH1 0x20 ADD PUSH32 0x3200000000000000000000000000000000000000000000000000000000000000 DUP2 MSTORE POP SWAP1 PUSH2 0x1C6D JUMPI PUSH1 0x40 MLOAD PUSH32 0x8C379A000000000000000000000000000000000000000000000000000000000 DUP2 MSTORE PUSH1 0x4 ADD PUSH2 0x1C64 SWAP2 SWAP1 PUSH2 0x4CC2 JUMP JUMPDEST PUSH1 0x40 MLOAD DUP1 SWAP2 SUB SWAP1 REVERT JUMPDEST POP PUSH1 0x64 PUSH2 0x1C7A DUP7 PUSH0 PUSH2 0x1F2A JUMP JUMPDEST LT PUSH1 0x40 MLOAD DUP1 PUSH1 0x40 ADD PUSH1 0x40 MSTORE DUP1 PUSH1 0x2 DUP2 MSTORE PUSH1 0x20 ADD PUSH32 0x3131000000000000000000000000000000000000000000000000000000000000 DUP2 MSTORE POP SWAP1 PUSH2 0x1CF2 JUMPI PUSH1 0x40 MLOAD PUSH32 0x8C379A000000000000000000000000000000000000000000000000000000000 DUP2 MSTORE PUSH1 0x4 ADD PUSH2 0x1CE9 SWAP2 SWAP1 PUSH2 0x4CC2 JUMP JUMPDEST PUSH1 0x40 MLOAD DUP1 SWAP2 SUB SWAP1 REVERT JUMPDEST POP PUSH1 0xA PUSH1 0x2 ADD SLOAD PUSH1 0xA PUSH1 0x5 ADD DUP2 SWAP1 SSTORE POP PUSH1 0x2 PUSH1 0x14 SWAP1 SLOAD SWAP1 PUSH2 0x100 EXP SWAP1 DIV PUSH1 0xFF AND ISZERO PUSH2 0x1DCB JUMPI PUSH1 0x2 PUSH0 SWAP1 SLOAD SWAP1 PUSH2 0x100 EXP SWAP1 DIV PUSH20 0xFFFFFFFFFFFFFFFFFFFFFFFFFFFFFFFFFFFFFFFF AND PUSH20 0xFFFFFFFFFFFFFFFFFFFFFFFFFFFFFFFFFFFFFFFF AND PUSH4 0x70A08231 ADDRESS PUSH1 0x40 MLOAD DUP3 PUSH4 0xFFFFFFFF AND PUSH1 0xE0 SHL DUP2 MSTORE PUSH1 0x4 ADD PUSH2 0x1D71 SWAP2 SWAP1 PUSH2 0x4403 JUMP JUMPDEST PUSH1 0x20 PUSH1 0x40 MLOAD DUP1 DUP4 SUB DUP2 DUP7 GAS STATICCALL ISZERO DUP1 ISZERO PUSH2 0x1D8C JUMPI RETURNDATASIZE PUSH0 DUP1 RETURNDATACOPY RETURNDATASIZE PUSH0 REVERT JUMPDEST POP POP POP POP PUSH1 0x40 MLOAD RETURNDATASIZE PUSH1 0x1F NOT PUSH1 0x1F DUP3 ADD AND DUP3 ADD DUP1 PUSH1 0x40 MSTORE POP DUP2 ADD SWAP1 PUSH2 0x1DB0 SWAP2 SWAP1 PUSH2 0x4CF6 JUMP JUMPDEST PUSH1 0xA PUSH1 0x5 ADD DUP2 SWAP1 SSTORE POP PUSH2 0x1DCA PUSH1 0x15 SLOAD PUSH1 0x16 SLOAD PUSH1 0x17 SLOAD PUSH2 0x2C09 JUMP JUMPDEST JUMPDEST PUSH0 DUP1 PUSH2 0x1DD6 DUP8 PUSH2 0x19CA JUMP JUMPDEST SWAP2 POP SWAP2 POP PUSH0 DUP1 PUSH0 DUP1 PUSH2 0x1DE8 DUP12 DUP7 PUSH2 0x2166 JUMP JUMPDEST SWAP4 POP SWAP4 POP SWAP4 POP SWAP4 POP PUSH1 0x1 PUSH1 0xA PUSH1 0x3 ADD PUSH1 0x15 PUSH2 0x100 EXP DUP2 SLOAD DUP2 PUSH1 0xFF MUL NOT AND SWAP1 DUP4 ISZERO ISZERO MUL OR SWAP1 SSTORE POP PUSH1 0x1 PUSH1 0xA PUSH1 0x3 ADD PUSH0 PUSH2 0x100 EXP DUP2 SLOAD DUP2 PUSH1 0xFF MUL NOT AND SWAP1 DUP4 ISZERO ISZERO MUL OR SWAP1 SSTORE POP PUSH1 0xA PUSH1 0x4 ADD PUSH0 SWAP1 SLOAD SWAP1 PUSH2 0x100 EXP SWAP1 DIV PUSH20 0xFFFFFFFFFFFFFFFFFFFFFFFFFFFFFFFFFFFFFFFF AND PUSH20 0xFFFFFFFFFFFFFFFFFFFFFFFFFFFFFFFFFFFFFFFF AND PUSH4 0x95EA7B3 PUSH1 0x12 PUSH0 SWAP1 SLOAD SWAP1 PUSH2 0x100 EXP SWAP1 DIV PUSH20 0xFFFFFFFFFFFFFFFFFFFFFFFFFFFFFFFFFFFFFFFF AND DUP9 PUSH1 0x40 MLOAD DUP4 PUSH4 0xFFFFFFFF AND PUSH1 0xE0 SHL DUP2 MSTORE PUSH1 0x4 ADD PUSH2 0x1EAB SWAP3 SWAP2 SWAP1 PUSH2 0x4D60 JUMP JUMPDEST PUSH1 0x20 PUSH1 0x40 MLOAD DUP1 DUP4 SUB DUP2 PUSH0 DUP8 GAS CALL ISZERO DUP1 ISZERO PUSH2 0x1EC7 JUMPI RETURNDATASIZE PUSH0 DUP1 RETURNDATACOPY RETURNDATASIZE PUSH0 REVERT JUMPDEST POP POP POP POP PUSH1 0x40 MLOAD RETURNDATASIZE PUSH1 0x1F NOT PUSH1 0x1F DUP3 ADD AND DUP3 ADD DUP1 PUSH1 0x40 MSTORE POP DUP2 ADD SWAP1 PUSH2 0x1EEB SWAP2 SWAP1 PUSH2 0x4D9B JUMP JUMPDEST POP DUP4 DUP4 DUP4 DUP4 SWAP10 POP SWAP10 POP SWAP10 POP SWAP10 POP POP POP POP POP POP POP SWAP2 SWAP4 POP SWAP2 SWAP4 JUMP JUMPDEST PUSH1 0x13 PUSH0 SWAP1 SLOAD SWAP1 PUSH2 0x100 EXP SWAP1 DIV PUSH20 0xFFFFFFFFFFFFFFFFFFFFFFFFFFFFFFFFFFFFFFFF AND DUP2 JUMP JUMPDEST PUSH0 DUP1 PUSH2 0x1F5B PUSH1 0xA PUSH1 0x4 ADD PUSH0 SWAP1 SLOAD SWAP1 PUSH2 0x100 EXP SWAP1 DIV PUSH20 0xFFFFFFFFFFFFFFFFFFFFFFFFFFFFFFFFFFFFFFFF AND PUSH1 0x1 PUSH2 0x32A0 JUMP JUMPDEST SWAP1 POP PUSH0 DUP1 DUP5 PUSH1 0x8 SLOAD PUSH2 0x1F6D SWAP2 SWAP1 PUSH2 0x4E52 JUMP JUMPDEST SWAP1 POP PUSH0 PUSH1 0x9 PUSH0 SWAP1 SLOAD SWAP1 PUSH2 0x100 EXP SWAP1 DIV PUSH20 0xFFFFFFFFFFFFFFFFFFFFFFFFFFFFFFFFFFFFFFFF AND SWAP1 POP PUSH0 DUP3 GT ISZERO PUSH2 0x2061 JUMPI PUSH0 PUSH2 0x1FA7 DUP3 PUSH0 PUSH2 0x32A0 JUMP JUMPDEST SWAP1 POP DUP2 PUSH20 0xFFFFFFFFFFFFFFFFFFFFFFFFFFFFFFFFFFFFFFFF AND PUSH4 0x313CE567 PUSH1 0x40 MLOAD DUP2 PUSH4 0xFFFFFFFF AND PUSH1 0xE0 SHL DUP2 MSTORE PUSH1 0x4 ADD PUSH1 0x20 PUSH1 0x40 MLOAD DUP1 DUP4 SUB DUP2 DUP7 GAS STATICCALL ISZERO DUP1 ISZERO PUSH2 0x1FF2 JUMPI RETURNDATASIZE PUSH0 DUP1 RETURNDATACOPY RETURNDATASIZE PUSH0 REVERT JUMPDEST POP POP POP POP PUSH1 0x40 MLOAD RETURNDATASIZE PUSH1 0x1F NOT PUSH1 0x1F DUP3 ADD AND DUP3 ADD DUP1 PUSH1 0x40 MSTORE POP DUP2 ADD SWAP1 PUSH2 0x2016 SWAP2 SWAP1 PUSH2 0x4F8C JUMP JUMPDEST PUSH1 0xA PUSH2 0x2022 SWAP2 SWAP1 PUSH2 0x50E6 JUMP JUMPDEST PUSH2 0x2710 PUSH1 0x6 SLOAD DUP4 DUP7 PUSH2 0x2034 SWAP2 SWAP1 PUSH2 0x4E85 JUMP JUMPDEST PUSH2 0x203E SWAP2 SWAP1 PUSH2 0x4E85 JUMP JUMPDEST PUSH2 0x2048 SWAP2 SWAP1 PUSH2 0x4EF3 JUMP JUMPDEST PUSH2 0x2052 SWAP2 SWAP1 PUSH2 0x4EF3 JUMP JUMPDEST DUP5 PUSH2 0x205D SWAP2 SWAP1 PUSH2 0x4E52 JUMP JUMPDEST SWAP4 POP POP JUMPDEST PUSH0 PUSH1 0xA PUSH1 0x4 ADD PUSH0 SWAP1 SLOAD SWAP1 PUSH2 0x100 EXP SWAP1 DIV PUSH20 0xFFFFFFFFFFFFFFFFFFFFFFFFFFFFFFFFFFFFFFFF AND PUSH20 0xFFFFFFFFFFFFFFFFFFFFFFFFFFFFFFFFFFFFFFFF AND PUSH4 0x313CE567 PUSH1 0x40 MLOAD DUP2 PUSH4 0xFFFFFFFF AND PUSH1 0xE0 SHL DUP2 MSTORE PUSH1 0x4 ADD PUSH1 0x20 PUSH1 0x40 MLOAD DUP1 DUP4 SUB DUP2 DUP7 GAS STATICCALL ISZERO DUP1 ISZERO PUSH2 0x20CF JUMPI RETURNDATASIZE PUSH0 DUP1 RETURNDATACOPY RETURNDATASIZE PUSH0 REVERT JUMPDEST POP POP POP POP PUSH1 0x40 MLOAD RETURNDATASIZE PUSH1 0x1F NOT PUSH1 0x1F DUP3 ADD AND DUP3 ADD DUP1 PUSH1 0x40 MSTORE POP DUP2 ADD SWAP1 PUSH2 0x20F3 SWAP2 SWAP1 PUSH2 0x4F8C JUMP JUMPDEST PUSH1 0xA PUSH2 0x20FF SWAP2 SWAP1 PUSH2 0x50E6 JUMP JUMPDEST DUP6 DUP10 PUSH2 0x210B SWAP2 SWAP1 PUSH2 0x4E85 JUMP JUMPDEST PUSH2 0x2115 SWAP2 SWAP1 PUSH2 0x4EF3 JUMP JUMPDEST SWAP1 POP PUSH0 DUP2 PUSH1 0x64 DUP7 PUSH2 0x2126 SWAP2 SWAP1 PUSH2 0x4E85 JUMP JUMPDEST PUSH2 0x2130 SWAP2 SWAP1 PUSH2 0x4EF3 JUMP JUMPDEST SWAP1 POP DUP1 SWAP7 POP POP POP POP POP POP POP SWAP3 SWAP2 POP POP JUMP JUMPDEST PUSH1 0x12 PUSH0 SWAP1 SLOAD SWAP1 PUSH2 0x100 EXP SWAP1 DIV PUSH20 0xFFFFFFFFFFFFFFFFFFFFFFFFFFFFFFFFFFFFFFFF AND DUP2 JUMP JUMPDEST PUSH0 DUP1 PUSH0 DUP1 PUSH0 PUSH1 0x1B SLOAD PUSH1 0x1C SLOAD PUSH1 0x1D SLOAD PUSH2 0x217E SWAP2 SWAP1 PUSH2 0x4E52 JUMP JUMPDEST PUSH2 0x2188 SWAP2 SWAP1 PUSH2 0x4E52 JUMP JUMPDEST SWAP1 POP PUSH0 PUSH2 0x2710 DUP3 DUP10 PUSH2 0x219A SWAP2 SWAP1 PUSH2 0x4E85 JUMP JUMPDEST PUSH2 0x21A4 SWAP2 SWAP1 PUSH2 0x4EF3 JUMP JUMPDEST SWAP1 POP PUSH0 DUP3 PUSH1 0x1D SLOAD DUP4 PUSH2 0x21B6 SWAP2 SWAP1 PUSH2 0x4E85 JUMP JUMPDEST PUSH2 0x21C0 SWAP2 SWAP1 PUSH2 0x4EF3 JUMP JUMPDEST SWAP1 POP PUSH0 DUP4 PUSH1 0x1B SLOAD DUP5 PUSH2 0x21D2 SWAP2 SWAP1 PUSH2 0x4E85 JUMP JUMPDEST PUSH2 0x21DC SWAP2 SWAP1 PUSH2 0x4EF3 JUMP JUMPDEST SWAP1 POP PUSH0 DUP2 DUP4 DUP6 PUSH2 0x21EC SWAP2 SWAP1 PUSH2 0x4F23 JUMP JUMPDEST PUSH2 0x21F6 SWAP2 SWAP1 PUSH2 0x4F23 JUMP JUMPDEST SWAP1 POP PUSH0 PUSH1 0x15 SLOAD PUSH1 0x17 SLOAD PUSH2 0x2209 SWAP2 SWAP1 PUSH2 0x4E52 JUMP JUMPDEST PUSH1 0x17 SLOAD DUP13 PUSH2 0x2217 SWAP2 SWAP1 PUSH2 0x4E85 JUMP JUMPDEST PUSH2 0x2221 SWAP2 SWAP1 PUSH2 0x4EF3 JUMP JUMPDEST SWAP1 POP PUSH0 DUP2 DUP13 PUSH2 0x2230 SWAP2 SWAP1 PUSH2 0x4F23 JUMP JUMPDEST SWAP1 POP DUP5 DUP3 DUP3 DUP7 PUSH2 0x2240 SWAP2 SWAP1 PUSH2 0x4E52 JUMP JUMPDEST DUP6 SWAP11 POP SWAP11 POP SWAP11 POP SWAP11 POP POP POP POP POP POP POP POP SWAP3 SWAP6 SWAP2 SWAP5 POP SWAP3 POP JUMP JUMPDEST PUSH2 0x2261 PUSH2 0x4082 JUMP JUMPDEST PUSH1 0xA PUSH1 0x40 MLOAD DUP1 PUSH2 0x140 ADD PUSH1 0x40 MSTORE SWAP1 DUP2 PUSH0 DUP3 ADD SLOAD DUP2 MSTORE PUSH1 0x20 ADD PUSH1 0x1 DUP3 ADD PUSH0 SWAP1 SLOAD SWAP1 PUSH2 0x100 EXP SWAP1 DIV PUSH1 0xFF AND ISZERO ISZERO ISZERO ISZERO DUP2 MSTORE PUSH1 0x20 ADD PUSH1 0x2 DUP3 ADD SLOAD DUP2 MSTORE PUSH1 0x20 ADD PUSH1 0x3 DUP3 ADD PUSH0 SWAP1 SLOAD SWAP1 PUSH2 0x100 EXP SWAP1 DIV PUSH1 0xFF AND ISZERO ISZERO ISZERO ISZERO DUP2 MSTORE PUSH1 0x20 ADD PUSH1 0x3 DUP3 ADD PUSH1 0x1 SWAP1 SLOAD SWAP1 PUSH2 0x100 EXP SWAP1 DIV PUSH20 0xFFFFFFFFFFFFFFFFFFFFFFFFFFFFFFFFFFFFFFFF AND PUSH20 0xFFFFFFFFFFFFFFFFFFFFFFFFFFFFFFFFFFFFFFFF AND PUSH20 0xFFFFFFFFFFFFFFFFFFFFFFFFFFFFFFFFFFFFFFFF AND DUP2 MSTORE PUSH1 0x20 ADD PUSH1 0x3 DUP3 ADD PUSH1 0x15 SWAP1 SLOAD SWAP1 PUSH2 0x100 EXP SWAP1 DIV PUSH1 0xFF AND ISZERO ISZERO ISZERO ISZERO DUP2 MSTORE PUSH1 0x20 ADD PUSH1 0x4 DUP3 ADD PUSH0 SWAP1 SLOAD SWAP1 PUSH2 0x100 EXP SWAP1 DIV PUSH20 0xFFFFFFFFFFFFFFFFFFFFFFFFFFFFFFFFFFFFFFFF AND PUSH20 0xFFFFFFFFFFFFFFFFFFFFFFFFFFFFFFFFFFFFFFFF AND PUSH20 0xFFFFFFFFFFFFFFFFFFFFFFFFFFFFFFFFFFFFFFFF AND DUP2 MSTORE PUSH1 0x20 ADD PUSH1 0x4 DUP3 ADD PUSH1 0x14 SWAP1 SLOAD SWAP1 PUSH2 0x100 EXP SWAP1 DIV PUSH1 0xFF AND ISZERO ISZERO ISZERO ISZERO DUP2 MSTORE PUSH1 0x20 ADD PUSH1 0x4 DUP3 ADD PUSH1 0x15 SWAP1 SLOAD SWAP1 PUSH2 0x100 EXP SWAP1 DIV PUSH1 0xFF AND ISZERO ISZERO ISZERO ISZERO DUP2 MSTORE PUSH1 0x20 ADD PUSH1 0x5 DUP3 ADD SLOAD DUP2 MSTORE POP POP SWAP1 POP SWAP1 JUMP JUMPDEST PUSH1 0x7 SLOAD DUP2 JUMP JUMPDEST PUSH0 DUP1 SLOAD SWAP1 PUSH2 0x100 EXP SWAP1 DIV PUSH20 0xFFFFFFFFFFFFFFFFFFFFFFFFFFFFFFFFFFFFFFFF AND PUSH20 0xFFFFFFFFFFFFFFFFFFFFFFFFFFFFFFFFFFFFFFFF AND CALLER PUSH20 0xFFFFFFFFFFFFFFFFFFFFFFFFFFFFFFFFFFFFFFFF AND EQ PUSH1 0x40 MLOAD DUP1 PUSH1 0x40 ADD PUSH1 0x40 MSTORE DUP1 PUSH1 0x1 DUP2 MSTORE PUSH1 0x20 ADD PUSH32 0x3200000000000000000000000000000000000000000000000000000000000000 DUP2 MSTORE POP SWAP1 PUSH2 0x248C JUMPI PUSH1 0x40 MLOAD PUSH32 0x8C379A000000000000000000000000000000000000000000000000000000000 DUP2 MSTORE PUSH1 0x4 ADD PUSH2 0x2483 SWAP2 SWAP1 PUSH2 0x4CC2 JUMP JUMPDEST PUSH1 0x40 MLOAD DUP1 SWAP2 SUB SWAP1 REVERT JUMPDEST POP DUP1 PUSH1 0x8 PUSH0 DUP3 DUP3 SLOAD PUSH2 0x249E SWAP2 SWAP1 PUSH2 0x4E52 JUMP JUMPDEST SWAP3 POP POP DUP2 SWAP1 SSTORE POP POP JUMP JUMPDEST PUSH1 0x11 PUSH0 SWAP1 SLOAD SWAP1 PUSH2 0x100 EXP SWAP1 DIV PUSH20 0xFFFFFFFFFFFFFFFFFFFFFFFFFFFFFFFFFFFFFFFF AND DUP2 JUMP JUMPDEST PUSH0 DUP1 PUSH1 0x2 PUSH0 SWAP1 SLOAD SWAP1 PUSH2 0x100 EXP SWAP1 DIV PUSH20 0xFFFFFFFFFFFFFFFFFFFFFFFFFFFFFFFFFFFFFFFF AND PUSH20 0xFFFFFFFFFFFFFFFFFFFFFFFFFFFFFFFFFFFFFFFF AND PUSH4 0x70A08231 ADDRESS PUSH1 0x40 MLOAD DUP3 PUSH4 0xFFFFFFFF AND PUSH1 0xE0 SHL DUP2 MSTORE PUSH1 0x4 ADD PUSH2 0x2529 SWAP2 SWAP1 PUSH2 0x4403 JUMP JUMPDEST PUSH1 0x20 PUSH1 0x40 MLOAD DUP1 DUP4 SUB DUP2 DUP7 GAS STATICCALL ISZERO DUP1 ISZERO PUSH2 0x2544 JUMPI RETURNDATASIZE PUSH0 DUP1 RETURNDATACOPY RETURNDATASIZE PUSH0 REVERT JUMPDEST POP POP POP POP PUSH1 0x40 MLOAD RETURNDATASIZE PUSH1 0x1F NOT PUSH1 0x1F DUP3 ADD AND DUP3 ADD DUP1 PUSH1 0x40 MSTORE POP DUP2 ADD SWAP1 PUSH2 0x2568 SWAP2 SWAP1 PUSH2 0x4CF6 JUMP JUMPDEST SWAP1 POP PUSH0 PUSH1 0x8 SLOAD DUP3 PUSH2 0x2579 SWAP2 SWAP1 PUSH2 0x4F23 JUMP JUMPDEST SWAP1 POP PUSH2 0x2710 DUP5 DUP3 PUSH2 0x258A SWAP2 SWAP1 PUSH2 0x4E85 JUMP JUMPDEST PUSH2 0x2594 SWAP2 SWAP1 PUSH2 0x4EF3 JUMP JUMPDEST SWAP3 POP POP POP SWAP2 SWAP1 POP JUMP JUMPDEST PUSH0 PUSH2 0x25A6 PUSH2 0x3F0C JUMP JUMPDEST SWAP1 POP PUSH0 DUP2 PUSH0 ADD PUSH1 0x8 SWAP1 SLOAD SWAP1 PUSH2 0x100 EXP SWAP1 DIV PUSH1 0xFF AND ISZERO SWAP1 POP PUSH0 DUP3 PUSH0 ADD PUSH0 SWAP1 SLOAD SWAP1 PUSH2 0x100 EXP SWAP1 DIV PUSH8 0xFFFFFFFFFFFFFFFF AND SWAP1 POP PUSH0 DUP1 DUP3 PUSH8 0xFFFFFFFFFFFFFFFF AND EQ DUP1 ISZERO PUSH2 0x25EE JUMPI POP DUP3 JUMPDEST SWAP1 POP PUSH0 PUSH1 0x1 DUP4 PUSH8 0xFFFFFFFFFFFFFFFF AND EQ DUP1 ISZERO PUSH2 0x2621 JUMPI POP PUSH0 ADDRESS PUSH20 0xFFFFFFFFFFFFFFFFFFFFFFFFFFFFFFFFFFFFFFFF AND EXTCODESIZE EQ JUMPDEST SWAP1 POP DUP2 ISZERO DUP1 ISZERO PUSH2 0x262F JUMPI POP DUP1 ISZERO JUMPDEST ISZERO PUSH2 0x2666 JUMPI PUSH1 0x40 MLOAD PUSH32 0xF92EE8A900000000000000000000000000000000000000000000000000000000 DUP2 MSTORE PUSH1 0x4 ADD PUSH1 0x40 MLOAD DUP1 SWAP2 SUB SWAP1 REVERT JUMPDEST PUSH1 0x1 DUP6 PUSH0 ADD PUSH0 PUSH2 0x100 EXP DUP2 SLOAD DUP2 PUSH8 0xFFFFFFFFFFFFFFFF MUL NOT AND SWAP1 DUP4 PUSH8 0xFFFFFFFFFFFFFFFF AND MUL OR SWAP1 SSTORE POP DUP4 ISZERO PUSH2 0x26B3 JUMPI PUSH1 0x1 DUP6 PUSH0 ADD PUSH1 0x8 PUSH2 0x100 EXP DUP2 SLOAD DUP2 PUSH1 0xFF MUL NOT AND SWAP1 DUP4 ISZERO ISZERO MUL OR SWAP1 SSTORE POP JUMPDEST CALLER PUSH0 DUP1 PUSH2 0x100 EXP DUP2 SLOAD DUP2 PUSH20 0xFFFFFFFFFFFFFFFFFFFFFFFFFFFFFFFFFFFFFFFF MUL NOT AND SWAP1 DUP4 PUSH20 0xFFFFFFFFFFFFFFFFFFFFFFFFFFFFFFFFFFFFFFFF AND MUL OR SWAP1 SSTORE POP DUP14 PUSH1 0xA PUSH0 DUP3 ADD MLOAD DUP2 PUSH0 ADD SSTORE PUSH1 0x20 DUP3 ADD MLOAD DUP2 PUSH1 0x1 ADD PUSH0 PUSH2 0x100 EXP DUP2 SLOAD DUP2 PUSH1 0xFF MUL NOT AND SWAP1 DUP4 ISZERO ISZERO MUL OR SWAP1 SSTORE POP PUSH1 0x40 DUP3 ADD MLOAD DUP2 PUSH1 0x2 ADD SSTORE PUSH1 0x60 DUP3 ADD MLOAD DUP2 PUSH1 0x3 ADD PUSH0 PUSH2 0x100 EXP DUP2 SLOAD DUP2 PUSH1 0xFF MUL NOT AND SWAP1 DUP4 ISZERO ISZERO MUL OR SWAP1 SSTORE POP PUSH1 0x80 DUP3 ADD MLOAD DUP2 PUSH1 0x3 ADD PUSH1 0x1 PUSH2 0x100 EXP DUP2 SLOAD DUP2 PUSH20 0xFFFFFFFFFFFFFFFFFFFFFFFFFFFFFFFFFFFFFFFF MUL NOT AND SWAP1 DUP4 PUSH20 0xFFFFFFFFFFFFFFFFFFFFFFFFFFFFFFFFFFFFFFFF AND MUL OR SWAP1 SSTORE POP PUSH1 0xA0 DUP3 ADD MLOAD DUP2 PUSH1 0x3 ADD PUSH1 0x15 PUSH2 0x100 EXP DUP2 SLOAD DUP2 PUSH1 0xFF MUL NOT AND SWAP1 DUP4 ISZERO ISZERO MUL OR SWAP1 SSTORE POP PUSH1 0xC0 DUP3 ADD MLOAD DUP2 PUSH1 0x4 ADD PUSH0 PUSH2 0x100 EXP DUP2 SLOAD DUP2 PUSH20 0xFFFFFFFFFFFFFFFFFFFFFFFFFFFFFFFFFFFFFFFF MUL NOT AND SWAP1 DUP4 PUSH20 0xFFFFFFFFFFFFFFFFFFFFFFFFFFFFFFFFFFFFFFFF AND MUL OR SWAP1 SSTORE POP PUSH1 0xE0 DUP3 ADD MLOAD DUP2 PUSH1 0x4 ADD PUSH1 0x14 PUSH2 0x100 EXP DUP2 SLOAD DUP2 PUSH1 0xFF MUL NOT AND SWAP1 DUP4 ISZERO ISZERO MUL OR SWAP1 SSTORE POP PUSH2 0x100 DUP3 ADD MLOAD DUP2 PUSH1 0x4 ADD PUSH1 0x15 PUSH2 0x100 EXP DUP2 SLOAD DUP2 PUSH1 0xFF MUL NOT AND SWAP1 DUP4 ISZERO ISZERO MUL OR SWAP1 SSTORE POP PUSH2 0x120 DUP3 ADD MLOAD DUP2 PUSH1 0x5 ADD SSTORE SWAP1 POP POP DUP13 PUSH1 0x9 PUSH0 PUSH2 0x100 EXP DUP2 SLOAD DUP2 PUSH20 0xFFFFFFFFFFFFFFFFFFFFFFFFFFFFFFFFFFFFFFFF MUL NOT AND SWAP1 DUP4 PUSH20 0xFFFFFFFFFFFFFFFFFFFFFFFFFFFFFFFFFFFFFFFF AND MUL OR SWAP1 SSTORE POP DUP12 PUSH1 0x1 PUSH0 PUSH2 0x100 EXP DUP2 SLOAD DUP2 PUSH20 0xFFFFFFFFFFFFFFFFFFFFFFFFFFFFFFFFFFFFFFFF MUL NOT AND SWAP1 DUP4 PUSH20 0xFFFFFFFFFFFFFFFFFFFFFFFFFFFFFFFFFFFFFFFF AND MUL OR SWAP1 SSTORE POP DUP10 PUSH1 0x7 DUP2 SWAP1 SSTORE POP DUP9 PUSH1 0x6 DUP2 SWAP1 SSTORE POP DUP11 PUSH1 0x2 PUSH0 PUSH2 0x100 EXP DUP2 SLOAD DUP2 PUSH20 0xFFFFFFFFFFFFFFFFFFFFFFFFFFFFFFFFFFFFFFFF MUL NOT AND SWAP1 DUP4 PUSH20 0xFFFFFFFFFFFFFFFFFFFFFFFFFFFFFFFFFFFFFFFF AND MUL OR SWAP1 SSTORE POP DUP8 PUSH1 0x10 PUSH0 PUSH2 0x100 EXP DUP2 SLOAD DUP2 PUSH20 0xFFFFFFFFFFFFFFFFFFFFFFFFFFFFFFFFFFFFFFFF MUL NOT AND SWAP1 DUP4 PUSH20 0xFFFFFFFFFFFFFFFFFFFFFFFFFFFFFFFFFFFFFFFF AND MUL OR SWAP1 SSTORE POP DUP7 PUSH1 0x11 PUSH0 PUSH2 0x100 EXP DUP2 SLOAD DUP2 PUSH20 0xFFFFFFFFFFFFFFFFFFFFFFFFFFFFFFFFFFFFFFFF MUL NOT AND SWAP1 DUP4 PUSH20 0xFFFFFFFFFFFFFFFFFFFFFFFFFFFFFFFFFFFFFFFF AND MUL OR SWAP1 SSTORE POP DUP6 PUSH1 0x14 PUSH0 PUSH2 0x100 EXP DUP2 SLOAD DUP2 PUSH20 0xFFFFFFFFFFFFFFFFFFFFFFFFFFFFFFFFFFFFFFFF MUL NOT AND SWAP1 DUP4 PUSH20 0xFFFFFFFFFFFFFFFFFFFFFFFFFFFFFFFFFFFFFFFF AND MUL OR SWAP1 SSTORE POP DUP4 ISZERO PUSH2 0x2A29 JUMPI PUSH0 DUP6 PUSH0 ADD PUSH1 0x8 PUSH2 0x100 EXP DUP2 SLOAD DUP2 PUSH1 0xFF MUL NOT AND SWAP1 DUP4 ISZERO ISZERO MUL OR SWAP1 SSTORE POP PUSH32 0xC7F505B2F371AE2175EE4913F4499E1F2633A7B5936321EED1CDAEB6115181D2 PUSH1 0x1 PUSH1 0x40 MLOAD PUSH2 0x2A20 SWAP2 SWAP1 PUSH2 0x517C JUMP JUMPDEST PUSH1 0x40 MLOAD DUP1 SWAP2 SUB SWAP1 LOG1 JUMPDEST POP POP POP POP POP POP POP POP POP POP POP POP POP POP JUMP JUMPDEST PUSH0 DUP1 SLOAD SWAP1 PUSH2 0x100 EXP SWAP1 DIV PUSH20 0xFFFFFFFFFFFFFFFFFFFFFFFFFFFFFFFFFFFFFFFF AND PUSH20 0xFFFFFFFFFFFFFFFFFFFFFFFFFFFFFFFFFFFFFFFF AND CALLER PUSH20 0xFFFFFFFFFFFFFFFFFFFFFFFFFFFFFFFFFFFFFFFF AND EQ PUSH1 0x40 MLOAD DUP1 PUSH1 0x40 ADD PUSH1 0x40 MSTORE DUP1 PUSH1 0x1 DUP2 MSTORE PUSH1 0x20 ADD PUSH32 0x3200000000000000000000000000000000000000000000000000000000000000 DUP2 MSTORE POP SWAP1 PUSH2 0x2AFE JUMPI PUSH1 0x40 MLOAD PUSH32 0x8C379A000000000000000000000000000000000000000000000000000000000 DUP2 MSTORE PUSH1 0x4 ADD PUSH2 0x2AF5 SWAP2 SWAP1 PUSH2 0x4CC2 JUMP JUMPDEST PUSH1 0x40 MLOAD DUP1 SWAP2 SUB SWAP1 REVERT JUMPDEST POP DUP1 PUSH1 0x17 DUP2 SWAP1 SSTORE POP DUP3 PUSH1 0x16 DUP2 SWAP1 SSTORE POP DUP2 PUSH1 0x15 DUP2 SWAP1 SSTORE POP POP POP POP JUMP JUMPDEST PUSH2 0xBB8 DUP2 JUMP JUMPDEST PUSH1 0x10 PUSH0 SWAP1 SLOAD SWAP1 PUSH2 0x100 EXP SWAP1 DIV PUSH20 0xFFFFFFFFFFFFFFFFFFFFFFFFFFFFFFFFFFFFFFFF AND DUP2 JUMP JUMPDEST PUSH1 0x19 SLOAD DUP2 JUMP JUMPDEST PUSH1 0xA DUP1 PUSH0 ADD SLOAD SWAP1 DUP1 PUSH1 0x1 ADD PUSH0 SWAP1 SLOAD SWAP1 PUSH2 0x100 EXP SWAP1 DIV PUSH1 0xFF AND SWAP1 DUP1 PUSH1 0x2 ADD SLOAD SWAP1 DUP1 PUSH1 0x3 ADD PUSH0 SWAP1 SLOAD SWAP1 PUSH2 0x100 EXP SWAP1 DIV PUSH1 0xFF AND SWAP1 DUP1 PUSH1 0x3 ADD PUSH1 0x1 SWAP1 SLOAD SWAP1 PUSH2 0x100 EXP SWAP1 DIV PUSH20 0xFFFFFFFFFFFFFFFFFFFFFFFFFFFFFFFFFFFFFFFF AND SWAP1 DUP1 PUSH1 0x3 ADD PUSH1 0x15 SWAP1 SLOAD SWAP1 PUSH2 0x100 EXP SWAP1 DIV PUSH1 0xFF AND SWAP1 DUP1 PUSH1 0x4 ADD PUSH0 SWAP1 SLOAD SWAP1 PUSH2 0x100 EXP SWAP1 DIV PUSH20 0xFFFFFFFFFFFFFFFFFFFFFFFFFFFFFFFFFFFFFFFF AND SWAP1 DUP1 PUSH1 0x4 ADD PUSH1 0x14 SWAP1 SLOAD SWAP1 PUSH2 0x100 EXP SWAP1 DIV PUSH1 0xFF AND SWAP1 DUP1 PUSH1 0x4 ADD PUSH1 0x15 SWAP1 SLOAD SWAP1 PUSH2 0x100 EXP SWAP1 DIV PUSH1 0xFF AND SWAP1 DUP1 PUSH1 0x5 ADD SLOAD SWAP1 POP DUP11 JUMP JUMPDEST PUSH0 DUP1 SLOAD SWAP1 PUSH2 0x100 EXP SWAP1 DIV PUSH20 0xFFFFFFFFFFFFFFFFFFFFFFFFFFFFFFFFFFFFFFFF AND PUSH20 0xFFFFFFFFFFFFFFFFFFFFFFFFFFFFFFFFFFFFFFFF AND CALLER PUSH20 0xFFFFFFFFFFFFFFFFFFFFFFFFFFFFFFFFFFFFFFFF AND EQ PUSH1 0x40 MLOAD DUP1 PUSH1 0x40 ADD PUSH1 0x40 MSTORE DUP1 PUSH1 0x1 DUP2 MSTORE PUSH1 0x20 ADD PUSH32 0x3200000000000000000000000000000000000000000000000000000000000000 DUP2 MSTORE POP SWAP1 PUSH2 0x2CCE JUMPI PUSH1 0x40 MLOAD PUSH32 0x8C379A000000000000000000000000000000000000000000000000000000000 DUP2 MSTORE PUSH1 0x4 ADD PUSH2 0x2CC5 SWAP2 SWAP1 PUSH2 0x4CC2 JUMP JUMPDEST PUSH1 0x40 MLOAD DUP1 SWAP2 SUB SWAP1 REVERT JUMPDEST POP PUSH0 PUSH1 0x9 PUSH0 SWAP1 SLOAD SWAP1 PUSH2 0x100 EXP SWAP1 DIV PUSH20 0xFFFFFFFFFFFFFFFFFFFFFFFFFFFFFFFFFFFFFFFF AND SWAP1 POP PUSH0 PUSH1 0x2 PUSH0 SWAP1 SLOAD SWAP1 PUSH2 0x100 EXP SWAP1 DIV PUSH20 0xFFFFFFFFFFFFFFFFFFFFFFFFFFFFFFFFFFFFFFFF AND PUSH20 0xFFFFFFFFFFFFFFFFFFFFFFFFFFFFFFFFFFFFFFFF AND PUSH4 0x70A08231 ADDRESS PUSH1 0x40 MLOAD DUP3 PUSH4 0xFFFFFFFF AND PUSH1 0xE0 SHL DUP2 MSTORE PUSH1 0x4 ADD PUSH2 0x2D4F SWAP2 SWAP1 PUSH2 0x4403 JUMP JUMPDEST PUSH1 0x20 PUSH1 0x40 MLOAD DUP1 DUP4 SUB DUP2 DUP7 GAS STATICCALL ISZERO DUP1 ISZERO PUSH2 0x2D6A JUMPI RETURNDATASIZE PUSH0 DUP1 RETURNDATACOPY RETURNDATASIZE PUSH0 REVERT JUMPDEST POP POP POP POP PUSH1 0x40 MLOAD RETURNDATASIZE PUSH1 0x1F NOT PUSH1 0x1F DUP3 ADD AND DUP3 ADD DUP1 PUSH1 0x40 MSTORE POP DUP2 ADD SWAP1 PUSH2 0x2D8E SWAP2 SWAP1 PUSH2 0x4CF6 JUMP JUMPDEST SWAP1 POP PUSH0 DUP2 GT PUSH1 0x40 MLOAD DUP1 PUSH1 0x40 ADD PUSH1 0x40 MSTORE DUP1 PUSH1 0x2 DUP2 MSTORE PUSH1 0x20 ADD PUSH32 0x3130000000000000000000000000000000000000000000000000000000000000 DUP2 MSTORE POP SWAP1 PUSH2 0x2E0A JUMPI PUSH1 0x40 MLOAD PUSH32 0x8C379A000000000000000000000000000000000000000000000000000000000 DUP2 MSTORE PUSH1 0x4 ADD PUSH2 0x2E01 SWAP2 SWAP1 PUSH2 0x4CC2 JUMP JUMPDEST PUSH1 0x40 MLOAD DUP1 SWAP2 SUB SWAP1 REVERT JUMPDEST POP PUSH0 PUSH1 0x1 PUSH0 SWAP1 SLOAD SWAP1 PUSH2 0x100 EXP SWAP1 DIV PUSH20 0xFFFFFFFFFFFFFFFFFFFFFFFFFFFFFFFFFFFFFFFF AND PUSH20 0xFFFFFFFFFFFFFFFFFFFFFFFFFFFFFFFFFFFFFFFF AND PUSH4 0x26B1D5F PUSH1 0x40 MLOAD DUP2 PUSH4 0xFFFFFFFF AND PUSH1 0xE0 SHL DUP2 MSTORE PUSH1 0x4 ADD PUSH1 0x20 PUSH1 0x40 MLOAD DUP1 DUP4 SUB DUP2 DUP7 GAS STATICCALL ISZERO DUP1 ISZERO PUSH2 0x2E76 JUMPI RETURNDATASIZE PUSH0 DUP1 RETURNDATACOPY RETURNDATASIZE PUSH0 REVERT JUMPDEST POP POP POP POP PUSH1 0x40 MLOAD RETURNDATASIZE PUSH1 0x1F NOT PUSH1 0x1F DUP3 ADD AND DUP3 ADD DUP1 PUSH1 0x40 MSTORE POP DUP2 ADD SWAP1 PUSH2 0x2E9A SWAP2 SWAP1 PUSH2 0x4D35 JUMP JUMPDEST SWAP1 POP DUP1 PUSH20 0xFFFFFFFFFFFFFFFFFFFFFFFFFFFFFFFFFFFFFFFF AND PUSH4 0x69328DEC DUP5 DUP5 ADDRESS PUSH1 0x40 MLOAD DUP5 PUSH4 0xFFFFFFFF AND PUSH1 0xE0 SHL DUP2 MSTORE PUSH1 0x4 ADD PUSH2 0x2ED9 SWAP4 SWAP3 SWAP2 SWAP1 PUSH2 0x5195 JUMP JUMPDEST PUSH1 0x20 PUSH1 0x40 MLOAD DUP1 DUP4 SUB DUP2 PUSH0 DUP8 GAS CALL ISZERO DUP1 ISZERO PUSH2 0x2EF5 JUMPI RETURNDATASIZE PUSH0 DUP1 RETURNDATACOPY RETURNDATASIZE PUSH0 REVERT JUMPDEST POP POP POP POP PUSH1 0x40 MLOAD RETURNDATASIZE PUSH1 0x1F NOT PUSH1 0x1F DUP3 ADD AND DUP3 ADD DUP1 PUSH1 0x40 MSTORE POP DUP2 ADD SWAP1 PUSH2 0x2F19 SWAP2 SWAP1 PUSH2 0x4CF6 JUMP JUMPDEST POP DUP3 PUSH20 0xFFFFFFFFFFFFFFFFFFFFFFFFFFFFFFFFFFFFFFFF AND ADDRESS PUSH20 0xFFFFFFFFFFFFFFFFFFFFFFFFFFFFFFFFFFFFFFFF AND PUSH32 0x83AA598DD3E269AF677698C6847B3BA594A67D286A771D01099AAFA911A91B64 DUP5 PUSH1 0x40 MLOAD PUSH2 0x2F77 SWAP2 SWAP1 PUSH2 0x4119 JUMP JUMPDEST PUSH1 0x40 MLOAD DUP1 SWAP2 SUB SWAP1 LOG3 PUSH0 PUSH1 0x2 PUSH1 0x14 PUSH2 0x100 EXP DUP2 SLOAD DUP2 PUSH1 0xFF MUL NOT AND SWAP1 DUP4 ISZERO ISZERO MUL OR SWAP1 SSTORE POP PUSH0 PUSH1 0x9 PUSH0 SWAP1 SLOAD SWAP1 PUSH2 0x100 EXP SWAP1 DIV PUSH20 0xFFFFFFFFFFFFFFFFFFFFFFFFFFFFFFFFFFFFFFFF AND PUSH20 0xFFFFFFFFFFFFFFFFFFFFFFFFFFFFFFFFFFFFFFFF AND PUSH4 0x70A08231 ADDRESS PUSH1 0x40 MLOAD DUP3 PUSH4 0xFFFFFFFF AND PUSH1 0xE0 SHL DUP2 MSTORE PUSH1 0x4 ADD PUSH2 0x2FF4 SWAP2 SWAP1 PUSH2 0x4403 JUMP JUMPDEST PUSH1 0x20 PUSH1 0x40 MLOAD DUP1 DUP4 SUB DUP2 DUP7 GAS STATICCALL ISZERO DUP1 ISZERO PUSH2 0x300F JUMPI RETURNDATASIZE PUSH0 DUP1 RETURNDATACOPY RETURNDATASIZE PUSH0 REVERT JUMPDEST POP POP POP POP PUSH1 0x40 MLOAD RETURNDATASIZE PUSH1 0x1F NOT PUSH1 0x1F DUP3 ADD AND DUP3 ADD DUP1 PUSH1 0x40 MSTORE POP DUP2 ADD SWAP1 PUSH2 0x3033 SWAP2 SWAP1 PUSH2 0x4CF6 JUMP JUMPDEST SWAP1 POP PUSH0 PUSH1 0x8 SLOAD DUP3 PUSH2 0x3044 SWAP2 SWAP1 PUSH2 0x4F23 JUMP JUMPDEST GT ISZERO PUSH2 0x30E7 JUMPI PUSH2 0x2710 DUP7 PUSH1 0x8 SLOAD DUP4 PUSH2 0x305C SWAP2 SWAP1 PUSH2 0x4F23 JUMP JUMPDEST PUSH2 0x3066 SWAP2 SWAP1 PUSH2 0x4E85 JUMP JUMPDEST PUSH2 0x3070 SWAP2 SWAP1 PUSH2 0x4EF3 JUMP JUMPDEST PUSH1 0x1A DUP2 SWAP1 SSTORE POP DUP7 DUP6 PUSH2 0x3082 SWAP2 SWAP1 PUSH2 0x4E52 JUMP JUMPDEST DUP8 PUSH1 0x1A SLOAD PUSH1 0x8 SLOAD DUP5 PUSH2 0x3094 SWAP2 SWAP1 PUSH2 0x4F23 JUMP JUMPDEST PUSH2 0x309E SWAP2 SWAP1 PUSH2 0x4F23 JUMP JUMPDEST PUSH2 0x30A8 SWAP2 SWAP1 PUSH2 0x4E85 JUMP JUMPDEST PUSH2 0x30B2 SWAP2 SWAP1 PUSH2 0x4EF3 JUMP JUMPDEST PUSH1 0x18 DUP2 SWAP1 SSTORE POP PUSH1 0x18 SLOAD PUSH1 0x1A SLOAD PUSH1 0x8 SLOAD DUP4 PUSH2 0x30CC SWAP2 SWAP1 PUSH2 0x4F23 JUMP JUMPDEST PUSH2 0x30D6 SWAP2 SWAP1 PUSH2 0x4F23 JUMP JUMPDEST PUSH2 0x30E0 SWAP2 SWAP1 PUSH2 0x4F23 JUMP JUMPDEST PUSH1 0x19 DUP2 SWAP1 SSTORE POP JUMPDEST POP POP POP POP POP POP POP JUMP JUMPDEST PUSH0 DUP1 SLOAD SWAP1 PUSH2 0x100 EXP SWAP1 DIV PUSH20 0xFFFFFFFFFFFFFFFFFFFFFFFFFFFFFFFFFFFFFFFF AND PUSH20 0xFFFFFFFFFFFFFFFFFFFFFFFFFFFFFFFFFFFFFFFF AND CALLER PUSH20 0xFFFFFFFFFFFFFFFFFFFFFFFFFFFFFFFFFFFFFFFF AND EQ PUSH1 0x40 MLOAD DUP1 PUSH1 0x40 ADD PUSH1 0x40 MSTORE DUP1 PUSH1 0x1 DUP2 MSTORE PUSH1 0x20 ADD PUSH32 0x3200000000000000000000000000000000000000000000000000000000000000 DUP2 MSTORE POP SWAP1 PUSH2 0x31B5 JUMPI PUSH1 0x40 MLOAD PUSH32 0x8C379A000000000000000000000000000000000000000000000000000000000 DUP2 MSTORE PUSH1 0x4 ADD PUSH2 0x31AC SWAP2 SWAP1 PUSH2 0x4CC2 JUMP JUMPDEST PUSH1 0x40 MLOAD DUP1 SWAP2 SUB SWAP1 REVERT JUMPDEST POP DUP1 PUSH1 0x12 PUSH0 PUSH2 0x100 EXP DUP2 SLOAD DUP2 PUSH20 0xFFFFFFFFFFFFFFFFFFFFFFFFFFFFFFFFFFFFFFFF MUL NOT AND SWAP1 DUP4 PUSH20 0xFFFFFFFFFFFFFFFFFFFFFFFFFFFFFFFFFFFFFFFF AND MUL OR SWAP1 SSTORE POP POP JUMP JUMPDEST PUSH0 DUP1 SLOAD SWAP1 PUSH2 0x100 EXP SWAP1 DIV PUSH20 0xFFFFFFFFFFFFFFFFFFFFFFFFFFFFFFFFFFFFFFFF AND DUP2 JUMP JUMPDEST PUSH1 0x8 SLOAD DUP2 JUMP JUMPDEST PUSH0 PUSH1 0x9 PUSH0 SWAP1 SLOAD SWAP1 PUSH2 0x100 EXP SWAP1 DIV PUSH20 0xFFFFFFFFFFFFFFFFFFFFFFFFFFFFFFFFFFFFFFFF AND SWAP1 POP SWAP1 JUMP JUMPDEST PUSH1 0x2 PUSH0 SWAP1 SLOAD SWAP1 PUSH2 0x100 EXP SWAP1 DIV PUSH20 0xFFFFFFFFFFFFFFFFFFFFFFFFFFFFFFFFFFFFFFFF AND DUP2 JUMP JUMPDEST PUSH1 0x1C SLOAD DUP2 JUMP JUMPDEST PUSH1 0x16 SLOAD DUP2 JUMP JUMPDEST PUSH1 0x9 PUSH0 SWAP1 SLOAD SWAP1 PUSH2 0x100 EXP SWAP1 DIV PUSH20 0xFFFFFFFFFFFFFFFFFFFFFFFFFFFFFFFFFFFFFFFF AND DUP2 JUMP JUMPDEST PUSH0 DUP1 ISZERO ISZERO DUP3 ISZERO ISZERO SUB PUSH2 0x3356 JUMPI PUSH0 DUP1 PUSH0 DUP1 PUSH0 PUSH1 0x10 PUSH0 SWAP1 SLOAD SWAP1 PUSH2 0x100 EXP SWAP1 DIV PUSH20 0xFFFFFFFFFFFFFFFFFFFFFFFFFFFFFFFFFFFFFFFF AND PUSH20 0xFFFFFFFFFFFFFFFFFFFFFFFFFFFFFFFFFFFFFFFF AND PUSH4 0xFEAF968C PUSH1 0x40 MLOAD DUP2 PUSH4 0xFFFFFFFF AND PUSH1 0xE0 SHL DUP2 MSTORE PUSH1 0x4 ADD PUSH1 0xA0 PUSH1 0x40 MLOAD DUP1 DUP4 SUB DUP2 DUP7 GAS STATICCALL ISZERO DUP1 ISZERO PUSH2 0x331B JUMPI RETURNDATASIZE PUSH0 DUP1 RETURNDATACOPY RETURNDATASIZE PUSH0 REVERT JUMPDEST POP POP POP POP PUSH1 0x40 MLOAD RETURNDATASIZE PUSH1 0x1F NOT PUSH1 0x1F DUP3 ADD AND DUP3 ADD DUP1 PUSH1 0x40 MSTORE POP DUP2 ADD SWAP1 PUSH2 0x333F SWAP2 SWAP1 PUSH2 0x523C JUMP JUMPDEST SWAP5 POP SWAP5 POP SWAP5 POP SWAP5 POP SWAP5 POP DUP4 SWAP6 POP POP POP POP POP POP PUSH2 0x33FC JUMP JUMPDEST PUSH0 DUP1 PUSH0 DUP1 PUSH0 PUSH1 0x11 PUSH0 SWAP1 SLOAD SWAP1 PUSH2 0x100 EXP SWAP1 DIV PUSH20 0xFFFFFFFFFFFFFFFFFFFFFFFFFFFFFFFFFFFFFFFF AND PUSH20 0xFFFFFFFFFFFFFFFFFFFFFFFFFFFFFFFFFFFFFFFF AND PUSH4 0xFEAF968C PUSH1 0x40 MLOAD DUP2 PUSH4 0xFFFFFFFF AND PUSH1 0xE0 SHL DUP2 MSTORE PUSH1 0x4 ADD PUSH1 0xA0 PUSH1 0x40 MLOAD DUP1 DUP4 SUB DUP2 DUP7 GAS STATICCALL ISZERO DUP1 ISZERO PUSH2 0x33C5 JUMPI RETURNDATASIZE PUSH0 DUP1 RETURNDATACOPY RETURNDATASIZE PUSH0 REVERT JUMPDEST POP POP POP POP PUSH1 0x40 MLOAD RETURNDATASIZE PUSH1 0x1F NOT PUSH1 0x1F DUP3 ADD AND DUP3 ADD DUP1 PUSH1 0x40 MSTORE POP DUP2 ADD SWAP1 PUSH2 0x33E9 SWAP2 SWAP1 PUSH2 0x523C JUMP JUMPDEST SWAP5 POP SWAP5 POP SWAP5 POP SWAP5 POP SWAP5 POP DUP4 SWAP6 POP POP POP POP POP POP JUMPDEST SWAP3 SWAP2 POP POP JUMP JUMPDEST PUSH0 DUP1 PUSH0 DUP1 PUSH0 DUP1 PUSH0 PUSH1 0x1 PUSH0 SWAP1 SLOAD SWAP1 PUSH2 0x100 EXP SWAP1 DIV PUSH20 0xFFFFFFFFFFFFFFFFFFFFFFFFFFFFFFFFFFFFFFFF AND PUSH20 0xFFFFFFFFFFFFFFFFFFFFFFFFFFFFFFFFFFFFFFFF AND PUSH4 0x26B1D5F PUSH1 0x40 MLOAD DUP2 PUSH4 0xFFFFFFFF AND PUSH1 0xE0 SHL DUP2 MSTORE PUSH1 0x4 ADD PUSH1 0x20 PUSH1 0x40 MLOAD DUP1 DUP4 SUB DUP2 DUP7 GAS STATICCALL ISZERO DUP1 ISZERO PUSH2 0x3473 JUMPI RETURNDATASIZE PUSH0 DUP1 RETURNDATACOPY RETURNDATASIZE PUSH0 REVERT JUMPDEST POP POP POP POP PUSH1 0x40 MLOAD RETURNDATASIZE PUSH1 0x1F NOT PUSH1 0x1F DUP3 ADD AND DUP3 ADD DUP1 PUSH1 0x40 MSTORE POP DUP2 ADD SWAP1 PUSH2 0x3497 SWAP2 SWAP1 PUSH2 0x4D35 JUMP JUMPDEST SWAP1 POP DUP1 PUSH20 0xFFFFFFFFFFFFFFFFFFFFFFFFFFFFFFFFFFFFFFFF AND PUSH4 0xBF92857C DUP10 PUSH1 0x40 MLOAD DUP3 PUSH4 0xFFFFFFFF AND PUSH1 0xE0 SHL DUP2 MSTORE PUSH1 0x4 ADD PUSH2 0x34D2 SWAP2 SWAP1 PUSH2 0x4403 JUMP JUMPDEST PUSH1 0xC0 PUSH1 0x40 MLOAD DUP1 DUP4 SUB DUP2 DUP7 GAS STATICCALL ISZERO DUP1 ISZERO PUSH2 0x34ED JUMPI RETURNDATASIZE PUSH0 DUP1 RETURNDATACOPY RETURNDATASIZE PUSH0 REVERT JUMPDEST POP POP POP POP PUSH1 0x40 MLOAD RETURNDATASIZE PUSH1 0x1F NOT PUSH1 0x1F DUP3 ADD AND DUP3 ADD DUP1 PUSH1 0x40 MSTORE POP DUP2 ADD SWAP1 PUSH2 0x3511 SWAP2 SWAP1 PUSH2 0x52B3 JUMP JUMPDEST SWAP7 POP SWAP7 POP SWAP7 POP SWAP7 POP SWAP7 POP SWAP7 POP POP SWAP2 SWAP4 SWAP6 POP SWAP2 SWAP4 SWAP6 JUMP JUMPDEST PUSH1 0x3 PUSH0 SWAP1 SLOAD SWAP1 PUSH2 0x100 EXP SWAP1 DIV PUSH20 0xFFFFFFFFFFFFFFFFFFFFFFFFFFFFFFFFFFFFFFFF AND DUP2 JUMP JUMPDEST PUSH1 0x4 PUSH0 SWAP1 SLOAD SWAP1 PUSH2 0x100 EXP SWAP1 DIV PUSH20 0xFFFFFFFFFFFFFFFFFFFFFFFFFFFFFFFFFFFFFFFF AND DUP2 JUMP JUMPDEST PUSH1 0x5 PUSH0 SWAP1 SLOAD SWAP1 PUSH2 0x100 EXP SWAP1 DIV PUSH20 0xFFFFFFFFFFFFFFFFFFFFFFFFFFFFFFFFFFFFFFFF AND DUP2 JUMP JUMPDEST PUSH1 0x1 PUSH0 SWAP1 SLOAD SWAP1 PUSH2 0x100 EXP SWAP1 DIV PUSH20 0xFFFFFFFFFFFFFFFFFFFFFFFFFFFFFFFFFFFFFFFF AND DUP2 JUMP JUMPDEST PUSH1 0x14 PUSH0 SWAP1 SLOAD SWAP1 PUSH2 0x100 EXP SWAP1 DIV PUSH20 0xFFFFFFFFFFFFFFFFFFFFFFFFFFFFFFFFFFFFFFFF AND DUP2 JUMP JUMPDEST PUSH0 DUP1 SLOAD SWAP1 PUSH2 0x100 EXP SWAP1 DIV PUSH20 0xFFFFFFFFFFFFFFFFFFFFFFFFFFFFFFFFFFFFFFFF AND PUSH20 0xFFFFFFFFFFFFFFFFFFFFFFFFFFFFFFFFFFFFFFFF AND CALLER PUSH20 0xFFFFFFFFFFFFFFFFFFFFFFFFFFFFFFFFFFFFFFFF AND EQ PUSH1 0x40 MLOAD DUP1 PUSH1 0x40 ADD PUSH1 0x40 MSTORE DUP1 PUSH1 0x1 DUP2 MSTORE PUSH1 0x20 ADD PUSH32 0x3200000000000000000000000000000000000000000000000000000000000000 DUP2 MSTORE POP SWAP1 PUSH2 0x36A5 JUMPI PUSH1 0x40 MLOAD PUSH32 0x8C379A000000000000000000000000000000000000000000000000000000000 DUP2 MSTORE PUSH1 0x4 ADD PUSH2 0x369C SWAP2 SWAP1 PUSH2 0x4CC2 JUMP JUMPDEST PUSH1 0x40 MLOAD DUP1 SWAP2 SUB SWAP1 REVERT JUMPDEST POP DUP1 PUSH1 0x1D DUP2 SWAP1 SSTORE POP DUP2 PUSH1 0x1C DUP2 SWAP1 SSTORE POP DUP3 PUSH1 0x1B DUP2 SWAP1 SSTORE POP POP POP POP JUMP JUMPDEST PUSH1 0x1B SLOAD DUP2 JUMP JUMPDEST PUSH0 DUP1 SLOAD SWAP1 PUSH2 0x100 EXP SWAP1 DIV PUSH20 0xFFFFFFFFFFFFFFFFFFFFFFFFFFFFFFFFFFFFFFFF AND PUSH20 0xFFFFFFFFFFFFFFFFFFFFFFFFFFFFFFFFFFFFFFFF AND CALLER PUSH20 0xFFFFFFFFFFFFFFFFFFFFFFFFFFFFFFFFFFFFFFFF AND EQ PUSH1 0x40 MLOAD DUP1 PUSH1 0x40 ADD PUSH1 0x40 MSTORE DUP1 PUSH1 0x1 DUP2 MSTORE PUSH1 0x20 ADD PUSH32 0x3200000000000000000000000000000000000000000000000000000000000000 DUP2 MSTORE POP SWAP1 PUSH2 0x378B JUMPI PUSH1 0x40 MLOAD PUSH32 0x8C379A000000000000000000000000000000000000000000000000000000000 DUP2 MSTORE PUSH1 0x4 ADD PUSH2 0x3782 SWAP2 SWAP1 PUSH2 0x4CC2 JUMP JUMPDEST PUSH1 0x40 MLOAD DUP1 SWAP2 SUB SWAP1 REVERT JUMPDEST POP PUSH1 0x1 PUSH1 0xA PUSH1 0x1 ADD PUSH0 PUSH2 0x100 EXP DUP2 SLOAD DUP2 PUSH1 0xFF MUL NOT AND SWAP1 DUP4 ISZERO ISZERO MUL OR SWAP1 SSTORE POP JUMP JUMPDEST PUSH0 PUSH2 0x37D8 DUP3 PUSH1 0x3 PUSH0 SWAP1 SLOAD SWAP1 PUSH2 0x100 EXP SWAP1 DIV PUSH20 0xFFFFFFFFFFFFFFFFFFFFFFFFFFFFFFFFFFFFFFFF AND DUP7 PUSH2 0x3F33 JUMP JUMPDEST PUSH0 PUSH1 0x4 PUSH0 SWAP1 SLOAD SWAP1 PUSH2 0x100 EXP SWAP1 DIV PUSH20 0xFFFFFFFFFFFFFFFFFFFFFFFFFFFFFFFFFFFFFFFF AND PUSH20 0xFFFFFFFFFFFFFFFFFFFFFFFFFFFFFFFFFFFFFFFF AND PUSH4 0x1698EE82 DUP5 DUP7 PUSH2 0xBB8 PUSH1 0x40 MLOAD DUP5 PUSH4 0xFFFFFFFF AND PUSH1 0xE0 SHL DUP2 MSTORE PUSH1 0x4 ADD PUSH2 0x3839 SWAP4 SWAP3 SWAP2 SWAP1 PUSH2 0x533C JUMP JUMPDEST PUSH1 0x20 PUSH1 0x40 MLOAD DUP1 DUP4 SUB DUP2 DUP7 GAS STATICCALL ISZERO DUP1 ISZERO PUSH2 0x3854 JUMPI RETURNDATASIZE PUSH0 DUP1 RETURNDATACOPY RETURNDATASIZE PUSH0 REVERT JUMPDEST POP POP POP POP PUSH1 0x40 MLOAD RETURNDATASIZE PUSH1 0x1F NOT PUSH1 0x1F DUP3 ADD AND DUP3 ADD DUP1 PUSH1 0x40 MSTORE POP DUP2 ADD SWAP1 PUSH2 0x3878 SWAP2 SWAP1 PUSH2 0x4D35 JUMP JUMPDEST SWAP1 POP PUSH0 DUP2 PUSH20 0xFFFFFFFFFFFFFFFFFFFFFFFFFFFFFFFFFFFFFFFF AND PUSH4 0xDDCA3F43 PUSH1 0x40 MLOAD DUP2 PUSH4 0xFFFFFFFF AND PUSH1 0xE0 SHL DUP2 MSTORE PUSH1 0x4 ADD PUSH1 0x20 PUSH1 0x40 MLOAD DUP1 DUP4 SUB DUP2 DUP7 GAS STATICCALL ISZERO DUP1 ISZERO PUSH2 0x38C4 JUMPI RETURNDATASIZE PUSH0 DUP1 RETURNDATACOPY RETURNDATASIZE PUSH0 REVERT JUMPDEST POP POP POP POP PUSH1 0x40 MLOAD RETURNDATASIZE PUSH1 0x1F NOT PUSH1 0x1F DUP3 ADD AND DUP3 ADD DUP1 PUSH1 0x40 MSTORE POP DUP2 ADD SWAP1 PUSH2 0x38E8 SWAP2 SWAP1 PUSH2 0x539B JUMP JUMPDEST SWAP1 POP PUSH0 PUSH1 0x40 MLOAD DUP1 PUSH1 0xE0 ADD PUSH1 0x40 MSTORE DUP1 DUP7 PUSH20 0xFFFFFFFFFFFFFFFFFFFFFFFFFFFFFFFFFFFFFFFF AND DUP2 MSTORE PUSH1 0x20 ADD DUP8 PUSH20 0xFFFFFFFFFFFFFFFFFFFFFFFFFFFFFFFFFFFFFFFF AND DUP2 MSTORE PUSH1 0x20 ADD DUP4 PUSH3 0xFFFFFF AND DUP2 MSTORE PUSH1 0x20 ADD ADDRESS PUSH20 0xFFFFFFFFFFFFFFFFFFFFFFFFFFFFFFFFFFFFFFFF AND DUP2 MSTORE PUSH1 0x20 ADD DUP9 DUP2 MSTORE PUSH1 0x20 ADD PUSH0 DUP2 MSTORE PUSH1 0x20 ADD PUSH0 PUSH20 0xFFFFFFFFFFFFFFFFFFFFFFFFFFFFFFFFFFFFFFFF AND DUP2 MSTORE POP SWAP1 POP PUSH1 0x3 PUSH0 SWAP1 SLOAD SWAP1 PUSH2 0x100 EXP SWAP1 DIV PUSH20 0xFFFFFFFFFFFFFFFFFFFFFFFFFFFFFFFFFFFFFFFF AND PUSH20 0xFFFFFFFFFFFFFFFFFFFFFFFFFFFFFFFFFFFFFFFF AND PUSH4 0x4E45AAF DUP3 PUSH1 0x40 MLOAD DUP3 PUSH4 0xFFFFFFFF AND PUSH1 0xE0 SHL DUP2 MSTORE PUSH1 0x4 ADD PUSH2 0x39D7 SWAP2 SWAP1 PUSH2 0x5470 JUMP JUMPDEST PUSH1 0x20 PUSH1 0x40 MLOAD DUP1 DUP4 SUB DUP2 PUSH0 DUP8 GAS CALL ISZERO DUP1 ISZERO PUSH2 0x39F3 JUMPI RETURNDATASIZE PUSH0 DUP1 RETURNDATACOPY RETURNDATASIZE PUSH0 REVERT JUMPDEST POP POP POP POP PUSH1 0x40 MLOAD RETURNDATASIZE PUSH1 0x1F NOT PUSH1 0x1F DUP3 ADD AND DUP3 ADD DUP1 PUSH1 0x40 MSTORE POP DUP2 ADD SWAP1 PUSH2 0x3A17 SWAP2 SWAP1 PUSH2 0x4CF6 JUMP JUMPDEST SWAP4 POP POP POP POP SWAP4 SWAP3 POP POP POP JUMP JUMPDEST PUSH0 DUP1 PUSH1 0x4 PUSH0 SWAP1 SLOAD SWAP1 PUSH2 0x100 EXP SWAP1 DIV PUSH20 0xFFFFFFFFFFFFFFFFFFFFFFFFFFFFFFFFFFFFFFFF AND PUSH20 0xFFFFFFFFFFFFFFFFFFFFFFFFFFFFFFFFFFFFFFFF AND PUSH4 0x1698EE82 DUP5 DUP7 PUSH2 0xBB8 PUSH1 0x40 MLOAD DUP5 PUSH4 0xFFFFFFFF AND PUSH1 0xE0 SHL DUP2 MSTORE PUSH1 0x4 ADD PUSH2 0x3A85 SWAP4 SWAP3 SWAP2 SWAP1 PUSH2 0x533C JUMP JUMPDEST PUSH1 0x20 PUSH1 0x40 MLOAD DUP1 DUP4 SUB DUP2 DUP7 GAS STATICCALL ISZERO DUP1 ISZERO PUSH2 0x3AA0 JUMPI RETURNDATASIZE PUSH0 DUP1 RETURNDATACOPY RETURNDATASIZE PUSH0 REVERT JUMPDEST POP POP POP POP PUSH1 0x40 MLOAD RETURNDATASIZE PUSH1 0x1F NOT PUSH1 0x1F DUP3 ADD AND DUP3 ADD DUP1 PUSH1 0x40 MSTORE POP DUP2 ADD SWAP1 PUSH2 0x3AC4 SWAP2 SWAP1 PUSH2 0x4D35 JUMP JUMPDEST SWAP1 POP PUSH0 DUP2 PUSH20 0xFFFFFFFFFFFFFFFFFFFFFFFFFFFFFFFFFFFFFFFF AND PUSH4 0xDDCA3F43 PUSH1 0x40 MLOAD DUP2 PUSH4 0xFFFFFFFF AND PUSH1 0xE0 SHL DUP2 MSTORE PUSH1 0x4 ADD PUSH1 0x20 PUSH1 0x40 MLOAD DUP1 DUP4 SUB DUP2 DUP7 GAS STATICCALL ISZERO DUP1 ISZERO PUSH2 0x3B10 JUMPI RETURNDATASIZE PUSH0 DUP1 RETURNDATACOPY RETURNDATASIZE PUSH0 REVERT JUMPDEST POP POP POP POP PUSH1 0x40 MLOAD RETURNDATASIZE PUSH1 0x1F NOT PUSH1 0x1F DUP3 ADD AND DUP3 ADD DUP1 PUSH1 0x40 MSTORE POP DUP2 ADD SWAP1 PUSH2 0x3B34 SWAP2 SWAP1 PUSH2 0x539B JUMP JUMPDEST SWAP1 POP PUSH0 PUSH1 0x40 MLOAD DUP1 PUSH1 0xA0 ADD PUSH1 0x40 MSTORE DUP1 DUP7 PUSH20 0xFFFFFFFFFFFFFFFFFFFFFFFFFFFFFFFFFFFFFFFF AND DUP2 MSTORE PUSH1 0x20 ADD DUP8 PUSH20 0xFFFFFFFFFFFFFFFFFFFFFFFFFFFFFFFFFFFFFFFF AND DUP2 MSTORE PUSH1 0x20 ADD DUP9 DUP2 MSTORE PUSH1 0x20 ADD DUP4 PUSH3 0xFFFFFF AND DUP2 MSTORE PUSH1 0x20 ADD PUSH0 PUSH20 0xFFFFFFFFFFFFFFFFFFFFFFFFFFFFFFFFFFFFFFFF AND DUP2 MSTORE POP SWAP1 POP PUSH0 DUP1 PUSH0 DUP1 PUSH1 0x5 PUSH0 SWAP1 SLOAD SWAP1 PUSH2 0x100 EXP SWAP1 DIV PUSH20 0xFFFFFFFFFFFFFFFFFFFFFFFFFFFFFFFFFFFFFFFF AND PUSH20 0xFFFFFFFFFFFFFFFFFFFFFFFFFFFFFFFFFFFFFFFF AND PUSH4 0xC6A5026A DUP7 PUSH1 0x40 MLOAD DUP3 PUSH4 0xFFFFFFFF AND PUSH1 0xE0 SHL DUP2 MSTORE PUSH1 0x4 ADD PUSH2 0x3C05 SWAP2 SWAP1 PUSH2 0x54EF JUMP JUMPDEST PUSH1 0x80 PUSH1 0x40 MLOAD DUP1 DUP4 SUB DUP2 PUSH0 DUP8 GAS CALL ISZERO DUP1 ISZERO PUSH2 0x3C21 JUMPI RETURNDATASIZE PUSH0 DUP1 RETURNDATACOPY RETURNDATASIZE PUSH0 REVERT JUMPDEST POP POP POP POP PUSH1 0x40 MLOAD RETURNDATASIZE PUSH1 0x1F NOT PUSH1 0x1F DUP3 ADD AND DUP3 ADD DUP1 PUSH1 0x40 MSTORE POP DUP2 ADD SWAP1 PUSH2 0x3C45 SWAP2 SWAP1 PUSH2 0x556B JUMP JUMPDEST SWAP4 POP SWAP4 POP SWAP4 POP SWAP4 POP DUP4 SWAP8 POP POP POP POP POP POP POP POP SWAP4 SWAP3 POP POP POP JUMP JUMPDEST PUSH0 PUSH2 0x3C8B DUP3 PUSH1 0x3 PUSH0 SWAP1 SLOAD SWAP1 PUSH2 0x100 EXP SWAP1 DIV PUSH20 0xFFFFFFFFFFFFFFFFFFFFFFFFFFFFFFFFFFFFFFFF AND DUP7 PUSH2 0x3F33 JUMP JUMPDEST PUSH0 PUSH1 0x4 PUSH0 SWAP1 SLOAD SWAP1 PUSH2 0x100 EXP SWAP1 DIV PUSH20 0xFFFFFFFFFFFFFFFFFFFFFFFFFFFFFFFFFFFFFFFF AND PUSH20 0xFFFFFFFFFFFFFFFFFFFFFFFFFFFFFFFFFFFFFFFF AND PUSH4 0x1698EE82 DUP5 DUP7 PUSH2 0xBB8 PUSH1 0x40 MLOAD DUP5 PUSH4 0xFFFFFFFF AND PUSH1 0xE0 SHL DUP2 MSTORE PUSH1 0x4 ADD PUSH2 0x3CEC SWAP4 SWAP3 SWAP2 SWAP1 PUSH2 0x533C JUMP JUMPDEST PUSH1 0x20 PUSH1 0x40 MLOAD DUP1 DUP4 SUB DUP2 DUP7 GAS STATICCALL ISZERO DUP1 ISZERO PUSH2 0x3D07 JUMPI RETURNDATASIZE PUSH0 DUP1 RETURNDATACOPY RETURNDATASIZE PUSH0 REVERT JUMPDEST POP POP POP POP PUSH1 0x40 MLOAD RETURNDATASIZE PUSH1 0x1F NOT PUSH1 0x1F DUP3 ADD AND DUP3 ADD DUP1 PUSH1 0x40 MSTORE POP DUP2 ADD SWAP1 PUSH2 0x3D2B SWAP2 SWAP1 PUSH2 0x4D35 JUMP JUMPDEST SWAP1 POP PUSH0 DUP2 PUSH20 0xFFFFFFFFFFFFFFFFFFFFFFFFFFFFFFFFFFFFFFFF AND PUSH4 0xDDCA3F43 PUSH1 0x40 MLOAD DUP2 PUSH4 0xFFFFFFFF AND PUSH1 0xE0 SHL DUP2 MSTORE PUSH1 0x4 ADD PUSH1 0x20 PUSH1 0x40 MLOAD DUP1 DUP4 SUB DUP2 DUP7 GAS STATICCALL ISZERO DUP1 ISZERO PUSH2 0x3D77 JUMPI RETURNDATASIZE PUSH0 DUP1 RETURNDATACOPY RETURNDATASIZE PUSH0 REVERT JUMPDEST POP POP POP POP PUSH1 0x40 MLOAD RETURNDATASIZE PUSH1 0x1F NOT PUSH1 0x1F DUP3 ADD AND DUP3 ADD DUP1 PUSH1 0x40 MSTORE POP DUP2 ADD SWAP1 PUSH2 0x3D9B SWAP2 SWAP1 PUSH2 0x539B JUMP JUMPDEST SWAP1 POP PUSH0 PUSH1 0x40 MLOAD DUP1 PUSH1 0xE0 ADD PUSH1 0x40 MSTORE DUP1 DUP7 PUSH20 0xFFFFFFFFFFFFFFFFFFFFFFFFFFFFFFFFFFFFFFFF AND DUP2 MSTORE PUSH1 0x20 ADD DUP8 PUSH20 0xFFFFFFFFFFFFFFFFFFFFFFFFFFFFFFFFFFFFFFFF AND DUP2 MSTORE PUSH1 0x20 ADD DUP4 PUSH3 0xFFFFFF AND DUP2 MSTORE PUSH1 0x20 ADD ADDRESS PUSH20 0xFFFFFFFFFFFFFFFFFFFFFFFFFFFFFFFFFFFFFFFF AND DUP2 MSTORE PUSH1 0x20 ADD DUP10 DUP2 MSTORE PUSH1 0x20 ADD DUP9 DUP2 MSTORE PUSH1 0x20 ADD PUSH0 PUSH20 0xFFFFFFFFFFFFFFFFFFFFFFFFFFFFFFFFFFFFFFFF AND DUP2 MSTORE POP SWAP1 POP PUSH1 0x3 PUSH0 SWAP1 SLOAD SWAP1 PUSH2 0x100 EXP SWAP1 DIV PUSH20 0xFFFFFFFFFFFFFFFFFFFFFFFFFFFFFFFFFFFFFFFF AND PUSH20 0xFFFFFFFFFFFFFFFFFFFFFFFFFFFFFFFFFFFFFFFF AND PUSH4 0x5023B4DF DUP3 PUSH1 0x40 MLOAD DUP3 PUSH4 0xFFFFFFFF AND PUSH1 0xE0 SHL DUP2 MSTORE PUSH1 0x4 ADD PUSH2 0x3E8A SWAP2 SWAP1 PUSH2 0x565B JUMP JUMPDEST PUSH1 0x20 PUSH1 0x40 MLOAD DUP1 DUP4 SUB DUP2 PUSH0 DUP8 GAS CALL ISZERO DUP1 ISZERO PUSH2 0x3EA6 JUMPI RETURNDATASIZE PUSH0 DUP1 RETURNDATACOPY RETURNDATASIZE PUSH0 REVERT JUMPDEST POP POP POP POP PUSH1 0x40 MLOAD RETURNDATASIZE PUSH1 0x1F NOT PUSH1 0x1F DUP3 ADD AND DUP3 ADD DUP1 PUSH1 0x40 MSTORE POP DUP2 ADD SWAP1 PUSH2 0x3ECA SWAP2 SWAP1 PUSH2 0x4CF6 JUMP JUMPDEST SWAP4 POP DUP7 DUP5 LT ISZERO PUSH2 0x3F01 JUMPI PUSH2 0x3F00 DUP6 PUSH1 0x3 PUSH0 SWAP1 SLOAD SWAP1 PUSH2 0x100 EXP SWAP1 DIV PUSH20 0xFFFFFFFFFFFFFFFFFFFFFFFFFFFFFFFFFFFFFFFF AND PUSH0 PUSH2 0x3F33 JUMP JUMPDEST JUMPDEST POP POP POP SWAP5 SWAP4 POP POP POP POP JUMP JUMPDEST PUSH0 PUSH32 0xF0C57E16840DF040F15088DC2F81FE391C3923BEC73E23A9662EFC9C229C6A00 SWAP1 POP SWAP1 JUMP JUMPDEST PUSH0 DUP1 DUP5 PUSH20 0xFFFFFFFFFFFFFFFFFFFFFFFFFFFFFFFFFFFFFFFF AND PUSH4 0x95EA7B3 PUSH1 0xE0 SHL DUP6 DUP6 PUSH1 0x40 MLOAD PUSH1 0x24 ADD PUSH2 0x3F67 SWAP3 SWAP2 SWAP1 PUSH2 0x4D60 JUMP JUMPDEST PUSH1 0x40 MLOAD PUSH1 0x20 DUP2 DUP4 SUB SUB DUP2 MSTORE SWAP1 PUSH1 0x40 MSTORE SWAP1 PUSH28 0xFFFFFFFFFFFFFFFFFFFFFFFFFFFFFFFFFFFFFFFFFFFFFFFFFFFFFFFF NOT AND PUSH1 0x20 DUP3 ADD DUP1 MLOAD PUSH28 0xFFFFFFFFFFFFFFFFFFFFFFFFFFFFFFFFFFFFFFFFFFFFFFFFFFFFFFFF DUP4 DUP2 DUP4 AND OR DUP4 MSTORE POP POP POP POP PUSH1 0x40 MLOAD PUSH2 0x3FD1 SWAP2 SWAP1 PUSH2 0x56B8 JUMP JUMPDEST PUSH0 PUSH1 0x40 MLOAD DUP1 DUP4 SUB DUP2 PUSH0 DUP7 GAS CALL SWAP2 POP POP RETURNDATASIZE DUP1 PUSH0 DUP2 EQ PUSH2 0x400A JUMPI PUSH1 0x40 MLOAD SWAP2 POP PUSH1 0x1F NOT PUSH1 0x3F RETURNDATASIZE ADD AND DUP3 ADD PUSH1 0x40 MSTORE RETURNDATASIZE DUP3 MSTORE RETURNDATASIZE PUSH0 PUSH1 0x20 DUP5 ADD RETURNDATACOPY PUSH2 0x400F JUMP JUMPDEST PUSH1 0x60 SWAP2 POP JUMPDEST POP SWAP2 POP SWAP2 POP DUP2 DUP1 ISZERO PUSH2 0x403C JUMPI POP PUSH0 DUP2 MLOAD EQ DUP1 PUSH2 0x403B JUMPI POP DUP1 DUP1 PUSH1 0x20 ADD SWAP1 MLOAD DUP2 ADD SWAP1 PUSH2 0x403A SWAP2 SWAP1 PUSH2 0x4D9B JUMP JUMPDEST JUMPDEST JUMPDEST PUSH2 0x407B JUMPI PUSH1 0x40 MLOAD PUSH32 0x8C379A000000000000000000000000000000000000000000000000000000000 DUP2 MSTORE PUSH1 0x4 ADD PUSH2 0x4072 SWAP1 PUSH2 0x5718 JUMP JUMPDEST PUSH1 0x40 MLOAD DUP1 SWAP2 SUB SWAP1 REVERT JUMPDEST POP POP POP POP POP JUMP JUMPDEST PUSH1 0x40 MLOAD DUP1 PUSH2 0x140 ADD PUSH1 0x40 MSTORE DUP1 PUSH0 DUP2 MSTORE PUSH1 0x20 ADD PUSH0 ISZERO ISZERO DUP2 MSTORE PUSH1 0x20 ADD PUSH0 DUP2 MSTORE PUSH1 0x20 ADD PUSH0 ISZERO ISZERO DUP2 MSTORE PUSH1 0x20 ADD PUSH0 PUSH20 0xFFFFFFFFFFFFFFFFFFFFFFFFFFFFFFFFFFFFFFFF AND DUP2 MSTORE PUSH1 0x20 ADD PUSH0 ISZERO ISZERO DUP2 MSTORE PUSH1 0x20 ADD PUSH0 PUSH20 0xFFFFFFFFFFFFFFFFFFFFFFFFFFFFFFFFFFFFFFFF AND DUP2 MSTORE PUSH1 0x20 ADD PUSH0 ISZERO ISZERO DUP2 MSTORE PUSH1 0x20 ADD PUSH0 ISZERO ISZERO DUP2 MSTORE PUSH1 0x20 ADD PUSH0 DUP2 MSTORE POP SWAP1 JUMP JUMPDEST PUSH0 DUP2 SWAP1 POP SWAP2 SWAP1 POP JUMP JUMPDEST PUSH2 0x4113 DUP2 PUSH2 0x4101 JUMP JUMPDEST DUP3 MSTORE POP POP JUMP JUMPDEST PUSH0 PUSH1 0x20 DUP3 ADD SWAP1 POP PUSH2 0x412C PUSH0 DUP4 ADD DUP5 PUSH2 0x410A JUMP JUMPDEST SWAP3 SWAP2 POP POP JUMP JUMPDEST PUSH0 PUSH1 0x40 MLOAD SWAP1 POP SWAP1 JUMP JUMPDEST PUSH0 DUP1 REVERT JUMPDEST PUSH0 PUSH20 0xFFFFFFFFFFFFFFFFFFFFFFFFFFFFFFFFFFFFFFFF DUP3 AND SWAP1 POP SWAP2 SWAP1 POP JUMP JUMPDEST PUSH0 PUSH2 0x4168 DUP3 PUSH2 0x413F JUMP JUMPDEST SWAP1 POP SWAP2 SWAP1 POP JUMP JUMPDEST PUSH2 0x4178 DUP2 PUSH2 0x415E JUMP JUMPDEST DUP2 EQ PUSH2 0x4182 JUMPI PUSH0 DUP1 REVERT JUMPDEST POP JUMP JUMPDEST PUSH0 DUP2 CALLDATALOAD SWAP1 POP PUSH2 0x4193 DUP2 PUSH2 0x416F JUMP JUMPDEST SWAP3 SWAP2 POP POP JUMP JUMPDEST PUSH0 DUP2 ISZERO ISZERO SWAP1 POP SWAP2 SWAP1 POP JUMP JUMPDEST PUSH2 0x41AD DUP2 PUSH2 0x4199 JUMP JUMPDEST DUP2 EQ PUSH2 0x41B7 JUMPI PUSH0 DUP1 REVERT JUMPDEST POP JUMP JUMPDEST PUSH0 DUP2 CALLDATALOAD SWAP1 POP PUSH2 0x41C8 DUP2 PUSH2 0x41A4 JUMP JUMPDEST SWAP3 SWAP2 POP POP JUMP JUMPDEST PUSH0 DUP1 PUSH1 0x40 DUP4 DUP6 SUB SLT ISZERO PUSH2 0x41E4 JUMPI PUSH2 0x41E3 PUSH2 0x413B JUMP JUMPDEST JUMPDEST PUSH0 PUSH2 0x41F1 DUP6 DUP3 DUP7 ADD PUSH2 0x4185 JUMP JUMPDEST SWAP3 POP POP PUSH1 0x20 PUSH2 0x4202 DUP6 DUP3 DUP7 ADD PUSH2 0x41BA JUMP JUMPDEST SWAP2 POP POP SWAP3 POP SWAP3 SWAP1 POP JUMP JUMPDEST PUSH0 PUSH2 0x4216 DUP3 PUSH2 0x415E JUMP JUMPDEST SWAP1 POP SWAP2 SWAP1 POP JUMP JUMPDEST PUSH2 0x4226 DUP2 PUSH2 0x420C JUMP JUMPDEST DUP2 EQ PUSH2 0x4230 JUMPI PUSH0 DUP1 REVERT JUMPDEST POP JUMP JUMPDEST PUSH0 DUP2 CALLDATALOAD SWAP1 POP PUSH2 0x4241 DUP2 PUSH2 0x421D JUMP JUMPDEST SWAP3 SWAP2 POP POP JUMP JUMPDEST PUSH0 PUSH2 0x4251 DUP3 PUSH2 0x415E JUMP JUMPDEST SWAP1 POP SWAP2 SWAP1 POP JUMP JUMPDEST PUSH2 0x4261 DUP2 PUSH2 0x4247 JUMP JUMPDEST DUP2 EQ PUSH2 0x426B JUMPI PUSH0 DUP1 REVERT JUMPDEST POP JUMP JUMPDEST PUSH0 DUP2 CALLDATALOAD SWAP1 POP PUSH2 0x427C DUP2 PUSH2 0x4258 JUMP JUMPDEST SWAP3 SWAP2 POP POP JUMP JUMPDEST PUSH0 PUSH2 0x428C DUP3 PUSH2 0x415E JUMP JUMPDEST SWAP1 POP SWAP2 SWAP1 POP JUMP JUMPDEST PUSH2 0x429C DUP2 PUSH2 0x4282 JUMP JUMPDEST DUP2 EQ PUSH2 0x42A6 JUMPI PUSH0 DUP1 REVERT JUMPDEST POP JUMP JUMPDEST PUSH0 DUP2 CALLDATALOAD SWAP1 POP PUSH2 0x42B7 DUP2 PUSH2 0x4293 JUMP JUMPDEST SWAP3 SWAP2 POP POP JUMP JUMPDEST PUSH0 DUP1 PUSH0 PUSH1 0x60 DUP5 DUP7 SUB SLT ISZERO PUSH2 0x42D4 JUMPI PUSH2 0x42D3 PUSH2 0x413B JUMP JUMPDEST JUMPDEST PUSH0 PUSH2 0x42E1 DUP7 DUP3 DUP8 ADD PUSH2 0x4233 JUMP JUMPDEST SWAP4 POP POP PUSH1 0x20 PUSH2 0x42F2 DUP7 DUP3 DUP8 ADD PUSH2 0x426E JUMP JUMPDEST SWAP3 POP POP PUSH1 0x40 PUSH2 0x4303 DUP7 DUP3 DUP8 ADD PUSH2 0x42A9 JUMP JUMPDEST SWAP2 POP POP SWAP3 POP SWAP3 POP SWAP3 JUMP JUMPDEST PUSH2 0x4316 DUP2 PUSH2 0x4199 JUMP JUMPDEST DUP3 MSTORE POP POP JUMP JUMPDEST PUSH0 PUSH1 0x20 DUP3 ADD SWAP1 POP PUSH2 0x432F PUSH0 DUP4 ADD DUP5 PUSH2 0x430D JUMP JUMPDEST SWAP3 SWAP2 POP POP JUMP JUMPDEST PUSH0 PUSH1 0x40 DUP3 ADD SWAP1 POP PUSH2 0x4348 PUSH0 DUP4 ADD DUP6 PUSH2 0x410A JUMP JUMPDEST PUSH2 0x4355 PUSH1 0x20 DUP4 ADD DUP5 PUSH2 0x410A JUMP JUMPDEST SWAP4 SWAP3 POP POP POP JUMP JUMPDEST PUSH2 0x4365 DUP2 PUSH2 0x4101 JUMP JUMPDEST DUP2 EQ PUSH2 0x436F JUMPI PUSH0 DUP1 REVERT JUMPDEST POP JUMP JUMPDEST PUSH0 DUP2 CALLDATALOAD SWAP1 POP PUSH2 0x4380 DUP2 PUSH2 0x435C JUMP JUMPDEST SWAP3 SWAP2 POP POP JUMP JUMPDEST PUSH0 PUSH1 0x20 DUP3 DUP5 SUB SLT ISZERO PUSH2 0x439B JUMPI PUSH2 0x439A PUSH2 0x413B JUMP JUMPDEST JUMPDEST PUSH0 PUSH2 0x43A8 DUP5 DUP3 DUP6 ADD PUSH2 0x4372 JUMP JUMPDEST SWAP2 POP POP SWAP3 SWAP2 POP POP JUMP JUMPDEST PUSH0 PUSH1 0x80 DUP3 ADD SWAP1 POP PUSH2 0x43C4 PUSH0 DUP4 ADD DUP8 PUSH2 0x410A JUMP JUMPDEST PUSH2 0x43D1 PUSH1 0x20 DUP4 ADD DUP7 PUSH2 0x410A JUMP JUMPDEST PUSH2 0x43DE PUSH1 0x40 DUP4 ADD DUP6 PUSH2 0x410A JUMP JUMPDEST PUSH2 0x43EB PUSH1 0x60 DUP4 ADD DUP5 PUSH2 0x410A JUMP JUMPDEST SWAP6 SWAP5 POP POP POP POP POP JUMP JUMPDEST PUSH2 0x43FD DUP2 PUSH2 0x415E JUMP JUMPDEST DUP3 MSTORE POP POP JUMP JUMPDEST PUSH0 PUSH1 0x20 DUP3 ADD SWAP1 POP PUSH2 0x4416 PUSH0 DUP4 ADD DUP5 PUSH2 0x43F4 JUMP JUMPDEST SWAP3 SWAP2 POP POP JUMP JUMPDEST PUSH0 DUP1 PUSH1 0x40 DUP4 DUP6 SUB SLT ISZERO PUSH2 0x4432 JUMPI PUSH2 0x4431 PUSH2 0x413B JUMP JUMPDEST JUMPDEST PUSH0 PUSH2 0x443F DUP6 DUP3 DUP7 ADD PUSH2 0x4372 JUMP JUMPDEST SWAP3 POP POP PUSH1 0x20 PUSH2 0x4450 DUP6 DUP3 DUP7 ADD PUSH2 0x4372 JUMP JUMPDEST SWAP2 POP POP SWAP3 POP SWAP3 SWAP1 POP JUMP JUMPDEST PUSH2 0x4463 DUP2 PUSH2 0x4101 JUMP JUMPDEST DUP3 MSTORE POP POP JUMP JUMPDEST PUSH2 0x4472 DUP2 PUSH2 0x4199 JUMP JUMPDEST DUP3 MSTORE POP POP JUMP JUMPDEST PUSH2 0x4481 DUP2 PUSH2 0x415E JUMP JUMPDEST DUP3 MSTORE POP POP JUMP JUMPDEST PUSH0 DUP2 SWAP1 POP SWAP2 SWAP1 POP JUMP JUMPDEST PUSH0 PUSH2 0x44AA PUSH2 0x44A5 PUSH2 0x44A0 DUP5 PUSH2 0x413F JUMP JUMPDEST PUSH2 0x4487 JUMP JUMPDEST PUSH2 0x413F JUMP JUMPDEST SWAP1 POP SWAP2 SWAP1 POP JUMP JUMPDEST PUSH0 PUSH2 0x44BB DUP3 PUSH2 0x4490 JUMP JUMPDEST SWAP1 POP SWAP2 SWAP1 POP JUMP JUMPDEST PUSH0 PUSH2 0x44CC DUP3 PUSH2 0x44B1 JUMP JUMPDEST SWAP1 POP SWAP2 SWAP1 POP JUMP JUMPDEST PUSH2 0x44DC DUP2 PUSH2 0x44C2 JUMP JUMPDEST DUP3 MSTORE POP POP JUMP JUMPDEST PUSH2 0x140 DUP3 ADD PUSH0 DUP3 ADD MLOAD PUSH2 0x44F7 PUSH0 DUP6 ADD DUP3 PUSH2 0x445A JUMP JUMPDEST POP PUSH1 0x20 DUP3 ADD MLOAD PUSH2 0x450A PUSH1 0x20 DUP6 ADD DUP3 PUSH2 0x4469 JUMP JUMPDEST POP PUSH1 0x40 DUP3 ADD MLOAD PUSH2 0x451D PUSH1 0x40 DUP6 ADD DUP3 PUSH2 0x445A JUMP JUMPDEST POP PUSH1 0x60 DUP3 ADD MLOAD PUSH2 0x4530 PUSH1 0x60 DUP6 ADD DUP3 PUSH2 0x4469 JUMP JUMPDEST POP PUSH1 0x80 DUP3 ADD MLOAD PUSH2 0x4543 PUSH1 0x80 DUP6 ADD DUP3 PUSH2 0x4478 JUMP JUMPDEST POP PUSH1 0xA0 DUP3 ADD MLOAD PUSH2 0x4556 PUSH1 0xA0 DUP6 ADD DUP3 PUSH2 0x4469 JUMP JUMPDEST POP PUSH1 0xC0 DUP3 ADD MLOAD PUSH2 0x4569 PUSH1 0xC0 DUP6 ADD DUP3 PUSH2 0x44D3 JUMP JUMPDEST POP PUSH1 0xE0 DUP3 ADD MLOAD PUSH2 0x457C PUSH1 0xE0 DUP6 ADD DUP3 PUSH2 0x4469 JUMP JUMPDEST POP PUSH2 0x100 DUP3 ADD MLOAD PUSH2 0x4591 PUSH2 0x100 DUP6 ADD DUP3 PUSH2 0x4469 JUMP JUMPDEST POP PUSH2 0x120 DUP3 ADD MLOAD PUSH2 0x45A6 PUSH2 0x120 DUP6 ADD DUP3 PUSH2 0x445A JUMP JUMPDEST POP POP POP POP JUMP JUMPDEST PUSH0 PUSH2 0x140 DUP3 ADD SWAP1 POP PUSH2 0x45C0 PUSH0 DUP4 ADD DUP5 PUSH2 0x44E2 JUMP JUMPDEST SWAP3 SWAP2 POP POP JUMP JUMPDEST PUSH0 PUSH2 0x45D0 DUP3 PUSH2 0x44B1 JUMP JUMPDEST SWAP1 POP SWAP2 SWAP1 POP JUMP JUMPDEST PUSH2 0x45E0 DUP2 PUSH2 0x45C6 JUMP JUMPDEST DUP3 MSTORE POP POP JUMP JUMPDEST PUSH0 PUSH1 0x20 DUP3 ADD SWAP1 POP PUSH2 0x45F9 PUSH0 DUP4 ADD DUP5 PUSH2 0x45D7 JUMP JUMPDEST SWAP3 SWAP2 POP POP JUMP JUMPDEST PUSH0 DUP1 REVERT JUMPDEST PUSH0 PUSH1 0x1F NOT PUSH1 0x1F DUP4 ADD AND SWAP1 POP SWAP2 SWAP1 POP JUMP JUMPDEST PUSH32 0x4E487B7100000000000000000000000000000000000000000000000000000000 PUSH0 MSTORE PUSH1 0x41 PUSH1 0x4 MSTORE PUSH1 0x24 PUSH0 REVERT JUMPDEST PUSH2 0x4649 DUP3 PUSH2 0x4603 JUMP JUMPDEST DUP2 ADD DUP2 DUP2 LT PUSH8 0xFFFFFFFFFFFFFFFF DUP3 GT OR ISZERO PUSH2 0x4668 JUMPI PUSH2 0x4667 PUSH2 0x4613 JUMP JUMPDEST JUMPDEST DUP1 PUSH1 0x40 MSTORE POP POP POP JUMP JUMPDEST PUSH0 PUSH2 0x467A PUSH2 0x4132 JUMP JUMPDEST SWAP1 POP PUSH2 0x4686 DUP3 DUP3 PUSH2 0x4640 JUMP JUMPDEST SWAP2 SWAP1 POP JUMP JUMPDEST PUSH0 PUSH2 0x4695 DUP3 PUSH2 0x415E JUMP JUMPDEST SWAP1 POP SWAP2 SWAP1 POP JUMP JUMPDEST PUSH2 0x46A5 DUP2 PUSH2 0x468B JUMP JUMPDEST DUP2 EQ PUSH2 0x46AF JUMPI PUSH0 DUP1 REVERT JUMPDEST POP JUMP JUMPDEST PUSH0 DUP2 CALLDATALOAD SWAP1 POP PUSH2 0x46C0 DUP2 PUSH2 0x469C JUMP JUMPDEST SWAP3 SWAP2 POP POP JUMP JUMPDEST PUSH0 PUSH2 0x140 DUP3 DUP5 SUB SLT ISZERO PUSH2 0x46DC JUMPI PUSH2 0x46DB PUSH2 0x45FF JUMP JUMPDEST JUMPDEST PUSH2 0x46E7 PUSH2 0x140 PUSH2 0x4671 JUMP JUMPDEST SWAP1 POP PUSH0 PUSH2 0x46F6 DUP5 DUP3 DUP6 ADD PUSH2 0x4372 JUMP JUMPDEST PUSH0 DUP4 ADD MSTORE POP PUSH1 0x20 PUSH2 0x4709 DUP5 DUP3 DUP6 ADD PUSH2 0x41BA JUMP JUMPDEST PUSH1 0x20 DUP4 ADD MSTORE POP PUSH1 0x40 PUSH2 0x471D DUP5 DUP3 DUP6 ADD PUSH2 0x4372 JUMP JUMPDEST PUSH1 0x40 DUP4 ADD MSTORE POP PUSH1 0x60 PUSH2 0x4731 DUP5 DUP3 DUP6 ADD PUSH2 0x41BA JUMP JUMPDEST PUSH1 0x60 DUP4 ADD MSTORE POP PUSH1 0x80 PUSH2 0x4745 DUP5 DUP3 DUP6 ADD PUSH2 0x4185 JUMP JUMPDEST PUSH1 0x80 DUP4 ADD MSTORE POP PUSH1 0xA0 PUSH2 0x4759 DUP5 DUP3 DUP6 ADD PUSH2 0x41BA JUMP JUMPDEST PUSH1 0xA0 DUP4 ADD MSTORE POP PUSH1 0xC0 PUSH2 0x476D DUP5 DUP3 DUP6 ADD PUSH2 0x46B2 JUMP JUMPDEST PUSH1 0xC0 DUP4 ADD MSTORE POP PUSH1 0xE0 PUSH2 0x4781 DUP5 DUP3 DUP6 ADD PUSH2 0x41BA JUMP JUMPDEST PUSH1 0xE0 DUP4 ADD MSTORE POP PUSH2 0x100 PUSH2 0x4796 DUP5 DUP3 DUP6 ADD PUSH2 0x41BA JUMP JUMPDEST PUSH2 0x100 DUP4 ADD MSTORE POP PUSH2 0x120 PUSH2 0x47AC DUP5 DUP3 DUP6 ADD PUSH2 0x4372 JUMP JUMPDEST PUSH2 0x120 DUP4 ADD MSTORE POP SWAP3 SWAP2 POP POP JUMP JUMPDEST PUSH0 PUSH2 0x47C3 DUP3 PUSH2 0x415E JUMP JUMPDEST SWAP1 POP SWAP2 SWAP1 POP JUMP JUMPDEST PUSH2 0x47D3 DUP2 PUSH2 0x47B9 JUMP JUMPDEST DUP2 EQ PUSH2 0x47DD JUMPI PUSH0 DUP1 REVERT JUMPDEST POP JUMP JUMPDEST PUSH0 DUP2 CALLDATALOAD SWAP1 POP PUSH2 0x47EE DUP2 PUSH2 0x47CA JUMP JUMPDEST SWAP3 SWAP2 POP POP JUMP JUMPDEST PUSH0 PUSH2 0x47FE DUP3 PUSH2 0x415E JUMP JUMPDEST SWAP1 POP SWAP2 SWAP1 POP JUMP JUMPDEST PUSH2 0x480E DUP2 PUSH2 0x47F4 JUMP JUMPDEST DUP2 EQ PUSH2 0x4818 JUMPI PUSH0 DUP1 REVERT JUMPDEST POP JUMP JUMPDEST PUSH0 DUP2 CALLDATALOAD SWAP1 POP PUSH2 0x4829 DUP2 PUSH2 0x4805 JUMP JUMPDEST SWAP3 SWAP2 POP POP JUMP JUMPDEST PUSH0 PUSH2 0x4839 DUP3 PUSH2 0x415E JUMP JUMPDEST SWAP1 POP SWAP2 SWAP1 POP JUMP JUMPDEST PUSH2 0x4849 DUP2 PUSH2 0x482F JUMP JUMPDEST DUP2 EQ PUSH2 0x4853 JUMPI PUSH0 DUP1 REVERT JUMPDEST POP JUMP JUMPDEST PUSH0 DUP2 CALLDATALOAD SWAP1 POP PUSH2 0x4864 DUP2 PUSH2 0x4840 JUMP JUMPDEST SWAP3 SWAP2 POP POP JUMP JUMPDEST PUSH0 DUP1 PUSH0 DUP1 PUSH0 DUP1 PUSH0 DUP1 PUSH0 PUSH2 0x240 DUP11 DUP13 SUB SLT ISZERO PUSH2 0x4888 JUMPI PUSH2 0x4887 PUSH2 0x413B JUMP JUMPDEST JUMPDEST PUSH0 PUSH2 0x4895 DUP13 DUP3 DUP14 ADD PUSH2 0x46C6 JUMP JUMPDEST SWAP10 POP POP PUSH2 0x140 PUSH2 0x48A7 DUP13 DUP3 DUP14 ADD PUSH2 0x46B2 JUMP JUMPDEST SWAP9 POP POP PUSH2 0x160 PUSH2 0x48B9 DUP13 DUP3 DUP14 ADD PUSH2 0x47E0 JUMP JUMPDEST SWAP8 POP POP PUSH2 0x180 PUSH2 0x48CB DUP13 DUP3 DUP14 ADD PUSH2 0x46B2 JUMP JUMPDEST SWAP7 POP POP PUSH2 0x1A0 PUSH2 0x48DD DUP13 DUP3 DUP14 ADD PUSH2 0x4372 JUMP JUMPDEST SWAP6 POP POP PUSH2 0x1C0 PUSH2 0x48EF DUP13 DUP3 DUP14 ADD PUSH2 0x4372 JUMP JUMPDEST SWAP5 POP POP PUSH2 0x1E0 PUSH2 0x4901 DUP13 DUP3 DUP14 ADD PUSH2 0x481B JUMP JUMPDEST SWAP4 POP POP PUSH2 0x200 PUSH2 0x4913 DUP13 DUP3 DUP14 ADD PUSH2 0x481B JUMP JUMPDEST SWAP3 POP POP PUSH2 0x220 PUSH2 0x4925 DUP13 DUP3 DUP14 ADD PUSH2 0x4856 JUMP JUMPDEST SWAP2 POP POP SWAP3 SWAP6 SWAP9 POP SWAP3 SWAP6 SWAP9 POP SWAP3 SWAP6 SWAP9 JUMP JUMPDEST PUSH0 DUP1 PUSH0 PUSH1 0x60 DUP5 DUP7 SUB SLT ISZERO PUSH2 0x494C JUMPI PUSH2 0x494B PUSH2 0x413B JUMP JUMPDEST JUMPDEST PUSH0 PUSH2 0x4959 DUP7 DUP3 DUP8 ADD PUSH2 0x4372 JUMP JUMPDEST SWAP4 POP POP PUSH1 0x20 PUSH2 0x496A DUP7 DUP3 DUP8 ADD PUSH2 0x4372 JUMP JUMPDEST SWAP3 POP POP PUSH1 0x40 PUSH2 0x497B DUP7 DUP3 DUP8 ADD PUSH2 0x4372 JUMP JUMPDEST SWAP2 POP POP SWAP3 POP SWAP3 POP SWAP3 JUMP JUMPDEST PUSH0 PUSH3 0xFFFFFF DUP3 AND SWAP1 POP SWAP2 SWAP1 POP JUMP JUMPDEST PUSH2 0x499C DUP2 PUSH2 0x4985 JUMP JUMPDEST DUP3 MSTORE POP POP JUMP JUMPDEST PUSH0 PUSH1 0x20 DUP3 ADD SWAP1 POP PUSH2 0x49B5 PUSH0 DUP4 ADD DUP5 PUSH2 0x4993 JUMP JUMPDEST SWAP3 SWAP2 POP POP JUMP JUMPDEST PUSH2 0x49C4 DUP2 PUSH2 0x44C2 JUMP JUMPDEST DUP3 MSTORE POP POP JUMP JUMPDEST PUSH0 PUSH2 0x140 DUP3 ADD SWAP1 POP PUSH2 0x49DE PUSH0 DUP4 ADD DUP14 PUSH2 0x410A JUMP JUMPDEST PUSH2 0x49EB PUSH1 0x20 DUP4 ADD DUP13 PUSH2 0x430D JUMP JUMPDEST PUSH2 0x49F8 PUSH1 0x40 DUP4 ADD DUP12 PUSH2 0x410A JUMP JUMPDEST PUSH2 0x4A05 PUSH1 0x60 DUP4 ADD DUP11 PUSH2 0x430D JUMP JUMPDEST PUSH2 0x4A12 PUSH1 0x80 DUP4 ADD DUP10 PUSH2 0x43F4 JUMP JUMPDEST PUSH2 0x4A1F PUSH1 0xA0 DUP4 ADD DUP9 PUSH2 0x430D JUMP JUMPDEST PUSH2 0x4A2C PUSH1 0xC0 DUP4 ADD DUP8 PUSH2 0x49BB JUMP JUMPDEST PUSH2 0x4A39 PUSH1 0xE0 DUP4 ADD DUP7 PUSH2 0x430D JUMP JUMPDEST PUSH2 0x4A47 PUSH2 0x100 DUP4 ADD DUP6 PUSH2 0x430D JUMP JUMPDEST PUSH2 0x4A55 PUSH2 0x120 DUP4 ADD DUP5 PUSH2 0x410A JUMP JUMPDEST SWAP12 SWAP11 POP POP POP POP POP POP POP POP POP POP POP JUMP JUMPDEST PUSH0 PUSH1 0x20 DUP3 DUP5 SUB SLT ISZERO PUSH2 0x4A79 JUMPI PUSH2 0x4A78 PUSH2 0x413B JUMP JUMPDEST JUMPDEST PUSH0 PUSH2 0x4A86 DUP5 DUP3 DUP6 ADD PUSH2 0x4185 JUMP JUMPDEST SWAP2 POP POP SWAP3 SWAP2 POP POP JUMP JUMPDEST PUSH0 PUSH1 0x20 DUP3 ADD SWAP1 POP PUSH2 0x4AA2 PUSH0 DUP4 ADD DUP5 PUSH2 0x49BB JUMP JUMPDEST SWAP3 SWAP2 POP POP JUMP JUMPDEST PUSH0 DUP1 PUSH1 0x40 DUP4 DUP6 SUB SLT ISZERO PUSH2 0x4ABE JUMPI PUSH2 0x4ABD PUSH2 0x413B JUMP JUMPDEST JUMPDEST PUSH0 PUSH2 0x4ACB DUP6 DUP3 DUP7 ADD PUSH2 0x46B2 JUMP JUMPDEST SWAP3 POP POP PUSH1 0x20 PUSH2 0x4ADC DUP6 DUP3 DUP7 ADD PUSH2 0x41BA JUMP JUMPDEST SWAP2 POP POP SWAP3 POP SWAP3 SWAP1 POP JUMP JUMPDEST PUSH0 PUSH1 0xC0 DUP3 ADD SWAP1 POP PUSH2 0x4AF9 PUSH0 DUP4 ADD DUP10 PUSH2 0x410A JUMP JUMPDEST PUSH2 0x4B06 PUSH1 0x20 DUP4 ADD DUP9 PUSH2 0x410A JUMP JUMPDEST PUSH2 0x4B13 PUSH1 0x40 DUP4 ADD DUP8 PUSH2 0x410A JUMP JUMPDEST PUSH2 0x4B20 PUSH1 0x60 DUP4 ADD DUP7 PUSH2 0x410A JUMP JUMPDEST PUSH2 0x4B2D PUSH1 0x80 DUP4 ADD DUP6 PUSH2 0x410A JUMP JUMPDEST PUSH2 0x4B3A PUSH1 0xA0 DUP4 ADD DUP5 PUSH2 0x410A JUMP JUMPDEST SWAP8 SWAP7 POP POP POP POP POP POP POP JUMP JUMPDEST PUSH0 PUSH2 0x4B4F DUP3 PUSH2 0x44B1 JUMP JUMPDEST SWAP1 POP SWAP2 SWAP1 POP JUMP JUMPDEST PUSH2 0x4B5F DUP2 PUSH2 0x4B45 JUMP JUMPDEST DUP3 MSTORE POP POP JUMP JUMPDEST PUSH0 PUSH1 0x20 DUP3 ADD SWAP1 POP PUSH2 0x4B78 PUSH0 DUP4 ADD DUP5 PUSH2 0x4B56 JUMP JUMPDEST SWAP3 SWAP2 POP POP JUMP JUMPDEST PUSH0 PUSH2 0x4B88 DUP3 PUSH2 0x44B1 JUMP JUMPDEST SWAP1 POP SWAP2 SWAP1 POP JUMP JUMPDEST PUSH2 0x4B98 DUP2 PUSH2 0x4B7E JUMP JUMPDEST DUP3 MSTORE POP POP JUMP JUMPDEST PUSH0 PUSH1 0x20 DUP3 ADD SWAP1 POP PUSH2 0x4BB1 PUSH0 DUP4 ADD DUP5 PUSH2 0x4B8F JUMP JUMPDEST SWAP3 SWAP2 POP POP JUMP JUMPDEST PUSH0 PUSH2 0x4BC1 DUP3 PUSH2 0x44B1 JUMP JUMPDEST SWAP1 POP SWAP2 SWAP1 POP JUMP JUMPDEST PUSH2 0x4BD1 DUP2 PUSH2 0x4BB7 JUMP JUMPDEST DUP3 MSTORE POP POP JUMP JUMPDEST PUSH0 PUSH1 0x20 DUP3 ADD SWAP1 POP PUSH2 0x4BEA PUSH0 DUP4 ADD DUP5 PUSH2 0x4BC8 JUMP JUMPDEST SWAP3 SWAP2 POP POP JUMP JUMPDEST PUSH0 PUSH2 0x4BFA DUP3 PUSH2 0x44B1 JUMP JUMPDEST SWAP1 POP SWAP2 SWAP1 POP JUMP JUMPDEST PUSH2 0x4C0A DUP2 PUSH2 0x4BF0 JUMP JUMPDEST DUP3 MSTORE POP POP JUMP JUMPDEST PUSH0 PUSH1 0x20 DUP3 ADD SWAP1 POP PUSH2 0x4C23 PUSH0 DUP4 ADD DUP5 PUSH2 0x4C01 JUMP JUMPDEST SWAP3 SWAP2 POP POP JUMP JUMPDEST PUSH0 PUSH2 0x4C33 DUP3 PUSH2 0x44B1 JUMP JUMPDEST SWAP1 POP SWAP2 SWAP1 POP JUMP JUMPDEST PUSH2 0x4C43 DUP2 PUSH2 0x4C29 JUMP JUMPDEST DUP3 MSTORE POP POP JUMP JUMPDEST PUSH0 PUSH1 0x20 DUP3 ADD SWAP1 POP PUSH2 0x4C5C PUSH0 DUP4 ADD DUP5 PUSH2 0x4C3A JUMP JUMPDEST SWAP3 SWAP2 POP POP JUMP JUMPDEST PUSH0 DUP2 MLOAD SWAP1 POP SWAP2 SWAP1 POP JUMP JUMPDEST PUSH0 DUP3 DUP3 MSTORE PUSH1 0x20 DUP3 ADD SWAP1 POP SWAP3 SWAP2 POP POP JUMP JUMPDEST DUP3 DUP2 DUP4 MCOPY PUSH0 DUP4 DUP4 ADD MSTORE POP POP POP JUMP JUMPDEST PUSH0 PUSH2 0x4C94 DUP3 PUSH2 0x4C62 JUMP JUMPDEST PUSH2 0x4C9E DUP2 DUP6 PUSH2 0x4C6C JUMP JUMPDEST SWAP4 POP PUSH2 0x4CAE DUP2 DUP6 PUSH1 0x20 DUP7 ADD PUSH2 0x4C7C JUMP JUMPDEST PUSH2 0x4CB7 DUP2 PUSH2 0x4603 JUMP JUMPDEST DUP5 ADD SWAP2 POP POP SWAP3 SWAP2 POP POP JUMP JUMPDEST PUSH0 PUSH1 0x20 DUP3 ADD SWAP1 POP DUP2 DUP2 SUB PUSH0 DUP4 ADD MSTORE PUSH2 0x4CDA DUP2 DUP5 PUSH2 0x4C8A JUMP JUMPDEST SWAP1 POP SWAP3 SWAP2 POP POP JUMP JUMPDEST PUSH0 DUP2 MLOAD SWAP1 POP PUSH2 0x4CF0 DUP2 PUSH2 0x435C JUMP JUMPDEST SWAP3 SWAP2 POP POP JUMP JUMPDEST PUSH0 PUSH1 0x20 DUP3 DUP5 SUB SLT ISZERO PUSH2 0x4D0B JUMPI PUSH2 0x4D0A PUSH2 0x413B JUMP JUMPDEST JUMPDEST PUSH0 PUSH2 0x4D18 DUP5 DUP3 DUP6 ADD PUSH2 0x4CE2 JUMP JUMPDEST SWAP2 POP POP SWAP3 SWAP2 POP POP JUMP JUMPDEST PUSH0 DUP2 MLOAD SWAP1 POP PUSH2 0x4D2F DUP2 PUSH2 0x416F JUMP JUMPDEST SWAP3 SWAP2 POP POP JUMP JUMPDEST PUSH0 PUSH1 0x20 DUP3 DUP5 SUB SLT ISZERO PUSH2 0x4D4A JUMPI PUSH2 0x4D49 PUSH2 0x413B JUMP JUMPDEST JUMPDEST PUSH0 PUSH2 0x4D57 DUP5 DUP3 DUP6 ADD PUSH2 0x4D21 JUMP JUMPDEST SWAP2 POP POP SWAP3 SWAP2 POP POP JUMP JUMPDEST PUSH0 PUSH1 0x40 DUP3 ADD SWAP1 POP PUSH2 0x4D73 PUSH0 DUP4 ADD DUP6 PUSH2 0x43F4 JUMP JUMPDEST PUSH2 0x4D80 PUSH1 0x20 DUP4 ADD DUP5 PUSH2 0x410A JUMP JUMPDEST SWAP4 SWAP3 POP POP POP JUMP JUMPDEST PUSH0 DUP2 MLOAD SWAP1 POP PUSH2 0x4D95 DUP2 PUSH2 0x41A4 JUMP JUMPDEST SWAP3 SWAP2 POP POP JUMP JUMPDEST PUSH0 PUSH1 0x20 DUP3 DUP5 SUB SLT ISZERO PUSH2 0x4DB0 JUMPI PUSH2 0x4DAF PUSH2 0x413B JUMP JUMPDEST JUMPDEST PUSH0 PUSH2 0x4DBD DUP5 DUP3 DUP6 ADD PUSH2 0x4D87 JUMP JUMPDEST SWAP2 POP POP SWAP3 SWAP2 POP POP JUMP JUMPDEST PUSH0 PUSH2 0xFFFF DUP3 AND SWAP1 POP SWAP2 SWAP1 POP JUMP JUMPDEST PUSH2 0x4DDC DUP2 PUSH2 0x4DC6 JUMP JUMPDEST DUP3 MSTORE POP POP JUMP JUMPDEST PUSH0 PUSH1 0x80 DUP3 ADD SWAP1 POP PUSH2 0x4DF5 PUSH0 DUP4 ADD DUP8 PUSH2 0x43F4 JUMP JUMPDEST PUSH2 0x4E02 PUSH1 0x20 DUP4 ADD DUP7 PUSH2 0x410A JUMP JUMPDEST PUSH2 0x4E0F PUSH1 0x40 DUP4 ADD DUP6 PUSH2 0x43F4 JUMP JUMPDEST PUSH2 0x4E1C PUSH1 0x60 DUP4 ADD DUP5 PUSH2 0x4DD3 JUMP JUMPDEST SWAP6 SWAP5 POP POP POP POP POP JUMP JUMPDEST PUSH32 0x4E487B7100000000000000000000000000000000000000000000000000000000 PUSH0 MSTORE PUSH1 0x11 PUSH1 0x4 MSTORE PUSH1 0x24 PUSH0 REVERT JUMPDEST PUSH0 PUSH2 0x4E5C DUP3 PUSH2 0x4101 JUMP JUMPDEST SWAP2 POP PUSH2 0x4E67 DUP4 PUSH2 0x4101 JUMP JUMPDEST SWAP3 POP DUP3 DUP3 ADD SWAP1 POP DUP1 DUP3 GT ISZERO PUSH2 0x4E7F JUMPI PUSH2 0x4E7E PUSH2 0x4E25 JUMP JUMPDEST JUMPDEST SWAP3 SWAP2 POP POP JUMP JUMPDEST PUSH0 PUSH2 0x4E8F DUP3 PUSH2 0x4101 JUMP JUMPDEST SWAP2 POP PUSH2 0x4E9A DUP4 PUSH2 0x4101 JUMP JUMPDEST SWAP3 POP DUP3 DUP3 MUL PUSH2 0x4EA8 DUP2 PUSH2 0x4101 JUMP JUMPDEST SWAP2 POP DUP3 DUP3 DIV DUP5 EQ DUP4 ISZERO OR PUSH2 0x4EBF JUMPI PUSH2 0x4EBE PUSH2 0x4E25 JUMP JUMPDEST JUMPDEST POP SWAP3 SWAP2 POP POP JUMP JUMPDEST PUSH32 0x4E487B7100000000000000000000000000000000000000000000000000000000 PUSH0 MSTORE PUSH1 0x12 PUSH1 0x4 MSTORE PUSH1 0x24 PUSH0 REVERT JUMPDEST PUSH0 PUSH2 0x4EFD DUP3 PUSH2 0x4101 JUMP JUMPDEST SWAP2 POP PUSH2 0x4F08 DUP4 PUSH2 0x4101 JUMP JUMPDEST SWAP3 POP DUP3 PUSH2 0x4F18 JUMPI PUSH2 0x4F17 PUSH2 0x4EC6 JUMP JUMPDEST JUMPDEST DUP3 DUP3 DIV SWAP1 POP SWAP3 SWAP2 POP POP JUMP JUMPDEST PUSH0 PUSH2 0x4F2D DUP3 PUSH2 0x4101 JUMP JUMPDEST SWAP2 POP PUSH2 0x4F38 DUP4 PUSH2 0x4101 JUMP JUMPDEST SWAP3 POP DUP3 DUP3 SUB SWAP1 POP DUP2 DUP2 GT ISZERO PUSH2 0x4F50 JUMPI PUSH2 0x4F4F PUSH2 0x4E25 JUMP JUMPDEST JUMPDEST SWAP3 SWAP2 POP POP JUMP JUMPDEST PUSH0 PUSH1 0xFF DUP3 AND SWAP1 POP SWAP2 SWAP1 POP JUMP JUMPDEST PUSH2 0x4F6B DUP2 PUSH2 0x4F56 JUMP JUMPDEST DUP2 EQ PUSH2 0x4F75 JUMPI PUSH0 DUP1 REVERT JUMPDEST POP JUMP JUMPDEST PUSH0 DUP2 MLOAD SWAP1 POP PUSH2 0x4F86 DUP2 PUSH2 0x4F62 JUMP JUMPDEST SWAP3 SWAP2 POP POP JUMP JUMPDEST PUSH0 PUSH1 0x20 DUP3 DUP5 SUB SLT ISZERO PUSH2 0x4FA1 JUMPI PUSH2 0x4FA0 PUSH2 0x413B JUMP JUMPDEST JUMPDEST PUSH0 PUSH2 0x4FAE DUP5 DUP3 DUP6 ADD PUSH2 0x4F78 JUMP JUMPDEST SWAP2 POP POP SWAP3 SWAP2 POP POP JUMP JUMPDEST PUSH0 DUP2 PUSH1 0x1 SHR SWAP1 POP SWAP2 SWAP1 POP JUMP JUMPDEST PUSH0 DUP1 DUP3 SWAP2 POP DUP4 SWAP1 POP JUMPDEST PUSH1 0x1 DUP6 GT ISZERO PUSH2 0x500C JUMPI DUP1 DUP7 DIV DUP2 GT ISZERO PUSH2 0x4FE8 JUMPI PUSH2 0x4FE7 PUSH2 0x4E25 JUMP JUMPDEST JUMPDEST PUSH1 0x1 DUP6 AND ISZERO PUSH2 0x4FF7 JUMPI DUP1 DUP3 MUL SWAP2 POP JUMPDEST DUP1 DUP2 MUL SWAP1 POP PUSH2 0x5005 DUP6 PUSH2 0x4FB7 JUMP JUMPDEST SWAP5 POP PUSH2 0x4FCC JUMP JUMPDEST SWAP5 POP SWAP5 SWAP3 POP POP POP JUMP JUMPDEST PUSH0 DUP3 PUSH2 0x5024 JUMPI PUSH1 0x1 SWAP1 POP PUSH2 0x50DF JUMP JUMPDEST DUP2 PUSH2 0x5031 JUMPI PUSH0 SWAP1 POP PUSH2 0x50DF JUMP JUMPDEST DUP2 PUSH1 0x1 DUP2 EQ PUSH2 0x5047 JUMPI PUSH1 0x2 DUP2 EQ PUSH2 0x5051 JUMPI PUSH2 0x5080 JUMP JUMPDEST PUSH1 0x1 SWAP2 POP POP PUSH2 0x50DF JUMP JUMPDEST PUSH1 0xFF DUP5 GT ISZERO PUSH2 0x5063 JUMPI PUSH2 0x5062 PUSH2 0x4E25 JUMP JUMPDEST JUMPDEST DUP4 PUSH1 0x2 EXP SWAP2 POP DUP5 DUP3 GT ISZERO PUSH2 0x507A JUMPI PUSH2 0x5079 PUSH2 0x4E25 JUMP JUMPDEST JUMPDEST POP PUSH2 0x50DF JUMP JUMPDEST POP PUSH1 0x20 DUP4 LT PUSH2 0x133 DUP4 LT AND PUSH1 0x4E DUP5 LT PUSH1 0xB DUP5 LT AND OR ISZERO PUSH2 0x50B5 JUMPI DUP3 DUP3 EXP SWAP1 POP DUP4 DUP2 GT ISZERO PUSH2 0x50B0 JUMPI PUSH2 0x50AF PUSH2 0x4E25 JUMP JUMPDEST JUMPDEST PUSH2 0x50DF JUMP JUMPDEST PUSH2 0x50C2 DUP5 DUP5 DUP5 PUSH1 0x1 PUSH2 0x4FC3 JUMP JUMPDEST SWAP3 POP SWAP1 POP DUP2 DUP5 DIV DUP2 GT ISZERO PUSH2 0x50D9 JUMPI PUSH2 0x50D8 PUSH2 0x4E25 JUMP JUMPDEST JUMPDEST DUP2 DUP2 MUL SWAP1 POP JUMPDEST SWAP4 SWAP3 POP POP POP JUMP JUMPDEST PUSH0 PUSH2 0x50F0 DUP3 PUSH2 0x4101 JUMP JUMPDEST SWAP2 POP PUSH2 0x50FB DUP4 PUSH2 0x4F56 JUMP JUMPDEST SWAP3 POP PUSH2 0x5128 PUSH32 0xFFFFFFFFFFFFFFFFFFFFFFFFFFFFFFFFFFFFFFFFFFFFFFFFFFFFFFFFFFFFFFFF DUP5 DUP5 PUSH2 0x5015 JUMP JUMPDEST SWAP1 POP SWAP3 SWAP2 POP POP JUMP JUMPDEST PUSH0 DUP2 SWAP1 POP SWAP2 SWAP1 POP JUMP JUMPDEST PUSH0 PUSH8 0xFFFFFFFFFFFFFFFF DUP3 AND SWAP1 POP SWAP2 SWAP1 POP JUMP JUMPDEST PUSH0 PUSH2 0x5166 PUSH2 0x5161 PUSH2 0x515C DUP5 PUSH2 0x5130 JUMP JUMPDEST PUSH2 0x4487 JUMP JUMPDEST PUSH2 0x5139 JUMP JUMPDEST SWAP1 POP SWAP2 SWAP1 POP JUMP JUMPDEST PUSH2 0x5176 DUP2 PUSH2 0x514C JUMP JUMPDEST DUP3 MSTORE POP POP JUMP JUMPDEST PUSH0 PUSH1 0x20 DUP3 ADD SWAP1 POP PUSH2 0x518F PUSH0 DUP4 ADD DUP5 PUSH2 0x516D JUMP JUMPDEST SWAP3 SWAP2 POP POP JUMP JUMPDEST PUSH0 PUSH1 0x60 DUP3 ADD SWAP1 POP PUSH2 0x51A8 PUSH0 DUP4 ADD DUP7 PUSH2 0x43F4 JUMP JUMPDEST PUSH2 0x51B5 PUSH1 0x20 DUP4 ADD DUP6 PUSH2 0x410A JUMP JUMPDEST PUSH2 0x51C2 PUSH1 0x40 DUP4 ADD DUP5 PUSH2 0x43F4 JUMP JUMPDEST SWAP5 SWAP4 POP POP POP POP JUMP JUMPDEST PUSH0 PUSH10 0xFFFFFFFFFFFFFFFFFFFF DUP3 AND SWAP1 POP SWAP2 SWAP1 POP JUMP JUMPDEST PUSH2 0x51E8 DUP2 PUSH2 0x51CA JUMP JUMPDEST DUP2 EQ PUSH2 0x51F2 JUMPI PUSH0 DUP1 REVERT JUMPDEST POP JUMP JUMPDEST PUSH0 DUP2 MLOAD SWAP1 POP PUSH2 0x5203 DUP2 PUSH2 0x51DF JUMP JUMPDEST SWAP3 SWAP2 POP POP JUMP JUMPDEST PUSH0 DUP2 SWAP1 POP SWAP2 SWAP1 POP JUMP JUMPDEST PUSH2 0x521B DUP2 PUSH2 0x5209 JUMP JUMPDEST DUP2 EQ PUSH2 0x5225 JUMPI PUSH0 DUP1 REVERT JUMPDEST POP JUMP JUMPDEST PUSH0 DUP2 MLOAD SWAP1 POP PUSH2 0x5236 DUP2 PUSH2 0x5212 JUMP JUMPDEST SWAP3 SWAP2 POP POP JUMP JUMPDEST PUSH0 DUP1 PUSH0 DUP1 PUSH0 PUSH1 0xA0 DUP7 DUP9 SUB SLT ISZERO PUSH2 0x5255 JUMPI PUSH2 0x5254 PUSH2 0x413B JUMP JUMPDEST JUMPDEST PUSH0 PUSH2 0x5262 DUP9 DUP3 DUP10 ADD PUSH2 0x51F5 JUMP JUMPDEST SWAP6 POP POP PUSH1 0x20 PUSH2 0x5273 DUP9 DUP3 DUP10 ADD PUSH2 0x5228 JUMP JUMPDEST SWAP5 POP POP PUSH1 0x40 PUSH2 0x5284 DUP9 DUP3 DUP10 ADD PUSH2 0x4CE2 JUMP JUMPDEST SWAP4 POP POP PUSH1 0x60 PUSH2 0x5295 DUP9 DUP3 DUP10 ADD PUSH2 0x4CE2 JUMP JUMPDEST SWAP3 POP POP PUSH1 0x80 PUSH2 0x52A6 DUP9 DUP3 DUP10 ADD PUSH2 0x51F5 JUMP JUMPDEST SWAP2 POP POP SWAP3 SWAP6 POP SWAP3 SWAP6 SWAP1 SWAP4 POP JUMP JUMPDEST PUSH0 DUP1 PUSH0 DUP1 PUSH0 DUP1 PUSH1 0xC0 DUP8 DUP10 SUB SLT ISZERO PUSH2 0x52CD JUMPI PUSH2 0x52CC PUSH2 0x413B JUMP JUMPDEST JUMPDEST PUSH0 PUSH2 0x52DA DUP10 DUP3 DUP11 ADD PUSH2 0x4CE2 JUMP JUMPDEST SWAP7 POP POP PUSH1 0x20 PUSH2 0x52EB DUP10 DUP3 DUP11 ADD PUSH2 0x4CE2 JUMP JUMPDEST SWAP6 POP POP PUSH1 0x40 PUSH2 0x52FC DUP10 DUP3 DUP11 ADD PUSH2 0x4CE2 JUMP JUMPDEST SWAP5 POP POP PUSH1 0x60 PUSH2 0x530D DUP10 DUP3 DUP11 ADD PUSH2 0x4CE2 JUMP JUMPDEST SWAP4 POP POP PUSH1 0x80 PUSH2 0x531E DUP10 DUP3 DUP11 ADD PUSH2 0x4CE2 JUMP JUMPDEST SWAP3 POP POP PUSH1 0xA0 PUSH2 0x532F DUP10 DUP3 DUP11 ADD PUSH2 0x4CE2 JUMP JUMPDEST SWAP2 POP POP SWAP3 SWAP6 POP SWAP3 SWAP6 POP SWAP3 SWAP6 JUMP JUMPDEST PUSH0 PUSH1 0x60 DUP3 ADD SWAP1 POP PUSH2 0x534F PUSH0 DUP4 ADD DUP7 PUSH2 0x43F4 JUMP JUMPDEST PUSH2 0x535C PUSH1 0x20 DUP4 ADD DUP6 PUSH2 0x43F4 JUMP JUMPDEST PUSH2 0x5369 PUSH1 0x40 DUP4 ADD DUP5 PUSH2 0x4993 JUMP JUMPDEST SWAP5 SWAP4 POP POP POP POP JUMP JUMPDEST PUSH2 0x537A DUP2 PUSH2 0x4985 JUMP JUMPDEST DUP2 EQ PUSH2 0x5384 JUMPI PUSH0 DUP1 REVERT JUMPDEST POP JUMP JUMPDEST PUSH0 DUP2 MLOAD SWAP1 POP PUSH2 0x5395 DUP2 PUSH2 0x5371 JUMP JUMPDEST SWAP3 SWAP2 POP POP JUMP JUMPDEST PUSH0 PUSH1 0x20 DUP3 DUP5 SUB SLT ISZERO PUSH2 0x53B0 JUMPI PUSH2 0x53AF PUSH2 0x413B JUMP JUMPDEST JUMPDEST PUSH0 PUSH2 0x53BD DUP5 DUP3 DUP6 ADD PUSH2 0x5387 JUMP JUMPDEST SWAP2 POP POP SWAP3 SWAP2 POP POP JUMP JUMPDEST PUSH2 0x53CF DUP2 PUSH2 0x4985 JUMP JUMPDEST DUP3 MSTORE POP POP JUMP JUMPDEST PUSH2 0x53DE DUP2 PUSH2 0x413F JUMP JUMPDEST DUP3 MSTORE POP POP JUMP JUMPDEST PUSH1 0xE0 DUP3 ADD PUSH0 DUP3 ADD MLOAD PUSH2 0x53F8 PUSH0 DUP6 ADD DUP3 PUSH2 0x4478 JUMP JUMPDEST POP PUSH1 0x20 DUP3 ADD MLOAD PUSH2 0x540B PUSH1 0x20 DUP6 ADD DUP3 PUSH2 0x4478 JUMP JUMPDEST POP PUSH1 0x40 DUP3 ADD MLOAD PUSH2 0x541E PUSH1 0x40 DUP6 ADD DUP3 PUSH2 0x53C6 JUMP JUMPDEST POP PUSH1 0x60 DUP3 ADD MLOAD PUSH2 0x5431 PUSH1 0x60 DUP6 ADD DUP3 PUSH2 0x4478 JUMP JUMPDEST POP PUSH1 0x80 DUP3 ADD MLOAD PUSH2 0x5444 PUSH1 0x80 DUP6 ADD DUP3 PUSH2 0x445A JUMP JUMPDEST POP PUSH1 0xA0 DUP3 ADD MLOAD PUSH2 0x5457 PUSH1 0xA0 DUP6 ADD DUP3 PUSH2 0x445A JUMP JUMPDEST POP PUSH1 0xC0 DUP3 ADD MLOAD PUSH2 0x546A PUSH1 0xC0 DUP6 ADD DUP3 PUSH2 0x53D5 JUMP JUMPDEST POP POP POP POP JUMP JUMPDEST PUSH0 PUSH1 0xE0 DUP3 ADD SWAP1 POP PUSH2 0x5483 PUSH0 DUP4 ADD DUP5 PUSH2 0x53E4 JUMP JUMPDEST SWAP3 SWAP2 POP POP JUMP JUMPDEST PUSH1 0xA0 DUP3 ADD PUSH0 DUP3 ADD MLOAD PUSH2 0x549D PUSH0 DUP6 ADD DUP3 PUSH2 0x4478 JUMP JUMPDEST POP PUSH1 0x20 DUP3 ADD MLOAD PUSH2 0x54B0 PUSH1 0x20 DUP6 ADD DUP3 PUSH2 0x4478 JUMP JUMPDEST POP PUSH1 0x40 DUP3 ADD MLOAD PUSH2 0x54C3 PUSH1 0x40 DUP6 ADD DUP3 PUSH2 0x445A JUMP JUMPDEST POP PUSH1 0x60 DUP3 ADD MLOAD PUSH2 0x54D6 PUSH1 0x60 DUP6 ADD DUP3 PUSH2 0x53C6 JUMP JUMPDEST POP PUSH1 0x80 DUP3 ADD MLOAD PUSH2 0x54E9 PUSH1 0x80 DUP6 ADD DUP3 PUSH2 0x53D5 JUMP JUMPDEST POP POP POP POP JUMP JUMPDEST PUSH0 PUSH1 0xA0 DUP3 ADD SWAP1 POP PUSH2 0x5502 PUSH0 DUP4 ADD DUP5 PUSH2 0x5489 JUMP JUMPDEST SWAP3 SWAP2 POP POP JUMP JUMPDEST PUSH2 0x5511 DUP2 PUSH2 0x413F JUMP JUMPDEST DUP2 EQ PUSH2 0x551B JUMPI PUSH0 DUP1 REVERT JUMPDEST POP JUMP JUMPDEST PUSH0 DUP2 MLOAD SWAP1 POP PUSH2 0x552C DUP2 PUSH2 0x5508 JUMP JUMPDEST SWAP3 SWAP2 POP POP JUMP JUMPDEST PUSH0 PUSH4 0xFFFFFFFF DUP3 AND SWAP1 POP SWAP2 SWAP1 POP JUMP JUMPDEST PUSH2 0x554A DUP2 PUSH2 0x5532 JUMP JUMPDEST DUP2 EQ PUSH2 0x5554 JUMPI PUSH0 DUP1 REVERT JUMPDEST POP JUMP JUMPDEST PUSH0 DUP2 MLOAD SWAP1 POP PUSH2 0x5565 DUP2 PUSH2 0x5541 JUMP JUMPDEST SWAP3 SWAP2 POP POP JUMP JUMPDEST PUSH0 DUP1 PUSH0 DUP1 PUSH1 0x80 DUP6 DUP8 SUB SLT ISZERO PUSH2 0x5583 JUMPI PUSH2 0x5582 PUSH2 0x413B JUMP JUMPDEST JUMPDEST PUSH0 PUSH2 0x5590 DUP8 DUP3 DUP9 ADD PUSH2 0x4CE2 JUMP JUMPDEST SWAP5 POP POP PUSH1 0x20 PUSH2 0x55A1 DUP8 DUP3 DUP9 ADD PUSH2 0x551E JUMP JUMPDEST SWAP4 POP POP PUSH1 0x40 PUSH2 0x55B2 DUP8 DUP3 DUP9 ADD PUSH2 0x5557 JUMP JUMPDEST SWAP3 POP POP PUSH1 0x60 PUSH2 0x55C3 DUP8 DUP3 DUP9 ADD PUSH2 0x4CE2 JUMP JUMPDEST SWAP2 POP POP SWAP3 SWAP6 SWAP2 SWAP5 POP SWAP3 POP JUMP JUMPDEST PUSH1 0xE0 DUP3 ADD PUSH0 DUP3 ADD MLOAD PUSH2 0x55E3 PUSH0 DUP6 ADD DUP3 PUSH2 0x4478 JUMP JUMPDEST POP PUSH1 0x20 DUP3 ADD MLOAD PUSH2 0x55F6 PUSH1 0x20 DUP6 ADD DUP3 PUSH2 0x4478 JUMP JUMPDEST POP PUSH1 0x40 DUP3 ADD MLOAD PUSH2 0x5609 PUSH1 0x40 DUP6 ADD DUP3 PUSH2 0x53C6 JUMP JUMPDEST POP PUSH1 0x60 DUP3 ADD MLOAD PUSH2 0x561C PUSH1 0x60 DUP6 ADD DUP3 PUSH2 0x4478 JUMP JUMPDEST POP PUSH1 0x80 DUP3 ADD MLOAD PUSH2 0x562F PUSH1 0x80 DUP6 ADD DUP3 PUSH2 0x445A JUMP JUMPDEST POP PUSH1 0xA0 DUP3 ADD MLOAD PUSH2 0x5642 PUSH1 0xA0 DUP6 ADD DUP3 PUSH2 0x445A JUMP JUMPDEST POP PUSH1 0xC0 DUP3 ADD MLOAD PUSH2 0x5655 PUSH1 0xC0 DUP6 ADD DUP3 PUSH2 0x53D5 JUMP JUMPDEST POP POP POP POP JUMP JUMPDEST PUSH0 PUSH1 0xE0 DUP3 ADD SWAP1 POP PUSH2 0x566E PUSH0 DUP4 ADD DUP5 PUSH2 0x55CF JUMP JUMPDEST SWAP3 SWAP2 POP POP JUMP JUMPDEST PUSH0 DUP2 MLOAD SWAP1 POP SWAP2 SWAP1 POP JUMP JUMPDEST PUSH0 DUP2 SWAP1 POP SWAP3 SWAP2 POP POP JUMP JUMPDEST PUSH0 PUSH2 0x5692 DUP3 PUSH2 0x5674 JUMP JUMPDEST PUSH2 0x569C DUP2 DUP6 PUSH2 0x567E JUMP JUMPDEST SWAP4 POP PUSH2 0x56AC DUP2 DUP6 PUSH1 0x20 DUP7 ADD PUSH2 0x4C7C JUMP JUMPDEST DUP1 DUP5 ADD SWAP2 POP POP SWAP3 SWAP2 POP POP JUMP JUMPDEST PUSH0 PUSH2 0x56C3 DUP3 DUP5 PUSH2 0x5688 JUMP JUMPDEST SWAP2 POP DUP2 SWAP1 POP SWAP3 SWAP2 POP POP JUMP JUMPDEST PUSH32 0x5341000000000000000000000000000000000000000000000000000000000000 PUSH0 DUP3 ADD MSTORE POP JUMP JUMPDEST PUSH0 PUSH2 0x5702 PUSH1 0x2 DUP4 PUSH2 0x4C6C JUMP JUMPDEST SWAP2 POP PUSH2 0x570D DUP3 PUSH2 0x56CE JUMP JUMPDEST PUSH1 0x20 DUP3 ADD SWAP1 POP SWAP2 SWAP1 POP JUMP JUMPDEST PUSH0 PUSH1 0x20 DUP3 ADD SWAP1 POP DUP2 DUP2 SUB PUSH0 DUP4 ADD MSTORE PUSH2 0x572F DUP2 PUSH2 0x56F6 JUMP JUMPDEST SWAP1 POP SWAP2 SWAP1 POP JUMP INVALID LOG2 PUSH5 0x6970667358 0x22 SLT KECCAK256 0xBC ORIGIN JUMPI 0x4B DUP5 0xA5 0xE 0xC0 PUSH15 0xD57AA4F43502FA4F726E62D1DB02BC 0xE2 DUP15 0xC9 0xE6 GAS SAR STOP 0xE2 PUSH5 0x736F6C6343 STOP ADDMOD BYTE STOP CALLER "
		},
		"gasEstimates": {
			"creation": {
				"codeDepositCost": "4476000",
				"executionCost": "5206",
				"totalCost": "4481206"
			},
			"external": {
				"LTV()": "2514",
				"aToken()": "infinite",
				"aaveAddressProvider()": "infinite",
				"calculateLiquidation(uint256,uint256)": "infinite",
				"calculateSwap(uint256)": "infinite",
				"ccfl()": "2664",
				"closeLoan()": "infinite",
				"collateralAmount()": "2536",
				"collateralToken()": "infinite",
				"earnBorrower()": "2492",
				"earnLender()": "2471",
				"earnPlatform()": "2559",
				"factory()": "infinite",
				"feeTier()": "421",
				"getCollateralAmount()": "2544",
				"getCollateralToken()": "infinite",
				"getHealthFactor(uint256,uint256)": "infinite",
				"getIsYeild()": "2570",
				"getLatestPrice(address,bool)": "infinite",
				"getLoanInfo()": "infinite",
				"getUserAccountData(address)": "infinite",
				"getYieldEarned(uint256)": "infinite",
				"initLoan()": "infinite",
				"initialize((uint256,bool,uint256,bool,address,bool,address,bool,bool,uint256),address,address,address,uint256,uint256,address,address,address)": "infinite",
				"isStakeAave()": "2674",
				"liquidate(uint256)": "infinite",
				"liquidationThreshold()": "2493",
				"owner()": "2594",
				"penaltyLender()": "2516",
				"penaltyLiquidator()": "2470",
				"penaltyPlatform()": "2535",
				"platform()": "2620",
				"priceFeed()": "infinite",
				"pricePoolFeed()": "infinite",
				"quoter()": "infinite",
				"setCCFL(address)": "infinite",
				"setEarnShare(uint256,uint256,uint256)": "infinite",
				"setPaid()": "infinite",
				"setPenalty(uint256,uint256,uint256)": "infinite",
				"setSwapRouter(address,address,address)": "infinite",
				"shareBorrower()": "2472",
				"shareLender()": "2559",
				"sharePlatform()": "2515",
				"supplyLiquidity()": "infinite",
				"swapRouter()": "infinite",
				"updateCollateral(uint256)": "infinite",
				"wETH()": "infinite",
				"withdrawAllCollateral(address,bool)": "infinite",
				"withdrawLiquidity(uint256,uint256,uint256)": "infinite"
			},
			"internal": {
				"quoteEarnForUSD(uint256,contract IERC20Standard,contract IERC20Standard)": "infinite",
				"swapEarnForUSD(uint256,contract IERC20Standard,contract IERC20Standard)": "infinite",
				"swapTokenForUSD(uint256,uint256,contract IERC20Standard,contract IERC20Standard)": "infinite"
			}
		},
		"methodIdentifiers": {
			"LTV()": "62965d8e",
			"aToken()": "a0c1f15e",
			"aaveAddressProvider()": "cdaabe41",
			"calculateLiquidation(uint256,uint256)": "58b275d7",
			"calculateSwap(uint256)": "3666eefa",
			"ccfl()": "5825f535",
			"closeLoan()": "232fa733",
			"collateralAmount()": "92d09ceb",
			"collateralToken()": "b2016bd4",
			"earnBorrower()": "a95d7132",
			"earnLender()": "3a0720e6",
			"earnPlatform()": "32df398e",
			"factory()": "c45a0155",
			"feeTier()": "72f5d98a",
			"getCollateralAmount()": "315deeaa",
			"getCollateralToken()": "96423663",
			"getHealthFactor(uint256,uint256)": "4d2c872a",
			"getIsYeild()": "1c783def",
			"getLatestPrice(address,bool)": "b3bffeaa",
			"getLoanInfo()": "5d3e2fa1",
			"getUserAccountData(address)": "bf92857c",
			"getYieldEarned(uint256)": "69fa97c0",
			"initLoan()": "7ce67d60",
			"initialize((uint256,bool,uint256,bool,address,bool,address,bool,bool,uint256),address,address,address,uint256,uint256,address,address,address)": "6a7b35db",
			"isStakeAave()": "11256603",
			"liquidate(uint256)": "415f1240",
			"liquidationThreshold()": "4031234c",
			"owner()": "8da5cb5b",
			"penaltyLender()": "101b9d31",
			"penaltyLiquidator()": "a58bab62",
			"penaltyPlatform()": "f6597bbb",
			"platform()": "4bde38c8",
			"priceFeed()": "741bef1a",
			"pricePoolFeed()": "68dcad58",
			"quoter()": "c6bbd5a7",
			"setCCFL(address)": "8ac1b775",
			"setEarnShare(uint256,uint256,uint256)": "6cb0ab5e",
			"setPaid()": "fab320e9",
			"setPenalty(uint256,uint256,uint256)": "f3cf4ada",
			"setSwapRouter(address,address,address)": "10ac5c3c",
			"shareBorrower()": "05b57c0b",
			"shareLender()": "792f436f",
			"sharePlatform()": "288cc89e",
			"supplyLiquidity()": "07a6bf69",
			"swapRouter()": "c31c9c07",
			"updateCollateral(uint256)": "6721de26",
			"wETH()": "f2428621",
			"withdrawAllCollateral(address,bool)": "102cb82e",
			"withdrawLiquidity(uint256,uint256,uint256)": "894059c6"
		}
	},
	"abi": [
		{
			"inputs": [],
			"stateMutability": "nonpayable",
			"type": "constructor"
		},
		{
			"inputs": [],
			"name": "InvalidInitialization",
			"type": "error"
		},
		{
			"inputs": [],
			"name": "NotInitializing",
			"type": "error"
		},
		{
			"anonymous": false,
			"inputs": [
				{
					"indexed": false,
					"internalType": "uint64",
					"name": "version",
					"type": "uint64"
				}
			],
			"name": "Initialized",
			"type": "event"
		},
		{
			"anonymous": false,
			"inputs": [
				{
					"indexed": true,
					"internalType": "address",
					"name": "onBehalfOf",
					"type": "address"
				},
				{
					"indexed": true,
					"internalType": "address",
					"name": "_token",
					"type": "address"
				},
				{
					"indexed": false,
					"internalType": "uint256",
					"name": "_amount",
					"type": "uint256"
				}
			],
			"name": "LiquiditySupplied",
			"type": "event"
		},
		{
			"anonymous": false,
			"inputs": [
				{
					"indexed": true,
					"internalType": "address",
					"name": "to",
					"type": "address"
				},
				{
					"indexed": true,
					"internalType": "address",
					"name": "_token",
					"type": "address"
				},
				{
					"indexed": false,
					"internalType": "uint256",
					"name": "_amount",
					"type": "uint256"
				}
			],
			"name": "LiquidityWithdrawn",
			"type": "event"
		},
		{
			"inputs": [],
			"name": "LTV",
			"outputs": [
				{
					"internalType": "uint256",
					"name": "",
					"type": "uint256"
				}
			],
			"stateMutability": "view",
			"type": "function"
		},
		{
			"inputs": [],
			"name": "aToken",
			"outputs": [
				{
					"internalType": "contract IERC20Standard",
					"name": "",
					"type": "address"
				}
			],
			"stateMutability": "view",
			"type": "function"
		},
		{
			"inputs": [],
			"name": "aaveAddressProvider",
			"outputs": [
				{
					"internalType": "contract IPoolAddressesProvider",
					"name": "",
					"type": "address"
				}
			],
			"stateMutability": "view",
			"type": "function"
		},
		{
			"inputs": [
				{
					"internalType": "uint256",
					"name": "_currentDebt",
					"type": "uint256"
				},
				{
					"internalType": "uint256",
					"name": "_amountOut",
					"type": "uint256"
				}
			],
			"name": "calculateLiquidation",
			"outputs": [
				{
					"internalType": "uint256",
					"name": "",
					"type": "uint256"
				},
				{
					"internalType": "uint256",
					"name": "",
					"type": "uint256"
				},
				{
					"internalType": "uint256",
					"name": "",
					"type": "uint256"
				},
				{
					"internalType": "uint256",
					"name": "",
					"type": "uint256"
				}
			],
			"stateMutability": "view",
			"type": "function"
		},
		{
			"inputs": [
				{
					"internalType": "uint256",
					"name": "_currentDebt",
					"type": "uint256"
				}
			],
			"name": "calculateSwap",
			"outputs": [
				{
					"internalType": "uint256",
					"name": "",
					"type": "uint256"
				},
				{
					"internalType": "uint256",
					"name": "",
					"type": "uint256"
				}
			],
			"stateMutability": "nonpayable",
			"type": "function"
		},
		{
			"inputs": [],
			"name": "ccfl",
			"outputs": [
				{
					"internalType": "address",
					"name": "",
					"type": "address"
				}
			],
			"stateMutability": "view",
			"type": "function"
		},
		{
			"inputs": [],
			"name": "closeLoan",
			"outputs": [
				{
					"internalType": "uint256",
					"name": "",
					"type": "uint256"
				},
				{
					"internalType": "uint256",
					"name": "",
					"type": "uint256"
				}
			],
			"stateMutability": "nonpayable",
			"type": "function"
		},
		{
			"inputs": [],
			"name": "collateralAmount",
			"outputs": [
				{
					"internalType": "uint256",
					"name": "",
					"type": "uint256"
				}
			],
			"stateMutability": "view",
			"type": "function"
		},
		{
			"inputs": [],
			"name": "collateralToken",
			"outputs": [
				{
					"internalType": "contract IERC20Standard",
					"name": "",
					"type": "address"
				}
			],
			"stateMutability": "view",
			"type": "function"
		},
		{
			"inputs": [],
			"name": "earnBorrower",
			"outputs": [
				{
					"internalType": "uint256",
					"name": "",
					"type": "uint256"
				}
			],
			"stateMutability": "view",
			"type": "function"
		},
		{
			"inputs": [],
			"name": "earnLender",
			"outputs": [
				{
					"internalType": "uint256",
					"name": "",
					"type": "uint256"
				}
			],
			"stateMutability": "view",
			"type": "function"
		},
		{
			"inputs": [],
			"name": "earnPlatform",
			"outputs": [
				{
					"internalType": "uint256",
					"name": "",
					"type": "uint256"
				}
			],
			"stateMutability": "view",
			"type": "function"
		},
		{
			"inputs": [],
			"name": "factory",
			"outputs": [
				{
					"internalType": "contract IUniswapV3Factory",
					"name": "",
					"type": "address"
				}
			],
			"stateMutability": "view",
			"type": "function"
		},
		{
			"inputs": [],
			"name": "feeTier",
			"outputs": [
				{
					"internalType": "uint24",
					"name": "",
					"type": "uint24"
				}
			],
			"stateMutability": "view",
			"type": "function"
		},
		{
			"inputs": [],
			"name": "getCollateralAmount",
			"outputs": [
				{
					"internalType": "uint256",
					"name": "",
					"type": "uint256"
				}
			],
			"stateMutability": "view",
			"type": "function"
		},
		{
			"inputs": [],
			"name": "getCollateralToken",
			"outputs": [
				{
					"internalType": "contract IERC20Standard",
					"name": "",
					"type": "address"
				}
			],
			"stateMutability": "view",
			"type": "function"
		},
		{
			"inputs": [
				{
					"internalType": "uint256",
					"name": "currentDebt",
					"type": "uint256"
				},
				{
					"internalType": "uint256",
					"name": "addCollateral",
					"type": "uint256"
				}
			],
			"name": "getHealthFactor",
			"outputs": [
				{
					"internalType": "uint256",
					"name": "",
					"type": "uint256"
				}
			],
			"stateMutability": "view",
			"type": "function"
		},
		{
			"inputs": [],
			"name": "getIsYeild",
			"outputs": [
				{
					"internalType": "bool",
					"name": "",
					"type": "bool"
				}
			],
			"stateMutability": "view",
			"type": "function"
		},
		{
			"inputs": [
				{
					"internalType": "contract IERC20Standard",
					"name": "_coin",
					"type": "address"
				},
				{
					"internalType": "bool",
					"name": "isPool",
					"type": "bool"
				}
			],
			"name": "getLatestPrice",
			"outputs": [
				{
					"internalType": "uint256",
					"name": "",
					"type": "uint256"
				}
			],
			"stateMutability": "view",
			"type": "function"
		},
		{
			"inputs": [],
			"name": "getLoanInfo",
			"outputs": [
				{
					"components": [
						{
							"internalType": "uint256",
							"name": "loanId",
							"type": "uint256"
						},
						{
							"internalType": "bool",
							"name": "isPaid",
							"type": "bool"
						},
						{
							"internalType": "uint256",
							"name": "amount",
							"type": "uint256"
						},
						{
							"internalType": "bool",
							"name": "isClosed",
							"type": "bool"
						},
						{
							"internalType": "address",
							"name": "borrower",
							"type": "address"
						},
						{
							"internalType": "bool",
							"name": "isLiquidated",
							"type": "bool"
						},
						{
							"internalType": "contract IERC20Standard",
							"name": "stableCoin",
							"type": "address"
						},
						{
							"internalType": "bool",
							"name": "isFinalty",
							"type": "bool"
						},
						{
							"internalType": "bool",
							"name": "isFiat",
							"type": "bool"
						},
						{
							"internalType": "uint256",
							"name": "closedAmount",
							"type": "uint256"
						}
					],
					"internalType": "struct DataTypes.Loan",
					"name": "",
					"type": "tuple"
				}
			],
			"stateMutability": "view",
			"type": "function"
		},
		{
			"inputs": [
				{
					"internalType": "address",
					"name": "user",
					"type": "address"
				}
			],
			"name": "getUserAccountData",
			"outputs": [
				{
					"internalType": "uint256",
					"name": "totalCollateralBase",
					"type": "uint256"
				},
				{
					"internalType": "uint256",
					"name": "totalDebtBase",
					"type": "uint256"
				},
				{
					"internalType": "uint256",
					"name": "availableBorrowsBase",
					"type": "uint256"
				},
				{
					"internalType": "uint256",
					"name": "currentLiquidationThreshold",
					"type": "uint256"
				},
				{
					"internalType": "uint256",
					"name": "ltv",
					"type": "uint256"
				},
				{
					"internalType": "uint256",
					"name": "healthFactor",
					"type": "uint256"
				}
			],
			"stateMutability": "view",
			"type": "function"
		},
		{
			"inputs": [
				{
					"internalType": "uint256",
					"name": "_earnBorrower",
					"type": "uint256"
				}
			],
			"name": "getYieldEarned",
			"outputs": [
				{
					"internalType": "uint256",
					"name": "",
					"type": "uint256"
				}
			],
			"stateMutability": "view",
			"type": "function"
		},
		{
			"inputs": [],
			"name": "initLoan",
			"outputs": [
				{
					"internalType": "uint256",
					"name": "loanId",
					"type": "uint256"
				},
				{
					"internalType": "bool",
					"name": "isPaid",
					"type": "bool"
				},
				{
					"internalType": "uint256",
					"name": "amount",
					"type": "uint256"
				},
				{
					"internalType": "bool",
					"name": "isClosed",
					"type": "bool"
				},
				{
					"internalType": "address",
					"name": "borrower",
					"type": "address"
				},
				{
					"internalType": "bool",
					"name": "isLiquidated",
					"type": "bool"
				},
				{
					"internalType": "contract IERC20Standard",
					"name": "stableCoin",
					"type": "address"
				},
				{
					"internalType": "bool",
					"name": "isFinalty",
					"type": "bool"
				},
				{
					"internalType": "bool",
					"name": "isFiat",
					"type": "bool"
				},
				{
					"internalType": "uint256",
					"name": "closedAmount",
					"type": "uint256"
				}
			],
			"stateMutability": "view",
			"type": "function"
		},
		{
			"inputs": [
				{
					"components": [
						{
							"internalType": "uint256",
							"name": "loanId",
							"type": "uint256"
						},
						{
							"internalType": "bool",
							"name": "isPaid",
							"type": "bool"
						},
						{
							"internalType": "uint256",
							"name": "amount",
							"type": "uint256"
						},
						{
							"internalType": "bool",
							"name": "isClosed",
							"type": "bool"
						},
						{
							"internalType": "address",
							"name": "borrower",
							"type": "address"
						},
						{
							"internalType": "bool",
							"name": "isLiquidated",
							"type": "bool"
						},
						{
							"internalType": "contract IERC20Standard",
							"name": "stableCoin",
							"type": "address"
						},
						{
							"internalType": "bool",
							"name": "isFinalty",
							"type": "bool"
						},
						{
							"internalType": "bool",
							"name": "isFiat",
							"type": "bool"
						},
						{
							"internalType": "uint256",
							"name": "closedAmount",
							"type": "uint256"
						}
					],
					"internalType": "struct DataTypes.Loan",
					"name": "_loan",
					"type": "tuple"
				},
				{
					"internalType": "contract IERC20Standard",
					"name": "_collateralToken",
					"type": "address"
				},
				{
					"internalType": "contract IPoolAddressesProvider",
					"name": "_aaveAddressProvider",
					"type": "address"
				},
				{
					"internalType": "contract IERC20Standard",
					"name": "_aToken",
					"type": "address"
				},
				{
					"internalType": "uint256",
					"name": "_ltv",
					"type": "uint256"
				},
				{
					"internalType": "uint256",
					"name": "_threshold",
					"type": "uint256"
				},
				{
					"internalType": "contract AggregatorV3Interface",
					"name": "_priceFeed",
					"type": "address"
				},
				{
					"internalType": "contract AggregatorV3Interface",
					"name": "_pricePoolFeed",
					"type": "address"
				},
				{
					"internalType": "contract IWETH",
					"name": "_iWETH",
					"type": "address"
				}
			],
			"name": "initialize",
			"outputs": [],
			"stateMutability": "nonpayable",
			"type": "function"
		},
		{
			"inputs": [],
			"name": "isStakeAave",
			"outputs": [
				{
					"internalType": "bool",
					"name": "",
					"type": "bool"
				}
			],
			"stateMutability": "view",
			"type": "function"
		},
		{
			"inputs": [
				{
					"internalType": "uint256",
					"name": "_currentDebt",
					"type": "uint256"
				}
			],
			"name": "liquidate",
			"outputs": [
				{
					"internalType": "uint256",
					"name": "",
					"type": "uint256"
				},
				{
					"internalType": "uint256",
					"name": "",
					"type": "uint256"
				},
				{
					"internalType": "uint256",
					"name": "",
					"type": "uint256"
				},
				{
					"internalType": "uint256",
					"name": "",
					"type": "uint256"
				}
			],
			"stateMutability": "nonpayable",
			"type": "function"
		},
		{
			"inputs": [],
			"name": "liquidationThreshold",
			"outputs": [
				{
					"internalType": "uint256",
					"name": "",
					"type": "uint256"
				}
			],
			"stateMutability": "view",
			"type": "function"
		},
		{
			"inputs": [],
			"name": "owner",
			"outputs": [
				{
					"internalType": "address",
					"name": "",
					"type": "address"
				}
			],
			"stateMutability": "view",
			"type": "function"
		},
		{
			"inputs": [],
			"name": "penaltyLender",
			"outputs": [
				{
					"internalType": "uint256",
					"name": "",
					"type": "uint256"
				}
			],
			"stateMutability": "view",
			"type": "function"
		},
		{
			"inputs": [],
			"name": "penaltyLiquidator",
			"outputs": [
				{
					"internalType": "uint256",
					"name": "",
					"type": "uint256"
				}
			],
			"stateMutability": "view",
			"type": "function"
		},
		{
			"inputs": [],
			"name": "penaltyPlatform",
			"outputs": [
				{
					"internalType": "uint256",
					"name": "",
					"type": "uint256"
				}
			],
			"stateMutability": "view",
			"type": "function"
		},
		{
			"inputs": [],
			"name": "platform",
			"outputs": [
				{
					"internalType": "address",
					"name": "",
					"type": "address"
				}
			],
			"stateMutability": "view",
			"type": "function"
		},
		{
			"inputs": [],
			"name": "priceFeed",
			"outputs": [
				{
					"internalType": "contract AggregatorV3Interface",
					"name": "",
					"type": "address"
				}
			],
			"stateMutability": "view",
			"type": "function"
		},
		{
			"inputs": [],
			"name": "pricePoolFeed",
			"outputs": [
				{
					"internalType": "contract AggregatorV3Interface",
					"name": "",
					"type": "address"
				}
			],
			"stateMutability": "view",
			"type": "function"
		},
		{
			"inputs": [],
			"name": "quoter",
			"outputs": [
				{
					"internalType": "contract IQuoterV2",
					"name": "",
					"type": "address"
				}
			],
			"stateMutability": "view",
			"type": "function"
		},
		{
			"inputs": [
				{
					"internalType": "address",
					"name": "_ccfl",
					"type": "address"
				}
			],
			"name": "setCCFL",
			"outputs": [],
			"stateMutability": "nonpayable",
			"type": "function"
		},
		{
			"inputs": [
				{
					"internalType": "uint256",
					"name": "_borrower",
					"type": "uint256"
				},
				{
					"internalType": "uint256",
					"name": "_platform",
					"type": "uint256"
				},
				{
					"internalType": "uint256",
					"name": "_lender",
					"type": "uint256"
				}
			],
			"name": "setEarnShare",
			"outputs": [],
			"stateMutability": "nonpayable",
			"type": "function"
		},
		{
			"inputs": [],
			"name": "setPaid",
			"outputs": [],
			"stateMutability": "nonpayable",
			"type": "function"
		},
		{
			"inputs": [
				{
					"internalType": "uint256",
					"name": "_platform",
					"type": "uint256"
				},
				{
					"internalType": "uint256",
					"name": "_liquidator",
					"type": "uint256"
				},
				{
					"internalType": "uint256",
					"name": "_lender",
					"type": "uint256"
				}
			],
			"name": "setPenalty",
			"outputs": [],
			"stateMutability": "nonpayable",
			"type": "function"
		},
		{
			"inputs": [
				{
					"internalType": "contract IV3SwapRouter",
					"name": "_swapRouter",
					"type": "address"
				},
				{
					"internalType": "contract IUniswapV3Factory",
					"name": "_factory",
					"type": "address"
				},
				{
					"internalType": "contract IQuoterV2",
					"name": "_quoter",
					"type": "address"
				}
			],
			"name": "setSwapRouter",
			"outputs": [],
			"stateMutability": "nonpayable",
			"type": "function"
		},
		{
			"inputs": [],
			"name": "shareBorrower",
			"outputs": [
				{
					"internalType": "uint256",
					"name": "",
					"type": "uint256"
				}
			],
			"stateMutability": "view",
			"type": "function"
		},
		{
			"inputs": [],
			"name": "shareLender",
			"outputs": [
				{
					"internalType": "uint256",
					"name": "",
					"type": "uint256"
				}
			],
			"stateMutability": "view",
			"type": "function"
		},
		{
			"inputs": [],
			"name": "sharePlatform",
			"outputs": [
				{
					"internalType": "uint256",
					"name": "",
					"type": "uint256"
				}
			],
			"stateMutability": "view",
			"type": "function"
		},
		{
			"inputs": [],
			"name": "supplyLiquidity",
			"outputs": [],
			"stateMutability": "nonpayable",
			"type": "function"
		},
		{
			"inputs": [],
			"name": "swapRouter",
			"outputs": [
				{
					"internalType": "contract IV3SwapRouter",
					"name": "",
					"type": "address"
				}
			],
			"stateMutability": "view",
			"type": "function"
		},
		{
			"inputs": [
				{
					"internalType": "uint256",
					"name": "amount",
					"type": "uint256"
				}
			],
			"name": "updateCollateral",
			"outputs": [],
			"stateMutability": "nonpayable",
			"type": "function"
		},
		{
			"inputs": [],
			"name": "wETH",
			"outputs": [
				{
					"internalType": "contract IWETH",
					"name": "",
					"type": "address"
				}
			],
			"stateMutability": "view",
			"type": "function"
		},
		{
			"inputs": [
				{
					"internalType": "address",
					"name": "_receiver",
					"type": "address"
				},
				{
					"internalType": "bool",
					"name": "_isETH",
					"type": "bool"
				}
			],
			"name": "withdrawAllCollateral",
			"outputs": [],
			"stateMutability": "nonpayable",
			"type": "function"
		},
		{
			"inputs": [
				{
					"internalType": "uint256",
					"name": "_earnPlatform",
					"type": "uint256"
				},
				{
					"internalType": "uint256",
					"name": "_earnBorrower",
					"type": "uint256"
				},
				{
					"internalType": "uint256",
					"name": "_earnLender",
					"type": "uint256"
				}
			],
			"name": "withdrawLiquidity",
			"outputs": [],
			"stateMutability": "nonpayable",
			"type": "function"
		},
		{
			"stateMutability": "payable",
			"type": "receive"
		}
	]
}