{
	"data": {
		"bytecode": {
			"linkReferences": {},
			"object": "6080604052348015600e575f80fd5b506138888061001c5f395ff3fe608060405260043610610169575f3560e01c8063929eea21116100d0578063cd3293de11610089578063e1ec3c6811610063578063e1ec3c6814610526578063ec7be39d14610567578063f7fb07b01461058f578063fc7b9c18146105bc57610170565b8063cd3293de146104a6578063d6bda0c0146104d6578063d8aed145146104fe57610170565b8063929eea2114610386578063982aae46146103c2578063a52f38d1146103ec578063a9f808b814610428578063b14d37c014610452578063c4e41b221461047c57610170565b8063354030231161012257806335403023146102925780633b24cc21146102ba5780633b4675a7146102e4578063485cc9551461030e57806357379102146103365780638ac1b7751461035e57610170565b806303ec357f1461017457806315770f921461019e57806318160ddd146101c85780631877bb5c146101f25780631e0029c81461022e5780632e1a7d4d1461026a57610170565b3661017057005b5f80fd5b34801561017f575f80fd5b506101886105e6565b6040516101959190612c51565b60405180910390f35b3480156101a9575f80fd5b506101b2610740565b6040516101bf9190612c51565b60405180910390f35b3480156101d3575f80fd5b506101dc610746565b6040516101e99190612c51565b60405180910390f35b3480156101fd575f80fd5b5061021860048036038101906102139190612cc8565b61074c565b6040516102259190612c51565b60405180910390f35b348015610239575f80fd5b50610254600480360381019061024f9190612d1d565b610761565b6040516102619190612c51565b60405180910390f35b348015610275575f80fd5b50610290600480360381019061028b9190612d1d565b610776565b005b34801561029d575f80fd5b506102b860048036038101906102b39190612d1d565b610a66565b005b3480156102c5575f80fd5b506102ce610d15565b6040516102db9190612c51565b60405180910390f35b3480156102ef575f80fd5b506102f8610d1e565b6040516103059190612d57565b60405180910390f35b348015610319575f80fd5b50610334600480360381019061032f9190612dab565b610d43565b005b348015610341575f80fd5b5061035c60048036038101906103579190612d1d565b61100c565b005b348015610369575f80fd5b50610384600480360381019061037f9190612cc8565b6112d0565b005b348015610391575f80fd5b506103ac60048036038101906103a79190612d1d565b6113a2565b6040516103b99190612d57565b60405180910390f35b3480156103cd575f80fd5b506103d66113dd565b6040516103e39190612e44565b60405180910390f35b3480156103f7575f80fd5b50610412600480360381019061040d9190612d1d565b611400565b60405161041f9190612c51565b60405180910390f35b348015610433575f80fd5b5061043c61156b565b6040516104499190612c51565b60405180910390f35b34801561045d575f80fd5b506104666115fa565b6040516104739190612c51565b60405180910390f35b348015610487575f80fd5b50610490611600565b60405161049d9190612c51565b60405180910390f35b3480156104b1575f80fd5b506104ba61172c565b6040516104cd9796959493929190612ec2565b60405180910390f35b3480156104e1575f80fd5b506104fc60048036038101906104f79190612f2f565b611806565b005b348015610509575f80fd5b50610524600480360381019061051f9190612f7f565b611ae8565b005b348015610531575f80fd5b5061054c60048036038101906105479190612d1d565b61207d565b60405161055e96959493929190612fd7565b60405180910390f35b348015610572575f80fd5b5061058d60048036038101906105889190613036565b6120fa565b005b34801561059a575f80fd5b506105a361231d565b6040516105b39493929190613074565b60405180910390f35b3480156105c7575f80fd5b506105d0612407565b6040516105dd9190612c51565b60405180910390f35b5f806105f061240d565b90505f6106058260c001518360e0015161255e565b905061064c60046001015f9054906101000a90046fffffffffffffffffffffffffffffffff166fffffffffffffffffffffffffffffffff168261257290919063ffffffff16565b8260800181815250506b033b2e3c9fd0803ce80000006fffffffffffffffffffffffffffffffff165f8054906101000a900473ffffffffffffffffffffffffffffffffffffffff1673ffffffffffffffffffffffffffffffffffffffff1663313ce5676040518163ffffffff1660e01b8152600401602060405180830381865afa1580156106dc573d5f803e3d5ffd5b505050506040513d601f19601f8201168201806040525081019061070091906130ed565b600a61070c9190613274565b6107258460800151600b5461257290919063ffffffff16565b61072f91906132be565b610739919061332c565b9250505090565b600a5481565b60095481565b6007602052805f5260405f205f915090505481565b6008602052805f5260405f205f915090505481565b5f61077f61240d565b905061078a816125ba565b5f805f9054906101000a900473ffffffffffffffffffffffffffffffffffffffff1673ffffffffffffffffffffffffffffffffffffffff1663313ce5676040518163ffffffff1660e01b8152600401602060405180830381865afa1580156107f4573d5f803e3d5ffd5b505050506040513d601f19601f8201168201806040525081019061081891906130ed565b600a6108249190613274565b6b033b2e3c9fd0803ce80000006fffffffffffffffffffffffffffffffff168461084e91906132be565b610858919061332c565b90506108645f82612617565b5f6108a960045f015f9054906101000a90046fffffffffffffffffffffffffffffffff166fffffffffffffffffffffffffffffffff168361280a90919063ffffffff16565b90505f8160075f3373ffffffffffffffffffffffffffffffffffffffff1673ffffffffffffffffffffffffffffffffffffffff1681526020019081526020015f20546108f5919061335c565b90508160095f828254610908919061335c565b9250508190555081600a5f828254610920919061335c565b925050819055505f81101561096a576040517f08c379a0000000000000000000000000000000000000000000000000000000008152600401610961906133e9565b60405180910390fd5b8060075f3373ffffffffffffffffffffffffffffffffffffffff1673ffffffffffffffffffffffffffffffffffffffff1681526020019081526020015f208190555084600c5f8282546109bd919061335c565b925050819055505f8054906101000a900473ffffffffffffffffffffffffffffffffffffffff1673ffffffffffffffffffffffffffffffffffffffff1663a9059cbb33876040518363ffffffff1660e01b8152600401610a1e929190613407565b6020604051808303815f875af1158015610a3a573d5f803e3d5ffd5b505050506040513d601f19601f82011682018060405250810190610a5e9190613458565b505050505050565b5f610a6f61240d565b9050610a7a816125ba565b5f805f9054906101000a900473ffffffffffffffffffffffffffffffffffffffff1673ffffffffffffffffffffffffffffffffffffffff1663313ce5676040518163ffffffff1660e01b8152600401602060405180830381865afa158015610ae4573d5f803e3d5ffd5b505050506040513d601f19601f82011682018060405250810190610b0891906130ed565b600a610b149190613274565b6b033b2e3c9fd0803ce80000006fffffffffffffffffffffffffffffffff1684610b3e91906132be565b610b48919061332c565b9050610b54815f612617565b5f610b9960045f015f9054906101000a90046fffffffffffffffffffffffffffffffff166fffffffffffffffffffffffffffffffff168361280a90919063ffffffff16565b90505f8160075f3373ffffffffffffffffffffffffffffffffffffffff1673ffffffffffffffffffffffffffffffffffffffff1681526020019081526020015f2054610be59190613483565b90508160095f828254610bf89190613483565b9250508190555081600a5f828254610c109190613483565b925050819055508060075f3373ffffffffffffffffffffffffffffffffffffffff1673ffffffffffffffffffffffffffffffffffffffff1681526020019081526020015f208190555084600c5f828254610c6a9190613483565b925050819055505f8054906101000a900473ffffffffffffffffffffffffffffffffffffffff1673ffffffffffffffffffffffffffffffffffffffff166323b872dd3330886040518463ffffffff1660e01b8152600401610ccd939291906134b6565b6020604051808303815f875af1158015610ce9573d5f803e3d5ffd5b505050506040513d601f19601f82011682018060405250810190610d0d9190613458565b505050505050565b5f600c54905090565b60035f9054906101000a900473ffffffffffffffffffffffffffffffffffffffff1681565b5f610d4c61284e565b90505f815f0160089054906101000a900460ff161590505f825f015f9054906101000a900467ffffffffffffffff1690505f808267ffffffffffffffff16148015610d945750825b90505f60018367ffffffffffffffff16148015610dc757505f3073ffffffffffffffffffffffffffffffffffffffff163b145b905081158015610dd5575080155b15610e0c576040517ff92ee8a900000000000000000000000000000000000000000000000000000000815260040160405180910390fd5b6001855f015f6101000a81548167ffffffffffffffff021916908367ffffffffffffffff1602179055508315610e59576001855f0160086101000a81548160ff0219169083151502179055505b865f806101000a81548173ffffffffffffffffffffffffffffffffffffffff021916908373ffffffffffffffffffffffffffffffffffffffff16021790555085600460020160076101000a81548173ffffffffffffffffffffffffffffffffffffffff021916908373ffffffffffffffffffffffffffffffffffffffff1602179055506b033b2e3c9fd0803ce800000060045f015f6101000a8154816fffffffffffffffffffffffffffffffff02191690836fffffffffffffffffffffffffffffffff1602179055506b033b2e3c9fd0803ce800000060046001015f6101000a8154816fffffffffffffffffffffffffffffffff02191690836fffffffffffffffffffffffffffffffff16021790555033600d5f6101000a81548173ffffffffffffffffffffffffffffffffffffffff021916908373ffffffffffffffffffffffffffffffffffffffff1602179055508315611003575f855f0160086101000a81548160ff0219169083151502179055507fc7f505b2f371ae2175ee4913f4499e1f2633a7b5936321eed1cdaeb6115181d26001604051610ffa9190613537565b60405180910390a15b50505050505050565b3373ffffffffffffffffffffffffffffffffffffffff1660035f9054906101000a900473ffffffffffffffffffffffffffffffffffffffff1673ffffffffffffffffffffffffffffffffffffffff161461109b576040517f08c379a00000000000000000000000000000000000000000000000000000000081526004016110929061359a565b60405180910390fd5b5f6110a461240d565b90506110af816125ba565b5f805f9054906101000a900473ffffffffffffffffffffffffffffffffffffffff1673ffffffffffffffffffffffffffffffffffffffff1663313ce5676040518163ffffffff1660e01b8152600401602060405180830381865afa158015611119573d5f803e3d5ffd5b505050506040513d601f19601f8201168201806040525081019061113d91906130ed565b600a6111499190613274565b6b033b2e3c9fd0803ce80000006fffffffffffffffffffffffffffffffff168461117391906132be565b61117d919061332c565b90505f6111998360400151600a5461257290919063ffffffff16565b90505f6111d0826111c2866040015186866111b49190613483565b61257290919063ffffffff16565b61280a90919063ffffffff16565b90506111db81612875565b60045f015f6101000a8154816fffffffffffffffffffffffffffffffff02191690836fffffffffffffffffffffffffffffffff16021790555084600c5f8282546112259190613483565b925050819055505f8054906101000a900473ffffffffffffffffffffffffffffffffffffffff1673ffffffffffffffffffffffffffffffffffffffff166323b872dd3330886040518463ffffffff1660e01b8152600401611288939291906134b6565b6020604051808303815f875af11580156112a4573d5f803e3d5ffd5b505050506040513d601f19601f820116820180604052508101906112c89190613458565b505050505050565b3373ffffffffffffffffffffffffffffffffffffffff16600d5f9054906101000a900473ffffffffffffffffffffffffffffffffffffffff1673ffffffffffffffffffffffffffffffffffffffff161461135f576040517f08c379a000000000000000000000000000000000000000000000000000000000815260040161135690613602565b60405180910390fd5b8060035f6101000a81548173ffffffffffffffffffffffffffffffffffffffff021916908373ffffffffffffffffffffffffffffffffffffffff16021790555050565b600181815481106113b1575f80fd5b905f5260205f20015f915054906101000a900473ffffffffffffffffffffffffffffffffffffffff1681565b5f8054906101000a900473ffffffffffffffffffffffffffffffffffffffff1681565b5f8061140a61240d565b90505f61141f8260c001518360e0015161255e565b905061146660046001015f9054906101000a90046fffffffffffffffffffffffffffffffff166fffffffffffffffffffffffffffffffff168261257290919063ffffffff16565b8260800181815250506b033b2e3c9fd0803ce80000006fffffffffffffffffffffffffffffffff165f8054906101000a900473ffffffffffffffffffffffffffffffffffffffff1673ffffffffffffffffffffffffffffffffffffffff1663313ce5676040518163ffffffff1660e01b8152600401602060405180830381865afa1580156114f6573d5f803e3d5ffd5b505050506040513d601f19601f8201168201806040525081019061151a91906130ed565b600a6115269190613274565b61154e846080015160085f8981526020019081526020015f205461257290919063ffffffff16565b61155891906132be565b611562919061332c565b92505050919050565b5f6115f56115f060045f015f9054906101000a90046fffffffffffffffffffffffffffffffff166fffffffffffffffffffffffffffffffff1660075f3373ffffffffffffffffffffffffffffffffffffffff1673ffffffffffffffffffffffffffffffffffffffff1681526020019081526020015f205461257290919063ffffffff16565b6128d8565b905090565b600c5481565b5f8061160a61240d565b90505f61161f8260a001518360e00151612904565b905061163882604001518261257290919063ffffffff16565b8260400181815250506b033b2e3c9fd0803ce80000006fffffffffffffffffffffffffffffffff165f8054906101000a900473ffffffffffffffffffffffffffffffffffffffff1673ffffffffffffffffffffffffffffffffffffffff1663313ce5676040518163ffffffff1660e01b8152600401602060405180830381865afa1580156116c8573d5f803e3d5ffd5b505050506040513d601f19601f820116820180604052508101906116ec91906130ed565b600a6116f89190613274565b611711846040015160095461257290919063ffffffff16565b61171b91906132be565b611725919061332c565b9250505090565b6004805f015f9054906101000a90046fffffffffffffffffffffffffffffffff1690805f0160109054906101000a90046fffffffffffffffffffffffffffffffff1690806001015f9054906101000a90046fffffffffffffffffffffffffffffffff16908060010160109054906101000a90046fffffffffffffffffffffffffffffffff1690806002015f9054906101000a900464ffffffffff16908060020160059054906101000a900461ffff16908060020160079054906101000a900473ffffffffffffffffffffffffffffffffffffffff16905087565b3373ffffffffffffffffffffffffffffffffffffffff1660035f9054906101000a900473ffffffffffffffffffffffffffffffffffffffff1673ffffffffffffffffffffffffffffffffffffffff1614611895576040517f08c379a000000000000000000000000000000000000000000000000000000000815260040161188c9061359a565b60405180910390fd5b5f61189e61240d565b90506118a9816125ba565b5f805f9054906101000a900473ffffffffffffffffffffffffffffffffffffffff1673ffffffffffffffffffffffffffffffffffffffff1663313ce5676040518163ffffffff1660e01b8152600401602060405180830381865afa158015611913573d5f803e3d5ffd5b505050506040513d601f19601f8201168201806040525081019061193791906130ed565b600a6119439190613274565b6b033b2e3c9fd0803ce80000006fffffffffffffffffffffffffffffffff168561196d91906132be565b611977919061332c565b90505f61199183608001518361280a90919063ffffffff16565b90505f8160085f8981526020019081526020015f20546119b19190613483565b905081600b5f8282546119c49190613483565b92505081905550600c54861115611a10576040517f08c379a0000000000000000000000000000000000000000000000000000000008152600401611a079061366a565b60405180910390fd5b5f60025f8981526020019081526020015f2090508160085f8a81526020019081526020015f208190555087815f0181905550868160020181905550858160030160026101000a81548173ffffffffffffffffffffffffffffffffffffffff021916908373ffffffffffffffffffffffffffffffffffffffff160217905550611a985f85612617565b611aaf85604001518561280a90919063ffffffff16565b600a5f828254611abf919061335c565b9250508190555086600c5f828254611ad7919061335c565b925050819055505050505050505050565b3373ffffffffffffffffffffffffffffffffffffffff1660035f9054906101000a900473ffffffffffffffffffffffffffffffffffffffff1673ffffffffffffffffffffffffffffffffffffffff1614611b77576040517f08c379a0000000000000000000000000000000000000000000000000000000008152600401611b6e9061359a565b60405180910390fd5b5f611b8061240d565b9050611b8b816125ba565b5f805f9054906101000a900473ffffffffffffffffffffffffffffffffffffffff1673ffffffffffffffffffffffffffffffffffffffff1663313ce5676040518163ffffffff1660e01b8152600401602060405180830381865afa158015611bf5573d5f803e3d5ffd5b505050506040513d601f19601f82011682018060405250810190611c1991906130ed565b600a611c259190613274565b6b033b2e3c9fd0803ce80000006fffffffffffffffffffffffffffffffff1684611c4f91906132be565b611c59919061332c565b90505f611ca160046001015f9054906101000a90046fffffffffffffffffffffffffffffffff166fffffffffffffffffffffffffffffffff168361280a90919063ffffffff16565b90508060085f8781526020019081526020015f20541015611f395760085f8681526020019081526020015f2054600b5f828254611cde919061335c565b925050819055505f611d3c60046001015f9054906101000a90046fffffffffffffffffffffffffffffffff166fffffffffffffffffffffffffffffffff1660085f8981526020019081526020015f205461257290919063ffffffff16565b90505f6b033b2e3c9fd0803ce80000006fffffffffffffffffffffffffffffffff165f8054906101000a900473ffffffffffffffffffffffffffffffffffffffff1673ffffffffffffffffffffffffffffffffffffffff1663313ce5676040518163ffffffff1660e01b8152600401602060405180830381865afa158015611dc6573d5f803e3d5ffd5b505050506040513d601f19601f82011682018060405250810190611dea91906130ed565b600a611df69190613274565b83611e0191906132be565b611e0b919061332c565b90505f60085f8981526020019081526020015f2081905550611e3e60085f8981526020019081526020015f20545f612617565b611e66856040015160085f8a81526020019081526020015f205461280a90919063ffffffff16565b600a5f828254611e769190613483565b9250508190555080600c5f828254611e8e9190613483565b925050819055505f8054906101000a900473ffffffffffffffffffffffffffffffffffffffff1673ffffffffffffffffffffffffffffffffffffffff166323b872dd3330846040518463ffffffff1660e01b8152600401611ef1939291906134b6565b6020604051808303815f875af1158015611f0d573d5f803e3d5ffd5b505050506040513d601f19601f82011682018060405250810190611f319190613458565b505050612076565b5f8160085f8881526020019081526020015f2054611f57919061335c565b905081600b5f828254611f6a919061335c565b925050819055508060085f8881526020019081526020015f2081905550611f91835f612617565b611fa884604001518461280a90919063ffffffff16565b600a5f828254611fb89190613483565b9250508190555084600c5f828254611fd09190613483565b925050819055505f8054906101000a900473ffffffffffffffffffffffffffffffffffffffff1673ffffffffffffffffffffffffffffffffffffffff166323b872dd3330886040518463ffffffff1660e01b8152600401612033939291906134b6565b6020604051808303815f875af115801561204f573d5f803e3d5ffd5b505050506040513d601f19601f820116820180604052508101906120739190613458565b50505b5050505050565b6002602052805f5260405f205f91509050805f015490806001015f9054906101000a900460ff1690806002015490806003015f9054906101000a900460ff16908060030160019054906101000a900460ff16908060030160029054906101000a900473ffffffffffffffffffffffffffffffffffffffff16905086565b3373ffffffffffffffffffffffffffffffffffffffff1660035f9054906101000a900473ffffffffffffffffffffffffffffffffffffffff1673ffffffffffffffffffffffffffffffffffffffff1614612189576040517f08c379a00000000000000000000000000000000000000000000000000000000081526004016121809061359a565b60405180910390fd5b5f151560025f8381526020019081526020015f206001015f9054906101000a900460ff161515146121ef576040517f08c379a00000000000000000000000000000000000000000000000000000000081526004016121e6906136d2565b60405180910390fd5b600160025f8381526020019081526020015f206001015f6101000a81548160ff0219169083151502179055507fec2db68ed4a8b09a4c7173e6e4230e6cca7e1b48e58a0affc9c550470e0e14818260025f8481526020019081526020015f206002015442604051612262939291906136f0565b60405180910390a15f8054906101000a900473ffffffffffffffffffffffffffffffffffffffff1673ffffffffffffffffffffffffffffffffffffffff1663a9059cbb8360025f8581526020019081526020015f20600201546040518363ffffffff1660e01b81526004016122d8929190613407565b6020604051808303815f875af11580156122f4573d5f803e3d5ffd5b505050506040513d601f19601f820116820180604052508101906123189190613458565b505050565b5f805f80600460010160109054906101000a90046fffffffffffffffffffffffffffffffff1660045f0160109054906101000a90046fffffffffffffffffffffffffffffffff1660046001015f9054906101000a90046fffffffffffffffffffffffffffffffff1660045f015f9054906101000a90046fffffffffffffffffffffffffffffffff16836fffffffffffffffffffffffffffffffff169350826fffffffffffffffffffffffffffffffff169250816fffffffffffffffffffffffffffffffff169150806fffffffffffffffffffffffffffffffff169050935093509350935090919293565b600b5481565b612415612bd7565b61241d612bd7565b60045f015f9054906101000a90046fffffffffffffffffffffffffffffffff166fffffffffffffffffffffffffffffffff16816040018181525081602001818152505060046001015f9054906101000a90046fffffffffffffffffffffffffffffffff166fffffffffffffffffffffffffffffffff16816080018181525081606001818152505060045f0160109054906101000a90046fffffffffffffffffffffffffffffffff166fffffffffffffffffffffffffffffffff168160a0018181525050600460010160109054906101000a90046fffffffffffffffffffffffffffffffff166fffffffffffffffffffffffffffffffff168160c001818152505060046002015f9054906101000a900464ffffffffff168160e0019064ffffffffff16908164ffffffffff1681525050600b54815f0181815250508091505090565b5f61256a83834261295e565b905092915050565b5f816b019d971e4fe8401e740000005f190304831115821517612593575f80fd5b6b033b2e3c9fd0803ce80000006b019d971e4fe8401e740000008385020104905092915050565b4264ffffffffff1660046002015f9054906101000a900464ffffffffff1664ffffffffff160315612614576125ee81612ac4565b4260046002015f6101000a81548164ffffffffff021916908364ffffffffff1602179055505b50565b61261f612c1b565b600460020160079054906101000a900473ffffffffffffffffffffffffffffffffffffffff1673ffffffffffffffffffffffffffffffffffffffff166356eaf26460405180608001604052808681526020018581526020016126be60046001015f9054906101000a90046fffffffffffffffffffffffffffffffff166fffffffffffffffffffffffffffffffff16600b5461257290919063ffffffff16565b815260200161270960045f015f9054906101000a90046fffffffffffffffffffffffffffffffff166fffffffffffffffffffffffffffffffff16600a5461257290919063ffffffff16565b8152506040518263ffffffff1660e01b81526004016127289190613787565b6040805180830381865afa158015612742573d5f803e3d5ffd5b505050506040513d601f19601f8201168201806040525081019061276691906137b4565b825f018360200182815250828152505050612783815f0151612875565b60045f0160106101000a8154816fffffffffffffffffffffffffffffffff02191690836fffffffffffffffffffffffffffffffff1602179055506127ca8160200151612875565b600460010160106101000a8154816fffffffffffffffffffffffffffffffff02191690836fffffffffffffffffffffffffffffffff160217905550505050565b5f6b033b2e3c9fd0803ce8000000600283045f1903048311151582151715612830575f80fd5b81600283046b033b2e3c9fd0803ce800000085020104905092915050565b5f7ff0c57e16840df040f15088dc2f81fe391c3923bec73e23a9662efc9c229c6a00905090565b5f6fffffffffffffffffffffffffffffffff80168211156128d0576080826040517f6dfcc6500000000000000000000000000000000000000000000000000000000081526004016128c792919061382b565b60405180910390fd5b819050919050565b5f633b9aca0082049050633b9aca0082066002633b9aca000481106128fe576001820191505b50919050565b5f808264ffffffffff1642612919919061335c565b8461292491906132be565b90506301e13380818161293a576129396132ff565b5b049050806b033b2e3c9fd0803ce80000006129559190613483565b91505092915050565b5f808364ffffffffff1683612973919061335c565b90505f8103612991576b033b2e3c9fd0803ce8000000915050612abd565b5f805f80600185039350600285116129a9575f6129ae565b600285035b92506301e1338080026129ca8a8b61257290919063ffffffff16565b816129d8576129d76132ff565b5b0491506301e133806129f38a8461257290919063ffffffff16565b81612a0157612a006132ff565b5b0490505f828587612a1291906132be565b612a1c91906132be565b905060028181612a2f57612a2e6132ff565b5b0490505f82858789612a4191906132be565b612a4b91906132be565b612a5591906132be565b905060068181612a6857612a676132ff565b5b04905080826301e13380898e612a7e91906132be565b612a88919061332c565b6b033b2e3c9fd0803ce8000000612a9f9190613483565b612aa99190613483565b612ab39190613483565b9750505050505050505b9392505050565b5f8160a0015114612b4c575f612ae28260a001518360e00151612904565b9050612afb82602001518261257290919063ffffffff16565b826040018181525050612b118260400151612875565b60045f015f6101000a8154816fffffffffffffffffffffffffffffffff02191690836fffffffffffffffffffffffffffffffff160217905550505b5f815f015114612bd4575f612b698260c001518360e0015161255e565b9050612b8282606001518261257290919063ffffffff16565b826080018181525050612b988260800151612875565b60046001015f6101000a8154816fffffffffffffffffffffffffffffffff02191690836fffffffffffffffffffffffffffffffff160217905550505b50565b6040518061010001604052805f81526020015f81526020015f81526020015f81526020015f81526020015f81526020015f81526020015f64ffffffffff1681525090565b60405180606001604052805f81526020015f81526020015f81525090565b5f819050919050565b612c4b81612c39565b82525050565b5f602082019050612c645f830184612c42565b92915050565b5f80fd5b5f73ffffffffffffffffffffffffffffffffffffffff82169050919050565b5f612c9782612c6e565b9050919050565b612ca781612c8d565b8114612cb1575f80fd5b50565b5f81359050612cc281612c9e565b92915050565b5f60208284031215612cdd57612cdc612c6a565b5b5f612cea84828501612cb4565b91505092915050565b612cfc81612c39565b8114612d06575f80fd5b50565b5f81359050612d1781612cf3565b92915050565b5f60208284031215612d3257612d31612c6a565b5b5f612d3f84828501612d09565b91505092915050565b612d5181612c8d565b82525050565b5f602082019050612d6a5f830184612d48565b92915050565b5f612d7a82612c8d565b9050919050565b612d8a81612d70565b8114612d94575f80fd5b50565b5f81359050612da581612d81565b92915050565b5f8060408385031215612dc157612dc0612c6a565b5b5f612dce85828601612d97565b9250506020612ddf85828601612cb4565b9150509250929050565b5f819050919050565b5f612e0c612e07612e0284612c6e565b612de9565b612c6e565b9050919050565b5f612e1d82612df2565b9050919050565b5f612e2e82612e13565b9050919050565b612e3e81612e24565b82525050565b5f602082019050612e575f830184612e35565b92915050565b5f6fffffffffffffffffffffffffffffffff82169050919050565b612e8181612e5d565b82525050565b5f64ffffffffff82169050919050565b612ea081612e87565b82525050565b5f61ffff82169050919050565b612ebc81612ea6565b82525050565b5f60e082019050612ed55f83018a612e78565b612ee26020830189612e78565b612eef6040830188612e78565b612efc6060830187612e78565b612f096080830186612e97565b612f1660a0830185612eb3565b612f2360c0830184612d48565b98975050505050505050565b5f805f60608486031215612f4657612f45612c6a565b5b5f612f5386828701612d09565b9350506020612f6486828701612d09565b9250506040612f7586828701612cb4565b9150509250925092565b5f8060408385031215612f9557612f94612c6a565b5b5f612fa285828601612d09565b9250506020612fb385828601612d09565b9150509250929050565b5f8115159050919050565b612fd181612fbd565b82525050565b5f60c082019050612fea5f830189612c42565b612ff76020830188612fc8565b6130046040830187612c42565b6130116060830186612fc8565b61301e6080830185612fc8565b61302b60a0830184612d48565b979650505050505050565b5f806040838503121561304c5761304b612c6a565b5b5f61305985828601612cb4565b925050602061306a85828601612d09565b9150509250929050565b5f6080820190506130875f830187612c42565b6130946020830186612c42565b6130a16040830185612c42565b6130ae6060830184612c42565b95945050505050565b5f60ff82169050919050565b6130cc816130b7565b81146130d6575f80fd5b50565b5f815190506130e7816130c3565b92915050565b5f6020828403121561310257613101612c6a565b5b5f61310f848285016130d9565b91505092915050565b7f4e487b71000000000000000000000000000000000000000000000000000000005f52601160045260245ffd5b5f8160011c9050919050565b5f808291508390505b600185111561319a5780860481111561317657613175613118565b5b60018516156131855780820291505b808102905061319385613145565b945061315a565b94509492505050565b5f826131b2576001905061326d565b816131bf575f905061326d565b81600181146131d557600281146131df5761320e565b600191505061326d565b60ff8411156131f1576131f0613118565b5b8360020a91508482111561320857613207613118565b5b5061326d565b5060208310610133831016604e8410600b84101617156132435782820a90508381111561323e5761323d613118565b5b61326d565b6132508484846001613151565b9250905081840481111561326757613266613118565b5b81810290505b9392505050565b5f61327e82612c39565b9150613289836130b7565b92506132b67fffffffffffffffffffffffffffffffffffffffffffffffffffffffffffffffff84846131a3565b905092915050565b5f6132c882612c39565b91506132d383612c39565b92508282026132e181612c39565b915082820484148315176132f8576132f7613118565b5b5092915050565b7f4e487b71000000000000000000000000000000000000000000000000000000005f52601260045260245ffd5b5f61333682612c39565b915061334183612c39565b925082613351576133506132ff565b5b828204905092915050565b5f61336682612c39565b915061337183612c39565b925082820390508181111561338957613388613118565b5b92915050565b5f82825260208201905092915050565b7f446f6e2774206861766520656e6f7567682066756e64000000000000000000005f82015250565b5f6133d360168361338f565b91506133de8261339f565b602082019050919050565b5f6020820190508181035f830152613400816133c7565b9050919050565b5f60408201905061341a5f830185612d48565b6134276020830184612c42565b9392505050565b61343781612fbd565b8114613441575f80fd5b50565b5f815190506134528161342e565b92915050565b5f6020828403121561346d5761346c612c6a565b5b5f61347a84828501613444565b91505092915050565b5f61348d82612c39565b915061349883612c39565b92508282019050808211156134b0576134af613118565b5b92915050565b5f6060820190506134c95f830186612d48565b6134d66020830185612d48565b6134e36040830184612c42565b949350505050565b5f819050919050565b5f67ffffffffffffffff82169050919050565b5f61352161351c613517846134eb565b612de9565b6134f4565b9050919050565b61353181613507565b82525050565b5f60208201905061354a5f830184613528565b92915050565b7f6f6e6c7920746865206363666c000000000000000000000000000000000000005f82015250565b5f613584600d8361338f565b915061358f82613550565b602082019050919050565b5f6020820190508181035f8301526135b181613578565b9050919050565b7f6f6e6c7920746865206f776e65720000000000000000000000000000000000005f82015250565b5f6135ec600e8361338f565b91506135f7826135b8565b602082019050919050565b5f6020820190508181035f830152613619816135e0565b9050919050565b7f446f206e6f74206861766520656e6f756768206c6971756964697479000000005f82015250565b5f613654601c8361338f565b915061365f82613620565b602082019050919050565b5f6020820190508181035f83015261368181613648565b9050919050565b7f4c6f616e206973207061696400000000000000000000000000000000000000005f82015250565b5f6136bc600c8361338f565b91506136c782613688565b602082019050919050565b5f6020820190508181035f8301526136e9816136b0565b9050919050565b5f6060820190506137035f830186612d48565b6137106020830185612c42565b61371d6040830184612c42565b949350505050565b61372e81612c39565b82525050565b608082015f8201516137485f850182613725565b50602082015161375b6020850182613725565b50604082015161376e6040850182613725565b5060608201516137816060850182613725565b50505050565b5f60808201905061379a5f830184613734565b92915050565b5f815190506137ae81612cf3565b92915050565b5f80604083850312156137ca576137c9612c6a565b5b5f6137d7858286016137a0565b92505060206137e8858286016137a0565b9150509250929050565b5f819050919050565b5f61381561381061380b846137f2565b612de9565b6130b7565b9050919050565b613825816137fb565b82525050565b5f60408201905061383e5f83018561381c565b61384b6020830184612c42565b939250505056fea2646970667358221220eaebb1e3872c56c4f0098513c530a1118dd5530d1c3ef7b775ebe10673c1501b64736f6c634300081a0033",
			"opcodes": "PUSH1 0x80 PUSH1 0x40 MSTORE CALLVALUE DUP1 ISZERO PUSH1 0xE JUMPI PUSH0 DUP1 REVERT JUMPDEST POP PUSH2 0x3888 DUP1 PUSH2 0x1C PUSH0 CODECOPY PUSH0 RETURN INVALID PUSH1 0x80 PUSH1 0x40 MSTORE PUSH1 0x4 CALLDATASIZE LT PUSH2 0x169 JUMPI PUSH0 CALLDATALOAD PUSH1 0xE0 SHR DUP1 PUSH4 0x929EEA21 GT PUSH2 0xD0 JUMPI DUP1 PUSH4 0xCD3293DE GT PUSH2 0x89 JUMPI DUP1 PUSH4 0xE1EC3C68 GT PUSH2 0x63 JUMPI DUP1 PUSH4 0xE1EC3C68 EQ PUSH2 0x526 JUMPI DUP1 PUSH4 0xEC7BE39D EQ PUSH2 0x567 JUMPI DUP1 PUSH4 0xF7FB07B0 EQ PUSH2 0x58F JUMPI DUP1 PUSH4 0xFC7B9C18 EQ PUSH2 0x5BC JUMPI PUSH2 0x170 JUMP JUMPDEST DUP1 PUSH4 0xCD3293DE EQ PUSH2 0x4A6 JUMPI DUP1 PUSH4 0xD6BDA0C0 EQ PUSH2 0x4D6 JUMPI DUP1 PUSH4 0xD8AED145 EQ PUSH2 0x4FE JUMPI PUSH2 0x170 JUMP JUMPDEST DUP1 PUSH4 0x929EEA21 EQ PUSH2 0x386 JUMPI DUP1 PUSH4 0x982AAE46 EQ PUSH2 0x3C2 JUMPI DUP1 PUSH4 0xA52F38D1 EQ PUSH2 0x3EC JUMPI DUP1 PUSH4 0xA9F808B8 EQ PUSH2 0x428 JUMPI DUP1 PUSH4 0xB14D37C0 EQ PUSH2 0x452 JUMPI DUP1 PUSH4 0xC4E41B22 EQ PUSH2 0x47C JUMPI PUSH2 0x170 JUMP JUMPDEST DUP1 PUSH4 0x35403023 GT PUSH2 0x122 JUMPI DUP1 PUSH4 0x35403023 EQ PUSH2 0x292 JUMPI DUP1 PUSH4 0x3B24CC21 EQ PUSH2 0x2BA JUMPI DUP1 PUSH4 0x3B4675A7 EQ PUSH2 0x2E4 JUMPI DUP1 PUSH4 0x485CC955 EQ PUSH2 0x30E JUMPI DUP1 PUSH4 0x57379102 EQ PUSH2 0x336 JUMPI DUP1 PUSH4 0x8AC1B775 EQ PUSH2 0x35E JUMPI PUSH2 0x170 JUMP JUMPDEST DUP1 PUSH4 0x3EC357F EQ PUSH2 0x174 JUMPI DUP1 PUSH4 0x15770F92 EQ PUSH2 0x19E JUMPI DUP1 PUSH4 0x18160DDD EQ PUSH2 0x1C8 JUMPI DUP1 PUSH4 0x1877BB5C EQ PUSH2 0x1F2 JUMPI DUP1 PUSH4 0x1E0029C8 EQ PUSH2 0x22E JUMPI DUP1 PUSH4 0x2E1A7D4D EQ PUSH2 0x26A JUMPI PUSH2 0x170 JUMP JUMPDEST CALLDATASIZE PUSH2 0x170 JUMPI STOP JUMPDEST PUSH0 DUP1 REVERT JUMPDEST CALLVALUE DUP1 ISZERO PUSH2 0x17F JUMPI PUSH0 DUP1 REVERT JUMPDEST POP PUSH2 0x188 PUSH2 0x5E6 JUMP JUMPDEST PUSH1 0x40 MLOAD PUSH2 0x195 SWAP2 SWAP1 PUSH2 0x2C51 JUMP JUMPDEST PUSH1 0x40 MLOAD DUP1 SWAP2 SUB SWAP1 RETURN JUMPDEST CALLVALUE DUP1 ISZERO PUSH2 0x1A9 JUMPI PUSH0 DUP1 REVERT JUMPDEST POP PUSH2 0x1B2 PUSH2 0x740 JUMP JUMPDEST PUSH1 0x40 MLOAD PUSH2 0x1BF SWAP2 SWAP1 PUSH2 0x2C51 JUMP JUMPDEST PUSH1 0x40 MLOAD DUP1 SWAP2 SUB SWAP1 RETURN JUMPDEST CALLVALUE DUP1 ISZERO PUSH2 0x1D3 JUMPI PUSH0 DUP1 REVERT JUMPDEST POP PUSH2 0x1DC PUSH2 0x746 JUMP JUMPDEST PUSH1 0x40 MLOAD PUSH2 0x1E9 SWAP2 SWAP1 PUSH2 0x2C51 JUMP JUMPDEST PUSH1 0x40 MLOAD DUP1 SWAP2 SUB SWAP1 RETURN JUMPDEST CALLVALUE DUP1 ISZERO PUSH2 0x1FD JUMPI PUSH0 DUP1 REVERT JUMPDEST POP PUSH2 0x218 PUSH1 0x4 DUP1 CALLDATASIZE SUB DUP2 ADD SWAP1 PUSH2 0x213 SWAP2 SWAP1 PUSH2 0x2CC8 JUMP JUMPDEST PUSH2 0x74C JUMP JUMPDEST PUSH1 0x40 MLOAD PUSH2 0x225 SWAP2 SWAP1 PUSH2 0x2C51 JUMP JUMPDEST PUSH1 0x40 MLOAD DUP1 SWAP2 SUB SWAP1 RETURN JUMPDEST CALLVALUE DUP1 ISZERO PUSH2 0x239 JUMPI PUSH0 DUP1 REVERT JUMPDEST POP PUSH2 0x254 PUSH1 0x4 DUP1 CALLDATASIZE SUB DUP2 ADD SWAP1 PUSH2 0x24F SWAP2 SWAP1 PUSH2 0x2D1D JUMP JUMPDEST PUSH2 0x761 JUMP JUMPDEST PUSH1 0x40 MLOAD PUSH2 0x261 SWAP2 SWAP1 PUSH2 0x2C51 JUMP JUMPDEST PUSH1 0x40 MLOAD DUP1 SWAP2 SUB SWAP1 RETURN JUMPDEST CALLVALUE DUP1 ISZERO PUSH2 0x275 JUMPI PUSH0 DUP1 REVERT JUMPDEST POP PUSH2 0x290 PUSH1 0x4 DUP1 CALLDATASIZE SUB DUP2 ADD SWAP1 PUSH2 0x28B SWAP2 SWAP1 PUSH2 0x2D1D JUMP JUMPDEST PUSH2 0x776 JUMP JUMPDEST STOP JUMPDEST CALLVALUE DUP1 ISZERO PUSH2 0x29D JUMPI PUSH0 DUP1 REVERT JUMPDEST POP PUSH2 0x2B8 PUSH1 0x4 DUP1 CALLDATASIZE SUB DUP2 ADD SWAP1 PUSH2 0x2B3 SWAP2 SWAP1 PUSH2 0x2D1D JUMP JUMPDEST PUSH2 0xA66 JUMP JUMPDEST STOP JUMPDEST CALLVALUE DUP1 ISZERO PUSH2 0x2C5 JUMPI PUSH0 DUP1 REVERT JUMPDEST POP PUSH2 0x2CE PUSH2 0xD15 JUMP JUMPDEST PUSH1 0x40 MLOAD PUSH2 0x2DB SWAP2 SWAP1 PUSH2 0x2C51 JUMP JUMPDEST PUSH1 0x40 MLOAD DUP1 SWAP2 SUB SWAP1 RETURN JUMPDEST CALLVALUE DUP1 ISZERO PUSH2 0x2EF JUMPI PUSH0 DUP1 REVERT JUMPDEST POP PUSH2 0x2F8 PUSH2 0xD1E JUMP JUMPDEST PUSH1 0x40 MLOAD PUSH2 0x305 SWAP2 SWAP1 PUSH2 0x2D57 JUMP JUMPDEST PUSH1 0x40 MLOAD DUP1 SWAP2 SUB SWAP1 RETURN JUMPDEST CALLVALUE DUP1 ISZERO PUSH2 0x319 JUMPI PUSH0 DUP1 REVERT JUMPDEST POP PUSH2 0x334 PUSH1 0x4 DUP1 CALLDATASIZE SUB DUP2 ADD SWAP1 PUSH2 0x32F SWAP2 SWAP1 PUSH2 0x2DAB JUMP JUMPDEST PUSH2 0xD43 JUMP JUMPDEST STOP JUMPDEST CALLVALUE DUP1 ISZERO PUSH2 0x341 JUMPI PUSH0 DUP1 REVERT JUMPDEST POP PUSH2 0x35C PUSH1 0x4 DUP1 CALLDATASIZE SUB DUP2 ADD SWAP1 PUSH2 0x357 SWAP2 SWAP1 PUSH2 0x2D1D JUMP JUMPDEST PUSH2 0x100C JUMP JUMPDEST STOP JUMPDEST CALLVALUE DUP1 ISZERO PUSH2 0x369 JUMPI PUSH0 DUP1 REVERT JUMPDEST POP PUSH2 0x384 PUSH1 0x4 DUP1 CALLDATASIZE SUB DUP2 ADD SWAP1 PUSH2 0x37F SWAP2 SWAP1 PUSH2 0x2CC8 JUMP JUMPDEST PUSH2 0x12D0 JUMP JUMPDEST STOP JUMPDEST CALLVALUE DUP1 ISZERO PUSH2 0x391 JUMPI PUSH0 DUP1 REVERT JUMPDEST POP PUSH2 0x3AC PUSH1 0x4 DUP1 CALLDATASIZE SUB DUP2 ADD SWAP1 PUSH2 0x3A7 SWAP2 SWAP1 PUSH2 0x2D1D JUMP JUMPDEST PUSH2 0x13A2 JUMP JUMPDEST PUSH1 0x40 MLOAD PUSH2 0x3B9 SWAP2 SWAP1 PUSH2 0x2D57 JUMP JUMPDEST PUSH1 0x40 MLOAD DUP1 SWAP2 SUB SWAP1 RETURN JUMPDEST CALLVALUE DUP1 ISZERO PUSH2 0x3CD JUMPI PUSH0 DUP1 REVERT JUMPDEST POP PUSH2 0x3D6 PUSH2 0x13DD JUMP JUMPDEST PUSH1 0x40 MLOAD PUSH2 0x3E3 SWAP2 SWAP1 PUSH2 0x2E44 JUMP JUMPDEST PUSH1 0x40 MLOAD DUP1 SWAP2 SUB SWAP1 RETURN JUMPDEST CALLVALUE DUP1 ISZERO PUSH2 0x3F7 JUMPI PUSH0 DUP1 REVERT JUMPDEST POP PUSH2 0x412 PUSH1 0x4 DUP1 CALLDATASIZE SUB DUP2 ADD SWAP1 PUSH2 0x40D SWAP2 SWAP1 PUSH2 0x2D1D JUMP JUMPDEST PUSH2 0x1400 JUMP JUMPDEST PUSH1 0x40 MLOAD PUSH2 0x41F SWAP2 SWAP1 PUSH2 0x2C51 JUMP JUMPDEST PUSH1 0x40 MLOAD DUP1 SWAP2 SUB SWAP1 RETURN JUMPDEST CALLVALUE DUP1 ISZERO PUSH2 0x433 JUMPI PUSH0 DUP1 REVERT JUMPDEST POP PUSH2 0x43C PUSH2 0x156B JUMP JUMPDEST PUSH1 0x40 MLOAD PUSH2 0x449 SWAP2 SWAP1 PUSH2 0x2C51 JUMP JUMPDEST PUSH1 0x40 MLOAD DUP1 SWAP2 SUB SWAP1 RETURN JUMPDEST CALLVALUE DUP1 ISZERO PUSH2 0x45D JUMPI PUSH0 DUP1 REVERT JUMPDEST POP PUSH2 0x466 PUSH2 0x15FA JUMP JUMPDEST PUSH1 0x40 MLOAD PUSH2 0x473 SWAP2 SWAP1 PUSH2 0x2C51 JUMP JUMPDEST PUSH1 0x40 MLOAD DUP1 SWAP2 SUB SWAP1 RETURN JUMPDEST CALLVALUE DUP1 ISZERO PUSH2 0x487 JUMPI PUSH0 DUP1 REVERT JUMPDEST POP PUSH2 0x490 PUSH2 0x1600 JUMP JUMPDEST PUSH1 0x40 MLOAD PUSH2 0x49D SWAP2 SWAP1 PUSH2 0x2C51 JUMP JUMPDEST PUSH1 0x40 MLOAD DUP1 SWAP2 SUB SWAP1 RETURN JUMPDEST CALLVALUE DUP1 ISZERO PUSH2 0x4B1 JUMPI PUSH0 DUP1 REVERT JUMPDEST POP PUSH2 0x4BA PUSH2 0x172C JUMP JUMPDEST PUSH1 0x40 MLOAD PUSH2 0x4CD SWAP8 SWAP7 SWAP6 SWAP5 SWAP4 SWAP3 SWAP2 SWAP1 PUSH2 0x2EC2 JUMP JUMPDEST PUSH1 0x40 MLOAD DUP1 SWAP2 SUB SWAP1 RETURN JUMPDEST CALLVALUE DUP1 ISZERO PUSH2 0x4E1 JUMPI PUSH0 DUP1 REVERT JUMPDEST POP PUSH2 0x4FC PUSH1 0x4 DUP1 CALLDATASIZE SUB DUP2 ADD SWAP1 PUSH2 0x4F7 SWAP2 SWAP1 PUSH2 0x2F2F JUMP JUMPDEST PUSH2 0x1806 JUMP JUMPDEST STOP JUMPDEST CALLVALUE DUP1 ISZERO PUSH2 0x509 JUMPI PUSH0 DUP1 REVERT JUMPDEST POP PUSH2 0x524 PUSH1 0x4 DUP1 CALLDATASIZE SUB DUP2 ADD SWAP1 PUSH2 0x51F SWAP2 SWAP1 PUSH2 0x2F7F JUMP JUMPDEST PUSH2 0x1AE8 JUMP JUMPDEST STOP JUMPDEST CALLVALUE DUP1 ISZERO PUSH2 0x531 JUMPI PUSH0 DUP1 REVERT JUMPDEST POP PUSH2 0x54C PUSH1 0x4 DUP1 CALLDATASIZE SUB DUP2 ADD SWAP1 PUSH2 0x547 SWAP2 SWAP1 PUSH2 0x2D1D JUMP JUMPDEST PUSH2 0x207D JUMP JUMPDEST PUSH1 0x40 MLOAD PUSH2 0x55E SWAP7 SWAP6 SWAP5 SWAP4 SWAP3 SWAP2 SWAP1 PUSH2 0x2FD7 JUMP JUMPDEST PUSH1 0x40 MLOAD DUP1 SWAP2 SUB SWAP1 RETURN JUMPDEST CALLVALUE DUP1 ISZERO PUSH2 0x572 JUMPI PUSH0 DUP1 REVERT JUMPDEST POP PUSH2 0x58D PUSH1 0x4 DUP1 CALLDATASIZE SUB DUP2 ADD SWAP1 PUSH2 0x588 SWAP2 SWAP1 PUSH2 0x3036 JUMP JUMPDEST PUSH2 0x20FA JUMP JUMPDEST STOP JUMPDEST CALLVALUE DUP1 ISZERO PUSH2 0x59A JUMPI PUSH0 DUP1 REVERT JUMPDEST POP PUSH2 0x5A3 PUSH2 0x231D JUMP JUMPDEST PUSH1 0x40 MLOAD PUSH2 0x5B3 SWAP5 SWAP4 SWAP3 SWAP2 SWAP1 PUSH2 0x3074 JUMP JUMPDEST PUSH1 0x40 MLOAD DUP1 SWAP2 SUB SWAP1 RETURN JUMPDEST CALLVALUE DUP1 ISZERO PUSH2 0x5C7 JUMPI PUSH0 DUP1 REVERT JUMPDEST POP PUSH2 0x5D0 PUSH2 0x2407 JUMP JUMPDEST PUSH1 0x40 MLOAD PUSH2 0x5DD SWAP2 SWAP1 PUSH2 0x2C51 JUMP JUMPDEST PUSH1 0x40 MLOAD DUP1 SWAP2 SUB SWAP1 RETURN JUMPDEST PUSH0 DUP1 PUSH2 0x5F0 PUSH2 0x240D JUMP JUMPDEST SWAP1 POP PUSH0 PUSH2 0x605 DUP3 PUSH1 0xC0 ADD MLOAD DUP4 PUSH1 0xE0 ADD MLOAD PUSH2 0x255E JUMP JUMPDEST SWAP1 POP PUSH2 0x64C PUSH1 0x4 PUSH1 0x1 ADD PUSH0 SWAP1 SLOAD SWAP1 PUSH2 0x100 EXP SWAP1 DIV PUSH16 0xFFFFFFFFFFFFFFFFFFFFFFFFFFFFFFFF AND PUSH16 0xFFFFFFFFFFFFFFFFFFFFFFFFFFFFFFFF AND DUP3 PUSH2 0x2572 SWAP1 SWAP2 SWAP1 PUSH4 0xFFFFFFFF AND JUMP JUMPDEST DUP3 PUSH1 0x80 ADD DUP2 DUP2 MSTORE POP POP PUSH12 0x33B2E3C9FD0803CE8000000 PUSH16 0xFFFFFFFFFFFFFFFFFFFFFFFFFFFFFFFF AND PUSH0 DUP1 SLOAD SWAP1 PUSH2 0x100 EXP SWAP1 DIV PUSH20 0xFFFFFFFFFFFFFFFFFFFFFFFFFFFFFFFFFFFFFFFF AND PUSH20 0xFFFFFFFFFFFFFFFFFFFFFFFFFFFFFFFFFFFFFFFF AND PUSH4 0x313CE567 PUSH1 0x40 MLOAD DUP2 PUSH4 0xFFFFFFFF AND PUSH1 0xE0 SHL DUP2 MSTORE PUSH1 0x4 ADD PUSH1 0x20 PUSH1 0x40 MLOAD DUP1 DUP4 SUB DUP2 DUP7 GAS STATICCALL ISZERO DUP1 ISZERO PUSH2 0x6DC JUMPI RETURNDATASIZE PUSH0 DUP1 RETURNDATACOPY RETURNDATASIZE PUSH0 REVERT JUMPDEST POP POP POP POP PUSH1 0x40 MLOAD RETURNDATASIZE PUSH1 0x1F NOT PUSH1 0x1F DUP3 ADD AND DUP3 ADD DUP1 PUSH1 0x40 MSTORE POP DUP2 ADD SWAP1 PUSH2 0x700 SWAP2 SWAP1 PUSH2 0x30ED JUMP JUMPDEST PUSH1 0xA PUSH2 0x70C SWAP2 SWAP1 PUSH2 0x3274 JUMP JUMPDEST PUSH2 0x725 DUP5 PUSH1 0x80 ADD MLOAD PUSH1 0xB SLOAD PUSH2 0x2572 SWAP1 SWAP2 SWAP1 PUSH4 0xFFFFFFFF AND JUMP JUMPDEST PUSH2 0x72F SWAP2 SWAP1 PUSH2 0x32BE JUMP JUMPDEST PUSH2 0x739 SWAP2 SWAP1 PUSH2 0x332C JUMP JUMPDEST SWAP3 POP POP POP SWAP1 JUMP JUMPDEST PUSH1 0xA SLOAD DUP2 JUMP JUMPDEST PUSH1 0x9 SLOAD DUP2 JUMP JUMPDEST PUSH1 0x7 PUSH1 0x20 MSTORE DUP1 PUSH0 MSTORE PUSH1 0x40 PUSH0 KECCAK256 PUSH0 SWAP2 POP SWAP1 POP SLOAD DUP2 JUMP JUMPDEST PUSH1 0x8 PUSH1 0x20 MSTORE DUP1 PUSH0 MSTORE PUSH1 0x40 PUSH0 KECCAK256 PUSH0 SWAP2 POP SWAP1 POP SLOAD DUP2 JUMP JUMPDEST PUSH0 PUSH2 0x77F PUSH2 0x240D JUMP JUMPDEST SWAP1 POP PUSH2 0x78A DUP2 PUSH2 0x25BA JUMP JUMPDEST PUSH0 DUP1 PUSH0 SWAP1 SLOAD SWAP1 PUSH2 0x100 EXP SWAP1 DIV PUSH20 0xFFFFFFFFFFFFFFFFFFFFFFFFFFFFFFFFFFFFFFFF AND PUSH20 0xFFFFFFFFFFFFFFFFFFFFFFFFFFFFFFFFFFFFFFFF AND PUSH4 0x313CE567 PUSH1 0x40 MLOAD DUP2 PUSH4 0xFFFFFFFF AND PUSH1 0xE0 SHL DUP2 MSTORE PUSH1 0x4 ADD PUSH1 0x20 PUSH1 0x40 MLOAD DUP1 DUP4 SUB DUP2 DUP7 GAS STATICCALL ISZERO DUP1 ISZERO PUSH2 0x7F4 JUMPI RETURNDATASIZE PUSH0 DUP1 RETURNDATACOPY RETURNDATASIZE PUSH0 REVERT JUMPDEST POP POP POP POP PUSH1 0x40 MLOAD RETURNDATASIZE PUSH1 0x1F NOT PUSH1 0x1F DUP3 ADD AND DUP3 ADD DUP1 PUSH1 0x40 MSTORE POP DUP2 ADD SWAP1 PUSH2 0x818 SWAP2 SWAP1 PUSH2 0x30ED JUMP JUMPDEST PUSH1 0xA PUSH2 0x824 SWAP2 SWAP1 PUSH2 0x3274 JUMP JUMPDEST PUSH12 0x33B2E3C9FD0803CE8000000 PUSH16 0xFFFFFFFFFFFFFFFFFFFFFFFFFFFFFFFF AND DUP5 PUSH2 0x84E SWAP2 SWAP1 PUSH2 0x32BE JUMP JUMPDEST PUSH2 0x858 SWAP2 SWAP1 PUSH2 0x332C JUMP JUMPDEST SWAP1 POP PUSH2 0x864 PUSH0 DUP3 PUSH2 0x2617 JUMP JUMPDEST PUSH0 PUSH2 0x8A9 PUSH1 0x4 PUSH0 ADD PUSH0 SWAP1 SLOAD SWAP1 PUSH2 0x100 EXP SWAP1 DIV PUSH16 0xFFFFFFFFFFFFFFFFFFFFFFFFFFFFFFFF AND PUSH16 0xFFFFFFFFFFFFFFFFFFFFFFFFFFFFFFFF AND DUP4 PUSH2 0x280A SWAP1 SWAP2 SWAP1 PUSH4 0xFFFFFFFF AND JUMP JUMPDEST SWAP1 POP PUSH0 DUP2 PUSH1 0x7 PUSH0 CALLER PUSH20 0xFFFFFFFFFFFFFFFFFFFFFFFFFFFFFFFFFFFFFFFF AND PUSH20 0xFFFFFFFFFFFFFFFFFFFFFFFFFFFFFFFFFFFFFFFF AND DUP2 MSTORE PUSH1 0x20 ADD SWAP1 DUP2 MSTORE PUSH1 0x20 ADD PUSH0 KECCAK256 SLOAD PUSH2 0x8F5 SWAP2 SWAP1 PUSH2 0x335C JUMP JUMPDEST SWAP1 POP DUP2 PUSH1 0x9 PUSH0 DUP3 DUP3 SLOAD PUSH2 0x908 SWAP2 SWAP1 PUSH2 0x335C JUMP JUMPDEST SWAP3 POP POP DUP2 SWAP1 SSTORE POP DUP2 PUSH1 0xA PUSH0 DUP3 DUP3 SLOAD PUSH2 0x920 SWAP2 SWAP1 PUSH2 0x335C JUMP JUMPDEST SWAP3 POP POP DUP2 SWAP1 SSTORE POP PUSH0 DUP2 LT ISZERO PUSH2 0x96A JUMPI PUSH1 0x40 MLOAD PUSH32 0x8C379A000000000000000000000000000000000000000000000000000000000 DUP2 MSTORE PUSH1 0x4 ADD PUSH2 0x961 SWAP1 PUSH2 0x33E9 JUMP JUMPDEST PUSH1 0x40 MLOAD DUP1 SWAP2 SUB SWAP1 REVERT JUMPDEST DUP1 PUSH1 0x7 PUSH0 CALLER PUSH20 0xFFFFFFFFFFFFFFFFFFFFFFFFFFFFFFFFFFFFFFFF AND PUSH20 0xFFFFFFFFFFFFFFFFFFFFFFFFFFFFFFFFFFFFFFFF AND DUP2 MSTORE PUSH1 0x20 ADD SWAP1 DUP2 MSTORE PUSH1 0x20 ADD PUSH0 KECCAK256 DUP2 SWAP1 SSTORE POP DUP5 PUSH1 0xC PUSH0 DUP3 DUP3 SLOAD PUSH2 0x9BD SWAP2 SWAP1 PUSH2 0x335C JUMP JUMPDEST SWAP3 POP POP DUP2 SWAP1 SSTORE POP PUSH0 DUP1 SLOAD SWAP1 PUSH2 0x100 EXP SWAP1 DIV PUSH20 0xFFFFFFFFFFFFFFFFFFFFFFFFFFFFFFFFFFFFFFFF AND PUSH20 0xFFFFFFFFFFFFFFFFFFFFFFFFFFFFFFFFFFFFFFFF AND PUSH4 0xA9059CBB CALLER DUP8 PUSH1 0x40 MLOAD DUP4 PUSH4 0xFFFFFFFF AND PUSH1 0xE0 SHL DUP2 MSTORE PUSH1 0x4 ADD PUSH2 0xA1E SWAP3 SWAP2 SWAP1 PUSH2 0x3407 JUMP JUMPDEST PUSH1 0x20 PUSH1 0x40 MLOAD DUP1 DUP4 SUB DUP2 PUSH0 DUP8 GAS CALL ISZERO DUP1 ISZERO PUSH2 0xA3A JUMPI RETURNDATASIZE PUSH0 DUP1 RETURNDATACOPY RETURNDATASIZE PUSH0 REVERT JUMPDEST POP POP POP POP PUSH1 0x40 MLOAD RETURNDATASIZE PUSH1 0x1F NOT PUSH1 0x1F DUP3 ADD AND DUP3 ADD DUP1 PUSH1 0x40 MSTORE POP DUP2 ADD SWAP1 PUSH2 0xA5E SWAP2 SWAP1 PUSH2 0x3458 JUMP JUMPDEST POP POP POP POP POP POP JUMP JUMPDEST PUSH0 PUSH2 0xA6F PUSH2 0x240D JUMP JUMPDEST SWAP1 POP PUSH2 0xA7A DUP2 PUSH2 0x25BA JUMP JUMPDEST PUSH0 DUP1 PUSH0 SWAP1 SLOAD SWAP1 PUSH2 0x100 EXP SWAP1 DIV PUSH20 0xFFFFFFFFFFFFFFFFFFFFFFFFFFFFFFFFFFFFFFFF AND PUSH20 0xFFFFFFFFFFFFFFFFFFFFFFFFFFFFFFFFFFFFFFFF AND PUSH4 0x313CE567 PUSH1 0x40 MLOAD DUP2 PUSH4 0xFFFFFFFF AND PUSH1 0xE0 SHL DUP2 MSTORE PUSH1 0x4 ADD PUSH1 0x20 PUSH1 0x40 MLOAD DUP1 DUP4 SUB DUP2 DUP7 GAS STATICCALL ISZERO DUP1 ISZERO PUSH2 0xAE4 JUMPI RETURNDATASIZE PUSH0 DUP1 RETURNDATACOPY RETURNDATASIZE PUSH0 REVERT JUMPDEST POP POP POP POP PUSH1 0x40 MLOAD RETURNDATASIZE PUSH1 0x1F NOT PUSH1 0x1F DUP3 ADD AND DUP3 ADD DUP1 PUSH1 0x40 MSTORE POP DUP2 ADD SWAP1 PUSH2 0xB08 SWAP2 SWAP1 PUSH2 0x30ED JUMP JUMPDEST PUSH1 0xA PUSH2 0xB14 SWAP2 SWAP1 PUSH2 0x3274 JUMP JUMPDEST PUSH12 0x33B2E3C9FD0803CE8000000 PUSH16 0xFFFFFFFFFFFFFFFFFFFFFFFFFFFFFFFF AND DUP5 PUSH2 0xB3E SWAP2 SWAP1 PUSH2 0x32BE JUMP JUMPDEST PUSH2 0xB48 SWAP2 SWAP1 PUSH2 0x332C JUMP JUMPDEST SWAP1 POP PUSH2 0xB54 DUP2 PUSH0 PUSH2 0x2617 JUMP JUMPDEST PUSH0 PUSH2 0xB99 PUSH1 0x4 PUSH0 ADD PUSH0 SWAP1 SLOAD SWAP1 PUSH2 0x100 EXP SWAP1 DIV PUSH16 0xFFFFFFFFFFFFFFFFFFFFFFFFFFFFFFFF AND PUSH16 0xFFFFFFFFFFFFFFFFFFFFFFFFFFFFFFFF AND DUP4 PUSH2 0x280A SWAP1 SWAP2 SWAP1 PUSH4 0xFFFFFFFF AND JUMP JUMPDEST SWAP1 POP PUSH0 DUP2 PUSH1 0x7 PUSH0 CALLER PUSH20 0xFFFFFFFFFFFFFFFFFFFFFFFFFFFFFFFFFFFFFFFF AND PUSH20 0xFFFFFFFFFFFFFFFFFFFFFFFFFFFFFFFFFFFFFFFF AND DUP2 MSTORE PUSH1 0x20 ADD SWAP1 DUP2 MSTORE PUSH1 0x20 ADD PUSH0 KECCAK256 SLOAD PUSH2 0xBE5 SWAP2 SWAP1 PUSH2 0x3483 JUMP JUMPDEST SWAP1 POP DUP2 PUSH1 0x9 PUSH0 DUP3 DUP3 SLOAD PUSH2 0xBF8 SWAP2 SWAP1 PUSH2 0x3483 JUMP JUMPDEST SWAP3 POP POP DUP2 SWAP1 SSTORE POP DUP2 PUSH1 0xA PUSH0 DUP3 DUP3 SLOAD PUSH2 0xC10 SWAP2 SWAP1 PUSH2 0x3483 JUMP JUMPDEST SWAP3 POP POP DUP2 SWAP1 SSTORE POP DUP1 PUSH1 0x7 PUSH0 CALLER PUSH20 0xFFFFFFFFFFFFFFFFFFFFFFFFFFFFFFFFFFFFFFFF AND PUSH20 0xFFFFFFFFFFFFFFFFFFFFFFFFFFFFFFFFFFFFFFFF AND DUP2 MSTORE PUSH1 0x20 ADD SWAP1 DUP2 MSTORE PUSH1 0x20 ADD PUSH0 KECCAK256 DUP2 SWAP1 SSTORE POP DUP5 PUSH1 0xC PUSH0 DUP3 DUP3 SLOAD PUSH2 0xC6A SWAP2 SWAP1 PUSH2 0x3483 JUMP JUMPDEST SWAP3 POP POP DUP2 SWAP1 SSTORE POP PUSH0 DUP1 SLOAD SWAP1 PUSH2 0x100 EXP SWAP1 DIV PUSH20 0xFFFFFFFFFFFFFFFFFFFFFFFFFFFFFFFFFFFFFFFF AND PUSH20 0xFFFFFFFFFFFFFFFFFFFFFFFFFFFFFFFFFFFFFFFF AND PUSH4 0x23B872DD CALLER ADDRESS DUP9 PUSH1 0x40 MLOAD DUP5 PUSH4 0xFFFFFFFF AND PUSH1 0xE0 SHL DUP2 MSTORE PUSH1 0x4 ADD PUSH2 0xCCD SWAP4 SWAP3 SWAP2 SWAP1 PUSH2 0x34B6 JUMP JUMPDEST PUSH1 0x20 PUSH1 0x40 MLOAD DUP1 DUP4 SUB DUP2 PUSH0 DUP8 GAS CALL ISZERO DUP1 ISZERO PUSH2 0xCE9 JUMPI RETURNDATASIZE PUSH0 DUP1 RETURNDATACOPY RETURNDATASIZE PUSH0 REVERT JUMPDEST POP POP POP POP PUSH1 0x40 MLOAD RETURNDATASIZE PUSH1 0x1F NOT PUSH1 0x1F DUP3 ADD AND DUP3 ADD DUP1 PUSH1 0x40 MSTORE POP DUP2 ADD SWAP1 PUSH2 0xD0D SWAP2 SWAP1 PUSH2 0x3458 JUMP JUMPDEST POP POP POP POP POP POP JUMP JUMPDEST PUSH0 PUSH1 0xC SLOAD SWAP1 POP SWAP1 JUMP JUMPDEST PUSH1 0x3 PUSH0 SWAP1 SLOAD SWAP1 PUSH2 0x100 EXP SWAP1 DIV PUSH20 0xFFFFFFFFFFFFFFFFFFFFFFFFFFFFFFFFFFFFFFFF AND DUP2 JUMP JUMPDEST PUSH0 PUSH2 0xD4C PUSH2 0x284E JUMP JUMPDEST SWAP1 POP PUSH0 DUP2 PUSH0 ADD PUSH1 0x8 SWAP1 SLOAD SWAP1 PUSH2 0x100 EXP SWAP1 DIV PUSH1 0xFF AND ISZERO SWAP1 POP PUSH0 DUP3 PUSH0 ADD PUSH0 SWAP1 SLOAD SWAP1 PUSH2 0x100 EXP SWAP1 DIV PUSH8 0xFFFFFFFFFFFFFFFF AND SWAP1 POP PUSH0 DUP1 DUP3 PUSH8 0xFFFFFFFFFFFFFFFF AND EQ DUP1 ISZERO PUSH2 0xD94 JUMPI POP DUP3 JUMPDEST SWAP1 POP PUSH0 PUSH1 0x1 DUP4 PUSH8 0xFFFFFFFFFFFFFFFF AND EQ DUP1 ISZERO PUSH2 0xDC7 JUMPI POP PUSH0 ADDRESS PUSH20 0xFFFFFFFFFFFFFFFFFFFFFFFFFFFFFFFFFFFFFFFF AND EXTCODESIZE EQ JUMPDEST SWAP1 POP DUP2 ISZERO DUP1 ISZERO PUSH2 0xDD5 JUMPI POP DUP1 ISZERO JUMPDEST ISZERO PUSH2 0xE0C JUMPI PUSH1 0x40 MLOAD PUSH32 0xF92EE8A900000000000000000000000000000000000000000000000000000000 DUP2 MSTORE PUSH1 0x4 ADD PUSH1 0x40 MLOAD DUP1 SWAP2 SUB SWAP1 REVERT JUMPDEST PUSH1 0x1 DUP6 PUSH0 ADD PUSH0 PUSH2 0x100 EXP DUP2 SLOAD DUP2 PUSH8 0xFFFFFFFFFFFFFFFF MUL NOT AND SWAP1 DUP4 PUSH8 0xFFFFFFFFFFFFFFFF AND MUL OR SWAP1 SSTORE POP DUP4 ISZERO PUSH2 0xE59 JUMPI PUSH1 0x1 DUP6 PUSH0 ADD PUSH1 0x8 PUSH2 0x100 EXP DUP2 SLOAD DUP2 PUSH1 0xFF MUL NOT AND SWAP1 DUP4 ISZERO ISZERO MUL OR SWAP1 SSTORE POP JUMPDEST DUP7 PUSH0 DUP1 PUSH2 0x100 EXP DUP2 SLOAD DUP2 PUSH20 0xFFFFFFFFFFFFFFFFFFFFFFFFFFFFFFFFFFFFFFFF MUL NOT AND SWAP1 DUP4 PUSH20 0xFFFFFFFFFFFFFFFFFFFFFFFFFFFFFFFFFFFFFFFF AND MUL OR SWAP1 SSTORE POP DUP6 PUSH1 0x4 PUSH1 0x2 ADD PUSH1 0x7 PUSH2 0x100 EXP DUP2 SLOAD DUP2 PUSH20 0xFFFFFFFFFFFFFFFFFFFFFFFFFFFFFFFFFFFFFFFF MUL NOT AND SWAP1 DUP4 PUSH20 0xFFFFFFFFFFFFFFFFFFFFFFFFFFFFFFFFFFFFFFFF AND MUL OR SWAP1 SSTORE POP PUSH12 0x33B2E3C9FD0803CE8000000 PUSH1 0x4 PUSH0 ADD PUSH0 PUSH2 0x100 EXP DUP2 SLOAD DUP2 PUSH16 0xFFFFFFFFFFFFFFFFFFFFFFFFFFFFFFFF MUL NOT AND SWAP1 DUP4 PUSH16 0xFFFFFFFFFFFFFFFFFFFFFFFFFFFFFFFF AND MUL OR SWAP1 SSTORE POP PUSH12 0x33B2E3C9FD0803CE8000000 PUSH1 0x4 PUSH1 0x1 ADD PUSH0 PUSH2 0x100 EXP DUP2 SLOAD DUP2 PUSH16 0xFFFFFFFFFFFFFFFFFFFFFFFFFFFFFFFF MUL NOT AND SWAP1 DUP4 PUSH16 0xFFFFFFFFFFFFFFFFFFFFFFFFFFFFFFFF AND MUL OR SWAP1 SSTORE POP CALLER PUSH1 0xD PUSH0 PUSH2 0x100 EXP DUP2 SLOAD DUP2 PUSH20 0xFFFFFFFFFFFFFFFFFFFFFFFFFFFFFFFFFFFFFFFF MUL NOT AND SWAP1 DUP4 PUSH20 0xFFFFFFFFFFFFFFFFFFFFFFFFFFFFFFFFFFFFFFFF AND MUL OR SWAP1 SSTORE POP DUP4 ISZERO PUSH2 0x1003 JUMPI PUSH0 DUP6 PUSH0 ADD PUSH1 0x8 PUSH2 0x100 EXP DUP2 SLOAD DUP2 PUSH1 0xFF MUL NOT AND SWAP1 DUP4 ISZERO ISZERO MUL OR SWAP1 SSTORE POP PUSH32 0xC7F505B2F371AE2175EE4913F4499E1F2633A7B5936321EED1CDAEB6115181D2 PUSH1 0x1 PUSH1 0x40 MLOAD PUSH2 0xFFA SWAP2 SWAP1 PUSH2 0x3537 JUMP JUMPDEST PUSH1 0x40 MLOAD DUP1 SWAP2 SUB SWAP1 LOG1 JUMPDEST POP POP POP POP POP POP POP JUMP JUMPDEST CALLER PUSH20 0xFFFFFFFFFFFFFFFFFFFFFFFFFFFFFFFFFFFFFFFF AND PUSH1 0x3 PUSH0 SWAP1 SLOAD SWAP1 PUSH2 0x100 EXP SWAP1 DIV PUSH20 0xFFFFFFFFFFFFFFFFFFFFFFFFFFFFFFFFFFFFFFFF AND PUSH20 0xFFFFFFFFFFFFFFFFFFFFFFFFFFFFFFFFFFFFFFFF AND EQ PUSH2 0x109B JUMPI PUSH1 0x40 MLOAD PUSH32 0x8C379A000000000000000000000000000000000000000000000000000000000 DUP2 MSTORE PUSH1 0x4 ADD PUSH2 0x1092 SWAP1 PUSH2 0x359A JUMP JUMPDEST PUSH1 0x40 MLOAD DUP1 SWAP2 SUB SWAP1 REVERT JUMPDEST PUSH0 PUSH2 0x10A4 PUSH2 0x240D JUMP JUMPDEST SWAP1 POP PUSH2 0x10AF DUP2 PUSH2 0x25BA JUMP JUMPDEST PUSH0 DUP1 PUSH0 SWAP1 SLOAD SWAP1 PUSH2 0x100 EXP SWAP1 DIV PUSH20 0xFFFFFFFFFFFFFFFFFFFFFFFFFFFFFFFFFFFFFFFF AND PUSH20 0xFFFFFFFFFFFFFFFFFFFFFFFFFFFFFFFFFFFFFFFF AND PUSH4 0x313CE567 PUSH1 0x40 MLOAD DUP2 PUSH4 0xFFFFFFFF AND PUSH1 0xE0 SHL DUP2 MSTORE PUSH1 0x4 ADD PUSH1 0x20 PUSH1 0x40 MLOAD DUP1 DUP4 SUB DUP2 DUP7 GAS STATICCALL ISZERO DUP1 ISZERO PUSH2 0x1119 JUMPI RETURNDATASIZE PUSH0 DUP1 RETURNDATACOPY RETURNDATASIZE PUSH0 REVERT JUMPDEST POP POP POP POP PUSH1 0x40 MLOAD RETURNDATASIZE PUSH1 0x1F NOT PUSH1 0x1F DUP3 ADD AND DUP3 ADD DUP1 PUSH1 0x40 MSTORE POP DUP2 ADD SWAP1 PUSH2 0x113D SWAP2 SWAP1 PUSH2 0x30ED JUMP JUMPDEST PUSH1 0xA PUSH2 0x1149 SWAP2 SWAP1 PUSH2 0x3274 JUMP JUMPDEST PUSH12 0x33B2E3C9FD0803CE8000000 PUSH16 0xFFFFFFFFFFFFFFFFFFFFFFFFFFFFFFFF AND DUP5 PUSH2 0x1173 SWAP2 SWAP1 PUSH2 0x32BE JUMP JUMPDEST PUSH2 0x117D SWAP2 SWAP1 PUSH2 0x332C JUMP JUMPDEST SWAP1 POP PUSH0 PUSH2 0x1199 DUP4 PUSH1 0x40 ADD MLOAD PUSH1 0xA SLOAD PUSH2 0x2572 SWAP1 SWAP2 SWAP1 PUSH4 0xFFFFFFFF AND JUMP JUMPDEST SWAP1 POP PUSH0 PUSH2 0x11D0 DUP3 PUSH2 0x11C2 DUP7 PUSH1 0x40 ADD MLOAD DUP7 DUP7 PUSH2 0x11B4 SWAP2 SWAP1 PUSH2 0x3483 JUMP JUMPDEST PUSH2 0x2572 SWAP1 SWAP2 SWAP1 PUSH4 0xFFFFFFFF AND JUMP JUMPDEST PUSH2 0x280A SWAP1 SWAP2 SWAP1 PUSH4 0xFFFFFFFF AND JUMP JUMPDEST SWAP1 POP PUSH2 0x11DB DUP2 PUSH2 0x2875 JUMP JUMPDEST PUSH1 0x4 PUSH0 ADD PUSH0 PUSH2 0x100 EXP DUP2 SLOAD DUP2 PUSH16 0xFFFFFFFFFFFFFFFFFFFFFFFFFFFFFFFF MUL NOT AND SWAP1 DUP4 PUSH16 0xFFFFFFFFFFFFFFFFFFFFFFFFFFFFFFFF AND MUL OR SWAP1 SSTORE POP DUP5 PUSH1 0xC PUSH0 DUP3 DUP3 SLOAD PUSH2 0x1225 SWAP2 SWAP1 PUSH2 0x3483 JUMP JUMPDEST SWAP3 POP POP DUP2 SWAP1 SSTORE POP PUSH0 DUP1 SLOAD SWAP1 PUSH2 0x100 EXP SWAP1 DIV PUSH20 0xFFFFFFFFFFFFFFFFFFFFFFFFFFFFFFFFFFFFFFFF AND PUSH20 0xFFFFFFFFFFFFFFFFFFFFFFFFFFFFFFFFFFFFFFFF AND PUSH4 0x23B872DD CALLER ADDRESS DUP9 PUSH1 0x40 MLOAD DUP5 PUSH4 0xFFFFFFFF AND PUSH1 0xE0 SHL DUP2 MSTORE PUSH1 0x4 ADD PUSH2 0x1288 SWAP4 SWAP3 SWAP2 SWAP1 PUSH2 0x34B6 JUMP JUMPDEST PUSH1 0x20 PUSH1 0x40 MLOAD DUP1 DUP4 SUB DUP2 PUSH0 DUP8 GAS CALL ISZERO DUP1 ISZERO PUSH2 0x12A4 JUMPI RETURNDATASIZE PUSH0 DUP1 RETURNDATACOPY RETURNDATASIZE PUSH0 REVERT JUMPDEST POP POP POP POP PUSH1 0x40 MLOAD RETURNDATASIZE PUSH1 0x1F NOT PUSH1 0x1F DUP3 ADD AND DUP3 ADD DUP1 PUSH1 0x40 MSTORE POP DUP2 ADD SWAP1 PUSH2 0x12C8 SWAP2 SWAP1 PUSH2 0x3458 JUMP JUMPDEST POP POP POP POP POP POP JUMP JUMPDEST CALLER PUSH20 0xFFFFFFFFFFFFFFFFFFFFFFFFFFFFFFFFFFFFFFFF AND PUSH1 0xD PUSH0 SWAP1 SLOAD SWAP1 PUSH2 0x100 EXP SWAP1 DIV PUSH20 0xFFFFFFFFFFFFFFFFFFFFFFFFFFFFFFFFFFFFFFFF AND PUSH20 0xFFFFFFFFFFFFFFFFFFFFFFFFFFFFFFFFFFFFFFFF AND EQ PUSH2 0x135F JUMPI PUSH1 0x40 MLOAD PUSH32 0x8C379A000000000000000000000000000000000000000000000000000000000 DUP2 MSTORE PUSH1 0x4 ADD PUSH2 0x1356 SWAP1 PUSH2 0x3602 JUMP JUMPDEST PUSH1 0x40 MLOAD DUP1 SWAP2 SUB SWAP1 REVERT JUMPDEST DUP1 PUSH1 0x3 PUSH0 PUSH2 0x100 EXP DUP2 SLOAD DUP2 PUSH20 0xFFFFFFFFFFFFFFFFFFFFFFFFFFFFFFFFFFFFFFFF MUL NOT AND SWAP1 DUP4 PUSH20 0xFFFFFFFFFFFFFFFFFFFFFFFFFFFFFFFFFFFFFFFF AND MUL OR SWAP1 SSTORE POP POP JUMP JUMPDEST PUSH1 0x1 DUP2 DUP2 SLOAD DUP2 LT PUSH2 0x13B1 JUMPI PUSH0 DUP1 REVERT JUMPDEST SWAP1 PUSH0 MSTORE PUSH1 0x20 PUSH0 KECCAK256 ADD PUSH0 SWAP2 POP SLOAD SWAP1 PUSH2 0x100 EXP SWAP1 DIV PUSH20 0xFFFFFFFFFFFFFFFFFFFFFFFFFFFFFFFFFFFFFFFF AND DUP2 JUMP JUMPDEST PUSH0 DUP1 SLOAD SWAP1 PUSH2 0x100 EXP SWAP1 DIV PUSH20 0xFFFFFFFFFFFFFFFFFFFFFFFFFFFFFFFFFFFFFFFF AND DUP2 JUMP JUMPDEST PUSH0 DUP1 PUSH2 0x140A PUSH2 0x240D JUMP JUMPDEST SWAP1 POP PUSH0 PUSH2 0x141F DUP3 PUSH1 0xC0 ADD MLOAD DUP4 PUSH1 0xE0 ADD MLOAD PUSH2 0x255E JUMP JUMPDEST SWAP1 POP PUSH2 0x1466 PUSH1 0x4 PUSH1 0x1 ADD PUSH0 SWAP1 SLOAD SWAP1 PUSH2 0x100 EXP SWAP1 DIV PUSH16 0xFFFFFFFFFFFFFFFFFFFFFFFFFFFFFFFF AND PUSH16 0xFFFFFFFFFFFFFFFFFFFFFFFFFFFFFFFF AND DUP3 PUSH2 0x2572 SWAP1 SWAP2 SWAP1 PUSH4 0xFFFFFFFF AND JUMP JUMPDEST DUP3 PUSH1 0x80 ADD DUP2 DUP2 MSTORE POP POP PUSH12 0x33B2E3C9FD0803CE8000000 PUSH16 0xFFFFFFFFFFFFFFFFFFFFFFFFFFFFFFFF AND PUSH0 DUP1 SLOAD SWAP1 PUSH2 0x100 EXP SWAP1 DIV PUSH20 0xFFFFFFFFFFFFFFFFFFFFFFFFFFFFFFFFFFFFFFFF AND PUSH20 0xFFFFFFFFFFFFFFFFFFFFFFFFFFFFFFFFFFFFFFFF AND PUSH4 0x313CE567 PUSH1 0x40 MLOAD DUP2 PUSH4 0xFFFFFFFF AND PUSH1 0xE0 SHL DUP2 MSTORE PUSH1 0x4 ADD PUSH1 0x20 PUSH1 0x40 MLOAD DUP1 DUP4 SUB DUP2 DUP7 GAS STATICCALL ISZERO DUP1 ISZERO PUSH2 0x14F6 JUMPI RETURNDATASIZE PUSH0 DUP1 RETURNDATACOPY RETURNDATASIZE PUSH0 REVERT JUMPDEST POP POP POP POP PUSH1 0x40 MLOAD RETURNDATASIZE PUSH1 0x1F NOT PUSH1 0x1F DUP3 ADD AND DUP3 ADD DUP1 PUSH1 0x40 MSTORE POP DUP2 ADD SWAP1 PUSH2 0x151A SWAP2 SWAP1 PUSH2 0x30ED JUMP JUMPDEST PUSH1 0xA PUSH2 0x1526 SWAP2 SWAP1 PUSH2 0x3274 JUMP JUMPDEST PUSH2 0x154E DUP5 PUSH1 0x80 ADD MLOAD PUSH1 0x8 PUSH0 DUP10 DUP2 MSTORE PUSH1 0x20 ADD SWAP1 DUP2 MSTORE PUSH1 0x20 ADD PUSH0 KECCAK256 SLOAD PUSH2 0x2572 SWAP1 SWAP2 SWAP1 PUSH4 0xFFFFFFFF AND JUMP JUMPDEST PUSH2 0x1558 SWAP2 SWAP1 PUSH2 0x32BE JUMP JUMPDEST PUSH2 0x1562 SWAP2 SWAP1 PUSH2 0x332C JUMP JUMPDEST SWAP3 POP POP POP SWAP2 SWAP1 POP JUMP JUMPDEST PUSH0 PUSH2 0x15F5 PUSH2 0x15F0 PUSH1 0x4 PUSH0 ADD PUSH0 SWAP1 SLOAD SWAP1 PUSH2 0x100 EXP SWAP1 DIV PUSH16 0xFFFFFFFFFFFFFFFFFFFFFFFFFFFFFFFF AND PUSH16 0xFFFFFFFFFFFFFFFFFFFFFFFFFFFFFFFF AND PUSH1 0x7 PUSH0 CALLER PUSH20 0xFFFFFFFFFFFFFFFFFFFFFFFFFFFFFFFFFFFFFFFF AND PUSH20 0xFFFFFFFFFFFFFFFFFFFFFFFFFFFFFFFFFFFFFFFF AND DUP2 MSTORE PUSH1 0x20 ADD SWAP1 DUP2 MSTORE PUSH1 0x20 ADD PUSH0 KECCAK256 SLOAD PUSH2 0x2572 SWAP1 SWAP2 SWAP1 PUSH4 0xFFFFFFFF AND JUMP JUMPDEST PUSH2 0x28D8 JUMP JUMPDEST SWAP1 POP SWAP1 JUMP JUMPDEST PUSH1 0xC SLOAD DUP2 JUMP JUMPDEST PUSH0 DUP1 PUSH2 0x160A PUSH2 0x240D JUMP JUMPDEST SWAP1 POP PUSH0 PUSH2 0x161F DUP3 PUSH1 0xA0 ADD MLOAD DUP4 PUSH1 0xE0 ADD MLOAD PUSH2 0x2904 JUMP JUMPDEST SWAP1 POP PUSH2 0x1638 DUP3 PUSH1 0x40 ADD MLOAD DUP3 PUSH2 0x2572 SWAP1 SWAP2 SWAP1 PUSH4 0xFFFFFFFF AND JUMP JUMPDEST DUP3 PUSH1 0x40 ADD DUP2 DUP2 MSTORE POP POP PUSH12 0x33B2E3C9FD0803CE8000000 PUSH16 0xFFFFFFFFFFFFFFFFFFFFFFFFFFFFFFFF AND PUSH0 DUP1 SLOAD SWAP1 PUSH2 0x100 EXP SWAP1 DIV PUSH20 0xFFFFFFFFFFFFFFFFFFFFFFFFFFFFFFFFFFFFFFFF AND PUSH20 0xFFFFFFFFFFFFFFFFFFFFFFFFFFFFFFFFFFFFFFFF AND PUSH4 0x313CE567 PUSH1 0x40 MLOAD DUP2 PUSH4 0xFFFFFFFF AND PUSH1 0xE0 SHL DUP2 MSTORE PUSH1 0x4 ADD PUSH1 0x20 PUSH1 0x40 MLOAD DUP1 DUP4 SUB DUP2 DUP7 GAS STATICCALL ISZERO DUP1 ISZERO PUSH2 0x16C8 JUMPI RETURNDATASIZE PUSH0 DUP1 RETURNDATACOPY RETURNDATASIZE PUSH0 REVERT JUMPDEST POP POP POP POP PUSH1 0x40 MLOAD RETURNDATASIZE PUSH1 0x1F NOT PUSH1 0x1F DUP3 ADD AND DUP3 ADD DUP1 PUSH1 0x40 MSTORE POP DUP2 ADD SWAP1 PUSH2 0x16EC SWAP2 SWAP1 PUSH2 0x30ED JUMP JUMPDEST PUSH1 0xA PUSH2 0x16F8 SWAP2 SWAP1 PUSH2 0x3274 JUMP JUMPDEST PUSH2 0x1711 DUP5 PUSH1 0x40 ADD MLOAD PUSH1 0x9 SLOAD PUSH2 0x2572 SWAP1 SWAP2 SWAP1 PUSH4 0xFFFFFFFF AND JUMP JUMPDEST PUSH2 0x171B SWAP2 SWAP1 PUSH2 0x32BE JUMP JUMPDEST PUSH2 0x1725 SWAP2 SWAP1 PUSH2 0x332C JUMP JUMPDEST SWAP3 POP POP POP SWAP1 JUMP JUMPDEST PUSH1 0x4 DUP1 PUSH0 ADD PUSH0 SWAP1 SLOAD SWAP1 PUSH2 0x100 EXP SWAP1 DIV PUSH16 0xFFFFFFFFFFFFFFFFFFFFFFFFFFFFFFFF AND SWAP1 DUP1 PUSH0 ADD PUSH1 0x10 SWAP1 SLOAD SWAP1 PUSH2 0x100 EXP SWAP1 DIV PUSH16 0xFFFFFFFFFFFFFFFFFFFFFFFFFFFFFFFF AND SWAP1 DUP1 PUSH1 0x1 ADD PUSH0 SWAP1 SLOAD SWAP1 PUSH2 0x100 EXP SWAP1 DIV PUSH16 0xFFFFFFFFFFFFFFFFFFFFFFFFFFFFFFFF AND SWAP1 DUP1 PUSH1 0x1 ADD PUSH1 0x10 SWAP1 SLOAD SWAP1 PUSH2 0x100 EXP SWAP1 DIV PUSH16 0xFFFFFFFFFFFFFFFFFFFFFFFFFFFFFFFF AND SWAP1 DUP1 PUSH1 0x2 ADD PUSH0 SWAP1 SLOAD SWAP1 PUSH2 0x100 EXP SWAP1 DIV PUSH5 0xFFFFFFFFFF AND SWAP1 DUP1 PUSH1 0x2 ADD PUSH1 0x5 SWAP1 SLOAD SWAP1 PUSH2 0x100 EXP SWAP1 DIV PUSH2 0xFFFF AND SWAP1 DUP1 PUSH1 0x2 ADD PUSH1 0x7 SWAP1 SLOAD SWAP1 PUSH2 0x100 EXP SWAP1 DIV PUSH20 0xFFFFFFFFFFFFFFFFFFFFFFFFFFFFFFFFFFFFFFFF AND SWAP1 POP DUP8 JUMP JUMPDEST CALLER PUSH20 0xFFFFFFFFFFFFFFFFFFFFFFFFFFFFFFFFFFFFFFFF AND PUSH1 0x3 PUSH0 SWAP1 SLOAD SWAP1 PUSH2 0x100 EXP SWAP1 DIV PUSH20 0xFFFFFFFFFFFFFFFFFFFFFFFFFFFFFFFFFFFFFFFF AND PUSH20 0xFFFFFFFFFFFFFFFFFFFFFFFFFFFFFFFFFFFFFFFF AND EQ PUSH2 0x1895 JUMPI PUSH1 0x40 MLOAD PUSH32 0x8C379A000000000000000000000000000000000000000000000000000000000 DUP2 MSTORE PUSH1 0x4 ADD PUSH2 0x188C SWAP1 PUSH2 0x359A JUMP JUMPDEST PUSH1 0x40 MLOAD DUP1 SWAP2 SUB SWAP1 REVERT JUMPDEST PUSH0 PUSH2 0x189E PUSH2 0x240D JUMP JUMPDEST SWAP1 POP PUSH2 0x18A9 DUP2 PUSH2 0x25BA JUMP JUMPDEST PUSH0 DUP1 PUSH0 SWAP1 SLOAD SWAP1 PUSH2 0x100 EXP SWAP1 DIV PUSH20 0xFFFFFFFFFFFFFFFFFFFFFFFFFFFFFFFFFFFFFFFF AND PUSH20 0xFFFFFFFFFFFFFFFFFFFFFFFFFFFFFFFFFFFFFFFF AND PUSH4 0x313CE567 PUSH1 0x40 MLOAD DUP2 PUSH4 0xFFFFFFFF AND PUSH1 0xE0 SHL DUP2 MSTORE PUSH1 0x4 ADD PUSH1 0x20 PUSH1 0x40 MLOAD DUP1 DUP4 SUB DUP2 DUP7 GAS STATICCALL ISZERO DUP1 ISZERO PUSH2 0x1913 JUMPI RETURNDATASIZE PUSH0 DUP1 RETURNDATACOPY RETURNDATASIZE PUSH0 REVERT JUMPDEST POP POP POP POP PUSH1 0x40 MLOAD RETURNDATASIZE PUSH1 0x1F NOT PUSH1 0x1F DUP3 ADD AND DUP3 ADD DUP1 PUSH1 0x40 MSTORE POP DUP2 ADD SWAP1 PUSH2 0x1937 SWAP2 SWAP1 PUSH2 0x30ED JUMP JUMPDEST PUSH1 0xA PUSH2 0x1943 SWAP2 SWAP1 PUSH2 0x3274 JUMP JUMPDEST PUSH12 0x33B2E3C9FD0803CE8000000 PUSH16 0xFFFFFFFFFFFFFFFFFFFFFFFFFFFFFFFF AND DUP6 PUSH2 0x196D SWAP2 SWAP1 PUSH2 0x32BE JUMP JUMPDEST PUSH2 0x1977 SWAP2 SWAP1 PUSH2 0x332C JUMP JUMPDEST SWAP1 POP PUSH0 PUSH2 0x1991 DUP4 PUSH1 0x80 ADD MLOAD DUP4 PUSH2 0x280A SWAP1 SWAP2 SWAP1 PUSH4 0xFFFFFFFF AND JUMP JUMPDEST SWAP1 POP PUSH0 DUP2 PUSH1 0x8 PUSH0 DUP10 DUP2 MSTORE PUSH1 0x20 ADD SWAP1 DUP2 MSTORE PUSH1 0x20 ADD PUSH0 KECCAK256 SLOAD PUSH2 0x19B1 SWAP2 SWAP1 PUSH2 0x3483 JUMP JUMPDEST SWAP1 POP DUP2 PUSH1 0xB PUSH0 DUP3 DUP3 SLOAD PUSH2 0x19C4 SWAP2 SWAP1 PUSH2 0x3483 JUMP JUMPDEST SWAP3 POP POP DUP2 SWAP1 SSTORE POP PUSH1 0xC SLOAD DUP7 GT ISZERO PUSH2 0x1A10 JUMPI PUSH1 0x40 MLOAD PUSH32 0x8C379A000000000000000000000000000000000000000000000000000000000 DUP2 MSTORE PUSH1 0x4 ADD PUSH2 0x1A07 SWAP1 PUSH2 0x366A JUMP JUMPDEST PUSH1 0x40 MLOAD DUP1 SWAP2 SUB SWAP1 REVERT JUMPDEST PUSH0 PUSH1 0x2 PUSH0 DUP10 DUP2 MSTORE PUSH1 0x20 ADD SWAP1 DUP2 MSTORE PUSH1 0x20 ADD PUSH0 KECCAK256 SWAP1 POP DUP2 PUSH1 0x8 PUSH0 DUP11 DUP2 MSTORE PUSH1 0x20 ADD SWAP1 DUP2 MSTORE PUSH1 0x20 ADD PUSH0 KECCAK256 DUP2 SWAP1 SSTORE POP DUP8 DUP2 PUSH0 ADD DUP2 SWAP1 SSTORE POP DUP7 DUP2 PUSH1 0x2 ADD DUP2 SWAP1 SSTORE POP DUP6 DUP2 PUSH1 0x3 ADD PUSH1 0x2 PUSH2 0x100 EXP DUP2 SLOAD DUP2 PUSH20 0xFFFFFFFFFFFFFFFFFFFFFFFFFFFFFFFFFFFFFFFF MUL NOT AND SWAP1 DUP4 PUSH20 0xFFFFFFFFFFFFFFFFFFFFFFFFFFFFFFFFFFFFFFFF AND MUL OR SWAP1 SSTORE POP PUSH2 0x1A98 PUSH0 DUP6 PUSH2 0x2617 JUMP JUMPDEST PUSH2 0x1AAF DUP6 PUSH1 0x40 ADD MLOAD DUP6 PUSH2 0x280A SWAP1 SWAP2 SWAP1 PUSH4 0xFFFFFFFF AND JUMP JUMPDEST PUSH1 0xA PUSH0 DUP3 DUP3 SLOAD PUSH2 0x1ABF SWAP2 SWAP1 PUSH2 0x335C JUMP JUMPDEST SWAP3 POP POP DUP2 SWAP1 SSTORE POP DUP7 PUSH1 0xC PUSH0 DUP3 DUP3 SLOAD PUSH2 0x1AD7 SWAP2 SWAP1 PUSH2 0x335C JUMP JUMPDEST SWAP3 POP POP DUP2 SWAP1 SSTORE POP POP POP POP POP POP POP POP POP JUMP JUMPDEST CALLER PUSH20 0xFFFFFFFFFFFFFFFFFFFFFFFFFFFFFFFFFFFFFFFF AND PUSH1 0x3 PUSH0 SWAP1 SLOAD SWAP1 PUSH2 0x100 EXP SWAP1 DIV PUSH20 0xFFFFFFFFFFFFFFFFFFFFFFFFFFFFFFFFFFFFFFFF AND PUSH20 0xFFFFFFFFFFFFFFFFFFFFFFFFFFFFFFFFFFFFFFFF AND EQ PUSH2 0x1B77 JUMPI PUSH1 0x40 MLOAD PUSH32 0x8C379A000000000000000000000000000000000000000000000000000000000 DUP2 MSTORE PUSH1 0x4 ADD PUSH2 0x1B6E SWAP1 PUSH2 0x359A JUMP JUMPDEST PUSH1 0x40 MLOAD DUP1 SWAP2 SUB SWAP1 REVERT JUMPDEST PUSH0 PUSH2 0x1B80 PUSH2 0x240D JUMP JUMPDEST SWAP1 POP PUSH2 0x1B8B DUP2 PUSH2 0x25BA JUMP JUMPDEST PUSH0 DUP1 PUSH0 SWAP1 SLOAD SWAP1 PUSH2 0x100 EXP SWAP1 DIV PUSH20 0xFFFFFFFFFFFFFFFFFFFFFFFFFFFFFFFFFFFFFFFF AND PUSH20 0xFFFFFFFFFFFFFFFFFFFFFFFFFFFFFFFFFFFFFFFF AND PUSH4 0x313CE567 PUSH1 0x40 MLOAD DUP2 PUSH4 0xFFFFFFFF AND PUSH1 0xE0 SHL DUP2 MSTORE PUSH1 0x4 ADD PUSH1 0x20 PUSH1 0x40 MLOAD DUP1 DUP4 SUB DUP2 DUP7 GAS STATICCALL ISZERO DUP1 ISZERO PUSH2 0x1BF5 JUMPI RETURNDATASIZE PUSH0 DUP1 RETURNDATACOPY RETURNDATASIZE PUSH0 REVERT JUMPDEST POP POP POP POP PUSH1 0x40 MLOAD RETURNDATASIZE PUSH1 0x1F NOT PUSH1 0x1F DUP3 ADD AND DUP3 ADD DUP1 PUSH1 0x40 MSTORE POP DUP2 ADD SWAP1 PUSH2 0x1C19 SWAP2 SWAP1 PUSH2 0x30ED JUMP JUMPDEST PUSH1 0xA PUSH2 0x1C25 SWAP2 SWAP1 PUSH2 0x3274 JUMP JUMPDEST PUSH12 0x33B2E3C9FD0803CE8000000 PUSH16 0xFFFFFFFFFFFFFFFFFFFFFFFFFFFFFFFF AND DUP5 PUSH2 0x1C4F SWAP2 SWAP1 PUSH2 0x32BE JUMP JUMPDEST PUSH2 0x1C59 SWAP2 SWAP1 PUSH2 0x332C JUMP JUMPDEST SWAP1 POP PUSH0 PUSH2 0x1CA1 PUSH1 0x4 PUSH1 0x1 ADD PUSH0 SWAP1 SLOAD SWAP1 PUSH2 0x100 EXP SWAP1 DIV PUSH16 0xFFFFFFFFFFFFFFFFFFFFFFFFFFFFFFFF AND PUSH16 0xFFFFFFFFFFFFFFFFFFFFFFFFFFFFFFFF AND DUP4 PUSH2 0x280A SWAP1 SWAP2 SWAP1 PUSH4 0xFFFFFFFF AND JUMP JUMPDEST SWAP1 POP DUP1 PUSH1 0x8 PUSH0 DUP8 DUP2 MSTORE PUSH1 0x20 ADD SWAP1 DUP2 MSTORE PUSH1 0x20 ADD PUSH0 KECCAK256 SLOAD LT ISZERO PUSH2 0x1F39 JUMPI PUSH1 0x8 PUSH0 DUP7 DUP2 MSTORE PUSH1 0x20 ADD SWAP1 DUP2 MSTORE PUSH1 0x20 ADD PUSH0 KECCAK256 SLOAD PUSH1 0xB PUSH0 DUP3 DUP3 SLOAD PUSH2 0x1CDE SWAP2 SWAP1 PUSH2 0x335C JUMP JUMPDEST SWAP3 POP POP DUP2 SWAP1 SSTORE POP PUSH0 PUSH2 0x1D3C PUSH1 0x4 PUSH1 0x1 ADD PUSH0 SWAP1 SLOAD SWAP1 PUSH2 0x100 EXP SWAP1 DIV PUSH16 0xFFFFFFFFFFFFFFFFFFFFFFFFFFFFFFFF AND PUSH16 0xFFFFFFFFFFFFFFFFFFFFFFFFFFFFFFFF AND PUSH1 0x8 PUSH0 DUP10 DUP2 MSTORE PUSH1 0x20 ADD SWAP1 DUP2 MSTORE PUSH1 0x20 ADD PUSH0 KECCAK256 SLOAD PUSH2 0x2572 SWAP1 SWAP2 SWAP1 PUSH4 0xFFFFFFFF AND JUMP JUMPDEST SWAP1 POP PUSH0 PUSH12 0x33B2E3C9FD0803CE8000000 PUSH16 0xFFFFFFFFFFFFFFFFFFFFFFFFFFFFFFFF AND PUSH0 DUP1 SLOAD SWAP1 PUSH2 0x100 EXP SWAP1 DIV PUSH20 0xFFFFFFFFFFFFFFFFFFFFFFFFFFFFFFFFFFFFFFFF AND PUSH20 0xFFFFFFFFFFFFFFFFFFFFFFFFFFFFFFFFFFFFFFFF AND PUSH4 0x313CE567 PUSH1 0x40 MLOAD DUP2 PUSH4 0xFFFFFFFF AND PUSH1 0xE0 SHL DUP2 MSTORE PUSH1 0x4 ADD PUSH1 0x20 PUSH1 0x40 MLOAD DUP1 DUP4 SUB DUP2 DUP7 GAS STATICCALL ISZERO DUP1 ISZERO PUSH2 0x1DC6 JUMPI RETURNDATASIZE PUSH0 DUP1 RETURNDATACOPY RETURNDATASIZE PUSH0 REVERT JUMPDEST POP POP POP POP PUSH1 0x40 MLOAD RETURNDATASIZE PUSH1 0x1F NOT PUSH1 0x1F DUP3 ADD AND DUP3 ADD DUP1 PUSH1 0x40 MSTORE POP DUP2 ADD SWAP1 PUSH2 0x1DEA SWAP2 SWAP1 PUSH2 0x30ED JUMP JUMPDEST PUSH1 0xA PUSH2 0x1DF6 SWAP2 SWAP1 PUSH2 0x3274 JUMP JUMPDEST DUP4 PUSH2 0x1E01 SWAP2 SWAP1 PUSH2 0x32BE JUMP JUMPDEST PUSH2 0x1E0B SWAP2 SWAP1 PUSH2 0x332C JUMP JUMPDEST SWAP1 POP PUSH0 PUSH1 0x8 PUSH0 DUP10 DUP2 MSTORE PUSH1 0x20 ADD SWAP1 DUP2 MSTORE PUSH1 0x20 ADD PUSH0 KECCAK256 DUP2 SWAP1 SSTORE POP PUSH2 0x1E3E PUSH1 0x8 PUSH0 DUP10 DUP2 MSTORE PUSH1 0x20 ADD SWAP1 DUP2 MSTORE PUSH1 0x20 ADD PUSH0 KECCAK256 SLOAD PUSH0 PUSH2 0x2617 JUMP JUMPDEST PUSH2 0x1E66 DUP6 PUSH1 0x40 ADD MLOAD PUSH1 0x8 PUSH0 DUP11 DUP2 MSTORE PUSH1 0x20 ADD SWAP1 DUP2 MSTORE PUSH1 0x20 ADD PUSH0 KECCAK256 SLOAD PUSH2 0x280A SWAP1 SWAP2 SWAP1 PUSH4 0xFFFFFFFF AND JUMP JUMPDEST PUSH1 0xA PUSH0 DUP3 DUP3 SLOAD PUSH2 0x1E76 SWAP2 SWAP1 PUSH2 0x3483 JUMP JUMPDEST SWAP3 POP POP DUP2 SWAP1 SSTORE POP DUP1 PUSH1 0xC PUSH0 DUP3 DUP3 SLOAD PUSH2 0x1E8E SWAP2 SWAP1 PUSH2 0x3483 JUMP JUMPDEST SWAP3 POP POP DUP2 SWAP1 SSTORE POP PUSH0 DUP1 SLOAD SWAP1 PUSH2 0x100 EXP SWAP1 DIV PUSH20 0xFFFFFFFFFFFFFFFFFFFFFFFFFFFFFFFFFFFFFFFF AND PUSH20 0xFFFFFFFFFFFFFFFFFFFFFFFFFFFFFFFFFFFFFFFF AND PUSH4 0x23B872DD CALLER ADDRESS DUP5 PUSH1 0x40 MLOAD DUP5 PUSH4 0xFFFFFFFF AND PUSH1 0xE0 SHL DUP2 MSTORE PUSH1 0x4 ADD PUSH2 0x1EF1 SWAP4 SWAP3 SWAP2 SWAP1 PUSH2 0x34B6 JUMP JUMPDEST PUSH1 0x20 PUSH1 0x40 MLOAD DUP1 DUP4 SUB DUP2 PUSH0 DUP8 GAS CALL ISZERO DUP1 ISZERO PUSH2 0x1F0D JUMPI RETURNDATASIZE PUSH0 DUP1 RETURNDATACOPY RETURNDATASIZE PUSH0 REVERT JUMPDEST POP POP POP POP PUSH1 0x40 MLOAD RETURNDATASIZE PUSH1 0x1F NOT PUSH1 0x1F DUP3 ADD AND DUP3 ADD DUP1 PUSH1 0x40 MSTORE POP DUP2 ADD SWAP1 PUSH2 0x1F31 SWAP2 SWAP1 PUSH2 0x3458 JUMP JUMPDEST POP POP POP PUSH2 0x2076 JUMP JUMPDEST PUSH0 DUP2 PUSH1 0x8 PUSH0 DUP9 DUP2 MSTORE PUSH1 0x20 ADD SWAP1 DUP2 MSTORE PUSH1 0x20 ADD PUSH0 KECCAK256 SLOAD PUSH2 0x1F57 SWAP2 SWAP1 PUSH2 0x335C JUMP JUMPDEST SWAP1 POP DUP2 PUSH1 0xB PUSH0 DUP3 DUP3 SLOAD PUSH2 0x1F6A SWAP2 SWAP1 PUSH2 0x335C JUMP JUMPDEST SWAP3 POP POP DUP2 SWAP1 SSTORE POP DUP1 PUSH1 0x8 PUSH0 DUP9 DUP2 MSTORE PUSH1 0x20 ADD SWAP1 DUP2 MSTORE PUSH1 0x20 ADD PUSH0 KECCAK256 DUP2 SWAP1 SSTORE POP PUSH2 0x1F91 DUP4 PUSH0 PUSH2 0x2617 JUMP JUMPDEST PUSH2 0x1FA8 DUP5 PUSH1 0x40 ADD MLOAD DUP5 PUSH2 0x280A SWAP1 SWAP2 SWAP1 PUSH4 0xFFFFFFFF AND JUMP JUMPDEST PUSH1 0xA PUSH0 DUP3 DUP3 SLOAD PUSH2 0x1FB8 SWAP2 SWAP1 PUSH2 0x3483 JUMP JUMPDEST SWAP3 POP POP DUP2 SWAP1 SSTORE POP DUP5 PUSH1 0xC PUSH0 DUP3 DUP3 SLOAD PUSH2 0x1FD0 SWAP2 SWAP1 PUSH2 0x3483 JUMP JUMPDEST SWAP3 POP POP DUP2 SWAP1 SSTORE POP PUSH0 DUP1 SLOAD SWAP1 PUSH2 0x100 EXP SWAP1 DIV PUSH20 0xFFFFFFFFFFFFFFFFFFFFFFFFFFFFFFFFFFFFFFFF AND PUSH20 0xFFFFFFFFFFFFFFFFFFFFFFFFFFFFFFFFFFFFFFFF AND PUSH4 0x23B872DD CALLER ADDRESS DUP9 PUSH1 0x40 MLOAD DUP5 PUSH4 0xFFFFFFFF AND PUSH1 0xE0 SHL DUP2 MSTORE PUSH1 0x4 ADD PUSH2 0x2033 SWAP4 SWAP3 SWAP2 SWAP1 PUSH2 0x34B6 JUMP JUMPDEST PUSH1 0x20 PUSH1 0x40 MLOAD DUP1 DUP4 SUB DUP2 PUSH0 DUP8 GAS CALL ISZERO DUP1 ISZERO PUSH2 0x204F JUMPI RETURNDATASIZE PUSH0 DUP1 RETURNDATACOPY RETURNDATASIZE PUSH0 REVERT JUMPDEST POP POP POP POP PUSH1 0x40 MLOAD RETURNDATASIZE PUSH1 0x1F NOT PUSH1 0x1F DUP3 ADD AND DUP3 ADD DUP1 PUSH1 0x40 MSTORE POP DUP2 ADD SWAP1 PUSH2 0x2073 SWAP2 SWAP1 PUSH2 0x3458 JUMP JUMPDEST POP POP JUMPDEST POP POP POP POP POP JUMP JUMPDEST PUSH1 0x2 PUSH1 0x20 MSTORE DUP1 PUSH0 MSTORE PUSH1 0x40 PUSH0 KECCAK256 PUSH0 SWAP2 POP SWAP1 POP DUP1 PUSH0 ADD SLOAD SWAP1 DUP1 PUSH1 0x1 ADD PUSH0 SWAP1 SLOAD SWAP1 PUSH2 0x100 EXP SWAP1 DIV PUSH1 0xFF AND SWAP1 DUP1 PUSH1 0x2 ADD SLOAD SWAP1 DUP1 PUSH1 0x3 ADD PUSH0 SWAP1 SLOAD SWAP1 PUSH2 0x100 EXP SWAP1 DIV PUSH1 0xFF AND SWAP1 DUP1 PUSH1 0x3 ADD PUSH1 0x1 SWAP1 SLOAD SWAP1 PUSH2 0x100 EXP SWAP1 DIV PUSH1 0xFF AND SWAP1 DUP1 PUSH1 0x3 ADD PUSH1 0x2 SWAP1 SLOAD SWAP1 PUSH2 0x100 EXP SWAP1 DIV PUSH20 0xFFFFFFFFFFFFFFFFFFFFFFFFFFFFFFFFFFFFFFFF AND SWAP1 POP DUP7 JUMP JUMPDEST CALLER PUSH20 0xFFFFFFFFFFFFFFFFFFFFFFFFFFFFFFFFFFFFFFFF AND PUSH1 0x3 PUSH0 SWAP1 SLOAD SWAP1 PUSH2 0x100 EXP SWAP1 DIV PUSH20 0xFFFFFFFFFFFFFFFFFFFFFFFFFFFFFFFFFFFFFFFF AND PUSH20 0xFFFFFFFFFFFFFFFFFFFFFFFFFFFFFFFFFFFFFFFF AND EQ PUSH2 0x2189 JUMPI PUSH1 0x40 MLOAD PUSH32 0x8C379A000000000000000000000000000000000000000000000000000000000 DUP2 MSTORE PUSH1 0x4 ADD PUSH2 0x2180 SWAP1 PUSH2 0x359A JUMP JUMPDEST PUSH1 0x40 MLOAD DUP1 SWAP2 SUB SWAP1 REVERT JUMPDEST PUSH0 ISZERO ISZERO PUSH1 0x2 PUSH0 DUP4 DUP2 MSTORE PUSH1 0x20 ADD SWAP1 DUP2 MSTORE PUSH1 0x20 ADD PUSH0 KECCAK256 PUSH1 0x1 ADD PUSH0 SWAP1 SLOAD SWAP1 PUSH2 0x100 EXP SWAP1 DIV PUSH1 0xFF AND ISZERO ISZERO EQ PUSH2 0x21EF JUMPI PUSH1 0x40 MLOAD PUSH32 0x8C379A000000000000000000000000000000000000000000000000000000000 DUP2 MSTORE PUSH1 0x4 ADD PUSH2 0x21E6 SWAP1 PUSH2 0x36D2 JUMP JUMPDEST PUSH1 0x40 MLOAD DUP1 SWAP2 SUB SWAP1 REVERT JUMPDEST PUSH1 0x1 PUSH1 0x2 PUSH0 DUP4 DUP2 MSTORE PUSH1 0x20 ADD SWAP1 DUP2 MSTORE PUSH1 0x20 ADD PUSH0 KECCAK256 PUSH1 0x1 ADD PUSH0 PUSH2 0x100 EXP DUP2 SLOAD DUP2 PUSH1 0xFF MUL NOT AND SWAP1 DUP4 ISZERO ISZERO MUL OR SWAP1 SSTORE POP PUSH32 0xEC2DB68ED4A8B09A4C7173E6E4230E6CCA7E1B48E58A0AFFC9C550470E0E1481 DUP3 PUSH1 0x2 PUSH0 DUP5 DUP2 MSTORE PUSH1 0x20 ADD SWAP1 DUP2 MSTORE PUSH1 0x20 ADD PUSH0 KECCAK256 PUSH1 0x2 ADD SLOAD TIMESTAMP PUSH1 0x40 MLOAD PUSH2 0x2262 SWAP4 SWAP3 SWAP2 SWAP1 PUSH2 0x36F0 JUMP JUMPDEST PUSH1 0x40 MLOAD DUP1 SWAP2 SUB SWAP1 LOG1 PUSH0 DUP1 SLOAD SWAP1 PUSH2 0x100 EXP SWAP1 DIV PUSH20 0xFFFFFFFFFFFFFFFFFFFFFFFFFFFFFFFFFFFFFFFF AND PUSH20 0xFFFFFFFFFFFFFFFFFFFFFFFFFFFFFFFFFFFFFFFF AND PUSH4 0xA9059CBB DUP4 PUSH1 0x2 PUSH0 DUP6 DUP2 MSTORE PUSH1 0x20 ADD SWAP1 DUP2 MSTORE PUSH1 0x20 ADD PUSH0 KECCAK256 PUSH1 0x2 ADD SLOAD PUSH1 0x40 MLOAD DUP4 PUSH4 0xFFFFFFFF AND PUSH1 0xE0 SHL DUP2 MSTORE PUSH1 0x4 ADD PUSH2 0x22D8 SWAP3 SWAP2 SWAP1 PUSH2 0x3407 JUMP JUMPDEST PUSH1 0x20 PUSH1 0x40 MLOAD DUP1 DUP4 SUB DUP2 PUSH0 DUP8 GAS CALL ISZERO DUP1 ISZERO PUSH2 0x22F4 JUMPI RETURNDATASIZE PUSH0 DUP1 RETURNDATACOPY RETURNDATASIZE PUSH0 REVERT JUMPDEST POP POP POP POP PUSH1 0x40 MLOAD RETURNDATASIZE PUSH1 0x1F NOT PUSH1 0x1F DUP3 ADD AND DUP3 ADD DUP1 PUSH1 0x40 MSTORE POP DUP2 ADD SWAP1 PUSH2 0x2318 SWAP2 SWAP1 PUSH2 0x3458 JUMP JUMPDEST POP POP POP JUMP JUMPDEST PUSH0 DUP1 PUSH0 DUP1 PUSH1 0x4 PUSH1 0x1 ADD PUSH1 0x10 SWAP1 SLOAD SWAP1 PUSH2 0x100 EXP SWAP1 DIV PUSH16 0xFFFFFFFFFFFFFFFFFFFFFFFFFFFFFFFF AND PUSH1 0x4 PUSH0 ADD PUSH1 0x10 SWAP1 SLOAD SWAP1 PUSH2 0x100 EXP SWAP1 DIV PUSH16 0xFFFFFFFFFFFFFFFFFFFFFFFFFFFFFFFF AND PUSH1 0x4 PUSH1 0x1 ADD PUSH0 SWAP1 SLOAD SWAP1 PUSH2 0x100 EXP SWAP1 DIV PUSH16 0xFFFFFFFFFFFFFFFFFFFFFFFFFFFFFFFF AND PUSH1 0x4 PUSH0 ADD PUSH0 SWAP1 SLOAD SWAP1 PUSH2 0x100 EXP SWAP1 DIV PUSH16 0xFFFFFFFFFFFFFFFFFFFFFFFFFFFFFFFF AND DUP4 PUSH16 0xFFFFFFFFFFFFFFFFFFFFFFFFFFFFFFFF AND SWAP4 POP DUP3 PUSH16 0xFFFFFFFFFFFFFFFFFFFFFFFFFFFFFFFF AND SWAP3 POP DUP2 PUSH16 0xFFFFFFFFFFFFFFFFFFFFFFFFFFFFFFFF AND SWAP2 POP DUP1 PUSH16 0xFFFFFFFFFFFFFFFFFFFFFFFFFFFFFFFF AND SWAP1 POP SWAP4 POP SWAP4 POP SWAP4 POP SWAP4 POP SWAP1 SWAP2 SWAP3 SWAP4 JUMP JUMPDEST PUSH1 0xB SLOAD DUP2 JUMP JUMPDEST PUSH2 0x2415 PUSH2 0x2BD7 JUMP JUMPDEST PUSH2 0x241D PUSH2 0x2BD7 JUMP JUMPDEST PUSH1 0x4 PUSH0 ADD PUSH0 SWAP1 SLOAD SWAP1 PUSH2 0x100 EXP SWAP1 DIV PUSH16 0xFFFFFFFFFFFFFFFFFFFFFFFFFFFFFFFF AND PUSH16 0xFFFFFFFFFFFFFFFFFFFFFFFFFFFFFFFF AND DUP2 PUSH1 0x40 ADD DUP2 DUP2 MSTORE POP DUP2 PUSH1 0x20 ADD DUP2 DUP2 MSTORE POP POP PUSH1 0x4 PUSH1 0x1 ADD PUSH0 SWAP1 SLOAD SWAP1 PUSH2 0x100 EXP SWAP1 DIV PUSH16 0xFFFFFFFFFFFFFFFFFFFFFFFFFFFFFFFF AND PUSH16 0xFFFFFFFFFFFFFFFFFFFFFFFFFFFFFFFF AND DUP2 PUSH1 0x80 ADD DUP2 DUP2 MSTORE POP DUP2 PUSH1 0x60 ADD DUP2 DUP2 MSTORE POP POP PUSH1 0x4 PUSH0 ADD PUSH1 0x10 SWAP1 SLOAD SWAP1 PUSH2 0x100 EXP SWAP1 DIV PUSH16 0xFFFFFFFFFFFFFFFFFFFFFFFFFFFFFFFF AND PUSH16 0xFFFFFFFFFFFFFFFFFFFFFFFFFFFFFFFF AND DUP2 PUSH1 0xA0 ADD DUP2 DUP2 MSTORE POP POP PUSH1 0x4 PUSH1 0x1 ADD PUSH1 0x10 SWAP1 SLOAD SWAP1 PUSH2 0x100 EXP SWAP1 DIV PUSH16 0xFFFFFFFFFFFFFFFFFFFFFFFFFFFFFFFF AND PUSH16 0xFFFFFFFFFFFFFFFFFFFFFFFFFFFFFFFF AND DUP2 PUSH1 0xC0 ADD DUP2 DUP2 MSTORE POP POP PUSH1 0x4 PUSH1 0x2 ADD PUSH0 SWAP1 SLOAD SWAP1 PUSH2 0x100 EXP SWAP1 DIV PUSH5 0xFFFFFFFFFF AND DUP2 PUSH1 0xE0 ADD SWAP1 PUSH5 0xFFFFFFFFFF AND SWAP1 DUP2 PUSH5 0xFFFFFFFFFF AND DUP2 MSTORE POP POP PUSH1 0xB SLOAD DUP2 PUSH0 ADD DUP2 DUP2 MSTORE POP POP DUP1 SWAP2 POP POP SWAP1 JUMP JUMPDEST PUSH0 PUSH2 0x256A DUP4 DUP4 TIMESTAMP PUSH2 0x295E JUMP JUMPDEST SWAP1 POP SWAP3 SWAP2 POP POP JUMP JUMPDEST PUSH0 DUP2 PUSH12 0x19D971E4FE8401E74000000 PUSH0 NOT SUB DIV DUP4 GT ISZERO DUP3 ISZERO OR PUSH2 0x2593 JUMPI PUSH0 DUP1 REVERT JUMPDEST PUSH12 0x33B2E3C9FD0803CE8000000 PUSH12 0x19D971E4FE8401E74000000 DUP4 DUP6 MUL ADD DIV SWAP1 POP SWAP3 SWAP2 POP POP JUMP JUMPDEST TIMESTAMP PUSH5 0xFFFFFFFFFF AND PUSH1 0x4 PUSH1 0x2 ADD PUSH0 SWAP1 SLOAD SWAP1 PUSH2 0x100 EXP SWAP1 DIV PUSH5 0xFFFFFFFFFF AND PUSH5 0xFFFFFFFFFF AND SUB ISZERO PUSH2 0x2614 JUMPI PUSH2 0x25EE DUP2 PUSH2 0x2AC4 JUMP JUMPDEST TIMESTAMP PUSH1 0x4 PUSH1 0x2 ADD PUSH0 PUSH2 0x100 EXP DUP2 SLOAD DUP2 PUSH5 0xFFFFFFFFFF MUL NOT AND SWAP1 DUP4 PUSH5 0xFFFFFFFFFF AND MUL OR SWAP1 SSTORE POP JUMPDEST POP JUMP JUMPDEST PUSH2 0x261F PUSH2 0x2C1B JUMP JUMPDEST PUSH1 0x4 PUSH1 0x2 ADD PUSH1 0x7 SWAP1 SLOAD SWAP1 PUSH2 0x100 EXP SWAP1 DIV PUSH20 0xFFFFFFFFFFFFFFFFFFFFFFFFFFFFFFFFFFFFFFFF AND PUSH20 0xFFFFFFFFFFFFFFFFFFFFFFFFFFFFFFFFFFFFFFFF AND PUSH4 0x56EAF264 PUSH1 0x40 MLOAD DUP1 PUSH1 0x80 ADD PUSH1 0x40 MSTORE DUP1 DUP7 DUP2 MSTORE PUSH1 0x20 ADD DUP6 DUP2 MSTORE PUSH1 0x20 ADD PUSH2 0x26BE PUSH1 0x4 PUSH1 0x1 ADD PUSH0 SWAP1 SLOAD SWAP1 PUSH2 0x100 EXP SWAP1 DIV PUSH16 0xFFFFFFFFFFFFFFFFFFFFFFFFFFFFFFFF AND PUSH16 0xFFFFFFFFFFFFFFFFFFFFFFFFFFFFFFFF AND PUSH1 0xB SLOAD PUSH2 0x2572 SWAP1 SWAP2 SWAP1 PUSH4 0xFFFFFFFF AND JUMP JUMPDEST DUP2 MSTORE PUSH1 0x20 ADD PUSH2 0x2709 PUSH1 0x4 PUSH0 ADD PUSH0 SWAP1 SLOAD SWAP1 PUSH2 0x100 EXP SWAP1 DIV PUSH16 0xFFFFFFFFFFFFFFFFFFFFFFFFFFFFFFFF AND PUSH16 0xFFFFFFFFFFFFFFFFFFFFFFFFFFFFFFFF AND PUSH1 0xA SLOAD PUSH2 0x2572 SWAP1 SWAP2 SWAP1 PUSH4 0xFFFFFFFF AND JUMP JUMPDEST DUP2 MSTORE POP PUSH1 0x40 MLOAD DUP3 PUSH4 0xFFFFFFFF AND PUSH1 0xE0 SHL DUP2 MSTORE PUSH1 0x4 ADD PUSH2 0x2728 SWAP2 SWAP1 PUSH2 0x3787 JUMP JUMPDEST PUSH1 0x40 DUP1 MLOAD DUP1 DUP4 SUB DUP2 DUP7 GAS STATICCALL ISZERO DUP1 ISZERO PUSH2 0x2742 JUMPI RETURNDATASIZE PUSH0 DUP1 RETURNDATACOPY RETURNDATASIZE PUSH0 REVERT JUMPDEST POP POP POP POP PUSH1 0x40 MLOAD RETURNDATASIZE PUSH1 0x1F NOT PUSH1 0x1F DUP3 ADD AND DUP3 ADD DUP1 PUSH1 0x40 MSTORE POP DUP2 ADD SWAP1 PUSH2 0x2766 SWAP2 SWAP1 PUSH2 0x37B4 JUMP JUMPDEST DUP3 PUSH0 ADD DUP4 PUSH1 0x20 ADD DUP3 DUP2 MSTORE POP DUP3 DUP2 MSTORE POP POP POP PUSH2 0x2783 DUP2 PUSH0 ADD MLOAD PUSH2 0x2875 JUMP JUMPDEST PUSH1 0x4 PUSH0 ADD PUSH1 0x10 PUSH2 0x100 EXP DUP2 SLOAD DUP2 PUSH16 0xFFFFFFFFFFFFFFFFFFFFFFFFFFFFFFFF MUL NOT AND SWAP1 DUP4 PUSH16 0xFFFFFFFFFFFFFFFFFFFFFFFFFFFFFFFF AND MUL OR SWAP1 SSTORE POP PUSH2 0x27CA DUP2 PUSH1 0x20 ADD MLOAD PUSH2 0x2875 JUMP JUMPDEST PUSH1 0x4 PUSH1 0x1 ADD PUSH1 0x10 PUSH2 0x100 EXP DUP2 SLOAD DUP2 PUSH16 0xFFFFFFFFFFFFFFFFFFFFFFFFFFFFFFFF MUL NOT AND SWAP1 DUP4 PUSH16 0xFFFFFFFFFFFFFFFFFFFFFFFFFFFFFFFF AND MUL OR SWAP1 SSTORE POP POP POP POP JUMP JUMPDEST PUSH0 PUSH12 0x33B2E3C9FD0803CE8000000 PUSH1 0x2 DUP4 DIV PUSH0 NOT SUB DIV DUP4 GT ISZERO ISZERO DUP3 ISZERO OR ISZERO PUSH2 0x2830 JUMPI PUSH0 DUP1 REVERT JUMPDEST DUP2 PUSH1 0x2 DUP4 DIV PUSH12 0x33B2E3C9FD0803CE8000000 DUP6 MUL ADD DIV SWAP1 POP SWAP3 SWAP2 POP POP JUMP JUMPDEST PUSH0 PUSH32 0xF0C57E16840DF040F15088DC2F81FE391C3923BEC73E23A9662EFC9C229C6A00 SWAP1 POP SWAP1 JUMP JUMPDEST PUSH0 PUSH16 0xFFFFFFFFFFFFFFFFFFFFFFFFFFFFFFFF DUP1 AND DUP3 GT ISZERO PUSH2 0x28D0 JUMPI PUSH1 0x80 DUP3 PUSH1 0x40 MLOAD PUSH32 0x6DFCC65000000000000000000000000000000000000000000000000000000000 DUP2 MSTORE PUSH1 0x4 ADD PUSH2 0x28C7 SWAP3 SWAP2 SWAP1 PUSH2 0x382B JUMP JUMPDEST PUSH1 0x40 MLOAD DUP1 SWAP2 SUB SWAP1 REVERT JUMPDEST DUP2 SWAP1 POP SWAP2 SWAP1 POP JUMP JUMPDEST PUSH0 PUSH4 0x3B9ACA00 DUP3 DIV SWAP1 POP PUSH4 0x3B9ACA00 DUP3 MOD PUSH1 0x2 PUSH4 0x3B9ACA00 DIV DUP2 LT PUSH2 0x28FE JUMPI PUSH1 0x1 DUP3 ADD SWAP2 POP JUMPDEST POP SWAP2 SWAP1 POP JUMP JUMPDEST PUSH0 DUP1 DUP3 PUSH5 0xFFFFFFFFFF AND TIMESTAMP PUSH2 0x2919 SWAP2 SWAP1 PUSH2 0x335C JUMP JUMPDEST DUP5 PUSH2 0x2924 SWAP2 SWAP1 PUSH2 0x32BE JUMP JUMPDEST SWAP1 POP PUSH4 0x1E13380 DUP2 DUP2 PUSH2 0x293A JUMPI PUSH2 0x2939 PUSH2 0x32FF JUMP JUMPDEST JUMPDEST DIV SWAP1 POP DUP1 PUSH12 0x33B2E3C9FD0803CE8000000 PUSH2 0x2955 SWAP2 SWAP1 PUSH2 0x3483 JUMP JUMPDEST SWAP2 POP POP SWAP3 SWAP2 POP POP JUMP JUMPDEST PUSH0 DUP1 DUP4 PUSH5 0xFFFFFFFFFF AND DUP4 PUSH2 0x2973 SWAP2 SWAP1 PUSH2 0x335C JUMP JUMPDEST SWAP1 POP PUSH0 DUP2 SUB PUSH2 0x2991 JUMPI PUSH12 0x33B2E3C9FD0803CE8000000 SWAP2 POP POP PUSH2 0x2ABD JUMP JUMPDEST PUSH0 DUP1 PUSH0 DUP1 PUSH1 0x1 DUP6 SUB SWAP4 POP PUSH1 0x2 DUP6 GT PUSH2 0x29A9 JUMPI PUSH0 PUSH2 0x29AE JUMP JUMPDEST PUSH1 0x2 DUP6 SUB JUMPDEST SWAP3 POP PUSH4 0x1E13380 DUP1 MUL PUSH2 0x29CA DUP11 DUP12 PUSH2 0x2572 SWAP1 SWAP2 SWAP1 PUSH4 0xFFFFFFFF AND JUMP JUMPDEST DUP2 PUSH2 0x29D8 JUMPI PUSH2 0x29D7 PUSH2 0x32FF JUMP JUMPDEST JUMPDEST DIV SWAP2 POP PUSH4 0x1E13380 PUSH2 0x29F3 DUP11 DUP5 PUSH2 0x2572 SWAP1 SWAP2 SWAP1 PUSH4 0xFFFFFFFF AND JUMP JUMPDEST DUP2 PUSH2 0x2A01 JUMPI PUSH2 0x2A00 PUSH2 0x32FF JUMP JUMPDEST JUMPDEST DIV SWAP1 POP PUSH0 DUP3 DUP6 DUP8 PUSH2 0x2A12 SWAP2 SWAP1 PUSH2 0x32BE JUMP JUMPDEST PUSH2 0x2A1C SWAP2 SWAP1 PUSH2 0x32BE JUMP JUMPDEST SWAP1 POP PUSH1 0x2 DUP2 DUP2 PUSH2 0x2A2F JUMPI PUSH2 0x2A2E PUSH2 0x32FF JUMP JUMPDEST JUMPDEST DIV SWAP1 POP PUSH0 DUP3 DUP6 DUP8 DUP10 PUSH2 0x2A41 SWAP2 SWAP1 PUSH2 0x32BE JUMP JUMPDEST PUSH2 0x2A4B SWAP2 SWAP1 PUSH2 0x32BE JUMP JUMPDEST PUSH2 0x2A55 SWAP2 SWAP1 PUSH2 0x32BE JUMP JUMPDEST SWAP1 POP PUSH1 0x6 DUP2 DUP2 PUSH2 0x2A68 JUMPI PUSH2 0x2A67 PUSH2 0x32FF JUMP JUMPDEST JUMPDEST DIV SWAP1 POP DUP1 DUP3 PUSH4 0x1E13380 DUP10 DUP15 PUSH2 0x2A7E SWAP2 SWAP1 PUSH2 0x32BE JUMP JUMPDEST PUSH2 0x2A88 SWAP2 SWAP1 PUSH2 0x332C JUMP JUMPDEST PUSH12 0x33B2E3C9FD0803CE8000000 PUSH2 0x2A9F SWAP2 SWAP1 PUSH2 0x3483 JUMP JUMPDEST PUSH2 0x2AA9 SWAP2 SWAP1 PUSH2 0x3483 JUMP JUMPDEST PUSH2 0x2AB3 SWAP2 SWAP1 PUSH2 0x3483 JUMP JUMPDEST SWAP8 POP POP POP POP POP POP POP POP JUMPDEST SWAP4 SWAP3 POP POP POP JUMP JUMPDEST PUSH0 DUP2 PUSH1 0xA0 ADD MLOAD EQ PUSH2 0x2B4C JUMPI PUSH0 PUSH2 0x2AE2 DUP3 PUSH1 0xA0 ADD MLOAD DUP4 PUSH1 0xE0 ADD MLOAD PUSH2 0x2904 JUMP JUMPDEST SWAP1 POP PUSH2 0x2AFB DUP3 PUSH1 0x20 ADD MLOAD DUP3 PUSH2 0x2572 SWAP1 SWAP2 SWAP1 PUSH4 0xFFFFFFFF AND JUMP JUMPDEST DUP3 PUSH1 0x40 ADD DUP2 DUP2 MSTORE POP POP PUSH2 0x2B11 DUP3 PUSH1 0x40 ADD MLOAD PUSH2 0x2875 JUMP JUMPDEST PUSH1 0x4 PUSH0 ADD PUSH0 PUSH2 0x100 EXP DUP2 SLOAD DUP2 PUSH16 0xFFFFFFFFFFFFFFFFFFFFFFFFFFFFFFFF MUL NOT AND SWAP1 DUP4 PUSH16 0xFFFFFFFFFFFFFFFFFFFFFFFFFFFFFFFF AND MUL OR SWAP1 SSTORE POP POP JUMPDEST PUSH0 DUP2 PUSH0 ADD MLOAD EQ PUSH2 0x2BD4 JUMPI PUSH0 PUSH2 0x2B69 DUP3 PUSH1 0xC0 ADD MLOAD DUP4 PUSH1 0xE0 ADD MLOAD PUSH2 0x255E JUMP JUMPDEST SWAP1 POP PUSH2 0x2B82 DUP3 PUSH1 0x60 ADD MLOAD DUP3 PUSH2 0x2572 SWAP1 SWAP2 SWAP1 PUSH4 0xFFFFFFFF AND JUMP JUMPDEST DUP3 PUSH1 0x80 ADD DUP2 DUP2 MSTORE POP POP PUSH2 0x2B98 DUP3 PUSH1 0x80 ADD MLOAD PUSH2 0x2875 JUMP JUMPDEST PUSH1 0x4 PUSH1 0x1 ADD PUSH0 PUSH2 0x100 EXP DUP2 SLOAD DUP2 PUSH16 0xFFFFFFFFFFFFFFFFFFFFFFFFFFFFFFFF MUL NOT AND SWAP1 DUP4 PUSH16 0xFFFFFFFFFFFFFFFFFFFFFFFFFFFFFFFF AND MUL OR SWAP1 SSTORE POP POP JUMPDEST POP JUMP JUMPDEST PUSH1 0x40 MLOAD DUP1 PUSH2 0x100 ADD PUSH1 0x40 MSTORE DUP1 PUSH0 DUP2 MSTORE PUSH1 0x20 ADD PUSH0 DUP2 MSTORE PUSH1 0x20 ADD PUSH0 DUP2 MSTORE PUSH1 0x20 ADD PUSH0 DUP2 MSTORE PUSH1 0x20 ADD PUSH0 DUP2 MSTORE PUSH1 0x20 ADD PUSH0 DUP2 MSTORE PUSH1 0x20 ADD PUSH0 DUP2 MSTORE PUSH1 0x20 ADD PUSH0 PUSH5 0xFFFFFFFFFF AND DUP2 MSTORE POP SWAP1 JUMP JUMPDEST PUSH1 0x40 MLOAD DUP1 PUSH1 0x60 ADD PUSH1 0x40 MSTORE DUP1 PUSH0 DUP2 MSTORE PUSH1 0x20 ADD PUSH0 DUP2 MSTORE PUSH1 0x20 ADD PUSH0 DUP2 MSTORE POP SWAP1 JUMP JUMPDEST PUSH0 DUP2 SWAP1 POP SWAP2 SWAP1 POP JUMP JUMPDEST PUSH2 0x2C4B DUP2 PUSH2 0x2C39 JUMP JUMPDEST DUP3 MSTORE POP POP JUMP JUMPDEST PUSH0 PUSH1 0x20 DUP3 ADD SWAP1 POP PUSH2 0x2C64 PUSH0 DUP4 ADD DUP5 PUSH2 0x2C42 JUMP JUMPDEST SWAP3 SWAP2 POP POP JUMP JUMPDEST PUSH0 DUP1 REVERT JUMPDEST PUSH0 PUSH20 0xFFFFFFFFFFFFFFFFFFFFFFFFFFFFFFFFFFFFFFFF DUP3 AND SWAP1 POP SWAP2 SWAP1 POP JUMP JUMPDEST PUSH0 PUSH2 0x2C97 DUP3 PUSH2 0x2C6E JUMP JUMPDEST SWAP1 POP SWAP2 SWAP1 POP JUMP JUMPDEST PUSH2 0x2CA7 DUP2 PUSH2 0x2C8D JUMP JUMPDEST DUP2 EQ PUSH2 0x2CB1 JUMPI PUSH0 DUP1 REVERT JUMPDEST POP JUMP JUMPDEST PUSH0 DUP2 CALLDATALOAD SWAP1 POP PUSH2 0x2CC2 DUP2 PUSH2 0x2C9E JUMP JUMPDEST SWAP3 SWAP2 POP POP JUMP JUMPDEST PUSH0 PUSH1 0x20 DUP3 DUP5 SUB SLT ISZERO PUSH2 0x2CDD JUMPI PUSH2 0x2CDC PUSH2 0x2C6A JUMP JUMPDEST JUMPDEST PUSH0 PUSH2 0x2CEA DUP5 DUP3 DUP6 ADD PUSH2 0x2CB4 JUMP JUMPDEST SWAP2 POP POP SWAP3 SWAP2 POP POP JUMP JUMPDEST PUSH2 0x2CFC DUP2 PUSH2 0x2C39 JUMP JUMPDEST DUP2 EQ PUSH2 0x2D06 JUMPI PUSH0 DUP1 REVERT JUMPDEST POP JUMP JUMPDEST PUSH0 DUP2 CALLDATALOAD SWAP1 POP PUSH2 0x2D17 DUP2 PUSH2 0x2CF3 JUMP JUMPDEST SWAP3 SWAP2 POP POP JUMP JUMPDEST PUSH0 PUSH1 0x20 DUP3 DUP5 SUB SLT ISZERO PUSH2 0x2D32 JUMPI PUSH2 0x2D31 PUSH2 0x2C6A JUMP JUMPDEST JUMPDEST PUSH0 PUSH2 0x2D3F DUP5 DUP3 DUP6 ADD PUSH2 0x2D09 JUMP JUMPDEST SWAP2 POP POP SWAP3 SWAP2 POP POP JUMP JUMPDEST PUSH2 0x2D51 DUP2 PUSH2 0x2C8D JUMP JUMPDEST DUP3 MSTORE POP POP JUMP JUMPDEST PUSH0 PUSH1 0x20 DUP3 ADD SWAP1 POP PUSH2 0x2D6A PUSH0 DUP4 ADD DUP5 PUSH2 0x2D48 JUMP JUMPDEST SWAP3 SWAP2 POP POP JUMP JUMPDEST PUSH0 PUSH2 0x2D7A DUP3 PUSH2 0x2C8D JUMP JUMPDEST SWAP1 POP SWAP2 SWAP1 POP JUMP JUMPDEST PUSH2 0x2D8A DUP2 PUSH2 0x2D70 JUMP JUMPDEST DUP2 EQ PUSH2 0x2D94 JUMPI PUSH0 DUP1 REVERT JUMPDEST POP JUMP JUMPDEST PUSH0 DUP2 CALLDATALOAD SWAP1 POP PUSH2 0x2DA5 DUP2 PUSH2 0x2D81 JUMP JUMPDEST SWAP3 SWAP2 POP POP JUMP JUMPDEST PUSH0 DUP1 PUSH1 0x40 DUP4 DUP6 SUB SLT ISZERO PUSH2 0x2DC1 JUMPI PUSH2 0x2DC0 PUSH2 0x2C6A JUMP JUMPDEST JUMPDEST PUSH0 PUSH2 0x2DCE DUP6 DUP3 DUP7 ADD PUSH2 0x2D97 JUMP JUMPDEST SWAP3 POP POP PUSH1 0x20 PUSH2 0x2DDF DUP6 DUP3 DUP7 ADD PUSH2 0x2CB4 JUMP JUMPDEST SWAP2 POP POP SWAP3 POP SWAP3 SWAP1 POP JUMP JUMPDEST PUSH0 DUP2 SWAP1 POP SWAP2 SWAP1 POP JUMP JUMPDEST PUSH0 PUSH2 0x2E0C PUSH2 0x2E07 PUSH2 0x2E02 DUP5 PUSH2 0x2C6E JUMP JUMPDEST PUSH2 0x2DE9 JUMP JUMPDEST PUSH2 0x2C6E JUMP JUMPDEST SWAP1 POP SWAP2 SWAP1 POP JUMP JUMPDEST PUSH0 PUSH2 0x2E1D DUP3 PUSH2 0x2DF2 JUMP JUMPDEST SWAP1 POP SWAP2 SWAP1 POP JUMP JUMPDEST PUSH0 PUSH2 0x2E2E DUP3 PUSH2 0x2E13 JUMP JUMPDEST SWAP1 POP SWAP2 SWAP1 POP JUMP JUMPDEST PUSH2 0x2E3E DUP2 PUSH2 0x2E24 JUMP JUMPDEST DUP3 MSTORE POP POP JUMP JUMPDEST PUSH0 PUSH1 0x20 DUP3 ADD SWAP1 POP PUSH2 0x2E57 PUSH0 DUP4 ADD DUP5 PUSH2 0x2E35 JUMP JUMPDEST SWAP3 SWAP2 POP POP JUMP JUMPDEST PUSH0 PUSH16 0xFFFFFFFFFFFFFFFFFFFFFFFFFFFFFFFF DUP3 AND SWAP1 POP SWAP2 SWAP1 POP JUMP JUMPDEST PUSH2 0x2E81 DUP2 PUSH2 0x2E5D JUMP JUMPDEST DUP3 MSTORE POP POP JUMP JUMPDEST PUSH0 PUSH5 0xFFFFFFFFFF DUP3 AND SWAP1 POP SWAP2 SWAP1 POP JUMP JUMPDEST PUSH2 0x2EA0 DUP2 PUSH2 0x2E87 JUMP JUMPDEST DUP3 MSTORE POP POP JUMP JUMPDEST PUSH0 PUSH2 0xFFFF DUP3 AND SWAP1 POP SWAP2 SWAP1 POP JUMP JUMPDEST PUSH2 0x2EBC DUP2 PUSH2 0x2EA6 JUMP JUMPDEST DUP3 MSTORE POP POP JUMP JUMPDEST PUSH0 PUSH1 0xE0 DUP3 ADD SWAP1 POP PUSH2 0x2ED5 PUSH0 DUP4 ADD DUP11 PUSH2 0x2E78 JUMP JUMPDEST PUSH2 0x2EE2 PUSH1 0x20 DUP4 ADD DUP10 PUSH2 0x2E78 JUMP JUMPDEST PUSH2 0x2EEF PUSH1 0x40 DUP4 ADD DUP9 PUSH2 0x2E78 JUMP JUMPDEST PUSH2 0x2EFC PUSH1 0x60 DUP4 ADD DUP8 PUSH2 0x2E78 JUMP JUMPDEST PUSH2 0x2F09 PUSH1 0x80 DUP4 ADD DUP7 PUSH2 0x2E97 JUMP JUMPDEST PUSH2 0x2F16 PUSH1 0xA0 DUP4 ADD DUP6 PUSH2 0x2EB3 JUMP JUMPDEST PUSH2 0x2F23 PUSH1 0xC0 DUP4 ADD DUP5 PUSH2 0x2D48 JUMP JUMPDEST SWAP9 SWAP8 POP POP POP POP POP POP POP POP JUMP JUMPDEST PUSH0 DUP1 PUSH0 PUSH1 0x60 DUP5 DUP7 SUB SLT ISZERO PUSH2 0x2F46 JUMPI PUSH2 0x2F45 PUSH2 0x2C6A JUMP JUMPDEST JUMPDEST PUSH0 PUSH2 0x2F53 DUP7 DUP3 DUP8 ADD PUSH2 0x2D09 JUMP JUMPDEST SWAP4 POP POP PUSH1 0x20 PUSH2 0x2F64 DUP7 DUP3 DUP8 ADD PUSH2 0x2D09 JUMP JUMPDEST SWAP3 POP POP PUSH1 0x40 PUSH2 0x2F75 DUP7 DUP3 DUP8 ADD PUSH2 0x2CB4 JUMP JUMPDEST SWAP2 POP POP SWAP3 POP SWAP3 POP SWAP3 JUMP JUMPDEST PUSH0 DUP1 PUSH1 0x40 DUP4 DUP6 SUB SLT ISZERO PUSH2 0x2F95 JUMPI PUSH2 0x2F94 PUSH2 0x2C6A JUMP JUMPDEST JUMPDEST PUSH0 PUSH2 0x2FA2 DUP6 DUP3 DUP7 ADD PUSH2 0x2D09 JUMP JUMPDEST SWAP3 POP POP PUSH1 0x20 PUSH2 0x2FB3 DUP6 DUP3 DUP7 ADD PUSH2 0x2D09 JUMP JUMPDEST SWAP2 POP POP SWAP3 POP SWAP3 SWAP1 POP JUMP JUMPDEST PUSH0 DUP2 ISZERO ISZERO SWAP1 POP SWAP2 SWAP1 POP JUMP JUMPDEST PUSH2 0x2FD1 DUP2 PUSH2 0x2FBD JUMP JUMPDEST DUP3 MSTORE POP POP JUMP JUMPDEST PUSH0 PUSH1 0xC0 DUP3 ADD SWAP1 POP PUSH2 0x2FEA PUSH0 DUP4 ADD DUP10 PUSH2 0x2C42 JUMP JUMPDEST PUSH2 0x2FF7 PUSH1 0x20 DUP4 ADD DUP9 PUSH2 0x2FC8 JUMP JUMPDEST PUSH2 0x3004 PUSH1 0x40 DUP4 ADD DUP8 PUSH2 0x2C42 JUMP JUMPDEST PUSH2 0x3011 PUSH1 0x60 DUP4 ADD DUP7 PUSH2 0x2FC8 JUMP JUMPDEST PUSH2 0x301E PUSH1 0x80 DUP4 ADD DUP6 PUSH2 0x2FC8 JUMP JUMPDEST PUSH2 0x302B PUSH1 0xA0 DUP4 ADD DUP5 PUSH2 0x2D48 JUMP JUMPDEST SWAP8 SWAP7 POP POP POP POP POP POP POP JUMP JUMPDEST PUSH0 DUP1 PUSH1 0x40 DUP4 DUP6 SUB SLT ISZERO PUSH2 0x304C JUMPI PUSH2 0x304B PUSH2 0x2C6A JUMP JUMPDEST JUMPDEST PUSH0 PUSH2 0x3059 DUP6 DUP3 DUP7 ADD PUSH2 0x2CB4 JUMP JUMPDEST SWAP3 POP POP PUSH1 0x20 PUSH2 0x306A DUP6 DUP3 DUP7 ADD PUSH2 0x2D09 JUMP JUMPDEST SWAP2 POP POP SWAP3 POP SWAP3 SWAP1 POP JUMP JUMPDEST PUSH0 PUSH1 0x80 DUP3 ADD SWAP1 POP PUSH2 0x3087 PUSH0 DUP4 ADD DUP8 PUSH2 0x2C42 JUMP JUMPDEST PUSH2 0x3094 PUSH1 0x20 DUP4 ADD DUP7 PUSH2 0x2C42 JUMP JUMPDEST PUSH2 0x30A1 PUSH1 0x40 DUP4 ADD DUP6 PUSH2 0x2C42 JUMP JUMPDEST PUSH2 0x30AE PUSH1 0x60 DUP4 ADD DUP5 PUSH2 0x2C42 JUMP JUMPDEST SWAP6 SWAP5 POP POP POP POP POP JUMP JUMPDEST PUSH0 PUSH1 0xFF DUP3 AND SWAP1 POP SWAP2 SWAP1 POP JUMP JUMPDEST PUSH2 0x30CC DUP2 PUSH2 0x30B7 JUMP JUMPDEST DUP2 EQ PUSH2 0x30D6 JUMPI PUSH0 DUP1 REVERT JUMPDEST POP JUMP JUMPDEST PUSH0 DUP2 MLOAD SWAP1 POP PUSH2 0x30E7 DUP2 PUSH2 0x30C3 JUMP JUMPDEST SWAP3 SWAP2 POP POP JUMP JUMPDEST PUSH0 PUSH1 0x20 DUP3 DUP5 SUB SLT ISZERO PUSH2 0x3102 JUMPI PUSH2 0x3101 PUSH2 0x2C6A JUMP JUMPDEST JUMPDEST PUSH0 PUSH2 0x310F DUP5 DUP3 DUP6 ADD PUSH2 0x30D9 JUMP JUMPDEST SWAP2 POP POP SWAP3 SWAP2 POP POP JUMP JUMPDEST PUSH32 0x4E487B7100000000000000000000000000000000000000000000000000000000 PUSH0 MSTORE PUSH1 0x11 PUSH1 0x4 MSTORE PUSH1 0x24 PUSH0 REVERT JUMPDEST PUSH0 DUP2 PUSH1 0x1 SHR SWAP1 POP SWAP2 SWAP1 POP JUMP JUMPDEST PUSH0 DUP1 DUP3 SWAP2 POP DUP4 SWAP1 POP JUMPDEST PUSH1 0x1 DUP6 GT ISZERO PUSH2 0x319A JUMPI DUP1 DUP7 DIV DUP2 GT ISZERO PUSH2 0x3176 JUMPI PUSH2 0x3175 PUSH2 0x3118 JUMP JUMPDEST JUMPDEST PUSH1 0x1 DUP6 AND ISZERO PUSH2 0x3185 JUMPI DUP1 DUP3 MUL SWAP2 POP JUMPDEST DUP1 DUP2 MUL SWAP1 POP PUSH2 0x3193 DUP6 PUSH2 0x3145 JUMP JUMPDEST SWAP5 POP PUSH2 0x315A JUMP JUMPDEST SWAP5 POP SWAP5 SWAP3 POP POP POP JUMP JUMPDEST PUSH0 DUP3 PUSH2 0x31B2 JUMPI PUSH1 0x1 SWAP1 POP PUSH2 0x326D JUMP JUMPDEST DUP2 PUSH2 0x31BF JUMPI PUSH0 SWAP1 POP PUSH2 0x326D JUMP JUMPDEST DUP2 PUSH1 0x1 DUP2 EQ PUSH2 0x31D5 JUMPI PUSH1 0x2 DUP2 EQ PUSH2 0x31DF JUMPI PUSH2 0x320E JUMP JUMPDEST PUSH1 0x1 SWAP2 POP POP PUSH2 0x326D JUMP JUMPDEST PUSH1 0xFF DUP5 GT ISZERO PUSH2 0x31F1 JUMPI PUSH2 0x31F0 PUSH2 0x3118 JUMP JUMPDEST JUMPDEST DUP4 PUSH1 0x2 EXP SWAP2 POP DUP5 DUP3 GT ISZERO PUSH2 0x3208 JUMPI PUSH2 0x3207 PUSH2 0x3118 JUMP JUMPDEST JUMPDEST POP PUSH2 0x326D JUMP JUMPDEST POP PUSH1 0x20 DUP4 LT PUSH2 0x133 DUP4 LT AND PUSH1 0x4E DUP5 LT PUSH1 0xB DUP5 LT AND OR ISZERO PUSH2 0x3243 JUMPI DUP3 DUP3 EXP SWAP1 POP DUP4 DUP2 GT ISZERO PUSH2 0x323E JUMPI PUSH2 0x323D PUSH2 0x3118 JUMP JUMPDEST JUMPDEST PUSH2 0x326D JUMP JUMPDEST PUSH2 0x3250 DUP5 DUP5 DUP5 PUSH1 0x1 PUSH2 0x3151 JUMP JUMPDEST SWAP3 POP SWAP1 POP DUP2 DUP5 DIV DUP2 GT ISZERO PUSH2 0x3267 JUMPI PUSH2 0x3266 PUSH2 0x3118 JUMP JUMPDEST JUMPDEST DUP2 DUP2 MUL SWAP1 POP JUMPDEST SWAP4 SWAP3 POP POP POP JUMP JUMPDEST PUSH0 PUSH2 0x327E DUP3 PUSH2 0x2C39 JUMP JUMPDEST SWAP2 POP PUSH2 0x3289 DUP4 PUSH2 0x30B7 JUMP JUMPDEST SWAP3 POP PUSH2 0x32B6 PUSH32 0xFFFFFFFFFFFFFFFFFFFFFFFFFFFFFFFFFFFFFFFFFFFFFFFFFFFFFFFFFFFFFFFF DUP5 DUP5 PUSH2 0x31A3 JUMP JUMPDEST SWAP1 POP SWAP3 SWAP2 POP POP JUMP JUMPDEST PUSH0 PUSH2 0x32C8 DUP3 PUSH2 0x2C39 JUMP JUMPDEST SWAP2 POP PUSH2 0x32D3 DUP4 PUSH2 0x2C39 JUMP JUMPDEST SWAP3 POP DUP3 DUP3 MUL PUSH2 0x32E1 DUP2 PUSH2 0x2C39 JUMP JUMPDEST SWAP2 POP DUP3 DUP3 DIV DUP5 EQ DUP4 ISZERO OR PUSH2 0x32F8 JUMPI PUSH2 0x32F7 PUSH2 0x3118 JUMP JUMPDEST JUMPDEST POP SWAP3 SWAP2 POP POP JUMP JUMPDEST PUSH32 0x4E487B7100000000000000000000000000000000000000000000000000000000 PUSH0 MSTORE PUSH1 0x12 PUSH1 0x4 MSTORE PUSH1 0x24 PUSH0 REVERT JUMPDEST PUSH0 PUSH2 0x3336 DUP3 PUSH2 0x2C39 JUMP JUMPDEST SWAP2 POP PUSH2 0x3341 DUP4 PUSH2 0x2C39 JUMP JUMPDEST SWAP3 POP DUP3 PUSH2 0x3351 JUMPI PUSH2 0x3350 PUSH2 0x32FF JUMP JUMPDEST JUMPDEST DUP3 DUP3 DIV SWAP1 POP SWAP3 SWAP2 POP POP JUMP JUMPDEST PUSH0 PUSH2 0x3366 DUP3 PUSH2 0x2C39 JUMP JUMPDEST SWAP2 POP PUSH2 0x3371 DUP4 PUSH2 0x2C39 JUMP JUMPDEST SWAP3 POP DUP3 DUP3 SUB SWAP1 POP DUP2 DUP2 GT ISZERO PUSH2 0x3389 JUMPI PUSH2 0x3388 PUSH2 0x3118 JUMP JUMPDEST JUMPDEST SWAP3 SWAP2 POP POP JUMP JUMPDEST PUSH0 DUP3 DUP3 MSTORE PUSH1 0x20 DUP3 ADD SWAP1 POP SWAP3 SWAP2 POP POP JUMP JUMPDEST PUSH32 0x446F6E2774206861766520656E6F7567682066756E6400000000000000000000 PUSH0 DUP3 ADD MSTORE POP JUMP JUMPDEST PUSH0 PUSH2 0x33D3 PUSH1 0x16 DUP4 PUSH2 0x338F JUMP JUMPDEST SWAP2 POP PUSH2 0x33DE DUP3 PUSH2 0x339F JUMP JUMPDEST PUSH1 0x20 DUP3 ADD SWAP1 POP SWAP2 SWAP1 POP JUMP JUMPDEST PUSH0 PUSH1 0x20 DUP3 ADD SWAP1 POP DUP2 DUP2 SUB PUSH0 DUP4 ADD MSTORE PUSH2 0x3400 DUP2 PUSH2 0x33C7 JUMP JUMPDEST SWAP1 POP SWAP2 SWAP1 POP JUMP JUMPDEST PUSH0 PUSH1 0x40 DUP3 ADD SWAP1 POP PUSH2 0x341A PUSH0 DUP4 ADD DUP6 PUSH2 0x2D48 JUMP JUMPDEST PUSH2 0x3427 PUSH1 0x20 DUP4 ADD DUP5 PUSH2 0x2C42 JUMP JUMPDEST SWAP4 SWAP3 POP POP POP JUMP JUMPDEST PUSH2 0x3437 DUP2 PUSH2 0x2FBD JUMP JUMPDEST DUP2 EQ PUSH2 0x3441 JUMPI PUSH0 DUP1 REVERT JUMPDEST POP JUMP JUMPDEST PUSH0 DUP2 MLOAD SWAP1 POP PUSH2 0x3452 DUP2 PUSH2 0x342E JUMP JUMPDEST SWAP3 SWAP2 POP POP JUMP JUMPDEST PUSH0 PUSH1 0x20 DUP3 DUP5 SUB SLT ISZERO PUSH2 0x346D JUMPI PUSH2 0x346C PUSH2 0x2C6A JUMP JUMPDEST JUMPDEST PUSH0 PUSH2 0x347A DUP5 DUP3 DUP6 ADD PUSH2 0x3444 JUMP JUMPDEST SWAP2 POP POP SWAP3 SWAP2 POP POP JUMP JUMPDEST PUSH0 PUSH2 0x348D DUP3 PUSH2 0x2C39 JUMP JUMPDEST SWAP2 POP PUSH2 0x3498 DUP4 PUSH2 0x2C39 JUMP JUMPDEST SWAP3 POP DUP3 DUP3 ADD SWAP1 POP DUP1 DUP3 GT ISZERO PUSH2 0x34B0 JUMPI PUSH2 0x34AF PUSH2 0x3118 JUMP JUMPDEST JUMPDEST SWAP3 SWAP2 POP POP JUMP JUMPDEST PUSH0 PUSH1 0x60 DUP3 ADD SWAP1 POP PUSH2 0x34C9 PUSH0 DUP4 ADD DUP7 PUSH2 0x2D48 JUMP JUMPDEST PUSH2 0x34D6 PUSH1 0x20 DUP4 ADD DUP6 PUSH2 0x2D48 JUMP JUMPDEST PUSH2 0x34E3 PUSH1 0x40 DUP4 ADD DUP5 PUSH2 0x2C42 JUMP JUMPDEST SWAP5 SWAP4 POP POP POP POP JUMP JUMPDEST PUSH0 DUP2 SWAP1 POP SWAP2 SWAP1 POP JUMP JUMPDEST PUSH0 PUSH8 0xFFFFFFFFFFFFFFFF DUP3 AND SWAP1 POP SWAP2 SWAP1 POP JUMP JUMPDEST PUSH0 PUSH2 0x3521 PUSH2 0x351C PUSH2 0x3517 DUP5 PUSH2 0x34EB JUMP JUMPDEST PUSH2 0x2DE9 JUMP JUMPDEST PUSH2 0x34F4 JUMP JUMPDEST SWAP1 POP SWAP2 SWAP1 POP JUMP JUMPDEST PUSH2 0x3531 DUP2 PUSH2 0x3507 JUMP JUMPDEST DUP3 MSTORE POP POP JUMP JUMPDEST PUSH0 PUSH1 0x20 DUP3 ADD SWAP1 POP PUSH2 0x354A PUSH0 DUP4 ADD DUP5 PUSH2 0x3528 JUMP JUMPDEST SWAP3 SWAP2 POP POP JUMP JUMPDEST PUSH32 0x6F6E6C7920746865206363666C00000000000000000000000000000000000000 PUSH0 DUP3 ADD MSTORE POP JUMP JUMPDEST PUSH0 PUSH2 0x3584 PUSH1 0xD DUP4 PUSH2 0x338F JUMP JUMPDEST SWAP2 POP PUSH2 0x358F DUP3 PUSH2 0x3550 JUMP JUMPDEST PUSH1 0x20 DUP3 ADD SWAP1 POP SWAP2 SWAP1 POP JUMP JUMPDEST PUSH0 PUSH1 0x20 DUP3 ADD SWAP1 POP DUP2 DUP2 SUB PUSH0 DUP4 ADD MSTORE PUSH2 0x35B1 DUP2 PUSH2 0x3578 JUMP JUMPDEST SWAP1 POP SWAP2 SWAP1 POP JUMP JUMPDEST PUSH32 0x6F6E6C7920746865206F776E6572000000000000000000000000000000000000 PUSH0 DUP3 ADD MSTORE POP JUMP JUMPDEST PUSH0 PUSH2 0x35EC PUSH1 0xE DUP4 PUSH2 0x338F JUMP JUMPDEST SWAP2 POP PUSH2 0x35F7 DUP3 PUSH2 0x35B8 JUMP JUMPDEST PUSH1 0x20 DUP3 ADD SWAP1 POP SWAP2 SWAP1 POP JUMP JUMPDEST PUSH0 PUSH1 0x20 DUP3 ADD SWAP1 POP DUP2 DUP2 SUB PUSH0 DUP4 ADD MSTORE PUSH2 0x3619 DUP2 PUSH2 0x35E0 JUMP JUMPDEST SWAP1 POP SWAP2 SWAP1 POP JUMP JUMPDEST PUSH32 0x446F206E6F74206861766520656E6F756768206C697175696469747900000000 PUSH0 DUP3 ADD MSTORE POP JUMP JUMPDEST PUSH0 PUSH2 0x3654 PUSH1 0x1C DUP4 PUSH2 0x338F JUMP JUMPDEST SWAP2 POP PUSH2 0x365F DUP3 PUSH2 0x3620 JUMP JUMPDEST PUSH1 0x20 DUP3 ADD SWAP1 POP SWAP2 SWAP1 POP JUMP JUMPDEST PUSH0 PUSH1 0x20 DUP3 ADD SWAP1 POP DUP2 DUP2 SUB PUSH0 DUP4 ADD MSTORE PUSH2 0x3681 DUP2 PUSH2 0x3648 JUMP JUMPDEST SWAP1 POP SWAP2 SWAP1 POP JUMP JUMPDEST PUSH32 0x4C6F616E20697320706169640000000000000000000000000000000000000000 PUSH0 DUP3 ADD MSTORE POP JUMP JUMPDEST PUSH0 PUSH2 0x36BC PUSH1 0xC DUP4 PUSH2 0x338F JUMP JUMPDEST SWAP2 POP PUSH2 0x36C7 DUP3 PUSH2 0x3688 JUMP JUMPDEST PUSH1 0x20 DUP3 ADD SWAP1 POP SWAP2 SWAP1 POP JUMP JUMPDEST PUSH0 PUSH1 0x20 DUP3 ADD SWAP1 POP DUP2 DUP2 SUB PUSH0 DUP4 ADD MSTORE PUSH2 0x36E9 DUP2 PUSH2 0x36B0 JUMP JUMPDEST SWAP1 POP SWAP2 SWAP1 POP JUMP JUMPDEST PUSH0 PUSH1 0x60 DUP3 ADD SWAP1 POP PUSH2 0x3703 PUSH0 DUP4 ADD DUP7 PUSH2 0x2D48 JUMP JUMPDEST PUSH2 0x3710 PUSH1 0x20 DUP4 ADD DUP6 PUSH2 0x2C42 JUMP JUMPDEST PUSH2 0x371D PUSH1 0x40 DUP4 ADD DUP5 PUSH2 0x2C42 JUMP JUMPDEST SWAP5 SWAP4 POP POP POP POP JUMP JUMPDEST PUSH2 0x372E DUP2 PUSH2 0x2C39 JUMP JUMPDEST DUP3 MSTORE POP POP JUMP JUMPDEST PUSH1 0x80 DUP3 ADD PUSH0 DUP3 ADD MLOAD PUSH2 0x3748 PUSH0 DUP6 ADD DUP3 PUSH2 0x3725 JUMP JUMPDEST POP PUSH1 0x20 DUP3 ADD MLOAD PUSH2 0x375B PUSH1 0x20 DUP6 ADD DUP3 PUSH2 0x3725 JUMP JUMPDEST POP PUSH1 0x40 DUP3 ADD MLOAD PUSH2 0x376E PUSH1 0x40 DUP6 ADD DUP3 PUSH2 0x3725 JUMP JUMPDEST POP PUSH1 0x60 DUP3 ADD MLOAD PUSH2 0x3781 PUSH1 0x60 DUP6 ADD DUP3 PUSH2 0x3725 JUMP JUMPDEST POP POP POP POP JUMP JUMPDEST PUSH0 PUSH1 0x80 DUP3 ADD SWAP1 POP PUSH2 0x379A PUSH0 DUP4 ADD DUP5 PUSH2 0x3734 JUMP JUMPDEST SWAP3 SWAP2 POP POP JUMP JUMPDEST PUSH0 DUP2 MLOAD SWAP1 POP PUSH2 0x37AE DUP2 PUSH2 0x2CF3 JUMP JUMPDEST SWAP3 SWAP2 POP POP JUMP JUMPDEST PUSH0 DUP1 PUSH1 0x40 DUP4 DUP6 SUB SLT ISZERO PUSH2 0x37CA JUMPI PUSH2 0x37C9 PUSH2 0x2C6A JUMP JUMPDEST JUMPDEST PUSH0 PUSH2 0x37D7 DUP6 DUP3 DUP7 ADD PUSH2 0x37A0 JUMP JUMPDEST SWAP3 POP POP PUSH1 0x20 PUSH2 0x37E8 DUP6 DUP3 DUP7 ADD PUSH2 0x37A0 JUMP JUMPDEST SWAP2 POP POP SWAP3 POP SWAP3 SWAP1 POP JUMP JUMPDEST PUSH0 DUP2 SWAP1 POP SWAP2 SWAP1 POP JUMP JUMPDEST PUSH0 PUSH2 0x3815 PUSH2 0x3810 PUSH2 0x380B DUP5 PUSH2 0x37F2 JUMP JUMPDEST PUSH2 0x2DE9 JUMP JUMPDEST PUSH2 0x30B7 JUMP JUMPDEST SWAP1 POP SWAP2 SWAP1 POP JUMP JUMPDEST PUSH2 0x3825 DUP2 PUSH2 0x37FB JUMP JUMPDEST DUP3 MSTORE POP POP JUMP JUMPDEST PUSH0 PUSH1 0x40 DUP3 ADD SWAP1 POP PUSH2 0x383E PUSH0 DUP4 ADD DUP6 PUSH2 0x381C JUMP JUMPDEST PUSH2 0x384B PUSH1 0x20 DUP4 ADD DUP5 PUSH2 0x2C42 JUMP JUMPDEST SWAP4 SWAP3 POP POP POP JUMP INVALID LOG2 PUSH5 0x6970667358 0x22 SLT KECCAK256 0xEA 0xEB 0xB1 0xE3 DUP8 0x2C JUMP 0xC4 CREATE MULMOD DUP6 SGT 0xC5 ADDRESS LOG1 GT DUP14 0xD5 MSTORE8 0xD SHR RETURNDATACOPY 0xF7 0xB7 PUSH22 0xEBE10673C1501B64736F6C634300081A003300000000 "
		},
		"gasEstimates": {
			"creation": {
				"codeDepositCost": "2894400",
				"executionCost": "3167",
				"totalCost": "2897567"
			},
			"external": {
				"CCFL()": "2575",
				"borrow(uint256,uint256,address)": "infinite",
				"debt(uint256)": "infinite",
				"getCurrentLoan(uint256)": "infinite",
				"getCurrentRate()": "infinite",
				"getDebtPool()": "infinite",
				"getMaxWidthdraw()": "infinite",
				"getRemainingPool()": "2477",
				"getTotalSupply()": "infinite",
				"initialize(address,address)": "infinite",
				"lenders(uint256)": "4967",
				"liquidatePenalty(uint256)": "infinite",
				"loans(uint256)": "infinite",
				"remainingPool()": "2536",
				"repay(uint256,uint256)": "infinite",
				"reserve()": "infinite",
				"setCCFL(address)": "27017",
				"share(address)": "2892",
				"stableCoinAddress()": "infinite",
				"supply(uint256)": "infinite",
				"totalDebt()": "2535",
				"totalLiquidity()": "2471",
				"totalSupply()": "2493",
				"withdraw(uint256)": "infinite",
				"withdrawLoan(address,uint256)": "infinite"
			},
			"internal": {
				"_updateIndexes(struct DataTypes.ReserveCache memory)": "infinite",
				"cache()": "infinite",
				"updateInterestRates(uint256,uint256)": "infinite",
				"updateState(struct DataTypes.ReserveCache memory)": "infinite"
			}
		},
		"methodIdentifiers": {
			"CCFL()": "3b4675a7",
			"borrow(uint256,uint256,address)": "d6bda0c0",
			"debt(uint256)": "1e0029c8",
			"getCurrentLoan(uint256)": "a52f38d1",
			"getCurrentRate()": "f7fb07b0",
			"getDebtPool()": "03ec357f",
			"getMaxWidthdraw()": "a9f808b8",
			"getRemainingPool()": "3b24cc21",
			"getTotalSupply()": "c4e41b22",
			"initialize(address,address)": "485cc955",
			"lenders(uint256)": "929eea21",
			"liquidatePenalty(uint256)": "57379102",
			"loans(uint256)": "e1ec3c68",
			"remainingPool()": "b14d37c0",
			"repay(uint256,uint256)": "d8aed145",
			"reserve()": "cd3293de",
			"setCCFL(address)": "8ac1b775",
			"share(address)": "1877bb5c",
			"stableCoinAddress()": "982aae46",
			"supply(uint256)": "35403023",
			"totalDebt()": "fc7b9c18",
			"totalLiquidity()": "15770f92",
			"totalSupply()": "18160ddd",
			"withdraw(uint256)": "2e1a7d4d",
			"withdrawLoan(address,uint256)": "ec7be39d"
		}
	},
	"abi": [
		{
			"inputs": [],
			"name": "InvalidInitialization",
			"type": "error"
		},
		{
			"inputs": [],
			"name": "NotInitializing",
			"type": "error"
		},
		{
			"inputs": [
				{
					"internalType": "uint8",
					"name": "bits",
					"type": "uint8"
				},
				{
					"internalType": "uint256",
					"name": "value",
					"type": "uint256"
				}
			],
			"name": "SafeCastOverflowedUintDowncast",
			"type": "error"
		},
		{
			"anonymous": false,
			"inputs": [
				{
					"indexed": false,
					"internalType": "uint256",
					"name": "loanId",
					"type": "uint256"
				},
				{
					"indexed": false,
					"internalType": "uint256",
					"name": "amount",
					"type": "uint256"
				},
				{
					"indexed": false,
					"internalType": "address",
					"name": "borrower",
					"type": "address"
				},
				{
					"indexed": false,
					"internalType": "uint256",
					"name": "when",
					"type": "uint256"
				}
			],
			"name": "CloseLoan",
			"type": "event"
		},
		{
			"anonymous": false,
			"inputs": [
				{
					"indexed": false,
					"internalType": "address",
					"name": "user",
					"type": "address"
				},
				{
					"indexed": false,
					"internalType": "uint256",
					"name": "amount",
					"type": "uint256"
				},
				{
					"indexed": false,
					"internalType": "uint256",
					"name": "when",
					"type": "uint256"
				}
			],
			"name": "Deposit",
			"type": "event"
		},
		{
			"anonymous": false,
			"inputs": [
				{
					"indexed": false,
					"internalType": "uint64",
					"name": "version",
					"type": "uint64"
				}
			],
			"name": "Initialized",
			"type": "event"
		},
		{
			"anonymous": false,
			"inputs": [
				{
					"indexed": false,
					"internalType": "address",
					"name": "user",
					"type": "address"
				},
				{
					"indexed": false,
					"internalType": "uint256",
					"name": "amount",
					"type": "uint256"
				},
				{
					"indexed": false,
					"internalType": "uint256",
					"name": "when",
					"type": "uint256"
				}
			],
			"name": "Withdraw",
			"type": "event"
		},
		{
			"anonymous": false,
			"inputs": [
				{
					"indexed": false,
					"internalType": "address",
					"name": "user",
					"type": "address"
				},
				{
					"indexed": false,
					"internalType": "uint256",
					"name": "amount",
					"type": "uint256"
				},
				{
					"indexed": false,
					"internalType": "uint256",
					"name": "when",
					"type": "uint256"
				}
			],
			"name": "WithdrawLoan",
			"type": "event"
		},
		{
			"inputs": [],
			"name": "CCFL",
			"outputs": [
				{
					"internalType": "address",
					"name": "",
					"type": "address"
				}
			],
			"stateMutability": "view",
			"type": "function"
		},
		{
			"inputs": [
				{
					"internalType": "uint256",
					"name": "_loanId",
					"type": "uint256"
				},
				{
					"internalType": "uint256",
					"name": "_amount",
					"type": "uint256"
				},
				{
					"internalType": "address",
					"name": "_borrower",
					"type": "address"
				}
			],
			"name": "borrow",
			"outputs": [],
			"stateMutability": "nonpayable",
			"type": "function"
		},
		{
			"inputs": [
				{
					"internalType": "uint256",
					"name": "",
					"type": "uint256"
				}
			],
			"name": "debt",
			"outputs": [
				{
					"internalType": "uint256",
					"name": "",
					"type": "uint256"
				}
			],
			"stateMutability": "view",
			"type": "function"
		},
		{
			"inputs": [
				{
					"internalType": "uint256",
					"name": "_loanId",
					"type": "uint256"
				}
			],
			"name": "getCurrentLoan",
			"outputs": [
				{
					"internalType": "uint256",
					"name": "",
					"type": "uint256"
				}
			],
			"stateMutability": "view",
			"type": "function"
		},
		{
			"inputs": [],
			"name": "getCurrentRate",
			"outputs": [
				{
					"internalType": "uint256",
					"name": "",
					"type": "uint256"
				},
				{
					"internalType": "uint256",
					"name": "",
					"type": "uint256"
				},
				{
					"internalType": "uint256",
					"name": "",
					"type": "uint256"
				},
				{
					"internalType": "uint256",
					"name": "",
					"type": "uint256"
				}
			],
			"stateMutability": "view",
			"type": "function"
		},
		{
			"inputs": [],
			"name": "getDebtPool",
			"outputs": [
				{
					"internalType": "uint256",
					"name": "amount",
					"type": "uint256"
				}
			],
			"stateMutability": "view",
			"type": "function"
		},
		{
			"inputs": [],
			"name": "getMaxWidthdraw",
			"outputs": [
				{
					"internalType": "uint256",
					"name": "",
					"type": "uint256"
				}
			],
			"stateMutability": "view",
			"type": "function"
		},
		{
			"inputs": [],
			"name": "getRemainingPool",
			"outputs": [
				{
					"internalType": "uint256",
					"name": "amount",
					"type": "uint256"
				}
			],
			"stateMutability": "view",
			"type": "function"
		},
		{
			"inputs": [],
			"name": "getTotalSupply",
			"outputs": [
				{
					"internalType": "uint256",
					"name": "",
					"type": "uint256"
				}
			],
			"stateMutability": "view",
			"type": "function"
		},
		{
			"inputs": [
				{
					"internalType": "contract IERC20Standard",
					"name": "_stableCoinAddress",
					"type": "address"
				},
				{
					"internalType": "address",
					"name": "interestRateStrategyAddress",
					"type": "address"
				}
			],
			"name": "initialize",
			"outputs": [],
			"stateMutability": "nonpayable",
			"type": "function"
		},
		{
			"inputs": [
				{
					"internalType": "uint256",
					"name": "",
					"type": "uint256"
				}
			],
			"name": "lenders",
			"outputs": [
				{
					"internalType": "address",
					"name": "",
					"type": "address"
				}
			],
			"stateMutability": "view",
			"type": "function"
		},
		{
			"inputs": [
				{
					"internalType": "uint256",
					"name": "_amount",
					"type": "uint256"
				}
			],
			"name": "liquidatePenalty",
			"outputs": [],
			"stateMutability": "nonpayable",
			"type": "function"
		},
		{
			"inputs": [
				{
					"internalType": "uint256",
					"name": "",
					"type": "uint256"
				}
			],
			"name": "loans",
			"outputs": [
				{
					"internalType": "uint256",
					"name": "loanId",
					"type": "uint256"
				},
				{
					"internalType": "bool",
					"name": "isPaid",
					"type": "bool"
				},
				{
					"internalType": "uint256",
					"name": "amount",
					"type": "uint256"
				},
				{
					"internalType": "bool",
					"name": "isClosed",
					"type": "bool"
				},
				{
					"internalType": "bool",
					"name": "isLocked",
					"type": "bool"
				},
				{
					"internalType": "address",
					"name": "borrower",
					"type": "address"
				}
			],
			"stateMutability": "view",
			"type": "function"
		},
		{
			"inputs": [],
			"name": "remainingPool",
			"outputs": [
				{
					"internalType": "uint256",
					"name": "",
					"type": "uint256"
				}
			],
			"stateMutability": "view",
			"type": "function"
		},
		{
			"inputs": [
				{
					"internalType": "uint256",
					"name": "_loanId",
					"type": "uint256"
				},
				{
					"internalType": "uint256",
					"name": "_amount",
					"type": "uint256"
				}
			],
			"name": "repay",
			"outputs": [],
			"stateMutability": "nonpayable",
			"type": "function"
		},
		{
			"inputs": [],
			"name": "reserve",
			"outputs": [
				{
					"internalType": "uint128",
					"name": "liquidityIndex",
					"type": "uint128"
				},
				{
					"internalType": "uint128",
					"name": "currentLiquidityRate",
					"type": "uint128"
				},
				{
					"internalType": "uint128",
					"name": "variableBorrowIndex",
					"type": "uint128"
				},
				{
					"internalType": "uint128",
					"name": "currentVariableBorrowRate",
					"type": "uint128"
				},
				{
					"internalType": "uint40",
					"name": "lastUpdateTimestamp",
					"type": "uint40"
				},
				{
					"internalType": "uint16",
					"name": "id",
					"type": "uint16"
				},
				{
					"internalType": "address",
					"name": "interestRateStrategyAddress",
					"type": "address"
				}
			],
			"stateMutability": "view",
			"type": "function"
		},
		{
			"inputs": [
				{
					"internalType": "address",
					"name": "_ccfl",
					"type": "address"
				}
			],
			"name": "setCCFL",
			"outputs": [],
			"stateMutability": "nonpayable",
			"type": "function"
		},
		{
			"inputs": [
				{
					"internalType": "address",
					"name": "",
					"type": "address"
				}
			],
			"name": "share",
			"outputs": [
				{
					"internalType": "uint256",
					"name": "",
					"type": "uint256"
				}
			],
			"stateMutability": "view",
			"type": "function"
		},
		{
			"inputs": [],
			"name": "stableCoinAddress",
			"outputs": [
				{
					"internalType": "contract IERC20Standard",
					"name": "",
					"type": "address"
				}
			],
			"stateMutability": "view",
			"type": "function"
		},
		{
			"inputs": [
				{
					"internalType": "uint256",
					"name": "_amount",
					"type": "uint256"
				}
			],
			"name": "supply",
			"outputs": [],
			"stateMutability": "nonpayable",
			"type": "function"
		},
		{
			"inputs": [],
			"name": "totalDebt",
			"outputs": [
				{
					"internalType": "uint256",
					"name": "",
					"type": "uint256"
				}
			],
			"stateMutability": "view",
			"type": "function"
		},
		{
			"inputs": [],
			"name": "totalLiquidity",
			"outputs": [
				{
					"internalType": "uint256",
					"name": "",
					"type": "uint256"
				}
			],
			"stateMutability": "view",
			"type": "function"
		},
		{
			"inputs": [],
			"name": "totalSupply",
			"outputs": [
				{
					"internalType": "uint256",
					"name": "",
					"type": "uint256"
				}
			],
			"stateMutability": "view",
			"type": "function"
		},
		{
			"inputs": [
				{
					"internalType": "uint256",
					"name": "_amount",
					"type": "uint256"
				}
			],
			"name": "withdraw",
			"outputs": [],
			"stateMutability": "nonpayable",
			"type": "function"
		},
		{
			"inputs": [
				{
					"internalType": "address",
					"name": "_receiver",
					"type": "address"
				},
				{
					"internalType": "uint256",
					"name": "_loanId",
					"type": "uint256"
				}
			],
			"name": "withdrawLoan",
			"outputs": [],
			"stateMutability": "nonpayable",
			"type": "function"
		},
		{
			"stateMutability": "payable",
			"type": "receive"
		}
	]
}