{
	"data": {
		"bytecode": {
			"linkReferences": {},
			"object": "6080604052348015600e575f80fd5b506151618061001c5f395ff3fe608060405260043610610212575f3560e01c80637871b06011610117578063c4e41b221161009f578063e3691c511161006e578063e3691c51146107ce578063ec7be39d146107f6578063f43050351461081e578063f7fb07b014610846578063fc7b9c181461087357610219565b8063c4e41b2214610707578063cd3293de14610731578063d8aed14514610761578063e1ec3c681461078957610219565b8063982aae46116100e6578063982aae46146106255780639b78dbfc1461064f578063a52f38d114610677578063b14d37c0146106b3578063b187bd26146106dd57610219565b80637871b0601461055d5780637f394031146105995780638ac1b775146105c1578063929eea21146105e957610219565b8063307936011161019a57806339cd7d6a1161016957806339cd7d6a1461047d5780633b24cc21146104a55780633b4675a7146104cf57806347786d37146104f957806370a082311461052157610219565b806330793601146103c75780633540302314610403578063355274ea1461042b5780633870862b1461045557610219565b80631794bb3c116101e15780631794bb3c146102d557806318160ddd146102fd5780631877bb5c146103275780631e0029c8146103635780632e1a7d4d1461039f57610219565b806303ec357f1461021d57806313e7c9d81461024757806315770f921461028357806316c38b3c146102ad57610219565b3661021957005b5f80fd5b348015610228575f80fd5b5061023161089d565b60405161023e9190614290565b60405180910390f35b348015610252575f80fd5b5061026d60048036038101906102689190614314565b6109f9565b60405161027a9190614359565b60405180910390f35b34801561028e575f80fd5b50610297610a15565b6040516102a49190614290565b60405180910390f35b3480156102b8575f80fd5b506102d360048036038101906102ce919061439c565b610a1b565b005b3480156102e0575f80fd5b506102fb60048036038101906102f6919061442c565b610b00565b005b348015610308575f80fd5b50610311610e26565b60405161031e9190614290565b60405180910390f35b348015610332575f80fd5b5061034d60048036038101906103489190614314565b610e2c565b60405161035a9190614290565b60405180910390f35b34801561036e575f80fd5b506103896004803603810190610384919061447c565b610e41565b6040516103969190614290565b60405180910390f35b3480156103aa575f80fd5b506103c560048036038101906103c0919061447c565b610e56565b005b3480156103d2575f80fd5b506103ed60048036038101906103e89190614314565b6113d8565b6040516103fa9190614290565b60405180910390f35b34801561040e575f80fd5b506104296004803603810190610424919061447c565b6113ed565b005b348015610436575f80fd5b5061043f6118f8565b60405161044c9190614290565b60405180910390f35b348015610460575f80fd5b5061047b600480360381019061047691906144a7565b6118fe565b005b348015610488575f80fd5b506104a3600480360381019061049e9190614314565b611cfe565b005b3480156104b0575f80fd5b506104b9611e0d565b6040516104c69190614290565b60405180910390f35b3480156104da575f80fd5b506104e3611e16565b6040516104f0919061451a565b60405180910390f35b348015610504575f80fd5b5061051f600480360381019061051a919061447c565b611e3b565b005b34801561052c575f80fd5b5061054760048036038101906105429190614314565b611f0d565b6040516105549190614290565b60405180910390f35b348015610568575f80fd5b50610583600480360381019061057e9190614314565b612046565b6040516105909190614290565b60405180910390f35b3480156105a4575f80fd5b506105bf60048036038101906105ba9190614533565b61208c565b005b3480156105cc575f80fd5b506105e760048036038101906105e29190614314565b6122bd565b005b3480156105f4575f80fd5b5061060f600480360381019061060a919061447c565b6123c8565b60405161061c919061451a565b60405180910390f35b348015610630575f80fd5b50610639612403565b60405161064691906145cc565b60405180910390f35b34801561065a575f80fd5b506106756004803603810190610670919061447c565b612428565b005b348015610682575f80fd5b5061069d6004803603810190610698919061447c565b61258b565b6040516106aa9190614290565b60405180910390f35b3480156106be575f80fd5b506106c76126f8565b6040516106d49190614290565b60405180910390f35b3480156106e8575f80fd5b506106f16126fe565b6040516106fe9190614359565b60405180910390f35b348015610712575f80fd5b5061071b612711565b6040516107289190614290565b60405180910390f35b34801561073c575f80fd5b5061074561283f565b604051610758979695949392919061464a565b60405180910390f35b34801561076c575f80fd5b5061078760048036038101906107829190614533565b612919565b005b348015610794575f80fd5b506107af60048036038101906107aa919061447c565b613077565b6040516107c59a999897969594939291906146b7565b60405180910390f35b3480156107d9575f80fd5b506107f460048036038101906107ef9190614751565b613145565b005b348015610801575f80fd5b5061081c6004803603810190610817919061478f565b613304565b005b348015610829575f80fd5b50610844600480360381019061083f91906149dd565b6135da565b005b348015610851575f80fd5b5061085a613746565b60405161086a9493929190614a53565b60405180910390f35b34801561087e575f80fd5b50610887613830565b6040516108949190614290565b60405180910390f35b5f806108a7613836565b90505f6108bc8260c001518360e00151613987565b905061090360056001015f9054906101000a90046fffffffffffffffffffffffffffffffff166fffffffffffffffffffffffffffffffff168261399b90919063ffffffff16565b8260800181815250506b033b2e3c9fd0803ce80000006fffffffffffffffffffffffffffffffff1660015f9054906101000a900473ffffffffffffffffffffffffffffffffffffffff1673ffffffffffffffffffffffffffffffffffffffff1663313ce5676040518163ffffffff1660e01b8152600401602060405180830381865afa158015610995573d5f803e3d5ffd5b505050506040513d601f19601f820116820180604052508101906109b99190614acc565b600a6109c59190614c53565b6109de8460800151600c5461399b90919063ffffffff16565b6109e89190614c9d565b6109f29190614d0b565b9250505090565b5f602052805f5260405f205f915054906101000a900460ff1681565b600b5481565b3373ffffffffffffffffffffffffffffffffffffffff16600e5f9054906101000a900473ffffffffffffffffffffffffffffffffffffffff1673ffffffffffffffffffffffffffffffffffffffff16146040518060400160405280600181526020017f320000000000000000000000000000000000000000000000000000000000000081525090610ae2576040517f08c379a0000000000000000000000000000000000000000000000000000000008152600401610ad99190614d9b565b60405180910390fd5b5080600e60146101000a81548160ff02191690831515021790555050565b5f610b096139e3565b90505f815f0160089054906101000a900460ff161590505f825f015f9054906101000a900467ffffffffffffffff1690505f808267ffffffffffffffff16148015610b515750825b90505f60018367ffffffffffffffff16148015610b8457505f3073ffffffffffffffffffffffffffffffffffffffff163b145b905081158015610b92575080155b15610bc9576040517ff92ee8a900000000000000000000000000000000000000000000000000000000815260040160405180910390fd5b6001855f015f6101000a81548167ffffffffffffffff021916908367ffffffffffffffff1602179055508315610c16576001855f0160086101000a81548160ff0219169083151502179055505b8760015f6101000a81548173ffffffffffffffffffffffffffffffffffffffff021916908373ffffffffffffffffffffffffffffffffffffffff16021790555086600560020160076101000a81548173ffffffffffffffffffffffffffffffffffffffff021916908373ffffffffffffffffffffffffffffffffffffffff1602179055506b033b2e3c9fd0803ce800000060055f015f6101000a8154816fffffffffffffffffffffffffffffffff02191690836fffffffffffffffffffffffffffffffff1602179055506b033b2e3c9fd0803ce800000060056001015f6101000a8154816fffffffffffffffffffffffffffffffff02191690836fffffffffffffffffffffffffffffffff16021790555033600e5f6101000a81548173ffffffffffffffffffffffffffffffffffffffff021916908373ffffffffffffffffffffffffffffffffffffffff16021790555060015f803373ffffffffffffffffffffffffffffffffffffffff1673ffffffffffffffffffffffffffffffffffffffff1681526020019081526020015f205f6101000a81548160ff021916908315150217905550856010819055508315610e1c575f855f0160086101000a81548160ff0219169083151502179055507fc7f505b2f371ae2175ee4913f4499e1f2633a7b5936321eed1cdaeb6115181d26001604051610e139190614e07565b60405180910390a15b5050505050505050565b600a5481565b6008602052805f5260405f205f915090505481565b6009602052805f5260405f205f915090505481565b5f1515600e60149054906101000a900460ff161515146040518060400160405280600281526020017f323100000000000000000000000000000000000000000000000000000000000081525090610ee3576040517f08c379a0000000000000000000000000000000000000000000000000000000008152600401610eda9190614d9b565b60405180910390fd5b505f610eed613836565b9050610ef881613a0a565b5f60015f9054906101000a900473ffffffffffffffffffffffffffffffffffffffff1673ffffffffffffffffffffffffffffffffffffffff1663313ce5676040518163ffffffff1660e01b8152600401602060405180830381865afa158015610f63573d5f803e3d5ffd5b505050506040513d601f19601f82011682018060405250810190610f879190614acc565b600a610f939190614c53565b6b033b2e3c9fd0803ce80000006fffffffffffffffffffffffffffffffff1684610fbd9190614c9d565b610fc79190614d0b565b9050610fd35f82613a67565b5f61101860055f015f9054906101000a90046fffffffffffffffffffffffffffffffff166fffffffffffffffffffffffffffffffff1683613c5a90919063ffffffff16565b90505f8160085f3373ffffffffffffffffffffffffffffffffffffffff1673ffffffffffffffffffffffffffffffffffffffff1681526020019081526020015f20546110649190614e20565b905081600a5f8282546110779190614e20565b9250508190555081600b5f82825461108f9190614e20565b925050819055505f8110156040518060400160405280600181526020017f380000000000000000000000000000000000000000000000000000000000000081525090611111576040517f08c379a00000000000000000000000000000000000000000000000000000000081526004016111089190614d9b565b60405180910390fd5b508060085f3373ffffffffffffffffffffffffffffffffffffffff1673ffffffffffffffffffffffffffffffffffffffff1681526020019081526020015f208190555084600d5f8282546111659190614e20565b9250508190555060015f9054906101000a900473ffffffffffffffffffffffffffffffffffffffff1673ffffffffffffffffffffffffffffffffffffffff1663a9059cbb33876040518363ffffffff1660e01b81526004016111c8929190614e53565b6020604051808303815f875af11580156111e4573d5f803e3d5ffd5b505050506040513d601f19601f820116820180604052508101906112089190614e8e565b5084600f5f3373ffffffffffffffffffffffffffffffffffffffff1673ffffffffffffffffffffffffffffffffffffffff1681526020019081526020015f205411156112a65784600f5f3373ffffffffffffffffffffffffffffffffffffffff1673ffffffffffffffffffffffffffffffffffffffff1681526020019081526020015f205f82825461129a9190614e20565b925050819055506112e9565b5f600f5f3373ffffffffffffffffffffffffffffffffffffffff1673ffffffffffffffffffffffffffffffffffffffff1681526020019081526020015f20819055505b60015f9054906101000a900473ffffffffffffffffffffffffffffffffffffffff1673ffffffffffffffffffffffffffffffffffffffff163073ffffffffffffffffffffffffffffffffffffffff163373ffffffffffffffffffffffffffffffffffffffff167f173401e3c9626102fe861ca7ddb4665d741deebad547125c24038cafa9345db28860085f3373ffffffffffffffffffffffffffffffffffffffff1673ffffffffffffffffffffffffffffffffffffffff1681526020019081526020015f2054600a54600b54600d546040516113c9959493929190614eb9565b60405180910390a45050505050565b600f602052805f5260405f205f915090505481565b5f1515600e60149054906101000a900460ff161515146040518060400160405280600281526020017f32310000000000000000000000000000000000000000000000000000000000008152509061147a576040517f08c379a00000000000000000000000000000000000000000000000000000000081526004016114719190614d9b565b60405180910390fd5b5060105481611487612711565b6114919190614f0a565b11156040518060400160405280600281526020017f32330000000000000000000000000000000000000000000000000000000000008152509061150a576040517f08c379a00000000000000000000000000000000000000000000000000000000081526004016115019190614d9b565b60405180910390fd5b505f611514613836565b905061151f81613a0a565b5f60015f9054906101000a900473ffffffffffffffffffffffffffffffffffffffff1673ffffffffffffffffffffffffffffffffffffffff1663313ce5676040518163ffffffff1660e01b8152600401602060405180830381865afa15801561158a573d5f803e3d5ffd5b505050506040513d601f19601f820116820180604052508101906115ae9190614acc565b600a6115ba9190614c53565b6b033b2e3c9fd0803ce80000006fffffffffffffffffffffffffffffffff16846115e49190614c9d565b6115ee9190614d0b565b90506115fa815f613a67565b5f61163f60055f015f9054906101000a90046fffffffffffffffffffffffffffffffff166fffffffffffffffffffffffffffffffff1683613c5a90919063ffffffff16565b90505f8160085f3373ffffffffffffffffffffffffffffffffffffffff1673ffffffffffffffffffffffffffffffffffffffff1681526020019081526020015f205461168b9190614f0a565b905081600a5f82825461169e9190614f0a565b9250508190555081600b5f8282546116b69190614f0a565b925050819055508060085f3373ffffffffffffffffffffffffffffffffffffffff1673ffffffffffffffffffffffffffffffffffffffff1681526020019081526020015f208190555084600d5f8282546117109190614f0a565b9250508190555060015f9054906101000a900473ffffffffffffffffffffffffffffffffffffffff1673ffffffffffffffffffffffffffffffffffffffff166323b872dd3330886040518463ffffffff1660e01b815260040161177593929190614f3d565b6020604051808303815f875af1158015611791573d5f803e3d5ffd5b505050506040513d601f19601f820116820180604052508101906117b59190614e8e565b5084600f5f3373ffffffffffffffffffffffffffffffffffffffff1673ffffffffffffffffffffffffffffffffffffffff1681526020019081526020015f205f8282546118029190614f0a565b9250508190555060015f9054906101000a900473ffffffffffffffffffffffffffffffffffffffff1673ffffffffffffffffffffffffffffffffffffffff163073ffffffffffffffffffffffffffffffffffffffff163373ffffffffffffffffffffffffffffffffffffffff167fac71e4358c08cef1a5335ac1c1d79f8eea0a3bd10f01a4259308137ebc63d76a8860085f3373ffffffffffffffffffffffffffffffffffffffff1673ffffffffffffffffffffffffffffffffffffffff1681526020019081526020015f2054600a54600b54600d546040516118e9959493929190614eb9565b60405180910390a45050505050565b60105481565b3373ffffffffffffffffffffffffffffffffffffffff1660045f9054906101000a900473ffffffffffffffffffffffffffffffffffffffff1673ffffffffffffffffffffffffffffffffffffffff16146040518060400160405280600281526020017f3133000000000000000000000000000000000000000000000000000000000000815250906119c5576040517f08c379a00000000000000000000000000000000000000000000000000000000081526004016119bc9190614d9b565b60405180910390fd5b505f1515600e60149054906101000a900460ff161515146040518060400160405280600281526020017f323100000000000000000000000000000000000000000000000000000000000081525090611a53576040517f08c379a0000000000000000000000000000000000000000000000000000000008152600401611a4a9190614d9b565b60405180910390fd5b505f611a5d613836565b9050611a6881613a0a565b5f60015f9054906101000a900473ffffffffffffffffffffffffffffffffffffffff1673ffffffffffffffffffffffffffffffffffffffff1663313ce5676040518163ffffffff1660e01b8152600401602060405180830381865afa158015611ad3573d5f803e3d5ffd5b505050506040513d601f19601f82011682018060405250810190611af79190614acc565b600a611b039190614c53565b6b033b2e3c9fd0803ce80000006fffffffffffffffffffffffffffffffff1686611b2d9190614c9d565b611b379190614d0b565b90505f611b51836080015183613c5a90919063ffffffff16565b90505f8160095f8a81526020019081526020015f2054611b719190614f0a565b905081600c5f828254611b849190614f0a565b92505081905550600d548711156040518060400160405280600281526020017f313500000000000000000000000000000000000000000000000000000000000081525090611c08576040517f08c379a0000000000000000000000000000000000000000000000000000000008152600401611bff9190614d9b565b60405180910390fd5b505f60035f8a81526020019081526020015f2090508160095f8b81526020019081526020015f208190555088815f0181905550878160020181905550868160030160016101000a81548173ffffffffffffffffffffffffffffffffffffffff021916908373ffffffffffffffffffffffffffffffffffffffff160217905550858160040160156101000a81548160ff021916908315150217905550611cad5f85613a67565b611cc4856040015185613c5a90919063ffffffff16565b600b5f828254611cd49190614e20565b9250508190555087600d5f828254611cec9190614e20565b92505081905550505050505050505050565b600115155f803373ffffffffffffffffffffffffffffffffffffffff1673ffffffffffffffffffffffffffffffffffffffff1681526020019081526020015f205f9054906101000a900460ff161515146040518060400160405280600281526020017f313800000000000000000000000000000000000000000000000000000000000081525090611dc5576040517f08c379a0000000000000000000000000000000000000000000000000000000008152600401611dbc9190614d9b565b60405180910390fd5b5080600560020160076101000a81548173ffffffffffffffffffffffffffffffffffffffff021916908373ffffffffffffffffffffffffffffffffffffffff16021790555050565b5f600d54905090565b60045f9054906101000a900473ffffffffffffffffffffffffffffffffffffffff1681565b600115155f803373ffffffffffffffffffffffffffffffffffffffff1673ffffffffffffffffffffffffffffffffffffffff1681526020019081526020015f205f9054906101000a900460ff161515146040518060400160405280600281526020017f313800000000000000000000000000000000000000000000000000000000000081525090611f02576040517f08c379a0000000000000000000000000000000000000000000000000000000008152600401611ef99190614d9b565b60405180910390fd5b508060108190555050565b5f60015f9054906101000a900473ffffffffffffffffffffffffffffffffffffffff1673ffffffffffffffffffffffffffffffffffffffff1663313ce5676040518163ffffffff1660e01b8152600401602060405180830381865afa158015611f78573d5f803e3d5ffd5b505050506040513d601f19601f82011682018060405250810190611f9c9190614acc565b601b611fa89190614f72565b600a611fb49190614c53565b61203560055f015f9054906101000a90046fffffffffffffffffffffffffffffffff166fffffffffffffffffffffffffffffffff1660085f8673ffffffffffffffffffffffffffffffffffffffff1673ffffffffffffffffffffffffffffffffffffffff1681526020019081526020015f205461399b90919063ffffffff16565b61203f9190614d0b565b9050919050565b5f600f5f8373ffffffffffffffffffffffffffffffffffffffff1673ffffffffffffffffffffffffffffffffffffffff1681526020019081526020015f20549050919050565b3373ffffffffffffffffffffffffffffffffffffffff1660045f9054906101000a900473ffffffffffffffffffffffffffffffffffffffff1673ffffffffffffffffffffffffffffffffffffffff16146040518060400160405280600281526020017f313300000000000000000000000000000000000000000000000000000000000081525090612153576040517f08c379a000000000000000000000000000000000000000000000000000000000815260040161214a9190614d9b565b60405180910390fd5b505f1515600e60149054906101000a900460ff161515146040518060400160405280600281526020017f3231000000000000000000000000000000000000000000000000000000000000815250906121e1576040517f08c379a00000000000000000000000000000000000000000000000000000000081526004016121d89190614d9b565b60405180910390fd5b505f151560035f8481526020019081526020015f2060030160159054906101000a900460ff161515146040518060400160405280600281526020017f313700000000000000000000000000000000000000000000000000000000000081525090612281576040517f08c379a00000000000000000000000000000000000000000000000000000000081526004016122789190614d9b565b60405180910390fd5b5061228c8133613c9e565b600160035f8481526020019081526020015f2060030160156101000a81548160ff0219169083151502179055505050565b600115155f803373ffffffffffffffffffffffffffffffffffffffff1673ffffffffffffffffffffffffffffffffffffffff1681526020019081526020015f205f9054906101000a900460ff161515146040518060400160405280600281526020017f313800000000000000000000000000000000000000000000000000000000000081525090612384576040517f08c379a000000000000000000000000000000000000000000000000000000000815260040161237b9190614d9b565b60405180910390fd5b508060045f6101000a81548173ffffffffffffffffffffffffffffffffffffffff021916908373ffffffffffffffffffffffffffffffffffffffff16021790555050565b600281815481106123d7575f80fd5b905f5260205f20015f915054906101000a900473ffffffffffffffffffffffffffffffffffffffff1681565b60015f9054906101000a900473ffffffffffffffffffffffffffffffffffffffff1681565b3373ffffffffffffffffffffffffffffffffffffffff1660045f9054906101000a900473ffffffffffffffffffffffffffffffffffffffff1673ffffffffffffffffffffffffffffffffffffffff16146040518060400160405280600281526020017f3133000000000000000000000000000000000000000000000000000000000000815250906124ef576040517f08c379a00000000000000000000000000000000000000000000000000000000081526004016124e69190614d9b565b60405180910390fd5b505f1515600e60149054906101000a900460ff161515146040518060400160405280600281526020017f32310000000000000000000000000000000000000000000000000000000000008152509061257d576040517f08c379a00000000000000000000000000000000000000000000000000000000081526004016125749190614d9b565b60405180910390fd5b506125888133613c9e565b50565b5f80612595613836565b90505f6125aa8260c001518360e00151613987565b90506125f160056001015f9054906101000a90046fffffffffffffffffffffffffffffffff166fffffffffffffffffffffffffffffffff168261399b90919063ffffffff16565b8260800181815250506b033b2e3c9fd0803ce80000006fffffffffffffffffffffffffffffffff1660015f9054906101000a900473ffffffffffffffffffffffffffffffffffffffff1673ffffffffffffffffffffffffffffffffffffffff1663313ce5676040518163ffffffff1660e01b8152600401602060405180830381865afa158015612683573d5f803e3d5ffd5b505050506040513d601f19601f820116820180604052508101906126a79190614acc565b600a6126b39190614c53565b6126db846080015160095f8981526020019081526020015f205461399b90919063ffffffff16565b6126e59190614c9d565b6126ef9190614d0b565b92505050919050565b600d5481565b600e60149054906101000a900460ff1681565b5f8061271b613836565b90505f6127308260a001518360e00151613ee0565b905061274982604001518261399b90919063ffffffff16565b8260400181815250506b033b2e3c9fd0803ce80000006fffffffffffffffffffffffffffffffff1660015f9054906101000a900473ffffffffffffffffffffffffffffffffffffffff1673ffffffffffffffffffffffffffffffffffffffff1663313ce5676040518163ffffffff1660e01b8152600401602060405180830381865afa1580156127db573d5f803e3d5ffd5b505050506040513d601f19601f820116820180604052508101906127ff9190614acc565b600a61280b9190614c53565b6128248460400151600a5461399b90919063ffffffff16565b61282e9190614c9d565b6128389190614d0b565b9250505090565b6005805f015f9054906101000a90046fffffffffffffffffffffffffffffffff1690805f0160109054906101000a90046fffffffffffffffffffffffffffffffff1690806001015f9054906101000a90046fffffffffffffffffffffffffffffffff16908060010160109054906101000a90046fffffffffffffffffffffffffffffffff1690806002015f9054906101000a900464ffffffffff16908060020160059054906101000a900461ffff16908060020160079054906101000a900473ffffffffffffffffffffffffffffffffffffffff16905087565b3373ffffffffffffffffffffffffffffffffffffffff1660045f9054906101000a900473ffffffffffffffffffffffffffffffffffffffff1673ffffffffffffffffffffffffffffffffffffffff16146040518060400160405280600281526020017f3133000000000000000000000000000000000000000000000000000000000000815250906129e0576040517f08c379a00000000000000000000000000000000000000000000000000000000081526004016129d79190614d9b565b60405180910390fd5b505f1515600e60149054906101000a900460ff161515146040518060400160405280600281526020017f323100000000000000000000000000000000000000000000000000000000000081525090612a6e576040517f08c379a0000000000000000000000000000000000000000000000000000000008152600401612a659190614d9b565b60405180910390fd5b505f151560035f8481526020019081526020015f206003015f9054906101000a900460ff161515146040518060400160405280600281526020017f313600000000000000000000000000000000000000000000000000000000000081525090612b0d576040517f08c379a0000000000000000000000000000000000000000000000000000000008152600401612b049190614d9b565b60405180910390fd5b505f612b17613836565b9050612b2281613a0a565b5f60015f9054906101000a900473ffffffffffffffffffffffffffffffffffffffff1673ffffffffffffffffffffffffffffffffffffffff1663313ce5676040518163ffffffff1660e01b8152600401602060405180830381865afa158015612b8d573d5f803e3d5ffd5b505050506040513d601f19601f82011682018060405250810190612bb19190614acc565b600a612bbd9190614c53565b6b033b2e3c9fd0803ce80000006fffffffffffffffffffffffffffffffff1684612be79190614c9d565b612bf19190614d0b565b90505f612c3960056001015f9054906101000a90046fffffffffffffffffffffffffffffffff166fffffffffffffffffffffffffffffffff1683613c5a90919063ffffffff16565b90508060095f8781526020019081526020015f205411612f105760095f8681526020019081526020015f2054600c5f828254612c759190614e20565b925050819055505f612cd360056001015f9054906101000a90046fffffffffffffffffffffffffffffffff166fffffffffffffffffffffffffffffffff1660095f8981526020019081526020015f205461399b90919063ffffffff16565b90505f6b033b2e3c9fd0803ce80000006fffffffffffffffffffffffffffffffff1660015f9054906101000a900473ffffffffffffffffffffffffffffffffffffffff1673ffffffffffffffffffffffffffffffffffffffff1663313ce5676040518163ffffffff1660e01b8152600401602060405180830381865afa158015612d5f573d5f803e3d5ffd5b505050506040513d601f19601f82011682018060405250810190612d839190614acc565b600a612d8f9190614c53565b83612d9a9190614c9d565b612da49190614d0b565b90505f60095f8981526020019081526020015f2081905550612dc6825f613a67565b612dee856040015160095f8a81526020019081526020015f2054613c5a90919063ffffffff16565b600b5f828254612dfe9190614f0a565b9250508190555080600d5f828254612e169190614f0a565b9250508190555060015f9054906101000a900473ffffffffffffffffffffffffffffffffffffffff1673ffffffffffffffffffffffffffffffffffffffff166323b872dd60045f9054906101000a900473ffffffffffffffffffffffffffffffffffffffff1630846040518463ffffffff1660e01b8152600401612e9c93929190614f3d565b6020604051808303815f875af1158015612eb8573d5f803e3d5ffd5b505050506040513d601f19601f82011682018060405250810190612edc9190614e8e565b50600160035f8981526020019081526020015f206003015f6101000a81548160ff0219169083151502179055505050613070565b5f8160095f8881526020019081526020015f2054612f2e9190614e20565b905081600c5f828254612f419190614e20565b925050819055508060095f8881526020019081526020015f2081905550612f68835f613a67565b612f7f846040015184613c5a90919063ffffffff16565b600b5f828254612f8f9190614f0a565b9250508190555084600d5f828254612fa79190614f0a565b9250508190555060015f9054906101000a900473ffffffffffffffffffffffffffffffffffffffff1673ffffffffffffffffffffffffffffffffffffffff166323b872dd60045f9054906101000a900473ffffffffffffffffffffffffffffffffffffffff1630886040518463ffffffff1660e01b815260040161302d93929190614f3d565b6020604051808303815f875af1158015613049573d5f803e3d5ffd5b505050506040513d601f19601f8201168201806040525081019061306d9190614e8e565b50505b5050505050565b6003602052805f5260405f205f91509050805f015490806001015f9054906101000a900460ff1690806002015490806003015f9054906101000a900460ff16908060030160019054906101000a900473ffffffffffffffffffffffffffffffffffffffff16908060030160159054906101000a900460ff1690806004015f9054906101000a900473ffffffffffffffffffffffffffffffffffffffff16908060040160149054906101000a900460ff16908060040160159054906101000a900460ff1690806005015490508a565b3373ffffffffffffffffffffffffffffffffffffffff16600e5f9054906101000a900473ffffffffffffffffffffffffffffffffffffffff1673ffffffffffffffffffffffffffffffffffffffff16146040518060400160405280600181526020017f32000000000000000000000000000000000000000000000000000000000000008152509061320c576040517f08c379a00000000000000000000000000000000000000000000000000000000081526004016132039190614d9b565b60405180910390fd5b508173ffffffffffffffffffffffffffffffffffffffff1663a9059cbb828473ffffffffffffffffffffffffffffffffffffffff166370a08231306040518263ffffffff1660e01b8152600401613263919061451a565b602060405180830381865afa15801561327e573d5f803e3d5ffd5b505050506040513d601f19601f820116820180604052508101906132a29190614fba565b6040518363ffffffff1660e01b81526004016132bf929190614e53565b6020604051808303815f875af11580156132db573d5f803e3d5ffd5b505050506040513d601f19601f820116820180604052508101906132ff9190614e8e565b505050565b3373ffffffffffffffffffffffffffffffffffffffff1660045f9054906101000a900473ffffffffffffffffffffffffffffffffffffffff1673ffffffffffffffffffffffffffffffffffffffff16146040518060400160405280600281526020017f3133000000000000000000000000000000000000000000000000000000000000815250906133cb576040517f08c379a00000000000000000000000000000000000000000000000000000000081526004016133c29190614d9b565b60405180910390fd5b505f1515600e60149054906101000a900460ff161515146040518060400160405280600281526020017f323100000000000000000000000000000000000000000000000000000000000081525090613459576040517f08c379a00000000000000000000000000000000000000000000000000000000081526004016134509190614d9b565b60405180910390fd5b505f151560035f8381526020019081526020015f206001015f9054906101000a900460ff161515146040518060400160405280600281526020017f3134000000000000000000000000000000000000000000000000000000000000815250906134f8576040517f08c379a00000000000000000000000000000000000000000000000000000000081526004016134ef9190614d9b565b60405180910390fd5b50600160035f8381526020019081526020015f206001015f6101000a81548160ff02191690831515021790555060015f9054906101000a900473ffffffffffffffffffffffffffffffffffffffff1673ffffffffffffffffffffffffffffffffffffffff1663a9059cbb8360035f8581526020019081526020015f20600201546040518363ffffffff1660e01b8152600401613595929190614e53565b6020604051808303815f875af11580156135b1573d5f803e3d5ffd5b505050506040513d601f19601f820116820180604052508101906135d59190614e8e565b505050565b3373ffffffffffffffffffffffffffffffffffffffff16600e5f9054906101000a900473ffffffffffffffffffffffffffffffffffffffff1673ffffffffffffffffffffffffffffffffffffffff16146040518060400160405280600181526020017f3200000000000000000000000000000000000000000000000000000000000000815250906136a1576040517f08c379a00000000000000000000000000000000000000000000000000000000081526004016136989190614d9b565b60405180910390fd5b505f5b8251811015613741578181815181106136c0576136bf614fe5565b5b60200260200101515f808584815181106136dd576136dc614fe5565b5b602002602001015173ffffffffffffffffffffffffffffffffffffffff1673ffffffffffffffffffffffffffffffffffffffff1681526020019081526020015f205f6101000a81548160ff02191690831515021790555080806001019150506136a4565b505050565b5f805f80600560010160109054906101000a90046fffffffffffffffffffffffffffffffff1660055f0160109054906101000a90046fffffffffffffffffffffffffffffffff1660056001015f9054906101000a90046fffffffffffffffffffffffffffffffff1660055f015f9054906101000a90046fffffffffffffffffffffffffffffffff16836fffffffffffffffffffffffffffffffff169350826fffffffffffffffffffffffffffffffff169250816fffffffffffffffffffffffffffffffff169150806fffffffffffffffffffffffffffffffff169050935093509350935090919293565b600c5481565b61383e614216565b613846614216565b60055f015f9054906101000a90046fffffffffffffffffffffffffffffffff166fffffffffffffffffffffffffffffffff16816040018181525081602001818152505060056001015f9054906101000a90046fffffffffffffffffffffffffffffffff166fffffffffffffffffffffffffffffffff16816080018181525081606001818152505060055f0160109054906101000a90046fffffffffffffffffffffffffffffffff166fffffffffffffffffffffffffffffffff168160a0018181525050600560010160109054906101000a90046fffffffffffffffffffffffffffffffff166fffffffffffffffffffffffffffffffff168160c001818152505060056002015f9054906101000a900464ffffffffff168160e0019064ffffffffff16908164ffffffffff1681525050600c54815f0181815250508091505090565b5f613993838342613f3a565b905092915050565b5f816b019d971e4fe8401e740000005f1903048311158215176139bc575f80fd5b6b033b2e3c9fd0803ce80000006b019d971e4fe8401e740000008385020104905092915050565b5f7ff0c57e16840df040f15088dc2f81fe391c3923bec73e23a9662efc9c229c6a00905090565b4264ffffffffff1660056002015f9054906101000a900464ffffffffff1664ffffffffff160315613a6457613a3e816140a0565b4260056002015f6101000a81548164ffffffffff021916908364ffffffffff1602179055505b50565b613a6f61425a565b600560020160079054906101000a900473ffffffffffffffffffffffffffffffffffffffff1673ffffffffffffffffffffffffffffffffffffffff166356eaf2646040518060800160405280868152602001858152602001613b0e60056001015f9054906101000a90046fffffffffffffffffffffffffffffffff166fffffffffffffffffffffffffffffffff16600c5461399b90919063ffffffff16565b8152602001613b5960055f015f9054906101000a90046fffffffffffffffffffffffffffffffff166fffffffffffffffffffffffffffffffff16600b5461399b90919063ffffffff16565b8152506040518263ffffffff1660e01b8152600401613b789190615074565b6040805180830381865afa158015613b92573d5f803e3d5ffd5b505050506040513d601f19601f82011682018060405250810190613bb6919061508d565b825f018360200182815250828152505050613bd3815f01516141b3565b60055f0160106101000a8154816fffffffffffffffffffffffffffffffff02191690836fffffffffffffffffffffffffffffffff160217905550613c1a81602001516141b3565b600560010160106101000a8154816fffffffffffffffffffffffffffffffff02191690836fffffffffffffffffffffffffffffffff160217905550505050565b5f6b033b2e3c9fd0803ce8000000600283045f1903048311151582151715613c80575f80fd5b81600283046b033b2e3c9fd0803ce800000085020104905092915050565b5f821115613edc575f613caf613836565b9050613cba81613a0a565b5f60015f9054906101000a900473ffffffffffffffffffffffffffffffffffffffff1673ffffffffffffffffffffffffffffffffffffffff1663313ce5676040518163ffffffff1660e01b8152600401602060405180830381865afa158015613d25573d5f803e3d5ffd5b505050506040513d601f19601f82011682018060405250810190613d499190614acc565b600a613d559190614c53565b6b033b2e3c9fd0803ce80000006fffffffffffffffffffffffffffffffff1685613d7f9190614c9d565b613d899190614d0b565b90505f613da58360400151600b5461399b90919063ffffffff16565b90505f613ddc82613dce86604001518686613dc09190614f0a565b61399b90919063ffffffff16565b613c5a90919063ffffffff16565b9050613de7816141b3565b60055f015f6101000a8154816fffffffffffffffffffffffffffffffff02191690836fffffffffffffffffffffffffffffffff16021790555085600d5f828254613e319190614f0a565b9250508190555060015f9054906101000a900473ffffffffffffffffffffffffffffffffffffffff1673ffffffffffffffffffffffffffffffffffffffff166323b872dd8630896040518463ffffffff1660e01b8152600401613e9693929190614f3d565b6020604051808303815f875af1158015613eb2573d5f803e3d5ffd5b505050506040513d601f19601f82011682018060405250810190613ed69190614e8e565b50505050505b5050565b5f808264ffffffffff1642613ef59190614e20565b84613f009190614c9d565b90506301e133808181613f1657613f15614cde565b5b049050806b033b2e3c9fd0803ce8000000613f319190614f0a565b91505092915050565b5f808364ffffffffff1683613f4f9190614e20565b90505f8103613f6d576b033b2e3c9fd0803ce8000000915050614099565b5f805f8060018503935060028511613f85575f613f8a565b600285035b92506301e133808002613fa68a8b61399b90919063ffffffff16565b81613fb457613fb3614cde565b5b0491506301e13380613fcf8a8461399b90919063ffffffff16565b81613fdd57613fdc614cde565b5b0490505f828587613fee9190614c9d565b613ff89190614c9d565b90506002818161400b5761400a614cde565b5b0490505f8285878961401d9190614c9d565b6140279190614c9d565b6140319190614c9d565b90506006818161404457614043614cde565b5b04905080826301e13380898e61405a9190614c9d565b6140649190614d0b565b6b033b2e3c9fd0803ce800000061407b9190614f0a565b6140859190614f0a565b61408f9190614f0a565b9750505050505050505b9392505050565b5f8160a0015114614128575f6140be8260a001518360e00151613ee0565b90506140d782602001518261399b90919063ffffffff16565b8260400181815250506140ed82604001516141b3565b60055f015f6101000a8154816fffffffffffffffffffffffffffffffff02191690836fffffffffffffffffffffffffffffffff160217905550505b5f815f0151146141b0575f6141458260c001518360e00151613987565b905061415e82606001518261399b90919063ffffffff16565b82608001818152505061417482608001516141b3565b60056001015f6101000a8154816fffffffffffffffffffffffffffffffff02191690836fffffffffffffffffffffffffffffffff160217905550505b50565b5f6fffffffffffffffffffffffffffffffff801682111561420e576080826040517f6dfcc650000000000000000000000000000000000000000000000000000000008152600401614205929190615104565b60405180910390fd5b819050919050565b6040518061010001604052805f81526020015f81526020015f81526020015f81526020015f81526020015f81526020015f81526020015f64ffffffffff1681525090565b60405180606001604052805f81526020015f81526020015f81525090565b5f819050919050565b61428a81614278565b82525050565b5f6020820190506142a35f830184614281565b92915050565b5f604051905090565b5f80fd5b5f80fd5b5f73ffffffffffffffffffffffffffffffffffffffff82169050919050565b5f6142e3826142ba565b9050919050565b6142f3816142d9565b81146142fd575f80fd5b50565b5f8135905061430e816142ea565b92915050565b5f60208284031215614329576143286142b2565b5b5f61433684828501614300565b91505092915050565b5f8115159050919050565b6143538161433f565b82525050565b5f60208201905061436c5f83018461434a565b92915050565b61437b8161433f565b8114614385575f80fd5b50565b5f8135905061439681614372565b92915050565b5f602082840312156143b1576143b06142b2565b5b5f6143be84828501614388565b91505092915050565b5f6143d1826142d9565b9050919050565b6143e1816143c7565b81146143eb575f80fd5b50565b5f813590506143fc816143d8565b92915050565b61440b81614278565b8114614415575f80fd5b50565b5f8135905061442681614402565b92915050565b5f805f60608486031215614443576144426142b2565b5b5f614450868287016143ee565b935050602061446186828701614300565b925050604061447286828701614418565b9150509250925092565b5f60208284031215614491576144906142b2565b5b5f61449e84828501614418565b91505092915050565b5f805f80608085870312156144bf576144be6142b2565b5b5f6144cc87828801614418565b94505060206144dd87828801614418565b93505060406144ee87828801614300565b92505060606144ff87828801614388565b91505092959194509250565b614514816142d9565b82525050565b5f60208201905061452d5f83018461450b565b92915050565b5f8060408385031215614549576145486142b2565b5b5f61455685828601614418565b925050602061456785828601614418565b9150509250929050565b5f819050919050565b5f61459461458f61458a846142ba565b614571565b6142ba565b9050919050565b5f6145a58261457a565b9050919050565b5f6145b68261459b565b9050919050565b6145c6816145ac565b82525050565b5f6020820190506145df5f8301846145bd565b92915050565b5f6fffffffffffffffffffffffffffffffff82169050919050565b614609816145e5565b82525050565b5f64ffffffffff82169050919050565b6146288161460f565b82525050565b5f61ffff82169050919050565b6146448161462e565b82525050565b5f60e08201905061465d5f83018a614600565b61466a6020830189614600565b6146776040830188614600565b6146846060830187614600565b614691608083018661461f565b61469e60a083018561463b565b6146ab60c083018461450b565b98975050505050505050565b5f610140820190506146cb5f83018d614281565b6146d8602083018c61434a565b6146e5604083018b614281565b6146f2606083018a61434a565b6146ff608083018961450b565b61470c60a083018861434a565b61471960c08301876145bd565b61472660e083018661434a565b61473461010083018561434a565b614742610120830184614281565b9b9a5050505050505050505050565b5f8060408385031215614767576147666142b2565b5b5f614774858286016143ee565b925050602061478585828601614300565b9150509250929050565b5f80604083850312156147a5576147a46142b2565b5b5f6147b285828601614300565b92505060206147c385828601614418565b9150509250929050565b5f80fd5b5f601f19601f8301169050919050565b7f4e487b71000000000000000000000000000000000000000000000000000000005f52604160045260245ffd5b614817826147d1565b810181811067ffffffffffffffff82111715614836576148356147e1565b5b80604052505050565b5f6148486142a9565b9050614854828261480e565b919050565b5f67ffffffffffffffff821115614873576148726147e1565b5b602082029050602081019050919050565b5f80fd5b5f61489a61489584614859565b61483f565b905080838252602082019050602084028301858111156148bd576148bc614884565b5b835b818110156148e657806148d28882614300565b8452602084019350506020810190506148bf565b5050509392505050565b5f82601f830112614904576149036147cd565b5b8135614914848260208601614888565b91505092915050565b5f67ffffffffffffffff821115614937576149366147e1565b5b602082029050602081019050919050565b5f61495a6149558461491d565b61483f565b9050808382526020820190506020840283018581111561497d5761497c614884565b5b835b818110156149a657806149928882614388565b84526020840193505060208101905061497f565b5050509392505050565b5f82601f8301126149c4576149c36147cd565b5b81356149d4848260208601614948565b91505092915050565b5f80604083850312156149f3576149f26142b2565b5b5f83013567ffffffffffffffff811115614a1057614a0f6142b6565b5b614a1c858286016148f0565b925050602083013567ffffffffffffffff811115614a3d57614a3c6142b6565b5b614a49858286016149b0565b9150509250929050565b5f608082019050614a665f830187614281565b614a736020830186614281565b614a806040830185614281565b614a8d6060830184614281565b95945050505050565b5f60ff82169050919050565b614aab81614a96565b8114614ab5575f80fd5b50565b5f81519050614ac681614aa2565b92915050565b5f60208284031215614ae157614ae06142b2565b5b5f614aee84828501614ab8565b91505092915050565b7f4e487b71000000000000000000000000000000000000000000000000000000005f52601160045260245ffd5b5f8160011c9050919050565b5f808291508390505b6001851115614b7957808604811115614b5557614b54614af7565b5b6001851615614b645780820291505b8081029050614b7285614b24565b9450614b39565b94509492505050565b5f82614b915760019050614c4c565b81614b9e575f9050614c4c565b8160018114614bb45760028114614bbe57614bed565b6001915050614c4c565b60ff841115614bd057614bcf614af7565b5b8360020a915084821115614be757614be6614af7565b5b50614c4c565b5060208310610133831016604e8410600b8410161715614c225782820a905083811115614c1d57614c1c614af7565b5b614c4c565b614c2f8484846001614b30565b92509050818404811115614c4657614c45614af7565b5b81810290505b9392505050565b5f614c5d82614278565b9150614c6883614a96565b9250614c957fffffffffffffffffffffffffffffffffffffffffffffffffffffffffffffffff8484614b82565b905092915050565b5f614ca782614278565b9150614cb283614278565b9250828202614cc081614278565b91508282048414831517614cd757614cd6614af7565b5b5092915050565b7f4e487b71000000000000000000000000000000000000000000000000000000005f52601260045260245ffd5b5f614d1582614278565b9150614d2083614278565b925082614d3057614d2f614cde565b5b828204905092915050565b5f81519050919050565b5f82825260208201905092915050565b8281835e5f83830152505050565b5f614d6d82614d3b565b614d778185614d45565b9350614d87818560208601614d55565b614d90816147d1565b840191505092915050565b5f6020820190508181035f830152614db38184614d63565b905092915050565b5f819050919050565b5f67ffffffffffffffff82169050919050565b5f614df1614dec614de784614dbb565b614571565b614dc4565b9050919050565b614e0181614dd7565b82525050565b5f602082019050614e1a5f830184614df8565b92915050565b5f614e2a82614278565b9150614e3583614278565b9250828203905081811115614e4d57614e4c614af7565b5b92915050565b5f604082019050614e665f83018561450b565b614e736020830184614281565b9392505050565b5f81519050614e8881614372565b92915050565b5f60208284031215614ea357614ea26142b2565b5b5f614eb084828501614e7a565b91505092915050565b5f60a082019050614ecc5f830188614281565b614ed96020830187614281565b614ee66040830186614281565b614ef36060830185614281565b614f006080830184614281565b9695505050505050565b5f614f1482614278565b9150614f1f83614278565b9250828201905080821115614f3757614f36614af7565b5b92915050565b5f606082019050614f505f83018661450b565b614f5d602083018561450b565b614f6a6040830184614281565b949350505050565b5f614f7c82614a96565b9150614f8783614a96565b9250828203905060ff811115614fa057614f9f614af7565b5b92915050565b5f81519050614fb481614402565b92915050565b5f60208284031215614fcf57614fce6142b2565b5b5f614fdc84828501614fa6565b91505092915050565b7f4e487b71000000000000000000000000000000000000000000000000000000005f52603260045260245ffd5b61501b81614278565b82525050565b608082015f8201516150355f850182615012565b5060208201516150486020850182615012565b50604082015161505b6040850182615012565b50606082015161506e6060850182615012565b50505050565b5f6080820190506150875f830184615021565b92915050565b5f80604083850312156150a3576150a26142b2565b5b5f6150b085828601614fa6565b92505060206150c185828601614fa6565b9150509250929050565b5f819050919050565b5f6150ee6150e96150e4846150cb565b614571565b614a96565b9050919050565b6150fe816150d4565b82525050565b5f6040820190506151175f8301856150f5565b6151246020830184614281565b939250505056fea264697066735822122019df1567f503438f1ca9566d10bf822e4759ef5a014e9c8135c5e2a7fa2bee6064736f6c634300081a0033",
			"opcodes": "PUSH1 0x80 PUSH1 0x40 MSTORE CALLVALUE DUP1 ISZERO PUSH1 0xE JUMPI PUSH0 DUP1 REVERT JUMPDEST POP PUSH2 0x5161 DUP1 PUSH2 0x1C PUSH0 CODECOPY PUSH0 RETURN INVALID PUSH1 0x80 PUSH1 0x40 MSTORE PUSH1 0x4 CALLDATASIZE LT PUSH2 0x212 JUMPI PUSH0 CALLDATALOAD PUSH1 0xE0 SHR DUP1 PUSH4 0x7871B060 GT PUSH2 0x117 JUMPI DUP1 PUSH4 0xC4E41B22 GT PUSH2 0x9F JUMPI DUP1 PUSH4 0xE3691C51 GT PUSH2 0x6E JUMPI DUP1 PUSH4 0xE3691C51 EQ PUSH2 0x7CE JUMPI DUP1 PUSH4 0xEC7BE39D EQ PUSH2 0x7F6 JUMPI DUP1 PUSH4 0xF4305035 EQ PUSH2 0x81E JUMPI DUP1 PUSH4 0xF7FB07B0 EQ PUSH2 0x846 JUMPI DUP1 PUSH4 0xFC7B9C18 EQ PUSH2 0x873 JUMPI PUSH2 0x219 JUMP JUMPDEST DUP1 PUSH4 0xC4E41B22 EQ PUSH2 0x707 JUMPI DUP1 PUSH4 0xCD3293DE EQ PUSH2 0x731 JUMPI DUP1 PUSH4 0xD8AED145 EQ PUSH2 0x761 JUMPI DUP1 PUSH4 0xE1EC3C68 EQ PUSH2 0x789 JUMPI PUSH2 0x219 JUMP JUMPDEST DUP1 PUSH4 0x982AAE46 GT PUSH2 0xE6 JUMPI DUP1 PUSH4 0x982AAE46 EQ PUSH2 0x625 JUMPI DUP1 PUSH4 0x9B78DBFC EQ PUSH2 0x64F JUMPI DUP1 PUSH4 0xA52F38D1 EQ PUSH2 0x677 JUMPI DUP1 PUSH4 0xB14D37C0 EQ PUSH2 0x6B3 JUMPI DUP1 PUSH4 0xB187BD26 EQ PUSH2 0x6DD JUMPI PUSH2 0x219 JUMP JUMPDEST DUP1 PUSH4 0x7871B060 EQ PUSH2 0x55D JUMPI DUP1 PUSH4 0x7F394031 EQ PUSH2 0x599 JUMPI DUP1 PUSH4 0x8AC1B775 EQ PUSH2 0x5C1 JUMPI DUP1 PUSH4 0x929EEA21 EQ PUSH2 0x5E9 JUMPI PUSH2 0x219 JUMP JUMPDEST DUP1 PUSH4 0x30793601 GT PUSH2 0x19A JUMPI DUP1 PUSH4 0x39CD7D6A GT PUSH2 0x169 JUMPI DUP1 PUSH4 0x39CD7D6A EQ PUSH2 0x47D JUMPI DUP1 PUSH4 0x3B24CC21 EQ PUSH2 0x4A5 JUMPI DUP1 PUSH4 0x3B4675A7 EQ PUSH2 0x4CF JUMPI DUP1 PUSH4 0x47786D37 EQ PUSH2 0x4F9 JUMPI DUP1 PUSH4 0x70A08231 EQ PUSH2 0x521 JUMPI PUSH2 0x219 JUMP JUMPDEST DUP1 PUSH4 0x30793601 EQ PUSH2 0x3C7 JUMPI DUP1 PUSH4 0x35403023 EQ PUSH2 0x403 JUMPI DUP1 PUSH4 0x355274EA EQ PUSH2 0x42B JUMPI DUP1 PUSH4 0x3870862B EQ PUSH2 0x455 JUMPI PUSH2 0x219 JUMP JUMPDEST DUP1 PUSH4 0x1794BB3C GT PUSH2 0x1E1 JUMPI DUP1 PUSH4 0x1794BB3C EQ PUSH2 0x2D5 JUMPI DUP1 PUSH4 0x18160DDD EQ PUSH2 0x2FD JUMPI DUP1 PUSH4 0x1877BB5C EQ PUSH2 0x327 JUMPI DUP1 PUSH4 0x1E0029C8 EQ PUSH2 0x363 JUMPI DUP1 PUSH4 0x2E1A7D4D EQ PUSH2 0x39F JUMPI PUSH2 0x219 JUMP JUMPDEST DUP1 PUSH4 0x3EC357F EQ PUSH2 0x21D JUMPI DUP1 PUSH4 0x13E7C9D8 EQ PUSH2 0x247 JUMPI DUP1 PUSH4 0x15770F92 EQ PUSH2 0x283 JUMPI DUP1 PUSH4 0x16C38B3C EQ PUSH2 0x2AD JUMPI PUSH2 0x219 JUMP JUMPDEST CALLDATASIZE PUSH2 0x219 JUMPI STOP JUMPDEST PUSH0 DUP1 REVERT JUMPDEST CALLVALUE DUP1 ISZERO PUSH2 0x228 JUMPI PUSH0 DUP1 REVERT JUMPDEST POP PUSH2 0x231 PUSH2 0x89D JUMP JUMPDEST PUSH1 0x40 MLOAD PUSH2 0x23E SWAP2 SWAP1 PUSH2 0x4290 JUMP JUMPDEST PUSH1 0x40 MLOAD DUP1 SWAP2 SUB SWAP1 RETURN JUMPDEST CALLVALUE DUP1 ISZERO PUSH2 0x252 JUMPI PUSH0 DUP1 REVERT JUMPDEST POP PUSH2 0x26D PUSH1 0x4 DUP1 CALLDATASIZE SUB DUP2 ADD SWAP1 PUSH2 0x268 SWAP2 SWAP1 PUSH2 0x4314 JUMP JUMPDEST PUSH2 0x9F9 JUMP JUMPDEST PUSH1 0x40 MLOAD PUSH2 0x27A SWAP2 SWAP1 PUSH2 0x4359 JUMP JUMPDEST PUSH1 0x40 MLOAD DUP1 SWAP2 SUB SWAP1 RETURN JUMPDEST CALLVALUE DUP1 ISZERO PUSH2 0x28E JUMPI PUSH0 DUP1 REVERT JUMPDEST POP PUSH2 0x297 PUSH2 0xA15 JUMP JUMPDEST PUSH1 0x40 MLOAD PUSH2 0x2A4 SWAP2 SWAP1 PUSH2 0x4290 JUMP JUMPDEST PUSH1 0x40 MLOAD DUP1 SWAP2 SUB SWAP1 RETURN JUMPDEST CALLVALUE DUP1 ISZERO PUSH2 0x2B8 JUMPI PUSH0 DUP1 REVERT JUMPDEST POP PUSH2 0x2D3 PUSH1 0x4 DUP1 CALLDATASIZE SUB DUP2 ADD SWAP1 PUSH2 0x2CE SWAP2 SWAP1 PUSH2 0x439C JUMP JUMPDEST PUSH2 0xA1B JUMP JUMPDEST STOP JUMPDEST CALLVALUE DUP1 ISZERO PUSH2 0x2E0 JUMPI PUSH0 DUP1 REVERT JUMPDEST POP PUSH2 0x2FB PUSH1 0x4 DUP1 CALLDATASIZE SUB DUP2 ADD SWAP1 PUSH2 0x2F6 SWAP2 SWAP1 PUSH2 0x442C JUMP JUMPDEST PUSH2 0xB00 JUMP JUMPDEST STOP JUMPDEST CALLVALUE DUP1 ISZERO PUSH2 0x308 JUMPI PUSH0 DUP1 REVERT JUMPDEST POP PUSH2 0x311 PUSH2 0xE26 JUMP JUMPDEST PUSH1 0x40 MLOAD PUSH2 0x31E SWAP2 SWAP1 PUSH2 0x4290 JUMP JUMPDEST PUSH1 0x40 MLOAD DUP1 SWAP2 SUB SWAP1 RETURN JUMPDEST CALLVALUE DUP1 ISZERO PUSH2 0x332 JUMPI PUSH0 DUP1 REVERT JUMPDEST POP PUSH2 0x34D PUSH1 0x4 DUP1 CALLDATASIZE SUB DUP2 ADD SWAP1 PUSH2 0x348 SWAP2 SWAP1 PUSH2 0x4314 JUMP JUMPDEST PUSH2 0xE2C JUMP JUMPDEST PUSH1 0x40 MLOAD PUSH2 0x35A SWAP2 SWAP1 PUSH2 0x4290 JUMP JUMPDEST PUSH1 0x40 MLOAD DUP1 SWAP2 SUB SWAP1 RETURN JUMPDEST CALLVALUE DUP1 ISZERO PUSH2 0x36E JUMPI PUSH0 DUP1 REVERT JUMPDEST POP PUSH2 0x389 PUSH1 0x4 DUP1 CALLDATASIZE SUB DUP2 ADD SWAP1 PUSH2 0x384 SWAP2 SWAP1 PUSH2 0x447C JUMP JUMPDEST PUSH2 0xE41 JUMP JUMPDEST PUSH1 0x40 MLOAD PUSH2 0x396 SWAP2 SWAP1 PUSH2 0x4290 JUMP JUMPDEST PUSH1 0x40 MLOAD DUP1 SWAP2 SUB SWAP1 RETURN JUMPDEST CALLVALUE DUP1 ISZERO PUSH2 0x3AA JUMPI PUSH0 DUP1 REVERT JUMPDEST POP PUSH2 0x3C5 PUSH1 0x4 DUP1 CALLDATASIZE SUB DUP2 ADD SWAP1 PUSH2 0x3C0 SWAP2 SWAP1 PUSH2 0x447C JUMP JUMPDEST PUSH2 0xE56 JUMP JUMPDEST STOP JUMPDEST CALLVALUE DUP1 ISZERO PUSH2 0x3D2 JUMPI PUSH0 DUP1 REVERT JUMPDEST POP PUSH2 0x3ED PUSH1 0x4 DUP1 CALLDATASIZE SUB DUP2 ADD SWAP1 PUSH2 0x3E8 SWAP2 SWAP1 PUSH2 0x4314 JUMP JUMPDEST PUSH2 0x13D8 JUMP JUMPDEST PUSH1 0x40 MLOAD PUSH2 0x3FA SWAP2 SWAP1 PUSH2 0x4290 JUMP JUMPDEST PUSH1 0x40 MLOAD DUP1 SWAP2 SUB SWAP1 RETURN JUMPDEST CALLVALUE DUP1 ISZERO PUSH2 0x40E JUMPI PUSH0 DUP1 REVERT JUMPDEST POP PUSH2 0x429 PUSH1 0x4 DUP1 CALLDATASIZE SUB DUP2 ADD SWAP1 PUSH2 0x424 SWAP2 SWAP1 PUSH2 0x447C JUMP JUMPDEST PUSH2 0x13ED JUMP JUMPDEST STOP JUMPDEST CALLVALUE DUP1 ISZERO PUSH2 0x436 JUMPI PUSH0 DUP1 REVERT JUMPDEST POP PUSH2 0x43F PUSH2 0x18F8 JUMP JUMPDEST PUSH1 0x40 MLOAD PUSH2 0x44C SWAP2 SWAP1 PUSH2 0x4290 JUMP JUMPDEST PUSH1 0x40 MLOAD DUP1 SWAP2 SUB SWAP1 RETURN JUMPDEST CALLVALUE DUP1 ISZERO PUSH2 0x460 JUMPI PUSH0 DUP1 REVERT JUMPDEST POP PUSH2 0x47B PUSH1 0x4 DUP1 CALLDATASIZE SUB DUP2 ADD SWAP1 PUSH2 0x476 SWAP2 SWAP1 PUSH2 0x44A7 JUMP JUMPDEST PUSH2 0x18FE JUMP JUMPDEST STOP JUMPDEST CALLVALUE DUP1 ISZERO PUSH2 0x488 JUMPI PUSH0 DUP1 REVERT JUMPDEST POP PUSH2 0x4A3 PUSH1 0x4 DUP1 CALLDATASIZE SUB DUP2 ADD SWAP1 PUSH2 0x49E SWAP2 SWAP1 PUSH2 0x4314 JUMP JUMPDEST PUSH2 0x1CFE JUMP JUMPDEST STOP JUMPDEST CALLVALUE DUP1 ISZERO PUSH2 0x4B0 JUMPI PUSH0 DUP1 REVERT JUMPDEST POP PUSH2 0x4B9 PUSH2 0x1E0D JUMP JUMPDEST PUSH1 0x40 MLOAD PUSH2 0x4C6 SWAP2 SWAP1 PUSH2 0x4290 JUMP JUMPDEST PUSH1 0x40 MLOAD DUP1 SWAP2 SUB SWAP1 RETURN JUMPDEST CALLVALUE DUP1 ISZERO PUSH2 0x4DA JUMPI PUSH0 DUP1 REVERT JUMPDEST POP PUSH2 0x4E3 PUSH2 0x1E16 JUMP JUMPDEST PUSH1 0x40 MLOAD PUSH2 0x4F0 SWAP2 SWAP1 PUSH2 0x451A JUMP JUMPDEST PUSH1 0x40 MLOAD DUP1 SWAP2 SUB SWAP1 RETURN JUMPDEST CALLVALUE DUP1 ISZERO PUSH2 0x504 JUMPI PUSH0 DUP1 REVERT JUMPDEST POP PUSH2 0x51F PUSH1 0x4 DUP1 CALLDATASIZE SUB DUP2 ADD SWAP1 PUSH2 0x51A SWAP2 SWAP1 PUSH2 0x447C JUMP JUMPDEST PUSH2 0x1E3B JUMP JUMPDEST STOP JUMPDEST CALLVALUE DUP1 ISZERO PUSH2 0x52C JUMPI PUSH0 DUP1 REVERT JUMPDEST POP PUSH2 0x547 PUSH1 0x4 DUP1 CALLDATASIZE SUB DUP2 ADD SWAP1 PUSH2 0x542 SWAP2 SWAP1 PUSH2 0x4314 JUMP JUMPDEST PUSH2 0x1F0D JUMP JUMPDEST PUSH1 0x40 MLOAD PUSH2 0x554 SWAP2 SWAP1 PUSH2 0x4290 JUMP JUMPDEST PUSH1 0x40 MLOAD DUP1 SWAP2 SUB SWAP1 RETURN JUMPDEST CALLVALUE DUP1 ISZERO PUSH2 0x568 JUMPI PUSH0 DUP1 REVERT JUMPDEST POP PUSH2 0x583 PUSH1 0x4 DUP1 CALLDATASIZE SUB DUP2 ADD SWAP1 PUSH2 0x57E SWAP2 SWAP1 PUSH2 0x4314 JUMP JUMPDEST PUSH2 0x2046 JUMP JUMPDEST PUSH1 0x40 MLOAD PUSH2 0x590 SWAP2 SWAP1 PUSH2 0x4290 JUMP JUMPDEST PUSH1 0x40 MLOAD DUP1 SWAP2 SUB SWAP1 RETURN JUMPDEST CALLVALUE DUP1 ISZERO PUSH2 0x5A4 JUMPI PUSH0 DUP1 REVERT JUMPDEST POP PUSH2 0x5BF PUSH1 0x4 DUP1 CALLDATASIZE SUB DUP2 ADD SWAP1 PUSH2 0x5BA SWAP2 SWAP1 PUSH2 0x4533 JUMP JUMPDEST PUSH2 0x208C JUMP JUMPDEST STOP JUMPDEST CALLVALUE DUP1 ISZERO PUSH2 0x5CC JUMPI PUSH0 DUP1 REVERT JUMPDEST POP PUSH2 0x5E7 PUSH1 0x4 DUP1 CALLDATASIZE SUB DUP2 ADD SWAP1 PUSH2 0x5E2 SWAP2 SWAP1 PUSH2 0x4314 JUMP JUMPDEST PUSH2 0x22BD JUMP JUMPDEST STOP JUMPDEST CALLVALUE DUP1 ISZERO PUSH2 0x5F4 JUMPI PUSH0 DUP1 REVERT JUMPDEST POP PUSH2 0x60F PUSH1 0x4 DUP1 CALLDATASIZE SUB DUP2 ADD SWAP1 PUSH2 0x60A SWAP2 SWAP1 PUSH2 0x447C JUMP JUMPDEST PUSH2 0x23C8 JUMP JUMPDEST PUSH1 0x40 MLOAD PUSH2 0x61C SWAP2 SWAP1 PUSH2 0x451A JUMP JUMPDEST PUSH1 0x40 MLOAD DUP1 SWAP2 SUB SWAP1 RETURN JUMPDEST CALLVALUE DUP1 ISZERO PUSH2 0x630 JUMPI PUSH0 DUP1 REVERT JUMPDEST POP PUSH2 0x639 PUSH2 0x2403 JUMP JUMPDEST PUSH1 0x40 MLOAD PUSH2 0x646 SWAP2 SWAP1 PUSH2 0x45CC JUMP JUMPDEST PUSH1 0x40 MLOAD DUP1 SWAP2 SUB SWAP1 RETURN JUMPDEST CALLVALUE DUP1 ISZERO PUSH2 0x65A JUMPI PUSH0 DUP1 REVERT JUMPDEST POP PUSH2 0x675 PUSH1 0x4 DUP1 CALLDATASIZE SUB DUP2 ADD SWAP1 PUSH2 0x670 SWAP2 SWAP1 PUSH2 0x447C JUMP JUMPDEST PUSH2 0x2428 JUMP JUMPDEST STOP JUMPDEST CALLVALUE DUP1 ISZERO PUSH2 0x682 JUMPI PUSH0 DUP1 REVERT JUMPDEST POP PUSH2 0x69D PUSH1 0x4 DUP1 CALLDATASIZE SUB DUP2 ADD SWAP1 PUSH2 0x698 SWAP2 SWAP1 PUSH2 0x447C JUMP JUMPDEST PUSH2 0x258B JUMP JUMPDEST PUSH1 0x40 MLOAD PUSH2 0x6AA SWAP2 SWAP1 PUSH2 0x4290 JUMP JUMPDEST PUSH1 0x40 MLOAD DUP1 SWAP2 SUB SWAP1 RETURN JUMPDEST CALLVALUE DUP1 ISZERO PUSH2 0x6BE JUMPI PUSH0 DUP1 REVERT JUMPDEST POP PUSH2 0x6C7 PUSH2 0x26F8 JUMP JUMPDEST PUSH1 0x40 MLOAD PUSH2 0x6D4 SWAP2 SWAP1 PUSH2 0x4290 JUMP JUMPDEST PUSH1 0x40 MLOAD DUP1 SWAP2 SUB SWAP1 RETURN JUMPDEST CALLVALUE DUP1 ISZERO PUSH2 0x6E8 JUMPI PUSH0 DUP1 REVERT JUMPDEST POP PUSH2 0x6F1 PUSH2 0x26FE JUMP JUMPDEST PUSH1 0x40 MLOAD PUSH2 0x6FE SWAP2 SWAP1 PUSH2 0x4359 JUMP JUMPDEST PUSH1 0x40 MLOAD DUP1 SWAP2 SUB SWAP1 RETURN JUMPDEST CALLVALUE DUP1 ISZERO PUSH2 0x712 JUMPI PUSH0 DUP1 REVERT JUMPDEST POP PUSH2 0x71B PUSH2 0x2711 JUMP JUMPDEST PUSH1 0x40 MLOAD PUSH2 0x728 SWAP2 SWAP1 PUSH2 0x4290 JUMP JUMPDEST PUSH1 0x40 MLOAD DUP1 SWAP2 SUB SWAP1 RETURN JUMPDEST CALLVALUE DUP1 ISZERO PUSH2 0x73C JUMPI PUSH0 DUP1 REVERT JUMPDEST POP PUSH2 0x745 PUSH2 0x283F JUMP JUMPDEST PUSH1 0x40 MLOAD PUSH2 0x758 SWAP8 SWAP7 SWAP6 SWAP5 SWAP4 SWAP3 SWAP2 SWAP1 PUSH2 0x464A JUMP JUMPDEST PUSH1 0x40 MLOAD DUP1 SWAP2 SUB SWAP1 RETURN JUMPDEST CALLVALUE DUP1 ISZERO PUSH2 0x76C JUMPI PUSH0 DUP1 REVERT JUMPDEST POP PUSH2 0x787 PUSH1 0x4 DUP1 CALLDATASIZE SUB DUP2 ADD SWAP1 PUSH2 0x782 SWAP2 SWAP1 PUSH2 0x4533 JUMP JUMPDEST PUSH2 0x2919 JUMP JUMPDEST STOP JUMPDEST CALLVALUE DUP1 ISZERO PUSH2 0x794 JUMPI PUSH0 DUP1 REVERT JUMPDEST POP PUSH2 0x7AF PUSH1 0x4 DUP1 CALLDATASIZE SUB DUP2 ADD SWAP1 PUSH2 0x7AA SWAP2 SWAP1 PUSH2 0x447C JUMP JUMPDEST PUSH2 0x3077 JUMP JUMPDEST PUSH1 0x40 MLOAD PUSH2 0x7C5 SWAP11 SWAP10 SWAP9 SWAP8 SWAP7 SWAP6 SWAP5 SWAP4 SWAP3 SWAP2 SWAP1 PUSH2 0x46B7 JUMP JUMPDEST PUSH1 0x40 MLOAD DUP1 SWAP2 SUB SWAP1 RETURN JUMPDEST CALLVALUE DUP1 ISZERO PUSH2 0x7D9 JUMPI PUSH0 DUP1 REVERT JUMPDEST POP PUSH2 0x7F4 PUSH1 0x4 DUP1 CALLDATASIZE SUB DUP2 ADD SWAP1 PUSH2 0x7EF SWAP2 SWAP1 PUSH2 0x4751 JUMP JUMPDEST PUSH2 0x3145 JUMP JUMPDEST STOP JUMPDEST CALLVALUE DUP1 ISZERO PUSH2 0x801 JUMPI PUSH0 DUP1 REVERT JUMPDEST POP PUSH2 0x81C PUSH1 0x4 DUP1 CALLDATASIZE SUB DUP2 ADD SWAP1 PUSH2 0x817 SWAP2 SWAP1 PUSH2 0x478F JUMP JUMPDEST PUSH2 0x3304 JUMP JUMPDEST STOP JUMPDEST CALLVALUE DUP1 ISZERO PUSH2 0x829 JUMPI PUSH0 DUP1 REVERT JUMPDEST POP PUSH2 0x844 PUSH1 0x4 DUP1 CALLDATASIZE SUB DUP2 ADD SWAP1 PUSH2 0x83F SWAP2 SWAP1 PUSH2 0x49DD JUMP JUMPDEST PUSH2 0x35DA JUMP JUMPDEST STOP JUMPDEST CALLVALUE DUP1 ISZERO PUSH2 0x851 JUMPI PUSH0 DUP1 REVERT JUMPDEST POP PUSH2 0x85A PUSH2 0x3746 JUMP JUMPDEST PUSH1 0x40 MLOAD PUSH2 0x86A SWAP5 SWAP4 SWAP3 SWAP2 SWAP1 PUSH2 0x4A53 JUMP JUMPDEST PUSH1 0x40 MLOAD DUP1 SWAP2 SUB SWAP1 RETURN JUMPDEST CALLVALUE DUP1 ISZERO PUSH2 0x87E JUMPI PUSH0 DUP1 REVERT JUMPDEST POP PUSH2 0x887 PUSH2 0x3830 JUMP JUMPDEST PUSH1 0x40 MLOAD PUSH2 0x894 SWAP2 SWAP1 PUSH2 0x4290 JUMP JUMPDEST PUSH1 0x40 MLOAD DUP1 SWAP2 SUB SWAP1 RETURN JUMPDEST PUSH0 DUP1 PUSH2 0x8A7 PUSH2 0x3836 JUMP JUMPDEST SWAP1 POP PUSH0 PUSH2 0x8BC DUP3 PUSH1 0xC0 ADD MLOAD DUP4 PUSH1 0xE0 ADD MLOAD PUSH2 0x3987 JUMP JUMPDEST SWAP1 POP PUSH2 0x903 PUSH1 0x5 PUSH1 0x1 ADD PUSH0 SWAP1 SLOAD SWAP1 PUSH2 0x100 EXP SWAP1 DIV PUSH16 0xFFFFFFFFFFFFFFFFFFFFFFFFFFFFFFFF AND PUSH16 0xFFFFFFFFFFFFFFFFFFFFFFFFFFFFFFFF AND DUP3 PUSH2 0x399B SWAP1 SWAP2 SWAP1 PUSH4 0xFFFFFFFF AND JUMP JUMPDEST DUP3 PUSH1 0x80 ADD DUP2 DUP2 MSTORE POP POP PUSH12 0x33B2E3C9FD0803CE8000000 PUSH16 0xFFFFFFFFFFFFFFFFFFFFFFFFFFFFFFFF AND PUSH1 0x1 PUSH0 SWAP1 SLOAD SWAP1 PUSH2 0x100 EXP SWAP1 DIV PUSH20 0xFFFFFFFFFFFFFFFFFFFFFFFFFFFFFFFFFFFFFFFF AND PUSH20 0xFFFFFFFFFFFFFFFFFFFFFFFFFFFFFFFFFFFFFFFF AND PUSH4 0x313CE567 PUSH1 0x40 MLOAD DUP2 PUSH4 0xFFFFFFFF AND PUSH1 0xE0 SHL DUP2 MSTORE PUSH1 0x4 ADD PUSH1 0x20 PUSH1 0x40 MLOAD DUP1 DUP4 SUB DUP2 DUP7 GAS STATICCALL ISZERO DUP1 ISZERO PUSH2 0x995 JUMPI RETURNDATASIZE PUSH0 DUP1 RETURNDATACOPY RETURNDATASIZE PUSH0 REVERT JUMPDEST POP POP POP POP PUSH1 0x40 MLOAD RETURNDATASIZE PUSH1 0x1F NOT PUSH1 0x1F DUP3 ADD AND DUP3 ADD DUP1 PUSH1 0x40 MSTORE POP DUP2 ADD SWAP1 PUSH2 0x9B9 SWAP2 SWAP1 PUSH2 0x4ACC JUMP JUMPDEST PUSH1 0xA PUSH2 0x9C5 SWAP2 SWAP1 PUSH2 0x4C53 JUMP JUMPDEST PUSH2 0x9DE DUP5 PUSH1 0x80 ADD MLOAD PUSH1 0xC SLOAD PUSH2 0x399B SWAP1 SWAP2 SWAP1 PUSH4 0xFFFFFFFF AND JUMP JUMPDEST PUSH2 0x9E8 SWAP2 SWAP1 PUSH2 0x4C9D JUMP JUMPDEST PUSH2 0x9F2 SWAP2 SWAP1 PUSH2 0x4D0B JUMP JUMPDEST SWAP3 POP POP POP SWAP1 JUMP JUMPDEST PUSH0 PUSH1 0x20 MSTORE DUP1 PUSH0 MSTORE PUSH1 0x40 PUSH0 KECCAK256 PUSH0 SWAP2 POP SLOAD SWAP1 PUSH2 0x100 EXP SWAP1 DIV PUSH1 0xFF AND DUP2 JUMP JUMPDEST PUSH1 0xB SLOAD DUP2 JUMP JUMPDEST CALLER PUSH20 0xFFFFFFFFFFFFFFFFFFFFFFFFFFFFFFFFFFFFFFFF AND PUSH1 0xE PUSH0 SWAP1 SLOAD SWAP1 PUSH2 0x100 EXP SWAP1 DIV PUSH20 0xFFFFFFFFFFFFFFFFFFFFFFFFFFFFFFFFFFFFFFFF AND PUSH20 0xFFFFFFFFFFFFFFFFFFFFFFFFFFFFFFFFFFFFFFFF AND EQ PUSH1 0x40 MLOAD DUP1 PUSH1 0x40 ADD PUSH1 0x40 MSTORE DUP1 PUSH1 0x1 DUP2 MSTORE PUSH1 0x20 ADD PUSH32 0x3200000000000000000000000000000000000000000000000000000000000000 DUP2 MSTORE POP SWAP1 PUSH2 0xAE2 JUMPI PUSH1 0x40 MLOAD PUSH32 0x8C379A000000000000000000000000000000000000000000000000000000000 DUP2 MSTORE PUSH1 0x4 ADD PUSH2 0xAD9 SWAP2 SWAP1 PUSH2 0x4D9B JUMP JUMPDEST PUSH1 0x40 MLOAD DUP1 SWAP2 SUB SWAP1 REVERT JUMPDEST POP DUP1 PUSH1 0xE PUSH1 0x14 PUSH2 0x100 EXP DUP2 SLOAD DUP2 PUSH1 0xFF MUL NOT AND SWAP1 DUP4 ISZERO ISZERO MUL OR SWAP1 SSTORE POP POP JUMP JUMPDEST PUSH0 PUSH2 0xB09 PUSH2 0x39E3 JUMP JUMPDEST SWAP1 POP PUSH0 DUP2 PUSH0 ADD PUSH1 0x8 SWAP1 SLOAD SWAP1 PUSH2 0x100 EXP SWAP1 DIV PUSH1 0xFF AND ISZERO SWAP1 POP PUSH0 DUP3 PUSH0 ADD PUSH0 SWAP1 SLOAD SWAP1 PUSH2 0x100 EXP SWAP1 DIV PUSH8 0xFFFFFFFFFFFFFFFF AND SWAP1 POP PUSH0 DUP1 DUP3 PUSH8 0xFFFFFFFFFFFFFFFF AND EQ DUP1 ISZERO PUSH2 0xB51 JUMPI POP DUP3 JUMPDEST SWAP1 POP PUSH0 PUSH1 0x1 DUP4 PUSH8 0xFFFFFFFFFFFFFFFF AND EQ DUP1 ISZERO PUSH2 0xB84 JUMPI POP PUSH0 ADDRESS PUSH20 0xFFFFFFFFFFFFFFFFFFFFFFFFFFFFFFFFFFFFFFFF AND EXTCODESIZE EQ JUMPDEST SWAP1 POP DUP2 ISZERO DUP1 ISZERO PUSH2 0xB92 JUMPI POP DUP1 ISZERO JUMPDEST ISZERO PUSH2 0xBC9 JUMPI PUSH1 0x40 MLOAD PUSH32 0xF92EE8A900000000000000000000000000000000000000000000000000000000 DUP2 MSTORE PUSH1 0x4 ADD PUSH1 0x40 MLOAD DUP1 SWAP2 SUB SWAP1 REVERT JUMPDEST PUSH1 0x1 DUP6 PUSH0 ADD PUSH0 PUSH2 0x100 EXP DUP2 SLOAD DUP2 PUSH8 0xFFFFFFFFFFFFFFFF MUL NOT AND SWAP1 DUP4 PUSH8 0xFFFFFFFFFFFFFFFF AND MUL OR SWAP1 SSTORE POP DUP4 ISZERO PUSH2 0xC16 JUMPI PUSH1 0x1 DUP6 PUSH0 ADD PUSH1 0x8 PUSH2 0x100 EXP DUP2 SLOAD DUP2 PUSH1 0xFF MUL NOT AND SWAP1 DUP4 ISZERO ISZERO MUL OR SWAP1 SSTORE POP JUMPDEST DUP8 PUSH1 0x1 PUSH0 PUSH2 0x100 EXP DUP2 SLOAD DUP2 PUSH20 0xFFFFFFFFFFFFFFFFFFFFFFFFFFFFFFFFFFFFFFFF MUL NOT AND SWAP1 DUP4 PUSH20 0xFFFFFFFFFFFFFFFFFFFFFFFFFFFFFFFFFFFFFFFF AND MUL OR SWAP1 SSTORE POP DUP7 PUSH1 0x5 PUSH1 0x2 ADD PUSH1 0x7 PUSH2 0x100 EXP DUP2 SLOAD DUP2 PUSH20 0xFFFFFFFFFFFFFFFFFFFFFFFFFFFFFFFFFFFFFFFF MUL NOT AND SWAP1 DUP4 PUSH20 0xFFFFFFFFFFFFFFFFFFFFFFFFFFFFFFFFFFFFFFFF AND MUL OR SWAP1 SSTORE POP PUSH12 0x33B2E3C9FD0803CE8000000 PUSH1 0x5 PUSH0 ADD PUSH0 PUSH2 0x100 EXP DUP2 SLOAD DUP2 PUSH16 0xFFFFFFFFFFFFFFFFFFFFFFFFFFFFFFFF MUL NOT AND SWAP1 DUP4 PUSH16 0xFFFFFFFFFFFFFFFFFFFFFFFFFFFFFFFF AND MUL OR SWAP1 SSTORE POP PUSH12 0x33B2E3C9FD0803CE8000000 PUSH1 0x5 PUSH1 0x1 ADD PUSH0 PUSH2 0x100 EXP DUP2 SLOAD DUP2 PUSH16 0xFFFFFFFFFFFFFFFFFFFFFFFFFFFFFFFF MUL NOT AND SWAP1 DUP4 PUSH16 0xFFFFFFFFFFFFFFFFFFFFFFFFFFFFFFFF AND MUL OR SWAP1 SSTORE POP CALLER PUSH1 0xE PUSH0 PUSH2 0x100 EXP DUP2 SLOAD DUP2 PUSH20 0xFFFFFFFFFFFFFFFFFFFFFFFFFFFFFFFFFFFFFFFF MUL NOT AND SWAP1 DUP4 PUSH20 0xFFFFFFFFFFFFFFFFFFFFFFFFFFFFFFFFFFFFFFFF AND MUL OR SWAP1 SSTORE POP PUSH1 0x1 PUSH0 DUP1 CALLER PUSH20 0xFFFFFFFFFFFFFFFFFFFFFFFFFFFFFFFFFFFFFFFF AND PUSH20 0xFFFFFFFFFFFFFFFFFFFFFFFFFFFFFFFFFFFFFFFF AND DUP2 MSTORE PUSH1 0x20 ADD SWAP1 DUP2 MSTORE PUSH1 0x20 ADD PUSH0 KECCAK256 PUSH0 PUSH2 0x100 EXP DUP2 SLOAD DUP2 PUSH1 0xFF MUL NOT AND SWAP1 DUP4 ISZERO ISZERO MUL OR SWAP1 SSTORE POP DUP6 PUSH1 0x10 DUP2 SWAP1 SSTORE POP DUP4 ISZERO PUSH2 0xE1C JUMPI PUSH0 DUP6 PUSH0 ADD PUSH1 0x8 PUSH2 0x100 EXP DUP2 SLOAD DUP2 PUSH1 0xFF MUL NOT AND SWAP1 DUP4 ISZERO ISZERO MUL OR SWAP1 SSTORE POP PUSH32 0xC7F505B2F371AE2175EE4913F4499E1F2633A7B5936321EED1CDAEB6115181D2 PUSH1 0x1 PUSH1 0x40 MLOAD PUSH2 0xE13 SWAP2 SWAP1 PUSH2 0x4E07 JUMP JUMPDEST PUSH1 0x40 MLOAD DUP1 SWAP2 SUB SWAP1 LOG1 JUMPDEST POP POP POP POP POP POP POP POP JUMP JUMPDEST PUSH1 0xA SLOAD DUP2 JUMP JUMPDEST PUSH1 0x8 PUSH1 0x20 MSTORE DUP1 PUSH0 MSTORE PUSH1 0x40 PUSH0 KECCAK256 PUSH0 SWAP2 POP SWAP1 POP SLOAD DUP2 JUMP JUMPDEST PUSH1 0x9 PUSH1 0x20 MSTORE DUP1 PUSH0 MSTORE PUSH1 0x40 PUSH0 KECCAK256 PUSH0 SWAP2 POP SWAP1 POP SLOAD DUP2 JUMP JUMPDEST PUSH0 ISZERO ISZERO PUSH1 0xE PUSH1 0x14 SWAP1 SLOAD SWAP1 PUSH2 0x100 EXP SWAP1 DIV PUSH1 0xFF AND ISZERO ISZERO EQ PUSH1 0x40 MLOAD DUP1 PUSH1 0x40 ADD PUSH1 0x40 MSTORE DUP1 PUSH1 0x2 DUP2 MSTORE PUSH1 0x20 ADD PUSH32 0x3231000000000000000000000000000000000000000000000000000000000000 DUP2 MSTORE POP SWAP1 PUSH2 0xEE3 JUMPI PUSH1 0x40 MLOAD PUSH32 0x8C379A000000000000000000000000000000000000000000000000000000000 DUP2 MSTORE PUSH1 0x4 ADD PUSH2 0xEDA SWAP2 SWAP1 PUSH2 0x4D9B JUMP JUMPDEST PUSH1 0x40 MLOAD DUP1 SWAP2 SUB SWAP1 REVERT JUMPDEST POP PUSH0 PUSH2 0xEED PUSH2 0x3836 JUMP JUMPDEST SWAP1 POP PUSH2 0xEF8 DUP2 PUSH2 0x3A0A JUMP JUMPDEST PUSH0 PUSH1 0x1 PUSH0 SWAP1 SLOAD SWAP1 PUSH2 0x100 EXP SWAP1 DIV PUSH20 0xFFFFFFFFFFFFFFFFFFFFFFFFFFFFFFFFFFFFFFFF AND PUSH20 0xFFFFFFFFFFFFFFFFFFFFFFFFFFFFFFFFFFFFFFFF AND PUSH4 0x313CE567 PUSH1 0x40 MLOAD DUP2 PUSH4 0xFFFFFFFF AND PUSH1 0xE0 SHL DUP2 MSTORE PUSH1 0x4 ADD PUSH1 0x20 PUSH1 0x40 MLOAD DUP1 DUP4 SUB DUP2 DUP7 GAS STATICCALL ISZERO DUP1 ISZERO PUSH2 0xF63 JUMPI RETURNDATASIZE PUSH0 DUP1 RETURNDATACOPY RETURNDATASIZE PUSH0 REVERT JUMPDEST POP POP POP POP PUSH1 0x40 MLOAD RETURNDATASIZE PUSH1 0x1F NOT PUSH1 0x1F DUP3 ADD AND DUP3 ADD DUP1 PUSH1 0x40 MSTORE POP DUP2 ADD SWAP1 PUSH2 0xF87 SWAP2 SWAP1 PUSH2 0x4ACC JUMP JUMPDEST PUSH1 0xA PUSH2 0xF93 SWAP2 SWAP1 PUSH2 0x4C53 JUMP JUMPDEST PUSH12 0x33B2E3C9FD0803CE8000000 PUSH16 0xFFFFFFFFFFFFFFFFFFFFFFFFFFFFFFFF AND DUP5 PUSH2 0xFBD SWAP2 SWAP1 PUSH2 0x4C9D JUMP JUMPDEST PUSH2 0xFC7 SWAP2 SWAP1 PUSH2 0x4D0B JUMP JUMPDEST SWAP1 POP PUSH2 0xFD3 PUSH0 DUP3 PUSH2 0x3A67 JUMP JUMPDEST PUSH0 PUSH2 0x1018 PUSH1 0x5 PUSH0 ADD PUSH0 SWAP1 SLOAD SWAP1 PUSH2 0x100 EXP SWAP1 DIV PUSH16 0xFFFFFFFFFFFFFFFFFFFFFFFFFFFFFFFF AND PUSH16 0xFFFFFFFFFFFFFFFFFFFFFFFFFFFFFFFF AND DUP4 PUSH2 0x3C5A SWAP1 SWAP2 SWAP1 PUSH4 0xFFFFFFFF AND JUMP JUMPDEST SWAP1 POP PUSH0 DUP2 PUSH1 0x8 PUSH0 CALLER PUSH20 0xFFFFFFFFFFFFFFFFFFFFFFFFFFFFFFFFFFFFFFFF AND PUSH20 0xFFFFFFFFFFFFFFFFFFFFFFFFFFFFFFFFFFFFFFFF AND DUP2 MSTORE PUSH1 0x20 ADD SWAP1 DUP2 MSTORE PUSH1 0x20 ADD PUSH0 KECCAK256 SLOAD PUSH2 0x1064 SWAP2 SWAP1 PUSH2 0x4E20 JUMP JUMPDEST SWAP1 POP DUP2 PUSH1 0xA PUSH0 DUP3 DUP3 SLOAD PUSH2 0x1077 SWAP2 SWAP1 PUSH2 0x4E20 JUMP JUMPDEST SWAP3 POP POP DUP2 SWAP1 SSTORE POP DUP2 PUSH1 0xB PUSH0 DUP3 DUP3 SLOAD PUSH2 0x108F SWAP2 SWAP1 PUSH2 0x4E20 JUMP JUMPDEST SWAP3 POP POP DUP2 SWAP1 SSTORE POP PUSH0 DUP2 LT ISZERO PUSH1 0x40 MLOAD DUP1 PUSH1 0x40 ADD PUSH1 0x40 MSTORE DUP1 PUSH1 0x1 DUP2 MSTORE PUSH1 0x20 ADD PUSH32 0x3800000000000000000000000000000000000000000000000000000000000000 DUP2 MSTORE POP SWAP1 PUSH2 0x1111 JUMPI PUSH1 0x40 MLOAD PUSH32 0x8C379A000000000000000000000000000000000000000000000000000000000 DUP2 MSTORE PUSH1 0x4 ADD PUSH2 0x1108 SWAP2 SWAP1 PUSH2 0x4D9B JUMP JUMPDEST PUSH1 0x40 MLOAD DUP1 SWAP2 SUB SWAP1 REVERT JUMPDEST POP DUP1 PUSH1 0x8 PUSH0 CALLER PUSH20 0xFFFFFFFFFFFFFFFFFFFFFFFFFFFFFFFFFFFFFFFF AND PUSH20 0xFFFFFFFFFFFFFFFFFFFFFFFFFFFFFFFFFFFFFFFF AND DUP2 MSTORE PUSH1 0x20 ADD SWAP1 DUP2 MSTORE PUSH1 0x20 ADD PUSH0 KECCAK256 DUP2 SWAP1 SSTORE POP DUP5 PUSH1 0xD PUSH0 DUP3 DUP3 SLOAD PUSH2 0x1165 SWAP2 SWAP1 PUSH2 0x4E20 JUMP JUMPDEST SWAP3 POP POP DUP2 SWAP1 SSTORE POP PUSH1 0x1 PUSH0 SWAP1 SLOAD SWAP1 PUSH2 0x100 EXP SWAP1 DIV PUSH20 0xFFFFFFFFFFFFFFFFFFFFFFFFFFFFFFFFFFFFFFFF AND PUSH20 0xFFFFFFFFFFFFFFFFFFFFFFFFFFFFFFFFFFFFFFFF AND PUSH4 0xA9059CBB CALLER DUP8 PUSH1 0x40 MLOAD DUP4 PUSH4 0xFFFFFFFF AND PUSH1 0xE0 SHL DUP2 MSTORE PUSH1 0x4 ADD PUSH2 0x11C8 SWAP3 SWAP2 SWAP1 PUSH2 0x4E53 JUMP JUMPDEST PUSH1 0x20 PUSH1 0x40 MLOAD DUP1 DUP4 SUB DUP2 PUSH0 DUP8 GAS CALL ISZERO DUP1 ISZERO PUSH2 0x11E4 JUMPI RETURNDATASIZE PUSH0 DUP1 RETURNDATACOPY RETURNDATASIZE PUSH0 REVERT JUMPDEST POP POP POP POP PUSH1 0x40 MLOAD RETURNDATASIZE PUSH1 0x1F NOT PUSH1 0x1F DUP3 ADD AND DUP3 ADD DUP1 PUSH1 0x40 MSTORE POP DUP2 ADD SWAP1 PUSH2 0x1208 SWAP2 SWAP1 PUSH2 0x4E8E JUMP JUMPDEST POP DUP5 PUSH1 0xF PUSH0 CALLER PUSH20 0xFFFFFFFFFFFFFFFFFFFFFFFFFFFFFFFFFFFFFFFF AND PUSH20 0xFFFFFFFFFFFFFFFFFFFFFFFFFFFFFFFFFFFFFFFF AND DUP2 MSTORE PUSH1 0x20 ADD SWAP1 DUP2 MSTORE PUSH1 0x20 ADD PUSH0 KECCAK256 SLOAD GT ISZERO PUSH2 0x12A6 JUMPI DUP5 PUSH1 0xF PUSH0 CALLER PUSH20 0xFFFFFFFFFFFFFFFFFFFFFFFFFFFFFFFFFFFFFFFF AND PUSH20 0xFFFFFFFFFFFFFFFFFFFFFFFFFFFFFFFFFFFFFFFF AND DUP2 MSTORE PUSH1 0x20 ADD SWAP1 DUP2 MSTORE PUSH1 0x20 ADD PUSH0 KECCAK256 PUSH0 DUP3 DUP3 SLOAD PUSH2 0x129A SWAP2 SWAP1 PUSH2 0x4E20 JUMP JUMPDEST SWAP3 POP POP DUP2 SWAP1 SSTORE POP PUSH2 0x12E9 JUMP JUMPDEST PUSH0 PUSH1 0xF PUSH0 CALLER PUSH20 0xFFFFFFFFFFFFFFFFFFFFFFFFFFFFFFFFFFFFFFFF AND PUSH20 0xFFFFFFFFFFFFFFFFFFFFFFFFFFFFFFFFFFFFFFFF AND DUP2 MSTORE PUSH1 0x20 ADD SWAP1 DUP2 MSTORE PUSH1 0x20 ADD PUSH0 KECCAK256 DUP2 SWAP1 SSTORE POP JUMPDEST PUSH1 0x1 PUSH0 SWAP1 SLOAD SWAP1 PUSH2 0x100 EXP SWAP1 DIV PUSH20 0xFFFFFFFFFFFFFFFFFFFFFFFFFFFFFFFFFFFFFFFF AND PUSH20 0xFFFFFFFFFFFFFFFFFFFFFFFFFFFFFFFFFFFFFFFF AND ADDRESS PUSH20 0xFFFFFFFFFFFFFFFFFFFFFFFFFFFFFFFFFFFFFFFF AND CALLER PUSH20 0xFFFFFFFFFFFFFFFFFFFFFFFFFFFFFFFFFFFFFFFF AND PUSH32 0x173401E3C9626102FE861CA7DDB4665D741DEEBAD547125C24038CAFA9345DB2 DUP9 PUSH1 0x8 PUSH0 CALLER PUSH20 0xFFFFFFFFFFFFFFFFFFFFFFFFFFFFFFFFFFFFFFFF AND PUSH20 0xFFFFFFFFFFFFFFFFFFFFFFFFFFFFFFFFFFFFFFFF AND DUP2 MSTORE PUSH1 0x20 ADD SWAP1 DUP2 MSTORE PUSH1 0x20 ADD PUSH0 KECCAK256 SLOAD PUSH1 0xA SLOAD PUSH1 0xB SLOAD PUSH1 0xD SLOAD PUSH1 0x40 MLOAD PUSH2 0x13C9 SWAP6 SWAP5 SWAP4 SWAP3 SWAP2 SWAP1 PUSH2 0x4EB9 JUMP JUMPDEST PUSH1 0x40 MLOAD DUP1 SWAP2 SUB SWAP1 LOG4 POP POP POP POP POP JUMP JUMPDEST PUSH1 0xF PUSH1 0x20 MSTORE DUP1 PUSH0 MSTORE PUSH1 0x40 PUSH0 KECCAK256 PUSH0 SWAP2 POP SWAP1 POP SLOAD DUP2 JUMP JUMPDEST PUSH0 ISZERO ISZERO PUSH1 0xE PUSH1 0x14 SWAP1 SLOAD SWAP1 PUSH2 0x100 EXP SWAP1 DIV PUSH1 0xFF AND ISZERO ISZERO EQ PUSH1 0x40 MLOAD DUP1 PUSH1 0x40 ADD PUSH1 0x40 MSTORE DUP1 PUSH1 0x2 DUP2 MSTORE PUSH1 0x20 ADD PUSH32 0x3231000000000000000000000000000000000000000000000000000000000000 DUP2 MSTORE POP SWAP1 PUSH2 0x147A JUMPI PUSH1 0x40 MLOAD PUSH32 0x8C379A000000000000000000000000000000000000000000000000000000000 DUP2 MSTORE PUSH1 0x4 ADD PUSH2 0x1471 SWAP2 SWAP1 PUSH2 0x4D9B JUMP JUMPDEST PUSH1 0x40 MLOAD DUP1 SWAP2 SUB SWAP1 REVERT JUMPDEST POP PUSH1 0x10 SLOAD DUP2 PUSH2 0x1487 PUSH2 0x2711 JUMP JUMPDEST PUSH2 0x1491 SWAP2 SWAP1 PUSH2 0x4F0A JUMP JUMPDEST GT ISZERO PUSH1 0x40 MLOAD DUP1 PUSH1 0x40 ADD PUSH1 0x40 MSTORE DUP1 PUSH1 0x2 DUP2 MSTORE PUSH1 0x20 ADD PUSH32 0x3233000000000000000000000000000000000000000000000000000000000000 DUP2 MSTORE POP SWAP1 PUSH2 0x150A JUMPI PUSH1 0x40 MLOAD PUSH32 0x8C379A000000000000000000000000000000000000000000000000000000000 DUP2 MSTORE PUSH1 0x4 ADD PUSH2 0x1501 SWAP2 SWAP1 PUSH2 0x4D9B JUMP JUMPDEST PUSH1 0x40 MLOAD DUP1 SWAP2 SUB SWAP1 REVERT JUMPDEST POP PUSH0 PUSH2 0x1514 PUSH2 0x3836 JUMP JUMPDEST SWAP1 POP PUSH2 0x151F DUP2 PUSH2 0x3A0A JUMP JUMPDEST PUSH0 PUSH1 0x1 PUSH0 SWAP1 SLOAD SWAP1 PUSH2 0x100 EXP SWAP1 DIV PUSH20 0xFFFFFFFFFFFFFFFFFFFFFFFFFFFFFFFFFFFFFFFF AND PUSH20 0xFFFFFFFFFFFFFFFFFFFFFFFFFFFFFFFFFFFFFFFF AND PUSH4 0x313CE567 PUSH1 0x40 MLOAD DUP2 PUSH4 0xFFFFFFFF AND PUSH1 0xE0 SHL DUP2 MSTORE PUSH1 0x4 ADD PUSH1 0x20 PUSH1 0x40 MLOAD DUP1 DUP4 SUB DUP2 DUP7 GAS STATICCALL ISZERO DUP1 ISZERO PUSH2 0x158A JUMPI RETURNDATASIZE PUSH0 DUP1 RETURNDATACOPY RETURNDATASIZE PUSH0 REVERT JUMPDEST POP POP POP POP PUSH1 0x40 MLOAD RETURNDATASIZE PUSH1 0x1F NOT PUSH1 0x1F DUP3 ADD AND DUP3 ADD DUP1 PUSH1 0x40 MSTORE POP DUP2 ADD SWAP1 PUSH2 0x15AE SWAP2 SWAP1 PUSH2 0x4ACC JUMP JUMPDEST PUSH1 0xA PUSH2 0x15BA SWAP2 SWAP1 PUSH2 0x4C53 JUMP JUMPDEST PUSH12 0x33B2E3C9FD0803CE8000000 PUSH16 0xFFFFFFFFFFFFFFFFFFFFFFFFFFFFFFFF AND DUP5 PUSH2 0x15E4 SWAP2 SWAP1 PUSH2 0x4C9D JUMP JUMPDEST PUSH2 0x15EE SWAP2 SWAP1 PUSH2 0x4D0B JUMP JUMPDEST SWAP1 POP PUSH2 0x15FA DUP2 PUSH0 PUSH2 0x3A67 JUMP JUMPDEST PUSH0 PUSH2 0x163F PUSH1 0x5 PUSH0 ADD PUSH0 SWAP1 SLOAD SWAP1 PUSH2 0x100 EXP SWAP1 DIV PUSH16 0xFFFFFFFFFFFFFFFFFFFFFFFFFFFFFFFF AND PUSH16 0xFFFFFFFFFFFFFFFFFFFFFFFFFFFFFFFF AND DUP4 PUSH2 0x3C5A SWAP1 SWAP2 SWAP1 PUSH4 0xFFFFFFFF AND JUMP JUMPDEST SWAP1 POP PUSH0 DUP2 PUSH1 0x8 PUSH0 CALLER PUSH20 0xFFFFFFFFFFFFFFFFFFFFFFFFFFFFFFFFFFFFFFFF AND PUSH20 0xFFFFFFFFFFFFFFFFFFFFFFFFFFFFFFFFFFFFFFFF AND DUP2 MSTORE PUSH1 0x20 ADD SWAP1 DUP2 MSTORE PUSH1 0x20 ADD PUSH0 KECCAK256 SLOAD PUSH2 0x168B SWAP2 SWAP1 PUSH2 0x4F0A JUMP JUMPDEST SWAP1 POP DUP2 PUSH1 0xA PUSH0 DUP3 DUP3 SLOAD PUSH2 0x169E SWAP2 SWAP1 PUSH2 0x4F0A JUMP JUMPDEST SWAP3 POP POP DUP2 SWAP1 SSTORE POP DUP2 PUSH1 0xB PUSH0 DUP3 DUP3 SLOAD PUSH2 0x16B6 SWAP2 SWAP1 PUSH2 0x4F0A JUMP JUMPDEST SWAP3 POP POP DUP2 SWAP1 SSTORE POP DUP1 PUSH1 0x8 PUSH0 CALLER PUSH20 0xFFFFFFFFFFFFFFFFFFFFFFFFFFFFFFFFFFFFFFFF AND PUSH20 0xFFFFFFFFFFFFFFFFFFFFFFFFFFFFFFFFFFFFFFFF AND DUP2 MSTORE PUSH1 0x20 ADD SWAP1 DUP2 MSTORE PUSH1 0x20 ADD PUSH0 KECCAK256 DUP2 SWAP1 SSTORE POP DUP5 PUSH1 0xD PUSH0 DUP3 DUP3 SLOAD PUSH2 0x1710 SWAP2 SWAP1 PUSH2 0x4F0A JUMP JUMPDEST SWAP3 POP POP DUP2 SWAP1 SSTORE POP PUSH1 0x1 PUSH0 SWAP1 SLOAD SWAP1 PUSH2 0x100 EXP SWAP1 DIV PUSH20 0xFFFFFFFFFFFFFFFFFFFFFFFFFFFFFFFFFFFFFFFF AND PUSH20 0xFFFFFFFFFFFFFFFFFFFFFFFFFFFFFFFFFFFFFFFF AND PUSH4 0x23B872DD CALLER ADDRESS DUP9 PUSH1 0x40 MLOAD DUP5 PUSH4 0xFFFFFFFF AND PUSH1 0xE0 SHL DUP2 MSTORE PUSH1 0x4 ADD PUSH2 0x1775 SWAP4 SWAP3 SWAP2 SWAP1 PUSH2 0x4F3D JUMP JUMPDEST PUSH1 0x20 PUSH1 0x40 MLOAD DUP1 DUP4 SUB DUP2 PUSH0 DUP8 GAS CALL ISZERO DUP1 ISZERO PUSH2 0x1791 JUMPI RETURNDATASIZE PUSH0 DUP1 RETURNDATACOPY RETURNDATASIZE PUSH0 REVERT JUMPDEST POP POP POP POP PUSH1 0x40 MLOAD RETURNDATASIZE PUSH1 0x1F NOT PUSH1 0x1F DUP3 ADD AND DUP3 ADD DUP1 PUSH1 0x40 MSTORE POP DUP2 ADD SWAP1 PUSH2 0x17B5 SWAP2 SWAP1 PUSH2 0x4E8E JUMP JUMPDEST POP DUP5 PUSH1 0xF PUSH0 CALLER PUSH20 0xFFFFFFFFFFFFFFFFFFFFFFFFFFFFFFFFFFFFFFFF AND PUSH20 0xFFFFFFFFFFFFFFFFFFFFFFFFFFFFFFFFFFFFFFFF AND DUP2 MSTORE PUSH1 0x20 ADD SWAP1 DUP2 MSTORE PUSH1 0x20 ADD PUSH0 KECCAK256 PUSH0 DUP3 DUP3 SLOAD PUSH2 0x1802 SWAP2 SWAP1 PUSH2 0x4F0A JUMP JUMPDEST SWAP3 POP POP DUP2 SWAP1 SSTORE POP PUSH1 0x1 PUSH0 SWAP1 SLOAD SWAP1 PUSH2 0x100 EXP SWAP1 DIV PUSH20 0xFFFFFFFFFFFFFFFFFFFFFFFFFFFFFFFFFFFFFFFF AND PUSH20 0xFFFFFFFFFFFFFFFFFFFFFFFFFFFFFFFFFFFFFFFF AND ADDRESS PUSH20 0xFFFFFFFFFFFFFFFFFFFFFFFFFFFFFFFFFFFFFFFF AND CALLER PUSH20 0xFFFFFFFFFFFFFFFFFFFFFFFFFFFFFFFFFFFFFFFF AND PUSH32 0xAC71E4358C08CEF1A5335AC1C1D79F8EEA0A3BD10F01A4259308137EBC63D76A DUP9 PUSH1 0x8 PUSH0 CALLER PUSH20 0xFFFFFFFFFFFFFFFFFFFFFFFFFFFFFFFFFFFFFFFF AND PUSH20 0xFFFFFFFFFFFFFFFFFFFFFFFFFFFFFFFFFFFFFFFF AND DUP2 MSTORE PUSH1 0x20 ADD SWAP1 DUP2 MSTORE PUSH1 0x20 ADD PUSH0 KECCAK256 SLOAD PUSH1 0xA SLOAD PUSH1 0xB SLOAD PUSH1 0xD SLOAD PUSH1 0x40 MLOAD PUSH2 0x18E9 SWAP6 SWAP5 SWAP4 SWAP3 SWAP2 SWAP1 PUSH2 0x4EB9 JUMP JUMPDEST PUSH1 0x40 MLOAD DUP1 SWAP2 SUB SWAP1 LOG4 POP POP POP POP POP JUMP JUMPDEST PUSH1 0x10 SLOAD DUP2 JUMP JUMPDEST CALLER PUSH20 0xFFFFFFFFFFFFFFFFFFFFFFFFFFFFFFFFFFFFFFFF AND PUSH1 0x4 PUSH0 SWAP1 SLOAD SWAP1 PUSH2 0x100 EXP SWAP1 DIV PUSH20 0xFFFFFFFFFFFFFFFFFFFFFFFFFFFFFFFFFFFFFFFF AND PUSH20 0xFFFFFFFFFFFFFFFFFFFFFFFFFFFFFFFFFFFFFFFF AND EQ PUSH1 0x40 MLOAD DUP1 PUSH1 0x40 ADD PUSH1 0x40 MSTORE DUP1 PUSH1 0x2 DUP2 MSTORE PUSH1 0x20 ADD PUSH32 0x3133000000000000000000000000000000000000000000000000000000000000 DUP2 MSTORE POP SWAP1 PUSH2 0x19C5 JUMPI PUSH1 0x40 MLOAD PUSH32 0x8C379A000000000000000000000000000000000000000000000000000000000 DUP2 MSTORE PUSH1 0x4 ADD PUSH2 0x19BC SWAP2 SWAP1 PUSH2 0x4D9B JUMP JUMPDEST PUSH1 0x40 MLOAD DUP1 SWAP2 SUB SWAP1 REVERT JUMPDEST POP PUSH0 ISZERO ISZERO PUSH1 0xE PUSH1 0x14 SWAP1 SLOAD SWAP1 PUSH2 0x100 EXP SWAP1 DIV PUSH1 0xFF AND ISZERO ISZERO EQ PUSH1 0x40 MLOAD DUP1 PUSH1 0x40 ADD PUSH1 0x40 MSTORE DUP1 PUSH1 0x2 DUP2 MSTORE PUSH1 0x20 ADD PUSH32 0x3231000000000000000000000000000000000000000000000000000000000000 DUP2 MSTORE POP SWAP1 PUSH2 0x1A53 JUMPI PUSH1 0x40 MLOAD PUSH32 0x8C379A000000000000000000000000000000000000000000000000000000000 DUP2 MSTORE PUSH1 0x4 ADD PUSH2 0x1A4A SWAP2 SWAP1 PUSH2 0x4D9B JUMP JUMPDEST PUSH1 0x40 MLOAD DUP1 SWAP2 SUB SWAP1 REVERT JUMPDEST POP PUSH0 PUSH2 0x1A5D PUSH2 0x3836 JUMP JUMPDEST SWAP1 POP PUSH2 0x1A68 DUP2 PUSH2 0x3A0A JUMP JUMPDEST PUSH0 PUSH1 0x1 PUSH0 SWAP1 SLOAD SWAP1 PUSH2 0x100 EXP SWAP1 DIV PUSH20 0xFFFFFFFFFFFFFFFFFFFFFFFFFFFFFFFFFFFFFFFF AND PUSH20 0xFFFFFFFFFFFFFFFFFFFFFFFFFFFFFFFFFFFFFFFF AND PUSH4 0x313CE567 PUSH1 0x40 MLOAD DUP2 PUSH4 0xFFFFFFFF AND PUSH1 0xE0 SHL DUP2 MSTORE PUSH1 0x4 ADD PUSH1 0x20 PUSH1 0x40 MLOAD DUP1 DUP4 SUB DUP2 DUP7 GAS STATICCALL ISZERO DUP1 ISZERO PUSH2 0x1AD3 JUMPI RETURNDATASIZE PUSH0 DUP1 RETURNDATACOPY RETURNDATASIZE PUSH0 REVERT JUMPDEST POP POP POP POP PUSH1 0x40 MLOAD RETURNDATASIZE PUSH1 0x1F NOT PUSH1 0x1F DUP3 ADD AND DUP3 ADD DUP1 PUSH1 0x40 MSTORE POP DUP2 ADD SWAP1 PUSH2 0x1AF7 SWAP2 SWAP1 PUSH2 0x4ACC JUMP JUMPDEST PUSH1 0xA PUSH2 0x1B03 SWAP2 SWAP1 PUSH2 0x4C53 JUMP JUMPDEST PUSH12 0x33B2E3C9FD0803CE8000000 PUSH16 0xFFFFFFFFFFFFFFFFFFFFFFFFFFFFFFFF AND DUP7 PUSH2 0x1B2D SWAP2 SWAP1 PUSH2 0x4C9D JUMP JUMPDEST PUSH2 0x1B37 SWAP2 SWAP1 PUSH2 0x4D0B JUMP JUMPDEST SWAP1 POP PUSH0 PUSH2 0x1B51 DUP4 PUSH1 0x80 ADD MLOAD DUP4 PUSH2 0x3C5A SWAP1 SWAP2 SWAP1 PUSH4 0xFFFFFFFF AND JUMP JUMPDEST SWAP1 POP PUSH0 DUP2 PUSH1 0x9 PUSH0 DUP11 DUP2 MSTORE PUSH1 0x20 ADD SWAP1 DUP2 MSTORE PUSH1 0x20 ADD PUSH0 KECCAK256 SLOAD PUSH2 0x1B71 SWAP2 SWAP1 PUSH2 0x4F0A JUMP JUMPDEST SWAP1 POP DUP2 PUSH1 0xC PUSH0 DUP3 DUP3 SLOAD PUSH2 0x1B84 SWAP2 SWAP1 PUSH2 0x4F0A JUMP JUMPDEST SWAP3 POP POP DUP2 SWAP1 SSTORE POP PUSH1 0xD SLOAD DUP8 GT ISZERO PUSH1 0x40 MLOAD DUP1 PUSH1 0x40 ADD PUSH1 0x40 MSTORE DUP1 PUSH1 0x2 DUP2 MSTORE PUSH1 0x20 ADD PUSH32 0x3135000000000000000000000000000000000000000000000000000000000000 DUP2 MSTORE POP SWAP1 PUSH2 0x1C08 JUMPI PUSH1 0x40 MLOAD PUSH32 0x8C379A000000000000000000000000000000000000000000000000000000000 DUP2 MSTORE PUSH1 0x4 ADD PUSH2 0x1BFF SWAP2 SWAP1 PUSH2 0x4D9B JUMP JUMPDEST PUSH1 0x40 MLOAD DUP1 SWAP2 SUB SWAP1 REVERT JUMPDEST POP PUSH0 PUSH1 0x3 PUSH0 DUP11 DUP2 MSTORE PUSH1 0x20 ADD SWAP1 DUP2 MSTORE PUSH1 0x20 ADD PUSH0 KECCAK256 SWAP1 POP DUP2 PUSH1 0x9 PUSH0 DUP12 DUP2 MSTORE PUSH1 0x20 ADD SWAP1 DUP2 MSTORE PUSH1 0x20 ADD PUSH0 KECCAK256 DUP2 SWAP1 SSTORE POP DUP9 DUP2 PUSH0 ADD DUP2 SWAP1 SSTORE POP DUP8 DUP2 PUSH1 0x2 ADD DUP2 SWAP1 SSTORE POP DUP7 DUP2 PUSH1 0x3 ADD PUSH1 0x1 PUSH2 0x100 EXP DUP2 SLOAD DUP2 PUSH20 0xFFFFFFFFFFFFFFFFFFFFFFFFFFFFFFFFFFFFFFFF MUL NOT AND SWAP1 DUP4 PUSH20 0xFFFFFFFFFFFFFFFFFFFFFFFFFFFFFFFFFFFFFFFF AND MUL OR SWAP1 SSTORE POP DUP6 DUP2 PUSH1 0x4 ADD PUSH1 0x15 PUSH2 0x100 EXP DUP2 SLOAD DUP2 PUSH1 0xFF MUL NOT AND SWAP1 DUP4 ISZERO ISZERO MUL OR SWAP1 SSTORE POP PUSH2 0x1CAD PUSH0 DUP6 PUSH2 0x3A67 JUMP JUMPDEST PUSH2 0x1CC4 DUP6 PUSH1 0x40 ADD MLOAD DUP6 PUSH2 0x3C5A SWAP1 SWAP2 SWAP1 PUSH4 0xFFFFFFFF AND JUMP JUMPDEST PUSH1 0xB PUSH0 DUP3 DUP3 SLOAD PUSH2 0x1CD4 SWAP2 SWAP1 PUSH2 0x4E20 JUMP JUMPDEST SWAP3 POP POP DUP2 SWAP1 SSTORE POP DUP8 PUSH1 0xD PUSH0 DUP3 DUP3 SLOAD PUSH2 0x1CEC SWAP2 SWAP1 PUSH2 0x4E20 JUMP JUMPDEST SWAP3 POP POP DUP2 SWAP1 SSTORE POP POP POP POP POP POP POP POP POP POP JUMP JUMPDEST PUSH1 0x1 ISZERO ISZERO PUSH0 DUP1 CALLER PUSH20 0xFFFFFFFFFFFFFFFFFFFFFFFFFFFFFFFFFFFFFFFF AND PUSH20 0xFFFFFFFFFFFFFFFFFFFFFFFFFFFFFFFFFFFFFFFF AND DUP2 MSTORE PUSH1 0x20 ADD SWAP1 DUP2 MSTORE PUSH1 0x20 ADD PUSH0 KECCAK256 PUSH0 SWAP1 SLOAD SWAP1 PUSH2 0x100 EXP SWAP1 DIV PUSH1 0xFF AND ISZERO ISZERO EQ PUSH1 0x40 MLOAD DUP1 PUSH1 0x40 ADD PUSH1 0x40 MSTORE DUP1 PUSH1 0x2 DUP2 MSTORE PUSH1 0x20 ADD PUSH32 0x3138000000000000000000000000000000000000000000000000000000000000 DUP2 MSTORE POP SWAP1 PUSH2 0x1DC5 JUMPI PUSH1 0x40 MLOAD PUSH32 0x8C379A000000000000000000000000000000000000000000000000000000000 DUP2 MSTORE PUSH1 0x4 ADD PUSH2 0x1DBC SWAP2 SWAP1 PUSH2 0x4D9B JUMP JUMPDEST PUSH1 0x40 MLOAD DUP1 SWAP2 SUB SWAP1 REVERT JUMPDEST POP DUP1 PUSH1 0x5 PUSH1 0x2 ADD PUSH1 0x7 PUSH2 0x100 EXP DUP2 SLOAD DUP2 PUSH20 0xFFFFFFFFFFFFFFFFFFFFFFFFFFFFFFFFFFFFFFFF MUL NOT AND SWAP1 DUP4 PUSH20 0xFFFFFFFFFFFFFFFFFFFFFFFFFFFFFFFFFFFFFFFF AND MUL OR SWAP1 SSTORE POP POP JUMP JUMPDEST PUSH0 PUSH1 0xD SLOAD SWAP1 POP SWAP1 JUMP JUMPDEST PUSH1 0x4 PUSH0 SWAP1 SLOAD SWAP1 PUSH2 0x100 EXP SWAP1 DIV PUSH20 0xFFFFFFFFFFFFFFFFFFFFFFFFFFFFFFFFFFFFFFFF AND DUP2 JUMP JUMPDEST PUSH1 0x1 ISZERO ISZERO PUSH0 DUP1 CALLER PUSH20 0xFFFFFFFFFFFFFFFFFFFFFFFFFFFFFFFFFFFFFFFF AND PUSH20 0xFFFFFFFFFFFFFFFFFFFFFFFFFFFFFFFFFFFFFFFF AND DUP2 MSTORE PUSH1 0x20 ADD SWAP1 DUP2 MSTORE PUSH1 0x20 ADD PUSH0 KECCAK256 PUSH0 SWAP1 SLOAD SWAP1 PUSH2 0x100 EXP SWAP1 DIV PUSH1 0xFF AND ISZERO ISZERO EQ PUSH1 0x40 MLOAD DUP1 PUSH1 0x40 ADD PUSH1 0x40 MSTORE DUP1 PUSH1 0x2 DUP2 MSTORE PUSH1 0x20 ADD PUSH32 0x3138000000000000000000000000000000000000000000000000000000000000 DUP2 MSTORE POP SWAP1 PUSH2 0x1F02 JUMPI PUSH1 0x40 MLOAD PUSH32 0x8C379A000000000000000000000000000000000000000000000000000000000 DUP2 MSTORE PUSH1 0x4 ADD PUSH2 0x1EF9 SWAP2 SWAP1 PUSH2 0x4D9B JUMP JUMPDEST PUSH1 0x40 MLOAD DUP1 SWAP2 SUB SWAP1 REVERT JUMPDEST POP DUP1 PUSH1 0x10 DUP2 SWAP1 SSTORE POP POP JUMP JUMPDEST PUSH0 PUSH1 0x1 PUSH0 SWAP1 SLOAD SWAP1 PUSH2 0x100 EXP SWAP1 DIV PUSH20 0xFFFFFFFFFFFFFFFFFFFFFFFFFFFFFFFFFFFFFFFF AND PUSH20 0xFFFFFFFFFFFFFFFFFFFFFFFFFFFFFFFFFFFFFFFF AND PUSH4 0x313CE567 PUSH1 0x40 MLOAD DUP2 PUSH4 0xFFFFFFFF AND PUSH1 0xE0 SHL DUP2 MSTORE PUSH1 0x4 ADD PUSH1 0x20 PUSH1 0x40 MLOAD DUP1 DUP4 SUB DUP2 DUP7 GAS STATICCALL ISZERO DUP1 ISZERO PUSH2 0x1F78 JUMPI RETURNDATASIZE PUSH0 DUP1 RETURNDATACOPY RETURNDATASIZE PUSH0 REVERT JUMPDEST POP POP POP POP PUSH1 0x40 MLOAD RETURNDATASIZE PUSH1 0x1F NOT PUSH1 0x1F DUP3 ADD AND DUP3 ADD DUP1 PUSH1 0x40 MSTORE POP DUP2 ADD SWAP1 PUSH2 0x1F9C SWAP2 SWAP1 PUSH2 0x4ACC JUMP JUMPDEST PUSH1 0x1B PUSH2 0x1FA8 SWAP2 SWAP1 PUSH2 0x4F72 JUMP JUMPDEST PUSH1 0xA PUSH2 0x1FB4 SWAP2 SWAP1 PUSH2 0x4C53 JUMP JUMPDEST PUSH2 0x2035 PUSH1 0x5 PUSH0 ADD PUSH0 SWAP1 SLOAD SWAP1 PUSH2 0x100 EXP SWAP1 DIV PUSH16 0xFFFFFFFFFFFFFFFFFFFFFFFFFFFFFFFF AND PUSH16 0xFFFFFFFFFFFFFFFFFFFFFFFFFFFFFFFF AND PUSH1 0x8 PUSH0 DUP7 PUSH20 0xFFFFFFFFFFFFFFFFFFFFFFFFFFFFFFFFFFFFFFFF AND PUSH20 0xFFFFFFFFFFFFFFFFFFFFFFFFFFFFFFFFFFFFFFFF AND DUP2 MSTORE PUSH1 0x20 ADD SWAP1 DUP2 MSTORE PUSH1 0x20 ADD PUSH0 KECCAK256 SLOAD PUSH2 0x399B SWAP1 SWAP2 SWAP1 PUSH4 0xFFFFFFFF AND JUMP JUMPDEST PUSH2 0x203F SWAP2 SWAP1 PUSH2 0x4D0B JUMP JUMPDEST SWAP1 POP SWAP2 SWAP1 POP JUMP JUMPDEST PUSH0 PUSH1 0xF PUSH0 DUP4 PUSH20 0xFFFFFFFFFFFFFFFFFFFFFFFFFFFFFFFFFFFFFFFF AND PUSH20 0xFFFFFFFFFFFFFFFFFFFFFFFFFFFFFFFFFFFFFFFF AND DUP2 MSTORE PUSH1 0x20 ADD SWAP1 DUP2 MSTORE PUSH1 0x20 ADD PUSH0 KECCAK256 SLOAD SWAP1 POP SWAP2 SWAP1 POP JUMP JUMPDEST CALLER PUSH20 0xFFFFFFFFFFFFFFFFFFFFFFFFFFFFFFFFFFFFFFFF AND PUSH1 0x4 PUSH0 SWAP1 SLOAD SWAP1 PUSH2 0x100 EXP SWAP1 DIV PUSH20 0xFFFFFFFFFFFFFFFFFFFFFFFFFFFFFFFFFFFFFFFF AND PUSH20 0xFFFFFFFFFFFFFFFFFFFFFFFFFFFFFFFFFFFFFFFF AND EQ PUSH1 0x40 MLOAD DUP1 PUSH1 0x40 ADD PUSH1 0x40 MSTORE DUP1 PUSH1 0x2 DUP2 MSTORE PUSH1 0x20 ADD PUSH32 0x3133000000000000000000000000000000000000000000000000000000000000 DUP2 MSTORE POP SWAP1 PUSH2 0x2153 JUMPI PUSH1 0x40 MLOAD PUSH32 0x8C379A000000000000000000000000000000000000000000000000000000000 DUP2 MSTORE PUSH1 0x4 ADD PUSH2 0x214A SWAP2 SWAP1 PUSH2 0x4D9B JUMP JUMPDEST PUSH1 0x40 MLOAD DUP1 SWAP2 SUB SWAP1 REVERT JUMPDEST POP PUSH0 ISZERO ISZERO PUSH1 0xE PUSH1 0x14 SWAP1 SLOAD SWAP1 PUSH2 0x100 EXP SWAP1 DIV PUSH1 0xFF AND ISZERO ISZERO EQ PUSH1 0x40 MLOAD DUP1 PUSH1 0x40 ADD PUSH1 0x40 MSTORE DUP1 PUSH1 0x2 DUP2 MSTORE PUSH1 0x20 ADD PUSH32 0x3231000000000000000000000000000000000000000000000000000000000000 DUP2 MSTORE POP SWAP1 PUSH2 0x21E1 JUMPI PUSH1 0x40 MLOAD PUSH32 0x8C379A000000000000000000000000000000000000000000000000000000000 DUP2 MSTORE PUSH1 0x4 ADD PUSH2 0x21D8 SWAP2 SWAP1 PUSH2 0x4D9B JUMP JUMPDEST PUSH1 0x40 MLOAD DUP1 SWAP2 SUB SWAP1 REVERT JUMPDEST POP PUSH0 ISZERO ISZERO PUSH1 0x3 PUSH0 DUP5 DUP2 MSTORE PUSH1 0x20 ADD SWAP1 DUP2 MSTORE PUSH1 0x20 ADD PUSH0 KECCAK256 PUSH1 0x3 ADD PUSH1 0x15 SWAP1 SLOAD SWAP1 PUSH2 0x100 EXP SWAP1 DIV PUSH1 0xFF AND ISZERO ISZERO EQ PUSH1 0x40 MLOAD DUP1 PUSH1 0x40 ADD PUSH1 0x40 MSTORE DUP1 PUSH1 0x2 DUP2 MSTORE PUSH1 0x20 ADD PUSH32 0x3137000000000000000000000000000000000000000000000000000000000000 DUP2 MSTORE POP SWAP1 PUSH2 0x2281 JUMPI PUSH1 0x40 MLOAD PUSH32 0x8C379A000000000000000000000000000000000000000000000000000000000 DUP2 MSTORE PUSH1 0x4 ADD PUSH2 0x2278 SWAP2 SWAP1 PUSH2 0x4D9B JUMP JUMPDEST PUSH1 0x40 MLOAD DUP1 SWAP2 SUB SWAP1 REVERT JUMPDEST POP PUSH2 0x228C DUP2 CALLER PUSH2 0x3C9E JUMP JUMPDEST PUSH1 0x1 PUSH1 0x3 PUSH0 DUP5 DUP2 MSTORE PUSH1 0x20 ADD SWAP1 DUP2 MSTORE PUSH1 0x20 ADD PUSH0 KECCAK256 PUSH1 0x3 ADD PUSH1 0x15 PUSH2 0x100 EXP DUP2 SLOAD DUP2 PUSH1 0xFF MUL NOT AND SWAP1 DUP4 ISZERO ISZERO MUL OR SWAP1 SSTORE POP POP POP JUMP JUMPDEST PUSH1 0x1 ISZERO ISZERO PUSH0 DUP1 CALLER PUSH20 0xFFFFFFFFFFFFFFFFFFFFFFFFFFFFFFFFFFFFFFFF AND PUSH20 0xFFFFFFFFFFFFFFFFFFFFFFFFFFFFFFFFFFFFFFFF AND DUP2 MSTORE PUSH1 0x20 ADD SWAP1 DUP2 MSTORE PUSH1 0x20 ADD PUSH0 KECCAK256 PUSH0 SWAP1 SLOAD SWAP1 PUSH2 0x100 EXP SWAP1 DIV PUSH1 0xFF AND ISZERO ISZERO EQ PUSH1 0x40 MLOAD DUP1 PUSH1 0x40 ADD PUSH1 0x40 MSTORE DUP1 PUSH1 0x2 DUP2 MSTORE PUSH1 0x20 ADD PUSH32 0x3138000000000000000000000000000000000000000000000000000000000000 DUP2 MSTORE POP SWAP1 PUSH2 0x2384 JUMPI PUSH1 0x40 MLOAD PUSH32 0x8C379A000000000000000000000000000000000000000000000000000000000 DUP2 MSTORE PUSH1 0x4 ADD PUSH2 0x237B SWAP2 SWAP1 PUSH2 0x4D9B JUMP JUMPDEST PUSH1 0x40 MLOAD DUP1 SWAP2 SUB SWAP1 REVERT JUMPDEST POP DUP1 PUSH1 0x4 PUSH0 PUSH2 0x100 EXP DUP2 SLOAD DUP2 PUSH20 0xFFFFFFFFFFFFFFFFFFFFFFFFFFFFFFFFFFFFFFFF MUL NOT AND SWAP1 DUP4 PUSH20 0xFFFFFFFFFFFFFFFFFFFFFFFFFFFFFFFFFFFFFFFF AND MUL OR SWAP1 SSTORE POP POP JUMP JUMPDEST PUSH1 0x2 DUP2 DUP2 SLOAD DUP2 LT PUSH2 0x23D7 JUMPI PUSH0 DUP1 REVERT JUMPDEST SWAP1 PUSH0 MSTORE PUSH1 0x20 PUSH0 KECCAK256 ADD PUSH0 SWAP2 POP SLOAD SWAP1 PUSH2 0x100 EXP SWAP1 DIV PUSH20 0xFFFFFFFFFFFFFFFFFFFFFFFFFFFFFFFFFFFFFFFF AND DUP2 JUMP JUMPDEST PUSH1 0x1 PUSH0 SWAP1 SLOAD SWAP1 PUSH2 0x100 EXP SWAP1 DIV PUSH20 0xFFFFFFFFFFFFFFFFFFFFFFFFFFFFFFFFFFFFFFFF AND DUP2 JUMP JUMPDEST CALLER PUSH20 0xFFFFFFFFFFFFFFFFFFFFFFFFFFFFFFFFFFFFFFFF AND PUSH1 0x4 PUSH0 SWAP1 SLOAD SWAP1 PUSH2 0x100 EXP SWAP1 DIV PUSH20 0xFFFFFFFFFFFFFFFFFFFFFFFFFFFFFFFFFFFFFFFF AND PUSH20 0xFFFFFFFFFFFFFFFFFFFFFFFFFFFFFFFFFFFFFFFF AND EQ PUSH1 0x40 MLOAD DUP1 PUSH1 0x40 ADD PUSH1 0x40 MSTORE DUP1 PUSH1 0x2 DUP2 MSTORE PUSH1 0x20 ADD PUSH32 0x3133000000000000000000000000000000000000000000000000000000000000 DUP2 MSTORE POP SWAP1 PUSH2 0x24EF JUMPI PUSH1 0x40 MLOAD PUSH32 0x8C379A000000000000000000000000000000000000000000000000000000000 DUP2 MSTORE PUSH1 0x4 ADD PUSH2 0x24E6 SWAP2 SWAP1 PUSH2 0x4D9B JUMP JUMPDEST PUSH1 0x40 MLOAD DUP1 SWAP2 SUB SWAP1 REVERT JUMPDEST POP PUSH0 ISZERO ISZERO PUSH1 0xE PUSH1 0x14 SWAP1 SLOAD SWAP1 PUSH2 0x100 EXP SWAP1 DIV PUSH1 0xFF AND ISZERO ISZERO EQ PUSH1 0x40 MLOAD DUP1 PUSH1 0x40 ADD PUSH1 0x40 MSTORE DUP1 PUSH1 0x2 DUP2 MSTORE PUSH1 0x20 ADD PUSH32 0x3231000000000000000000000000000000000000000000000000000000000000 DUP2 MSTORE POP SWAP1 PUSH2 0x257D JUMPI PUSH1 0x40 MLOAD PUSH32 0x8C379A000000000000000000000000000000000000000000000000000000000 DUP2 MSTORE PUSH1 0x4 ADD PUSH2 0x2574 SWAP2 SWAP1 PUSH2 0x4D9B JUMP JUMPDEST PUSH1 0x40 MLOAD DUP1 SWAP2 SUB SWAP1 REVERT JUMPDEST POP PUSH2 0x2588 DUP2 CALLER PUSH2 0x3C9E JUMP JUMPDEST POP JUMP JUMPDEST PUSH0 DUP1 PUSH2 0x2595 PUSH2 0x3836 JUMP JUMPDEST SWAP1 POP PUSH0 PUSH2 0x25AA DUP3 PUSH1 0xC0 ADD MLOAD DUP4 PUSH1 0xE0 ADD MLOAD PUSH2 0x3987 JUMP JUMPDEST SWAP1 POP PUSH2 0x25F1 PUSH1 0x5 PUSH1 0x1 ADD PUSH0 SWAP1 SLOAD SWAP1 PUSH2 0x100 EXP SWAP1 DIV PUSH16 0xFFFFFFFFFFFFFFFFFFFFFFFFFFFFFFFF AND PUSH16 0xFFFFFFFFFFFFFFFFFFFFFFFFFFFFFFFF AND DUP3 PUSH2 0x399B SWAP1 SWAP2 SWAP1 PUSH4 0xFFFFFFFF AND JUMP JUMPDEST DUP3 PUSH1 0x80 ADD DUP2 DUP2 MSTORE POP POP PUSH12 0x33B2E3C9FD0803CE8000000 PUSH16 0xFFFFFFFFFFFFFFFFFFFFFFFFFFFFFFFF AND PUSH1 0x1 PUSH0 SWAP1 SLOAD SWAP1 PUSH2 0x100 EXP SWAP1 DIV PUSH20 0xFFFFFFFFFFFFFFFFFFFFFFFFFFFFFFFFFFFFFFFF AND PUSH20 0xFFFFFFFFFFFFFFFFFFFFFFFFFFFFFFFFFFFFFFFF AND PUSH4 0x313CE567 PUSH1 0x40 MLOAD DUP2 PUSH4 0xFFFFFFFF AND PUSH1 0xE0 SHL DUP2 MSTORE PUSH1 0x4 ADD PUSH1 0x20 PUSH1 0x40 MLOAD DUP1 DUP4 SUB DUP2 DUP7 GAS STATICCALL ISZERO DUP1 ISZERO PUSH2 0x2683 JUMPI RETURNDATASIZE PUSH0 DUP1 RETURNDATACOPY RETURNDATASIZE PUSH0 REVERT JUMPDEST POP POP POP POP PUSH1 0x40 MLOAD RETURNDATASIZE PUSH1 0x1F NOT PUSH1 0x1F DUP3 ADD AND DUP3 ADD DUP1 PUSH1 0x40 MSTORE POP DUP2 ADD SWAP1 PUSH2 0x26A7 SWAP2 SWAP1 PUSH2 0x4ACC JUMP JUMPDEST PUSH1 0xA PUSH2 0x26B3 SWAP2 SWAP1 PUSH2 0x4C53 JUMP JUMPDEST PUSH2 0x26DB DUP5 PUSH1 0x80 ADD MLOAD PUSH1 0x9 PUSH0 DUP10 DUP2 MSTORE PUSH1 0x20 ADD SWAP1 DUP2 MSTORE PUSH1 0x20 ADD PUSH0 KECCAK256 SLOAD PUSH2 0x399B SWAP1 SWAP2 SWAP1 PUSH4 0xFFFFFFFF AND JUMP JUMPDEST PUSH2 0x26E5 SWAP2 SWAP1 PUSH2 0x4C9D JUMP JUMPDEST PUSH2 0x26EF SWAP2 SWAP1 PUSH2 0x4D0B JUMP JUMPDEST SWAP3 POP POP POP SWAP2 SWAP1 POP JUMP JUMPDEST PUSH1 0xD SLOAD DUP2 JUMP JUMPDEST PUSH1 0xE PUSH1 0x14 SWAP1 SLOAD SWAP1 PUSH2 0x100 EXP SWAP1 DIV PUSH1 0xFF AND DUP2 JUMP JUMPDEST PUSH0 DUP1 PUSH2 0x271B PUSH2 0x3836 JUMP JUMPDEST SWAP1 POP PUSH0 PUSH2 0x2730 DUP3 PUSH1 0xA0 ADD MLOAD DUP4 PUSH1 0xE0 ADD MLOAD PUSH2 0x3EE0 JUMP JUMPDEST SWAP1 POP PUSH2 0x2749 DUP3 PUSH1 0x40 ADD MLOAD DUP3 PUSH2 0x399B SWAP1 SWAP2 SWAP1 PUSH4 0xFFFFFFFF AND JUMP JUMPDEST DUP3 PUSH1 0x40 ADD DUP2 DUP2 MSTORE POP POP PUSH12 0x33B2E3C9FD0803CE8000000 PUSH16 0xFFFFFFFFFFFFFFFFFFFFFFFFFFFFFFFF AND PUSH1 0x1 PUSH0 SWAP1 SLOAD SWAP1 PUSH2 0x100 EXP SWAP1 DIV PUSH20 0xFFFFFFFFFFFFFFFFFFFFFFFFFFFFFFFFFFFFFFFF AND PUSH20 0xFFFFFFFFFFFFFFFFFFFFFFFFFFFFFFFFFFFFFFFF AND PUSH4 0x313CE567 PUSH1 0x40 MLOAD DUP2 PUSH4 0xFFFFFFFF AND PUSH1 0xE0 SHL DUP2 MSTORE PUSH1 0x4 ADD PUSH1 0x20 PUSH1 0x40 MLOAD DUP1 DUP4 SUB DUP2 DUP7 GAS STATICCALL ISZERO DUP1 ISZERO PUSH2 0x27DB JUMPI RETURNDATASIZE PUSH0 DUP1 RETURNDATACOPY RETURNDATASIZE PUSH0 REVERT JUMPDEST POP POP POP POP PUSH1 0x40 MLOAD RETURNDATASIZE PUSH1 0x1F NOT PUSH1 0x1F DUP3 ADD AND DUP3 ADD DUP1 PUSH1 0x40 MSTORE POP DUP2 ADD SWAP1 PUSH2 0x27FF SWAP2 SWAP1 PUSH2 0x4ACC JUMP JUMPDEST PUSH1 0xA PUSH2 0x280B SWAP2 SWAP1 PUSH2 0x4C53 JUMP JUMPDEST PUSH2 0x2824 DUP5 PUSH1 0x40 ADD MLOAD PUSH1 0xA SLOAD PUSH2 0x399B SWAP1 SWAP2 SWAP1 PUSH4 0xFFFFFFFF AND JUMP JUMPDEST PUSH2 0x282E SWAP2 SWAP1 PUSH2 0x4C9D JUMP JUMPDEST PUSH2 0x2838 SWAP2 SWAP1 PUSH2 0x4D0B JUMP JUMPDEST SWAP3 POP POP POP SWAP1 JUMP JUMPDEST PUSH1 0x5 DUP1 PUSH0 ADD PUSH0 SWAP1 SLOAD SWAP1 PUSH2 0x100 EXP SWAP1 DIV PUSH16 0xFFFFFFFFFFFFFFFFFFFFFFFFFFFFFFFF AND SWAP1 DUP1 PUSH0 ADD PUSH1 0x10 SWAP1 SLOAD SWAP1 PUSH2 0x100 EXP SWAP1 DIV PUSH16 0xFFFFFFFFFFFFFFFFFFFFFFFFFFFFFFFF AND SWAP1 DUP1 PUSH1 0x1 ADD PUSH0 SWAP1 SLOAD SWAP1 PUSH2 0x100 EXP SWAP1 DIV PUSH16 0xFFFFFFFFFFFFFFFFFFFFFFFFFFFFFFFF AND SWAP1 DUP1 PUSH1 0x1 ADD PUSH1 0x10 SWAP1 SLOAD SWAP1 PUSH2 0x100 EXP SWAP1 DIV PUSH16 0xFFFFFFFFFFFFFFFFFFFFFFFFFFFFFFFF AND SWAP1 DUP1 PUSH1 0x2 ADD PUSH0 SWAP1 SLOAD SWAP1 PUSH2 0x100 EXP SWAP1 DIV PUSH5 0xFFFFFFFFFF AND SWAP1 DUP1 PUSH1 0x2 ADD PUSH1 0x5 SWAP1 SLOAD SWAP1 PUSH2 0x100 EXP SWAP1 DIV PUSH2 0xFFFF AND SWAP1 DUP1 PUSH1 0x2 ADD PUSH1 0x7 SWAP1 SLOAD SWAP1 PUSH2 0x100 EXP SWAP1 DIV PUSH20 0xFFFFFFFFFFFFFFFFFFFFFFFFFFFFFFFFFFFFFFFF AND SWAP1 POP DUP8 JUMP JUMPDEST CALLER PUSH20 0xFFFFFFFFFFFFFFFFFFFFFFFFFFFFFFFFFFFFFFFF AND PUSH1 0x4 PUSH0 SWAP1 SLOAD SWAP1 PUSH2 0x100 EXP SWAP1 DIV PUSH20 0xFFFFFFFFFFFFFFFFFFFFFFFFFFFFFFFFFFFFFFFF AND PUSH20 0xFFFFFFFFFFFFFFFFFFFFFFFFFFFFFFFFFFFFFFFF AND EQ PUSH1 0x40 MLOAD DUP1 PUSH1 0x40 ADD PUSH1 0x40 MSTORE DUP1 PUSH1 0x2 DUP2 MSTORE PUSH1 0x20 ADD PUSH32 0x3133000000000000000000000000000000000000000000000000000000000000 DUP2 MSTORE POP SWAP1 PUSH2 0x29E0 JUMPI PUSH1 0x40 MLOAD PUSH32 0x8C379A000000000000000000000000000000000000000000000000000000000 DUP2 MSTORE PUSH1 0x4 ADD PUSH2 0x29D7 SWAP2 SWAP1 PUSH2 0x4D9B JUMP JUMPDEST PUSH1 0x40 MLOAD DUP1 SWAP2 SUB SWAP1 REVERT JUMPDEST POP PUSH0 ISZERO ISZERO PUSH1 0xE PUSH1 0x14 SWAP1 SLOAD SWAP1 PUSH2 0x100 EXP SWAP1 DIV PUSH1 0xFF AND ISZERO ISZERO EQ PUSH1 0x40 MLOAD DUP1 PUSH1 0x40 ADD PUSH1 0x40 MSTORE DUP1 PUSH1 0x2 DUP2 MSTORE PUSH1 0x20 ADD PUSH32 0x3231000000000000000000000000000000000000000000000000000000000000 DUP2 MSTORE POP SWAP1 PUSH2 0x2A6E JUMPI PUSH1 0x40 MLOAD PUSH32 0x8C379A000000000000000000000000000000000000000000000000000000000 DUP2 MSTORE PUSH1 0x4 ADD PUSH2 0x2A65 SWAP2 SWAP1 PUSH2 0x4D9B JUMP JUMPDEST PUSH1 0x40 MLOAD DUP1 SWAP2 SUB SWAP1 REVERT JUMPDEST POP PUSH0 ISZERO ISZERO PUSH1 0x3 PUSH0 DUP5 DUP2 MSTORE PUSH1 0x20 ADD SWAP1 DUP2 MSTORE PUSH1 0x20 ADD PUSH0 KECCAK256 PUSH1 0x3 ADD PUSH0 SWAP1 SLOAD SWAP1 PUSH2 0x100 EXP SWAP1 DIV PUSH1 0xFF AND ISZERO ISZERO EQ PUSH1 0x40 MLOAD DUP1 PUSH1 0x40 ADD PUSH1 0x40 MSTORE DUP1 PUSH1 0x2 DUP2 MSTORE PUSH1 0x20 ADD PUSH32 0x3136000000000000000000000000000000000000000000000000000000000000 DUP2 MSTORE POP SWAP1 PUSH2 0x2B0D JUMPI PUSH1 0x40 MLOAD PUSH32 0x8C379A000000000000000000000000000000000000000000000000000000000 DUP2 MSTORE PUSH1 0x4 ADD PUSH2 0x2B04 SWAP2 SWAP1 PUSH2 0x4D9B JUMP JUMPDEST PUSH1 0x40 MLOAD DUP1 SWAP2 SUB SWAP1 REVERT JUMPDEST POP PUSH0 PUSH2 0x2B17 PUSH2 0x3836 JUMP JUMPDEST SWAP1 POP PUSH2 0x2B22 DUP2 PUSH2 0x3A0A JUMP JUMPDEST PUSH0 PUSH1 0x1 PUSH0 SWAP1 SLOAD SWAP1 PUSH2 0x100 EXP SWAP1 DIV PUSH20 0xFFFFFFFFFFFFFFFFFFFFFFFFFFFFFFFFFFFFFFFF AND PUSH20 0xFFFFFFFFFFFFFFFFFFFFFFFFFFFFFFFFFFFFFFFF AND PUSH4 0x313CE567 PUSH1 0x40 MLOAD DUP2 PUSH4 0xFFFFFFFF AND PUSH1 0xE0 SHL DUP2 MSTORE PUSH1 0x4 ADD PUSH1 0x20 PUSH1 0x40 MLOAD DUP1 DUP4 SUB DUP2 DUP7 GAS STATICCALL ISZERO DUP1 ISZERO PUSH2 0x2B8D JUMPI RETURNDATASIZE PUSH0 DUP1 RETURNDATACOPY RETURNDATASIZE PUSH0 REVERT JUMPDEST POP POP POP POP PUSH1 0x40 MLOAD RETURNDATASIZE PUSH1 0x1F NOT PUSH1 0x1F DUP3 ADD AND DUP3 ADD DUP1 PUSH1 0x40 MSTORE POP DUP2 ADD SWAP1 PUSH2 0x2BB1 SWAP2 SWAP1 PUSH2 0x4ACC JUMP JUMPDEST PUSH1 0xA PUSH2 0x2BBD SWAP2 SWAP1 PUSH2 0x4C53 JUMP JUMPDEST PUSH12 0x33B2E3C9FD0803CE8000000 PUSH16 0xFFFFFFFFFFFFFFFFFFFFFFFFFFFFFFFF AND DUP5 PUSH2 0x2BE7 SWAP2 SWAP1 PUSH2 0x4C9D JUMP JUMPDEST PUSH2 0x2BF1 SWAP2 SWAP1 PUSH2 0x4D0B JUMP JUMPDEST SWAP1 POP PUSH0 PUSH2 0x2C39 PUSH1 0x5 PUSH1 0x1 ADD PUSH0 SWAP1 SLOAD SWAP1 PUSH2 0x100 EXP SWAP1 DIV PUSH16 0xFFFFFFFFFFFFFFFFFFFFFFFFFFFFFFFF AND PUSH16 0xFFFFFFFFFFFFFFFFFFFFFFFFFFFFFFFF AND DUP4 PUSH2 0x3C5A SWAP1 SWAP2 SWAP1 PUSH4 0xFFFFFFFF AND JUMP JUMPDEST SWAP1 POP DUP1 PUSH1 0x9 PUSH0 DUP8 DUP2 MSTORE PUSH1 0x20 ADD SWAP1 DUP2 MSTORE PUSH1 0x20 ADD PUSH0 KECCAK256 SLOAD GT PUSH2 0x2F10 JUMPI PUSH1 0x9 PUSH0 DUP7 DUP2 MSTORE PUSH1 0x20 ADD SWAP1 DUP2 MSTORE PUSH1 0x20 ADD PUSH0 KECCAK256 SLOAD PUSH1 0xC PUSH0 DUP3 DUP3 SLOAD PUSH2 0x2C75 SWAP2 SWAP1 PUSH2 0x4E20 JUMP JUMPDEST SWAP3 POP POP DUP2 SWAP1 SSTORE POP PUSH0 PUSH2 0x2CD3 PUSH1 0x5 PUSH1 0x1 ADD PUSH0 SWAP1 SLOAD SWAP1 PUSH2 0x100 EXP SWAP1 DIV PUSH16 0xFFFFFFFFFFFFFFFFFFFFFFFFFFFFFFFF AND PUSH16 0xFFFFFFFFFFFFFFFFFFFFFFFFFFFFFFFF AND PUSH1 0x9 PUSH0 DUP10 DUP2 MSTORE PUSH1 0x20 ADD SWAP1 DUP2 MSTORE PUSH1 0x20 ADD PUSH0 KECCAK256 SLOAD PUSH2 0x399B SWAP1 SWAP2 SWAP1 PUSH4 0xFFFFFFFF AND JUMP JUMPDEST SWAP1 POP PUSH0 PUSH12 0x33B2E3C9FD0803CE8000000 PUSH16 0xFFFFFFFFFFFFFFFFFFFFFFFFFFFFFFFF AND PUSH1 0x1 PUSH0 SWAP1 SLOAD SWAP1 PUSH2 0x100 EXP SWAP1 DIV PUSH20 0xFFFFFFFFFFFFFFFFFFFFFFFFFFFFFFFFFFFFFFFF AND PUSH20 0xFFFFFFFFFFFFFFFFFFFFFFFFFFFFFFFFFFFFFFFF AND PUSH4 0x313CE567 PUSH1 0x40 MLOAD DUP2 PUSH4 0xFFFFFFFF AND PUSH1 0xE0 SHL DUP2 MSTORE PUSH1 0x4 ADD PUSH1 0x20 PUSH1 0x40 MLOAD DUP1 DUP4 SUB DUP2 DUP7 GAS STATICCALL ISZERO DUP1 ISZERO PUSH2 0x2D5F JUMPI RETURNDATASIZE PUSH0 DUP1 RETURNDATACOPY RETURNDATASIZE PUSH0 REVERT JUMPDEST POP POP POP POP PUSH1 0x40 MLOAD RETURNDATASIZE PUSH1 0x1F NOT PUSH1 0x1F DUP3 ADD AND DUP3 ADD DUP1 PUSH1 0x40 MSTORE POP DUP2 ADD SWAP1 PUSH2 0x2D83 SWAP2 SWAP1 PUSH2 0x4ACC JUMP JUMPDEST PUSH1 0xA PUSH2 0x2D8F SWAP2 SWAP1 PUSH2 0x4C53 JUMP JUMPDEST DUP4 PUSH2 0x2D9A SWAP2 SWAP1 PUSH2 0x4C9D JUMP JUMPDEST PUSH2 0x2DA4 SWAP2 SWAP1 PUSH2 0x4D0B JUMP JUMPDEST SWAP1 POP PUSH0 PUSH1 0x9 PUSH0 DUP10 DUP2 MSTORE PUSH1 0x20 ADD SWAP1 DUP2 MSTORE PUSH1 0x20 ADD PUSH0 KECCAK256 DUP2 SWAP1 SSTORE POP PUSH2 0x2DC6 DUP3 PUSH0 PUSH2 0x3A67 JUMP JUMPDEST PUSH2 0x2DEE DUP6 PUSH1 0x40 ADD MLOAD PUSH1 0x9 PUSH0 DUP11 DUP2 MSTORE PUSH1 0x20 ADD SWAP1 DUP2 MSTORE PUSH1 0x20 ADD PUSH0 KECCAK256 SLOAD PUSH2 0x3C5A SWAP1 SWAP2 SWAP1 PUSH4 0xFFFFFFFF AND JUMP JUMPDEST PUSH1 0xB PUSH0 DUP3 DUP3 SLOAD PUSH2 0x2DFE SWAP2 SWAP1 PUSH2 0x4F0A JUMP JUMPDEST SWAP3 POP POP DUP2 SWAP1 SSTORE POP DUP1 PUSH1 0xD PUSH0 DUP3 DUP3 SLOAD PUSH2 0x2E16 SWAP2 SWAP1 PUSH2 0x4F0A JUMP JUMPDEST SWAP3 POP POP DUP2 SWAP1 SSTORE POP PUSH1 0x1 PUSH0 SWAP1 SLOAD SWAP1 PUSH2 0x100 EXP SWAP1 DIV PUSH20 0xFFFFFFFFFFFFFFFFFFFFFFFFFFFFFFFFFFFFFFFF AND PUSH20 0xFFFFFFFFFFFFFFFFFFFFFFFFFFFFFFFFFFFFFFFF AND PUSH4 0x23B872DD PUSH1 0x4 PUSH0 SWAP1 SLOAD SWAP1 PUSH2 0x100 EXP SWAP1 DIV PUSH20 0xFFFFFFFFFFFFFFFFFFFFFFFFFFFFFFFFFFFFFFFF AND ADDRESS DUP5 PUSH1 0x40 MLOAD DUP5 PUSH4 0xFFFFFFFF AND PUSH1 0xE0 SHL DUP2 MSTORE PUSH1 0x4 ADD PUSH2 0x2E9C SWAP4 SWAP3 SWAP2 SWAP1 PUSH2 0x4F3D JUMP JUMPDEST PUSH1 0x20 PUSH1 0x40 MLOAD DUP1 DUP4 SUB DUP2 PUSH0 DUP8 GAS CALL ISZERO DUP1 ISZERO PUSH2 0x2EB8 JUMPI RETURNDATASIZE PUSH0 DUP1 RETURNDATACOPY RETURNDATASIZE PUSH0 REVERT JUMPDEST POP POP POP POP PUSH1 0x40 MLOAD RETURNDATASIZE PUSH1 0x1F NOT PUSH1 0x1F DUP3 ADD AND DUP3 ADD DUP1 PUSH1 0x40 MSTORE POP DUP2 ADD SWAP1 PUSH2 0x2EDC SWAP2 SWAP1 PUSH2 0x4E8E JUMP JUMPDEST POP PUSH1 0x1 PUSH1 0x3 PUSH0 DUP10 DUP2 MSTORE PUSH1 0x20 ADD SWAP1 DUP2 MSTORE PUSH1 0x20 ADD PUSH0 KECCAK256 PUSH1 0x3 ADD PUSH0 PUSH2 0x100 EXP DUP2 SLOAD DUP2 PUSH1 0xFF MUL NOT AND SWAP1 DUP4 ISZERO ISZERO MUL OR SWAP1 SSTORE POP POP POP PUSH2 0x3070 JUMP JUMPDEST PUSH0 DUP2 PUSH1 0x9 PUSH0 DUP9 DUP2 MSTORE PUSH1 0x20 ADD SWAP1 DUP2 MSTORE PUSH1 0x20 ADD PUSH0 KECCAK256 SLOAD PUSH2 0x2F2E SWAP2 SWAP1 PUSH2 0x4E20 JUMP JUMPDEST SWAP1 POP DUP2 PUSH1 0xC PUSH0 DUP3 DUP3 SLOAD PUSH2 0x2F41 SWAP2 SWAP1 PUSH2 0x4E20 JUMP JUMPDEST SWAP3 POP POP DUP2 SWAP1 SSTORE POP DUP1 PUSH1 0x9 PUSH0 DUP9 DUP2 MSTORE PUSH1 0x20 ADD SWAP1 DUP2 MSTORE PUSH1 0x20 ADD PUSH0 KECCAK256 DUP2 SWAP1 SSTORE POP PUSH2 0x2F68 DUP4 PUSH0 PUSH2 0x3A67 JUMP JUMPDEST PUSH2 0x2F7F DUP5 PUSH1 0x40 ADD MLOAD DUP5 PUSH2 0x3C5A SWAP1 SWAP2 SWAP1 PUSH4 0xFFFFFFFF AND JUMP JUMPDEST PUSH1 0xB PUSH0 DUP3 DUP3 SLOAD PUSH2 0x2F8F SWAP2 SWAP1 PUSH2 0x4F0A JUMP JUMPDEST SWAP3 POP POP DUP2 SWAP1 SSTORE POP DUP5 PUSH1 0xD PUSH0 DUP3 DUP3 SLOAD PUSH2 0x2FA7 SWAP2 SWAP1 PUSH2 0x4F0A JUMP JUMPDEST SWAP3 POP POP DUP2 SWAP1 SSTORE POP PUSH1 0x1 PUSH0 SWAP1 SLOAD SWAP1 PUSH2 0x100 EXP SWAP1 DIV PUSH20 0xFFFFFFFFFFFFFFFFFFFFFFFFFFFFFFFFFFFFFFFF AND PUSH20 0xFFFFFFFFFFFFFFFFFFFFFFFFFFFFFFFFFFFFFFFF AND PUSH4 0x23B872DD PUSH1 0x4 PUSH0 SWAP1 SLOAD SWAP1 PUSH2 0x100 EXP SWAP1 DIV PUSH20 0xFFFFFFFFFFFFFFFFFFFFFFFFFFFFFFFFFFFFFFFF AND ADDRESS DUP9 PUSH1 0x40 MLOAD DUP5 PUSH4 0xFFFFFFFF AND PUSH1 0xE0 SHL DUP2 MSTORE PUSH1 0x4 ADD PUSH2 0x302D SWAP4 SWAP3 SWAP2 SWAP1 PUSH2 0x4F3D JUMP JUMPDEST PUSH1 0x20 PUSH1 0x40 MLOAD DUP1 DUP4 SUB DUP2 PUSH0 DUP8 GAS CALL ISZERO DUP1 ISZERO PUSH2 0x3049 JUMPI RETURNDATASIZE PUSH0 DUP1 RETURNDATACOPY RETURNDATASIZE PUSH0 REVERT JUMPDEST POP POP POP POP PUSH1 0x40 MLOAD RETURNDATASIZE PUSH1 0x1F NOT PUSH1 0x1F DUP3 ADD AND DUP3 ADD DUP1 PUSH1 0x40 MSTORE POP DUP2 ADD SWAP1 PUSH2 0x306D SWAP2 SWAP1 PUSH2 0x4E8E JUMP JUMPDEST POP POP JUMPDEST POP POP POP POP POP JUMP JUMPDEST PUSH1 0x3 PUSH1 0x20 MSTORE DUP1 PUSH0 MSTORE PUSH1 0x40 PUSH0 KECCAK256 PUSH0 SWAP2 POP SWAP1 POP DUP1 PUSH0 ADD SLOAD SWAP1 DUP1 PUSH1 0x1 ADD PUSH0 SWAP1 SLOAD SWAP1 PUSH2 0x100 EXP SWAP1 DIV PUSH1 0xFF AND SWAP1 DUP1 PUSH1 0x2 ADD SLOAD SWAP1 DUP1 PUSH1 0x3 ADD PUSH0 SWAP1 SLOAD SWAP1 PUSH2 0x100 EXP SWAP1 DIV PUSH1 0xFF AND SWAP1 DUP1 PUSH1 0x3 ADD PUSH1 0x1 SWAP1 SLOAD SWAP1 PUSH2 0x100 EXP SWAP1 DIV PUSH20 0xFFFFFFFFFFFFFFFFFFFFFFFFFFFFFFFFFFFFFFFF AND SWAP1 DUP1 PUSH1 0x3 ADD PUSH1 0x15 SWAP1 SLOAD SWAP1 PUSH2 0x100 EXP SWAP1 DIV PUSH1 0xFF AND SWAP1 DUP1 PUSH1 0x4 ADD PUSH0 SWAP1 SLOAD SWAP1 PUSH2 0x100 EXP SWAP1 DIV PUSH20 0xFFFFFFFFFFFFFFFFFFFFFFFFFFFFFFFFFFFFFFFF AND SWAP1 DUP1 PUSH1 0x4 ADD PUSH1 0x14 SWAP1 SLOAD SWAP1 PUSH2 0x100 EXP SWAP1 DIV PUSH1 0xFF AND SWAP1 DUP1 PUSH1 0x4 ADD PUSH1 0x15 SWAP1 SLOAD SWAP1 PUSH2 0x100 EXP SWAP1 DIV PUSH1 0xFF AND SWAP1 DUP1 PUSH1 0x5 ADD SLOAD SWAP1 POP DUP11 JUMP JUMPDEST CALLER PUSH20 0xFFFFFFFFFFFFFFFFFFFFFFFFFFFFFFFFFFFFFFFF AND PUSH1 0xE PUSH0 SWAP1 SLOAD SWAP1 PUSH2 0x100 EXP SWAP1 DIV PUSH20 0xFFFFFFFFFFFFFFFFFFFFFFFFFFFFFFFFFFFFFFFF AND PUSH20 0xFFFFFFFFFFFFFFFFFFFFFFFFFFFFFFFFFFFFFFFF AND EQ PUSH1 0x40 MLOAD DUP1 PUSH1 0x40 ADD PUSH1 0x40 MSTORE DUP1 PUSH1 0x1 DUP2 MSTORE PUSH1 0x20 ADD PUSH32 0x3200000000000000000000000000000000000000000000000000000000000000 DUP2 MSTORE POP SWAP1 PUSH2 0x320C JUMPI PUSH1 0x40 MLOAD PUSH32 0x8C379A000000000000000000000000000000000000000000000000000000000 DUP2 MSTORE PUSH1 0x4 ADD PUSH2 0x3203 SWAP2 SWAP1 PUSH2 0x4D9B JUMP JUMPDEST PUSH1 0x40 MLOAD DUP1 SWAP2 SUB SWAP1 REVERT JUMPDEST POP DUP2 PUSH20 0xFFFFFFFFFFFFFFFFFFFFFFFFFFFFFFFFFFFFFFFF AND PUSH4 0xA9059CBB DUP3 DUP5 PUSH20 0xFFFFFFFFFFFFFFFFFFFFFFFFFFFFFFFFFFFFFFFF AND PUSH4 0x70A08231 ADDRESS PUSH1 0x40 MLOAD DUP3 PUSH4 0xFFFFFFFF AND PUSH1 0xE0 SHL DUP2 MSTORE PUSH1 0x4 ADD PUSH2 0x3263 SWAP2 SWAP1 PUSH2 0x451A JUMP JUMPDEST PUSH1 0x20 PUSH1 0x40 MLOAD DUP1 DUP4 SUB DUP2 DUP7 GAS STATICCALL ISZERO DUP1 ISZERO PUSH2 0x327E JUMPI RETURNDATASIZE PUSH0 DUP1 RETURNDATACOPY RETURNDATASIZE PUSH0 REVERT JUMPDEST POP POP POP POP PUSH1 0x40 MLOAD RETURNDATASIZE PUSH1 0x1F NOT PUSH1 0x1F DUP3 ADD AND DUP3 ADD DUP1 PUSH1 0x40 MSTORE POP DUP2 ADD SWAP1 PUSH2 0x32A2 SWAP2 SWAP1 PUSH2 0x4FBA JUMP JUMPDEST PUSH1 0x40 MLOAD DUP4 PUSH4 0xFFFFFFFF AND PUSH1 0xE0 SHL DUP2 MSTORE PUSH1 0x4 ADD PUSH2 0x32BF SWAP3 SWAP2 SWAP1 PUSH2 0x4E53 JUMP JUMPDEST PUSH1 0x20 PUSH1 0x40 MLOAD DUP1 DUP4 SUB DUP2 PUSH0 DUP8 GAS CALL ISZERO DUP1 ISZERO PUSH2 0x32DB JUMPI RETURNDATASIZE PUSH0 DUP1 RETURNDATACOPY RETURNDATASIZE PUSH0 REVERT JUMPDEST POP POP POP POP PUSH1 0x40 MLOAD RETURNDATASIZE PUSH1 0x1F NOT PUSH1 0x1F DUP3 ADD AND DUP3 ADD DUP1 PUSH1 0x40 MSTORE POP DUP2 ADD SWAP1 PUSH2 0x32FF SWAP2 SWAP1 PUSH2 0x4E8E JUMP JUMPDEST POP POP POP JUMP JUMPDEST CALLER PUSH20 0xFFFFFFFFFFFFFFFFFFFFFFFFFFFFFFFFFFFFFFFF AND PUSH1 0x4 PUSH0 SWAP1 SLOAD SWAP1 PUSH2 0x100 EXP SWAP1 DIV PUSH20 0xFFFFFFFFFFFFFFFFFFFFFFFFFFFFFFFFFFFFFFFF AND PUSH20 0xFFFFFFFFFFFFFFFFFFFFFFFFFFFFFFFFFFFFFFFF AND EQ PUSH1 0x40 MLOAD DUP1 PUSH1 0x40 ADD PUSH1 0x40 MSTORE DUP1 PUSH1 0x2 DUP2 MSTORE PUSH1 0x20 ADD PUSH32 0x3133000000000000000000000000000000000000000000000000000000000000 DUP2 MSTORE POP SWAP1 PUSH2 0x33CB JUMPI PUSH1 0x40 MLOAD PUSH32 0x8C379A000000000000000000000000000000000000000000000000000000000 DUP2 MSTORE PUSH1 0x4 ADD PUSH2 0x33C2 SWAP2 SWAP1 PUSH2 0x4D9B JUMP JUMPDEST PUSH1 0x40 MLOAD DUP1 SWAP2 SUB SWAP1 REVERT JUMPDEST POP PUSH0 ISZERO ISZERO PUSH1 0xE PUSH1 0x14 SWAP1 SLOAD SWAP1 PUSH2 0x100 EXP SWAP1 DIV PUSH1 0xFF AND ISZERO ISZERO EQ PUSH1 0x40 MLOAD DUP1 PUSH1 0x40 ADD PUSH1 0x40 MSTORE DUP1 PUSH1 0x2 DUP2 MSTORE PUSH1 0x20 ADD PUSH32 0x3231000000000000000000000000000000000000000000000000000000000000 DUP2 MSTORE POP SWAP1 PUSH2 0x3459 JUMPI PUSH1 0x40 MLOAD PUSH32 0x8C379A000000000000000000000000000000000000000000000000000000000 DUP2 MSTORE PUSH1 0x4 ADD PUSH2 0x3450 SWAP2 SWAP1 PUSH2 0x4D9B JUMP JUMPDEST PUSH1 0x40 MLOAD DUP1 SWAP2 SUB SWAP1 REVERT JUMPDEST POP PUSH0 ISZERO ISZERO PUSH1 0x3 PUSH0 DUP4 DUP2 MSTORE PUSH1 0x20 ADD SWAP1 DUP2 MSTORE PUSH1 0x20 ADD PUSH0 KECCAK256 PUSH1 0x1 ADD PUSH0 SWAP1 SLOAD SWAP1 PUSH2 0x100 EXP SWAP1 DIV PUSH1 0xFF AND ISZERO ISZERO EQ PUSH1 0x40 MLOAD DUP1 PUSH1 0x40 ADD PUSH1 0x40 MSTORE DUP1 PUSH1 0x2 DUP2 MSTORE PUSH1 0x20 ADD PUSH32 0x3134000000000000000000000000000000000000000000000000000000000000 DUP2 MSTORE POP SWAP1 PUSH2 0x34F8 JUMPI PUSH1 0x40 MLOAD PUSH32 0x8C379A000000000000000000000000000000000000000000000000000000000 DUP2 MSTORE PUSH1 0x4 ADD PUSH2 0x34EF SWAP2 SWAP1 PUSH2 0x4D9B JUMP JUMPDEST PUSH1 0x40 MLOAD DUP1 SWAP2 SUB SWAP1 REVERT JUMPDEST POP PUSH1 0x1 PUSH1 0x3 PUSH0 DUP4 DUP2 MSTORE PUSH1 0x20 ADD SWAP1 DUP2 MSTORE PUSH1 0x20 ADD PUSH0 KECCAK256 PUSH1 0x1 ADD PUSH0 PUSH2 0x100 EXP DUP2 SLOAD DUP2 PUSH1 0xFF MUL NOT AND SWAP1 DUP4 ISZERO ISZERO MUL OR SWAP1 SSTORE POP PUSH1 0x1 PUSH0 SWAP1 SLOAD SWAP1 PUSH2 0x100 EXP SWAP1 DIV PUSH20 0xFFFFFFFFFFFFFFFFFFFFFFFFFFFFFFFFFFFFFFFF AND PUSH20 0xFFFFFFFFFFFFFFFFFFFFFFFFFFFFFFFFFFFFFFFF AND PUSH4 0xA9059CBB DUP4 PUSH1 0x3 PUSH0 DUP6 DUP2 MSTORE PUSH1 0x20 ADD SWAP1 DUP2 MSTORE PUSH1 0x20 ADD PUSH0 KECCAK256 PUSH1 0x2 ADD SLOAD PUSH1 0x40 MLOAD DUP4 PUSH4 0xFFFFFFFF AND PUSH1 0xE0 SHL DUP2 MSTORE PUSH1 0x4 ADD PUSH2 0x3595 SWAP3 SWAP2 SWAP1 PUSH2 0x4E53 JUMP JUMPDEST PUSH1 0x20 PUSH1 0x40 MLOAD DUP1 DUP4 SUB DUP2 PUSH0 DUP8 GAS CALL ISZERO DUP1 ISZERO PUSH2 0x35B1 JUMPI RETURNDATASIZE PUSH0 DUP1 RETURNDATACOPY RETURNDATASIZE PUSH0 REVERT JUMPDEST POP POP POP POP PUSH1 0x40 MLOAD RETURNDATASIZE PUSH1 0x1F NOT PUSH1 0x1F DUP3 ADD AND DUP3 ADD DUP1 PUSH1 0x40 MSTORE POP DUP2 ADD SWAP1 PUSH2 0x35D5 SWAP2 SWAP1 PUSH2 0x4E8E JUMP JUMPDEST POP POP POP JUMP JUMPDEST CALLER PUSH20 0xFFFFFFFFFFFFFFFFFFFFFFFFFFFFFFFFFFFFFFFF AND PUSH1 0xE PUSH0 SWAP1 SLOAD SWAP1 PUSH2 0x100 EXP SWAP1 DIV PUSH20 0xFFFFFFFFFFFFFFFFFFFFFFFFFFFFFFFFFFFFFFFF AND PUSH20 0xFFFFFFFFFFFFFFFFFFFFFFFFFFFFFFFFFFFFFFFF AND EQ PUSH1 0x40 MLOAD DUP1 PUSH1 0x40 ADD PUSH1 0x40 MSTORE DUP1 PUSH1 0x1 DUP2 MSTORE PUSH1 0x20 ADD PUSH32 0x3200000000000000000000000000000000000000000000000000000000000000 DUP2 MSTORE POP SWAP1 PUSH2 0x36A1 JUMPI PUSH1 0x40 MLOAD PUSH32 0x8C379A000000000000000000000000000000000000000000000000000000000 DUP2 MSTORE PUSH1 0x4 ADD PUSH2 0x3698 SWAP2 SWAP1 PUSH2 0x4D9B JUMP JUMPDEST PUSH1 0x40 MLOAD DUP1 SWAP2 SUB SWAP1 REVERT JUMPDEST POP PUSH0 JUMPDEST DUP3 MLOAD DUP2 LT ISZERO PUSH2 0x3741 JUMPI DUP2 DUP2 DUP2 MLOAD DUP2 LT PUSH2 0x36C0 JUMPI PUSH2 0x36BF PUSH2 0x4FE5 JUMP JUMPDEST JUMPDEST PUSH1 0x20 MUL PUSH1 0x20 ADD ADD MLOAD PUSH0 DUP1 DUP6 DUP5 DUP2 MLOAD DUP2 LT PUSH2 0x36DD JUMPI PUSH2 0x36DC PUSH2 0x4FE5 JUMP JUMPDEST JUMPDEST PUSH1 0x20 MUL PUSH1 0x20 ADD ADD MLOAD PUSH20 0xFFFFFFFFFFFFFFFFFFFFFFFFFFFFFFFFFFFFFFFF AND PUSH20 0xFFFFFFFFFFFFFFFFFFFFFFFFFFFFFFFFFFFFFFFF AND DUP2 MSTORE PUSH1 0x20 ADD SWAP1 DUP2 MSTORE PUSH1 0x20 ADD PUSH0 KECCAK256 PUSH0 PUSH2 0x100 EXP DUP2 SLOAD DUP2 PUSH1 0xFF MUL NOT AND SWAP1 DUP4 ISZERO ISZERO MUL OR SWAP1 SSTORE POP DUP1 DUP1 PUSH1 0x1 ADD SWAP2 POP POP PUSH2 0x36A4 JUMP JUMPDEST POP POP POP JUMP JUMPDEST PUSH0 DUP1 PUSH0 DUP1 PUSH1 0x5 PUSH1 0x1 ADD PUSH1 0x10 SWAP1 SLOAD SWAP1 PUSH2 0x100 EXP SWAP1 DIV PUSH16 0xFFFFFFFFFFFFFFFFFFFFFFFFFFFFFFFF AND PUSH1 0x5 PUSH0 ADD PUSH1 0x10 SWAP1 SLOAD SWAP1 PUSH2 0x100 EXP SWAP1 DIV PUSH16 0xFFFFFFFFFFFFFFFFFFFFFFFFFFFFFFFF AND PUSH1 0x5 PUSH1 0x1 ADD PUSH0 SWAP1 SLOAD SWAP1 PUSH2 0x100 EXP SWAP1 DIV PUSH16 0xFFFFFFFFFFFFFFFFFFFFFFFFFFFFFFFF AND PUSH1 0x5 PUSH0 ADD PUSH0 SWAP1 SLOAD SWAP1 PUSH2 0x100 EXP SWAP1 DIV PUSH16 0xFFFFFFFFFFFFFFFFFFFFFFFFFFFFFFFF AND DUP4 PUSH16 0xFFFFFFFFFFFFFFFFFFFFFFFFFFFFFFFF AND SWAP4 POP DUP3 PUSH16 0xFFFFFFFFFFFFFFFFFFFFFFFFFFFFFFFF AND SWAP3 POP DUP2 PUSH16 0xFFFFFFFFFFFFFFFFFFFFFFFFFFFFFFFF AND SWAP2 POP DUP1 PUSH16 0xFFFFFFFFFFFFFFFFFFFFFFFFFFFFFFFF AND SWAP1 POP SWAP4 POP SWAP4 POP SWAP4 POP SWAP4 POP SWAP1 SWAP2 SWAP3 SWAP4 JUMP JUMPDEST PUSH1 0xC SLOAD DUP2 JUMP JUMPDEST PUSH2 0x383E PUSH2 0x4216 JUMP JUMPDEST PUSH2 0x3846 PUSH2 0x4216 JUMP JUMPDEST PUSH1 0x5 PUSH0 ADD PUSH0 SWAP1 SLOAD SWAP1 PUSH2 0x100 EXP SWAP1 DIV PUSH16 0xFFFFFFFFFFFFFFFFFFFFFFFFFFFFFFFF AND PUSH16 0xFFFFFFFFFFFFFFFFFFFFFFFFFFFFFFFF AND DUP2 PUSH1 0x40 ADD DUP2 DUP2 MSTORE POP DUP2 PUSH1 0x20 ADD DUP2 DUP2 MSTORE POP POP PUSH1 0x5 PUSH1 0x1 ADD PUSH0 SWAP1 SLOAD SWAP1 PUSH2 0x100 EXP SWAP1 DIV PUSH16 0xFFFFFFFFFFFFFFFFFFFFFFFFFFFFFFFF AND PUSH16 0xFFFFFFFFFFFFFFFFFFFFFFFFFFFFFFFF AND DUP2 PUSH1 0x80 ADD DUP2 DUP2 MSTORE POP DUP2 PUSH1 0x60 ADD DUP2 DUP2 MSTORE POP POP PUSH1 0x5 PUSH0 ADD PUSH1 0x10 SWAP1 SLOAD SWAP1 PUSH2 0x100 EXP SWAP1 DIV PUSH16 0xFFFFFFFFFFFFFFFFFFFFFFFFFFFFFFFF AND PUSH16 0xFFFFFFFFFFFFFFFFFFFFFFFFFFFFFFFF AND DUP2 PUSH1 0xA0 ADD DUP2 DUP2 MSTORE POP POP PUSH1 0x5 PUSH1 0x1 ADD PUSH1 0x10 SWAP1 SLOAD SWAP1 PUSH2 0x100 EXP SWAP1 DIV PUSH16 0xFFFFFFFFFFFFFFFFFFFFFFFFFFFFFFFF AND PUSH16 0xFFFFFFFFFFFFFFFFFFFFFFFFFFFFFFFF AND DUP2 PUSH1 0xC0 ADD DUP2 DUP2 MSTORE POP POP PUSH1 0x5 PUSH1 0x2 ADD PUSH0 SWAP1 SLOAD SWAP1 PUSH2 0x100 EXP SWAP1 DIV PUSH5 0xFFFFFFFFFF AND DUP2 PUSH1 0xE0 ADD SWAP1 PUSH5 0xFFFFFFFFFF AND SWAP1 DUP2 PUSH5 0xFFFFFFFFFF AND DUP2 MSTORE POP POP PUSH1 0xC SLOAD DUP2 PUSH0 ADD DUP2 DUP2 MSTORE POP POP DUP1 SWAP2 POP POP SWAP1 JUMP JUMPDEST PUSH0 PUSH2 0x3993 DUP4 DUP4 TIMESTAMP PUSH2 0x3F3A JUMP JUMPDEST SWAP1 POP SWAP3 SWAP2 POP POP JUMP JUMPDEST PUSH0 DUP2 PUSH12 0x19D971E4FE8401E74000000 PUSH0 NOT SUB DIV DUP4 GT ISZERO DUP3 ISZERO OR PUSH2 0x39BC JUMPI PUSH0 DUP1 REVERT JUMPDEST PUSH12 0x33B2E3C9FD0803CE8000000 PUSH12 0x19D971E4FE8401E74000000 DUP4 DUP6 MUL ADD DIV SWAP1 POP SWAP3 SWAP2 POP POP JUMP JUMPDEST PUSH0 PUSH32 0xF0C57E16840DF040F15088DC2F81FE391C3923BEC73E23A9662EFC9C229C6A00 SWAP1 POP SWAP1 JUMP JUMPDEST TIMESTAMP PUSH5 0xFFFFFFFFFF AND PUSH1 0x5 PUSH1 0x2 ADD PUSH0 SWAP1 SLOAD SWAP1 PUSH2 0x100 EXP SWAP1 DIV PUSH5 0xFFFFFFFFFF AND PUSH5 0xFFFFFFFFFF AND SUB ISZERO PUSH2 0x3A64 JUMPI PUSH2 0x3A3E DUP2 PUSH2 0x40A0 JUMP JUMPDEST TIMESTAMP PUSH1 0x5 PUSH1 0x2 ADD PUSH0 PUSH2 0x100 EXP DUP2 SLOAD DUP2 PUSH5 0xFFFFFFFFFF MUL NOT AND SWAP1 DUP4 PUSH5 0xFFFFFFFFFF AND MUL OR SWAP1 SSTORE POP JUMPDEST POP JUMP JUMPDEST PUSH2 0x3A6F PUSH2 0x425A JUMP JUMPDEST PUSH1 0x5 PUSH1 0x2 ADD PUSH1 0x7 SWAP1 SLOAD SWAP1 PUSH2 0x100 EXP SWAP1 DIV PUSH20 0xFFFFFFFFFFFFFFFFFFFFFFFFFFFFFFFFFFFFFFFF AND PUSH20 0xFFFFFFFFFFFFFFFFFFFFFFFFFFFFFFFFFFFFFFFF AND PUSH4 0x56EAF264 PUSH1 0x40 MLOAD DUP1 PUSH1 0x80 ADD PUSH1 0x40 MSTORE DUP1 DUP7 DUP2 MSTORE PUSH1 0x20 ADD DUP6 DUP2 MSTORE PUSH1 0x20 ADD PUSH2 0x3B0E PUSH1 0x5 PUSH1 0x1 ADD PUSH0 SWAP1 SLOAD SWAP1 PUSH2 0x100 EXP SWAP1 DIV PUSH16 0xFFFFFFFFFFFFFFFFFFFFFFFFFFFFFFFF AND PUSH16 0xFFFFFFFFFFFFFFFFFFFFFFFFFFFFFFFF AND PUSH1 0xC SLOAD PUSH2 0x399B SWAP1 SWAP2 SWAP1 PUSH4 0xFFFFFFFF AND JUMP JUMPDEST DUP2 MSTORE PUSH1 0x20 ADD PUSH2 0x3B59 PUSH1 0x5 PUSH0 ADD PUSH0 SWAP1 SLOAD SWAP1 PUSH2 0x100 EXP SWAP1 DIV PUSH16 0xFFFFFFFFFFFFFFFFFFFFFFFFFFFFFFFF AND PUSH16 0xFFFFFFFFFFFFFFFFFFFFFFFFFFFFFFFF AND PUSH1 0xB SLOAD PUSH2 0x399B SWAP1 SWAP2 SWAP1 PUSH4 0xFFFFFFFF AND JUMP JUMPDEST DUP2 MSTORE POP PUSH1 0x40 MLOAD DUP3 PUSH4 0xFFFFFFFF AND PUSH1 0xE0 SHL DUP2 MSTORE PUSH1 0x4 ADD PUSH2 0x3B78 SWAP2 SWAP1 PUSH2 0x5074 JUMP JUMPDEST PUSH1 0x40 DUP1 MLOAD DUP1 DUP4 SUB DUP2 DUP7 GAS STATICCALL ISZERO DUP1 ISZERO PUSH2 0x3B92 JUMPI RETURNDATASIZE PUSH0 DUP1 RETURNDATACOPY RETURNDATASIZE PUSH0 REVERT JUMPDEST POP POP POP POP PUSH1 0x40 MLOAD RETURNDATASIZE PUSH1 0x1F NOT PUSH1 0x1F DUP3 ADD AND DUP3 ADD DUP1 PUSH1 0x40 MSTORE POP DUP2 ADD SWAP1 PUSH2 0x3BB6 SWAP2 SWAP1 PUSH2 0x508D JUMP JUMPDEST DUP3 PUSH0 ADD DUP4 PUSH1 0x20 ADD DUP3 DUP2 MSTORE POP DUP3 DUP2 MSTORE POP POP POP PUSH2 0x3BD3 DUP2 PUSH0 ADD MLOAD PUSH2 0x41B3 JUMP JUMPDEST PUSH1 0x5 PUSH0 ADD PUSH1 0x10 PUSH2 0x100 EXP DUP2 SLOAD DUP2 PUSH16 0xFFFFFFFFFFFFFFFFFFFFFFFFFFFFFFFF MUL NOT AND SWAP1 DUP4 PUSH16 0xFFFFFFFFFFFFFFFFFFFFFFFFFFFFFFFF AND MUL OR SWAP1 SSTORE POP PUSH2 0x3C1A DUP2 PUSH1 0x20 ADD MLOAD PUSH2 0x41B3 JUMP JUMPDEST PUSH1 0x5 PUSH1 0x1 ADD PUSH1 0x10 PUSH2 0x100 EXP DUP2 SLOAD DUP2 PUSH16 0xFFFFFFFFFFFFFFFFFFFFFFFFFFFFFFFF MUL NOT AND SWAP1 DUP4 PUSH16 0xFFFFFFFFFFFFFFFFFFFFFFFFFFFFFFFF AND MUL OR SWAP1 SSTORE POP POP POP POP JUMP JUMPDEST PUSH0 PUSH12 0x33B2E3C9FD0803CE8000000 PUSH1 0x2 DUP4 DIV PUSH0 NOT SUB DIV DUP4 GT ISZERO ISZERO DUP3 ISZERO OR ISZERO PUSH2 0x3C80 JUMPI PUSH0 DUP1 REVERT JUMPDEST DUP2 PUSH1 0x2 DUP4 DIV PUSH12 0x33B2E3C9FD0803CE8000000 DUP6 MUL ADD DIV SWAP1 POP SWAP3 SWAP2 POP POP JUMP JUMPDEST PUSH0 DUP3 GT ISZERO PUSH2 0x3EDC JUMPI PUSH0 PUSH2 0x3CAF PUSH2 0x3836 JUMP JUMPDEST SWAP1 POP PUSH2 0x3CBA DUP2 PUSH2 0x3A0A JUMP JUMPDEST PUSH0 PUSH1 0x1 PUSH0 SWAP1 SLOAD SWAP1 PUSH2 0x100 EXP SWAP1 DIV PUSH20 0xFFFFFFFFFFFFFFFFFFFFFFFFFFFFFFFFFFFFFFFF AND PUSH20 0xFFFFFFFFFFFFFFFFFFFFFFFFFFFFFFFFFFFFFFFF AND PUSH4 0x313CE567 PUSH1 0x40 MLOAD DUP2 PUSH4 0xFFFFFFFF AND PUSH1 0xE0 SHL DUP2 MSTORE PUSH1 0x4 ADD PUSH1 0x20 PUSH1 0x40 MLOAD DUP1 DUP4 SUB DUP2 DUP7 GAS STATICCALL ISZERO DUP1 ISZERO PUSH2 0x3D25 JUMPI RETURNDATASIZE PUSH0 DUP1 RETURNDATACOPY RETURNDATASIZE PUSH0 REVERT JUMPDEST POP POP POP POP PUSH1 0x40 MLOAD RETURNDATASIZE PUSH1 0x1F NOT PUSH1 0x1F DUP3 ADD AND DUP3 ADD DUP1 PUSH1 0x40 MSTORE POP DUP2 ADD SWAP1 PUSH2 0x3D49 SWAP2 SWAP1 PUSH2 0x4ACC JUMP JUMPDEST PUSH1 0xA PUSH2 0x3D55 SWAP2 SWAP1 PUSH2 0x4C53 JUMP JUMPDEST PUSH12 0x33B2E3C9FD0803CE8000000 PUSH16 0xFFFFFFFFFFFFFFFFFFFFFFFFFFFFFFFF AND DUP6 PUSH2 0x3D7F SWAP2 SWAP1 PUSH2 0x4C9D JUMP JUMPDEST PUSH2 0x3D89 SWAP2 SWAP1 PUSH2 0x4D0B JUMP JUMPDEST SWAP1 POP PUSH0 PUSH2 0x3DA5 DUP4 PUSH1 0x40 ADD MLOAD PUSH1 0xB SLOAD PUSH2 0x399B SWAP1 SWAP2 SWAP1 PUSH4 0xFFFFFFFF AND JUMP JUMPDEST SWAP1 POP PUSH0 PUSH2 0x3DDC DUP3 PUSH2 0x3DCE DUP7 PUSH1 0x40 ADD MLOAD DUP7 DUP7 PUSH2 0x3DC0 SWAP2 SWAP1 PUSH2 0x4F0A JUMP JUMPDEST PUSH2 0x399B SWAP1 SWAP2 SWAP1 PUSH4 0xFFFFFFFF AND JUMP JUMPDEST PUSH2 0x3C5A SWAP1 SWAP2 SWAP1 PUSH4 0xFFFFFFFF AND JUMP JUMPDEST SWAP1 POP PUSH2 0x3DE7 DUP2 PUSH2 0x41B3 JUMP JUMPDEST PUSH1 0x5 PUSH0 ADD PUSH0 PUSH2 0x100 EXP DUP2 SLOAD DUP2 PUSH16 0xFFFFFFFFFFFFFFFFFFFFFFFFFFFFFFFF MUL NOT AND SWAP1 DUP4 PUSH16 0xFFFFFFFFFFFFFFFFFFFFFFFFFFFFFFFF AND MUL OR SWAP1 SSTORE POP DUP6 PUSH1 0xD PUSH0 DUP3 DUP3 SLOAD PUSH2 0x3E31 SWAP2 SWAP1 PUSH2 0x4F0A JUMP JUMPDEST SWAP3 POP POP DUP2 SWAP1 SSTORE POP PUSH1 0x1 PUSH0 SWAP1 SLOAD SWAP1 PUSH2 0x100 EXP SWAP1 DIV PUSH20 0xFFFFFFFFFFFFFFFFFFFFFFFFFFFFFFFFFFFFFFFF AND PUSH20 0xFFFFFFFFFFFFFFFFFFFFFFFFFFFFFFFFFFFFFFFF AND PUSH4 0x23B872DD DUP7 ADDRESS DUP10 PUSH1 0x40 MLOAD DUP5 PUSH4 0xFFFFFFFF AND PUSH1 0xE0 SHL DUP2 MSTORE PUSH1 0x4 ADD PUSH2 0x3E96 SWAP4 SWAP3 SWAP2 SWAP1 PUSH2 0x4F3D JUMP JUMPDEST PUSH1 0x20 PUSH1 0x40 MLOAD DUP1 DUP4 SUB DUP2 PUSH0 DUP8 GAS CALL ISZERO DUP1 ISZERO PUSH2 0x3EB2 JUMPI RETURNDATASIZE PUSH0 DUP1 RETURNDATACOPY RETURNDATASIZE PUSH0 REVERT JUMPDEST POP POP POP POP PUSH1 0x40 MLOAD RETURNDATASIZE PUSH1 0x1F NOT PUSH1 0x1F DUP3 ADD AND DUP3 ADD DUP1 PUSH1 0x40 MSTORE POP DUP2 ADD SWAP1 PUSH2 0x3ED6 SWAP2 SWAP1 PUSH2 0x4E8E JUMP JUMPDEST POP POP POP POP POP JUMPDEST POP POP JUMP JUMPDEST PUSH0 DUP1 DUP3 PUSH5 0xFFFFFFFFFF AND TIMESTAMP PUSH2 0x3EF5 SWAP2 SWAP1 PUSH2 0x4E20 JUMP JUMPDEST DUP5 PUSH2 0x3F00 SWAP2 SWAP1 PUSH2 0x4C9D JUMP JUMPDEST SWAP1 POP PUSH4 0x1E13380 DUP2 DUP2 PUSH2 0x3F16 JUMPI PUSH2 0x3F15 PUSH2 0x4CDE JUMP JUMPDEST JUMPDEST DIV SWAP1 POP DUP1 PUSH12 0x33B2E3C9FD0803CE8000000 PUSH2 0x3F31 SWAP2 SWAP1 PUSH2 0x4F0A JUMP JUMPDEST SWAP2 POP POP SWAP3 SWAP2 POP POP JUMP JUMPDEST PUSH0 DUP1 DUP4 PUSH5 0xFFFFFFFFFF AND DUP4 PUSH2 0x3F4F SWAP2 SWAP1 PUSH2 0x4E20 JUMP JUMPDEST SWAP1 POP PUSH0 DUP2 SUB PUSH2 0x3F6D JUMPI PUSH12 0x33B2E3C9FD0803CE8000000 SWAP2 POP POP PUSH2 0x4099 JUMP JUMPDEST PUSH0 DUP1 PUSH0 DUP1 PUSH1 0x1 DUP6 SUB SWAP4 POP PUSH1 0x2 DUP6 GT PUSH2 0x3F85 JUMPI PUSH0 PUSH2 0x3F8A JUMP JUMPDEST PUSH1 0x2 DUP6 SUB JUMPDEST SWAP3 POP PUSH4 0x1E13380 DUP1 MUL PUSH2 0x3FA6 DUP11 DUP12 PUSH2 0x399B SWAP1 SWAP2 SWAP1 PUSH4 0xFFFFFFFF AND JUMP JUMPDEST DUP2 PUSH2 0x3FB4 JUMPI PUSH2 0x3FB3 PUSH2 0x4CDE JUMP JUMPDEST JUMPDEST DIV SWAP2 POP PUSH4 0x1E13380 PUSH2 0x3FCF DUP11 DUP5 PUSH2 0x399B SWAP1 SWAP2 SWAP1 PUSH4 0xFFFFFFFF AND JUMP JUMPDEST DUP2 PUSH2 0x3FDD JUMPI PUSH2 0x3FDC PUSH2 0x4CDE JUMP JUMPDEST JUMPDEST DIV SWAP1 POP PUSH0 DUP3 DUP6 DUP8 PUSH2 0x3FEE SWAP2 SWAP1 PUSH2 0x4C9D JUMP JUMPDEST PUSH2 0x3FF8 SWAP2 SWAP1 PUSH2 0x4C9D JUMP JUMPDEST SWAP1 POP PUSH1 0x2 DUP2 DUP2 PUSH2 0x400B JUMPI PUSH2 0x400A PUSH2 0x4CDE JUMP JUMPDEST JUMPDEST DIV SWAP1 POP PUSH0 DUP3 DUP6 DUP8 DUP10 PUSH2 0x401D SWAP2 SWAP1 PUSH2 0x4C9D JUMP JUMPDEST PUSH2 0x4027 SWAP2 SWAP1 PUSH2 0x4C9D JUMP JUMPDEST PUSH2 0x4031 SWAP2 SWAP1 PUSH2 0x4C9D JUMP JUMPDEST SWAP1 POP PUSH1 0x6 DUP2 DUP2 PUSH2 0x4044 JUMPI PUSH2 0x4043 PUSH2 0x4CDE JUMP JUMPDEST JUMPDEST DIV SWAP1 POP DUP1 DUP3 PUSH4 0x1E13380 DUP10 DUP15 PUSH2 0x405A SWAP2 SWAP1 PUSH2 0x4C9D JUMP JUMPDEST PUSH2 0x4064 SWAP2 SWAP1 PUSH2 0x4D0B JUMP JUMPDEST PUSH12 0x33B2E3C9FD0803CE8000000 PUSH2 0x407B SWAP2 SWAP1 PUSH2 0x4F0A JUMP JUMPDEST PUSH2 0x4085 SWAP2 SWAP1 PUSH2 0x4F0A JUMP JUMPDEST PUSH2 0x408F SWAP2 SWAP1 PUSH2 0x4F0A JUMP JUMPDEST SWAP8 POP POP POP POP POP POP POP POP JUMPDEST SWAP4 SWAP3 POP POP POP JUMP JUMPDEST PUSH0 DUP2 PUSH1 0xA0 ADD MLOAD EQ PUSH2 0x4128 JUMPI PUSH0 PUSH2 0x40BE DUP3 PUSH1 0xA0 ADD MLOAD DUP4 PUSH1 0xE0 ADD MLOAD PUSH2 0x3EE0 JUMP JUMPDEST SWAP1 POP PUSH2 0x40D7 DUP3 PUSH1 0x20 ADD MLOAD DUP3 PUSH2 0x399B SWAP1 SWAP2 SWAP1 PUSH4 0xFFFFFFFF AND JUMP JUMPDEST DUP3 PUSH1 0x40 ADD DUP2 DUP2 MSTORE POP POP PUSH2 0x40ED DUP3 PUSH1 0x40 ADD MLOAD PUSH2 0x41B3 JUMP JUMPDEST PUSH1 0x5 PUSH0 ADD PUSH0 PUSH2 0x100 EXP DUP2 SLOAD DUP2 PUSH16 0xFFFFFFFFFFFFFFFFFFFFFFFFFFFFFFFF MUL NOT AND SWAP1 DUP4 PUSH16 0xFFFFFFFFFFFFFFFFFFFFFFFFFFFFFFFF AND MUL OR SWAP1 SSTORE POP POP JUMPDEST PUSH0 DUP2 PUSH0 ADD MLOAD EQ PUSH2 0x41B0 JUMPI PUSH0 PUSH2 0x4145 DUP3 PUSH1 0xC0 ADD MLOAD DUP4 PUSH1 0xE0 ADD MLOAD PUSH2 0x3987 JUMP JUMPDEST SWAP1 POP PUSH2 0x415E DUP3 PUSH1 0x60 ADD MLOAD DUP3 PUSH2 0x399B SWAP1 SWAP2 SWAP1 PUSH4 0xFFFFFFFF AND JUMP JUMPDEST DUP3 PUSH1 0x80 ADD DUP2 DUP2 MSTORE POP POP PUSH2 0x4174 DUP3 PUSH1 0x80 ADD MLOAD PUSH2 0x41B3 JUMP JUMPDEST PUSH1 0x5 PUSH1 0x1 ADD PUSH0 PUSH2 0x100 EXP DUP2 SLOAD DUP2 PUSH16 0xFFFFFFFFFFFFFFFFFFFFFFFFFFFFFFFF MUL NOT AND SWAP1 DUP4 PUSH16 0xFFFFFFFFFFFFFFFFFFFFFFFFFFFFFFFF AND MUL OR SWAP1 SSTORE POP POP JUMPDEST POP JUMP JUMPDEST PUSH0 PUSH16 0xFFFFFFFFFFFFFFFFFFFFFFFFFFFFFFFF DUP1 AND DUP3 GT ISZERO PUSH2 0x420E JUMPI PUSH1 0x80 DUP3 PUSH1 0x40 MLOAD PUSH32 0x6DFCC65000000000000000000000000000000000000000000000000000000000 DUP2 MSTORE PUSH1 0x4 ADD PUSH2 0x4205 SWAP3 SWAP2 SWAP1 PUSH2 0x5104 JUMP JUMPDEST PUSH1 0x40 MLOAD DUP1 SWAP2 SUB SWAP1 REVERT JUMPDEST DUP2 SWAP1 POP SWAP2 SWAP1 POP JUMP JUMPDEST PUSH1 0x40 MLOAD DUP1 PUSH2 0x100 ADD PUSH1 0x40 MSTORE DUP1 PUSH0 DUP2 MSTORE PUSH1 0x20 ADD PUSH0 DUP2 MSTORE PUSH1 0x20 ADD PUSH0 DUP2 MSTORE PUSH1 0x20 ADD PUSH0 DUP2 MSTORE PUSH1 0x20 ADD PUSH0 DUP2 MSTORE PUSH1 0x20 ADD PUSH0 DUP2 MSTORE PUSH1 0x20 ADD PUSH0 DUP2 MSTORE PUSH1 0x20 ADD PUSH0 PUSH5 0xFFFFFFFFFF AND DUP2 MSTORE POP SWAP1 JUMP JUMPDEST PUSH1 0x40 MLOAD DUP1 PUSH1 0x60 ADD PUSH1 0x40 MSTORE DUP1 PUSH0 DUP2 MSTORE PUSH1 0x20 ADD PUSH0 DUP2 MSTORE PUSH1 0x20 ADD PUSH0 DUP2 MSTORE POP SWAP1 JUMP JUMPDEST PUSH0 DUP2 SWAP1 POP SWAP2 SWAP1 POP JUMP JUMPDEST PUSH2 0x428A DUP2 PUSH2 0x4278 JUMP JUMPDEST DUP3 MSTORE POP POP JUMP JUMPDEST PUSH0 PUSH1 0x20 DUP3 ADD SWAP1 POP PUSH2 0x42A3 PUSH0 DUP4 ADD DUP5 PUSH2 0x4281 JUMP JUMPDEST SWAP3 SWAP2 POP POP JUMP JUMPDEST PUSH0 PUSH1 0x40 MLOAD SWAP1 POP SWAP1 JUMP JUMPDEST PUSH0 DUP1 REVERT JUMPDEST PUSH0 DUP1 REVERT JUMPDEST PUSH0 PUSH20 0xFFFFFFFFFFFFFFFFFFFFFFFFFFFFFFFFFFFFFFFF DUP3 AND SWAP1 POP SWAP2 SWAP1 POP JUMP JUMPDEST PUSH0 PUSH2 0x42E3 DUP3 PUSH2 0x42BA JUMP JUMPDEST SWAP1 POP SWAP2 SWAP1 POP JUMP JUMPDEST PUSH2 0x42F3 DUP2 PUSH2 0x42D9 JUMP JUMPDEST DUP2 EQ PUSH2 0x42FD JUMPI PUSH0 DUP1 REVERT JUMPDEST POP JUMP JUMPDEST PUSH0 DUP2 CALLDATALOAD SWAP1 POP PUSH2 0x430E DUP2 PUSH2 0x42EA JUMP JUMPDEST SWAP3 SWAP2 POP POP JUMP JUMPDEST PUSH0 PUSH1 0x20 DUP3 DUP5 SUB SLT ISZERO PUSH2 0x4329 JUMPI PUSH2 0x4328 PUSH2 0x42B2 JUMP JUMPDEST JUMPDEST PUSH0 PUSH2 0x4336 DUP5 DUP3 DUP6 ADD PUSH2 0x4300 JUMP JUMPDEST SWAP2 POP POP SWAP3 SWAP2 POP POP JUMP JUMPDEST PUSH0 DUP2 ISZERO ISZERO SWAP1 POP SWAP2 SWAP1 POP JUMP JUMPDEST PUSH2 0x4353 DUP2 PUSH2 0x433F JUMP JUMPDEST DUP3 MSTORE POP POP JUMP JUMPDEST PUSH0 PUSH1 0x20 DUP3 ADD SWAP1 POP PUSH2 0x436C PUSH0 DUP4 ADD DUP5 PUSH2 0x434A JUMP JUMPDEST SWAP3 SWAP2 POP POP JUMP JUMPDEST PUSH2 0x437B DUP2 PUSH2 0x433F JUMP JUMPDEST DUP2 EQ PUSH2 0x4385 JUMPI PUSH0 DUP1 REVERT JUMPDEST POP JUMP JUMPDEST PUSH0 DUP2 CALLDATALOAD SWAP1 POP PUSH2 0x4396 DUP2 PUSH2 0x4372 JUMP JUMPDEST SWAP3 SWAP2 POP POP JUMP JUMPDEST PUSH0 PUSH1 0x20 DUP3 DUP5 SUB SLT ISZERO PUSH2 0x43B1 JUMPI PUSH2 0x43B0 PUSH2 0x42B2 JUMP JUMPDEST JUMPDEST PUSH0 PUSH2 0x43BE DUP5 DUP3 DUP6 ADD PUSH2 0x4388 JUMP JUMPDEST SWAP2 POP POP SWAP3 SWAP2 POP POP JUMP JUMPDEST PUSH0 PUSH2 0x43D1 DUP3 PUSH2 0x42D9 JUMP JUMPDEST SWAP1 POP SWAP2 SWAP1 POP JUMP JUMPDEST PUSH2 0x43E1 DUP2 PUSH2 0x43C7 JUMP JUMPDEST DUP2 EQ PUSH2 0x43EB JUMPI PUSH0 DUP1 REVERT JUMPDEST POP JUMP JUMPDEST PUSH0 DUP2 CALLDATALOAD SWAP1 POP PUSH2 0x43FC DUP2 PUSH2 0x43D8 JUMP JUMPDEST SWAP3 SWAP2 POP POP JUMP JUMPDEST PUSH2 0x440B DUP2 PUSH2 0x4278 JUMP JUMPDEST DUP2 EQ PUSH2 0x4415 JUMPI PUSH0 DUP1 REVERT JUMPDEST POP JUMP JUMPDEST PUSH0 DUP2 CALLDATALOAD SWAP1 POP PUSH2 0x4426 DUP2 PUSH2 0x4402 JUMP JUMPDEST SWAP3 SWAP2 POP POP JUMP JUMPDEST PUSH0 DUP1 PUSH0 PUSH1 0x60 DUP5 DUP7 SUB SLT ISZERO PUSH2 0x4443 JUMPI PUSH2 0x4442 PUSH2 0x42B2 JUMP JUMPDEST JUMPDEST PUSH0 PUSH2 0x4450 DUP7 DUP3 DUP8 ADD PUSH2 0x43EE JUMP JUMPDEST SWAP4 POP POP PUSH1 0x20 PUSH2 0x4461 DUP7 DUP3 DUP8 ADD PUSH2 0x4300 JUMP JUMPDEST SWAP3 POP POP PUSH1 0x40 PUSH2 0x4472 DUP7 DUP3 DUP8 ADD PUSH2 0x4418 JUMP JUMPDEST SWAP2 POP POP SWAP3 POP SWAP3 POP SWAP3 JUMP JUMPDEST PUSH0 PUSH1 0x20 DUP3 DUP5 SUB SLT ISZERO PUSH2 0x4491 JUMPI PUSH2 0x4490 PUSH2 0x42B2 JUMP JUMPDEST JUMPDEST PUSH0 PUSH2 0x449E DUP5 DUP3 DUP6 ADD PUSH2 0x4418 JUMP JUMPDEST SWAP2 POP POP SWAP3 SWAP2 POP POP JUMP JUMPDEST PUSH0 DUP1 PUSH0 DUP1 PUSH1 0x80 DUP6 DUP8 SUB SLT ISZERO PUSH2 0x44BF JUMPI PUSH2 0x44BE PUSH2 0x42B2 JUMP JUMPDEST JUMPDEST PUSH0 PUSH2 0x44CC DUP8 DUP3 DUP9 ADD PUSH2 0x4418 JUMP JUMPDEST SWAP5 POP POP PUSH1 0x20 PUSH2 0x44DD DUP8 DUP3 DUP9 ADD PUSH2 0x4418 JUMP JUMPDEST SWAP4 POP POP PUSH1 0x40 PUSH2 0x44EE DUP8 DUP3 DUP9 ADD PUSH2 0x4300 JUMP JUMPDEST SWAP3 POP POP PUSH1 0x60 PUSH2 0x44FF DUP8 DUP3 DUP9 ADD PUSH2 0x4388 JUMP JUMPDEST SWAP2 POP POP SWAP3 SWAP6 SWAP2 SWAP5 POP SWAP3 POP JUMP JUMPDEST PUSH2 0x4514 DUP2 PUSH2 0x42D9 JUMP JUMPDEST DUP3 MSTORE POP POP JUMP JUMPDEST PUSH0 PUSH1 0x20 DUP3 ADD SWAP1 POP PUSH2 0x452D PUSH0 DUP4 ADD DUP5 PUSH2 0x450B JUMP JUMPDEST SWAP3 SWAP2 POP POP JUMP JUMPDEST PUSH0 DUP1 PUSH1 0x40 DUP4 DUP6 SUB SLT ISZERO PUSH2 0x4549 JUMPI PUSH2 0x4548 PUSH2 0x42B2 JUMP JUMPDEST JUMPDEST PUSH0 PUSH2 0x4556 DUP6 DUP3 DUP7 ADD PUSH2 0x4418 JUMP JUMPDEST SWAP3 POP POP PUSH1 0x20 PUSH2 0x4567 DUP6 DUP3 DUP7 ADD PUSH2 0x4418 JUMP JUMPDEST SWAP2 POP POP SWAP3 POP SWAP3 SWAP1 POP JUMP JUMPDEST PUSH0 DUP2 SWAP1 POP SWAP2 SWAP1 POP JUMP JUMPDEST PUSH0 PUSH2 0x4594 PUSH2 0x458F PUSH2 0x458A DUP5 PUSH2 0x42BA JUMP JUMPDEST PUSH2 0x4571 JUMP JUMPDEST PUSH2 0x42BA JUMP JUMPDEST SWAP1 POP SWAP2 SWAP1 POP JUMP JUMPDEST PUSH0 PUSH2 0x45A5 DUP3 PUSH2 0x457A JUMP JUMPDEST SWAP1 POP SWAP2 SWAP1 POP JUMP JUMPDEST PUSH0 PUSH2 0x45B6 DUP3 PUSH2 0x459B JUMP JUMPDEST SWAP1 POP SWAP2 SWAP1 POP JUMP JUMPDEST PUSH2 0x45C6 DUP2 PUSH2 0x45AC JUMP JUMPDEST DUP3 MSTORE POP POP JUMP JUMPDEST PUSH0 PUSH1 0x20 DUP3 ADD SWAP1 POP PUSH2 0x45DF PUSH0 DUP4 ADD DUP5 PUSH2 0x45BD JUMP JUMPDEST SWAP3 SWAP2 POP POP JUMP JUMPDEST PUSH0 PUSH16 0xFFFFFFFFFFFFFFFFFFFFFFFFFFFFFFFF DUP3 AND SWAP1 POP SWAP2 SWAP1 POP JUMP JUMPDEST PUSH2 0x4609 DUP2 PUSH2 0x45E5 JUMP JUMPDEST DUP3 MSTORE POP POP JUMP JUMPDEST PUSH0 PUSH5 0xFFFFFFFFFF DUP3 AND SWAP1 POP SWAP2 SWAP1 POP JUMP JUMPDEST PUSH2 0x4628 DUP2 PUSH2 0x460F JUMP JUMPDEST DUP3 MSTORE POP POP JUMP JUMPDEST PUSH0 PUSH2 0xFFFF DUP3 AND SWAP1 POP SWAP2 SWAP1 POP JUMP JUMPDEST PUSH2 0x4644 DUP2 PUSH2 0x462E JUMP JUMPDEST DUP3 MSTORE POP POP JUMP JUMPDEST PUSH0 PUSH1 0xE0 DUP3 ADD SWAP1 POP PUSH2 0x465D PUSH0 DUP4 ADD DUP11 PUSH2 0x4600 JUMP JUMPDEST PUSH2 0x466A PUSH1 0x20 DUP4 ADD DUP10 PUSH2 0x4600 JUMP JUMPDEST PUSH2 0x4677 PUSH1 0x40 DUP4 ADD DUP9 PUSH2 0x4600 JUMP JUMPDEST PUSH2 0x4684 PUSH1 0x60 DUP4 ADD DUP8 PUSH2 0x4600 JUMP JUMPDEST PUSH2 0x4691 PUSH1 0x80 DUP4 ADD DUP7 PUSH2 0x461F JUMP JUMPDEST PUSH2 0x469E PUSH1 0xA0 DUP4 ADD DUP6 PUSH2 0x463B JUMP JUMPDEST PUSH2 0x46AB PUSH1 0xC0 DUP4 ADD DUP5 PUSH2 0x450B JUMP JUMPDEST SWAP9 SWAP8 POP POP POP POP POP POP POP POP JUMP JUMPDEST PUSH0 PUSH2 0x140 DUP3 ADD SWAP1 POP PUSH2 0x46CB PUSH0 DUP4 ADD DUP14 PUSH2 0x4281 JUMP JUMPDEST PUSH2 0x46D8 PUSH1 0x20 DUP4 ADD DUP13 PUSH2 0x434A JUMP JUMPDEST PUSH2 0x46E5 PUSH1 0x40 DUP4 ADD DUP12 PUSH2 0x4281 JUMP JUMPDEST PUSH2 0x46F2 PUSH1 0x60 DUP4 ADD DUP11 PUSH2 0x434A JUMP JUMPDEST PUSH2 0x46FF PUSH1 0x80 DUP4 ADD DUP10 PUSH2 0x450B JUMP JUMPDEST PUSH2 0x470C PUSH1 0xA0 DUP4 ADD DUP9 PUSH2 0x434A JUMP JUMPDEST PUSH2 0x4719 PUSH1 0xC0 DUP4 ADD DUP8 PUSH2 0x45BD JUMP JUMPDEST PUSH2 0x4726 PUSH1 0xE0 DUP4 ADD DUP7 PUSH2 0x434A JUMP JUMPDEST PUSH2 0x4734 PUSH2 0x100 DUP4 ADD DUP6 PUSH2 0x434A JUMP JUMPDEST PUSH2 0x4742 PUSH2 0x120 DUP4 ADD DUP5 PUSH2 0x4281 JUMP JUMPDEST SWAP12 SWAP11 POP POP POP POP POP POP POP POP POP POP POP JUMP JUMPDEST PUSH0 DUP1 PUSH1 0x40 DUP4 DUP6 SUB SLT ISZERO PUSH2 0x4767 JUMPI PUSH2 0x4766 PUSH2 0x42B2 JUMP JUMPDEST JUMPDEST PUSH0 PUSH2 0x4774 DUP6 DUP3 DUP7 ADD PUSH2 0x43EE JUMP JUMPDEST SWAP3 POP POP PUSH1 0x20 PUSH2 0x4785 DUP6 DUP3 DUP7 ADD PUSH2 0x4300 JUMP JUMPDEST SWAP2 POP POP SWAP3 POP SWAP3 SWAP1 POP JUMP JUMPDEST PUSH0 DUP1 PUSH1 0x40 DUP4 DUP6 SUB SLT ISZERO PUSH2 0x47A5 JUMPI PUSH2 0x47A4 PUSH2 0x42B2 JUMP JUMPDEST JUMPDEST PUSH0 PUSH2 0x47B2 DUP6 DUP3 DUP7 ADD PUSH2 0x4300 JUMP JUMPDEST SWAP3 POP POP PUSH1 0x20 PUSH2 0x47C3 DUP6 DUP3 DUP7 ADD PUSH2 0x4418 JUMP JUMPDEST SWAP2 POP POP SWAP3 POP SWAP3 SWAP1 POP JUMP JUMPDEST PUSH0 DUP1 REVERT JUMPDEST PUSH0 PUSH1 0x1F NOT PUSH1 0x1F DUP4 ADD AND SWAP1 POP SWAP2 SWAP1 POP JUMP JUMPDEST PUSH32 0x4E487B7100000000000000000000000000000000000000000000000000000000 PUSH0 MSTORE PUSH1 0x41 PUSH1 0x4 MSTORE PUSH1 0x24 PUSH0 REVERT JUMPDEST PUSH2 0x4817 DUP3 PUSH2 0x47D1 JUMP JUMPDEST DUP2 ADD DUP2 DUP2 LT PUSH8 0xFFFFFFFFFFFFFFFF DUP3 GT OR ISZERO PUSH2 0x4836 JUMPI PUSH2 0x4835 PUSH2 0x47E1 JUMP JUMPDEST JUMPDEST DUP1 PUSH1 0x40 MSTORE POP POP POP JUMP JUMPDEST PUSH0 PUSH2 0x4848 PUSH2 0x42A9 JUMP JUMPDEST SWAP1 POP PUSH2 0x4854 DUP3 DUP3 PUSH2 0x480E JUMP JUMPDEST SWAP2 SWAP1 POP JUMP JUMPDEST PUSH0 PUSH8 0xFFFFFFFFFFFFFFFF DUP3 GT ISZERO PUSH2 0x4873 JUMPI PUSH2 0x4872 PUSH2 0x47E1 JUMP JUMPDEST JUMPDEST PUSH1 0x20 DUP3 MUL SWAP1 POP PUSH1 0x20 DUP2 ADD SWAP1 POP SWAP2 SWAP1 POP JUMP JUMPDEST PUSH0 DUP1 REVERT JUMPDEST PUSH0 PUSH2 0x489A PUSH2 0x4895 DUP5 PUSH2 0x4859 JUMP JUMPDEST PUSH2 0x483F JUMP JUMPDEST SWAP1 POP DUP1 DUP4 DUP3 MSTORE PUSH1 0x20 DUP3 ADD SWAP1 POP PUSH1 0x20 DUP5 MUL DUP4 ADD DUP6 DUP2 GT ISZERO PUSH2 0x48BD JUMPI PUSH2 0x48BC PUSH2 0x4884 JUMP JUMPDEST JUMPDEST DUP4 JUMPDEST DUP2 DUP2 LT ISZERO PUSH2 0x48E6 JUMPI DUP1 PUSH2 0x48D2 DUP9 DUP3 PUSH2 0x4300 JUMP JUMPDEST DUP5 MSTORE PUSH1 0x20 DUP5 ADD SWAP4 POP POP PUSH1 0x20 DUP2 ADD SWAP1 POP PUSH2 0x48BF JUMP JUMPDEST POP POP POP SWAP4 SWAP3 POP POP POP JUMP JUMPDEST PUSH0 DUP3 PUSH1 0x1F DUP4 ADD SLT PUSH2 0x4904 JUMPI PUSH2 0x4903 PUSH2 0x47CD JUMP JUMPDEST JUMPDEST DUP2 CALLDATALOAD PUSH2 0x4914 DUP5 DUP3 PUSH1 0x20 DUP7 ADD PUSH2 0x4888 JUMP JUMPDEST SWAP2 POP POP SWAP3 SWAP2 POP POP JUMP JUMPDEST PUSH0 PUSH8 0xFFFFFFFFFFFFFFFF DUP3 GT ISZERO PUSH2 0x4937 JUMPI PUSH2 0x4936 PUSH2 0x47E1 JUMP JUMPDEST JUMPDEST PUSH1 0x20 DUP3 MUL SWAP1 POP PUSH1 0x20 DUP2 ADD SWAP1 POP SWAP2 SWAP1 POP JUMP JUMPDEST PUSH0 PUSH2 0x495A PUSH2 0x4955 DUP5 PUSH2 0x491D JUMP JUMPDEST PUSH2 0x483F JUMP JUMPDEST SWAP1 POP DUP1 DUP4 DUP3 MSTORE PUSH1 0x20 DUP3 ADD SWAP1 POP PUSH1 0x20 DUP5 MUL DUP4 ADD DUP6 DUP2 GT ISZERO PUSH2 0x497D JUMPI PUSH2 0x497C PUSH2 0x4884 JUMP JUMPDEST JUMPDEST DUP4 JUMPDEST DUP2 DUP2 LT ISZERO PUSH2 0x49A6 JUMPI DUP1 PUSH2 0x4992 DUP9 DUP3 PUSH2 0x4388 JUMP JUMPDEST DUP5 MSTORE PUSH1 0x20 DUP5 ADD SWAP4 POP POP PUSH1 0x20 DUP2 ADD SWAP1 POP PUSH2 0x497F JUMP JUMPDEST POP POP POP SWAP4 SWAP3 POP POP POP JUMP JUMPDEST PUSH0 DUP3 PUSH1 0x1F DUP4 ADD SLT PUSH2 0x49C4 JUMPI PUSH2 0x49C3 PUSH2 0x47CD JUMP JUMPDEST JUMPDEST DUP2 CALLDATALOAD PUSH2 0x49D4 DUP5 DUP3 PUSH1 0x20 DUP7 ADD PUSH2 0x4948 JUMP JUMPDEST SWAP2 POP POP SWAP3 SWAP2 POP POP JUMP JUMPDEST PUSH0 DUP1 PUSH1 0x40 DUP4 DUP6 SUB SLT ISZERO PUSH2 0x49F3 JUMPI PUSH2 0x49F2 PUSH2 0x42B2 JUMP JUMPDEST JUMPDEST PUSH0 DUP4 ADD CALLDATALOAD PUSH8 0xFFFFFFFFFFFFFFFF DUP2 GT ISZERO PUSH2 0x4A10 JUMPI PUSH2 0x4A0F PUSH2 0x42B6 JUMP JUMPDEST JUMPDEST PUSH2 0x4A1C DUP6 DUP3 DUP7 ADD PUSH2 0x48F0 JUMP JUMPDEST SWAP3 POP POP PUSH1 0x20 DUP4 ADD CALLDATALOAD PUSH8 0xFFFFFFFFFFFFFFFF DUP2 GT ISZERO PUSH2 0x4A3D JUMPI PUSH2 0x4A3C PUSH2 0x42B6 JUMP JUMPDEST JUMPDEST PUSH2 0x4A49 DUP6 DUP3 DUP7 ADD PUSH2 0x49B0 JUMP JUMPDEST SWAP2 POP POP SWAP3 POP SWAP3 SWAP1 POP JUMP JUMPDEST PUSH0 PUSH1 0x80 DUP3 ADD SWAP1 POP PUSH2 0x4A66 PUSH0 DUP4 ADD DUP8 PUSH2 0x4281 JUMP JUMPDEST PUSH2 0x4A73 PUSH1 0x20 DUP4 ADD DUP7 PUSH2 0x4281 JUMP JUMPDEST PUSH2 0x4A80 PUSH1 0x40 DUP4 ADD DUP6 PUSH2 0x4281 JUMP JUMPDEST PUSH2 0x4A8D PUSH1 0x60 DUP4 ADD DUP5 PUSH2 0x4281 JUMP JUMPDEST SWAP6 SWAP5 POP POP POP POP POP JUMP JUMPDEST PUSH0 PUSH1 0xFF DUP3 AND SWAP1 POP SWAP2 SWAP1 POP JUMP JUMPDEST PUSH2 0x4AAB DUP2 PUSH2 0x4A96 JUMP JUMPDEST DUP2 EQ PUSH2 0x4AB5 JUMPI PUSH0 DUP1 REVERT JUMPDEST POP JUMP JUMPDEST PUSH0 DUP2 MLOAD SWAP1 POP PUSH2 0x4AC6 DUP2 PUSH2 0x4AA2 JUMP JUMPDEST SWAP3 SWAP2 POP POP JUMP JUMPDEST PUSH0 PUSH1 0x20 DUP3 DUP5 SUB SLT ISZERO PUSH2 0x4AE1 JUMPI PUSH2 0x4AE0 PUSH2 0x42B2 JUMP JUMPDEST JUMPDEST PUSH0 PUSH2 0x4AEE DUP5 DUP3 DUP6 ADD PUSH2 0x4AB8 JUMP JUMPDEST SWAP2 POP POP SWAP3 SWAP2 POP POP JUMP JUMPDEST PUSH32 0x4E487B7100000000000000000000000000000000000000000000000000000000 PUSH0 MSTORE PUSH1 0x11 PUSH1 0x4 MSTORE PUSH1 0x24 PUSH0 REVERT JUMPDEST PUSH0 DUP2 PUSH1 0x1 SHR SWAP1 POP SWAP2 SWAP1 POP JUMP JUMPDEST PUSH0 DUP1 DUP3 SWAP2 POP DUP4 SWAP1 POP JUMPDEST PUSH1 0x1 DUP6 GT ISZERO PUSH2 0x4B79 JUMPI DUP1 DUP7 DIV DUP2 GT ISZERO PUSH2 0x4B55 JUMPI PUSH2 0x4B54 PUSH2 0x4AF7 JUMP JUMPDEST JUMPDEST PUSH1 0x1 DUP6 AND ISZERO PUSH2 0x4B64 JUMPI DUP1 DUP3 MUL SWAP2 POP JUMPDEST DUP1 DUP2 MUL SWAP1 POP PUSH2 0x4B72 DUP6 PUSH2 0x4B24 JUMP JUMPDEST SWAP5 POP PUSH2 0x4B39 JUMP JUMPDEST SWAP5 POP SWAP5 SWAP3 POP POP POP JUMP JUMPDEST PUSH0 DUP3 PUSH2 0x4B91 JUMPI PUSH1 0x1 SWAP1 POP PUSH2 0x4C4C JUMP JUMPDEST DUP2 PUSH2 0x4B9E JUMPI PUSH0 SWAP1 POP PUSH2 0x4C4C JUMP JUMPDEST DUP2 PUSH1 0x1 DUP2 EQ PUSH2 0x4BB4 JUMPI PUSH1 0x2 DUP2 EQ PUSH2 0x4BBE JUMPI PUSH2 0x4BED JUMP JUMPDEST PUSH1 0x1 SWAP2 POP POP PUSH2 0x4C4C JUMP JUMPDEST PUSH1 0xFF DUP5 GT ISZERO PUSH2 0x4BD0 JUMPI PUSH2 0x4BCF PUSH2 0x4AF7 JUMP JUMPDEST JUMPDEST DUP4 PUSH1 0x2 EXP SWAP2 POP DUP5 DUP3 GT ISZERO PUSH2 0x4BE7 JUMPI PUSH2 0x4BE6 PUSH2 0x4AF7 JUMP JUMPDEST JUMPDEST POP PUSH2 0x4C4C JUMP JUMPDEST POP PUSH1 0x20 DUP4 LT PUSH2 0x133 DUP4 LT AND PUSH1 0x4E DUP5 LT PUSH1 0xB DUP5 LT AND OR ISZERO PUSH2 0x4C22 JUMPI DUP3 DUP3 EXP SWAP1 POP DUP4 DUP2 GT ISZERO PUSH2 0x4C1D JUMPI PUSH2 0x4C1C PUSH2 0x4AF7 JUMP JUMPDEST JUMPDEST PUSH2 0x4C4C JUMP JUMPDEST PUSH2 0x4C2F DUP5 DUP5 DUP5 PUSH1 0x1 PUSH2 0x4B30 JUMP JUMPDEST SWAP3 POP SWAP1 POP DUP2 DUP5 DIV DUP2 GT ISZERO PUSH2 0x4C46 JUMPI PUSH2 0x4C45 PUSH2 0x4AF7 JUMP JUMPDEST JUMPDEST DUP2 DUP2 MUL SWAP1 POP JUMPDEST SWAP4 SWAP3 POP POP POP JUMP JUMPDEST PUSH0 PUSH2 0x4C5D DUP3 PUSH2 0x4278 JUMP JUMPDEST SWAP2 POP PUSH2 0x4C68 DUP4 PUSH2 0x4A96 JUMP JUMPDEST SWAP3 POP PUSH2 0x4C95 PUSH32 0xFFFFFFFFFFFFFFFFFFFFFFFFFFFFFFFFFFFFFFFFFFFFFFFFFFFFFFFFFFFFFFFF DUP5 DUP5 PUSH2 0x4B82 JUMP JUMPDEST SWAP1 POP SWAP3 SWAP2 POP POP JUMP JUMPDEST PUSH0 PUSH2 0x4CA7 DUP3 PUSH2 0x4278 JUMP JUMPDEST SWAP2 POP PUSH2 0x4CB2 DUP4 PUSH2 0x4278 JUMP JUMPDEST SWAP3 POP DUP3 DUP3 MUL PUSH2 0x4CC0 DUP2 PUSH2 0x4278 JUMP JUMPDEST SWAP2 POP DUP3 DUP3 DIV DUP5 EQ DUP4 ISZERO OR PUSH2 0x4CD7 JUMPI PUSH2 0x4CD6 PUSH2 0x4AF7 JUMP JUMPDEST JUMPDEST POP SWAP3 SWAP2 POP POP JUMP JUMPDEST PUSH32 0x4E487B7100000000000000000000000000000000000000000000000000000000 PUSH0 MSTORE PUSH1 0x12 PUSH1 0x4 MSTORE PUSH1 0x24 PUSH0 REVERT JUMPDEST PUSH0 PUSH2 0x4D15 DUP3 PUSH2 0x4278 JUMP JUMPDEST SWAP2 POP PUSH2 0x4D20 DUP4 PUSH2 0x4278 JUMP JUMPDEST SWAP3 POP DUP3 PUSH2 0x4D30 JUMPI PUSH2 0x4D2F PUSH2 0x4CDE JUMP JUMPDEST JUMPDEST DUP3 DUP3 DIV SWAP1 POP SWAP3 SWAP2 POP POP JUMP JUMPDEST PUSH0 DUP2 MLOAD SWAP1 POP SWAP2 SWAP1 POP JUMP JUMPDEST PUSH0 DUP3 DUP3 MSTORE PUSH1 0x20 DUP3 ADD SWAP1 POP SWAP3 SWAP2 POP POP JUMP JUMPDEST DUP3 DUP2 DUP4 MCOPY PUSH0 DUP4 DUP4 ADD MSTORE POP POP POP JUMP JUMPDEST PUSH0 PUSH2 0x4D6D DUP3 PUSH2 0x4D3B JUMP JUMPDEST PUSH2 0x4D77 DUP2 DUP6 PUSH2 0x4D45 JUMP JUMPDEST SWAP4 POP PUSH2 0x4D87 DUP2 DUP6 PUSH1 0x20 DUP7 ADD PUSH2 0x4D55 JUMP JUMPDEST PUSH2 0x4D90 DUP2 PUSH2 0x47D1 JUMP JUMPDEST DUP5 ADD SWAP2 POP POP SWAP3 SWAP2 POP POP JUMP JUMPDEST PUSH0 PUSH1 0x20 DUP3 ADD SWAP1 POP DUP2 DUP2 SUB PUSH0 DUP4 ADD MSTORE PUSH2 0x4DB3 DUP2 DUP5 PUSH2 0x4D63 JUMP JUMPDEST SWAP1 POP SWAP3 SWAP2 POP POP JUMP JUMPDEST PUSH0 DUP2 SWAP1 POP SWAP2 SWAP1 POP JUMP JUMPDEST PUSH0 PUSH8 0xFFFFFFFFFFFFFFFF DUP3 AND SWAP1 POP SWAP2 SWAP1 POP JUMP JUMPDEST PUSH0 PUSH2 0x4DF1 PUSH2 0x4DEC PUSH2 0x4DE7 DUP5 PUSH2 0x4DBB JUMP JUMPDEST PUSH2 0x4571 JUMP JUMPDEST PUSH2 0x4DC4 JUMP JUMPDEST SWAP1 POP SWAP2 SWAP1 POP JUMP JUMPDEST PUSH2 0x4E01 DUP2 PUSH2 0x4DD7 JUMP JUMPDEST DUP3 MSTORE POP POP JUMP JUMPDEST PUSH0 PUSH1 0x20 DUP3 ADD SWAP1 POP PUSH2 0x4E1A PUSH0 DUP4 ADD DUP5 PUSH2 0x4DF8 JUMP JUMPDEST SWAP3 SWAP2 POP POP JUMP JUMPDEST PUSH0 PUSH2 0x4E2A DUP3 PUSH2 0x4278 JUMP JUMPDEST SWAP2 POP PUSH2 0x4E35 DUP4 PUSH2 0x4278 JUMP JUMPDEST SWAP3 POP DUP3 DUP3 SUB SWAP1 POP DUP2 DUP2 GT ISZERO PUSH2 0x4E4D JUMPI PUSH2 0x4E4C PUSH2 0x4AF7 JUMP JUMPDEST JUMPDEST SWAP3 SWAP2 POP POP JUMP JUMPDEST PUSH0 PUSH1 0x40 DUP3 ADD SWAP1 POP PUSH2 0x4E66 PUSH0 DUP4 ADD DUP6 PUSH2 0x450B JUMP JUMPDEST PUSH2 0x4E73 PUSH1 0x20 DUP4 ADD DUP5 PUSH2 0x4281 JUMP JUMPDEST SWAP4 SWAP3 POP POP POP JUMP JUMPDEST PUSH0 DUP2 MLOAD SWAP1 POP PUSH2 0x4E88 DUP2 PUSH2 0x4372 JUMP JUMPDEST SWAP3 SWAP2 POP POP JUMP JUMPDEST PUSH0 PUSH1 0x20 DUP3 DUP5 SUB SLT ISZERO PUSH2 0x4EA3 JUMPI PUSH2 0x4EA2 PUSH2 0x42B2 JUMP JUMPDEST JUMPDEST PUSH0 PUSH2 0x4EB0 DUP5 DUP3 DUP6 ADD PUSH2 0x4E7A JUMP JUMPDEST SWAP2 POP POP SWAP3 SWAP2 POP POP JUMP JUMPDEST PUSH0 PUSH1 0xA0 DUP3 ADD SWAP1 POP PUSH2 0x4ECC PUSH0 DUP4 ADD DUP9 PUSH2 0x4281 JUMP JUMPDEST PUSH2 0x4ED9 PUSH1 0x20 DUP4 ADD DUP8 PUSH2 0x4281 JUMP JUMPDEST PUSH2 0x4EE6 PUSH1 0x40 DUP4 ADD DUP7 PUSH2 0x4281 JUMP JUMPDEST PUSH2 0x4EF3 PUSH1 0x60 DUP4 ADD DUP6 PUSH2 0x4281 JUMP JUMPDEST PUSH2 0x4F00 PUSH1 0x80 DUP4 ADD DUP5 PUSH2 0x4281 JUMP JUMPDEST SWAP7 SWAP6 POP POP POP POP POP POP JUMP JUMPDEST PUSH0 PUSH2 0x4F14 DUP3 PUSH2 0x4278 JUMP JUMPDEST SWAP2 POP PUSH2 0x4F1F DUP4 PUSH2 0x4278 JUMP JUMPDEST SWAP3 POP DUP3 DUP3 ADD SWAP1 POP DUP1 DUP3 GT ISZERO PUSH2 0x4F37 JUMPI PUSH2 0x4F36 PUSH2 0x4AF7 JUMP JUMPDEST JUMPDEST SWAP3 SWAP2 POP POP JUMP JUMPDEST PUSH0 PUSH1 0x60 DUP3 ADD SWAP1 POP PUSH2 0x4F50 PUSH0 DUP4 ADD DUP7 PUSH2 0x450B JUMP JUMPDEST PUSH2 0x4F5D PUSH1 0x20 DUP4 ADD DUP6 PUSH2 0x450B JUMP JUMPDEST PUSH2 0x4F6A PUSH1 0x40 DUP4 ADD DUP5 PUSH2 0x4281 JUMP JUMPDEST SWAP5 SWAP4 POP POP POP POP JUMP JUMPDEST PUSH0 PUSH2 0x4F7C DUP3 PUSH2 0x4A96 JUMP JUMPDEST SWAP2 POP PUSH2 0x4F87 DUP4 PUSH2 0x4A96 JUMP JUMPDEST SWAP3 POP DUP3 DUP3 SUB SWAP1 POP PUSH1 0xFF DUP2 GT ISZERO PUSH2 0x4FA0 JUMPI PUSH2 0x4F9F PUSH2 0x4AF7 JUMP JUMPDEST JUMPDEST SWAP3 SWAP2 POP POP JUMP JUMPDEST PUSH0 DUP2 MLOAD SWAP1 POP PUSH2 0x4FB4 DUP2 PUSH2 0x4402 JUMP JUMPDEST SWAP3 SWAP2 POP POP JUMP JUMPDEST PUSH0 PUSH1 0x20 DUP3 DUP5 SUB SLT ISZERO PUSH2 0x4FCF JUMPI PUSH2 0x4FCE PUSH2 0x42B2 JUMP JUMPDEST JUMPDEST PUSH0 PUSH2 0x4FDC DUP5 DUP3 DUP6 ADD PUSH2 0x4FA6 JUMP JUMPDEST SWAP2 POP POP SWAP3 SWAP2 POP POP JUMP JUMPDEST PUSH32 0x4E487B7100000000000000000000000000000000000000000000000000000000 PUSH0 MSTORE PUSH1 0x32 PUSH1 0x4 MSTORE PUSH1 0x24 PUSH0 REVERT JUMPDEST PUSH2 0x501B DUP2 PUSH2 0x4278 JUMP JUMPDEST DUP3 MSTORE POP POP JUMP JUMPDEST PUSH1 0x80 DUP3 ADD PUSH0 DUP3 ADD MLOAD PUSH2 0x5035 PUSH0 DUP6 ADD DUP3 PUSH2 0x5012 JUMP JUMPDEST POP PUSH1 0x20 DUP3 ADD MLOAD PUSH2 0x5048 PUSH1 0x20 DUP6 ADD DUP3 PUSH2 0x5012 JUMP JUMPDEST POP PUSH1 0x40 DUP3 ADD MLOAD PUSH2 0x505B PUSH1 0x40 DUP6 ADD DUP3 PUSH2 0x5012 JUMP JUMPDEST POP PUSH1 0x60 DUP3 ADD MLOAD PUSH2 0x506E PUSH1 0x60 DUP6 ADD DUP3 PUSH2 0x5012 JUMP JUMPDEST POP POP POP POP JUMP JUMPDEST PUSH0 PUSH1 0x80 DUP3 ADD SWAP1 POP PUSH2 0x5087 PUSH0 DUP4 ADD DUP5 PUSH2 0x5021 JUMP JUMPDEST SWAP3 SWAP2 POP POP JUMP JUMPDEST PUSH0 DUP1 PUSH1 0x40 DUP4 DUP6 SUB SLT ISZERO PUSH2 0x50A3 JUMPI PUSH2 0x50A2 PUSH2 0x42B2 JUMP JUMPDEST JUMPDEST PUSH0 PUSH2 0x50B0 DUP6 DUP3 DUP7 ADD PUSH2 0x4FA6 JUMP JUMPDEST SWAP3 POP POP PUSH1 0x20 PUSH2 0x50C1 DUP6 DUP3 DUP7 ADD PUSH2 0x4FA6 JUMP JUMPDEST SWAP2 POP POP SWAP3 POP SWAP3 SWAP1 POP JUMP JUMPDEST PUSH0 DUP2 SWAP1 POP SWAP2 SWAP1 POP JUMP JUMPDEST PUSH0 PUSH2 0x50EE PUSH2 0x50E9 PUSH2 0x50E4 DUP5 PUSH2 0x50CB JUMP JUMPDEST PUSH2 0x4571 JUMP JUMPDEST PUSH2 0x4A96 JUMP JUMPDEST SWAP1 POP SWAP2 SWAP1 POP JUMP JUMPDEST PUSH2 0x50FE DUP2 PUSH2 0x50D4 JUMP JUMPDEST DUP3 MSTORE POP POP JUMP JUMPDEST PUSH0 PUSH1 0x40 DUP3 ADD SWAP1 POP PUSH2 0x5117 PUSH0 DUP4 ADD DUP6 PUSH2 0x50F5 JUMP JUMPDEST PUSH2 0x5124 PUSH1 0x20 DUP4 ADD DUP5 PUSH2 0x4281 JUMP JUMPDEST SWAP4 SWAP3 POP POP POP JUMP INVALID LOG2 PUSH5 0x6970667358 0x22 SLT KECCAK256 NOT 0xDF ISZERO PUSH8 0xF503438F1CA9566D LT 0xBF DUP3 0x2E SELFBALANCE MSIZE 0xEF GAS ADD 0x4E SWAP13 DUP2 CALLDATALOAD 0xC5 0xE2 0xA7 STATICCALL 0x2B 0xEE PUSH1 0x64 PUSH20 0x6F6C634300081A00330000000000000000000000 "
		},
		"gasEstimates": {
			"creation": {
				"codeDepositCost": "4166600",
				"executionCost": "4791",
				"totalCost": "4171391"
			},
			"external": {
				"CCFL()": "2597",
				"balanceOf(address)": "infinite",
				"borrow(uint256,uint256,address,bool)": "infinite",
				"cap()": "2515",
				"debt(uint256)": "infinite",
				"depositWithdrawAmount(address)": "2848",
				"earnStaking(uint256)": "infinite",
				"getCurrentLoan(uint256)": "infinite",
				"getCurrentRate()": "infinite",
				"getDebtPool()": "infinite",
				"getDepositWithdrawAmount(address)": "2875",
				"getRemainingPool()": "2499",
				"getTotalSupply()": "infinite",
				"initialize(address,address,uint256)": "infinite",
				"isPaused()": "2650",
				"lenders(uint256)": "5056",
				"liquidatePenalty(uint256,uint256)": "infinite",
				"loans(uint256)": "infinite",
				"operators(address)": "2901",
				"remainingPool()": "2536",
				"repay(uint256,uint256)": "infinite",
				"reserve()": "infinite",
				"setCCFL(address)": "infinite",
				"setCap(uint256)": "infinite",
				"setOperators(address[],bool[])": "infinite",
				"setPaused(bool)": "infinite",
				"setReserveInterestRateStrategy(address)": "infinite",
				"share(address)": "2892",
				"stableCoinAddress()": "infinite",
				"supply(uint256)": "infinite",
				"totalDebt()": "2557",
				"totalLiquidity()": "2516",
				"totalSupply()": "2493",
				"withdraw(uint256)": "infinite",
				"withdrawByAdmin(address,address)": "infinite",
				"withdrawLoan(address,uint256)": "infinite"
			},
			"internal": {
				"_updateIndexes(struct DataTypes.ReserveCache memory)": "infinite",
				"addReward(uint256,address)": "infinite",
				"cache()": "infinite",
				"updateInterestRates(uint256,uint256)": "infinite",
				"updateState(struct DataTypes.ReserveCache memory)": "infinite"
			}
		},
		"methodIdentifiers": {
			"CCFL()": "3b4675a7",
			"balanceOf(address)": "70a08231",
			"borrow(uint256,uint256,address,bool)": "3870862b",
			"cap()": "355274ea",
			"debt(uint256)": "1e0029c8",
			"depositWithdrawAmount(address)": "30793601",
			"earnStaking(uint256)": "9b78dbfc",
			"getCurrentLoan(uint256)": "a52f38d1",
			"getCurrentRate()": "f7fb07b0",
			"getDebtPool()": "03ec357f",
			"getDepositWithdrawAmount(address)": "7871b060",
			"getRemainingPool()": "3b24cc21",
			"getTotalSupply()": "c4e41b22",
			"initialize(address,address,uint256)": "1794bb3c",
			"isPaused()": "b187bd26",
			"lenders(uint256)": "929eea21",
			"liquidatePenalty(uint256,uint256)": "7f394031",
			"loans(uint256)": "e1ec3c68",
			"operators(address)": "13e7c9d8",
			"remainingPool()": "b14d37c0",
			"repay(uint256,uint256)": "d8aed145",
			"reserve()": "cd3293de",
			"setCCFL(address)": "8ac1b775",
			"setCap(uint256)": "47786d37",
			"setOperators(address[],bool[])": "f4305035",
			"setPaused(bool)": "16c38b3c",
			"setReserveInterestRateStrategy(address)": "39cd7d6a",
			"share(address)": "1877bb5c",
			"stableCoinAddress()": "982aae46",
			"supply(uint256)": "35403023",
			"totalDebt()": "fc7b9c18",
			"totalLiquidity()": "15770f92",
			"totalSupply()": "18160ddd",
			"withdraw(uint256)": "2e1a7d4d",
			"withdrawByAdmin(address,address)": "e3691c51",
			"withdrawLoan(address,uint256)": "ec7be39d"
		}
	},
	"abi": [
		{
			"inputs": [],
			"name": "InvalidInitialization",
			"type": "error"
		},
		{
			"inputs": [],
			"name": "NotInitializing",
			"type": "error"
		},
		{
			"inputs": [
				{
					"internalType": "uint8",
					"name": "bits",
					"type": "uint8"
				},
				{
					"internalType": "uint256",
					"name": "value",
					"type": "uint256"
				}
			],
			"name": "SafeCastOverflowedUintDowncast",
			"type": "error"
		},
		{
			"anonymous": false,
			"inputs": [
				{
					"indexed": true,
					"internalType": "address",
					"name": "lender",
					"type": "address"
				},
				{
					"indexed": true,
					"internalType": "address",
					"name": "poolAddress",
					"type": "address"
				},
				{
					"indexed": true,
					"internalType": "contract IERC20Standard",
					"name": "stableCoin",
					"type": "address"
				},
				{
					"indexed": false,
					"internalType": "uint256",
					"name": "amount",
					"type": "uint256"
				},
				{
					"indexed": false,
					"internalType": "uint256",
					"name": "lenderShare",
					"type": "uint256"
				},
				{
					"indexed": false,
					"internalType": "uint256",
					"name": "totalSupply",
					"type": "uint256"
				},
				{
					"indexed": false,
					"internalType": "uint256",
					"name": "totalLiquidity",
					"type": "uint256"
				},
				{
					"indexed": false,
					"internalType": "uint256",
					"name": "remainingPool",
					"type": "uint256"
				}
			],
			"name": "AddSupply",
			"type": "event"
		},
		{
			"anonymous": false,
			"inputs": [
				{
					"indexed": false,
					"internalType": "uint64",
					"name": "version",
					"type": "uint64"
				}
			],
			"name": "Initialized",
			"type": "event"
		},
		{
			"anonymous": false,
			"inputs": [
				{
					"indexed": true,
					"internalType": "address",
					"name": "lender",
					"type": "address"
				},
				{
					"indexed": true,
					"internalType": "address",
					"name": "poolAddress",
					"type": "address"
				},
				{
					"indexed": true,
					"internalType": "contract IERC20Standard",
					"name": "stableCoin",
					"type": "address"
				},
				{
					"indexed": false,
					"internalType": "uint256",
					"name": "amount",
					"type": "uint256"
				},
				{
					"indexed": false,
					"internalType": "uint256",
					"name": "lenderShare",
					"type": "uint256"
				},
				{
					"indexed": false,
					"internalType": "uint256",
					"name": "totalSupply",
					"type": "uint256"
				},
				{
					"indexed": false,
					"internalType": "uint256",
					"name": "totalLiquidity",
					"type": "uint256"
				},
				{
					"indexed": false,
					"internalType": "uint256",
					"name": "remainingPool",
					"type": "uint256"
				}
			],
			"name": "WithdrawSupply",
			"type": "event"
		},
		{
			"inputs": [],
			"name": "CCFL",
			"outputs": [
				{
					"internalType": "address",
					"name": "",
					"type": "address"
				}
			],
			"stateMutability": "view",
			"type": "function"
		},
		{
			"inputs": [
				{
					"internalType": "address",
					"name": "_user",
					"type": "address"
				}
			],
			"name": "balanceOf",
			"outputs": [
				{
					"internalType": "uint256",
					"name": "",
					"type": "uint256"
				}
			],
			"stateMutability": "view",
			"type": "function"
		},
		{
			"inputs": [
				{
					"internalType": "uint256",
					"name": "_loanId",
					"type": "uint256"
				},
				{
					"internalType": "uint256",
					"name": "_amount",
					"type": "uint256"
				},
				{
					"internalType": "address",
					"name": "_borrower",
					"type": "address"
				},
				{
					"internalType": "bool",
					"name": "_isFiat",
					"type": "bool"
				}
			],
			"name": "borrow",
			"outputs": [],
			"stateMutability": "nonpayable",
			"type": "function"
		},
		{
			"inputs": [],
			"name": "cap",
			"outputs": [
				{
					"internalType": "uint256",
					"name": "",
					"type": "uint256"
				}
			],
			"stateMutability": "view",
			"type": "function"
		},
		{
			"inputs": [
				{
					"internalType": "uint256",
					"name": "",
					"type": "uint256"
				}
			],
			"name": "debt",
			"outputs": [
				{
					"internalType": "uint256",
					"name": "",
					"type": "uint256"
				}
			],
			"stateMutability": "view",
			"type": "function"
		},
		{
			"inputs": [
				{
					"internalType": "address",
					"name": "",
					"type": "address"
				}
			],
			"name": "depositWithdrawAmount",
			"outputs": [
				{
					"internalType": "uint256",
					"name": "",
					"type": "uint256"
				}
			],
			"stateMutability": "view",
			"type": "function"
		},
		{
			"inputs": [
				{
					"internalType": "uint256",
					"name": "_amount",
					"type": "uint256"
				}
			],
			"name": "earnStaking",
			"outputs": [],
			"stateMutability": "nonpayable",
			"type": "function"
		},
		{
			"inputs": [
				{
					"internalType": "uint256",
					"name": "_loanId",
					"type": "uint256"
				}
			],
			"name": "getCurrentLoan",
			"outputs": [
				{
					"internalType": "uint256",
					"name": "",
					"type": "uint256"
				}
			],
			"stateMutability": "view",
			"type": "function"
		},
		{
			"inputs": [],
			"name": "getCurrentRate",
			"outputs": [
				{
					"internalType": "uint256",
					"name": "",
					"type": "uint256"
				},
				{
					"internalType": "uint256",
					"name": "",
					"type": "uint256"
				},
				{
					"internalType": "uint256",
					"name": "",
					"type": "uint256"
				},
				{
					"internalType": "uint256",
					"name": "",
					"type": "uint256"
				}
			],
			"stateMutability": "view",
			"type": "function"
		},
		{
			"inputs": [],
			"name": "getDebtPool",
			"outputs": [
				{
					"internalType": "uint256",
					"name": "amount",
					"type": "uint256"
				}
			],
			"stateMutability": "view",
			"type": "function"
		},
		{
			"inputs": [
				{
					"internalType": "address",
					"name": "_user",
					"type": "address"
				}
			],
			"name": "getDepositWithdrawAmount",
			"outputs": [
				{
					"internalType": "uint256",
					"name": "",
					"type": "uint256"
				}
			],
			"stateMutability": "view",
			"type": "function"
		},
		{
			"inputs": [],
			"name": "getRemainingPool",
			"outputs": [
				{
					"internalType": "uint256",
					"name": "amount",
					"type": "uint256"
				}
			],
			"stateMutability": "view",
			"type": "function"
		},
		{
			"inputs": [],
			"name": "getTotalSupply",
			"outputs": [
				{
					"internalType": "uint256",
					"name": "",
					"type": "uint256"
				}
			],
			"stateMutability": "view",
			"type": "function"
		},
		{
			"inputs": [
				{
					"internalType": "contract IERC20Standard",
					"name": "_stableCoinAddress",
					"type": "address"
				},
				{
					"internalType": "address",
					"name": "interestRateStrategyAddress",
					"type": "address"
				},
				{
					"internalType": "uint256",
					"name": "_cap",
					"type": "uint256"
				}
			],
			"name": "initialize",
			"outputs": [],
			"stateMutability": "nonpayable",
			"type": "function"
		},
		{
			"inputs": [],
			"name": "isPaused",
			"outputs": [
				{
					"internalType": "bool",
					"name": "",
					"type": "bool"
				}
			],
			"stateMutability": "view",
			"type": "function"
		},
		{
			"inputs": [
				{
					"internalType": "uint256",
					"name": "",
					"type": "uint256"
				}
			],
			"name": "lenders",
			"outputs": [
				{
					"internalType": "address",
					"name": "",
					"type": "address"
				}
			],
			"stateMutability": "view",
			"type": "function"
		},
		{
			"inputs": [
				{
					"internalType": "uint256",
					"name": "_loanId",
					"type": "uint256"
				},
				{
					"internalType": "uint256",
					"name": "_amount",
					"type": "uint256"
				}
			],
			"name": "liquidatePenalty",
			"outputs": [],
			"stateMutability": "nonpayable",
			"type": "function"
		},
		{
			"inputs": [
				{
					"internalType": "uint256",
					"name": "",
					"type": "uint256"
				}
			],
			"name": "loans",
			"outputs": [
				{
					"internalType": "uint256",
					"name": "loanId",
					"type": "uint256"
				},
				{
					"internalType": "bool",
					"name": "isPaid",
					"type": "bool"
				},
				{
					"internalType": "uint256",
					"name": "amount",
					"type": "uint256"
				},
				{
					"internalType": "bool",
					"name": "isClosed",
					"type": "bool"
				},
				{
					"internalType": "address",
					"name": "borrower",
					"type": "address"
				},
				{
					"internalType": "bool",
					"name": "isLiquidated",
					"type": "bool"
				},
				{
					"internalType": "contract IERC20Standard",
					"name": "stableCoin",
					"type": "address"
				},
				{
					"internalType": "bool",
					"name": "isFinalty",
					"type": "bool"
				},
				{
					"internalType": "bool",
					"name": "isFiat",
					"type": "bool"
				},
				{
					"internalType": "uint256",
					"name": "closedAmount",
					"type": "uint256"
				}
			],
			"stateMutability": "view",
			"type": "function"
		},
		{
			"inputs": [
				{
					"internalType": "address",
					"name": "",
					"type": "address"
				}
			],
			"name": "operators",
			"outputs": [
				{
					"internalType": "bool",
					"name": "",
					"type": "bool"
				}
			],
			"stateMutability": "view",
			"type": "function"
		},
		{
			"inputs": [],
			"name": "remainingPool",
			"outputs": [
				{
					"internalType": "uint256",
					"name": "",
					"type": "uint256"
				}
			],
			"stateMutability": "view",
			"type": "function"
		},
		{
			"inputs": [
				{
					"internalType": "uint256",
					"name": "_loanId",
					"type": "uint256"
				},
				{
					"internalType": "uint256",
					"name": "_amount",
					"type": "uint256"
				}
			],
			"name": "repay",
			"outputs": [],
			"stateMutability": "nonpayable",
			"type": "function"
		},
		{
			"inputs": [],
			"name": "reserve",
			"outputs": [
				{
					"internalType": "uint128",
					"name": "liquidityIndex",
					"type": "uint128"
				},
				{
					"internalType": "uint128",
					"name": "currentLiquidityRate",
					"type": "uint128"
				},
				{
					"internalType": "uint128",
					"name": "variableBorrowIndex",
					"type": "uint128"
				},
				{
					"internalType": "uint128",
					"name": "currentVariableBorrowRate",
					"type": "uint128"
				},
				{
					"internalType": "uint40",
					"name": "lastUpdateTimestamp",
					"type": "uint40"
				},
				{
					"internalType": "uint16",
					"name": "id",
					"type": "uint16"
				},
				{
					"internalType": "address",
					"name": "interestRateStrategyAddress",
					"type": "address"
				}
			],
			"stateMutability": "view",
			"type": "function"
		},
		{
			"inputs": [
				{
					"internalType": "address",
					"name": "_ccfl",
					"type": "address"
				}
			],
			"name": "setCCFL",
			"outputs": [],
			"stateMutability": "nonpayable",
			"type": "function"
		},
		{
			"inputs": [
				{
					"internalType": "uint256",
					"name": "_cap",
					"type": "uint256"
				}
			],
			"name": "setCap",
			"outputs": [],
			"stateMutability": "nonpayable",
			"type": "function"
		},
		{
			"inputs": [
				{
					"internalType": "address[]",
					"name": "_addresses",
					"type": "address[]"
				},
				{
					"internalType": "bool[]",
					"name": "_isActives",
					"type": "bool[]"
				}
			],
			"name": "setOperators",
			"outputs": [],
			"stateMutability": "nonpayable",
			"type": "function"
		},
		{
			"inputs": [
				{
					"internalType": "bool",
					"name": "_paused",
					"type": "bool"
				}
			],
			"name": "setPaused",
			"outputs": [],
			"stateMutability": "nonpayable",
			"type": "function"
		},
		{
			"inputs": [
				{
					"internalType": "address",
					"name": "_interestRateStrategyAddress",
					"type": "address"
				}
			],
			"name": "setReserveInterestRateStrategy",
			"outputs": [],
			"stateMutability": "nonpayable",
			"type": "function"
		},
		{
			"inputs": [
				{
					"internalType": "address",
					"name": "",
					"type": "address"
				}
			],
			"name": "share",
			"outputs": [
				{
					"internalType": "uint256",
					"name": "",
					"type": "uint256"
				}
			],
			"stateMutability": "view",
			"type": "function"
		},
		{
			"inputs": [],
			"name": "stableCoinAddress",
			"outputs": [
				{
					"internalType": "contract IERC20Standard",
					"name": "",
					"type": "address"
				}
			],
			"stateMutability": "view",
			"type": "function"
		},
		{
			"inputs": [
				{
					"internalType": "uint256",
					"name": "_amount",
					"type": "uint256"
				}
			],
			"name": "supply",
			"outputs": [],
			"stateMutability": "nonpayable",
			"type": "function"
		},
		{
			"inputs": [],
			"name": "totalDebt",
			"outputs": [
				{
					"internalType": "uint256",
					"name": "",
					"type": "uint256"
				}
			],
			"stateMutability": "view",
			"type": "function"
		},
		{
			"inputs": [],
			"name": "totalLiquidity",
			"outputs": [
				{
					"internalType": "uint256",
					"name": "",
					"type": "uint256"
				}
			],
			"stateMutability": "view",
			"type": "function"
		},
		{
			"inputs": [],
			"name": "totalSupply",
			"outputs": [
				{
					"internalType": "uint256",
					"name": "",
					"type": "uint256"
				}
			],
			"stateMutability": "view",
			"type": "function"
		},
		{
			"inputs": [
				{
					"internalType": "uint256",
					"name": "_amount",
					"type": "uint256"
				}
			],
			"name": "withdraw",
			"outputs": [],
			"stateMutability": "nonpayable",
			"type": "function"
		},
		{
			"inputs": [
				{
					"internalType": "contract IERC20Standard",
					"name": "_token",
					"type": "address"
				},
				{
					"internalType": "address",
					"name": "_receiver",
					"type": "address"
				}
			],
			"name": "withdrawByAdmin",
			"outputs": [],
			"stateMutability": "nonpayable",
			"type": "function"
		},
		{
			"inputs": [
				{
					"internalType": "address",
					"name": "_receiver",
					"type": "address"
				},
				{
					"internalType": "uint256",
					"name": "_loanId",
					"type": "uint256"
				}
			],
			"name": "withdrawLoan",
			"outputs": [],
			"stateMutability": "nonpayable",
			"type": "function"
		},
		{
			"stateMutability": "payable",
			"type": "receive"
		}
	]
}