{
	"data": {
		"bytecode": {
			"linkReferences": {},
			"object": "6080604052348015600e575f80fd5b506136c28061001c5f395ff3fe608060405260043610610241575f3560e01c80638ba02e1c11610134578063c694fdc1116100b3578063f242862111610078578063f24286211461070c578063f384bd051461072b578063f3cf4ada14610740578063f6597bbb1461075f578063f8f126ff14610774578063fdb2b32c14610793575f80fd5b8063c694fdc11461064e578063cdaabe411461066d578063e51e119e1461068c578063e787ea2c146106bf578063ec7be39d146106ed575f80fd5b8063a8700c3c116100f9578063a8700c3c1461059b578063b3bffeaa146105ae578063b92dd925146105cd578063b9c36209146105fb578063c0d015461461061a575f80fd5b80638ba02e1c146104ea5780638da5cb5b146104ff578063989397d41461051e5780639dcb511a14610552578063a58bab6214610586575f80fd5b806341273657116101c05780635c8edac4116101855780635c8edac41461044f578063611f347d1461046e57806364b520971461048d5780636eb0fdd0146104ac57806375607815146104cb575f80fd5b806341273657146103c0578063415f1240146103df5780634bde38c8146103fe5780634dd7bd3f1461041d5780635b769f3c14610430575f80fd5b806338ef67171161020657806338ef67171461031a5780633a2ad9ae146103395780633e108ad9146103585780634031234c1461038c5780634046ebae146103a1575f80fd5b80630769594d1461024c578063101b9d311461026d578063172c48c71461029557806317845c69146102cc5780631d9eb5d9146102eb575f80fd5b3661024857005b5f80fd5b348015610257575f80fd5b5061026b610266366004612dcb565b6107c7565b005b348015610278575f80fd5b5061028260165481565b6040519081526020015b60405180910390f35b3480156102a0575f80fd5b506102b46102af366004612e56565b6109a4565b6040516001600160a01b03909116815260200161028c565b3480156102d7575f80fd5b506102826102e6366004612e56565b6109cc565b3480156102f6575f80fd5b5061030a610305366004612e6d565b610b3a565b604051901515815260200161028c565b348015610325575f80fd5b5061026b610334366004612ec6565b610b94565b348015610344575f80fd5b5061026b610353366004612ef5565b610be0565b348015610363575f80fd5b506102b4610372366004612ec6565b600a6020525f90815260409020546001600160a01b031681565b348015610397575f80fd5b50610282600c5481565b3480156103ac575f80fd5b506010546102b4906001600160a01b031681565b3480156103cb575f80fd5b5061026b6103da366004612ec6565b610db6565b3480156103ea575f80fd5b5061026b6103f9366004612e56565b610e02565b348015610409575f80fd5b506011546102b4906001600160a01b031681565b61026b61042b366004612f3d565b611471565b34801561043b575f80fd5b5061026b61044a366004612ec6565b6116f7565b34801561045a575f80fd5b5061026b610469366004612f84565b611743565b348015610479575f80fd5b5061026b610488366004612fa7565b611829565b348015610498575f80fd5b5061026b6104a7366004612dcb565b611bad565b3480156104b7575f80fd5b5061026b6104c63660046130e3565b611d79565b3480156104d6575f80fd5b506102826104e536600461310e565b61200b565b3480156104f5575f80fd5b5061028260015481565b34801561050a575f80fd5b506012546102b4906001600160a01b031681565b348015610529575f80fd5b506102b4610538366004612ec6565b600e6020525f90815260409020546001600160a01b031681565b34801561055d575f80fd5b506102b461056c366004612ec6565b600d6020525f90815260409020546001600160a01b031681565b348015610591575f80fd5b5061028260155481565b61026b6105a9366004613142565b612141565b3480156105b9575f80fd5b506102826105c83660046131ae565b612961565b3480156105d8575f80fd5b5061030a6105e7366004612ec6565b60066020525f908152604090205460ff1681565b348015610606575f80fd5b5061026b6106153660046131da565b612a5b565b348015610625575f80fd5b506102b4610634366004612ec6565b60026020525f90815260409020546001600160a01b031681565b348015610659575f80fd5b506102b4610668366004612e56565b612a90565b348015610678575f80fd5b506009546102b4906001600160a01b031681565b348015610697575f80fd5b506102826106a63660046131fa565b5f60208181529281526040808220909352908152205481565b3480156106ca575f80fd5b5061030a6106d9366004612ec6565b60086020525f908152604090205460ff1681565b3480156106f8575f80fd5b5061026b610707366004613226565b612a9f565b348015610717575f80fd5b506013546102b4906001600160a01b031681565b348015610736575f80fd5b50610282600b5481565b34801561074b575f80fd5b5061026b61075a366004613250565b612b68565b34801561076a575f80fd5b5061028260145481565b34801561077f575f80fd5b5061026b61078e3660046131fa565b612b9d565b34801561079e575f80fd5b506102b46107ad366004612e56565b5f908152600560205260409020546001600160a01b031690565b6012546001600160a01b031633146107fa5760405162461bcd60e51b81526004016107f190613279565b60405180910390fd5b5f5b835181101561099e575f848281518110610818576108186132a1565b60200260200101519050610884600380548060200260200160405190810160405280929190818152602001828054801561087957602002820191905f5260205f20905b81546001600160a01b0316815260019091019060200180831161085b575b505050505082610b3a565b15155f036108d757600380546001810182555f919091527fc2575a0e9e593c00f959f8c92f12db2869c3395a3b0502d05e2516446f71f85b0180546001600160a01b0319166001600160a01b0383161790555b8282815181106108e9576108e96132a1565b602002602001015160025f836001600160a01b03166001600160a01b031681526020019081526020015f205f6101000a8154816001600160a01b0302191690836001600160a01b03160217905550838281518110610949576109496132a1565b6020908102919091018101516001600160a01b039283165f908152600e8352604080822080546001600160a01b0319169590931694909417909155600690915220805460ff19166001908117909155016107fc565b50505050565b600781815481106109b3575f80fd5b5f918252602090912001546001600160a01b0316905081565b5f81815260056020526040808220548151635d3e2fa160e01b815291516001600160a01b039091169183918391635d3e2fa19160048083019260c09291908290030181865afa158015610a21573d5f803e3d5ffd5b505050506040513d601f19601f82011682018060405250810190610a4591906132b5565b60808101516001600160a01b039081165f9081526002602052604080822054905163a52f38d160e01b815260048101899052939450909291169063a52f38d190602401602060405180830381865afa158015610aa3573d5f803e3d5ffd5b505050506040513d601f19601f82011682018060405250810190610ac7919061334d565b6040516317845c6960e01b8152600481018290529091506001600160a01b038416906317845c6990602401602060405180830381865afa158015610b0d573d5f803e3d5ffd5b505050506040513d601f19601f82011682018060405250810190610b31919061334d565b95945050505050565b5f80805b8451811015610b8a57836001600160a01b0316858281518110610b6357610b636132a1565b60200260200101516001600160a01b031603610b825760019150610b8a565b600101610b3e565b5090505b92915050565b6012546001600160a01b03163314610bbe5760405162461bcd60e51b81526004016107f190613279565b600980546001600160a01b0319166001600160a01b0392909216919091179055565b6012546001600160a01b03163314610c0a5760405162461bcd60e51b81526004016107f190613279565b8015610ce457610c726003805480602002602001604051908101604052809291908181526020018280548015610c6757602002820191905f5260205f20905b81546001600160a01b03168152600190910190602001808311610c49575b505050505084610b3a565b1515600114610cba5760405162461bcd60e51b8152602060048201526014602482015273151bdad95b881a5cc81b9bdd08195e1a5cdd195960621b60448201526064016107f1565b6001600160a01b0383165f908152600860205260409020805483151560ff19909116179055505050565b610d446007805480602002602001604051908101604052809291908181526020018280548015610c6757602002820191905f5260205f209081546001600160a01b03168152600190910190602001808311610c4957505050505084610b3a565b1515600114610d8c5760405162461bcd60e51b8152602060048201526014602482015273151bdad95b881a5cc81b9bdd08195e1a5cdd195960621b60448201526064016107f1565b6001600160a01b0383165f908152600660205260409020805483151560ff19909116179055505050565b6012546001600160a01b03163314610de05760405162461bcd60e51b81526004016107f190613279565b600f80546001600160a01b0319166001600160a01b0392909216919091179055565b5f81815260056020526040808220548151635d3e2fa160e01b815291516001600160a01b0390911692918391635d3e2fa19160048082019260c0929091908290030181865afa158015610e57573d5f803e3d5ffd5b505050506040513d601f19601f82011682018060405250810190610e7b91906132b5565b60808101516001600160a01b039081165f9081526002602052604080822054905163a52f38d160e01b815260048101889052939450909291169063a52f38d190602401602060405180830381865afa158015610ed9573d5f803e3d5ffd5b505050506040513d601f19601f82011682018060405250810190610efd919061334d565b9050826001600160a01b031663d296d1f182601454601554601654610f229190613378565b610f2c9190613378565b6040516001600160e01b031960e085901b168152600481019290925260248201526044015f604051808303815f87803b158015610f67575f80fd5b505af1158015610f79573d5f803e3d5ffd5b5050505081608001516001600160a01b03166323b872dd84306103e86014546015546016546103e8610fab9190613378565b610fb59190613378565b610fbf9190613378565b610fc9908761338b565b610fd391906133a2565b6040518463ffffffff1660e01b8152600401610ff1939291906133c1565b6020604051808303815f875af115801561100d573d5f803e3d5ffd5b505050506040513d601f19601f8201168201806040525081019061103191906133e5565b5060808201516001600160a01b039081165f818152600260205260409081902054905163095ea7b360e01b815292166004830152602482018390529063095ea7b3906044016020604051808303815f875af1158015611092573d5f803e3d5ffd5b505050506040513d601f19601f820116820180604052508101906110b691906133e5565b5060808201516001600160a01b039081165f908152600260205260409081902054905163d8aed14560e01b8152600481018790526024810184905291169063d8aed145906044015f604051808303815f87803b158015611114575f80fd5b505af1158015611126573d5f803e3d5ffd5b5050505081608001516001600160a01b031663a9059cbb60115f9054906101000a90046001600160a01b03166103e860145485611163919061338b565b61116d91906133a2565b6040516001600160e01b031960e085901b1681526001600160a01b03909216600483015260248201526044016020604051808303815f875af11580156111b5573d5f803e3d5ffd5b505050506040513d601f19601f820116820180604052508101906111d991906133e5565b5060808201516010546015546001600160a01b039283169263a9059cbb9216906103e890611207908661338b565b61121191906133a2565b6040516001600160e01b031960e085901b1681526001600160a01b03909216600483015260248201526044016020604051808303815f875af1158015611259573d5f803e3d5ffd5b505050506040513d601f19601f8201168201806040525081019061127d91906133e5565b505f6103e860155483611290919061338b565b61129a91906133a2565b6103e8601454846112ab919061338b565b6112b591906133a2565b836103e86014546015546016546103e86112cf9190613378565b6112d99190613378565b6112e39190613378565b6112ed908761338b565b6112f791906133a2565b6113019190613400565b61130b9190613400565b6113159190613400565b60808401516001600160a01b039081165f818152600260205260409081902054905163095ea7b360e01b8152921660048301526024820183905291925063095ea7b3906044016020604051808303815f875af1158015611377573d5f803e3d5ffd5b505050506040513d601f19601f8201168201806040525081019061139b91906133e5565b5060808301516001600160a01b039081165f9081526002602052604090819020549051632b9bc88160e11b8152600481018490529116906357379102906024015f604051808303815f87803b1580156113f2575f80fd5b505af1158015611404573d5f803e3d5ffd5b5050505f8681526005602052604080822054815163232fa73360e01b815291516001600160a01b03909116935063232fa7339260048084019391929182900301818387803b158015611454575f80fd5b505af1158015611466573d5f803e3d5ffd5b505050505050505050565b6001600160a01b0382165f90815260086020526040902054829060ff1615156001146114df5760405162461bcd60e51b815260206004820152601f60248201527f436f6c6c61746572616c20746f6b656e206973206e6f7420616374697665640060448201526064016107f1565b811561159a57348411156115355760405162461bcd60e51b815260206004820181905260248201527f646f206e6f74206861766520656e6f756768206465706f73697465642045544860448201526064016107f1565b60135f9054906101000a90046001600160a01b03166001600160a01b031663d0e30db0856040518263ffffffff1660e01b81526004015f604051808303818588803b158015611582575f80fd5b505af1158015611594573d5f803e3d5ffd5b50505050505b5f8581526005602052604090819020549051633390ef1360e11b8152600481018690526001600160a01b03909116908190636721de26906024015f604051808303815f87803b1580156115eb575f80fd5b505af11580156115fd573d5f803e3d5ffd5b50505050821561167d5760405163a9059cbb60e01b81526001600160a01b0382811660048301526024820187905285169063a9059cbb906044016020604051808303815f875af1158015611653573d5f803e3d5ffd5b505050506040513d601f19601f8201168201806040525081019061167791906133e5565b506116ef565b6040516323b872dd60e01b81526001600160a01b038516906323b872dd906116ad90339085908a906004016133c1565b6020604051808303815f875af11580156116c9573d5f803e3d5ffd5b505050506040513d601f19601f820116820180604052508101906116ed91906133e5565b505b505050505050565b6012546001600160a01b031633146117215760405162461bcd60e51b81526004016107f190613279565b601380546001600160a01b0319166001600160a01b0392909216919091179055565b5f82815260056020526040808220548151635d3e2fa160e01b815291516001600160a01b0390911692918391635d3e2fa19160048082019260c0929091908290030181865afa158015611798573d5f803e3d5ffd5b505050506040513d601f19601f820116820180604052508101906117bc91906132b5565b60208101516040516308165c1760e11b81526001600160a01b039182166004820152851515602482015291925083169063102cb82e906044015b5f604051808303815f87803b15801561180d575f80fd5b505af115801561181f573d5f803e3d5ffd5b5050505050505050565b7ff0c57e16840df040f15088dc2f81fe391c3923bec73e23a9662efc9c229c6a008054600160401b810460ff1615906001600160401b03165f8115801561186d5750825b90505f826001600160401b031660011480156118885750303b155b905081158015611896575080155b156118b45760405163f92ee8a960e01b815260040160405180910390fd5b845467ffffffffffffffff1916600117855583156118de57845460ff60401b1916600160401b1785555b8e600390805190602001906118f4929190612c64565b50600180555f5b6003548110156119fa575f60038281548110611919576119196132a1565b5f918252602090912001548f516001600160a01b0390911691508f9083908110611945576119456132a1565b602002602001015160025f836001600160a01b03166001600160a01b031681526020019081526020015f205f6101000a8154816001600160a01b0302191690836001600160a01b031602179055508f82815181106119a5576119a56132a1565b6020908102919091018101516001600160a01b039283165f908152600e8352604080822080546001600160a01b0319169590931694909417909155600690915220805460ff19166001908117909155016118fb565b508b51611a0e9060079060208f0190612c64565b505f5b600754811015611b10575f60078281548110611a2f57611a2f6132a1565b5f918252602090912001548d516001600160a01b0390911691508d9083908110611a5b57611a5b6132a1565b6020026020010151600d5f836001600160a01b03166001600160a01b031681526020019081526020015f205f6101000a8154816001600160a01b0302191690836001600160a01b031602179055508b8281518110611abb57611abb6132a1565b6020908102919091018101516001600160a01b039283165f908152600a8352604080822080546001600160a01b0319169590931694909417909155600890915220805460ff1916600190811790915501611a11565b50600980546001600160a01b03808c166001600160a01b0319928316179092556004805492891692821692909217909155600b899055600c88905560128054909116331790558315611b9c57845460ff60401b19168555604051600181527fc7f505b2f371ae2175ee4913f4499e1f2633a7b5936321eed1cdaeb6115181d29060200160405180910390a15b505050505050505050505050505050565b6012546001600160a01b03163314611bd75760405162461bcd60e51b81526004016107f190613279565b5f5b835181101561099e575f848281518110611bf557611bf56132a1565b60200260200101519050611c5f600780548060200260200160405190810160405280929190818152602001828054801561087957602002820191905f5260205f209081546001600160a01b0316815260019091019060200180831161085b57505050505082610b3a565b15155f03611cb257600780546001810182555f919091527fa66cc928b5edb82af9bd49922954155ab7b0942694bea4ce44661d9a8736c6880180546001600160a01b0319166001600160a01b0383161790555b838281518110611cc457611cc46132a1565b6020026020010151600d5f836001600160a01b03166001600160a01b031681526020019081526020015f205f6101000a8154816001600160a01b0302191690836001600160a01b03160217905550828281518110611d2457611d246132a1565b6020908102919091018101516001600160a01b039283165f908152600a8352604080822080546001600160a01b0319169590931694909417909155600890915220805460ff1916600190811790915501611bd9565b6001600160a01b0381165f90815260066020526040902054819060ff161515600114611de35760405162461bcd60e51b8152602060048201526019602482015278141bdbdb081d1bdad95b881a5cc81b9bdd081858dd1a5d9959603a1b60448201526064016107f1565b6040516323b872dd60e01b81526001600160a01b038316906323b872dd90611e13903390309088906004016133c1565b6020604051808303815f875af1158015611e2f573d5f803e3d5ffd5b505050506040513d601f19601f82011682018060405250810190611e5391906133e5565b506001600160a01b038281165f818152600260205260409081902054905163095ea7b360e01b815292166004830152602482018590529063095ea7b3906044016020604051808303815f875af1158015611eaf573d5f803e3d5ffd5b505050506040513d601f19601f82011682018060405250810190611ed391906133e5565b506001600160a01b038281165f908152600260205260409081902054905163d8aed14560e01b8152600481018790526024810186905291169063d8aed145906044015f604051808303815f87803b158015611f2c575f80fd5b505af1158015611f3e573d5f803e3d5ffd5b505050506001600160a01b038281165f908152600260205260409081902054905163a52f38d160e01b81526004810187905291169063a52f38d190602401602060405180830381865afa158015611f97573d5f803e3d5ffd5b505050506040513d601f19601f82011682018060405250810190611fbb919061334d565b5f0361099e575f8481526005602052604080822054815163232fa73360e01b815291516001600160a01b039091169263232fa733926004808201939182900301818387803b15801561180d575f80fd5b5f612016825f612961565b612710846001600160a01b031663313ce5676040518163ffffffff1660e01b8152600401602060405180830381865afa158015612055573d5f803e3d5ffd5b505050506040513d601f19601f820116820180604052508101906120799190613413565b61208490600a613516565b61208f866001612961565b600b54866001600160a01b031663313ce5676040518163ffffffff1660e01b8152600401602060405180830381865afa1580156120ce573d5f803e3d5ffd5b505050506040513d601f19601f820116820180604052508101906120f29190613413565b6120fd90600a613516565b612107908a61338b565b612111919061338b565b61211b919061338b565b61212591906133a2565b61212f91906133a2565b61213991906133a2565b949350505050565b6001600160a01b0385165f90815260066020526040902054859060ff1615156001146121ab5760405162461bcd60e51b8152602060048201526019602482015278141bdbdb081d1bdad95b881a5cc81b9bdd081858dd1a5d9959603a1b60448201526064016107f1565b6001600160a01b0384165f90815260086020526040902054849060ff1615156001146122195760405162461bcd60e51b815260206004820152601f60248201527f436f6c6c61746572616c20746f6b656e206973206e6f7420616374697665640060448201526064016107f1565b82156122d4573486111561226f5760405162461bcd60e51b815260206004820181905260248201527f646f206e6f74206861766520656e6f756768206465706f73697465642045544860448201526064016107f1565b60135f9054906101000a90046001600160a01b03166001600160a01b031663d0e30db0876040518263ffffffff1660e01b81526004015f604051808303818588803b1580156122bc575f80fd5b505af11580156122ce573d5f803e3d5ffd5b50505050505b866001600160a01b031663313ce5676040518163ffffffff1660e01b8152600401602060405180830381865afa158015612310573d5f803e3d5ffd5b505050506040513d601f19601f820116820180604052508101906123349190613413565b61233f90600a613516565b61234a886001612961565b612354908a61338b565b6123609061271061338b565b61236a91906133a2565b856001600160a01b031663313ce5676040518163ffffffff1660e01b8152600401602060405180830381865afa1580156123a6573d5f803e3d5ffd5b505050506040513d601f19601f820116820180604052508101906123ca9190613413565b6123d590600a613516565b600b546123e2885f612961565b6123ec908a61338b565b6123f6919061338b565b61240091906133a2565b101561244e5760405162461bcd60e51b815260206004820152601c60248201527f446f6e2774206861766520656e6f75676820636f6c6c61746572616c0000000060448201526064016107f1565b6001600160a01b038088165f90815260026020908152604091829020548251633b24cc2160e01b815292518c949190911692633b24cc219260048083019391928290030181865afa1580156124a5573d5f803e3d5ffd5b505050506040513d601f19601f820116820180604052508101906124c9919061334d565b10156125175760405162461bcd60e51b815260206004820152601b60248201527f506f6f6c20646f6e2774206861766520656e6f7567682066756e64000000000060448201526064016107f1565b6040805160c0810182525f81830181905260a08201819052336020808401828152606085018e815260015486526001600160a01b038e811660808801819052865260029093529386902054855194519151965163035af68360e61b815260048101959095526024850191909152948116604484015292939092169063d6bda0c0906064015f604051808303815f87803b1580156125b2575f80fd5b505af11580156125c4573d5f803e3d5ffd5b5050506001600160a01b03808b165f908152600e602052604081205460045490831693508a926125f49116612bf5565b90505f819050806001600160a01b03166383f8964e878560095f9054906101000a90046001600160a01b0316600a5f896001600160a01b03166001600160a01b031681526020019081526020015f205f9054906101000a90046001600160a01b0316600b54600c54600d5f8c6001600160a01b03166001600160a01b031681526020019081526020015f205f9054906101000a90046001600160a01b03168c600f5f9054906101000a90046001600160a01b031660115f9054906101000a90046001600160a01b031660135f9054906101000a90046001600160a01b03166040518c63ffffffff1660e01b81526004016126f89b9a99989796959493929190613524565b5f604051808303815f87803b15801561270f575f80fd5b505af1158015612721573d5f803e3d5ffd5b5050604051638ac1b77560e01b81523060048201526001600160a01b0384169250638ac1b77591506024015f604051808303815f87803b158015612763575f80fd5b505af1158015612775573d5f803e3d5ffd5b505050508915156001036127d257806001600160a01b03166307a6bf696040518163ffffffff1660e01b81526004015f604051808303815f87803b1580156127bb575f80fd5b505af11580156127cd573d5f803e3d5ffd5b505050505b604051633390ef1360e11b8152600481018d90526001600160a01b03821690636721de26906024015f604051808303815f87803b158015612811575f80fd5b505af1158015612823573d5f803e3d5ffd5b5050505088156128a35760405163a9059cbb60e01b81526001600160a01b038381166004830152602482018e90528c169063a9059cbb906044016020604051808303815f875af1158015612879573d5f803e3d5ffd5b505050506040513d601f19601f8201168201806040525081019061289d91906133e5565b50612915565b8a6001600160a01b03166323b872dd33848f6040518463ffffffff1660e01b81526004016128d3939291906133c1565b6020604051808303815f875af11580156128ef573d5f803e3d5ffd5b505050506040513d601f19601f8201168201806040525081019061291391906133e5565b505b600180545f90815260056020526040812080546001600160a01b0319166001600160a01b0385161790558154919061294c8361360d565b91905055505050505050505050505050505050565b5f81151581036129fe576001600160a01b038084165f908152600d6020526040808220548151633fabe5a360e21b8152915192938493849384938493169163feaf968c9160048082019260a0929091908290030181865afa1580156129c8573d5f803e3d5ffd5b505050506040513d601f19601f820116820180604052508101906129ec919061363e565b50919850610b8e975050505050505050565b6001600160a01b038084165f908152600e6020526040808220548151633fabe5a360e21b8152915192938493849384938493169163feaf968c9160048082019260a0929091908290030181865afa1580156129c8573d5f803e3d5ffd5b6012546001600160a01b03163314612a855760405162461bcd60e51b81526004016107f190613279565b600b91909155600c55565b600381815481106109b3575f80fd5b5f81815260056020526040808220548151635d3e2fa160e01b815291516001600160a01b0390911692918391635d3e2fa19160048082019260c0929091908290030181865afa158015612af4573d5f803e3d5ffd5b505050506040513d601f19601f82011682018060405250810190612b1891906132b5565b6001600160a01b038581165f908152600260209081526040918290205490840151915163ec7be39d60e01b815291831660048301526024820187905292935091169063ec7be39d906044016117f6565b6012546001600160a01b03163314612b925760405162461bcd60e51b81526004016107f190613279565b601655601555601455565b6012546001600160a01b03163314612bc75760405162461bcd60e51b81526004016107f190613279565b601080546001600160a01b039384166001600160a01b03199182161790915560118054929093169116179055565b5f763d602d80600a3d3981f3363d3d373d3d3d363d730000008260601b60e81c175f526e5af43d82803e903d91602b57fd5bf38260781b17602052603760095ff090506001600160a01b038116612c5f576040516330be1a3d60e21b815260040160405180910390fd5b919050565b828054828255905f5260205f20908101928215612cb7579160200282015b82811115612cb757825182546001600160a01b0319166001600160a01b03909116178255602090920191600190910190612c82565b50612cc3929150612cc7565b5090565b5b80821115612cc3575f8155600101612cc8565b634e487b7160e01b5f52604160045260245ffd5b604051601f8201601f191681016001600160401b0381118282101715612d1757612d17612cdb565b604052919050565b5f6001600160401b03821115612d3757612d37612cdb565b5060051b60200190565b6001600160a01b0381168114612d55575f80fd5b50565b5f82601f830112612d67575f80fd5b8135612d7a612d7582612d1f565b612cef565b8082825260208201915060208360051b860101925085831115612d9b575f80fd5b602085015b83811015612dc1578035612db381612d41565b835260209283019201612da0565b5095945050505050565b5f805f60608486031215612ddd575f80fd5b83356001600160401b03811115612df2575f80fd5b612dfe86828701612d58565b93505060208401356001600160401b03811115612e19575f80fd5b612e2586828701612d58565b92505060408401356001600160401b03811115612e40575f80fd5b612e4c86828701612d58565b9150509250925092565b5f60208284031215612e66575f80fd5b5035919050565b5f8060408385031215612e7e575f80fd5b82356001600160401b03811115612e93575f80fd5b612e9f85828601612d58565b9250506020830135612eb081612d41565b809150509250929050565b8035612c5f81612d41565b5f60208284031215612ed6575f80fd5b8135612ee181612d41565b9392505050565b8015158114612d55575f80fd5b5f805f60608486031215612f07575f80fd5b8335612f1281612d41565b92506020840135612f2281612ee8565b91506040840135612f3281612ee8565b809150509250925092565b5f805f8060808587031215612f50575f80fd5b84359350602085013592506040850135612f6981612d41565b91506060850135612f7981612ee8565b939692955090935050565b5f8060408385031215612f95575f80fd5b823591506020830135612eb081612ee8565b5f805f805f805f805f806101408b8d031215612fc1575f80fd5b8a356001600160401b03811115612fd6575f80fd5b612fe28d828e01612d58565b9a505060208b01356001600160401b03811115612ffd575f80fd5b6130098d828e01612d58565b99505060408b01356001600160401b03811115613024575f80fd5b6130308d828e01612d58565b98505060608b01356001600160401b0381111561304b575f80fd5b6130578d828e01612d58565b97505060808b01356001600160401b03811115613072575f80fd5b61307e8d828e01612d58565b96505060a08b01356001600160401b03811115613099575f80fd5b6130a58d828e01612d58565b9550506130b460c08c01612ebb565b935060e08b013592506101008b013591506130d26101208c01612ebb565b90509295989b9194979a5092959850565b5f805f606084860312156130f5575f80fd5b83359250602084013591506040840135612f3281612d41565b5f805f60608486031215613120575f80fd5b83359250602084013561313281612d41565b91506040840135612f3281612d41565b5f805f805f8060c08789031215613157575f80fd5b86359550602087013561316981612d41565b945060408701359350606087013561318081612d41565b9250608087013561319081612ee8565b915060a08701356131a081612ee8565b809150509295509295509295565b5f80604083850312156131bf575f80fd5b82356131ca81612d41565b91506020830135612eb081612ee8565b5f80604083850312156131eb575f80fd5b50508035926020909101359150565b5f806040838503121561320b575f80fd5b823561321681612d41565b91506020830135612eb081612d41565b5f8060408385031215613237575f80fd5b823561324281612d41565b946020939093013593505050565b5f805f60608486031215613262575f80fd5b505081359360208301359350604090920135919050565b6020808252600e908201526d37b7363c903a34329037bbb732b960911b604082015260600190565b634e487b7160e01b5f52603260045260245ffd5b5f60c08284031280156132c6575f80fd5b5060405160c081016001600160401b03811182821017156132e9576132e9612cdb565b6040528251815260208301516132fe81612d41565b6020820152604083015161331181612ee8565b604082015260608381015190820152608083015161332e81612d41565b608082015260a083015161334181612ee8565b60a08201529392505050565b5f6020828403121561335d575f80fd5b5051919050565b634e487b7160e01b5f52601160045260245ffd5b80820180821115610b8e57610b8e613364565b8082028115828204841417610b8e57610b8e613364565b5f826133bc57634e487b7160e01b5f52601260045260245ffd5b500490565b6001600160a01b039384168152919092166020820152604081019190915260600190565b5f602082840312156133f5575f80fd5b8151612ee181612ee8565b81810381811115610b8e57610b8e613364565b5f60208284031215613423575f80fd5b815160ff81168114612ee1575f80fd5b6001815b600184111561346e5780850481111561345257613452613364565b600184161561346057908102905b60019390931c928002613437565b935093915050565b5f8261348457506001610b8e565b8161349057505f610b8e565b81600181146134a657600281146134b0576134cc565b6001915050610b8e565b60ff8411156134c1576134c1613364565b50506001821b610b8e565b5060208310610133831016604e8410600b84101617156134ef575081810a610b8e565b6134fb5f198484613433565b805f190482111561350e5761350e613364565b029392505050565b5f612ee160ff841683613476565b8b5181526020808d01516001600160a01b03908116918301919091526040808e01511515908301526060808e0151908301526080808e015182169083015260a0808e01511515908301528b1660c082015261020081016001600160a01b038b1660e08301526001600160a01b038a1661010083015288610120830152876101408301526135bd6101608301886001600160a01b03169052565b6001600160a01b0386166101808301526001600160a01b0385166101a08301526001600160a01b0384166101c08301526001600160a01b0383166101e08301529c9b505050505050505050505050565b5f6001820161361e5761361e613364565b5060010190565b805169ffffffffffffffffffff81168114612c5f575f80fd5b5f805f805f60a08688031215613652575f80fd5b61365b86613625565b6020870151604088015160608901519297509095509350915061368060808701613625565b9050929550929590935056fea2646970667358221220e6d600a97a73690c5e397c6bb0e45fb42ad088258379cb35cd2508120f56563a64736f6c634300081a0033",
			"opcodes": "PUSH1 0x80 PUSH1 0x40 MSTORE CALLVALUE DUP1 ISZERO PUSH1 0xE JUMPI PUSH0 DUP1 REVERT JUMPDEST POP PUSH2 0x36C2 DUP1 PUSH2 0x1C PUSH0 CODECOPY PUSH0 RETURN INVALID PUSH1 0x80 PUSH1 0x40 MSTORE PUSH1 0x4 CALLDATASIZE LT PUSH2 0x241 JUMPI PUSH0 CALLDATALOAD PUSH1 0xE0 SHR DUP1 PUSH4 0x8BA02E1C GT PUSH2 0x134 JUMPI DUP1 PUSH4 0xC694FDC1 GT PUSH2 0xB3 JUMPI DUP1 PUSH4 0xF2428621 GT PUSH2 0x78 JUMPI DUP1 PUSH4 0xF2428621 EQ PUSH2 0x70C JUMPI DUP1 PUSH4 0xF384BD05 EQ PUSH2 0x72B JUMPI DUP1 PUSH4 0xF3CF4ADA EQ PUSH2 0x740 JUMPI DUP1 PUSH4 0xF6597BBB EQ PUSH2 0x75F JUMPI DUP1 PUSH4 0xF8F126FF EQ PUSH2 0x774 JUMPI DUP1 PUSH4 0xFDB2B32C EQ PUSH2 0x793 JUMPI PUSH0 DUP1 REVERT JUMPDEST DUP1 PUSH4 0xC694FDC1 EQ PUSH2 0x64E JUMPI DUP1 PUSH4 0xCDAABE41 EQ PUSH2 0x66D JUMPI DUP1 PUSH4 0xE51E119E EQ PUSH2 0x68C JUMPI DUP1 PUSH4 0xE787EA2C EQ PUSH2 0x6BF JUMPI DUP1 PUSH4 0xEC7BE39D EQ PUSH2 0x6ED JUMPI PUSH0 DUP1 REVERT JUMPDEST DUP1 PUSH4 0xA8700C3C GT PUSH2 0xF9 JUMPI DUP1 PUSH4 0xA8700C3C EQ PUSH2 0x59B JUMPI DUP1 PUSH4 0xB3BFFEAA EQ PUSH2 0x5AE JUMPI DUP1 PUSH4 0xB92DD925 EQ PUSH2 0x5CD JUMPI DUP1 PUSH4 0xB9C36209 EQ PUSH2 0x5FB JUMPI DUP1 PUSH4 0xC0D01546 EQ PUSH2 0x61A JUMPI PUSH0 DUP1 REVERT JUMPDEST DUP1 PUSH4 0x8BA02E1C EQ PUSH2 0x4EA JUMPI DUP1 PUSH4 0x8DA5CB5B EQ PUSH2 0x4FF JUMPI DUP1 PUSH4 0x989397D4 EQ PUSH2 0x51E JUMPI DUP1 PUSH4 0x9DCB511A EQ PUSH2 0x552 JUMPI DUP1 PUSH4 0xA58BAB62 EQ PUSH2 0x586 JUMPI PUSH0 DUP1 REVERT JUMPDEST DUP1 PUSH4 0x41273657 GT PUSH2 0x1C0 JUMPI DUP1 PUSH4 0x5C8EDAC4 GT PUSH2 0x185 JUMPI DUP1 PUSH4 0x5C8EDAC4 EQ PUSH2 0x44F JUMPI DUP1 PUSH4 0x611F347D EQ PUSH2 0x46E JUMPI DUP1 PUSH4 0x64B52097 EQ PUSH2 0x48D JUMPI DUP1 PUSH4 0x6EB0FDD0 EQ PUSH2 0x4AC JUMPI DUP1 PUSH4 0x75607815 EQ PUSH2 0x4CB JUMPI PUSH0 DUP1 REVERT JUMPDEST DUP1 PUSH4 0x41273657 EQ PUSH2 0x3C0 JUMPI DUP1 PUSH4 0x415F1240 EQ PUSH2 0x3DF JUMPI DUP1 PUSH4 0x4BDE38C8 EQ PUSH2 0x3FE JUMPI DUP1 PUSH4 0x4DD7BD3F EQ PUSH2 0x41D JUMPI DUP1 PUSH4 0x5B769F3C EQ PUSH2 0x430 JUMPI PUSH0 DUP1 REVERT JUMPDEST DUP1 PUSH4 0x38EF6717 GT PUSH2 0x206 JUMPI DUP1 PUSH4 0x38EF6717 EQ PUSH2 0x31A JUMPI DUP1 PUSH4 0x3A2AD9AE EQ PUSH2 0x339 JUMPI DUP1 PUSH4 0x3E108AD9 EQ PUSH2 0x358 JUMPI DUP1 PUSH4 0x4031234C EQ PUSH2 0x38C JUMPI DUP1 PUSH4 0x4046EBAE EQ PUSH2 0x3A1 JUMPI PUSH0 DUP1 REVERT JUMPDEST DUP1 PUSH4 0x769594D EQ PUSH2 0x24C JUMPI DUP1 PUSH4 0x101B9D31 EQ PUSH2 0x26D JUMPI DUP1 PUSH4 0x172C48C7 EQ PUSH2 0x295 JUMPI DUP1 PUSH4 0x17845C69 EQ PUSH2 0x2CC JUMPI DUP1 PUSH4 0x1D9EB5D9 EQ PUSH2 0x2EB JUMPI PUSH0 DUP1 REVERT JUMPDEST CALLDATASIZE PUSH2 0x248 JUMPI STOP JUMPDEST PUSH0 DUP1 REVERT JUMPDEST CALLVALUE DUP1 ISZERO PUSH2 0x257 JUMPI PUSH0 DUP1 REVERT JUMPDEST POP PUSH2 0x26B PUSH2 0x266 CALLDATASIZE PUSH1 0x4 PUSH2 0x2DCB JUMP JUMPDEST PUSH2 0x7C7 JUMP JUMPDEST STOP JUMPDEST CALLVALUE DUP1 ISZERO PUSH2 0x278 JUMPI PUSH0 DUP1 REVERT JUMPDEST POP PUSH2 0x282 PUSH1 0x16 SLOAD DUP2 JUMP JUMPDEST PUSH1 0x40 MLOAD SWAP1 DUP2 MSTORE PUSH1 0x20 ADD JUMPDEST PUSH1 0x40 MLOAD DUP1 SWAP2 SUB SWAP1 RETURN JUMPDEST CALLVALUE DUP1 ISZERO PUSH2 0x2A0 JUMPI PUSH0 DUP1 REVERT JUMPDEST POP PUSH2 0x2B4 PUSH2 0x2AF CALLDATASIZE PUSH1 0x4 PUSH2 0x2E56 JUMP JUMPDEST PUSH2 0x9A4 JUMP JUMPDEST PUSH1 0x40 MLOAD PUSH1 0x1 PUSH1 0x1 PUSH1 0xA0 SHL SUB SWAP1 SWAP2 AND DUP2 MSTORE PUSH1 0x20 ADD PUSH2 0x28C JUMP JUMPDEST CALLVALUE DUP1 ISZERO PUSH2 0x2D7 JUMPI PUSH0 DUP1 REVERT JUMPDEST POP PUSH2 0x282 PUSH2 0x2E6 CALLDATASIZE PUSH1 0x4 PUSH2 0x2E56 JUMP JUMPDEST PUSH2 0x9CC JUMP JUMPDEST CALLVALUE DUP1 ISZERO PUSH2 0x2F6 JUMPI PUSH0 DUP1 REVERT JUMPDEST POP PUSH2 0x30A PUSH2 0x305 CALLDATASIZE PUSH1 0x4 PUSH2 0x2E6D JUMP JUMPDEST PUSH2 0xB3A JUMP JUMPDEST PUSH1 0x40 MLOAD SWAP1 ISZERO ISZERO DUP2 MSTORE PUSH1 0x20 ADD PUSH2 0x28C JUMP JUMPDEST CALLVALUE DUP1 ISZERO PUSH2 0x325 JUMPI PUSH0 DUP1 REVERT JUMPDEST POP PUSH2 0x26B PUSH2 0x334 CALLDATASIZE PUSH1 0x4 PUSH2 0x2EC6 JUMP JUMPDEST PUSH2 0xB94 JUMP JUMPDEST CALLVALUE DUP1 ISZERO PUSH2 0x344 JUMPI PUSH0 DUP1 REVERT JUMPDEST POP PUSH2 0x26B PUSH2 0x353 CALLDATASIZE PUSH1 0x4 PUSH2 0x2EF5 JUMP JUMPDEST PUSH2 0xBE0 JUMP JUMPDEST CALLVALUE DUP1 ISZERO PUSH2 0x363 JUMPI PUSH0 DUP1 REVERT JUMPDEST POP PUSH2 0x2B4 PUSH2 0x372 CALLDATASIZE PUSH1 0x4 PUSH2 0x2EC6 JUMP JUMPDEST PUSH1 0xA PUSH1 0x20 MSTORE PUSH0 SWAP1 DUP2 MSTORE PUSH1 0x40 SWAP1 KECCAK256 SLOAD PUSH1 0x1 PUSH1 0x1 PUSH1 0xA0 SHL SUB AND DUP2 JUMP JUMPDEST CALLVALUE DUP1 ISZERO PUSH2 0x397 JUMPI PUSH0 DUP1 REVERT JUMPDEST POP PUSH2 0x282 PUSH1 0xC SLOAD DUP2 JUMP JUMPDEST CALLVALUE DUP1 ISZERO PUSH2 0x3AC JUMPI PUSH0 DUP1 REVERT JUMPDEST POP PUSH1 0x10 SLOAD PUSH2 0x2B4 SWAP1 PUSH1 0x1 PUSH1 0x1 PUSH1 0xA0 SHL SUB AND DUP2 JUMP JUMPDEST CALLVALUE DUP1 ISZERO PUSH2 0x3CB JUMPI PUSH0 DUP1 REVERT JUMPDEST POP PUSH2 0x26B PUSH2 0x3DA CALLDATASIZE PUSH1 0x4 PUSH2 0x2EC6 JUMP JUMPDEST PUSH2 0xDB6 JUMP JUMPDEST CALLVALUE DUP1 ISZERO PUSH2 0x3EA JUMPI PUSH0 DUP1 REVERT JUMPDEST POP PUSH2 0x26B PUSH2 0x3F9 CALLDATASIZE PUSH1 0x4 PUSH2 0x2E56 JUMP JUMPDEST PUSH2 0xE02 JUMP JUMPDEST CALLVALUE DUP1 ISZERO PUSH2 0x409 JUMPI PUSH0 DUP1 REVERT JUMPDEST POP PUSH1 0x11 SLOAD PUSH2 0x2B4 SWAP1 PUSH1 0x1 PUSH1 0x1 PUSH1 0xA0 SHL SUB AND DUP2 JUMP JUMPDEST PUSH2 0x26B PUSH2 0x42B CALLDATASIZE PUSH1 0x4 PUSH2 0x2F3D JUMP JUMPDEST PUSH2 0x1471 JUMP JUMPDEST CALLVALUE DUP1 ISZERO PUSH2 0x43B JUMPI PUSH0 DUP1 REVERT JUMPDEST POP PUSH2 0x26B PUSH2 0x44A CALLDATASIZE PUSH1 0x4 PUSH2 0x2EC6 JUMP JUMPDEST PUSH2 0x16F7 JUMP JUMPDEST CALLVALUE DUP1 ISZERO PUSH2 0x45A JUMPI PUSH0 DUP1 REVERT JUMPDEST POP PUSH2 0x26B PUSH2 0x469 CALLDATASIZE PUSH1 0x4 PUSH2 0x2F84 JUMP JUMPDEST PUSH2 0x1743 JUMP JUMPDEST CALLVALUE DUP1 ISZERO PUSH2 0x479 JUMPI PUSH0 DUP1 REVERT JUMPDEST POP PUSH2 0x26B PUSH2 0x488 CALLDATASIZE PUSH1 0x4 PUSH2 0x2FA7 JUMP JUMPDEST PUSH2 0x1829 JUMP JUMPDEST CALLVALUE DUP1 ISZERO PUSH2 0x498 JUMPI PUSH0 DUP1 REVERT JUMPDEST POP PUSH2 0x26B PUSH2 0x4A7 CALLDATASIZE PUSH1 0x4 PUSH2 0x2DCB JUMP JUMPDEST PUSH2 0x1BAD JUMP JUMPDEST CALLVALUE DUP1 ISZERO PUSH2 0x4B7 JUMPI PUSH0 DUP1 REVERT JUMPDEST POP PUSH2 0x26B PUSH2 0x4C6 CALLDATASIZE PUSH1 0x4 PUSH2 0x30E3 JUMP JUMPDEST PUSH2 0x1D79 JUMP JUMPDEST CALLVALUE DUP1 ISZERO PUSH2 0x4D6 JUMPI PUSH0 DUP1 REVERT JUMPDEST POP PUSH2 0x282 PUSH2 0x4E5 CALLDATASIZE PUSH1 0x4 PUSH2 0x310E JUMP JUMPDEST PUSH2 0x200B JUMP JUMPDEST CALLVALUE DUP1 ISZERO PUSH2 0x4F5 JUMPI PUSH0 DUP1 REVERT JUMPDEST POP PUSH2 0x282 PUSH1 0x1 SLOAD DUP2 JUMP JUMPDEST CALLVALUE DUP1 ISZERO PUSH2 0x50A JUMPI PUSH0 DUP1 REVERT JUMPDEST POP PUSH1 0x12 SLOAD PUSH2 0x2B4 SWAP1 PUSH1 0x1 PUSH1 0x1 PUSH1 0xA0 SHL SUB AND DUP2 JUMP JUMPDEST CALLVALUE DUP1 ISZERO PUSH2 0x529 JUMPI PUSH0 DUP1 REVERT JUMPDEST POP PUSH2 0x2B4 PUSH2 0x538 CALLDATASIZE PUSH1 0x4 PUSH2 0x2EC6 JUMP JUMPDEST PUSH1 0xE PUSH1 0x20 MSTORE PUSH0 SWAP1 DUP2 MSTORE PUSH1 0x40 SWAP1 KECCAK256 SLOAD PUSH1 0x1 PUSH1 0x1 PUSH1 0xA0 SHL SUB AND DUP2 JUMP JUMPDEST CALLVALUE DUP1 ISZERO PUSH2 0x55D JUMPI PUSH0 DUP1 REVERT JUMPDEST POP PUSH2 0x2B4 PUSH2 0x56C CALLDATASIZE PUSH1 0x4 PUSH2 0x2EC6 JUMP JUMPDEST PUSH1 0xD PUSH1 0x20 MSTORE PUSH0 SWAP1 DUP2 MSTORE PUSH1 0x40 SWAP1 KECCAK256 SLOAD PUSH1 0x1 PUSH1 0x1 PUSH1 0xA0 SHL SUB AND DUP2 JUMP JUMPDEST CALLVALUE DUP1 ISZERO PUSH2 0x591 JUMPI PUSH0 DUP1 REVERT JUMPDEST POP PUSH2 0x282 PUSH1 0x15 SLOAD DUP2 JUMP JUMPDEST PUSH2 0x26B PUSH2 0x5A9 CALLDATASIZE PUSH1 0x4 PUSH2 0x3142 JUMP JUMPDEST PUSH2 0x2141 JUMP JUMPDEST CALLVALUE DUP1 ISZERO PUSH2 0x5B9 JUMPI PUSH0 DUP1 REVERT JUMPDEST POP PUSH2 0x282 PUSH2 0x5C8 CALLDATASIZE PUSH1 0x4 PUSH2 0x31AE JUMP JUMPDEST PUSH2 0x2961 JUMP JUMPDEST CALLVALUE DUP1 ISZERO PUSH2 0x5D8 JUMPI PUSH0 DUP1 REVERT JUMPDEST POP PUSH2 0x30A PUSH2 0x5E7 CALLDATASIZE PUSH1 0x4 PUSH2 0x2EC6 JUMP JUMPDEST PUSH1 0x6 PUSH1 0x20 MSTORE PUSH0 SWAP1 DUP2 MSTORE PUSH1 0x40 SWAP1 KECCAK256 SLOAD PUSH1 0xFF AND DUP2 JUMP JUMPDEST CALLVALUE DUP1 ISZERO PUSH2 0x606 JUMPI PUSH0 DUP1 REVERT JUMPDEST POP PUSH2 0x26B PUSH2 0x615 CALLDATASIZE PUSH1 0x4 PUSH2 0x31DA JUMP JUMPDEST PUSH2 0x2A5B JUMP JUMPDEST CALLVALUE DUP1 ISZERO PUSH2 0x625 JUMPI PUSH0 DUP1 REVERT JUMPDEST POP PUSH2 0x2B4 PUSH2 0x634 CALLDATASIZE PUSH1 0x4 PUSH2 0x2EC6 JUMP JUMPDEST PUSH1 0x2 PUSH1 0x20 MSTORE PUSH0 SWAP1 DUP2 MSTORE PUSH1 0x40 SWAP1 KECCAK256 SLOAD PUSH1 0x1 PUSH1 0x1 PUSH1 0xA0 SHL SUB AND DUP2 JUMP JUMPDEST CALLVALUE DUP1 ISZERO PUSH2 0x659 JUMPI PUSH0 DUP1 REVERT JUMPDEST POP PUSH2 0x2B4 PUSH2 0x668 CALLDATASIZE PUSH1 0x4 PUSH2 0x2E56 JUMP JUMPDEST PUSH2 0x2A90 JUMP JUMPDEST CALLVALUE DUP1 ISZERO PUSH2 0x678 JUMPI PUSH0 DUP1 REVERT JUMPDEST POP PUSH1 0x9 SLOAD PUSH2 0x2B4 SWAP1 PUSH1 0x1 PUSH1 0x1 PUSH1 0xA0 SHL SUB AND DUP2 JUMP JUMPDEST CALLVALUE DUP1 ISZERO PUSH2 0x697 JUMPI PUSH0 DUP1 REVERT JUMPDEST POP PUSH2 0x282 PUSH2 0x6A6 CALLDATASIZE PUSH1 0x4 PUSH2 0x31FA JUMP JUMPDEST PUSH0 PUSH1 0x20 DUP2 DUP2 MSTORE SWAP3 DUP2 MSTORE PUSH1 0x40 DUP1 DUP3 KECCAK256 SWAP1 SWAP4 MSTORE SWAP1 DUP2 MSTORE KECCAK256 SLOAD DUP2 JUMP JUMPDEST CALLVALUE DUP1 ISZERO PUSH2 0x6CA JUMPI PUSH0 DUP1 REVERT JUMPDEST POP PUSH2 0x30A PUSH2 0x6D9 CALLDATASIZE PUSH1 0x4 PUSH2 0x2EC6 JUMP JUMPDEST PUSH1 0x8 PUSH1 0x20 MSTORE PUSH0 SWAP1 DUP2 MSTORE PUSH1 0x40 SWAP1 KECCAK256 SLOAD PUSH1 0xFF AND DUP2 JUMP JUMPDEST CALLVALUE DUP1 ISZERO PUSH2 0x6F8 JUMPI PUSH0 DUP1 REVERT JUMPDEST POP PUSH2 0x26B PUSH2 0x707 CALLDATASIZE PUSH1 0x4 PUSH2 0x3226 JUMP JUMPDEST PUSH2 0x2A9F JUMP JUMPDEST CALLVALUE DUP1 ISZERO PUSH2 0x717 JUMPI PUSH0 DUP1 REVERT JUMPDEST POP PUSH1 0x13 SLOAD PUSH2 0x2B4 SWAP1 PUSH1 0x1 PUSH1 0x1 PUSH1 0xA0 SHL SUB AND DUP2 JUMP JUMPDEST CALLVALUE DUP1 ISZERO PUSH2 0x736 JUMPI PUSH0 DUP1 REVERT JUMPDEST POP PUSH2 0x282 PUSH1 0xB SLOAD DUP2 JUMP JUMPDEST CALLVALUE DUP1 ISZERO PUSH2 0x74B JUMPI PUSH0 DUP1 REVERT JUMPDEST POP PUSH2 0x26B PUSH2 0x75A CALLDATASIZE PUSH1 0x4 PUSH2 0x3250 JUMP JUMPDEST PUSH2 0x2B68 JUMP JUMPDEST CALLVALUE DUP1 ISZERO PUSH2 0x76A JUMPI PUSH0 DUP1 REVERT JUMPDEST POP PUSH2 0x282 PUSH1 0x14 SLOAD DUP2 JUMP JUMPDEST CALLVALUE DUP1 ISZERO PUSH2 0x77F JUMPI PUSH0 DUP1 REVERT JUMPDEST POP PUSH2 0x26B PUSH2 0x78E CALLDATASIZE PUSH1 0x4 PUSH2 0x31FA JUMP JUMPDEST PUSH2 0x2B9D JUMP JUMPDEST CALLVALUE DUP1 ISZERO PUSH2 0x79E JUMPI PUSH0 DUP1 REVERT JUMPDEST POP PUSH2 0x2B4 PUSH2 0x7AD CALLDATASIZE PUSH1 0x4 PUSH2 0x2E56 JUMP JUMPDEST PUSH0 SWAP1 DUP2 MSTORE PUSH1 0x5 PUSH1 0x20 MSTORE PUSH1 0x40 SWAP1 KECCAK256 SLOAD PUSH1 0x1 PUSH1 0x1 PUSH1 0xA0 SHL SUB AND SWAP1 JUMP JUMPDEST PUSH1 0x12 SLOAD PUSH1 0x1 PUSH1 0x1 PUSH1 0xA0 SHL SUB AND CALLER EQ PUSH2 0x7FA JUMPI PUSH1 0x40 MLOAD PUSH3 0x461BCD PUSH1 0xE5 SHL DUP2 MSTORE PUSH1 0x4 ADD PUSH2 0x7F1 SWAP1 PUSH2 0x3279 JUMP JUMPDEST PUSH1 0x40 MLOAD DUP1 SWAP2 SUB SWAP1 REVERT JUMPDEST PUSH0 JUMPDEST DUP4 MLOAD DUP2 LT ISZERO PUSH2 0x99E JUMPI PUSH0 DUP5 DUP3 DUP2 MLOAD DUP2 LT PUSH2 0x818 JUMPI PUSH2 0x818 PUSH2 0x32A1 JUMP JUMPDEST PUSH1 0x20 MUL PUSH1 0x20 ADD ADD MLOAD SWAP1 POP PUSH2 0x884 PUSH1 0x3 DUP1 SLOAD DUP1 PUSH1 0x20 MUL PUSH1 0x20 ADD PUSH1 0x40 MLOAD SWAP1 DUP2 ADD PUSH1 0x40 MSTORE DUP1 SWAP3 SWAP2 SWAP1 DUP2 DUP2 MSTORE PUSH1 0x20 ADD DUP3 DUP1 SLOAD DUP1 ISZERO PUSH2 0x879 JUMPI PUSH1 0x20 MUL DUP3 ADD SWAP2 SWAP1 PUSH0 MSTORE PUSH1 0x20 PUSH0 KECCAK256 SWAP1 JUMPDEST DUP2 SLOAD PUSH1 0x1 PUSH1 0x1 PUSH1 0xA0 SHL SUB AND DUP2 MSTORE PUSH1 0x1 SWAP1 SWAP2 ADD SWAP1 PUSH1 0x20 ADD DUP1 DUP4 GT PUSH2 0x85B JUMPI JUMPDEST POP POP POP POP POP DUP3 PUSH2 0xB3A JUMP JUMPDEST ISZERO ISZERO PUSH0 SUB PUSH2 0x8D7 JUMPI PUSH1 0x3 DUP1 SLOAD PUSH1 0x1 DUP2 ADD DUP3 SSTORE PUSH0 SWAP2 SWAP1 SWAP2 MSTORE PUSH32 0xC2575A0E9E593C00F959F8C92F12DB2869C3395A3B0502D05E2516446F71F85B ADD DUP1 SLOAD PUSH1 0x1 PUSH1 0x1 PUSH1 0xA0 SHL SUB NOT AND PUSH1 0x1 PUSH1 0x1 PUSH1 0xA0 SHL SUB DUP4 AND OR SWAP1 SSTORE JUMPDEST DUP3 DUP3 DUP2 MLOAD DUP2 LT PUSH2 0x8E9 JUMPI PUSH2 0x8E9 PUSH2 0x32A1 JUMP JUMPDEST PUSH1 0x20 MUL PUSH1 0x20 ADD ADD MLOAD PUSH1 0x2 PUSH0 DUP4 PUSH1 0x1 PUSH1 0x1 PUSH1 0xA0 SHL SUB AND PUSH1 0x1 PUSH1 0x1 PUSH1 0xA0 SHL SUB AND DUP2 MSTORE PUSH1 0x20 ADD SWAP1 DUP2 MSTORE PUSH1 0x20 ADD PUSH0 KECCAK256 PUSH0 PUSH2 0x100 EXP DUP2 SLOAD DUP2 PUSH1 0x1 PUSH1 0x1 PUSH1 0xA0 SHL SUB MUL NOT AND SWAP1 DUP4 PUSH1 0x1 PUSH1 0x1 PUSH1 0xA0 SHL SUB AND MUL OR SWAP1 SSTORE POP DUP4 DUP3 DUP2 MLOAD DUP2 LT PUSH2 0x949 JUMPI PUSH2 0x949 PUSH2 0x32A1 JUMP JUMPDEST PUSH1 0x20 SWAP1 DUP2 MUL SWAP2 SWAP1 SWAP2 ADD DUP2 ADD MLOAD PUSH1 0x1 PUSH1 0x1 PUSH1 0xA0 SHL SUB SWAP3 DUP4 AND PUSH0 SWAP1 DUP2 MSTORE PUSH1 0xE DUP4 MSTORE PUSH1 0x40 DUP1 DUP3 KECCAK256 DUP1 SLOAD PUSH1 0x1 PUSH1 0x1 PUSH1 0xA0 SHL SUB NOT AND SWAP6 SWAP1 SWAP4 AND SWAP5 SWAP1 SWAP5 OR SWAP1 SWAP2 SSTORE PUSH1 0x6 SWAP1 SWAP2 MSTORE KECCAK256 DUP1 SLOAD PUSH1 0xFF NOT AND PUSH1 0x1 SWAP1 DUP2 OR SWAP1 SWAP2 SSTORE ADD PUSH2 0x7FC JUMP JUMPDEST POP POP POP POP JUMP JUMPDEST PUSH1 0x7 DUP2 DUP2 SLOAD DUP2 LT PUSH2 0x9B3 JUMPI PUSH0 DUP1 REVERT JUMPDEST PUSH0 SWAP2 DUP3 MSTORE PUSH1 0x20 SWAP1 SWAP2 KECCAK256 ADD SLOAD PUSH1 0x1 PUSH1 0x1 PUSH1 0xA0 SHL SUB AND SWAP1 POP DUP2 JUMP JUMPDEST PUSH0 DUP2 DUP2 MSTORE PUSH1 0x5 PUSH1 0x20 MSTORE PUSH1 0x40 DUP1 DUP3 KECCAK256 SLOAD DUP2 MLOAD PUSH4 0x5D3E2FA1 PUSH1 0xE0 SHL DUP2 MSTORE SWAP2 MLOAD PUSH1 0x1 PUSH1 0x1 PUSH1 0xA0 SHL SUB SWAP1 SWAP2 AND SWAP2 DUP4 SWAP2 DUP4 SWAP2 PUSH4 0x5D3E2FA1 SWAP2 PUSH1 0x4 DUP1 DUP4 ADD SWAP3 PUSH1 0xC0 SWAP3 SWAP2 SWAP1 DUP3 SWAP1 SUB ADD DUP2 DUP7 GAS STATICCALL ISZERO DUP1 ISZERO PUSH2 0xA21 JUMPI RETURNDATASIZE PUSH0 DUP1 RETURNDATACOPY RETURNDATASIZE PUSH0 REVERT JUMPDEST POP POP POP POP PUSH1 0x40 MLOAD RETURNDATASIZE PUSH1 0x1F NOT PUSH1 0x1F DUP3 ADD AND DUP3 ADD DUP1 PUSH1 0x40 MSTORE POP DUP2 ADD SWAP1 PUSH2 0xA45 SWAP2 SWAP1 PUSH2 0x32B5 JUMP JUMPDEST PUSH1 0x80 DUP2 ADD MLOAD PUSH1 0x1 PUSH1 0x1 PUSH1 0xA0 SHL SUB SWAP1 DUP2 AND PUSH0 SWAP1 DUP2 MSTORE PUSH1 0x2 PUSH1 0x20 MSTORE PUSH1 0x40 DUP1 DUP3 KECCAK256 SLOAD SWAP1 MLOAD PUSH4 0xA52F38D1 PUSH1 0xE0 SHL DUP2 MSTORE PUSH1 0x4 DUP2 ADD DUP10 SWAP1 MSTORE SWAP4 SWAP5 POP SWAP1 SWAP3 SWAP2 AND SWAP1 PUSH4 0xA52F38D1 SWAP1 PUSH1 0x24 ADD PUSH1 0x20 PUSH1 0x40 MLOAD DUP1 DUP4 SUB DUP2 DUP7 GAS STATICCALL ISZERO DUP1 ISZERO PUSH2 0xAA3 JUMPI RETURNDATASIZE PUSH0 DUP1 RETURNDATACOPY RETURNDATASIZE PUSH0 REVERT JUMPDEST POP POP POP POP PUSH1 0x40 MLOAD RETURNDATASIZE PUSH1 0x1F NOT PUSH1 0x1F DUP3 ADD AND DUP3 ADD DUP1 PUSH1 0x40 MSTORE POP DUP2 ADD SWAP1 PUSH2 0xAC7 SWAP2 SWAP1 PUSH2 0x334D JUMP JUMPDEST PUSH1 0x40 MLOAD PUSH4 0x17845C69 PUSH1 0xE0 SHL DUP2 MSTORE PUSH1 0x4 DUP2 ADD DUP3 SWAP1 MSTORE SWAP1 SWAP2 POP PUSH1 0x1 PUSH1 0x1 PUSH1 0xA0 SHL SUB DUP5 AND SWAP1 PUSH4 0x17845C69 SWAP1 PUSH1 0x24 ADD PUSH1 0x20 PUSH1 0x40 MLOAD DUP1 DUP4 SUB DUP2 DUP7 GAS STATICCALL ISZERO DUP1 ISZERO PUSH2 0xB0D JUMPI RETURNDATASIZE PUSH0 DUP1 RETURNDATACOPY RETURNDATASIZE PUSH0 REVERT JUMPDEST POP POP POP POP PUSH1 0x40 MLOAD RETURNDATASIZE PUSH1 0x1F NOT PUSH1 0x1F DUP3 ADD AND DUP3 ADD DUP1 PUSH1 0x40 MSTORE POP DUP2 ADD SWAP1 PUSH2 0xB31 SWAP2 SWAP1 PUSH2 0x334D JUMP JUMPDEST SWAP6 SWAP5 POP POP POP POP POP JUMP JUMPDEST PUSH0 DUP1 DUP1 JUMPDEST DUP5 MLOAD DUP2 LT ISZERO PUSH2 0xB8A JUMPI DUP4 PUSH1 0x1 PUSH1 0x1 PUSH1 0xA0 SHL SUB AND DUP6 DUP3 DUP2 MLOAD DUP2 LT PUSH2 0xB63 JUMPI PUSH2 0xB63 PUSH2 0x32A1 JUMP JUMPDEST PUSH1 0x20 MUL PUSH1 0x20 ADD ADD MLOAD PUSH1 0x1 PUSH1 0x1 PUSH1 0xA0 SHL SUB AND SUB PUSH2 0xB82 JUMPI PUSH1 0x1 SWAP2 POP PUSH2 0xB8A JUMP JUMPDEST PUSH1 0x1 ADD PUSH2 0xB3E JUMP JUMPDEST POP SWAP1 POP JUMPDEST SWAP3 SWAP2 POP POP JUMP JUMPDEST PUSH1 0x12 SLOAD PUSH1 0x1 PUSH1 0x1 PUSH1 0xA0 SHL SUB AND CALLER EQ PUSH2 0xBBE JUMPI PUSH1 0x40 MLOAD PUSH3 0x461BCD PUSH1 0xE5 SHL DUP2 MSTORE PUSH1 0x4 ADD PUSH2 0x7F1 SWAP1 PUSH2 0x3279 JUMP JUMPDEST PUSH1 0x9 DUP1 SLOAD PUSH1 0x1 PUSH1 0x1 PUSH1 0xA0 SHL SUB NOT AND PUSH1 0x1 PUSH1 0x1 PUSH1 0xA0 SHL SUB SWAP3 SWAP1 SWAP3 AND SWAP2 SWAP1 SWAP2 OR SWAP1 SSTORE JUMP JUMPDEST PUSH1 0x12 SLOAD PUSH1 0x1 PUSH1 0x1 PUSH1 0xA0 SHL SUB AND CALLER EQ PUSH2 0xC0A JUMPI PUSH1 0x40 MLOAD PUSH3 0x461BCD PUSH1 0xE5 SHL DUP2 MSTORE PUSH1 0x4 ADD PUSH2 0x7F1 SWAP1 PUSH2 0x3279 JUMP JUMPDEST DUP1 ISZERO PUSH2 0xCE4 JUMPI PUSH2 0xC72 PUSH1 0x3 DUP1 SLOAD DUP1 PUSH1 0x20 MUL PUSH1 0x20 ADD PUSH1 0x40 MLOAD SWAP1 DUP2 ADD PUSH1 0x40 MSTORE DUP1 SWAP3 SWAP2 SWAP1 DUP2 DUP2 MSTORE PUSH1 0x20 ADD DUP3 DUP1 SLOAD DUP1 ISZERO PUSH2 0xC67 JUMPI PUSH1 0x20 MUL DUP3 ADD SWAP2 SWAP1 PUSH0 MSTORE PUSH1 0x20 PUSH0 KECCAK256 SWAP1 JUMPDEST DUP2 SLOAD PUSH1 0x1 PUSH1 0x1 PUSH1 0xA0 SHL SUB AND DUP2 MSTORE PUSH1 0x1 SWAP1 SWAP2 ADD SWAP1 PUSH1 0x20 ADD DUP1 DUP4 GT PUSH2 0xC49 JUMPI JUMPDEST POP POP POP POP POP DUP5 PUSH2 0xB3A JUMP JUMPDEST ISZERO ISZERO PUSH1 0x1 EQ PUSH2 0xCBA JUMPI PUSH1 0x40 MLOAD PUSH3 0x461BCD PUSH1 0xE5 SHL DUP2 MSTORE PUSH1 0x20 PUSH1 0x4 DUP3 ADD MSTORE PUSH1 0x14 PUSH1 0x24 DUP3 ADD MSTORE PUSH20 0x151BDAD95B881A5CC81B9BDD08195E1A5CDD1959 PUSH1 0x62 SHL PUSH1 0x44 DUP3 ADD MSTORE PUSH1 0x64 ADD PUSH2 0x7F1 JUMP JUMPDEST PUSH1 0x1 PUSH1 0x1 PUSH1 0xA0 SHL SUB DUP4 AND PUSH0 SWAP1 DUP2 MSTORE PUSH1 0x8 PUSH1 0x20 MSTORE PUSH1 0x40 SWAP1 KECCAK256 DUP1 SLOAD DUP4 ISZERO ISZERO PUSH1 0xFF NOT SWAP1 SWAP2 AND OR SWAP1 SSTORE POP POP POP JUMP JUMPDEST PUSH2 0xD44 PUSH1 0x7 DUP1 SLOAD DUP1 PUSH1 0x20 MUL PUSH1 0x20 ADD PUSH1 0x40 MLOAD SWAP1 DUP2 ADD PUSH1 0x40 MSTORE DUP1 SWAP3 SWAP2 SWAP1 DUP2 DUP2 MSTORE PUSH1 0x20 ADD DUP3 DUP1 SLOAD DUP1 ISZERO PUSH2 0xC67 JUMPI PUSH1 0x20 MUL DUP3 ADD SWAP2 SWAP1 PUSH0 MSTORE PUSH1 0x20 PUSH0 KECCAK256 SWAP1 DUP2 SLOAD PUSH1 0x1 PUSH1 0x1 PUSH1 0xA0 SHL SUB AND DUP2 MSTORE PUSH1 0x1 SWAP1 SWAP2 ADD SWAP1 PUSH1 0x20 ADD DUP1 DUP4 GT PUSH2 0xC49 JUMPI POP POP POP POP POP DUP5 PUSH2 0xB3A JUMP JUMPDEST ISZERO ISZERO PUSH1 0x1 EQ PUSH2 0xD8C JUMPI PUSH1 0x40 MLOAD PUSH3 0x461BCD PUSH1 0xE5 SHL DUP2 MSTORE PUSH1 0x20 PUSH1 0x4 DUP3 ADD MSTORE PUSH1 0x14 PUSH1 0x24 DUP3 ADD MSTORE PUSH20 0x151BDAD95B881A5CC81B9BDD08195E1A5CDD1959 PUSH1 0x62 SHL PUSH1 0x44 DUP3 ADD MSTORE PUSH1 0x64 ADD PUSH2 0x7F1 JUMP JUMPDEST PUSH1 0x1 PUSH1 0x1 PUSH1 0xA0 SHL SUB DUP4 AND PUSH0 SWAP1 DUP2 MSTORE PUSH1 0x6 PUSH1 0x20 MSTORE PUSH1 0x40 SWAP1 KECCAK256 DUP1 SLOAD DUP4 ISZERO ISZERO PUSH1 0xFF NOT SWAP1 SWAP2 AND OR SWAP1 SSTORE POP POP POP JUMP JUMPDEST PUSH1 0x12 SLOAD PUSH1 0x1 PUSH1 0x1 PUSH1 0xA0 SHL SUB AND CALLER EQ PUSH2 0xDE0 JUMPI PUSH1 0x40 MLOAD PUSH3 0x461BCD PUSH1 0xE5 SHL DUP2 MSTORE PUSH1 0x4 ADD PUSH2 0x7F1 SWAP1 PUSH2 0x3279 JUMP JUMPDEST PUSH1 0xF DUP1 SLOAD PUSH1 0x1 PUSH1 0x1 PUSH1 0xA0 SHL SUB NOT AND PUSH1 0x1 PUSH1 0x1 PUSH1 0xA0 SHL SUB SWAP3 SWAP1 SWAP3 AND SWAP2 SWAP1 SWAP2 OR SWAP1 SSTORE JUMP JUMPDEST PUSH0 DUP2 DUP2 MSTORE PUSH1 0x5 PUSH1 0x20 MSTORE PUSH1 0x40 DUP1 DUP3 KECCAK256 SLOAD DUP2 MLOAD PUSH4 0x5D3E2FA1 PUSH1 0xE0 SHL DUP2 MSTORE SWAP2 MLOAD PUSH1 0x1 PUSH1 0x1 PUSH1 0xA0 SHL SUB SWAP1 SWAP2 AND SWAP3 SWAP2 DUP4 SWAP2 PUSH4 0x5D3E2FA1 SWAP2 PUSH1 0x4 DUP1 DUP3 ADD SWAP3 PUSH1 0xC0 SWAP3 SWAP1 SWAP2 SWAP1 DUP3 SWAP1 SUB ADD DUP2 DUP7 GAS STATICCALL ISZERO DUP1 ISZERO PUSH2 0xE57 JUMPI RETURNDATASIZE PUSH0 DUP1 RETURNDATACOPY RETURNDATASIZE PUSH0 REVERT JUMPDEST POP POP POP POP PUSH1 0x40 MLOAD RETURNDATASIZE PUSH1 0x1F NOT PUSH1 0x1F DUP3 ADD AND DUP3 ADD DUP1 PUSH1 0x40 MSTORE POP DUP2 ADD SWAP1 PUSH2 0xE7B SWAP2 SWAP1 PUSH2 0x32B5 JUMP JUMPDEST PUSH1 0x80 DUP2 ADD MLOAD PUSH1 0x1 PUSH1 0x1 PUSH1 0xA0 SHL SUB SWAP1 DUP2 AND PUSH0 SWAP1 DUP2 MSTORE PUSH1 0x2 PUSH1 0x20 MSTORE PUSH1 0x40 DUP1 DUP3 KECCAK256 SLOAD SWAP1 MLOAD PUSH4 0xA52F38D1 PUSH1 0xE0 SHL DUP2 MSTORE PUSH1 0x4 DUP2 ADD DUP9 SWAP1 MSTORE SWAP4 SWAP5 POP SWAP1 SWAP3 SWAP2 AND SWAP1 PUSH4 0xA52F38D1 SWAP1 PUSH1 0x24 ADD PUSH1 0x20 PUSH1 0x40 MLOAD DUP1 DUP4 SUB DUP2 DUP7 GAS STATICCALL ISZERO DUP1 ISZERO PUSH2 0xED9 JUMPI RETURNDATASIZE PUSH0 DUP1 RETURNDATACOPY RETURNDATASIZE PUSH0 REVERT JUMPDEST POP POP POP POP PUSH1 0x40 MLOAD RETURNDATASIZE PUSH1 0x1F NOT PUSH1 0x1F DUP3 ADD AND DUP3 ADD DUP1 PUSH1 0x40 MSTORE POP DUP2 ADD SWAP1 PUSH2 0xEFD SWAP2 SWAP1 PUSH2 0x334D JUMP JUMPDEST SWAP1 POP DUP3 PUSH1 0x1 PUSH1 0x1 PUSH1 0xA0 SHL SUB AND PUSH4 0xD296D1F1 DUP3 PUSH1 0x14 SLOAD PUSH1 0x15 SLOAD PUSH1 0x16 SLOAD PUSH2 0xF22 SWAP2 SWAP1 PUSH2 0x3378 JUMP JUMPDEST PUSH2 0xF2C SWAP2 SWAP1 PUSH2 0x3378 JUMP JUMPDEST PUSH1 0x40 MLOAD PUSH1 0x1 PUSH1 0x1 PUSH1 0xE0 SHL SUB NOT PUSH1 0xE0 DUP6 SWAP1 SHL AND DUP2 MSTORE PUSH1 0x4 DUP2 ADD SWAP3 SWAP1 SWAP3 MSTORE PUSH1 0x24 DUP3 ADD MSTORE PUSH1 0x44 ADD PUSH0 PUSH1 0x40 MLOAD DUP1 DUP4 SUB DUP2 PUSH0 DUP8 DUP1 EXTCODESIZE ISZERO DUP1 ISZERO PUSH2 0xF67 JUMPI PUSH0 DUP1 REVERT JUMPDEST POP GAS CALL ISZERO DUP1 ISZERO PUSH2 0xF79 JUMPI RETURNDATASIZE PUSH0 DUP1 RETURNDATACOPY RETURNDATASIZE PUSH0 REVERT JUMPDEST POP POP POP POP DUP2 PUSH1 0x80 ADD MLOAD PUSH1 0x1 PUSH1 0x1 PUSH1 0xA0 SHL SUB AND PUSH4 0x23B872DD DUP5 ADDRESS PUSH2 0x3E8 PUSH1 0x14 SLOAD PUSH1 0x15 SLOAD PUSH1 0x16 SLOAD PUSH2 0x3E8 PUSH2 0xFAB SWAP2 SWAP1 PUSH2 0x3378 JUMP JUMPDEST PUSH2 0xFB5 SWAP2 SWAP1 PUSH2 0x3378 JUMP JUMPDEST PUSH2 0xFBF SWAP2 SWAP1 PUSH2 0x3378 JUMP JUMPDEST PUSH2 0xFC9 SWAP1 DUP8 PUSH2 0x338B JUMP JUMPDEST PUSH2 0xFD3 SWAP2 SWAP1 PUSH2 0x33A2 JUMP JUMPDEST PUSH1 0x40 MLOAD DUP5 PUSH4 0xFFFFFFFF AND PUSH1 0xE0 SHL DUP2 MSTORE PUSH1 0x4 ADD PUSH2 0xFF1 SWAP4 SWAP3 SWAP2 SWAP1 PUSH2 0x33C1 JUMP JUMPDEST PUSH1 0x20 PUSH1 0x40 MLOAD DUP1 DUP4 SUB DUP2 PUSH0 DUP8 GAS CALL ISZERO DUP1 ISZERO PUSH2 0x100D JUMPI RETURNDATASIZE PUSH0 DUP1 RETURNDATACOPY RETURNDATASIZE PUSH0 REVERT JUMPDEST POP POP POP POP PUSH1 0x40 MLOAD RETURNDATASIZE PUSH1 0x1F NOT PUSH1 0x1F DUP3 ADD AND DUP3 ADD DUP1 PUSH1 0x40 MSTORE POP DUP2 ADD SWAP1 PUSH2 0x1031 SWAP2 SWAP1 PUSH2 0x33E5 JUMP JUMPDEST POP PUSH1 0x80 DUP3 ADD MLOAD PUSH1 0x1 PUSH1 0x1 PUSH1 0xA0 SHL SUB SWAP1 DUP2 AND PUSH0 DUP2 DUP2 MSTORE PUSH1 0x2 PUSH1 0x20 MSTORE PUSH1 0x40 SWAP1 DUP2 SWAP1 KECCAK256 SLOAD SWAP1 MLOAD PUSH4 0x95EA7B3 PUSH1 0xE0 SHL DUP2 MSTORE SWAP3 AND PUSH1 0x4 DUP4 ADD MSTORE PUSH1 0x24 DUP3 ADD DUP4 SWAP1 MSTORE SWAP1 PUSH4 0x95EA7B3 SWAP1 PUSH1 0x44 ADD PUSH1 0x20 PUSH1 0x40 MLOAD DUP1 DUP4 SUB DUP2 PUSH0 DUP8 GAS CALL ISZERO DUP1 ISZERO PUSH2 0x1092 JUMPI RETURNDATASIZE PUSH0 DUP1 RETURNDATACOPY RETURNDATASIZE PUSH0 REVERT JUMPDEST POP POP POP POP PUSH1 0x40 MLOAD RETURNDATASIZE PUSH1 0x1F NOT PUSH1 0x1F DUP3 ADD AND DUP3 ADD DUP1 PUSH1 0x40 MSTORE POP DUP2 ADD SWAP1 PUSH2 0x10B6 SWAP2 SWAP1 PUSH2 0x33E5 JUMP JUMPDEST POP PUSH1 0x80 DUP3 ADD MLOAD PUSH1 0x1 PUSH1 0x1 PUSH1 0xA0 SHL SUB SWAP1 DUP2 AND PUSH0 SWAP1 DUP2 MSTORE PUSH1 0x2 PUSH1 0x20 MSTORE PUSH1 0x40 SWAP1 DUP2 SWAP1 KECCAK256 SLOAD SWAP1 MLOAD PUSH4 0xD8AED145 PUSH1 0xE0 SHL DUP2 MSTORE PUSH1 0x4 DUP2 ADD DUP8 SWAP1 MSTORE PUSH1 0x24 DUP2 ADD DUP5 SWAP1 MSTORE SWAP2 AND SWAP1 PUSH4 0xD8AED145 SWAP1 PUSH1 0x44 ADD PUSH0 PUSH1 0x40 MLOAD DUP1 DUP4 SUB DUP2 PUSH0 DUP8 DUP1 EXTCODESIZE ISZERO DUP1 ISZERO PUSH2 0x1114 JUMPI PUSH0 DUP1 REVERT JUMPDEST POP GAS CALL ISZERO DUP1 ISZERO PUSH2 0x1126 JUMPI RETURNDATASIZE PUSH0 DUP1 RETURNDATACOPY RETURNDATASIZE PUSH0 REVERT JUMPDEST POP POP POP POP DUP2 PUSH1 0x80 ADD MLOAD PUSH1 0x1 PUSH1 0x1 PUSH1 0xA0 SHL SUB AND PUSH4 0xA9059CBB PUSH1 0x11 PUSH0 SWAP1 SLOAD SWAP1 PUSH2 0x100 EXP SWAP1 DIV PUSH1 0x1 PUSH1 0x1 PUSH1 0xA0 SHL SUB AND PUSH2 0x3E8 PUSH1 0x14 SLOAD DUP6 PUSH2 0x1163 SWAP2 SWAP1 PUSH2 0x338B JUMP JUMPDEST PUSH2 0x116D SWAP2 SWAP1 PUSH2 0x33A2 JUMP JUMPDEST PUSH1 0x40 MLOAD PUSH1 0x1 PUSH1 0x1 PUSH1 0xE0 SHL SUB NOT PUSH1 0xE0 DUP6 SWAP1 SHL AND DUP2 MSTORE PUSH1 0x1 PUSH1 0x1 PUSH1 0xA0 SHL SUB SWAP1 SWAP3 AND PUSH1 0x4 DUP4 ADD MSTORE PUSH1 0x24 DUP3 ADD MSTORE PUSH1 0x44 ADD PUSH1 0x20 PUSH1 0x40 MLOAD DUP1 DUP4 SUB DUP2 PUSH0 DUP8 GAS CALL ISZERO DUP1 ISZERO PUSH2 0x11B5 JUMPI RETURNDATASIZE PUSH0 DUP1 RETURNDATACOPY RETURNDATASIZE PUSH0 REVERT JUMPDEST POP POP POP POP PUSH1 0x40 MLOAD RETURNDATASIZE PUSH1 0x1F NOT PUSH1 0x1F DUP3 ADD AND DUP3 ADD DUP1 PUSH1 0x40 MSTORE POP DUP2 ADD SWAP1 PUSH2 0x11D9 SWAP2 SWAP1 PUSH2 0x33E5 JUMP JUMPDEST POP PUSH1 0x80 DUP3 ADD MLOAD PUSH1 0x10 SLOAD PUSH1 0x15 SLOAD PUSH1 0x1 PUSH1 0x1 PUSH1 0xA0 SHL SUB SWAP3 DUP4 AND SWAP3 PUSH4 0xA9059CBB SWAP3 AND SWAP1 PUSH2 0x3E8 SWAP1 PUSH2 0x1207 SWAP1 DUP7 PUSH2 0x338B JUMP JUMPDEST PUSH2 0x1211 SWAP2 SWAP1 PUSH2 0x33A2 JUMP JUMPDEST PUSH1 0x40 MLOAD PUSH1 0x1 PUSH1 0x1 PUSH1 0xE0 SHL SUB NOT PUSH1 0xE0 DUP6 SWAP1 SHL AND DUP2 MSTORE PUSH1 0x1 PUSH1 0x1 PUSH1 0xA0 SHL SUB SWAP1 SWAP3 AND PUSH1 0x4 DUP4 ADD MSTORE PUSH1 0x24 DUP3 ADD MSTORE PUSH1 0x44 ADD PUSH1 0x20 PUSH1 0x40 MLOAD DUP1 DUP4 SUB DUP2 PUSH0 DUP8 GAS CALL ISZERO DUP1 ISZERO PUSH2 0x1259 JUMPI RETURNDATASIZE PUSH0 DUP1 RETURNDATACOPY RETURNDATASIZE PUSH0 REVERT JUMPDEST POP POP POP POP PUSH1 0x40 MLOAD RETURNDATASIZE PUSH1 0x1F NOT PUSH1 0x1F DUP3 ADD AND DUP3 ADD DUP1 PUSH1 0x40 MSTORE POP DUP2 ADD SWAP1 PUSH2 0x127D SWAP2 SWAP1 PUSH2 0x33E5 JUMP JUMPDEST POP PUSH0 PUSH2 0x3E8 PUSH1 0x15 SLOAD DUP4 PUSH2 0x1290 SWAP2 SWAP1 PUSH2 0x338B JUMP JUMPDEST PUSH2 0x129A SWAP2 SWAP1 PUSH2 0x33A2 JUMP JUMPDEST PUSH2 0x3E8 PUSH1 0x14 SLOAD DUP5 PUSH2 0x12AB SWAP2 SWAP1 PUSH2 0x338B JUMP JUMPDEST PUSH2 0x12B5 SWAP2 SWAP1 PUSH2 0x33A2 JUMP JUMPDEST DUP4 PUSH2 0x3E8 PUSH1 0x14 SLOAD PUSH1 0x15 SLOAD PUSH1 0x16 SLOAD PUSH2 0x3E8 PUSH2 0x12CF SWAP2 SWAP1 PUSH2 0x3378 JUMP JUMPDEST PUSH2 0x12D9 SWAP2 SWAP1 PUSH2 0x3378 JUMP JUMPDEST PUSH2 0x12E3 SWAP2 SWAP1 PUSH2 0x3378 JUMP JUMPDEST PUSH2 0x12ED SWAP1 DUP8 PUSH2 0x338B JUMP JUMPDEST PUSH2 0x12F7 SWAP2 SWAP1 PUSH2 0x33A2 JUMP JUMPDEST PUSH2 0x1301 SWAP2 SWAP1 PUSH2 0x3400 JUMP JUMPDEST PUSH2 0x130B SWAP2 SWAP1 PUSH2 0x3400 JUMP JUMPDEST PUSH2 0x1315 SWAP2 SWAP1 PUSH2 0x3400 JUMP JUMPDEST PUSH1 0x80 DUP5 ADD MLOAD PUSH1 0x1 PUSH1 0x1 PUSH1 0xA0 SHL SUB SWAP1 DUP2 AND PUSH0 DUP2 DUP2 MSTORE PUSH1 0x2 PUSH1 0x20 MSTORE PUSH1 0x40 SWAP1 DUP2 SWAP1 KECCAK256 SLOAD SWAP1 MLOAD PUSH4 0x95EA7B3 PUSH1 0xE0 SHL DUP2 MSTORE SWAP3 AND PUSH1 0x4 DUP4 ADD MSTORE PUSH1 0x24 DUP3 ADD DUP4 SWAP1 MSTORE SWAP2 SWAP3 POP PUSH4 0x95EA7B3 SWAP1 PUSH1 0x44 ADD PUSH1 0x20 PUSH1 0x40 MLOAD DUP1 DUP4 SUB DUP2 PUSH0 DUP8 GAS CALL ISZERO DUP1 ISZERO PUSH2 0x1377 JUMPI RETURNDATASIZE PUSH0 DUP1 RETURNDATACOPY RETURNDATASIZE PUSH0 REVERT JUMPDEST POP POP POP POP PUSH1 0x40 MLOAD RETURNDATASIZE PUSH1 0x1F NOT PUSH1 0x1F DUP3 ADD AND DUP3 ADD DUP1 PUSH1 0x40 MSTORE POP DUP2 ADD SWAP1 PUSH2 0x139B SWAP2 SWAP1 PUSH2 0x33E5 JUMP JUMPDEST POP PUSH1 0x80 DUP4 ADD MLOAD PUSH1 0x1 PUSH1 0x1 PUSH1 0xA0 SHL SUB SWAP1 DUP2 AND PUSH0 SWAP1 DUP2 MSTORE PUSH1 0x2 PUSH1 0x20 MSTORE PUSH1 0x40 SWAP1 DUP2 SWAP1 KECCAK256 SLOAD SWAP1 MLOAD PUSH4 0x2B9BC881 PUSH1 0xE1 SHL DUP2 MSTORE PUSH1 0x4 DUP2 ADD DUP5 SWAP1 MSTORE SWAP2 AND SWAP1 PUSH4 0x57379102 SWAP1 PUSH1 0x24 ADD PUSH0 PUSH1 0x40 MLOAD DUP1 DUP4 SUB DUP2 PUSH0 DUP8 DUP1 EXTCODESIZE ISZERO DUP1 ISZERO PUSH2 0x13F2 JUMPI PUSH0 DUP1 REVERT JUMPDEST POP GAS CALL ISZERO DUP1 ISZERO PUSH2 0x1404 JUMPI RETURNDATASIZE PUSH0 DUP1 RETURNDATACOPY RETURNDATASIZE PUSH0 REVERT JUMPDEST POP POP POP PUSH0 DUP7 DUP2 MSTORE PUSH1 0x5 PUSH1 0x20 MSTORE PUSH1 0x40 DUP1 DUP3 KECCAK256 SLOAD DUP2 MLOAD PUSH4 0x232FA733 PUSH1 0xE0 SHL DUP2 MSTORE SWAP2 MLOAD PUSH1 0x1 PUSH1 0x1 PUSH1 0xA0 SHL SUB SWAP1 SWAP2 AND SWAP4 POP PUSH4 0x232FA733 SWAP3 PUSH1 0x4 DUP1 DUP5 ADD SWAP4 SWAP2 SWAP3 SWAP2 DUP3 SWAP1 SUB ADD DUP2 DUP4 DUP8 DUP1 EXTCODESIZE ISZERO DUP1 ISZERO PUSH2 0x1454 JUMPI PUSH0 DUP1 REVERT JUMPDEST POP GAS CALL ISZERO DUP1 ISZERO PUSH2 0x1466 JUMPI RETURNDATASIZE PUSH0 DUP1 RETURNDATACOPY RETURNDATASIZE PUSH0 REVERT JUMPDEST POP POP POP POP POP POP POP POP POP JUMP JUMPDEST PUSH1 0x1 PUSH1 0x1 PUSH1 0xA0 SHL SUB DUP3 AND PUSH0 SWAP1 DUP2 MSTORE PUSH1 0x8 PUSH1 0x20 MSTORE PUSH1 0x40 SWAP1 KECCAK256 SLOAD DUP3 SWAP1 PUSH1 0xFF AND ISZERO ISZERO PUSH1 0x1 EQ PUSH2 0x14DF JUMPI PUSH1 0x40 MLOAD PUSH3 0x461BCD PUSH1 0xE5 SHL DUP2 MSTORE PUSH1 0x20 PUSH1 0x4 DUP3 ADD MSTORE PUSH1 0x1F PUSH1 0x24 DUP3 ADD MSTORE PUSH32 0x436F6C6C61746572616C20746F6B656E206973206E6F74206163746976656400 PUSH1 0x44 DUP3 ADD MSTORE PUSH1 0x64 ADD PUSH2 0x7F1 JUMP JUMPDEST DUP2 ISZERO PUSH2 0x159A JUMPI CALLVALUE DUP5 GT ISZERO PUSH2 0x1535 JUMPI PUSH1 0x40 MLOAD PUSH3 0x461BCD PUSH1 0xE5 SHL DUP2 MSTORE PUSH1 0x20 PUSH1 0x4 DUP3 ADD DUP2 SWAP1 MSTORE PUSH1 0x24 DUP3 ADD MSTORE PUSH32 0x646F206E6F74206861766520656E6F756768206465706F736974656420455448 PUSH1 0x44 DUP3 ADD MSTORE PUSH1 0x64 ADD PUSH2 0x7F1 JUMP JUMPDEST PUSH1 0x13 PUSH0 SWAP1 SLOAD SWAP1 PUSH2 0x100 EXP SWAP1 DIV PUSH1 0x1 PUSH1 0x1 PUSH1 0xA0 SHL SUB AND PUSH1 0x1 PUSH1 0x1 PUSH1 0xA0 SHL SUB AND PUSH4 0xD0E30DB0 DUP6 PUSH1 0x40 MLOAD DUP3 PUSH4 0xFFFFFFFF AND PUSH1 0xE0 SHL DUP2 MSTORE PUSH1 0x4 ADD PUSH0 PUSH1 0x40 MLOAD DUP1 DUP4 SUB DUP2 DUP6 DUP9 DUP1 EXTCODESIZE ISZERO DUP1 ISZERO PUSH2 0x1582 JUMPI PUSH0 DUP1 REVERT JUMPDEST POP GAS CALL ISZERO DUP1 ISZERO PUSH2 0x1594 JUMPI RETURNDATASIZE PUSH0 DUP1 RETURNDATACOPY RETURNDATASIZE PUSH0 REVERT JUMPDEST POP POP POP POP POP JUMPDEST PUSH0 DUP6 DUP2 MSTORE PUSH1 0x5 PUSH1 0x20 MSTORE PUSH1 0x40 SWAP1 DUP2 SWAP1 KECCAK256 SLOAD SWAP1 MLOAD PUSH4 0x3390EF13 PUSH1 0xE1 SHL DUP2 MSTORE PUSH1 0x4 DUP2 ADD DUP7 SWAP1 MSTORE PUSH1 0x1 PUSH1 0x1 PUSH1 0xA0 SHL SUB SWAP1 SWAP2 AND SWAP1 DUP2 SWAP1 PUSH4 0x6721DE26 SWAP1 PUSH1 0x24 ADD PUSH0 PUSH1 0x40 MLOAD DUP1 DUP4 SUB DUP2 PUSH0 DUP8 DUP1 EXTCODESIZE ISZERO DUP1 ISZERO PUSH2 0x15EB JUMPI PUSH0 DUP1 REVERT JUMPDEST POP GAS CALL ISZERO DUP1 ISZERO PUSH2 0x15FD JUMPI RETURNDATASIZE PUSH0 DUP1 RETURNDATACOPY RETURNDATASIZE PUSH0 REVERT JUMPDEST POP POP POP POP DUP3 ISZERO PUSH2 0x167D JUMPI PUSH1 0x40 MLOAD PUSH4 0xA9059CBB PUSH1 0xE0 SHL DUP2 MSTORE PUSH1 0x1 PUSH1 0x1 PUSH1 0xA0 SHL SUB DUP3 DUP2 AND PUSH1 0x4 DUP4 ADD MSTORE PUSH1 0x24 DUP3 ADD DUP8 SWAP1 MSTORE DUP6 AND SWAP1 PUSH4 0xA9059CBB SWAP1 PUSH1 0x44 ADD PUSH1 0x20 PUSH1 0x40 MLOAD DUP1 DUP4 SUB DUP2 PUSH0 DUP8 GAS CALL ISZERO DUP1 ISZERO PUSH2 0x1653 JUMPI RETURNDATASIZE PUSH0 DUP1 RETURNDATACOPY RETURNDATASIZE PUSH0 REVERT JUMPDEST POP POP POP POP PUSH1 0x40 MLOAD RETURNDATASIZE PUSH1 0x1F NOT PUSH1 0x1F DUP3 ADD AND DUP3 ADD DUP1 PUSH1 0x40 MSTORE POP DUP2 ADD SWAP1 PUSH2 0x1677 SWAP2 SWAP1 PUSH2 0x33E5 JUMP JUMPDEST POP PUSH2 0x16EF JUMP JUMPDEST PUSH1 0x40 MLOAD PUSH4 0x23B872DD PUSH1 0xE0 SHL DUP2 MSTORE PUSH1 0x1 PUSH1 0x1 PUSH1 0xA0 SHL SUB DUP6 AND SWAP1 PUSH4 0x23B872DD SWAP1 PUSH2 0x16AD SWAP1 CALLER SWAP1 DUP6 SWAP1 DUP11 SWAP1 PUSH1 0x4 ADD PUSH2 0x33C1 JUMP JUMPDEST PUSH1 0x20 PUSH1 0x40 MLOAD DUP1 DUP4 SUB DUP2 PUSH0 DUP8 GAS CALL ISZERO DUP1 ISZERO PUSH2 0x16C9 JUMPI RETURNDATASIZE PUSH0 DUP1 RETURNDATACOPY RETURNDATASIZE PUSH0 REVERT JUMPDEST POP POP POP POP PUSH1 0x40 MLOAD RETURNDATASIZE PUSH1 0x1F NOT PUSH1 0x1F DUP3 ADD AND DUP3 ADD DUP1 PUSH1 0x40 MSTORE POP DUP2 ADD SWAP1 PUSH2 0x16ED SWAP2 SWAP1 PUSH2 0x33E5 JUMP JUMPDEST POP JUMPDEST POP POP POP POP POP POP JUMP JUMPDEST PUSH1 0x12 SLOAD PUSH1 0x1 PUSH1 0x1 PUSH1 0xA0 SHL SUB AND CALLER EQ PUSH2 0x1721 JUMPI PUSH1 0x40 MLOAD PUSH3 0x461BCD PUSH1 0xE5 SHL DUP2 MSTORE PUSH1 0x4 ADD PUSH2 0x7F1 SWAP1 PUSH2 0x3279 JUMP JUMPDEST PUSH1 0x13 DUP1 SLOAD PUSH1 0x1 PUSH1 0x1 PUSH1 0xA0 SHL SUB NOT AND PUSH1 0x1 PUSH1 0x1 PUSH1 0xA0 SHL SUB SWAP3 SWAP1 SWAP3 AND SWAP2 SWAP1 SWAP2 OR SWAP1 SSTORE JUMP JUMPDEST PUSH0 DUP3 DUP2 MSTORE PUSH1 0x5 PUSH1 0x20 MSTORE PUSH1 0x40 DUP1 DUP3 KECCAK256 SLOAD DUP2 MLOAD PUSH4 0x5D3E2FA1 PUSH1 0xE0 SHL DUP2 MSTORE SWAP2 MLOAD PUSH1 0x1 PUSH1 0x1 PUSH1 0xA0 SHL SUB SWAP1 SWAP2 AND SWAP3 SWAP2 DUP4 SWAP2 PUSH4 0x5D3E2FA1 SWAP2 PUSH1 0x4 DUP1 DUP3 ADD SWAP3 PUSH1 0xC0 SWAP3 SWAP1 SWAP2 SWAP1 DUP3 SWAP1 SUB ADD DUP2 DUP7 GAS STATICCALL ISZERO DUP1 ISZERO PUSH2 0x1798 JUMPI RETURNDATASIZE PUSH0 DUP1 RETURNDATACOPY RETURNDATASIZE PUSH0 REVERT JUMPDEST POP POP POP POP PUSH1 0x40 MLOAD RETURNDATASIZE PUSH1 0x1F NOT PUSH1 0x1F DUP3 ADD AND DUP3 ADD DUP1 PUSH1 0x40 MSTORE POP DUP2 ADD SWAP1 PUSH2 0x17BC SWAP2 SWAP1 PUSH2 0x32B5 JUMP JUMPDEST PUSH1 0x20 DUP2 ADD MLOAD PUSH1 0x40 MLOAD PUSH4 0x8165C17 PUSH1 0xE1 SHL DUP2 MSTORE PUSH1 0x1 PUSH1 0x1 PUSH1 0xA0 SHL SUB SWAP2 DUP3 AND PUSH1 0x4 DUP3 ADD MSTORE DUP6 ISZERO ISZERO PUSH1 0x24 DUP3 ADD MSTORE SWAP2 SWAP3 POP DUP4 AND SWAP1 PUSH4 0x102CB82E SWAP1 PUSH1 0x44 ADD JUMPDEST PUSH0 PUSH1 0x40 MLOAD DUP1 DUP4 SUB DUP2 PUSH0 DUP8 DUP1 EXTCODESIZE ISZERO DUP1 ISZERO PUSH2 0x180D JUMPI PUSH0 DUP1 REVERT JUMPDEST POP GAS CALL ISZERO DUP1 ISZERO PUSH2 0x181F JUMPI RETURNDATASIZE PUSH0 DUP1 RETURNDATACOPY RETURNDATASIZE PUSH0 REVERT JUMPDEST POP POP POP POP POP POP POP POP JUMP JUMPDEST PUSH32 0xF0C57E16840DF040F15088DC2F81FE391C3923BEC73E23A9662EFC9C229C6A00 DUP1 SLOAD PUSH1 0x1 PUSH1 0x40 SHL DUP2 DIV PUSH1 0xFF AND ISZERO SWAP1 PUSH1 0x1 PUSH1 0x1 PUSH1 0x40 SHL SUB AND PUSH0 DUP2 ISZERO DUP1 ISZERO PUSH2 0x186D JUMPI POP DUP3 JUMPDEST SWAP1 POP PUSH0 DUP3 PUSH1 0x1 PUSH1 0x1 PUSH1 0x40 SHL SUB AND PUSH1 0x1 EQ DUP1 ISZERO PUSH2 0x1888 JUMPI POP ADDRESS EXTCODESIZE ISZERO JUMPDEST SWAP1 POP DUP2 ISZERO DUP1 ISZERO PUSH2 0x1896 JUMPI POP DUP1 ISZERO JUMPDEST ISZERO PUSH2 0x18B4 JUMPI PUSH1 0x40 MLOAD PUSH4 0xF92EE8A9 PUSH1 0xE0 SHL DUP2 MSTORE PUSH1 0x4 ADD PUSH1 0x40 MLOAD DUP1 SWAP2 SUB SWAP1 REVERT JUMPDEST DUP5 SLOAD PUSH8 0xFFFFFFFFFFFFFFFF NOT AND PUSH1 0x1 OR DUP6 SSTORE DUP4 ISZERO PUSH2 0x18DE JUMPI DUP5 SLOAD PUSH1 0xFF PUSH1 0x40 SHL NOT AND PUSH1 0x1 PUSH1 0x40 SHL OR DUP6 SSTORE JUMPDEST DUP15 PUSH1 0x3 SWAP1 DUP1 MLOAD SWAP1 PUSH1 0x20 ADD SWAP1 PUSH2 0x18F4 SWAP3 SWAP2 SWAP1 PUSH2 0x2C64 JUMP JUMPDEST POP PUSH1 0x1 DUP1 SSTORE PUSH0 JUMPDEST PUSH1 0x3 SLOAD DUP2 LT ISZERO PUSH2 0x19FA JUMPI PUSH0 PUSH1 0x3 DUP3 DUP2 SLOAD DUP2 LT PUSH2 0x1919 JUMPI PUSH2 0x1919 PUSH2 0x32A1 JUMP JUMPDEST PUSH0 SWAP2 DUP3 MSTORE PUSH1 0x20 SWAP1 SWAP2 KECCAK256 ADD SLOAD DUP16 MLOAD PUSH1 0x1 PUSH1 0x1 PUSH1 0xA0 SHL SUB SWAP1 SWAP2 AND SWAP2 POP DUP16 SWAP1 DUP4 SWAP1 DUP2 LT PUSH2 0x1945 JUMPI PUSH2 0x1945 PUSH2 0x32A1 JUMP JUMPDEST PUSH1 0x20 MUL PUSH1 0x20 ADD ADD MLOAD PUSH1 0x2 PUSH0 DUP4 PUSH1 0x1 PUSH1 0x1 PUSH1 0xA0 SHL SUB AND PUSH1 0x1 PUSH1 0x1 PUSH1 0xA0 SHL SUB AND DUP2 MSTORE PUSH1 0x20 ADD SWAP1 DUP2 MSTORE PUSH1 0x20 ADD PUSH0 KECCAK256 PUSH0 PUSH2 0x100 EXP DUP2 SLOAD DUP2 PUSH1 0x1 PUSH1 0x1 PUSH1 0xA0 SHL SUB MUL NOT AND SWAP1 DUP4 PUSH1 0x1 PUSH1 0x1 PUSH1 0xA0 SHL SUB AND MUL OR SWAP1 SSTORE POP DUP16 DUP3 DUP2 MLOAD DUP2 LT PUSH2 0x19A5 JUMPI PUSH2 0x19A5 PUSH2 0x32A1 JUMP JUMPDEST PUSH1 0x20 SWAP1 DUP2 MUL SWAP2 SWAP1 SWAP2 ADD DUP2 ADD MLOAD PUSH1 0x1 PUSH1 0x1 PUSH1 0xA0 SHL SUB SWAP3 DUP4 AND PUSH0 SWAP1 DUP2 MSTORE PUSH1 0xE DUP4 MSTORE PUSH1 0x40 DUP1 DUP3 KECCAK256 DUP1 SLOAD PUSH1 0x1 PUSH1 0x1 PUSH1 0xA0 SHL SUB NOT AND SWAP6 SWAP1 SWAP4 AND SWAP5 SWAP1 SWAP5 OR SWAP1 SWAP2 SSTORE PUSH1 0x6 SWAP1 SWAP2 MSTORE KECCAK256 DUP1 SLOAD PUSH1 0xFF NOT AND PUSH1 0x1 SWAP1 DUP2 OR SWAP1 SWAP2 SSTORE ADD PUSH2 0x18FB JUMP JUMPDEST POP DUP12 MLOAD PUSH2 0x1A0E SWAP1 PUSH1 0x7 SWAP1 PUSH1 0x20 DUP16 ADD SWAP1 PUSH2 0x2C64 JUMP JUMPDEST POP PUSH0 JUMPDEST PUSH1 0x7 SLOAD DUP2 LT ISZERO PUSH2 0x1B10 JUMPI PUSH0 PUSH1 0x7 DUP3 DUP2 SLOAD DUP2 LT PUSH2 0x1A2F JUMPI PUSH2 0x1A2F PUSH2 0x32A1 JUMP JUMPDEST PUSH0 SWAP2 DUP3 MSTORE PUSH1 0x20 SWAP1 SWAP2 KECCAK256 ADD SLOAD DUP14 MLOAD PUSH1 0x1 PUSH1 0x1 PUSH1 0xA0 SHL SUB SWAP1 SWAP2 AND SWAP2 POP DUP14 SWAP1 DUP4 SWAP1 DUP2 LT PUSH2 0x1A5B JUMPI PUSH2 0x1A5B PUSH2 0x32A1 JUMP JUMPDEST PUSH1 0x20 MUL PUSH1 0x20 ADD ADD MLOAD PUSH1 0xD PUSH0 DUP4 PUSH1 0x1 PUSH1 0x1 PUSH1 0xA0 SHL SUB AND PUSH1 0x1 PUSH1 0x1 PUSH1 0xA0 SHL SUB AND DUP2 MSTORE PUSH1 0x20 ADD SWAP1 DUP2 MSTORE PUSH1 0x20 ADD PUSH0 KECCAK256 PUSH0 PUSH2 0x100 EXP DUP2 SLOAD DUP2 PUSH1 0x1 PUSH1 0x1 PUSH1 0xA0 SHL SUB MUL NOT AND SWAP1 DUP4 PUSH1 0x1 PUSH1 0x1 PUSH1 0xA0 SHL SUB AND MUL OR SWAP1 SSTORE POP DUP12 DUP3 DUP2 MLOAD DUP2 LT PUSH2 0x1ABB JUMPI PUSH2 0x1ABB PUSH2 0x32A1 JUMP JUMPDEST PUSH1 0x20 SWAP1 DUP2 MUL SWAP2 SWAP1 SWAP2 ADD DUP2 ADD MLOAD PUSH1 0x1 PUSH1 0x1 PUSH1 0xA0 SHL SUB SWAP3 DUP4 AND PUSH0 SWAP1 DUP2 MSTORE PUSH1 0xA DUP4 MSTORE PUSH1 0x40 DUP1 DUP3 KECCAK256 DUP1 SLOAD PUSH1 0x1 PUSH1 0x1 PUSH1 0xA0 SHL SUB NOT AND SWAP6 SWAP1 SWAP4 AND SWAP5 SWAP1 SWAP5 OR SWAP1 SWAP2 SSTORE PUSH1 0x8 SWAP1 SWAP2 MSTORE KECCAK256 DUP1 SLOAD PUSH1 0xFF NOT AND PUSH1 0x1 SWAP1 DUP2 OR SWAP1 SWAP2 SSTORE ADD PUSH2 0x1A11 JUMP JUMPDEST POP PUSH1 0x9 DUP1 SLOAD PUSH1 0x1 PUSH1 0x1 PUSH1 0xA0 SHL SUB DUP1 DUP13 AND PUSH1 0x1 PUSH1 0x1 PUSH1 0xA0 SHL SUB NOT SWAP3 DUP4 AND OR SWAP1 SWAP3 SSTORE PUSH1 0x4 DUP1 SLOAD SWAP3 DUP10 AND SWAP3 DUP3 AND SWAP3 SWAP1 SWAP3 OR SWAP1 SWAP2 SSTORE PUSH1 0xB DUP10 SWAP1 SSTORE PUSH1 0xC DUP9 SWAP1 SSTORE PUSH1 0x12 DUP1 SLOAD SWAP1 SWAP2 AND CALLER OR SWAP1 SSTORE DUP4 ISZERO PUSH2 0x1B9C JUMPI DUP5 SLOAD PUSH1 0xFF PUSH1 0x40 SHL NOT AND DUP6 SSTORE PUSH1 0x40 MLOAD PUSH1 0x1 DUP2 MSTORE PUSH32 0xC7F505B2F371AE2175EE4913F4499E1F2633A7B5936321EED1CDAEB6115181D2 SWAP1 PUSH1 0x20 ADD PUSH1 0x40 MLOAD DUP1 SWAP2 SUB SWAP1 LOG1 JUMPDEST POP POP POP POP POP POP POP POP POP POP POP POP POP POP POP JUMP JUMPDEST PUSH1 0x12 SLOAD PUSH1 0x1 PUSH1 0x1 PUSH1 0xA0 SHL SUB AND CALLER EQ PUSH2 0x1BD7 JUMPI PUSH1 0x40 MLOAD PUSH3 0x461BCD PUSH1 0xE5 SHL DUP2 MSTORE PUSH1 0x4 ADD PUSH2 0x7F1 SWAP1 PUSH2 0x3279 JUMP JUMPDEST PUSH0 JUMPDEST DUP4 MLOAD DUP2 LT ISZERO PUSH2 0x99E JUMPI PUSH0 DUP5 DUP3 DUP2 MLOAD DUP2 LT PUSH2 0x1BF5 JUMPI PUSH2 0x1BF5 PUSH2 0x32A1 JUMP JUMPDEST PUSH1 0x20 MUL PUSH1 0x20 ADD ADD MLOAD SWAP1 POP PUSH2 0x1C5F PUSH1 0x7 DUP1 SLOAD DUP1 PUSH1 0x20 MUL PUSH1 0x20 ADD PUSH1 0x40 MLOAD SWAP1 DUP2 ADD PUSH1 0x40 MSTORE DUP1 SWAP3 SWAP2 SWAP1 DUP2 DUP2 MSTORE PUSH1 0x20 ADD DUP3 DUP1 SLOAD DUP1 ISZERO PUSH2 0x879 JUMPI PUSH1 0x20 MUL DUP3 ADD SWAP2 SWAP1 PUSH0 MSTORE PUSH1 0x20 PUSH0 KECCAK256 SWAP1 DUP2 SLOAD PUSH1 0x1 PUSH1 0x1 PUSH1 0xA0 SHL SUB AND DUP2 MSTORE PUSH1 0x1 SWAP1 SWAP2 ADD SWAP1 PUSH1 0x20 ADD DUP1 DUP4 GT PUSH2 0x85B JUMPI POP POP POP POP POP DUP3 PUSH2 0xB3A JUMP JUMPDEST ISZERO ISZERO PUSH0 SUB PUSH2 0x1CB2 JUMPI PUSH1 0x7 DUP1 SLOAD PUSH1 0x1 DUP2 ADD DUP3 SSTORE PUSH0 SWAP2 SWAP1 SWAP2 MSTORE PUSH32 0xA66CC928B5EDB82AF9BD49922954155AB7B0942694BEA4CE44661D9A8736C688 ADD DUP1 SLOAD PUSH1 0x1 PUSH1 0x1 PUSH1 0xA0 SHL SUB NOT AND PUSH1 0x1 PUSH1 0x1 PUSH1 0xA0 SHL SUB DUP4 AND OR SWAP1 SSTORE JUMPDEST DUP4 DUP3 DUP2 MLOAD DUP2 LT PUSH2 0x1CC4 JUMPI PUSH2 0x1CC4 PUSH2 0x32A1 JUMP JUMPDEST PUSH1 0x20 MUL PUSH1 0x20 ADD ADD MLOAD PUSH1 0xD PUSH0 DUP4 PUSH1 0x1 PUSH1 0x1 PUSH1 0xA0 SHL SUB AND PUSH1 0x1 PUSH1 0x1 PUSH1 0xA0 SHL SUB AND DUP2 MSTORE PUSH1 0x20 ADD SWAP1 DUP2 MSTORE PUSH1 0x20 ADD PUSH0 KECCAK256 PUSH0 PUSH2 0x100 EXP DUP2 SLOAD DUP2 PUSH1 0x1 PUSH1 0x1 PUSH1 0xA0 SHL SUB MUL NOT AND SWAP1 DUP4 PUSH1 0x1 PUSH1 0x1 PUSH1 0xA0 SHL SUB AND MUL OR SWAP1 SSTORE POP DUP3 DUP3 DUP2 MLOAD DUP2 LT PUSH2 0x1D24 JUMPI PUSH2 0x1D24 PUSH2 0x32A1 JUMP JUMPDEST PUSH1 0x20 SWAP1 DUP2 MUL SWAP2 SWAP1 SWAP2 ADD DUP2 ADD MLOAD PUSH1 0x1 PUSH1 0x1 PUSH1 0xA0 SHL SUB SWAP3 DUP4 AND PUSH0 SWAP1 DUP2 MSTORE PUSH1 0xA DUP4 MSTORE PUSH1 0x40 DUP1 DUP3 KECCAK256 DUP1 SLOAD PUSH1 0x1 PUSH1 0x1 PUSH1 0xA0 SHL SUB NOT AND SWAP6 SWAP1 SWAP4 AND SWAP5 SWAP1 SWAP5 OR SWAP1 SWAP2 SSTORE PUSH1 0x8 SWAP1 SWAP2 MSTORE KECCAK256 DUP1 SLOAD PUSH1 0xFF NOT AND PUSH1 0x1 SWAP1 DUP2 OR SWAP1 SWAP2 SSTORE ADD PUSH2 0x1BD9 JUMP JUMPDEST PUSH1 0x1 PUSH1 0x1 PUSH1 0xA0 SHL SUB DUP2 AND PUSH0 SWAP1 DUP2 MSTORE PUSH1 0x6 PUSH1 0x20 MSTORE PUSH1 0x40 SWAP1 KECCAK256 SLOAD DUP2 SWAP1 PUSH1 0xFF AND ISZERO ISZERO PUSH1 0x1 EQ PUSH2 0x1DE3 JUMPI PUSH1 0x40 MLOAD PUSH3 0x461BCD PUSH1 0xE5 SHL DUP2 MSTORE PUSH1 0x20 PUSH1 0x4 DUP3 ADD MSTORE PUSH1 0x19 PUSH1 0x24 DUP3 ADD MSTORE PUSH25 0x141BDBDB081D1BDAD95B881A5CC81B9BDD081858DD1A5D9959 PUSH1 0x3A SHL PUSH1 0x44 DUP3 ADD MSTORE PUSH1 0x64 ADD PUSH2 0x7F1 JUMP JUMPDEST PUSH1 0x40 MLOAD PUSH4 0x23B872DD PUSH1 0xE0 SHL DUP2 MSTORE PUSH1 0x1 PUSH1 0x1 PUSH1 0xA0 SHL SUB DUP4 AND SWAP1 PUSH4 0x23B872DD SWAP1 PUSH2 0x1E13 SWAP1 CALLER SWAP1 ADDRESS SWAP1 DUP9 SWAP1 PUSH1 0x4 ADD PUSH2 0x33C1 JUMP JUMPDEST PUSH1 0x20 PUSH1 0x40 MLOAD DUP1 DUP4 SUB DUP2 PUSH0 DUP8 GAS CALL ISZERO DUP1 ISZERO PUSH2 0x1E2F JUMPI RETURNDATASIZE PUSH0 DUP1 RETURNDATACOPY RETURNDATASIZE PUSH0 REVERT JUMPDEST POP POP POP POP PUSH1 0x40 MLOAD RETURNDATASIZE PUSH1 0x1F NOT PUSH1 0x1F DUP3 ADD AND DUP3 ADD DUP1 PUSH1 0x40 MSTORE POP DUP2 ADD SWAP1 PUSH2 0x1E53 SWAP2 SWAP1 PUSH2 0x33E5 JUMP JUMPDEST POP PUSH1 0x1 PUSH1 0x1 PUSH1 0xA0 SHL SUB DUP3 DUP2 AND PUSH0 DUP2 DUP2 MSTORE PUSH1 0x2 PUSH1 0x20 MSTORE PUSH1 0x40 SWAP1 DUP2 SWAP1 KECCAK256 SLOAD SWAP1 MLOAD PUSH4 0x95EA7B3 PUSH1 0xE0 SHL DUP2 MSTORE SWAP3 AND PUSH1 0x4 DUP4 ADD MSTORE PUSH1 0x24 DUP3 ADD DUP6 SWAP1 MSTORE SWAP1 PUSH4 0x95EA7B3 SWAP1 PUSH1 0x44 ADD PUSH1 0x20 PUSH1 0x40 MLOAD DUP1 DUP4 SUB DUP2 PUSH0 DUP8 GAS CALL ISZERO DUP1 ISZERO PUSH2 0x1EAF JUMPI RETURNDATASIZE PUSH0 DUP1 RETURNDATACOPY RETURNDATASIZE PUSH0 REVERT JUMPDEST POP POP POP POP PUSH1 0x40 MLOAD RETURNDATASIZE PUSH1 0x1F NOT PUSH1 0x1F DUP3 ADD AND DUP3 ADD DUP1 PUSH1 0x40 MSTORE POP DUP2 ADD SWAP1 PUSH2 0x1ED3 SWAP2 SWAP1 PUSH2 0x33E5 JUMP JUMPDEST POP PUSH1 0x1 PUSH1 0x1 PUSH1 0xA0 SHL SUB DUP3 DUP2 AND PUSH0 SWAP1 DUP2 MSTORE PUSH1 0x2 PUSH1 0x20 MSTORE PUSH1 0x40 SWAP1 DUP2 SWAP1 KECCAK256 SLOAD SWAP1 MLOAD PUSH4 0xD8AED145 PUSH1 0xE0 SHL DUP2 MSTORE PUSH1 0x4 DUP2 ADD DUP8 SWAP1 MSTORE PUSH1 0x24 DUP2 ADD DUP7 SWAP1 MSTORE SWAP2 AND SWAP1 PUSH4 0xD8AED145 SWAP1 PUSH1 0x44 ADD PUSH0 PUSH1 0x40 MLOAD DUP1 DUP4 SUB DUP2 PUSH0 DUP8 DUP1 EXTCODESIZE ISZERO DUP1 ISZERO PUSH2 0x1F2C JUMPI PUSH0 DUP1 REVERT JUMPDEST POP GAS CALL ISZERO DUP1 ISZERO PUSH2 0x1F3E JUMPI RETURNDATASIZE PUSH0 DUP1 RETURNDATACOPY RETURNDATASIZE PUSH0 REVERT JUMPDEST POP POP POP POP PUSH1 0x1 PUSH1 0x1 PUSH1 0xA0 SHL SUB DUP3 DUP2 AND PUSH0 SWAP1 DUP2 MSTORE PUSH1 0x2 PUSH1 0x20 MSTORE PUSH1 0x40 SWAP1 DUP2 SWAP1 KECCAK256 SLOAD SWAP1 MLOAD PUSH4 0xA52F38D1 PUSH1 0xE0 SHL DUP2 MSTORE PUSH1 0x4 DUP2 ADD DUP8 SWAP1 MSTORE SWAP2 AND SWAP1 PUSH4 0xA52F38D1 SWAP1 PUSH1 0x24 ADD PUSH1 0x20 PUSH1 0x40 MLOAD DUP1 DUP4 SUB DUP2 DUP7 GAS STATICCALL ISZERO DUP1 ISZERO PUSH2 0x1F97 JUMPI RETURNDATASIZE PUSH0 DUP1 RETURNDATACOPY RETURNDATASIZE PUSH0 REVERT JUMPDEST POP POP POP POP PUSH1 0x40 MLOAD RETURNDATASIZE PUSH1 0x1F NOT PUSH1 0x1F DUP3 ADD AND DUP3 ADD DUP1 PUSH1 0x40 MSTORE POP DUP2 ADD SWAP1 PUSH2 0x1FBB SWAP2 SWAP1 PUSH2 0x334D JUMP JUMPDEST PUSH0 SUB PUSH2 0x99E JUMPI PUSH0 DUP5 DUP2 MSTORE PUSH1 0x5 PUSH1 0x20 MSTORE PUSH1 0x40 DUP1 DUP3 KECCAK256 SLOAD DUP2 MLOAD PUSH4 0x232FA733 PUSH1 0xE0 SHL DUP2 MSTORE SWAP2 MLOAD PUSH1 0x1 PUSH1 0x1 PUSH1 0xA0 SHL SUB SWAP1 SWAP2 AND SWAP3 PUSH4 0x232FA733 SWAP3 PUSH1 0x4 DUP1 DUP3 ADD SWAP4 SWAP2 DUP3 SWAP1 SUB ADD DUP2 DUP4 DUP8 DUP1 EXTCODESIZE ISZERO DUP1 ISZERO PUSH2 0x180D JUMPI PUSH0 DUP1 REVERT JUMPDEST PUSH0 PUSH2 0x2016 DUP3 PUSH0 PUSH2 0x2961 JUMP JUMPDEST PUSH2 0x2710 DUP5 PUSH1 0x1 PUSH1 0x1 PUSH1 0xA0 SHL SUB AND PUSH4 0x313CE567 PUSH1 0x40 MLOAD DUP2 PUSH4 0xFFFFFFFF AND PUSH1 0xE0 SHL DUP2 MSTORE PUSH1 0x4 ADD PUSH1 0x20 PUSH1 0x40 MLOAD DUP1 DUP4 SUB DUP2 DUP7 GAS STATICCALL ISZERO DUP1 ISZERO PUSH2 0x2055 JUMPI RETURNDATASIZE PUSH0 DUP1 RETURNDATACOPY RETURNDATASIZE PUSH0 REVERT JUMPDEST POP POP POP POP PUSH1 0x40 MLOAD RETURNDATASIZE PUSH1 0x1F NOT PUSH1 0x1F DUP3 ADD AND DUP3 ADD DUP1 PUSH1 0x40 MSTORE POP DUP2 ADD SWAP1 PUSH2 0x2079 SWAP2 SWAP1 PUSH2 0x3413 JUMP JUMPDEST PUSH2 0x2084 SWAP1 PUSH1 0xA PUSH2 0x3516 JUMP JUMPDEST PUSH2 0x208F DUP7 PUSH1 0x1 PUSH2 0x2961 JUMP JUMPDEST PUSH1 0xB SLOAD DUP7 PUSH1 0x1 PUSH1 0x1 PUSH1 0xA0 SHL SUB AND PUSH4 0x313CE567 PUSH1 0x40 MLOAD DUP2 PUSH4 0xFFFFFFFF AND PUSH1 0xE0 SHL DUP2 MSTORE PUSH1 0x4 ADD PUSH1 0x20 PUSH1 0x40 MLOAD DUP1 DUP4 SUB DUP2 DUP7 GAS STATICCALL ISZERO DUP1 ISZERO PUSH2 0x20CE JUMPI RETURNDATASIZE PUSH0 DUP1 RETURNDATACOPY RETURNDATASIZE PUSH0 REVERT JUMPDEST POP POP POP POP PUSH1 0x40 MLOAD RETURNDATASIZE PUSH1 0x1F NOT PUSH1 0x1F DUP3 ADD AND DUP3 ADD DUP1 PUSH1 0x40 MSTORE POP DUP2 ADD SWAP1 PUSH2 0x20F2 SWAP2 SWAP1 PUSH2 0x3413 JUMP JUMPDEST PUSH2 0x20FD SWAP1 PUSH1 0xA PUSH2 0x3516 JUMP JUMPDEST PUSH2 0x2107 SWAP1 DUP11 PUSH2 0x338B JUMP JUMPDEST PUSH2 0x2111 SWAP2 SWAP1 PUSH2 0x338B JUMP JUMPDEST PUSH2 0x211B SWAP2 SWAP1 PUSH2 0x338B JUMP JUMPDEST PUSH2 0x2125 SWAP2 SWAP1 PUSH2 0x33A2 JUMP JUMPDEST PUSH2 0x212F SWAP2 SWAP1 PUSH2 0x33A2 JUMP JUMPDEST PUSH2 0x2139 SWAP2 SWAP1 PUSH2 0x33A2 JUMP JUMPDEST SWAP5 SWAP4 POP POP POP POP JUMP JUMPDEST PUSH1 0x1 PUSH1 0x1 PUSH1 0xA0 SHL SUB DUP6 AND PUSH0 SWAP1 DUP2 MSTORE PUSH1 0x6 PUSH1 0x20 MSTORE PUSH1 0x40 SWAP1 KECCAK256 SLOAD DUP6 SWAP1 PUSH1 0xFF AND ISZERO ISZERO PUSH1 0x1 EQ PUSH2 0x21AB JUMPI PUSH1 0x40 MLOAD PUSH3 0x461BCD PUSH1 0xE5 SHL DUP2 MSTORE PUSH1 0x20 PUSH1 0x4 DUP3 ADD MSTORE PUSH1 0x19 PUSH1 0x24 DUP3 ADD MSTORE PUSH25 0x141BDBDB081D1BDAD95B881A5CC81B9BDD081858DD1A5D9959 PUSH1 0x3A SHL PUSH1 0x44 DUP3 ADD MSTORE PUSH1 0x64 ADD PUSH2 0x7F1 JUMP JUMPDEST PUSH1 0x1 PUSH1 0x1 PUSH1 0xA0 SHL SUB DUP5 AND PUSH0 SWAP1 DUP2 MSTORE PUSH1 0x8 PUSH1 0x20 MSTORE PUSH1 0x40 SWAP1 KECCAK256 SLOAD DUP5 SWAP1 PUSH1 0xFF AND ISZERO ISZERO PUSH1 0x1 EQ PUSH2 0x2219 JUMPI PUSH1 0x40 MLOAD PUSH3 0x461BCD PUSH1 0xE5 SHL DUP2 MSTORE PUSH1 0x20 PUSH1 0x4 DUP3 ADD MSTORE PUSH1 0x1F PUSH1 0x24 DUP3 ADD MSTORE PUSH32 0x436F6C6C61746572616C20746F6B656E206973206E6F74206163746976656400 PUSH1 0x44 DUP3 ADD MSTORE PUSH1 0x64 ADD PUSH2 0x7F1 JUMP JUMPDEST DUP3 ISZERO PUSH2 0x22D4 JUMPI CALLVALUE DUP7 GT ISZERO PUSH2 0x226F JUMPI PUSH1 0x40 MLOAD PUSH3 0x461BCD PUSH1 0xE5 SHL DUP2 MSTORE PUSH1 0x20 PUSH1 0x4 DUP3 ADD DUP2 SWAP1 MSTORE PUSH1 0x24 DUP3 ADD MSTORE PUSH32 0x646F206E6F74206861766520656E6F756768206465706F736974656420455448 PUSH1 0x44 DUP3 ADD MSTORE PUSH1 0x64 ADD PUSH2 0x7F1 JUMP JUMPDEST PUSH1 0x13 PUSH0 SWAP1 SLOAD SWAP1 PUSH2 0x100 EXP SWAP1 DIV PUSH1 0x1 PUSH1 0x1 PUSH1 0xA0 SHL SUB AND PUSH1 0x1 PUSH1 0x1 PUSH1 0xA0 SHL SUB AND PUSH4 0xD0E30DB0 DUP8 PUSH1 0x40 MLOAD DUP3 PUSH4 0xFFFFFFFF AND PUSH1 0xE0 SHL DUP2 MSTORE PUSH1 0x4 ADD PUSH0 PUSH1 0x40 MLOAD DUP1 DUP4 SUB DUP2 DUP6 DUP9 DUP1 EXTCODESIZE ISZERO DUP1 ISZERO PUSH2 0x22BC JUMPI PUSH0 DUP1 REVERT JUMPDEST POP GAS CALL ISZERO DUP1 ISZERO PUSH2 0x22CE JUMPI RETURNDATASIZE PUSH0 DUP1 RETURNDATACOPY RETURNDATASIZE PUSH0 REVERT JUMPDEST POP POP POP POP POP JUMPDEST DUP7 PUSH1 0x1 PUSH1 0x1 PUSH1 0xA0 SHL SUB AND PUSH4 0x313CE567 PUSH1 0x40 MLOAD DUP2 PUSH4 0xFFFFFFFF AND PUSH1 0xE0 SHL DUP2 MSTORE PUSH1 0x4 ADD PUSH1 0x20 PUSH1 0x40 MLOAD DUP1 DUP4 SUB DUP2 DUP7 GAS STATICCALL ISZERO DUP1 ISZERO PUSH2 0x2310 JUMPI RETURNDATASIZE PUSH0 DUP1 RETURNDATACOPY RETURNDATASIZE PUSH0 REVERT JUMPDEST POP POP POP POP PUSH1 0x40 MLOAD RETURNDATASIZE PUSH1 0x1F NOT PUSH1 0x1F DUP3 ADD AND DUP3 ADD DUP1 PUSH1 0x40 MSTORE POP DUP2 ADD SWAP1 PUSH2 0x2334 SWAP2 SWAP1 PUSH2 0x3413 JUMP JUMPDEST PUSH2 0x233F SWAP1 PUSH1 0xA PUSH2 0x3516 JUMP JUMPDEST PUSH2 0x234A DUP9 PUSH1 0x1 PUSH2 0x2961 JUMP JUMPDEST PUSH2 0x2354 SWAP1 DUP11 PUSH2 0x338B JUMP JUMPDEST PUSH2 0x2360 SWAP1 PUSH2 0x2710 PUSH2 0x338B JUMP JUMPDEST PUSH2 0x236A SWAP2 SWAP1 PUSH2 0x33A2 JUMP JUMPDEST DUP6 PUSH1 0x1 PUSH1 0x1 PUSH1 0xA0 SHL SUB AND PUSH4 0x313CE567 PUSH1 0x40 MLOAD DUP2 PUSH4 0xFFFFFFFF AND PUSH1 0xE0 SHL DUP2 MSTORE PUSH1 0x4 ADD PUSH1 0x20 PUSH1 0x40 MLOAD DUP1 DUP4 SUB DUP2 DUP7 GAS STATICCALL ISZERO DUP1 ISZERO PUSH2 0x23A6 JUMPI RETURNDATASIZE PUSH0 DUP1 RETURNDATACOPY RETURNDATASIZE PUSH0 REVERT JUMPDEST POP POP POP POP PUSH1 0x40 MLOAD RETURNDATASIZE PUSH1 0x1F NOT PUSH1 0x1F DUP3 ADD AND DUP3 ADD DUP1 PUSH1 0x40 MSTORE POP DUP2 ADD SWAP1 PUSH2 0x23CA SWAP2 SWAP1 PUSH2 0x3413 JUMP JUMPDEST PUSH2 0x23D5 SWAP1 PUSH1 0xA PUSH2 0x3516 JUMP JUMPDEST PUSH1 0xB SLOAD PUSH2 0x23E2 DUP9 PUSH0 PUSH2 0x2961 JUMP JUMPDEST PUSH2 0x23EC SWAP1 DUP11 PUSH2 0x338B JUMP JUMPDEST PUSH2 0x23F6 SWAP2 SWAP1 PUSH2 0x338B JUMP JUMPDEST PUSH2 0x2400 SWAP2 SWAP1 PUSH2 0x33A2 JUMP JUMPDEST LT ISZERO PUSH2 0x244E JUMPI PUSH1 0x40 MLOAD PUSH3 0x461BCD PUSH1 0xE5 SHL DUP2 MSTORE PUSH1 0x20 PUSH1 0x4 DUP3 ADD MSTORE PUSH1 0x1C PUSH1 0x24 DUP3 ADD MSTORE PUSH32 0x446F6E2774206861766520656E6F75676820636F6C6C61746572616C00000000 PUSH1 0x44 DUP3 ADD MSTORE PUSH1 0x64 ADD PUSH2 0x7F1 JUMP JUMPDEST PUSH1 0x1 PUSH1 0x1 PUSH1 0xA0 SHL SUB DUP1 DUP9 AND PUSH0 SWAP1 DUP2 MSTORE PUSH1 0x2 PUSH1 0x20 SWAP1 DUP2 MSTORE PUSH1 0x40 SWAP2 DUP3 SWAP1 KECCAK256 SLOAD DUP3 MLOAD PUSH4 0x3B24CC21 PUSH1 0xE0 SHL DUP2 MSTORE SWAP3 MLOAD DUP13 SWAP5 SWAP2 SWAP1 SWAP2 AND SWAP3 PUSH4 0x3B24CC21 SWAP3 PUSH1 0x4 DUP1 DUP4 ADD SWAP4 SWAP2 SWAP3 DUP3 SWAP1 SUB ADD DUP2 DUP7 GAS STATICCALL ISZERO DUP1 ISZERO PUSH2 0x24A5 JUMPI RETURNDATASIZE PUSH0 DUP1 RETURNDATACOPY RETURNDATASIZE PUSH0 REVERT JUMPDEST POP POP POP POP PUSH1 0x40 MLOAD RETURNDATASIZE PUSH1 0x1F NOT PUSH1 0x1F DUP3 ADD AND DUP3 ADD DUP1 PUSH1 0x40 MSTORE POP DUP2 ADD SWAP1 PUSH2 0x24C9 SWAP2 SWAP1 PUSH2 0x334D JUMP JUMPDEST LT ISZERO PUSH2 0x2517 JUMPI PUSH1 0x40 MLOAD PUSH3 0x461BCD PUSH1 0xE5 SHL DUP2 MSTORE PUSH1 0x20 PUSH1 0x4 DUP3 ADD MSTORE PUSH1 0x1B PUSH1 0x24 DUP3 ADD MSTORE PUSH32 0x506F6F6C20646F6E2774206861766520656E6F7567682066756E640000000000 PUSH1 0x44 DUP3 ADD MSTORE PUSH1 0x64 ADD PUSH2 0x7F1 JUMP JUMPDEST PUSH1 0x40 DUP1 MLOAD PUSH1 0xC0 DUP2 ADD DUP3 MSTORE PUSH0 DUP2 DUP4 ADD DUP2 SWAP1 MSTORE PUSH1 0xA0 DUP3 ADD DUP2 SWAP1 MSTORE CALLER PUSH1 0x20 DUP1 DUP5 ADD DUP3 DUP2 MSTORE PUSH1 0x60 DUP6 ADD DUP15 DUP2 MSTORE PUSH1 0x1 SLOAD DUP7 MSTORE PUSH1 0x1 PUSH1 0x1 PUSH1 0xA0 SHL SUB DUP15 DUP2 AND PUSH1 0x80 DUP9 ADD DUP2 SWAP1 MSTORE DUP7 MSTORE PUSH1 0x2 SWAP1 SWAP4 MSTORE SWAP4 DUP7 SWAP1 KECCAK256 SLOAD DUP6 MLOAD SWAP5 MLOAD SWAP2 MLOAD SWAP7 MLOAD PUSH4 0x35AF683 PUSH1 0xE6 SHL DUP2 MSTORE PUSH1 0x4 DUP2 ADD SWAP6 SWAP1 SWAP6 MSTORE PUSH1 0x24 DUP6 ADD SWAP2 SWAP1 SWAP2 MSTORE SWAP5 DUP2 AND PUSH1 0x44 DUP5 ADD MSTORE SWAP3 SWAP4 SWAP1 SWAP3 AND SWAP1 PUSH4 0xD6BDA0C0 SWAP1 PUSH1 0x64 ADD PUSH0 PUSH1 0x40 MLOAD DUP1 DUP4 SUB DUP2 PUSH0 DUP8 DUP1 EXTCODESIZE ISZERO DUP1 ISZERO PUSH2 0x25B2 JUMPI PUSH0 DUP1 REVERT JUMPDEST POP GAS CALL ISZERO DUP1 ISZERO PUSH2 0x25C4 JUMPI RETURNDATASIZE PUSH0 DUP1 RETURNDATACOPY RETURNDATASIZE PUSH0 REVERT JUMPDEST POP POP POP PUSH1 0x1 PUSH1 0x1 PUSH1 0xA0 SHL SUB DUP1 DUP12 AND PUSH0 SWAP1 DUP2 MSTORE PUSH1 0xE PUSH1 0x20 MSTORE PUSH1 0x40 DUP2 KECCAK256 SLOAD PUSH1 0x4 SLOAD SWAP1 DUP4 AND SWAP4 POP DUP11 SWAP3 PUSH2 0x25F4 SWAP2 AND PUSH2 0x2BF5 JUMP JUMPDEST SWAP1 POP PUSH0 DUP2 SWAP1 POP DUP1 PUSH1 0x1 PUSH1 0x1 PUSH1 0xA0 SHL SUB AND PUSH4 0x83F8964E DUP8 DUP6 PUSH1 0x9 PUSH0 SWAP1 SLOAD SWAP1 PUSH2 0x100 EXP SWAP1 DIV PUSH1 0x1 PUSH1 0x1 PUSH1 0xA0 SHL SUB AND PUSH1 0xA PUSH0 DUP10 PUSH1 0x1 PUSH1 0x1 PUSH1 0xA0 SHL SUB AND PUSH1 0x1 PUSH1 0x1 PUSH1 0xA0 SHL SUB AND DUP2 MSTORE PUSH1 0x20 ADD SWAP1 DUP2 MSTORE PUSH1 0x20 ADD PUSH0 KECCAK256 PUSH0 SWAP1 SLOAD SWAP1 PUSH2 0x100 EXP SWAP1 DIV PUSH1 0x1 PUSH1 0x1 PUSH1 0xA0 SHL SUB AND PUSH1 0xB SLOAD PUSH1 0xC SLOAD PUSH1 0xD PUSH0 DUP13 PUSH1 0x1 PUSH1 0x1 PUSH1 0xA0 SHL SUB AND PUSH1 0x1 PUSH1 0x1 PUSH1 0xA0 SHL SUB AND DUP2 MSTORE PUSH1 0x20 ADD SWAP1 DUP2 MSTORE PUSH1 0x20 ADD PUSH0 KECCAK256 PUSH0 SWAP1 SLOAD SWAP1 PUSH2 0x100 EXP SWAP1 DIV PUSH1 0x1 PUSH1 0x1 PUSH1 0xA0 SHL SUB AND DUP13 PUSH1 0xF PUSH0 SWAP1 SLOAD SWAP1 PUSH2 0x100 EXP SWAP1 DIV PUSH1 0x1 PUSH1 0x1 PUSH1 0xA0 SHL SUB AND PUSH1 0x11 PUSH0 SWAP1 SLOAD SWAP1 PUSH2 0x100 EXP SWAP1 DIV PUSH1 0x1 PUSH1 0x1 PUSH1 0xA0 SHL SUB AND PUSH1 0x13 PUSH0 SWAP1 SLOAD SWAP1 PUSH2 0x100 EXP SWAP1 DIV PUSH1 0x1 PUSH1 0x1 PUSH1 0xA0 SHL SUB AND PUSH1 0x40 MLOAD DUP13 PUSH4 0xFFFFFFFF AND PUSH1 0xE0 SHL DUP2 MSTORE PUSH1 0x4 ADD PUSH2 0x26F8 SWAP12 SWAP11 SWAP10 SWAP9 SWAP8 SWAP7 SWAP6 SWAP5 SWAP4 SWAP3 SWAP2 SWAP1 PUSH2 0x3524 JUMP JUMPDEST PUSH0 PUSH1 0x40 MLOAD DUP1 DUP4 SUB DUP2 PUSH0 DUP8 DUP1 EXTCODESIZE ISZERO DUP1 ISZERO PUSH2 0x270F JUMPI PUSH0 DUP1 REVERT JUMPDEST POP GAS CALL ISZERO DUP1 ISZERO PUSH2 0x2721 JUMPI RETURNDATASIZE PUSH0 DUP1 RETURNDATACOPY RETURNDATASIZE PUSH0 REVERT JUMPDEST POP POP PUSH1 0x40 MLOAD PUSH4 0x8AC1B775 PUSH1 0xE0 SHL DUP2 MSTORE ADDRESS PUSH1 0x4 DUP3 ADD MSTORE PUSH1 0x1 PUSH1 0x1 PUSH1 0xA0 SHL SUB DUP5 AND SWAP3 POP PUSH4 0x8AC1B775 SWAP2 POP PUSH1 0x24 ADD PUSH0 PUSH1 0x40 MLOAD DUP1 DUP4 SUB DUP2 PUSH0 DUP8 DUP1 EXTCODESIZE ISZERO DUP1 ISZERO PUSH2 0x2763 JUMPI PUSH0 DUP1 REVERT JUMPDEST POP GAS CALL ISZERO DUP1 ISZERO PUSH2 0x2775 JUMPI RETURNDATASIZE PUSH0 DUP1 RETURNDATACOPY RETURNDATASIZE PUSH0 REVERT JUMPDEST POP POP POP POP DUP10 ISZERO ISZERO PUSH1 0x1 SUB PUSH2 0x27D2 JUMPI DUP1 PUSH1 0x1 PUSH1 0x1 PUSH1 0xA0 SHL SUB AND PUSH4 0x7A6BF69 PUSH1 0x40 MLOAD DUP2 PUSH4 0xFFFFFFFF AND PUSH1 0xE0 SHL DUP2 MSTORE PUSH1 0x4 ADD PUSH0 PUSH1 0x40 MLOAD DUP1 DUP4 SUB DUP2 PUSH0 DUP8 DUP1 EXTCODESIZE ISZERO DUP1 ISZERO PUSH2 0x27BB JUMPI PUSH0 DUP1 REVERT JUMPDEST POP GAS CALL ISZERO DUP1 ISZERO PUSH2 0x27CD JUMPI RETURNDATASIZE PUSH0 DUP1 RETURNDATACOPY RETURNDATASIZE PUSH0 REVERT JUMPDEST POP POP POP POP JUMPDEST PUSH1 0x40 MLOAD PUSH4 0x3390EF13 PUSH1 0xE1 SHL DUP2 MSTORE PUSH1 0x4 DUP2 ADD DUP14 SWAP1 MSTORE PUSH1 0x1 PUSH1 0x1 PUSH1 0xA0 SHL SUB DUP3 AND SWAP1 PUSH4 0x6721DE26 SWAP1 PUSH1 0x24 ADD PUSH0 PUSH1 0x40 MLOAD DUP1 DUP4 SUB DUP2 PUSH0 DUP8 DUP1 EXTCODESIZE ISZERO DUP1 ISZERO PUSH2 0x2811 JUMPI PUSH0 DUP1 REVERT JUMPDEST POP GAS CALL ISZERO DUP1 ISZERO PUSH2 0x2823 JUMPI RETURNDATASIZE PUSH0 DUP1 RETURNDATACOPY RETURNDATASIZE PUSH0 REVERT JUMPDEST POP POP POP POP DUP9 ISZERO PUSH2 0x28A3 JUMPI PUSH1 0x40 MLOAD PUSH4 0xA9059CBB PUSH1 0xE0 SHL DUP2 MSTORE PUSH1 0x1 PUSH1 0x1 PUSH1 0xA0 SHL SUB DUP4 DUP2 AND PUSH1 0x4 DUP4 ADD MSTORE PUSH1 0x24 DUP3 ADD DUP15 SWAP1 MSTORE DUP13 AND SWAP1 PUSH4 0xA9059CBB SWAP1 PUSH1 0x44 ADD PUSH1 0x20 PUSH1 0x40 MLOAD DUP1 DUP4 SUB DUP2 PUSH0 DUP8 GAS CALL ISZERO DUP1 ISZERO PUSH2 0x2879 JUMPI RETURNDATASIZE PUSH0 DUP1 RETURNDATACOPY RETURNDATASIZE PUSH0 REVERT JUMPDEST POP POP POP POP PUSH1 0x40 MLOAD RETURNDATASIZE PUSH1 0x1F NOT PUSH1 0x1F DUP3 ADD AND DUP3 ADD DUP1 PUSH1 0x40 MSTORE POP DUP2 ADD SWAP1 PUSH2 0x289D SWAP2 SWAP1 PUSH2 0x33E5 JUMP JUMPDEST POP PUSH2 0x2915 JUMP JUMPDEST DUP11 PUSH1 0x1 PUSH1 0x1 PUSH1 0xA0 SHL SUB AND PUSH4 0x23B872DD CALLER DUP5 DUP16 PUSH1 0x40 MLOAD DUP5 PUSH4 0xFFFFFFFF AND PUSH1 0xE0 SHL DUP2 MSTORE PUSH1 0x4 ADD PUSH2 0x28D3 SWAP4 SWAP3 SWAP2 SWAP1 PUSH2 0x33C1 JUMP JUMPDEST PUSH1 0x20 PUSH1 0x40 MLOAD DUP1 DUP4 SUB DUP2 PUSH0 DUP8 GAS CALL ISZERO DUP1 ISZERO PUSH2 0x28EF JUMPI RETURNDATASIZE PUSH0 DUP1 RETURNDATACOPY RETURNDATASIZE PUSH0 REVERT JUMPDEST POP POP POP POP PUSH1 0x40 MLOAD RETURNDATASIZE PUSH1 0x1F NOT PUSH1 0x1F DUP3 ADD AND DUP3 ADD DUP1 PUSH1 0x40 MSTORE POP DUP2 ADD SWAP1 PUSH2 0x2913 SWAP2 SWAP1 PUSH2 0x33E5 JUMP JUMPDEST POP JUMPDEST PUSH1 0x1 DUP1 SLOAD PUSH0 SWAP1 DUP2 MSTORE PUSH1 0x5 PUSH1 0x20 MSTORE PUSH1 0x40 DUP2 KECCAK256 DUP1 SLOAD PUSH1 0x1 PUSH1 0x1 PUSH1 0xA0 SHL SUB NOT AND PUSH1 0x1 PUSH1 0x1 PUSH1 0xA0 SHL SUB DUP6 AND OR SWAP1 SSTORE DUP2 SLOAD SWAP2 SWAP1 PUSH2 0x294C DUP4 PUSH2 0x360D JUMP JUMPDEST SWAP2 SWAP1 POP SSTORE POP POP POP POP POP POP POP POP POP POP POP POP POP POP POP JUMP JUMPDEST PUSH0 DUP2 ISZERO ISZERO DUP2 SUB PUSH2 0x29FE JUMPI PUSH1 0x1 PUSH1 0x1 PUSH1 0xA0 SHL SUB DUP1 DUP5 AND PUSH0 SWAP1 DUP2 MSTORE PUSH1 0xD PUSH1 0x20 MSTORE PUSH1 0x40 DUP1 DUP3 KECCAK256 SLOAD DUP2 MLOAD PUSH4 0x3FABE5A3 PUSH1 0xE2 SHL DUP2 MSTORE SWAP2 MLOAD SWAP3 SWAP4 DUP5 SWAP4 DUP5 SWAP4 DUP5 SWAP4 DUP5 SWAP4 AND SWAP2 PUSH4 0xFEAF968C SWAP2 PUSH1 0x4 DUP1 DUP3 ADD SWAP3 PUSH1 0xA0 SWAP3 SWAP1 SWAP2 SWAP1 DUP3 SWAP1 SUB ADD DUP2 DUP7 GAS STATICCALL ISZERO DUP1 ISZERO PUSH2 0x29C8 JUMPI RETURNDATASIZE PUSH0 DUP1 RETURNDATACOPY RETURNDATASIZE PUSH0 REVERT JUMPDEST POP POP POP POP PUSH1 0x40 MLOAD RETURNDATASIZE PUSH1 0x1F NOT PUSH1 0x1F DUP3 ADD AND DUP3 ADD DUP1 PUSH1 0x40 MSTORE POP DUP2 ADD SWAP1 PUSH2 0x29EC SWAP2 SWAP1 PUSH2 0x363E JUMP JUMPDEST POP SWAP2 SWAP9 POP PUSH2 0xB8E SWAP8 POP POP POP POP POP POP POP POP JUMP JUMPDEST PUSH1 0x1 PUSH1 0x1 PUSH1 0xA0 SHL SUB DUP1 DUP5 AND PUSH0 SWAP1 DUP2 MSTORE PUSH1 0xE PUSH1 0x20 MSTORE PUSH1 0x40 DUP1 DUP3 KECCAK256 SLOAD DUP2 MLOAD PUSH4 0x3FABE5A3 PUSH1 0xE2 SHL DUP2 MSTORE SWAP2 MLOAD SWAP3 SWAP4 DUP5 SWAP4 DUP5 SWAP4 DUP5 SWAP4 DUP5 SWAP4 AND SWAP2 PUSH4 0xFEAF968C SWAP2 PUSH1 0x4 DUP1 DUP3 ADD SWAP3 PUSH1 0xA0 SWAP3 SWAP1 SWAP2 SWAP1 DUP3 SWAP1 SUB ADD DUP2 DUP7 GAS STATICCALL ISZERO DUP1 ISZERO PUSH2 0x29C8 JUMPI RETURNDATASIZE PUSH0 DUP1 RETURNDATACOPY RETURNDATASIZE PUSH0 REVERT JUMPDEST PUSH1 0x12 SLOAD PUSH1 0x1 PUSH1 0x1 PUSH1 0xA0 SHL SUB AND CALLER EQ PUSH2 0x2A85 JUMPI PUSH1 0x40 MLOAD PUSH3 0x461BCD PUSH1 0xE5 SHL DUP2 MSTORE PUSH1 0x4 ADD PUSH2 0x7F1 SWAP1 PUSH2 0x3279 JUMP JUMPDEST PUSH1 0xB SWAP2 SWAP1 SWAP2 SSTORE PUSH1 0xC SSTORE JUMP JUMPDEST PUSH1 0x3 DUP2 DUP2 SLOAD DUP2 LT PUSH2 0x9B3 JUMPI PUSH0 DUP1 REVERT JUMPDEST PUSH0 DUP2 DUP2 MSTORE PUSH1 0x5 PUSH1 0x20 MSTORE PUSH1 0x40 DUP1 DUP3 KECCAK256 SLOAD DUP2 MLOAD PUSH4 0x5D3E2FA1 PUSH1 0xE0 SHL DUP2 MSTORE SWAP2 MLOAD PUSH1 0x1 PUSH1 0x1 PUSH1 0xA0 SHL SUB SWAP1 SWAP2 AND SWAP3 SWAP2 DUP4 SWAP2 PUSH4 0x5D3E2FA1 SWAP2 PUSH1 0x4 DUP1 DUP3 ADD SWAP3 PUSH1 0xC0 SWAP3 SWAP1 SWAP2 SWAP1 DUP3 SWAP1 SUB ADD DUP2 DUP7 GAS STATICCALL ISZERO DUP1 ISZERO PUSH2 0x2AF4 JUMPI RETURNDATASIZE PUSH0 DUP1 RETURNDATACOPY RETURNDATASIZE PUSH0 REVERT JUMPDEST POP POP POP POP PUSH1 0x40 MLOAD RETURNDATASIZE PUSH1 0x1F NOT PUSH1 0x1F DUP3 ADD AND DUP3 ADD DUP1 PUSH1 0x40 MSTORE POP DUP2 ADD SWAP1 PUSH2 0x2B18 SWAP2 SWAP1 PUSH2 0x32B5 JUMP JUMPDEST PUSH1 0x1 PUSH1 0x1 PUSH1 0xA0 SHL SUB DUP6 DUP2 AND PUSH0 SWAP1 DUP2 MSTORE PUSH1 0x2 PUSH1 0x20 SWAP1 DUP2 MSTORE PUSH1 0x40 SWAP2 DUP3 SWAP1 KECCAK256 SLOAD SWAP1 DUP5 ADD MLOAD SWAP2 MLOAD PUSH4 0xEC7BE39D PUSH1 0xE0 SHL DUP2 MSTORE SWAP2 DUP4 AND PUSH1 0x4 DUP4 ADD MSTORE PUSH1 0x24 DUP3 ADD DUP8 SWAP1 MSTORE SWAP3 SWAP4 POP SWAP2 AND SWAP1 PUSH4 0xEC7BE39D SWAP1 PUSH1 0x44 ADD PUSH2 0x17F6 JUMP JUMPDEST PUSH1 0x12 SLOAD PUSH1 0x1 PUSH1 0x1 PUSH1 0xA0 SHL SUB AND CALLER EQ PUSH2 0x2B92 JUMPI PUSH1 0x40 MLOAD PUSH3 0x461BCD PUSH1 0xE5 SHL DUP2 MSTORE PUSH1 0x4 ADD PUSH2 0x7F1 SWAP1 PUSH2 0x3279 JUMP JUMPDEST PUSH1 0x16 SSTORE PUSH1 0x15 SSTORE PUSH1 0x14 SSTORE JUMP JUMPDEST PUSH1 0x12 SLOAD PUSH1 0x1 PUSH1 0x1 PUSH1 0xA0 SHL SUB AND CALLER EQ PUSH2 0x2BC7 JUMPI PUSH1 0x40 MLOAD PUSH3 0x461BCD PUSH1 0xE5 SHL DUP2 MSTORE PUSH1 0x4 ADD PUSH2 0x7F1 SWAP1 PUSH2 0x3279 JUMP JUMPDEST PUSH1 0x10 DUP1 SLOAD PUSH1 0x1 PUSH1 0x1 PUSH1 0xA0 SHL SUB SWAP4 DUP5 AND PUSH1 0x1 PUSH1 0x1 PUSH1 0xA0 SHL SUB NOT SWAP2 DUP3 AND OR SWAP1 SWAP2 SSTORE PUSH1 0x11 DUP1 SLOAD SWAP3 SWAP1 SWAP4 AND SWAP2 AND OR SWAP1 SSTORE JUMP JUMPDEST PUSH0 PUSH23 0x3D602D80600A3D3981F3363D3D373D3D3D363D73000000 DUP3 PUSH1 0x60 SHL PUSH1 0xE8 SHR OR PUSH0 MSTORE PUSH15 0x5AF43D82803E903D91602B57FD5BF3 DUP3 PUSH1 0x78 SHL OR PUSH1 0x20 MSTORE PUSH1 0x37 PUSH1 0x9 PUSH0 CREATE SWAP1 POP PUSH1 0x1 PUSH1 0x1 PUSH1 0xA0 SHL SUB DUP2 AND PUSH2 0x2C5F JUMPI PUSH1 0x40 MLOAD PUSH4 0x30BE1A3D PUSH1 0xE2 SHL DUP2 MSTORE PUSH1 0x4 ADD PUSH1 0x40 MLOAD DUP1 SWAP2 SUB SWAP1 REVERT JUMPDEST SWAP2 SWAP1 POP JUMP JUMPDEST DUP3 DUP1 SLOAD DUP3 DUP3 SSTORE SWAP1 PUSH0 MSTORE PUSH1 0x20 PUSH0 KECCAK256 SWAP1 DUP2 ADD SWAP3 DUP3 ISZERO PUSH2 0x2CB7 JUMPI SWAP2 PUSH1 0x20 MUL DUP3 ADD JUMPDEST DUP3 DUP2 GT ISZERO PUSH2 0x2CB7 JUMPI DUP3 MLOAD DUP3 SLOAD PUSH1 0x1 PUSH1 0x1 PUSH1 0xA0 SHL SUB NOT AND PUSH1 0x1 PUSH1 0x1 PUSH1 0xA0 SHL SUB SWAP1 SWAP2 AND OR DUP3 SSTORE PUSH1 0x20 SWAP1 SWAP3 ADD SWAP2 PUSH1 0x1 SWAP1 SWAP2 ADD SWAP1 PUSH2 0x2C82 JUMP JUMPDEST POP PUSH2 0x2CC3 SWAP3 SWAP2 POP PUSH2 0x2CC7 JUMP JUMPDEST POP SWAP1 JUMP JUMPDEST JUMPDEST DUP1 DUP3 GT ISZERO PUSH2 0x2CC3 JUMPI PUSH0 DUP2 SSTORE PUSH1 0x1 ADD PUSH2 0x2CC8 JUMP JUMPDEST PUSH4 0x4E487B71 PUSH1 0xE0 SHL PUSH0 MSTORE PUSH1 0x41 PUSH1 0x4 MSTORE PUSH1 0x24 PUSH0 REVERT JUMPDEST PUSH1 0x40 MLOAD PUSH1 0x1F DUP3 ADD PUSH1 0x1F NOT AND DUP2 ADD PUSH1 0x1 PUSH1 0x1 PUSH1 0x40 SHL SUB DUP2 GT DUP3 DUP3 LT OR ISZERO PUSH2 0x2D17 JUMPI PUSH2 0x2D17 PUSH2 0x2CDB JUMP JUMPDEST PUSH1 0x40 MSTORE SWAP2 SWAP1 POP JUMP JUMPDEST PUSH0 PUSH1 0x1 PUSH1 0x1 PUSH1 0x40 SHL SUB DUP3 GT ISZERO PUSH2 0x2D37 JUMPI PUSH2 0x2D37 PUSH2 0x2CDB JUMP JUMPDEST POP PUSH1 0x5 SHL PUSH1 0x20 ADD SWAP1 JUMP JUMPDEST PUSH1 0x1 PUSH1 0x1 PUSH1 0xA0 SHL SUB DUP2 AND DUP2 EQ PUSH2 0x2D55 JUMPI PUSH0 DUP1 REVERT JUMPDEST POP JUMP JUMPDEST PUSH0 DUP3 PUSH1 0x1F DUP4 ADD SLT PUSH2 0x2D67 JUMPI PUSH0 DUP1 REVERT JUMPDEST DUP2 CALLDATALOAD PUSH2 0x2D7A PUSH2 0x2D75 DUP3 PUSH2 0x2D1F JUMP JUMPDEST PUSH2 0x2CEF JUMP JUMPDEST DUP1 DUP3 DUP3 MSTORE PUSH1 0x20 DUP3 ADD SWAP2 POP PUSH1 0x20 DUP4 PUSH1 0x5 SHL DUP7 ADD ADD SWAP3 POP DUP6 DUP4 GT ISZERO PUSH2 0x2D9B JUMPI PUSH0 DUP1 REVERT JUMPDEST PUSH1 0x20 DUP6 ADD JUMPDEST DUP4 DUP2 LT ISZERO PUSH2 0x2DC1 JUMPI DUP1 CALLDATALOAD PUSH2 0x2DB3 DUP2 PUSH2 0x2D41 JUMP JUMPDEST DUP4 MSTORE PUSH1 0x20 SWAP3 DUP4 ADD SWAP3 ADD PUSH2 0x2DA0 JUMP JUMPDEST POP SWAP6 SWAP5 POP POP POP POP POP JUMP JUMPDEST PUSH0 DUP1 PUSH0 PUSH1 0x60 DUP5 DUP7 SUB SLT ISZERO PUSH2 0x2DDD JUMPI PUSH0 DUP1 REVERT JUMPDEST DUP4 CALLDATALOAD PUSH1 0x1 PUSH1 0x1 PUSH1 0x40 SHL SUB DUP2 GT ISZERO PUSH2 0x2DF2 JUMPI PUSH0 DUP1 REVERT JUMPDEST PUSH2 0x2DFE DUP7 DUP3 DUP8 ADD PUSH2 0x2D58 JUMP JUMPDEST SWAP4 POP POP PUSH1 0x20 DUP5 ADD CALLDATALOAD PUSH1 0x1 PUSH1 0x1 PUSH1 0x40 SHL SUB DUP2 GT ISZERO PUSH2 0x2E19 JUMPI PUSH0 DUP1 REVERT JUMPDEST PUSH2 0x2E25 DUP7 DUP3 DUP8 ADD PUSH2 0x2D58 JUMP JUMPDEST SWAP3 POP POP PUSH1 0x40 DUP5 ADD CALLDATALOAD PUSH1 0x1 PUSH1 0x1 PUSH1 0x40 SHL SUB DUP2 GT ISZERO PUSH2 0x2E40 JUMPI PUSH0 DUP1 REVERT JUMPDEST PUSH2 0x2E4C DUP7 DUP3 DUP8 ADD PUSH2 0x2D58 JUMP JUMPDEST SWAP2 POP POP SWAP3 POP SWAP3 POP SWAP3 JUMP JUMPDEST PUSH0 PUSH1 0x20 DUP3 DUP5 SUB SLT ISZERO PUSH2 0x2E66 JUMPI PUSH0 DUP1 REVERT JUMPDEST POP CALLDATALOAD SWAP2 SWAP1 POP JUMP JUMPDEST PUSH0 DUP1 PUSH1 0x40 DUP4 DUP6 SUB SLT ISZERO PUSH2 0x2E7E JUMPI PUSH0 DUP1 REVERT JUMPDEST DUP3 CALLDATALOAD PUSH1 0x1 PUSH1 0x1 PUSH1 0x40 SHL SUB DUP2 GT ISZERO PUSH2 0x2E93 JUMPI PUSH0 DUP1 REVERT JUMPDEST PUSH2 0x2E9F DUP6 DUP3 DUP7 ADD PUSH2 0x2D58 JUMP JUMPDEST SWAP3 POP POP PUSH1 0x20 DUP4 ADD CALLDATALOAD PUSH2 0x2EB0 DUP2 PUSH2 0x2D41 JUMP JUMPDEST DUP1 SWAP2 POP POP SWAP3 POP SWAP3 SWAP1 POP JUMP JUMPDEST DUP1 CALLDATALOAD PUSH2 0x2C5F DUP2 PUSH2 0x2D41 JUMP JUMPDEST PUSH0 PUSH1 0x20 DUP3 DUP5 SUB SLT ISZERO PUSH2 0x2ED6 JUMPI PUSH0 DUP1 REVERT JUMPDEST DUP2 CALLDATALOAD PUSH2 0x2EE1 DUP2 PUSH2 0x2D41 JUMP JUMPDEST SWAP4 SWAP3 POP POP POP JUMP JUMPDEST DUP1 ISZERO ISZERO DUP2 EQ PUSH2 0x2D55 JUMPI PUSH0 DUP1 REVERT JUMPDEST PUSH0 DUP1 PUSH0 PUSH1 0x60 DUP5 DUP7 SUB SLT ISZERO PUSH2 0x2F07 JUMPI PUSH0 DUP1 REVERT JUMPDEST DUP4 CALLDATALOAD PUSH2 0x2F12 DUP2 PUSH2 0x2D41 JUMP JUMPDEST SWAP3 POP PUSH1 0x20 DUP5 ADD CALLDATALOAD PUSH2 0x2F22 DUP2 PUSH2 0x2EE8 JUMP JUMPDEST SWAP2 POP PUSH1 0x40 DUP5 ADD CALLDATALOAD PUSH2 0x2F32 DUP2 PUSH2 0x2EE8 JUMP JUMPDEST DUP1 SWAP2 POP POP SWAP3 POP SWAP3 POP SWAP3 JUMP JUMPDEST PUSH0 DUP1 PUSH0 DUP1 PUSH1 0x80 DUP6 DUP8 SUB SLT ISZERO PUSH2 0x2F50 JUMPI PUSH0 DUP1 REVERT JUMPDEST DUP5 CALLDATALOAD SWAP4 POP PUSH1 0x20 DUP6 ADD CALLDATALOAD SWAP3 POP PUSH1 0x40 DUP6 ADD CALLDATALOAD PUSH2 0x2F69 DUP2 PUSH2 0x2D41 JUMP JUMPDEST SWAP2 POP PUSH1 0x60 DUP6 ADD CALLDATALOAD PUSH2 0x2F79 DUP2 PUSH2 0x2EE8 JUMP JUMPDEST SWAP4 SWAP7 SWAP3 SWAP6 POP SWAP1 SWAP4 POP POP JUMP JUMPDEST PUSH0 DUP1 PUSH1 0x40 DUP4 DUP6 SUB SLT ISZERO PUSH2 0x2F95 JUMPI PUSH0 DUP1 REVERT JUMPDEST DUP3 CALLDATALOAD SWAP2 POP PUSH1 0x20 DUP4 ADD CALLDATALOAD PUSH2 0x2EB0 DUP2 PUSH2 0x2EE8 JUMP JUMPDEST PUSH0 DUP1 PUSH0 DUP1 PUSH0 DUP1 PUSH0 DUP1 PUSH0 DUP1 PUSH2 0x140 DUP12 DUP14 SUB SLT ISZERO PUSH2 0x2FC1 JUMPI PUSH0 DUP1 REVERT JUMPDEST DUP11 CALLDATALOAD PUSH1 0x1 PUSH1 0x1 PUSH1 0x40 SHL SUB DUP2 GT ISZERO PUSH2 0x2FD6 JUMPI PUSH0 DUP1 REVERT JUMPDEST PUSH2 0x2FE2 DUP14 DUP3 DUP15 ADD PUSH2 0x2D58 JUMP JUMPDEST SWAP11 POP POP PUSH1 0x20 DUP12 ADD CALLDATALOAD PUSH1 0x1 PUSH1 0x1 PUSH1 0x40 SHL SUB DUP2 GT ISZERO PUSH2 0x2FFD JUMPI PUSH0 DUP1 REVERT JUMPDEST PUSH2 0x3009 DUP14 DUP3 DUP15 ADD PUSH2 0x2D58 JUMP JUMPDEST SWAP10 POP POP PUSH1 0x40 DUP12 ADD CALLDATALOAD PUSH1 0x1 PUSH1 0x1 PUSH1 0x40 SHL SUB DUP2 GT ISZERO PUSH2 0x3024 JUMPI PUSH0 DUP1 REVERT JUMPDEST PUSH2 0x3030 DUP14 DUP3 DUP15 ADD PUSH2 0x2D58 JUMP JUMPDEST SWAP9 POP POP PUSH1 0x60 DUP12 ADD CALLDATALOAD PUSH1 0x1 PUSH1 0x1 PUSH1 0x40 SHL SUB DUP2 GT ISZERO PUSH2 0x304B JUMPI PUSH0 DUP1 REVERT JUMPDEST PUSH2 0x3057 DUP14 DUP3 DUP15 ADD PUSH2 0x2D58 JUMP JUMPDEST SWAP8 POP POP PUSH1 0x80 DUP12 ADD CALLDATALOAD PUSH1 0x1 PUSH1 0x1 PUSH1 0x40 SHL SUB DUP2 GT ISZERO PUSH2 0x3072 JUMPI PUSH0 DUP1 REVERT JUMPDEST PUSH2 0x307E DUP14 DUP3 DUP15 ADD PUSH2 0x2D58 JUMP JUMPDEST SWAP7 POP POP PUSH1 0xA0 DUP12 ADD CALLDATALOAD PUSH1 0x1 PUSH1 0x1 PUSH1 0x40 SHL SUB DUP2 GT ISZERO PUSH2 0x3099 JUMPI PUSH0 DUP1 REVERT JUMPDEST PUSH2 0x30A5 DUP14 DUP3 DUP15 ADD PUSH2 0x2D58 JUMP JUMPDEST SWAP6 POP POP PUSH2 0x30B4 PUSH1 0xC0 DUP13 ADD PUSH2 0x2EBB JUMP JUMPDEST SWAP4 POP PUSH1 0xE0 DUP12 ADD CALLDATALOAD SWAP3 POP PUSH2 0x100 DUP12 ADD CALLDATALOAD SWAP2 POP PUSH2 0x30D2 PUSH2 0x120 DUP13 ADD PUSH2 0x2EBB JUMP JUMPDEST SWAP1 POP SWAP3 SWAP6 SWAP9 SWAP12 SWAP2 SWAP5 SWAP8 SWAP11 POP SWAP3 SWAP6 SWAP9 POP JUMP JUMPDEST PUSH0 DUP1 PUSH0 PUSH1 0x60 DUP5 DUP7 SUB SLT ISZERO PUSH2 0x30F5 JUMPI PUSH0 DUP1 REVERT JUMPDEST DUP4 CALLDATALOAD SWAP3 POP PUSH1 0x20 DUP5 ADD CALLDATALOAD SWAP2 POP PUSH1 0x40 DUP5 ADD CALLDATALOAD PUSH2 0x2F32 DUP2 PUSH2 0x2D41 JUMP JUMPDEST PUSH0 DUP1 PUSH0 PUSH1 0x60 DUP5 DUP7 SUB SLT ISZERO PUSH2 0x3120 JUMPI PUSH0 DUP1 REVERT JUMPDEST DUP4 CALLDATALOAD SWAP3 POP PUSH1 0x20 DUP5 ADD CALLDATALOAD PUSH2 0x3132 DUP2 PUSH2 0x2D41 JUMP JUMPDEST SWAP2 POP PUSH1 0x40 DUP5 ADD CALLDATALOAD PUSH2 0x2F32 DUP2 PUSH2 0x2D41 JUMP JUMPDEST PUSH0 DUP1 PUSH0 DUP1 PUSH0 DUP1 PUSH1 0xC0 DUP8 DUP10 SUB SLT ISZERO PUSH2 0x3157 JUMPI PUSH0 DUP1 REVERT JUMPDEST DUP7 CALLDATALOAD SWAP6 POP PUSH1 0x20 DUP8 ADD CALLDATALOAD PUSH2 0x3169 DUP2 PUSH2 0x2D41 JUMP JUMPDEST SWAP5 POP PUSH1 0x40 DUP8 ADD CALLDATALOAD SWAP4 POP PUSH1 0x60 DUP8 ADD CALLDATALOAD PUSH2 0x3180 DUP2 PUSH2 0x2D41 JUMP JUMPDEST SWAP3 POP PUSH1 0x80 DUP8 ADD CALLDATALOAD PUSH2 0x3190 DUP2 PUSH2 0x2EE8 JUMP JUMPDEST SWAP2 POP PUSH1 0xA0 DUP8 ADD CALLDATALOAD PUSH2 0x31A0 DUP2 PUSH2 0x2EE8 JUMP JUMPDEST DUP1 SWAP2 POP POP SWAP3 SWAP6 POP SWAP3 SWAP6 POP SWAP3 SWAP6 JUMP JUMPDEST PUSH0 DUP1 PUSH1 0x40 DUP4 DUP6 SUB SLT ISZERO PUSH2 0x31BF JUMPI PUSH0 DUP1 REVERT JUMPDEST DUP3 CALLDATALOAD PUSH2 0x31CA DUP2 PUSH2 0x2D41 JUMP JUMPDEST SWAP2 POP PUSH1 0x20 DUP4 ADD CALLDATALOAD PUSH2 0x2EB0 DUP2 PUSH2 0x2EE8 JUMP JUMPDEST PUSH0 DUP1 PUSH1 0x40 DUP4 DUP6 SUB SLT ISZERO PUSH2 0x31EB JUMPI PUSH0 DUP1 REVERT JUMPDEST POP POP DUP1 CALLDATALOAD SWAP3 PUSH1 0x20 SWAP1 SWAP2 ADD CALLDATALOAD SWAP2 POP JUMP JUMPDEST PUSH0 DUP1 PUSH1 0x40 DUP4 DUP6 SUB SLT ISZERO PUSH2 0x320B JUMPI PUSH0 DUP1 REVERT JUMPDEST DUP3 CALLDATALOAD PUSH2 0x3216 DUP2 PUSH2 0x2D41 JUMP JUMPDEST SWAP2 POP PUSH1 0x20 DUP4 ADD CALLDATALOAD PUSH2 0x2EB0 DUP2 PUSH2 0x2D41 JUMP JUMPDEST PUSH0 DUP1 PUSH1 0x40 DUP4 DUP6 SUB SLT ISZERO PUSH2 0x3237 JUMPI PUSH0 DUP1 REVERT JUMPDEST DUP3 CALLDATALOAD PUSH2 0x3242 DUP2 PUSH2 0x2D41 JUMP JUMPDEST SWAP5 PUSH1 0x20 SWAP4 SWAP1 SWAP4 ADD CALLDATALOAD SWAP4 POP POP POP JUMP JUMPDEST PUSH0 DUP1 PUSH0 PUSH1 0x60 DUP5 DUP7 SUB SLT ISZERO PUSH2 0x3262 JUMPI PUSH0 DUP1 REVERT JUMPDEST POP POP DUP2 CALLDATALOAD SWAP4 PUSH1 0x20 DUP4 ADD CALLDATALOAD SWAP4 POP PUSH1 0x40 SWAP1 SWAP3 ADD CALLDATALOAD SWAP2 SWAP1 POP JUMP JUMPDEST PUSH1 0x20 DUP1 DUP3 MSTORE PUSH1 0xE SWAP1 DUP3 ADD MSTORE PUSH14 0x37B7363C903A34329037BBB732B9 PUSH1 0x91 SHL PUSH1 0x40 DUP3 ADD MSTORE PUSH1 0x60 ADD SWAP1 JUMP JUMPDEST PUSH4 0x4E487B71 PUSH1 0xE0 SHL PUSH0 MSTORE PUSH1 0x32 PUSH1 0x4 MSTORE PUSH1 0x24 PUSH0 REVERT JUMPDEST PUSH0 PUSH1 0xC0 DUP3 DUP5 SUB SLT DUP1 ISZERO PUSH2 0x32C6 JUMPI PUSH0 DUP1 REVERT JUMPDEST POP PUSH1 0x40 MLOAD PUSH1 0xC0 DUP2 ADD PUSH1 0x1 PUSH1 0x1 PUSH1 0x40 SHL SUB DUP2 GT DUP3 DUP3 LT OR ISZERO PUSH2 0x32E9 JUMPI PUSH2 0x32E9 PUSH2 0x2CDB JUMP JUMPDEST PUSH1 0x40 MSTORE DUP3 MLOAD DUP2 MSTORE PUSH1 0x20 DUP4 ADD MLOAD PUSH2 0x32FE DUP2 PUSH2 0x2D41 JUMP JUMPDEST PUSH1 0x20 DUP3 ADD MSTORE PUSH1 0x40 DUP4 ADD MLOAD PUSH2 0x3311 DUP2 PUSH2 0x2EE8 JUMP JUMPDEST PUSH1 0x40 DUP3 ADD MSTORE PUSH1 0x60 DUP4 DUP2 ADD MLOAD SWAP1 DUP3 ADD MSTORE PUSH1 0x80 DUP4 ADD MLOAD PUSH2 0x332E DUP2 PUSH2 0x2D41 JUMP JUMPDEST PUSH1 0x80 DUP3 ADD MSTORE PUSH1 0xA0 DUP4 ADD MLOAD PUSH2 0x3341 DUP2 PUSH2 0x2EE8 JUMP JUMPDEST PUSH1 0xA0 DUP3 ADD MSTORE SWAP4 SWAP3 POP POP POP JUMP JUMPDEST PUSH0 PUSH1 0x20 DUP3 DUP5 SUB SLT ISZERO PUSH2 0x335D JUMPI PUSH0 DUP1 REVERT JUMPDEST POP MLOAD SWAP2 SWAP1 POP JUMP JUMPDEST PUSH4 0x4E487B71 PUSH1 0xE0 SHL PUSH0 MSTORE PUSH1 0x11 PUSH1 0x4 MSTORE PUSH1 0x24 PUSH0 REVERT JUMPDEST DUP1 DUP3 ADD DUP1 DUP3 GT ISZERO PUSH2 0xB8E JUMPI PUSH2 0xB8E PUSH2 0x3364 JUMP JUMPDEST DUP1 DUP3 MUL DUP2 ISZERO DUP3 DUP3 DIV DUP5 EQ OR PUSH2 0xB8E JUMPI PUSH2 0xB8E PUSH2 0x3364 JUMP JUMPDEST PUSH0 DUP3 PUSH2 0x33BC JUMPI PUSH4 0x4E487B71 PUSH1 0xE0 SHL PUSH0 MSTORE PUSH1 0x12 PUSH1 0x4 MSTORE PUSH1 0x24 PUSH0 REVERT JUMPDEST POP DIV SWAP1 JUMP JUMPDEST PUSH1 0x1 PUSH1 0x1 PUSH1 0xA0 SHL SUB SWAP4 DUP5 AND DUP2 MSTORE SWAP2 SWAP1 SWAP3 AND PUSH1 0x20 DUP3 ADD MSTORE PUSH1 0x40 DUP2 ADD SWAP2 SWAP1 SWAP2 MSTORE PUSH1 0x60 ADD SWAP1 JUMP JUMPDEST PUSH0 PUSH1 0x20 DUP3 DUP5 SUB SLT ISZERO PUSH2 0x33F5 JUMPI PUSH0 DUP1 REVERT JUMPDEST DUP2 MLOAD PUSH2 0x2EE1 DUP2 PUSH2 0x2EE8 JUMP JUMPDEST DUP2 DUP2 SUB DUP2 DUP2 GT ISZERO PUSH2 0xB8E JUMPI PUSH2 0xB8E PUSH2 0x3364 JUMP JUMPDEST PUSH0 PUSH1 0x20 DUP3 DUP5 SUB SLT ISZERO PUSH2 0x3423 JUMPI PUSH0 DUP1 REVERT JUMPDEST DUP2 MLOAD PUSH1 0xFF DUP2 AND DUP2 EQ PUSH2 0x2EE1 JUMPI PUSH0 DUP1 REVERT JUMPDEST PUSH1 0x1 DUP2 JUMPDEST PUSH1 0x1 DUP5 GT ISZERO PUSH2 0x346E JUMPI DUP1 DUP6 DIV DUP2 GT ISZERO PUSH2 0x3452 JUMPI PUSH2 0x3452 PUSH2 0x3364 JUMP JUMPDEST PUSH1 0x1 DUP5 AND ISZERO PUSH2 0x3460 JUMPI SWAP1 DUP2 MUL SWAP1 JUMPDEST PUSH1 0x1 SWAP4 SWAP1 SWAP4 SHR SWAP3 DUP1 MUL PUSH2 0x3437 JUMP JUMPDEST SWAP4 POP SWAP4 SWAP2 POP POP JUMP JUMPDEST PUSH0 DUP3 PUSH2 0x3484 JUMPI POP PUSH1 0x1 PUSH2 0xB8E JUMP JUMPDEST DUP2 PUSH2 0x3490 JUMPI POP PUSH0 PUSH2 0xB8E JUMP JUMPDEST DUP2 PUSH1 0x1 DUP2 EQ PUSH2 0x34A6 JUMPI PUSH1 0x2 DUP2 EQ PUSH2 0x34B0 JUMPI PUSH2 0x34CC JUMP JUMPDEST PUSH1 0x1 SWAP2 POP POP PUSH2 0xB8E JUMP JUMPDEST PUSH1 0xFF DUP5 GT ISZERO PUSH2 0x34C1 JUMPI PUSH2 0x34C1 PUSH2 0x3364 JUMP JUMPDEST POP POP PUSH1 0x1 DUP3 SHL PUSH2 0xB8E JUMP JUMPDEST POP PUSH1 0x20 DUP4 LT PUSH2 0x133 DUP4 LT AND PUSH1 0x4E DUP5 LT PUSH1 0xB DUP5 LT AND OR ISZERO PUSH2 0x34EF JUMPI POP DUP2 DUP2 EXP PUSH2 0xB8E JUMP JUMPDEST PUSH2 0x34FB PUSH0 NOT DUP5 DUP5 PUSH2 0x3433 JUMP JUMPDEST DUP1 PUSH0 NOT DIV DUP3 GT ISZERO PUSH2 0x350E JUMPI PUSH2 0x350E PUSH2 0x3364 JUMP JUMPDEST MUL SWAP4 SWAP3 POP POP POP JUMP JUMPDEST PUSH0 PUSH2 0x2EE1 PUSH1 0xFF DUP5 AND DUP4 PUSH2 0x3476 JUMP JUMPDEST DUP12 MLOAD DUP2 MSTORE PUSH1 0x20 DUP1 DUP14 ADD MLOAD PUSH1 0x1 PUSH1 0x1 PUSH1 0xA0 SHL SUB SWAP1 DUP2 AND SWAP2 DUP4 ADD SWAP2 SWAP1 SWAP2 MSTORE PUSH1 0x40 DUP1 DUP15 ADD MLOAD ISZERO ISZERO SWAP1 DUP4 ADD MSTORE PUSH1 0x60 DUP1 DUP15 ADD MLOAD SWAP1 DUP4 ADD MSTORE PUSH1 0x80 DUP1 DUP15 ADD MLOAD DUP3 AND SWAP1 DUP4 ADD MSTORE PUSH1 0xA0 DUP1 DUP15 ADD MLOAD ISZERO ISZERO SWAP1 DUP4 ADD MSTORE DUP12 AND PUSH1 0xC0 DUP3 ADD MSTORE PUSH2 0x200 DUP2 ADD PUSH1 0x1 PUSH1 0x1 PUSH1 0xA0 SHL SUB DUP12 AND PUSH1 0xE0 DUP4 ADD MSTORE PUSH1 0x1 PUSH1 0x1 PUSH1 0xA0 SHL SUB DUP11 AND PUSH2 0x100 DUP4 ADD MSTORE DUP9 PUSH2 0x120 DUP4 ADD MSTORE DUP8 PUSH2 0x140 DUP4 ADD MSTORE PUSH2 0x35BD PUSH2 0x160 DUP4 ADD DUP9 PUSH1 0x1 PUSH1 0x1 PUSH1 0xA0 SHL SUB AND SWAP1 MSTORE JUMP JUMPDEST PUSH1 0x1 PUSH1 0x1 PUSH1 0xA0 SHL SUB DUP7 AND PUSH2 0x180 DUP4 ADD MSTORE PUSH1 0x1 PUSH1 0x1 PUSH1 0xA0 SHL SUB DUP6 AND PUSH2 0x1A0 DUP4 ADD MSTORE PUSH1 0x1 PUSH1 0x1 PUSH1 0xA0 SHL SUB DUP5 AND PUSH2 0x1C0 DUP4 ADD MSTORE PUSH1 0x1 PUSH1 0x1 PUSH1 0xA0 SHL SUB DUP4 AND PUSH2 0x1E0 DUP4 ADD MSTORE SWAP13 SWAP12 POP POP POP POP POP POP POP POP POP POP POP POP JUMP JUMPDEST PUSH0 PUSH1 0x1 DUP3 ADD PUSH2 0x361E JUMPI PUSH2 0x361E PUSH2 0x3364 JUMP JUMPDEST POP PUSH1 0x1 ADD SWAP1 JUMP JUMPDEST DUP1 MLOAD PUSH10 0xFFFFFFFFFFFFFFFFFFFF DUP2 AND DUP2 EQ PUSH2 0x2C5F JUMPI PUSH0 DUP1 REVERT JUMPDEST PUSH0 DUP1 PUSH0 DUP1 PUSH0 PUSH1 0xA0 DUP7 DUP9 SUB SLT ISZERO PUSH2 0x3652 JUMPI PUSH0 DUP1 REVERT JUMPDEST PUSH2 0x365B DUP7 PUSH2 0x3625 JUMP JUMPDEST PUSH1 0x20 DUP8 ADD MLOAD PUSH1 0x40 DUP9 ADD MLOAD PUSH1 0x60 DUP10 ADD MLOAD SWAP3 SWAP8 POP SWAP1 SWAP6 POP SWAP4 POP SWAP2 POP PUSH2 0x3680 PUSH1 0x80 DUP8 ADD PUSH2 0x3625 JUMP JUMPDEST SWAP1 POP SWAP3 SWAP6 POP SWAP3 SWAP6 SWAP1 SWAP4 POP JUMP INVALID LOG2 PUSH5 0x6970667358 0x22 SLT KECCAK256 0xE6 0xD6 STOP 0xA9 PUSH27 0x73690C5E397C6BB0E45FB42AD088258379CB35CD2508120F56563A PUSH5 0x736F6C6343 STOP ADDMOD BYTE STOP CALLER "
		},
		"gasEstimates": {
			"creation": {
				"codeDepositCost": "2803600",
				"executionCost": "3059",
				"totalCost": "2806659"
			},
			"external": {
				"aTokens(address)": "2639",
				"aaveAddressProvider()": "2403",
				"addCollateral(uint256,uint256,address,bool)": "infinite",
				"ccflActiveCollaterals(address)": "2633",
				"ccflActivePoolStableCoins(address)": "2611",
				"ccflPoolStableCoins(uint256)": "4656",
				"ccflPools(address)": "2682",
				"checkExistElement(address[],address)": "infinite",
				"collateralTokens(uint256)": "4702",
				"collaterals(address,address)": "infinite",
				"createLoan(uint256,address,uint256,address,bool,bool)": "infinite",
				"getHealthFactor(uint256)": "infinite",
				"getLatestPrice(address,bool)": "infinite",
				"getLoanAddress(uint256)": "2628",
				"getMinimalCollateral(uint256,address,address)": "infinite",
				"initialize(address[],address[],address[],address[],address[],address[],address,uint256,uint256,address)": "infinite",
				"liquidate(uint256)": "infinite",
				"liquidationThreshold()": "2395",
				"liquidator()": "2470",
				"loandIds()": "2329",
				"maxLTV()": "2349",
				"owner()": "2404",
				"penaltyLender()": "2352",
				"penaltyLiquidator()": "2417",
				"penaltyPlatform()": "2393",
				"platform()": "2426",
				"priceFeeds(address)": "2661",
				"pricePoolFeeds(address)": "2639",
				"repayLoan(uint256,uint256,address)": "infinite",
				"setAaveProvider(address)": "26749",
				"setActiveToken(address,bool,bool)": "infinite",
				"setCollaterals(address[],address[],address[])": "infinite",
				"setPenalty(uint256,uint256,uint256)": "68801",
				"setPlatformAddress(address,address)": "infinite",
				"setPools(address[],address[],address[])": "infinite",
				"setSwapRouter(address)": "26749",
				"setThreshold(uint256,uint256)": "46708",
				"setWETH(address)": "26837",
				"wETH()": "2380",
				"withdrawAllCollateral(uint256,bool)": "infinite",
				"withdrawLoan(address,uint256)": "infinite"
			}
		},
		"methodIdentifiers": {
			"aTokens(address)": "3e108ad9",
			"aaveAddressProvider()": "cdaabe41",
			"addCollateral(uint256,uint256,address,bool)": "4dd7bd3f",
			"ccflActiveCollaterals(address)": "e787ea2c",
			"ccflActivePoolStableCoins(address)": "b92dd925",
			"ccflPoolStableCoins(uint256)": "c694fdc1",
			"ccflPools(address)": "c0d01546",
			"checkExistElement(address[],address)": "1d9eb5d9",
			"collateralTokens(uint256)": "172c48c7",
			"collaterals(address,address)": "e51e119e",
			"createLoan(uint256,address,uint256,address,bool,bool)": "a8700c3c",
			"getHealthFactor(uint256)": "17845c69",
			"getLatestPrice(address,bool)": "b3bffeaa",
			"getLoanAddress(uint256)": "fdb2b32c",
			"getMinimalCollateral(uint256,address,address)": "75607815",
			"initialize(address[],address[],address[],address[],address[],address[],address,uint256,uint256,address)": "611f347d",
			"liquidate(uint256)": "415f1240",
			"liquidationThreshold()": "4031234c",
			"liquidator()": "4046ebae",
			"loandIds()": "8ba02e1c",
			"maxLTV()": "f384bd05",
			"owner()": "8da5cb5b",
			"penaltyLender()": "101b9d31",
			"penaltyLiquidator()": "a58bab62",
			"penaltyPlatform()": "f6597bbb",
			"platform()": "4bde38c8",
			"priceFeeds(address)": "9dcb511a",
			"pricePoolFeeds(address)": "989397d4",
			"repayLoan(uint256,uint256,address)": "6eb0fdd0",
			"setAaveProvider(address)": "38ef6717",
			"setActiveToken(address,bool,bool)": "3a2ad9ae",
			"setCollaterals(address[],address[],address[])": "64b52097",
			"setPenalty(uint256,uint256,uint256)": "f3cf4ada",
			"setPlatformAddress(address,address)": "f8f126ff",
			"setPools(address[],address[],address[])": "0769594d",
			"setSwapRouter(address)": "41273657",
			"setThreshold(uint256,uint256)": "b9c36209",
			"setWETH(address)": "5b769f3c",
			"wETH()": "f2428621",
			"withdrawAllCollateral(uint256,bool)": "5c8edac4",
			"withdrawLoan(address,uint256)": "ec7be39d"
		}
	},
	"abi": [
		{
			"inputs": [],
			"name": "ERC1167FailedCreateClone",
			"type": "error"
		},
		{
			"inputs": [],
			"name": "InvalidInitialization",
			"type": "error"
		},
		{
			"inputs": [],
			"name": "NotInitializing",
			"type": "error"
		},
		{
			"anonymous": false,
			"inputs": [
				{
					"indexed": false,
					"internalType": "uint64",
					"name": "version",
					"type": "uint64"
				}
			],
			"name": "Initialized",
			"type": "event"
		},
		{
			"anonymous": false,
			"inputs": [
				{
					"indexed": true,
					"internalType": "address",
					"name": "onBehalfOf",
					"type": "address"
				},
				{
					"indexed": true,
					"internalType": "address",
					"name": "_token",
					"type": "address"
				},
				{
					"indexed": true,
					"internalType": "uint256",
					"name": "_amount",
					"type": "uint256"
				}
			],
			"name": "LiquiditySupplied",
			"type": "event"
		},
		{
			"anonymous": false,
			"inputs": [
				{
					"indexed": true,
					"internalType": "address",
					"name": "to",
					"type": "address"
				},
				{
					"indexed": true,
					"internalType": "address",
					"name": "_token",
					"type": "address"
				},
				{
					"indexed": true,
					"internalType": "uint256",
					"name": "_amount",
					"type": "uint256"
				}
			],
			"name": "LiquidityWithdrawn",
			"type": "event"
		},
		{
			"anonymous": false,
			"inputs": [
				{
					"indexed": false,
					"internalType": "address",
					"name": "borrower",
					"type": "address"
				},
				{
					"indexed": false,
					"internalType": "uint256",
					"name": "amount",
					"type": "uint256"
				},
				{
					"indexed": false,
					"internalType": "uint256",
					"name": "when",
					"type": "uint256"
				}
			],
			"name": "Withdraw",
			"type": "event"
		},
		{
			"inputs": [
				{
					"internalType": "contract IERC20Standard",
					"name": "",
					"type": "address"
				}
			],
			"name": "aTokens",
			"outputs": [
				{
					"internalType": "contract IERC20Standard",
					"name": "",
					"type": "address"
				}
			],
			"stateMutability": "view",
			"type": "function"
		},
		{
			"inputs": [],
			"name": "aaveAddressProvider",
			"outputs": [
				{
					"internalType": "contract IPoolAddressesProvider",
					"name": "",
					"type": "address"
				}
			],
			"stateMutability": "view",
			"type": "function"
		},
		{
			"inputs": [
				{
					"internalType": "uint256",
					"name": "_loanId",
					"type": "uint256"
				},
				{
					"internalType": "uint256",
					"name": "_amountCollateral",
					"type": "uint256"
				},
				{
					"internalType": "contract IERC20Standard",
					"name": "_collateral",
					"type": "address"
				},
				{
					"internalType": "bool",
					"name": "_isETH",
					"type": "bool"
				}
			],
			"name": "addCollateral",
			"outputs": [],
			"stateMutability": "payable",
			"type": "function"
		},
		{
			"inputs": [
				{
					"internalType": "contract IERC20Standard",
					"name": "",
					"type": "address"
				}
			],
			"name": "ccflActiveCollaterals",
			"outputs": [
				{
					"internalType": "bool",
					"name": "",
					"type": "bool"
				}
			],
			"stateMutability": "view",
			"type": "function"
		},
		{
			"inputs": [
				{
					"internalType": "contract IERC20Standard",
					"name": "",
					"type": "address"
				}
			],
			"name": "ccflActivePoolStableCoins",
			"outputs": [
				{
					"internalType": "bool",
					"name": "",
					"type": "bool"
				}
			],
			"stateMutability": "view",
			"type": "function"
		},
		{
			"inputs": [
				{
					"internalType": "uint256",
					"name": "",
					"type": "uint256"
				}
			],
			"name": "ccflPoolStableCoins",
			"outputs": [
				{
					"internalType": "contract IERC20Standard",
					"name": "",
					"type": "address"
				}
			],
			"stateMutability": "view",
			"type": "function"
		},
		{
			"inputs": [
				{
					"internalType": "contract IERC20Standard",
					"name": "",
					"type": "address"
				}
			],
			"name": "ccflPools",
			"outputs": [
				{
					"internalType": "contract ICCFLPool",
					"name": "",
					"type": "address"
				}
			],
			"stateMutability": "view",
			"type": "function"
		},
		{
			"inputs": [
				{
					"internalType": "contract IERC20Standard[]",
					"name": "array",
					"type": "address[]"
				},
				{
					"internalType": "contract IERC20Standard",
					"name": "el",
					"type": "address"
				}
			],
			"name": "checkExistElement",
			"outputs": [
				{
					"internalType": "bool",
					"name": "",
					"type": "bool"
				}
			],
			"stateMutability": "pure",
			"type": "function"
		},
		{
			"inputs": [
				{
					"internalType": "uint256",
					"name": "",
					"type": "uint256"
				}
			],
			"name": "collateralTokens",
			"outputs": [
				{
					"internalType": "contract IERC20Standard",
					"name": "",
					"type": "address"
				}
			],
			"stateMutability": "view",
			"type": "function"
		},
		{
			"inputs": [
				{
					"internalType": "address",
					"name": "",
					"type": "address"
				},
				{
					"internalType": "contract IERC20Standard",
					"name": "",
					"type": "address"
				}
			],
			"name": "collaterals",
			"outputs": [
				{
					"internalType": "uint256",
					"name": "",
					"type": "uint256"
				}
			],
			"stateMutability": "view",
			"type": "function"
		},
		{
			"inputs": [
				{
					"internalType": "uint256",
					"name": "_amount",
					"type": "uint256"
				},
				{
					"internalType": "contract IERC20Standard",
					"name": "_stableCoin",
					"type": "address"
				},
				{
					"internalType": "uint256",
					"name": "_amountCollateral",
					"type": "uint256"
				},
				{
					"internalType": "contract IERC20Standard",
					"name": "_collateral",
					"type": "address"
				},
				{
					"internalType": "bool",
					"name": "_isYieldGenerating",
					"type": "bool"
				},
				{
					"internalType": "bool",
					"name": "_isETH",
					"type": "bool"
				}
			],
			"name": "createLoan",
			"outputs": [],
			"stateMutability": "payable",
			"type": "function"
		},
		{
			"inputs": [
				{
					"internalType": "uint256",
					"name": "_loanId",
					"type": "uint256"
				}
			],
			"name": "getHealthFactor",
			"outputs": [
				{
					"internalType": "uint256",
					"name": "",
					"type": "uint256"
				}
			],
			"stateMutability": "view",
			"type": "function"
		},
		{
			"inputs": [
				{
					"internalType": "contract IERC20Standard",
					"name": "_stableCoin",
					"type": "address"
				},
				{
					"internalType": "bool",
					"name": "isPool",
					"type": "bool"
				}
			],
			"name": "getLatestPrice",
			"outputs": [
				{
					"internalType": "uint256",
					"name": "",
					"type": "uint256"
				}
			],
			"stateMutability": "view",
			"type": "function"
		},
		{
			"inputs": [
				{
					"internalType": "uint256",
					"name": "_loanId",
					"type": "uint256"
				}
			],
			"name": "getLoanAddress",
			"outputs": [
				{
					"internalType": "address",
					"name": "",
					"type": "address"
				}
			],
			"stateMutability": "view",
			"type": "function"
		},
		{
			"inputs": [
				{
					"internalType": "uint256",
					"name": "_amount",
					"type": "uint256"
				},
				{
					"internalType": "contract IERC20Standard",
					"name": "_stableCoin",
					"type": "address"
				},
				{
					"internalType": "contract IERC20Standard",
					"name": "_collateral",
					"type": "address"
				}
			],
			"name": "getMinimalCollateral",
			"outputs": [
				{
					"internalType": "uint256",
					"name": "",
					"type": "uint256"
				}
			],
			"stateMutability": "view",
			"type": "function"
		},
		{
			"inputs": [
				{
					"internalType": "contract IERC20Standard[]",
					"name": "_ccflPoolStableCoin",
					"type": "address[]"
				},
				{
					"internalType": "contract AggregatorV3Interface[]",
					"name": "_poolAggregators",
					"type": "address[]"
				},
				{
					"internalType": "contract ICCFLPool[]",
					"name": "_ccflPools",
					"type": "address[]"
				},
				{
					"internalType": "contract IERC20Standard[]",
					"name": "_collateralTokens",
					"type": "address[]"
				},
				{
					"internalType": "contract AggregatorV3Interface[]",
					"name": "_collateralAggregators",
					"type": "address[]"
				},
				{
					"internalType": "contract IERC20Standard[]",
					"name": "_aTokens",
					"type": "address[]"
				},
				{
					"internalType": "contract IPoolAddressesProvider",
					"name": "_aaveAddressProvider",
					"type": "address"
				},
				{
					"internalType": "uint256",
					"name": "_maxLTV",
					"type": "uint256"
				},
				{
					"internalType": "uint256",
					"name": "_liquidationThreshold",
					"type": "uint256"
				},
				{
					"internalType": "contract ICCFLLoan",
					"name": "_ccflLoan",
					"type": "address"
				}
			],
			"name": "initialize",
			"outputs": [],
			"stateMutability": "nonpayable",
			"type": "function"
		},
		{
			"inputs": [
				{
					"internalType": "uint256",
					"name": "_loanId",
					"type": "uint256"
				}
			],
			"name": "liquidate",
			"outputs": [],
			"stateMutability": "nonpayable",
			"type": "function"
		},
		{
			"inputs": [],
			"name": "liquidationThreshold",
			"outputs": [
				{
					"internalType": "uint256",
					"name": "",
					"type": "uint256"
				}
			],
			"stateMutability": "view",
			"type": "function"
		},
		{
			"inputs": [],
			"name": "liquidator",
			"outputs": [
				{
					"internalType": "address",
					"name": "",
					"type": "address"
				}
			],
			"stateMutability": "view",
			"type": "function"
		},
		{
			"inputs": [],
			"name": "loandIds",
			"outputs": [
				{
					"internalType": "uint256",
					"name": "",
					"type": "uint256"
				}
			],
			"stateMutability": "view",
			"type": "function"
		},
		{
			"inputs": [],
			"name": "maxLTV",
			"outputs": [
				{
					"internalType": "uint256",
					"name": "",
					"type": "uint256"
				}
			],
			"stateMutability": "view",
			"type": "function"
		},
		{
			"inputs": [],
			"name": "owner",
			"outputs": [
				{
					"internalType": "address",
					"name": "",
					"type": "address"
				}
			],
			"stateMutability": "view",
			"type": "function"
		},
		{
			"inputs": [],
			"name": "penaltyLender",
			"outputs": [
				{
					"internalType": "uint256",
					"name": "",
					"type": "uint256"
				}
			],
			"stateMutability": "view",
			"type": "function"
		},
		{
			"inputs": [],
			"name": "penaltyLiquidator",
			"outputs": [
				{
					"internalType": "uint256",
					"name": "",
					"type": "uint256"
				}
			],
			"stateMutability": "view",
			"type": "function"
		},
		{
			"inputs": [],
			"name": "penaltyPlatform",
			"outputs": [
				{
					"internalType": "uint256",
					"name": "",
					"type": "uint256"
				}
			],
			"stateMutability": "view",
			"type": "function"
		},
		{
			"inputs": [],
			"name": "platform",
			"outputs": [
				{
					"internalType": "address",
					"name": "",
					"type": "address"
				}
			],
			"stateMutability": "view",
			"type": "function"
		},
		{
			"inputs": [
				{
					"internalType": "contract IERC20Standard",
					"name": "",
					"type": "address"
				}
			],
			"name": "priceFeeds",
			"outputs": [
				{
					"internalType": "contract AggregatorV3Interface",
					"name": "",
					"type": "address"
				}
			],
			"stateMutability": "view",
			"type": "function"
		},
		{
			"inputs": [
				{
					"internalType": "contract IERC20Standard",
					"name": "",
					"type": "address"
				}
			],
			"name": "pricePoolFeeds",
			"outputs": [
				{
					"internalType": "contract AggregatorV3Interface",
					"name": "",
					"type": "address"
				}
			],
			"stateMutability": "view",
			"type": "function"
		},
		{
			"inputs": [
				{
					"internalType": "uint256",
					"name": "_loanId",
					"type": "uint256"
				},
				{
					"internalType": "uint256",
					"name": "_amount",
					"type": "uint256"
				},
				{
					"internalType": "contract IERC20Standard",
					"name": "_stableCoin",
					"type": "address"
				}
			],
			"name": "repayLoan",
			"outputs": [],
			"stateMutability": "nonpayable",
			"type": "function"
		},
		{
			"inputs": [
				{
					"internalType": "contract IPoolAddressesProvider",
					"name": "_aaveAddressProvider",
					"type": "address"
				}
			],
			"name": "setAaveProvider",
			"outputs": [],
			"stateMutability": "nonpayable",
			"type": "function"
		},
		{
			"inputs": [
				{
					"internalType": "contract IERC20Standard",
					"name": "_token",
					"type": "address"
				},
				{
					"internalType": "bool",
					"name": "_isActived",
					"type": "bool"
				},
				{
					"internalType": "bool",
					"name": "_isPoolToken",
					"type": "bool"
				}
			],
			"name": "setActiveToken",
			"outputs": [],
			"stateMutability": "nonpayable",
			"type": "function"
		},
		{
			"inputs": [
				{
					"internalType": "contract IERC20Standard[]",
					"name": "_collateralTokens",
					"type": "address[]"
				},
				{
					"internalType": "contract AggregatorV3Interface[]",
					"name": "_collateralAggregators",
					"type": "address[]"
				},
				{
					"internalType": "contract IERC20Standard[]",
					"name": "_aTokens",
					"type": "address[]"
				}
			],
			"name": "setCollaterals",
			"outputs": [],
			"stateMutability": "nonpayable",
			"type": "function"
		},
		{
			"inputs": [
				{
					"internalType": "uint256",
					"name": "_platform",
					"type": "uint256"
				},
				{
					"internalType": "uint256",
					"name": "_liquidator",
					"type": "uint256"
				},
				{
					"internalType": "uint256",
					"name": "_lender",
					"type": "uint256"
				}
			],
			"name": "setPenalty",
			"outputs": [],
			"stateMutability": "nonpayable",
			"type": "function"
		},
		{
			"inputs": [
				{
					"internalType": "address",
					"name": "_liquidator",
					"type": "address"
				},
				{
					"internalType": "address",
					"name": "_platform",
					"type": "address"
				}
			],
			"name": "setPlatformAddress",
			"outputs": [],
			"stateMutability": "nonpayable",
			"type": "function"
		},
		{
			"inputs": [
				{
					"internalType": "contract IERC20Standard[]",
					"name": "_ccflPoolStableCoin",
					"type": "address[]"
				},
				{
					"internalType": "contract AggregatorV3Interface[]",
					"name": "_poolAggregators",
					"type": "address[]"
				},
				{
					"internalType": "contract ICCFLPool[]",
					"name": "_ccflPools",
					"type": "address[]"
				}
			],
			"name": "setPools",
			"outputs": [],
			"stateMutability": "nonpayable",
			"type": "function"
		},
		{
			"inputs": [
				{
					"internalType": "contract ISwapRouter",
					"name": "_swapRouter",
					"type": "address"
				}
			],
			"name": "setSwapRouter",
			"outputs": [],
			"stateMutability": "nonpayable",
			"type": "function"
		},
		{
			"inputs": [
				{
					"internalType": "uint256",
					"name": "_maxLTV",
					"type": "uint256"
				},
				{
					"internalType": "uint256",
					"name": "_liquidationThreshold",
					"type": "uint256"
				}
			],
			"name": "setThreshold",
			"outputs": [],
			"stateMutability": "nonpayable",
			"type": "function"
		},
		{
			"inputs": [
				{
					"internalType": "contract IWETH",
					"name": "_iWETH",
					"type": "address"
				}
			],
			"name": "setWETH",
			"outputs": [],
			"stateMutability": "nonpayable",
			"type": "function"
		},
		{
			"inputs": [],
			"name": "wETH",
			"outputs": [
				{
					"internalType": "contract IWETH",
					"name": "",
					"type": "address"
				}
			],
			"stateMutability": "view",
			"type": "function"
		},
		{
			"inputs": [
				{
					"internalType": "uint256",
					"name": "_loanId",
					"type": "uint256"
				},
				{
					"internalType": "bool",
					"name": "isETH",
					"type": "bool"
				}
			],
			"name": "withdrawAllCollateral",
			"outputs": [],
			"stateMutability": "nonpayable",
			"type": "function"
		},
		{
			"inputs": [
				{
					"internalType": "contract IERC20Standard",
					"name": "_stableCoin",
					"type": "address"
				},
				{
					"internalType": "uint256",
					"name": "_loanId",
					"type": "uint256"
				}
			],
			"name": "withdrawLoan",
			"outputs": [],
			"stateMutability": "nonpayable",
			"type": "function"
		},
		{
			"stateMutability": "payable",
			"type": "receive"
		}
	]
}