{
	"data": {
		"bytecode": {
			"linkReferences": {},
			"object": "6080604052348015600e575f80fd5b50614ea98061001c5f395ff3fe608060405260043610610207575f3560e01c806370a0823111610117578063b187bd261161009f578063e1ec3c681161006e578063e1ec3c681461077e578063e3691c51146107c2578063f4305035146107ea578063f7fb07b014610812578063fc7b9c181461083f5761020e565b8063b187bd26146106d2578063c4e41b22146106fc578063cd3293de14610726578063d8aed145146107565761020e565b8063929eea21116100e6578063929eea21146105de578063982aae461461061a5780639b78dbfc14610644578063a52f38d11461066c578063b14d37c0146106a85761020e565b806370a08231146105165780637871b060146105525780637f3940311461058e5780638ac1b775146105b65761020e565b80632e1a7d4d1161019a5780633870862b116101695780633870862b1461044a57806339cd7d6a146104725780633b24cc211461049a5780633b4675a7146104c457806347786d37146104ee5761020e565b80632e1a7d4d1461039457806330793601146103bc57806335403023146103f8578063355274ea146104205761020e565b80631794bb3c116101d65780631794bb3c146102ca57806318160ddd146102f25780631877bb5c1461031c5780631e0029c8146103585761020e565b806303ec357f1461021257806313e7c9d81461023c57806315770f921461027857806316c38b3c146102a25761020e565b3661020e57005b5f80fd5b34801561021d575f80fd5b50610226610869565b6040516102339190614025565b60405180910390f35b348015610247575f80fd5b50610262600480360381019061025d91906140a9565b6109c5565b60405161026f91906140ee565b60405180910390f35b348015610283575f80fd5b5061028c6109e1565b6040516102999190614025565b60405180910390f35b3480156102ad575f80fd5b506102c860048036038101906102c39190614131565b6109e7565b005b3480156102d5575f80fd5b506102f060048036038101906102eb91906141c1565b610acc565b005b3480156102fd575f80fd5b50610306610df2565b6040516103139190614025565b60405180910390f35b348015610327575f80fd5b50610342600480360381019061033d91906140a9565b610df8565b60405161034f9190614025565b60405180910390f35b348015610363575f80fd5b5061037e60048036038101906103799190614211565b610e0d565b60405161038b9190614025565b60405180910390f35b34801561039f575f80fd5b506103ba60048036038101906103b59190614211565b610e22565b005b3480156103c7575f80fd5b506103e260048036038101906103dd91906140a9565b6113a4565b6040516103ef9190614025565b60405180910390f35b348015610403575f80fd5b5061041e60048036038101906104199190614211565b6113b9565b005b34801561042b575f80fd5b506104346118c4565b6040516104419190614025565b60405180910390f35b348015610455575f80fd5b50610470600480360381019061046b919061423c565b6118ca565b005b34801561047d575f80fd5b50610498600480360381019061049391906140a9565b611d7b565b005b3480156104a5575f80fd5b506104ae611e8a565b6040516104bb9190614025565b60405180910390f35b3480156104cf575f80fd5b506104d8611e93565b6040516104e591906142af565b60405180910390f35b3480156104f9575f80fd5b50610514600480360381019061050f9190614211565b611eb8565b005b348015610521575f80fd5b5061053c600480360381019061053791906140a9565b611f8a565b6040516105499190614025565b60405180910390f35b34801561055d575f80fd5b50610578600480360381019061057391906140a9565b6120c3565b6040516105859190614025565b60405180910390f35b348015610599575f80fd5b506105b460048036038101906105af91906142c8565b612109565b005b3480156105c1575f80fd5b506105dc60048036038101906105d791906140a9565b61233a565b005b3480156105e9575f80fd5b5061060460048036038101906105ff9190614211565b612445565b60405161061191906142af565b60405180910390f35b348015610625575f80fd5b5061062e612480565b60405161063b9190614361565b60405180910390f35b34801561064f575f80fd5b5061066a60048036038101906106659190614211565b6124a5565b005b348015610677575f80fd5b50610692600480360381019061068d9190614211565b612608565b60405161069f9190614025565b60405180910390f35b3480156106b3575f80fd5b506106bc612775565b6040516106c99190614025565b60405180910390f35b3480156106dd575f80fd5b506106e661277b565b6040516106f391906140ee565b60405180910390f35b348015610707575f80fd5b5061071061278e565b60405161071d9190614025565b60405180910390f35b348015610731575f80fd5b5061073a6128bc565b60405161074d97969594939291906143df565b60405180910390f35b348015610761575f80fd5b5061077c600480360381019061077791906142c8565b612996565b005b348015610789575f80fd5b506107a4600480360381019061079f9190614211565b6130f4565b6040516107b99998979695949392919061444c565b60405180910390f35b3480156107cd575f80fd5b506107e860048036038101906107e391906144d7565b6131b0565b005b3480156107f5575f80fd5b50610810600480360381019061080b9190614725565b61336f565b005b34801561081d575f80fd5b506108266134db565b604051610836949392919061479b565b60405180910390f35b34801561084a575f80fd5b506108536135c5565b6040516108609190614025565b60405180910390f35b5f806108736135cb565b90505f6108888260c001518360e0015161371c565b90506108cf60056001015f9054906101000a90046fffffffffffffffffffffffffffffffff166fffffffffffffffffffffffffffffffff168261373090919063ffffffff16565b8260800181815250506b033b2e3c9fd0803ce80000006fffffffffffffffffffffffffffffffff1660015f9054906101000a900473ffffffffffffffffffffffffffffffffffffffff1673ffffffffffffffffffffffffffffffffffffffff1663313ce5676040518163ffffffff1660e01b8152600401602060405180830381865afa158015610961573d5f803e3d5ffd5b505050506040513d601f19601f820116820180604052508101906109859190614814565b600a610991919061499b565b6109aa8460800151600c5461373090919063ffffffff16565b6109b491906149e5565b6109be9190614a53565b9250505090565b5f602052805f5260405f205f915054906101000a900460ff1681565b600b5481565b3373ffffffffffffffffffffffffffffffffffffffff16600e5f9054906101000a900473ffffffffffffffffffffffffffffffffffffffff1673ffffffffffffffffffffffffffffffffffffffff16146040518060400160405280600181526020017f320000000000000000000000000000000000000000000000000000000000000081525090610aae576040517f08c379a0000000000000000000000000000000000000000000000000000000008152600401610aa59190614ae3565b60405180910390fd5b5080600e60146101000a81548160ff02191690831515021790555050565b5f610ad5613778565b90505f815f0160089054906101000a900460ff161590505f825f015f9054906101000a900467ffffffffffffffff1690505f808267ffffffffffffffff16148015610b1d5750825b90505f60018367ffffffffffffffff16148015610b5057505f3073ffffffffffffffffffffffffffffffffffffffff163b145b905081158015610b5e575080155b15610b95576040517ff92ee8a900000000000000000000000000000000000000000000000000000000815260040160405180910390fd5b6001855f015f6101000a81548167ffffffffffffffff021916908367ffffffffffffffff1602179055508315610be2576001855f0160086101000a81548160ff0219169083151502179055505b8760015f6101000a81548173ffffffffffffffffffffffffffffffffffffffff021916908373ffffffffffffffffffffffffffffffffffffffff16021790555086600560020160076101000a81548173ffffffffffffffffffffffffffffffffffffffff021916908373ffffffffffffffffffffffffffffffffffffffff1602179055506b033b2e3c9fd0803ce800000060055f015f6101000a8154816fffffffffffffffffffffffffffffffff02191690836fffffffffffffffffffffffffffffffff1602179055506b033b2e3c9fd0803ce800000060056001015f6101000a8154816fffffffffffffffffffffffffffffffff02191690836fffffffffffffffffffffffffffffffff16021790555033600e5f6101000a81548173ffffffffffffffffffffffffffffffffffffffff021916908373ffffffffffffffffffffffffffffffffffffffff16021790555060015f803373ffffffffffffffffffffffffffffffffffffffff1673ffffffffffffffffffffffffffffffffffffffff1681526020019081526020015f205f6101000a81548160ff021916908315150217905550856010819055508315610de8575f855f0160086101000a81548160ff0219169083151502179055507fc7f505b2f371ae2175ee4913f4499e1f2633a7b5936321eed1cdaeb6115181d26001604051610ddf9190614b4f565b60405180910390a15b5050505050505050565b600a5481565b6008602052805f5260405f205f915090505481565b6009602052805f5260405f205f915090505481565b5f1515600e60149054906101000a900460ff161515146040518060400160405280600281526020017f323100000000000000000000000000000000000000000000000000000000000081525090610eaf576040517f08c379a0000000000000000000000000000000000000000000000000000000008152600401610ea69190614ae3565b60405180910390fd5b505f610eb96135cb565b9050610ec48161379f565b5f60015f9054906101000a900473ffffffffffffffffffffffffffffffffffffffff1673ffffffffffffffffffffffffffffffffffffffff1663313ce5676040518163ffffffff1660e01b8152600401602060405180830381865afa158015610f2f573d5f803e3d5ffd5b505050506040513d601f19601f82011682018060405250810190610f539190614814565b600a610f5f919061499b565b6b033b2e3c9fd0803ce80000006fffffffffffffffffffffffffffffffff1684610f8991906149e5565b610f939190614a53565b9050610f9f5f826137fc565b5f610fe460055f015f9054906101000a90046fffffffffffffffffffffffffffffffff166fffffffffffffffffffffffffffffffff16836139ef90919063ffffffff16565b90505f8160085f3373ffffffffffffffffffffffffffffffffffffffff1673ffffffffffffffffffffffffffffffffffffffff1681526020019081526020015f20546110309190614b68565b905081600a5f8282546110439190614b68565b9250508190555081600b5f82825461105b9190614b68565b925050819055505f8110156040518060400160405280600181526020017f3800000000000000000000000000000000000000000000000000000000000000815250906110dd576040517f08c379a00000000000000000000000000000000000000000000000000000000081526004016110d49190614ae3565b60405180910390fd5b508060085f3373ffffffffffffffffffffffffffffffffffffffff1673ffffffffffffffffffffffffffffffffffffffff1681526020019081526020015f208190555084600d5f8282546111319190614b68565b9250508190555060015f9054906101000a900473ffffffffffffffffffffffffffffffffffffffff1673ffffffffffffffffffffffffffffffffffffffff1663a9059cbb33876040518363ffffffff1660e01b8152600401611194929190614b9b565b6020604051808303815f875af11580156111b0573d5f803e3d5ffd5b505050506040513d601f19601f820116820180604052508101906111d49190614bd6565b5084600f5f3373ffffffffffffffffffffffffffffffffffffffff1673ffffffffffffffffffffffffffffffffffffffff1681526020019081526020015f205411156112725784600f5f3373ffffffffffffffffffffffffffffffffffffffff1673ffffffffffffffffffffffffffffffffffffffff1681526020019081526020015f205f8282546112669190614b68565b925050819055506112b5565b5f600f5f3373ffffffffffffffffffffffffffffffffffffffff1673ffffffffffffffffffffffffffffffffffffffff1681526020019081526020015f20819055505b60015f9054906101000a900473ffffffffffffffffffffffffffffffffffffffff1673ffffffffffffffffffffffffffffffffffffffff163073ffffffffffffffffffffffffffffffffffffffff163373ffffffffffffffffffffffffffffffffffffffff167f173401e3c9626102fe861ca7ddb4665d741deebad547125c24038cafa9345db28860085f3373ffffffffffffffffffffffffffffffffffffffff1673ffffffffffffffffffffffffffffffffffffffff1681526020019081526020015f2054600a54600b54600d54604051611395959493929190614c01565b60405180910390a45050505050565b600f602052805f5260405f205f915090505481565b5f1515600e60149054906101000a900460ff161515146040518060400160405280600281526020017f323100000000000000000000000000000000000000000000000000000000000081525090611446576040517f08c379a000000000000000000000000000000000000000000000000000000000815260040161143d9190614ae3565b60405180910390fd5b506010548161145361278e565b61145d9190614c52565b11156040518060400160405280600281526020017f3233000000000000000000000000000000000000000000000000000000000000815250906114d6576040517f08c379a00000000000000000000000000000000000000000000000000000000081526004016114cd9190614ae3565b60405180910390fd5b505f6114e06135cb565b90506114eb8161379f565b5f60015f9054906101000a900473ffffffffffffffffffffffffffffffffffffffff1673ffffffffffffffffffffffffffffffffffffffff1663313ce5676040518163ffffffff1660e01b8152600401602060405180830381865afa158015611556573d5f803e3d5ffd5b505050506040513d601f19601f8201168201806040525081019061157a9190614814565b600a611586919061499b565b6b033b2e3c9fd0803ce80000006fffffffffffffffffffffffffffffffff16846115b091906149e5565b6115ba9190614a53565b90506115c6815f6137fc565b5f61160b60055f015f9054906101000a90046fffffffffffffffffffffffffffffffff166fffffffffffffffffffffffffffffffff16836139ef90919063ffffffff16565b90505f8160085f3373ffffffffffffffffffffffffffffffffffffffff1673ffffffffffffffffffffffffffffffffffffffff1681526020019081526020015f20546116579190614c52565b905081600a5f82825461166a9190614c52565b9250508190555081600b5f8282546116829190614c52565b925050819055508060085f3373ffffffffffffffffffffffffffffffffffffffff1673ffffffffffffffffffffffffffffffffffffffff1681526020019081526020015f208190555084600d5f8282546116dc9190614c52565b9250508190555060015f9054906101000a900473ffffffffffffffffffffffffffffffffffffffff1673ffffffffffffffffffffffffffffffffffffffff166323b872dd3330886040518463ffffffff1660e01b815260040161174193929190614c85565b6020604051808303815f875af115801561175d573d5f803e3d5ffd5b505050506040513d601f19601f820116820180604052508101906117819190614bd6565b5084600f5f3373ffffffffffffffffffffffffffffffffffffffff1673ffffffffffffffffffffffffffffffffffffffff1681526020019081526020015f205f8282546117ce9190614c52565b9250508190555060015f9054906101000a900473ffffffffffffffffffffffffffffffffffffffff1673ffffffffffffffffffffffffffffffffffffffff163073ffffffffffffffffffffffffffffffffffffffff163373ffffffffffffffffffffffffffffffffffffffff167fac71e4358c08cef1a5335ac1c1d79f8eea0a3bd10f01a4259308137ebc63d76a8860085f3373ffffffffffffffffffffffffffffffffffffffff1673ffffffffffffffffffffffffffffffffffffffff1681526020019081526020015f2054600a54600b54600d546040516118b5959493929190614c01565b60405180910390a45050505050565b60105481565b3373ffffffffffffffffffffffffffffffffffffffff1660045f9054906101000a900473ffffffffffffffffffffffffffffffffffffffff1673ffffffffffffffffffffffffffffffffffffffff16146040518060400160405280600281526020017f313300000000000000000000000000000000000000000000000000000000000081525090611991576040517f08c379a00000000000000000000000000000000000000000000000000000000081526004016119889190614ae3565b60405180910390fd5b505f1515600e60149054906101000a900460ff161515146040518060400160405280600281526020017f323100000000000000000000000000000000000000000000000000000000000081525090611a1f576040517f08c379a0000000000000000000000000000000000000000000000000000000008152600401611a169190614ae3565b60405180910390fd5b505f611a296135cb565b9050611a348161379f565b5f60015f9054906101000a900473ffffffffffffffffffffffffffffffffffffffff1673ffffffffffffffffffffffffffffffffffffffff1663313ce5676040518163ffffffff1660e01b8152600401602060405180830381865afa158015611a9f573d5f803e3d5ffd5b505050506040513d601f19601f82011682018060405250810190611ac39190614814565b600a611acf919061499b565b6b033b2e3c9fd0803ce80000006fffffffffffffffffffffffffffffffff1686611af991906149e5565b611b039190614a53565b90505f611b1d8360800151836139ef90919063ffffffff16565b90505f8160095f8a81526020019081526020015f2054611b3d9190614c52565b905081600c5f828254611b509190614c52565b92505081905550600d548711156040518060400160405280600281526020017f313500000000000000000000000000000000000000000000000000000000000081525090611bd4576040517f08c379a0000000000000000000000000000000000000000000000000000000008152600401611bcb9190614ae3565b60405180910390fd5b505f60035f8a81526020019081526020015f2090508160095f8b81526020019081526020015f208190555088815f0181905550878160010181905550868160020160016101000a81548173ffffffffffffffffffffffffffffffffffffffff021916908373ffffffffffffffffffffffffffffffffffffffff160217905550858160030160156101000a81548160ff021916908315150217905550611c795f856137fc565b611c908560400151856139ef90919063ffffffff16565b600b5f828254611ca09190614b68565b9250508190555087600d5f828254611cb89190614b68565b9250508190555060015f9054906101000a900473ffffffffffffffffffffffffffffffffffffffff1673ffffffffffffffffffffffffffffffffffffffff1663a9059cbb8860035f8d81526020019081526020015f20600101546040518363ffffffff1660e01b8152600401611d2f929190614b9b565b6020604051808303815f875af1158015611d4b573d5f803e3d5ffd5b505050506040513d601f19601f82011682018060405250810190611d6f9190614bd6565b50505050505050505050565b600115155f803373ffffffffffffffffffffffffffffffffffffffff1673ffffffffffffffffffffffffffffffffffffffff1681526020019081526020015f205f9054906101000a900460ff161515146040518060400160405280600281526020017f313800000000000000000000000000000000000000000000000000000000000081525090611e42576040517f08c379a0000000000000000000000000000000000000000000000000000000008152600401611e399190614ae3565b60405180910390fd5b5080600560020160076101000a81548173ffffffffffffffffffffffffffffffffffffffff021916908373ffffffffffffffffffffffffffffffffffffffff16021790555050565b5f600d54905090565b60045f9054906101000a900473ffffffffffffffffffffffffffffffffffffffff1681565b600115155f803373ffffffffffffffffffffffffffffffffffffffff1673ffffffffffffffffffffffffffffffffffffffff1681526020019081526020015f205f9054906101000a900460ff161515146040518060400160405280600281526020017f313800000000000000000000000000000000000000000000000000000000000081525090611f7f576040517f08c379a0000000000000000000000000000000000000000000000000000000008152600401611f769190614ae3565b60405180910390fd5b508060108190555050565b5f60015f9054906101000a900473ffffffffffffffffffffffffffffffffffffffff1673ffffffffffffffffffffffffffffffffffffffff1663313ce5676040518163ffffffff1660e01b8152600401602060405180830381865afa158015611ff5573d5f803e3d5ffd5b505050506040513d601f19601f820116820180604052508101906120199190614814565b601b6120259190614cba565b600a612031919061499b565b6120b260055f015f9054906101000a90046fffffffffffffffffffffffffffffffff166fffffffffffffffffffffffffffffffff1660085f8673ffffffffffffffffffffffffffffffffffffffff1673ffffffffffffffffffffffffffffffffffffffff1681526020019081526020015f205461373090919063ffffffff16565b6120bc9190614a53565b9050919050565b5f600f5f8373ffffffffffffffffffffffffffffffffffffffff1673ffffffffffffffffffffffffffffffffffffffff1681526020019081526020015f20549050919050565b3373ffffffffffffffffffffffffffffffffffffffff1660045f9054906101000a900473ffffffffffffffffffffffffffffffffffffffff1673ffffffffffffffffffffffffffffffffffffffff16146040518060400160405280600281526020017f3133000000000000000000000000000000000000000000000000000000000000815250906121d0576040517f08c379a00000000000000000000000000000000000000000000000000000000081526004016121c79190614ae3565b60405180910390fd5b505f1515600e60149054906101000a900460ff161515146040518060400160405280600281526020017f32310000000000000000000000000000000000000000000000000000000000008152509061225e576040517f08c379a00000000000000000000000000000000000000000000000000000000081526004016122559190614ae3565b60405180910390fd5b505f151560035f8481526020019081526020015f2060020160159054906101000a900460ff161515146040518060400160405280600281526020017f3137000000000000000000000000000000000000000000000000000000000000815250906122fe576040517f08c379a00000000000000000000000000000000000000000000000000000000081526004016122f59190614ae3565b60405180910390fd5b506123098133613a33565b600160035f8481526020019081526020015f2060020160156101000a81548160ff0219169083151502179055505050565b600115155f803373ffffffffffffffffffffffffffffffffffffffff1673ffffffffffffffffffffffffffffffffffffffff1681526020019081526020015f205f9054906101000a900460ff161515146040518060400160405280600281526020017f313800000000000000000000000000000000000000000000000000000000000081525090612401576040517f08c379a00000000000000000000000000000000000000000000000000000000081526004016123f89190614ae3565b60405180910390fd5b508060045f6101000a81548173ffffffffffffffffffffffffffffffffffffffff021916908373ffffffffffffffffffffffffffffffffffffffff16021790555050565b60028181548110612454575f80fd5b905f5260205f20015f915054906101000a900473ffffffffffffffffffffffffffffffffffffffff1681565b60015f9054906101000a900473ffffffffffffffffffffffffffffffffffffffff1681565b3373ffffffffffffffffffffffffffffffffffffffff1660045f9054906101000a900473ffffffffffffffffffffffffffffffffffffffff1673ffffffffffffffffffffffffffffffffffffffff16146040518060400160405280600281526020017f31330000000000000000000000000000000000000000000000000000000000008152509061256c576040517f08c379a00000000000000000000000000000000000000000000000000000000081526004016125639190614ae3565b60405180910390fd5b505f1515600e60149054906101000a900460ff161515146040518060400160405280600281526020017f3231000000000000000000000000000000000000000000000000000000000000815250906125fa576040517f08c379a00000000000000000000000000000000000000000000000000000000081526004016125f19190614ae3565b60405180910390fd5b506126058133613a33565b50565b5f806126126135cb565b90505f6126278260c001518360e0015161371c565b905061266e60056001015f9054906101000a90046fffffffffffffffffffffffffffffffff166fffffffffffffffffffffffffffffffff168261373090919063ffffffff16565b8260800181815250506b033b2e3c9fd0803ce80000006fffffffffffffffffffffffffffffffff1660015f9054906101000a900473ffffffffffffffffffffffffffffffffffffffff1673ffffffffffffffffffffffffffffffffffffffff1663313ce5676040518163ffffffff1660e01b8152600401602060405180830381865afa158015612700573d5f803e3d5ffd5b505050506040513d601f19601f820116820180604052508101906127249190614814565b600a612730919061499b565b612758846080015160095f8981526020019081526020015f205461373090919063ffffffff16565b61276291906149e5565b61276c9190614a53565b92505050919050565b600d5481565b600e60149054906101000a900460ff1681565b5f806127986135cb565b90505f6127ad8260a001518360e00151613c75565b90506127c682604001518261373090919063ffffffff16565b8260400181815250506b033b2e3c9fd0803ce80000006fffffffffffffffffffffffffffffffff1660015f9054906101000a900473ffffffffffffffffffffffffffffffffffffffff1673ffffffffffffffffffffffffffffffffffffffff1663313ce5676040518163ffffffff1660e01b8152600401602060405180830381865afa158015612858573d5f803e3d5ffd5b505050506040513d601f19601f8201168201806040525081019061287c9190614814565b600a612888919061499b565b6128a18460400151600a5461373090919063ffffffff16565b6128ab91906149e5565b6128b59190614a53565b9250505090565b6005805f015f9054906101000a90046fffffffffffffffffffffffffffffffff1690805f0160109054906101000a90046fffffffffffffffffffffffffffffffff1690806001015f9054906101000a90046fffffffffffffffffffffffffffffffff16908060010160109054906101000a90046fffffffffffffffffffffffffffffffff1690806002015f9054906101000a900464ffffffffff16908060020160059054906101000a900461ffff16908060020160079054906101000a900473ffffffffffffffffffffffffffffffffffffffff16905087565b3373ffffffffffffffffffffffffffffffffffffffff1660045f9054906101000a900473ffffffffffffffffffffffffffffffffffffffff1673ffffffffffffffffffffffffffffffffffffffff16146040518060400160405280600281526020017f313300000000000000000000000000000000000000000000000000000000000081525090612a5d576040517f08c379a0000000000000000000000000000000000000000000000000000000008152600401612a549190614ae3565b60405180910390fd5b505f1515600e60149054906101000a900460ff161515146040518060400160405280600281526020017f323100000000000000000000000000000000000000000000000000000000000081525090612aeb576040517f08c379a0000000000000000000000000000000000000000000000000000000008152600401612ae29190614ae3565b60405180910390fd5b505f151560035f8481526020019081526020015f206002015f9054906101000a900460ff161515146040518060400160405280600281526020017f313600000000000000000000000000000000000000000000000000000000000081525090612b8a576040517f08c379a0000000000000000000000000000000000000000000000000000000008152600401612b819190614ae3565b60405180910390fd5b505f612b946135cb565b9050612b9f8161379f565b5f60015f9054906101000a900473ffffffffffffffffffffffffffffffffffffffff1673ffffffffffffffffffffffffffffffffffffffff1663313ce5676040518163ffffffff1660e01b8152600401602060405180830381865afa158015612c0a573d5f803e3d5ffd5b505050506040513d601f19601f82011682018060405250810190612c2e9190614814565b600a612c3a919061499b565b6b033b2e3c9fd0803ce80000006fffffffffffffffffffffffffffffffff1684612c6491906149e5565b612c6e9190614a53565b90505f612cb660056001015f9054906101000a90046fffffffffffffffffffffffffffffffff166fffffffffffffffffffffffffffffffff16836139ef90919063ffffffff16565b90508060095f8781526020019081526020015f205411612f8d5760095f8681526020019081526020015f2054600c5f828254612cf29190614b68565b925050819055505f612d5060056001015f9054906101000a90046fffffffffffffffffffffffffffffffff166fffffffffffffffffffffffffffffffff1660095f8981526020019081526020015f205461373090919063ffffffff16565b90505f6b033b2e3c9fd0803ce80000006fffffffffffffffffffffffffffffffff1660015f9054906101000a900473ffffffffffffffffffffffffffffffffffffffff1673ffffffffffffffffffffffffffffffffffffffff1663313ce5676040518163ffffffff1660e01b8152600401602060405180830381865afa158015612ddc573d5f803e3d5ffd5b505050506040513d601f19601f82011682018060405250810190612e009190614814565b600a612e0c919061499b565b83612e1791906149e5565b612e219190614a53565b90505f60095f8981526020019081526020015f2081905550612e43825f6137fc565b612e6b856040015160095f8a81526020019081526020015f20546139ef90919063ffffffff16565b600b5f828254612e7b9190614c52565b9250508190555080600d5f828254612e939190614c52565b9250508190555060015f9054906101000a900473ffffffffffffffffffffffffffffffffffffffff1673ffffffffffffffffffffffffffffffffffffffff166323b872dd60045f9054906101000a900473ffffffffffffffffffffffffffffffffffffffff1630846040518463ffffffff1660e01b8152600401612f1993929190614c85565b6020604051808303815f875af1158015612f35573d5f803e3d5ffd5b505050506040513d601f19601f82011682018060405250810190612f599190614bd6565b50600160035f8981526020019081526020015f206002015f6101000a81548160ff02191690831515021790555050506130ed565b5f8160095f8881526020019081526020015f2054612fab9190614b68565b905081600c5f828254612fbe9190614b68565b925050819055508060095f8881526020019081526020015f2081905550612fe5835f6137fc565b612ffc8460400151846139ef90919063ffffffff16565b600b5f82825461300c9190614c52565b9250508190555084600d5f8282546130249190614c52565b9250508190555060015f9054906101000a900473ffffffffffffffffffffffffffffffffffffffff1673ffffffffffffffffffffffffffffffffffffffff166323b872dd60045f9054906101000a900473ffffffffffffffffffffffffffffffffffffffff1630886040518463ffffffff1660e01b81526004016130aa93929190614c85565b6020604051808303815f875af11580156130c6573d5f803e3d5ffd5b505050506040513d601f19601f820116820180604052508101906130ea9190614bd6565b50505b5050505050565b6003602052805f5260405f205f91509050805f015490806001015490806002015f9054906101000a900460ff16908060020160019054906101000a900473ffffffffffffffffffffffffffffffffffffffff16908060020160159054906101000a900460ff1690806003015f9054906101000a900473ffffffffffffffffffffffffffffffffffffffff16908060030160149054906101000a900460ff16908060030160159054906101000a900460ff16908060040154905089565b3373ffffffffffffffffffffffffffffffffffffffff16600e5f9054906101000a900473ffffffffffffffffffffffffffffffffffffffff1673ffffffffffffffffffffffffffffffffffffffff16146040518060400160405280600181526020017f320000000000000000000000000000000000000000000000000000000000000081525090613277576040517f08c379a000000000000000000000000000000000000000000000000000000000815260040161326e9190614ae3565b60405180910390fd5b508173ffffffffffffffffffffffffffffffffffffffff1663a9059cbb828473ffffffffffffffffffffffffffffffffffffffff166370a08231306040518263ffffffff1660e01b81526004016132ce91906142af565b602060405180830381865afa1580156132e9573d5f803e3d5ffd5b505050506040513d601f19601f8201168201806040525081019061330d9190614d02565b6040518363ffffffff1660e01b815260040161332a929190614b9b565b6020604051808303815f875af1158015613346573d5f803e3d5ffd5b505050506040513d601f19601f8201168201806040525081019061336a9190614bd6565b505050565b3373ffffffffffffffffffffffffffffffffffffffff16600e5f9054906101000a900473ffffffffffffffffffffffffffffffffffffffff1673ffffffffffffffffffffffffffffffffffffffff16146040518060400160405280600181526020017f320000000000000000000000000000000000000000000000000000000000000081525090613436576040517f08c379a000000000000000000000000000000000000000000000000000000000815260040161342d9190614ae3565b60405180910390fd5b505f5b82518110156134d65781818151811061345557613454614d2d565b5b60200260200101515f8085848151811061347257613471614d2d565b5b602002602001015173ffffffffffffffffffffffffffffffffffffffff1673ffffffffffffffffffffffffffffffffffffffff1681526020019081526020015f205f6101000a81548160ff0219169083151502179055508080600101915050613439565b505050565b5f805f80600560010160109054906101000a90046fffffffffffffffffffffffffffffffff1660055f0160109054906101000a90046fffffffffffffffffffffffffffffffff1660056001015f9054906101000a90046fffffffffffffffffffffffffffffffff1660055f015f9054906101000a90046fffffffffffffffffffffffffffffffff16836fffffffffffffffffffffffffffffffff169350826fffffffffffffffffffffffffffffffff169250816fffffffffffffffffffffffffffffffff169150806fffffffffffffffffffffffffffffffff169050935093509350935090919293565b600c5481565b6135d3613fab565b6135db613fab565b60055f015f9054906101000a90046fffffffffffffffffffffffffffffffff166fffffffffffffffffffffffffffffffff16816040018181525081602001818152505060056001015f9054906101000a90046fffffffffffffffffffffffffffffffff166fffffffffffffffffffffffffffffffff16816080018181525081606001818152505060055f0160109054906101000a90046fffffffffffffffffffffffffffffffff166fffffffffffffffffffffffffffffffff168160a0018181525050600560010160109054906101000a90046fffffffffffffffffffffffffffffffff166fffffffffffffffffffffffffffffffff168160c001818152505060056002015f9054906101000a900464ffffffffff168160e0019064ffffffffff16908164ffffffffff1681525050600c54815f0181815250508091505090565b5f613728838342613ccf565b905092915050565b5f816b019d971e4fe8401e740000005f190304831115821517613751575f80fd5b6b033b2e3c9fd0803ce80000006b019d971e4fe8401e740000008385020104905092915050565b5f7ff0c57e16840df040f15088dc2f81fe391c3923bec73e23a9662efc9c229c6a00905090565b4264ffffffffff1660056002015f9054906101000a900464ffffffffff1664ffffffffff1603156137f9576137d381613e35565b4260056002015f6101000a81548164ffffffffff021916908364ffffffffff1602179055505b50565b613804613fef565b600560020160079054906101000a900473ffffffffffffffffffffffffffffffffffffffff1673ffffffffffffffffffffffffffffffffffffffff166356eaf26460405180608001604052808681526020018581526020016138a360056001015f9054906101000a90046fffffffffffffffffffffffffffffffff166fffffffffffffffffffffffffffffffff16600c5461373090919063ffffffff16565b81526020016138ee60055f015f9054906101000a90046fffffffffffffffffffffffffffffffff166fffffffffffffffffffffffffffffffff16600b5461373090919063ffffffff16565b8152506040518263ffffffff1660e01b815260040161390d9190614dbc565b6040805180830381865afa158015613927573d5f803e3d5ffd5b505050506040513d601f19601f8201168201806040525081019061394b9190614dd5565b825f018360200182815250828152505050613968815f0151613f48565b60055f0160106101000a8154816fffffffffffffffffffffffffffffffff02191690836fffffffffffffffffffffffffffffffff1602179055506139af8160200151613f48565b600560010160106101000a8154816fffffffffffffffffffffffffffffffff02191690836fffffffffffffffffffffffffffffffff160217905550505050565b5f6b033b2e3c9fd0803ce8000000600283045f1903048311151582151715613a15575f80fd5b81600283046b033b2e3c9fd0803ce800000085020104905092915050565b5f821115613c71575f613a446135cb565b9050613a4f8161379f565b5f60015f9054906101000a900473ffffffffffffffffffffffffffffffffffffffff1673ffffffffffffffffffffffffffffffffffffffff1663313ce5676040518163ffffffff1660e01b8152600401602060405180830381865afa158015613aba573d5f803e3d5ffd5b505050506040513d601f19601f82011682018060405250810190613ade9190614814565b600a613aea919061499b565b6b033b2e3c9fd0803ce80000006fffffffffffffffffffffffffffffffff1685613b1491906149e5565b613b1e9190614a53565b90505f613b3a8360400151600b5461373090919063ffffffff16565b90505f613b7182613b6386604001518686613b559190614c52565b61373090919063ffffffff16565b6139ef90919063ffffffff16565b9050613b7c81613f48565b60055f015f6101000a8154816fffffffffffffffffffffffffffffffff02191690836fffffffffffffffffffffffffffffffff16021790555085600d5f828254613bc69190614c52565b9250508190555060015f9054906101000a900473ffffffffffffffffffffffffffffffffffffffff1673ffffffffffffffffffffffffffffffffffffffff166323b872dd8630896040518463ffffffff1660e01b8152600401613c2b93929190614c85565b6020604051808303815f875af1158015613c47573d5f803e3d5ffd5b505050506040513d601f19601f82011682018060405250810190613c6b9190614bd6565b50505050505b5050565b5f808264ffffffffff1642613c8a9190614b68565b84613c9591906149e5565b90506301e133808181613cab57613caa614a26565b5b049050806b033b2e3c9fd0803ce8000000613cc69190614c52565b91505092915050565b5f808364ffffffffff1683613ce49190614b68565b90505f8103613d02576b033b2e3c9fd0803ce8000000915050613e2e565b5f805f8060018503935060028511613d1a575f613d1f565b600285035b92506301e133808002613d3b8a8b61373090919063ffffffff16565b81613d4957613d48614a26565b5b0491506301e13380613d648a8461373090919063ffffffff16565b81613d7257613d71614a26565b5b0490505f828587613d8391906149e5565b613d8d91906149e5565b905060028181613da057613d9f614a26565b5b0490505f82858789613db291906149e5565b613dbc91906149e5565b613dc691906149e5565b905060068181613dd957613dd8614a26565b5b04905080826301e13380898e613def91906149e5565b613df99190614a53565b6b033b2e3c9fd0803ce8000000613e109190614c52565b613e1a9190614c52565b613e249190614c52565b9750505050505050505b9392505050565b5f8160a0015114613ebd575f613e538260a001518360e00151613c75565b9050613e6c82602001518261373090919063ffffffff16565b826040018181525050613e828260400151613f48565b60055f015f6101000a8154816fffffffffffffffffffffffffffffffff02191690836fffffffffffffffffffffffffffffffff160217905550505b5f815f015114613f45575f613eda8260c001518360e0015161371c565b9050613ef382606001518261373090919063ffffffff16565b826080018181525050613f098260800151613f48565b60056001015f6101000a8154816fffffffffffffffffffffffffffffffff02191690836fffffffffffffffffffffffffffffffff160217905550505b50565b5f6fffffffffffffffffffffffffffffffff8016821115613fa3576080826040517f6dfcc650000000000000000000000000000000000000000000000000000000008152600401613f9a929190614e4c565b60405180910390fd5b819050919050565b6040518061010001604052805f81526020015f81526020015f81526020015f81526020015f81526020015f81526020015f81526020015f64ffffffffff1681525090565b60405180606001604052805f81526020015f81526020015f81525090565b5f819050919050565b61401f8161400d565b82525050565b5f6020820190506140385f830184614016565b92915050565b5f604051905090565b5f80fd5b5f80fd5b5f73ffffffffffffffffffffffffffffffffffffffff82169050919050565b5f6140788261404f565b9050919050565b6140888161406e565b8114614092575f80fd5b50565b5f813590506140a38161407f565b92915050565b5f602082840312156140be576140bd614047565b5b5f6140cb84828501614095565b91505092915050565b5f8115159050919050565b6140e8816140d4565b82525050565b5f6020820190506141015f8301846140df565b92915050565b614110816140d4565b811461411a575f80fd5b50565b5f8135905061412b81614107565b92915050565b5f6020828403121561414657614145614047565b5b5f6141538482850161411d565b91505092915050565b5f6141668261406e565b9050919050565b6141768161415c565b8114614180575f80fd5b50565b5f813590506141918161416d565b92915050565b6141a08161400d565b81146141aa575f80fd5b50565b5f813590506141bb81614197565b92915050565b5f805f606084860312156141d8576141d7614047565b5b5f6141e586828701614183565b93505060206141f686828701614095565b9250506040614207868287016141ad565b9150509250925092565b5f6020828403121561422657614225614047565b5b5f614233848285016141ad565b91505092915050565b5f805f806080858703121561425457614253614047565b5b5f614261878288016141ad565b9450506020614272878288016141ad565b935050604061428387828801614095565b92505060606142948782880161411d565b91505092959194509250565b6142a98161406e565b82525050565b5f6020820190506142c25f8301846142a0565b92915050565b5f80604083850312156142de576142dd614047565b5b5f6142eb858286016141ad565b92505060206142fc858286016141ad565b9150509250929050565b5f819050919050565b5f61432961432461431f8461404f565b614306565b61404f565b9050919050565b5f61433a8261430f565b9050919050565b5f61434b82614330565b9050919050565b61435b81614341565b82525050565b5f6020820190506143745f830184614352565b92915050565b5f6fffffffffffffffffffffffffffffffff82169050919050565b61439e8161437a565b82525050565b5f64ffffffffff82169050919050565b6143bd816143a4565b82525050565b5f61ffff82169050919050565b6143d9816143c3565b82525050565b5f60e0820190506143f25f83018a614395565b6143ff6020830189614395565b61440c6040830188614395565b6144196060830187614395565b61442660808301866143b4565b61443360a08301856143d0565b61444060c08301846142a0565b98975050505050505050565b5f610120820190506144605f83018c614016565b61446d602083018b614016565b61447a604083018a6140df565b61448760608301896142a0565b61449460808301886140df565b6144a160a0830187614352565b6144ae60c08301866140df565b6144bb60e08301856140df565b6144c9610100830184614016565b9a9950505050505050505050565b5f80604083850312156144ed576144ec614047565b5b5f6144fa85828601614183565b925050602061450b85828601614095565b9150509250929050565b5f80fd5b5f601f19601f8301169050919050565b7f4e487b71000000000000000000000000000000000000000000000000000000005f52604160045260245ffd5b61455f82614519565b810181811067ffffffffffffffff8211171561457e5761457d614529565b5b80604052505050565b5f61459061403e565b905061459c8282614556565b919050565b5f67ffffffffffffffff8211156145bb576145ba614529565b5b602082029050602081019050919050565b5f80fd5b5f6145e26145dd846145a1565b614587565b90508083825260208201905060208402830185811115614605576146046145cc565b5b835b8181101561462e578061461a8882614095565b845260208401935050602081019050614607565b5050509392505050565b5f82601f83011261464c5761464b614515565b5b813561465c8482602086016145d0565b91505092915050565b5f67ffffffffffffffff82111561467f5761467e614529565b5b602082029050602081019050919050565b5f6146a261469d84614665565b614587565b905080838252602082019050602084028301858111156146c5576146c46145cc565b5b835b818110156146ee57806146da888261411d565b8452602084019350506020810190506146c7565b5050509392505050565b5f82601f83011261470c5761470b614515565b5b813561471c848260208601614690565b91505092915050565b5f806040838503121561473b5761473a614047565b5b5f83013567ffffffffffffffff8111156147585761475761404b565b5b61476485828601614638565b925050602083013567ffffffffffffffff8111156147855761478461404b565b5b614791858286016146f8565b9150509250929050565b5f6080820190506147ae5f830187614016565b6147bb6020830186614016565b6147c86040830185614016565b6147d56060830184614016565b95945050505050565b5f60ff82169050919050565b6147f3816147de565b81146147fd575f80fd5b50565b5f8151905061480e816147ea565b92915050565b5f6020828403121561482957614828614047565b5b5f61483684828501614800565b91505092915050565b7f4e487b71000000000000000000000000000000000000000000000000000000005f52601160045260245ffd5b5f8160011c9050919050565b5f808291508390505b60018511156148c15780860481111561489d5761489c61483f565b5b60018516156148ac5780820291505b80810290506148ba8561486c565b9450614881565b94509492505050565b5f826148d95760019050614994565b816148e6575f9050614994565b81600181146148fc576002811461490657614935565b6001915050614994565b60ff8411156149185761491761483f565b5b8360020a91508482111561492f5761492e61483f565b5b50614994565b5060208310610133831016604e8410600b841016171561496a5782820a9050838111156149655761496461483f565b5b614994565b6149778484846001614878565b9250905081840481111561498e5761498d61483f565b5b81810290505b9392505050565b5f6149a58261400d565b91506149b0836147de565b92506149dd7fffffffffffffffffffffffffffffffffffffffffffffffffffffffffffffffff84846148ca565b905092915050565b5f6149ef8261400d565b91506149fa8361400d565b9250828202614a088161400d565b91508282048414831517614a1f57614a1e61483f565b5b5092915050565b7f4e487b71000000000000000000000000000000000000000000000000000000005f52601260045260245ffd5b5f614a5d8261400d565b9150614a688361400d565b925082614a7857614a77614a26565b5b828204905092915050565b5f81519050919050565b5f82825260208201905092915050565b8281835e5f83830152505050565b5f614ab582614a83565b614abf8185614a8d565b9350614acf818560208601614a9d565b614ad881614519565b840191505092915050565b5f6020820190508181035f830152614afb8184614aab565b905092915050565b5f819050919050565b5f67ffffffffffffffff82169050919050565b5f614b39614b34614b2f84614b03565b614306565b614b0c565b9050919050565b614b4981614b1f565b82525050565b5f602082019050614b625f830184614b40565b92915050565b5f614b728261400d565b9150614b7d8361400d565b9250828203905081811115614b9557614b9461483f565b5b92915050565b5f604082019050614bae5f8301856142a0565b614bbb6020830184614016565b9392505050565b5f81519050614bd081614107565b92915050565b5f60208284031215614beb57614bea614047565b5b5f614bf884828501614bc2565b91505092915050565b5f60a082019050614c145f830188614016565b614c216020830187614016565b614c2e6040830186614016565b614c3b6060830185614016565b614c486080830184614016565b9695505050505050565b5f614c5c8261400d565b9150614c678361400d565b9250828201905080821115614c7f57614c7e61483f565b5b92915050565b5f606082019050614c985f8301866142a0565b614ca560208301856142a0565b614cb26040830184614016565b949350505050565b5f614cc4826147de565b9150614ccf836147de565b9250828203905060ff811115614ce857614ce761483f565b5b92915050565b5f81519050614cfc81614197565b92915050565b5f60208284031215614d1757614d16614047565b5b5f614d2484828501614cee565b91505092915050565b7f4e487b71000000000000000000000000000000000000000000000000000000005f52603260045260245ffd5b614d638161400d565b82525050565b608082015f820151614d7d5f850182614d5a565b506020820151614d906020850182614d5a565b506040820151614da36040850182614d5a565b506060820151614db66060850182614d5a565b50505050565b5f608082019050614dcf5f830184614d69565b92915050565b5f8060408385031215614deb57614dea614047565b5b5f614df885828601614cee565b9250506020614e0985828601614cee565b9150509250929050565b5f819050919050565b5f614e36614e31614e2c84614e13565b614306565b6147de565b9050919050565b614e4681614e1c565b82525050565b5f604082019050614e5f5f830185614e3d565b614e6c6020830184614016565b939250505056fea2646970667358221220dffdea3bbfbfe724b781f56534118d598fc066a51d9bee5d06248c598cae443c64736f6c634300081a0033",
			"opcodes": "PUSH1 0x80 PUSH1 0x40 MSTORE CALLVALUE DUP1 ISZERO PUSH1 0xE JUMPI PUSH0 DUP1 REVERT JUMPDEST POP PUSH2 0x4EA9 DUP1 PUSH2 0x1C PUSH0 CODECOPY PUSH0 RETURN INVALID PUSH1 0x80 PUSH1 0x40 MSTORE PUSH1 0x4 CALLDATASIZE LT PUSH2 0x207 JUMPI PUSH0 CALLDATALOAD PUSH1 0xE0 SHR DUP1 PUSH4 0x70A08231 GT PUSH2 0x117 JUMPI DUP1 PUSH4 0xB187BD26 GT PUSH2 0x9F JUMPI DUP1 PUSH4 0xE1EC3C68 GT PUSH2 0x6E JUMPI DUP1 PUSH4 0xE1EC3C68 EQ PUSH2 0x77E JUMPI DUP1 PUSH4 0xE3691C51 EQ PUSH2 0x7C2 JUMPI DUP1 PUSH4 0xF4305035 EQ PUSH2 0x7EA JUMPI DUP1 PUSH4 0xF7FB07B0 EQ PUSH2 0x812 JUMPI DUP1 PUSH4 0xFC7B9C18 EQ PUSH2 0x83F JUMPI PUSH2 0x20E JUMP JUMPDEST DUP1 PUSH4 0xB187BD26 EQ PUSH2 0x6D2 JUMPI DUP1 PUSH4 0xC4E41B22 EQ PUSH2 0x6FC JUMPI DUP1 PUSH4 0xCD3293DE EQ PUSH2 0x726 JUMPI DUP1 PUSH4 0xD8AED145 EQ PUSH2 0x756 JUMPI PUSH2 0x20E JUMP JUMPDEST DUP1 PUSH4 0x929EEA21 GT PUSH2 0xE6 JUMPI DUP1 PUSH4 0x929EEA21 EQ PUSH2 0x5DE JUMPI DUP1 PUSH4 0x982AAE46 EQ PUSH2 0x61A JUMPI DUP1 PUSH4 0x9B78DBFC EQ PUSH2 0x644 JUMPI DUP1 PUSH4 0xA52F38D1 EQ PUSH2 0x66C JUMPI DUP1 PUSH4 0xB14D37C0 EQ PUSH2 0x6A8 JUMPI PUSH2 0x20E JUMP JUMPDEST DUP1 PUSH4 0x70A08231 EQ PUSH2 0x516 JUMPI DUP1 PUSH4 0x7871B060 EQ PUSH2 0x552 JUMPI DUP1 PUSH4 0x7F394031 EQ PUSH2 0x58E JUMPI DUP1 PUSH4 0x8AC1B775 EQ PUSH2 0x5B6 JUMPI PUSH2 0x20E JUMP JUMPDEST DUP1 PUSH4 0x2E1A7D4D GT PUSH2 0x19A JUMPI DUP1 PUSH4 0x3870862B GT PUSH2 0x169 JUMPI DUP1 PUSH4 0x3870862B EQ PUSH2 0x44A JUMPI DUP1 PUSH4 0x39CD7D6A EQ PUSH2 0x472 JUMPI DUP1 PUSH4 0x3B24CC21 EQ PUSH2 0x49A JUMPI DUP1 PUSH4 0x3B4675A7 EQ PUSH2 0x4C4 JUMPI DUP1 PUSH4 0x47786D37 EQ PUSH2 0x4EE JUMPI PUSH2 0x20E JUMP JUMPDEST DUP1 PUSH4 0x2E1A7D4D EQ PUSH2 0x394 JUMPI DUP1 PUSH4 0x30793601 EQ PUSH2 0x3BC JUMPI DUP1 PUSH4 0x35403023 EQ PUSH2 0x3F8 JUMPI DUP1 PUSH4 0x355274EA EQ PUSH2 0x420 JUMPI PUSH2 0x20E JUMP JUMPDEST DUP1 PUSH4 0x1794BB3C GT PUSH2 0x1D6 JUMPI DUP1 PUSH4 0x1794BB3C EQ PUSH2 0x2CA JUMPI DUP1 PUSH4 0x18160DDD EQ PUSH2 0x2F2 JUMPI DUP1 PUSH4 0x1877BB5C EQ PUSH2 0x31C JUMPI DUP1 PUSH4 0x1E0029C8 EQ PUSH2 0x358 JUMPI PUSH2 0x20E JUMP JUMPDEST DUP1 PUSH4 0x3EC357F EQ PUSH2 0x212 JUMPI DUP1 PUSH4 0x13E7C9D8 EQ PUSH2 0x23C JUMPI DUP1 PUSH4 0x15770F92 EQ PUSH2 0x278 JUMPI DUP1 PUSH4 0x16C38B3C EQ PUSH2 0x2A2 JUMPI PUSH2 0x20E JUMP JUMPDEST CALLDATASIZE PUSH2 0x20E JUMPI STOP JUMPDEST PUSH0 DUP1 REVERT JUMPDEST CALLVALUE DUP1 ISZERO PUSH2 0x21D JUMPI PUSH0 DUP1 REVERT JUMPDEST POP PUSH2 0x226 PUSH2 0x869 JUMP JUMPDEST PUSH1 0x40 MLOAD PUSH2 0x233 SWAP2 SWAP1 PUSH2 0x4025 JUMP JUMPDEST PUSH1 0x40 MLOAD DUP1 SWAP2 SUB SWAP1 RETURN JUMPDEST CALLVALUE DUP1 ISZERO PUSH2 0x247 JUMPI PUSH0 DUP1 REVERT JUMPDEST POP PUSH2 0x262 PUSH1 0x4 DUP1 CALLDATASIZE SUB DUP2 ADD SWAP1 PUSH2 0x25D SWAP2 SWAP1 PUSH2 0x40A9 JUMP JUMPDEST PUSH2 0x9C5 JUMP JUMPDEST PUSH1 0x40 MLOAD PUSH2 0x26F SWAP2 SWAP1 PUSH2 0x40EE JUMP JUMPDEST PUSH1 0x40 MLOAD DUP1 SWAP2 SUB SWAP1 RETURN JUMPDEST CALLVALUE DUP1 ISZERO PUSH2 0x283 JUMPI PUSH0 DUP1 REVERT JUMPDEST POP PUSH2 0x28C PUSH2 0x9E1 JUMP JUMPDEST PUSH1 0x40 MLOAD PUSH2 0x299 SWAP2 SWAP1 PUSH2 0x4025 JUMP JUMPDEST PUSH1 0x40 MLOAD DUP1 SWAP2 SUB SWAP1 RETURN JUMPDEST CALLVALUE DUP1 ISZERO PUSH2 0x2AD JUMPI PUSH0 DUP1 REVERT JUMPDEST POP PUSH2 0x2C8 PUSH1 0x4 DUP1 CALLDATASIZE SUB DUP2 ADD SWAP1 PUSH2 0x2C3 SWAP2 SWAP1 PUSH2 0x4131 JUMP JUMPDEST PUSH2 0x9E7 JUMP JUMPDEST STOP JUMPDEST CALLVALUE DUP1 ISZERO PUSH2 0x2D5 JUMPI PUSH0 DUP1 REVERT JUMPDEST POP PUSH2 0x2F0 PUSH1 0x4 DUP1 CALLDATASIZE SUB DUP2 ADD SWAP1 PUSH2 0x2EB SWAP2 SWAP1 PUSH2 0x41C1 JUMP JUMPDEST PUSH2 0xACC JUMP JUMPDEST STOP JUMPDEST CALLVALUE DUP1 ISZERO PUSH2 0x2FD JUMPI PUSH0 DUP1 REVERT JUMPDEST POP PUSH2 0x306 PUSH2 0xDF2 JUMP JUMPDEST PUSH1 0x40 MLOAD PUSH2 0x313 SWAP2 SWAP1 PUSH2 0x4025 JUMP JUMPDEST PUSH1 0x40 MLOAD DUP1 SWAP2 SUB SWAP1 RETURN JUMPDEST CALLVALUE DUP1 ISZERO PUSH2 0x327 JUMPI PUSH0 DUP1 REVERT JUMPDEST POP PUSH2 0x342 PUSH1 0x4 DUP1 CALLDATASIZE SUB DUP2 ADD SWAP1 PUSH2 0x33D SWAP2 SWAP1 PUSH2 0x40A9 JUMP JUMPDEST PUSH2 0xDF8 JUMP JUMPDEST PUSH1 0x40 MLOAD PUSH2 0x34F SWAP2 SWAP1 PUSH2 0x4025 JUMP JUMPDEST PUSH1 0x40 MLOAD DUP1 SWAP2 SUB SWAP1 RETURN JUMPDEST CALLVALUE DUP1 ISZERO PUSH2 0x363 JUMPI PUSH0 DUP1 REVERT JUMPDEST POP PUSH2 0x37E PUSH1 0x4 DUP1 CALLDATASIZE SUB DUP2 ADD SWAP1 PUSH2 0x379 SWAP2 SWAP1 PUSH2 0x4211 JUMP JUMPDEST PUSH2 0xE0D JUMP JUMPDEST PUSH1 0x40 MLOAD PUSH2 0x38B SWAP2 SWAP1 PUSH2 0x4025 JUMP JUMPDEST PUSH1 0x40 MLOAD DUP1 SWAP2 SUB SWAP1 RETURN JUMPDEST CALLVALUE DUP1 ISZERO PUSH2 0x39F JUMPI PUSH0 DUP1 REVERT JUMPDEST POP PUSH2 0x3BA PUSH1 0x4 DUP1 CALLDATASIZE SUB DUP2 ADD SWAP1 PUSH2 0x3B5 SWAP2 SWAP1 PUSH2 0x4211 JUMP JUMPDEST PUSH2 0xE22 JUMP JUMPDEST STOP JUMPDEST CALLVALUE DUP1 ISZERO PUSH2 0x3C7 JUMPI PUSH0 DUP1 REVERT JUMPDEST POP PUSH2 0x3E2 PUSH1 0x4 DUP1 CALLDATASIZE SUB DUP2 ADD SWAP1 PUSH2 0x3DD SWAP2 SWAP1 PUSH2 0x40A9 JUMP JUMPDEST PUSH2 0x13A4 JUMP JUMPDEST PUSH1 0x40 MLOAD PUSH2 0x3EF SWAP2 SWAP1 PUSH2 0x4025 JUMP JUMPDEST PUSH1 0x40 MLOAD DUP1 SWAP2 SUB SWAP1 RETURN JUMPDEST CALLVALUE DUP1 ISZERO PUSH2 0x403 JUMPI PUSH0 DUP1 REVERT JUMPDEST POP PUSH2 0x41E PUSH1 0x4 DUP1 CALLDATASIZE SUB DUP2 ADD SWAP1 PUSH2 0x419 SWAP2 SWAP1 PUSH2 0x4211 JUMP JUMPDEST PUSH2 0x13B9 JUMP JUMPDEST STOP JUMPDEST CALLVALUE DUP1 ISZERO PUSH2 0x42B JUMPI PUSH0 DUP1 REVERT JUMPDEST POP PUSH2 0x434 PUSH2 0x18C4 JUMP JUMPDEST PUSH1 0x40 MLOAD PUSH2 0x441 SWAP2 SWAP1 PUSH2 0x4025 JUMP JUMPDEST PUSH1 0x40 MLOAD DUP1 SWAP2 SUB SWAP1 RETURN JUMPDEST CALLVALUE DUP1 ISZERO PUSH2 0x455 JUMPI PUSH0 DUP1 REVERT JUMPDEST POP PUSH2 0x470 PUSH1 0x4 DUP1 CALLDATASIZE SUB DUP2 ADD SWAP1 PUSH2 0x46B SWAP2 SWAP1 PUSH2 0x423C JUMP JUMPDEST PUSH2 0x18CA JUMP JUMPDEST STOP JUMPDEST CALLVALUE DUP1 ISZERO PUSH2 0x47D JUMPI PUSH0 DUP1 REVERT JUMPDEST POP PUSH2 0x498 PUSH1 0x4 DUP1 CALLDATASIZE SUB DUP2 ADD SWAP1 PUSH2 0x493 SWAP2 SWAP1 PUSH2 0x40A9 JUMP JUMPDEST PUSH2 0x1D7B JUMP JUMPDEST STOP JUMPDEST CALLVALUE DUP1 ISZERO PUSH2 0x4A5 JUMPI PUSH0 DUP1 REVERT JUMPDEST POP PUSH2 0x4AE PUSH2 0x1E8A JUMP JUMPDEST PUSH1 0x40 MLOAD PUSH2 0x4BB SWAP2 SWAP1 PUSH2 0x4025 JUMP JUMPDEST PUSH1 0x40 MLOAD DUP1 SWAP2 SUB SWAP1 RETURN JUMPDEST CALLVALUE DUP1 ISZERO PUSH2 0x4CF JUMPI PUSH0 DUP1 REVERT JUMPDEST POP PUSH2 0x4D8 PUSH2 0x1E93 JUMP JUMPDEST PUSH1 0x40 MLOAD PUSH2 0x4E5 SWAP2 SWAP1 PUSH2 0x42AF JUMP JUMPDEST PUSH1 0x40 MLOAD DUP1 SWAP2 SUB SWAP1 RETURN JUMPDEST CALLVALUE DUP1 ISZERO PUSH2 0x4F9 JUMPI PUSH0 DUP1 REVERT JUMPDEST POP PUSH2 0x514 PUSH1 0x4 DUP1 CALLDATASIZE SUB DUP2 ADD SWAP1 PUSH2 0x50F SWAP2 SWAP1 PUSH2 0x4211 JUMP JUMPDEST PUSH2 0x1EB8 JUMP JUMPDEST STOP JUMPDEST CALLVALUE DUP1 ISZERO PUSH2 0x521 JUMPI PUSH0 DUP1 REVERT JUMPDEST POP PUSH2 0x53C PUSH1 0x4 DUP1 CALLDATASIZE SUB DUP2 ADD SWAP1 PUSH2 0x537 SWAP2 SWAP1 PUSH2 0x40A9 JUMP JUMPDEST PUSH2 0x1F8A JUMP JUMPDEST PUSH1 0x40 MLOAD PUSH2 0x549 SWAP2 SWAP1 PUSH2 0x4025 JUMP JUMPDEST PUSH1 0x40 MLOAD DUP1 SWAP2 SUB SWAP1 RETURN JUMPDEST CALLVALUE DUP1 ISZERO PUSH2 0x55D JUMPI PUSH0 DUP1 REVERT JUMPDEST POP PUSH2 0x578 PUSH1 0x4 DUP1 CALLDATASIZE SUB DUP2 ADD SWAP1 PUSH2 0x573 SWAP2 SWAP1 PUSH2 0x40A9 JUMP JUMPDEST PUSH2 0x20C3 JUMP JUMPDEST PUSH1 0x40 MLOAD PUSH2 0x585 SWAP2 SWAP1 PUSH2 0x4025 JUMP JUMPDEST PUSH1 0x40 MLOAD DUP1 SWAP2 SUB SWAP1 RETURN JUMPDEST CALLVALUE DUP1 ISZERO PUSH2 0x599 JUMPI PUSH0 DUP1 REVERT JUMPDEST POP PUSH2 0x5B4 PUSH1 0x4 DUP1 CALLDATASIZE SUB DUP2 ADD SWAP1 PUSH2 0x5AF SWAP2 SWAP1 PUSH2 0x42C8 JUMP JUMPDEST PUSH2 0x2109 JUMP JUMPDEST STOP JUMPDEST CALLVALUE DUP1 ISZERO PUSH2 0x5C1 JUMPI PUSH0 DUP1 REVERT JUMPDEST POP PUSH2 0x5DC PUSH1 0x4 DUP1 CALLDATASIZE SUB DUP2 ADD SWAP1 PUSH2 0x5D7 SWAP2 SWAP1 PUSH2 0x40A9 JUMP JUMPDEST PUSH2 0x233A JUMP JUMPDEST STOP JUMPDEST CALLVALUE DUP1 ISZERO PUSH2 0x5E9 JUMPI PUSH0 DUP1 REVERT JUMPDEST POP PUSH2 0x604 PUSH1 0x4 DUP1 CALLDATASIZE SUB DUP2 ADD SWAP1 PUSH2 0x5FF SWAP2 SWAP1 PUSH2 0x4211 JUMP JUMPDEST PUSH2 0x2445 JUMP JUMPDEST PUSH1 0x40 MLOAD PUSH2 0x611 SWAP2 SWAP1 PUSH2 0x42AF JUMP JUMPDEST PUSH1 0x40 MLOAD DUP1 SWAP2 SUB SWAP1 RETURN JUMPDEST CALLVALUE DUP1 ISZERO PUSH2 0x625 JUMPI PUSH0 DUP1 REVERT JUMPDEST POP PUSH2 0x62E PUSH2 0x2480 JUMP JUMPDEST PUSH1 0x40 MLOAD PUSH2 0x63B SWAP2 SWAP1 PUSH2 0x4361 JUMP JUMPDEST PUSH1 0x40 MLOAD DUP1 SWAP2 SUB SWAP1 RETURN JUMPDEST CALLVALUE DUP1 ISZERO PUSH2 0x64F JUMPI PUSH0 DUP1 REVERT JUMPDEST POP PUSH2 0x66A PUSH1 0x4 DUP1 CALLDATASIZE SUB DUP2 ADD SWAP1 PUSH2 0x665 SWAP2 SWAP1 PUSH2 0x4211 JUMP JUMPDEST PUSH2 0x24A5 JUMP JUMPDEST STOP JUMPDEST CALLVALUE DUP1 ISZERO PUSH2 0x677 JUMPI PUSH0 DUP1 REVERT JUMPDEST POP PUSH2 0x692 PUSH1 0x4 DUP1 CALLDATASIZE SUB DUP2 ADD SWAP1 PUSH2 0x68D SWAP2 SWAP1 PUSH2 0x4211 JUMP JUMPDEST PUSH2 0x2608 JUMP JUMPDEST PUSH1 0x40 MLOAD PUSH2 0x69F SWAP2 SWAP1 PUSH2 0x4025 JUMP JUMPDEST PUSH1 0x40 MLOAD DUP1 SWAP2 SUB SWAP1 RETURN JUMPDEST CALLVALUE DUP1 ISZERO PUSH2 0x6B3 JUMPI PUSH0 DUP1 REVERT JUMPDEST POP PUSH2 0x6BC PUSH2 0x2775 JUMP JUMPDEST PUSH1 0x40 MLOAD PUSH2 0x6C9 SWAP2 SWAP1 PUSH2 0x4025 JUMP JUMPDEST PUSH1 0x40 MLOAD DUP1 SWAP2 SUB SWAP1 RETURN JUMPDEST CALLVALUE DUP1 ISZERO PUSH2 0x6DD JUMPI PUSH0 DUP1 REVERT JUMPDEST POP PUSH2 0x6E6 PUSH2 0x277B JUMP JUMPDEST PUSH1 0x40 MLOAD PUSH2 0x6F3 SWAP2 SWAP1 PUSH2 0x40EE JUMP JUMPDEST PUSH1 0x40 MLOAD DUP1 SWAP2 SUB SWAP1 RETURN JUMPDEST CALLVALUE DUP1 ISZERO PUSH2 0x707 JUMPI PUSH0 DUP1 REVERT JUMPDEST POP PUSH2 0x710 PUSH2 0x278E JUMP JUMPDEST PUSH1 0x40 MLOAD PUSH2 0x71D SWAP2 SWAP1 PUSH2 0x4025 JUMP JUMPDEST PUSH1 0x40 MLOAD DUP1 SWAP2 SUB SWAP1 RETURN JUMPDEST CALLVALUE DUP1 ISZERO PUSH2 0x731 JUMPI PUSH0 DUP1 REVERT JUMPDEST POP PUSH2 0x73A PUSH2 0x28BC JUMP JUMPDEST PUSH1 0x40 MLOAD PUSH2 0x74D SWAP8 SWAP7 SWAP6 SWAP5 SWAP4 SWAP3 SWAP2 SWAP1 PUSH2 0x43DF JUMP JUMPDEST PUSH1 0x40 MLOAD DUP1 SWAP2 SUB SWAP1 RETURN JUMPDEST CALLVALUE DUP1 ISZERO PUSH2 0x761 JUMPI PUSH0 DUP1 REVERT JUMPDEST POP PUSH2 0x77C PUSH1 0x4 DUP1 CALLDATASIZE SUB DUP2 ADD SWAP1 PUSH2 0x777 SWAP2 SWAP1 PUSH2 0x42C8 JUMP JUMPDEST PUSH2 0x2996 JUMP JUMPDEST STOP JUMPDEST CALLVALUE DUP1 ISZERO PUSH2 0x789 JUMPI PUSH0 DUP1 REVERT JUMPDEST POP PUSH2 0x7A4 PUSH1 0x4 DUP1 CALLDATASIZE SUB DUP2 ADD SWAP1 PUSH2 0x79F SWAP2 SWAP1 PUSH2 0x4211 JUMP JUMPDEST PUSH2 0x30F4 JUMP JUMPDEST PUSH1 0x40 MLOAD PUSH2 0x7B9 SWAP10 SWAP9 SWAP8 SWAP7 SWAP6 SWAP5 SWAP4 SWAP3 SWAP2 SWAP1 PUSH2 0x444C JUMP JUMPDEST PUSH1 0x40 MLOAD DUP1 SWAP2 SUB SWAP1 RETURN JUMPDEST CALLVALUE DUP1 ISZERO PUSH2 0x7CD JUMPI PUSH0 DUP1 REVERT JUMPDEST POP PUSH2 0x7E8 PUSH1 0x4 DUP1 CALLDATASIZE SUB DUP2 ADD SWAP1 PUSH2 0x7E3 SWAP2 SWAP1 PUSH2 0x44D7 JUMP JUMPDEST PUSH2 0x31B0 JUMP JUMPDEST STOP JUMPDEST CALLVALUE DUP1 ISZERO PUSH2 0x7F5 JUMPI PUSH0 DUP1 REVERT JUMPDEST POP PUSH2 0x810 PUSH1 0x4 DUP1 CALLDATASIZE SUB DUP2 ADD SWAP1 PUSH2 0x80B SWAP2 SWAP1 PUSH2 0x4725 JUMP JUMPDEST PUSH2 0x336F JUMP JUMPDEST STOP JUMPDEST CALLVALUE DUP1 ISZERO PUSH2 0x81D JUMPI PUSH0 DUP1 REVERT JUMPDEST POP PUSH2 0x826 PUSH2 0x34DB JUMP JUMPDEST PUSH1 0x40 MLOAD PUSH2 0x836 SWAP5 SWAP4 SWAP3 SWAP2 SWAP1 PUSH2 0x479B JUMP JUMPDEST PUSH1 0x40 MLOAD DUP1 SWAP2 SUB SWAP1 RETURN JUMPDEST CALLVALUE DUP1 ISZERO PUSH2 0x84A JUMPI PUSH0 DUP1 REVERT JUMPDEST POP PUSH2 0x853 PUSH2 0x35C5 JUMP JUMPDEST PUSH1 0x40 MLOAD PUSH2 0x860 SWAP2 SWAP1 PUSH2 0x4025 JUMP JUMPDEST PUSH1 0x40 MLOAD DUP1 SWAP2 SUB SWAP1 RETURN JUMPDEST PUSH0 DUP1 PUSH2 0x873 PUSH2 0x35CB JUMP JUMPDEST SWAP1 POP PUSH0 PUSH2 0x888 DUP3 PUSH1 0xC0 ADD MLOAD DUP4 PUSH1 0xE0 ADD MLOAD PUSH2 0x371C JUMP JUMPDEST SWAP1 POP PUSH2 0x8CF PUSH1 0x5 PUSH1 0x1 ADD PUSH0 SWAP1 SLOAD SWAP1 PUSH2 0x100 EXP SWAP1 DIV PUSH16 0xFFFFFFFFFFFFFFFFFFFFFFFFFFFFFFFF AND PUSH16 0xFFFFFFFFFFFFFFFFFFFFFFFFFFFFFFFF AND DUP3 PUSH2 0x3730 SWAP1 SWAP2 SWAP1 PUSH4 0xFFFFFFFF AND JUMP JUMPDEST DUP3 PUSH1 0x80 ADD DUP2 DUP2 MSTORE POP POP PUSH12 0x33B2E3C9FD0803CE8000000 PUSH16 0xFFFFFFFFFFFFFFFFFFFFFFFFFFFFFFFF AND PUSH1 0x1 PUSH0 SWAP1 SLOAD SWAP1 PUSH2 0x100 EXP SWAP1 DIV PUSH20 0xFFFFFFFFFFFFFFFFFFFFFFFFFFFFFFFFFFFFFFFF AND PUSH20 0xFFFFFFFFFFFFFFFFFFFFFFFFFFFFFFFFFFFFFFFF AND PUSH4 0x313CE567 PUSH1 0x40 MLOAD DUP2 PUSH4 0xFFFFFFFF AND PUSH1 0xE0 SHL DUP2 MSTORE PUSH1 0x4 ADD PUSH1 0x20 PUSH1 0x40 MLOAD DUP1 DUP4 SUB DUP2 DUP7 GAS STATICCALL ISZERO DUP1 ISZERO PUSH2 0x961 JUMPI RETURNDATASIZE PUSH0 DUP1 RETURNDATACOPY RETURNDATASIZE PUSH0 REVERT JUMPDEST POP POP POP POP PUSH1 0x40 MLOAD RETURNDATASIZE PUSH1 0x1F NOT PUSH1 0x1F DUP3 ADD AND DUP3 ADD DUP1 PUSH1 0x40 MSTORE POP DUP2 ADD SWAP1 PUSH2 0x985 SWAP2 SWAP1 PUSH2 0x4814 JUMP JUMPDEST PUSH1 0xA PUSH2 0x991 SWAP2 SWAP1 PUSH2 0x499B JUMP JUMPDEST PUSH2 0x9AA DUP5 PUSH1 0x80 ADD MLOAD PUSH1 0xC SLOAD PUSH2 0x3730 SWAP1 SWAP2 SWAP1 PUSH4 0xFFFFFFFF AND JUMP JUMPDEST PUSH2 0x9B4 SWAP2 SWAP1 PUSH2 0x49E5 JUMP JUMPDEST PUSH2 0x9BE SWAP2 SWAP1 PUSH2 0x4A53 JUMP JUMPDEST SWAP3 POP POP POP SWAP1 JUMP JUMPDEST PUSH0 PUSH1 0x20 MSTORE DUP1 PUSH0 MSTORE PUSH1 0x40 PUSH0 KECCAK256 PUSH0 SWAP2 POP SLOAD SWAP1 PUSH2 0x100 EXP SWAP1 DIV PUSH1 0xFF AND DUP2 JUMP JUMPDEST PUSH1 0xB SLOAD DUP2 JUMP JUMPDEST CALLER PUSH20 0xFFFFFFFFFFFFFFFFFFFFFFFFFFFFFFFFFFFFFFFF AND PUSH1 0xE PUSH0 SWAP1 SLOAD SWAP1 PUSH2 0x100 EXP SWAP1 DIV PUSH20 0xFFFFFFFFFFFFFFFFFFFFFFFFFFFFFFFFFFFFFFFF AND PUSH20 0xFFFFFFFFFFFFFFFFFFFFFFFFFFFFFFFFFFFFFFFF AND EQ PUSH1 0x40 MLOAD DUP1 PUSH1 0x40 ADD PUSH1 0x40 MSTORE DUP1 PUSH1 0x1 DUP2 MSTORE PUSH1 0x20 ADD PUSH32 0x3200000000000000000000000000000000000000000000000000000000000000 DUP2 MSTORE POP SWAP1 PUSH2 0xAAE JUMPI PUSH1 0x40 MLOAD PUSH32 0x8C379A000000000000000000000000000000000000000000000000000000000 DUP2 MSTORE PUSH1 0x4 ADD PUSH2 0xAA5 SWAP2 SWAP1 PUSH2 0x4AE3 JUMP JUMPDEST PUSH1 0x40 MLOAD DUP1 SWAP2 SUB SWAP1 REVERT JUMPDEST POP DUP1 PUSH1 0xE PUSH1 0x14 PUSH2 0x100 EXP DUP2 SLOAD DUP2 PUSH1 0xFF MUL NOT AND SWAP1 DUP4 ISZERO ISZERO MUL OR SWAP1 SSTORE POP POP JUMP JUMPDEST PUSH0 PUSH2 0xAD5 PUSH2 0x3778 JUMP JUMPDEST SWAP1 POP PUSH0 DUP2 PUSH0 ADD PUSH1 0x8 SWAP1 SLOAD SWAP1 PUSH2 0x100 EXP SWAP1 DIV PUSH1 0xFF AND ISZERO SWAP1 POP PUSH0 DUP3 PUSH0 ADD PUSH0 SWAP1 SLOAD SWAP1 PUSH2 0x100 EXP SWAP1 DIV PUSH8 0xFFFFFFFFFFFFFFFF AND SWAP1 POP PUSH0 DUP1 DUP3 PUSH8 0xFFFFFFFFFFFFFFFF AND EQ DUP1 ISZERO PUSH2 0xB1D JUMPI POP DUP3 JUMPDEST SWAP1 POP PUSH0 PUSH1 0x1 DUP4 PUSH8 0xFFFFFFFFFFFFFFFF AND EQ DUP1 ISZERO PUSH2 0xB50 JUMPI POP PUSH0 ADDRESS PUSH20 0xFFFFFFFFFFFFFFFFFFFFFFFFFFFFFFFFFFFFFFFF AND EXTCODESIZE EQ JUMPDEST SWAP1 POP DUP2 ISZERO DUP1 ISZERO PUSH2 0xB5E JUMPI POP DUP1 ISZERO JUMPDEST ISZERO PUSH2 0xB95 JUMPI PUSH1 0x40 MLOAD PUSH32 0xF92EE8A900000000000000000000000000000000000000000000000000000000 DUP2 MSTORE PUSH1 0x4 ADD PUSH1 0x40 MLOAD DUP1 SWAP2 SUB SWAP1 REVERT JUMPDEST PUSH1 0x1 DUP6 PUSH0 ADD PUSH0 PUSH2 0x100 EXP DUP2 SLOAD DUP2 PUSH8 0xFFFFFFFFFFFFFFFF MUL NOT AND SWAP1 DUP4 PUSH8 0xFFFFFFFFFFFFFFFF AND MUL OR SWAP1 SSTORE POP DUP4 ISZERO PUSH2 0xBE2 JUMPI PUSH1 0x1 DUP6 PUSH0 ADD PUSH1 0x8 PUSH2 0x100 EXP DUP2 SLOAD DUP2 PUSH1 0xFF MUL NOT AND SWAP1 DUP4 ISZERO ISZERO MUL OR SWAP1 SSTORE POP JUMPDEST DUP8 PUSH1 0x1 PUSH0 PUSH2 0x100 EXP DUP2 SLOAD DUP2 PUSH20 0xFFFFFFFFFFFFFFFFFFFFFFFFFFFFFFFFFFFFFFFF MUL NOT AND SWAP1 DUP4 PUSH20 0xFFFFFFFFFFFFFFFFFFFFFFFFFFFFFFFFFFFFFFFF AND MUL OR SWAP1 SSTORE POP DUP7 PUSH1 0x5 PUSH1 0x2 ADD PUSH1 0x7 PUSH2 0x100 EXP DUP2 SLOAD DUP2 PUSH20 0xFFFFFFFFFFFFFFFFFFFFFFFFFFFFFFFFFFFFFFFF MUL NOT AND SWAP1 DUP4 PUSH20 0xFFFFFFFFFFFFFFFFFFFFFFFFFFFFFFFFFFFFFFFF AND MUL OR SWAP1 SSTORE POP PUSH12 0x33B2E3C9FD0803CE8000000 PUSH1 0x5 PUSH0 ADD PUSH0 PUSH2 0x100 EXP DUP2 SLOAD DUP2 PUSH16 0xFFFFFFFFFFFFFFFFFFFFFFFFFFFFFFFF MUL NOT AND SWAP1 DUP4 PUSH16 0xFFFFFFFFFFFFFFFFFFFFFFFFFFFFFFFF AND MUL OR SWAP1 SSTORE POP PUSH12 0x33B2E3C9FD0803CE8000000 PUSH1 0x5 PUSH1 0x1 ADD PUSH0 PUSH2 0x100 EXP DUP2 SLOAD DUP2 PUSH16 0xFFFFFFFFFFFFFFFFFFFFFFFFFFFFFFFF MUL NOT AND SWAP1 DUP4 PUSH16 0xFFFFFFFFFFFFFFFFFFFFFFFFFFFFFFFF AND MUL OR SWAP1 SSTORE POP CALLER PUSH1 0xE PUSH0 PUSH2 0x100 EXP DUP2 SLOAD DUP2 PUSH20 0xFFFFFFFFFFFFFFFFFFFFFFFFFFFFFFFFFFFFFFFF MUL NOT AND SWAP1 DUP4 PUSH20 0xFFFFFFFFFFFFFFFFFFFFFFFFFFFFFFFFFFFFFFFF AND MUL OR SWAP1 SSTORE POP PUSH1 0x1 PUSH0 DUP1 CALLER PUSH20 0xFFFFFFFFFFFFFFFFFFFFFFFFFFFFFFFFFFFFFFFF AND PUSH20 0xFFFFFFFFFFFFFFFFFFFFFFFFFFFFFFFFFFFFFFFF AND DUP2 MSTORE PUSH1 0x20 ADD SWAP1 DUP2 MSTORE PUSH1 0x20 ADD PUSH0 KECCAK256 PUSH0 PUSH2 0x100 EXP DUP2 SLOAD DUP2 PUSH1 0xFF MUL NOT AND SWAP1 DUP4 ISZERO ISZERO MUL OR SWAP1 SSTORE POP DUP6 PUSH1 0x10 DUP2 SWAP1 SSTORE POP DUP4 ISZERO PUSH2 0xDE8 JUMPI PUSH0 DUP6 PUSH0 ADD PUSH1 0x8 PUSH2 0x100 EXP DUP2 SLOAD DUP2 PUSH1 0xFF MUL NOT AND SWAP1 DUP4 ISZERO ISZERO MUL OR SWAP1 SSTORE POP PUSH32 0xC7F505B2F371AE2175EE4913F4499E1F2633A7B5936321EED1CDAEB6115181D2 PUSH1 0x1 PUSH1 0x40 MLOAD PUSH2 0xDDF SWAP2 SWAP1 PUSH2 0x4B4F JUMP JUMPDEST PUSH1 0x40 MLOAD DUP1 SWAP2 SUB SWAP1 LOG1 JUMPDEST POP POP POP POP POP POP POP POP JUMP JUMPDEST PUSH1 0xA SLOAD DUP2 JUMP JUMPDEST PUSH1 0x8 PUSH1 0x20 MSTORE DUP1 PUSH0 MSTORE PUSH1 0x40 PUSH0 KECCAK256 PUSH0 SWAP2 POP SWAP1 POP SLOAD DUP2 JUMP JUMPDEST PUSH1 0x9 PUSH1 0x20 MSTORE DUP1 PUSH0 MSTORE PUSH1 0x40 PUSH0 KECCAK256 PUSH0 SWAP2 POP SWAP1 POP SLOAD DUP2 JUMP JUMPDEST PUSH0 ISZERO ISZERO PUSH1 0xE PUSH1 0x14 SWAP1 SLOAD SWAP1 PUSH2 0x100 EXP SWAP1 DIV PUSH1 0xFF AND ISZERO ISZERO EQ PUSH1 0x40 MLOAD DUP1 PUSH1 0x40 ADD PUSH1 0x40 MSTORE DUP1 PUSH1 0x2 DUP2 MSTORE PUSH1 0x20 ADD PUSH32 0x3231000000000000000000000000000000000000000000000000000000000000 DUP2 MSTORE POP SWAP1 PUSH2 0xEAF JUMPI PUSH1 0x40 MLOAD PUSH32 0x8C379A000000000000000000000000000000000000000000000000000000000 DUP2 MSTORE PUSH1 0x4 ADD PUSH2 0xEA6 SWAP2 SWAP1 PUSH2 0x4AE3 JUMP JUMPDEST PUSH1 0x40 MLOAD DUP1 SWAP2 SUB SWAP1 REVERT JUMPDEST POP PUSH0 PUSH2 0xEB9 PUSH2 0x35CB JUMP JUMPDEST SWAP1 POP PUSH2 0xEC4 DUP2 PUSH2 0x379F JUMP JUMPDEST PUSH0 PUSH1 0x1 PUSH0 SWAP1 SLOAD SWAP1 PUSH2 0x100 EXP SWAP1 DIV PUSH20 0xFFFFFFFFFFFFFFFFFFFFFFFFFFFFFFFFFFFFFFFF AND PUSH20 0xFFFFFFFFFFFFFFFFFFFFFFFFFFFFFFFFFFFFFFFF AND PUSH4 0x313CE567 PUSH1 0x40 MLOAD DUP2 PUSH4 0xFFFFFFFF AND PUSH1 0xE0 SHL DUP2 MSTORE PUSH1 0x4 ADD PUSH1 0x20 PUSH1 0x40 MLOAD DUP1 DUP4 SUB DUP2 DUP7 GAS STATICCALL ISZERO DUP1 ISZERO PUSH2 0xF2F JUMPI RETURNDATASIZE PUSH0 DUP1 RETURNDATACOPY RETURNDATASIZE PUSH0 REVERT JUMPDEST POP POP POP POP PUSH1 0x40 MLOAD RETURNDATASIZE PUSH1 0x1F NOT PUSH1 0x1F DUP3 ADD AND DUP3 ADD DUP1 PUSH1 0x40 MSTORE POP DUP2 ADD SWAP1 PUSH2 0xF53 SWAP2 SWAP1 PUSH2 0x4814 JUMP JUMPDEST PUSH1 0xA PUSH2 0xF5F SWAP2 SWAP1 PUSH2 0x499B JUMP JUMPDEST PUSH12 0x33B2E3C9FD0803CE8000000 PUSH16 0xFFFFFFFFFFFFFFFFFFFFFFFFFFFFFFFF AND DUP5 PUSH2 0xF89 SWAP2 SWAP1 PUSH2 0x49E5 JUMP JUMPDEST PUSH2 0xF93 SWAP2 SWAP1 PUSH2 0x4A53 JUMP JUMPDEST SWAP1 POP PUSH2 0xF9F PUSH0 DUP3 PUSH2 0x37FC JUMP JUMPDEST PUSH0 PUSH2 0xFE4 PUSH1 0x5 PUSH0 ADD PUSH0 SWAP1 SLOAD SWAP1 PUSH2 0x100 EXP SWAP1 DIV PUSH16 0xFFFFFFFFFFFFFFFFFFFFFFFFFFFFFFFF AND PUSH16 0xFFFFFFFFFFFFFFFFFFFFFFFFFFFFFFFF AND DUP4 PUSH2 0x39EF SWAP1 SWAP2 SWAP1 PUSH4 0xFFFFFFFF AND JUMP JUMPDEST SWAP1 POP PUSH0 DUP2 PUSH1 0x8 PUSH0 CALLER PUSH20 0xFFFFFFFFFFFFFFFFFFFFFFFFFFFFFFFFFFFFFFFF AND PUSH20 0xFFFFFFFFFFFFFFFFFFFFFFFFFFFFFFFFFFFFFFFF AND DUP2 MSTORE PUSH1 0x20 ADD SWAP1 DUP2 MSTORE PUSH1 0x20 ADD PUSH0 KECCAK256 SLOAD PUSH2 0x1030 SWAP2 SWAP1 PUSH2 0x4B68 JUMP JUMPDEST SWAP1 POP DUP2 PUSH1 0xA PUSH0 DUP3 DUP3 SLOAD PUSH2 0x1043 SWAP2 SWAP1 PUSH2 0x4B68 JUMP JUMPDEST SWAP3 POP POP DUP2 SWAP1 SSTORE POP DUP2 PUSH1 0xB PUSH0 DUP3 DUP3 SLOAD PUSH2 0x105B SWAP2 SWAP1 PUSH2 0x4B68 JUMP JUMPDEST SWAP3 POP POP DUP2 SWAP1 SSTORE POP PUSH0 DUP2 LT ISZERO PUSH1 0x40 MLOAD DUP1 PUSH1 0x40 ADD PUSH1 0x40 MSTORE DUP1 PUSH1 0x1 DUP2 MSTORE PUSH1 0x20 ADD PUSH32 0x3800000000000000000000000000000000000000000000000000000000000000 DUP2 MSTORE POP SWAP1 PUSH2 0x10DD JUMPI PUSH1 0x40 MLOAD PUSH32 0x8C379A000000000000000000000000000000000000000000000000000000000 DUP2 MSTORE PUSH1 0x4 ADD PUSH2 0x10D4 SWAP2 SWAP1 PUSH2 0x4AE3 JUMP JUMPDEST PUSH1 0x40 MLOAD DUP1 SWAP2 SUB SWAP1 REVERT JUMPDEST POP DUP1 PUSH1 0x8 PUSH0 CALLER PUSH20 0xFFFFFFFFFFFFFFFFFFFFFFFFFFFFFFFFFFFFFFFF AND PUSH20 0xFFFFFFFFFFFFFFFFFFFFFFFFFFFFFFFFFFFFFFFF AND DUP2 MSTORE PUSH1 0x20 ADD SWAP1 DUP2 MSTORE PUSH1 0x20 ADD PUSH0 KECCAK256 DUP2 SWAP1 SSTORE POP DUP5 PUSH1 0xD PUSH0 DUP3 DUP3 SLOAD PUSH2 0x1131 SWAP2 SWAP1 PUSH2 0x4B68 JUMP JUMPDEST SWAP3 POP POP DUP2 SWAP1 SSTORE POP PUSH1 0x1 PUSH0 SWAP1 SLOAD SWAP1 PUSH2 0x100 EXP SWAP1 DIV PUSH20 0xFFFFFFFFFFFFFFFFFFFFFFFFFFFFFFFFFFFFFFFF AND PUSH20 0xFFFFFFFFFFFFFFFFFFFFFFFFFFFFFFFFFFFFFFFF AND PUSH4 0xA9059CBB CALLER DUP8 PUSH1 0x40 MLOAD DUP4 PUSH4 0xFFFFFFFF AND PUSH1 0xE0 SHL DUP2 MSTORE PUSH1 0x4 ADD PUSH2 0x1194 SWAP3 SWAP2 SWAP1 PUSH2 0x4B9B JUMP JUMPDEST PUSH1 0x20 PUSH1 0x40 MLOAD DUP1 DUP4 SUB DUP2 PUSH0 DUP8 GAS CALL ISZERO DUP1 ISZERO PUSH2 0x11B0 JUMPI RETURNDATASIZE PUSH0 DUP1 RETURNDATACOPY RETURNDATASIZE PUSH0 REVERT JUMPDEST POP POP POP POP PUSH1 0x40 MLOAD RETURNDATASIZE PUSH1 0x1F NOT PUSH1 0x1F DUP3 ADD AND DUP3 ADD DUP1 PUSH1 0x40 MSTORE POP DUP2 ADD SWAP1 PUSH2 0x11D4 SWAP2 SWAP1 PUSH2 0x4BD6 JUMP JUMPDEST POP DUP5 PUSH1 0xF PUSH0 CALLER PUSH20 0xFFFFFFFFFFFFFFFFFFFFFFFFFFFFFFFFFFFFFFFF AND PUSH20 0xFFFFFFFFFFFFFFFFFFFFFFFFFFFFFFFFFFFFFFFF AND DUP2 MSTORE PUSH1 0x20 ADD SWAP1 DUP2 MSTORE PUSH1 0x20 ADD PUSH0 KECCAK256 SLOAD GT ISZERO PUSH2 0x1272 JUMPI DUP5 PUSH1 0xF PUSH0 CALLER PUSH20 0xFFFFFFFFFFFFFFFFFFFFFFFFFFFFFFFFFFFFFFFF AND PUSH20 0xFFFFFFFFFFFFFFFFFFFFFFFFFFFFFFFFFFFFFFFF AND DUP2 MSTORE PUSH1 0x20 ADD SWAP1 DUP2 MSTORE PUSH1 0x20 ADD PUSH0 KECCAK256 PUSH0 DUP3 DUP3 SLOAD PUSH2 0x1266 SWAP2 SWAP1 PUSH2 0x4B68 JUMP JUMPDEST SWAP3 POP POP DUP2 SWAP1 SSTORE POP PUSH2 0x12B5 JUMP JUMPDEST PUSH0 PUSH1 0xF PUSH0 CALLER PUSH20 0xFFFFFFFFFFFFFFFFFFFFFFFFFFFFFFFFFFFFFFFF AND PUSH20 0xFFFFFFFFFFFFFFFFFFFFFFFFFFFFFFFFFFFFFFFF AND DUP2 MSTORE PUSH1 0x20 ADD SWAP1 DUP2 MSTORE PUSH1 0x20 ADD PUSH0 KECCAK256 DUP2 SWAP1 SSTORE POP JUMPDEST PUSH1 0x1 PUSH0 SWAP1 SLOAD SWAP1 PUSH2 0x100 EXP SWAP1 DIV PUSH20 0xFFFFFFFFFFFFFFFFFFFFFFFFFFFFFFFFFFFFFFFF AND PUSH20 0xFFFFFFFFFFFFFFFFFFFFFFFFFFFFFFFFFFFFFFFF AND ADDRESS PUSH20 0xFFFFFFFFFFFFFFFFFFFFFFFFFFFFFFFFFFFFFFFF AND CALLER PUSH20 0xFFFFFFFFFFFFFFFFFFFFFFFFFFFFFFFFFFFFFFFF AND PUSH32 0x173401E3C9626102FE861CA7DDB4665D741DEEBAD547125C24038CAFA9345DB2 DUP9 PUSH1 0x8 PUSH0 CALLER PUSH20 0xFFFFFFFFFFFFFFFFFFFFFFFFFFFFFFFFFFFFFFFF AND PUSH20 0xFFFFFFFFFFFFFFFFFFFFFFFFFFFFFFFFFFFFFFFF AND DUP2 MSTORE PUSH1 0x20 ADD SWAP1 DUP2 MSTORE PUSH1 0x20 ADD PUSH0 KECCAK256 SLOAD PUSH1 0xA SLOAD PUSH1 0xB SLOAD PUSH1 0xD SLOAD PUSH1 0x40 MLOAD PUSH2 0x1395 SWAP6 SWAP5 SWAP4 SWAP3 SWAP2 SWAP1 PUSH2 0x4C01 JUMP JUMPDEST PUSH1 0x40 MLOAD DUP1 SWAP2 SUB SWAP1 LOG4 POP POP POP POP POP JUMP JUMPDEST PUSH1 0xF PUSH1 0x20 MSTORE DUP1 PUSH0 MSTORE PUSH1 0x40 PUSH0 KECCAK256 PUSH0 SWAP2 POP SWAP1 POP SLOAD DUP2 JUMP JUMPDEST PUSH0 ISZERO ISZERO PUSH1 0xE PUSH1 0x14 SWAP1 SLOAD SWAP1 PUSH2 0x100 EXP SWAP1 DIV PUSH1 0xFF AND ISZERO ISZERO EQ PUSH1 0x40 MLOAD DUP1 PUSH1 0x40 ADD PUSH1 0x40 MSTORE DUP1 PUSH1 0x2 DUP2 MSTORE PUSH1 0x20 ADD PUSH32 0x3231000000000000000000000000000000000000000000000000000000000000 DUP2 MSTORE POP SWAP1 PUSH2 0x1446 JUMPI PUSH1 0x40 MLOAD PUSH32 0x8C379A000000000000000000000000000000000000000000000000000000000 DUP2 MSTORE PUSH1 0x4 ADD PUSH2 0x143D SWAP2 SWAP1 PUSH2 0x4AE3 JUMP JUMPDEST PUSH1 0x40 MLOAD DUP1 SWAP2 SUB SWAP1 REVERT JUMPDEST POP PUSH1 0x10 SLOAD DUP2 PUSH2 0x1453 PUSH2 0x278E JUMP JUMPDEST PUSH2 0x145D SWAP2 SWAP1 PUSH2 0x4C52 JUMP JUMPDEST GT ISZERO PUSH1 0x40 MLOAD DUP1 PUSH1 0x40 ADD PUSH1 0x40 MSTORE DUP1 PUSH1 0x2 DUP2 MSTORE PUSH1 0x20 ADD PUSH32 0x3233000000000000000000000000000000000000000000000000000000000000 DUP2 MSTORE POP SWAP1 PUSH2 0x14D6 JUMPI PUSH1 0x40 MLOAD PUSH32 0x8C379A000000000000000000000000000000000000000000000000000000000 DUP2 MSTORE PUSH1 0x4 ADD PUSH2 0x14CD SWAP2 SWAP1 PUSH2 0x4AE3 JUMP JUMPDEST PUSH1 0x40 MLOAD DUP1 SWAP2 SUB SWAP1 REVERT JUMPDEST POP PUSH0 PUSH2 0x14E0 PUSH2 0x35CB JUMP JUMPDEST SWAP1 POP PUSH2 0x14EB DUP2 PUSH2 0x379F JUMP JUMPDEST PUSH0 PUSH1 0x1 PUSH0 SWAP1 SLOAD SWAP1 PUSH2 0x100 EXP SWAP1 DIV PUSH20 0xFFFFFFFFFFFFFFFFFFFFFFFFFFFFFFFFFFFFFFFF AND PUSH20 0xFFFFFFFFFFFFFFFFFFFFFFFFFFFFFFFFFFFFFFFF AND PUSH4 0x313CE567 PUSH1 0x40 MLOAD DUP2 PUSH4 0xFFFFFFFF AND PUSH1 0xE0 SHL DUP2 MSTORE PUSH1 0x4 ADD PUSH1 0x20 PUSH1 0x40 MLOAD DUP1 DUP4 SUB DUP2 DUP7 GAS STATICCALL ISZERO DUP1 ISZERO PUSH2 0x1556 JUMPI RETURNDATASIZE PUSH0 DUP1 RETURNDATACOPY RETURNDATASIZE PUSH0 REVERT JUMPDEST POP POP POP POP PUSH1 0x40 MLOAD RETURNDATASIZE PUSH1 0x1F NOT PUSH1 0x1F DUP3 ADD AND DUP3 ADD DUP1 PUSH1 0x40 MSTORE POP DUP2 ADD SWAP1 PUSH2 0x157A SWAP2 SWAP1 PUSH2 0x4814 JUMP JUMPDEST PUSH1 0xA PUSH2 0x1586 SWAP2 SWAP1 PUSH2 0x499B JUMP JUMPDEST PUSH12 0x33B2E3C9FD0803CE8000000 PUSH16 0xFFFFFFFFFFFFFFFFFFFFFFFFFFFFFFFF AND DUP5 PUSH2 0x15B0 SWAP2 SWAP1 PUSH2 0x49E5 JUMP JUMPDEST PUSH2 0x15BA SWAP2 SWAP1 PUSH2 0x4A53 JUMP JUMPDEST SWAP1 POP PUSH2 0x15C6 DUP2 PUSH0 PUSH2 0x37FC JUMP JUMPDEST PUSH0 PUSH2 0x160B PUSH1 0x5 PUSH0 ADD PUSH0 SWAP1 SLOAD SWAP1 PUSH2 0x100 EXP SWAP1 DIV PUSH16 0xFFFFFFFFFFFFFFFFFFFFFFFFFFFFFFFF AND PUSH16 0xFFFFFFFFFFFFFFFFFFFFFFFFFFFFFFFF AND DUP4 PUSH2 0x39EF SWAP1 SWAP2 SWAP1 PUSH4 0xFFFFFFFF AND JUMP JUMPDEST SWAP1 POP PUSH0 DUP2 PUSH1 0x8 PUSH0 CALLER PUSH20 0xFFFFFFFFFFFFFFFFFFFFFFFFFFFFFFFFFFFFFFFF AND PUSH20 0xFFFFFFFFFFFFFFFFFFFFFFFFFFFFFFFFFFFFFFFF AND DUP2 MSTORE PUSH1 0x20 ADD SWAP1 DUP2 MSTORE PUSH1 0x20 ADD PUSH0 KECCAK256 SLOAD PUSH2 0x1657 SWAP2 SWAP1 PUSH2 0x4C52 JUMP JUMPDEST SWAP1 POP DUP2 PUSH1 0xA PUSH0 DUP3 DUP3 SLOAD PUSH2 0x166A SWAP2 SWAP1 PUSH2 0x4C52 JUMP JUMPDEST SWAP3 POP POP DUP2 SWAP1 SSTORE POP DUP2 PUSH1 0xB PUSH0 DUP3 DUP3 SLOAD PUSH2 0x1682 SWAP2 SWAP1 PUSH2 0x4C52 JUMP JUMPDEST SWAP3 POP POP DUP2 SWAP1 SSTORE POP DUP1 PUSH1 0x8 PUSH0 CALLER PUSH20 0xFFFFFFFFFFFFFFFFFFFFFFFFFFFFFFFFFFFFFFFF AND PUSH20 0xFFFFFFFFFFFFFFFFFFFFFFFFFFFFFFFFFFFFFFFF AND DUP2 MSTORE PUSH1 0x20 ADD SWAP1 DUP2 MSTORE PUSH1 0x20 ADD PUSH0 KECCAK256 DUP2 SWAP1 SSTORE POP DUP5 PUSH1 0xD PUSH0 DUP3 DUP3 SLOAD PUSH2 0x16DC SWAP2 SWAP1 PUSH2 0x4C52 JUMP JUMPDEST SWAP3 POP POP DUP2 SWAP1 SSTORE POP PUSH1 0x1 PUSH0 SWAP1 SLOAD SWAP1 PUSH2 0x100 EXP SWAP1 DIV PUSH20 0xFFFFFFFFFFFFFFFFFFFFFFFFFFFFFFFFFFFFFFFF AND PUSH20 0xFFFFFFFFFFFFFFFFFFFFFFFFFFFFFFFFFFFFFFFF AND PUSH4 0x23B872DD CALLER ADDRESS DUP9 PUSH1 0x40 MLOAD DUP5 PUSH4 0xFFFFFFFF AND PUSH1 0xE0 SHL DUP2 MSTORE PUSH1 0x4 ADD PUSH2 0x1741 SWAP4 SWAP3 SWAP2 SWAP1 PUSH2 0x4C85 JUMP JUMPDEST PUSH1 0x20 PUSH1 0x40 MLOAD DUP1 DUP4 SUB DUP2 PUSH0 DUP8 GAS CALL ISZERO DUP1 ISZERO PUSH2 0x175D JUMPI RETURNDATASIZE PUSH0 DUP1 RETURNDATACOPY RETURNDATASIZE PUSH0 REVERT JUMPDEST POP POP POP POP PUSH1 0x40 MLOAD RETURNDATASIZE PUSH1 0x1F NOT PUSH1 0x1F DUP3 ADD AND DUP3 ADD DUP1 PUSH1 0x40 MSTORE POP DUP2 ADD SWAP1 PUSH2 0x1781 SWAP2 SWAP1 PUSH2 0x4BD6 JUMP JUMPDEST POP DUP5 PUSH1 0xF PUSH0 CALLER PUSH20 0xFFFFFFFFFFFFFFFFFFFFFFFFFFFFFFFFFFFFFFFF AND PUSH20 0xFFFFFFFFFFFFFFFFFFFFFFFFFFFFFFFFFFFFFFFF AND DUP2 MSTORE PUSH1 0x20 ADD SWAP1 DUP2 MSTORE PUSH1 0x20 ADD PUSH0 KECCAK256 PUSH0 DUP3 DUP3 SLOAD PUSH2 0x17CE SWAP2 SWAP1 PUSH2 0x4C52 JUMP JUMPDEST SWAP3 POP POP DUP2 SWAP1 SSTORE POP PUSH1 0x1 PUSH0 SWAP1 SLOAD SWAP1 PUSH2 0x100 EXP SWAP1 DIV PUSH20 0xFFFFFFFFFFFFFFFFFFFFFFFFFFFFFFFFFFFFFFFF AND PUSH20 0xFFFFFFFFFFFFFFFFFFFFFFFFFFFFFFFFFFFFFFFF AND ADDRESS PUSH20 0xFFFFFFFFFFFFFFFFFFFFFFFFFFFFFFFFFFFFFFFF AND CALLER PUSH20 0xFFFFFFFFFFFFFFFFFFFFFFFFFFFFFFFFFFFFFFFF AND PUSH32 0xAC71E4358C08CEF1A5335AC1C1D79F8EEA0A3BD10F01A4259308137EBC63D76A DUP9 PUSH1 0x8 PUSH0 CALLER PUSH20 0xFFFFFFFFFFFFFFFFFFFFFFFFFFFFFFFFFFFFFFFF AND PUSH20 0xFFFFFFFFFFFFFFFFFFFFFFFFFFFFFFFFFFFFFFFF AND DUP2 MSTORE PUSH1 0x20 ADD SWAP1 DUP2 MSTORE PUSH1 0x20 ADD PUSH0 KECCAK256 SLOAD PUSH1 0xA SLOAD PUSH1 0xB SLOAD PUSH1 0xD SLOAD PUSH1 0x40 MLOAD PUSH2 0x18B5 SWAP6 SWAP5 SWAP4 SWAP3 SWAP2 SWAP1 PUSH2 0x4C01 JUMP JUMPDEST PUSH1 0x40 MLOAD DUP1 SWAP2 SUB SWAP1 LOG4 POP POP POP POP POP JUMP JUMPDEST PUSH1 0x10 SLOAD DUP2 JUMP JUMPDEST CALLER PUSH20 0xFFFFFFFFFFFFFFFFFFFFFFFFFFFFFFFFFFFFFFFF AND PUSH1 0x4 PUSH0 SWAP1 SLOAD SWAP1 PUSH2 0x100 EXP SWAP1 DIV PUSH20 0xFFFFFFFFFFFFFFFFFFFFFFFFFFFFFFFFFFFFFFFF AND PUSH20 0xFFFFFFFFFFFFFFFFFFFFFFFFFFFFFFFFFFFFFFFF AND EQ PUSH1 0x40 MLOAD DUP1 PUSH1 0x40 ADD PUSH1 0x40 MSTORE DUP1 PUSH1 0x2 DUP2 MSTORE PUSH1 0x20 ADD PUSH32 0x3133000000000000000000000000000000000000000000000000000000000000 DUP2 MSTORE POP SWAP1 PUSH2 0x1991 JUMPI PUSH1 0x40 MLOAD PUSH32 0x8C379A000000000000000000000000000000000000000000000000000000000 DUP2 MSTORE PUSH1 0x4 ADD PUSH2 0x1988 SWAP2 SWAP1 PUSH2 0x4AE3 JUMP JUMPDEST PUSH1 0x40 MLOAD DUP1 SWAP2 SUB SWAP1 REVERT JUMPDEST POP PUSH0 ISZERO ISZERO PUSH1 0xE PUSH1 0x14 SWAP1 SLOAD SWAP1 PUSH2 0x100 EXP SWAP1 DIV PUSH1 0xFF AND ISZERO ISZERO EQ PUSH1 0x40 MLOAD DUP1 PUSH1 0x40 ADD PUSH1 0x40 MSTORE DUP1 PUSH1 0x2 DUP2 MSTORE PUSH1 0x20 ADD PUSH32 0x3231000000000000000000000000000000000000000000000000000000000000 DUP2 MSTORE POP SWAP1 PUSH2 0x1A1F JUMPI PUSH1 0x40 MLOAD PUSH32 0x8C379A000000000000000000000000000000000000000000000000000000000 DUP2 MSTORE PUSH1 0x4 ADD PUSH2 0x1A16 SWAP2 SWAP1 PUSH2 0x4AE3 JUMP JUMPDEST PUSH1 0x40 MLOAD DUP1 SWAP2 SUB SWAP1 REVERT JUMPDEST POP PUSH0 PUSH2 0x1A29 PUSH2 0x35CB JUMP JUMPDEST SWAP1 POP PUSH2 0x1A34 DUP2 PUSH2 0x379F JUMP JUMPDEST PUSH0 PUSH1 0x1 PUSH0 SWAP1 SLOAD SWAP1 PUSH2 0x100 EXP SWAP1 DIV PUSH20 0xFFFFFFFFFFFFFFFFFFFFFFFFFFFFFFFFFFFFFFFF AND PUSH20 0xFFFFFFFFFFFFFFFFFFFFFFFFFFFFFFFFFFFFFFFF AND PUSH4 0x313CE567 PUSH1 0x40 MLOAD DUP2 PUSH4 0xFFFFFFFF AND PUSH1 0xE0 SHL DUP2 MSTORE PUSH1 0x4 ADD PUSH1 0x20 PUSH1 0x40 MLOAD DUP1 DUP4 SUB DUP2 DUP7 GAS STATICCALL ISZERO DUP1 ISZERO PUSH2 0x1A9F JUMPI RETURNDATASIZE PUSH0 DUP1 RETURNDATACOPY RETURNDATASIZE PUSH0 REVERT JUMPDEST POP POP POP POP PUSH1 0x40 MLOAD RETURNDATASIZE PUSH1 0x1F NOT PUSH1 0x1F DUP3 ADD AND DUP3 ADD DUP1 PUSH1 0x40 MSTORE POP DUP2 ADD SWAP1 PUSH2 0x1AC3 SWAP2 SWAP1 PUSH2 0x4814 JUMP JUMPDEST PUSH1 0xA PUSH2 0x1ACF SWAP2 SWAP1 PUSH2 0x499B JUMP JUMPDEST PUSH12 0x33B2E3C9FD0803CE8000000 PUSH16 0xFFFFFFFFFFFFFFFFFFFFFFFFFFFFFFFF AND DUP7 PUSH2 0x1AF9 SWAP2 SWAP1 PUSH2 0x49E5 JUMP JUMPDEST PUSH2 0x1B03 SWAP2 SWAP1 PUSH2 0x4A53 JUMP JUMPDEST SWAP1 POP PUSH0 PUSH2 0x1B1D DUP4 PUSH1 0x80 ADD MLOAD DUP4 PUSH2 0x39EF SWAP1 SWAP2 SWAP1 PUSH4 0xFFFFFFFF AND JUMP JUMPDEST SWAP1 POP PUSH0 DUP2 PUSH1 0x9 PUSH0 DUP11 DUP2 MSTORE PUSH1 0x20 ADD SWAP1 DUP2 MSTORE PUSH1 0x20 ADD PUSH0 KECCAK256 SLOAD PUSH2 0x1B3D SWAP2 SWAP1 PUSH2 0x4C52 JUMP JUMPDEST SWAP1 POP DUP2 PUSH1 0xC PUSH0 DUP3 DUP3 SLOAD PUSH2 0x1B50 SWAP2 SWAP1 PUSH2 0x4C52 JUMP JUMPDEST SWAP3 POP POP DUP2 SWAP1 SSTORE POP PUSH1 0xD SLOAD DUP8 GT ISZERO PUSH1 0x40 MLOAD DUP1 PUSH1 0x40 ADD PUSH1 0x40 MSTORE DUP1 PUSH1 0x2 DUP2 MSTORE PUSH1 0x20 ADD PUSH32 0x3135000000000000000000000000000000000000000000000000000000000000 DUP2 MSTORE POP SWAP1 PUSH2 0x1BD4 JUMPI PUSH1 0x40 MLOAD PUSH32 0x8C379A000000000000000000000000000000000000000000000000000000000 DUP2 MSTORE PUSH1 0x4 ADD PUSH2 0x1BCB SWAP2 SWAP1 PUSH2 0x4AE3 JUMP JUMPDEST PUSH1 0x40 MLOAD DUP1 SWAP2 SUB SWAP1 REVERT JUMPDEST POP PUSH0 PUSH1 0x3 PUSH0 DUP11 DUP2 MSTORE PUSH1 0x20 ADD SWAP1 DUP2 MSTORE PUSH1 0x20 ADD PUSH0 KECCAK256 SWAP1 POP DUP2 PUSH1 0x9 PUSH0 DUP12 DUP2 MSTORE PUSH1 0x20 ADD SWAP1 DUP2 MSTORE PUSH1 0x20 ADD PUSH0 KECCAK256 DUP2 SWAP1 SSTORE POP DUP9 DUP2 PUSH0 ADD DUP2 SWAP1 SSTORE POP DUP8 DUP2 PUSH1 0x1 ADD DUP2 SWAP1 SSTORE POP DUP7 DUP2 PUSH1 0x2 ADD PUSH1 0x1 PUSH2 0x100 EXP DUP2 SLOAD DUP2 PUSH20 0xFFFFFFFFFFFFFFFFFFFFFFFFFFFFFFFFFFFFFFFF MUL NOT AND SWAP1 DUP4 PUSH20 0xFFFFFFFFFFFFFFFFFFFFFFFFFFFFFFFFFFFFFFFF AND MUL OR SWAP1 SSTORE POP DUP6 DUP2 PUSH1 0x3 ADD PUSH1 0x15 PUSH2 0x100 EXP DUP2 SLOAD DUP2 PUSH1 0xFF MUL NOT AND SWAP1 DUP4 ISZERO ISZERO MUL OR SWAP1 SSTORE POP PUSH2 0x1C79 PUSH0 DUP6 PUSH2 0x37FC JUMP JUMPDEST PUSH2 0x1C90 DUP6 PUSH1 0x40 ADD MLOAD DUP6 PUSH2 0x39EF SWAP1 SWAP2 SWAP1 PUSH4 0xFFFFFFFF AND JUMP JUMPDEST PUSH1 0xB PUSH0 DUP3 DUP3 SLOAD PUSH2 0x1CA0 SWAP2 SWAP1 PUSH2 0x4B68 JUMP JUMPDEST SWAP3 POP POP DUP2 SWAP1 SSTORE POP DUP8 PUSH1 0xD PUSH0 DUP3 DUP3 SLOAD PUSH2 0x1CB8 SWAP2 SWAP1 PUSH2 0x4B68 JUMP JUMPDEST SWAP3 POP POP DUP2 SWAP1 SSTORE POP PUSH1 0x1 PUSH0 SWAP1 SLOAD SWAP1 PUSH2 0x100 EXP SWAP1 DIV PUSH20 0xFFFFFFFFFFFFFFFFFFFFFFFFFFFFFFFFFFFFFFFF AND PUSH20 0xFFFFFFFFFFFFFFFFFFFFFFFFFFFFFFFFFFFFFFFF AND PUSH4 0xA9059CBB DUP9 PUSH1 0x3 PUSH0 DUP14 DUP2 MSTORE PUSH1 0x20 ADD SWAP1 DUP2 MSTORE PUSH1 0x20 ADD PUSH0 KECCAK256 PUSH1 0x1 ADD SLOAD PUSH1 0x40 MLOAD DUP4 PUSH4 0xFFFFFFFF AND PUSH1 0xE0 SHL DUP2 MSTORE PUSH1 0x4 ADD PUSH2 0x1D2F SWAP3 SWAP2 SWAP1 PUSH2 0x4B9B JUMP JUMPDEST PUSH1 0x20 PUSH1 0x40 MLOAD DUP1 DUP4 SUB DUP2 PUSH0 DUP8 GAS CALL ISZERO DUP1 ISZERO PUSH2 0x1D4B JUMPI RETURNDATASIZE PUSH0 DUP1 RETURNDATACOPY RETURNDATASIZE PUSH0 REVERT JUMPDEST POP POP POP POP PUSH1 0x40 MLOAD RETURNDATASIZE PUSH1 0x1F NOT PUSH1 0x1F DUP3 ADD AND DUP3 ADD DUP1 PUSH1 0x40 MSTORE POP DUP2 ADD SWAP1 PUSH2 0x1D6F SWAP2 SWAP1 PUSH2 0x4BD6 JUMP JUMPDEST POP POP POP POP POP POP POP POP POP POP JUMP JUMPDEST PUSH1 0x1 ISZERO ISZERO PUSH0 DUP1 CALLER PUSH20 0xFFFFFFFFFFFFFFFFFFFFFFFFFFFFFFFFFFFFFFFF AND PUSH20 0xFFFFFFFFFFFFFFFFFFFFFFFFFFFFFFFFFFFFFFFF AND DUP2 MSTORE PUSH1 0x20 ADD SWAP1 DUP2 MSTORE PUSH1 0x20 ADD PUSH0 KECCAK256 PUSH0 SWAP1 SLOAD SWAP1 PUSH2 0x100 EXP SWAP1 DIV PUSH1 0xFF AND ISZERO ISZERO EQ PUSH1 0x40 MLOAD DUP1 PUSH1 0x40 ADD PUSH1 0x40 MSTORE DUP1 PUSH1 0x2 DUP2 MSTORE PUSH1 0x20 ADD PUSH32 0x3138000000000000000000000000000000000000000000000000000000000000 DUP2 MSTORE POP SWAP1 PUSH2 0x1E42 JUMPI PUSH1 0x40 MLOAD PUSH32 0x8C379A000000000000000000000000000000000000000000000000000000000 DUP2 MSTORE PUSH1 0x4 ADD PUSH2 0x1E39 SWAP2 SWAP1 PUSH2 0x4AE3 JUMP JUMPDEST PUSH1 0x40 MLOAD DUP1 SWAP2 SUB SWAP1 REVERT JUMPDEST POP DUP1 PUSH1 0x5 PUSH1 0x2 ADD PUSH1 0x7 PUSH2 0x100 EXP DUP2 SLOAD DUP2 PUSH20 0xFFFFFFFFFFFFFFFFFFFFFFFFFFFFFFFFFFFFFFFF MUL NOT AND SWAP1 DUP4 PUSH20 0xFFFFFFFFFFFFFFFFFFFFFFFFFFFFFFFFFFFFFFFF AND MUL OR SWAP1 SSTORE POP POP JUMP JUMPDEST PUSH0 PUSH1 0xD SLOAD SWAP1 POP SWAP1 JUMP JUMPDEST PUSH1 0x4 PUSH0 SWAP1 SLOAD SWAP1 PUSH2 0x100 EXP SWAP1 DIV PUSH20 0xFFFFFFFFFFFFFFFFFFFFFFFFFFFFFFFFFFFFFFFF AND DUP2 JUMP JUMPDEST PUSH1 0x1 ISZERO ISZERO PUSH0 DUP1 CALLER PUSH20 0xFFFFFFFFFFFFFFFFFFFFFFFFFFFFFFFFFFFFFFFF AND PUSH20 0xFFFFFFFFFFFFFFFFFFFFFFFFFFFFFFFFFFFFFFFF AND DUP2 MSTORE PUSH1 0x20 ADD SWAP1 DUP2 MSTORE PUSH1 0x20 ADD PUSH0 KECCAK256 PUSH0 SWAP1 SLOAD SWAP1 PUSH2 0x100 EXP SWAP1 DIV PUSH1 0xFF AND ISZERO ISZERO EQ PUSH1 0x40 MLOAD DUP1 PUSH1 0x40 ADD PUSH1 0x40 MSTORE DUP1 PUSH1 0x2 DUP2 MSTORE PUSH1 0x20 ADD PUSH32 0x3138000000000000000000000000000000000000000000000000000000000000 DUP2 MSTORE POP SWAP1 PUSH2 0x1F7F JUMPI PUSH1 0x40 MLOAD PUSH32 0x8C379A000000000000000000000000000000000000000000000000000000000 DUP2 MSTORE PUSH1 0x4 ADD PUSH2 0x1F76 SWAP2 SWAP1 PUSH2 0x4AE3 JUMP JUMPDEST PUSH1 0x40 MLOAD DUP1 SWAP2 SUB SWAP1 REVERT JUMPDEST POP DUP1 PUSH1 0x10 DUP2 SWAP1 SSTORE POP POP JUMP JUMPDEST PUSH0 PUSH1 0x1 PUSH0 SWAP1 SLOAD SWAP1 PUSH2 0x100 EXP SWAP1 DIV PUSH20 0xFFFFFFFFFFFFFFFFFFFFFFFFFFFFFFFFFFFFFFFF AND PUSH20 0xFFFFFFFFFFFFFFFFFFFFFFFFFFFFFFFFFFFFFFFF AND PUSH4 0x313CE567 PUSH1 0x40 MLOAD DUP2 PUSH4 0xFFFFFFFF AND PUSH1 0xE0 SHL DUP2 MSTORE PUSH1 0x4 ADD PUSH1 0x20 PUSH1 0x40 MLOAD DUP1 DUP4 SUB DUP2 DUP7 GAS STATICCALL ISZERO DUP1 ISZERO PUSH2 0x1FF5 JUMPI RETURNDATASIZE PUSH0 DUP1 RETURNDATACOPY RETURNDATASIZE PUSH0 REVERT JUMPDEST POP POP POP POP PUSH1 0x40 MLOAD RETURNDATASIZE PUSH1 0x1F NOT PUSH1 0x1F DUP3 ADD AND DUP3 ADD DUP1 PUSH1 0x40 MSTORE POP DUP2 ADD SWAP1 PUSH2 0x2019 SWAP2 SWAP1 PUSH2 0x4814 JUMP JUMPDEST PUSH1 0x1B PUSH2 0x2025 SWAP2 SWAP1 PUSH2 0x4CBA JUMP JUMPDEST PUSH1 0xA PUSH2 0x2031 SWAP2 SWAP1 PUSH2 0x499B JUMP JUMPDEST PUSH2 0x20B2 PUSH1 0x5 PUSH0 ADD PUSH0 SWAP1 SLOAD SWAP1 PUSH2 0x100 EXP SWAP1 DIV PUSH16 0xFFFFFFFFFFFFFFFFFFFFFFFFFFFFFFFF AND PUSH16 0xFFFFFFFFFFFFFFFFFFFFFFFFFFFFFFFF AND PUSH1 0x8 PUSH0 DUP7 PUSH20 0xFFFFFFFFFFFFFFFFFFFFFFFFFFFFFFFFFFFFFFFF AND PUSH20 0xFFFFFFFFFFFFFFFFFFFFFFFFFFFFFFFFFFFFFFFF AND DUP2 MSTORE PUSH1 0x20 ADD SWAP1 DUP2 MSTORE PUSH1 0x20 ADD PUSH0 KECCAK256 SLOAD PUSH2 0x3730 SWAP1 SWAP2 SWAP1 PUSH4 0xFFFFFFFF AND JUMP JUMPDEST PUSH2 0x20BC SWAP2 SWAP1 PUSH2 0x4A53 JUMP JUMPDEST SWAP1 POP SWAP2 SWAP1 POP JUMP JUMPDEST PUSH0 PUSH1 0xF PUSH0 DUP4 PUSH20 0xFFFFFFFFFFFFFFFFFFFFFFFFFFFFFFFFFFFFFFFF AND PUSH20 0xFFFFFFFFFFFFFFFFFFFFFFFFFFFFFFFFFFFFFFFF AND DUP2 MSTORE PUSH1 0x20 ADD SWAP1 DUP2 MSTORE PUSH1 0x20 ADD PUSH0 KECCAK256 SLOAD SWAP1 POP SWAP2 SWAP1 POP JUMP JUMPDEST CALLER PUSH20 0xFFFFFFFFFFFFFFFFFFFFFFFFFFFFFFFFFFFFFFFF AND PUSH1 0x4 PUSH0 SWAP1 SLOAD SWAP1 PUSH2 0x100 EXP SWAP1 DIV PUSH20 0xFFFFFFFFFFFFFFFFFFFFFFFFFFFFFFFFFFFFFFFF AND PUSH20 0xFFFFFFFFFFFFFFFFFFFFFFFFFFFFFFFFFFFFFFFF AND EQ PUSH1 0x40 MLOAD DUP1 PUSH1 0x40 ADD PUSH1 0x40 MSTORE DUP1 PUSH1 0x2 DUP2 MSTORE PUSH1 0x20 ADD PUSH32 0x3133000000000000000000000000000000000000000000000000000000000000 DUP2 MSTORE POP SWAP1 PUSH2 0x21D0 JUMPI PUSH1 0x40 MLOAD PUSH32 0x8C379A000000000000000000000000000000000000000000000000000000000 DUP2 MSTORE PUSH1 0x4 ADD PUSH2 0x21C7 SWAP2 SWAP1 PUSH2 0x4AE3 JUMP JUMPDEST PUSH1 0x40 MLOAD DUP1 SWAP2 SUB SWAP1 REVERT JUMPDEST POP PUSH0 ISZERO ISZERO PUSH1 0xE PUSH1 0x14 SWAP1 SLOAD SWAP1 PUSH2 0x100 EXP SWAP1 DIV PUSH1 0xFF AND ISZERO ISZERO EQ PUSH1 0x40 MLOAD DUP1 PUSH1 0x40 ADD PUSH1 0x40 MSTORE DUP1 PUSH1 0x2 DUP2 MSTORE PUSH1 0x20 ADD PUSH32 0x3231000000000000000000000000000000000000000000000000000000000000 DUP2 MSTORE POP SWAP1 PUSH2 0x225E JUMPI PUSH1 0x40 MLOAD PUSH32 0x8C379A000000000000000000000000000000000000000000000000000000000 DUP2 MSTORE PUSH1 0x4 ADD PUSH2 0x2255 SWAP2 SWAP1 PUSH2 0x4AE3 JUMP JUMPDEST PUSH1 0x40 MLOAD DUP1 SWAP2 SUB SWAP1 REVERT JUMPDEST POP PUSH0 ISZERO ISZERO PUSH1 0x3 PUSH0 DUP5 DUP2 MSTORE PUSH1 0x20 ADD SWAP1 DUP2 MSTORE PUSH1 0x20 ADD PUSH0 KECCAK256 PUSH1 0x2 ADD PUSH1 0x15 SWAP1 SLOAD SWAP1 PUSH2 0x100 EXP SWAP1 DIV PUSH1 0xFF AND ISZERO ISZERO EQ PUSH1 0x40 MLOAD DUP1 PUSH1 0x40 ADD PUSH1 0x40 MSTORE DUP1 PUSH1 0x2 DUP2 MSTORE PUSH1 0x20 ADD PUSH32 0x3137000000000000000000000000000000000000000000000000000000000000 DUP2 MSTORE POP SWAP1 PUSH2 0x22FE JUMPI PUSH1 0x40 MLOAD PUSH32 0x8C379A000000000000000000000000000000000000000000000000000000000 DUP2 MSTORE PUSH1 0x4 ADD PUSH2 0x22F5 SWAP2 SWAP1 PUSH2 0x4AE3 JUMP JUMPDEST PUSH1 0x40 MLOAD DUP1 SWAP2 SUB SWAP1 REVERT JUMPDEST POP PUSH2 0x2309 DUP2 CALLER PUSH2 0x3A33 JUMP JUMPDEST PUSH1 0x1 PUSH1 0x3 PUSH0 DUP5 DUP2 MSTORE PUSH1 0x20 ADD SWAP1 DUP2 MSTORE PUSH1 0x20 ADD PUSH0 KECCAK256 PUSH1 0x2 ADD PUSH1 0x15 PUSH2 0x100 EXP DUP2 SLOAD DUP2 PUSH1 0xFF MUL NOT AND SWAP1 DUP4 ISZERO ISZERO MUL OR SWAP1 SSTORE POP POP POP JUMP JUMPDEST PUSH1 0x1 ISZERO ISZERO PUSH0 DUP1 CALLER PUSH20 0xFFFFFFFFFFFFFFFFFFFFFFFFFFFFFFFFFFFFFFFF AND PUSH20 0xFFFFFFFFFFFFFFFFFFFFFFFFFFFFFFFFFFFFFFFF AND DUP2 MSTORE PUSH1 0x20 ADD SWAP1 DUP2 MSTORE PUSH1 0x20 ADD PUSH0 KECCAK256 PUSH0 SWAP1 SLOAD SWAP1 PUSH2 0x100 EXP SWAP1 DIV PUSH1 0xFF AND ISZERO ISZERO EQ PUSH1 0x40 MLOAD DUP1 PUSH1 0x40 ADD PUSH1 0x40 MSTORE DUP1 PUSH1 0x2 DUP2 MSTORE PUSH1 0x20 ADD PUSH32 0x3138000000000000000000000000000000000000000000000000000000000000 DUP2 MSTORE POP SWAP1 PUSH2 0x2401 JUMPI PUSH1 0x40 MLOAD PUSH32 0x8C379A000000000000000000000000000000000000000000000000000000000 DUP2 MSTORE PUSH1 0x4 ADD PUSH2 0x23F8 SWAP2 SWAP1 PUSH2 0x4AE3 JUMP JUMPDEST PUSH1 0x40 MLOAD DUP1 SWAP2 SUB SWAP1 REVERT JUMPDEST POP DUP1 PUSH1 0x4 PUSH0 PUSH2 0x100 EXP DUP2 SLOAD DUP2 PUSH20 0xFFFFFFFFFFFFFFFFFFFFFFFFFFFFFFFFFFFFFFFF MUL NOT AND SWAP1 DUP4 PUSH20 0xFFFFFFFFFFFFFFFFFFFFFFFFFFFFFFFFFFFFFFFF AND MUL OR SWAP1 SSTORE POP POP JUMP JUMPDEST PUSH1 0x2 DUP2 DUP2 SLOAD DUP2 LT PUSH2 0x2454 JUMPI PUSH0 DUP1 REVERT JUMPDEST SWAP1 PUSH0 MSTORE PUSH1 0x20 PUSH0 KECCAK256 ADD PUSH0 SWAP2 POP SLOAD SWAP1 PUSH2 0x100 EXP SWAP1 DIV PUSH20 0xFFFFFFFFFFFFFFFFFFFFFFFFFFFFFFFFFFFFFFFF AND DUP2 JUMP JUMPDEST PUSH1 0x1 PUSH0 SWAP1 SLOAD SWAP1 PUSH2 0x100 EXP SWAP1 DIV PUSH20 0xFFFFFFFFFFFFFFFFFFFFFFFFFFFFFFFFFFFFFFFF AND DUP2 JUMP JUMPDEST CALLER PUSH20 0xFFFFFFFFFFFFFFFFFFFFFFFFFFFFFFFFFFFFFFFF AND PUSH1 0x4 PUSH0 SWAP1 SLOAD SWAP1 PUSH2 0x100 EXP SWAP1 DIV PUSH20 0xFFFFFFFFFFFFFFFFFFFFFFFFFFFFFFFFFFFFFFFF AND PUSH20 0xFFFFFFFFFFFFFFFFFFFFFFFFFFFFFFFFFFFFFFFF AND EQ PUSH1 0x40 MLOAD DUP1 PUSH1 0x40 ADD PUSH1 0x40 MSTORE DUP1 PUSH1 0x2 DUP2 MSTORE PUSH1 0x20 ADD PUSH32 0x3133000000000000000000000000000000000000000000000000000000000000 DUP2 MSTORE POP SWAP1 PUSH2 0x256C JUMPI PUSH1 0x40 MLOAD PUSH32 0x8C379A000000000000000000000000000000000000000000000000000000000 DUP2 MSTORE PUSH1 0x4 ADD PUSH2 0x2563 SWAP2 SWAP1 PUSH2 0x4AE3 JUMP JUMPDEST PUSH1 0x40 MLOAD DUP1 SWAP2 SUB SWAP1 REVERT JUMPDEST POP PUSH0 ISZERO ISZERO PUSH1 0xE PUSH1 0x14 SWAP1 SLOAD SWAP1 PUSH2 0x100 EXP SWAP1 DIV PUSH1 0xFF AND ISZERO ISZERO EQ PUSH1 0x40 MLOAD DUP1 PUSH1 0x40 ADD PUSH1 0x40 MSTORE DUP1 PUSH1 0x2 DUP2 MSTORE PUSH1 0x20 ADD PUSH32 0x3231000000000000000000000000000000000000000000000000000000000000 DUP2 MSTORE POP SWAP1 PUSH2 0x25FA JUMPI PUSH1 0x40 MLOAD PUSH32 0x8C379A000000000000000000000000000000000000000000000000000000000 DUP2 MSTORE PUSH1 0x4 ADD PUSH2 0x25F1 SWAP2 SWAP1 PUSH2 0x4AE3 JUMP JUMPDEST PUSH1 0x40 MLOAD DUP1 SWAP2 SUB SWAP1 REVERT JUMPDEST POP PUSH2 0x2605 DUP2 CALLER PUSH2 0x3A33 JUMP JUMPDEST POP JUMP JUMPDEST PUSH0 DUP1 PUSH2 0x2612 PUSH2 0x35CB JUMP JUMPDEST SWAP1 POP PUSH0 PUSH2 0x2627 DUP3 PUSH1 0xC0 ADD MLOAD DUP4 PUSH1 0xE0 ADD MLOAD PUSH2 0x371C JUMP JUMPDEST SWAP1 POP PUSH2 0x266E PUSH1 0x5 PUSH1 0x1 ADD PUSH0 SWAP1 SLOAD SWAP1 PUSH2 0x100 EXP SWAP1 DIV PUSH16 0xFFFFFFFFFFFFFFFFFFFFFFFFFFFFFFFF AND PUSH16 0xFFFFFFFFFFFFFFFFFFFFFFFFFFFFFFFF AND DUP3 PUSH2 0x3730 SWAP1 SWAP2 SWAP1 PUSH4 0xFFFFFFFF AND JUMP JUMPDEST DUP3 PUSH1 0x80 ADD DUP2 DUP2 MSTORE POP POP PUSH12 0x33B2E3C9FD0803CE8000000 PUSH16 0xFFFFFFFFFFFFFFFFFFFFFFFFFFFFFFFF AND PUSH1 0x1 PUSH0 SWAP1 SLOAD SWAP1 PUSH2 0x100 EXP SWAP1 DIV PUSH20 0xFFFFFFFFFFFFFFFFFFFFFFFFFFFFFFFFFFFFFFFF AND PUSH20 0xFFFFFFFFFFFFFFFFFFFFFFFFFFFFFFFFFFFFFFFF AND PUSH4 0x313CE567 PUSH1 0x40 MLOAD DUP2 PUSH4 0xFFFFFFFF AND PUSH1 0xE0 SHL DUP2 MSTORE PUSH1 0x4 ADD PUSH1 0x20 PUSH1 0x40 MLOAD DUP1 DUP4 SUB DUP2 DUP7 GAS STATICCALL ISZERO DUP1 ISZERO PUSH2 0x2700 JUMPI RETURNDATASIZE PUSH0 DUP1 RETURNDATACOPY RETURNDATASIZE PUSH0 REVERT JUMPDEST POP POP POP POP PUSH1 0x40 MLOAD RETURNDATASIZE PUSH1 0x1F NOT PUSH1 0x1F DUP3 ADD AND DUP3 ADD DUP1 PUSH1 0x40 MSTORE POP DUP2 ADD SWAP1 PUSH2 0x2724 SWAP2 SWAP1 PUSH2 0x4814 JUMP JUMPDEST PUSH1 0xA PUSH2 0x2730 SWAP2 SWAP1 PUSH2 0x499B JUMP JUMPDEST PUSH2 0x2758 DUP5 PUSH1 0x80 ADD MLOAD PUSH1 0x9 PUSH0 DUP10 DUP2 MSTORE PUSH1 0x20 ADD SWAP1 DUP2 MSTORE PUSH1 0x20 ADD PUSH0 KECCAK256 SLOAD PUSH2 0x3730 SWAP1 SWAP2 SWAP1 PUSH4 0xFFFFFFFF AND JUMP JUMPDEST PUSH2 0x2762 SWAP2 SWAP1 PUSH2 0x49E5 JUMP JUMPDEST PUSH2 0x276C SWAP2 SWAP1 PUSH2 0x4A53 JUMP JUMPDEST SWAP3 POP POP POP SWAP2 SWAP1 POP JUMP JUMPDEST PUSH1 0xD SLOAD DUP2 JUMP JUMPDEST PUSH1 0xE PUSH1 0x14 SWAP1 SLOAD SWAP1 PUSH2 0x100 EXP SWAP1 DIV PUSH1 0xFF AND DUP2 JUMP JUMPDEST PUSH0 DUP1 PUSH2 0x2798 PUSH2 0x35CB JUMP JUMPDEST SWAP1 POP PUSH0 PUSH2 0x27AD DUP3 PUSH1 0xA0 ADD MLOAD DUP4 PUSH1 0xE0 ADD MLOAD PUSH2 0x3C75 JUMP JUMPDEST SWAP1 POP PUSH2 0x27C6 DUP3 PUSH1 0x40 ADD MLOAD DUP3 PUSH2 0x3730 SWAP1 SWAP2 SWAP1 PUSH4 0xFFFFFFFF AND JUMP JUMPDEST DUP3 PUSH1 0x40 ADD DUP2 DUP2 MSTORE POP POP PUSH12 0x33B2E3C9FD0803CE8000000 PUSH16 0xFFFFFFFFFFFFFFFFFFFFFFFFFFFFFFFF AND PUSH1 0x1 PUSH0 SWAP1 SLOAD SWAP1 PUSH2 0x100 EXP SWAP1 DIV PUSH20 0xFFFFFFFFFFFFFFFFFFFFFFFFFFFFFFFFFFFFFFFF AND PUSH20 0xFFFFFFFFFFFFFFFFFFFFFFFFFFFFFFFFFFFFFFFF AND PUSH4 0x313CE567 PUSH1 0x40 MLOAD DUP2 PUSH4 0xFFFFFFFF AND PUSH1 0xE0 SHL DUP2 MSTORE PUSH1 0x4 ADD PUSH1 0x20 PUSH1 0x40 MLOAD DUP1 DUP4 SUB DUP2 DUP7 GAS STATICCALL ISZERO DUP1 ISZERO PUSH2 0x2858 JUMPI RETURNDATASIZE PUSH0 DUP1 RETURNDATACOPY RETURNDATASIZE PUSH0 REVERT JUMPDEST POP POP POP POP PUSH1 0x40 MLOAD RETURNDATASIZE PUSH1 0x1F NOT PUSH1 0x1F DUP3 ADD AND DUP3 ADD DUP1 PUSH1 0x40 MSTORE POP DUP2 ADD SWAP1 PUSH2 0x287C SWAP2 SWAP1 PUSH2 0x4814 JUMP JUMPDEST PUSH1 0xA PUSH2 0x2888 SWAP2 SWAP1 PUSH2 0x499B JUMP JUMPDEST PUSH2 0x28A1 DUP5 PUSH1 0x40 ADD MLOAD PUSH1 0xA SLOAD PUSH2 0x3730 SWAP1 SWAP2 SWAP1 PUSH4 0xFFFFFFFF AND JUMP JUMPDEST PUSH2 0x28AB SWAP2 SWAP1 PUSH2 0x49E5 JUMP JUMPDEST PUSH2 0x28B5 SWAP2 SWAP1 PUSH2 0x4A53 JUMP JUMPDEST SWAP3 POP POP POP SWAP1 JUMP JUMPDEST PUSH1 0x5 DUP1 PUSH0 ADD PUSH0 SWAP1 SLOAD SWAP1 PUSH2 0x100 EXP SWAP1 DIV PUSH16 0xFFFFFFFFFFFFFFFFFFFFFFFFFFFFFFFF AND SWAP1 DUP1 PUSH0 ADD PUSH1 0x10 SWAP1 SLOAD SWAP1 PUSH2 0x100 EXP SWAP1 DIV PUSH16 0xFFFFFFFFFFFFFFFFFFFFFFFFFFFFFFFF AND SWAP1 DUP1 PUSH1 0x1 ADD PUSH0 SWAP1 SLOAD SWAP1 PUSH2 0x100 EXP SWAP1 DIV PUSH16 0xFFFFFFFFFFFFFFFFFFFFFFFFFFFFFFFF AND SWAP1 DUP1 PUSH1 0x1 ADD PUSH1 0x10 SWAP1 SLOAD SWAP1 PUSH2 0x100 EXP SWAP1 DIV PUSH16 0xFFFFFFFFFFFFFFFFFFFFFFFFFFFFFFFF AND SWAP1 DUP1 PUSH1 0x2 ADD PUSH0 SWAP1 SLOAD SWAP1 PUSH2 0x100 EXP SWAP1 DIV PUSH5 0xFFFFFFFFFF AND SWAP1 DUP1 PUSH1 0x2 ADD PUSH1 0x5 SWAP1 SLOAD SWAP1 PUSH2 0x100 EXP SWAP1 DIV PUSH2 0xFFFF AND SWAP1 DUP1 PUSH1 0x2 ADD PUSH1 0x7 SWAP1 SLOAD SWAP1 PUSH2 0x100 EXP SWAP1 DIV PUSH20 0xFFFFFFFFFFFFFFFFFFFFFFFFFFFFFFFFFFFFFFFF AND SWAP1 POP DUP8 JUMP JUMPDEST CALLER PUSH20 0xFFFFFFFFFFFFFFFFFFFFFFFFFFFFFFFFFFFFFFFF AND PUSH1 0x4 PUSH0 SWAP1 SLOAD SWAP1 PUSH2 0x100 EXP SWAP1 DIV PUSH20 0xFFFFFFFFFFFFFFFFFFFFFFFFFFFFFFFFFFFFFFFF AND PUSH20 0xFFFFFFFFFFFFFFFFFFFFFFFFFFFFFFFFFFFFFFFF AND EQ PUSH1 0x40 MLOAD DUP1 PUSH1 0x40 ADD PUSH1 0x40 MSTORE DUP1 PUSH1 0x2 DUP2 MSTORE PUSH1 0x20 ADD PUSH32 0x3133000000000000000000000000000000000000000000000000000000000000 DUP2 MSTORE POP SWAP1 PUSH2 0x2A5D JUMPI PUSH1 0x40 MLOAD PUSH32 0x8C379A000000000000000000000000000000000000000000000000000000000 DUP2 MSTORE PUSH1 0x4 ADD PUSH2 0x2A54 SWAP2 SWAP1 PUSH2 0x4AE3 JUMP JUMPDEST PUSH1 0x40 MLOAD DUP1 SWAP2 SUB SWAP1 REVERT JUMPDEST POP PUSH0 ISZERO ISZERO PUSH1 0xE PUSH1 0x14 SWAP1 SLOAD SWAP1 PUSH2 0x100 EXP SWAP1 DIV PUSH1 0xFF AND ISZERO ISZERO EQ PUSH1 0x40 MLOAD DUP1 PUSH1 0x40 ADD PUSH1 0x40 MSTORE DUP1 PUSH1 0x2 DUP2 MSTORE PUSH1 0x20 ADD PUSH32 0x3231000000000000000000000000000000000000000000000000000000000000 DUP2 MSTORE POP SWAP1 PUSH2 0x2AEB JUMPI PUSH1 0x40 MLOAD PUSH32 0x8C379A000000000000000000000000000000000000000000000000000000000 DUP2 MSTORE PUSH1 0x4 ADD PUSH2 0x2AE2 SWAP2 SWAP1 PUSH2 0x4AE3 JUMP JUMPDEST PUSH1 0x40 MLOAD DUP1 SWAP2 SUB SWAP1 REVERT JUMPDEST POP PUSH0 ISZERO ISZERO PUSH1 0x3 PUSH0 DUP5 DUP2 MSTORE PUSH1 0x20 ADD SWAP1 DUP2 MSTORE PUSH1 0x20 ADD PUSH0 KECCAK256 PUSH1 0x2 ADD PUSH0 SWAP1 SLOAD SWAP1 PUSH2 0x100 EXP SWAP1 DIV PUSH1 0xFF AND ISZERO ISZERO EQ PUSH1 0x40 MLOAD DUP1 PUSH1 0x40 ADD PUSH1 0x40 MSTORE DUP1 PUSH1 0x2 DUP2 MSTORE PUSH1 0x20 ADD PUSH32 0x3136000000000000000000000000000000000000000000000000000000000000 DUP2 MSTORE POP SWAP1 PUSH2 0x2B8A JUMPI PUSH1 0x40 MLOAD PUSH32 0x8C379A000000000000000000000000000000000000000000000000000000000 DUP2 MSTORE PUSH1 0x4 ADD PUSH2 0x2B81 SWAP2 SWAP1 PUSH2 0x4AE3 JUMP JUMPDEST PUSH1 0x40 MLOAD DUP1 SWAP2 SUB SWAP1 REVERT JUMPDEST POP PUSH0 PUSH2 0x2B94 PUSH2 0x35CB JUMP JUMPDEST SWAP1 POP PUSH2 0x2B9F DUP2 PUSH2 0x379F JUMP JUMPDEST PUSH0 PUSH1 0x1 PUSH0 SWAP1 SLOAD SWAP1 PUSH2 0x100 EXP SWAP1 DIV PUSH20 0xFFFFFFFFFFFFFFFFFFFFFFFFFFFFFFFFFFFFFFFF AND PUSH20 0xFFFFFFFFFFFFFFFFFFFFFFFFFFFFFFFFFFFFFFFF AND PUSH4 0x313CE567 PUSH1 0x40 MLOAD DUP2 PUSH4 0xFFFFFFFF AND PUSH1 0xE0 SHL DUP2 MSTORE PUSH1 0x4 ADD PUSH1 0x20 PUSH1 0x40 MLOAD DUP1 DUP4 SUB DUP2 DUP7 GAS STATICCALL ISZERO DUP1 ISZERO PUSH2 0x2C0A JUMPI RETURNDATASIZE PUSH0 DUP1 RETURNDATACOPY RETURNDATASIZE PUSH0 REVERT JUMPDEST POP POP POP POP PUSH1 0x40 MLOAD RETURNDATASIZE PUSH1 0x1F NOT PUSH1 0x1F DUP3 ADD AND DUP3 ADD DUP1 PUSH1 0x40 MSTORE POP DUP2 ADD SWAP1 PUSH2 0x2C2E SWAP2 SWAP1 PUSH2 0x4814 JUMP JUMPDEST PUSH1 0xA PUSH2 0x2C3A SWAP2 SWAP1 PUSH2 0x499B JUMP JUMPDEST PUSH12 0x33B2E3C9FD0803CE8000000 PUSH16 0xFFFFFFFFFFFFFFFFFFFFFFFFFFFFFFFF AND DUP5 PUSH2 0x2C64 SWAP2 SWAP1 PUSH2 0x49E5 JUMP JUMPDEST PUSH2 0x2C6E SWAP2 SWAP1 PUSH2 0x4A53 JUMP JUMPDEST SWAP1 POP PUSH0 PUSH2 0x2CB6 PUSH1 0x5 PUSH1 0x1 ADD PUSH0 SWAP1 SLOAD SWAP1 PUSH2 0x100 EXP SWAP1 DIV PUSH16 0xFFFFFFFFFFFFFFFFFFFFFFFFFFFFFFFF AND PUSH16 0xFFFFFFFFFFFFFFFFFFFFFFFFFFFFFFFF AND DUP4 PUSH2 0x39EF SWAP1 SWAP2 SWAP1 PUSH4 0xFFFFFFFF AND JUMP JUMPDEST SWAP1 POP DUP1 PUSH1 0x9 PUSH0 DUP8 DUP2 MSTORE PUSH1 0x20 ADD SWAP1 DUP2 MSTORE PUSH1 0x20 ADD PUSH0 KECCAK256 SLOAD GT PUSH2 0x2F8D JUMPI PUSH1 0x9 PUSH0 DUP7 DUP2 MSTORE PUSH1 0x20 ADD SWAP1 DUP2 MSTORE PUSH1 0x20 ADD PUSH0 KECCAK256 SLOAD PUSH1 0xC PUSH0 DUP3 DUP3 SLOAD PUSH2 0x2CF2 SWAP2 SWAP1 PUSH2 0x4B68 JUMP JUMPDEST SWAP3 POP POP DUP2 SWAP1 SSTORE POP PUSH0 PUSH2 0x2D50 PUSH1 0x5 PUSH1 0x1 ADD PUSH0 SWAP1 SLOAD SWAP1 PUSH2 0x100 EXP SWAP1 DIV PUSH16 0xFFFFFFFFFFFFFFFFFFFFFFFFFFFFFFFF AND PUSH16 0xFFFFFFFFFFFFFFFFFFFFFFFFFFFFFFFF AND PUSH1 0x9 PUSH0 DUP10 DUP2 MSTORE PUSH1 0x20 ADD SWAP1 DUP2 MSTORE PUSH1 0x20 ADD PUSH0 KECCAK256 SLOAD PUSH2 0x3730 SWAP1 SWAP2 SWAP1 PUSH4 0xFFFFFFFF AND JUMP JUMPDEST SWAP1 POP PUSH0 PUSH12 0x33B2E3C9FD0803CE8000000 PUSH16 0xFFFFFFFFFFFFFFFFFFFFFFFFFFFFFFFF AND PUSH1 0x1 PUSH0 SWAP1 SLOAD SWAP1 PUSH2 0x100 EXP SWAP1 DIV PUSH20 0xFFFFFFFFFFFFFFFFFFFFFFFFFFFFFFFFFFFFFFFF AND PUSH20 0xFFFFFFFFFFFFFFFFFFFFFFFFFFFFFFFFFFFFFFFF AND PUSH4 0x313CE567 PUSH1 0x40 MLOAD DUP2 PUSH4 0xFFFFFFFF AND PUSH1 0xE0 SHL DUP2 MSTORE PUSH1 0x4 ADD PUSH1 0x20 PUSH1 0x40 MLOAD DUP1 DUP4 SUB DUP2 DUP7 GAS STATICCALL ISZERO DUP1 ISZERO PUSH2 0x2DDC JUMPI RETURNDATASIZE PUSH0 DUP1 RETURNDATACOPY RETURNDATASIZE PUSH0 REVERT JUMPDEST POP POP POP POP PUSH1 0x40 MLOAD RETURNDATASIZE PUSH1 0x1F NOT PUSH1 0x1F DUP3 ADD AND DUP3 ADD DUP1 PUSH1 0x40 MSTORE POP DUP2 ADD SWAP1 PUSH2 0x2E00 SWAP2 SWAP1 PUSH2 0x4814 JUMP JUMPDEST PUSH1 0xA PUSH2 0x2E0C SWAP2 SWAP1 PUSH2 0x499B JUMP JUMPDEST DUP4 PUSH2 0x2E17 SWAP2 SWAP1 PUSH2 0x49E5 JUMP JUMPDEST PUSH2 0x2E21 SWAP2 SWAP1 PUSH2 0x4A53 JUMP JUMPDEST SWAP1 POP PUSH0 PUSH1 0x9 PUSH0 DUP10 DUP2 MSTORE PUSH1 0x20 ADD SWAP1 DUP2 MSTORE PUSH1 0x20 ADD PUSH0 KECCAK256 DUP2 SWAP1 SSTORE POP PUSH2 0x2E43 DUP3 PUSH0 PUSH2 0x37FC JUMP JUMPDEST PUSH2 0x2E6B DUP6 PUSH1 0x40 ADD MLOAD PUSH1 0x9 PUSH0 DUP11 DUP2 MSTORE PUSH1 0x20 ADD SWAP1 DUP2 MSTORE PUSH1 0x20 ADD PUSH0 KECCAK256 SLOAD PUSH2 0x39EF SWAP1 SWAP2 SWAP1 PUSH4 0xFFFFFFFF AND JUMP JUMPDEST PUSH1 0xB PUSH0 DUP3 DUP3 SLOAD PUSH2 0x2E7B SWAP2 SWAP1 PUSH2 0x4C52 JUMP JUMPDEST SWAP3 POP POP DUP2 SWAP1 SSTORE POP DUP1 PUSH1 0xD PUSH0 DUP3 DUP3 SLOAD PUSH2 0x2E93 SWAP2 SWAP1 PUSH2 0x4C52 JUMP JUMPDEST SWAP3 POP POP DUP2 SWAP1 SSTORE POP PUSH1 0x1 PUSH0 SWAP1 SLOAD SWAP1 PUSH2 0x100 EXP SWAP1 DIV PUSH20 0xFFFFFFFFFFFFFFFFFFFFFFFFFFFFFFFFFFFFFFFF AND PUSH20 0xFFFFFFFFFFFFFFFFFFFFFFFFFFFFFFFFFFFFFFFF AND PUSH4 0x23B872DD PUSH1 0x4 PUSH0 SWAP1 SLOAD SWAP1 PUSH2 0x100 EXP SWAP1 DIV PUSH20 0xFFFFFFFFFFFFFFFFFFFFFFFFFFFFFFFFFFFFFFFF AND ADDRESS DUP5 PUSH1 0x40 MLOAD DUP5 PUSH4 0xFFFFFFFF AND PUSH1 0xE0 SHL DUP2 MSTORE PUSH1 0x4 ADD PUSH2 0x2F19 SWAP4 SWAP3 SWAP2 SWAP1 PUSH2 0x4C85 JUMP JUMPDEST PUSH1 0x20 PUSH1 0x40 MLOAD DUP1 DUP4 SUB DUP2 PUSH0 DUP8 GAS CALL ISZERO DUP1 ISZERO PUSH2 0x2F35 JUMPI RETURNDATASIZE PUSH0 DUP1 RETURNDATACOPY RETURNDATASIZE PUSH0 REVERT JUMPDEST POP POP POP POP PUSH1 0x40 MLOAD RETURNDATASIZE PUSH1 0x1F NOT PUSH1 0x1F DUP3 ADD AND DUP3 ADD DUP1 PUSH1 0x40 MSTORE POP DUP2 ADD SWAP1 PUSH2 0x2F59 SWAP2 SWAP1 PUSH2 0x4BD6 JUMP JUMPDEST POP PUSH1 0x1 PUSH1 0x3 PUSH0 DUP10 DUP2 MSTORE PUSH1 0x20 ADD SWAP1 DUP2 MSTORE PUSH1 0x20 ADD PUSH0 KECCAK256 PUSH1 0x2 ADD PUSH0 PUSH2 0x100 EXP DUP2 SLOAD DUP2 PUSH1 0xFF MUL NOT AND SWAP1 DUP4 ISZERO ISZERO MUL OR SWAP1 SSTORE POP POP POP PUSH2 0x30ED JUMP JUMPDEST PUSH0 DUP2 PUSH1 0x9 PUSH0 DUP9 DUP2 MSTORE PUSH1 0x20 ADD SWAP1 DUP2 MSTORE PUSH1 0x20 ADD PUSH0 KECCAK256 SLOAD PUSH2 0x2FAB SWAP2 SWAP1 PUSH2 0x4B68 JUMP JUMPDEST SWAP1 POP DUP2 PUSH1 0xC PUSH0 DUP3 DUP3 SLOAD PUSH2 0x2FBE SWAP2 SWAP1 PUSH2 0x4B68 JUMP JUMPDEST SWAP3 POP POP DUP2 SWAP1 SSTORE POP DUP1 PUSH1 0x9 PUSH0 DUP9 DUP2 MSTORE PUSH1 0x20 ADD SWAP1 DUP2 MSTORE PUSH1 0x20 ADD PUSH0 KECCAK256 DUP2 SWAP1 SSTORE POP PUSH2 0x2FE5 DUP4 PUSH0 PUSH2 0x37FC JUMP JUMPDEST PUSH2 0x2FFC DUP5 PUSH1 0x40 ADD MLOAD DUP5 PUSH2 0x39EF SWAP1 SWAP2 SWAP1 PUSH4 0xFFFFFFFF AND JUMP JUMPDEST PUSH1 0xB PUSH0 DUP3 DUP3 SLOAD PUSH2 0x300C SWAP2 SWAP1 PUSH2 0x4C52 JUMP JUMPDEST SWAP3 POP POP DUP2 SWAP1 SSTORE POP DUP5 PUSH1 0xD PUSH0 DUP3 DUP3 SLOAD PUSH2 0x3024 SWAP2 SWAP1 PUSH2 0x4C52 JUMP JUMPDEST SWAP3 POP POP DUP2 SWAP1 SSTORE POP PUSH1 0x1 PUSH0 SWAP1 SLOAD SWAP1 PUSH2 0x100 EXP SWAP1 DIV PUSH20 0xFFFFFFFFFFFFFFFFFFFFFFFFFFFFFFFFFFFFFFFF AND PUSH20 0xFFFFFFFFFFFFFFFFFFFFFFFFFFFFFFFFFFFFFFFF AND PUSH4 0x23B872DD PUSH1 0x4 PUSH0 SWAP1 SLOAD SWAP1 PUSH2 0x100 EXP SWAP1 DIV PUSH20 0xFFFFFFFFFFFFFFFFFFFFFFFFFFFFFFFFFFFFFFFF AND ADDRESS DUP9 PUSH1 0x40 MLOAD DUP5 PUSH4 0xFFFFFFFF AND PUSH1 0xE0 SHL DUP2 MSTORE PUSH1 0x4 ADD PUSH2 0x30AA SWAP4 SWAP3 SWAP2 SWAP1 PUSH2 0x4C85 JUMP JUMPDEST PUSH1 0x20 PUSH1 0x40 MLOAD DUP1 DUP4 SUB DUP2 PUSH0 DUP8 GAS CALL ISZERO DUP1 ISZERO PUSH2 0x30C6 JUMPI RETURNDATASIZE PUSH0 DUP1 RETURNDATACOPY RETURNDATASIZE PUSH0 REVERT JUMPDEST POP POP POP POP PUSH1 0x40 MLOAD RETURNDATASIZE PUSH1 0x1F NOT PUSH1 0x1F DUP3 ADD AND DUP3 ADD DUP1 PUSH1 0x40 MSTORE POP DUP2 ADD SWAP1 PUSH2 0x30EA SWAP2 SWAP1 PUSH2 0x4BD6 JUMP JUMPDEST POP POP JUMPDEST POP POP POP POP POP JUMP JUMPDEST PUSH1 0x3 PUSH1 0x20 MSTORE DUP1 PUSH0 MSTORE PUSH1 0x40 PUSH0 KECCAK256 PUSH0 SWAP2 POP SWAP1 POP DUP1 PUSH0 ADD SLOAD SWAP1 DUP1 PUSH1 0x1 ADD SLOAD SWAP1 DUP1 PUSH1 0x2 ADD PUSH0 SWAP1 SLOAD SWAP1 PUSH2 0x100 EXP SWAP1 DIV PUSH1 0xFF AND SWAP1 DUP1 PUSH1 0x2 ADD PUSH1 0x1 SWAP1 SLOAD SWAP1 PUSH2 0x100 EXP SWAP1 DIV PUSH20 0xFFFFFFFFFFFFFFFFFFFFFFFFFFFFFFFFFFFFFFFF AND SWAP1 DUP1 PUSH1 0x2 ADD PUSH1 0x15 SWAP1 SLOAD SWAP1 PUSH2 0x100 EXP SWAP1 DIV PUSH1 0xFF AND SWAP1 DUP1 PUSH1 0x3 ADD PUSH0 SWAP1 SLOAD SWAP1 PUSH2 0x100 EXP SWAP1 DIV PUSH20 0xFFFFFFFFFFFFFFFFFFFFFFFFFFFFFFFFFFFFFFFF AND SWAP1 DUP1 PUSH1 0x3 ADD PUSH1 0x14 SWAP1 SLOAD SWAP1 PUSH2 0x100 EXP SWAP1 DIV PUSH1 0xFF AND SWAP1 DUP1 PUSH1 0x3 ADD PUSH1 0x15 SWAP1 SLOAD SWAP1 PUSH2 0x100 EXP SWAP1 DIV PUSH1 0xFF AND SWAP1 DUP1 PUSH1 0x4 ADD SLOAD SWAP1 POP DUP10 JUMP JUMPDEST CALLER PUSH20 0xFFFFFFFFFFFFFFFFFFFFFFFFFFFFFFFFFFFFFFFF AND PUSH1 0xE PUSH0 SWAP1 SLOAD SWAP1 PUSH2 0x100 EXP SWAP1 DIV PUSH20 0xFFFFFFFFFFFFFFFFFFFFFFFFFFFFFFFFFFFFFFFF AND PUSH20 0xFFFFFFFFFFFFFFFFFFFFFFFFFFFFFFFFFFFFFFFF AND EQ PUSH1 0x40 MLOAD DUP1 PUSH1 0x40 ADD PUSH1 0x40 MSTORE DUP1 PUSH1 0x1 DUP2 MSTORE PUSH1 0x20 ADD PUSH32 0x3200000000000000000000000000000000000000000000000000000000000000 DUP2 MSTORE POP SWAP1 PUSH2 0x3277 JUMPI PUSH1 0x40 MLOAD PUSH32 0x8C379A000000000000000000000000000000000000000000000000000000000 DUP2 MSTORE PUSH1 0x4 ADD PUSH2 0x326E SWAP2 SWAP1 PUSH2 0x4AE3 JUMP JUMPDEST PUSH1 0x40 MLOAD DUP1 SWAP2 SUB SWAP1 REVERT JUMPDEST POP DUP2 PUSH20 0xFFFFFFFFFFFFFFFFFFFFFFFFFFFFFFFFFFFFFFFF AND PUSH4 0xA9059CBB DUP3 DUP5 PUSH20 0xFFFFFFFFFFFFFFFFFFFFFFFFFFFFFFFFFFFFFFFF AND PUSH4 0x70A08231 ADDRESS PUSH1 0x40 MLOAD DUP3 PUSH4 0xFFFFFFFF AND PUSH1 0xE0 SHL DUP2 MSTORE PUSH1 0x4 ADD PUSH2 0x32CE SWAP2 SWAP1 PUSH2 0x42AF JUMP JUMPDEST PUSH1 0x20 PUSH1 0x40 MLOAD DUP1 DUP4 SUB DUP2 DUP7 GAS STATICCALL ISZERO DUP1 ISZERO PUSH2 0x32E9 JUMPI RETURNDATASIZE PUSH0 DUP1 RETURNDATACOPY RETURNDATASIZE PUSH0 REVERT JUMPDEST POP POP POP POP PUSH1 0x40 MLOAD RETURNDATASIZE PUSH1 0x1F NOT PUSH1 0x1F DUP3 ADD AND DUP3 ADD DUP1 PUSH1 0x40 MSTORE POP DUP2 ADD SWAP1 PUSH2 0x330D SWAP2 SWAP1 PUSH2 0x4D02 JUMP JUMPDEST PUSH1 0x40 MLOAD DUP4 PUSH4 0xFFFFFFFF AND PUSH1 0xE0 SHL DUP2 MSTORE PUSH1 0x4 ADD PUSH2 0x332A SWAP3 SWAP2 SWAP1 PUSH2 0x4B9B JUMP JUMPDEST PUSH1 0x20 PUSH1 0x40 MLOAD DUP1 DUP4 SUB DUP2 PUSH0 DUP8 GAS CALL ISZERO DUP1 ISZERO PUSH2 0x3346 JUMPI RETURNDATASIZE PUSH0 DUP1 RETURNDATACOPY RETURNDATASIZE PUSH0 REVERT JUMPDEST POP POP POP POP PUSH1 0x40 MLOAD RETURNDATASIZE PUSH1 0x1F NOT PUSH1 0x1F DUP3 ADD AND DUP3 ADD DUP1 PUSH1 0x40 MSTORE POP DUP2 ADD SWAP1 PUSH2 0x336A SWAP2 SWAP1 PUSH2 0x4BD6 JUMP JUMPDEST POP POP POP JUMP JUMPDEST CALLER PUSH20 0xFFFFFFFFFFFFFFFFFFFFFFFFFFFFFFFFFFFFFFFF AND PUSH1 0xE PUSH0 SWAP1 SLOAD SWAP1 PUSH2 0x100 EXP SWAP1 DIV PUSH20 0xFFFFFFFFFFFFFFFFFFFFFFFFFFFFFFFFFFFFFFFF AND PUSH20 0xFFFFFFFFFFFFFFFFFFFFFFFFFFFFFFFFFFFFFFFF AND EQ PUSH1 0x40 MLOAD DUP1 PUSH1 0x40 ADD PUSH1 0x40 MSTORE DUP1 PUSH1 0x1 DUP2 MSTORE PUSH1 0x20 ADD PUSH32 0x3200000000000000000000000000000000000000000000000000000000000000 DUP2 MSTORE POP SWAP1 PUSH2 0x3436 JUMPI PUSH1 0x40 MLOAD PUSH32 0x8C379A000000000000000000000000000000000000000000000000000000000 DUP2 MSTORE PUSH1 0x4 ADD PUSH2 0x342D SWAP2 SWAP1 PUSH2 0x4AE3 JUMP JUMPDEST PUSH1 0x40 MLOAD DUP1 SWAP2 SUB SWAP1 REVERT JUMPDEST POP PUSH0 JUMPDEST DUP3 MLOAD DUP2 LT ISZERO PUSH2 0x34D6 JUMPI DUP2 DUP2 DUP2 MLOAD DUP2 LT PUSH2 0x3455 JUMPI PUSH2 0x3454 PUSH2 0x4D2D JUMP JUMPDEST JUMPDEST PUSH1 0x20 MUL PUSH1 0x20 ADD ADD MLOAD PUSH0 DUP1 DUP6 DUP5 DUP2 MLOAD DUP2 LT PUSH2 0x3472 JUMPI PUSH2 0x3471 PUSH2 0x4D2D JUMP JUMPDEST JUMPDEST PUSH1 0x20 MUL PUSH1 0x20 ADD ADD MLOAD PUSH20 0xFFFFFFFFFFFFFFFFFFFFFFFFFFFFFFFFFFFFFFFF AND PUSH20 0xFFFFFFFFFFFFFFFFFFFFFFFFFFFFFFFFFFFFFFFF AND DUP2 MSTORE PUSH1 0x20 ADD SWAP1 DUP2 MSTORE PUSH1 0x20 ADD PUSH0 KECCAK256 PUSH0 PUSH2 0x100 EXP DUP2 SLOAD DUP2 PUSH1 0xFF MUL NOT AND SWAP1 DUP4 ISZERO ISZERO MUL OR SWAP1 SSTORE POP DUP1 DUP1 PUSH1 0x1 ADD SWAP2 POP POP PUSH2 0x3439 JUMP JUMPDEST POP POP POP JUMP JUMPDEST PUSH0 DUP1 PUSH0 DUP1 PUSH1 0x5 PUSH1 0x1 ADD PUSH1 0x10 SWAP1 SLOAD SWAP1 PUSH2 0x100 EXP SWAP1 DIV PUSH16 0xFFFFFFFFFFFFFFFFFFFFFFFFFFFFFFFF AND PUSH1 0x5 PUSH0 ADD PUSH1 0x10 SWAP1 SLOAD SWAP1 PUSH2 0x100 EXP SWAP1 DIV PUSH16 0xFFFFFFFFFFFFFFFFFFFFFFFFFFFFFFFF AND PUSH1 0x5 PUSH1 0x1 ADD PUSH0 SWAP1 SLOAD SWAP1 PUSH2 0x100 EXP SWAP1 DIV PUSH16 0xFFFFFFFFFFFFFFFFFFFFFFFFFFFFFFFF AND PUSH1 0x5 PUSH0 ADD PUSH0 SWAP1 SLOAD SWAP1 PUSH2 0x100 EXP SWAP1 DIV PUSH16 0xFFFFFFFFFFFFFFFFFFFFFFFFFFFFFFFF AND DUP4 PUSH16 0xFFFFFFFFFFFFFFFFFFFFFFFFFFFFFFFF AND SWAP4 POP DUP3 PUSH16 0xFFFFFFFFFFFFFFFFFFFFFFFFFFFFFFFF AND SWAP3 POP DUP2 PUSH16 0xFFFFFFFFFFFFFFFFFFFFFFFFFFFFFFFF AND SWAP2 POP DUP1 PUSH16 0xFFFFFFFFFFFFFFFFFFFFFFFFFFFFFFFF AND SWAP1 POP SWAP4 POP SWAP4 POP SWAP4 POP SWAP4 POP SWAP1 SWAP2 SWAP3 SWAP4 JUMP JUMPDEST PUSH1 0xC SLOAD DUP2 JUMP JUMPDEST PUSH2 0x35D3 PUSH2 0x3FAB JUMP JUMPDEST PUSH2 0x35DB PUSH2 0x3FAB JUMP JUMPDEST PUSH1 0x5 PUSH0 ADD PUSH0 SWAP1 SLOAD SWAP1 PUSH2 0x100 EXP SWAP1 DIV PUSH16 0xFFFFFFFFFFFFFFFFFFFFFFFFFFFFFFFF AND PUSH16 0xFFFFFFFFFFFFFFFFFFFFFFFFFFFFFFFF AND DUP2 PUSH1 0x40 ADD DUP2 DUP2 MSTORE POP DUP2 PUSH1 0x20 ADD DUP2 DUP2 MSTORE POP POP PUSH1 0x5 PUSH1 0x1 ADD PUSH0 SWAP1 SLOAD SWAP1 PUSH2 0x100 EXP SWAP1 DIV PUSH16 0xFFFFFFFFFFFFFFFFFFFFFFFFFFFFFFFF AND PUSH16 0xFFFFFFFFFFFFFFFFFFFFFFFFFFFFFFFF AND DUP2 PUSH1 0x80 ADD DUP2 DUP2 MSTORE POP DUP2 PUSH1 0x60 ADD DUP2 DUP2 MSTORE POP POP PUSH1 0x5 PUSH0 ADD PUSH1 0x10 SWAP1 SLOAD SWAP1 PUSH2 0x100 EXP SWAP1 DIV PUSH16 0xFFFFFFFFFFFFFFFFFFFFFFFFFFFFFFFF AND PUSH16 0xFFFFFFFFFFFFFFFFFFFFFFFFFFFFFFFF AND DUP2 PUSH1 0xA0 ADD DUP2 DUP2 MSTORE POP POP PUSH1 0x5 PUSH1 0x1 ADD PUSH1 0x10 SWAP1 SLOAD SWAP1 PUSH2 0x100 EXP SWAP1 DIV PUSH16 0xFFFFFFFFFFFFFFFFFFFFFFFFFFFFFFFF AND PUSH16 0xFFFFFFFFFFFFFFFFFFFFFFFFFFFFFFFF AND DUP2 PUSH1 0xC0 ADD DUP2 DUP2 MSTORE POP POP PUSH1 0x5 PUSH1 0x2 ADD PUSH0 SWAP1 SLOAD SWAP1 PUSH2 0x100 EXP SWAP1 DIV PUSH5 0xFFFFFFFFFF AND DUP2 PUSH1 0xE0 ADD SWAP1 PUSH5 0xFFFFFFFFFF AND SWAP1 DUP2 PUSH5 0xFFFFFFFFFF AND DUP2 MSTORE POP POP PUSH1 0xC SLOAD DUP2 PUSH0 ADD DUP2 DUP2 MSTORE POP POP DUP1 SWAP2 POP POP SWAP1 JUMP JUMPDEST PUSH0 PUSH2 0x3728 DUP4 DUP4 TIMESTAMP PUSH2 0x3CCF JUMP JUMPDEST SWAP1 POP SWAP3 SWAP2 POP POP JUMP JUMPDEST PUSH0 DUP2 PUSH12 0x19D971E4FE8401E74000000 PUSH0 NOT SUB DIV DUP4 GT ISZERO DUP3 ISZERO OR PUSH2 0x3751 JUMPI PUSH0 DUP1 REVERT JUMPDEST PUSH12 0x33B2E3C9FD0803CE8000000 PUSH12 0x19D971E4FE8401E74000000 DUP4 DUP6 MUL ADD DIV SWAP1 POP SWAP3 SWAP2 POP POP JUMP JUMPDEST PUSH0 PUSH32 0xF0C57E16840DF040F15088DC2F81FE391C3923BEC73E23A9662EFC9C229C6A00 SWAP1 POP SWAP1 JUMP JUMPDEST TIMESTAMP PUSH5 0xFFFFFFFFFF AND PUSH1 0x5 PUSH1 0x2 ADD PUSH0 SWAP1 SLOAD SWAP1 PUSH2 0x100 EXP SWAP1 DIV PUSH5 0xFFFFFFFFFF AND PUSH5 0xFFFFFFFFFF AND SUB ISZERO PUSH2 0x37F9 JUMPI PUSH2 0x37D3 DUP2 PUSH2 0x3E35 JUMP JUMPDEST TIMESTAMP PUSH1 0x5 PUSH1 0x2 ADD PUSH0 PUSH2 0x100 EXP DUP2 SLOAD DUP2 PUSH5 0xFFFFFFFFFF MUL NOT AND SWAP1 DUP4 PUSH5 0xFFFFFFFFFF AND MUL OR SWAP1 SSTORE POP JUMPDEST POP JUMP JUMPDEST PUSH2 0x3804 PUSH2 0x3FEF JUMP JUMPDEST PUSH1 0x5 PUSH1 0x2 ADD PUSH1 0x7 SWAP1 SLOAD SWAP1 PUSH2 0x100 EXP SWAP1 DIV PUSH20 0xFFFFFFFFFFFFFFFFFFFFFFFFFFFFFFFFFFFFFFFF AND PUSH20 0xFFFFFFFFFFFFFFFFFFFFFFFFFFFFFFFFFFFFFFFF AND PUSH4 0x56EAF264 PUSH1 0x40 MLOAD DUP1 PUSH1 0x80 ADD PUSH1 0x40 MSTORE DUP1 DUP7 DUP2 MSTORE PUSH1 0x20 ADD DUP6 DUP2 MSTORE PUSH1 0x20 ADD PUSH2 0x38A3 PUSH1 0x5 PUSH1 0x1 ADD PUSH0 SWAP1 SLOAD SWAP1 PUSH2 0x100 EXP SWAP1 DIV PUSH16 0xFFFFFFFFFFFFFFFFFFFFFFFFFFFFFFFF AND PUSH16 0xFFFFFFFFFFFFFFFFFFFFFFFFFFFFFFFF AND PUSH1 0xC SLOAD PUSH2 0x3730 SWAP1 SWAP2 SWAP1 PUSH4 0xFFFFFFFF AND JUMP JUMPDEST DUP2 MSTORE PUSH1 0x20 ADD PUSH2 0x38EE PUSH1 0x5 PUSH0 ADD PUSH0 SWAP1 SLOAD SWAP1 PUSH2 0x100 EXP SWAP1 DIV PUSH16 0xFFFFFFFFFFFFFFFFFFFFFFFFFFFFFFFF AND PUSH16 0xFFFFFFFFFFFFFFFFFFFFFFFFFFFFFFFF AND PUSH1 0xB SLOAD PUSH2 0x3730 SWAP1 SWAP2 SWAP1 PUSH4 0xFFFFFFFF AND JUMP JUMPDEST DUP2 MSTORE POP PUSH1 0x40 MLOAD DUP3 PUSH4 0xFFFFFFFF AND PUSH1 0xE0 SHL DUP2 MSTORE PUSH1 0x4 ADD PUSH2 0x390D SWAP2 SWAP1 PUSH2 0x4DBC JUMP JUMPDEST PUSH1 0x40 DUP1 MLOAD DUP1 DUP4 SUB DUP2 DUP7 GAS STATICCALL ISZERO DUP1 ISZERO PUSH2 0x3927 JUMPI RETURNDATASIZE PUSH0 DUP1 RETURNDATACOPY RETURNDATASIZE PUSH0 REVERT JUMPDEST POP POP POP POP PUSH1 0x40 MLOAD RETURNDATASIZE PUSH1 0x1F NOT PUSH1 0x1F DUP3 ADD AND DUP3 ADD DUP1 PUSH1 0x40 MSTORE POP DUP2 ADD SWAP1 PUSH2 0x394B SWAP2 SWAP1 PUSH2 0x4DD5 JUMP JUMPDEST DUP3 PUSH0 ADD DUP4 PUSH1 0x20 ADD DUP3 DUP2 MSTORE POP DUP3 DUP2 MSTORE POP POP POP PUSH2 0x3968 DUP2 PUSH0 ADD MLOAD PUSH2 0x3F48 JUMP JUMPDEST PUSH1 0x5 PUSH0 ADD PUSH1 0x10 PUSH2 0x100 EXP DUP2 SLOAD DUP2 PUSH16 0xFFFFFFFFFFFFFFFFFFFFFFFFFFFFFFFF MUL NOT AND SWAP1 DUP4 PUSH16 0xFFFFFFFFFFFFFFFFFFFFFFFFFFFFFFFF AND MUL OR SWAP1 SSTORE POP PUSH2 0x39AF DUP2 PUSH1 0x20 ADD MLOAD PUSH2 0x3F48 JUMP JUMPDEST PUSH1 0x5 PUSH1 0x1 ADD PUSH1 0x10 PUSH2 0x100 EXP DUP2 SLOAD DUP2 PUSH16 0xFFFFFFFFFFFFFFFFFFFFFFFFFFFFFFFF MUL NOT AND SWAP1 DUP4 PUSH16 0xFFFFFFFFFFFFFFFFFFFFFFFFFFFFFFFF AND MUL OR SWAP1 SSTORE POP POP POP POP JUMP JUMPDEST PUSH0 PUSH12 0x33B2E3C9FD0803CE8000000 PUSH1 0x2 DUP4 DIV PUSH0 NOT SUB DIV DUP4 GT ISZERO ISZERO DUP3 ISZERO OR ISZERO PUSH2 0x3A15 JUMPI PUSH0 DUP1 REVERT JUMPDEST DUP2 PUSH1 0x2 DUP4 DIV PUSH12 0x33B2E3C9FD0803CE8000000 DUP6 MUL ADD DIV SWAP1 POP SWAP3 SWAP2 POP POP JUMP JUMPDEST PUSH0 DUP3 GT ISZERO PUSH2 0x3C71 JUMPI PUSH0 PUSH2 0x3A44 PUSH2 0x35CB JUMP JUMPDEST SWAP1 POP PUSH2 0x3A4F DUP2 PUSH2 0x379F JUMP JUMPDEST PUSH0 PUSH1 0x1 PUSH0 SWAP1 SLOAD SWAP1 PUSH2 0x100 EXP SWAP1 DIV PUSH20 0xFFFFFFFFFFFFFFFFFFFFFFFFFFFFFFFFFFFFFFFF AND PUSH20 0xFFFFFFFFFFFFFFFFFFFFFFFFFFFFFFFFFFFFFFFF AND PUSH4 0x313CE567 PUSH1 0x40 MLOAD DUP2 PUSH4 0xFFFFFFFF AND PUSH1 0xE0 SHL DUP2 MSTORE PUSH1 0x4 ADD PUSH1 0x20 PUSH1 0x40 MLOAD DUP1 DUP4 SUB DUP2 DUP7 GAS STATICCALL ISZERO DUP1 ISZERO PUSH2 0x3ABA JUMPI RETURNDATASIZE PUSH0 DUP1 RETURNDATACOPY RETURNDATASIZE PUSH0 REVERT JUMPDEST POP POP POP POP PUSH1 0x40 MLOAD RETURNDATASIZE PUSH1 0x1F NOT PUSH1 0x1F DUP3 ADD AND DUP3 ADD DUP1 PUSH1 0x40 MSTORE POP DUP2 ADD SWAP1 PUSH2 0x3ADE SWAP2 SWAP1 PUSH2 0x4814 JUMP JUMPDEST PUSH1 0xA PUSH2 0x3AEA SWAP2 SWAP1 PUSH2 0x499B JUMP JUMPDEST PUSH12 0x33B2E3C9FD0803CE8000000 PUSH16 0xFFFFFFFFFFFFFFFFFFFFFFFFFFFFFFFF AND DUP6 PUSH2 0x3B14 SWAP2 SWAP1 PUSH2 0x49E5 JUMP JUMPDEST PUSH2 0x3B1E SWAP2 SWAP1 PUSH2 0x4A53 JUMP JUMPDEST SWAP1 POP PUSH0 PUSH2 0x3B3A DUP4 PUSH1 0x40 ADD MLOAD PUSH1 0xB SLOAD PUSH2 0x3730 SWAP1 SWAP2 SWAP1 PUSH4 0xFFFFFFFF AND JUMP JUMPDEST SWAP1 POP PUSH0 PUSH2 0x3B71 DUP3 PUSH2 0x3B63 DUP7 PUSH1 0x40 ADD MLOAD DUP7 DUP7 PUSH2 0x3B55 SWAP2 SWAP1 PUSH2 0x4C52 JUMP JUMPDEST PUSH2 0x3730 SWAP1 SWAP2 SWAP1 PUSH4 0xFFFFFFFF AND JUMP JUMPDEST PUSH2 0x39EF SWAP1 SWAP2 SWAP1 PUSH4 0xFFFFFFFF AND JUMP JUMPDEST SWAP1 POP PUSH2 0x3B7C DUP2 PUSH2 0x3F48 JUMP JUMPDEST PUSH1 0x5 PUSH0 ADD PUSH0 PUSH2 0x100 EXP DUP2 SLOAD DUP2 PUSH16 0xFFFFFFFFFFFFFFFFFFFFFFFFFFFFFFFF MUL NOT AND SWAP1 DUP4 PUSH16 0xFFFFFFFFFFFFFFFFFFFFFFFFFFFFFFFF AND MUL OR SWAP1 SSTORE POP DUP6 PUSH1 0xD PUSH0 DUP3 DUP3 SLOAD PUSH2 0x3BC6 SWAP2 SWAP1 PUSH2 0x4C52 JUMP JUMPDEST SWAP3 POP POP DUP2 SWAP1 SSTORE POP PUSH1 0x1 PUSH0 SWAP1 SLOAD SWAP1 PUSH2 0x100 EXP SWAP1 DIV PUSH20 0xFFFFFFFFFFFFFFFFFFFFFFFFFFFFFFFFFFFFFFFF AND PUSH20 0xFFFFFFFFFFFFFFFFFFFFFFFFFFFFFFFFFFFFFFFF AND PUSH4 0x23B872DD DUP7 ADDRESS DUP10 PUSH1 0x40 MLOAD DUP5 PUSH4 0xFFFFFFFF AND PUSH1 0xE0 SHL DUP2 MSTORE PUSH1 0x4 ADD PUSH2 0x3C2B SWAP4 SWAP3 SWAP2 SWAP1 PUSH2 0x4C85 JUMP JUMPDEST PUSH1 0x20 PUSH1 0x40 MLOAD DUP1 DUP4 SUB DUP2 PUSH0 DUP8 GAS CALL ISZERO DUP1 ISZERO PUSH2 0x3C47 JUMPI RETURNDATASIZE PUSH0 DUP1 RETURNDATACOPY RETURNDATASIZE PUSH0 REVERT JUMPDEST POP POP POP POP PUSH1 0x40 MLOAD RETURNDATASIZE PUSH1 0x1F NOT PUSH1 0x1F DUP3 ADD AND DUP3 ADD DUP1 PUSH1 0x40 MSTORE POP DUP2 ADD SWAP1 PUSH2 0x3C6B SWAP2 SWAP1 PUSH2 0x4BD6 JUMP JUMPDEST POP POP POP POP POP JUMPDEST POP POP JUMP JUMPDEST PUSH0 DUP1 DUP3 PUSH5 0xFFFFFFFFFF AND TIMESTAMP PUSH2 0x3C8A SWAP2 SWAP1 PUSH2 0x4B68 JUMP JUMPDEST DUP5 PUSH2 0x3C95 SWAP2 SWAP1 PUSH2 0x49E5 JUMP JUMPDEST SWAP1 POP PUSH4 0x1E13380 DUP2 DUP2 PUSH2 0x3CAB JUMPI PUSH2 0x3CAA PUSH2 0x4A26 JUMP JUMPDEST JUMPDEST DIV SWAP1 POP DUP1 PUSH12 0x33B2E3C9FD0803CE8000000 PUSH2 0x3CC6 SWAP2 SWAP1 PUSH2 0x4C52 JUMP JUMPDEST SWAP2 POP POP SWAP3 SWAP2 POP POP JUMP JUMPDEST PUSH0 DUP1 DUP4 PUSH5 0xFFFFFFFFFF AND DUP4 PUSH2 0x3CE4 SWAP2 SWAP1 PUSH2 0x4B68 JUMP JUMPDEST SWAP1 POP PUSH0 DUP2 SUB PUSH2 0x3D02 JUMPI PUSH12 0x33B2E3C9FD0803CE8000000 SWAP2 POP POP PUSH2 0x3E2E JUMP JUMPDEST PUSH0 DUP1 PUSH0 DUP1 PUSH1 0x1 DUP6 SUB SWAP4 POP PUSH1 0x2 DUP6 GT PUSH2 0x3D1A JUMPI PUSH0 PUSH2 0x3D1F JUMP JUMPDEST PUSH1 0x2 DUP6 SUB JUMPDEST SWAP3 POP PUSH4 0x1E13380 DUP1 MUL PUSH2 0x3D3B DUP11 DUP12 PUSH2 0x3730 SWAP1 SWAP2 SWAP1 PUSH4 0xFFFFFFFF AND JUMP JUMPDEST DUP2 PUSH2 0x3D49 JUMPI PUSH2 0x3D48 PUSH2 0x4A26 JUMP JUMPDEST JUMPDEST DIV SWAP2 POP PUSH4 0x1E13380 PUSH2 0x3D64 DUP11 DUP5 PUSH2 0x3730 SWAP1 SWAP2 SWAP1 PUSH4 0xFFFFFFFF AND JUMP JUMPDEST DUP2 PUSH2 0x3D72 JUMPI PUSH2 0x3D71 PUSH2 0x4A26 JUMP JUMPDEST JUMPDEST DIV SWAP1 POP PUSH0 DUP3 DUP6 DUP8 PUSH2 0x3D83 SWAP2 SWAP1 PUSH2 0x49E5 JUMP JUMPDEST PUSH2 0x3D8D SWAP2 SWAP1 PUSH2 0x49E5 JUMP JUMPDEST SWAP1 POP PUSH1 0x2 DUP2 DUP2 PUSH2 0x3DA0 JUMPI PUSH2 0x3D9F PUSH2 0x4A26 JUMP JUMPDEST JUMPDEST DIV SWAP1 POP PUSH0 DUP3 DUP6 DUP8 DUP10 PUSH2 0x3DB2 SWAP2 SWAP1 PUSH2 0x49E5 JUMP JUMPDEST PUSH2 0x3DBC SWAP2 SWAP1 PUSH2 0x49E5 JUMP JUMPDEST PUSH2 0x3DC6 SWAP2 SWAP1 PUSH2 0x49E5 JUMP JUMPDEST SWAP1 POP PUSH1 0x6 DUP2 DUP2 PUSH2 0x3DD9 JUMPI PUSH2 0x3DD8 PUSH2 0x4A26 JUMP JUMPDEST JUMPDEST DIV SWAP1 POP DUP1 DUP3 PUSH4 0x1E13380 DUP10 DUP15 PUSH2 0x3DEF SWAP2 SWAP1 PUSH2 0x49E5 JUMP JUMPDEST PUSH2 0x3DF9 SWAP2 SWAP1 PUSH2 0x4A53 JUMP JUMPDEST PUSH12 0x33B2E3C9FD0803CE8000000 PUSH2 0x3E10 SWAP2 SWAP1 PUSH2 0x4C52 JUMP JUMPDEST PUSH2 0x3E1A SWAP2 SWAP1 PUSH2 0x4C52 JUMP JUMPDEST PUSH2 0x3E24 SWAP2 SWAP1 PUSH2 0x4C52 JUMP JUMPDEST SWAP8 POP POP POP POP POP POP POP POP JUMPDEST SWAP4 SWAP3 POP POP POP JUMP JUMPDEST PUSH0 DUP2 PUSH1 0xA0 ADD MLOAD EQ PUSH2 0x3EBD JUMPI PUSH0 PUSH2 0x3E53 DUP3 PUSH1 0xA0 ADD MLOAD DUP4 PUSH1 0xE0 ADD MLOAD PUSH2 0x3C75 JUMP JUMPDEST SWAP1 POP PUSH2 0x3E6C DUP3 PUSH1 0x20 ADD MLOAD DUP3 PUSH2 0x3730 SWAP1 SWAP2 SWAP1 PUSH4 0xFFFFFFFF AND JUMP JUMPDEST DUP3 PUSH1 0x40 ADD DUP2 DUP2 MSTORE POP POP PUSH2 0x3E82 DUP3 PUSH1 0x40 ADD MLOAD PUSH2 0x3F48 JUMP JUMPDEST PUSH1 0x5 PUSH0 ADD PUSH0 PUSH2 0x100 EXP DUP2 SLOAD DUP2 PUSH16 0xFFFFFFFFFFFFFFFFFFFFFFFFFFFFFFFF MUL NOT AND SWAP1 DUP4 PUSH16 0xFFFFFFFFFFFFFFFFFFFFFFFFFFFFFFFF AND MUL OR SWAP1 SSTORE POP POP JUMPDEST PUSH0 DUP2 PUSH0 ADD MLOAD EQ PUSH2 0x3F45 JUMPI PUSH0 PUSH2 0x3EDA DUP3 PUSH1 0xC0 ADD MLOAD DUP4 PUSH1 0xE0 ADD MLOAD PUSH2 0x371C JUMP JUMPDEST SWAP1 POP PUSH2 0x3EF3 DUP3 PUSH1 0x60 ADD MLOAD DUP3 PUSH2 0x3730 SWAP1 SWAP2 SWAP1 PUSH4 0xFFFFFFFF AND JUMP JUMPDEST DUP3 PUSH1 0x80 ADD DUP2 DUP2 MSTORE POP POP PUSH2 0x3F09 DUP3 PUSH1 0x80 ADD MLOAD PUSH2 0x3F48 JUMP JUMPDEST PUSH1 0x5 PUSH1 0x1 ADD PUSH0 PUSH2 0x100 EXP DUP2 SLOAD DUP2 PUSH16 0xFFFFFFFFFFFFFFFFFFFFFFFFFFFFFFFF MUL NOT AND SWAP1 DUP4 PUSH16 0xFFFFFFFFFFFFFFFFFFFFFFFFFFFFFFFF AND MUL OR SWAP1 SSTORE POP POP JUMPDEST POP JUMP JUMPDEST PUSH0 PUSH16 0xFFFFFFFFFFFFFFFFFFFFFFFFFFFFFFFF DUP1 AND DUP3 GT ISZERO PUSH2 0x3FA3 JUMPI PUSH1 0x80 DUP3 PUSH1 0x40 MLOAD PUSH32 0x6DFCC65000000000000000000000000000000000000000000000000000000000 DUP2 MSTORE PUSH1 0x4 ADD PUSH2 0x3F9A SWAP3 SWAP2 SWAP1 PUSH2 0x4E4C JUMP JUMPDEST PUSH1 0x40 MLOAD DUP1 SWAP2 SUB SWAP1 REVERT JUMPDEST DUP2 SWAP1 POP SWAP2 SWAP1 POP JUMP JUMPDEST PUSH1 0x40 MLOAD DUP1 PUSH2 0x100 ADD PUSH1 0x40 MSTORE DUP1 PUSH0 DUP2 MSTORE PUSH1 0x20 ADD PUSH0 DUP2 MSTORE PUSH1 0x20 ADD PUSH0 DUP2 MSTORE PUSH1 0x20 ADD PUSH0 DUP2 MSTORE PUSH1 0x20 ADD PUSH0 DUP2 MSTORE PUSH1 0x20 ADD PUSH0 DUP2 MSTORE PUSH1 0x20 ADD PUSH0 DUP2 MSTORE PUSH1 0x20 ADD PUSH0 PUSH5 0xFFFFFFFFFF AND DUP2 MSTORE POP SWAP1 JUMP JUMPDEST PUSH1 0x40 MLOAD DUP1 PUSH1 0x60 ADD PUSH1 0x40 MSTORE DUP1 PUSH0 DUP2 MSTORE PUSH1 0x20 ADD PUSH0 DUP2 MSTORE PUSH1 0x20 ADD PUSH0 DUP2 MSTORE POP SWAP1 JUMP JUMPDEST PUSH0 DUP2 SWAP1 POP SWAP2 SWAP1 POP JUMP JUMPDEST PUSH2 0x401F DUP2 PUSH2 0x400D JUMP JUMPDEST DUP3 MSTORE POP POP JUMP JUMPDEST PUSH0 PUSH1 0x20 DUP3 ADD SWAP1 POP PUSH2 0x4038 PUSH0 DUP4 ADD DUP5 PUSH2 0x4016 JUMP JUMPDEST SWAP3 SWAP2 POP POP JUMP JUMPDEST PUSH0 PUSH1 0x40 MLOAD SWAP1 POP SWAP1 JUMP JUMPDEST PUSH0 DUP1 REVERT JUMPDEST PUSH0 DUP1 REVERT JUMPDEST PUSH0 PUSH20 0xFFFFFFFFFFFFFFFFFFFFFFFFFFFFFFFFFFFFFFFF DUP3 AND SWAP1 POP SWAP2 SWAP1 POP JUMP JUMPDEST PUSH0 PUSH2 0x4078 DUP3 PUSH2 0x404F JUMP JUMPDEST SWAP1 POP SWAP2 SWAP1 POP JUMP JUMPDEST PUSH2 0x4088 DUP2 PUSH2 0x406E JUMP JUMPDEST DUP2 EQ PUSH2 0x4092 JUMPI PUSH0 DUP1 REVERT JUMPDEST POP JUMP JUMPDEST PUSH0 DUP2 CALLDATALOAD SWAP1 POP PUSH2 0x40A3 DUP2 PUSH2 0x407F JUMP JUMPDEST SWAP3 SWAP2 POP POP JUMP JUMPDEST PUSH0 PUSH1 0x20 DUP3 DUP5 SUB SLT ISZERO PUSH2 0x40BE JUMPI PUSH2 0x40BD PUSH2 0x4047 JUMP JUMPDEST JUMPDEST PUSH0 PUSH2 0x40CB DUP5 DUP3 DUP6 ADD PUSH2 0x4095 JUMP JUMPDEST SWAP2 POP POP SWAP3 SWAP2 POP POP JUMP JUMPDEST PUSH0 DUP2 ISZERO ISZERO SWAP1 POP SWAP2 SWAP1 POP JUMP JUMPDEST PUSH2 0x40E8 DUP2 PUSH2 0x40D4 JUMP JUMPDEST DUP3 MSTORE POP POP JUMP JUMPDEST PUSH0 PUSH1 0x20 DUP3 ADD SWAP1 POP PUSH2 0x4101 PUSH0 DUP4 ADD DUP5 PUSH2 0x40DF JUMP JUMPDEST SWAP3 SWAP2 POP POP JUMP JUMPDEST PUSH2 0x4110 DUP2 PUSH2 0x40D4 JUMP JUMPDEST DUP2 EQ PUSH2 0x411A JUMPI PUSH0 DUP1 REVERT JUMPDEST POP JUMP JUMPDEST PUSH0 DUP2 CALLDATALOAD SWAP1 POP PUSH2 0x412B DUP2 PUSH2 0x4107 JUMP JUMPDEST SWAP3 SWAP2 POP POP JUMP JUMPDEST PUSH0 PUSH1 0x20 DUP3 DUP5 SUB SLT ISZERO PUSH2 0x4146 JUMPI PUSH2 0x4145 PUSH2 0x4047 JUMP JUMPDEST JUMPDEST PUSH0 PUSH2 0x4153 DUP5 DUP3 DUP6 ADD PUSH2 0x411D JUMP JUMPDEST SWAP2 POP POP SWAP3 SWAP2 POP POP JUMP JUMPDEST PUSH0 PUSH2 0x4166 DUP3 PUSH2 0x406E JUMP JUMPDEST SWAP1 POP SWAP2 SWAP1 POP JUMP JUMPDEST PUSH2 0x4176 DUP2 PUSH2 0x415C JUMP JUMPDEST DUP2 EQ PUSH2 0x4180 JUMPI PUSH0 DUP1 REVERT JUMPDEST POP JUMP JUMPDEST PUSH0 DUP2 CALLDATALOAD SWAP1 POP PUSH2 0x4191 DUP2 PUSH2 0x416D JUMP JUMPDEST SWAP3 SWAP2 POP POP JUMP JUMPDEST PUSH2 0x41A0 DUP2 PUSH2 0x400D JUMP JUMPDEST DUP2 EQ PUSH2 0x41AA JUMPI PUSH0 DUP1 REVERT JUMPDEST POP JUMP JUMPDEST PUSH0 DUP2 CALLDATALOAD SWAP1 POP PUSH2 0x41BB DUP2 PUSH2 0x4197 JUMP JUMPDEST SWAP3 SWAP2 POP POP JUMP JUMPDEST PUSH0 DUP1 PUSH0 PUSH1 0x60 DUP5 DUP7 SUB SLT ISZERO PUSH2 0x41D8 JUMPI PUSH2 0x41D7 PUSH2 0x4047 JUMP JUMPDEST JUMPDEST PUSH0 PUSH2 0x41E5 DUP7 DUP3 DUP8 ADD PUSH2 0x4183 JUMP JUMPDEST SWAP4 POP POP PUSH1 0x20 PUSH2 0x41F6 DUP7 DUP3 DUP8 ADD PUSH2 0x4095 JUMP JUMPDEST SWAP3 POP POP PUSH1 0x40 PUSH2 0x4207 DUP7 DUP3 DUP8 ADD PUSH2 0x41AD JUMP JUMPDEST SWAP2 POP POP SWAP3 POP SWAP3 POP SWAP3 JUMP JUMPDEST PUSH0 PUSH1 0x20 DUP3 DUP5 SUB SLT ISZERO PUSH2 0x4226 JUMPI PUSH2 0x4225 PUSH2 0x4047 JUMP JUMPDEST JUMPDEST PUSH0 PUSH2 0x4233 DUP5 DUP3 DUP6 ADD PUSH2 0x41AD JUMP JUMPDEST SWAP2 POP POP SWAP3 SWAP2 POP POP JUMP JUMPDEST PUSH0 DUP1 PUSH0 DUP1 PUSH1 0x80 DUP6 DUP8 SUB SLT ISZERO PUSH2 0x4254 JUMPI PUSH2 0x4253 PUSH2 0x4047 JUMP JUMPDEST JUMPDEST PUSH0 PUSH2 0x4261 DUP8 DUP3 DUP9 ADD PUSH2 0x41AD JUMP JUMPDEST SWAP5 POP POP PUSH1 0x20 PUSH2 0x4272 DUP8 DUP3 DUP9 ADD PUSH2 0x41AD JUMP JUMPDEST SWAP4 POP POP PUSH1 0x40 PUSH2 0x4283 DUP8 DUP3 DUP9 ADD PUSH2 0x4095 JUMP JUMPDEST SWAP3 POP POP PUSH1 0x60 PUSH2 0x4294 DUP8 DUP3 DUP9 ADD PUSH2 0x411D JUMP JUMPDEST SWAP2 POP POP SWAP3 SWAP6 SWAP2 SWAP5 POP SWAP3 POP JUMP JUMPDEST PUSH2 0x42A9 DUP2 PUSH2 0x406E JUMP JUMPDEST DUP3 MSTORE POP POP JUMP JUMPDEST PUSH0 PUSH1 0x20 DUP3 ADD SWAP1 POP PUSH2 0x42C2 PUSH0 DUP4 ADD DUP5 PUSH2 0x42A0 JUMP JUMPDEST SWAP3 SWAP2 POP POP JUMP JUMPDEST PUSH0 DUP1 PUSH1 0x40 DUP4 DUP6 SUB SLT ISZERO PUSH2 0x42DE JUMPI PUSH2 0x42DD PUSH2 0x4047 JUMP JUMPDEST JUMPDEST PUSH0 PUSH2 0x42EB DUP6 DUP3 DUP7 ADD PUSH2 0x41AD JUMP JUMPDEST SWAP3 POP POP PUSH1 0x20 PUSH2 0x42FC DUP6 DUP3 DUP7 ADD PUSH2 0x41AD JUMP JUMPDEST SWAP2 POP POP SWAP3 POP SWAP3 SWAP1 POP JUMP JUMPDEST PUSH0 DUP2 SWAP1 POP SWAP2 SWAP1 POP JUMP JUMPDEST PUSH0 PUSH2 0x4329 PUSH2 0x4324 PUSH2 0x431F DUP5 PUSH2 0x404F JUMP JUMPDEST PUSH2 0x4306 JUMP JUMPDEST PUSH2 0x404F JUMP JUMPDEST SWAP1 POP SWAP2 SWAP1 POP JUMP JUMPDEST PUSH0 PUSH2 0x433A DUP3 PUSH2 0x430F JUMP JUMPDEST SWAP1 POP SWAP2 SWAP1 POP JUMP JUMPDEST PUSH0 PUSH2 0x434B DUP3 PUSH2 0x4330 JUMP JUMPDEST SWAP1 POP SWAP2 SWAP1 POP JUMP JUMPDEST PUSH2 0x435B DUP2 PUSH2 0x4341 JUMP JUMPDEST DUP3 MSTORE POP POP JUMP JUMPDEST PUSH0 PUSH1 0x20 DUP3 ADD SWAP1 POP PUSH2 0x4374 PUSH0 DUP4 ADD DUP5 PUSH2 0x4352 JUMP JUMPDEST SWAP3 SWAP2 POP POP JUMP JUMPDEST PUSH0 PUSH16 0xFFFFFFFFFFFFFFFFFFFFFFFFFFFFFFFF DUP3 AND SWAP1 POP SWAP2 SWAP1 POP JUMP JUMPDEST PUSH2 0x439E DUP2 PUSH2 0x437A JUMP JUMPDEST DUP3 MSTORE POP POP JUMP JUMPDEST PUSH0 PUSH5 0xFFFFFFFFFF DUP3 AND SWAP1 POP SWAP2 SWAP1 POP JUMP JUMPDEST PUSH2 0x43BD DUP2 PUSH2 0x43A4 JUMP JUMPDEST DUP3 MSTORE POP POP JUMP JUMPDEST PUSH0 PUSH2 0xFFFF DUP3 AND SWAP1 POP SWAP2 SWAP1 POP JUMP JUMPDEST PUSH2 0x43D9 DUP2 PUSH2 0x43C3 JUMP JUMPDEST DUP3 MSTORE POP POP JUMP JUMPDEST PUSH0 PUSH1 0xE0 DUP3 ADD SWAP1 POP PUSH2 0x43F2 PUSH0 DUP4 ADD DUP11 PUSH2 0x4395 JUMP JUMPDEST PUSH2 0x43FF PUSH1 0x20 DUP4 ADD DUP10 PUSH2 0x4395 JUMP JUMPDEST PUSH2 0x440C PUSH1 0x40 DUP4 ADD DUP9 PUSH2 0x4395 JUMP JUMPDEST PUSH2 0x4419 PUSH1 0x60 DUP4 ADD DUP8 PUSH2 0x4395 JUMP JUMPDEST PUSH2 0x4426 PUSH1 0x80 DUP4 ADD DUP7 PUSH2 0x43B4 JUMP JUMPDEST PUSH2 0x4433 PUSH1 0xA0 DUP4 ADD DUP6 PUSH2 0x43D0 JUMP JUMPDEST PUSH2 0x4440 PUSH1 0xC0 DUP4 ADD DUP5 PUSH2 0x42A0 JUMP JUMPDEST SWAP9 SWAP8 POP POP POP POP POP POP POP POP JUMP JUMPDEST PUSH0 PUSH2 0x120 DUP3 ADD SWAP1 POP PUSH2 0x4460 PUSH0 DUP4 ADD DUP13 PUSH2 0x4016 JUMP JUMPDEST PUSH2 0x446D PUSH1 0x20 DUP4 ADD DUP12 PUSH2 0x4016 JUMP JUMPDEST PUSH2 0x447A PUSH1 0x40 DUP4 ADD DUP11 PUSH2 0x40DF JUMP JUMPDEST PUSH2 0x4487 PUSH1 0x60 DUP4 ADD DUP10 PUSH2 0x42A0 JUMP JUMPDEST PUSH2 0x4494 PUSH1 0x80 DUP4 ADD DUP9 PUSH2 0x40DF JUMP JUMPDEST PUSH2 0x44A1 PUSH1 0xA0 DUP4 ADD DUP8 PUSH2 0x4352 JUMP JUMPDEST PUSH2 0x44AE PUSH1 0xC0 DUP4 ADD DUP7 PUSH2 0x40DF JUMP JUMPDEST PUSH2 0x44BB PUSH1 0xE0 DUP4 ADD DUP6 PUSH2 0x40DF JUMP JUMPDEST PUSH2 0x44C9 PUSH2 0x100 DUP4 ADD DUP5 PUSH2 0x4016 JUMP JUMPDEST SWAP11 SWAP10 POP POP POP POP POP POP POP POP POP POP JUMP JUMPDEST PUSH0 DUP1 PUSH1 0x40 DUP4 DUP6 SUB SLT ISZERO PUSH2 0x44ED JUMPI PUSH2 0x44EC PUSH2 0x4047 JUMP JUMPDEST JUMPDEST PUSH0 PUSH2 0x44FA DUP6 DUP3 DUP7 ADD PUSH2 0x4183 JUMP JUMPDEST SWAP3 POP POP PUSH1 0x20 PUSH2 0x450B DUP6 DUP3 DUP7 ADD PUSH2 0x4095 JUMP JUMPDEST SWAP2 POP POP SWAP3 POP SWAP3 SWAP1 POP JUMP JUMPDEST PUSH0 DUP1 REVERT JUMPDEST PUSH0 PUSH1 0x1F NOT PUSH1 0x1F DUP4 ADD AND SWAP1 POP SWAP2 SWAP1 POP JUMP JUMPDEST PUSH32 0x4E487B7100000000000000000000000000000000000000000000000000000000 PUSH0 MSTORE PUSH1 0x41 PUSH1 0x4 MSTORE PUSH1 0x24 PUSH0 REVERT JUMPDEST PUSH2 0x455F DUP3 PUSH2 0x4519 JUMP JUMPDEST DUP2 ADD DUP2 DUP2 LT PUSH8 0xFFFFFFFFFFFFFFFF DUP3 GT OR ISZERO PUSH2 0x457E JUMPI PUSH2 0x457D PUSH2 0x4529 JUMP JUMPDEST JUMPDEST DUP1 PUSH1 0x40 MSTORE POP POP POP JUMP JUMPDEST PUSH0 PUSH2 0x4590 PUSH2 0x403E JUMP JUMPDEST SWAP1 POP PUSH2 0x459C DUP3 DUP3 PUSH2 0x4556 JUMP JUMPDEST SWAP2 SWAP1 POP JUMP JUMPDEST PUSH0 PUSH8 0xFFFFFFFFFFFFFFFF DUP3 GT ISZERO PUSH2 0x45BB JUMPI PUSH2 0x45BA PUSH2 0x4529 JUMP JUMPDEST JUMPDEST PUSH1 0x20 DUP3 MUL SWAP1 POP PUSH1 0x20 DUP2 ADD SWAP1 POP SWAP2 SWAP1 POP JUMP JUMPDEST PUSH0 DUP1 REVERT JUMPDEST PUSH0 PUSH2 0x45E2 PUSH2 0x45DD DUP5 PUSH2 0x45A1 JUMP JUMPDEST PUSH2 0x4587 JUMP JUMPDEST SWAP1 POP DUP1 DUP4 DUP3 MSTORE PUSH1 0x20 DUP3 ADD SWAP1 POP PUSH1 0x20 DUP5 MUL DUP4 ADD DUP6 DUP2 GT ISZERO PUSH2 0x4605 JUMPI PUSH2 0x4604 PUSH2 0x45CC JUMP JUMPDEST JUMPDEST DUP4 JUMPDEST DUP2 DUP2 LT ISZERO PUSH2 0x462E JUMPI DUP1 PUSH2 0x461A DUP9 DUP3 PUSH2 0x4095 JUMP JUMPDEST DUP5 MSTORE PUSH1 0x20 DUP5 ADD SWAP4 POP POP PUSH1 0x20 DUP2 ADD SWAP1 POP PUSH2 0x4607 JUMP JUMPDEST POP POP POP SWAP4 SWAP3 POP POP POP JUMP JUMPDEST PUSH0 DUP3 PUSH1 0x1F DUP4 ADD SLT PUSH2 0x464C JUMPI PUSH2 0x464B PUSH2 0x4515 JUMP JUMPDEST JUMPDEST DUP2 CALLDATALOAD PUSH2 0x465C DUP5 DUP3 PUSH1 0x20 DUP7 ADD PUSH2 0x45D0 JUMP JUMPDEST SWAP2 POP POP SWAP3 SWAP2 POP POP JUMP JUMPDEST PUSH0 PUSH8 0xFFFFFFFFFFFFFFFF DUP3 GT ISZERO PUSH2 0x467F JUMPI PUSH2 0x467E PUSH2 0x4529 JUMP JUMPDEST JUMPDEST PUSH1 0x20 DUP3 MUL SWAP1 POP PUSH1 0x20 DUP2 ADD SWAP1 POP SWAP2 SWAP1 POP JUMP JUMPDEST PUSH0 PUSH2 0x46A2 PUSH2 0x469D DUP5 PUSH2 0x4665 JUMP JUMPDEST PUSH2 0x4587 JUMP JUMPDEST SWAP1 POP DUP1 DUP4 DUP3 MSTORE PUSH1 0x20 DUP3 ADD SWAP1 POP PUSH1 0x20 DUP5 MUL DUP4 ADD DUP6 DUP2 GT ISZERO PUSH2 0x46C5 JUMPI PUSH2 0x46C4 PUSH2 0x45CC JUMP JUMPDEST JUMPDEST DUP4 JUMPDEST DUP2 DUP2 LT ISZERO PUSH2 0x46EE JUMPI DUP1 PUSH2 0x46DA DUP9 DUP3 PUSH2 0x411D JUMP JUMPDEST DUP5 MSTORE PUSH1 0x20 DUP5 ADD SWAP4 POP POP PUSH1 0x20 DUP2 ADD SWAP1 POP PUSH2 0x46C7 JUMP JUMPDEST POP POP POP SWAP4 SWAP3 POP POP POP JUMP JUMPDEST PUSH0 DUP3 PUSH1 0x1F DUP4 ADD SLT PUSH2 0x470C JUMPI PUSH2 0x470B PUSH2 0x4515 JUMP JUMPDEST JUMPDEST DUP2 CALLDATALOAD PUSH2 0x471C DUP5 DUP3 PUSH1 0x20 DUP7 ADD PUSH2 0x4690 JUMP JUMPDEST SWAP2 POP POP SWAP3 SWAP2 POP POP JUMP JUMPDEST PUSH0 DUP1 PUSH1 0x40 DUP4 DUP6 SUB SLT ISZERO PUSH2 0x473B JUMPI PUSH2 0x473A PUSH2 0x4047 JUMP JUMPDEST JUMPDEST PUSH0 DUP4 ADD CALLDATALOAD PUSH8 0xFFFFFFFFFFFFFFFF DUP2 GT ISZERO PUSH2 0x4758 JUMPI PUSH2 0x4757 PUSH2 0x404B JUMP JUMPDEST JUMPDEST PUSH2 0x4764 DUP6 DUP3 DUP7 ADD PUSH2 0x4638 JUMP JUMPDEST SWAP3 POP POP PUSH1 0x20 DUP4 ADD CALLDATALOAD PUSH8 0xFFFFFFFFFFFFFFFF DUP2 GT ISZERO PUSH2 0x4785 JUMPI PUSH2 0x4784 PUSH2 0x404B JUMP JUMPDEST JUMPDEST PUSH2 0x4791 DUP6 DUP3 DUP7 ADD PUSH2 0x46F8 JUMP JUMPDEST SWAP2 POP POP SWAP3 POP SWAP3 SWAP1 POP JUMP JUMPDEST PUSH0 PUSH1 0x80 DUP3 ADD SWAP1 POP PUSH2 0x47AE PUSH0 DUP4 ADD DUP8 PUSH2 0x4016 JUMP JUMPDEST PUSH2 0x47BB PUSH1 0x20 DUP4 ADD DUP7 PUSH2 0x4016 JUMP JUMPDEST PUSH2 0x47C8 PUSH1 0x40 DUP4 ADD DUP6 PUSH2 0x4016 JUMP JUMPDEST PUSH2 0x47D5 PUSH1 0x60 DUP4 ADD DUP5 PUSH2 0x4016 JUMP JUMPDEST SWAP6 SWAP5 POP POP POP POP POP JUMP JUMPDEST PUSH0 PUSH1 0xFF DUP3 AND SWAP1 POP SWAP2 SWAP1 POP JUMP JUMPDEST PUSH2 0x47F3 DUP2 PUSH2 0x47DE JUMP JUMPDEST DUP2 EQ PUSH2 0x47FD JUMPI PUSH0 DUP1 REVERT JUMPDEST POP JUMP JUMPDEST PUSH0 DUP2 MLOAD SWAP1 POP PUSH2 0x480E DUP2 PUSH2 0x47EA JUMP JUMPDEST SWAP3 SWAP2 POP POP JUMP JUMPDEST PUSH0 PUSH1 0x20 DUP3 DUP5 SUB SLT ISZERO PUSH2 0x4829 JUMPI PUSH2 0x4828 PUSH2 0x4047 JUMP JUMPDEST JUMPDEST PUSH0 PUSH2 0x4836 DUP5 DUP3 DUP6 ADD PUSH2 0x4800 JUMP JUMPDEST SWAP2 POP POP SWAP3 SWAP2 POP POP JUMP JUMPDEST PUSH32 0x4E487B7100000000000000000000000000000000000000000000000000000000 PUSH0 MSTORE PUSH1 0x11 PUSH1 0x4 MSTORE PUSH1 0x24 PUSH0 REVERT JUMPDEST PUSH0 DUP2 PUSH1 0x1 SHR SWAP1 POP SWAP2 SWAP1 POP JUMP JUMPDEST PUSH0 DUP1 DUP3 SWAP2 POP DUP4 SWAP1 POP JUMPDEST PUSH1 0x1 DUP6 GT ISZERO PUSH2 0x48C1 JUMPI DUP1 DUP7 DIV DUP2 GT ISZERO PUSH2 0x489D JUMPI PUSH2 0x489C PUSH2 0x483F JUMP JUMPDEST JUMPDEST PUSH1 0x1 DUP6 AND ISZERO PUSH2 0x48AC JUMPI DUP1 DUP3 MUL SWAP2 POP JUMPDEST DUP1 DUP2 MUL SWAP1 POP PUSH2 0x48BA DUP6 PUSH2 0x486C JUMP JUMPDEST SWAP5 POP PUSH2 0x4881 JUMP JUMPDEST SWAP5 POP SWAP5 SWAP3 POP POP POP JUMP JUMPDEST PUSH0 DUP3 PUSH2 0x48D9 JUMPI PUSH1 0x1 SWAP1 POP PUSH2 0x4994 JUMP JUMPDEST DUP2 PUSH2 0x48E6 JUMPI PUSH0 SWAP1 POP PUSH2 0x4994 JUMP JUMPDEST DUP2 PUSH1 0x1 DUP2 EQ PUSH2 0x48FC JUMPI PUSH1 0x2 DUP2 EQ PUSH2 0x4906 JUMPI PUSH2 0x4935 JUMP JUMPDEST PUSH1 0x1 SWAP2 POP POP PUSH2 0x4994 JUMP JUMPDEST PUSH1 0xFF DUP5 GT ISZERO PUSH2 0x4918 JUMPI PUSH2 0x4917 PUSH2 0x483F JUMP JUMPDEST JUMPDEST DUP4 PUSH1 0x2 EXP SWAP2 POP DUP5 DUP3 GT ISZERO PUSH2 0x492F JUMPI PUSH2 0x492E PUSH2 0x483F JUMP JUMPDEST JUMPDEST POP PUSH2 0x4994 JUMP JUMPDEST POP PUSH1 0x20 DUP4 LT PUSH2 0x133 DUP4 LT AND PUSH1 0x4E DUP5 LT PUSH1 0xB DUP5 LT AND OR ISZERO PUSH2 0x496A JUMPI DUP3 DUP3 EXP SWAP1 POP DUP4 DUP2 GT ISZERO PUSH2 0x4965 JUMPI PUSH2 0x4964 PUSH2 0x483F JUMP JUMPDEST JUMPDEST PUSH2 0x4994 JUMP JUMPDEST PUSH2 0x4977 DUP5 DUP5 DUP5 PUSH1 0x1 PUSH2 0x4878 JUMP JUMPDEST SWAP3 POP SWAP1 POP DUP2 DUP5 DIV DUP2 GT ISZERO PUSH2 0x498E JUMPI PUSH2 0x498D PUSH2 0x483F JUMP JUMPDEST JUMPDEST DUP2 DUP2 MUL SWAP1 POP JUMPDEST SWAP4 SWAP3 POP POP POP JUMP JUMPDEST PUSH0 PUSH2 0x49A5 DUP3 PUSH2 0x400D JUMP JUMPDEST SWAP2 POP PUSH2 0x49B0 DUP4 PUSH2 0x47DE JUMP JUMPDEST SWAP3 POP PUSH2 0x49DD PUSH32 0xFFFFFFFFFFFFFFFFFFFFFFFFFFFFFFFFFFFFFFFFFFFFFFFFFFFFFFFFFFFFFFFF DUP5 DUP5 PUSH2 0x48CA JUMP JUMPDEST SWAP1 POP SWAP3 SWAP2 POP POP JUMP JUMPDEST PUSH0 PUSH2 0x49EF DUP3 PUSH2 0x400D JUMP JUMPDEST SWAP2 POP PUSH2 0x49FA DUP4 PUSH2 0x400D JUMP JUMPDEST SWAP3 POP DUP3 DUP3 MUL PUSH2 0x4A08 DUP2 PUSH2 0x400D JUMP JUMPDEST SWAP2 POP DUP3 DUP3 DIV DUP5 EQ DUP4 ISZERO OR PUSH2 0x4A1F JUMPI PUSH2 0x4A1E PUSH2 0x483F JUMP JUMPDEST JUMPDEST POP SWAP3 SWAP2 POP POP JUMP JUMPDEST PUSH32 0x4E487B7100000000000000000000000000000000000000000000000000000000 PUSH0 MSTORE PUSH1 0x12 PUSH1 0x4 MSTORE PUSH1 0x24 PUSH0 REVERT JUMPDEST PUSH0 PUSH2 0x4A5D DUP3 PUSH2 0x400D JUMP JUMPDEST SWAP2 POP PUSH2 0x4A68 DUP4 PUSH2 0x400D JUMP JUMPDEST SWAP3 POP DUP3 PUSH2 0x4A78 JUMPI PUSH2 0x4A77 PUSH2 0x4A26 JUMP JUMPDEST JUMPDEST DUP3 DUP3 DIV SWAP1 POP SWAP3 SWAP2 POP POP JUMP JUMPDEST PUSH0 DUP2 MLOAD SWAP1 POP SWAP2 SWAP1 POP JUMP JUMPDEST PUSH0 DUP3 DUP3 MSTORE PUSH1 0x20 DUP3 ADD SWAP1 POP SWAP3 SWAP2 POP POP JUMP JUMPDEST DUP3 DUP2 DUP4 MCOPY PUSH0 DUP4 DUP4 ADD MSTORE POP POP POP JUMP JUMPDEST PUSH0 PUSH2 0x4AB5 DUP3 PUSH2 0x4A83 JUMP JUMPDEST PUSH2 0x4ABF DUP2 DUP6 PUSH2 0x4A8D JUMP JUMPDEST SWAP4 POP PUSH2 0x4ACF DUP2 DUP6 PUSH1 0x20 DUP7 ADD PUSH2 0x4A9D JUMP JUMPDEST PUSH2 0x4AD8 DUP2 PUSH2 0x4519 JUMP JUMPDEST DUP5 ADD SWAP2 POP POP SWAP3 SWAP2 POP POP JUMP JUMPDEST PUSH0 PUSH1 0x20 DUP3 ADD SWAP1 POP DUP2 DUP2 SUB PUSH0 DUP4 ADD MSTORE PUSH2 0x4AFB DUP2 DUP5 PUSH2 0x4AAB JUMP JUMPDEST SWAP1 POP SWAP3 SWAP2 POP POP JUMP JUMPDEST PUSH0 DUP2 SWAP1 POP SWAP2 SWAP1 POP JUMP JUMPDEST PUSH0 PUSH8 0xFFFFFFFFFFFFFFFF DUP3 AND SWAP1 POP SWAP2 SWAP1 POP JUMP JUMPDEST PUSH0 PUSH2 0x4B39 PUSH2 0x4B34 PUSH2 0x4B2F DUP5 PUSH2 0x4B03 JUMP JUMPDEST PUSH2 0x4306 JUMP JUMPDEST PUSH2 0x4B0C JUMP JUMPDEST SWAP1 POP SWAP2 SWAP1 POP JUMP JUMPDEST PUSH2 0x4B49 DUP2 PUSH2 0x4B1F JUMP JUMPDEST DUP3 MSTORE POP POP JUMP JUMPDEST PUSH0 PUSH1 0x20 DUP3 ADD SWAP1 POP PUSH2 0x4B62 PUSH0 DUP4 ADD DUP5 PUSH2 0x4B40 JUMP JUMPDEST SWAP3 SWAP2 POP POP JUMP JUMPDEST PUSH0 PUSH2 0x4B72 DUP3 PUSH2 0x400D JUMP JUMPDEST SWAP2 POP PUSH2 0x4B7D DUP4 PUSH2 0x400D JUMP JUMPDEST SWAP3 POP DUP3 DUP3 SUB SWAP1 POP DUP2 DUP2 GT ISZERO PUSH2 0x4B95 JUMPI PUSH2 0x4B94 PUSH2 0x483F JUMP JUMPDEST JUMPDEST SWAP3 SWAP2 POP POP JUMP JUMPDEST PUSH0 PUSH1 0x40 DUP3 ADD SWAP1 POP PUSH2 0x4BAE PUSH0 DUP4 ADD DUP6 PUSH2 0x42A0 JUMP JUMPDEST PUSH2 0x4BBB PUSH1 0x20 DUP4 ADD DUP5 PUSH2 0x4016 JUMP JUMPDEST SWAP4 SWAP3 POP POP POP JUMP JUMPDEST PUSH0 DUP2 MLOAD SWAP1 POP PUSH2 0x4BD0 DUP2 PUSH2 0x4107 JUMP JUMPDEST SWAP3 SWAP2 POP POP JUMP JUMPDEST PUSH0 PUSH1 0x20 DUP3 DUP5 SUB SLT ISZERO PUSH2 0x4BEB JUMPI PUSH2 0x4BEA PUSH2 0x4047 JUMP JUMPDEST JUMPDEST PUSH0 PUSH2 0x4BF8 DUP5 DUP3 DUP6 ADD PUSH2 0x4BC2 JUMP JUMPDEST SWAP2 POP POP SWAP3 SWAP2 POP POP JUMP JUMPDEST PUSH0 PUSH1 0xA0 DUP3 ADD SWAP1 POP PUSH2 0x4C14 PUSH0 DUP4 ADD DUP9 PUSH2 0x4016 JUMP JUMPDEST PUSH2 0x4C21 PUSH1 0x20 DUP4 ADD DUP8 PUSH2 0x4016 JUMP JUMPDEST PUSH2 0x4C2E PUSH1 0x40 DUP4 ADD DUP7 PUSH2 0x4016 JUMP JUMPDEST PUSH2 0x4C3B PUSH1 0x60 DUP4 ADD DUP6 PUSH2 0x4016 JUMP JUMPDEST PUSH2 0x4C48 PUSH1 0x80 DUP4 ADD DUP5 PUSH2 0x4016 JUMP JUMPDEST SWAP7 SWAP6 POP POP POP POP POP POP JUMP JUMPDEST PUSH0 PUSH2 0x4C5C DUP3 PUSH2 0x400D JUMP JUMPDEST SWAP2 POP PUSH2 0x4C67 DUP4 PUSH2 0x400D JUMP JUMPDEST SWAP3 POP DUP3 DUP3 ADD SWAP1 POP DUP1 DUP3 GT ISZERO PUSH2 0x4C7F JUMPI PUSH2 0x4C7E PUSH2 0x483F JUMP JUMPDEST JUMPDEST SWAP3 SWAP2 POP POP JUMP JUMPDEST PUSH0 PUSH1 0x60 DUP3 ADD SWAP1 POP PUSH2 0x4C98 PUSH0 DUP4 ADD DUP7 PUSH2 0x42A0 JUMP JUMPDEST PUSH2 0x4CA5 PUSH1 0x20 DUP4 ADD DUP6 PUSH2 0x42A0 JUMP JUMPDEST PUSH2 0x4CB2 PUSH1 0x40 DUP4 ADD DUP5 PUSH2 0x4016 JUMP JUMPDEST SWAP5 SWAP4 POP POP POP POP JUMP JUMPDEST PUSH0 PUSH2 0x4CC4 DUP3 PUSH2 0x47DE JUMP JUMPDEST SWAP2 POP PUSH2 0x4CCF DUP4 PUSH2 0x47DE JUMP JUMPDEST SWAP3 POP DUP3 DUP3 SUB SWAP1 POP PUSH1 0xFF DUP2 GT ISZERO PUSH2 0x4CE8 JUMPI PUSH2 0x4CE7 PUSH2 0x483F JUMP JUMPDEST JUMPDEST SWAP3 SWAP2 POP POP JUMP JUMPDEST PUSH0 DUP2 MLOAD SWAP1 POP PUSH2 0x4CFC DUP2 PUSH2 0x4197 JUMP JUMPDEST SWAP3 SWAP2 POP POP JUMP JUMPDEST PUSH0 PUSH1 0x20 DUP3 DUP5 SUB SLT ISZERO PUSH2 0x4D17 JUMPI PUSH2 0x4D16 PUSH2 0x4047 JUMP JUMPDEST JUMPDEST PUSH0 PUSH2 0x4D24 DUP5 DUP3 DUP6 ADD PUSH2 0x4CEE JUMP JUMPDEST SWAP2 POP POP SWAP3 SWAP2 POP POP JUMP JUMPDEST PUSH32 0x4E487B7100000000000000000000000000000000000000000000000000000000 PUSH0 MSTORE PUSH1 0x32 PUSH1 0x4 MSTORE PUSH1 0x24 PUSH0 REVERT JUMPDEST PUSH2 0x4D63 DUP2 PUSH2 0x400D JUMP JUMPDEST DUP3 MSTORE POP POP JUMP JUMPDEST PUSH1 0x80 DUP3 ADD PUSH0 DUP3 ADD MLOAD PUSH2 0x4D7D PUSH0 DUP6 ADD DUP3 PUSH2 0x4D5A JUMP JUMPDEST POP PUSH1 0x20 DUP3 ADD MLOAD PUSH2 0x4D90 PUSH1 0x20 DUP6 ADD DUP3 PUSH2 0x4D5A JUMP JUMPDEST POP PUSH1 0x40 DUP3 ADD MLOAD PUSH2 0x4DA3 PUSH1 0x40 DUP6 ADD DUP3 PUSH2 0x4D5A JUMP JUMPDEST POP PUSH1 0x60 DUP3 ADD MLOAD PUSH2 0x4DB6 PUSH1 0x60 DUP6 ADD DUP3 PUSH2 0x4D5A JUMP JUMPDEST POP POP POP POP JUMP JUMPDEST PUSH0 PUSH1 0x80 DUP3 ADD SWAP1 POP PUSH2 0x4DCF PUSH0 DUP4 ADD DUP5 PUSH2 0x4D69 JUMP JUMPDEST SWAP3 SWAP2 POP POP JUMP JUMPDEST PUSH0 DUP1 PUSH1 0x40 DUP4 DUP6 SUB SLT ISZERO PUSH2 0x4DEB JUMPI PUSH2 0x4DEA PUSH2 0x4047 JUMP JUMPDEST JUMPDEST PUSH0 PUSH2 0x4DF8 DUP6 DUP3 DUP7 ADD PUSH2 0x4CEE JUMP JUMPDEST SWAP3 POP POP PUSH1 0x20 PUSH2 0x4E09 DUP6 DUP3 DUP7 ADD PUSH2 0x4CEE JUMP JUMPDEST SWAP2 POP POP SWAP3 POP SWAP3 SWAP1 POP JUMP JUMPDEST PUSH0 DUP2 SWAP1 POP SWAP2 SWAP1 POP JUMP JUMPDEST PUSH0 PUSH2 0x4E36 PUSH2 0x4E31 PUSH2 0x4E2C DUP5 PUSH2 0x4E13 JUMP JUMPDEST PUSH2 0x4306 JUMP JUMPDEST PUSH2 0x47DE JUMP JUMPDEST SWAP1 POP SWAP2 SWAP1 POP JUMP JUMPDEST PUSH2 0x4E46 DUP2 PUSH2 0x4E1C JUMP JUMPDEST DUP3 MSTORE POP POP JUMP JUMPDEST PUSH0 PUSH1 0x40 DUP3 ADD SWAP1 POP PUSH2 0x4E5F PUSH0 DUP4 ADD DUP6 PUSH2 0x4E3D JUMP JUMPDEST PUSH2 0x4E6C PUSH1 0x20 DUP4 ADD DUP5 PUSH2 0x4016 JUMP JUMPDEST SWAP4 SWAP3 POP POP POP JUMP INVALID LOG2 PUSH5 0x6970667358 0x22 SLT KECCAK256 0xDF REVERT 0xEA EXTCODESIZE 0xBF 0xBF 0xE7 0x24 0xB7 DUP2 CREATE2 PUSH6 0x34118D598FC0 PUSH7 0xA51D9BEE5D0624 DUP13 MSIZE DUP13 0xAE PREVRANDAO EXTCODECOPY PUSH5 0x736F6C6343 STOP ADDMOD BYTE STOP CALLER "
		},
		"gasEstimates": {
			"creation": {
				"codeDepositCost": "4027400",
				"executionCost": "4604",
				"totalCost": "4032004"
			},
			"external": {
				"CCFL()": "2619",
				"balanceOf(address)": "infinite",
				"borrow(uint256,uint256,address,bool)": "infinite",
				"cap()": "2537",
				"debt(uint256)": "infinite",
				"depositWithdrawAmount(address)": "2870",
				"earnStaking(uint256)": "infinite",
				"getCurrentLoan(uint256)": "infinite",
				"getCurrentRate()": "infinite",
				"getDebtPool()": "infinite",
				"getDepositWithdrawAmount(address)": "2897",
				"getRemainingPool()": "2521",
				"getTotalSupply()": "infinite",
				"initialize(address,address,uint256)": "infinite",
				"isPaused()": "2562",
				"lenders(uint256)": "4989",
				"liquidatePenalty(uint256,uint256)": "infinite",
				"loans(uint256)": "infinite",
				"operators(address)": "2901",
				"remainingPool()": "2558",
				"repay(uint256,uint256)": "infinite",
				"reserve()": "infinite",
				"setCCFL(address)": "infinite",
				"setCap(uint256)": "infinite",
				"setOperators(address[],bool[])": "infinite",
				"setPaused(bool)": "infinite",
				"setReserveInterestRateStrategy(address)": "infinite",
				"share(address)": "2892",
				"stableCoinAddress()": "infinite",
				"supply(uint256)": "infinite",
				"totalDebt()": "2557",
				"totalLiquidity()": "2516",
				"totalSupply()": "2493",
				"withdraw(uint256)": "infinite",
				"withdrawByAdmin(address,address)": "infinite"
			},
			"internal": {
				"_updateIndexes(struct DataTypes.ReserveCache memory)": "infinite",
				"addReward(uint256,address)": "infinite",
				"cache()": "infinite",
				"updateInterestRates(uint256,uint256)": "infinite",
				"updateState(struct DataTypes.ReserveCache memory)": "infinite"
			}
		},
		"methodIdentifiers": {
			"CCFL()": "3b4675a7",
			"balanceOf(address)": "70a08231",
			"borrow(uint256,uint256,address,bool)": "3870862b",
			"cap()": "355274ea",
			"debt(uint256)": "1e0029c8",
			"depositWithdrawAmount(address)": "30793601",
			"earnStaking(uint256)": "9b78dbfc",
			"getCurrentLoan(uint256)": "a52f38d1",
			"getCurrentRate()": "f7fb07b0",
			"getDebtPool()": "03ec357f",
			"getDepositWithdrawAmount(address)": "7871b060",
			"getRemainingPool()": "3b24cc21",
			"getTotalSupply()": "c4e41b22",
			"initialize(address,address,uint256)": "1794bb3c",
			"isPaused()": "b187bd26",
			"lenders(uint256)": "929eea21",
			"liquidatePenalty(uint256,uint256)": "7f394031",
			"loans(uint256)": "e1ec3c68",
			"operators(address)": "13e7c9d8",
			"remainingPool()": "b14d37c0",
			"repay(uint256,uint256)": "d8aed145",
			"reserve()": "cd3293de",
			"setCCFL(address)": "8ac1b775",
			"setCap(uint256)": "47786d37",
			"setOperators(address[],bool[])": "f4305035",
			"setPaused(bool)": "16c38b3c",
			"setReserveInterestRateStrategy(address)": "39cd7d6a",
			"share(address)": "1877bb5c",
			"stableCoinAddress()": "982aae46",
			"supply(uint256)": "35403023",
			"totalDebt()": "fc7b9c18",
			"totalLiquidity()": "15770f92",
			"totalSupply()": "18160ddd",
			"withdraw(uint256)": "2e1a7d4d",
			"withdrawByAdmin(address,address)": "e3691c51"
		}
	},
	"abi": [
		{
			"inputs": [],
			"name": "InvalidInitialization",
			"type": "error"
		},
		{
			"inputs": [],
			"name": "NotInitializing",
			"type": "error"
		},
		{
			"inputs": [
				{
					"internalType": "uint8",
					"name": "bits",
					"type": "uint8"
				},
				{
					"internalType": "uint256",
					"name": "value",
					"type": "uint256"
				}
			],
			"name": "SafeCastOverflowedUintDowncast",
			"type": "error"
		},
		{
			"anonymous": false,
			"inputs": [
				{
					"indexed": true,
					"internalType": "address",
					"name": "lender",
					"type": "address"
				},
				{
					"indexed": true,
					"internalType": "address",
					"name": "poolAddress",
					"type": "address"
				},
				{
					"indexed": true,
					"internalType": "contract IERC20Standard",
					"name": "stableCoin",
					"type": "address"
				},
				{
					"indexed": false,
					"internalType": "uint256",
					"name": "amount",
					"type": "uint256"
				},
				{
					"indexed": false,
					"internalType": "uint256",
					"name": "lenderShare",
					"type": "uint256"
				},
				{
					"indexed": false,
					"internalType": "uint256",
					"name": "totalSupply",
					"type": "uint256"
				},
				{
					"indexed": false,
					"internalType": "uint256",
					"name": "totalLiquidity",
					"type": "uint256"
				},
				{
					"indexed": false,
					"internalType": "uint256",
					"name": "remainingPool",
					"type": "uint256"
				}
			],
			"name": "AddSupply",
			"type": "event"
		},
		{
			"anonymous": false,
			"inputs": [
				{
					"indexed": false,
					"internalType": "uint64",
					"name": "version",
					"type": "uint64"
				}
			],
			"name": "Initialized",
			"type": "event"
		},
		{
			"anonymous": false,
			"inputs": [
				{
					"indexed": true,
					"internalType": "address",
					"name": "lender",
					"type": "address"
				},
				{
					"indexed": true,
					"internalType": "address",
					"name": "poolAddress",
					"type": "address"
				},
				{
					"indexed": true,
					"internalType": "contract IERC20Standard",
					"name": "stableCoin",
					"type": "address"
				},
				{
					"indexed": false,
					"internalType": "uint256",
					"name": "amount",
					"type": "uint256"
				},
				{
					"indexed": false,
					"internalType": "uint256",
					"name": "lenderShare",
					"type": "uint256"
				},
				{
					"indexed": false,
					"internalType": "uint256",
					"name": "totalSupply",
					"type": "uint256"
				},
				{
					"indexed": false,
					"internalType": "uint256",
					"name": "totalLiquidity",
					"type": "uint256"
				},
				{
					"indexed": false,
					"internalType": "uint256",
					"name": "remainingPool",
					"type": "uint256"
				}
			],
			"name": "WithdrawSupply",
			"type": "event"
		},
		{
			"inputs": [],
			"name": "CCFL",
			"outputs": [
				{
					"internalType": "address",
					"name": "",
					"type": "address"
				}
			],
			"stateMutability": "view",
			"type": "function"
		},
		{
			"inputs": [
				{
					"internalType": "address",
					"name": "_user",
					"type": "address"
				}
			],
			"name": "balanceOf",
			"outputs": [
				{
					"internalType": "uint256",
					"name": "",
					"type": "uint256"
				}
			],
			"stateMutability": "view",
			"type": "function"
		},
		{
			"inputs": [
				{
					"internalType": "uint256",
					"name": "_loanId",
					"type": "uint256"
				},
				{
					"internalType": "uint256",
					"name": "_amount",
					"type": "uint256"
				},
				{
					"internalType": "address",
					"name": "_borrower",
					"type": "address"
				},
				{
					"internalType": "bool",
					"name": "_isFiat",
					"type": "bool"
				}
			],
			"name": "borrow",
			"outputs": [],
			"stateMutability": "nonpayable",
			"type": "function"
		},
		{
			"inputs": [],
			"name": "cap",
			"outputs": [
				{
					"internalType": "uint256",
					"name": "",
					"type": "uint256"
				}
			],
			"stateMutability": "view",
			"type": "function"
		},
		{
			"inputs": [
				{
					"internalType": "uint256",
					"name": "",
					"type": "uint256"
				}
			],
			"name": "debt",
			"outputs": [
				{
					"internalType": "uint256",
					"name": "",
					"type": "uint256"
				}
			],
			"stateMutability": "view",
			"type": "function"
		},
		{
			"inputs": [
				{
					"internalType": "address",
					"name": "",
					"type": "address"
				}
			],
			"name": "depositWithdrawAmount",
			"outputs": [
				{
					"internalType": "uint256",
					"name": "",
					"type": "uint256"
				}
			],
			"stateMutability": "view",
			"type": "function"
		},
		{
			"inputs": [
				{
					"internalType": "uint256",
					"name": "_amount",
					"type": "uint256"
				}
			],
			"name": "earnStaking",
			"outputs": [],
			"stateMutability": "nonpayable",
			"type": "function"
		},
		{
			"inputs": [
				{
					"internalType": "uint256",
					"name": "_loanId",
					"type": "uint256"
				}
			],
			"name": "getCurrentLoan",
			"outputs": [
				{
					"internalType": "uint256",
					"name": "",
					"type": "uint256"
				}
			],
			"stateMutability": "view",
			"type": "function"
		},
		{
			"inputs": [],
			"name": "getCurrentRate",
			"outputs": [
				{
					"internalType": "uint256",
					"name": "",
					"type": "uint256"
				},
				{
					"internalType": "uint256",
					"name": "",
					"type": "uint256"
				},
				{
					"internalType": "uint256",
					"name": "",
					"type": "uint256"
				},
				{
					"internalType": "uint256",
					"name": "",
					"type": "uint256"
				}
			],
			"stateMutability": "view",
			"type": "function"
		},
		{
			"inputs": [],
			"name": "getDebtPool",
			"outputs": [
				{
					"internalType": "uint256",
					"name": "amount",
					"type": "uint256"
				}
			],
			"stateMutability": "view",
			"type": "function"
		},
		{
			"inputs": [
				{
					"internalType": "address",
					"name": "_user",
					"type": "address"
				}
			],
			"name": "getDepositWithdrawAmount",
			"outputs": [
				{
					"internalType": "uint256",
					"name": "",
					"type": "uint256"
				}
			],
			"stateMutability": "view",
			"type": "function"
		},
		{
			"inputs": [],
			"name": "getRemainingPool",
			"outputs": [
				{
					"internalType": "uint256",
					"name": "amount",
					"type": "uint256"
				}
			],
			"stateMutability": "view",
			"type": "function"
		},
		{
			"inputs": [],
			"name": "getTotalSupply",
			"outputs": [
				{
					"internalType": "uint256",
					"name": "",
					"type": "uint256"
				}
			],
			"stateMutability": "view",
			"type": "function"
		},
		{
			"inputs": [
				{
					"internalType": "contract IERC20Standard",
					"name": "_stableCoinAddress",
					"type": "address"
				},
				{
					"internalType": "address",
					"name": "interestRateStrategyAddress",
					"type": "address"
				},
				{
					"internalType": "uint256",
					"name": "_cap",
					"type": "uint256"
				}
			],
			"name": "initialize",
			"outputs": [],
			"stateMutability": "nonpayable",
			"type": "function"
		},
		{
			"inputs": [],
			"name": "isPaused",
			"outputs": [
				{
					"internalType": "bool",
					"name": "",
					"type": "bool"
				}
			],
			"stateMutability": "view",
			"type": "function"
		},
		{
			"inputs": [
				{
					"internalType": "uint256",
					"name": "",
					"type": "uint256"
				}
			],
			"name": "lenders",
			"outputs": [
				{
					"internalType": "address",
					"name": "",
					"type": "address"
				}
			],
			"stateMutability": "view",
			"type": "function"
		},
		{
			"inputs": [
				{
					"internalType": "uint256",
					"name": "_loanId",
					"type": "uint256"
				},
				{
					"internalType": "uint256",
					"name": "_amount",
					"type": "uint256"
				}
			],
			"name": "liquidatePenalty",
			"outputs": [],
			"stateMutability": "nonpayable",
			"type": "function"
		},
		{
			"inputs": [
				{
					"internalType": "uint256",
					"name": "",
					"type": "uint256"
				}
			],
			"name": "loans",
			"outputs": [
				{
					"internalType": "uint256",
					"name": "loanId",
					"type": "uint256"
				},
				{
					"internalType": "uint256",
					"name": "amount",
					"type": "uint256"
				},
				{
					"internalType": "bool",
					"name": "isClosed",
					"type": "bool"
				},
				{
					"internalType": "address",
					"name": "borrower",
					"type": "address"
				},
				{
					"internalType": "bool",
					"name": "isLiquidated",
					"type": "bool"
				},
				{
					"internalType": "contract IERC20Standard",
					"name": "stableCoin",
					"type": "address"
				},
				{
					"internalType": "bool",
					"name": "isFinalty",
					"type": "bool"
				},
				{
					"internalType": "bool",
					"name": "isFiat",
					"type": "bool"
				},
				{
					"internalType": "uint256",
					"name": "closedAmount",
					"type": "uint256"
				}
			],
			"stateMutability": "view",
			"type": "function"
		},
		{
			"inputs": [
				{
					"internalType": "address",
					"name": "",
					"type": "address"
				}
			],
			"name": "operators",
			"outputs": [
				{
					"internalType": "bool",
					"name": "",
					"type": "bool"
				}
			],
			"stateMutability": "view",
			"type": "function"
		},
		{
			"inputs": [],
			"name": "remainingPool",
			"outputs": [
				{
					"internalType": "uint256",
					"name": "",
					"type": "uint256"
				}
			],
			"stateMutability": "view",
			"type": "function"
		},
		{
			"inputs": [
				{
					"internalType": "uint256",
					"name": "_loanId",
					"type": "uint256"
				},
				{
					"internalType": "uint256",
					"name": "_amount",
					"type": "uint256"
				}
			],
			"name": "repay",
			"outputs": [],
			"stateMutability": "nonpayable",
			"type": "function"
		},
		{
			"inputs": [],
			"name": "reserve",
			"outputs": [
				{
					"internalType": "uint128",
					"name": "liquidityIndex",
					"type": "uint128"
				},
				{
					"internalType": "uint128",
					"name": "currentLiquidityRate",
					"type": "uint128"
				},
				{
					"internalType": "uint128",
					"name": "variableBorrowIndex",
					"type": "uint128"
				},
				{
					"internalType": "uint128",
					"name": "currentVariableBorrowRate",
					"type": "uint128"
				},
				{
					"internalType": "uint40",
					"name": "lastUpdateTimestamp",
					"type": "uint40"
				},
				{
					"internalType": "uint16",
					"name": "id",
					"type": "uint16"
				},
				{
					"internalType": "address",
					"name": "interestRateStrategyAddress",
					"type": "address"
				}
			],
			"stateMutability": "view",
			"type": "function"
		},
		{
			"inputs": [
				{
					"internalType": "address",
					"name": "_ccfl",
					"type": "address"
				}
			],
			"name": "setCCFL",
			"outputs": [],
			"stateMutability": "nonpayable",
			"type": "function"
		},
		{
			"inputs": [
				{
					"internalType": "uint256",
					"name": "_cap",
					"type": "uint256"
				}
			],
			"name": "setCap",
			"outputs": [],
			"stateMutability": "nonpayable",
			"type": "function"
		},
		{
			"inputs": [
				{
					"internalType": "address[]",
					"name": "_addresses",
					"type": "address[]"
				},
				{
					"internalType": "bool[]",
					"name": "_isActives",
					"type": "bool[]"
				}
			],
			"name": "setOperators",
			"outputs": [],
			"stateMutability": "nonpayable",
			"type": "function"
		},
		{
			"inputs": [
				{
					"internalType": "bool",
					"name": "_paused",
					"type": "bool"
				}
			],
			"name": "setPaused",
			"outputs": [],
			"stateMutability": "nonpayable",
			"type": "function"
		},
		{
			"inputs": [
				{
					"internalType": "address",
					"name": "_interestRateStrategyAddress",
					"type": "address"
				}
			],
			"name": "setReserveInterestRateStrategy",
			"outputs": [],
			"stateMutability": "nonpayable",
			"type": "function"
		},
		{
			"inputs": [
				{
					"internalType": "address",
					"name": "",
					"type": "address"
				}
			],
			"name": "share",
			"outputs": [
				{
					"internalType": "uint256",
					"name": "",
					"type": "uint256"
				}
			],
			"stateMutability": "view",
			"type": "function"
		},
		{
			"inputs": [],
			"name": "stableCoinAddress",
			"outputs": [
				{
					"internalType": "contract IERC20Standard",
					"name": "",
					"type": "address"
				}
			],
			"stateMutability": "view",
			"type": "function"
		},
		{
			"inputs": [
				{
					"internalType": "uint256",
					"name": "_amount",
					"type": "uint256"
				}
			],
			"name": "supply",
			"outputs": [],
			"stateMutability": "nonpayable",
			"type": "function"
		},
		{
			"inputs": [],
			"name": "totalDebt",
			"outputs": [
				{
					"internalType": "uint256",
					"name": "",
					"type": "uint256"
				}
			],
			"stateMutability": "view",
			"type": "function"
		},
		{
			"inputs": [],
			"name": "totalLiquidity",
			"outputs": [
				{
					"internalType": "uint256",
					"name": "",
					"type": "uint256"
				}
			],
			"stateMutability": "view",
			"type": "function"
		},
		{
			"inputs": [],
			"name": "totalSupply",
			"outputs": [
				{
					"internalType": "uint256",
					"name": "",
					"type": "uint256"
				}
			],
			"stateMutability": "view",
			"type": "function"
		},
		{
			"inputs": [
				{
					"internalType": "uint256",
					"name": "_amount",
					"type": "uint256"
				}
			],
			"name": "withdraw",
			"outputs": [],
			"stateMutability": "nonpayable",
			"type": "function"
		},
		{
			"inputs": [
				{
					"internalType": "contract IERC20Standard",
					"name": "_token",
					"type": "address"
				},
				{
					"internalType": "address",
					"name": "_receiver",
					"type": "address"
				}
			],
			"name": "withdrawByAdmin",
			"outputs": [],
			"stateMutability": "nonpayable",
			"type": "function"
		},
		{
			"stateMutability": "payable",
			"type": "receive"
		}
	]
}