{
  "_format": "hh-sol-artifact-1",
  "contractName": "CCFL",
  "sourceName": "contracts/CCFL.sol",
  "abi": [
    {
      "inputs": [],
      "name": "ERC1167FailedCreateClone",
      "type": "error"
    },
    {
      "inputs": [],
      "name": "InvalidInitialization",
      "type": "error"
    },
    {
      "inputs": [],
      "name": "NotInitializing",
      "type": "error"
    },
    {
      "anonymous": false,
      "inputs": [
        {
          "indexed": false,
          "internalType": "uint64",
          "name": "version",
          "type": "uint64"
        }
      ],
      "name": "Initialized",
      "type": "event"
    },
    {
      "anonymous": false,
      "inputs": [
        {
          "indexed": true,
          "internalType": "address",
          "name": "onBehalfOf",
          "type": "address"
        },
        {
          "indexed": true,
          "internalType": "address",
          "name": "_token",
          "type": "address"
        },
        {
          "indexed": true,
          "internalType": "uint256",
          "name": "_amount",
          "type": "uint256"
        }
      ],
      "name": "LiquiditySupplied",
      "type": "event"
    },
    {
      "anonymous": false,
      "inputs": [
        {
          "indexed": true,
          "internalType": "address",
          "name": "to",
          "type": "address"
        },
        {
          "indexed": true,
          "internalType": "address",
          "name": "_token",
          "type": "address"
        },
        {
          "indexed": true,
          "internalType": "uint256",
          "name": "_amount",
          "type": "uint256"
        }
      ],
      "name": "LiquidityWithdrawn",
      "type": "event"
    },
    {
      "anonymous": false,
      "inputs": [
        {
          "indexed": false,
          "internalType": "address",
          "name": "borrower",
          "type": "address"
        },
        {
          "indexed": false,
          "internalType": "uint256",
          "name": "amount",
          "type": "uint256"
        },
        {
          "indexed": false,
          "internalType": "uint256",
          "name": "when",
          "type": "uint256"
        }
      ],
      "name": "Withdraw",
      "type": "event"
    },
    {
      "inputs": [
        {
          "internalType": "contract IERC20Standard",
          "name": "",
          "type": "address"
        }
      ],
      "name": "aTokens",
      "outputs": [
        {
          "internalType": "contract IERC20Standard",
          "name": "",
          "type": "address"
        }
      ],
      "stateMutability": "view",
      "type": "function"
    },
    {
      "inputs": [],
      "name": "aaveAddressProvider",
      "outputs": [
        {
          "internalType": "contract IPoolAddressesProvider",
          "name": "",
          "type": "address"
        }
      ],
      "stateMutability": "view",
      "type": "function"
    },
    {
      "inputs": [
        {
          "internalType": "uint256",
          "name": "_loanId",
          "type": "uint256"
        },
        {
          "internalType": "uint256",
          "name": "_amountCollateral",
          "type": "uint256"
        },
        {
          "internalType": "contract IERC20Standard",
          "name": "_collateral",
          "type": "address"
        },
        {
          "internalType": "bool",
          "name": "_isETH",
          "type": "bool"
        }
      ],
      "name": "addCollateral",
      "outputs": [],
      "stateMutability": "payable",
      "type": "function"
    },
    {
      "inputs": [
        {
          "internalType": "uint256",
          "name": "_loanId",
          "type": "uint256"
        },
        {
          "internalType": "uint256",
          "name": "_amountCollateral",
          "type": "uint256"
        }
      ],
      "name": "addCollateralHealthFactor",
      "outputs": [
        {
          "internalType": "uint256",
          "name": "",
          "type": "uint256"
        }
      ],
      "stateMutability": "view",
      "type": "function"
    },
    {
      "inputs": [
        {
          "internalType": "contract IERC20Standard",
          "name": "",
          "type": "address"
        }
      ],
      "name": "ccflActiveCollaterals",
      "outputs": [
        {
          "internalType": "bool",
          "name": "",
          "type": "bool"
        }
      ],
      "stateMutability": "view",
      "type": "function"
    },
    {
      "inputs": [
        {
          "internalType": "contract IERC20Standard",
          "name": "",
          "type": "address"
        }
      ],
      "name": "ccflActivePoolStableCoins",
      "outputs": [
        {
          "internalType": "bool",
          "name": "",
          "type": "bool"
        }
      ],
      "stateMutability": "view",
      "type": "function"
    },
    {
      "inputs": [
        {
          "internalType": "uint256",
          "name": "",
          "type": "uint256"
        }
      ],
      "name": "ccflPoolStableCoins",
      "outputs": [
        {
          "internalType": "contract IERC20Standard",
          "name": "",
          "type": "address"
        }
      ],
      "stateMutability": "view",
      "type": "function"
    },
    {
      "inputs": [
        {
          "internalType": "contract IERC20Standard",
          "name": "",
          "type": "address"
        }
      ],
      "name": "ccflPools",
      "outputs": [
        {
          "internalType": "contract ICCFLPool",
          "name": "",
          "type": "address"
        }
      ],
      "stateMutability": "view",
      "type": "function"
    },
    {
      "inputs": [
        {
          "internalType": "contract IERC20Standard[]",
          "name": "array",
          "type": "address[]"
        },
        {
          "internalType": "contract IERC20Standard",
          "name": "el",
          "type": "address"
        }
      ],
      "name": "checkExistElement",
      "outputs": [
        {
          "internalType": "bool",
          "name": "",
          "type": "bool"
        }
      ],
      "stateMutability": "pure",
      "type": "function"
    },
    {
      "inputs": [
        {
          "internalType": "uint256",
          "name": "",
          "type": "uint256"
        }
      ],
      "name": "collateralTokens",
      "outputs": [
        {
          "internalType": "contract IERC20Standard",
          "name": "",
          "type": "address"
        }
      ],
      "stateMutability": "view",
      "type": "function"
    },
    {
      "inputs": [
        {
          "internalType": "address",
          "name": "",
          "type": "address"
        },
        {
          "internalType": "contract IERC20Standard",
          "name": "",
          "type": "address"
        }
      ],
      "name": "collaterals",
      "outputs": [
        {
          "internalType": "uint256",
          "name": "",
          "type": "uint256"
        }
      ],
      "stateMutability": "view",
      "type": "function"
    },
    {
      "inputs": [
        {
          "internalType": "uint256",
          "name": "_amount",
          "type": "uint256"
        },
        {
          "internalType": "contract IERC20Standard",
          "name": "_stableCoin",
          "type": "address"
        },
        {
          "internalType": "uint256",
          "name": "_amountCollateral",
          "type": "uint256"
        },
        {
          "internalType": "contract IERC20Standard",
          "name": "_collateral",
          "type": "address"
        },
        {
          "internalType": "bool",
          "name": "_isYieldGenerating",
          "type": "bool"
        },
        {
          "internalType": "bool",
          "name": "_isETH",
          "type": "bool"
        }
      ],
      "name": "createLoan",
      "outputs": [],
      "stateMutability": "payable",
      "type": "function"
    },
    {
      "inputs": [
        {
          "internalType": "uint256",
          "name": "_loanId",
          "type": "uint256"
        }
      ],
      "name": "getHealthFactor",
      "outputs": [
        {
          "internalType": "uint256",
          "name": "",
          "type": "uint256"
        }
      ],
      "stateMutability": "view",
      "type": "function"
    },
    {
      "inputs": [
        {
          "internalType": "contract IERC20Standard",
          "name": "_stableCoin",
          "type": "address"
        },
        {
          "internalType": "bool",
          "name": "isPool",
          "type": "bool"
        }
      ],
      "name": "getLatestPrice",
      "outputs": [
        {
          "internalType": "uint256",
          "name": "",
          "type": "uint256"
        }
      ],
      "stateMutability": "view",
      "type": "function"
    },
    {
      "inputs": [
        {
          "internalType": "uint256",
          "name": "_loanId",
          "type": "uint256"
        }
      ],
      "name": "getLoanAddress",
      "outputs": [
        {
          "internalType": "address",
          "name": "",
          "type": "address"
        }
      ],
      "stateMutability": "view",
      "type": "function"
    },
    {
      "inputs": [
        {
          "internalType": "uint256",
          "name": "_amount",
          "type": "uint256"
        },
        {
          "internalType": "contract IERC20Standard",
          "name": "_stableCoin",
          "type": "address"
        },
        {
          "internalType": "contract IERC20Standard",
          "name": "_collateral",
          "type": "address"
        }
      ],
      "name": "getMinimalCollateral",
      "outputs": [
        {
          "internalType": "uint256",
          "name": "",
          "type": "uint256"
        }
      ],
      "stateMutability": "view",
      "type": "function"
    },
    {
      "inputs": [
        {
          "internalType": "contract IERC20Standard[]",
          "name": "_ccflPoolStableCoin",
          "type": "address[]"
        },
        {
          "internalType": "contract AggregatorV3Interface[]",
          "name": "_poolAggregators",
          "type": "address[]"
        },
        {
          "internalType": "contract ICCFLPool[]",
          "name": "_ccflPools",
          "type": "address[]"
        },
        {
          "internalType": "contract IERC20Standard[]",
          "name": "_collateralTokens",
          "type": "address[]"
        },
        {
          "internalType": "contract AggregatorV3Interface[]",
          "name": "_collateralAggregators",
          "type": "address[]"
        },
        {
          "internalType": "contract IERC20Standard[]",
          "name": "_aTokens",
          "type": "address[]"
        },
        {
          "internalType": "contract IPoolAddressesProvider",
          "name": "_aaveAddressProvider",
          "type": "address"
        },
        {
          "internalType": "uint256",
          "name": "_maxLTV",
          "type": "uint256"
        },
        {
          "internalType": "uint256",
          "name": "_liquidationThreshold",
          "type": "uint256"
        },
        {
          "internalType": "contract ICCFLLoan",
          "name": "_ccflLoan",
          "type": "address"
        }
      ],
      "name": "initialize",
      "outputs": [],
      "stateMutability": "nonpayable",
      "type": "function"
    },
    {
      "inputs": [
        {
          "internalType": "uint256",
          "name": "_loanId",
          "type": "uint256"
        }
      ],
      "name": "liquidate",
      "outputs": [],
      "stateMutability": "nonpayable",
      "type": "function"
    },
    {
      "inputs": [],
      "name": "liquidationThreshold",
      "outputs": [
        {
          "internalType": "uint256",
          "name": "",
          "type": "uint256"
        }
      ],
      "stateMutability": "view",
      "type": "function"
    },
    {
      "inputs": [],
      "name": "liquidator",
      "outputs": [
        {
          "internalType": "address",
          "name": "",
          "type": "address"
        }
      ],
      "stateMutability": "view",
      "type": "function"
    },
    {
      "inputs": [],
      "name": "loandIds",
      "outputs": [
        {
          "internalType": "uint256",
          "name": "",
          "type": "uint256"
        }
      ],
      "stateMutability": "view",
      "type": "function"
    },
    {
      "inputs": [],
      "name": "maxLTV",
      "outputs": [
        {
          "internalType": "uint256",
          "name": "",
          "type": "uint256"
        }
      ],
      "stateMutability": "view",
      "type": "function"
    },
    {
      "inputs": [],
      "name": "owner",
      "outputs": [
        {
          "internalType": "address",
          "name": "",
          "type": "address"
        }
      ],
      "stateMutability": "view",
      "type": "function"
    },
    {
      "inputs": [],
      "name": "penaltyLender",
      "outputs": [
        {
          "internalType": "uint256",
          "name": "",
          "type": "uint256"
        }
      ],
      "stateMutability": "view",
      "type": "function"
    },
    {
      "inputs": [],
      "name": "penaltyLiquidator",
      "outputs": [
        {
          "internalType": "uint256",
          "name": "",
          "type": "uint256"
        }
      ],
      "stateMutability": "view",
      "type": "function"
    },
    {
      "inputs": [],
      "name": "penaltyPlatform",
      "outputs": [
        {
          "internalType": "uint256",
          "name": "",
          "type": "uint256"
        }
      ],
      "stateMutability": "view",
      "type": "function"
    },
    {
      "inputs": [],
      "name": "platform",
      "outputs": [
        {
          "internalType": "address",
          "name": "",
          "type": "address"
        }
      ],
      "stateMutability": "view",
      "type": "function"
    },
    {
      "inputs": [
        {
          "internalType": "contract IERC20Standard",
          "name": "",
          "type": "address"
        }
      ],
      "name": "priceFeeds",
      "outputs": [
        {
          "internalType": "contract AggregatorV3Interface",
          "name": "",
          "type": "address"
        }
      ],
      "stateMutability": "view",
      "type": "function"
    },
    {
      "inputs": [
        {
          "internalType": "contract IERC20Standard",
          "name": "",
          "type": "address"
        }
      ],
      "name": "pricePoolFeeds",
      "outputs": [
        {
          "internalType": "contract AggregatorV3Interface",
          "name": "",
          "type": "address"
        }
      ],
      "stateMutability": "view",
      "type": "function"
    },
    {
      "inputs": [
        {
          "internalType": "uint256",
          "name": "_loanId",
          "type": "uint256"
        },
        {
          "internalType": "uint256",
          "name": "_amount",
          "type": "uint256"
        }
      ],
      "name": "repayHealthFactor",
      "outputs": [
        {
          "internalType": "uint256",
          "name": "",
          "type": "uint256"
        }
      ],
      "stateMutability": "view",
      "type": "function"
    },
    {
      "inputs": [
        {
          "internalType": "uint256",
          "name": "_loanId",
          "type": "uint256"
        },
        {
          "internalType": "uint256",
          "name": "_amount",
          "type": "uint256"
        },
        {
          "internalType": "contract IERC20Standard",
          "name": "_stableCoin",
          "type": "address"
        }
      ],
      "name": "repayLoan",
      "outputs": [],
      "stateMutability": "nonpayable",
      "type": "function"
    },
    {
      "inputs": [
        {
          "internalType": "contract IPoolAddressesProvider",
          "name": "_aaveAddressProvider",
          "type": "address"
        }
      ],
      "name": "setAaveProvider",
      "outputs": [],
      "stateMutability": "nonpayable",
      "type": "function"
    },
    {
      "inputs": [
        {
          "internalType": "contract IERC20Standard",
          "name": "_token",
          "type": "address"
        },
        {
          "internalType": "bool",
          "name": "_isActived",
          "type": "bool"
        },
        {
          "internalType": "bool",
          "name": "_isPoolToken",
          "type": "bool"
        }
      ],
      "name": "setActiveToken",
      "outputs": [],
      "stateMutability": "nonpayable",
      "type": "function"
    },
    {
      "inputs": [
        {
          "internalType": "contract ICCFLLoan",
          "name": "_loan",
          "type": "address"
        }
      ],
      "name": "setCCFLLoan",
      "outputs": [],
      "stateMutability": "nonpayable",
      "type": "function"
    },
    {
      "inputs": [
        {
          "internalType": "contract IERC20Standard[]",
          "name": "_collateralTokens",
          "type": "address[]"
        },
        {
          "internalType": "contract AggregatorV3Interface[]",
          "name": "_collateralAggregators",
          "type": "address[]"
        },
        {
          "internalType": "contract IERC20Standard[]",
          "name": "_aTokens",
          "type": "address[]"
        }
      ],
      "name": "setCollaterals",
      "outputs": [],
      "stateMutability": "nonpayable",
      "type": "function"
    },
    {
      "inputs": [
        {
          "internalType": "uint256",
          "name": "_platform",
          "type": "uint256"
        },
        {
          "internalType": "uint256",
          "name": "_liquidator",
          "type": "uint256"
        },
        {
          "internalType": "uint256",
          "name": "_lender",
          "type": "uint256"
        }
      ],
      "name": "setPenalty",
      "outputs": [],
      "stateMutability": "nonpayable",
      "type": "function"
    },
    {
      "inputs": [
        {
          "internalType": "address",
          "name": "_liquidator",
          "type": "address"
        },
        {
          "internalType": "address",
          "name": "_platform",
          "type": "address"
        }
      ],
      "name": "setPlatformAddress",
      "outputs": [],
      "stateMutability": "nonpayable",
      "type": "function"
    },
    {
      "inputs": [
        {
          "internalType": "contract IERC20Standard[]",
          "name": "_ccflPoolStableCoin",
          "type": "address[]"
        },
        {
          "internalType": "contract AggregatorV3Interface[]",
          "name": "_poolAggregators",
          "type": "address[]"
        },
        {
          "internalType": "contract ICCFLPool[]",
          "name": "_ccflPools",
          "type": "address[]"
        }
      ],
      "name": "setPools",
      "outputs": [],
      "stateMutability": "nonpayable",
      "type": "function"
    },
    {
      "inputs": [
        {
          "internalType": "contract ISwapRouter",
          "name": "_swapRouter",
          "type": "address"
        }
      ],
      "name": "setSwapRouter",
      "outputs": [],
      "stateMutability": "nonpayable",
      "type": "function"
    },
    {
      "inputs": [
        {
          "internalType": "uint256",
          "name": "_maxLTV",
          "type": "uint256"
        },
        {
          "internalType": "uint256",
          "name": "_liquidationThreshold",
          "type": "uint256"
        }
      ],
      "name": "setThreshold",
      "outputs": [],
      "stateMutability": "nonpayable",
      "type": "function"
    },
    {
      "inputs": [
        {
          "internalType": "contract IWETH",
          "name": "_iWETH",
          "type": "address"
        }
      ],
      "name": "setWETH",
      "outputs": [],
      "stateMutability": "nonpayable",
      "type": "function"
    },
    {
      "inputs": [
        {
          "internalType": "address",
          "name": "",
          "type": "address"
        },
        {
          "internalType": "uint256",
          "name": "",
          "type": "uint256"
        }
      ],
      "name": "userLoans",
      "outputs": [
        {
          "internalType": "uint256",
          "name": "",
          "type": "uint256"
        }
      ],
      "stateMutability": "view",
      "type": "function"
    },
    {
      "inputs": [],
      "name": "wETH",
      "outputs": [
        {
          "internalType": "contract IWETH",
          "name": "",
          "type": "address"
        }
      ],
      "stateMutability": "view",
      "type": "function"
    },
    {
      "inputs": [
        {
          "internalType": "uint256",
          "name": "_loanId",
          "type": "uint256"
        },
        {
          "internalType": "bool",
          "name": "isETH",
          "type": "bool"
        }
      ],
      "name": "withdrawAllCollateral",
      "outputs": [],
      "stateMutability": "nonpayable",
      "type": "function"
    },
    {
      "inputs": [
        {
          "internalType": "contract IERC20Standard",
          "name": "_stableCoin",
          "type": "address"
        },
        {
          "internalType": "uint256",
          "name": "_loanId",
          "type": "uint256"
        }
      ],
      "name": "withdrawLoan",
      "outputs": [],
      "stateMutability": "nonpayable",
      "type": "function"
    },
    {
      "stateMutability": "payable",
      "type": "receive"
    }
  ],
  "bytecode": "0x608060405234801561001057600080fd5b50613f3e806100206000396000f3fe6080604052600436106102f65760003560e01c80638ba02e1c1161018f578063cdaabe41116100e1578063f24286211161008a578063f6597bbb11610064578063f6597bbb146108c0578063f8f126ff146108d6578063fdb2b32c146108f657600080fd5b8063f24286211461086a578063f384bd051461088a578063f3cf4ada146108a057600080fd5b8063e51e119e116100bb578063e51e119e146107e5578063e787ea2c1461081a578063ec7be39d1461084a57600080fd5b8063cdaabe4114610785578063d8bad5bd146107a5578063e43b03d6146107c557600080fd5b8063a8700c3c11610143578063b9c362091161011d578063b9c362091461070f578063c0d015461461072f578063c694fdc11461076557600080fd5b8063a8700c3c146106ac578063b3bffeaa146106bf578063b92dd925146106df57600080fd5b8063989397d411610174578063989397d41461062a5780639dcb511a14610660578063a58bab621461069657600080fd5b80638ba02e1c146105f45780638da5cb5b1461060a57600080fd5b806341273657116102485780635b769f3c116101fc57806364b52097116101d657806364b52097146105945780636eb0fdd0146105b457806375607815146105d457600080fd5b80635b769f3c146105345780635c8edac414610554578063611f347d1461057457600080fd5b8063474843ea1161022d578063474843ea146104e15780634bde38c8146105015780634dd7bd3f1461052157600080fd5b806341273657146104a1578063415f1240146104c157600080fd5b806325e9d2fa116102aa5780633e108ad9116102845780633e108ad9146104355780634031234c1461046b5780634046ebae1461048157600080fd5b806325e9d2fa146103d557806338ef6717146103f55780633a2ad9ae1461041557600080fd5b8063172c48c7116102db578063172c48c71461034d57806317845c69146103855780631d9eb5d9146103a557600080fd5b80630769594d14610302578063101b9d311461032457600080fd5b366102fd57005b600080fd5b34801561030e57600080fd5b5061032261031d366004613654565b61092c565b005b34801561033057600080fd5b5061033a60175481565b6040519081526020015b60405180910390f35b34801561035957600080fd5b5061036d6103683660046136dc565b610b30565b6040516001600160a01b039091168152602001610344565b34801561039157600080fd5b5061033a6103a03660046136dc565b610b5a565b3480156103b157600080fd5b506103c56103c03660046136f5565b610cd7565b6040519015158152602001610344565b3480156103e157600080fd5b5061033a6103f0366004613747565b610d32565b34801561040157600080fd5b50610322610410366004613774565b610eb1565b34801561042157600080fd5b506103226104303660046137a6565b610f1e565b34801561044157600080fd5b5061036d610450366004613774565b600a602052600090815260409020546001600160a01b031681565b34801561047757600080fd5b5061033a600c5481565b34801561048d57600080fd5b5060105461036d906001600160a01b031681565b3480156104ad57600080fd5b506103226104bc366004613774565b61112d565b3480156104cd57600080fd5b506103226104dc3660046136dc565b61119a565b3480156104ed57600080fd5b506103226104fc366004613774565b611867565b34801561050d57600080fd5b5060115461036d906001600160a01b031681565b61032261052f3660046137f1565b6118d4565b34801561054057600080fd5b5061032261054f366004613774565b611b72565b34801561056057600080fd5b5061032261056f36600461383b565b611bdf565b34801561058057600080fd5b5061032261058f366004613860565b611ce6565b3480156105a057600080fd5b506103226105af366004613654565b6120a9565b3480156105c057600080fd5b506103226105cf36600461398d565b6122a0565b3480156105e057600080fd5b5061033a6105ef3660046139bb565b61254e565b34801561060057600080fd5b5061033a60015481565b34801561061657600080fd5b5060125461036d906001600160a01b031681565b34801561063657600080fd5b5061036d610645366004613774565b600e602052600090815260409020546001600160a01b031681565b34801561066c57600080fd5b5061036d61067b366004613774565b600d602052600090815260409020546001600160a01b031681565b3480156106a257600080fd5b5061033a60165481565b6103226106ba3660046139f2565b61268a565b3480156106cb57600080fd5b5061033a6106da366004613a62565b612f58565b3480156106eb57600080fd5b506103c56106fa366004613774565b60066020526000908152604090205460ff1681565b34801561071b57600080fd5b5061032261072a366004613747565b613059565b34801561073b57600080fd5b5061036d61074a366004613774565b6002602052600090815260409020546001600160a01b031681565b34801561077157600080fd5b5061036d6107803660046136dc565b6130af565b34801561079157600080fd5b5060095461036d906001600160a01b031681565b3480156107b157600080fd5b5061033a6107c0366004613a90565b6130bf565b3480156107d157600080fd5b5061033a6107e0366004613747565b6130f0565b3480156107f157600080fd5b5061033a610800366004613abc565b600060208181529281526040808220909352908152205481565b34801561082657600080fd5b506103c5610835366004613774565b60086020526000908152604090205460ff1681565b34801561085657600080fd5b50610322610865366004613a90565b613237565b34801561087657600080fd5b5060135461036d906001600160a01b031681565b34801561089657600080fd5b5061033a600b5481565b3480156108ac57600080fd5b506103226108bb366004613aea565b61331d565b3480156108cc57600080fd5b5061033a60155481565b3480156108e257600080fd5b506103226108f1366004613abc565b613373565b34801561090257600080fd5b5061036d6109113660046136dc565b6000908152600560205260409020546001600160a01b031690565b6012546001600160a01b0316331461097c5760405162461bcd60e51b815260206004820152600e60248201526d37b7363c903a34329037bbb732b960911b60448201526064015b60405180910390fd5b60005b8351811015610b2a57600084828151811061099c5761099c613b16565b60200260200101519050610a0a60038054806020026020016040519081016040528092919081815260200182805480156109ff57602002820191906000526020600020905b81546001600160a01b031681526001909101906020018083116109e1575b505050505082610cd7565b1515600003610a5f57600380546001810182556000919091527fc2575a0e9e593c00f959f8c92f12db2869c3395a3b0502d05e2516446f71f85b0180546001600160a01b0319166001600160a01b0383161790555b828281518110610a7157610a71613b16565b602002602001015160026000836001600160a01b03166001600160a01b0316815260200190815260200160002060006101000a8154816001600160a01b0302191690836001600160a01b03160217905550838281518110610ad457610ad4613b16565b6020908102919091018101516001600160a01b039283166000908152600e8352604080822080546001600160a01b0319169590931694909417909155600690915220805460ff191660019081179091550161097f565b50505050565b60078181548110610b4057600080fd5b6000918252602090912001546001600160a01b0316905081565b600081815260056020526040808220548151635d3e2fa160e01b815291516001600160a01b039091169183918391635d3e2fa19160048083019260c09291908290030181865afa158015610bb2573d6000803e3d6000fd5b505050506040513d601f19601f82011682018060405250810190610bd69190613b2c565b60808101516001600160a01b0390811660009081526002602052604080822054905163a52f38d160e01b815260048101899052939450909291169063a52f38d190602401602060405180830381865afa158015610c37573d6000803e3d6000fd5b505050506040513d601f19601f82011682018060405250810190610c5b9190613bc5565b604051632696439560e11b815260048101829052600060248201529091506001600160a01b03841690634d2c872a90604401602060405180830381865afa158015610caa573d6000803e3d6000fd5b505050506040513d601f19601f82011682018060405250810190610cce9190613bc5565b95945050505050565b600080805b8451811015610d2857836001600160a01b0316858281518110610d0157610d01613b16565b60200260200101516001600160a01b031603610d205760019150610d28565b600101610cdc565b5090505b92915050565b600082815260056020526040808220548151635d3e2fa160e01b815291516001600160a01b039091169183918391635d3e2fa19160048083019260c09291908290030181865afa158015610d8a573d6000803e3d6000fd5b505050506040513d601f19601f82011682018060405250810190610dae9190613b2c565b60808101516001600160a01b0390811660009081526002602052604080822054905163a52f38d160e01b8152600481018a9052939450909291169063a52f38d190602401602060405180830381865afa158015610e0f573d6000803e3d6000fd5b505050506040513d601f19601f82011682018060405250810190610e339190613bc5565b604051632696439560e11b815260048101829052602481018790529091506001600160a01b03841690634d2c872a906044015b602060405180830381865afa158015610e83573d6000803e3d6000fd5b505050506040513d601f19601f82011682018060405250810190610ea79190613bc5565b9695505050505050565b6012546001600160a01b03163314610efc5760405162461bcd60e51b815260206004820152600e60248201526d37b7363c903a34329037bbb732b960911b6044820152606401610973565b600980546001600160a01b0319166001600160a01b0392909216919091179055565b6012546001600160a01b03163314610f695760405162461bcd60e51b815260206004820152600e60248201526d37b7363c903a34329037bbb732b960911b6044820152606401610973565b801561104f57610fd36003805480602002602001604051908101604052809291908181526020018280548015610fc857602002820191906000526020600020905b81546001600160a01b03168152600190910190602001808311610faa575b505050505084610cd7565b15156001146110245760405162461bcd60e51b815260206004820152601460248201527f546f6b656e206973206e6f7420657869737465640000000000000000000000006044820152606401610973565b6001600160a01b0383166000908152600860205260409020805483151560ff19909116179055505050565b6110b16007805480602002602001604051908101604052809291908181526020018280548015610fc8576020028201919060005260206000209081546001600160a01b03168152600190910190602001808311610faa57505050505084610cd7565b15156001146111025760405162461bcd60e51b815260206004820152601460248201527f546f6b656e206973206e6f7420657869737465640000000000000000000000006044820152606401610973565b6001600160a01b0383166000908152600660205260409020805483151560ff19909116179055505050565b6012546001600160a01b031633146111785760405162461bcd60e51b815260206004820152600e60248201526d37b7363c903a34329037bbb732b960911b6044820152606401610973565b600f80546001600160a01b0319166001600160a01b0392909216919091179055565b600081815260056020526040808220548151635d3e2fa160e01b815291516001600160a01b0390911692918391635d3e2fa19160048082019260c0929091908290030181865afa1580156111f2573d6000803e3d6000fd5b505050506040513d601f19601f820116820180604052508101906112169190613b2c565b60808101516001600160a01b0390811660009081526002602052604080822054905163a52f38d160e01b815260048101889052939450909291169063a52f38d190602401602060405180830381865afa158015611277573d6000803e3d6000fd5b505050506040513d601f19601f8201168201806040525081019061129b9190613bc5565b9050826001600160a01b031663d296d1f1826015546016546017546112c09190613bf4565b6112ca9190613bf4565b6040516001600160e01b031960e085901b16815260048101929092526024820152604401600060405180830381600087803b15801561130857600080fd5b505af115801561131c573d6000803e3d6000fd5b5050505081608001516001600160a01b03166323b872dd84306103e86015546016546017546103e861134e9190613bf4565b6113589190613bf4565b6113629190613bf4565b61136c9087613c07565b6113769190613c1e565b6040516001600160e01b031960e086901b1681526001600160a01b03938416600482015292909116602483015260448201526064016020604051808303816000875af11580156113ca573d6000803e3d6000fd5b505050506040513d601f19601f820116820180604052508101906113ee9190613c40565b5060808201516001600160a01b039081166000818152600260205260409081902054905163095ea7b360e01b815292166004830152602482018390529063095ea7b3906044016020604051808303816000875af1158015611453573d6000803e3d6000fd5b505050506040513d601f19601f820116820180604052508101906114779190613c40565b5060808201516001600160a01b039081166000908152600260205260409081902054905163d8aed14560e01b8152600481018790526024810184905291169063d8aed14590604401600060405180830381600087803b1580156114d957600080fd5b505af11580156114ed573d6000803e3d6000fd5b5050505081608001516001600160a01b031663a9059cbb601160009054906101000a90046001600160a01b03166103e86015548561152b9190613c07565b6115359190613c1e565b6040516001600160e01b031960e085901b1681526001600160a01b03909216600483015260248201526044016020604051808303816000875af1158015611580573d6000803e3d6000fd5b505050506040513d601f19601f820116820180604052508101906115a49190613c40565b5060808201516010546016546001600160a01b039283169263a9059cbb9216906103e8906115d29086613c07565b6115dc9190613c1e565b6040516001600160e01b031960e085901b1681526001600160a01b03909216600483015260248201526044016020604051808303816000875af1158015611627573d6000803e3d6000fd5b505050506040513d601f19601f8201168201806040525081019061164b9190613c40565b5060006103e86016548361165f9190613c07565b6116699190613c1e565b6103e86015548461167a9190613c07565b6116849190613c1e565b836103e86015546016546017546103e861169e9190613bf4565b6116a89190613bf4565b6116b29190613bf4565b6116bc9087613c07565b6116c69190613c1e565b6116d09190613c5d565b6116da9190613c5d565b6116e49190613c5d565b60808401516001600160a01b039081166000818152600260205260409081902054905163095ea7b360e01b8152921660048301526024820183905291925063095ea7b3906044016020604051808303816000875af115801561174a573d6000803e3d6000fd5b505050506040513d601f19601f8201168201806040525081019061176e9190613c40565b5060808301516001600160a01b03908116600090815260026020526040908190205490517f5737910200000000000000000000000000000000000000000000000000000000815260048101849052911690635737910290602401600060405180830381600087803b1580156117e257600080fd5b505af11580156117f6573d6000803e3d6000fd5b50505060008681526005602052604080822054815163232fa73360e01b815291516001600160a01b03909116935063232fa7339260048084019391929182900301818387803b15801561184857600080fd5b505af115801561185c573d6000803e3d6000fd5b505050505050505050565b6012546001600160a01b031633146118b25760405162461bcd60e51b815260206004820152600e60248201526d37b7363c903a34329037bbb732b960911b6044820152606401610973565b600480546001600160a01b0319166001600160a01b0392909216919091179055565b6001600160a01b038216600090815260086020526040902054829060ff1615156001146119435760405162461bcd60e51b815260206004820152601f60248201527f436f6c6c61746572616c20746f6b656e206973206e6f742061637469766564006044820152606401610973565b8115611a0357348411156119995760405162461bcd60e51b815260206004820181905260248201527f646f206e6f74206861766520656e6f756768206465706f7369746564204554486044820152606401610973565b601360009054906101000a90046001600160a01b03166001600160a01b031663d0e30db0856040518263ffffffff1660e01b81526004016000604051808303818588803b1580156119e957600080fd5b505af11580156119fd573d6000803e3d6000fd5b50505050505b60008581526005602052604090819020549051633390ef1360e11b8152600481018690526001600160a01b03909116908190636721de2690602401600060405180830381600087803b158015611a5857600080fd5b505af1158015611a6c573d6000803e3d6000fd5b505050508215611aef5760405163a9059cbb60e01b81526001600160a01b0382811660048301526024820187905285169063a9059cbb906044016020604051808303816000875af1158015611ac5573d6000803e3d6000fd5b505050506040513d601f19601f82011682018060405250810190611ae99190613c40565b50611b6a565b6040516323b872dd60e01b81523360048201526001600160a01b038281166024830152604482018790528516906323b872dd906064016020604051808303816000875af1158015611b44573d6000803e3d6000fd5b505050506040513d601f19601f82011682018060405250810190611b689190613c40565b505b505050505050565b6012546001600160a01b03163314611bbd5760405162461bcd60e51b815260206004820152600e60248201526d37b7363c903a34329037bbb732b960911b6044820152606401610973565b601380546001600160a01b0319166001600160a01b0392909216919091179055565b600082815260056020526040808220548151635d3e2fa160e01b815291516001600160a01b0390911692918391635d3e2fa19160048082019260c0929091908290030181865afa158015611c37573d6000803e3d6000fd5b505050506040513d601f19601f82011682018060405250810190611c5b9190613b2c565b60208101516040517f102cb82e0000000000000000000000000000000000000000000000000000000081526001600160a01b039182166004820152851515602482015291925083169063102cb82e906044015b600060405180830381600087803b158015611cc857600080fd5b505af1158015611cdc573d6000803e3d6000fd5b5050505050505050565b7ff0c57e16840df040f15088dc2f81fe391c3923bec73e23a9662efc9c229c6a00805468010000000000000000810460ff16159067ffffffffffffffff16600081158015611d315750825b905060008267ffffffffffffffff166001148015611d4e5750303b155b905081158015611d5c575080155b15611d93576040517ff92ee8a900000000000000000000000000000000000000000000000000000000815260040160405180910390fd5b845467ffffffffffffffff191660011785558315611dc757845468ff00000000000000001916680100000000000000001785555b8e60039080519060200190611ddd929190613477565b506001805560005b600354811015611eea57600060038281548110611e0457611e04613b16565b6000918252602090912001548f516001600160a01b0390911691508f9083908110611e3157611e31613b16565b602002602001015160026000836001600160a01b03166001600160a01b0316815260200190815260200160002060006101000a8154816001600160a01b0302191690836001600160a01b031602179055508f8281518110611e9457611e94613b16565b6020908102919091018101516001600160a01b039283166000908152600e8352604080822080546001600160a01b0319169590931694909417909155600690915220805460ff1916600190811790915501611de5565b508b51611efe9060079060208f0190613477565b5060005b60075481101561200757600060078281548110611f2157611f21613b16565b6000918252602090912001548d516001600160a01b0390911691508d9083908110611f4e57611f4e613b16565b6020026020010151600d6000836001600160a01b03166001600160a01b0316815260200190815260200160002060006101000a8154816001600160a01b0302191690836001600160a01b031602179055508b8281518110611fb157611fb1613b16565b6020908102919091018101516001600160a01b039283166000908152600a8352604080822080546001600160a01b0319169590931694909417909155600890915220805460ff1916600190811790915501611f02565b50600980546001600160a01b03808c166001600160a01b0319928316179092556004805492891692821692909217909155600b899055600c8890556012805490911633179055831561209857845468ff000000000000000019168555604051600181527fc7f505b2f371ae2175ee4913f4499e1f2633a7b5936321eed1cdaeb6115181d29060200160405180910390a15b505050505050505050505050505050565b6012546001600160a01b031633146120f45760405162461bcd60e51b815260206004820152600e60248201526d37b7363c903a34329037bbb732b960911b6044820152606401610973565b60005b8351811015610b2a57600084828151811061211457612114613b16565b6020026020010151905061218060078054806020026020016040519081016040528092919081815260200182805480156109ff576020028201919060005260206000209081546001600160a01b031681526001909101906020018083116109e157505050505082610cd7565b15156000036121d557600780546001810182556000919091527fa66cc928b5edb82af9bd49922954155ab7b0942694bea4ce44661d9a8736c6880180546001600160a01b0319166001600160a01b0383161790555b8382815181106121e7576121e7613b16565b6020026020010151600d6000836001600160a01b03166001600160a01b0316815260200190815260200160002060006101000a8154816001600160a01b0302191690836001600160a01b0316021790555082828151811061224a5761224a613b16565b6020908102919091018101516001600160a01b039283166000908152600a8352604080822080546001600160a01b0319169590931694909417909155600890915220805460ff19166001908117909155016120f7565b6001600160a01b038116600090815260066020526040902054819060ff16151560011461230f5760405162461bcd60e51b815260206004820152601960248201527f506f6f6c20746f6b656e206973206e6f742061637469766564000000000000006044820152606401610973565b6040516323b872dd60e01b8152336004820152306024820152604481018490526001600160a01b038316906323b872dd906064016020604051808303816000875af1158015612362573d6000803e3d6000fd5b505050506040513d601f19601f820116820180604052508101906123869190613c40565b506001600160a01b038281166000818152600260205260409081902054905163095ea7b360e01b815292166004830152602482018590529063095ea7b3906044016020604051808303816000875af11580156123e6573d6000803e3d6000fd5b505050506040513d601f19601f8201168201806040525081019061240a9190613c40565b506001600160a01b038281166000908152600260205260409081902054905163d8aed14560e01b8152600481018790526024810186905291169063d8aed14590604401600060405180830381600087803b15801561246757600080fd5b505af115801561247b573d6000803e3d6000fd5b505050506001600160a01b038281166000908152600260205260409081902054905163a52f38d160e01b81526004810187905291169063a52f38d190602401602060405180830381865afa1580156124d7573d6000803e3d6000fd5b505050506040513d601f19601f820116820180604052508101906124fb9190613bc5565b600003610b2a5760008481526005602052604080822054815163232fa73360e01b815291516001600160a01b039091169263232fa733926004808201939182900301818387803b158015611cc857600080fd5b600061255b826000612f58565b612710846001600160a01b031663313ce5676040518163ffffffff1660e01b8152600401602060405180830381865afa15801561259c573d6000803e3d6000fd5b505050506040513d601f19601f820116820180604052508101906125c09190613c70565b6125cb90600a613d77565b6125d6866001612f58565b600b54866001600160a01b031663313ce5676040518163ffffffff1660e01b8152600401602060405180830381865afa158015612617573d6000803e3d6000fd5b505050506040513d601f19601f8201168201806040525081019061263b9190613c70565b61264690600a613d77565b612650908a613c07565b61265a9190613c07565b6126649190613c07565b61266e9190613c1e565b6126789190613c1e565b6126829190613c1e565b949350505050565b6001600160a01b038516600090815260066020526040902054859060ff1615156001146126f95760405162461bcd60e51b815260206004820152601960248201527f506f6f6c20746f6b656e206973206e6f742061637469766564000000000000006044820152606401610973565b6001600160a01b038416600090815260086020526040902054849060ff1615156001146127685760405162461bcd60e51b815260206004820152601f60248201527f436f6c6c61746572616c20746f6b656e206973206e6f742061637469766564006044820152606401610973565b821561282857348611156127be5760405162461bcd60e51b815260206004820181905260248201527f646f206e6f74206861766520656e6f756768206465706f7369746564204554486044820152606401610973565b601360009054906101000a90046001600160a01b03166001600160a01b031663d0e30db0876040518263ffffffff1660e01b81526004016000604051808303818588803b15801561280e57600080fd5b505af1158015612822573d6000803e3d6000fd5b50505050505b866001600160a01b031663313ce5676040518163ffffffff1660e01b8152600401602060405180830381865afa158015612866573d6000803e3d6000fd5b505050506040513d601f19601f8201168201806040525081019061288a9190613c70565b61289590600a613d77565b6128a0886001612f58565b6128aa908a613c07565b6128b690612710613c07565b6128c09190613c1e565b856001600160a01b031663313ce5676040518163ffffffff1660e01b8152600401602060405180830381865afa1580156128fe573d6000803e3d6000fd5b505050506040513d601f19601f820116820180604052508101906129229190613c70565b61292d90600a613d77565b600b5461293b886000612f58565b612945908a613c07565b61294f9190613c07565b6129599190613c1e565b10156129a75760405162461bcd60e51b815260206004820152601c60248201527f446f6e2774206861766520656e6f75676820636f6c6c61746572616c000000006044820152606401610973565b6001600160a01b038088166000908152600260209081526040918290205482517f3b24cc2100000000000000000000000000000000000000000000000000000000815292518c949190911692633b24cc219260048083019391928290030181865afa158015612a1a573d6000803e3d6000fd5b505050506040513d601f19601f82011682018060405250810190612a3e9190613bc5565b1015612a8c5760405162461bcd60e51b815260206004820152601b60248201527f506f6f6c20646f6e2774206861766520656e6f7567682066756e6400000000006044820152606401610973565b6040805160c081018252600081830181905260a08201819052336020808401828152606085018e815260015486526001600160a01b038e81166080880181905286526002909352938690205485519451915196517fd6bda0c000000000000000000000000000000000000000000000000000000000815260048101959095526024850191909152948116604484015292939092169063d6bda0c090606401600060405180830381600087803b158015612b4457600080fd5b505af1158015612b58573d6000803e3d6000fd5b5050506001600160a01b03808b166000908152600e602052604081205460045490831693508a92612b8991166133ec565b90506000819050806001600160a01b03166383f8964e8785600960009054906101000a90046001600160a01b0316600a6000896001600160a01b03166001600160a01b0316815260200190815260200160002060009054906101000a90046001600160a01b0316600b54600c54600d60008c6001600160a01b03166001600160a01b0316815260200190815260200160002060009054906101000a90046001600160a01b03168c600f60009054906101000a90046001600160a01b0316601160009054906101000a90046001600160a01b0316601360009054906101000a90046001600160a01b03166040518c63ffffffff1660e01b8152600401612c989b9a99989796959493929190613d86565b600060405180830381600087803b158015612cb257600080fd5b505af1158015612cc6573d6000803e3d6000fd5b50506040517f8ac1b7750000000000000000000000000000000000000000000000000000000081523060048201526001600160a01b0384169250638ac1b7759150602401600060405180830381600087803b158015612d2457600080fd5b505af1158015612d38573d6000803e3d6000fd5b5050604051633390ef1360e11b8152600481018f90526001600160a01b0384169250636721de269150602401600060405180830381600087803b158015612d7e57600080fd5b505af1158015612d92573d6000803e3d6000fd5b505050508815612e155760405163a9059cbb60e01b81526001600160a01b038381166004830152602482018e90528c169063a9059cbb906044016020604051808303816000875af1158015612deb573d6000803e3d6000fd5b505050506040513d601f19601f82011682018060405250810190612e0f9190613c40565b50612e90565b6040516323b872dd60e01b81523360048201526001600160a01b038381166024830152604482018e90528c16906323b872dd906064016020604051808303816000875af1158015612e6a573d6000803e3d6000fd5b505050506040513d601f19601f82011682018060405250810190612e8e9190613c40565b505b891515600103612eee57806001600160a01b03166307a6bf696040518163ffffffff1660e01b8152600401600060405180830381600087803b158015612ed557600080fd5b505af1158015612ee9573d6000803e3d6000fd5b505050505b60018054600090815260056020908152604080832080546001600160a01b0319166001600160a01b038716179055338352601482528220835481548086018355918452918320015581549190612f4383613e85565b91905055505050505050505050505050505050565b60008115158103612ff9576001600160a01b038084166000908152600d6020526040808220548151633fabe5a360e21b8152915192938493849384938493169163feaf968c9160048082019260a0929091908290030181865afa158015612fc3573d6000803e3d6000fd5b505050506040513d601f19601f82011682018060405250810190612fe79190613eb8565b50919850610d2c975050505050505050565b6001600160a01b038084166000908152600e6020526040808220548151633fabe5a360e21b8152915192938493849384938493169163feaf968c9160048082019260a0929091908290030181865afa158015612fc3573d6000803e3d6000fd5b6012546001600160a01b031633146130a45760405162461bcd60e51b815260206004820152600e60248201526d37b7363c903a34329037bbb732b960911b6044820152606401610973565b600b91909155600c55565b60038181548110610b4057600080fd5b601460205281600052604060002081815481106130db57600080fd5b90600052602060002001600091509150505481565b600082815260056020526040808220548151635d3e2fa160e01b815291516001600160a01b039091169183918391635d3e2fa19160048083019260c09291908290030181865afa158015613148573d6000803e3d6000fd5b505050506040513d601f19601f8201168201806040525081019061316c9190613b2c565b60808101516001600160a01b0390811660009081526002602052604080822054905163a52f38d160e01b8152600481018a9052939450909291169063a52f38d190602401602060405180830381865afa1580156131cd573d6000803e3d6000fd5b505050506040513d601f19601f820116820180604052508101906131f19190613bc5565b90506001600160a01b038316634d2c872a61320c8784613c5d565b6040516001600160e01b031960e084901b168152600481019190915260006024820152604401610e66565b600081815260056020526040808220548151635d3e2fa160e01b815291516001600160a01b0390911692918391635d3e2fa19160048082019260c0929091908290030181865afa15801561328f573d6000803e3d6000fd5b505050506040513d601f19601f820116820180604052508101906132b39190613b2c565b6001600160a01b03858116600090815260026020908152604091829020549084015191517fec7be39d00000000000000000000000000000000000000000000000000000000815291831660048301526024820187905292935091169063ec7be39d90604401611cae565b6012546001600160a01b031633146133685760405162461bcd60e51b815260206004820152600e60248201526d37b7363c903a34329037bbb732b960911b6044820152606401610973565b601755601655601555565b6012546001600160a01b031633146133be5760405162461bcd60e51b815260206004820152600e60248201526d37b7363c903a34329037bbb732b960911b6044820152606401610973565b601080546001600160a01b039384166001600160a01b03199182161790915560118054929093169116179055565b6000763d602d80600a3d3981f3363d3d373d3d3d363d730000008260601b60e81c176000526e5af43d82803e903d91602b57fd5bf38260781b17602052603760096000f090506001600160a01b038116613472576040517fc2f868f400000000000000000000000000000000000000000000000000000000815260040160405180910390fd5b919050565b8280548282559060005260206000209081019282156134cc579160200282015b828111156134cc57825182546001600160a01b0319166001600160a01b03909116178255602090920191600190910190613497565b506134d89291506134dc565b5090565b5b808211156134d857600081556001016134dd565b634e487b7160e01b600052604160045260246000fd5b604051601f8201601f1916810167ffffffffffffffff81118282101715613530576135306134f1565b604052919050565b600067ffffffffffffffff821115613552576135526134f1565b5060051b60200190565b6001600160a01b038116811461357157600080fd5b50565b600082601f83011261358557600080fd5b8135602061359a61359583613538565b613507565b8083825260208201915060208460051b8701019350868411156135bc57600080fd5b602086015b848110156135e15780356135d48161355c565b83529183019183016135c1565b509695505050505050565b600082601f8301126135fd57600080fd5b8135602061360d61359583613538565b8083825260208201915060208460051b87010193508684111561362f57600080fd5b602086015b848110156135e15780356136478161355c565b8352918301918301613634565b60008060006060848603121561366957600080fd5b833567ffffffffffffffff8082111561368157600080fd5b61368d87838801613574565b945060208601359150808211156136a357600080fd5b6136af878388016135ec565b935060408601359150808211156136c557600080fd5b506136d286828701613574565b9150509250925092565b6000602082840312156136ee57600080fd5b5035919050565b6000806040838503121561370857600080fd5b823567ffffffffffffffff81111561371f57600080fd5b61372b85828601613574565b925050602083013561373c8161355c565b809150509250929050565b6000806040838503121561375a57600080fd5b50508035926020909101359150565b80356134728161355c565b60006020828403121561378657600080fd5b81356137918161355c565b9392505050565b801515811461357157600080fd5b6000806000606084860312156137bb57600080fd5b83356137c68161355c565b925060208401356137d681613798565b915060408401356137e681613798565b809150509250925092565b6000806000806080858703121561380757600080fd5b843593506020850135925060408501356138208161355c565b9150606085013561383081613798565b939692955090935050565b6000806040838503121561384e57600080fd5b82359150602083013561373c81613798565b6000806000806000806000806000806101408b8d03121561388057600080fd5b8a3567ffffffffffffffff8082111561389857600080fd5b6138a48e838f01613574565b9b5060208d01359150808211156138ba57600080fd5b6138c68e838f016135ec565b9a5060408d01359150808211156138dc57600080fd5b6138e88e838f01613574565b995060608d01359150808211156138fe57600080fd5b61390a8e838f01613574565b985060808d013591508082111561392057600080fd5b61392c8e838f016135ec565b975060a08d013591508082111561394257600080fd5b5061394f8d828e01613574565b95505061395e60c08c01613769565b935060e08b013592506101008b0135915061397c6101208c01613769565b90509295989b9194979a5092959850565b6000806000606084860312156139a257600080fd5b833592506020840135915060408401356137e68161355c565b6000806000606084860312156139d057600080fd5b8335925060208401356139e28161355c565b915060408401356137e68161355c565b60008060008060008060c08789031215613a0b57600080fd5b863595506020870135613a1d8161355c565b9450604087013593506060870135613a348161355c565b92506080870135613a4481613798565b915060a0870135613a5481613798565b809150509295509295509295565b60008060408385031215613a7557600080fd5b8235613a808161355c565b9150602083013561373c81613798565b60008060408385031215613aa357600080fd5b8235613aae8161355c565b946020939093013593505050565b60008060408385031215613acf57600080fd5b8235613ada8161355c565b9150602083013561373c8161355c565b600080600060608486031215613aff57600080fd5b505081359360208301359350604090920135919050565b634e487b7160e01b600052603260045260246000fd5b600060c08284031215613b3e57600080fd5b60405160c0810181811067ffffffffffffffff82111715613b6157613b616134f1565b604052825181526020830151613b768161355c565b60208201526040830151613b8981613798565b6040820152606083810151908201526080830151613ba68161355c565b608082015260a0830151613bb981613798565b60a08201529392505050565b600060208284031215613bd757600080fd5b5051919050565b634e487b7160e01b600052601160045260246000fd5b80820180821115610d2c57610d2c613bde565b8082028115828204841417610d2c57610d2c613bde565b600082613c3b57634e487b7160e01b600052601260045260246000fd5b500490565b600060208284031215613c5257600080fd5b815161379181613798565b81810381811115610d2c57610d2c613bde565b600060208284031215613c8257600080fd5b815160ff8116811461379157600080fd5b600181815b80851115613cce578160001904821115613cb457613cb4613bde565b80851615613cc157918102915b93841c9390800290613c98565b509250929050565b600082613ce557506001610d2c565b81613cf257506000610d2c565b8160018114613d085760028114613d1257613d2e565b6001915050610d2c565b60ff841115613d2357613d23613bde565b50506001821b610d2c565b5060208310610133831016604e8410600b8410161715613d51575081810a610d2c565b613d5b8383613c93565b8060001904821115613d6f57613d6f613bde565b029392505050565b600061379160ff841683613cd6565b6000610200820190508c51825260208d01516001600160a01b03811660208401525060408d01511515604083015260608d015160608301526001600160a01b0360808e015116608083015260a08d0151151560a0830152613df260c083018d6001600160a01b03169052565b6001600160a01b038b1660e08301526001600160a01b038a166101008301528861012083015287610140830152613e356101608301886001600160a01b03169052565b6001600160a01b0386166101808301526001600160a01b0385166101a08301526001600160a01b0384166101c08301526001600160a01b0383166101e08301529c9b505050505050505050505050565b600060018201613e9757613e97613bde565b5060010190565b805169ffffffffffffffffffff8116811461347257600080fd5b600080600080600060a08688031215613ed057600080fd5b613ed986613e9e565b9450602086015193506040860151925060608601519150613efc60808701613e9e565b9050929550929590935056fea26469706673582212209c1eea1a5a5f8b8cb7c214ffd0d86bb134ae3eb8acdafef15de6c63c0347b16f64736f6c63430008180033",
  "linkReferences": {},
  "deployedLinkReferences": {}
}