{
  "_format": "hh-sol-artifact-1",
  "contractName": "CCFL",
  "sourceName": "contracts/CCFL.sol",
  "abi": [
    {
      "inputs": [],
      "name": "ERC1167FailedCreateClone",
      "type": "error"
    },
    {
      "inputs": [],
      "name": "InvalidInitialization",
      "type": "error"
    },
    {
      "inputs": [],
      "name": "NotInitializing",
      "type": "error"
    },
    {
      "anonymous": false,
      "inputs": [
        {
          "indexed": false,
          "internalType": "uint64",
          "name": "version",
          "type": "uint64"
        }
      ],
      "name": "Initialized",
      "type": "event"
    },
    {
      "anonymous": false,
      "inputs": [
        {
          "indexed": true,
          "internalType": "address",
          "name": "onBehalfOf",
          "type": "address"
        },
        {
          "indexed": true,
          "internalType": "address",
          "name": "_token",
          "type": "address"
        },
        {
          "indexed": true,
          "internalType": "uint256",
          "name": "_amount",
          "type": "uint256"
        }
      ],
      "name": "LiquiditySupplied",
      "type": "event"
    },
    {
      "anonymous": false,
      "inputs": [
        {
          "indexed": true,
          "internalType": "address",
          "name": "to",
          "type": "address"
        },
        {
          "indexed": true,
          "internalType": "address",
          "name": "_token",
          "type": "address"
        },
        {
          "indexed": true,
          "internalType": "uint256",
          "name": "_amount",
          "type": "uint256"
        }
      ],
      "name": "LiquidityWithdrawn",
      "type": "event"
    },
    {
      "anonymous": false,
      "inputs": [
        {
          "indexed": false,
          "internalType": "address",
          "name": "borrower",
          "type": "address"
        },
        {
          "indexed": false,
          "internalType": "uint256",
          "name": "amount",
          "type": "uint256"
        },
        {
          "indexed": false,
          "internalType": "uint256",
          "name": "when",
          "type": "uint256"
        }
      ],
      "name": "Withdraw",
      "type": "event"
    },
    {
      "inputs": [
        {
          "internalType": "contract IERC20Standard",
          "name": "",
          "type": "address"
        }
      ],
      "name": "aTokens",
      "outputs": [
        {
          "internalType": "contract IERC20Standard",
          "name": "",
          "type": "address"
        }
      ],
      "stateMutability": "view",
      "type": "function"
    },
    {
      "inputs": [],
      "name": "aaveAddressProvider",
      "outputs": [
        {
          "internalType": "contract IPoolAddressesProvider",
          "name": "",
          "type": "address"
        }
      ],
      "stateMutability": "view",
      "type": "function"
    },
    {
      "inputs": [
        {
          "internalType": "uint256",
          "name": "_loanId",
          "type": "uint256"
        },
        {
          "internalType": "uint256",
          "name": "_amountCollateral",
          "type": "uint256"
        },
        {
          "internalType": "contract IERC20Standard",
          "name": "_collateral",
          "type": "address"
        },
        {
          "internalType": "bool",
          "name": "_isETH",
          "type": "bool"
        }
      ],
      "name": "addCollateral",
      "outputs": [],
      "stateMutability": "payable",
      "type": "function"
    },
    {
      "inputs": [
        {
          "internalType": "contract IERC20Standard",
          "name": "",
          "type": "address"
        }
      ],
      "name": "ccflActiveCollaterals",
      "outputs": [
        {
          "internalType": "bool",
          "name": "",
          "type": "bool"
        }
      ],
      "stateMutability": "view",
      "type": "function"
    },
    {
      "inputs": [
        {
          "internalType": "contract IERC20Standard",
          "name": "",
          "type": "address"
        }
      ],
      "name": "ccflActivePoolStableCoins",
      "outputs": [
        {
          "internalType": "bool",
          "name": "",
          "type": "bool"
        }
      ],
      "stateMutability": "view",
      "type": "function"
    },
    {
      "inputs": [
        {
          "internalType": "uint256",
          "name": "",
          "type": "uint256"
        }
      ],
      "name": "ccflPoolStableCoins",
      "outputs": [
        {
          "internalType": "contract IERC20Standard",
          "name": "",
          "type": "address"
        }
      ],
      "stateMutability": "view",
      "type": "function"
    },
    {
      "inputs": [
        {
          "internalType": "contract IERC20Standard",
          "name": "",
          "type": "address"
        }
      ],
      "name": "ccflPools",
      "outputs": [
        {
          "internalType": "contract ICCFLPool",
          "name": "",
          "type": "address"
        }
      ],
      "stateMutability": "view",
      "type": "function"
    },
    {
      "inputs": [
        {
          "internalType": "contract IERC20Standard[]",
          "name": "array",
          "type": "address[]"
        },
        {
          "internalType": "contract IERC20Standard",
          "name": "el",
          "type": "address"
        }
      ],
      "name": "checkExistElement",
      "outputs": [
        {
          "internalType": "bool",
          "name": "",
          "type": "bool"
        }
      ],
      "stateMutability": "pure",
      "type": "function"
    },
    {
      "inputs": [
        {
          "internalType": "uint256",
          "name": "",
          "type": "uint256"
        }
      ],
      "name": "collateralTokens",
      "outputs": [
        {
          "internalType": "contract IERC20Standard",
          "name": "",
          "type": "address"
        }
      ],
      "stateMutability": "view",
      "type": "function"
    },
    {
      "inputs": [
        {
          "internalType": "address",
          "name": "",
          "type": "address"
        },
        {
          "internalType": "contract IERC20Standard",
          "name": "",
          "type": "address"
        }
      ],
      "name": "collaterals",
      "outputs": [
        {
          "internalType": "uint256",
          "name": "",
          "type": "uint256"
        }
      ],
      "stateMutability": "view",
      "type": "function"
    },
    {
      "inputs": [
        {
          "internalType": "uint256",
          "name": "_amount",
          "type": "uint256"
        },
        {
          "internalType": "contract IERC20Standard",
          "name": "_stableCoin",
          "type": "address"
        },
        {
          "internalType": "uint256",
          "name": "_amountCollateral",
          "type": "uint256"
        },
        {
          "internalType": "contract IERC20Standard",
          "name": "_collateral",
          "type": "address"
        },
        {
          "internalType": "bool",
          "name": "_isYieldGenerating",
          "type": "bool"
        },
        {
          "internalType": "bool",
          "name": "_isETH",
          "type": "bool"
        }
      ],
      "name": "createLoan",
      "outputs": [],
      "stateMutability": "payable",
      "type": "function"
    },
    {
      "inputs": [
        {
          "internalType": "uint256",
          "name": "_loanId",
          "type": "uint256"
        }
      ],
      "name": "getHealthFactor",
      "outputs": [
        {
          "internalType": "uint256",
          "name": "",
          "type": "uint256"
        }
      ],
      "stateMutability": "view",
      "type": "function"
    },
    {
      "inputs": [
        {
          "internalType": "contract IERC20Standard",
          "name": "_stableCoin",
          "type": "address"
        },
        {
          "internalType": "bool",
          "name": "isPool",
          "type": "bool"
        }
      ],
      "name": "getLatestPrice",
      "outputs": [
        {
          "internalType": "uint256",
          "name": "",
          "type": "uint256"
        }
      ],
      "stateMutability": "view",
      "type": "function"
    },
    {
      "inputs": [
        {
          "internalType": "uint256",
          "name": "_loanId",
          "type": "uint256"
        }
      ],
      "name": "getLoanAddress",
      "outputs": [
        {
          "internalType": "address",
          "name": "",
          "type": "address"
        }
      ],
      "stateMutability": "view",
      "type": "function"
    },
    {
      "inputs": [
        {
          "internalType": "uint256",
          "name": "_amount",
          "type": "uint256"
        },
        {
          "internalType": "contract IERC20Standard",
          "name": "_stableCoin",
          "type": "address"
        },
        {
          "internalType": "contract IERC20Standard",
          "name": "_collateral",
          "type": "address"
        }
      ],
      "name": "getMinimalCollateral",
      "outputs": [
        {
          "internalType": "uint256",
          "name": "",
          "type": "uint256"
        }
      ],
      "stateMutability": "view",
      "type": "function"
    },
    {
      "inputs": [
        {
          "internalType": "contract IERC20Standard[]",
          "name": "_ccflPoolStableCoin",
          "type": "address[]"
        },
        {
          "internalType": "contract AggregatorV3Interface[]",
          "name": "_poolAggregators",
          "type": "address[]"
        },
        {
          "internalType": "contract ICCFLPool[]",
          "name": "_ccflPools",
          "type": "address[]"
        },
        {
          "internalType": "contract IERC20Standard[]",
          "name": "_collateralTokens",
          "type": "address[]"
        },
        {
          "internalType": "contract AggregatorV3Interface[]",
          "name": "_collateralAggregators",
          "type": "address[]"
        },
        {
          "internalType": "contract IERC20Standard[]",
          "name": "_aTokens",
          "type": "address[]"
        },
        {
          "internalType": "contract IPoolAddressesProvider",
          "name": "_aaveAddressProvider",
          "type": "address"
        },
        {
          "internalType": "uint256",
          "name": "_maxLTV",
          "type": "uint256"
        },
        {
          "internalType": "uint256",
          "name": "_liquidationThreshold",
          "type": "uint256"
        },
        {
          "internalType": "contract ICCFLLoan",
          "name": "_ccflLoan",
          "type": "address"
        }
      ],
      "name": "initialize",
      "outputs": [],
      "stateMutability": "nonpayable",
      "type": "function"
    },
    {
      "inputs": [
        {
          "internalType": "uint256",
          "name": "_loanId",
          "type": "uint256"
        }
      ],
      "name": "liquidate",
      "outputs": [],
      "stateMutability": "nonpayable",
      "type": "function"
    },
    {
      "inputs": [],
      "name": "liquidationThreshold",
      "outputs": [
        {
          "internalType": "uint256",
          "name": "",
          "type": "uint256"
        }
      ],
      "stateMutability": "view",
      "type": "function"
    },
    {
      "inputs": [],
      "name": "liquidator",
      "outputs": [
        {
          "internalType": "address",
          "name": "",
          "type": "address"
        }
      ],
      "stateMutability": "view",
      "type": "function"
    },
    {
      "inputs": [],
      "name": "loandIds",
      "outputs": [
        {
          "internalType": "uint256",
          "name": "",
          "type": "uint256"
        }
      ],
      "stateMutability": "view",
      "type": "function"
    },
    {
      "inputs": [],
      "name": "maxLTV",
      "outputs": [
        {
          "internalType": "uint256",
          "name": "",
          "type": "uint256"
        }
      ],
      "stateMutability": "view",
      "type": "function"
    },
    {
      "inputs": [],
      "name": "owner",
      "outputs": [
        {
          "internalType": "address",
          "name": "",
          "type": "address"
        }
      ],
      "stateMutability": "view",
      "type": "function"
    },
    {
      "inputs": [],
      "name": "penaltyLender",
      "outputs": [
        {
          "internalType": "uint256",
          "name": "",
          "type": "uint256"
        }
      ],
      "stateMutability": "view",
      "type": "function"
    },
    {
      "inputs": [],
      "name": "penaltyLiquidator",
      "outputs": [
        {
          "internalType": "uint256",
          "name": "",
          "type": "uint256"
        }
      ],
      "stateMutability": "view",
      "type": "function"
    },
    {
      "inputs": [],
      "name": "penaltyPlatform",
      "outputs": [
        {
          "internalType": "uint256",
          "name": "",
          "type": "uint256"
        }
      ],
      "stateMutability": "view",
      "type": "function"
    },
    {
      "inputs": [],
      "name": "platform",
      "outputs": [
        {
          "internalType": "address",
          "name": "",
          "type": "address"
        }
      ],
      "stateMutability": "view",
      "type": "function"
    },
    {
      "inputs": [
        {
          "internalType": "contract IERC20Standard",
          "name": "",
          "type": "address"
        }
      ],
      "name": "priceFeeds",
      "outputs": [
        {
          "internalType": "contract AggregatorV3Interface",
          "name": "",
          "type": "address"
        }
      ],
      "stateMutability": "view",
      "type": "function"
    },
    {
      "inputs": [
        {
          "internalType": "contract IERC20Standard",
          "name": "",
          "type": "address"
        }
      ],
      "name": "pricePoolFeeds",
      "outputs": [
        {
          "internalType": "contract AggregatorV3Interface",
          "name": "",
          "type": "address"
        }
      ],
      "stateMutability": "view",
      "type": "function"
    },
    {
      "inputs": [
        {
          "internalType": "uint256",
          "name": "_loanId",
          "type": "uint256"
        },
        {
          "internalType": "uint256",
          "name": "_amount",
          "type": "uint256"
        },
        {
          "internalType": "contract IERC20Standard",
          "name": "_stableCoin",
          "type": "address"
        }
      ],
      "name": "repayLoan",
      "outputs": [],
      "stateMutability": "nonpayable",
      "type": "function"
    },
    {
      "inputs": [
        {
          "internalType": "contract IPoolAddressesProvider",
          "name": "_aaveAddressProvider",
          "type": "address"
        }
      ],
      "name": "setAaveProvider",
      "outputs": [],
      "stateMutability": "nonpayable",
      "type": "function"
    },
    {
      "inputs": [
        {
          "internalType": "contract IERC20Standard",
          "name": "_token",
          "type": "address"
        },
        {
          "internalType": "bool",
          "name": "_isActived",
          "type": "bool"
        },
        {
          "internalType": "bool",
          "name": "_isPoolToken",
          "type": "bool"
        }
      ],
      "name": "setActiveToken",
      "outputs": [],
      "stateMutability": "nonpayable",
      "type": "function"
    },
    {
      "inputs": [
        {
          "internalType": "contract ICCFLLoan",
          "name": "_loan",
          "type": "address"
        }
      ],
      "name": "setCCFLLoan",
      "outputs": [],
      "stateMutability": "nonpayable",
      "type": "function"
    },
    {
      "inputs": [
        {
          "internalType": "contract IERC20Standard[]",
          "name": "_collateralTokens",
          "type": "address[]"
        },
        {
          "internalType": "contract AggregatorV3Interface[]",
          "name": "_collateralAggregators",
          "type": "address[]"
        },
        {
          "internalType": "contract IERC20Standard[]",
          "name": "_aTokens",
          "type": "address[]"
        }
      ],
      "name": "setCollaterals",
      "outputs": [],
      "stateMutability": "nonpayable",
      "type": "function"
    },
    {
      "inputs": [
        {
          "internalType": "uint256",
          "name": "_platform",
          "type": "uint256"
        },
        {
          "internalType": "uint256",
          "name": "_liquidator",
          "type": "uint256"
        },
        {
          "internalType": "uint256",
          "name": "_lender",
          "type": "uint256"
        }
      ],
      "name": "setPenalty",
      "outputs": [],
      "stateMutability": "nonpayable",
      "type": "function"
    },
    {
      "inputs": [
        {
          "internalType": "address",
          "name": "_liquidator",
          "type": "address"
        },
        {
          "internalType": "address",
          "name": "_platform",
          "type": "address"
        }
      ],
      "name": "setPlatformAddress",
      "outputs": [],
      "stateMutability": "nonpayable",
      "type": "function"
    },
    {
      "inputs": [
        {
          "internalType": "contract IERC20Standard[]",
          "name": "_ccflPoolStableCoin",
          "type": "address[]"
        },
        {
          "internalType": "contract AggregatorV3Interface[]",
          "name": "_poolAggregators",
          "type": "address[]"
        },
        {
          "internalType": "contract ICCFLPool[]",
          "name": "_ccflPools",
          "type": "address[]"
        }
      ],
      "name": "setPools",
      "outputs": [],
      "stateMutability": "nonpayable",
      "type": "function"
    },
    {
      "inputs": [
        {
          "internalType": "contract ISwapRouter",
          "name": "_swapRouter",
          "type": "address"
        }
      ],
      "name": "setSwapRouter",
      "outputs": [],
      "stateMutability": "nonpayable",
      "type": "function"
    },
    {
      "inputs": [
        {
          "internalType": "uint256",
          "name": "_maxLTV",
          "type": "uint256"
        },
        {
          "internalType": "uint256",
          "name": "_liquidationThreshold",
          "type": "uint256"
        }
      ],
      "name": "setThreshold",
      "outputs": [],
      "stateMutability": "nonpayable",
      "type": "function"
    },
    {
      "inputs": [
        {
          "internalType": "contract IWETH",
          "name": "_iWETH",
          "type": "address"
        }
      ],
      "name": "setWETH",
      "outputs": [],
      "stateMutability": "nonpayable",
      "type": "function"
    },
    {
      "inputs": [],
      "name": "wETH",
      "outputs": [
        {
          "internalType": "contract IWETH",
          "name": "",
          "type": "address"
        }
      ],
      "stateMutability": "view",
      "type": "function"
    },
    {
      "inputs": [
        {
          "internalType": "uint256",
          "name": "_loanId",
          "type": "uint256"
        },
        {
          "internalType": "bool",
          "name": "isETH",
          "type": "bool"
        }
      ],
      "name": "withdrawAllCollateral",
      "outputs": [],
      "stateMutability": "nonpayable",
      "type": "function"
    },
    {
      "inputs": [
        {
          "internalType": "contract IERC20Standard",
          "name": "_stableCoin",
          "type": "address"
        },
        {
          "internalType": "uint256",
          "name": "_loanId",
          "type": "uint256"
        }
      ],
      "name": "withdrawLoan",
      "outputs": [],
      "stateMutability": "nonpayable",
      "type": "function"
    },
    {
      "stateMutability": "payable",
      "type": "receive"
    }
  ],
  "bytecode": "0x608060405234801561001057600080fd5b50613bbb806100206000396000f3fe6080604052600436106102d55760003560e01c80638ba02e1c11610179578063c694fdc1116100d6578063f24286211161008a578063f6597bbb11610064578063f6597bbb1461083f578063f8f126ff14610855578063fdb2b32c1461087557600080fd5b8063f2428621146107e9578063f384bd0514610809578063f3cf4ada1461081f57600080fd5b8063e51e119e116100bb578063e51e119e14610764578063e787ea2c14610799578063ec7be39d146107c957600080fd5b8063c694fdc114610724578063cdaabe411461074457600080fd5b8063a8700c3c1161012d578063b92dd92511610112578063b92dd9251461069e578063b9c36209146106ce578063c0d01546146106ee57600080fd5b8063a8700c3c1461066b578063b3bffeaa1461067e57600080fd5b8063989397d41161015e578063989397d4146105e95780639dcb511a1461061f578063a58bab621461065557600080fd5b80638ba02e1c146105b35780638da5cb5b146105c957600080fd5b806341273657116102325780635b769f3c116101e657806364b52097116101c057806364b52097146105535780636eb0fdd014610573578063756078151461059357600080fd5b80635b769f3c146104f35780635c8edac414610513578063611f347d1461053357600080fd5b8063474843ea11610217578063474843ea146104a05780634bde38c8146104c05780634dd7bd3f146104e057600080fd5b80634127365714610460578063415f12401461048057600080fd5b806338ef6717116102895780633e108ad91161026e5780633e108ad9146103f45780634031234c1461042a5780634046ebae1461044057600080fd5b806338ef6717146103b45780633a2ad9ae146103d457600080fd5b8063172c48c7116102ba578063172c48c71461032c57806317845c69146103645780631d9eb5d91461038457600080fd5b80630769594d146102e1578063101b9d311461030357600080fd5b366102dc57005b600080fd5b3480156102ed57600080fd5b506103016102fc3660046132d1565b6108ab565b005b34801561030f57600080fd5b5061031960165481565b6040519081526020015b60405180910390f35b34801561033857600080fd5b5061034c610347366004613359565b610aaf565b6040516001600160a01b039091168152602001610323565b34801561037057600080fd5b5061031961037f366004613359565b610ad9565b34801561039057600080fd5b506103a461039f366004613372565b610c68565b6040519015158152602001610323565b3480156103c057600080fd5b506103016103cf3660046133cf565b610cc3565b3480156103e057600080fd5b506103016103ef366004613401565b610d30565b34801561040057600080fd5b5061034c61040f3660046133cf565b600a602052600090815260409020546001600160a01b031681565b34801561043657600080fd5b50610319600c5481565b34801561044c57600080fd5b5060105461034c906001600160a01b031681565b34801561046c57600080fd5b5061030161047b3660046133cf565b610f3f565b34801561048c57600080fd5b5061030161049b366004613359565b610fac565b3480156104ac57600080fd5b506103016104bb3660046133cf565b611679565b3480156104cc57600080fd5b5060115461034c906001600160a01b031681565b6103016104ee36600461344c565b6116e6565b3480156104ff57600080fd5b5061030161050e3660046133cf565b611984565b34801561051f57600080fd5b5061030161052e366004613496565b6119f1565b34801561053f57600080fd5b5061030161054e3660046134bb565b611af8565b34801561055f57600080fd5b5061030161056e3660046132d1565b611ebb565b34801561057f57600080fd5b5061030161058e3660046135e8565b6120b2565b34801561059f57600080fd5b506103196105ae366004613616565b612360565b3480156105bf57600080fd5b5061031960015481565b3480156105d557600080fd5b5060125461034c906001600160a01b031681565b3480156105f557600080fd5b5061034c6106043660046133cf565b600e602052600090815260409020546001600160a01b031681565b34801561062b57600080fd5b5061034c61063a3660046133cf565b600d602052600090815260409020546001600160a01b031681565b34801561066157600080fd5b5061031960155481565b61030161067936600461364d565b61249c565b34801561068a57600080fd5b506103196106993660046136bd565b612d4d565b3480156106aa57600080fd5b506103a46106b93660046133cf565b60066020526000908152604090205460ff1681565b3480156106da57600080fd5b506103016106e93660046136eb565b612e4e565b3480156106fa57600080fd5b5061034c6107093660046133cf565b6002602052600090815260409020546001600160a01b031681565b34801561073057600080fd5b5061034c61073f366004613359565b612ea4565b34801561075057600080fd5b5060095461034c906001600160a01b031681565b34801561077057600080fd5b5061031961077f36600461370d565b600060208181529281526040808220909352908152205481565b3480156107a557600080fd5b506103a46107b43660046133cf565b60086020526000908152604090205460ff1681565b3480156107d557600080fd5b506103016107e436600461373b565b612eb4565b3480156107f557600080fd5b5060135461034c906001600160a01b031681565b34801561081557600080fd5b50610319600b5481565b34801561082b57600080fd5b5061030161083a366004613767565b612f9a565b34801561084b57600080fd5b5061031960145481565b34801561086157600080fd5b5061030161087036600461370d565b612ff0565b34801561088157600080fd5b5061034c610890366004613359565b6000908152600560205260409020546001600160a01b031690565b6012546001600160a01b031633146108fb5760405162461bcd60e51b815260206004820152600e60248201526d37b7363c903a34329037bbb732b960911b60448201526064015b60405180910390fd5b60005b8351811015610aa957600084828151811061091b5761091b613793565b60200260200101519050610989600380548060200260200160405190810160405280929190818152602001828054801561097e57602002820191906000526020600020905b81546001600160a01b03168152600190910190602001808311610960575b505050505082610c68565b15156000036109de57600380546001810182556000919091527fc2575a0e9e593c00f959f8c92f12db2869c3395a3b0502d05e2516446f71f85b0180546001600160a01b0319166001600160a01b0383161790555b8282815181106109f0576109f0613793565b602002602001015160026000836001600160a01b03166001600160a01b0316815260200190815260200160002060006101000a8154816001600160a01b0302191690836001600160a01b03160217905550838281518110610a5357610a53613793565b6020908102919091018101516001600160a01b039283166000908152600e8352604080822080546001600160a01b0319169590931694909417909155600690915220805460ff19166001908117909155016108fe565b50505050565b60078181548110610abf57600080fd5b6000918252602090912001546001600160a01b0316905081565b600081815260056020526040808220548151635d3e2fa160e01b815291516001600160a01b039091169183918391635d3e2fa19160048083019260c09291908290030181865afa158015610b31573d6000803e3d6000fd5b505050506040513d601f19601f82011682018060405250810190610b5591906137a9565b60808101516001600160a01b0390811660009081526002602052604080822054905163a52f38d160e01b815260048101899052939450909291169063a52f38d190602401602060405180830381865afa158015610bb6573d6000803e3d6000fd5b505050506040513d601f19601f82011682018060405250810190610bda9190613842565b6040517f17845c69000000000000000000000000000000000000000000000000000000008152600481018290529091506001600160a01b038416906317845c6990602401602060405180830381865afa158015610c3b573d6000803e3d6000fd5b505050506040513d601f19601f82011682018060405250810190610c5f9190613842565b95945050505050565b600080805b8451811015610cb957836001600160a01b0316858281518110610c9257610c92613793565b60200260200101516001600160a01b031603610cb15760019150610cb9565b600101610c6d565b5090505b92915050565b6012546001600160a01b03163314610d0e5760405162461bcd60e51b815260206004820152600e60248201526d37b7363c903a34329037bbb732b960911b60448201526064016108f2565b600980546001600160a01b0319166001600160a01b0392909216919091179055565b6012546001600160a01b03163314610d7b5760405162461bcd60e51b815260206004820152600e60248201526d37b7363c903a34329037bbb732b960911b60448201526064016108f2565b8015610e6157610de56003805480602002602001604051908101604052809291908181526020018280548015610dda57602002820191906000526020600020905b81546001600160a01b03168152600190910190602001808311610dbc575b505050505084610c68565b1515600114610e365760405162461bcd60e51b815260206004820152601460248201527f546f6b656e206973206e6f74206578697374656400000000000000000000000060448201526064016108f2565b6001600160a01b0383166000908152600860205260409020805483151560ff19909116179055505050565b610ec36007805480602002602001604051908101604052809291908181526020018280548015610dda576020028201919060005260206000209081546001600160a01b03168152600190910190602001808311610dbc57505050505084610c68565b1515600114610f145760405162461bcd60e51b815260206004820152601460248201527f546f6b656e206973206e6f74206578697374656400000000000000000000000060448201526064016108f2565b6001600160a01b0383166000908152600660205260409020805483151560ff19909116179055505050565b6012546001600160a01b03163314610f8a5760405162461bcd60e51b815260206004820152600e60248201526d37b7363c903a34329037bbb732b960911b60448201526064016108f2565b600f80546001600160a01b0319166001600160a01b0392909216919091179055565b600081815260056020526040808220548151635d3e2fa160e01b815291516001600160a01b0390911692918391635d3e2fa19160048082019260c0929091908290030181865afa158015611004573d6000803e3d6000fd5b505050506040513d601f19601f8201168201806040525081019061102891906137a9565b60808101516001600160a01b0390811660009081526002602052604080822054905163a52f38d160e01b815260048101889052939450909291169063a52f38d190602401602060405180830381865afa158015611089573d6000803e3d6000fd5b505050506040513d601f19601f820116820180604052508101906110ad9190613842565b9050826001600160a01b031663d296d1f1826014546015546016546110d29190613871565b6110dc9190613871565b6040516001600160e01b031960e085901b16815260048101929092526024820152604401600060405180830381600087803b15801561111a57600080fd5b505af115801561112e573d6000803e3d6000fd5b5050505081608001516001600160a01b03166323b872dd84306103e86014546015546016546103e86111609190613871565b61116a9190613871565b6111749190613871565b61117e9087613884565b611188919061389b565b6040516001600160e01b031960e086901b1681526001600160a01b03938416600482015292909116602483015260448201526064016020604051808303816000875af11580156111dc573d6000803e3d6000fd5b505050506040513d601f19601f8201168201806040525081019061120091906138bd565b5060808201516001600160a01b039081166000818152600260205260409081902054905163095ea7b360e01b815292166004830152602482018390529063095ea7b3906044016020604051808303816000875af1158015611265573d6000803e3d6000fd5b505050506040513d601f19601f8201168201806040525081019061128991906138bd565b5060808201516001600160a01b039081166000908152600260205260409081902054905163d8aed14560e01b8152600481018790526024810184905291169063d8aed14590604401600060405180830381600087803b1580156112eb57600080fd5b505af11580156112ff573d6000803e3d6000fd5b5050505081608001516001600160a01b031663a9059cbb601160009054906101000a90046001600160a01b03166103e86014548561133d9190613884565b611347919061389b565b6040516001600160e01b031960e085901b1681526001600160a01b03909216600483015260248201526044016020604051808303816000875af1158015611392573d6000803e3d6000fd5b505050506040513d601f19601f820116820180604052508101906113b691906138bd565b5060808201516010546015546001600160a01b039283169263a9059cbb9216906103e8906113e49086613884565b6113ee919061389b565b6040516001600160e01b031960e085901b1681526001600160a01b03909216600483015260248201526044016020604051808303816000875af1158015611439573d6000803e3d6000fd5b505050506040513d601f19601f8201168201806040525081019061145d91906138bd565b5060006103e8601554836114719190613884565b61147b919061389b565b6103e86014548461148c9190613884565b611496919061389b565b836103e86014546015546016546103e86114b09190613871565b6114ba9190613871565b6114c49190613871565b6114ce9087613884565b6114d8919061389b565b6114e291906138da565b6114ec91906138da565b6114f691906138da565b60808401516001600160a01b039081166000818152600260205260409081902054905163095ea7b360e01b8152921660048301526024820183905291925063095ea7b3906044016020604051808303816000875af115801561155c573d6000803e3d6000fd5b505050506040513d601f19601f8201168201806040525081019061158091906138bd565b5060808301516001600160a01b03908116600090815260026020526040908190205490517f5737910200000000000000000000000000000000000000000000000000000000815260048101849052911690635737910290602401600060405180830381600087803b1580156115f457600080fd5b505af1158015611608573d6000803e3d6000fd5b50505060008681526005602052604080822054815163232fa73360e01b815291516001600160a01b03909116935063232fa7339260048084019391929182900301818387803b15801561165a57600080fd5b505af115801561166e573d6000803e3d6000fd5b505050505050505050565b6012546001600160a01b031633146116c45760405162461bcd60e51b815260206004820152600e60248201526d37b7363c903a34329037bbb732b960911b60448201526064016108f2565b600480546001600160a01b0319166001600160a01b0392909216919091179055565b6001600160a01b038216600090815260086020526040902054829060ff1615156001146117555760405162461bcd60e51b815260206004820152601f60248201527f436f6c6c61746572616c20746f6b656e206973206e6f7420616374697665640060448201526064016108f2565b811561181557348411156117ab5760405162461bcd60e51b815260206004820181905260248201527f646f206e6f74206861766520656e6f756768206465706f73697465642045544860448201526064016108f2565b601360009054906101000a90046001600160a01b03166001600160a01b031663d0e30db0856040518263ffffffff1660e01b81526004016000604051808303818588803b1580156117fb57600080fd5b505af115801561180f573d6000803e3d6000fd5b50505050505b60008581526005602052604090819020549051633390ef1360e11b8152600481018690526001600160a01b03909116908190636721de2690602401600060405180830381600087803b15801561186a57600080fd5b505af115801561187e573d6000803e3d6000fd5b5050505082156119015760405163a9059cbb60e01b81526001600160a01b0382811660048301526024820187905285169063a9059cbb906044016020604051808303816000875af11580156118d7573d6000803e3d6000fd5b505050506040513d601f19601f820116820180604052508101906118fb91906138bd565b5061197c565b6040516323b872dd60e01b81523360048201526001600160a01b038281166024830152604482018790528516906323b872dd906064016020604051808303816000875af1158015611956573d6000803e3d6000fd5b505050506040513d601f19601f8201168201806040525081019061197a91906138bd565b505b505050505050565b6012546001600160a01b031633146119cf5760405162461bcd60e51b815260206004820152600e60248201526d37b7363c903a34329037bbb732b960911b60448201526064016108f2565b601380546001600160a01b0319166001600160a01b0392909216919091179055565b600082815260056020526040808220548151635d3e2fa160e01b815291516001600160a01b0390911692918391635d3e2fa19160048082019260c0929091908290030181865afa158015611a49573d6000803e3d6000fd5b505050506040513d601f19601f82011682018060405250810190611a6d91906137a9565b60208101516040517f102cb82e0000000000000000000000000000000000000000000000000000000081526001600160a01b039182166004820152851515602482015291925083169063102cb82e906044015b600060405180830381600087803b158015611ada57600080fd5b505af1158015611aee573d6000803e3d6000fd5b5050505050505050565b7ff0c57e16840df040f15088dc2f81fe391c3923bec73e23a9662efc9c229c6a00805468010000000000000000810460ff16159067ffffffffffffffff16600081158015611b435750825b905060008267ffffffffffffffff166001148015611b605750303b155b905081158015611b6e575080155b15611ba5576040517ff92ee8a900000000000000000000000000000000000000000000000000000000815260040160405180910390fd5b845467ffffffffffffffff191660011785558315611bd957845468ff00000000000000001916680100000000000000001785555b8e60039080519060200190611bef9291906130f4565b506001805560005b600354811015611cfc57600060038281548110611c1657611c16613793565b6000918252602090912001548f516001600160a01b0390911691508f9083908110611c4357611c43613793565b602002602001015160026000836001600160a01b03166001600160a01b0316815260200190815260200160002060006101000a8154816001600160a01b0302191690836001600160a01b031602179055508f8281518110611ca657611ca6613793565b6020908102919091018101516001600160a01b039283166000908152600e8352604080822080546001600160a01b0319169590931694909417909155600690915220805460ff1916600190811790915501611bf7565b508b51611d109060079060208f01906130f4565b5060005b600754811015611e1957600060078281548110611d3357611d33613793565b6000918252602090912001548d516001600160a01b0390911691508d9083908110611d6057611d60613793565b6020026020010151600d6000836001600160a01b03166001600160a01b0316815260200190815260200160002060006101000a8154816001600160a01b0302191690836001600160a01b031602179055508b8281518110611dc357611dc3613793565b6020908102919091018101516001600160a01b039283166000908152600a8352604080822080546001600160a01b0319169590931694909417909155600890915220805460ff1916600190811790915501611d14565b50600980546001600160a01b03808c166001600160a01b0319928316179092556004805492891692821692909217909155600b899055600c88905560128054909116331790558315611eaa57845468ff000000000000000019168555604051600181527fc7f505b2f371ae2175ee4913f4499e1f2633a7b5936321eed1cdaeb6115181d29060200160405180910390a15b505050505050505050505050505050565b6012546001600160a01b03163314611f065760405162461bcd60e51b815260206004820152600e60248201526d37b7363c903a34329037bbb732b960911b60448201526064016108f2565b60005b8351811015610aa9576000848281518110611f2657611f26613793565b60200260200101519050611f92600780548060200260200160405190810160405280929190818152602001828054801561097e576020028201919060005260206000209081546001600160a01b0316815260019091019060200180831161096057505050505082610c68565b1515600003611fe757600780546001810182556000919091527fa66cc928b5edb82af9bd49922954155ab7b0942694bea4ce44661d9a8736c6880180546001600160a01b0319166001600160a01b0383161790555b838281518110611ff957611ff9613793565b6020026020010151600d6000836001600160a01b03166001600160a01b0316815260200190815260200160002060006101000a8154816001600160a01b0302191690836001600160a01b0316021790555082828151811061205c5761205c613793565b6020908102919091018101516001600160a01b039283166000908152600a8352604080822080546001600160a01b0319169590931694909417909155600890915220805460ff1916600190811790915501611f09565b6001600160a01b038116600090815260066020526040902054819060ff1615156001146121215760405162461bcd60e51b815260206004820152601960248201527f506f6f6c20746f6b656e206973206e6f7420616374697665640000000000000060448201526064016108f2565b6040516323b872dd60e01b8152336004820152306024820152604481018490526001600160a01b038316906323b872dd906064016020604051808303816000875af1158015612174573d6000803e3d6000fd5b505050506040513d601f19601f8201168201806040525081019061219891906138bd565b506001600160a01b038281166000818152600260205260409081902054905163095ea7b360e01b815292166004830152602482018590529063095ea7b3906044016020604051808303816000875af11580156121f8573d6000803e3d6000fd5b505050506040513d601f19601f8201168201806040525081019061221c91906138bd565b506001600160a01b038281166000908152600260205260409081902054905163d8aed14560e01b8152600481018790526024810186905291169063d8aed14590604401600060405180830381600087803b15801561227957600080fd5b505af115801561228d573d6000803e3d6000fd5b505050506001600160a01b038281166000908152600260205260409081902054905163a52f38d160e01b81526004810187905291169063a52f38d190602401602060405180830381865afa1580156122e9573d6000803e3d6000fd5b505050506040513d601f19601f8201168201806040525081019061230d9190613842565b600003610aa95760008481526005602052604080822054815163232fa73360e01b815291516001600160a01b039091169263232fa733926004808201939182900301818387803b158015611ada57600080fd5b600061236d826000612d4d565b612710846001600160a01b031663313ce5676040518163ffffffff1660e01b8152600401602060405180830381865afa1580156123ae573d6000803e3d6000fd5b505050506040513d601f19601f820116820180604052508101906123d291906138ed565b6123dd90600a6139f4565b6123e8866001612d4d565b600b54866001600160a01b031663313ce5676040518163ffffffff1660e01b8152600401602060405180830381865afa158015612429573d6000803e3d6000fd5b505050506040513d601f19601f8201168201806040525081019061244d91906138ed565b61245890600a6139f4565b612462908a613884565b61246c9190613884565b6124769190613884565b612480919061389b565b61248a919061389b565b612494919061389b565b949350505050565b6001600160a01b038516600090815260066020526040902054859060ff16151560011461250b5760405162461bcd60e51b815260206004820152601960248201527f506f6f6c20746f6b656e206973206e6f7420616374697665640000000000000060448201526064016108f2565b6001600160a01b038416600090815260086020526040902054849060ff16151560011461257a5760405162461bcd60e51b815260206004820152601f60248201527f436f6c6c61746572616c20746f6b656e206973206e6f7420616374697665640060448201526064016108f2565b821561263a57348611156125d05760405162461bcd60e51b815260206004820181905260248201527f646f206e6f74206861766520656e6f756768206465706f73697465642045544860448201526064016108f2565b601360009054906101000a90046001600160a01b03166001600160a01b031663d0e30db0876040518263ffffffff1660e01b81526004016000604051808303818588803b15801561262057600080fd5b505af1158015612634573d6000803e3d6000fd5b50505050505b866001600160a01b031663313ce5676040518163ffffffff1660e01b8152600401602060405180830381865afa158015612678573d6000803e3d6000fd5b505050506040513d601f19601f8201168201806040525081019061269c91906138ed565b6126a790600a6139f4565b6126b2886001612d4d565b6126bc908a613884565b6126c890612710613884565b6126d2919061389b565b856001600160a01b031663313ce5676040518163ffffffff1660e01b8152600401602060405180830381865afa158015612710573d6000803e3d6000fd5b505050506040513d601f19601f8201168201806040525081019061273491906138ed565b61273f90600a6139f4565b600b5461274d886000612d4d565b612757908a613884565b6127619190613884565b61276b919061389b565b10156127b95760405162461bcd60e51b815260206004820152601c60248201527f446f6e2774206861766520656e6f75676820636f6c6c61746572616c0000000060448201526064016108f2565b6001600160a01b038088166000908152600260209081526040918290205482517f3b24cc2100000000000000000000000000000000000000000000000000000000815292518c949190911692633b24cc219260048083019391928290030181865afa15801561282c573d6000803e3d6000fd5b505050506040513d601f19601f820116820180604052508101906128509190613842565b101561289e5760405162461bcd60e51b815260206004820152601b60248201527f506f6f6c20646f6e2774206861766520656e6f7567682066756e64000000000060448201526064016108f2565b6040805160c081018252600081830181905260a08201819052336020808401828152606085018e815260015486526001600160a01b038e81166080880181905286526002909352938690205485519451915196517fd6bda0c000000000000000000000000000000000000000000000000000000000815260048101959095526024850191909152948116604484015292939092169063d6bda0c090606401600060405180830381600087803b15801561295657600080fd5b505af115801561296a573d6000803e3d6000fd5b5050506001600160a01b03808b166000908152600e602052604081205460045490831693508a9261299b9116613069565b90506000819050806001600160a01b03166383f8964e8785600960009054906101000a90046001600160a01b0316600a6000896001600160a01b03166001600160a01b0316815260200190815260200160002060009054906101000a90046001600160a01b0316600b54600c54600d60008c6001600160a01b03166001600160a01b0316815260200190815260200160002060009054906101000a90046001600160a01b03168c600f60009054906101000a90046001600160a01b0316601160009054906101000a90046001600160a01b0316601360009054906101000a90046001600160a01b03166040518c63ffffffff1660e01b8152600401612aaa9b9a99989796959493929190613a03565b600060405180830381600087803b158015612ac457600080fd5b505af1158015612ad8573d6000803e3d6000fd5b50506040517f8ac1b7750000000000000000000000000000000000000000000000000000000081523060048201526001600160a01b0384169250638ac1b7759150602401600060405180830381600087803b158015612b3657600080fd5b505af1158015612b4a573d6000803e3d6000fd5b50505050891515600103612bac57806001600160a01b03166307a6bf696040518163ffffffff1660e01b8152600401600060405180830381600087803b158015612b9357600080fd5b505af1158015612ba7573d6000803e3d6000fd5b505050505b604051633390ef1360e11b8152600481018d90526001600160a01b03821690636721de2690602401600060405180830381600087803b158015612bee57600080fd5b505af1158015612c02573d6000803e3d6000fd5b505050508815612c855760405163a9059cbb60e01b81526001600160a01b038381166004830152602482018e90528c169063a9059cbb906044016020604051808303816000875af1158015612c5b573d6000803e3d6000fd5b505050506040513d601f19601f82011682018060405250810190612c7f91906138bd565b50612d00565b6040516323b872dd60e01b81523360048201526001600160a01b038381166024830152604482018e90528c16906323b872dd906064016020604051808303816000875af1158015612cda573d6000803e3d6000fd5b505050506040513d601f19601f82011682018060405250810190612cfe91906138bd565b505b60018054600090815260056020526040812080546001600160a01b0319166001600160a01b03851617905581549190612d3883613b02565b91905055505050505050505050505050505050565b60008115158103612dee576001600160a01b038084166000908152600d6020526040808220548151633fabe5a360e21b8152915192938493849384938493169163feaf968c9160048082019260a0929091908290030181865afa158015612db8573d6000803e3d6000fd5b505050506040513d601f19601f82011682018060405250810190612ddc9190613b35565b50919850610cbd975050505050505050565b6001600160a01b038084166000908152600e6020526040808220548151633fabe5a360e21b8152915192938493849384938493169163feaf968c9160048082019260a0929091908290030181865afa158015612db8573d6000803e3d6000fd5b6012546001600160a01b03163314612e995760405162461bcd60e51b815260206004820152600e60248201526d37b7363c903a34329037bbb732b960911b60448201526064016108f2565b600b91909155600c55565b60038181548110610abf57600080fd5b600081815260056020526040808220548151635d3e2fa160e01b815291516001600160a01b0390911692918391635d3e2fa19160048082019260c0929091908290030181865afa158015612f0c573d6000803e3d6000fd5b505050506040513d601f19601f82011682018060405250810190612f3091906137a9565b6001600160a01b03858116600090815260026020908152604091829020549084015191517fec7be39d00000000000000000000000000000000000000000000000000000000815291831660048301526024820187905292935091169063ec7be39d90604401611ac0565b6012546001600160a01b03163314612fe55760405162461bcd60e51b815260206004820152600e60248201526d37b7363c903a34329037bbb732b960911b60448201526064016108f2565b601655601555601455565b6012546001600160a01b0316331461303b5760405162461bcd60e51b815260206004820152600e60248201526d37b7363c903a34329037bbb732b960911b60448201526064016108f2565b601080546001600160a01b039384166001600160a01b03199182161790915560118054929093169116179055565b6000763d602d80600a3d3981f3363d3d373d3d3d363d730000008260601b60e81c176000526e5af43d82803e903d91602b57fd5bf38260781b17602052603760096000f090506001600160a01b0381166130ef576040517fc2f868f400000000000000000000000000000000000000000000000000000000815260040160405180910390fd5b919050565b828054828255906000526020600020908101928215613149579160200282015b8281111561314957825182546001600160a01b0319166001600160a01b03909116178255602090920191600190910190613114565b50613155929150613159565b5090565b5b80821115613155576000815560010161315a565b634e487b7160e01b600052604160045260246000fd5b604051601f8201601f1916810167ffffffffffffffff811182821017156131ad576131ad61316e565b604052919050565b600067ffffffffffffffff8211156131cf576131cf61316e565b5060051b60200190565b6001600160a01b03811681146131ee57600080fd5b50565b600082601f83011261320257600080fd5b81356020613217613212836131b5565b613184565b8083825260208201915060208460051b87010193508684111561323957600080fd5b602086015b8481101561325e578035613251816131d9565b835291830191830161323e565b509695505050505050565b600082601f83011261327a57600080fd5b8135602061328a613212836131b5565b8083825260208201915060208460051b8701019350868411156132ac57600080fd5b602086015b8481101561325e5780356132c4816131d9565b83529183019183016132b1565b6000806000606084860312156132e657600080fd5b833567ffffffffffffffff808211156132fe57600080fd5b61330a878388016131f1565b9450602086013591508082111561332057600080fd5b61332c87838801613269565b9350604086013591508082111561334257600080fd5b5061334f868287016131f1565b9150509250925092565b60006020828403121561336b57600080fd5b5035919050565b6000806040838503121561338557600080fd5b823567ffffffffffffffff81111561339c57600080fd5b6133a8858286016131f1565b92505060208301356133b9816131d9565b809150509250929050565b80356130ef816131d9565b6000602082840312156133e157600080fd5b81356133ec816131d9565b9392505050565b80151581146131ee57600080fd5b60008060006060848603121561341657600080fd5b8335613421816131d9565b92506020840135613431816133f3565b91506040840135613441816133f3565b809150509250925092565b6000806000806080858703121561346257600080fd5b8435935060208501359250604085013561347b816131d9565b9150606085013561348b816133f3565b939692955090935050565b600080604083850312156134a957600080fd5b8235915060208301356133b9816133f3565b6000806000806000806000806000806101408b8d0312156134db57600080fd5b8a3567ffffffffffffffff808211156134f357600080fd5b6134ff8e838f016131f1565b9b5060208d013591508082111561351557600080fd5b6135218e838f01613269565b9a5060408d013591508082111561353757600080fd5b6135438e838f016131f1565b995060608d013591508082111561355957600080fd5b6135658e838f016131f1565b985060808d013591508082111561357b57600080fd5b6135878e838f01613269565b975060a08d013591508082111561359d57600080fd5b506135aa8d828e016131f1565b9550506135b960c08c016133c4565b935060e08b013592506101008b013591506135d76101208c016133c4565b90509295989b9194979a5092959850565b6000806000606084860312156135fd57600080fd5b83359250602084013591506040840135613441816131d9565b60008060006060848603121561362b57600080fd5b83359250602084013561363d816131d9565b91506040840135613441816131d9565b60008060008060008060c0878903121561366657600080fd5b863595506020870135613678816131d9565b945060408701359350606087013561368f816131d9565b9250608087013561369f816133f3565b915060a08701356136af816133f3565b809150509295509295509295565b600080604083850312156136d057600080fd5b82356136db816131d9565b915060208301356133b9816133f3565b600080604083850312156136fe57600080fd5b50508035926020909101359150565b6000806040838503121561372057600080fd5b823561372b816131d9565b915060208301356133b9816131d9565b6000806040838503121561374e57600080fd5b8235613759816131d9565b946020939093013593505050565b60008060006060848603121561377c57600080fd5b505081359360208301359350604090920135919050565b634e487b7160e01b600052603260045260246000fd5b600060c082840312156137bb57600080fd5b60405160c0810181811067ffffffffffffffff821117156137de576137de61316e565b6040528251815260208301516137f3816131d9565b60208201526040830151613806816133f3565b6040820152606083810151908201526080830151613823816131d9565b608082015260a0830151613836816133f3565b60a08201529392505050565b60006020828403121561385457600080fd5b5051919050565b634e487b7160e01b600052601160045260246000fd5b80820180821115610cbd57610cbd61385b565b8082028115828204841417610cbd57610cbd61385b565b6000826138b857634e487b7160e01b600052601260045260246000fd5b500490565b6000602082840312156138cf57600080fd5b81516133ec816133f3565b81810381811115610cbd57610cbd61385b565b6000602082840312156138ff57600080fd5b815160ff811681146133ec57600080fd5b600181815b8085111561394b5781600019048211156139315761393161385b565b8085161561393e57918102915b93841c9390800290613915565b509250929050565b60008261396257506001610cbd565b8161396f57506000610cbd565b8160018114613985576002811461398f576139ab565b6001915050610cbd565b60ff8411156139a0576139a061385b565b50506001821b610cbd565b5060208310610133831016604e8410600b84101617156139ce575081810a610cbd565b6139d88383613910565b80600019048211156139ec576139ec61385b565b029392505050565b60006133ec60ff841683613953565b6000610200820190508c51825260208d01516001600160a01b03811660208401525060408d01511515604083015260608d015160608301526001600160a01b0360808e015116608083015260a08d0151151560a0830152613a6f60c083018d6001600160a01b03169052565b6001600160a01b038b1660e08301526001600160a01b038a166101008301528861012083015287610140830152613ab26101608301886001600160a01b03169052565b6001600160a01b0386166101808301526001600160a01b0385166101a08301526001600160a01b0384166101c08301526001600160a01b0383166101e08301529c9b505050505050505050505050565b600060018201613b1457613b1461385b565b5060010190565b805169ffffffffffffffffffff811681146130ef57600080fd5b600080600080600060a08688031215613b4d57600080fd5b613b5686613b1b565b9450602086015193506040860151925060608601519150613b7960808701613b1b565b9050929550929590935056fea264697066735822122098b581b6d3da98143ff478a04a95a294a32f6df7b6b7b44716f8dc47c74b01da64736f6c63430008180033",
  "linkReferences": {},
  "deployedLinkReferences": {}
}