{
  "_format": "hh-sol-artifact-1",
  "contractName": "CCFLPool",
  "sourceName": "contracts/CCFLPool.sol",
  "abi": [
    {
      "inputs": [],
      "name": "InvalidInitialization",
      "type": "error"
    },
    {
      "inputs": [],
      "name": "NotInitializing",
      "type": "error"
    },
    {
      "inputs": [
        {
          "internalType": "uint8",
          "name": "bits",
          "type": "uint8"
        },
        {
          "internalType": "uint256",
          "name": "value",
          "type": "uint256"
        }
      ],
      "name": "SafeCastOverflowedUintDowncast",
      "type": "error"
    },
    {
      "anonymous": false,
      "inputs": [
        {
          "indexed": true,
          "internalType": "address",
          "name": "lender",
          "type": "address"
        },
        {
          "indexed": true,
          "internalType": "contract IERC20Standard",
          "name": "supply",
          "type": "address"
        },
        {
          "indexed": false,
          "internalType": "uint256",
          "name": "amount",
          "type": "uint256"
        },
        {
          "indexed": false,
          "internalType": "uint256",
          "name": "timestamp",
          "type": "uint256"
        }
      ],
      "name": "AddSupply",
      "type": "event"
    },
    {
      "anonymous": false,
      "inputs": [
        {
          "indexed": false,
          "internalType": "uint64",
          "name": "version",
          "type": "uint64"
        }
      ],
      "name": "Initialized",
      "type": "event"
    },
    {
      "anonymous": false,
      "inputs": [
        {
          "indexed": true,
          "internalType": "address",
          "name": "lender",
          "type": "address"
        },
        {
          "indexed": true,
          "internalType": "contract IERC20Standard",
          "name": "supply",
          "type": "address"
        },
        {
          "indexed": false,
          "internalType": "uint256",
          "name": "amount",
          "type": "uint256"
        },
        {
          "indexed": false,
          "internalType": "uint256",
          "name": "timestamp",
          "type": "uint256"
        }
      ],
      "name": "WithdrawSupply",
      "type": "event"
    },
    {
      "inputs": [],
      "name": "CCFL",
      "outputs": [
        {
          "internalType": "address",
          "name": "",
          "type": "address"
        }
      ],
      "stateMutability": "view",
      "type": "function"
    },
    {
      "inputs": [
        {
          "internalType": "address",
          "name": "_user",
          "type": "address"
        }
      ],
      "name": "balanceOf",
      "outputs": [
        {
          "internalType": "uint256",
          "name": "",
          "type": "uint256"
        }
      ],
      "stateMutability": "view",
      "type": "function"
    },
    {
      "inputs": [
        {
          "internalType": "uint256",
          "name": "_loanId",
          "type": "uint256"
        },
        {
          "internalType": "uint256",
          "name": "_amount",
          "type": "uint256"
        },
        {
          "internalType": "address",
          "name": "_borrower",
          "type": "address"
        },
        {
          "internalType": "bool",
          "name": "_isFiat",
          "type": "bool"
        }
      ],
      "name": "borrow",
      "outputs": [],
      "stateMutability": "nonpayable",
      "type": "function"
    },
    {
      "inputs": [
        {
          "internalType": "uint256",
          "name": "",
          "type": "uint256"
        }
      ],
      "name": "debt",
      "outputs": [
        {
          "internalType": "uint256",
          "name": "",
          "type": "uint256"
        }
      ],
      "stateMutability": "view",
      "type": "function"
    },
    {
      "inputs": [
        {
          "internalType": "uint256",
          "name": "_amount",
          "type": "uint256"
        }
      ],
      "name": "earnStaking",
      "outputs": [],
      "stateMutability": "nonpayable",
      "type": "function"
    },
    {
      "inputs": [
        {
          "internalType": "uint256",
          "name": "_loanId",
          "type": "uint256"
        }
      ],
      "name": "getCurrentLoan",
      "outputs": [
        {
          "internalType": "uint256",
          "name": "",
          "type": "uint256"
        }
      ],
      "stateMutability": "view",
      "type": "function"
    },
    {
      "inputs": [],
      "name": "getCurrentRate",
      "outputs": [
        {
          "internalType": "uint256",
          "name": "",
          "type": "uint256"
        },
        {
          "internalType": "uint256",
          "name": "",
          "type": "uint256"
        },
        {
          "internalType": "uint256",
          "name": "",
          "type": "uint256"
        },
        {
          "internalType": "uint256",
          "name": "",
          "type": "uint256"
        }
      ],
      "stateMutability": "view",
      "type": "function"
    },
    {
      "inputs": [],
      "name": "getDebtPool",
      "outputs": [
        {
          "internalType": "uint256",
          "name": "amount",
          "type": "uint256"
        }
      ],
      "stateMutability": "view",
      "type": "function"
    },
    {
      "inputs": [],
      "name": "getRemainingPool",
      "outputs": [
        {
          "internalType": "uint256",
          "name": "amount",
          "type": "uint256"
        }
      ],
      "stateMutability": "view",
      "type": "function"
    },
    {
      "inputs": [],
      "name": "getTotalSupply",
      "outputs": [
        {
          "internalType": "uint256",
          "name": "",
          "type": "uint256"
        }
      ],
      "stateMutability": "view",
      "type": "function"
    },
    {
      "inputs": [
        {
          "internalType": "contract IERC20Standard",
          "name": "_stableCoinAddress",
          "type": "address"
        },
        {
          "internalType": "address",
          "name": "interestRateStrategyAddress",
          "type": "address"
        }
      ],
      "name": "initialize",
      "outputs": [],
      "stateMutability": "nonpayable",
      "type": "function"
    },
    {
      "inputs": [
        {
          "internalType": "uint256",
          "name": "",
          "type": "uint256"
        }
      ],
      "name": "lenders",
      "outputs": [
        {
          "internalType": "address",
          "name": "",
          "type": "address"
        }
      ],
      "stateMutability": "view",
      "type": "function"
    },
    {
      "inputs": [
        {
          "internalType": "uint256",
          "name": "_loanId",
          "type": "uint256"
        },
        {
          "internalType": "uint256",
          "name": "_amount",
          "type": "uint256"
        }
      ],
      "name": "liquidatePenalty",
      "outputs": [],
      "stateMutability": "nonpayable",
      "type": "function"
    },
    {
      "inputs": [
        {
          "internalType": "uint256",
          "name": "",
          "type": "uint256"
        }
      ],
      "name": "loans",
      "outputs": [
        {
          "internalType": "uint256",
          "name": "loanId",
          "type": "uint256"
        },
        {
          "internalType": "bool",
          "name": "isPaid",
          "type": "bool"
        },
        {
          "internalType": "uint256",
          "name": "amount",
          "type": "uint256"
        },
        {
          "internalType": "bool",
          "name": "isClosed",
          "type": "bool"
        },
        {
          "internalType": "address",
          "name": "borrower",
          "type": "address"
        },
        {
          "internalType": "bool",
          "name": "isLiquidated",
          "type": "bool"
        },
        {
          "internalType": "contract IERC20Standard",
          "name": "stableCoin",
          "type": "address"
        },
        {
          "internalType": "bool",
          "name": "isFinalty",
          "type": "bool"
        },
        {
          "internalType": "bool",
          "name": "isFiat",
          "type": "bool"
        }
      ],
      "stateMutability": "view",
      "type": "function"
    },
    {
      "inputs": [],
      "name": "remainingPool",
      "outputs": [
        {
          "internalType": "uint256",
          "name": "",
          "type": "uint256"
        }
      ],
      "stateMutability": "view",
      "type": "function"
    },
    {
      "inputs": [
        {
          "internalType": "uint256",
          "name": "_loanId",
          "type": "uint256"
        },
        {
          "internalType": "uint256",
          "name": "_amount",
          "type": "uint256"
        }
      ],
      "name": "repay",
      "outputs": [],
      "stateMutability": "nonpayable",
      "type": "function"
    },
    {
      "inputs": [],
      "name": "reserve",
      "outputs": [
        {
          "internalType": "uint128",
          "name": "liquidityIndex",
          "type": "uint128"
        },
        {
          "internalType": "uint128",
          "name": "currentLiquidityRate",
          "type": "uint128"
        },
        {
          "internalType": "uint128",
          "name": "variableBorrowIndex",
          "type": "uint128"
        },
        {
          "internalType": "uint128",
          "name": "currentVariableBorrowRate",
          "type": "uint128"
        },
        {
          "internalType": "uint40",
          "name": "lastUpdateTimestamp",
          "type": "uint40"
        },
        {
          "internalType": "uint16",
          "name": "id",
          "type": "uint16"
        },
        {
          "internalType": "address",
          "name": "interestRateStrategyAddress",
          "type": "address"
        }
      ],
      "stateMutability": "view",
      "type": "function"
    },
    {
      "inputs": [
        {
          "internalType": "address",
          "name": "_ccfl",
          "type": "address"
        }
      ],
      "name": "setCCFL",
      "outputs": [],
      "stateMutability": "nonpayable",
      "type": "function"
    },
    {
      "inputs": [
        {
          "internalType": "address",
          "name": "",
          "type": "address"
        }
      ],
      "name": "share",
      "outputs": [
        {
          "internalType": "uint256",
          "name": "",
          "type": "uint256"
        }
      ],
      "stateMutability": "view",
      "type": "function"
    },
    {
      "inputs": [],
      "name": "stableCoinAddress",
      "outputs": [
        {
          "internalType": "contract IERC20Standard",
          "name": "",
          "type": "address"
        }
      ],
      "stateMutability": "view",
      "type": "function"
    },
    {
      "inputs": [
        {
          "internalType": "uint256",
          "name": "_amount",
          "type": "uint256"
        }
      ],
      "name": "supply",
      "outputs": [],
      "stateMutability": "nonpayable",
      "type": "function"
    },
    {
      "inputs": [],
      "name": "totalDebt",
      "outputs": [
        {
          "internalType": "uint256",
          "name": "",
          "type": "uint256"
        }
      ],
      "stateMutability": "view",
      "type": "function"
    },
    {
      "inputs": [],
      "name": "totalLiquidity",
      "outputs": [
        {
          "internalType": "uint256",
          "name": "",
          "type": "uint256"
        }
      ],
      "stateMutability": "view",
      "type": "function"
    },
    {
      "inputs": [],
      "name": "totalSupply",
      "outputs": [
        {
          "internalType": "uint256",
          "name": "",
          "type": "uint256"
        }
      ],
      "stateMutability": "view",
      "type": "function"
    },
    {
      "inputs": [
        {
          "internalType": "uint256",
          "name": "_amount",
          "type": "uint256"
        }
      ],
      "name": "withdraw",
      "outputs": [],
      "stateMutability": "nonpayable",
      "type": "function"
    },
    {
      "inputs": [
        {
          "internalType": "address",
          "name": "_receiver",
          "type": "address"
        },
        {
          "internalType": "uint256",
          "name": "_loanId",
          "type": "uint256"
        }
      ],
      "name": "withdrawLoan",
      "outputs": [],
      "stateMutability": "nonpayable",
      "type": "function"
    },
    {
      "stateMutability": "payable",
      "type": "receive"
    }
  ],
  "bytecode": "0x608060405234801561001057600080fd5b506125ff806100206000396000f3fe6080604052600436106101a55760003560e01c80638ac1b775116100e1578063c4e41b221161008a578063e1ec3c6811610064578063e1ec3c681461051f578063ec7be39d14610602578063f7fb07b014610622578063fc7b9c181461066f57600080fd5b8063c4e41b2214610424578063cd3293de14610439578063d8aed145146104ff57600080fd5b80639b78dbfc116100bb5780639b78dbfc146103ce578063a52f38d1146103ee578063b14d37c01461040e57600080fd5b80638ac1b7751461036e578063929eea211461038e578063982aae46146103ae57600080fd5b8063354030231161014e5780633b4675a7116101285780633b4675a7146102d6578063485cc9551461030e57806370a082311461032e5780637f3940311461034e57600080fd5b806335403023146102815780633870862b146102a15780633b24cc21146102c157600080fd5b80631877bb5c1161017f5780631877bb5c146102055780631e0029c8146102325780632e1a7d4d1461025f57600080fd5b806303ec357f146101b157806315770f92146101d957806318160ddd146101ef57600080fd5b366101ac57005b600080fd5b3480156101bd57600080fd5b506101c6610685565b6040519081526020015b60405180910390f35b3480156101e557600080fd5b506101c6600a5481565b3480156101fb57600080fd5b506101c660095481565b34801561021157600080fd5b506101c661022036600461226a565b60076020526000908152604090205481565b34801561023e57600080fd5b506101c661024d366004612287565b60086020526000908152604090205481565b34801561026b57600080fd5b5061027f61027a366004612287565b610775565b005b34801561028d57600080fd5b5061027f61029c366004612287565b6109d8565b3480156102ad57600080fd5b5061027f6102bc3660046122ae565b610bf3565b3480156102cd57600080fd5b50600c546101c6565b3480156102e257600080fd5b506003546102f6906001600160a01b031681565b6040516001600160a01b0390911681526020016101d0565b34801561031a57600080fd5b5061027f6103293660046122f8565b610e67565b34801561033a57600080fd5b506101c661034936600461226a565b611047565b34801561035a57600080fd5b5061027f610369366004612331565b611113565b34801561037a57600080fd5b5061027f61038936600461226a565b6111f7565b34801561039a57600080fd5b506102f66103a9366004612287565b611287565b3480156103ba57600080fd5b506000546102f6906001600160a01b031681565b3480156103da57600080fd5b5061027f6103e9366004612287565b6112b1565b3480156103fa57600080fd5b506101c6610409366004612287565b611304565b34801561041a57600080fd5b506101c6600c5481565b34801561043057600080fd5b506101c6611401565b34801561044557600080fd5b506004546005546006546104a4926001600160801b0380821693600160801b92839004821693828216939091049091169064ffffffffff81169065010000000000810461ffff169067010000000000000090046001600160a01b031687565b604080516001600160801b03988916815296881660208801529487169486019490945294909116606084015264ffffffffff16608083015261ffff90921660a08201526001600160a01b0390911660c082015260e0016101d0565b34801561050b57600080fd5b5061027f61051a366004612331565b6114d9565b34801561052b57600080fd5b506105af61053a366004612287565b600260208190526000918252604090912080546001820154928201546003830154600490930154919360ff908116939192828216926001600160a01b036101008204811693600160a81b9283900481169391821692740100000000000000000000000000000000000000008304821692041689565b60408051998a5297151560208a01529688019590955292151560608701526001600160a01b039182166080870152151560a08601521660c0840152151560e08301521515610100820152610120016101d0565b34801561060e57600080fd5b5061027f61061d366004612353565b61198b565b34801561062e57600080fd5b50600554600454604080516001600160801b03600160801b8086048216835284048116602083015293841691810191909152911660608201526080016101d0565b34801561067b57600080fd5b506101c6600b5481565b600080610690611ad9565b905060006106a68260c001518360e00151611bd6565b6005549091506106c09082906001600160801b0316611bea565b60808301526000546040805163313ce56760e01b815290516b033b2e3c9fd0803ce8000000926001600160a01b03169163313ce5679160048083019260209291908290030181865afa15801561071a573d6000803e3d6000fd5b505050506040513d601f19601f8201168201806040525081019061073e919061237f565b61074990600a61249c565b6080840151600b5461075a91611bea565b61076491906124ab565b61076e91906124d8565b9250505090565b600061077f611ad9565b905061078a81611c2e565b60008060009054906101000a90046001600160a01b03166001600160a01b031663313ce5676040518163ffffffff1660e01b8152600401602060405180830381865afa1580156107de573d6000803e3d6000fd5b505050506040513d601f19601f82011682018060405250810190610802919061237f565b61080d90600a61249c565b6108236b033b2e3c9fd0803ce8000000856124ab565b61082d91906124d8565b905061083a600082611c67565b6004546000906108549083906001600160801b0316611def565b33600090815260076020526040812054919250906108739083906124fa565b9050816009600082825461088791906124fa565b9250508190555081600a60008282546108a091906124fa565b909155505060408051808201909152600181527f380000000000000000000000000000000000000000000000000000000000000060208201526108e7565b60405180910390fd5b50336000908152600760205260408120829055600c805487929061090c9084906124fa565b909155505060005460405163a9059cbb60e01b8152336004820152602481018790526001600160a01b039091169063a9059cbb906044016020604051808303816000875af1158015610962573d6000803e3d6000fd5b505050506040513d601f19601f82011682018060405250810190610986919061255c565b50600054604080518781524260208201526001600160a01b039092169133917ff920a98209abfdc322e529414e4f3e4daf45c2a9cf6a1a1245a903648c84b3a391015b60405180910390a35050505050565b60006109e2611ad9565b90506109ed81611c2e565b60008060009054906101000a90046001600160a01b03166001600160a01b031663313ce5676040518163ffffffff1660e01b8152600401602060405180830381865afa158015610a41573d6000803e3d6000fd5b505050506040513d601f19601f82011682018060405250810190610a65919061237f565b610a7090600a61249c565b610a866b033b2e3c9fd0803ce8000000856124ab565b610a9091906124d8565b9050610a9d816000611c67565b600454600090610ab79083906001600160801b0316611def565b3360009081526007602052604081205491925090610ad6908390612579565b90508160096000828254610aea9190612579565b9250508190555081600a6000828254610b039190612579565b9091555050336000908152600760205260408120829055600c8054879290610b2c908490612579565b90915550506000546040516323b872dd60e01b8152336004820152306024820152604481018790526001600160a01b03909116906323b872dd906064016020604051808303816000875af1158015610b88573d6000803e3d6000fd5b505050506040513d601f19601f82011682018060405250810190610bac919061255c565b50600054604080518781524260208201526001600160a01b039092169133917fcae7933f97cc1867dc5809b71fe2fef50587154907804d33215880df5ff6a98991016109c9565b600354604080518082019091526002815261313360f01b6020820152906001600160a01b03163314610c385760405162461bcd60e51b81526004016108de919061250d565b506000610c43611ad9565b9050610c4e81611c2e565b60008060009054906101000a90046001600160a01b03166001600160a01b031663313ce5676040518163ffffffff1660e01b8152600401602060405180830381865afa158015610ca2573d6000803e3d6000fd5b505050506040513d601f19601f82011682018060405250810190610cc6919061237f565b610cd190600a61249c565b610ce76b033b2e3c9fd0803ce8000000876124ab565b610cf191906124d8565b90506000610d0c836080015183611def90919063ffffffff16565b60008881526008602052604081205491925090610d2a908390612579565b905081600b6000828254610d3e9190612579565b9091555050600c5460408051808201909152600281527f3135000000000000000000000000000000000000000000000000000000000000602082015290881115610d9b5760405162461bcd60e51b81526004016108de919061250d565b506000888152600260208181526040808420600890925283208490558a81559081018990556003810180547fffffffffffffffffffffff0000000000000000000000000000000000000000ff166101006001600160a01b038b160217905560048101805460ff60a81b1916600160a81b8915150217905590610e1d9085611c67565b6040850151610e2d908590611def565b600a6000828254610e3e91906124fa565b9250508190555087600c6000828254610e5791906124fa565b9091555050505050505050505050565b7ff0c57e16840df040f15088dc2f81fe391c3923bec73e23a9662efc9c229c6a00805468010000000000000000810460ff16159067ffffffffffffffff16600081158015610eb25750825b905060008267ffffffffffffffff166001148015610ecf5750303b155b905081158015610edd575080155b15610f14576040517ff92ee8a900000000000000000000000000000000000000000000000000000000815260040160405180910390fd5b845467ffffffffffffffff191660011785558315610f4857845468ff00000000000000001916680100000000000000001785555b600080546001600160a01b03808a1673ffffffffffffffffffffffffffffffffffffffff199283161790925560068054928916670100000000000000027fffffffffff0000000000000000000000000000000000000000ffffffffffffff90931692909217909155600480546fffffffffffffffffffffffffffffffff199081166b033b2e3c9fd0803ce8000000908117909255600580549091169091179055600d805490911633179055831561103e57845468ff000000000000000019168555604051600181527fc7f505b2f371ae2175ee4913f4499e1f2633a7b5936321eed1cdaeb6115181d29060200160405180910390a15b50505050505050565b60008060009054906101000a90046001600160a01b03166001600160a01b031663313ce5676040518163ffffffff1660e01b8152600401602060405180830381865afa15801561109b573d6000803e3d6000fd5b505050506040513d601f19601f820116820180604052508101906110bf919061237f565b6110ca90601b61258c565b6110d590600a61249c565b6004546001600160a01b038416600090815260076020526040902054611103916001600160801b0316611bea565b61110d91906124d8565b92915050565b600354604080518082019091526002815261313360f01b6020820152906001600160a01b031633146111585760405162461bcd60e51b81526004016108de919061250d565b506000828152600260208181526040928390206003015483518085019094529183527f313700000000000000000000000000000000000000000000000000000000000090830152600160a81b900460ff16156111c75760405162461bcd60e51b81526004016108de919061250d565b506111d28133611e2e565b506000908152600260205260409020600301805460ff60a81b1916600160a81b179055565b600d5460408051808201909152600181527f32000000000000000000000000000000000000000000000000000000000000006020820152906001600160a01b031633146112575760405162461bcd60e51b81526004016108de919061250d565b506003805473ffffffffffffffffffffffffffffffffffffffff19166001600160a01b0392909216919091179055565b6001818154811061129757600080fd5b6000918252602090912001546001600160a01b0316905081565b600354604080518082019091526002815261313360f01b6020820152906001600160a01b031633146112f65760405162461bcd60e51b81526004016108de919061250d565b506113018133611e2e565b50565b60008061130f611ad9565b905060006113258260c001518360e00151611bd6565b60055490915061133f9082906001600160801b0316611bea565b60808301526000546040805163313ce56760e01b815290516b033b2e3c9fd0803ce8000000926001600160a01b03169163313ce5679160048083019260209291908290030181865afa158015611399573d6000803e3d6000fd5b505050506040513d601f19601f820116820180604052508101906113bd919061237f565b6113c890600a61249c565b60808401516000878152600860205260409020546113e591611bea565b6113ef91906124ab565b6113f991906124d8565b949350505050565b60008061140c611ad9565b905060006114228260a001518360e00151611fb8565b905061143b826040015182611bea90919063ffffffff16565b604080840191909152600054815163313ce56760e01b815291516b033b2e3c9fd0803ce8000000926001600160a01b039092169163313ce5679160048083019260209291908290030181865afa158015611499573d6000803e3d6000fd5b505050506040513d601f19601f820116820180604052508101906114bd919061237f565b6114c890600a61249c565b604084015160095461075a91611bea565b600354604080518082019091526002815261313360f01b6020820152906001600160a01b0316331461151e5760405162461bcd60e51b81526004016108de919061250d565b506000828152600260208181526040928390206003015483518085019094529183527f31360000000000000000000000000000000000000000000000000000000000009083015260ff16156115865760405162461bcd60e51b81526004016108de919061250d565b506000611591611ad9565b905061159c81611c2e565b60008060009054906101000a90046001600160a01b03166001600160a01b031663313ce5676040518163ffffffff1660e01b8152600401602060405180830381865afa1580156115f0573d6000803e3d6000fd5b505050506040513d601f19601f82011682018060405250810190611614919061237f565b61161f90600a61249c565b6116356b033b2e3c9fd0803ce8000000856124ab565b61163f91906124d8565b60055490915060009061165c9083906001600160801b0316611def565b600086815260086020526040902054909150811061187a57600085815260086020526040812054600b8054919290916116969084906124fa565b909155505060055460008681526008602052604081205490916116c291906001600160801b0316611bea565b905060006b033b2e3c9fd0803ce80000006001600160801b031660008054906101000a90046001600160a01b03166001600160a01b031663313ce5676040518163ffffffff1660e01b8152600401602060405180830381865afa15801561172d573d6000803e3d6000fd5b505050506040513d601f19601f82011682018060405250810190611751919061237f565b61175c90600a61249c565b61176690846124ab565b61177091906124d8565b600088815260086020526040812081905590915061178e9080611c67565b6040808601516000898152600860205291909120546117ac91611def565b600a60008282546117bd9190612579565b9250508190555080600c60008282546117d69190612579565b90915550506000546040516323b872dd60e01b8152336004820152306024820152604481018390526001600160a01b03909116906323b872dd906064016020604051808303816000875af1158015611832573d6000803e3d6000fd5b505050506040513d601f19601f82011682018060405250810190611856919061255c565b5050506000858152600260205260409020600301805460ff19166001179055611984565b6000858152600860205260408120546118949083906124fa565b905081600b60008282546118a891906124fa565b909155505060008681526008602052604081208290556118c9908490611c67565b60408401516118d9908490611def565b600a60008282546118ea9190612579565b9250508190555084600c60008282546119039190612579565b90915550506000546040516323b872dd60e01b8152336004820152306024820152604481018790526001600160a01b03909116906323b872dd906064015b6020604051808303816000875af1158015611960573d6000803e3d6000fd5b505050506040513d601f19601f8201168201806040525081019061103e919061255c565b5050505050565b600354604080518082019091526002815261313360f01b6020820152906001600160a01b031633146119d05760405162461bcd60e51b81526004016108de919061250d565b506000818152600260208181526040928390206001015483518085019094529183527f31340000000000000000000000000000000000000000000000000000000000009083015260ff1615611a385760405162461bcd60e51b81526004016108de919061250d565b5060008181526002602081905260408083206001808201805460ff1916909117905592549290910154905163a9059cbb60e01b81526001600160a01b038581166004830152602482019290925291169063a9059cbb906044016020604051808303816000875af1158015611ab0573d6000803e3d6000fd5b505050506040513d601f19601f82011682018060405250810190611ad4919061255c565b505050565b611b2860405180610100016040528060008152602001600081526020016000815260200160008152602001600081526020016000815260200160008152602001600064ffffffffff1681525090565b611b7760405180610100016040528060008152602001600081526020016000815260200160008152602001600081526020016000815260200160008152602001600064ffffffffff1681525090565b6004546001600160801b03808216604084018190526020840152600554808216608085018190526060850152600160801b92839004821660a0850152919091041660c082015260065464ffffffffff1660e0820152600b548152919050565b6000611be3838342611ff5565b9392505050565b600081156b019d971e4fe8401e740000001983900484111517611c0c57600080fd5b506b033b2e3c9fd0803ce800000091026b019d971e4fe8401e74000000010490565b60065464ffffffffff428116911603611c445750565b611c4d81612121565b506006805464ffffffffff19164264ffffffffff16179055565b611c8b60405180606001604052806000815260200160008152602001600081525090565b6006546040805160808101825285815260208101859052600554600b546701000000000000009094046001600160a01b0316936356eaf26493830191611cda91906001600160801b0316611bea565b8152600454600a54602090920191611cfa916001600160801b0316611bea565b9052604080517fffffffff0000000000000000000000000000000000000000000000000000000060e085901b168152825160048201526020830151602482015290820151604482015260609091015160648201526084016040805180830381865afa158015611d6d573d6000803e3d6000fd5b505050506040513d601f19601f82011682018060405250810190611d9191906125a5565b6020830152808252611da290612204565b600480546001600160801b03928316600160801b0292169190911790556020810151611dcd90612204565b600580546001600160801b03928316600160801b029216919091179055505050565b600081156b033b2e3c9fd0803ce800000060028404190484111715611e1357600080fd5b506b033b2e3c9fd0803ce80000009190910260028204010490565b6000611e38611ad9565b9050611e4381611c2e565b60008060009054906101000a90046001600160a01b03166001600160a01b031663313ce5676040518163ffffffff1660e01b8152600401602060405180830381865afa158015611e97573d6000803e3d6000fd5b505050506040513d601f19601f82011682018060405250810190611ebb919061237f565b611ec690600a61249c565b611edc6b033b2e3c9fd0803ce8000000866124ab565b611ee691906124d8565b90506000611f038360400151600a54611bea90919063ffffffff16565b90506000611f2b82611f2586604001518686611f1f9190612579565b90611bea565b90611def565b9050611f3681612204565b600480546fffffffffffffffffffffffffffffffff19166001600160801b0392909216919091179055600c8054879190600090611f74908490612579565b90915550506000546040516323b872dd60e01b81526001600160a01b03878116600483015230602483015260448201899052909116906323b872dd90606401611941565b600080611fcc64ffffffffff8416426124fa565b611fd690856124ab565b6301e13380900490506113f9816b033b2e3c9fd0803ce8000000612579565b60008061200964ffffffffff8516846124fa565b905080600003612028576b033b2e3c9fd0803ce8000000915050611be3565b60001981016000808060028511612040576000612045565b600285035b925066038882915c40006120598a80611bea565b81612066576120666124c2565b0491506301e13380612078838b611bea565b81612085576120856124c2565b04905060008261209586886124ab565b61209f91906124ab565b600290049050600082856120b3888a6124ab565b6120bd91906124ab565b6120c791906124ab565b60069004905080826301e133806120de8a8f6124ab565b6120e891906124d8565b6120fe906b033b2e3c9fd0803ce8000000612579565b6121089190612579565b6121129190612579565b9b9a5050505050505050505050565b60a08101511561219357600061213f8260a001518360e00151611fb8565b9050612158826020015182611bea90919063ffffffff16565b6040830181905261216890612204565b600480546fffffffffffffffffffffffffffffffff19166001600160801b0392909216919091179055505b8051156113015760006121ae8260c001518360e00151611bd6565b90506121c7826060015182611bea90919063ffffffff16565b608083018190526121d790612204565b600580546fffffffffffffffffffffffffffffffff19166001600160801b03929092169190911790555050565b60006001600160801b03821115612251576040517f6dfcc65000000000000000000000000000000000000000000000000000000000815260806004820152602481018390526044016108de565b5090565b6001600160a01b038116811461130157600080fd5b60006020828403121561227c57600080fd5b8135611be381612255565b60006020828403121561229957600080fd5b5035919050565b801515811461130157600080fd5b600080600080608085870312156122c457600080fd5b843593506020850135925060408501356122dd81612255565b915060608501356122ed816122a0565b939692955090935050565b6000806040838503121561230b57600080fd5b823561231681612255565b9150602083013561232681612255565b809150509250929050565b6000806040838503121561234457600080fd5b50508035926020909101359150565b6000806040838503121561236657600080fd5b823561237181612255565b946020939093013593505050565b60006020828403121561239157600080fd5b815160ff81168114611be357600080fd5b634e487b7160e01b600052601160045260246000fd5b600181815b808511156123f35781600019048211156123d9576123d96123a2565b808516156123e657918102915b93841c93908002906123bd565b509250929050565b60008261240a5750600161110d565b816124175750600061110d565b816001811461242d576002811461243757612453565b600191505061110d565b60ff841115612448576124486123a2565b50506001821b61110d565b5060208310610133831016604e8410600b8410161715612476575081810a61110d565b61248083836123b8565b8060001904821115612494576124946123a2565b029392505050565b6000611be360ff8416836123fb565b808202811582820484141761110d5761110d6123a2565b634e487b7160e01b600052601260045260246000fd5b6000826124f557634e487b7160e01b600052601260045260246000fd5b500490565b8181038181111561110d5761110d6123a2565b60006020808352835180602085015260005b8181101561253b5785810183015185820160400152820161251f565b506000604082860101526040601f19601f8301168501019250505092915050565b60006020828403121561256e57600080fd5b8151611be3816122a0565b8082018082111561110d5761110d6123a2565b60ff828116828216039081111561110d5761110d6123a2565b600080604083850312156125b857600080fd5b50508051602090910151909290915056fea264697066735822122056cabc0e4aa0d10a18f051e18d5b168b9c8776fc9f8dea9bde66deb73b11568f64736f6c63430008180033",
  "linkReferences": {},
  "deployedLinkReferences": {}
}