{
  "_format": "hh-sol-artifact-1",
  "contractName": "CCFL",
  "sourceName": "contracts/CCFL.sol",
  "abi": [
    {
      "inputs": [],
      "name": "ERC1167FailedCreateClone",
      "type": "error"
    },
    {
      "inputs": [],
      "name": "InvalidInitialization",
      "type": "error"
    },
    {
      "inputs": [],
      "name": "NotInitializing",
      "type": "error"
    },
    {
      "anonymous": false,
      "inputs": [
        {
          "indexed": true,
          "internalType": "address",
          "name": "borrower",
          "type": "address"
        },
        {
          "components": [
            {
              "internalType": "uint256",
              "name": "loanId",
              "type": "uint256"
            },
            {
              "internalType": "bool",
              "name": "isPaid",
              "type": "bool"
            },
            {
              "internalType": "uint256",
              "name": "amount",
              "type": "uint256"
            },
            {
              "internalType": "bool",
              "name": "isClosed",
              "type": "bool"
            },
            {
              "internalType": "address",
              "name": "borrower",
              "type": "address"
            },
            {
              "internalType": "bool",
              "name": "isLiquidated",
              "type": "bool"
            },
            {
              "internalType": "contract IERC20Standard",
              "name": "stableCoin",
              "type": "address"
            },
            {
              "internalType": "bool",
              "name": "isFinalty",
              "type": "bool"
            },
            {
              "internalType": "bool",
              "name": "isFiat",
              "type": "bool"
            }
          ],
          "indexed": false,
          "internalType": "struct DataTypes.Loan",
          "name": "loanInfo",
          "type": "tuple"
        },
        {
          "indexed": false,
          "internalType": "uint256",
          "name": "collateralAmount",
          "type": "uint256"
        },
        {
          "indexed": false,
          "internalType": "contract IERC20Standard",
          "name": "collateral",
          "type": "address"
        },
        {
          "indexed": false,
          "internalType": "bool",
          "name": "isETH",
          "type": "bool"
        }
      ],
      "name": "AddCollateral",
      "type": "event"
    },
    {
      "anonymous": false,
      "inputs": [
        {
          "indexed": true,
          "internalType": "address",
          "name": "borrower",
          "type": "address"
        },
        {
          "indexed": false,
          "internalType": "address",
          "name": "loanAddress",
          "type": "address"
        },
        {
          "components": [
            {
              "internalType": "uint256",
              "name": "loanId",
              "type": "uint256"
            },
            {
              "internalType": "bool",
              "name": "isPaid",
              "type": "bool"
            },
            {
              "internalType": "uint256",
              "name": "amount",
              "type": "uint256"
            },
            {
              "internalType": "bool",
              "name": "isClosed",
              "type": "bool"
            },
            {
              "internalType": "address",
              "name": "borrower",
              "type": "address"
            },
            {
              "internalType": "bool",
              "name": "isLiquidated",
              "type": "bool"
            },
            {
              "internalType": "contract IERC20Standard",
              "name": "stableCoin",
              "type": "address"
            },
            {
              "internalType": "bool",
              "name": "isFinalty",
              "type": "bool"
            },
            {
              "internalType": "bool",
              "name": "isFiat",
              "type": "bool"
            }
          ],
          "indexed": false,
          "internalType": "struct DataTypes.Loan",
          "name": "loanInfo",
          "type": "tuple"
        },
        {
          "indexed": false,
          "internalType": "uint256",
          "name": "collateralAmount",
          "type": "uint256"
        },
        {
          "indexed": false,
          "internalType": "contract IERC20Standard",
          "name": "collateral",
          "type": "address"
        },
        {
          "indexed": false,
          "internalType": "bool",
          "name": "isYieldGenerating",
          "type": "bool"
        },
        {
          "indexed": false,
          "internalType": "bool",
          "name": "isETH",
          "type": "bool"
        }
      ],
      "name": "CreateLoan",
      "type": "event"
    },
    {
      "anonymous": false,
      "inputs": [
        {
          "indexed": false,
          "internalType": "uint64",
          "name": "version",
          "type": "uint64"
        }
      ],
      "name": "Initialized",
      "type": "event"
    },
    {
      "anonymous": false,
      "inputs": [
        {
          "indexed": true,
          "internalType": "address",
          "name": "liquidator",
          "type": "address"
        },
        {
          "indexed": true,
          "internalType": "address",
          "name": "borrower",
          "type": "address"
        },
        {
          "components": [
            {
              "internalType": "uint256",
              "name": "loanId",
              "type": "uint256"
            },
            {
              "internalType": "bool",
              "name": "isPaid",
              "type": "bool"
            },
            {
              "internalType": "uint256",
              "name": "amount",
              "type": "uint256"
            },
            {
              "internalType": "bool",
              "name": "isClosed",
              "type": "bool"
            },
            {
              "internalType": "address",
              "name": "borrower",
              "type": "address"
            },
            {
              "internalType": "bool",
              "name": "isLiquidated",
              "type": "bool"
            },
            {
              "internalType": "contract IERC20Standard",
              "name": "stableCoin",
              "type": "address"
            },
            {
              "internalType": "bool",
              "name": "isFinalty",
              "type": "bool"
            },
            {
              "internalType": "bool",
              "name": "isFiat",
              "type": "bool"
            }
          ],
          "indexed": false,
          "internalType": "struct DataTypes.Loan",
          "name": "loanInfo",
          "type": "tuple"
        },
        {
          "indexed": false,
          "internalType": "uint256",
          "name": "collateralAmount",
          "type": "uint256"
        },
        {
          "indexed": false,
          "internalType": "contract IERC20Standard",
          "name": "collateral",
          "type": "address"
        }
      ],
      "name": "Liquidate",
      "type": "event"
    },
    {
      "anonymous": false,
      "inputs": [
        {
          "indexed": true,
          "internalType": "address",
          "name": "borrower",
          "type": "address"
        },
        {
          "components": [
            {
              "internalType": "uint256",
              "name": "loanId",
              "type": "uint256"
            },
            {
              "internalType": "bool",
              "name": "isPaid",
              "type": "bool"
            },
            {
              "internalType": "uint256",
              "name": "amount",
              "type": "uint256"
            },
            {
              "internalType": "bool",
              "name": "isClosed",
              "type": "bool"
            },
            {
              "internalType": "address",
              "name": "borrower",
              "type": "address"
            },
            {
              "internalType": "bool",
              "name": "isLiquidated",
              "type": "bool"
            },
            {
              "internalType": "contract IERC20Standard",
              "name": "stableCoin",
              "type": "address"
            },
            {
              "internalType": "bool",
              "name": "isFinalty",
              "type": "bool"
            },
            {
              "internalType": "bool",
              "name": "isFiat",
              "type": "bool"
            }
          ],
          "indexed": false,
          "internalType": "struct DataTypes.Loan",
          "name": "loanInfo",
          "type": "tuple"
        },
        {
          "indexed": false,
          "internalType": "uint256",
          "name": "repayAmount",
          "type": "uint256"
        },
        {
          "indexed": false,
          "internalType": "uint256",
          "name": "debtRemain",
          "type": "uint256"
        }
      ],
      "name": "RepayLoan",
      "type": "event"
    },
    {
      "anonymous": false,
      "inputs": [
        {
          "indexed": true,
          "internalType": "address",
          "name": "borrower",
          "type": "address"
        },
        {
          "components": [
            {
              "internalType": "uint256",
              "name": "loanId",
              "type": "uint256"
            },
            {
              "internalType": "bool",
              "name": "isPaid",
              "type": "bool"
            },
            {
              "internalType": "uint256",
              "name": "amount",
              "type": "uint256"
            },
            {
              "internalType": "bool",
              "name": "isClosed",
              "type": "bool"
            },
            {
              "internalType": "address",
              "name": "borrower",
              "type": "address"
            },
            {
              "internalType": "bool",
              "name": "isLiquidated",
              "type": "bool"
            },
            {
              "internalType": "contract IERC20Standard",
              "name": "stableCoin",
              "type": "address"
            },
            {
              "internalType": "bool",
              "name": "isFinalty",
              "type": "bool"
            },
            {
              "internalType": "bool",
              "name": "isFiat",
              "type": "bool"
            }
          ],
          "indexed": false,
          "internalType": "struct DataTypes.Loan",
          "name": "loanInfo",
          "type": "tuple"
        },
        {
          "indexed": false,
          "internalType": "uint256",
          "name": "collateralAmount",
          "type": "uint256"
        },
        {
          "indexed": false,
          "internalType": "contract IERC20Standard",
          "name": "collateral",
          "type": "address"
        },
        {
          "indexed": false,
          "internalType": "bool",
          "name": "isETH",
          "type": "bool"
        }
      ],
      "name": "WithdrawAllCollateral",
      "type": "event"
    },
    {
      "anonymous": false,
      "inputs": [
        {
          "indexed": true,
          "internalType": "address",
          "name": "admin",
          "type": "address"
        },
        {
          "components": [
            {
              "internalType": "uint256",
              "name": "loanId",
              "type": "uint256"
            },
            {
              "internalType": "bool",
              "name": "isPaid",
              "type": "bool"
            },
            {
              "internalType": "uint256",
              "name": "amount",
              "type": "uint256"
            },
            {
              "internalType": "bool",
              "name": "isClosed",
              "type": "bool"
            },
            {
              "internalType": "address",
              "name": "borrower",
              "type": "address"
            },
            {
              "internalType": "bool",
              "name": "isLiquidated",
              "type": "bool"
            },
            {
              "internalType": "contract IERC20Standard",
              "name": "stableCoin",
              "type": "address"
            },
            {
              "internalType": "bool",
              "name": "isFinalty",
              "type": "bool"
            },
            {
              "internalType": "bool",
              "name": "isFiat",
              "type": "bool"
            }
          ],
          "indexed": false,
          "internalType": "struct DataTypes.Loan",
          "name": "loanInfo",
          "type": "tuple"
        },
        {
          "indexed": false,
          "internalType": "uint256",
          "name": "collateralAmount",
          "type": "uint256"
        },
        {
          "indexed": false,
          "internalType": "contract IERC20Standard",
          "name": "collateral",
          "type": "address"
        },
        {
          "indexed": false,
          "internalType": "bool",
          "name": "isETH",
          "type": "bool"
        }
      ],
      "name": "WithdrawAllCollateralByAdmin",
      "type": "event"
    },
    {
      "anonymous": false,
      "inputs": [
        {
          "indexed": true,
          "internalType": "address",
          "name": "borrower",
          "type": "address"
        },
        {
          "components": [
            {
              "internalType": "uint256",
              "name": "loanId",
              "type": "uint256"
            },
            {
              "internalType": "bool",
              "name": "isPaid",
              "type": "bool"
            },
            {
              "internalType": "uint256",
              "name": "amount",
              "type": "uint256"
            },
            {
              "internalType": "bool",
              "name": "isClosed",
              "type": "bool"
            },
            {
              "internalType": "address",
              "name": "borrower",
              "type": "address"
            },
            {
              "internalType": "bool",
              "name": "isLiquidated",
              "type": "bool"
            },
            {
              "internalType": "contract IERC20Standard",
              "name": "stableCoin",
              "type": "address"
            },
            {
              "internalType": "bool",
              "name": "isFinalty",
              "type": "bool"
            },
            {
              "internalType": "bool",
              "name": "isFiat",
              "type": "bool"
            }
          ],
          "indexed": false,
          "internalType": "struct DataTypes.Loan",
          "name": "loanInfo",
          "type": "tuple"
        }
      ],
      "name": "WithdrawLoan",
      "type": "event"
    },
    {
      "inputs": [
        {
          "internalType": "contract IERC20Standard",
          "name": "",
          "type": "address"
        }
      ],
      "name": "aTokens",
      "outputs": [
        {
          "internalType": "contract IERC20Standard",
          "name": "",
          "type": "address"
        }
      ],
      "stateMutability": "view",
      "type": "function"
    },
    {
      "inputs": [],
      "name": "aaveAddressProvider",
      "outputs": [
        {
          "internalType": "contract IPoolAddressesProvider",
          "name": "",
          "type": "address"
        }
      ],
      "stateMutability": "view",
      "type": "function"
    },
    {
      "inputs": [
        {
          "internalType": "uint256",
          "name": "_loanId",
          "type": "uint256"
        },
        {
          "internalType": "uint256",
          "name": "_amountCollateral",
          "type": "uint256"
        },
        {
          "internalType": "contract IERC20Standard",
          "name": "_collateral",
          "type": "address"
        }
      ],
      "name": "addCollateral",
      "outputs": [],
      "stateMutability": "nonpayable",
      "type": "function"
    },
    {
      "inputs": [
        {
          "internalType": "uint256",
          "name": "_loanId",
          "type": "uint256"
        },
        {
          "internalType": "uint256",
          "name": "_amountETH",
          "type": "uint256"
        }
      ],
      "name": "addCollateralByETH",
      "outputs": [],
      "stateMutability": "payable",
      "type": "function"
    },
    {
      "inputs": [
        {
          "internalType": "uint256",
          "name": "_loanId",
          "type": "uint256"
        },
        {
          "internalType": "uint256",
          "name": "_amountCollateral",
          "type": "uint256"
        }
      ],
      "name": "addCollateralHealthFactor",
      "outputs": [
        {
          "internalType": "uint256",
          "name": "",
          "type": "uint256"
        }
      ],
      "stateMutability": "view",
      "type": "function"
    },
    {
      "inputs": [
        {
          "internalType": "contract IERC20Standard",
          "name": "",
          "type": "address"
        }
      ],
      "name": "ccflActiveCollaterals",
      "outputs": [
        {
          "internalType": "bool",
          "name": "",
          "type": "bool"
        }
      ],
      "stateMutability": "view",
      "type": "function"
    },
    {
      "inputs": [
        {
          "internalType": "contract IERC20Standard",
          "name": "",
          "type": "address"
        }
      ],
      "name": "ccflActivePoolStableCoins",
      "outputs": [
        {
          "internalType": "bool",
          "name": "",
          "type": "bool"
        }
      ],
      "stateMutability": "view",
      "type": "function"
    },
    {
      "inputs": [],
      "name": "ccflLoan",
      "outputs": [
        {
          "internalType": "contract ICCFLLoan",
          "name": "",
          "type": "address"
        }
      ],
      "stateMutability": "view",
      "type": "function"
    },
    {
      "inputs": [
        {
          "internalType": "uint256",
          "name": "",
          "type": "uint256"
        }
      ],
      "name": "ccflPoolStableCoins",
      "outputs": [
        {
          "internalType": "contract IERC20Standard",
          "name": "",
          "type": "address"
        }
      ],
      "stateMutability": "view",
      "type": "function"
    },
    {
      "inputs": [
        {
          "internalType": "contract IERC20Standard",
          "name": "",
          "type": "address"
        }
      ],
      "name": "ccflPools",
      "outputs": [
        {
          "internalType": "contract ICCFLPool",
          "name": "",
          "type": "address"
        }
      ],
      "stateMutability": "view",
      "type": "function"
    },
    {
      "inputs": [
        {
          "internalType": "contract IERC20Standard[]",
          "name": "array",
          "type": "address[]"
        },
        {
          "internalType": "contract IERC20Standard",
          "name": "el",
          "type": "address"
        }
      ],
      "name": "checkExistElement",
      "outputs": [
        {
          "internalType": "bool",
          "name": "",
          "type": "bool"
        }
      ],
      "stateMutability": "pure",
      "type": "function"
    },
    {
      "inputs": [
        {
          "internalType": "uint256",
          "name": "_amount",
          "type": "uint256"
        },
        {
          "internalType": "contract IERC20Standard",
          "name": "_stableCoin",
          "type": "address"
        },
        {
          "internalType": "contract IERC20Standard",
          "name": "_collateral",
          "type": "address"
        }
      ],
      "name": "checkMinimalCollateralForLoan",
      "outputs": [
        {
          "internalType": "uint256",
          "name": "",
          "type": "uint256"
        }
      ],
      "stateMutability": "view",
      "type": "function"
    },
    {
      "inputs": [
        {
          "internalType": "uint256",
          "name": "",
          "type": "uint256"
        }
      ],
      "name": "collateralTokens",
      "outputs": [
        {
          "internalType": "contract IERC20Standard",
          "name": "",
          "type": "address"
        }
      ],
      "stateMutability": "view",
      "type": "function"
    },
    {
      "inputs": [
        {
          "internalType": "address",
          "name": "",
          "type": "address"
        },
        {
          "internalType": "contract IERC20Standard",
          "name": "",
          "type": "address"
        }
      ],
      "name": "collaterals",
      "outputs": [
        {
          "internalType": "uint256",
          "name": "",
          "type": "uint256"
        }
      ],
      "stateMutability": "view",
      "type": "function"
    },
    {
      "inputs": [
        {
          "internalType": "uint256",
          "name": "_amount",
          "type": "uint256"
        },
        {
          "internalType": "contract IERC20Standard",
          "name": "_stableCoin",
          "type": "address"
        },
        {
          "internalType": "uint256",
          "name": "_amountCollateral",
          "type": "uint256"
        },
        {
          "internalType": "contract IERC20Standard",
          "name": "_collateral",
          "type": "address"
        },
        {
          "internalType": "bool",
          "name": "_isYieldGenerating",
          "type": "bool"
        },
        {
          "internalType": "bool",
          "name": "_isFiat",
          "type": "bool"
        }
      ],
      "name": "createLoan",
      "outputs": [],
      "stateMutability": "nonpayable",
      "type": "function"
    },
    {
      "inputs": [
        {
          "internalType": "uint256",
          "name": "_amount",
          "type": "uint256"
        },
        {
          "internalType": "contract IERC20Standard",
          "name": "_stableCoin",
          "type": "address"
        },
        {
          "internalType": "uint256",
          "name": "_amountETH",
          "type": "uint256"
        },
        {
          "internalType": "bool",
          "name": "_isYieldGenerating",
          "type": "bool"
        },
        {
          "internalType": "bool",
          "name": "_isFiat",
          "type": "bool"
        }
      ],
      "name": "createLoanByETH",
      "outputs": [],
      "stateMutability": "payable",
      "type": "function"
    },
    {
      "inputs": [],
      "name": "earnBorrower",
      "outputs": [
        {
          "internalType": "uint256",
          "name": "",
          "type": "uint256"
        }
      ],
      "stateMutability": "view",
      "type": "function"
    },
    {
      "inputs": [],
      "name": "earnLender",
      "outputs": [
        {
          "internalType": "uint256",
          "name": "",
          "type": "uint256"
        }
      ],
      "stateMutability": "view",
      "type": "function"
    },
    {
      "inputs": [],
      "name": "earnPlatform",
      "outputs": [
        {
          "internalType": "uint256",
          "name": "",
          "type": "uint256"
        }
      ],
      "stateMutability": "view",
      "type": "function"
    },
    {
      "inputs": [],
      "name": "factory",
      "outputs": [
        {
          "internalType": "contract IUniswapV3Factory",
          "name": "",
          "type": "address"
        }
      ],
      "stateMutability": "view",
      "type": "function"
    },
    {
      "inputs": [
        {
          "internalType": "uint256",
          "name": "_loanId",
          "type": "uint256"
        }
      ],
      "name": "getHealthFactor",
      "outputs": [
        {
          "internalType": "uint256",
          "name": "",
          "type": "uint256"
        }
      ],
      "stateMutability": "view",
      "type": "function"
    },
    {
      "inputs": [
        {
          "internalType": "contract IERC20Standard",
          "name": "_stableCoin",
          "type": "address"
        },
        {
          "internalType": "bool",
          "name": "isPool",
          "type": "bool"
        }
      ],
      "name": "getLatestPrice",
      "outputs": [
        {
          "internalType": "uint256",
          "name": "",
          "type": "uint256"
        }
      ],
      "stateMutability": "view",
      "type": "function"
    },
    {
      "inputs": [
        {
          "internalType": "uint256",
          "name": "_loanId",
          "type": "uint256"
        }
      ],
      "name": "getLoanAddress",
      "outputs": [
        {
          "internalType": "address",
          "name": "",
          "type": "address"
        }
      ],
      "stateMutability": "view",
      "type": "function"
    },
    {
      "inputs": [
        {
          "internalType": "address",
          "name": "borrower",
          "type": "address"
        }
      ],
      "name": "getLoanIds",
      "outputs": [
        {
          "internalType": "uint256[]",
          "name": "",
          "type": "uint256[]"
        }
      ],
      "stateMutability": "view",
      "type": "function"
    },
    {
      "inputs": [
        {
          "internalType": "contract IERC20Standard[]",
          "name": "_ccflPoolStableCoin",
          "type": "address[]"
        },
        {
          "internalType": "contract AggregatorV3Interface[]",
          "name": "_poolAggregators",
          "type": "address[]"
        },
        {
          "internalType": "contract ICCFLPool[]",
          "name": "_ccflPools",
          "type": "address[]"
        },
        {
          "internalType": "contract IERC20Standard[]",
          "name": "_collateralTokens",
          "type": "address[]"
        },
        {
          "internalType": "contract AggregatorV3Interface[]",
          "name": "_collateralAggregators",
          "type": "address[]"
        },
        {
          "internalType": "contract IERC20Standard[]",
          "name": "_aTokens",
          "type": "address[]"
        },
        {
          "internalType": "contract IPoolAddressesProvider",
          "name": "_aaveAddressProvider",
          "type": "address"
        },
        {
          "internalType": "uint256",
          "name": "_maxLTV",
          "type": "uint256"
        },
        {
          "internalType": "uint256",
          "name": "_liquidationThreshold",
          "type": "uint256"
        },
        {
          "internalType": "contract ICCFLLoan",
          "name": "_ccflLoan",
          "type": "address"
        }
      ],
      "name": "initialize",
      "outputs": [],
      "stateMutability": "nonpayable",
      "type": "function"
    },
    {
      "inputs": [],
      "name": "isPaused",
      "outputs": [
        {
          "internalType": "bool",
          "name": "",
          "type": "bool"
        }
      ],
      "stateMutability": "view",
      "type": "function"
    },
    {
      "inputs": [
        {
          "internalType": "uint256",
          "name": "_loanId",
          "type": "uint256"
        }
      ],
      "name": "liquidate",
      "outputs": [],
      "stateMutability": "nonpayable",
      "type": "function"
    },
    {
      "inputs": [],
      "name": "liquidationThreshold",
      "outputs": [
        {
          "internalType": "uint256",
          "name": "",
          "type": "uint256"
        }
      ],
      "stateMutability": "view",
      "type": "function"
    },
    {
      "inputs": [],
      "name": "liquidator",
      "outputs": [
        {
          "internalType": "address",
          "name": "",
          "type": "address"
        }
      ],
      "stateMutability": "view",
      "type": "function"
    },
    {
      "inputs": [],
      "name": "loandIds",
      "outputs": [
        {
          "internalType": "uint256",
          "name": "",
          "type": "uint256"
        }
      ],
      "stateMutability": "view",
      "type": "function"
    },
    {
      "inputs": [],
      "name": "maxLTV",
      "outputs": [
        {
          "internalType": "uint256",
          "name": "",
          "type": "uint256"
        }
      ],
      "stateMutability": "view",
      "type": "function"
    },
    {
      "inputs": [
        {
          "internalType": "address",
          "name": "",
          "type": "address"
        }
      ],
      "name": "operators",
      "outputs": [
        {
          "internalType": "bool",
          "name": "",
          "type": "bool"
        }
      ],
      "stateMutability": "view",
      "type": "function"
    },
    {
      "inputs": [],
      "name": "owner",
      "outputs": [
        {
          "internalType": "address",
          "name": "",
          "type": "address"
        }
      ],
      "stateMutability": "view",
      "type": "function"
    },
    {
      "inputs": [],
      "name": "penaltyLender",
      "outputs": [
        {
          "internalType": "uint256",
          "name": "",
          "type": "uint256"
        }
      ],
      "stateMutability": "view",
      "type": "function"
    },
    {
      "inputs": [],
      "name": "penaltyLiquidator",
      "outputs": [
        {
          "internalType": "uint256",
          "name": "",
          "type": "uint256"
        }
      ],
      "stateMutability": "view",
      "type": "function"
    },
    {
      "inputs": [],
      "name": "penaltyPlatform",
      "outputs": [
        {
          "internalType": "uint256",
          "name": "",
          "type": "uint256"
        }
      ],
      "stateMutability": "view",
      "type": "function"
    },
    {
      "inputs": [],
      "name": "platform",
      "outputs": [
        {
          "internalType": "address",
          "name": "",
          "type": "address"
        }
      ],
      "stateMutability": "view",
      "type": "function"
    },
    {
      "inputs": [
        {
          "internalType": "contract IERC20Standard",
          "name": "",
          "type": "address"
        }
      ],
      "name": "priceFeeds",
      "outputs": [
        {
          "internalType": "contract AggregatorV3Interface",
          "name": "",
          "type": "address"
        }
      ],
      "stateMutability": "view",
      "type": "function"
    },
    {
      "inputs": [
        {
          "internalType": "contract IERC20Standard",
          "name": "",
          "type": "address"
        }
      ],
      "name": "pricePoolFeeds",
      "outputs": [
        {
          "internalType": "contract AggregatorV3Interface",
          "name": "",
          "type": "address"
        }
      ],
      "stateMutability": "view",
      "type": "function"
    },
    {
      "inputs": [],
      "name": "quoter",
      "outputs": [
        {
          "internalType": "contract IQuoterV2",
          "name": "",
          "type": "address"
        }
      ],
      "stateMutability": "view",
      "type": "function"
    },
    {
      "inputs": [
        {
          "internalType": "uint256",
          "name": "_loanId",
          "type": "uint256"
        },
        {
          "internalType": "uint256",
          "name": "_amount",
          "type": "uint256"
        }
      ],
      "name": "repayHealthFactor",
      "outputs": [
        {
          "internalType": "uint256",
          "name": "",
          "type": "uint256"
        }
      ],
      "stateMutability": "view",
      "type": "function"
    },
    {
      "inputs": [
        {
          "internalType": "uint256",
          "name": "_loanId",
          "type": "uint256"
        },
        {
          "internalType": "uint256",
          "name": "_amount",
          "type": "uint256"
        },
        {
          "internalType": "contract IERC20Standard",
          "name": "_stableCoin",
          "type": "address"
        }
      ],
      "name": "repayLoan",
      "outputs": [],
      "stateMutability": "nonpayable",
      "type": "function"
    },
    {
      "inputs": [
        {
          "internalType": "contract IPoolAddressesProvider",
          "name": "_aaveAddressProvider",
          "type": "address"
        }
      ],
      "name": "setAaveProvider",
      "outputs": [],
      "stateMutability": "nonpayable",
      "type": "function"
    },
    {
      "inputs": [
        {
          "internalType": "contract IERC20Standard",
          "name": "_token",
          "type": "address"
        },
        {
          "internalType": "bool",
          "name": "_isActived",
          "type": "bool"
        },
        {
          "internalType": "bool",
          "name": "_isPoolToken",
          "type": "bool"
        }
      ],
      "name": "setActiveToken",
      "outputs": [],
      "stateMutability": "nonpayable",
      "type": "function"
    },
    {
      "inputs": [
        {
          "internalType": "contract ICCFLLoan",
          "name": "_loan",
          "type": "address"
        }
      ],
      "name": "setCCFLLoan",
      "outputs": [],
      "stateMutability": "nonpayable",
      "type": "function"
    },
    {
      "inputs": [
        {
          "internalType": "contract IERC20Standard[]",
          "name": "_collateralTokens",
          "type": "address[]"
        },
        {
          "internalType": "contract AggregatorV3Interface[]",
          "name": "_collateralAggregators",
          "type": "address[]"
        },
        {
          "internalType": "contract IERC20Standard[]",
          "name": "_aTokens",
          "type": "address[]"
        }
      ],
      "name": "setCollaterals",
      "outputs": [],
      "stateMutability": "nonpayable",
      "type": "function"
    },
    {
      "inputs": [
        {
          "internalType": "uint256",
          "name": "_borrower",
          "type": "uint256"
        },
        {
          "internalType": "uint256",
          "name": "_platform",
          "type": "uint256"
        },
        {
          "internalType": "uint256",
          "name": "_lender",
          "type": "uint256"
        }
      ],
      "name": "setEarnShare",
      "outputs": [],
      "stateMutability": "nonpayable",
      "type": "function"
    },
    {
      "inputs": [
        {
          "internalType": "bool",
          "name": "_isActived",
          "type": "bool"
        }
      ],
      "name": "setEnableETHNative",
      "outputs": [],
      "stateMutability": "nonpayable",
      "type": "function"
    },
    {
      "inputs": [
        {
          "internalType": "address[]",
          "name": "_addresses",
          "type": "address[]"
        },
        {
          "internalType": "bool[]",
          "name": "_isActives",
          "type": "bool[]"
        }
      ],
      "name": "setOperators",
      "outputs": [],
      "stateMutability": "nonpayable",
      "type": "function"
    },
    {
      "inputs": [
        {
          "internalType": "bool",
          "name": "_paused",
          "type": "bool"
        }
      ],
      "name": "setPaused",
      "outputs": [],
      "stateMutability": "nonpayable",
      "type": "function"
    },
    {
      "inputs": [
        {
          "internalType": "uint256",
          "name": "_platform",
          "type": "uint256"
        },
        {
          "internalType": "uint256",
          "name": "_liquidator",
          "type": "uint256"
        },
        {
          "internalType": "uint256",
          "name": "_lender",
          "type": "uint256"
        }
      ],
      "name": "setPenalty",
      "outputs": [],
      "stateMutability": "nonpayable",
      "type": "function"
    },
    {
      "inputs": [
        {
          "internalType": "address",
          "name": "_liquidator",
          "type": "address"
        },
        {
          "internalType": "address",
          "name": "_platform",
          "type": "address"
        }
      ],
      "name": "setPlatformAddress",
      "outputs": [],
      "stateMutability": "nonpayable",
      "type": "function"
    },
    {
      "inputs": [
        {
          "internalType": "contract IERC20Standard[]",
          "name": "_ccflPoolStableCoin",
          "type": "address[]"
        },
        {
          "internalType": "contract AggregatorV3Interface[]",
          "name": "_poolAggregators",
          "type": "address[]"
        },
        {
          "internalType": "contract ICCFLPool[]",
          "name": "_ccflPools",
          "type": "address[]"
        }
      ],
      "name": "setPools",
      "outputs": [],
      "stateMutability": "nonpayable",
      "type": "function"
    },
    {
      "inputs": [
        {
          "internalType": "contract IV3SwapRouter",
          "name": "_swapRouter",
          "type": "address"
        },
        {
          "internalType": "contract IUniswapV3Factory",
          "name": "_factory",
          "type": "address"
        },
        {
          "internalType": "contract IQuoterV2",
          "name": "_quoter",
          "type": "address"
        }
      ],
      "name": "setSwapRouter",
      "outputs": [],
      "stateMutability": "nonpayable",
      "type": "function"
    },
    {
      "inputs": [
        {
          "internalType": "uint256",
          "name": "_maxLTV",
          "type": "uint256"
        },
        {
          "internalType": "uint256",
          "name": "_liquidationThreshold",
          "type": "uint256"
        }
      ],
      "name": "setThreshold",
      "outputs": [],
      "stateMutability": "nonpayable",
      "type": "function"
    },
    {
      "inputs": [
        {
          "internalType": "contract IWETH",
          "name": "_iWETH",
          "type": "address"
        }
      ],
      "name": "setWETH",
      "outputs": [],
      "stateMutability": "nonpayable",
      "type": "function"
    },
    {
      "inputs": [
        {
          "internalType": "address",
          "name": "",
          "type": "address"
        },
        {
          "internalType": "uint256",
          "name": "",
          "type": "uint256"
        }
      ],
      "name": "userLoans",
      "outputs": [
        {
          "internalType": "uint256",
          "name": "",
          "type": "uint256"
        }
      ],
      "stateMutability": "view",
      "type": "function"
    },
    {
      "inputs": [],
      "name": "wETH",
      "outputs": [
        {
          "internalType": "contract IWETH",
          "name": "",
          "type": "address"
        }
      ],
      "stateMutability": "view",
      "type": "function"
    },
    {
      "inputs": [
        {
          "internalType": "uint256",
          "name": "_loanId",
          "type": "uint256"
        },
        {
          "internalType": "bool",
          "name": "isETH",
          "type": "bool"
        }
      ],
      "name": "withdrawAllCollateral",
      "outputs": [],
      "stateMutability": "nonpayable",
      "type": "function"
    },
    {
      "inputs": [
        {
          "internalType": "uint256",
          "name": "_loanId",
          "type": "uint256"
        },
        {
          "internalType": "bool",
          "name": "isETH",
          "type": "bool"
        }
      ],
      "name": "withdrawAllCollateralByAdmin",
      "outputs": [],
      "stateMutability": "nonpayable",
      "type": "function"
    },
    {
      "inputs": [
        {
          "internalType": "contract IERC20Standard",
          "name": "_stableCoin",
          "type": "address"
        },
        {
          "internalType": "uint256",
          "name": "_loanId",
          "type": "uint256"
        }
      ],
      "name": "withdrawFiatLoan",
      "outputs": [],
      "stateMutability": "nonpayable",
      "type": "function"
    },
    {
      "inputs": [
        {
          "internalType": "contract IERC20Standard",
          "name": "_stableCoin",
          "type": "address"
        },
        {
          "internalType": "uint256",
          "name": "_loanId",
          "type": "uint256"
        }
      ],
      "name": "withdrawLoan",
      "outputs": [],
      "stateMutability": "nonpayable",
      "type": "function"
    },
    {
      "stateMutability": "payable",
      "type": "receive"
    }
  ],
  "bytecode": "0x608060405234801561001057600080fd5b50615c0780620000216000396000f3fe6080604052600436106103b15760003560e01c80638da5cb5b116101e7578063c6bbd5a71161010d578063ef3c5d25116100a0578063f43050351161006f578063f430503514610b7b578063f6597bbb14610b9b578063f8f126ff14610bb1578063fdb2b32c14610bd157600080fd5b8063ef3c5d2514610b05578063f242862114610b25578063f384bd0514610b45578063f3cf4ada14610b5b57600080fd5b8063e43b03d6116100dc578063e43b03d614610a60578063e51e119e14610a80578063e787ea2c14610ab5578063ec7be39d14610ae557600080fd5b8063c6bbd5a7146109ed578063cdaabe4114610a0d578063cff212e614610a2d578063d8bad5bd14610a4057600080fd5b8063b187bd2611610185578063b9c3620911610154578063b9c3620914610957578063c0d0154614610977578063c45a0155146109ad578063c694fdc1146109cd57600080fd5b8063b187bd26146108d3578063b3bffeaa146108f4578063b5dbde5f14610914578063b92dd9251461092757600080fd5b8063a58bab62116101c1578063a58bab6214610867578063a8700c3c1461087d578063a95d71321461089d578063af6a85c4146108b357600080fd5b80638da5cb5b146107db578063989397d4146107fb5780639dcb511a1461083157600080fd5b80634031234c116102d7578063611f347d1161026a5780636eb0fdd0116102395780636eb0fdd0146107655780636f43d3dd146107855780638ba02e1c146107a55780638ba2444e146107bb57600080fd5b8063611f347d146106d857806364b52097146106f85780636b64c885146107185780636cb0ab5e1461074557600080fd5b80634bde38c8116102a65780634bde38c8146106585780635b769f3c146106785780635c8edac4146106985780635f499ebc146106b857600080fd5b80634031234c146105e25780634046ebae146105f8578063415f124014610618578063474843ea1461063857600080fd5b80631bb514cf1161034f57806338ef67171161031e57806338ef6717146105565780633a0720e6146105765780633a2ad9ae1461058c5780633e108ad9146105ac57600080fd5b80631bb514cf146104e05780631d9eb5d91461050057806325e9d2fa1461052057806332df398e1461054057600080fd5b806313e7c9d81161038b57806313e7c9d81461042857806316c38b3c14610468578063172c48c71461048857806317845c69146104c057600080fd5b80630769594d146103bd578063101b9d31146103df57806310ac5c3c1461040857600080fd5b366103b857005b600080fd5b3480156103c957600080fd5b506103dd6103d8366004614f7f565b610c07565b005b3480156103eb57600080fd5b506103f5601a5481565b6040519081526020015b60405180910390f35b34801561041457600080fd5b506103dd610423366004615007565b610e15565b34801561043457600080fd5b50610458610443366004615052565b60016020526000908152604090205460ff1681565b60405190151581526020016103ff565b34801561047457600080fd5b506103dd610483366004615084565b610ea5565b34801561049457600080fd5b506104a86104a33660046150a1565b610f23565b6040516001600160a01b0390911681526020016103ff565b3480156104cc57600080fd5b506103f56104db3660046150a1565b610f4d565b3480156104ec57600080fd5b506103f56104fb3660046150ba565b6110cb565b34801561050c57600080fd5b5061045861051b3660046150e1565b611207565b34801561052c57600080fd5b506103f561053b366004615133565b611262565b34801561054c57600080fd5b506103f5601b5481565b34801561056257600080fd5b506103dd610571366004615052565b6113e2565b34801561058257600080fd5b506103f5601d5481565b34801561059857600080fd5b506103dd6105a7366004615160565b611455565b3480156105b857600080fd5b506104a86105c7366004615052565b600b602052600090815260409020546001600160a01b031681565b3480156105ee57600080fd5b506103f5600d5481565b34801561060457600080fd5b506013546104a8906001600160a01b031681565b34801561062457600080fd5b506103dd6106333660046150a1565b61163f565b34801561064457600080fd5b506103dd610653366004615052565b611db6565b34801561066457600080fd5b506014546104a8906001600160a01b031681565b34801561068457600080fd5b506103dd610693366004615052565b611e29565b3480156106a457600080fd5b506103dd6106b33660046151a0565b611e9c565b3480156106c457600080fd5b506103dd6106d3366004615084565b612147565b3480156106e457600080fd5b506103dd6106f33660046151c5565b6121ab565b34801561070457600080fd5b506103dd610713366004614f7f565b61258d565b34801561072457600080fd5b50610738610733366004615052565b61278a565b6040516103ff91906152f2565b34801561075157600080fd5b506103dd610760366004615336565b6127f6565b34801561077157600080fd5b506103dd610780366004615362565b612855565b34801561079157600080fd5b506103dd6107a0366004615390565b612f01565b3480156107b157600080fd5b506103f560025481565b3480156107c757600080fd5b506005546104a8906001600160a01b031681565b3480156107e757600080fd5b506015546104a8906001600160a01b031681565b34801561080757600080fd5b506104a8610816366004615052565b600f602052600090815260409020546001600160a01b031681565b34801561083d57600080fd5b506104a861084c366004615052565b600e602052600090815260409020546001600160a01b031681565b34801561087357600080fd5b506103f560195481565b34801561088957600080fd5b506103dd6108983660046153bc565b613175565b3480156108a957600080fd5b506103f5601c5481565b3480156108bf57600080fd5b506103dd6108ce3660046151a0565b6133ff565b3480156108df57600080fd5b5060165461045890600160a01b900460ff1681565b34801561090057600080fd5b506103f561090f36600461542c565b6134bd565b6103dd61092236600461545a565b6135be565b34801561093357600080fd5b50610458610942366004615052565b60076020526000908152604090205460ff1681565b34801561096357600080fd5b506103dd610972366004615133565b6138fd565b34801561098357600080fd5b506104a8610992366004615052565b6003602052600090815260409020546001600160a01b031681565b3480156109b957600080fd5b506011546104a8906001600160a01b031681565b3480156109d957600080fd5b506104a86109e83660046150a1565b613959565b3480156109f957600080fd5b506012546104a8906001600160a01b031681565b348015610a1957600080fd5b50600a546104a8906001600160a01b031681565b6103dd610a3b366004615133565b613969565b348015610a4c57600080fd5b506103f5610a5b366004615390565b613ceb565b348015610a6c57600080fd5b506103f5610a7b366004615133565b613d1c565b348015610a8c57600080fd5b506103f5610a9b3660046154b9565b600060208181529281526040808220909352908152205481565b348015610ac157600080fd5b50610458610ad0366004615052565b60096020526000908152604090205460ff1681565b348015610af157600080fd5b506103dd610b00366004615390565b613e91565b348015610b1157600080fd5b506103dd610b20366004615362565b613fd3565b348015610b3157600080fd5b506016546104a8906001600160a01b031681565b348015610b5157600080fd5b506103f5600c5481565b348015610b6757600080fd5b506103dd610b76366004615336565b6142db565b348015610b8757600080fd5b506103dd610b9636600461554f565b614337565b348015610ba757600080fd5b506103f560185481565b348015610bbd57600080fd5b506103dd610bcc3660046154b9565b6143f2565b348015610bdd57600080fd5b506104a8610bec3660046150a1565b6000908152600660205260409020546001600160a01b031690565b336000908152600160208181526040928390205483518085019094526002845261062760f31b9184019190915260ff16151514610c605760405162461bcd60e51b8152600401610c579190615611565b60405180910390fd5b5060005b8351811015610e0f576000848281518110610c8157610c81615660565b60200260200101519050610cef6004805480602002602001604051908101604052809291908181526020018280548015610ce457602002820191906000526020600020905b81546001600160a01b03168152600190910190602001808311610cc6575b505050505082611207565b1515600003610d4457600480546001810182556000919091527f8a35acfbc15ff81a39ae7d344fd709f28e8600b4aa8c65c6b64bfe7fe36bd19b0180546001600160a01b0319166001600160a01b0383161790555b828281518110610d5657610d56615660565b602002602001015160036000836001600160a01b03166001600160a01b0316815260200190815260200160002060006101000a8154816001600160a01b0302191690836001600160a01b03160217905550838281518110610db957610db9615660565b6020908102919091018101516001600160a01b039283166000908152600f8352604080822080546001600160a01b0319169590931694909417909155600790915220805460ff1916600190811790915501610c64565b50505050565b336000908152600160208181526040928390205483518085019094526002845261062760f31b9184019190915260ff16151514610e655760405162461bcd60e51b8152600401610c579190615611565b50601080546001600160a01b039485166001600160a01b031991821617909155601180549385169382169390931790925560128054919093169116179055565b6015546040805180820190915260018152601960f91b6020820152906001600160a01b03163314610ee95760405162461bcd60e51b8152600401610c579190615611565b5060168054911515600160a01b027fffffffffffffffffffffff00ffffffffffffffffffffffffffffffffffffffff909216919091179055565b60088181548110610f3357600080fd5b6000918252602090912001546001600160a01b0316905081565b600081815260066020526040808220548151635d3e2fa160e01b815291516001600160a01b039091169183918391635d3e2fa1916004808301926101209291908290030181865afa158015610fa6573d6000803e3d6000fd5b505050506040513d601f19601f82011682018060405250810190610fca919061568c565b60c08101516001600160a01b0390811660009081526003602052604080822054905163a52f38d160e01b815260048101899052939450909291169063a52f38d190602401602060405180830381865afa15801561102b573d6000803e3d6000fd5b505050506040513d601f19601f8201168201806040525081019061104f9190615734565b604051632696439560e11b815260048101829052600060248201529091506001600160a01b03841690634d2c872a90604401602060405180830381865afa15801561109e573d6000803e3d6000fd5b505050506040513d601f19601f820116820180604052508101906110c29190615734565b95945050505050565b60006110d88260006134bd565b612710846001600160a01b031663313ce5676040518163ffffffff1660e01b8152600401602060405180830381865afa158015611119573d6000803e3d6000fd5b505050506040513d601f19601f8201168201806040525081019061113d919061574d565b61114890600a61586a565b6111538660016134bd565b600c54866001600160a01b031663313ce5676040518163ffffffff1660e01b8152600401602060405180830381865afa158015611194573d6000803e3d6000fd5b505050506040513d601f19601f820116820180604052508101906111b8919061574d565b6111c390600a61586a565b6111cd908a615879565b6111d79190615879565b6111e19190615879565b6111eb9190615890565b6111f59190615890565b6111ff9190615890565b949350505050565b600080805b845181101561125857836001600160a01b031685828151811061123157611231615660565b60200260200101516001600160a01b0316036112505760019150611258565b60010161120c565b5090505b92915050565b600082815260066020526040808220548151635d3e2fa160e01b815291516001600160a01b039091169183918391635d3e2fa1916004808301926101209291908290030181865afa1580156112bb573d6000803e3d6000fd5b505050506040513d601f19601f820116820180604052508101906112df919061568c565b60c08101516001600160a01b0390811660009081526003602052604080822054905163a52f38d160e01b8152600481018a9052939450909291169063a52f38d190602401602060405180830381865afa158015611340573d6000803e3d6000fd5b505050506040513d601f19601f820116820180604052508101906113649190615734565b604051632696439560e11b815260048101829052602481018790529091506001600160a01b03841690634d2c872a906044015b602060405180830381865afa1580156113b4573d6000803e3d6000fd5b505050506040513d601f19601f820116820180604052508101906113d89190615734565b9695505050505050565b336000908152600160208181526040928390205483518085019094526002845261062760f31b9184019190915260ff161515146114325760405162461bcd60e51b8152600401610c579190615611565b50600a80546001600160a01b0319166001600160a01b0392909216919091179055565b336000908152600160208181526040928390205483518085019094526002845261062760f31b9184019190915260ff161515146114a55760405162461bcd60e51b8152600401610c579190615611565b50801561157757611510600480548060200260200160405190810160405280929190818152602001828054801561150557602002820191906000526020600020905b81546001600160a01b031681526001909101906020018083116114e7575b505050505084611207565b604080518082019091526001808252603560f81b6020830152909115151461154b5760405162461bcd60e51b8152600401610c579190615611565b506001600160a01b0383166000908152600960205260409020805483151560ff19909116179055505050565b6115d96008805480602002602001604051908101604052809291908181526020018280548015611505576020028201919060005260206000209081546001600160a01b031681526001909101906020018083116114e757505050505084611207565b604080518082019091526001808252603560f81b602083015290911515146116145760405162461bcd60e51b8152600401610c579190615611565b506001600160a01b0383166000908152600760205260409020805460ff19168315151790555b505050565b601654604080518082019091526002815261323160f01b602082015290600160a01b900460ff16156116845760405162461bcd60e51b8152600401610c579190615611565b50600081815260066020526040808220548151635d3e2fa160e01b815291516001600160a01b0390911692918391635d3e2fa191600480820192610120929091908290030181865afa1580156116de573d6000803e3d6000fd5b505050506040513d601f19601f82011682018060405250810190611702919061568c565b60c08101516001600160a01b0390811660009081526003602052604080822054905163a52f38d160e01b815260048101889052939450909291169063a52f38d190602401602060405180830381865afa158015611763573d6000803e3d6000fd5b505050506040513d601f19601f820116820180604052508101906117879190615734565b9050600080600080866001600160a01b031663415f1240866040518263ffffffff1660e01b81526004016117bd91815260200190565b6080604051808303816000875af11580156117dc573d6000803e3d6000fd5b505050506040513d601f19601f8201168201806040525081019061180091906158b2565b93509350935093508560c001516001600160a01b03166323b872dd883086888a61182a91906158e8565b61183491906158e8565b6040517fffffffff0000000000000000000000000000000000000000000000000000000060e086901b1681526001600160a01b03938416600482015292909116602483015260448201526064016020604051808303816000875af11580156118a0573d6000803e3d6000fd5b505050506040513d601f19601f820116820180604052508101906118c491906158fb565b5060c08601516001600160a01b039081166000818152600360205260409081902054905163095ea7b360e01b815292166004830152602482018790529063095ea7b3906044016020604051808303816000875af1158015611929573d6000803e3d6000fd5b505050506040513d601f19601f8201168201806040525081019061194d91906158fb565b5060c08601516001600160a01b039081166000908152600360205260409081902054905163d8aed14560e01b8152600481018b90526024810188905291169063d8aed14590604401600060405180830381600087803b1580156119af57600080fd5b505af11580156119c3573d6000803e3d6000fd5b5050505060c08601516014546040516323b872dd60e01b81526001600160a01b038a811660048301529182166024820152604481018590529116906323b872dd906064016020604051808303816000875af1158015611a26573d6000803e3d6000fd5b505050506040513d601f19601f82011682018060405250810190611a4a91906158fb565b5060c08601516013546040516323b872dd60e01b81526001600160a01b038a811660048301529182166024820152604481018490529116906323b872dd906064016020604051808303816000875af1158015611aaa573d6000803e3d6000fd5b505050506040513d601f19601f82011682018060405250810190611ace91906158fb565b5060c08601516001600160a01b03908116600081815260036020526040902054909163095ea7b39116611b0186886158e8565b6040517fffffffff0000000000000000000000000000000000000000000000000000000060e085901b1681526001600160a01b03909216600483015260248201526044016020604051808303816000875af1158015611b64573d6000803e3d6000fd5b505050506040513d601f19601f82011682018060405250810190611b8891906158fb565b5060c08601516001600160a01b03908116600090815260036020526040908190205490517f7f394031000000000000000000000000000000000000000000000000000000008152600481018b905260248101879052911690637f39403190604401600060405180830381600087803b158015611c0357600080fd5b505af1158015611c17573d6000803e3d6000fd5b505050506000831115611c975760c08601516001600160a01b03908116600090815260036020526040908190205490516326de36ff60e21b815260048101869052911690639b78dbfc90602401600060405180830381600087803b158015611c7e57600080fd5b505af1158015611c92573d6000803e3d6000fd5b505050505b85608001516001600160a01b0316336001600160a01b03167fd67dda2a46677451d1af5bdf1cca2fff304343d0c226a626583fa8e46f05f88b888a6001600160a01b031663315deeaa6040518163ffffffff1660e01b8152600401602060405180830381865afa158015611d0f573d6000803e3d6000fd5b505050506040513d601f19601f82011682018060405250810190611d339190615734565b8b6001600160a01b031663964236636040518163ffffffff1660e01b8152600401602060405180830381865afa158015611d71573d6000803e3d6000fd5b505050506040513d601f19601f82011682018060405250810190611d959190615918565b604051611da4939291906159cc565b60405180910390a35050505050505050565b336000908152600160208181526040928390205483518085019094526002845261062760f31b9184019190915260ff16151514611e065760405162461bcd60e51b8152600401610c579190615611565b50600580546001600160a01b0319166001600160a01b0392909216919091179055565b336000908152600160208181526040928390205483518085019094526002845261062760f31b9184019190915260ff16151514611e795760405162461bcd60e51b8152600401610c579190615611565b50601680546001600160a01b0319166001600160a01b0392909216919091179055565b601654604080518082019091526002815261323160f01b602082015290600160a01b900460ff1615611ee15760405162461bcd60e51b8152600401610c579190615611565b50600082815260066020526040808220548151635d3e2fa160e01b815291516001600160a01b0390911692918391635d3e2fa191600480820192610120929091908290030181865afa158015611f3b573d6000803e3d6000fd5b505050506040513d601f19601f82011682018060405250810190611f5f919061568c565b905080608001516001600160a01b0316336001600160a01b0316146040518060400160405280600281526020017f323200000000000000000000000000000000000000000000000000000000000081525090611fce5760405162461bcd60e51b8152600401610c579190615611565b5060808101516040516308165c1760e11b81526001600160a01b03918216600482015284151560248201529083169063102cb82e90604401600060405180830381600087803b15801561202057600080fd5b505af1158015612034573d6000803e3d6000fd5b50505050336001600160a01b03167f23206eb063144a4ad38015cfdddfde8f6c65a648d766d6efe3f524ba5b03bd2782846001600160a01b031663315deeaa6040518163ffffffff1660e01b8152600401602060405180830381865afa1580156120a2573d6000803e3d6000fd5b505050506040513d601f19601f820116820180604052508101906120c69190615734565b856001600160a01b031663964236636040518163ffffffff1660e01b8152600401602060405180830381865afa158015612104573d6000803e3d6000fd5b505050506040513d601f19601f820116820180604052508101906121289190615918565b8760405161213994939291906159fa565b60405180910390a250505050565b336000908152600160208181526040928390205483518085019094526002845261062760f31b9184019190915260ff161515146121975760405162461bcd60e51b8152600401610c579190615611565b50601e805460ff1916911515919091179055565b7ff0c57e16840df040f15088dc2f81fe391c3923bec73e23a9662efc9c229c6a00805468010000000000000000810460ff16159067ffffffffffffffff166000811580156121f65750825b905060008267ffffffffffffffff1660011480156122135750303b155b905081158015612221575080155b15612258576040517ff92ee8a900000000000000000000000000000000000000000000000000000000815260040160405180910390fd5b845467ffffffffffffffff19166001178555831561228c57845468ff00000000000000001916680100000000000000001785555b8e600490805190602001906122a2929190614d78565b50600160025560005b6004548110156123b0576000600482815481106122ca576122ca615660565b6000918252602090912001548f516001600160a01b0390911691508f90839081106122f7576122f7615660565b602002602001015160036000836001600160a01b03166001600160a01b0316815260200190815260200160002060006101000a8154816001600160a01b0302191690836001600160a01b031602179055508f828151811061235a5761235a615660565b6020908102919091018101516001600160a01b039283166000908152600f8352604080822080546001600160a01b0319169590931694909417909155600790915220805460ff19166001908117909155016122ab565b508b516123c49060089060208f0190614d78565b5060005b6008548110156124cd576000600882815481106123e7576123e7615660565b6000918252602090912001548d516001600160a01b0390911691508d908390811061241457612414615660565b6020026020010151600e6000836001600160a01b03166001600160a01b0316815260200190815260200160002060006101000a8154816001600160a01b0302191690836001600160a01b031602179055508b828151811061247757612477615660565b6020908102919091018101516001600160a01b039283166000908152600b8352604080822080546001600160a01b0319169590931694909417909155600990915220805460ff19166001908117909155016123c8565b50600a80546001600160a01b03199081166001600160a01b038c81169190911790925560058054821692891692909217909155600c899055600d88905560158054339216821790556000908152600160208190526040909120805460ff19169091179055831561257c57845468ff000000000000000019168555604051600181527fc7f505b2f371ae2175ee4913f4499e1f2633a7b5936321eed1cdaeb6115181d29060200160405180910390a15b505050505050505050505050505050565b336000908152600160208181526040928390205483518085019094526002845261062760f31b9184019190915260ff161515146125dd5760405162461bcd60e51b8152600401610c579190615611565b5060005b8351811015610e0f5760008482815181106125fe576125fe615660565b6020026020010151905061266a6008805480602002602001604051908101604052809291908181526020018280548015610ce4576020028201919060005260206000209081546001600160a01b03168152600190910190602001808311610cc657505050505082611207565b15156000036126bf57600880546001810182556000919091527ff3f7a9fe364faab93b216da50a3214154f22a0a2b415b23a84c8169e8b636ee30180546001600160a01b0319166001600160a01b0383161790555b8382815181106126d1576126d1615660565b6020026020010151600e6000836001600160a01b03166001600160a01b0316815260200190815260200160002060006101000a8154816001600160a01b0302191690836001600160a01b0316021790555082828151811061273457612734615660565b6020908102919091018101516001600160a01b039283166000908152600b8352604080822080546001600160a01b0319169590931694909417909155600990915220805460ff19166001908117909155016125e1565b6001600160a01b0381166000908152601760209081526040918290208054835181840281018401909452808452606093928301828280156127ea57602002820191906000526020600020905b8154815260200190600101908083116127d6575b50505050509050919050565b336000908152600160208181526040928390205483518085019094526002845261062760f31b9184019190915260ff161515146128465760405162461bcd60e51b8152600401610c579190615611565b50601d55601c91909155601b55565b6001600160a01b0381166000908152600760209081526040918290205482518084019093526001808452603360f81b9284019290925283929160ff9091161515146128b35760405162461bcd60e51b8152600401610c579190615611565b50601654604080518082019091526002815261323160f01b602082015290600160a01b900460ff16156128f95760405162461bcd60e51b8152600401610c579190615611565b506001600160a01b038281166000908152600360205260409081902054905163a52f38d160e01b8152600481018790528592919091169063a52f38d190602401602060405180830381865afa158015612956573d6000803e3d6000fd5b505050506040513d601f19601f8201168201806040525081019061297a9190615734565b841115612a00576001600160a01b038381166000908152600360205260409081902054905163a52f38d160e01b81526004810188905291169063a52f38d190602401602060405180830381865afa1580156129d9573d6000803e3d6000fd5b505050506040513d601f19601f820116820180604052508101906129fd9190615734565b90505b600085815260066020526040808220548151635d3e2fa160e01b815291516001600160a01b0390911692918391635d3e2fa191600480820192610120929091908290030181865afa158015612a59573d6000803e3d6000fd5b505050506040513d601f19601f82011682018060405250810190612a7d919061568c565b6040516323b872dd60e01b8152336004820152306024820152604481018590529091506001600160a01b038616906323b872dd906064016020604051808303816000875af1158015612ad3573d6000803e3d6000fd5b505050506040513d601f19601f82011682018060405250810190612af791906158fb565b506001600160a01b038581166000818152600360205260409081902054905163095ea7b360e01b815292166004830152602482018590529063095ea7b3906044016020604051808303816000875af1158015612b57573d6000803e3d6000fd5b505050506040513d601f19601f82011682018060405250810190612b7b91906158fb565b506001600160a01b038581166000908152600360205260409081902054905163d8aed14560e01b8152600481018a90526024810186905291169063d8aed14590604401600060405180830381600087803b158015612bd857600080fd5b505af1158015612bec573d6000803e3d6000fd5b505050506001600160a01b0385811660009081526003602052604080822054905163a52f38d160e01b8152600481018b90529192169063a52f38d190602401602060405180830381865afa158015612c48573d6000803e3d6000fd5b505050506040513d601f19601f82011682018060405250810190612c6c9190615734565b905080600003612eb2576000888152600660205260408082205481517f232fa733000000000000000000000000000000000000000000000000000000008152825184936001600160a01b039093169263232fa7339260048082019391829003018187875af1158015612ce2573d6000803e3d6000fd5b505050506040513d601f19601f82011682018060405250810190612d069190615a32565b90925090508115612e195760008a8152600660209081526040808320546001600160a01b038c81168086526003909452938290205491516323b872dd60e01b815290841660048201529216602483015260448201849052906323b872dd906064016020604051808303816000875af1158015612d86573d6000803e3d6000fd5b505050506040513d601f19601f82011682018060405250810190612daa91906158fb565b506001600160a01b03888116600090815260036020526040908190205490516326de36ff60e21b815260048101859052911690639b78dbfc90602401600060405180830381600087803b158015612e0057600080fd5b505af1158015612e14573d6000803e3d6000fd5b505050505b8015612eaf5760008a815260066020526040908190205460145491516323b872dd60e01b81526001600160a01b0391821660048201529181166024830152604482018390528916906323b872dd906064016020604051808303816000875af1158015612e89573d6000803e3d6000fd5b505050506040513d601f19601f82011682018060405250810190612ead91906158fb565b505b50505b336001600160a01b03167f60bbdbcc9ae47c9d5e165a6752e36cef569d4a6de3d2b399f9322d7c634041a0838984604051612eef93929190615a56565b60405180910390a25050505050505050565b336000908152600160208181526040928390205483518085019094526002845261062760f31b9184019190915260ff16151514612f515760405162461bcd60e51b8152600401610c579190615611565b50601654604080518082019091526002815261323160f01b602082015290600160a01b900460ff1615612f975760405162461bcd60e51b8152600401610c579190615611565b50600081815260066020526040808220548151635d3e2fa160e01b815291516001600160a01b0390911692918391635d3e2fa191600480820192610120929091908290030181865afa158015612ff1573d6000803e3d6000fd5b505050506040513d601f19601f82011682018060405250810190613015919061568c565b61010081015160408051808201909152600281527f3139000000000000000000000000000000000000000000000000000000000000602082015291925015156001146130745760405162461bcd60e51b8152600401610c579190615611565b506001600160a01b038481166000908152600360205260409081902054905163ec7be39d60e01b81523360048201526024810186905291169063ec7be39d906044015b600060405180830381600087803b1580156130d157600080fd5b505af11580156130e5573d6000803e3d6000fd5b50505050816001600160a01b031663fab320e96040518163ffffffff1660e01b8152600401600060405180830381600087803b15801561312457600080fd5b505af1158015613138573d6000803e3d6000fd5b50505050336001600160a01b03167f17177416dc9e9c18df48bdbc445b0e80b3ea7582cf5ba716df90dfef91fee39c826040516121399190615a78565b6001600160a01b0385166000908152600760209081526040918290205482518084019093526001808452603360f81b9284019290925287929160ff9091161515146131d35760405162461bcd60e51b8152600401610c579190615611565b506001600160a01b0384166000908152600960209081526040918290205482518084019093526001808452600d60fa1b9284019290925286929160ff9091161515146132325760405162461bcd60e51b8152600401610c579190615611565b50601654604080518082019091526002815261323160f01b602082015290600160a01b900460ff16156132785760405162461bcd60e51b8152600401610c579190615611565b50866001600160a01b031663313ce5676040518163ffffffff1660e01b8152600401602060405180830381865afa1580156132b7573d6000803e3d6000fd5b505050506040513d601f19601f820116820180604052508101906132db919061574d565b6132e690600a61586a565b6132f18860016134bd565b6132fb908a615879565b61330790612710615879565b6133119190615890565b856001600160a01b031663313ce5676040518163ffffffff1660e01b8152600401602060405180830381865afa15801561334f573d6000803e3d6000fd5b505050506040513d601f19601f82011682018060405250810190613373919061574d565b61337e90600a61586a565b600c5461338c8860006134bd565b613396908a615879565b6133a09190615879565b6133aa9190615890565b1015604051806040016040528060018152602001603760f81b815250906133e45760405162461bcd60e51b8152600401610c579190615611565b506133f58888888888886000614471565b5050505050505050565b6015546040805180820190915260018152601960f91b6020820152906001600160a01b031633146134435760405162461bcd60e51b8152600401610c579190615611565b50600082815260066020526040908190205490516308165c1760e11b815233600482015282151560248201526001600160a01b0390911690819063102cb82e90604401600060405180830381600087803b1580156134a057600080fd5b505af11580156134b4573d6000803e3d6000fd5b50505050505050565b6000811515810361355e576001600160a01b038084166000908152600e6020526040808220548151633fabe5a360e21b8152915192938493849384938493169163feaf968c9160048082019260a0929091908290030181865afa158015613528573d6000803e3d6000fd5b505050506040513d601f19601f8201168201806040525081019061354c9190615aa1565b5091985061125c975050505050505050565b6001600160a01b038084166000908152600f6020526040808220548151633fabe5a360e21b8152915192938493849384938493169163feaf968c9160048082019260a0929091908290030181865afa158015613528573d6000803e3d6000fd5b6001600160a01b0384166000908152600760209081526040918290205482518084019093526001808452603360f81b9284019290925286929160ff90911615151461361c5760405162461bcd60e51b8152600401610c579190615611565b50601e54604080518082019091526002815261032360f41b60208201529060ff16151560011461365f5760405162461bcd60e51b8152600401610c579190615611565b50601654604080518082019091526002815261323160f01b602082015290600160a01b900460ff16156136a55760405162461bcd60e51b8152600401610c579190615611565b506040805180820190915260018152601b60f91b6020820152348511156136df5760405162461bcd60e51b8152600401610c579190615611565b50601660009054906101000a90046001600160a01b03166001600160a01b031663d0e30db0856040518263ffffffff1660e01b81526004016000604051808303818588803b15801561373057600080fd5b505af1158015613744573d6000803e3d6000fd5b5050505050846001600160a01b031663313ce5676040518163ffffffff1660e01b8152600401602060405180830381865afa158015613787573d6000803e3d6000fd5b505050506040513d601f19601f820116820180604052508101906137ab919061574d565b6137b690600a61586a565b6137c18660016134bd565b6137cb9088615879565b6137d790612710615879565b6137e19190615890565b601660009054906101000a90046001600160a01b03166001600160a01b031663313ce5676040518163ffffffff1660e01b8152600401602060405180830381865afa158015613834573d6000803e3d6000fd5b505050506040513d601f19601f82011682018060405250810190613858919061574d565b61386390600a61586a565b600c5460165461387d906001600160a01b031660006134bd565b6138879088615879565b6138919190615879565b61389b9190615890565b1015604051806040016040528060018152602001603760f81b815250906138d55760405162461bcd60e51b8152600401610c579190615611565b506016546138f5908790879087906001600160a01b031687876000614471565b505050505050565b336000908152600160208181526040928390205483518085019094526002845261062760f31b9184019190915260ff1615151461394d5760405162461bcd60e51b8152600401610c579190615611565b50600c91909155600d55565b60048181548110610f3357600080fd5b601e54604080518082019091526002815261032360f41b60208201529060ff1615156001146139ab5760405162461bcd60e51b8152600401610c579190615611565b50601654604080518082019091526002815261323160f01b602082015290600160a01b900460ff16156139f15760405162461bcd60e51b8152600401610c579190615611565b506040805180820190915260018152601b60f91b602082015234821115613a2b5760405162461bcd60e51b8152600401610c579190615611565b50601660009054906101000a90046001600160a01b03166001600160a01b031663d0e30db0826040518263ffffffff1660e01b81526004016000604051808303818588803b158015613a7c57600080fd5b505af1158015613a90573d6000803e3d6000fd5b505050600084815260066020526040808220548151635d3e2fa160e01b815291516001600160a01b0390911694509192508391635d3e2fa191600480820192610120929091908290030181865afa158015613aef573d6000803e3d6000fd5b505050506040513d601f19601f82011682018060405250810190613b13919061568c565b604051633390ef1360e11b8152600481018590529091506001600160a01b03831690636721de2690602401600060405180830381600087803b158015613b5857600080fd5b505af1158015613b6c573d6000803e3d6000fd5b505060165460405163a9059cbb60e01b81526001600160a01b03868116600483015260248201889052909116925063a9059cbb91506044016020604051808303816000875af1158015613bc3573d6000803e3d6000fd5b505050506040513d601f19601f82011682018060405250810190613be791906158fb565b50816001600160a01b0316631c783def6040518163ffffffff1660e01b8152600401602060405180830381865afa158015613c26573d6000803e3d6000fd5b505050506040513d601f19601f82011682018060405250810190613c4a91906158fb565b1515600103613ca757816001600160a01b03166307a6bf696040518163ffffffff1660e01b8152600401600060405180830381600087803b158015613c8e57600080fd5b505af1158015613ca2573d6000803e3d6000fd5b505050505b60165460405133917fae6907a71a3704b591c11a28209aad9c070726b192f3e7300e88562322955d689161213991859188916001600160a01b0316906001906159fa565b60176020528160005260406000208181548110613d0757600080fd5b90600052602060002001600091509150505481565b600082815260066020526040808220548151635d3e2fa160e01b815291516001600160a01b039091169183918391635d3e2fa1916004808301926101209291908290030181865afa158015613d75573d6000803e3d6000fd5b505050506040513d601f19601f82011682018060405250810190613d99919061568c565b60c08101516001600160a01b0390811660009081526003602052604080822054905163a52f38d160e01b8152600481018a9052939450909291169063a52f38d190602401602060405180830381865afa158015613dfa573d6000803e3d6000fd5b505050506040513d601f19601f82011682018060405250810190613e1e9190615734565b9050808510613e35576201869f935050505061125c565b6001600160a01b038316634d2c872a613e4e8784615af1565b6040517fffffffff0000000000000000000000000000000000000000000000000000000060e084901b168152600481019190915260006024820152604401611397565b600081815260066020526040808220548151635d3e2fa160e01b815291516001600160a01b0390911692918391635d3e2fa191600480820192610120929091908290030181865afa158015613eea573d6000803e3d6000fd5b505050506040513d601f19601f82011682018060405250810190613f0e919061568c565b60808101519091506001600160a01b031633148015613f305750610100810151155b6040518060400160405280600181526020017f390000000000000000000000000000000000000000000000000000000000000081525090613f845760405162461bcd60e51b8152600401610c579190615611565b506001600160a01b0384811660009081526003602052604090819020546080840151915163ec7be39d60e01b81529183166004830152602482018690529091169063ec7be39d906044016130b7565b6001600160a01b0381166000908152600960209081526040918290205482518084019093526001808452600d60fa1b9284019290925283929160ff9091161515146140315760405162461bcd60e51b8152600401610c579190615611565b50601654604080518082019091526002815261323160f01b602082015290600160a01b900460ff16156140775760405162461bcd60e51b8152600401610c579190615611565b50600084815260066020526040808220548151635d3e2fa160e01b815291516001600160a01b0390911692918391635d3e2fa191600480820192610120929091908290030181865afa1580156140d1573d6000803e3d6000fd5b505050506040513d601f19601f820116820180604052508101906140f5919061568c565b604051633390ef1360e11b8152600481018790529091506001600160a01b03831690636721de2690602401600060405180830381600087803b15801561413a57600080fd5b505af115801561414e573d6000803e3d6000fd5b50506040516323b872dd60e01b81523360048201526001600160a01b03858116602483015260448201899052871692506323b872dd91506064016020604051808303816000875af11580156141a7573d6000803e3d6000fd5b505050506040513d601f19601f820116820180604052508101906141cb91906158fb565b50816001600160a01b0316631c783def6040518163ffffffff1660e01b8152600401602060405180830381865afa15801561420a573d6000803e3d6000fd5b505050506040513d601f19601f8201168201806040525081019061422e91906158fb565b151560010361428b57816001600160a01b03166307a6bf696040518163ffffffff1660e01b8152600401600060405180830381600087803b15801561427257600080fd5b505af1158015614286573d6000803e3d6000fd5b505050505b336001600160a01b03167fae6907a71a3704b591c11a28209aad9c070726b192f3e7300e88562322955d6882878760006040516142cb94939291906159fa565b60405180910390a2505050505050565b336000908152600160208181526040928390205483518085019094526002845261062760f31b9184019190915260ff1615151461432b5760405162461bcd60e51b8152600401610c579190615611565b50601a55601955601855565b6015546040805180820190915260018152601960f91b6020820152906001600160a01b0316331461437b5760405162461bcd60e51b8152600401610c579190615611565b5060005b825181101561163a5781818151811061439a5761439a615660565b6020026020010151600160008584815181106143b8576143b8615660565b6020908102919091018101516001600160a01b03168252810191909152604001600020805460ff191691151591909117905560010161437f565b336000908152600160208181526040928390205483518085019094526002845261062760f31b9184019190915260ff161515146144425760405162461bcd60e51b8152600401610c579190615611565b50601380546001600160a01b039384166001600160a01b03199182161790915560148054929093169116179055565b6001600160a01b038087166000908152600360209081526040918290205482517f3b24cc2100000000000000000000000000000000000000000000000000000000815292518b949190911692633b24cc219260048083019391928290030181865afa1580156144e4573d6000803e3d6000fd5b505050506040513d601f19601f820116820180604052508101906145089190615734565b10156040518060400160405280600181526020017f38000000000000000000000000000000000000000000000000000000000000008152509061455e5760405162461bcd60e51b8152600401610c579190615611565b506040805161012081018252600060208083018290526060830182905260a0830182905260e0830182905233608084018181528486018d815260025486526001600160a01b038d811660c088018190528a1515610100890190815290875260039095529487902054865191519251945197517f3870862b0000000000000000000000000000000000000000000000000000000081526004810192909252602482019290925292841660448401529415156064830152929390911690633870862b90608401600060405180830381600087803b15801561463c57600080fd5b505af1158015614650573d6000803e3d6000fd5b5050506001600160a01b03808a166000908152600f6020526040812054600554908316935089926146819116614ced565b90506000819050806001600160a01b03166368b86bc28785600a60009054906101000a90046001600160a01b0316600b6000896001600160a01b03166001600160a01b0316815260200190815260200160002060009054906101000a90046001600160a01b0316600c54600d54600e60008c6001600160a01b03166001600160a01b0316815260200190815260200160002060009054906101000a90046001600160a01b03168c601660009054906101000a90046001600160a01b03166040518a63ffffffff1660e01b815260040161476299989796959493929190615b04565b600060405180830381600087803b15801561477c57600080fd5b505af1158015614790573d6000803e3d6000fd5b50506040517f8ac1b7750000000000000000000000000000000000000000000000000000000081523060048201526001600160a01b0384169250638ac1b7759150602401600060405180830381600087803b1580156147ee57600080fd5b505af1158015614802573d6000803e3d6000fd5b50506010546011546012546040517f10ac5c3c0000000000000000000000000000000000000000000000000000000081526001600160a01b03938416600482015291831660248301528216604482015290841692506310ac5c3c9150606401600060405180830381600087803b15801561487b57600080fd5b505af115801561488f573d6000803e3d6000fd5b5050601c54601b54601d546040517f6cb0ab5e0000000000000000000000000000000000000000000000000000000081526004810193909352602483019190915260448201526001600160a01b0384169250636cb0ab5e9150606401600060405180830381600087803b15801561490557600080fd5b505af1158015614919573d6000803e3d6000fd5b5050601854601954601a546040517ff3cf4ada0000000000000000000000000000000000000000000000000000000081526004810193909352602483019190915260448201526001600160a01b038416925063f3cf4ada9150606401600060405180830381600087803b15801561498f57600080fd5b505af11580156149a3573d6000803e3d6000fd5b50505050861515600003614a8a57604051633390ef1360e11b8152600481018c90526001600160a01b03821690636721de2690602401600060405180830381600087803b1580156149f357600080fd5b505af1158015614a07573d6000803e3d6000fd5b50506040516323b872dd60e01b81523360048201526001600160a01b038581166024830152604482018f90528d1692506323b872dd91506064016020604051808303816000875af1158015614a60573d6000803e3d6000fd5b505050506040513d601f19601f82011682018060405250810190614a8491906158fb565b50614b6f565b604051633390ef1360e11b8152600481018c90526001600160a01b03821690636721de2690602401600060405180830381600087803b158015614acc57600080fd5b505af1158015614ae0573d6000803e3d6000fd5b505060165460405163a9059cbb60e01b81526001600160a01b03909116925063a9059cbb9150614b2a9085908f906004016001600160a01b03929092168252602082015260400190565b6020604051808303816000875af1158015614b49573d6000803e3d6000fd5b505050506040513d601f19601f82011682018060405250810190614b6d91906158fb565b505b881515600103614bcd57806001600160a01b03166307a6bf696040518163ffffffff1660e01b8152600401600060405180830381600087803b158015614bb457600080fd5b505af1158015614bc8573d6000803e3d6000fd5b505050505b8060066000600254815260200190815260200160002060006101000a8154816001600160a01b0302191690836001600160a01b0316021790555060176000336001600160a01b03166001600160a01b031681526020019081526020016000206002549080600181540180825580915050600190039060005260206000200160009091909190915055336001600160a01b03167f26db8b4d10bdab54a143e26d61e39b0eb3f4582570ee270cf254aaaea4f8068c60066000600254815260200190815260200160002060009054906101000a90046001600160a01b0316888e8e8e8d15604051614cc196959493929190615b6a565b60405180910390a260028054906000614cd983615bb8565b919050555050505050505050505050505050565b6000763d602d80600a3d3981f3363d3d373d3d3d363d730000008260601b60e81c176000526e5af43d82803e903d91602b57fd5bf38260781b17602052603760096000f090506001600160a01b038116614d73576040517fc2f868f400000000000000000000000000000000000000000000000000000000815260040160405180910390fd5b919050565b828054828255906000526020600020908101928215614dcd579160200282015b82811115614dcd57825182546001600160a01b0319166001600160a01b03909116178255602090920191600190910190614d98565b50614dd9929150614ddd565b5090565b5b80821115614dd95760008155600101614dde565b634e487b7160e01b600052604160045260246000fd5b604051610120810167ffffffffffffffff81118282101715614e2c57614e2c614df2565b60405290565b604051601f8201601f1916810167ffffffffffffffff81118282101715614e5b57614e5b614df2565b604052919050565b600067ffffffffffffffff821115614e7d57614e7d614df2565b5060051b60200190565b6001600160a01b0381168114614e9c57600080fd5b50565b600082601f830112614eb057600080fd5b81356020614ec5614ec083614e63565b614e32565b8083825260208201915060208460051b870101935086841115614ee757600080fd5b602086015b84811015614f0c578035614eff81614e87565b8352918301918301614eec565b509695505050505050565b600082601f830112614f2857600080fd5b81356020614f38614ec083614e63565b8083825260208201915060208460051b870101935086841115614f5a57600080fd5b602086015b84811015614f0c578035614f7281614e87565b8352918301918301614f5f565b600080600060608486031215614f9457600080fd5b833567ffffffffffffffff80821115614fac57600080fd5b614fb887838801614e9f565b94506020860135915080821115614fce57600080fd5b614fda87838801614f17565b93506040860135915080821115614ff057600080fd5b50614ffd86828701614e9f565b9150509250925092565b60008060006060848603121561501c57600080fd5b833561502781614e87565b9250602084013561503781614e87565b9150604084013561504781614e87565b809150509250925092565b60006020828403121561506457600080fd5b813561506f81614e87565b9392505050565b8015158114614e9c57600080fd5b60006020828403121561509657600080fd5b813561506f81615076565b6000602082840312156150b357600080fd5b5035919050565b6000806000606084860312156150cf57600080fd5b83359250602084013561503781614e87565b600080604083850312156150f457600080fd5b823567ffffffffffffffff81111561510b57600080fd5b61511785828601614e9f565b925050602083013561512881614e87565b809150509250929050565b6000806040838503121561514657600080fd5b50508035926020909101359150565b8035614d7381614e87565b60008060006060848603121561517557600080fd5b833561518081614e87565b9250602084013561519081615076565b9150604084013561504781615076565b600080604083850312156151b357600080fd5b82359150602083013561512881615076565b6000806000806000806000806000806101408b8d0312156151e557600080fd5b8a3567ffffffffffffffff808211156151fd57600080fd5b6152098e838f01614e9f565b9b5060208d013591508082111561521f57600080fd5b61522b8e838f01614f17565b9a5060408d013591508082111561524157600080fd5b61524d8e838f01614e9f565b995060608d013591508082111561526357600080fd5b61526f8e838f01614e9f565b985060808d013591508082111561528557600080fd5b6152918e838f01614f17565b975060a08d01359150808211156152a757600080fd5b506152b48d828e01614e9f565b9550506152c360c08c01615155565b935060e08b013592506101008b013591506152e16101208c01615155565b90509295989b9194979a5092959850565b6020808252825182820181905260009190848201906040850190845b8181101561532a5783518352928401929184019160010161530e565b50909695505050505050565b60008060006060848603121561534b57600080fd5b505081359360208301359350604090920135919050565b60008060006060848603121561537757600080fd5b8335925060208401359150604084013561504781614e87565b600080604083850312156153a357600080fd5b82356153ae81614e87565b946020939093013593505050565b60008060008060008060c087890312156153d557600080fd5b8635955060208701356153e781614e87565b94506040870135935060608701356153fe81614e87565b9250608087013561540e81615076565b915060a087013561541e81615076565b809150509295509295509295565b6000806040838503121561543f57600080fd5b823561544a81614e87565b9150602083013561512881615076565b600080600080600060a0868803121561547257600080fd5b85359450602086013561548481614e87565b935060408601359250606086013561549b81615076565b915060808601356154ab81615076565b809150509295509295909350565b600080604083850312156154cc57600080fd5b82356154d781614e87565b9150602083013561512881614e87565b600082601f8301126154f857600080fd5b81356020615508614ec083614e63565b8083825260208201915060208460051b87010193508684111561552a57600080fd5b602086015b84811015614f0c57803561554281615076565b835291830191830161552f565b6000806040838503121561556257600080fd5b823567ffffffffffffffff8082111561557a57600080fd5b818501915085601f83011261558e57600080fd5b8135602061559e614ec083614e63565b82815260059290921b840181019181810190898411156155bd57600080fd5b948201945b838610156155e45785356155d581614e87565b825294820194908201906155c2565b965050860135925050808211156155fa57600080fd5b50615607858286016154e7565b9150509250929050565b60006020808352835180602085015260005b8181101561563f57858101830151858201604001528201615623565b506000604082860101526040601f19601f8301168501019250505092915050565b634e487b7160e01b600052603260045260246000fd5b8051614d7381615076565b8051614d7381614e87565b6000610120828403121561569f57600080fd5b6156a7614e08565b825181526156b760208401615676565b6020820152604083015160408201526156d260608401615676565b60608201526156e360808401615681565b60808201526156f460a08401615676565b60a082015261570560c08401615681565b60c082015261571660e08401615676565b60e0820152610100615729818501615676565b908201529392505050565b60006020828403121561574657600080fd5b5051919050565b60006020828403121561575f57600080fd5b815160ff8116811461506f57600080fd5b634e487b7160e01b600052601160045260246000fd5b600181815b808511156157c15781600019048211156157a7576157a7615770565b808516156157b457918102915b93841c939080029061578b565b509250929050565b6000826157d85750600161125c565b816157e55750600061125c565b81600181146157fb576002811461580557615821565b600191505061125c565b60ff84111561581657615816615770565b50506001821b61125c565b5060208310610133831016604e8410600b8410161715615844575081810a61125c565b61584e8383615786565b806000190482111561586257615862615770565b029392505050565b600061506f60ff8416836157c9565b808202811582820484141761125c5761125c615770565b6000826158ad57634e487b7160e01b600052601260045260246000fd5b500490565b600080600080608085870312156158c857600080fd5b505082516020840151604085015160609095015191969095509092509050565b8082018082111561125c5761125c615770565b60006020828403121561590d57600080fd5b815161506f81615076565b60006020828403121561592a57600080fd5b815161506f81614e87565b8051825260208101511515602083015260408101516040830152606081015115156060830152608081015161597560808401826001600160a01b03169052565b5060a081015161598960a084018215159052565b5060c08101516159a460c08401826001600160a01b03169052565b5060e08101516159b860e084018215159052565b506101008181015180151584830152610e0f565b61016081016159db8286615935565b836101208301526001600160a01b038316610140830152949350505050565b6101808101615a098287615935565b846101208301526001600160a01b03841661014083015282151561016083015295945050505050565b60008060408385031215615a4557600080fd5b505080516020909101519092909150565b6101608101615a658286615935565b6101208201939093526101400152919050565b610120810161125c8284615935565b805169ffffffffffffffffffff81168114614d7357600080fd5b600080600080600060a08688031215615ab957600080fd5b615ac286615a87565b9450602086015193506040860151925060608601519150615ae560808701615a87565b90509295509295909350565b8181038181111561125c5761125c615770565b6102208101615b13828c615935565b6001600160a01b03998a166101208301529789166101408201529588166101608701526101808601949094526101a085019290925285166101c084015284166101e083015290921661020090920191909152919050565b6001600160a01b0387811682526101c0820190615b8a6020840189615935565b86610140840152808616610160840152508315156101808301528215156101a0830152979650505050505050565b600060018201615bca57615bca615770565b506001019056fea2646970667358221220d425228af99e8c29cf614440cba18c957abdc3c384a2050c04d81d56c530a89164736f6c63430008180033",
  "linkReferences": {},
  "deployedLinkReferences": {}
}