{
  "_format": "hh-sol-artifact-1",
  "contractName": "CCFL",
  "sourceName": "contracts/CCFL.sol",
  "abi": [
    {
      "inputs": [],
      "name": "ERC1167FailedCreateClone",
      "type": "error"
    },
    {
      "inputs": [],
      "name": "InvalidInitialization",
      "type": "error"
    },
    {
      "inputs": [],
      "name": "NotInitializing",
      "type": "error"
    },
    {
      "anonymous": false,
      "inputs": [
        {
          "indexed": true,
          "internalType": "address",
          "name": "borrower",
          "type": "address"
        },
        {
          "components": [
            {
              "internalType": "uint256",
              "name": "loanId",
              "type": "uint256"
            },
            {
              "internalType": "bool",
              "name": "isPaid",
              "type": "bool"
            },
            {
              "internalType": "uint256",
              "name": "amount",
              "type": "uint256"
            },
            {
              "internalType": "bool",
              "name": "isClosed",
              "type": "bool"
            },
            {
              "internalType": "address",
              "name": "borrower",
              "type": "address"
            },
            {
              "internalType": "bool",
              "name": "isLiquidated",
              "type": "bool"
            },
            {
              "internalType": "contract IERC20Standard",
              "name": "stableCoin",
              "type": "address"
            },
            {
              "internalType": "bool",
              "name": "isFinalty",
              "type": "bool"
            },
            {
              "internalType": "bool",
              "name": "isFiat",
              "type": "bool"
            }
          ],
          "indexed": false,
          "internalType": "struct DataTypes.Loan",
          "name": "loanInfo",
          "type": "tuple"
        },
        {
          "indexed": false,
          "internalType": "uint256",
          "name": "collateralAmount",
          "type": "uint256"
        },
        {
          "indexed": false,
          "internalType": "contract IERC20Standard",
          "name": "collateral",
          "type": "address"
        },
        {
          "indexed": false,
          "internalType": "bool",
          "name": "isETH",
          "type": "bool"
        }
      ],
      "name": "AddCollateral",
      "type": "event"
    },
    {
      "anonymous": false,
      "inputs": [
        {
          "indexed": true,
          "internalType": "address",
          "name": "borrower",
          "type": "address"
        },
        {
          "indexed": false,
          "internalType": "address",
          "name": "loanAddress",
          "type": "address"
        },
        {
          "components": [
            {
              "internalType": "uint256",
              "name": "loanId",
              "type": "uint256"
            },
            {
              "internalType": "bool",
              "name": "isPaid",
              "type": "bool"
            },
            {
              "internalType": "uint256",
              "name": "amount",
              "type": "uint256"
            },
            {
              "internalType": "bool",
              "name": "isClosed",
              "type": "bool"
            },
            {
              "internalType": "address",
              "name": "borrower",
              "type": "address"
            },
            {
              "internalType": "bool",
              "name": "isLiquidated",
              "type": "bool"
            },
            {
              "internalType": "contract IERC20Standard",
              "name": "stableCoin",
              "type": "address"
            },
            {
              "internalType": "bool",
              "name": "isFinalty",
              "type": "bool"
            },
            {
              "internalType": "bool",
              "name": "isFiat",
              "type": "bool"
            }
          ],
          "indexed": false,
          "internalType": "struct DataTypes.Loan",
          "name": "loanInfo",
          "type": "tuple"
        },
        {
          "indexed": false,
          "internalType": "uint256",
          "name": "collateralAmount",
          "type": "uint256"
        },
        {
          "indexed": false,
          "internalType": "contract IERC20Standard",
          "name": "collateral",
          "type": "address"
        },
        {
          "indexed": false,
          "internalType": "bool",
          "name": "isYieldGenerating",
          "type": "bool"
        },
        {
          "indexed": false,
          "internalType": "bool",
          "name": "isETH",
          "type": "bool"
        }
      ],
      "name": "CreateLoan",
      "type": "event"
    },
    {
      "anonymous": false,
      "inputs": [
        {
          "indexed": false,
          "internalType": "uint64",
          "name": "version",
          "type": "uint64"
        }
      ],
      "name": "Initialized",
      "type": "event"
    },
    {
      "anonymous": false,
      "inputs": [
        {
          "indexed": true,
          "internalType": "address",
          "name": "liquidator",
          "type": "address"
        },
        {
          "indexed": true,
          "internalType": "address",
          "name": "borrower",
          "type": "address"
        },
        {
          "components": [
            {
              "internalType": "uint256",
              "name": "loanId",
              "type": "uint256"
            },
            {
              "internalType": "bool",
              "name": "isPaid",
              "type": "bool"
            },
            {
              "internalType": "uint256",
              "name": "amount",
              "type": "uint256"
            },
            {
              "internalType": "bool",
              "name": "isClosed",
              "type": "bool"
            },
            {
              "internalType": "address",
              "name": "borrower",
              "type": "address"
            },
            {
              "internalType": "bool",
              "name": "isLiquidated",
              "type": "bool"
            },
            {
              "internalType": "contract IERC20Standard",
              "name": "stableCoin",
              "type": "address"
            },
            {
              "internalType": "bool",
              "name": "isFinalty",
              "type": "bool"
            },
            {
              "internalType": "bool",
              "name": "isFiat",
              "type": "bool"
            }
          ],
          "indexed": false,
          "internalType": "struct DataTypes.Loan",
          "name": "loanInfo",
          "type": "tuple"
        },
        {
          "indexed": false,
          "internalType": "uint256",
          "name": "collateralAmount",
          "type": "uint256"
        },
        {
          "indexed": false,
          "internalType": "contract IERC20Standard",
          "name": "collateral",
          "type": "address"
        }
      ],
      "name": "Liquidate",
      "type": "event"
    },
    {
      "anonymous": false,
      "inputs": [
        {
          "indexed": true,
          "internalType": "address",
          "name": "borrower",
          "type": "address"
        },
        {
          "components": [
            {
              "internalType": "uint256",
              "name": "loanId",
              "type": "uint256"
            },
            {
              "internalType": "bool",
              "name": "isPaid",
              "type": "bool"
            },
            {
              "internalType": "uint256",
              "name": "amount",
              "type": "uint256"
            },
            {
              "internalType": "bool",
              "name": "isClosed",
              "type": "bool"
            },
            {
              "internalType": "address",
              "name": "borrower",
              "type": "address"
            },
            {
              "internalType": "bool",
              "name": "isLiquidated",
              "type": "bool"
            },
            {
              "internalType": "contract IERC20Standard",
              "name": "stableCoin",
              "type": "address"
            },
            {
              "internalType": "bool",
              "name": "isFinalty",
              "type": "bool"
            },
            {
              "internalType": "bool",
              "name": "isFiat",
              "type": "bool"
            }
          ],
          "indexed": false,
          "internalType": "struct DataTypes.Loan",
          "name": "loanInfo",
          "type": "tuple"
        },
        {
          "indexed": false,
          "internalType": "uint256",
          "name": "repayAmount",
          "type": "uint256"
        },
        {
          "indexed": false,
          "internalType": "uint256",
          "name": "debtRemain",
          "type": "uint256"
        }
      ],
      "name": "RepayLoan",
      "type": "event"
    },
    {
      "anonymous": false,
      "inputs": [
        {
          "indexed": true,
          "internalType": "address",
          "name": "borrower",
          "type": "address"
        },
        {
          "components": [
            {
              "internalType": "uint256",
              "name": "loanId",
              "type": "uint256"
            },
            {
              "internalType": "bool",
              "name": "isPaid",
              "type": "bool"
            },
            {
              "internalType": "uint256",
              "name": "amount",
              "type": "uint256"
            },
            {
              "internalType": "bool",
              "name": "isClosed",
              "type": "bool"
            },
            {
              "internalType": "address",
              "name": "borrower",
              "type": "address"
            },
            {
              "internalType": "bool",
              "name": "isLiquidated",
              "type": "bool"
            },
            {
              "internalType": "contract IERC20Standard",
              "name": "stableCoin",
              "type": "address"
            },
            {
              "internalType": "bool",
              "name": "isFinalty",
              "type": "bool"
            },
            {
              "internalType": "bool",
              "name": "isFiat",
              "type": "bool"
            }
          ],
          "indexed": false,
          "internalType": "struct DataTypes.Loan",
          "name": "loanInfo",
          "type": "tuple"
        },
        {
          "indexed": false,
          "internalType": "uint256",
          "name": "collateralAmount",
          "type": "uint256"
        },
        {
          "indexed": false,
          "internalType": "contract IERC20Standard",
          "name": "collateral",
          "type": "address"
        },
        {
          "indexed": false,
          "internalType": "bool",
          "name": "isETH",
          "type": "bool"
        }
      ],
      "name": "WithdrawAllCollateral",
      "type": "event"
    },
    {
      "anonymous": false,
      "inputs": [
        {
          "indexed": true,
          "internalType": "address",
          "name": "admin",
          "type": "address"
        },
        {
          "components": [
            {
              "internalType": "uint256",
              "name": "loanId",
              "type": "uint256"
            },
            {
              "internalType": "bool",
              "name": "isPaid",
              "type": "bool"
            },
            {
              "internalType": "uint256",
              "name": "amount",
              "type": "uint256"
            },
            {
              "internalType": "bool",
              "name": "isClosed",
              "type": "bool"
            },
            {
              "internalType": "address",
              "name": "borrower",
              "type": "address"
            },
            {
              "internalType": "bool",
              "name": "isLiquidated",
              "type": "bool"
            },
            {
              "internalType": "contract IERC20Standard",
              "name": "stableCoin",
              "type": "address"
            },
            {
              "internalType": "bool",
              "name": "isFinalty",
              "type": "bool"
            },
            {
              "internalType": "bool",
              "name": "isFiat",
              "type": "bool"
            }
          ],
          "indexed": false,
          "internalType": "struct DataTypes.Loan",
          "name": "loanInfo",
          "type": "tuple"
        },
        {
          "indexed": false,
          "internalType": "uint256",
          "name": "collateralAmount",
          "type": "uint256"
        },
        {
          "indexed": false,
          "internalType": "contract IERC20Standard",
          "name": "collateral",
          "type": "address"
        },
        {
          "indexed": false,
          "internalType": "bool",
          "name": "isETH",
          "type": "bool"
        }
      ],
      "name": "WithdrawAllCollateralByAdmin",
      "type": "event"
    },
    {
      "anonymous": false,
      "inputs": [
        {
          "indexed": true,
          "internalType": "address",
          "name": "borrower",
          "type": "address"
        },
        {
          "components": [
            {
              "internalType": "uint256",
              "name": "loanId",
              "type": "uint256"
            },
            {
              "internalType": "bool",
              "name": "isPaid",
              "type": "bool"
            },
            {
              "internalType": "uint256",
              "name": "amount",
              "type": "uint256"
            },
            {
              "internalType": "bool",
              "name": "isClosed",
              "type": "bool"
            },
            {
              "internalType": "address",
              "name": "borrower",
              "type": "address"
            },
            {
              "internalType": "bool",
              "name": "isLiquidated",
              "type": "bool"
            },
            {
              "internalType": "contract IERC20Standard",
              "name": "stableCoin",
              "type": "address"
            },
            {
              "internalType": "bool",
              "name": "isFinalty",
              "type": "bool"
            },
            {
              "internalType": "bool",
              "name": "isFiat",
              "type": "bool"
            }
          ],
          "indexed": false,
          "internalType": "struct DataTypes.Loan",
          "name": "loanInfo",
          "type": "tuple"
        }
      ],
      "name": "WithdrawLoan",
      "type": "event"
    },
    {
      "inputs": [
        {
          "internalType": "contract IERC20Standard",
          "name": "",
          "type": "address"
        }
      ],
      "name": "aTokens",
      "outputs": [
        {
          "internalType": "contract IERC20Standard",
          "name": "",
          "type": "address"
        }
      ],
      "stateMutability": "view",
      "type": "function"
    },
    {
      "inputs": [],
      "name": "aaveAddressProvider",
      "outputs": [
        {
          "internalType": "contract IPoolAddressesProvider",
          "name": "",
          "type": "address"
        }
      ],
      "stateMutability": "view",
      "type": "function"
    },
    {
      "inputs": [
        {
          "internalType": "uint256",
          "name": "_loanId",
          "type": "uint256"
        },
        {
          "internalType": "uint256",
          "name": "_amountCollateral",
          "type": "uint256"
        },
        {
          "internalType": "contract IERC20Standard",
          "name": "_collateral",
          "type": "address"
        }
      ],
      "name": "addCollateral",
      "outputs": [],
      "stateMutability": "nonpayable",
      "type": "function"
    },
    {
      "inputs": [
        {
          "internalType": "uint256",
          "name": "_loanId",
          "type": "uint256"
        },
        {
          "internalType": "uint256",
          "name": "_amountETH",
          "type": "uint256"
        }
      ],
      "name": "addCollateralByETH",
      "outputs": [],
      "stateMutability": "payable",
      "type": "function"
    },
    {
      "inputs": [
        {
          "internalType": "uint256",
          "name": "_loanId",
          "type": "uint256"
        },
        {
          "internalType": "uint256",
          "name": "_amountCollateral",
          "type": "uint256"
        }
      ],
      "name": "addCollateralHealthFactor",
      "outputs": [
        {
          "internalType": "uint256",
          "name": "",
          "type": "uint256"
        }
      ],
      "stateMutability": "view",
      "type": "function"
    },
    {
      "inputs": [
        {
          "internalType": "contract IERC20Standard",
          "name": "",
          "type": "address"
        }
      ],
      "name": "ccflActiveCollaterals",
      "outputs": [
        {
          "internalType": "bool",
          "name": "",
          "type": "bool"
        }
      ],
      "stateMutability": "view",
      "type": "function"
    },
    {
      "inputs": [
        {
          "internalType": "contract IERC20Standard",
          "name": "",
          "type": "address"
        }
      ],
      "name": "ccflActivePoolStableCoins",
      "outputs": [
        {
          "internalType": "bool",
          "name": "",
          "type": "bool"
        }
      ],
      "stateMutability": "view",
      "type": "function"
    },
    {
      "inputs": [],
      "name": "ccflLoan",
      "outputs": [
        {
          "internalType": "contract ICCFLLoan",
          "name": "",
          "type": "address"
        }
      ],
      "stateMutability": "view",
      "type": "function"
    },
    {
      "inputs": [
        {
          "internalType": "uint256",
          "name": "",
          "type": "uint256"
        }
      ],
      "name": "ccflPoolStableCoins",
      "outputs": [
        {
          "internalType": "contract IERC20Standard",
          "name": "",
          "type": "address"
        }
      ],
      "stateMutability": "view",
      "type": "function"
    },
    {
      "inputs": [
        {
          "internalType": "contract IERC20Standard",
          "name": "",
          "type": "address"
        }
      ],
      "name": "ccflPools",
      "outputs": [
        {
          "internalType": "contract ICCFLPool",
          "name": "",
          "type": "address"
        }
      ],
      "stateMutability": "view",
      "type": "function"
    },
    {
      "inputs": [
        {
          "internalType": "contract IERC20Standard[]",
          "name": "array",
          "type": "address[]"
        },
        {
          "internalType": "contract IERC20Standard",
          "name": "el",
          "type": "address"
        }
      ],
      "name": "checkExistElement",
      "outputs": [
        {
          "internalType": "bool",
          "name": "",
          "type": "bool"
        }
      ],
      "stateMutability": "pure",
      "type": "function"
    },
    {
      "inputs": [
        {
          "internalType": "uint256",
          "name": "_amount",
          "type": "uint256"
        },
        {
          "internalType": "contract IERC20Standard",
          "name": "_stableCoin",
          "type": "address"
        },
        {
          "internalType": "contract IERC20Standard",
          "name": "_collateral",
          "type": "address"
        }
      ],
      "name": "checkMinimalCollateralForLoan",
      "outputs": [
        {
          "internalType": "uint256",
          "name": "",
          "type": "uint256"
        }
      ],
      "stateMutability": "view",
      "type": "function"
    },
    {
      "inputs": [
        {
          "internalType": "uint256",
          "name": "",
          "type": "uint256"
        }
      ],
      "name": "collateralTokens",
      "outputs": [
        {
          "internalType": "contract IERC20Standard",
          "name": "",
          "type": "address"
        }
      ],
      "stateMutability": "view",
      "type": "function"
    },
    {
      "inputs": [
        {
          "internalType": "address",
          "name": "",
          "type": "address"
        },
        {
          "internalType": "contract IERC20Standard",
          "name": "",
          "type": "address"
        }
      ],
      "name": "collaterals",
      "outputs": [
        {
          "internalType": "uint256",
          "name": "",
          "type": "uint256"
        }
      ],
      "stateMutability": "view",
      "type": "function"
    },
    {
      "inputs": [
        {
          "internalType": "uint256",
          "name": "_amount",
          "type": "uint256"
        },
        {
          "internalType": "contract IERC20Standard",
          "name": "_stableCoin",
          "type": "address"
        },
        {
          "internalType": "uint256",
          "name": "_amountCollateral",
          "type": "uint256"
        },
        {
          "internalType": "contract IERC20Standard",
          "name": "_collateral",
          "type": "address"
        },
        {
          "internalType": "bool",
          "name": "_isYieldGenerating",
          "type": "bool"
        },
        {
          "internalType": "bool",
          "name": "_isFiat",
          "type": "bool"
        }
      ],
      "name": "createLoan",
      "outputs": [],
      "stateMutability": "nonpayable",
      "type": "function"
    },
    {
      "inputs": [
        {
          "internalType": "uint256",
          "name": "_amount",
          "type": "uint256"
        },
        {
          "internalType": "contract IERC20Standard",
          "name": "_stableCoin",
          "type": "address"
        },
        {
          "internalType": "uint256",
          "name": "_amountETH",
          "type": "uint256"
        },
        {
          "internalType": "bool",
          "name": "_isYieldGenerating",
          "type": "bool"
        },
        {
          "internalType": "bool",
          "name": "_isFiat",
          "type": "bool"
        }
      ],
      "name": "createLoanByETH",
      "outputs": [],
      "stateMutability": "payable",
      "type": "function"
    },
    {
      "inputs": [],
      "name": "earnBorrower",
      "outputs": [
        {
          "internalType": "uint256",
          "name": "",
          "type": "uint256"
        }
      ],
      "stateMutability": "view",
      "type": "function"
    },
    {
      "inputs": [],
      "name": "earnLender",
      "outputs": [
        {
          "internalType": "uint256",
          "name": "",
          "type": "uint256"
        }
      ],
      "stateMutability": "view",
      "type": "function"
    },
    {
      "inputs": [],
      "name": "earnPlatform",
      "outputs": [
        {
          "internalType": "uint256",
          "name": "",
          "type": "uint256"
        }
      ],
      "stateMutability": "view",
      "type": "function"
    },
    {
      "inputs": [],
      "name": "factory",
      "outputs": [
        {
          "internalType": "contract IUniswapV3Factory",
          "name": "",
          "type": "address"
        }
      ],
      "stateMutability": "view",
      "type": "function"
    },
    {
      "inputs": [
        {
          "internalType": "uint256",
          "name": "_loanId",
          "type": "uint256"
        }
      ],
      "name": "getHealthFactor",
      "outputs": [
        {
          "internalType": "uint256",
          "name": "",
          "type": "uint256"
        }
      ],
      "stateMutability": "view",
      "type": "function"
    },
    {
      "inputs": [
        {
          "internalType": "contract IERC20Standard",
          "name": "_stableCoin",
          "type": "address"
        },
        {
          "internalType": "bool",
          "name": "isPool",
          "type": "bool"
        }
      ],
      "name": "getLatestPrice",
      "outputs": [
        {
          "internalType": "uint256",
          "name": "",
          "type": "uint256"
        }
      ],
      "stateMutability": "view",
      "type": "function"
    },
    {
      "inputs": [
        {
          "internalType": "uint256",
          "name": "_loanId",
          "type": "uint256"
        }
      ],
      "name": "getLoanAddress",
      "outputs": [
        {
          "internalType": "address",
          "name": "",
          "type": "address"
        }
      ],
      "stateMutability": "view",
      "type": "function"
    },
    {
      "inputs": [
        {
          "internalType": "address",
          "name": "borrower",
          "type": "address"
        }
      ],
      "name": "getLoanIds",
      "outputs": [
        {
          "internalType": "uint256[]",
          "name": "",
          "type": "uint256[]"
        }
      ],
      "stateMutability": "view",
      "type": "function"
    },
    {
      "inputs": [
        {
          "internalType": "contract IERC20Standard[]",
          "name": "_ccflPoolStableCoin",
          "type": "address[]"
        },
        {
          "internalType": "contract AggregatorV3Interface[]",
          "name": "_poolAggregators",
          "type": "address[]"
        },
        {
          "internalType": "contract ICCFLPool[]",
          "name": "_ccflPools",
          "type": "address[]"
        },
        {
          "internalType": "contract IERC20Standard[]",
          "name": "_collateralTokens",
          "type": "address[]"
        },
        {
          "internalType": "contract AggregatorV3Interface[]",
          "name": "_collateralAggregators",
          "type": "address[]"
        },
        {
          "internalType": "contract IERC20Standard[]",
          "name": "_aTokens",
          "type": "address[]"
        },
        {
          "internalType": "contract IPoolAddressesProvider",
          "name": "_aaveAddressProvider",
          "type": "address"
        },
        {
          "internalType": "uint256",
          "name": "_maxLTV",
          "type": "uint256"
        },
        {
          "internalType": "uint256",
          "name": "_liquidationThreshold",
          "type": "uint256"
        },
        {
          "internalType": "contract ICCFLLoan",
          "name": "_ccflLoan",
          "type": "address"
        }
      ],
      "name": "initialize",
      "outputs": [],
      "stateMutability": "nonpayable",
      "type": "function"
    },
    {
      "inputs": [],
      "name": "isPaused",
      "outputs": [
        {
          "internalType": "bool",
          "name": "",
          "type": "bool"
        }
      ],
      "stateMutability": "view",
      "type": "function"
    },
    {
      "inputs": [
        {
          "internalType": "uint256",
          "name": "_loanId",
          "type": "uint256"
        }
      ],
      "name": "liquidate",
      "outputs": [],
      "stateMutability": "nonpayable",
      "type": "function"
    },
    {
      "inputs": [],
      "name": "liquidationThreshold",
      "outputs": [
        {
          "internalType": "uint256",
          "name": "",
          "type": "uint256"
        }
      ],
      "stateMutability": "view",
      "type": "function"
    },
    {
      "inputs": [],
      "name": "liquidator",
      "outputs": [
        {
          "internalType": "address",
          "name": "",
          "type": "address"
        }
      ],
      "stateMutability": "view",
      "type": "function"
    },
    {
      "inputs": [],
      "name": "loandIds",
      "outputs": [
        {
          "internalType": "uint256",
          "name": "",
          "type": "uint256"
        }
      ],
      "stateMutability": "view",
      "type": "function"
    },
    {
      "inputs": [],
      "name": "maxLTV",
      "outputs": [
        {
          "internalType": "uint256",
          "name": "",
          "type": "uint256"
        }
      ],
      "stateMutability": "view",
      "type": "function"
    },
    {
      "inputs": [
        {
          "internalType": "address",
          "name": "",
          "type": "address"
        }
      ],
      "name": "operators",
      "outputs": [
        {
          "internalType": "bool",
          "name": "",
          "type": "bool"
        }
      ],
      "stateMutability": "view",
      "type": "function"
    },
    {
      "inputs": [],
      "name": "owner",
      "outputs": [
        {
          "internalType": "address",
          "name": "",
          "type": "address"
        }
      ],
      "stateMutability": "view",
      "type": "function"
    },
    {
      "inputs": [],
      "name": "penaltyLender",
      "outputs": [
        {
          "internalType": "uint256",
          "name": "",
          "type": "uint256"
        }
      ],
      "stateMutability": "view",
      "type": "function"
    },
    {
      "inputs": [],
      "name": "penaltyLiquidator",
      "outputs": [
        {
          "internalType": "uint256",
          "name": "",
          "type": "uint256"
        }
      ],
      "stateMutability": "view",
      "type": "function"
    },
    {
      "inputs": [],
      "name": "penaltyPlatform",
      "outputs": [
        {
          "internalType": "uint256",
          "name": "",
          "type": "uint256"
        }
      ],
      "stateMutability": "view",
      "type": "function"
    },
    {
      "inputs": [],
      "name": "platform",
      "outputs": [
        {
          "internalType": "address",
          "name": "",
          "type": "address"
        }
      ],
      "stateMutability": "view",
      "type": "function"
    },
    {
      "inputs": [
        {
          "internalType": "contract IERC20Standard",
          "name": "",
          "type": "address"
        }
      ],
      "name": "priceFeeds",
      "outputs": [
        {
          "internalType": "contract AggregatorV3Interface",
          "name": "",
          "type": "address"
        }
      ],
      "stateMutability": "view",
      "type": "function"
    },
    {
      "inputs": [
        {
          "internalType": "contract IERC20Standard",
          "name": "",
          "type": "address"
        }
      ],
      "name": "pricePoolFeeds",
      "outputs": [
        {
          "internalType": "contract AggregatorV3Interface",
          "name": "",
          "type": "address"
        }
      ],
      "stateMutability": "view",
      "type": "function"
    },
    {
      "inputs": [],
      "name": "quoter",
      "outputs": [
        {
          "internalType": "contract IQuoterV2",
          "name": "",
          "type": "address"
        }
      ],
      "stateMutability": "view",
      "type": "function"
    },
    {
      "inputs": [
        {
          "internalType": "uint256",
          "name": "_loanId",
          "type": "uint256"
        },
        {
          "internalType": "uint256",
          "name": "_amount",
          "type": "uint256"
        }
      ],
      "name": "repayHealthFactor",
      "outputs": [
        {
          "internalType": "uint256",
          "name": "",
          "type": "uint256"
        }
      ],
      "stateMutability": "view",
      "type": "function"
    },
    {
      "inputs": [
        {
          "internalType": "uint256",
          "name": "_loanId",
          "type": "uint256"
        },
        {
          "internalType": "uint256",
          "name": "_amount",
          "type": "uint256"
        },
        {
          "internalType": "contract IERC20Standard",
          "name": "_stableCoin",
          "type": "address"
        }
      ],
      "name": "repayLoan",
      "outputs": [],
      "stateMutability": "nonpayable",
      "type": "function"
    },
    {
      "inputs": [
        {
          "internalType": "contract IPoolAddressesProvider",
          "name": "_aaveAddressProvider",
          "type": "address"
        }
      ],
      "name": "setAaveProvider",
      "outputs": [],
      "stateMutability": "nonpayable",
      "type": "function"
    },
    {
      "inputs": [
        {
          "internalType": "contract IERC20Standard",
          "name": "_token",
          "type": "address"
        },
        {
          "internalType": "bool",
          "name": "_isActived",
          "type": "bool"
        },
        {
          "internalType": "bool",
          "name": "_isPoolToken",
          "type": "bool"
        }
      ],
      "name": "setActiveToken",
      "outputs": [],
      "stateMutability": "nonpayable",
      "type": "function"
    },
    {
      "inputs": [
        {
          "internalType": "contract ICCFLLoan",
          "name": "_loan",
          "type": "address"
        }
      ],
      "name": "setCCFLLoan",
      "outputs": [],
      "stateMutability": "nonpayable",
      "type": "function"
    },
    {
      "inputs": [
        {
          "internalType": "contract IERC20Standard[]",
          "name": "_collateralTokens",
          "type": "address[]"
        },
        {
          "internalType": "contract AggregatorV3Interface[]",
          "name": "_collateralAggregators",
          "type": "address[]"
        },
        {
          "internalType": "contract IERC20Standard[]",
          "name": "_aTokens",
          "type": "address[]"
        }
      ],
      "name": "setCollaterals",
      "outputs": [],
      "stateMutability": "nonpayable",
      "type": "function"
    },
    {
      "inputs": [
        {
          "internalType": "uint256",
          "name": "_borrower",
          "type": "uint256"
        },
        {
          "internalType": "uint256",
          "name": "_platform",
          "type": "uint256"
        },
        {
          "internalType": "uint256",
          "name": "_lender",
          "type": "uint256"
        }
      ],
      "name": "setEarnShare",
      "outputs": [],
      "stateMutability": "nonpayable",
      "type": "function"
    },
    {
      "inputs": [
        {
          "internalType": "bool",
          "name": "_isActived",
          "type": "bool"
        }
      ],
      "name": "setEnableETHNative",
      "outputs": [],
      "stateMutability": "nonpayable",
      "type": "function"
    },
    {
      "inputs": [
        {
          "internalType": "address[]",
          "name": "_addresses",
          "type": "address[]"
        },
        {
          "internalType": "bool[]",
          "name": "_isActives",
          "type": "bool[]"
        }
      ],
      "name": "setOperators",
      "outputs": [],
      "stateMutability": "nonpayable",
      "type": "function"
    },
    {
      "inputs": [
        {
          "internalType": "bool",
          "name": "_paused",
          "type": "bool"
        }
      ],
      "name": "setPaused",
      "outputs": [],
      "stateMutability": "nonpayable",
      "type": "function"
    },
    {
      "inputs": [
        {
          "internalType": "uint256",
          "name": "_platform",
          "type": "uint256"
        },
        {
          "internalType": "uint256",
          "name": "_liquidator",
          "type": "uint256"
        },
        {
          "internalType": "uint256",
          "name": "_lender",
          "type": "uint256"
        }
      ],
      "name": "setPenalty",
      "outputs": [],
      "stateMutability": "nonpayable",
      "type": "function"
    },
    {
      "inputs": [
        {
          "internalType": "address",
          "name": "_liquidator",
          "type": "address"
        },
        {
          "internalType": "address",
          "name": "_platform",
          "type": "address"
        }
      ],
      "name": "setPlatformAddress",
      "outputs": [],
      "stateMutability": "nonpayable",
      "type": "function"
    },
    {
      "inputs": [
        {
          "internalType": "contract IERC20Standard[]",
          "name": "_ccflPoolStableCoin",
          "type": "address[]"
        },
        {
          "internalType": "contract AggregatorV3Interface[]",
          "name": "_poolAggregators",
          "type": "address[]"
        },
        {
          "internalType": "contract ICCFLPool[]",
          "name": "_ccflPools",
          "type": "address[]"
        }
      ],
      "name": "setPools",
      "outputs": [],
      "stateMutability": "nonpayable",
      "type": "function"
    },
    {
      "inputs": [
        {
          "internalType": "contract IV3SwapRouter",
          "name": "_swapRouter",
          "type": "address"
        },
        {
          "internalType": "contract IUniswapV3Factory",
          "name": "_factory",
          "type": "address"
        },
        {
          "internalType": "contract IQuoterV2",
          "name": "_quoter",
          "type": "address"
        }
      ],
      "name": "setSwapRouter",
      "outputs": [],
      "stateMutability": "nonpayable",
      "type": "function"
    },
    {
      "inputs": [
        {
          "internalType": "uint256",
          "name": "_maxLTV",
          "type": "uint256"
        },
        {
          "internalType": "uint256",
          "name": "_liquidationThreshold",
          "type": "uint256"
        }
      ],
      "name": "setThreshold",
      "outputs": [],
      "stateMutability": "nonpayable",
      "type": "function"
    },
    {
      "inputs": [
        {
          "internalType": "contract IWETH",
          "name": "_iWETH",
          "type": "address"
        }
      ],
      "name": "setWETH",
      "outputs": [],
      "stateMutability": "nonpayable",
      "type": "function"
    },
    {
      "inputs": [
        {
          "internalType": "address",
          "name": "",
          "type": "address"
        },
        {
          "internalType": "uint256",
          "name": "",
          "type": "uint256"
        }
      ],
      "name": "userLoans",
      "outputs": [
        {
          "internalType": "uint256",
          "name": "",
          "type": "uint256"
        }
      ],
      "stateMutability": "view",
      "type": "function"
    },
    {
      "inputs": [],
      "name": "wETH",
      "outputs": [
        {
          "internalType": "contract IWETH",
          "name": "",
          "type": "address"
        }
      ],
      "stateMutability": "view",
      "type": "function"
    },
    {
      "inputs": [
        {
          "internalType": "uint256",
          "name": "_loanId",
          "type": "uint256"
        },
        {
          "internalType": "bool",
          "name": "isETH",
          "type": "bool"
        }
      ],
      "name": "withdrawAllCollateral",
      "outputs": [],
      "stateMutability": "nonpayable",
      "type": "function"
    },
    {
      "inputs": [
        {
          "internalType": "uint256",
          "name": "_loanId",
          "type": "uint256"
        },
        {
          "internalType": "bool",
          "name": "isETH",
          "type": "bool"
        }
      ],
      "name": "withdrawAllCollateralByAdmin",
      "outputs": [],
      "stateMutability": "nonpayable",
      "type": "function"
    },
    {
      "inputs": [
        {
          "internalType": "contract IERC20Standard",
          "name": "_stableCoin",
          "type": "address"
        },
        {
          "internalType": "uint256",
          "name": "_loanId",
          "type": "uint256"
        }
      ],
      "name": "withdrawFiatLoan",
      "outputs": [],
      "stateMutability": "nonpayable",
      "type": "function"
    },
    {
      "inputs": [
        {
          "internalType": "contract IERC20Standard",
          "name": "_stableCoin",
          "type": "address"
        },
        {
          "internalType": "uint256",
          "name": "_loanId",
          "type": "uint256"
        }
      ],
      "name": "withdrawLoan",
      "outputs": [],
      "stateMutability": "nonpayable",
      "type": "function"
    },
    {
      "stateMutability": "payable",
      "type": "receive"
    }
  ],
  "bytecode": "0x608060405234801561001057600080fd5b5061579b80620000216000396000f3fe6080604052600436106103b15760003560e01c80638da5cb5b116101e7578063c6bbd5a71161010d578063ef3c5d25116100a0578063f43050351161006f578063f430503514610b7b578063f6597bbb14610b9b578063f8f126ff14610bb1578063fdb2b32c14610bd157600080fd5b8063ef3c5d2514610b05578063f242862114610b25578063f384bd0514610b45578063f3cf4ada14610b5b57600080fd5b8063e43b03d6116100dc578063e43b03d614610a60578063e51e119e14610a80578063e787ea2c14610ab5578063ec7be39d14610ae557600080fd5b8063c6bbd5a7146109ed578063cdaabe4114610a0d578063cff212e614610a2d578063d8bad5bd14610a4057600080fd5b8063b187bd2611610185578063b9c3620911610154578063b9c3620914610957578063c0d0154614610977578063c45a0155146109ad578063c694fdc1146109cd57600080fd5b8063b187bd26146108d3578063b3bffeaa146108f4578063b5dbde5f14610914578063b92dd9251461092757600080fd5b8063a58bab62116101c1578063a58bab6214610867578063a8700c3c1461087d578063a95d71321461089d578063af6a85c4146108b357600080fd5b80638da5cb5b146107db578063989397d4146107fb5780639dcb511a1461083157600080fd5b80634031234c116102d7578063611f347d1161026a5780636eb0fdd0116102395780636eb0fdd0146107655780636f43d3dd146107855780638ba02e1c146107a55780638ba2444e146107bb57600080fd5b8063611f347d146106d857806364b52097146106f85780636b64c885146107185780636cb0ab5e1461074557600080fd5b80634bde38c8116102a65780634bde38c8146106585780635b769f3c146106785780635c8edac4146106985780635f499ebc146106b857600080fd5b80634031234c146105e25780634046ebae146105f8578063415f124014610618578063474843ea1461063857600080fd5b80631bb514cf1161034f57806338ef67171161031e57806338ef6717146105565780633a0720e6146105765780633a2ad9ae1461058c5780633e108ad9146105ac57600080fd5b80631bb514cf146104e05780631d9eb5d91461050057806325e9d2fa1461052057806332df398e1461054057600080fd5b806313e7c9d81161038b57806313e7c9d81461042857806316c38b3c14610468578063172c48c71461048857806317845c69146104c057600080fd5b80630769594d146103bd578063101b9d31146103df57806310ac5c3c1461040857600080fd5b366103b857005b600080fd5b3480156103c957600080fd5b506103dd6103d8366004614b26565b610c07565b005b3480156103eb57600080fd5b506103f5601a5481565b6040519081526020015b60405180910390f35b34801561041457600080fd5b506103dd610423366004614bae565b610e15565b34801561043457600080fd5b50610458610443366004614bf9565b60016020526000908152604090205460ff1681565b60405190151581526020016103ff565b34801561047457600080fd5b506103dd610483366004614c2b565b610ea5565b34801561049457600080fd5b506104a86104a3366004614c48565b610f23565b6040516001600160a01b0390911681526020016103ff565b3480156104cc57600080fd5b506103f56104db366004614c48565b610f4d565b3480156104ec57600080fd5b506103f56104fb366004614c61565b6110cb565b34801561050c57600080fd5b5061045861051b366004614c88565b611207565b34801561052c57600080fd5b506103f561053b366004614cda565b611262565b34801561054c57600080fd5b506103f5601b5481565b34801561056257600080fd5b506103dd610571366004614bf9565b6113e2565b34801561058257600080fd5b506103f5601d5481565b34801561059857600080fd5b506103dd6105a7366004614d07565b611455565b3480156105b857600080fd5b506104a86105c7366004614bf9565b600b602052600090815260409020546001600160a01b031681565b3480156105ee57600080fd5b506103f5600d5481565b34801561060457600080fd5b506013546104a8906001600160a01b031681565b34801561062457600080fd5b506103dd610633366004614c48565b61163f565b34801561064457600080fd5b506103dd610653366004614bf9565b611927565b34801561066457600080fd5b506014546104a8906001600160a01b031681565b34801561068457600080fd5b506103dd610693366004614bf9565b61199a565b3480156106a457600080fd5b506103dd6106b3366004614d47565b611a0d565b3480156106c457600080fd5b506103dd6106d3366004614c2b565b611cb8565b3480156106e457600080fd5b506103dd6106f3366004614d6c565b611d1c565b34801561070457600080fd5b506103dd610713366004614b26565b6120fe565b34801561072457600080fd5b50610738610733366004614bf9565b6122fb565b6040516103ff9190614e99565b34801561075157600080fd5b506103dd610760366004614edd565b612367565b34801561077157600080fd5b506103dd610780366004614f09565b6123c6565b34801561079157600080fd5b506103dd6107a0366004614f37565b612abd565b3480156107b157600080fd5b506103f560025481565b3480156107c757600080fd5b506005546104a8906001600160a01b031681565b3480156107e757600080fd5b506015546104a8906001600160a01b031681565b34801561080757600080fd5b506104a8610816366004614bf9565b600f602052600090815260409020546001600160a01b031681565b34801561083d57600080fd5b506104a861084c366004614bf9565b600e602052600090815260409020546001600160a01b031681565b34801561087357600080fd5b506103f560195481565b34801561088957600080fd5b506103dd610898366004614f63565b612d31565b3480156108a957600080fd5b506103f5601c5481565b3480156108bf57600080fd5b506103dd6108ce366004614d47565b612fbb565b3480156108df57600080fd5b5060165461045890600160a01b900460ff1681565b34801561090057600080fd5b506103f561090f366004614fd3565b613079565b6103dd610922366004615001565b61317a565b34801561093357600080fd5b50610458610942366004614bf9565b60076020526000908152604090205460ff1681565b34801561096357600080fd5b506103dd610972366004614cda565b6134b9565b34801561098357600080fd5b506104a8610992366004614bf9565b6003602052600090815260409020546001600160a01b031681565b3480156109b957600080fd5b506011546104a8906001600160a01b031681565b3480156109d957600080fd5b506104a86109e8366004614c48565b613515565b3480156109f957600080fd5b506012546104a8906001600160a01b031681565b348015610a1957600080fd5b50600a546104a8906001600160a01b031681565b6103dd610a3b366004614cda565b613525565b348015610a4c57600080fd5b506103f5610a5b366004614f37565b6138a7565b348015610a6c57600080fd5b506103f5610a7b366004614cda565b6138d8565b348015610a8c57600080fd5b506103f5610a9b366004615060565b600060208181529281526040808220909352908152205481565b348015610ac157600080fd5b50610458610ad0366004614bf9565b60096020526000908152604090205460ff1681565b348015610af157600080fd5b506103dd610b00366004614f37565b613a38565b348015610b1157600080fd5b506103dd610b20366004614f09565b613b7a565b348015610b3157600080fd5b506016546104a8906001600160a01b031681565b348015610b5157600080fd5b506103f5600c5481565b348015610b6757600080fd5b506103dd610b76366004614edd565b613e82565b348015610b8757600080fd5b506103dd610b963660046150f6565b613ede565b348015610ba757600080fd5b506103f560185481565b348015610bbd57600080fd5b506103dd610bcc366004615060565b613f99565b348015610bdd57600080fd5b506104a8610bec366004614c48565b6000908152600660205260409020546001600160a01b031690565b336000908152600160208181526040928390205483518085019094526002845261062760f31b9184019190915260ff16151514610c605760405162461bcd60e51b8152600401610c5791906151b8565b60405180910390fd5b5060005b8351811015610e0f576000848281518110610c8157610c81615207565b60200260200101519050610cef6004805480602002602001604051908101604052809291908181526020018280548015610ce457602002820191906000526020600020905b81546001600160a01b03168152600190910190602001808311610cc6575b505050505082611207565b1515600003610d4457600480546001810182556000919091527f8a35acfbc15ff81a39ae7d344fd709f28e8600b4aa8c65c6b64bfe7fe36bd19b0180546001600160a01b0319166001600160a01b0383161790555b828281518110610d5657610d56615207565b602002602001015160036000836001600160a01b03166001600160a01b0316815260200190815260200160002060006101000a8154816001600160a01b0302191690836001600160a01b03160217905550838281518110610db957610db9615207565b6020908102919091018101516001600160a01b039283166000908152600f8352604080822080546001600160a01b0319169590931694909417909155600790915220805460ff1916600190811790915501610c64565b50505050565b336000908152600160208181526040928390205483518085019094526002845261062760f31b9184019190915260ff16151514610e655760405162461bcd60e51b8152600401610c5791906151b8565b50601080546001600160a01b039485166001600160a01b031991821617909155601180549385169382169390931790925560128054919093169116179055565b6015546040805180820190915260018152601960f91b6020820152906001600160a01b03163314610ee95760405162461bcd60e51b8152600401610c5791906151b8565b5060168054911515600160a01b027fffffffffffffffffffffff00ffffffffffffffffffffffffffffffffffffffff909216919091179055565b60088181548110610f3357600080fd5b6000918252602090912001546001600160a01b0316905081565b600081815260066020526040808220548151635d3e2fa160e01b815291516001600160a01b039091169183918391635d3e2fa1916004808301926101209291908290030181865afa158015610fa6573d6000803e3d6000fd5b505050506040513d601f19601f82011682018060405250810190610fca9190615233565b60c08101516001600160a01b0390811660009081526003602052604080822054905163a52f38d160e01b815260048101899052939450909291169063a52f38d190602401602060405180830381865afa15801561102b573d6000803e3d6000fd5b505050506040513d601f19601f8201168201806040525081019061104f91906152db565b604051632696439560e11b815260048101829052600060248201529091506001600160a01b03841690634d2c872a90604401602060405180830381865afa15801561109e573d6000803e3d6000fd5b505050506040513d601f19601f820116820180604052508101906110c291906152db565b95945050505050565b60006110d8826000613079565b612710846001600160a01b031663313ce5676040518163ffffffff1660e01b8152600401602060405180830381865afa158015611119573d6000803e3d6000fd5b505050506040513d601f19601f8201168201806040525081019061113d91906152f4565b61114890600a615411565b611153866001613079565b600c54866001600160a01b031663313ce5676040518163ffffffff1660e01b8152600401602060405180830381865afa158015611194573d6000803e3d6000fd5b505050506040513d601f19601f820116820180604052508101906111b891906152f4565b6111c390600a615411565b6111cd908a615420565b6111d79190615420565b6111e19190615420565b6111eb9190615437565b6111f59190615437565b6111ff9190615437565b949350505050565b600080805b845181101561125857836001600160a01b031685828151811061123157611231615207565b60200260200101516001600160a01b0316036112505760019150611258565b60010161120c565b5090505b92915050565b600082815260066020526040808220548151635d3e2fa160e01b815291516001600160a01b039091169183918391635d3e2fa1916004808301926101209291908290030181865afa1580156112bb573d6000803e3d6000fd5b505050506040513d601f19601f820116820180604052508101906112df9190615233565b60c08101516001600160a01b0390811660009081526003602052604080822054905163a52f38d160e01b8152600481018a9052939450909291169063a52f38d190602401602060405180830381865afa158015611340573d6000803e3d6000fd5b505050506040513d601f19601f8201168201806040525081019061136491906152db565b604051632696439560e11b815260048101829052602481018790529091506001600160a01b03841690634d2c872a906044015b602060405180830381865afa1580156113b4573d6000803e3d6000fd5b505050506040513d601f19601f820116820180604052508101906113d891906152db565b9695505050505050565b336000908152600160208181526040928390205483518085019094526002845261062760f31b9184019190915260ff161515146114325760405162461bcd60e51b8152600401610c5791906151b8565b50600a80546001600160a01b0319166001600160a01b0392909216919091179055565b336000908152600160208181526040928390205483518085019094526002845261062760f31b9184019190915260ff161515146114a55760405162461bcd60e51b8152600401610c5791906151b8565b50801561157757611510600480548060200260200160405190810160405280929190818152602001828054801561150557602002820191906000526020600020905b81546001600160a01b031681526001909101906020018083116114e7575b505050505084611207565b604080518082019091526001808252603560f81b6020830152909115151461154b5760405162461bcd60e51b8152600401610c5791906151b8565b506001600160a01b0383166000908152600960205260409020805483151560ff19909116179055505050565b6115d96008805480602002602001604051908101604052809291908181526020018280548015611505576020028201919060005260206000209081546001600160a01b031681526001909101906020018083116114e757505050505084611207565b604080518082019091526001808252603560f81b602083015290911515146116145760405162461bcd60e51b8152600401610c5791906151b8565b506001600160a01b0383166000908152600760205260409020805460ff19168315151790555b505050565b601654604080518082019091526002815261323160f01b602082015290600160a01b900460ff16156116845760405162461bcd60e51b8152600401610c5791906151b8565b50600081815260066020526040808220548151635d3e2fa160e01b815291516001600160a01b0390911692918391635d3e2fa191600480820192610120929091908290030181865afa1580156116de573d6000803e3d6000fd5b505050506040513d601f19601f820116820180604052508101906117029190615233565b60c08101516001600160a01b0390811660009081526003602052604080822054905163a52f38d160e01b815260048101889052939450909291169063a52f38d190602401602060405180830381865afa158015611763573d6000803e3d6000fd5b505050506040513d601f19601f8201168201806040525081019061178791906152db565b9050600080600080866001600160a01b031663415f1240866040518263ffffffff1660e01b81526004016117bd91815260200190565b6080604051808303816000875af11580156117dc573d6000803e3d6000fd5b505050506040513d601f19601f820116820180604052508101906118009190615459565b935093509350935085608001516001600160a01b0316336001600160a01b03167fd67dda2a46677451d1af5bdf1cca2fff304343d0c226a626583fa8e46f05f88b888a6001600160a01b031663315deeaa6040518163ffffffff1660e01b8152600401602060405180830381865afa158015611880573d6000803e3d6000fd5b505050506040513d601f19601f820116820180604052508101906118a491906152db565b8b6001600160a01b031663964236636040518163ffffffff1660e01b8152600401602060405180830381865afa1580156118e2573d6000803e3d6000fd5b505050506040513d601f19601f82011682018060405250810190611906919061548f565b60405161191593929190615543565b60405180910390a35050505050505050565b336000908152600160208181526040928390205483518085019094526002845261062760f31b9184019190915260ff161515146119775760405162461bcd60e51b8152600401610c5791906151b8565b50600580546001600160a01b0319166001600160a01b0392909216919091179055565b336000908152600160208181526040928390205483518085019094526002845261062760f31b9184019190915260ff161515146119ea5760405162461bcd60e51b8152600401610c5791906151b8565b50601680546001600160a01b0319166001600160a01b0392909216919091179055565b601654604080518082019091526002815261323160f01b602082015290600160a01b900460ff1615611a525760405162461bcd60e51b8152600401610c5791906151b8565b50600082815260066020526040808220548151635d3e2fa160e01b815291516001600160a01b0390911692918391635d3e2fa191600480820192610120929091908290030181865afa158015611aac573d6000803e3d6000fd5b505050506040513d601f19601f82011682018060405250810190611ad09190615233565b905080608001516001600160a01b0316336001600160a01b0316146040518060400160405280600281526020017f323200000000000000000000000000000000000000000000000000000000000081525090611b3f5760405162461bcd60e51b8152600401610c5791906151b8565b5060808101516040516308165c1760e11b81526001600160a01b03918216600482015284151560248201529083169063102cb82e90604401600060405180830381600087803b158015611b9157600080fd5b505af1158015611ba5573d6000803e3d6000fd5b50505050336001600160a01b03167f23206eb063144a4ad38015cfdddfde8f6c65a648d766d6efe3f524ba5b03bd2782846001600160a01b031663315deeaa6040518163ffffffff1660e01b8152600401602060405180830381865afa158015611c13573d6000803e3d6000fd5b505050506040513d601f19601f82011682018060405250810190611c3791906152db565b856001600160a01b031663964236636040518163ffffffff1660e01b8152600401602060405180830381865afa158015611c75573d6000803e3d6000fd5b505050506040513d601f19601f82011682018060405250810190611c99919061548f565b87604051611caa9493929190615571565b60405180910390a250505050565b336000908152600160208181526040928390205483518085019094526002845261062760f31b9184019190915260ff16151514611d085760405162461bcd60e51b8152600401610c5791906151b8565b50601e805460ff1916911515919091179055565b7ff0c57e16840df040f15088dc2f81fe391c3923bec73e23a9662efc9c229c6a00805468010000000000000000810460ff16159067ffffffffffffffff16600081158015611d675750825b905060008267ffffffffffffffff166001148015611d845750303b155b905081158015611d92575080155b15611dc9576040517ff92ee8a900000000000000000000000000000000000000000000000000000000815260040160405180910390fd5b845467ffffffffffffffff191660011785558315611dfd57845468ff00000000000000001916680100000000000000001785555b8e60049080519060200190611e1392919061491f565b50600160025560005b600454811015611f2157600060048281548110611e3b57611e3b615207565b6000918252602090912001548f516001600160a01b0390911691508f9083908110611e6857611e68615207565b602002602001015160036000836001600160a01b03166001600160a01b0316815260200190815260200160002060006101000a8154816001600160a01b0302191690836001600160a01b031602179055508f8281518110611ecb57611ecb615207565b6020908102919091018101516001600160a01b039283166000908152600f8352604080822080546001600160a01b0319169590931694909417909155600790915220805460ff1916600190811790915501611e1c565b508b51611f359060089060208f019061491f565b5060005b60085481101561203e57600060088281548110611f5857611f58615207565b6000918252602090912001548d516001600160a01b0390911691508d9083908110611f8557611f85615207565b6020026020010151600e6000836001600160a01b03166001600160a01b0316815260200190815260200160002060006101000a8154816001600160a01b0302191690836001600160a01b031602179055508b8281518110611fe857611fe8615207565b6020908102919091018101516001600160a01b039283166000908152600b8352604080822080546001600160a01b0319169590931694909417909155600990915220805460ff1916600190811790915501611f39565b50600a80546001600160a01b03199081166001600160a01b038c81169190911790925560058054821692891692909217909155600c899055600d88905560158054339216821790556000908152600160208190526040909120805460ff1916909117905583156120ed57845468ff000000000000000019168555604051600181527fc7f505b2f371ae2175ee4913f4499e1f2633a7b5936321eed1cdaeb6115181d29060200160405180910390a15b505050505050505050505050505050565b336000908152600160208181526040928390205483518085019094526002845261062760f31b9184019190915260ff1615151461214e5760405162461bcd60e51b8152600401610c5791906151b8565b5060005b8351811015610e0f57600084828151811061216f5761216f615207565b602002602001015190506121db6008805480602002602001604051908101604052809291908181526020018280548015610ce4576020028201919060005260206000209081546001600160a01b03168152600190910190602001808311610cc657505050505082611207565b151560000361223057600880546001810182556000919091527ff3f7a9fe364faab93b216da50a3214154f22a0a2b415b23a84c8169e8b636ee30180546001600160a01b0319166001600160a01b0383161790555b83828151811061224257612242615207565b6020026020010151600e6000836001600160a01b03166001600160a01b0316815260200190815260200160002060006101000a8154816001600160a01b0302191690836001600160a01b031602179055508282815181106122a5576122a5615207565b6020908102919091018101516001600160a01b039283166000908152600b8352604080822080546001600160a01b0319169590931694909417909155600990915220805460ff1916600190811790915501612152565b6001600160a01b03811660009081526017602090815260409182902080548351818402810184019094528084526060939283018282801561235b57602002820191906000526020600020905b815481526020019060010190808311612347575b50505050509050919050565b336000908152600160208181526040928390205483518085019094526002845261062760f31b9184019190915260ff161515146123b75760405162461bcd60e51b8152600401610c5791906151b8565b50601d55601c91909155601b55565b6001600160a01b0381166000908152600760209081526040918290205482518084019093526001808452603360f81b9284019290925283929160ff9091161515146124245760405162461bcd60e51b8152600401610c5791906151b8565b50601654604080518082019091526002815261323160f01b602082015290600160a01b900460ff161561246a5760405162461bcd60e51b8152600401610c5791906151b8565b506001600160a01b038281166000908152600360205260409081902054905163a52f38d160e01b8152600481018790528592919091169063a52f38d190602401602060405180830381865afa1580156124c7573d6000803e3d6000fd5b505050506040513d601f19601f820116820180604052508101906124eb91906152db565b841115612571576001600160a01b038381166000908152600360205260409081902054905163a52f38d160e01b81526004810188905291169063a52f38d190602401602060405180830381865afa15801561254a573d6000803e3d6000fd5b505050506040513d601f19601f8201168201806040525081019061256e91906152db565b90505b600085815260066020526040808220548151635d3e2fa160e01b815291516001600160a01b0390911692918391635d3e2fa191600480820192610120929091908290030181865afa1580156125ca573d6000803e3d6000fd5b505050506040513d601f19601f820116820180604052508101906125ee9190615233565b6040516323b872dd60e01b8152336004820152306024820152604481018590529091506001600160a01b038616906323b872dd906064016020604051808303816000875af1158015612644573d6000803e3d6000fd5b505050506040513d601f19601f8201168201806040525081019061266891906155a9565b506001600160a01b03858116600081815260036020526040908190205490517f095ea7b300000000000000000000000000000000000000000000000000000000815292166004830152602482018590529063095ea7b3906044016020604051808303816000875af11580156126e1573d6000803e3d6000fd5b505050506040513d601f19601f8201168201806040525081019061270591906155a9565b506001600160a01b03858116600090815260036020526040908190205490517fd8aed145000000000000000000000000000000000000000000000000000000008152600481018a90526024810186905291169063d8aed14590604401600060405180830381600087803b15801561277b57600080fd5b505af115801561278f573d6000803e3d6000fd5b505050506001600160a01b0385811660009081526003602052604080822054905163a52f38d160e01b8152600481018b90529192169063a52f38d190602401602060405180830381865afa1580156127eb573d6000803e3d6000fd5b505050506040513d601f19601f8201168201806040525081019061280f91906152db565b905080600003612a6e576000888152600660205260408082205481517f232fa733000000000000000000000000000000000000000000000000000000008152825184936001600160a01b039093169263232fa7339260048082019391829003018187875af1158015612885573d6000803e3d6000fd5b505050506040513d601f19601f820116820180604052508101906128a991906155c6565b909250905081156129d55760008a8152600660209081526040808320546001600160a01b038c81168086526003909452938290205491516323b872dd60e01b815290841660048201529216602483015260448201849052906323b872dd906064016020604051808303816000875af1158015612929573d6000803e3d6000fd5b505050506040513d601f19601f8201168201806040525081019061294d91906155a9565b506001600160a01b03888116600090815260036020526040908190205490517f9b78dbfc00000000000000000000000000000000000000000000000000000000815260048101859052911690639b78dbfc90602401600060405180830381600087803b1580156129bc57600080fd5b505af11580156129d0573d6000803e3d6000fd5b505050505b8015612a6b5760008a815260066020526040908190205460145491516323b872dd60e01b81526001600160a01b0391821660048201529181166024830152604482018390528916906323b872dd906064016020604051808303816000875af1158015612a45573d6000803e3d6000fd5b505050506040513d601f19601f82011682018060405250810190612a6991906155a9565b505b50505b336001600160a01b03167f60bbdbcc9ae47c9d5e165a6752e36cef569d4a6de3d2b399f9322d7c634041a0838984604051612aab939291906155ea565b60405180910390a25050505050505050565b336000908152600160208181526040928390205483518085019094526002845261062760f31b9184019190915260ff16151514612b0d5760405162461bcd60e51b8152600401610c5791906151b8565b50601654604080518082019091526002815261323160f01b602082015290600160a01b900460ff1615612b535760405162461bcd60e51b8152600401610c5791906151b8565b50600081815260066020526040808220548151635d3e2fa160e01b815291516001600160a01b0390911692918391635d3e2fa191600480820192610120929091908290030181865afa158015612bad573d6000803e3d6000fd5b505050506040513d601f19601f82011682018060405250810190612bd19190615233565b61010081015160408051808201909152600281527f313900000000000000000000000000000000000000000000000000000000000060208201529192501515600114612c305760405162461bcd60e51b8152600401610c5791906151b8565b506001600160a01b038481166000908152600360205260409081902054905163ec7be39d60e01b81523360048201526024810186905291169063ec7be39d906044015b600060405180830381600087803b158015612c8d57600080fd5b505af1158015612ca1573d6000803e3d6000fd5b50505050816001600160a01b031663fab320e96040518163ffffffff1660e01b8152600401600060405180830381600087803b158015612ce057600080fd5b505af1158015612cf4573d6000803e3d6000fd5b50505050336001600160a01b03167f17177416dc9e9c18df48bdbc445b0e80b3ea7582cf5ba716df90dfef91fee39c82604051611caa919061560c565b6001600160a01b0385166000908152600760209081526040918290205482518084019093526001808452603360f81b9284019290925287929160ff909116151514612d8f5760405162461bcd60e51b8152600401610c5791906151b8565b506001600160a01b0384166000908152600960209081526040918290205482518084019093526001808452600d60fa1b9284019290925286929160ff909116151514612dee5760405162461bcd60e51b8152600401610c5791906151b8565b50601654604080518082019091526002815261323160f01b602082015290600160a01b900460ff1615612e345760405162461bcd60e51b8152600401610c5791906151b8565b50866001600160a01b031663313ce5676040518163ffffffff1660e01b8152600401602060405180830381865afa158015612e73573d6000803e3d6000fd5b505050506040513d601f19601f82011682018060405250810190612e9791906152f4565b612ea290600a615411565b612ead886001613079565b612eb7908a615420565b612ec390612710615420565b612ecd9190615437565b856001600160a01b031663313ce5676040518163ffffffff1660e01b8152600401602060405180830381865afa158015612f0b573d6000803e3d6000fd5b505050506040513d601f19601f82011682018060405250810190612f2f91906152f4565b612f3a90600a615411565b600c54612f48886000613079565b612f52908a615420565b612f5c9190615420565b612f669190615437565b1015604051806040016040528060018152602001603760f81b81525090612fa05760405162461bcd60e51b8152600401610c5791906151b8565b50612fb18888888888886000614018565b5050505050505050565b6015546040805180820190915260018152601960f91b6020820152906001600160a01b03163314612fff5760405162461bcd60e51b8152600401610c5791906151b8565b50600082815260066020526040908190205490516308165c1760e11b815233600482015282151560248201526001600160a01b0390911690819063102cb82e90604401600060405180830381600087803b15801561305c57600080fd5b505af1158015613070573d6000803e3d6000fd5b50505050505050565b6000811515810361311a576001600160a01b038084166000908152600e6020526040808220548151633fabe5a360e21b8152915192938493849384938493169163feaf968c9160048082019260a0929091908290030181865afa1580156130e4573d6000803e3d6000fd5b505050506040513d601f19601f820116820180604052508101906131089190615635565b5091985061125c975050505050505050565b6001600160a01b038084166000908152600f6020526040808220548151633fabe5a360e21b8152915192938493849384938493169163feaf968c9160048082019260a0929091908290030181865afa1580156130e4573d6000803e3d6000fd5b6001600160a01b0384166000908152600760209081526040918290205482518084019093526001808452603360f81b9284019290925286929160ff9091161515146131d85760405162461bcd60e51b8152600401610c5791906151b8565b50601e54604080518082019091526002815261032360f41b60208201529060ff16151560011461321b5760405162461bcd60e51b8152600401610c5791906151b8565b50601654604080518082019091526002815261323160f01b602082015290600160a01b900460ff16156132615760405162461bcd60e51b8152600401610c5791906151b8565b506040805180820190915260018152601b60f91b60208201523485111561329b5760405162461bcd60e51b8152600401610c5791906151b8565b50601660009054906101000a90046001600160a01b03166001600160a01b031663d0e30db0856040518263ffffffff1660e01b81526004016000604051808303818588803b1580156132ec57600080fd5b505af1158015613300573d6000803e3d6000fd5b5050505050846001600160a01b031663313ce5676040518163ffffffff1660e01b8152600401602060405180830381865afa158015613343573d6000803e3d6000fd5b505050506040513d601f19601f8201168201806040525081019061336791906152f4565b61337290600a615411565b61337d866001613079565b6133879088615420565b61339390612710615420565b61339d9190615437565b601660009054906101000a90046001600160a01b03166001600160a01b031663313ce5676040518163ffffffff1660e01b8152600401602060405180830381865afa1580156133f0573d6000803e3d6000fd5b505050506040513d601f19601f8201168201806040525081019061341491906152f4565b61341f90600a615411565b600c54601654613439906001600160a01b03166000613079565b6134439088615420565b61344d9190615420565b6134579190615437565b1015604051806040016040528060018152602001603760f81b815250906134915760405162461bcd60e51b8152600401610c5791906151b8565b506016546134b1908790879087906001600160a01b031687876000614018565b505050505050565b336000908152600160208181526040928390205483518085019094526002845261062760f31b9184019190915260ff161515146135095760405162461bcd60e51b8152600401610c5791906151b8565b50600c91909155600d55565b60048181548110610f3357600080fd5b601e54604080518082019091526002815261032360f41b60208201529060ff1615156001146135675760405162461bcd60e51b8152600401610c5791906151b8565b50601654604080518082019091526002815261323160f01b602082015290600160a01b900460ff16156135ad5760405162461bcd60e51b8152600401610c5791906151b8565b506040805180820190915260018152601b60f91b6020820152348211156135e75760405162461bcd60e51b8152600401610c5791906151b8565b50601660009054906101000a90046001600160a01b03166001600160a01b031663d0e30db0826040518263ffffffff1660e01b81526004016000604051808303818588803b15801561363857600080fd5b505af115801561364c573d6000803e3d6000fd5b505050600084815260066020526040808220548151635d3e2fa160e01b815291516001600160a01b0390911694509192508391635d3e2fa191600480820192610120929091908290030181865afa1580156136ab573d6000803e3d6000fd5b505050506040513d601f19601f820116820180604052508101906136cf9190615233565b604051633390ef1360e11b8152600481018590529091506001600160a01b03831690636721de2690602401600060405180830381600087803b15801561371457600080fd5b505af1158015613728573d6000803e3d6000fd5b505060165460405163a9059cbb60e01b81526001600160a01b03868116600483015260248201889052909116925063a9059cbb91506044016020604051808303816000875af115801561377f573d6000803e3d6000fd5b505050506040513d601f19601f820116820180604052508101906137a391906155a9565b50816001600160a01b0316631c783def6040518163ffffffff1660e01b8152600401602060405180830381865afa1580156137e2573d6000803e3d6000fd5b505050506040513d601f19601f8201168201806040525081019061380691906155a9565b151560010361386357816001600160a01b03166307a6bf696040518163ffffffff1660e01b8152600401600060405180830381600087803b15801561384a57600080fd5b505af115801561385e573d6000803e3d6000fd5b505050505b60165460405133917fae6907a71a3704b591c11a28209aad9c070726b192f3e7300e88562322955d6891611caa91859188916001600160a01b031690600190615571565b601760205281600052604060002081815481106138c357600080fd5b90600052602060002001600091509150505481565b600082815260066020526040808220548151635d3e2fa160e01b815291516001600160a01b039091169183918391635d3e2fa1916004808301926101209291908290030181865afa158015613931573d6000803e3d6000fd5b505050506040513d601f19601f820116820180604052508101906139559190615233565b60c08101516001600160a01b0390811660009081526003602052604080822054905163a52f38d160e01b8152600481018a9052939450909291169063a52f38d190602401602060405180830381865afa1580156139b6573d6000803e3d6000fd5b505050506040513d601f19601f820116820180604052508101906139da91906152db565b90506001600160a01b038316634d2c872a6139f58784615685565b6040517fffffffff0000000000000000000000000000000000000000000000000000000060e084901b168152600481019190915260006024820152604401611397565b600081815260066020526040808220548151635d3e2fa160e01b815291516001600160a01b0390911692918391635d3e2fa191600480820192610120929091908290030181865afa158015613a91573d6000803e3d6000fd5b505050506040513d601f19601f82011682018060405250810190613ab59190615233565b60808101519091506001600160a01b031633148015613ad75750610100810151155b6040518060400160405280600181526020017f390000000000000000000000000000000000000000000000000000000000000081525090613b2b5760405162461bcd60e51b8152600401610c5791906151b8565b506001600160a01b0384811660009081526003602052604090819020546080840151915163ec7be39d60e01b81529183166004830152602482018690529091169063ec7be39d90604401612c73565b6001600160a01b0381166000908152600960209081526040918290205482518084019093526001808452600d60fa1b9284019290925283929160ff909116151514613bd85760405162461bcd60e51b8152600401610c5791906151b8565b50601654604080518082019091526002815261323160f01b602082015290600160a01b900460ff1615613c1e5760405162461bcd60e51b8152600401610c5791906151b8565b50600084815260066020526040808220548151635d3e2fa160e01b815291516001600160a01b0390911692918391635d3e2fa191600480820192610120929091908290030181865afa158015613c78573d6000803e3d6000fd5b505050506040513d601f19601f82011682018060405250810190613c9c9190615233565b604051633390ef1360e11b8152600481018790529091506001600160a01b03831690636721de2690602401600060405180830381600087803b158015613ce157600080fd5b505af1158015613cf5573d6000803e3d6000fd5b50506040516323b872dd60e01b81523360048201526001600160a01b03858116602483015260448201899052871692506323b872dd91506064016020604051808303816000875af1158015613d4e573d6000803e3d6000fd5b505050506040513d601f19601f82011682018060405250810190613d7291906155a9565b50816001600160a01b0316631c783def6040518163ffffffff1660e01b8152600401602060405180830381865afa158015613db1573d6000803e3d6000fd5b505050506040513d601f19601f82011682018060405250810190613dd591906155a9565b1515600103613e3257816001600160a01b03166307a6bf696040518163ffffffff1660e01b8152600401600060405180830381600087803b158015613e1957600080fd5b505af1158015613e2d573d6000803e3d6000fd5b505050505b336001600160a01b03167fae6907a71a3704b591c11a28209aad9c070726b192f3e7300e88562322955d688287876000604051613e729493929190615571565b60405180910390a2505050505050565b336000908152600160208181526040928390205483518085019094526002845261062760f31b9184019190915260ff16151514613ed25760405162461bcd60e51b8152600401610c5791906151b8565b50601a55601955601855565b6015546040805180820190915260018152601960f91b6020820152906001600160a01b03163314613f225760405162461bcd60e51b8152600401610c5791906151b8565b5060005b825181101561163a57818181518110613f4157613f41615207565b602002602001015160016000858481518110613f5f57613f5f615207565b6020908102919091018101516001600160a01b03168252810191909152604001600020805460ff1916911515919091179055600101613f26565b336000908152600160208181526040928390205483518085019094526002845261062760f31b9184019190915260ff16151514613fe95760405162461bcd60e51b8152600401610c5791906151b8565b50601380546001600160a01b039384166001600160a01b03199182161790915560148054929093169116179055565b6001600160a01b038087166000908152600360209081526040918290205482517f3b24cc2100000000000000000000000000000000000000000000000000000000815292518b949190911692633b24cc219260048083019391928290030181865afa15801561408b573d6000803e3d6000fd5b505050506040513d601f19601f820116820180604052508101906140af91906152db565b10156040518060400160405280600181526020017f3800000000000000000000000000000000000000000000000000000000000000815250906141055760405162461bcd60e51b8152600401610c5791906151b8565b506040805161012081018252600060208083018290526060830182905260a0830182905260e0830182905233608084018181528486018d815260025486526001600160a01b038d811660c088018190528a1515610100890190815290875260039095529487902054865191519251945197517f3870862b0000000000000000000000000000000000000000000000000000000081526004810192909252602482019290925292841660448401529415156064830152929390911690633870862b90608401600060405180830381600087803b1580156141e357600080fd5b505af11580156141f7573d6000803e3d6000fd5b5050506001600160a01b03808a166000908152600f6020526040812054600554908316935089926142289116614894565b90506000819050806001600160a01b03166368b86bc28785600a60009054906101000a90046001600160a01b0316600b6000896001600160a01b03166001600160a01b0316815260200190815260200160002060009054906101000a90046001600160a01b0316600c54600d54600e60008c6001600160a01b03166001600160a01b0316815260200190815260200160002060009054906101000a90046001600160a01b03168c601660009054906101000a90046001600160a01b03166040518a63ffffffff1660e01b815260040161430999989796959493929190615698565b600060405180830381600087803b15801561432357600080fd5b505af1158015614337573d6000803e3d6000fd5b50506040517f8ac1b7750000000000000000000000000000000000000000000000000000000081523060048201526001600160a01b0384169250638ac1b7759150602401600060405180830381600087803b15801561439557600080fd5b505af11580156143a9573d6000803e3d6000fd5b50506010546011546012546040517f10ac5c3c0000000000000000000000000000000000000000000000000000000081526001600160a01b03938416600482015291831660248301528216604482015290841692506310ac5c3c9150606401600060405180830381600087803b15801561442257600080fd5b505af1158015614436573d6000803e3d6000fd5b5050601c54601b54601d546040517f6cb0ab5e0000000000000000000000000000000000000000000000000000000081526004810193909352602483019190915260448201526001600160a01b0384169250636cb0ab5e9150606401600060405180830381600087803b1580156144ac57600080fd5b505af11580156144c0573d6000803e3d6000fd5b5050601854601954601a546040517ff3cf4ada0000000000000000000000000000000000000000000000000000000081526004810193909352602483019190915260448201526001600160a01b038416925063f3cf4ada9150606401600060405180830381600087803b15801561453657600080fd5b505af115801561454a573d6000803e3d6000fd5b5050505086151560000361463157604051633390ef1360e11b8152600481018c90526001600160a01b03821690636721de2690602401600060405180830381600087803b15801561459a57600080fd5b505af11580156145ae573d6000803e3d6000fd5b50506040516323b872dd60e01b81523360048201526001600160a01b038581166024830152604482018f90528d1692506323b872dd91506064016020604051808303816000875af1158015614607573d6000803e3d6000fd5b505050506040513d601f19601f8201168201806040525081019061462b91906155a9565b50614716565b604051633390ef1360e11b8152600481018c90526001600160a01b03821690636721de2690602401600060405180830381600087803b15801561467357600080fd5b505af1158015614687573d6000803e3d6000fd5b505060165460405163a9059cbb60e01b81526001600160a01b03909116925063a9059cbb91506146d19085908f906004016001600160a01b03929092168252602082015260400190565b6020604051808303816000875af11580156146f0573d6000803e3d6000fd5b505050506040513d601f19601f8201168201806040525081019061471491906155a9565b505b88151560010361477457806001600160a01b03166307a6bf696040518163ffffffff1660e01b8152600401600060405180830381600087803b15801561475b57600080fd5b505af115801561476f573d6000803e3d6000fd5b505050505b8060066000600254815260200190815260200160002060006101000a8154816001600160a01b0302191690836001600160a01b0316021790555060176000336001600160a01b03166001600160a01b031681526020019081526020016000206002549080600181540180825580915050600190039060005260206000200160009091909190915055336001600160a01b03167f26db8b4d10bdab54a143e26d61e39b0eb3f4582570ee270cf254aaaea4f8068c60066000600254815260200190815260200160002060009054906101000a90046001600160a01b0316888e8e8e8d15604051614868969594939291906156fe565b60405180910390a2600280549060006148808361574c565b919050555050505050505050505050505050565b6000763d602d80600a3d3981f3363d3d373d3d3d363d730000008260601b60e81c176000526e5af43d82803e903d91602b57fd5bf38260781b17602052603760096000f090506001600160a01b03811661491a576040517fc2f868f400000000000000000000000000000000000000000000000000000000815260040160405180910390fd5b919050565b828054828255906000526020600020908101928215614974579160200282015b8281111561497457825182546001600160a01b0319166001600160a01b0390911617825560209092019160019091019061493f565b50614980929150614984565b5090565b5b808211156149805760008155600101614985565b634e487b7160e01b600052604160045260246000fd5b604051610120810167ffffffffffffffff811182821017156149d3576149d3614999565b60405290565b604051601f8201601f1916810167ffffffffffffffff81118282101715614a0257614a02614999565b604052919050565b600067ffffffffffffffff821115614a2457614a24614999565b5060051b60200190565b6001600160a01b0381168114614a4357600080fd5b50565b600082601f830112614a5757600080fd5b81356020614a6c614a6783614a0a565b6149d9565b8083825260208201915060208460051b870101935086841115614a8e57600080fd5b602086015b84811015614ab3578035614aa681614a2e565b8352918301918301614a93565b509695505050505050565b600082601f830112614acf57600080fd5b81356020614adf614a6783614a0a565b8083825260208201915060208460051b870101935086841115614b0157600080fd5b602086015b84811015614ab3578035614b1981614a2e565b8352918301918301614b06565b600080600060608486031215614b3b57600080fd5b833567ffffffffffffffff80821115614b5357600080fd5b614b5f87838801614a46565b94506020860135915080821115614b7557600080fd5b614b8187838801614abe565b93506040860135915080821115614b9757600080fd5b50614ba486828701614a46565b9150509250925092565b600080600060608486031215614bc357600080fd5b8335614bce81614a2e565b92506020840135614bde81614a2e565b91506040840135614bee81614a2e565b809150509250925092565b600060208284031215614c0b57600080fd5b8135614c1681614a2e565b9392505050565b8015158114614a4357600080fd5b600060208284031215614c3d57600080fd5b8135614c1681614c1d565b600060208284031215614c5a57600080fd5b5035919050565b600080600060608486031215614c7657600080fd5b833592506020840135614bde81614a2e565b60008060408385031215614c9b57600080fd5b823567ffffffffffffffff811115614cb257600080fd5b614cbe85828601614a46565b9250506020830135614ccf81614a2e565b809150509250929050565b60008060408385031215614ced57600080fd5b50508035926020909101359150565b803561491a81614a2e565b600080600060608486031215614d1c57600080fd5b8335614d2781614a2e565b92506020840135614d3781614c1d565b91506040840135614bee81614c1d565b60008060408385031215614d5a57600080fd5b823591506020830135614ccf81614c1d565b6000806000806000806000806000806101408b8d031215614d8c57600080fd5b8a3567ffffffffffffffff80821115614da457600080fd5b614db08e838f01614a46565b9b5060208d0135915080821115614dc657600080fd5b614dd28e838f01614abe565b9a5060408d0135915080821115614de857600080fd5b614df48e838f01614a46565b995060608d0135915080821115614e0a57600080fd5b614e168e838f01614a46565b985060808d0135915080821115614e2c57600080fd5b614e388e838f01614abe565b975060a08d0135915080821115614e4e57600080fd5b50614e5b8d828e01614a46565b955050614e6a60c08c01614cfc565b935060e08b013592506101008b01359150614e886101208c01614cfc565b90509295989b9194979a5092959850565b6020808252825182820181905260009190848201906040850190845b81811015614ed157835183529284019291840191600101614eb5565b50909695505050505050565b600080600060608486031215614ef257600080fd5b505081359360208301359350604090920135919050565b600080600060608486031215614f1e57600080fd5b83359250602084013591506040840135614bee81614a2e565b60008060408385031215614f4a57600080fd5b8235614f5581614a2e565b946020939093013593505050565b60008060008060008060c08789031215614f7c57600080fd5b863595506020870135614f8e81614a2e565b9450604087013593506060870135614fa581614a2e565b92506080870135614fb581614c1d565b915060a0870135614fc581614c1d565b809150509295509295509295565b60008060408385031215614fe657600080fd5b8235614ff181614a2e565b91506020830135614ccf81614c1d565b600080600080600060a0868803121561501957600080fd5b85359450602086013561502b81614a2e565b935060408601359250606086013561504281614c1d565b9150608086013561505281614c1d565b809150509295509295909350565b6000806040838503121561507357600080fd5b823561507e81614a2e565b91506020830135614ccf81614a2e565b600082601f83011261509f57600080fd5b813560206150af614a6783614a0a565b8083825260208201915060208460051b8701019350868411156150d157600080fd5b602086015b84811015614ab35780356150e981614c1d565b83529183019183016150d6565b6000806040838503121561510957600080fd5b823567ffffffffffffffff8082111561512157600080fd5b818501915085601f83011261513557600080fd5b81356020615145614a6783614a0a565b82815260059290921b8401810191818101908984111561516457600080fd5b948201945b8386101561518b57853561517c81614a2e565b82529482019490820190615169565b965050860135925050808211156151a157600080fd5b506151ae8582860161508e565b9150509250929050565b60006020808352835180602085015260005b818110156151e6578581018301518582016040015282016151ca565b506000604082860101526040601f19601f8301168501019250505092915050565b634e487b7160e01b600052603260045260246000fd5b805161491a81614c1d565b805161491a81614a2e565b6000610120828403121561524657600080fd5b61524e6149af565b8251815261525e6020840161521d565b6020820152604083015160408201526152796060840161521d565b606082015261528a60808401615228565b608082015261529b60a0840161521d565b60a08201526152ac60c08401615228565b60c08201526152bd60e0840161521d565b60e08201526101006152d081850161521d565b908201529392505050565b6000602082840312156152ed57600080fd5b5051919050565b60006020828403121561530657600080fd5b815160ff81168114614c1657600080fd5b634e487b7160e01b600052601160045260246000fd5b600181815b8085111561536857816000190482111561534e5761534e615317565b8085161561535b57918102915b93841c9390800290615332565b509250929050565b60008261537f5750600161125c565b8161538c5750600061125c565b81600181146153a257600281146153ac576153c8565b600191505061125c565b60ff8411156153bd576153bd615317565b50506001821b61125c565b5060208310610133831016604e8410600b84101617156153eb575081810a61125c565b6153f5838361532d565b806000190482111561540957615409615317565b029392505050565b6000614c1660ff841683615370565b808202811582820484141761125c5761125c615317565b60008261545457634e487b7160e01b600052601260045260246000fd5b500490565b6000806000806080858703121561546f57600080fd5b505082516020840151604085015160609095015191969095509092509050565b6000602082840312156154a157600080fd5b8151614c1681614a2e565b805182526020810151151560208301526040810151604083015260608101511515606083015260808101516154ec60808401826001600160a01b03169052565b5060a081015161550060a084018215159052565b5060c081015161551b60c08401826001600160a01b03169052565b5060e081015161552f60e084018215159052565b506101008181015180151584830152610e0f565b610160810161555282866154ac565b836101208301526001600160a01b038316610140830152949350505050565b610180810161558082876154ac565b846101208301526001600160a01b03841661014083015282151561016083015295945050505050565b6000602082840312156155bb57600080fd5b8151614c1681614c1d565b600080604083850312156155d957600080fd5b505080516020909101519092909150565b61016081016155f982866154ac565b6101208201939093526101400152919050565b610120810161125c82846154ac565b805169ffffffffffffffffffff8116811461491a57600080fd5b600080600080600060a0868803121561564d57600080fd5b6156568661561b565b94506020860151935060408601519250606086015191506156796080870161561b565b90509295509295909350565b8181038181111561125c5761125c615317565b61022081016156a7828c6154ac565b6001600160a01b03998a166101208301529789166101408201529588166101608701526101808601949094526101a085019290925285166101c084015284166101e083015290921661020090920191909152919050565b6001600160a01b0387811682526101c082019061571e60208401896154ac565b86610140840152808616610160840152508315156101808301528215156101a0830152979650505050505050565b60006001820161575e5761575e615317565b506001019056fea26469706673582212200fa24c76ee80ee23dfd8551f0f70a031d5ad14cd29224244c811f454fceecc4c64736f6c63430008180033",
  "linkReferences": {},
  "deployedLinkReferences": {}
}