{
  "_format": "hh-sol-artifact-1",
  "contractName": "CCFLPool",
  "sourceName": "contracts/CCFLPool.sol",
  "abi": [
    {
      "inputs": [],
      "name": "InvalidInitialization",
      "type": "error"
    },
    {
      "inputs": [],
      "name": "NotInitializing",
      "type": "error"
    },
    {
      "inputs": [
        {
          "internalType": "uint8",
          "name": "bits",
          "type": "uint8"
        },
        {
          "internalType": "uint256",
          "name": "value",
          "type": "uint256"
        }
      ],
      "name": "SafeCastOverflowedUintDowncast",
      "type": "error"
    },
    {
      "anonymous": false,
      "inputs": [
        {
          "indexed": true,
          "internalType": "address",
          "name": "lender",
          "type": "address"
        },
        {
          "indexed": true,
          "internalType": "address",
          "name": "poolAddress",
          "type": "address"
        },
        {
          "indexed": true,
          "internalType": "contract IERC20Standard",
          "name": "stableCoin",
          "type": "address"
        },
        {
          "indexed": false,
          "internalType": "uint256",
          "name": "amount",
          "type": "uint256"
        },
        {
          "indexed": false,
          "internalType": "uint256",
          "name": "lenderShare",
          "type": "uint256"
        },
        {
          "indexed": false,
          "internalType": "uint256",
          "name": "totalSupply",
          "type": "uint256"
        },
        {
          "indexed": false,
          "internalType": "uint256",
          "name": "totalLiquidity",
          "type": "uint256"
        },
        {
          "indexed": false,
          "internalType": "uint256",
          "name": "remainingPool",
          "type": "uint256"
        }
      ],
      "name": "AddSupply",
      "type": "event"
    },
    {
      "anonymous": false,
      "inputs": [
        {
          "indexed": false,
          "internalType": "uint64",
          "name": "version",
          "type": "uint64"
        }
      ],
      "name": "Initialized",
      "type": "event"
    },
    {
      "anonymous": false,
      "inputs": [
        {
          "indexed": true,
          "internalType": "address",
          "name": "lender",
          "type": "address"
        },
        {
          "indexed": true,
          "internalType": "address",
          "name": "poolAddress",
          "type": "address"
        },
        {
          "indexed": true,
          "internalType": "contract IERC20Standard",
          "name": "stableCoin",
          "type": "address"
        },
        {
          "indexed": false,
          "internalType": "uint256",
          "name": "amount",
          "type": "uint256"
        },
        {
          "indexed": false,
          "internalType": "uint256",
          "name": "lenderShare",
          "type": "uint256"
        },
        {
          "indexed": false,
          "internalType": "uint256",
          "name": "totalSupply",
          "type": "uint256"
        },
        {
          "indexed": false,
          "internalType": "uint256",
          "name": "totalLiquidity",
          "type": "uint256"
        },
        {
          "indexed": false,
          "internalType": "uint256",
          "name": "remainingPool",
          "type": "uint256"
        }
      ],
      "name": "WithdrawSupply",
      "type": "event"
    },
    {
      "inputs": [],
      "name": "CCFL",
      "outputs": [
        {
          "internalType": "address",
          "name": "",
          "type": "address"
        }
      ],
      "stateMutability": "view",
      "type": "function"
    },
    {
      "inputs": [
        {
          "internalType": "address",
          "name": "_user",
          "type": "address"
        }
      ],
      "name": "balanceOf",
      "outputs": [
        {
          "internalType": "uint256",
          "name": "",
          "type": "uint256"
        }
      ],
      "stateMutability": "view",
      "type": "function"
    },
    {
      "inputs": [
        {
          "internalType": "uint256",
          "name": "_loanId",
          "type": "uint256"
        },
        {
          "internalType": "uint256",
          "name": "_amount",
          "type": "uint256"
        },
        {
          "internalType": "address",
          "name": "_borrower",
          "type": "address"
        },
        {
          "internalType": "bool",
          "name": "_isFiat",
          "type": "bool"
        }
      ],
      "name": "borrow",
      "outputs": [],
      "stateMutability": "nonpayable",
      "type": "function"
    },
    {
      "inputs": [],
      "name": "cap",
      "outputs": [
        {
          "internalType": "uint256",
          "name": "",
          "type": "uint256"
        }
      ],
      "stateMutability": "view",
      "type": "function"
    },
    {
      "inputs": [
        {
          "internalType": "uint256",
          "name": "",
          "type": "uint256"
        }
      ],
      "name": "debt",
      "outputs": [
        {
          "internalType": "uint256",
          "name": "",
          "type": "uint256"
        }
      ],
      "stateMutability": "view",
      "type": "function"
    },
    {
      "inputs": [
        {
          "internalType": "uint256",
          "name": "_amount",
          "type": "uint256"
        }
      ],
      "name": "earnStaking",
      "outputs": [],
      "stateMutability": "nonpayable",
      "type": "function"
    },
    {
      "inputs": [
        {
          "internalType": "uint256",
          "name": "_loanId",
          "type": "uint256"
        }
      ],
      "name": "getCurrentLoan",
      "outputs": [
        {
          "internalType": "uint256",
          "name": "",
          "type": "uint256"
        }
      ],
      "stateMutability": "view",
      "type": "function"
    },
    {
      "inputs": [],
      "name": "getCurrentRate",
      "outputs": [
        {
          "internalType": "uint256",
          "name": "",
          "type": "uint256"
        },
        {
          "internalType": "uint256",
          "name": "",
          "type": "uint256"
        },
        {
          "internalType": "uint256",
          "name": "",
          "type": "uint256"
        },
        {
          "internalType": "uint256",
          "name": "",
          "type": "uint256"
        }
      ],
      "stateMutability": "view",
      "type": "function"
    },
    {
      "inputs": [],
      "name": "getDebtPool",
      "outputs": [
        {
          "internalType": "uint256",
          "name": "amount",
          "type": "uint256"
        }
      ],
      "stateMutability": "view",
      "type": "function"
    },
    {
      "inputs": [],
      "name": "getRemainingPool",
      "outputs": [
        {
          "internalType": "uint256",
          "name": "amount",
          "type": "uint256"
        }
      ],
      "stateMutability": "view",
      "type": "function"
    },
    {
      "inputs": [],
      "name": "getTotalSupply",
      "outputs": [
        {
          "internalType": "uint256",
          "name": "",
          "type": "uint256"
        }
      ],
      "stateMutability": "view",
      "type": "function"
    },
    {
      "inputs": [
        {
          "internalType": "contract IERC20Standard",
          "name": "_stableCoinAddress",
          "type": "address"
        },
        {
          "internalType": "address",
          "name": "interestRateStrategyAddress",
          "type": "address"
        },
        {
          "internalType": "uint256",
          "name": "_cap",
          "type": "uint256"
        }
      ],
      "name": "initialize",
      "outputs": [],
      "stateMutability": "nonpayable",
      "type": "function"
    },
    {
      "inputs": [],
      "name": "isPaused",
      "outputs": [
        {
          "internalType": "bool",
          "name": "",
          "type": "bool"
        }
      ],
      "stateMutability": "view",
      "type": "function"
    },
    {
      "inputs": [
        {
          "internalType": "uint256",
          "name": "",
          "type": "uint256"
        }
      ],
      "name": "lenders",
      "outputs": [
        {
          "internalType": "address",
          "name": "",
          "type": "address"
        }
      ],
      "stateMutability": "view",
      "type": "function"
    },
    {
      "inputs": [
        {
          "internalType": "uint256",
          "name": "_loanId",
          "type": "uint256"
        },
        {
          "internalType": "uint256",
          "name": "_amount",
          "type": "uint256"
        }
      ],
      "name": "liquidatePenalty",
      "outputs": [],
      "stateMutability": "nonpayable",
      "type": "function"
    },
    {
      "inputs": [
        {
          "internalType": "uint256",
          "name": "",
          "type": "uint256"
        }
      ],
      "name": "loans",
      "outputs": [
        {
          "internalType": "uint256",
          "name": "loanId",
          "type": "uint256"
        },
        {
          "internalType": "bool",
          "name": "isPaid",
          "type": "bool"
        },
        {
          "internalType": "uint256",
          "name": "amount",
          "type": "uint256"
        },
        {
          "internalType": "bool",
          "name": "isClosed",
          "type": "bool"
        },
        {
          "internalType": "address",
          "name": "borrower",
          "type": "address"
        },
        {
          "internalType": "bool",
          "name": "isLiquidated",
          "type": "bool"
        },
        {
          "internalType": "contract IERC20Standard",
          "name": "stableCoin",
          "type": "address"
        },
        {
          "internalType": "bool",
          "name": "isFinalty",
          "type": "bool"
        },
        {
          "internalType": "bool",
          "name": "isFiat",
          "type": "bool"
        }
      ],
      "stateMutability": "view",
      "type": "function"
    },
    {
      "inputs": [
        {
          "internalType": "address",
          "name": "",
          "type": "address"
        }
      ],
      "name": "operators",
      "outputs": [
        {
          "internalType": "bool",
          "name": "",
          "type": "bool"
        }
      ],
      "stateMutability": "view",
      "type": "function"
    },
    {
      "inputs": [],
      "name": "remainingPool",
      "outputs": [
        {
          "internalType": "uint256",
          "name": "",
          "type": "uint256"
        }
      ],
      "stateMutability": "view",
      "type": "function"
    },
    {
      "inputs": [
        {
          "internalType": "uint256",
          "name": "_loanId",
          "type": "uint256"
        },
        {
          "internalType": "uint256",
          "name": "_amount",
          "type": "uint256"
        }
      ],
      "name": "repay",
      "outputs": [],
      "stateMutability": "nonpayable",
      "type": "function"
    },
    {
      "inputs": [],
      "name": "reserve",
      "outputs": [
        {
          "internalType": "uint128",
          "name": "liquidityIndex",
          "type": "uint128"
        },
        {
          "internalType": "uint128",
          "name": "currentLiquidityRate",
          "type": "uint128"
        },
        {
          "internalType": "uint128",
          "name": "variableBorrowIndex",
          "type": "uint128"
        },
        {
          "internalType": "uint128",
          "name": "currentVariableBorrowRate",
          "type": "uint128"
        },
        {
          "internalType": "uint40",
          "name": "lastUpdateTimestamp",
          "type": "uint40"
        },
        {
          "internalType": "uint16",
          "name": "id",
          "type": "uint16"
        },
        {
          "internalType": "address",
          "name": "interestRateStrategyAddress",
          "type": "address"
        }
      ],
      "stateMutability": "view",
      "type": "function"
    },
    {
      "inputs": [
        {
          "internalType": "address",
          "name": "_ccfl",
          "type": "address"
        }
      ],
      "name": "setCCFL",
      "outputs": [],
      "stateMutability": "nonpayable",
      "type": "function"
    },
    {
      "inputs": [
        {
          "internalType": "uint256",
          "name": "_cap",
          "type": "uint256"
        }
      ],
      "name": "setCap",
      "outputs": [],
      "stateMutability": "nonpayable",
      "type": "function"
    },
    {
      "inputs": [
        {
          "internalType": "address[]",
          "name": "_addresses",
          "type": "address[]"
        },
        {
          "internalType": "bool[]",
          "name": "_isActives",
          "type": "bool[]"
        }
      ],
      "name": "setOperators",
      "outputs": [],
      "stateMutability": "nonpayable",
      "type": "function"
    },
    {
      "inputs": [
        {
          "internalType": "bool",
          "name": "_paused",
          "type": "bool"
        }
      ],
      "name": "setPaused",
      "outputs": [],
      "stateMutability": "nonpayable",
      "type": "function"
    },
    {
      "inputs": [
        {
          "internalType": "address",
          "name": "",
          "type": "address"
        }
      ],
      "name": "share",
      "outputs": [
        {
          "internalType": "uint256",
          "name": "",
          "type": "uint256"
        }
      ],
      "stateMutability": "view",
      "type": "function"
    },
    {
      "inputs": [],
      "name": "stableCoinAddress",
      "outputs": [
        {
          "internalType": "contract IERC20Standard",
          "name": "",
          "type": "address"
        }
      ],
      "stateMutability": "view",
      "type": "function"
    },
    {
      "inputs": [
        {
          "internalType": "uint256",
          "name": "_amount",
          "type": "uint256"
        }
      ],
      "name": "supply",
      "outputs": [],
      "stateMutability": "nonpayable",
      "type": "function"
    },
    {
      "inputs": [],
      "name": "totalDebt",
      "outputs": [
        {
          "internalType": "uint256",
          "name": "",
          "type": "uint256"
        }
      ],
      "stateMutability": "view",
      "type": "function"
    },
    {
      "inputs": [],
      "name": "totalLiquidity",
      "outputs": [
        {
          "internalType": "uint256",
          "name": "",
          "type": "uint256"
        }
      ],
      "stateMutability": "view",
      "type": "function"
    },
    {
      "inputs": [],
      "name": "totalSupply",
      "outputs": [
        {
          "internalType": "uint256",
          "name": "",
          "type": "uint256"
        }
      ],
      "stateMutability": "view",
      "type": "function"
    },
    {
      "inputs": [
        {
          "internalType": "uint256",
          "name": "_amount",
          "type": "uint256"
        }
      ],
      "name": "withdraw",
      "outputs": [],
      "stateMutability": "nonpayable",
      "type": "function"
    },
    {
      "inputs": [
        {
          "internalType": "contract IERC20Standard",
          "name": "_token",
          "type": "address"
        },
        {
          "internalType": "address",
          "name": "_receiver",
          "type": "address"
        }
      ],
      "name": "withdrawByAdmin",
      "outputs": [],
      "stateMutability": "nonpayable",
      "type": "function"
    },
    {
      "inputs": [
        {
          "internalType": "address",
          "name": "_receiver",
          "type": "address"
        },
        {
          "internalType": "uint256",
          "name": "_loanId",
          "type": "uint256"
        }
      ],
      "name": "withdrawLoan",
      "outputs": [],
      "stateMutability": "nonpayable",
      "type": "function"
    },
    {
      "stateMutability": "payable",
      "type": "receive"
    }
  ],
  "bytecode": "0x608060405234801561001057600080fd5b50612ec5806100206000396000f3fe6080604052600436106102025760003560e01c80637f3940311161011d578063c4e41b22116100b0578063e3691c511161007f578063f430503511610064578063f430503514610748578063f7fb07b014610768578063fc7b9c18146107b557600080fd5b8063e3691c5114610708578063ec7be39d1461072857600080fd5b8063c4e41b2214610538578063cd3293de1461054d578063d8aed14514610613578063e1ec3c681461063357600080fd5b80639b78dbfc116100ec5780639b78dbfc146104c1578063a52f38d1146104e1578063b14d37c014610501578063b187bd261461051757600080fd5b80637f394031146104415780638ac1b77514610461578063929eea2114610481578063982aae46146104a157600080fd5b80632e1a7d4d116101955780633b24cc21116101645780633b24cc21146103b45780633b4675a7146103c957806347786d371461040157806370a082311461042157600080fd5b80632e1a7d4d1461033e578063354030231461035e578063355274ea1461037e5780633870862b1461039457600080fd5b80631794bb3c116101d15780631794bb3c146102ae57806318160ddd146102ce5780631877bb5c146102e45780631e0029c81461031157600080fd5b806303ec357f1461020e57806313e7c9d81461023657806315770f921461027657806316c38b3c1461028c57600080fd5b3661020957005b600080fd5b34801561021a57600080fd5b506102236107cb565b6040519081526020015b60405180910390f35b34801561024257600080fd5b506102666102513660046128fe565b60006020819052908152604090205460ff1681565b604051901515815260200161022d565b34801561028257600080fd5b50610223600b5481565b34801561029857600080fd5b506102ac6102a7366004612929565b6108bb565b005b3480156102ba57600080fd5b506102ac6102c9366004612946565b610942565b3480156102da57600080fd5b50610223600a5481565b3480156102f057600080fd5b506102236102ff3660046128fe565b60086020526000908152604090205481565b34801561031d57600080fd5b5061022361032c366004612987565b60096020526000908152604090205481565b34801561034a57600080fd5b506102ac610359366004612987565b610b42565b34801561036a57600080fd5b506102ac610379366004612987565b610e06565b34801561038a57600080fd5b50610223600f5481565b3480156103a057600080fd5b506102ac6103af3660046129a0565b6110fd565b3480156103c057600080fd5b50600d54610223565b3480156103d557600080fd5b506004546103e9906001600160a01b031681565b6040516001600160a01b03909116815260200161022d565b34801561040d57600080fd5b506102ac61041c366004612987565b6113ad565b34801561042d57600080fd5b5061022361043c3660046128fe565b611403565b34801561044d57600080fd5b506102ac61045c3660046129ea565b6114c5565b34801561046d57600080fd5b506102ac61047c3660046128fe565b6115f4565b34801561048d57600080fd5b506103e961049c366004612987565b611674565b3480156104ad57600080fd5b506001546103e9906001600160a01b031681565b3480156104cd57600080fd5b506102ac6104dc366004612987565b61169e565b3480156104ed57600080fd5b506102236104fc366004612987565b611737565b34801561050d57600080fd5b50610223600d5481565b34801561052357600080fd5b50600e5461026690600160a01b900460ff1681565b34801561054457600080fd5b50610223611834565b34801561055957600080fd5b506005546006546007546105b8926001600160801b0380821693600160801b92839004821693828216939091049091169064ffffffffff81169065010000000000810461ffff169067010000000000000090046001600160a01b031687565b604080516001600160801b03988916815296881660208801529487169486019490945294909116606084015264ffffffffff16608083015261ffff90921660a08201526001600160a01b0390911660c082015260e00161022d565b34801561061f57600080fd5b506102ac61062e3660046129ea565b61190c565b34801561063f57600080fd5b506106b561064e366004612987565b600360208190526000918252604090912080546001820154600283015493830154600490930154919360ff918216939092818316926001600160a01b036101008404811693600160a81b9081900483169391821692600160a01b8304811692919091041689565b60408051998a5297151560208a01529688019590955292151560608701526001600160a01b039182166080870152151560a08601521660c0840152151560e083015215156101008201526101200161022d565b34801561071457600080fd5b506102ac610723366004612a0c565b611e03565b34801561073457600080fd5b506102ac610743366004612a45565b611f60565b34801561075457600080fd5b506102ac610763366004612b54565b6120b3565b34801561077457600080fd5b50600654600554604080516001600160801b03600160801b80860482168352840481166020830152938416918101919091529116606082015260800161022d565b3480156107c157600080fd5b50610223600c5481565b6000806107d661216d565b905060006107ec8260c001518360e0015161226a565b6006549091506108069082906001600160801b031661227e565b60808301526001546040805163313ce56760e01b815290516b033b2e3c9fd0803ce8000000926001600160a01b03169163313ce5679160048083019260209291908290030181865afa158015610860573d6000803e3d6000fd5b505050506040513d601f19601f820116820180604052508101906108849190612c16565b61088f90600a612d33565b6080840151600c546108a09161227e565b6108aa9190612d42565b6108b49190612d6f565b9250505090565b600e546040805180820190915260018152601960f91b6020820152906001600160a01b031633146109085760405162461bcd60e51b81526004016108ff9190612d91565b60405180910390fd5b50600e8054911515600160a01b027fffffffffffffffffffffff00ffffffffffffffffffffffffffffffffffffffff909216919091179055565b7ff0c57e16840df040f15088dc2f81fe391c3923bec73e23a9662efc9c229c6a00805468010000000000000000810460ff16159067ffffffffffffffff1660008115801561098d5750825b905060008267ffffffffffffffff1660011480156109aa5750303b155b9050811580156109b8575080155b156109ef576040517ff92ee8a900000000000000000000000000000000000000000000000000000000815260040160405180910390fd5b845467ffffffffffffffff191660011785558315610a2357845468ff00000000000000001916680100000000000000001785555b600180546001600160a01b03808b1673ffffffffffffffffffffffffffffffffffffffff1992831617835560078054918b16670100000000000000027fffffffffff0000000000000000000000000000000000000000ffffffffffffff909216919091179055600580546fffffffffffffffffffffffffffffffff199081166b033b2e3c9fd0803ce8000000908117909255600680549091169091179055600e8054909116339081179091556000908152602081905260409020805460ff19169091179055600f8690558315610b3857845468ff000000000000000019168555604051600181527fc7f505b2f371ae2175ee4913f4499e1f2633a7b5936321eed1cdaeb6115181d29060200160405180910390a15b5050505050505050565b600e54604080518082019091526002815261323160f01b602082015290600160a01b900460ff1615610b875760405162461bcd60e51b81526004016108ff9190612d91565b506000610b9261216d565b9050610b9d816122c2565b6001546040805163313ce56760e01b815290516000926001600160a01b03169163313ce5679160048083019260209291908290030181865afa158015610be7573d6000803e3d6000fd5b505050506040513d601f19601f82011682018060405250810190610c0b9190612c16565b610c1690600a612d33565b610c2c6b033b2e3c9fd0803ce800000085612d42565b610c369190612d6f565b9050610c436000826122fb565b600554600090610c5d9083906001600160801b0316612483565b3360009081526008602052604081205491925090610c7c908390612de0565b905081600a6000828254610c909190612de0565b9250508190555081600b6000828254610ca99190612de0565b909155505060408051808201909152600181527f3800000000000000000000000000000000000000000000000000000000000000602082015250336000908152600860205260408120829055600d8054879290610d07908490612de0565b909155505060015460405163a9059cbb60e01b8152336004820152602481018790526001600160a01b039091169063a9059cbb906044016020604051808303816000875af1158015610d5d573d6000803e3d6000fd5b505050506040513d601f19601f82011682018060405250810190610d819190612df3565b506001543360008181526008602090815260409182902054600a54600b54600d5485518d81529485019390935293830152606082019290925260808101919091526001600160a01b03909216913091907f173401e3c9626102fe861ca7ddb4665d741deebad547125c24038cafa9345db29060a0015b60405180910390a45050505050565b600e54604080518082019091526002815261323160f01b602082015290600160a01b900460ff1615610e4b5760405162461bcd60e51b81526004016108ff9190612d91565b50600f5481610e58611834565b610e629190612e10565b11156040518060400160405280600281526020017f323300000000000000000000000000000000000000000000000000000000000081525090610eb85760405162461bcd60e51b81526004016108ff9190612d91565b506000610ec361216d565b9050610ece816122c2565b6001546040805163313ce56760e01b815290516000926001600160a01b03169163313ce5679160048083019260209291908290030181865afa158015610f18573d6000803e3d6000fd5b505050506040513d601f19601f82011682018060405250810190610f3c9190612c16565b610f4790600a612d33565b610f5d6b033b2e3c9fd0803ce800000085612d42565b610f679190612d6f565b9050610f748160006122fb565b600554600090610f8e9083906001600160801b0316612483565b3360009081526008602052604081205491925090610fad908390612e10565b905081600a6000828254610fc19190612e10565b9250508190555081600b6000828254610fda9190612e10565b9091555050336000908152600860205260408120829055600d8054879290611003908490612e10565b90915550506001546040516323b872dd60e01b8152336004820152306024820152604481018790526001600160a01b03909116906323b872dd906064016020604051808303816000875af115801561105f573d6000803e3d6000fd5b505050506040513d601f19601f820116820180604052508101906110839190612df3565b506001543360008181526008602090815260409182902054600a54600b54600d5485518d81529485019390935293830152606082019290925260808101919091526001600160a01b03909216913091907fac71e4358c08cef1a5335ac1c1d79f8eea0a3bd10f01a4259308137ebc63d76a9060a001610df7565b600454604080518082019091526002815261313360f01b6020820152906001600160a01b031633146111425760405162461bcd60e51b81526004016108ff9190612d91565b50600e54604080518082019091526002815261323160f01b602082015290600160a01b900460ff16156111885760405162461bcd60e51b81526004016108ff9190612d91565b50600061119361216d565b905061119e816122c2565b6001546040805163313ce56760e01b815290516000926001600160a01b03169163313ce5679160048083019260209291908290030181865afa1580156111e8573d6000803e3d6000fd5b505050506040513d601f19601f8201168201806040525081019061120c9190612c16565b61121790600a612d33565b61122d6b033b2e3c9fd0803ce800000087612d42565b6112379190612d6f565b9050600061125283608001518361248390919063ffffffff16565b60008881526009602052604081205491925090611270908390612e10565b905081600c60008282546112849190612e10565b9091555050600d5460408051808201909152600281527f31350000000000000000000000000000000000000000000000000000000000006020820152908811156112e15760405162461bcd60e51b81526004016108ff9190612d91565b506000888152600360208181526040808420600990925283208490558a8155600281018a905590810180547fffffffffffffffffffffff0000000000000000000000000000000000000000ff166101006001600160a01b038b160217905560048101805460ff60a81b1916600160a81b891515021790559061136390856122fb565b6040850151611373908590612483565b600b60008282546113849190612de0565b9250508190555087600d600082825461139d9190612de0565b9091555050505050505050505050565b33600090815260208181526040918290205482518084019093526002835261062760f31b9183019190915260ff1615156001146113fd5760405162461bcd60e51b81526004016108ff9190612d91565b50600f55565b6001546040805163313ce56760e01b815290516000926001600160a01b03169163313ce5679160048083019260209291908290030181865afa15801561144d573d6000803e3d6000fd5b505050506040513d601f19601f820116820180604052508101906114719190612c16565b61147c90601b612e23565b61148790600a612d33565b6005546001600160a01b0384166000908152600860205260409020546114b5916001600160801b031661227e565b6114bf9190612d6f565b92915050565b600454604080518082019091526002815261313360f01b6020820152906001600160a01b0316331461150a5760405162461bcd60e51b81526004016108ff9190612d91565b50600e54604080518082019091526002815261323160f01b602082015290600160a01b900460ff16156115505760405162461bcd60e51b81526004016108ff9190612d91565b50600082815260036020818152604092839020909101548251808401909352600283527f313700000000000000000000000000000000000000000000000000000000000091830191909152600160a81b900460ff16156115c35760405162461bcd60e51b81526004016108ff9190612d91565b506115ce81336124c2565b50600090815260036020819052604090912001805460ff60a81b1916600160a81b179055565b33600090815260208181526040918290205482518084019093526002835261062760f31b9183019190915260ff1615156001146116445760405162461bcd60e51b81526004016108ff9190612d91565b506004805473ffffffffffffffffffffffffffffffffffffffff19166001600160a01b0392909216919091179055565b6002818154811061168457600080fd5b6000918252602090912001546001600160a01b0316905081565b600454604080518082019091526002815261313360f01b6020820152906001600160a01b031633146116e35760405162461bcd60e51b81526004016108ff9190612d91565b50600e54604080518082019091526002815261323160f01b602082015290600160a01b900460ff16156117295760405162461bcd60e51b81526004016108ff9190612d91565b5061173481336124c2565b50565b60008061174261216d565b905060006117588260c001518360e0015161226a565b6006549091506117729082906001600160801b031661227e565b60808301526001546040805163313ce56760e01b815290516b033b2e3c9fd0803ce8000000926001600160a01b03169163313ce5679160048083019260209291908290030181865afa1580156117cc573d6000803e3d6000fd5b505050506040513d601f19601f820116820180604052508101906117f09190612c16565b6117fb90600a612d33565b60808401516000878152600960205260409020546118189161227e565b6118229190612d42565b61182c9190612d6f565b949350505050565b60008061183f61216d565b905060006118558260a001518360e0015161264c565b905061186e82604001518261227e90919063ffffffff16565b604080840191909152600154815163313ce56760e01b815291516b033b2e3c9fd0803ce8000000926001600160a01b039092169163313ce5679160048083019260209291908290030181865afa1580156118cc573d6000803e3d6000fd5b505050506040513d601f19601f820116820180604052508101906118f09190612c16565b6118fb90600a612d33565b6040840151600a546108a09161227e565b600454604080518082019091526002815261313360f01b6020820152906001600160a01b031633146119515760405162461bcd60e51b81526004016108ff9190612d91565b50600e54604080518082019091526002815261323160f01b602082015290600160a01b900460ff16156119975760405162461bcd60e51b81526004016108ff9190612d91565b50600082815260036020818152604092839020909101548251808401909352600283527f31360000000000000000000000000000000000000000000000000000000000009183019190915260ff1615611a035760405162461bcd60e51b81526004016108ff9190612d91565b506000611a0e61216d565b9050611a19816122c2565b6001546040805163313ce56760e01b815290516000926001600160a01b03169163313ce5679160048083019260209291908290030181865afa158015611a63573d6000803e3d6000fd5b505050506040513d601f19601f82011682018060405250810190611a879190612c16565b611a9290600a612d33565b611aa86b033b2e3c9fd0803ce800000085612d42565b611ab29190612d6f565b600654909150600090611acf9083906001600160801b0316612483565b6000868152600960205260409020549091508110611ce757600085815260096020526040812054600c805491929091611b09908490612de0565b90915550506006546000868152600960205260408120549091611b3591906001600160801b031661227e565b6001546040805163313ce56760e01b815290519293506000926b033b2e3c9fd0803ce8000000926001600160a01b03169163313ce5679160048083019260209291908290030181865afa158015611b90573d6000803e3d6000fd5b505050506040513d601f19601f82011682018060405250810190611bb49190612c16565b611bbf90600a612d33565b611bc99084612d42565b611bd39190612d6f565b6000888152600960205260408120819055909150611bf29083906122fb565b604080860151600089815260096020529190912054611c1091612483565b600b6000828254611c219190612e10565b9250508190555080600d6000828254611c3a9190612e10565b9091555050600154600480546040516323b872dd60e01b81526001600160a01b039182169281019290925230602483015260448201849052909116906323b872dd906064016020604051808303816000875af1158015611c9e573d6000803e3d6000fd5b505050506040513d601f19601f82011682018060405250810190611cc29190612df3565b505050600085815260036020819052604090912001805460ff19166001179055611dfc565b600085815260096020526040812054611d01908390612de0565b905081600c6000828254611d159190612de0565b90915550506000868152600960205260408120829055611d369084906122fb565b6040840151611d46908490612483565b600b6000828254611d579190612e10565b9250508190555084600d6000828254611d709190612e10565b9091555050600154600480546040516323b872dd60e01b81526001600160a01b039182169281019290925230602483015260448201889052909116906323b872dd906064015b6020604051808303816000875af1158015611dd5573d6000803e3d6000fd5b505050506040513d601f19601f82011682018060405250810190611df99190612df3565b50505b5050505050565b600e546040805180820190915260018152601960f91b6020820152906001600160a01b03163314611e475760405162461bcd60e51b81526004016108ff9190612d91565b506040517f70a082310000000000000000000000000000000000000000000000000000000081523060048201526001600160a01b0383169063a9059cbb90839083906370a0823190602401602060405180830381865afa158015611eaf573d6000803e3d6000fd5b505050506040513d601f19601f82011682018060405250810190611ed39190612e3c565b6040517fffffffff0000000000000000000000000000000000000000000000000000000060e085901b1681526001600160a01b03909216600483015260248201526044015b6020604051808303816000875af1158015611f37573d6000803e3d6000fd5b505050506040513d601f19601f82011682018060405250810190611f5b9190612df3565b505050565b600454604080518082019091526002815261313360f01b6020820152906001600160a01b03163314611fa55760405162461bcd60e51b81526004016108ff9190612d91565b50600e54604080518082019091526002815261323160f01b602082015290600160a01b900460ff1615611feb5760405162461bcd60e51b81526004016108ff9190612d91565b50600081815260036020908152604091829020600101548251808401909352600283527f31340000000000000000000000000000000000000000000000000000000000009183019190915260ff16156120575760405162461bcd60e51b81526004016108ff9190612d91565b50600081815260036020526040908190206001808201805460ff19168217905554600290910154915163a9059cbb60e01b81526001600160a01b038581166004830152602482019390935291169063a9059cbb90604401611f18565b600e546040805180820190915260018152601960f91b6020820152906001600160a01b031633146120f75760405162461bcd60e51b81526004016108ff9190612d91565b5060005b8251811015611f5b5781818151811061211657612116612e55565b602002602001015160008085848151811061213357612133612e55565b6020908102919091018101516001600160a01b03168252810191909152604001600020805460ff19169115159190911790556001016120fb565b6121bc60405180610100016040528060008152602001600081526020016000815260200160008152602001600081526020016000815260200160008152602001600064ffffffffff1681525090565b61220b60405180610100016040528060008152602001600081526020016000815260200160008152602001600081526020016000815260200160008152602001600064ffffffffff1681525090565b6005546001600160801b03808216604084018190526020840152600654808216608085018190526060850152600160801b92839004821660a0850152919091041660c082015260075464ffffffffff1660e0820152600c548152919050565b6000612277838342612689565b9392505050565b600081156b019d971e4fe8401e7400000019839004841115176122a057600080fd5b506b033b2e3c9fd0803ce800000091026b019d971e4fe8401e74000000010490565b60075464ffffffffff4281169116036122d85750565b6122e1816127b5565b506007805464ffffffffff19164264ffffffffff16179055565b61231f60405180606001604052806000815260200160008152602001600081525090565b6007546040805160808101825285815260208101859052600654600c546701000000000000009094046001600160a01b0316936356eaf2649383019161236e91906001600160801b031661227e565b8152600554600b5460209092019161238e916001600160801b031661227e565b9052604080517fffffffff0000000000000000000000000000000000000000000000000000000060e085901b168152825160048201526020830151602482015290820151604482015260609091015160648201526084016040805180830381865afa158015612401573d6000803e3d6000fd5b505050506040513d601f19601f820116820180604052508101906124259190612e6b565b602083015280825261243690612898565b600580546001600160801b03928316600160801b029216919091179055602081015161246190612898565b600680546001600160801b03928316600160801b029216919091179055505050565b600081156b033b2e3c9fd0803ce8000000600284041904841117156124a757600080fd5b506b033b2e3c9fd0803ce80000009190910260028204010490565b81156126485760006124d261216d565b90506124dd816122c2565b6001546040805163313ce56760e01b815290516000926001600160a01b03169163313ce5679160048083019260209291908290030181865afa158015612527573d6000803e3d6000fd5b505050506040513d601f19601f8201168201806040525081019061254b9190612c16565b61255690600a612d33565b61256c6b033b2e3c9fd0803ce800000086612d42565b6125769190612d6f565b905060006125938360400151600b5461227e90919063ffffffff16565b905060006125bb826125b5866040015186866125af9190612e10565b9061227e565b90612483565b90506125c681612898565b600580546fffffffffffffffffffffffffffffffff19166001600160801b0392909216919091179055600d8054879190600090612604908490612e10565b90915550506001546040516323b872dd60e01b81526001600160a01b03878116600483015230602483015260448201899052909116906323b872dd90606401611db6565b5050565b60008061266064ffffffffff841642612de0565b61266a9085612d42565b6301e133809004905061182c816b033b2e3c9fd0803ce8000000612e10565b60008061269d64ffffffffff851684612de0565b9050806000036126bc576b033b2e3c9fd0803ce8000000915050612277565b600019810160008080600285116126d45760006126d9565b600285035b925066038882915c40006126ed8a8061227e565b816126fa576126fa612d59565b0491506301e1338061270c838b61227e565b8161271957612719612d59565b0490506000826127298688612d42565b6127339190612d42565b60029004905060008285612747888a612d42565b6127519190612d42565b61275b9190612d42565b60069004905080826301e133806127728a8f612d42565b61277c9190612d6f565b612792906b033b2e3c9fd0803ce8000000612e10565b61279c9190612e10565b6127a69190612e10565b9b9a5050505050505050505050565b60a0810151156128275760006127d38260a001518360e0015161264c565b90506127ec82602001518261227e90919063ffffffff16565b604083018190526127fc90612898565b600580546fffffffffffffffffffffffffffffffff19166001600160801b0392909216919091179055505b8051156117345760006128428260c001518360e0015161226a565b905061285b82606001518261227e90919063ffffffff16565b6080830181905261286b90612898565b600680546fffffffffffffffffffffffffffffffff19166001600160801b03929092169190911790555050565b60006001600160801b038211156128e5576040517f6dfcc65000000000000000000000000000000000000000000000000000000000815260806004820152602481018390526044016108ff565b5090565b6001600160a01b038116811461173457600080fd5b60006020828403121561291057600080fd5b8135612277816128e9565b801515811461173457600080fd5b60006020828403121561293b57600080fd5b81356122778161291b565b60008060006060848603121561295b57600080fd5b8335612966816128e9565b92506020840135612976816128e9565b929592945050506040919091013590565b60006020828403121561299957600080fd5b5035919050565b600080600080608085870312156129b657600080fd5b843593506020850135925060408501356129cf816128e9565b915060608501356129df8161291b565b939692955090935050565b600080604083850312156129fd57600080fd5b50508035926020909101359150565b60008060408385031215612a1f57600080fd5b8235612a2a816128e9565b91506020830135612a3a816128e9565b809150509250929050565b60008060408385031215612a5857600080fd5b8235612a63816128e9565b946020939093013593505050565b634e487b7160e01b600052604160045260246000fd5b604051601f8201601f1916810167ffffffffffffffff81118282101715612ab057612ab0612a71565b604052919050565b600067ffffffffffffffff821115612ad257612ad2612a71565b5060051b60200190565b600082601f830112612aed57600080fd5b81356020612b02612afd83612ab8565b612a87565b8083825260208201915060208460051b870101935086841115612b2457600080fd5b602086015b84811015612b49578035612b3c8161291b565b8352918301918301612b29565b509695505050505050565b60008060408385031215612b6757600080fd5b823567ffffffffffffffff80821115612b7f57600080fd5b818501915085601f830112612b9357600080fd5b81356020612ba3612afd83612ab8565b82815260059290921b84018101918181019089841115612bc257600080fd5b948201945b83861015612be9578535612bda816128e9565b82529482019490820190612bc7565b96505086013592505080821115612bff57600080fd5b50612c0c85828601612adc565b9150509250929050565b600060208284031215612c2857600080fd5b815160ff8116811461227757600080fd5b634e487b7160e01b600052601160045260246000fd5b600181815b80851115612c8a578160001904821115612c7057612c70612c39565b80851615612c7d57918102915b93841c9390800290612c54565b509250929050565b600082612ca1575060016114bf565b81612cae575060006114bf565b8160018114612cc45760028114612cce57612cea565b60019150506114bf565b60ff841115612cdf57612cdf612c39565b50506001821b6114bf565b5060208310610133831016604e8410600b8410161715612d0d575081810a6114bf565b612d178383612c4f565b8060001904821115612d2b57612d2b612c39565b029392505050565b600061227760ff841683612c92565b80820281158282048414176114bf576114bf612c39565b634e487b7160e01b600052601260045260246000fd5b600082612d8c57634e487b7160e01b600052601260045260246000fd5b500490565b60006020808352835180602085015260005b81811015612dbf57858101830151858201604001528201612da3565b506000604082860101526040601f19601f8301168501019250505092915050565b818103818111156114bf576114bf612c39565b600060208284031215612e0557600080fd5b81516122778161291b565b808201808211156114bf576114bf612c39565b60ff82811682821603908111156114bf576114bf612c39565b600060208284031215612e4e57600080fd5b5051919050565b634e487b7160e01b600052603260045260246000fd5b60008060408385031215612e7e57600080fd5b50508051602090910151909290915056fea2646970667358221220b628c511816c9ab32d6a04b81d866bef1b367a2dafca4fd6b5917e31ad1fdb1764736f6c63430008180033",
  "linkReferences": {},
  "deployedLinkReferences": {}
}