{
  "_format": "hh-sol-artifact-1",
  "contractName": "CCFLPool",
  "sourceName": "contracts/CCFLPool.sol",
  "abi": [
    {
      "inputs": [],
      "name": "InvalidInitialization",
      "type": "error"
    },
    {
      "inputs": [],
      "name": "NotInitializing",
      "type": "error"
    },
    {
      "inputs": [
        {
          "internalType": "uint8",
          "name": "bits",
          "type": "uint8"
        },
        {
          "internalType": "uint256",
          "name": "value",
          "type": "uint256"
        }
      ],
      "name": "SafeCastOverflowedUintDowncast",
      "type": "error"
    },
    {
      "anonymous": false,
      "inputs": [
        {
          "indexed": false,
          "internalType": "uint256",
          "name": "loanId",
          "type": "uint256"
        },
        {
          "indexed": false,
          "internalType": "uint256",
          "name": "amount",
          "type": "uint256"
        },
        {
          "indexed": false,
          "internalType": "address",
          "name": "borrower",
          "type": "address"
        },
        {
          "indexed": false,
          "internalType": "uint256",
          "name": "when",
          "type": "uint256"
        }
      ],
      "name": "CloseLoan",
      "type": "event"
    },
    {
      "anonymous": false,
      "inputs": [
        {
          "indexed": false,
          "internalType": "address",
          "name": "user",
          "type": "address"
        },
        {
          "indexed": false,
          "internalType": "uint256",
          "name": "amount",
          "type": "uint256"
        },
        {
          "indexed": false,
          "internalType": "uint256",
          "name": "when",
          "type": "uint256"
        }
      ],
      "name": "Deposit",
      "type": "event"
    },
    {
      "anonymous": false,
      "inputs": [
        {
          "indexed": false,
          "internalType": "uint64",
          "name": "version",
          "type": "uint64"
        }
      ],
      "name": "Initialized",
      "type": "event"
    },
    {
      "anonymous": false,
      "inputs": [
        {
          "indexed": false,
          "internalType": "address",
          "name": "user",
          "type": "address"
        },
        {
          "indexed": false,
          "internalType": "uint256",
          "name": "amount",
          "type": "uint256"
        },
        {
          "indexed": false,
          "internalType": "uint256",
          "name": "when",
          "type": "uint256"
        }
      ],
      "name": "Withdraw",
      "type": "event"
    },
    {
      "anonymous": false,
      "inputs": [
        {
          "indexed": false,
          "internalType": "address",
          "name": "user",
          "type": "address"
        },
        {
          "indexed": false,
          "internalType": "uint256",
          "name": "amount",
          "type": "uint256"
        },
        {
          "indexed": false,
          "internalType": "uint256",
          "name": "when",
          "type": "uint256"
        }
      ],
      "name": "WithdrawLoan",
      "type": "event"
    },
    {
      "inputs": [],
      "name": "CCFL",
      "outputs": [
        {
          "internalType": "address",
          "name": "",
          "type": "address"
        }
      ],
      "stateMutability": "view",
      "type": "function"
    },
    {
      "inputs": [
        {
          "internalType": "address",
          "name": "_user",
          "type": "address"
        }
      ],
      "name": "balance",
      "outputs": [
        {
          "internalType": "uint256",
          "name": "",
          "type": "uint256"
        }
      ],
      "stateMutability": "view",
      "type": "function"
    },
    {
      "inputs": [
        {
          "internalType": "uint256",
          "name": "_loanId",
          "type": "uint256"
        },
        {
          "internalType": "uint256",
          "name": "_amount",
          "type": "uint256"
        },
        {
          "internalType": "address",
          "name": "_borrower",
          "type": "address"
        }
      ],
      "name": "borrow",
      "outputs": [],
      "stateMutability": "nonpayable",
      "type": "function"
    },
    {
      "inputs": [
        {
          "internalType": "uint256",
          "name": "",
          "type": "uint256"
        }
      ],
      "name": "debt",
      "outputs": [
        {
          "internalType": "uint256",
          "name": "",
          "type": "uint256"
        }
      ],
      "stateMutability": "view",
      "type": "function"
    },
    {
      "inputs": [
        {
          "internalType": "uint256",
          "name": "_loanId",
          "type": "uint256"
        }
      ],
      "name": "getCurrentLoan",
      "outputs": [
        {
          "internalType": "uint256",
          "name": "",
          "type": "uint256"
        }
      ],
      "stateMutability": "view",
      "type": "function"
    },
    {
      "inputs": [],
      "name": "getCurrentRate",
      "outputs": [
        {
          "internalType": "uint256",
          "name": "",
          "type": "uint256"
        },
        {
          "internalType": "uint256",
          "name": "",
          "type": "uint256"
        },
        {
          "internalType": "uint256",
          "name": "",
          "type": "uint256"
        },
        {
          "internalType": "uint256",
          "name": "",
          "type": "uint256"
        }
      ],
      "stateMutability": "view",
      "type": "function"
    },
    {
      "inputs": [],
      "name": "getDebtPool",
      "outputs": [
        {
          "internalType": "uint256",
          "name": "amount",
          "type": "uint256"
        }
      ],
      "stateMutability": "view",
      "type": "function"
    },
    {
      "inputs": [],
      "name": "getRemainingPool",
      "outputs": [
        {
          "internalType": "uint256",
          "name": "amount",
          "type": "uint256"
        }
      ],
      "stateMutability": "view",
      "type": "function"
    },
    {
      "inputs": [],
      "name": "getTotalSupply",
      "outputs": [
        {
          "internalType": "uint256",
          "name": "",
          "type": "uint256"
        }
      ],
      "stateMutability": "view",
      "type": "function"
    },
    {
      "inputs": [
        {
          "internalType": "contract IERC20Standard",
          "name": "_stableCoinAddress",
          "type": "address"
        },
        {
          "internalType": "address",
          "name": "interestRateStrategyAddress",
          "type": "address"
        }
      ],
      "name": "initialize",
      "outputs": [],
      "stateMutability": "nonpayable",
      "type": "function"
    },
    {
      "inputs": [
        {
          "internalType": "uint256",
          "name": "",
          "type": "uint256"
        }
      ],
      "name": "lenders",
      "outputs": [
        {
          "internalType": "address",
          "name": "",
          "type": "address"
        }
      ],
      "stateMutability": "view",
      "type": "function"
    },
    {
      "inputs": [
        {
          "internalType": "uint256",
          "name": "_amount",
          "type": "uint256"
        }
      ],
      "name": "liquidatePenalty",
      "outputs": [],
      "stateMutability": "nonpayable",
      "type": "function"
    },
    {
      "inputs": [
        {
          "internalType": "uint256",
          "name": "",
          "type": "uint256"
        }
      ],
      "name": "loans",
      "outputs": [
        {
          "internalType": "uint256",
          "name": "loanId",
          "type": "uint256"
        },
        {
          "internalType": "bool",
          "name": "isPaid",
          "type": "bool"
        },
        {
          "internalType": "uint256",
          "name": "amount",
          "type": "uint256"
        },
        {
          "internalType": "bool",
          "name": "isClosed",
          "type": "bool"
        },
        {
          "internalType": "bool",
          "name": "isLocked",
          "type": "bool"
        },
        {
          "internalType": "address",
          "name": "borrower",
          "type": "address"
        }
      ],
      "stateMutability": "view",
      "type": "function"
    },
    {
      "inputs": [],
      "name": "remainingPool",
      "outputs": [
        {
          "internalType": "uint256",
          "name": "",
          "type": "uint256"
        }
      ],
      "stateMutability": "view",
      "type": "function"
    },
    {
      "inputs": [
        {
          "internalType": "uint256",
          "name": "_loanId",
          "type": "uint256"
        },
        {
          "internalType": "uint256",
          "name": "_amount",
          "type": "uint256"
        }
      ],
      "name": "repay",
      "outputs": [],
      "stateMutability": "nonpayable",
      "type": "function"
    },
    {
      "inputs": [],
      "name": "reserve",
      "outputs": [
        {
          "internalType": "uint128",
          "name": "liquidityIndex",
          "type": "uint128"
        },
        {
          "internalType": "uint128",
          "name": "currentLiquidityRate",
          "type": "uint128"
        },
        {
          "internalType": "uint128",
          "name": "variableBorrowIndex",
          "type": "uint128"
        },
        {
          "internalType": "uint128",
          "name": "currentVariableBorrowRate",
          "type": "uint128"
        },
        {
          "internalType": "uint40",
          "name": "lastUpdateTimestamp",
          "type": "uint40"
        },
        {
          "internalType": "uint16",
          "name": "id",
          "type": "uint16"
        },
        {
          "internalType": "address",
          "name": "interestRateStrategyAddress",
          "type": "address"
        }
      ],
      "stateMutability": "view",
      "type": "function"
    },
    {
      "inputs": [
        {
          "internalType": "address",
          "name": "_ccfl",
          "type": "address"
        }
      ],
      "name": "setCCFL",
      "outputs": [],
      "stateMutability": "nonpayable",
      "type": "function"
    },
    {
      "inputs": [
        {
          "internalType": "address",
          "name": "",
          "type": "address"
        }
      ],
      "name": "share",
      "outputs": [
        {
          "internalType": "uint256",
          "name": "",
          "type": "uint256"
        }
      ],
      "stateMutability": "view",
      "type": "function"
    },
    {
      "inputs": [],
      "name": "stableCoinAddress",
      "outputs": [
        {
          "internalType": "contract IERC20Standard",
          "name": "",
          "type": "address"
        }
      ],
      "stateMutability": "view",
      "type": "function"
    },
    {
      "inputs": [
        {
          "internalType": "uint256",
          "name": "_amount",
          "type": "uint256"
        }
      ],
      "name": "supply",
      "outputs": [],
      "stateMutability": "nonpayable",
      "type": "function"
    },
    {
      "inputs": [],
      "name": "totalDebt",
      "outputs": [
        {
          "internalType": "uint256",
          "name": "",
          "type": "uint256"
        }
      ],
      "stateMutability": "view",
      "type": "function"
    },
    {
      "inputs": [],
      "name": "totalLiquidity",
      "outputs": [
        {
          "internalType": "uint256",
          "name": "",
          "type": "uint256"
        }
      ],
      "stateMutability": "view",
      "type": "function"
    },
    {
      "inputs": [],
      "name": "totalSupply",
      "outputs": [
        {
          "internalType": "uint256",
          "name": "",
          "type": "uint256"
        }
      ],
      "stateMutability": "view",
      "type": "function"
    },
    {
      "inputs": [
        {
          "internalType": "uint256",
          "name": "_amount",
          "type": "uint256"
        }
      ],
      "name": "withdraw",
      "outputs": [],
      "stateMutability": "nonpayable",
      "type": "function"
    },
    {
      "inputs": [
        {
          "internalType": "address",
          "name": "_receiver",
          "type": "address"
        },
        {
          "internalType": "uint256",
          "name": "_loanId",
          "type": "uint256"
        }
      ],
      "name": "withdrawLoan",
      "outputs": [],
      "stateMutability": "nonpayable",
      "type": "function"
    },
    {
      "stateMutability": "payable",
      "type": "receive"
    }
  ],
  "bytecode": "0x608060405234801561001057600080fd5b50612222806100206000396000f3fe60806040526004361061019a5760003560e01c8063929eea21116100e1578063d6bda0c01161008a578063e3d670d711610064578063e3d670d714610571578063ec7be39d14610591578063f7fb07b0146105b1578063fc7b9c18146105fe57600080fd5b8063d6bda0c014610494578063d8aed145146104b4578063e1ec3c68146104d457600080fd5b8063b14d37c0116100bb578063b14d37c0146103a3578063c4e41b22146103b9578063cd3293de146103ce57600080fd5b8063929eea2114610343578063982aae4614610363578063a52f38d11461038357600080fd5b80633540302311610143578063485cc9551161011d578063485cc955146102e357806357379102146103035780638ac1b7751461032357600080fd5b806335403023146102765780633b24cc21146102965780633b4675a7146102ab57600080fd5b80631877bb5c116101745780631877bb5c146101fa5780631e0029c8146102275780632e1a7d4d1461025457600080fd5b806303ec357f146101a657806315770f92146101ce57806318160ddd146101e457600080fd5b366101a157005b600080fd5b3480156101b257600080fd5b506101bb610614565b6040519081526020015b60405180910390f35b3480156101da57600080fd5b506101bb600a5481565b3480156101f057600080fd5b506101bb60095481565b34801561020657600080fd5b506101bb610215366004611f0f565b60076020526000908152604090205481565b34801561023357600080fd5b506101bb610242366004611f2c565b60086020526000908152604090205481565b34801561026057600080fd5b5061027461026f366004611f2c565b610704565b005b34801561028257600080fd5b50610274610291366004611f2c565b6108ea565b3480156102a257600080fd5b50600c546101bb565b3480156102b757600080fd5b506003546102cb906001600160a01b031681565b6040516001600160a01b0390911681526020016101c5565b3480156102ef57600080fd5b506102746102fe366004611f45565b610a80565b34801561030f57600080fd5b5061027461031e366004611f2c565b610c60565b34801561032f57600080fd5b5061027461033e366004611f0f565b610df0565b34801561034f57600080fd5b506102cb61035e366004611f2c565b610e79565b34801561036f57600080fd5b506000546102cb906001600160a01b031681565b34801561038f57600080fd5b506101bb61039e366004611f2c565b610ea3565b3480156103af57600080fd5b506101bb600c5481565b3480156103c557600080fd5b506101bb610fa0565b3480156103da57600080fd5b50600454600554600654610439926001600160801b0380821693600160801b92839004821693828216939091049091169064ffffffffff81169065010000000000810461ffff169067010000000000000090046001600160a01b031687565b604080516001600160801b03988916815296881660208801529487169486019490945294909116606084015264ffffffffff16608083015261ffff90921660a08201526001600160a01b0390911660c082015260e0016101c5565b3480156104a057600080fd5b506102746104af366004611f7e565b611078565b3480156104c057600080fd5b506102746104cf366004611fb7565b6112d0565b3480156104e057600080fd5b506105376104ef366004611f2c565b60026020819052600091825260409091208054600182015492820154600390920154909260ff908116929181811691610100820416906201000090046001600160a01b031686565b6040805196875294151560208701529385019290925215156060840152151560808301526001600160a01b031660a082015260c0016101c5565b34801561057d57600080fd5b506101bb61058c366004611f0f565b611702565b34801561059d57600080fd5b506102746105ac366004611fd9565b611741565b3480156105bd57600080fd5b50600554600454604080516001600160801b03600160801b8086048216835284048116602083015293841691810191909152911660608201526080016101c5565b34801561060a57600080fd5b506101bb600b5481565b60008061061f6118e4565b905060006106358260c001518360e001516119e1565b60055490915061064f9082906001600160801b03166119f5565b60808301526000546040805163313ce56760e01b815290516b033b2e3c9fd0803ce8000000926001600160a01b03169163313ce5679160048083019260209291908290030181865afa1580156106a9573d6000803e3d6000fd5b505050506040513d601f19601f820116820180604052508101906106cd9190612005565b6106d890600a612122565b6080840151600b546106e9916119f5565b6106f39190612131565b6106fd919061215e565b9250505090565b600061070e6118e4565b905061071981611a39565b60008060009054906101000a90046001600160a01b03166001600160a01b031663313ce5676040518163ffffffff1660e01b8152600401602060405180830381865afa15801561076d573d6000803e3d6000fd5b505050506040513d601f19601f820116820180604052508101906107919190612005565b61079c90600a612122565b6107b26b033b2e3c9fd0803ce800000085612131565b6107bc919061215e565b90506107c9600082611a72565b6004546000906107e39083906001600160801b0316611bfa565b3360009081526007602052604081205491925090610802908390612180565b905081600960008282546108169190612180565b9250508190555081600a600082825461082f9190612180565b909155506108439050565b60405180910390fd5b336000908152600760205260408120829055600c8054879290610867908490612180565b909155505060005460405163a9059cbb60e01b8152336004820152602481018790526001600160a01b039091169063a9059cbb906044015b6020604051808303816000875af11580156108be573d6000803e3d6000fd5b505050506040513d601f19601f820116820180604052508101906108e29190612193565b505050505050565b60006108f46118e4565b90506108ff81611a39565b60008060009054906101000a90046001600160a01b03166001600160a01b031663313ce5676040518163ffffffff1660e01b8152600401602060405180830381865afa158015610953573d6000803e3d6000fd5b505050506040513d601f19601f820116820180604052508101906109779190612005565b61098290600a612122565b6109986b033b2e3c9fd0803ce800000085612131565b6109a2919061215e565b90506109af816000611a72565b6004546000906109c99083906001600160801b0316611bfa565b33600090815260076020526040812054919250906109e89083906121b5565b905081600960008282546109fc91906121b5565b9250508190555081600a6000828254610a1591906121b5565b9091555050336000908152600760205260408120829055600c8054879290610a3e9084906121b5565b90915550506000546040516323b872dd60e01b8152336004820152306024820152604481018790526001600160a01b03909116906323b872dd9060640161089f565b7ff0c57e16840df040f15088dc2f81fe391c3923bec73e23a9662efc9c229c6a00805468010000000000000000810460ff16159067ffffffffffffffff16600081158015610acb5750825b905060008267ffffffffffffffff166001148015610ae85750303b155b905081158015610af6575080155b15610b2d576040517ff92ee8a900000000000000000000000000000000000000000000000000000000815260040160405180910390fd5b845467ffffffffffffffff191660011785558315610b6157845468ff00000000000000001916680100000000000000001785555b600080546001600160a01b03808a1673ffffffffffffffffffffffffffffffffffffffff199283161790925560068054928916670100000000000000027fffffffffff0000000000000000000000000000000000000000ffffffffffffff90931692909217909155600480546fffffffffffffffffffffffffffffffff199081166b033b2e3c9fd0803ce8000000908117909255600580549091169091179055600d8054909116331790558315610c5757845468ff000000000000000019168555604051600181527fc7f505b2f371ae2175ee4913f4499e1f2633a7b5936321eed1cdaeb6115181d29060200160405180910390a15b50505050505050565b6003546001600160a01b03163314610caa5760405162461bcd60e51b815260206004820152600d60248201526c1bdb9b1e481d1a194818d8d99b609a1b604482015260640161083a565b6000610cb46118e4565b9050610cbf81611a39565b60008060009054906101000a90046001600160a01b03166001600160a01b031663313ce5676040518163ffffffff1660e01b8152600401602060405180830381865afa158015610d13573d6000803e3d6000fd5b505050506040513d601f19601f82011682018060405250810190610d379190612005565b610d4290600a612122565b610d586b033b2e3c9fd0803ce800000085612131565b610d62919061215e565b90506000610d7f8360400151600a546119f590919063ffffffff16565b90506000610da782610da186604001518686610d9b91906121b5565b906119f5565b90611bfa565b9050610db281611c39565b600480546fffffffffffffffffffffffffffffffff19166001600160801b0392909216919091179055600c8054869190600090610a3e9084906121b5565b600d546001600160a01b03163314610e4a5760405162461bcd60e51b815260206004820152600e60248201527f6f6e6c7920746865206f776e6572000000000000000000000000000000000000604482015260640161083a565b6003805473ffffffffffffffffffffffffffffffffffffffff19166001600160a01b0392909216919091179055565b60018181548110610e8957600080fd5b6000918252602090912001546001600160a01b0316905081565b600080610eae6118e4565b90506000610ec48260c001518360e001516119e1565b600554909150610ede9082906001600160801b03166119f5565b60808301526000546040805163313ce56760e01b815290516b033b2e3c9fd0803ce8000000926001600160a01b03169163313ce5679160048083019260209291908290030181865afa158015610f38573d6000803e3d6000fd5b505050506040513d601f19601f82011682018060405250810190610f5c9190612005565b610f6790600a612122565b6080840151600087815260086020526040902054610f84916119f5565b610f8e9190612131565b610f98919061215e565b949350505050565b600080610fab6118e4565b90506000610fc18260a001518360e00151611c8a565b9050610fda8260400151826119f590919063ffffffff16565b604080840191909152600054815163313ce56760e01b815291516b033b2e3c9fd0803ce8000000926001600160a01b039092169163313ce5679160048083019260209291908290030181865afa158015611038573d6000803e3d6000fd5b505050506040513d601f19601f8201168201806040525081019061105c9190612005565b61106790600a612122565b60408401516009546106e9916119f5565b6003546001600160a01b031633146110c25760405162461bcd60e51b815260206004820152600d60248201526c1bdb9b1e481d1a194818d8d99b609a1b604482015260640161083a565b60006110cc6118e4565b90506110d781611a39565b60008060009054906101000a90046001600160a01b03166001600160a01b031663313ce5676040518163ffffffff1660e01b8152600401602060405180830381865afa15801561112b573d6000803e3d6000fd5b505050506040513d601f19601f8201168201806040525081019061114f9190612005565b61115a90600a612122565b6111706b033b2e3c9fd0803ce800000086612131565b61117a919061215e565b90506000611195836080015183611bfa90919063ffffffff16565b600087815260086020526040812054919250906111b39083906121b5565b905081600b60008282546111c791906121b5565b9091555050600c5486111561121e5760405162461bcd60e51b815260206004820152601c60248201527f446f206e6f74206861766520656e6f756768206c697175696469747900000000604482015260640161083a565b6000878152600260208181526040808420600890925283208490558981559081018890556003810180547fffffffffffffffffffff0000000000000000000000000000000000000000ffff16620100006001600160a01b038a1602179055906112879085611a72565b6040850151611297908590611bfa565b600a60008282546112a89190612180565b9250508190555086600c60008282546112c19190612180565b90915550505050505050505050565b6003546001600160a01b0316331461131a5760405162461bcd60e51b815260206004820152600d60248201526c1bdb9b1e481d1a194818d8d99b609a1b604482015260640161083a565b60006113246118e4565b905061132f81611a39565b60008060009054906101000a90046001600160a01b03166001600160a01b031663313ce5676040518163ffffffff1660e01b8152600401602060405180830381865afa158015611383573d6000803e3d6000fd5b505050506040513d601f19601f820116820180604052508101906113a79190612005565b6113b290600a612122565b6113c86b033b2e3c9fd0803ce800000085612131565b6113d2919061215e565b6005549091506000906113ef9083906001600160801b0316611bfa565b6000868152600860205260409020549091508111156115f257600085815260086020526040812054600b80549192909161142a908490612180565b9091555050600554600086815260086020526040812054909161145691906001600160801b03166119f5565b905060006b033b2e3c9fd0803ce80000006001600160801b031660008054906101000a90046001600160a01b03166001600160a01b031663313ce5676040518163ffffffff1660e01b8152600401602060405180830381865afa1580156114c1573d6000803e3d6000fd5b505050506040513d601f19601f820116820180604052508101906114e59190612005565b6114f090600a612122565b6114fa9084612131565b611504919061215e565b60008881526008602052604081208190559091506115229080611a72565b60408086015160008981526008602052919091205461154091611bfa565b600a600082825461155191906121b5565b9250508190555080600c600082825461156a91906121b5565b90915550506000546040516323b872dd60e01b8152336004820152306024820152604481018390526001600160a01b03909116906323b872dd906064016020604051808303816000875af11580156115c6573d6000803e3d6000fd5b505050506040513d601f19601f820116820180604052508101906115ea9190612193565b5050506116fb565b60008581526008602052604081205461160c908390612180565b905081600b60008282546116209190612180565b90915550506000868152600860205260408120829055611641908490611a72565b6040840151611651908490611bfa565b600a600082825461166291906121b5565b9250508190555084600c600082825461167b91906121b5565b90915550506000546040516323b872dd60e01b8152336004820152306024820152604481018790526001600160a01b03909116906323b872dd906064016020604051808303816000875af11580156116d7573d6000803e3d6000fd5b505050506040513d601f19601f82011682018060405250810190610c579190612193565b5050505050565b6004546001600160a01b038216600090815260076020526040812054909161173b91611736916001600160801b03166119f5565b611cc7565b92915050565b6003546001600160a01b0316331461178b5760405162461bcd60e51b815260206004820152600d60248201526c1bdb9b1e481d1a194818d8d99b609a1b604482015260640161083a565b60008181526002602052604090206001015460ff16156117ed5760405162461bcd60e51b815260206004820152600c60248201527f4c6f616e20697320706169640000000000000000000000000000000000000000604482015260640161083a565b6000818152600260208181526040928390206001808201805460ff191690911790559091015482516001600160a01b038616815291820152428183015290517fec2db68ed4a8b09a4c7173e6e4230e6cca7e1b48e58a0affc9c550470e0e14819181900360600190a160008054828252600260208190526040928390200154915163a9059cbb60e01b81526001600160a01b038581166004830152602482019390935291169063a9059cbb906044016020604051808303816000875af11580156118bb573d6000803e3d6000fd5b505050506040513d601f19601f820116820180604052508101906118df9190612193565b505050565b61193360405180610100016040528060008152602001600081526020016000815260200160008152602001600081526020016000815260200160008152602001600064ffffffffff1681525090565b61198260405180610100016040528060008152602001600081526020016000815260200160008152602001600081526020016000815260200160008152602001600064ffffffffff1681525090565b6004546001600160801b03808216604084018190526020840152600554808216608085018190526060850152600160801b92839004821660a0850152919091041660c082015260065464ffffffffff1660e0820152600b548152919050565b60006119ee838342611cea565b9392505050565b600081156b019d971e4fe8401e740000001983900484111517611a1757600080fd5b506b033b2e3c9fd0803ce800000091026b019d971e4fe8401e74000000010490565b60065464ffffffffff428116911603611a4f5750565b611a5881611e16565b506006805464ffffffffff19164264ffffffffff16179055565b611a9660405180606001604052806000815260200160008152602001600081525090565b6006546040805160808101825285815260208101859052600554600b546701000000000000009094046001600160a01b0316936356eaf26493830191611ae591906001600160801b03166119f5565b8152600454600a54602090920191611b05916001600160801b03166119f5565b9052604080517fffffffff0000000000000000000000000000000000000000000000000000000060e085901b168152825160048201526020830151602482015290820151604482015260609091015160648201526084016040805180830381865afa158015611b78573d6000803e3d6000fd5b505050506040513d601f19601f82011682018060405250810190611b9c91906121c8565b6020830152808252611bad90611c39565b600480546001600160801b03928316600160801b0292169190911790556020810151611bd890611c39565b600580546001600160801b03928316600160801b029216919091179055505050565b600081156b033b2e3c9fd0803ce800000060028404190484111715611c1e57600080fd5b506b033b2e3c9fd0803ce80000009190910260028204010490565b60006001600160801b03821115611c86576040517f6dfcc650000000000000000000000000000000000000000000000000000000008152608060048201526024810183905260440161083a565b5090565b600080611c9e64ffffffffff841642612180565b611ca89085612131565b6301e1338090049050610f98816b033b2e3c9fd0803ce80000006121b5565b633b9aca00808204908206631dcd65008110611ce4576001820191505b50919050565b600080611cfe64ffffffffff851684612180565b905080600003611d1d576b033b2e3c9fd0803ce80000009150506119ee565b60001981016000808060028511611d35576000611d3a565b600285035b925066038882915c4000611d4e8a806119f5565b81611d5b57611d5b612148565b0491506301e13380611d6d838b6119f5565b81611d7a57611d7a612148565b049050600082611d8a8688612131565b611d949190612131565b60029004905060008285611da8888a612131565b611db29190612131565b611dbc9190612131565b60069004905080826301e13380611dd38a8f612131565b611ddd919061215e565b611df3906b033b2e3c9fd0803ce80000006121b5565b611dfd91906121b5565b611e0791906121b5565b9b9a5050505050505050505050565b60a081015115611e88576000611e348260a001518360e00151611c8a565b9050611e4d8260200151826119f590919063ffffffff16565b60408301819052611e5d90611c39565b600480546fffffffffffffffffffffffffffffffff19166001600160801b0392909216919091179055505b805115611ef7576000611ea38260c001518360e001516119e1565b9050611ebc8260600151826119f590919063ffffffff16565b60808301819052611ecc90611c39565b600580546fffffffffffffffffffffffffffffffff19166001600160801b0392909216919091179055505b50565b6001600160a01b0381168114611ef757600080fd5b600060208284031215611f2157600080fd5b81356119ee81611efa565b600060208284031215611f3e57600080fd5b5035919050565b60008060408385031215611f5857600080fd5b8235611f6381611efa565b91506020830135611f7381611efa565b809150509250929050565b600080600060608486031215611f9357600080fd5b83359250602084013591506040840135611fac81611efa565b809150509250925092565b60008060408385031215611fca57600080fd5b50508035926020909101359150565b60008060408385031215611fec57600080fd5b8235611ff781611efa565b946020939093013593505050565b60006020828403121561201757600080fd5b815160ff811681146119ee57600080fd5b634e487b7160e01b600052601160045260246000fd5b600181815b8085111561207957816000190482111561205f5761205f612028565b8085161561206c57918102915b93841c9390800290612043565b509250929050565b6000826120905750600161173b565b8161209d5750600061173b565b81600181146120b357600281146120bd576120d9565b600191505061173b565b60ff8411156120ce576120ce612028565b50506001821b61173b565b5060208310610133831016604e8410600b84101617156120fc575081810a61173b565b612106838361203e565b806000190482111561211a5761211a612028565b029392505050565b60006119ee60ff841683612081565b808202811582820484141761173b5761173b612028565b634e487b7160e01b600052601260045260246000fd5b60008261217b57634e487b7160e01b600052601260045260246000fd5b500490565b8181038181111561173b5761173b612028565b6000602082840312156121a557600080fd5b815180151581146119ee57600080fd5b8082018082111561173b5761173b612028565b600080604083850312156121db57600080fd5b50508051602090910151909290915056fea264697066735822122058ab91557a53c2268591edec89e59354b41e3b0d2f1c8eb5fd0da446b74cda1164736f6c63430008180033",
  "linkReferences": {},
  "deployedLinkReferences": {}
}