{
  "_format": "hh-sol-artifact-1",
  "contractName": "CCFLLoan",
  "sourceName": "contracts/CCFLLoan.sol",
  "abi": [
    {
      "inputs": [],
      "stateMutability": "nonpayable",
      "type": "constructor"
    },
    {
      "inputs": [],
      "name": "InvalidInitialization",
      "type": "error"
    },
    {
      "inputs": [],
      "name": "NotInitializing",
      "type": "error"
    },
    {
      "anonymous": false,
      "inputs": [
        {
          "indexed": false,
          "internalType": "uint64",
          "name": "version",
          "type": "uint64"
        }
      ],
      "name": "Initialized",
      "type": "event"
    },
    {
      "anonymous": false,
      "inputs": [
        {
          "indexed": true,
          "internalType": "address",
          "name": "onBehalfOf",
          "type": "address"
        },
        {
          "indexed": true,
          "internalType": "address",
          "name": "_token",
          "type": "address"
        },
        {
          "indexed": false,
          "internalType": "uint256",
          "name": "_amount",
          "type": "uint256"
        }
      ],
      "name": "LiquiditySupplied",
      "type": "event"
    },
    {
      "anonymous": false,
      "inputs": [
        {
          "indexed": true,
          "internalType": "address",
          "name": "to",
          "type": "address"
        },
        {
          "indexed": true,
          "internalType": "address",
          "name": "_token",
          "type": "address"
        },
        {
          "indexed": false,
          "internalType": "uint256",
          "name": "_amount",
          "type": "uint256"
        }
      ],
      "name": "LiquidityWithdrawn",
      "type": "event"
    },
    {
      "inputs": [],
      "name": "LTV",
      "outputs": [
        {
          "internalType": "uint256",
          "name": "",
          "type": "uint256"
        }
      ],
      "stateMutability": "view",
      "type": "function"
    },
    {
      "inputs": [],
      "name": "aToken",
      "outputs": [
        {
          "internalType": "contract IERC20Standard",
          "name": "",
          "type": "address"
        }
      ],
      "stateMutability": "view",
      "type": "function"
    },
    {
      "inputs": [],
      "name": "aaveAddressProvider",
      "outputs": [
        {
          "internalType": "contract IPoolAddressesProvider",
          "name": "",
          "type": "address"
        }
      ],
      "stateMutability": "view",
      "type": "function"
    },
    {
      "inputs": [],
      "name": "admin",
      "outputs": [
        {
          "internalType": "address",
          "name": "",
          "type": "address"
        }
      ],
      "stateMutability": "view",
      "type": "function"
    },
    {
      "inputs": [],
      "name": "ccfl",
      "outputs": [
        {
          "internalType": "address",
          "name": "",
          "type": "address"
        }
      ],
      "stateMutability": "view",
      "type": "function"
    },
    {
      "inputs": [],
      "name": "closeLoan",
      "outputs": [
        {
          "internalType": "uint256",
          "name": "",
          "type": "uint256"
        }
      ],
      "stateMutability": "nonpayable",
      "type": "function"
    },
    {
      "inputs": [],
      "name": "collateralAmount",
      "outputs": [
        {
          "internalType": "uint256",
          "name": "",
          "type": "uint256"
        }
      ],
      "stateMutability": "view",
      "type": "function"
    },
    {
      "inputs": [],
      "name": "collateralToken",
      "outputs": [
        {
          "internalType": "contract IERC20Standard",
          "name": "",
          "type": "address"
        }
      ],
      "stateMutability": "view",
      "type": "function"
    },
    {
      "inputs": [],
      "name": "earnBorrower",
      "outputs": [
        {
          "internalType": "uint256",
          "name": "",
          "type": "uint256"
        }
      ],
      "stateMutability": "view",
      "type": "function"
    },
    {
      "inputs": [],
      "name": "earnLender",
      "outputs": [
        {
          "internalType": "uint256",
          "name": "",
          "type": "uint256"
        }
      ],
      "stateMutability": "view",
      "type": "function"
    },
    {
      "inputs": [],
      "name": "earnPlatform",
      "outputs": [
        {
          "internalType": "uint256",
          "name": "",
          "type": "uint256"
        }
      ],
      "stateMutability": "view",
      "type": "function"
    },
    {
      "inputs": [],
      "name": "factory",
      "outputs": [
        {
          "internalType": "contract IUniswapV3Factory",
          "name": "",
          "type": "address"
        }
      ],
      "stateMutability": "view",
      "type": "function"
    },
    {
      "inputs": [],
      "name": "feeTier",
      "outputs": [
        {
          "internalType": "uint24",
          "name": "",
          "type": "uint24"
        }
      ],
      "stateMutability": "view",
      "type": "function"
    },
    {
      "inputs": [],
      "name": "getCollateralAmount",
      "outputs": [
        {
          "internalType": "uint256",
          "name": "",
          "type": "uint256"
        }
      ],
      "stateMutability": "view",
      "type": "function"
    },
    {
      "inputs": [],
      "name": "getCollateralToken",
      "outputs": [
        {
          "internalType": "contract IERC20Standard",
          "name": "",
          "type": "address"
        }
      ],
      "stateMutability": "view",
      "type": "function"
    },
    {
      "inputs": [
        {
          "internalType": "uint256",
          "name": "currentDebt",
          "type": "uint256"
        },
        {
          "internalType": "uint256",
          "name": "addCollateral",
          "type": "uint256"
        }
      ],
      "name": "getHealthFactor",
      "outputs": [
        {
          "internalType": "uint256",
          "name": "",
          "type": "uint256"
        }
      ],
      "stateMutability": "view",
      "type": "function"
    },
    {
      "inputs": [],
      "name": "getIsYeild",
      "outputs": [
        {
          "internalType": "bool",
          "name": "",
          "type": "bool"
        }
      ],
      "stateMutability": "view",
      "type": "function"
    },
    {
      "inputs": [
        {
          "internalType": "contract IERC20Standard",
          "name": "_coin",
          "type": "address"
        },
        {
          "internalType": "bool",
          "name": "isPool",
          "type": "bool"
        }
      ],
      "name": "getLatestPrice",
      "outputs": [
        {
          "internalType": "uint256",
          "name": "",
          "type": "uint256"
        }
      ],
      "stateMutability": "view",
      "type": "function"
    },
    {
      "inputs": [],
      "name": "getLoanInfo",
      "outputs": [
        {
          "components": [
            {
              "internalType": "uint256",
              "name": "loanId",
              "type": "uint256"
            },
            {
              "internalType": "bool",
              "name": "isPaid",
              "type": "bool"
            },
            {
              "internalType": "uint256",
              "name": "amount",
              "type": "uint256"
            },
            {
              "internalType": "bool",
              "name": "isClosed",
              "type": "bool"
            },
            {
              "internalType": "address",
              "name": "borrower",
              "type": "address"
            },
            {
              "internalType": "bool",
              "name": "isLiquidated",
              "type": "bool"
            },
            {
              "internalType": "contract IERC20Standard",
              "name": "stableCoin",
              "type": "address"
            },
            {
              "internalType": "bool",
              "name": "isFinalty",
              "type": "bool"
            },
            {
              "internalType": "bool",
              "name": "isFiat",
              "type": "bool"
            }
          ],
          "internalType": "struct DataTypes.Loan",
          "name": "",
          "type": "tuple"
        }
      ],
      "stateMutability": "view",
      "type": "function"
    },
    {
      "inputs": [
        {
          "internalType": "address",
          "name": "user",
          "type": "address"
        }
      ],
      "name": "getUserAccountData",
      "outputs": [
        {
          "internalType": "uint256",
          "name": "totalCollateralBase",
          "type": "uint256"
        },
        {
          "internalType": "uint256",
          "name": "totalDebtBase",
          "type": "uint256"
        },
        {
          "internalType": "uint256",
          "name": "availableBorrowsBase",
          "type": "uint256"
        },
        {
          "internalType": "uint256",
          "name": "currentLiquidationThreshold",
          "type": "uint256"
        },
        {
          "internalType": "uint256",
          "name": "ltv",
          "type": "uint256"
        },
        {
          "internalType": "uint256",
          "name": "healthFactor",
          "type": "uint256"
        }
      ],
      "stateMutability": "view",
      "type": "function"
    },
    {
      "inputs": [],
      "name": "getYieldEarned",
      "outputs": [
        {
          "internalType": "uint256",
          "name": "",
          "type": "uint256"
        }
      ],
      "stateMutability": "view",
      "type": "function"
    },
    {
      "inputs": [],
      "name": "initLoan",
      "outputs": [
        {
          "internalType": "uint256",
          "name": "loanId",
          "type": "uint256"
        },
        {
          "internalType": "bool",
          "name": "isPaid",
          "type": "bool"
        },
        {
          "internalType": "uint256",
          "name": "amount",
          "type": "uint256"
        },
        {
          "internalType": "bool",
          "name": "isClosed",
          "type": "bool"
        },
        {
          "internalType": "address",
          "name": "borrower",
          "type": "address"
        },
        {
          "internalType": "bool",
          "name": "isLiquidated",
          "type": "bool"
        },
        {
          "internalType": "contract IERC20Standard",
          "name": "stableCoin",
          "type": "address"
        },
        {
          "internalType": "bool",
          "name": "isFinalty",
          "type": "bool"
        },
        {
          "internalType": "bool",
          "name": "isFiat",
          "type": "bool"
        }
      ],
      "stateMutability": "view",
      "type": "function"
    },
    {
      "inputs": [
        {
          "components": [
            {
              "internalType": "uint256",
              "name": "loanId",
              "type": "uint256"
            },
            {
              "internalType": "bool",
              "name": "isPaid",
              "type": "bool"
            },
            {
              "internalType": "uint256",
              "name": "amount",
              "type": "uint256"
            },
            {
              "internalType": "bool",
              "name": "isClosed",
              "type": "bool"
            },
            {
              "internalType": "address",
              "name": "borrower",
              "type": "address"
            },
            {
              "internalType": "bool",
              "name": "isLiquidated",
              "type": "bool"
            },
            {
              "internalType": "contract IERC20Standard",
              "name": "stableCoin",
              "type": "address"
            },
            {
              "internalType": "bool",
              "name": "isFinalty",
              "type": "bool"
            },
            {
              "internalType": "bool",
              "name": "isFiat",
              "type": "bool"
            }
          ],
          "internalType": "struct DataTypes.Loan",
          "name": "_loan",
          "type": "tuple"
        },
        {
          "internalType": "contract IERC20Standard",
          "name": "_collateralToken",
          "type": "address"
        },
        {
          "internalType": "contract IPoolAddressesProvider",
          "name": "_aaveAddressProvider",
          "type": "address"
        },
        {
          "internalType": "contract IERC20Standard",
          "name": "_aToken",
          "type": "address"
        },
        {
          "internalType": "uint256",
          "name": "_ltv",
          "type": "uint256"
        },
        {
          "internalType": "uint256",
          "name": "_threshold",
          "type": "uint256"
        },
        {
          "internalType": "contract AggregatorV3Interface",
          "name": "_priceFeed",
          "type": "address"
        },
        {
          "internalType": "contract AggregatorV3Interface",
          "name": "_pricePoolFeed",
          "type": "address"
        },
        {
          "internalType": "address",
          "name": "_platform",
          "type": "address"
        },
        {
          "internalType": "contract IWETH",
          "name": "_iWETH",
          "type": "address"
        }
      ],
      "name": "initialize",
      "outputs": [],
      "stateMutability": "nonpayable",
      "type": "function"
    },
    {
      "inputs": [],
      "name": "isStakeAave",
      "outputs": [
        {
          "internalType": "bool",
          "name": "",
          "type": "bool"
        }
      ],
      "stateMutability": "view",
      "type": "function"
    },
    {
      "inputs": [
        {
          "internalType": "uint256",
          "name": "_currentDebt",
          "type": "uint256"
        },
        {
          "internalType": "uint256",
          "name": "_percent",
          "type": "uint256"
        }
      ],
      "name": "liquidate",
      "outputs": [
        {
          "internalType": "uint256",
          "name": "",
          "type": "uint256"
        }
      ],
      "stateMutability": "nonpayable",
      "type": "function"
    },
    {
      "inputs": [],
      "name": "liquidationThreshold",
      "outputs": [
        {
          "internalType": "uint256",
          "name": "",
          "type": "uint256"
        }
      ],
      "stateMutability": "view",
      "type": "function"
    },
    {
      "inputs": [],
      "name": "owner",
      "outputs": [
        {
          "internalType": "address",
          "name": "",
          "type": "address"
        }
      ],
      "stateMutability": "view",
      "type": "function"
    },
    {
      "inputs": [],
      "name": "platform",
      "outputs": [
        {
          "internalType": "address",
          "name": "",
          "type": "address"
        }
      ],
      "stateMutability": "view",
      "type": "function"
    },
    {
      "inputs": [],
      "name": "priceFeed",
      "outputs": [
        {
          "internalType": "contract AggregatorV3Interface",
          "name": "",
          "type": "address"
        }
      ],
      "stateMutability": "view",
      "type": "function"
    },
    {
      "inputs": [],
      "name": "pricePoolFeed",
      "outputs": [
        {
          "internalType": "contract AggregatorV3Interface",
          "name": "",
          "type": "address"
        }
      ],
      "stateMutability": "view",
      "type": "function"
    },
    {
      "inputs": [
        {
          "internalType": "address",
          "name": "_admin",
          "type": "address"
        }
      ],
      "name": "setAdmin",
      "outputs": [],
      "stateMutability": "nonpayable",
      "type": "function"
    },
    {
      "inputs": [
        {
          "internalType": "address",
          "name": "_ccfl",
          "type": "address"
        }
      ],
      "name": "setCCFL",
      "outputs": [],
      "stateMutability": "nonpayable",
      "type": "function"
    },
    {
      "inputs": [
        {
          "internalType": "uint256",
          "name": "_borrower",
          "type": "uint256"
        },
        {
          "internalType": "uint256",
          "name": "_platform",
          "type": "uint256"
        },
        {
          "internalType": "uint256",
          "name": "_lender",
          "type": "uint256"
        }
      ],
      "name": "setEarnShare",
      "outputs": [],
      "stateMutability": "nonpayable",
      "type": "function"
    },
    {
      "inputs": [],
      "name": "setPaid",
      "outputs": [],
      "stateMutability": "nonpayable",
      "type": "function"
    },
    {
      "inputs": [
        {
          "internalType": "contract IV3SwapRouter",
          "name": "_swapRouter",
          "type": "address"
        },
        {
          "internalType": "contract IUniswapV3Factory",
          "name": "_factory",
          "type": "address"
        }
      ],
      "name": "setSwapRouter",
      "outputs": [],
      "stateMutability": "nonpayable",
      "type": "function"
    },
    {
      "inputs": [],
      "name": "supplyLiquidity",
      "outputs": [],
      "stateMutability": "nonpayable",
      "type": "function"
    },
    {
      "inputs": [],
      "name": "swapRouter",
      "outputs": [
        {
          "internalType": "contract IV3SwapRouter",
          "name": "",
          "type": "address"
        }
      ],
      "stateMutability": "view",
      "type": "function"
    },
    {
      "inputs": [
        {
          "internalType": "uint256",
          "name": "amount",
          "type": "uint256"
        }
      ],
      "name": "updateCollateral",
      "outputs": [],
      "stateMutability": "nonpayable",
      "type": "function"
    },
    {
      "inputs": [],
      "name": "wETH",
      "outputs": [
        {
          "internalType": "contract IWETH",
          "name": "",
          "type": "address"
        }
      ],
      "stateMutability": "view",
      "type": "function"
    },
    {
      "inputs": [
        {
          "internalType": "address",
          "name": "_receiver",
          "type": "address"
        },
        {
          "internalType": "bool",
          "name": "_isETH",
          "type": "bool"
        }
      ],
      "name": "withdrawAllCollateral",
      "outputs": [],
      "stateMutability": "nonpayable",
      "type": "function"
    },
    {
      "inputs": [
        {
          "internalType": "contract IERC20Standard",
          "name": "_token",
          "type": "address"
        },
        {
          "internalType": "address",
          "name": "_receiver",
          "type": "address"
        }
      ],
      "name": "withdrawCollateralByAdmin",
      "outputs": [],
      "stateMutability": "nonpayable",
      "type": "function"
    },
    {
      "inputs": [],
      "name": "withdrawLiquidity",
      "outputs": [
        {
          "internalType": "uint256",
          "name": "",
          "type": "uint256"
        }
      ],
      "stateMutability": "nonpayable",
      "type": "function"
    },
    {
      "stateMutability": "payable",
      "type": "receive"
    }
  ],
  "bytecode": "0x608060405234801561001057600080fd5b50612f0b806100206000396000f3fe6080604052600436106102d55760003560e01c80637ea382c111610179578063b3bffeaa116100d6578063cdaabe411161008a578063f242862111610064578063f242862114610920578063f851a44014610940578063fab320e91461096057600080fd5b8063cdaabe41146108c0578063d296d1f1146108e0578063dc40e2d01461090057600080fd5b8063c31c9c07116100bb578063c31c9c0714610860578063c45a015514610880578063cbe595c9146108a057600080fd5b8063b3bffeaa146107f3578063bf92857c1461081357600080fd5b8063964236631161012d578063a2c7fd1511610112578063a2c7fd151461079d578063a95d7132146107bd578063b2016bd4146107d357600080fd5b8063964236631461075f578063a0c1f15e1461077d57600080fd5b80638ac1b7751161015e5780638ac1b775146107095780638da5cb5b1461072957806392d09ceb1461074957600080fd5b80637ea382c1146106df5780638501de01146106f457600080fd5b80634d2c872a1161023257806368dcad58116101e657806372f5d98a116101c057806372f5d98a146105e6578063741bef1a146106105780637ce67d601461063057600080fd5b806368dcad58146105865780636cb0ab5e146105a6578063704b6c02146105c657600080fd5b80635d3e2fa1116102175780635d3e2fa11461045f57806362965d8e146105505780636721de261461056657600080fd5b80634d2c872a1461041f5780635825f5351461043f57600080fd5b8063315deeaa116102895780633a0720e61161026e5780633a0720e6146103bb5780634031234c146103d15780634bde38c8146103e757600080fd5b8063315deeaa1461039057806332df398e146103a557600080fd5b806311256603116102ba57806311256603146103185780631c783def1461034e578063232fa7331461036d57600080fd5b806307a6bf69146102e1578063102cb82e146102f857600080fd5b366102dc57005b600080fd5b3480156102ed57600080fd5b506102f6610975565b005b34801561030457600080fd5b506102f6610313366004612833565b610c5f565b34801561032457600080fd5b5060035461033990600160a01b900460ff1681565b60405190151581526020015b60405180910390f35b34801561035a57600080fd5b50600354600160a01b900460ff16610339565b34801561037957600080fd5b50610382610f87565b604051908152602001610345565b34801561039c57600080fd5b50600854610382565b3480156103b157600080fd5b5061038260145481565b3480156103c757600080fd5b5061038260165481565b3480156103dd57600080fd5b5061038260065481565b3480156103f357600080fd5b50601254610407906001600160a01b031681565b6040516001600160a01b039091168152602001610345565b34801561042b57600080fd5b5061038261043a36600461286c565b610fff565b34801561044b57600080fd5b50601154610407906001600160a01b031681565b34801561046b57600080fd5b506105436040805161012081018252600080825260208201819052918101829052606081018290526080810182905260a0810182905260c0810182905260e08101829052610100810191909152506040805161012081018252600a548152600b5460ff90811615156020830152600c5492820192909252600d54808316151560608301526001600160a01b0361010080830482166080850152600160a81b928390048516151560a0850152600e5491821660c0850152600160a01b82048516151560e085015291900490921615159181019190915290565b604051610345919061288e565b34801561055c57600080fd5b5061038260075481565b34801561057257600080fd5b506102f661058136600461292c565b6111cb565b34801561059257600080fd5b50601054610407906001600160a01b031681565b3480156105b257600080fd5b506102f66105c1366004612945565b61122a565b3480156105d257600080fd5b506102f66105e1366004612971565b61127d565b3480156105f257600080fd5b506105fc610bb881565b60405162ffffff9091168152602001610345565b34801561061c57600080fd5b50600f54610407906001600160a01b031681565b34801561063c57600080fd5b50600a54600b54600c54600d54600e5461068c949360ff9081169392808216926001600160a01b036101008304811693600160a81b9384900481169391831692600160a01b810482169290041689565b60408051998a5297151560208a01529688019590955292151560608701526001600160a01b039182166080870152151560a08601521660c0840152151560e0830152151561010082015261012001610345565b3480156106eb57600080fd5b506103826112f1565b34801561070057600080fd5b506103826117f4565b34801561071557600080fd5b506102f6610724366004612971565b61189b565b34801561073557600080fd5b50600054610407906001600160a01b031681565b34801561075557600080fd5b5061038260085481565b34801561076b57600080fd5b506009546001600160a01b0316610407565b34801561078957600080fd5b50600354610407906001600160a01b031681565b3480156107a957600080fd5b506102f66107b83660046129cd565b61190f565b3480156107c957600080fd5b5061038260155481565b3480156107df57600080fd5b50600954610407906001600160a01b031681565b3480156107ff57600080fd5b5061038261080e366004612833565b611ca6565b34801561081f57600080fd5b5061083361082e366004612971565b611d9d565b604080519687526020870195909552938501929092526060840152608083015260a082015260c001610345565b34801561086c57600080fd5b50600454610407906001600160a01b031681565b34801561088c57600080fd5b50600554610407906001600160a01b031681565b3480156108ac57600080fd5b506102f66108bb366004612b1a565b611ebb565b3480156108cc57600080fd5b50600254610407906001600160a01b031681565b3480156108ec57600080fd5b506103826108fb36600461286c565b611fe5565b34801561090c57600080fd5b506102f661091b366004612b1a565b612221565b34801561092c57600080fd5b50601354610407906001600160a01b031681565b34801561094c57600080fd5b50600154610407906001600160a01b031681565b34801561096c57600080fd5b506102f66122a1565b6000546040805180820190915260018152601960f91b6020820152906001600160a01b031633146109c25760405162461bcd60e51b81526004016109b99190612b6c565b60405180910390fd5b506009546040516370a0823160e01b81523060048201526001600160a01b039091169060009082906370a0823190602401602060405180830381865afa158015610a10573d6000803e3d6000fd5b505050506040513d601f19601f82011682018060405250810190610a349190612b9f565b90506000811160405180604001604052806002815260200161031360f41b81525090610a735760405162461bcd60e51b81526004016109b99190612b6c565b506000309050600080600260009054906101000a90046001600160a01b03166001600160a01b031663026b1d5f6040518163ffffffff1660e01b8152600401602060405180830381865afa158015610acf573d6000803e3d6000fd5b505050506040513d601f19601f82011682018060405250810190610af39190612bb8565b60405163095ea7b360e01b81526001600160a01b038083166004830152602482018790529192509086169063095ea7b3906044016020604051808303816000875af1158015610b46573d6000803e3d6000fd5b505050506040513d601f19601f82011682018060405250810190610b6a9190612bd5565b506040517f617ba0370000000000000000000000000000000000000000000000000000000081526001600160a01b03868116600483015260248201869052848116604483015261ffff8416606483015282169063617ba03790608401600060405180830381600087803b158015610be057600080fd5b505af1158015610bf4573d6000803e3d6000fd5b50505050846001600160a01b0316836001600160a01b03167f51a2b359618aeb0bcc2a495a6667c0bdbfddc3bb27eb0dd5b8e3b33a4c15865f86604051610c3d91815260200190565b60405180910390a350506003805460ff60a01b1916600160a01b179055505050565b6000546040805180820190915260018152601960f91b6020820152906001600160a01b03163314610ca35760405162461bcd60e51b81526004016109b99190612b6c565b50600d5460ff1615156001148015610cc55750600e54600160a01b900460ff16155b6040518060400160405280600281526020017f313200000000000000000000000000000000000000000000000000000000000081525090610d195760405162461bcd60e51b81526004016109b99190612b6c565b508015610e89576013546009546040516370a0823160e01b81523060048201526001600160a01b0392831692632e1a7d4d9216906370a0823190602401602060405180830381865afa158015610d73573d6000803e3d6000fd5b505050506040513d601f19601f82011682018060405250810190610d979190612b9f565b6040518263ffffffff1660e01b8152600401610db591815260200190565b600060405180830381600087803b158015610dcf57600080fd5b505af1158015610de3573d6000803e3d6000fd5b50506009546040516370a0823160e01b81523060048201526001600160a01b0386811694506108fc9350909116906370a0823190602401602060405180830381865afa158015610e37573d6000803e3d6000fd5b505050506040513d601f19601f82011682018060405250810190610e5b9190612b9f565b6040518115909202916000818181858888f19350505050158015610e83573d6000803e3d6000fd5b50610f70565b6009546040516370a0823160e01b81523060048201526001600160a01b039091169063a9059cbb90849083906370a0823190602401602060405180830381865afa158015610edb573d6000803e3d6000fd5b505050506040513d601f19601f82011682018060405250810190610eff9190612b9f565b6040516001600160e01b031960e085901b1681526001600160a01b03909216600483015260248201526044016020604051808303816000875af1158015610f4a573d6000803e3d6000fd5b505050506040513d601f19601f82011682018060405250810190610f6e9190612bd5565b505b5050600e805460ff60a01b1916600160a01b179055565b600080546040805180820190915260018152601960f91b6020820152906001600160a01b03163314610fcc5760405162461bcd60e51b81526004016109b99190612b6c565b50600d805460ff19166001179055600354600160a01b900460ff1615610ff957610ff46112f1565b905090565b50600090565b600e54600090819061101b906001600160a01b03166001611ca6565b90506000808460085461102e9190612c08565b6009549091506001600160a01b031681156110fc576000611050826000611ca6565b9050816001600160a01b031663313ce5676040518163ffffffff1660e01b8152600401602060405180830381865afa158015611090573d6000803e3d6000fd5b505050506040513d601f19601f820116820180604052508101906110b49190612c1b565b6110bf90600a612d22565b600654612710906110d08487612d31565b6110da9190612d31565b6110e49190612d48565b6110ee9190612d48565b6110f89085612c08565b9350505b600e54604080517f313ce56700000000000000000000000000000000000000000000000000000000815290516000926001600160a01b03169163313ce5679160048281019260209291908290030181865afa15801561115f573d6000803e3d6000fd5b505050506040513d601f19601f820116820180604052508101906111839190612c1b565b61118e90600a612d22565b611198868a612d31565b6111a29190612d48565b90506000816111b2866064612d31565b6111bc9190612d48565b96505050505050505b92915050565b6000546040805180820190915260018152601960f91b6020820152906001600160a01b0316331461120f5760405162461bcd60e51b81526004016109b99190612b6c565b5080600860008282546112229190612c08565b909155505050565b6000546040805180820190915260018152601960f91b6020820152906001600160a01b0316331461126e5760405162461bcd60e51b81526004016109b99190612b6c565b50601655601591909155601455565b6000546040805180820190915260018152601960f91b6020820152906001600160a01b031633146112c15760405162461bcd60e51b81526004016109b99190612b6c565b506001805473ffffffffffffffffffffffffffffffffffffffff19166001600160a01b0392909216919091179055565b600080546040805180820190915260018152601960f91b6020820152906001600160a01b031633146113365760405162461bcd60e51b81526004016109b99190612b6c565b506009546003546040516370a0823160e01b81523060048201526001600160a01b039283169260009216906370a0823190602401602060405180830381865afa158015611387573d6000803e3d6000fd5b505050506040513d601f19601f820116820180604052508101906113ab9190612b9f565b90506000811160405180604001604052806002815260200161031360f41b815250906113ea5760405162461bcd60e51b81526004016109b99190612b6c565b50600254604080517f026b1d5f00000000000000000000000000000000000000000000000000000000815290516000926001600160a01b03169163026b1d5f9160048083019260209291908290030181865afa15801561144e573d6000803e3d6000fd5b505050506040513d601f19601f820116820180604052508101906114729190612bb8565b6040517f69328dec0000000000000000000000000000000000000000000000000000000081526001600160a01b03858116600483015260248201859052306044830152919250908216906369328dec906064016020604051808303816000875af11580156114e4573d6000803e3d6000fd5b505050506040513d601f19601f820116820180604052508101906115089190612b9f565b506040518281526001600160a01b0384169030907f83aa598dd3e269af677698c6847b3ba594a67d286a771d01099aafa911a91b649060200160405180910390a36003805460ff60a01b191690556009546040516370a0823160e01b81523060048201526000916001600160a01b0316906370a0823190602401602060405180830381865afa15801561159f573d6000803e3d6000fd5b505050506040513d601f19601f820116820180604052508101906115c39190612b9f565b90506000600854826115d59190612d6a565b11156117e9576000612710601554600854846115f19190612d6a565b6115fb9190612d31565b6116059190612d48565b9050600061163d826008548561161b9190612d6a565b6116259190612d6a565b600e546009546001600160a01b0391821691166122f5565b600e546012546014546016549394506001600160a01b039283169363a9059cbb939092169161166c9190612c08565b6014546116799086612d31565b6116839190612d48565b6040516001600160e01b031960e085901b1681526001600160a01b03909216600483015260248201526044016020604051808303816000875af11580156116ce573d6000803e3d6000fd5b505050506040513d601f19601f820116820180604052508101906116f29190612bd5565b50600e546011546014546016546001600160a01b039384169363095ea7b393169161171c91612c08565b6014546117299086612d31565b6117339190612d48565b61173d9085612d6a565b6040516001600160e01b031960e085901b1681526001600160a01b03909216600483015260248201526044016020604051808303816000875af1158015611788573d6000803e3d6000fd5b505050506040513d601f19601f820116820180604052508101906117ac9190612bd5565b506014546016546117bd9190612c08565b6014546117ca9083612d31565b6117d49190612d48565b6117de9082612d6a565b965050505050505090565b600094505050505090565b6003546040516370a0823160e01b815230600482015260009182916001600160a01b03909116906370a0823190602401602060405180830381865afa158015611841573d6000803e3d6000fd5b505050506040513d601f19601f820116820180604052508101906118659190612b9f565b90506000600854826118779190612d6a565b90506127106015548261188a9190612d31565b6118949190612d48565b9250505090565b6000546040805180820190915260018152601960f91b6020820152906001600160a01b031633146118df5760405162461bcd60e51b81526004016109b99190612b6c565b506011805473ffffffffffffffffffffffffffffffffffffffff19166001600160a01b0392909216919091179055565b7ff0c57e16840df040f15088dc2f81fe391c3923bec73e23a9662efc9c229c6a00805468010000000000000000810460ff16159067ffffffffffffffff1660008115801561195a5750825b905060008267ffffffffffffffff1660011480156119775750303b155b905081158015611985575080155b156119bc576040517ff92ee8a900000000000000000000000000000000000000000000000000000000815260040160405180910390fd5b845467ffffffffffffffff1916600117855583156119f057845468ff00000000000000001916680100000000000000001785555b336000806101000a8154816001600160a01b0302191690836001600160a01b031602179055508e600a6000820151816000015560208201518160010160006101000a81548160ff0219169083151502179055506040820151816002015560608201518160030160006101000a81548160ff02191690831515021790555060808201518160030160016101000a8154816001600160a01b0302191690836001600160a01b0316021790555060a08201518160030160156101000a81548160ff02191690831515021790555060c08201518160040160006101000a8154816001600160a01b0302191690836001600160a01b0316021790555060e08201518160040160146101000a81548160ff0219169083151502179055506101008201518160040160156101000a81548160ff0219169083151502179055509050508d600960006101000a8154816001600160a01b0302191690836001600160a01b031602179055508c600260006101000a8154816001600160a01b0302191690836001600160a01b031602179055508a600781905550896006819055508b600360006101000a8154816001600160a01b0302191690836001600160a01b0316021790555088600f60006101000a8154816001600160a01b0302191690836001600160a01b0316021790555087601060006101000a8154816001600160a01b0302191690836001600160a01b0316021790555086601260006101000a8154816001600160a01b0302191690836001600160a01b0316021790555085601360006101000a8154816001600160a01b0302191690836001600160a01b031602179055508315611c9557845468ff000000000000000019168555604051600181527fc7f505b2f371ae2175ee4913f4499e1f2633a7b5936321eed1cdaeb6115181d29060200160405180910390a15b505050505050505050505050505050565b60008115158103611d42576000806000806000600f60009054906101000a90046001600160a01b03166001600160a01b031663feaf968c6040518163ffffffff1660e01b815260040160a060405180830381865afa158015611d0c573d6000803e3d6000fd5b505050506040513d601f19601f82011682018060405250810190611d309190612d97565b509198506111c5975050505050505050565b6000806000806000601060009054906101000a90046001600160a01b03166001600160a01b031663feaf968c6040518163ffffffff1660e01b815260040160a060405180830381865afa158015611d0c573d6000803e3d6000fd5b6000806000806000806000600260009054906101000a90046001600160a01b03166001600160a01b031663026b1d5f6040518163ffffffff1660e01b8152600401602060405180830381865afa158015611dfb573d6000803e3d6000fd5b505050506040513d601f19601f82011682018060405250810190611e1f9190612bb8565b6040517fbf92857c0000000000000000000000000000000000000000000000000000000081526001600160a01b038a811660048301529192509082169063bf92857c9060240160c060405180830381865afa158015611e82573d6000803e3d6000fd5b505050506040513d601f19601f82011682018060405250810190611ea69190612de7565b949d939c50919a509850965090945092505050565b6001805460408051808201909152918252601960f91b60208301526001600160a01b03163314611efe5760405162461bcd60e51b81526004016109b99190612b6c565b506040516370a0823160e01b81523060048201526001600160a01b0383169063a9059cbb90839083906370a0823190602401602060405180830381865afa158015611f4d573d6000803e3d6000fd5b505050506040513d601f19601f82011682018060405250810190611f719190612b9f565b6040516001600160e01b031960e085901b1681526001600160a01b03909216600483015260248201526044016020604051808303816000875af1158015611fbc573d6000803e3d6000fd5b505050506040513d601f19601f82011682018060405250810190611fe09190612bd5565b505050565b600080546040805180820190915260018152601960f91b6020820152906001600160a01b0316331461202a5760405162461bcd60e51b81526004016109b99190612b6c565b506064612038846000610fff565b106040518060400160405280600281526020017f31310000000000000000000000000000000000000000000000000000000000008152509061208d5760405162461bcd60e51b81526004016109b99190612b6c565b506009546000906001600160a01b031661213f6127106120ad8682612c08565b6120b79088612d31565b6120c19190612d48565b6009546040516370a0823160e01b81523060048201526001600160a01b03909116906370a0823190602401602060405180830381865afa158015612109573d6000803e3d6000fd5b505050506040513d601f19601f8201168201806040525081019061212d9190612b9f565b600e546001600160a01b0316846124ca565b50600d80547fffffffffffffffffffff00ffffffffffffffffffffffffffffffffffffffffff16600160a81b179055600e546011546001600160a01b039182169163095ea7b391166127106121948882612c08565b61219e908a612d31565b6121a89190612d48565b6040516001600160e01b031960e085901b1681526001600160a01b03909216600483015260248201526044016020604051808303816000875af11580156121f3573d6000803e3d6000fd5b505050506040513d601f19601f820116820180604052508101906122179190612bd5565b5090949350505050565b6000546040805180820190915260018152601960f91b6020820152906001600160a01b031633146122655760405162461bcd60e51b81526004016109b99190612b6c565b50600480546001600160a01b0393841673ffffffffffffffffffffffffffffffffffffffff199182161790915560058054929093169116179055565b6000546040805180820190915260018152601960f91b6020820152906001600160a01b031633146122e55760405162461bcd60e51b81526004016109b99190612b6c565b50600b805460ff19166001179055565b6004546000906123109083906001600160a01b0316866126c2565b600554604051630b4c774160e11b81526001600160a01b0384811660048301528581166024830152610bb860448301526000921690631698ee8290606401602060405180830381865afa15801561236b573d6000803e3d6000fd5b505050506040513d601f19601f8201168201806040525081019061238f9190612bb8565b90506000816001600160a01b031663ddca3f436040518163ffffffff1660e01b8152600401602060405180830381865afa1580156123d1573d6000803e3d6000fd5b505050506040513d601f19601f820116820180604052508101906123f59190612e31565b6040805160e0810182526001600160a01b038088168252888116602083015262ffffff841682840152336060830152608082018a9052600060a0830181905260c08301526004805493517f04e45aaf00000000000000000000000000000000000000000000000000000000815294955091939216916304e45aaf9161247c91859101612e56565b6020604051808303816000875af115801561249b573d6000803e3d6000fd5b505050506040513d601f19601f820116820180604052508101906124bf9190612b9f565b979650505050505050565b6004546000906124e59083906001600160a01b0316866126c2565b600554604051630b4c774160e11b81526001600160a01b0384811660048301528581166024830152610bb860448301526000921690631698ee8290606401602060405180830381865afa158015612540573d6000803e3d6000fd5b505050506040513d601f19601f820116820180604052508101906125649190612bb8565b90506000816001600160a01b031663ddca3f436040518163ffffffff1660e01b8152600401602060405180830381865afa1580156125a6573d6000803e3d6000fd5b505050506040513d601f19601f820116820180604052508101906125ca9190612e31565b6040805160e0810182526001600160a01b038088168252888116602083015262ffffff841682840152336060830152608082018b905260a082018a9052600060c08301526004805493517f5023b4df0000000000000000000000000000000000000000000000000000000081529495509193921691635023b4df9161265191859101612e56565b6020604051808303816000875af1158015612670573d6000803e3d6000fd5b505050506040513d601f19601f820116820180604052508101906126949190612b9f565b9350868410156126b7576004546126b79086906001600160a01b031660006126c2565b505050949350505050565b604080516001600160a01b038481166024830152604480830185905283518084039091018152606490920183526020820180517bffffffffffffffffffffffffffffffffffffffffffffffffffffffff1663095ea7b360e01b17905291516000928392908716916127339190612eb9565b6000604051808303816000865af19150503d8060008114612770576040519150601f19603f3d011682016040523d82523d6000602084013e612775565b606091505b509150915081801561279f57508051158061279f57508080602001905181019061279f9190612bd5565b6127eb5760405162461bcd60e51b815260206004820152600260248201527f534100000000000000000000000000000000000000000000000000000000000060448201526064016109b9565b5050505050565b6001600160a01b038116811461280757600080fd5b50565b8035612815816127f2565b919050565b801515811461280757600080fd5b80356128158161281a565b6000806040838503121561284657600080fd5b8235612851816127f2565b915060208301356128618161281a565b809150509250929050565b6000806040838503121561287f57600080fd5b50508035926020909101359150565b600061012082019050825182526020830151151560208301526040830151604083015260608301511515606083015260808301516128d760808401826001600160a01b03169052565b5060a08301516128eb60a084018215159052565b5060c083015161290660c08401826001600160a01b03169052565b5060e083015161291a60e084018215159052565b50610100928301511515919092015290565b60006020828403121561293e57600080fd5b5035919050565b60008060006060848603121561295a57600080fd5b505081359360208301359350604090920135919050565b60006020828403121561298357600080fd5b813561298e816127f2565b9392505050565b604051610120810167ffffffffffffffff811182821017156129c757634e487b7160e01b600052604160045260246000fd5b60405290565b6000806000806000806000806000808a8c036102408112156129ee57600080fd5b610120808212156129fe57600080fd5b612a06612995565b91508c358252612a1860208e01612828565b602083015260408d01356040830152612a3360608e01612828565b6060830152612a4460808e0161280a565b6080830152612a5560a08e01612828565b60a0830152612a6660c08e0161280a565b60c0830152612a7760e08e01612828565b60e0830152610100612a8a818f01612828565b8184015250819b50612a9d818e0161280a565b9a505050612aae6101408c0161280a565b9750612abd6101608c0161280a565b96506101808b013595506101a08b01359450612adc6101c08c0161280a565b9350612aeb6101e08c0161280a565b9250612afa6102008c0161280a565b9150612b096102208c0161280a565b90509295989b9194979a5092959850565b60008060408385031215612b2d57600080fd5b8235612b38816127f2565b91506020830135612861816127f2565b60005b83811015612b63578181015183820152602001612b4b565b50506000910152565b6020815260008251806020840152612b8b816040850160208701612b48565b601f01601f19169190910160400192915050565b600060208284031215612bb157600080fd5b5051919050565b600060208284031215612bca57600080fd5b815161298e816127f2565b600060208284031215612be757600080fd5b815161298e8161281a565b634e487b7160e01b600052601160045260246000fd5b808201808211156111c5576111c5612bf2565b600060208284031215612c2d57600080fd5b815160ff8116811461298e57600080fd5b600181815b80851115612c79578160001904821115612c5f57612c5f612bf2565b80851615612c6c57918102915b93841c9390800290612c43565b509250929050565b600082612c90575060016111c5565b81612c9d575060006111c5565b8160018114612cb35760028114612cbd57612cd9565b60019150506111c5565b60ff841115612cce57612cce612bf2565b50506001821b6111c5565b5060208310610133831016604e8410600b8410161715612cfc575081810a6111c5565b612d068383612c3e565b8060001904821115612d1a57612d1a612bf2565b029392505050565b600061298e60ff841683612c81565b80820281158282048414176111c5576111c5612bf2565b600082612d6557634e487b7160e01b600052601260045260246000fd5b500490565b818103818111156111c5576111c5612bf2565b805169ffffffffffffffffffff8116811461281557600080fd5b600080600080600060a08688031215612daf57600080fd5b612db886612d7d565b9450602086015193506040860151925060608601519150612ddb60808701612d7d565b90509295509295909350565b60008060008060008060c08789031215612e0057600080fd5b865195506020870151945060408701519350606087015192506080870151915060a087015190509295509295509295565b600060208284031215612e4357600080fd5b815162ffffff8116811461298e57600080fd5b60e081016111c582846001600160a01b0380825116835280602083015116602084015262ffffff60408301511660408401528060608301511660608401526080820151608084015260a082015160a08401528060c08301511660c0840152505050565b60008251612ecb818460208701612b48565b919091019291505056fea264697066735822122028ec153285c264bcdad55a44adfe54b75acaa1c66ada315fcf5b213f3c1e94d764736f6c63430008180033",
  "linkReferences": {},
  "deployedLinkReferences": {}
}