{
  "_format": "hh-sol-artifact-1",
  "contractName": "CCFLLoan",
  "sourceName": "contracts/CCFLLoan.sol",
  "abi": [
    {
      "inputs": [],
      "stateMutability": "nonpayable",
      "type": "constructor"
    },
    {
      "inputs": [],
      "name": "InvalidInitialization",
      "type": "error"
    },
    {
      "inputs": [],
      "name": "NotInitializing",
      "type": "error"
    },
    {
      "anonymous": false,
      "inputs": [
        {
          "indexed": false,
          "internalType": "uint64",
          "name": "version",
          "type": "uint64"
        }
      ],
      "name": "Initialized",
      "type": "event"
    },
    {
      "anonymous": false,
      "inputs": [
        {
          "indexed": true,
          "internalType": "address",
          "name": "onBehalfOf",
          "type": "address"
        },
        {
          "indexed": true,
          "internalType": "address",
          "name": "_token",
          "type": "address"
        },
        {
          "indexed": false,
          "internalType": "uint256",
          "name": "_amount",
          "type": "uint256"
        }
      ],
      "name": "LiquiditySupplied",
      "type": "event"
    },
    {
      "anonymous": false,
      "inputs": [
        {
          "indexed": true,
          "internalType": "address",
          "name": "to",
          "type": "address"
        },
        {
          "indexed": true,
          "internalType": "address",
          "name": "_token",
          "type": "address"
        },
        {
          "indexed": false,
          "internalType": "uint256",
          "name": "_amount",
          "type": "uint256"
        }
      ],
      "name": "LiquidityWithdrawn",
      "type": "event"
    },
    {
      "inputs": [],
      "name": "LTV",
      "outputs": [
        {
          "internalType": "uint256",
          "name": "",
          "type": "uint256"
        }
      ],
      "stateMutability": "view",
      "type": "function"
    },
    {
      "inputs": [],
      "name": "aToken",
      "outputs": [
        {
          "internalType": "contract IERC20Standard",
          "name": "",
          "type": "address"
        }
      ],
      "stateMutability": "view",
      "type": "function"
    },
    {
      "inputs": [],
      "name": "aaveAddressProvider",
      "outputs": [
        {
          "internalType": "contract IPoolAddressesProvider",
          "name": "",
          "type": "address"
        }
      ],
      "stateMutability": "view",
      "type": "function"
    },
    {
      "inputs": [],
      "name": "admin",
      "outputs": [
        {
          "internalType": "address",
          "name": "",
          "type": "address"
        }
      ],
      "stateMutability": "view",
      "type": "function"
    },
    {
      "inputs": [
        {
          "internalType": "uint256",
          "name": "_currentDebt",
          "type": "uint256"
        },
        {
          "internalType": "uint256",
          "name": "_amountOut",
          "type": "uint256"
        }
      ],
      "name": "calculateLiquidation",
      "outputs": [
        {
          "internalType": "uint256",
          "name": "",
          "type": "uint256"
        },
        {
          "internalType": "uint256",
          "name": "",
          "type": "uint256"
        },
        {
          "internalType": "uint256",
          "name": "",
          "type": "uint256"
        },
        {
          "internalType": "uint256",
          "name": "",
          "type": "uint256"
        }
      ],
      "stateMutability": "view",
      "type": "function"
    },
    {
      "inputs": [
        {
          "internalType": "uint256",
          "name": "_currentDebt",
          "type": "uint256"
        }
      ],
      "name": "calculateSwap",
      "outputs": [
        {
          "internalType": "uint256",
          "name": "",
          "type": "uint256"
        },
        {
          "internalType": "uint256",
          "name": "",
          "type": "uint256"
        }
      ],
      "stateMutability": "nonpayable",
      "type": "function"
    },
    {
      "inputs": [],
      "name": "ccfl",
      "outputs": [
        {
          "internalType": "address",
          "name": "",
          "type": "address"
        }
      ],
      "stateMutability": "view",
      "type": "function"
    },
    {
      "inputs": [],
      "name": "closeLoan",
      "outputs": [
        {
          "internalType": "uint256",
          "name": "",
          "type": "uint256"
        },
        {
          "internalType": "uint256",
          "name": "",
          "type": "uint256"
        }
      ],
      "stateMutability": "nonpayable",
      "type": "function"
    },
    {
      "inputs": [],
      "name": "collateralAmount",
      "outputs": [
        {
          "internalType": "uint256",
          "name": "",
          "type": "uint256"
        }
      ],
      "stateMutability": "view",
      "type": "function"
    },
    {
      "inputs": [],
      "name": "collateralToken",
      "outputs": [
        {
          "internalType": "contract IERC20Standard",
          "name": "",
          "type": "address"
        }
      ],
      "stateMutability": "view",
      "type": "function"
    },
    {
      "inputs": [],
      "name": "earnBorrower",
      "outputs": [
        {
          "internalType": "uint256",
          "name": "",
          "type": "uint256"
        }
      ],
      "stateMutability": "view",
      "type": "function"
    },
    {
      "inputs": [],
      "name": "earnLender",
      "outputs": [
        {
          "internalType": "uint256",
          "name": "",
          "type": "uint256"
        }
      ],
      "stateMutability": "view",
      "type": "function"
    },
    {
      "inputs": [],
      "name": "earnPlatform",
      "outputs": [
        {
          "internalType": "uint256",
          "name": "",
          "type": "uint256"
        }
      ],
      "stateMutability": "view",
      "type": "function"
    },
    {
      "inputs": [],
      "name": "factory",
      "outputs": [
        {
          "internalType": "contract IUniswapV3Factory",
          "name": "",
          "type": "address"
        }
      ],
      "stateMutability": "view",
      "type": "function"
    },
    {
      "inputs": [],
      "name": "feeTier",
      "outputs": [
        {
          "internalType": "uint24",
          "name": "",
          "type": "uint24"
        }
      ],
      "stateMutability": "view",
      "type": "function"
    },
    {
      "inputs": [],
      "name": "getCollateralAmount",
      "outputs": [
        {
          "internalType": "uint256",
          "name": "",
          "type": "uint256"
        }
      ],
      "stateMutability": "view",
      "type": "function"
    },
    {
      "inputs": [],
      "name": "getCollateralToken",
      "outputs": [
        {
          "internalType": "contract IERC20Standard",
          "name": "",
          "type": "address"
        }
      ],
      "stateMutability": "view",
      "type": "function"
    },
    {
      "inputs": [
        {
          "internalType": "uint256",
          "name": "currentDebt",
          "type": "uint256"
        },
        {
          "internalType": "uint256",
          "name": "addCollateral",
          "type": "uint256"
        }
      ],
      "name": "getHealthFactor",
      "outputs": [
        {
          "internalType": "uint256",
          "name": "",
          "type": "uint256"
        }
      ],
      "stateMutability": "view",
      "type": "function"
    },
    {
      "inputs": [],
      "name": "getIsYeild",
      "outputs": [
        {
          "internalType": "bool",
          "name": "",
          "type": "bool"
        }
      ],
      "stateMutability": "view",
      "type": "function"
    },
    {
      "inputs": [
        {
          "internalType": "contract IERC20Standard",
          "name": "_coin",
          "type": "address"
        },
        {
          "internalType": "bool",
          "name": "isPool",
          "type": "bool"
        }
      ],
      "name": "getLatestPrice",
      "outputs": [
        {
          "internalType": "uint256",
          "name": "",
          "type": "uint256"
        }
      ],
      "stateMutability": "view",
      "type": "function"
    },
    {
      "inputs": [],
      "name": "getLoanInfo",
      "outputs": [
        {
          "components": [
            {
              "internalType": "uint256",
              "name": "loanId",
              "type": "uint256"
            },
            {
              "internalType": "bool",
              "name": "isPaid",
              "type": "bool"
            },
            {
              "internalType": "uint256",
              "name": "amount",
              "type": "uint256"
            },
            {
              "internalType": "bool",
              "name": "isClosed",
              "type": "bool"
            },
            {
              "internalType": "address",
              "name": "borrower",
              "type": "address"
            },
            {
              "internalType": "bool",
              "name": "isLiquidated",
              "type": "bool"
            },
            {
              "internalType": "contract IERC20Standard",
              "name": "stableCoin",
              "type": "address"
            },
            {
              "internalType": "bool",
              "name": "isFinalty",
              "type": "bool"
            },
            {
              "internalType": "bool",
              "name": "isFiat",
              "type": "bool"
            }
          ],
          "internalType": "struct DataTypes.Loan",
          "name": "",
          "type": "tuple"
        }
      ],
      "stateMutability": "view",
      "type": "function"
    },
    {
      "inputs": [
        {
          "internalType": "address",
          "name": "user",
          "type": "address"
        }
      ],
      "name": "getUserAccountData",
      "outputs": [
        {
          "internalType": "uint256",
          "name": "totalCollateralBase",
          "type": "uint256"
        },
        {
          "internalType": "uint256",
          "name": "totalDebtBase",
          "type": "uint256"
        },
        {
          "internalType": "uint256",
          "name": "availableBorrowsBase",
          "type": "uint256"
        },
        {
          "internalType": "uint256",
          "name": "currentLiquidationThreshold",
          "type": "uint256"
        },
        {
          "internalType": "uint256",
          "name": "ltv",
          "type": "uint256"
        },
        {
          "internalType": "uint256",
          "name": "healthFactor",
          "type": "uint256"
        }
      ],
      "stateMutability": "view",
      "type": "function"
    },
    {
      "inputs": [
        {
          "internalType": "uint256",
          "name": "_earnBorrower",
          "type": "uint256"
        }
      ],
      "name": "getYieldEarned",
      "outputs": [
        {
          "internalType": "uint256",
          "name": "",
          "type": "uint256"
        }
      ],
      "stateMutability": "view",
      "type": "function"
    },
    {
      "inputs": [],
      "name": "initLoan",
      "outputs": [
        {
          "internalType": "uint256",
          "name": "loanId",
          "type": "uint256"
        },
        {
          "internalType": "bool",
          "name": "isPaid",
          "type": "bool"
        },
        {
          "internalType": "uint256",
          "name": "amount",
          "type": "uint256"
        },
        {
          "internalType": "bool",
          "name": "isClosed",
          "type": "bool"
        },
        {
          "internalType": "address",
          "name": "borrower",
          "type": "address"
        },
        {
          "internalType": "bool",
          "name": "isLiquidated",
          "type": "bool"
        },
        {
          "internalType": "contract IERC20Standard",
          "name": "stableCoin",
          "type": "address"
        },
        {
          "internalType": "bool",
          "name": "isFinalty",
          "type": "bool"
        },
        {
          "internalType": "bool",
          "name": "isFiat",
          "type": "bool"
        }
      ],
      "stateMutability": "view",
      "type": "function"
    },
    {
      "inputs": [
        {
          "components": [
            {
              "internalType": "uint256",
              "name": "loanId",
              "type": "uint256"
            },
            {
              "internalType": "bool",
              "name": "isPaid",
              "type": "bool"
            },
            {
              "internalType": "uint256",
              "name": "amount",
              "type": "uint256"
            },
            {
              "internalType": "bool",
              "name": "isClosed",
              "type": "bool"
            },
            {
              "internalType": "address",
              "name": "borrower",
              "type": "address"
            },
            {
              "internalType": "bool",
              "name": "isLiquidated",
              "type": "bool"
            },
            {
              "internalType": "contract IERC20Standard",
              "name": "stableCoin",
              "type": "address"
            },
            {
              "internalType": "bool",
              "name": "isFinalty",
              "type": "bool"
            },
            {
              "internalType": "bool",
              "name": "isFiat",
              "type": "bool"
            }
          ],
          "internalType": "struct DataTypes.Loan",
          "name": "_loan",
          "type": "tuple"
        },
        {
          "internalType": "contract IERC20Standard",
          "name": "_collateralToken",
          "type": "address"
        },
        {
          "internalType": "contract IPoolAddressesProvider",
          "name": "_aaveAddressProvider",
          "type": "address"
        },
        {
          "internalType": "contract IERC20Standard",
          "name": "_aToken",
          "type": "address"
        },
        {
          "internalType": "uint256",
          "name": "_ltv",
          "type": "uint256"
        },
        {
          "internalType": "uint256",
          "name": "_threshold",
          "type": "uint256"
        },
        {
          "internalType": "contract AggregatorV3Interface",
          "name": "_priceFeed",
          "type": "address"
        },
        {
          "internalType": "contract AggregatorV3Interface",
          "name": "_pricePoolFeed",
          "type": "address"
        },
        {
          "internalType": "contract IWETH",
          "name": "_iWETH",
          "type": "address"
        }
      ],
      "name": "initialize",
      "outputs": [],
      "stateMutability": "nonpayable",
      "type": "function"
    },
    {
      "inputs": [],
      "name": "isStakeAave",
      "outputs": [
        {
          "internalType": "bool",
          "name": "",
          "type": "bool"
        }
      ],
      "stateMutability": "view",
      "type": "function"
    },
    {
      "inputs": [
        {
          "internalType": "uint256",
          "name": "_currentDebt",
          "type": "uint256"
        }
      ],
      "name": "liquidate",
      "outputs": [
        {
          "internalType": "uint256",
          "name": "",
          "type": "uint256"
        },
        {
          "internalType": "uint256",
          "name": "",
          "type": "uint256"
        },
        {
          "internalType": "uint256",
          "name": "",
          "type": "uint256"
        },
        {
          "internalType": "uint256",
          "name": "",
          "type": "uint256"
        }
      ],
      "stateMutability": "nonpayable",
      "type": "function"
    },
    {
      "inputs": [],
      "name": "liquidationThreshold",
      "outputs": [
        {
          "internalType": "uint256",
          "name": "",
          "type": "uint256"
        }
      ],
      "stateMutability": "view",
      "type": "function"
    },
    {
      "inputs": [],
      "name": "owner",
      "outputs": [
        {
          "internalType": "address",
          "name": "",
          "type": "address"
        }
      ],
      "stateMutability": "view",
      "type": "function"
    },
    {
      "inputs": [],
      "name": "penaltyLender",
      "outputs": [
        {
          "internalType": "uint256",
          "name": "",
          "type": "uint256"
        }
      ],
      "stateMutability": "view",
      "type": "function"
    },
    {
      "inputs": [],
      "name": "penaltyLiquidator",
      "outputs": [
        {
          "internalType": "uint256",
          "name": "",
          "type": "uint256"
        }
      ],
      "stateMutability": "view",
      "type": "function"
    },
    {
      "inputs": [],
      "name": "penaltyPlatform",
      "outputs": [
        {
          "internalType": "uint256",
          "name": "",
          "type": "uint256"
        }
      ],
      "stateMutability": "view",
      "type": "function"
    },
    {
      "inputs": [],
      "name": "platform",
      "outputs": [
        {
          "internalType": "address",
          "name": "",
          "type": "address"
        }
      ],
      "stateMutability": "view",
      "type": "function"
    },
    {
      "inputs": [],
      "name": "priceFeed",
      "outputs": [
        {
          "internalType": "contract AggregatorV3Interface",
          "name": "",
          "type": "address"
        }
      ],
      "stateMutability": "view",
      "type": "function"
    },
    {
      "inputs": [],
      "name": "pricePoolFeed",
      "outputs": [
        {
          "internalType": "contract AggregatorV3Interface",
          "name": "",
          "type": "address"
        }
      ],
      "stateMutability": "view",
      "type": "function"
    },
    {
      "inputs": [],
      "name": "quoter",
      "outputs": [
        {
          "internalType": "contract IQuoterV2",
          "name": "",
          "type": "address"
        }
      ],
      "stateMutability": "view",
      "type": "function"
    },
    {
      "inputs": [
        {
          "internalType": "address",
          "name": "_admin",
          "type": "address"
        }
      ],
      "name": "setAdmin",
      "outputs": [],
      "stateMutability": "nonpayable",
      "type": "function"
    },
    {
      "inputs": [
        {
          "internalType": "address",
          "name": "_ccfl",
          "type": "address"
        }
      ],
      "name": "setCCFL",
      "outputs": [],
      "stateMutability": "nonpayable",
      "type": "function"
    },
    {
      "inputs": [
        {
          "internalType": "uint256",
          "name": "_borrower",
          "type": "uint256"
        },
        {
          "internalType": "uint256",
          "name": "_platform",
          "type": "uint256"
        },
        {
          "internalType": "uint256",
          "name": "_lender",
          "type": "uint256"
        }
      ],
      "name": "setEarnShare",
      "outputs": [],
      "stateMutability": "nonpayable",
      "type": "function"
    },
    {
      "inputs": [],
      "name": "setPaid",
      "outputs": [],
      "stateMutability": "nonpayable",
      "type": "function"
    },
    {
      "inputs": [
        {
          "internalType": "uint256",
          "name": "_platform",
          "type": "uint256"
        },
        {
          "internalType": "uint256",
          "name": "_liquidator",
          "type": "uint256"
        },
        {
          "internalType": "uint256",
          "name": "_lender",
          "type": "uint256"
        }
      ],
      "name": "setPenalty",
      "outputs": [],
      "stateMutability": "nonpayable",
      "type": "function"
    },
    {
      "inputs": [
        {
          "internalType": "contract IV3SwapRouter",
          "name": "_swapRouter",
          "type": "address"
        },
        {
          "internalType": "contract IUniswapV3Factory",
          "name": "_factory",
          "type": "address"
        },
        {
          "internalType": "contract IQuoterV2",
          "name": "_quoter",
          "type": "address"
        }
      ],
      "name": "setSwapRouter",
      "outputs": [],
      "stateMutability": "nonpayable",
      "type": "function"
    },
    {
      "inputs": [],
      "name": "shareBorrower",
      "outputs": [
        {
          "internalType": "uint256",
          "name": "",
          "type": "uint256"
        }
      ],
      "stateMutability": "view",
      "type": "function"
    },
    {
      "inputs": [],
      "name": "shareLender",
      "outputs": [
        {
          "internalType": "uint256",
          "name": "",
          "type": "uint256"
        }
      ],
      "stateMutability": "view",
      "type": "function"
    },
    {
      "inputs": [],
      "name": "sharePlatform",
      "outputs": [
        {
          "internalType": "uint256",
          "name": "",
          "type": "uint256"
        }
      ],
      "stateMutability": "view",
      "type": "function"
    },
    {
      "inputs": [],
      "name": "supplyLiquidity",
      "outputs": [],
      "stateMutability": "nonpayable",
      "type": "function"
    },
    {
      "inputs": [],
      "name": "swapRouter",
      "outputs": [
        {
          "internalType": "contract IV3SwapRouter",
          "name": "",
          "type": "address"
        }
      ],
      "stateMutability": "view",
      "type": "function"
    },
    {
      "inputs": [
        {
          "internalType": "uint256",
          "name": "amount",
          "type": "uint256"
        }
      ],
      "name": "updateCollateral",
      "outputs": [],
      "stateMutability": "nonpayable",
      "type": "function"
    },
    {
      "inputs": [],
      "name": "wETH",
      "outputs": [
        {
          "internalType": "contract IWETH",
          "name": "",
          "type": "address"
        }
      ],
      "stateMutability": "view",
      "type": "function"
    },
    {
      "inputs": [
        {
          "internalType": "address",
          "name": "_receiver",
          "type": "address"
        },
        {
          "internalType": "bool",
          "name": "_isETH",
          "type": "bool"
        }
      ],
      "name": "withdrawAllCollateral",
      "outputs": [],
      "stateMutability": "nonpayable",
      "type": "function"
    },
    {
      "inputs": [
        {
          "internalType": "contract IERC20Standard",
          "name": "_token",
          "type": "address"
        },
        {
          "internalType": "address",
          "name": "_receiver",
          "type": "address"
        }
      ],
      "name": "withdrawCollateralByAdmin",
      "outputs": [],
      "stateMutability": "nonpayable",
      "type": "function"
    },
    {
      "inputs": [
        {
          "internalType": "uint256",
          "name": "_earnPlatform",
          "type": "uint256"
        },
        {
          "internalType": "uint256",
          "name": "_earnBorrower",
          "type": "uint256"
        },
        {
          "internalType": "uint256",
          "name": "_earnLender",
          "type": "uint256"
        }
      ],
      "name": "withdrawLiquidity",
      "outputs": [],
      "stateMutability": "nonpayable",
      "type": "function"
    },
    {
      "stateMutability": "payable",
      "type": "receive"
    }
  ],
  "bytecode": "0x608060405234801561001057600080fd5b50613248806100206000396000f3fe6080604052600436106103435760003560e01c8063704b6c02116101b0578063b2016bd4116100ec578063cbe595c911610095578063f3cf4ada1161006f578063f3cf4ada14610ac7578063f6597bbb14610ae7578063f851a44014610afd578063fab320e914610b1d57600080fd5b8063cbe595c914610a67578063cdaabe4114610a87578063f242862114610aa757600080fd5b8063c31c9c07116100c6578063c31c9c0714610a07578063c45a015514610a27578063c6bbd5a714610a4757600080fd5b8063b2016bd41461097a578063b3bffeaa1461099a578063bf92857c146109ba57600080fd5b80638ac1b7751161015957806396423663116101335780639642366314610910578063a0c1f15e1461092e578063a58bab621461094e578063a95d71321461096457600080fd5b80638ac1b775146108ba5780638da5cb5b146108da57806392d09ceb146108fa57600080fd5b8063792f436f1161018a578063792f436f146107d55780637ce67d60146107eb578063894059c61461089a57600080fd5b8063704b6c021461076b57806372f5d98a1461078b578063741bef1a146107b557600080fd5b80634031234c1161027f5780635d3e2fa11161022857806368b86bc21161020257806368b86bc2146106eb57806368dcad581461070b57806369fa97c01461072b5780636cb0ab5e1461074b57600080fd5b80635d3e2fa1146105c457806362965d8e146106b55780636721de26146106cb57600080fd5b80634d2c872a116102595780634d2c872a146105645780635825f5351461058457806358b275d7146105a457600080fd5b80634031234c146104d6578063415f1240146104ec5780634bde38c81461052c57600080fd5b80631c783def116102ec578063315deeaa116102c6578063315deeaa1461047557806332df398e1461048a5780633666eefa146104a05780633a0720e6146104c057600080fd5b80631c783def14610416578063232fa73314610435578063288cc89e1461045f57600080fd5b8063102cb82e1161031d578063102cb82e146103a557806310ac5c3c146103c557806311256603146103e557600080fd5b806305b57c0b1461034f57806307a6bf6914610378578063101b9d311461038f57600080fd5b3661034a57005b600080fd5b34801561035b57600080fd5b50610365601a5481565b6040519081526020015b60405180910390f35b34801561038457600080fd5b5061038d610b32565b005b34801561039b57600080fd5b50610365601d5481565b3480156103b157600080fd5b5061038d6103c0366004612b37565b610e1c565b3480156103d157600080fd5b5061038d6103e0366004612b70565b61115c565b3480156103f157600080fd5b5060035461040690600160a01b900460ff1681565b604051901515815260200161036f565b34801561042257600080fd5b50600354600160a01b900460ff16610406565b34801561044157600080fd5b5061044a6111ed565b6040805192835260208301919091520161036f565b34801561046b57600080fd5b5061036560185481565b34801561048157600080fd5b50600954610365565b34801561049657600080fd5b5061036560155481565b3480156104ac57600080fd5b5061044a6104bb366004612bbb565b611427565b3480156104cc57600080fd5b5061036560175481565b3480156104e257600080fd5b5061036560075481565b3480156104f857600080fd5b5061050c610507366004612bbb565b6114c5565b60408051948552602085019390935291830152606082015260800161036f565b34801561053857600080fd5b5060135461054c906001600160a01b031681565b6040516001600160a01b03909116815260200161036f565b34801561057057600080fd5b5061036561057f366004612bd4565b611611565b34801561059057600080fd5b5060125461054c906001600160a01b031681565b3480156105b057600080fd5b5061050c6105bf366004612bd4565b6117dd565b3480156105d057600080fd5b506106a86040805161012081018252600080825260208201819052918101829052606081018290526080810182905260a0810182905260c0810182905260e08101829052610100810191909152506040805161012081018252600b548152600c5460ff90811615156020830152600d5492820192909252600e54808316151560608301526001600160a01b0361010080830482166080850152600160a81b928390048516151560a0850152600f5491821660c0850152600160a01b82048516151560e085015291900490921615159181019190915290565b60405161036f9190612bf6565b3480156106c157600080fd5b5061036560085481565b3480156106d757600080fd5b5061038d6106e6366004612bbb565b6118cf565b3480156106f757600080fd5b5061038d610706366004612ccc565b61192e565b34801561071757600080fd5b5060115461054c906001600160a01b031681565b34801561073757600080fd5b50610365610746366004612bbb565b611c9d565b34801561075757600080fd5b5061038d610766366004612e07565b611d41565b34801561077757600080fd5b5061038d610786366004612e33565b611d94565b34801561079757600080fd5b506107a1610bb881565b60405162ffffff909116815260200161036f565b3480156107c157600080fd5b5060105461054c906001600160a01b031681565b3480156107e157600080fd5b5061036560195481565b3480156107f757600080fd5b50600b54600c54600d54600e54600f54610847949360ff9081169392808216926001600160a01b036101008304811693600160a81b9384900481169391831692600160a01b810482169290041689565b60408051998a5297151560208a01529688019590955292151560608701526001600160a01b039182166080870152151560a08601521660c0840152151560e083015215156101008201526101200161036f565b3480156108a657600080fd5b5061038d6108b5366004612e07565b611e08565b3480156108c657600080fd5b5061038d6108d5366004612e33565b61218a565b3480156108e657600080fd5b5060005461054c906001600160a01b031681565b34801561090657600080fd5b5061036560095481565b34801561091c57600080fd5b50600a546001600160a01b031661054c565b34801561093a57600080fd5b5060035461054c906001600160a01b031681565b34801561095a57600080fd5b50610365601c5481565b34801561097057600080fd5b5061036560165481565b34801561098657600080fd5b50600a5461054c906001600160a01b031681565b3480156109a657600080fd5b506103656109b5366004612b37565b6121fe565b3480156109c657600080fd5b506109da6109d5366004612e33565b6122f5565b604080519687526020870195909552938501929092526060840152608083015260a082015260c00161036f565b348015610a1357600080fd5b5060045461054c906001600160a01b031681565b348015610a3357600080fd5b5060055461054c906001600160a01b031681565b348015610a5357600080fd5b5060065461054c906001600160a01b031681565b348015610a7357600080fd5b5061038d610a82366004612e57565b612413565b348015610a9357600080fd5b5060025461054c906001600160a01b031681565b348015610ab357600080fd5b5060145461054c906001600160a01b031681565b348015610ad357600080fd5b5061038d610ae2366004612e07565b612555565b348015610af357600080fd5b50610365601b5481565b348015610b0957600080fd5b5060015461054c906001600160a01b031681565b348015610b2957600080fd5b5061038d6125a5565b6000546040805180820190915260018152601960f91b6020820152906001600160a01b03163314610b7f5760405162461bcd60e51b8152600401610b769190612ea9565b60405180910390fd5b50600a546040516370a0823160e01b81523060048201526001600160a01b039091169060009082906370a0823190602401602060405180830381865afa158015610bcd573d6000803e3d6000fd5b505050506040513d601f19601f82011682018060405250810190610bf19190612edc565b90506000811160405180604001604052806002815260200161031360f41b81525090610c305760405162461bcd60e51b8152600401610b769190612ea9565b506000309050600080600260009054906101000a90046001600160a01b03166001600160a01b031663026b1d5f6040518163ffffffff1660e01b8152600401602060405180830381865afa158015610c8c573d6000803e3d6000fd5b505050506040513d601f19601f82011682018060405250810190610cb09190612ef5565b60405163095ea7b360e01b81526001600160a01b038083166004830152602482018790529192509086169063095ea7b3906044016020604051808303816000875af1158015610d03573d6000803e3d6000fd5b505050506040513d601f19601f82011682018060405250810190610d279190612f12565b506040517f617ba0370000000000000000000000000000000000000000000000000000000081526001600160a01b03868116600483015260248201869052848116604483015261ffff8416606483015282169063617ba03790608401600060405180830381600087803b158015610d9d57600080fd5b505af1158015610db1573d6000803e3d6000fd5b50505050846001600160a01b0316836001600160a01b03167f51a2b359618aeb0bcc2a495a6667c0bdbfddc3bb27eb0dd5b8e3b33a4c15865f86604051610dfa91815260200190565b60405180910390a350506003805460ff60a01b1916600160a01b179055505050565b6000546040805180820190915260018152601960f91b6020820152906001600160a01b03163314610e605760405162461bcd60e51b8152600401610b769190612ea9565b50600e5460ff1615156001148015610e825750600f54600160a01b900460ff16155b6040518060400160405280600281526020017f313200000000000000000000000000000000000000000000000000000000000081525090610ed65760405162461bcd60e51b8152600401610b769190612ea9565b50801561104657601454600a546040516370a0823160e01b81523060048201526001600160a01b0392831692632e1a7d4d9216906370a0823190602401602060405180830381865afa158015610f30573d6000803e3d6000fd5b505050506040513d601f19601f82011682018060405250810190610f549190612edc565b6040518263ffffffff1660e01b8152600401610f7291815260200190565b600060405180830381600087803b158015610f8c57600080fd5b505af1158015610fa0573d6000803e3d6000fd5b5050600a546040516370a0823160e01b81523060048201526001600160a01b0386811694506108fc9350909116906370a0823190602401602060405180830381865afa158015610ff4573d6000803e3d6000fd5b505050506040513d601f19601f820116820180604052508101906110189190612edc565b6040518115909202916000818181858888f19350505050158015611040573d6000803e3d6000fd5b50611145565b600a546040516370a0823160e01b81523060048201526001600160a01b039091169063a9059cbb90849083906370a0823190602401602060405180830381865afa158015611098573d6000803e3d6000fd5b505050506040513d601f19601f820116820180604052508101906110bc9190612edc565b6040517fffffffff0000000000000000000000000000000000000000000000000000000060e085901b1681526001600160a01b03909216600483015260248201526044016020604051808303816000875af115801561111f573d6000803e3d6000fd5b505050506040513d601f19601f820116820180604052508101906111439190612f12565b505b5050600f805460ff60a01b1916600160a01b179055565b6000546040805180820190915260018152601960f91b6020820152906001600160a01b031633146111a05760405162461bcd60e51b8152600401610b769190612ea9565b50600480546001600160a01b0394851673ffffffffffffffffffffffffffffffffffffffff1991821617909155600580549385169382169390931790925560068054919093169116179055565b600080546040805180820190915260018152601960f91b602082015282916001600160a01b031633146112335760405162461bcd60e51b8152600401610b769190612ea9565b50600e805460ff19166001179055600354600160a01b900460ff161561126457611264601554601654601754611e08565b60006018546019546112769190612f45565b111561141c57600a546004546018546019546001600160a01b039384169363095ea7b39316916112a591612f45565b6040517fffffffff0000000000000000000000000000000000000000000000000000000060e085901b1681526001600160a01b03909216600483015260248201526044016020604051808303816000875af1158015611308573d6000803e3d6000fd5b505050506040513d601f19601f8201168201806040525081019061132c9190612f12565b50600061135a6018546019546113429190612f45565b600f54600a546001600160a01b0391821691166125f9565b600f5460125460405163095ea7b360e01b81526001600160a01b03918216600482015260248101849052929350169063095ea7b3906044016020604051808303816000875af11580156113b1573d6000803e3d6000fd5b505050506040513d601f19601f820116820180604052508101906113d59190612f12565b5060006015546017546113e89190612f45565b826017546113f69190612f58565b6114009190612f6f565b9050600061140e8284612f91565b919450909250611423915050565b5060009050805b9091565b600a546040516370a0823160e01b81523060048201526000918291829182916114ba9187916001600160a01b03909116906370a0823190602401602060405180830381865afa15801561147e573d6000803e3d6000fd5b505050506040513d601f19601f820116820180604052508101906114a29190612edc565b600f54600a546001600160a01b0391821691166127ce565b959194509092505050565b600080546040805180820190915260018152601960f91b60208201528291829182916001600160a01b0316331461150f5760405162461bcd60e51b8152600401610b769190612ea9565b50600354600160a01b900460ff161561153357611533601554601654601754611e08565b60008061153f87611427565b600e80547fffffffffffffffffffff00ffffffffffffffffffffffffffffffffffffffff00167501000000000000000000000000000000000000000001179055600f5460125460405163095ea7b360e01b81526001600160a01b03918216600482015260248101859052939550919350169063095ea7b3906044016020604051808303816000875af11580156115d9573d6000803e3d6000fd5b505050506040513d601f19601f820116820180604052508101906115fd9190612f12565b506000978897508796508695509350505050565b600f54600090819061162d906001600160a01b031660016121fe565b9050600080846009546116409190612f45565b600a549091506001600160a01b0316811561170e5760006116628260006121fe565b9050816001600160a01b031663313ce5676040518163ffffffff1660e01b8152600401602060405180830381865afa1580156116a2573d6000803e3d6000fd5b505050506040513d601f19601f820116820180604052508101906116c69190612fa4565b6116d190600a6130ab565b600754612710906116e28487612f58565b6116ec9190612f58565b6116f69190612f6f565b6117009190612f6f565b61170a9085612f45565b9350505b600f54604080517f313ce56700000000000000000000000000000000000000000000000000000000815290516000926001600160a01b03169163313ce5679160048281019260209291908290030181865afa158015611771573d6000803e3d6000fd5b505050506040513d601f19601f820116820180604052508101906117959190612fa4565b6117a090600a6130ab565b6117aa868a612f58565b6117b49190612f6f565b90506000816117c4866064612f58565b6117ce9190612f6f565b96505050505050505b92915050565b6000806000806000601b54601c54601d546117f89190612f45565b6118029190612f45565b90506000612710611813838a612f58565b61181d9190612f6f565b9050600082601d54836118309190612f58565b61183a9190612f6f565b9050600083601b548461184d9190612f58565b6118579190612f6f565b90506000816118668486612f91565b6118709190612f91565b905060006015546017546118849190612f45565b601754611891908d612f58565b61189b9190612f6f565b905060006118a9828d612f91565b905084826118b78387612f45565b919f909e50909c50929a509198505050505050505050565b6000546040805180820190915260018152601960f91b6020820152906001600160a01b031633146119135760405162461bcd60e51b8152600401610b769190612ea9565b5080600960008282546119269190612f45565b909155505050565b7ff0c57e16840df040f15088dc2f81fe391c3923bec73e23a9662efc9c229c6a00805468010000000000000000810460ff16159067ffffffffffffffff166000811580156119795750825b905060008267ffffffffffffffff1660011480156119965750303b155b9050811580156119a4575080155b156119db576040517ff92ee8a900000000000000000000000000000000000000000000000000000000815260040160405180910390fd5b845467ffffffffffffffff191660011785558315611a0f57845468ff00000000000000001916680100000000000000001785555b336000806101000a8154816001600160a01b0302191690836001600160a01b031602179055508d600b6000820151816000015560208201518160010160006101000a81548160ff0219169083151502179055506040820151816002015560608201518160030160006101000a81548160ff02191690831515021790555060808201518160030160016101000a8154816001600160a01b0302191690836001600160a01b0316021790555060a08201518160030160156101000a81548160ff02191690831515021790555060c08201518160040160006101000a8154816001600160a01b0302191690836001600160a01b0316021790555060e08201518160040160146101000a81548160ff0219169083151502179055506101008201518160040160156101000a81548160ff0219169083151502179055509050508c600a60006101000a8154816001600160a01b0302191690836001600160a01b031602179055508b600260006101000a8154816001600160a01b0302191690836001600160a01b0316021790555089600881905550886007819055508a600360006101000a8154816001600160a01b0302191690836001600160a01b0316021790555087601060006101000a8154816001600160a01b0302191690836001600160a01b0316021790555086601160006101000a8154816001600160a01b0302191690836001600160a01b0316021790555085601460006101000a8154816001600160a01b0302191690836001600160a01b031602179055508315611c8d57845468ff000000000000000019168555604051600181527fc7f505b2f371ae2175ee4913f4499e1f2633a7b5936321eed1cdaeb6115181d29060200160405180910390a15b5050505050505050505050505050565b6003546040516370a0823160e01b815230600482015260009182916001600160a01b03909116906370a0823190602401602060405180830381865afa158015611cea573d6000803e3d6000fd5b505050506040513d601f19601f82011682018060405250810190611d0e9190612edc565b9050600060095482611d209190612f91565b9050612710611d2f8583612f58565b611d399190612f6f565b949350505050565b6000546040805180820190915260018152601960f91b6020820152906001600160a01b03163314611d855760405162461bcd60e51b8152600401610b769190612ea9565b50601755601691909155601555565b6000546040805180820190915260018152601960f91b6020820152906001600160a01b03163314611dd85760405162461bcd60e51b8152600401610b769190612ea9565b506001805473ffffffffffffffffffffffffffffffffffffffff19166001600160a01b0392909216919091179055565b6000546040805180820190915260018152601960f91b6020820152906001600160a01b03163314611e4c5760405162461bcd60e51b8152600401610b769190612ea9565b50600a546003546040516370a0823160e01b81523060048201526001600160a01b039283169260009216906370a0823190602401602060405180830381865afa158015611e9d573d6000803e3d6000fd5b505050506040513d601f19601f82011682018060405250810190611ec19190612edc565b90506000811160405180604001604052806002815260200161031360f41b81525090611f005760405162461bcd60e51b8152600401610b769190612ea9565b50600254604080517f026b1d5f00000000000000000000000000000000000000000000000000000000815290516000926001600160a01b03169163026b1d5f9160048083019260209291908290030181865afa158015611f64573d6000803e3d6000fd5b505050506040513d601f19601f82011682018060405250810190611f889190612ef5565b6040517f69328dec0000000000000000000000000000000000000000000000000000000081526001600160a01b03858116600483015260248201859052306044830152919250908216906369328dec906064016020604051808303816000875af1158015611ffa573d6000803e3d6000fd5b505050506040513d601f19601f8201168201806040525081019061201e9190612edc565b506040518281526001600160a01b0384169030907f83aa598dd3e269af677698c6847b3ba594a67d286a771d01099aafa911a91b649060200160405180910390a36003805460ff60a01b19169055600a546040516370a0823160e01b81523060048201526000916001600160a01b0316906370a0823190602401602060405180830381865afa1580156120b5573d6000803e3d6000fd5b505050506040513d601f19601f820116820180604052508101906120d99190612edc565b90506000600954826120eb9190612f91565b11156121815761271086600954836121039190612f91565b61210d9190612f58565b6121179190612f6f565b601a556121248786612f45565b87601a54600954846121369190612f91565b6121409190612f91565b61214a9190612f58565b6121549190612f6f565b6018819055601a546009546121699084612f91565b6121739190612f91565b61217d9190612f91565b6019555b50505050505050565b6000546040805180820190915260018152601960f91b6020820152906001600160a01b031633146121ce5760405162461bcd60e51b8152600401610b769190612ea9565b506012805473ffffffffffffffffffffffffffffffffffffffff19166001600160a01b0392909216919091179055565b6000811515810361229a576000806000806000601060009054906101000a90046001600160a01b03166001600160a01b031663feaf968c6040518163ffffffff1660e01b815260040160a060405180830381865afa158015612264573d6000803e3d6000fd5b505050506040513d601f19601f8201168201806040525081019061228891906130d4565b509198506117d7975050505050505050565b6000806000806000601160009054906101000a90046001600160a01b03166001600160a01b031663feaf968c6040518163ffffffff1660e01b815260040160a060405180830381865afa158015612264573d6000803e3d6000fd5b6000806000806000806000600260009054906101000a90046001600160a01b03166001600160a01b031663026b1d5f6040518163ffffffff1660e01b8152600401602060405180830381865afa158015612353573d6000803e3d6000fd5b505050506040513d601f19601f820116820180604052508101906123779190612ef5565b6040517fbf92857c0000000000000000000000000000000000000000000000000000000081526001600160a01b038a811660048301529192509082169063bf92857c9060240160c060405180830381865afa1580156123da573d6000803e3d6000fd5b505050506040513d601f19601f820116820180604052508101906123fe9190613124565b949d939c50919a509850965090945092505050565b6001805460408051808201909152918252601960f91b60208301526001600160a01b031633146124565760405162461bcd60e51b8152600401610b769190612ea9565b506040516370a0823160e01b81523060048201526001600160a01b0383169063a9059cbb90839083906370a0823190602401602060405180830381865afa1580156124a5573d6000803e3d6000fd5b505050506040513d601f19601f820116820180604052508101906124c99190612edc565b6040517fffffffff0000000000000000000000000000000000000000000000000000000060e085901b1681526001600160a01b03909216600483015260248201526044016020604051808303816000875af115801561252c573d6000803e3d6000fd5b505050506040513d601f19601f820116820180604052508101906125509190612f12565b505050565b6000546040805180820190915260018152601960f91b6020820152906001600160a01b031633146125995760405162461bcd60e51b8152600401610b769190612ea9565b50601d55601c55601b55565b6000546040805180820190915260018152601960f91b6020820152906001600160a01b031633146125e95760405162461bcd60e51b8152600401610b769190612ea9565b50600c805460ff19166001179055565b6004546000906126149083906001600160a01b0316866129c6565b600554604051630b4c774160e11b81526001600160a01b0384811660048301528581166024830152610bb860448301526000921690631698ee8290606401602060405180830381865afa15801561266f573d6000803e3d6000fd5b505050506040513d601f19601f820116820180604052508101906126939190612ef5565b90506000816001600160a01b031663ddca3f436040518163ffffffff1660e01b8152600401602060405180830381865afa1580156126d5573d6000803e3d6000fd5b505050506040513d601f19601f820116820180604052508101906126f9919061316e565b6040805160e0810182526001600160a01b038088168252888116602083015262ffffff841682840152336060830152608082018a9052600060a0830181905260c08301526004805493517f04e45aaf00000000000000000000000000000000000000000000000000000000815294955091939216916304e45aaf9161278091859101613193565b6020604051808303816000875af115801561279f573d6000803e3d6000fd5b505050506040513d601f19601f820116820180604052508101906127c39190612edc565b979650505050505050565b6004546000906127e99083906001600160a01b0316866129c6565b600554604051630b4c774160e11b81526001600160a01b0384811660048301528581166024830152610bb860448301526000921690631698ee8290606401602060405180830381865afa158015612844573d6000803e3d6000fd5b505050506040513d601f19601f820116820180604052508101906128689190612ef5565b90506000816001600160a01b031663ddca3f436040518163ffffffff1660e01b8152600401602060405180830381865afa1580156128aa573d6000803e3d6000fd5b505050506040513d601f19601f820116820180604052508101906128ce919061316e565b6040805160e0810182526001600160a01b038088168252888116602083015262ffffff841682840152336060830152608082018b905260a082018a9052600060c08301526004805493517f5023b4df0000000000000000000000000000000000000000000000000000000081529495509193921691635023b4df9161295591859101613193565b6020604051808303816000875af1158015612974573d6000803e3d6000fd5b505050506040513d601f19601f820116820180604052508101906129989190612edc565b9350868410156129bb576004546129bb9086906001600160a01b031660006129c6565b505050949350505050565b604080516001600160a01b038481166024830152604480830185905283518084039091018152606490920183526020820180517bffffffffffffffffffffffffffffffffffffffffffffffffffffffff1663095ea7b360e01b1790529151600092839290871691612a3791906131f6565b6000604051808303816000865af19150503d8060008114612a74576040519150601f19603f3d011682016040523d82523d6000602084013e612a79565b606091505b5091509150818015612aa3575080511580612aa3575080806020019051810190612aa39190612f12565b612aef5760405162461bcd60e51b815260206004820152600260248201527f53410000000000000000000000000000000000000000000000000000000000006044820152606401610b76565b5050505050565b6001600160a01b0381168114612b0b57600080fd5b50565b8035612b1981612af6565b919050565b8015158114612b0b57600080fd5b8035612b1981612b1e565b60008060408385031215612b4a57600080fd5b8235612b5581612af6565b91506020830135612b6581612b1e565b809150509250929050565b600080600060608486031215612b8557600080fd5b8335612b9081612af6565b92506020840135612ba081612af6565b91506040840135612bb081612af6565b809150509250925092565b600060208284031215612bcd57600080fd5b5035919050565b60008060408385031215612be757600080fd5b50508035926020909101359150565b60006101208201905082518252602083015115156020830152604083015160408301526060830151151560608301526080830151612c3f60808401826001600160a01b03169052565b5060a0830151612c5360a084018215159052565b5060c0830151612c6e60c08401826001600160a01b03169052565b5060e0830151612c8260e084018215159052565b50610100928301511515919092015290565b604051610120810167ffffffffffffffff81118282101715612cc657634e487b7160e01b600052604160045260246000fd5b60405290565b6000806000806000806000806000898b03610220811215612cec57600080fd5b61012080821215612cfc57600080fd5b612d04612c94565b91508b358252612d1660208d01612b2c565b602083015260408c01356040830152612d3160608d01612b2c565b6060830152612d4260808d01612b0e565b6080830152612d5360a08d01612b2c565b60a0830152612d6460c08d01612b0e565b60c0830152612d7560e08d01612b2c565b60e0830152610100612d88818e01612b2c565b8184015250819a50612d9b818d01612b0e565b99505050612dac6101408b01612b0e565b9650612dbb6101608b01612b0e565b95506101808a013594506101a08a01359350612dda6101c08b01612b0e565b9250612de96101e08b01612b0e565b9150612df86102008b01612b0e565b90509295985092959850929598565b600080600060608486031215612e1c57600080fd5b505081359360208301359350604090920135919050565b600060208284031215612e4557600080fd5b8135612e5081612af6565b9392505050565b60008060408385031215612e6a57600080fd5b8235612e7581612af6565b91506020830135612b6581612af6565b60005b83811015612ea0578181015183820152602001612e88565b50506000910152565b6020815260008251806020840152612ec8816040850160208701612e85565b601f01601f19169190910160400192915050565b600060208284031215612eee57600080fd5b5051919050565b600060208284031215612f0757600080fd5b8151612e5081612af6565b600060208284031215612f2457600080fd5b8151612e5081612b1e565b634e487b7160e01b600052601160045260246000fd5b808201808211156117d7576117d7612f2f565b80820281158282048414176117d7576117d7612f2f565b600082612f8c57634e487b7160e01b600052601260045260246000fd5b500490565b818103818111156117d7576117d7612f2f565b600060208284031215612fb657600080fd5b815160ff81168114612e5057600080fd5b600181815b80851115613002578160001904821115612fe857612fe8612f2f565b80851615612ff557918102915b93841c9390800290612fcc565b509250929050565b600082613019575060016117d7565b81613026575060006117d7565b816001811461303c576002811461304657613062565b60019150506117d7565b60ff84111561305757613057612f2f565b50506001821b6117d7565b5060208310610133831016604e8410600b8410161715613085575081810a6117d7565b61308f8383612fc7565b80600019048211156130a3576130a3612f2f565b029392505050565b6000612e5060ff84168361300a565b805169ffffffffffffffffffff81168114612b1957600080fd5b600080600080600060a086880312156130ec57600080fd5b6130f5866130ba565b9450602086015193506040860151925060608601519150613118608087016130ba565b90509295509295909350565b60008060008060008060c0878903121561313d57600080fd5b865195506020870151945060408701519350606087015192506080870151915060a087015190509295509295509295565b60006020828403121561318057600080fd5b815162ffffff81168114612e5057600080fd5b60e081016117d782846001600160a01b0380825116835280602083015116602084015262ffffff60408301511660408401528060608301511660608401526080820151608084015260a082015160a08401528060c08301511660c0840152505050565b60008251613208818460208701612e85565b919091019291505056fea26469706673582212209cb69ca30e4a3f81088a56ff2d8f0d448ff742159691d28f7dad418ae3ba913464736f6c63430008180033",
  "linkReferences": {},
  "deployedLinkReferences": {}
}