{
  "_format": "hh-sol-artifact-1",
  "contractName": "CCFL",
  "sourceName": "contracts/CCFL.sol",
  "abi": [
    {
      "inputs": [],
      "name": "ERC1167FailedCreateClone",
      "type": "error"
    },
    {
      "inputs": [],
      "name": "InvalidInitialization",
      "type": "error"
    },
    {
      "inputs": [],
      "name": "NotInitializing",
      "type": "error"
    },
    {
      "anonymous": false,
      "inputs": [
        {
          "indexed": true,
          "internalType": "address",
          "name": "borrower",
          "type": "address"
        },
        {
          "components": [
            {
              "internalType": "uint256",
              "name": "loanId",
              "type": "uint256"
            },
            {
              "internalType": "bool",
              "name": "isPaid",
              "type": "bool"
            },
            {
              "internalType": "uint256",
              "name": "amount",
              "type": "uint256"
            },
            {
              "internalType": "bool",
              "name": "isClosed",
              "type": "bool"
            },
            {
              "internalType": "address",
              "name": "borrower",
              "type": "address"
            },
            {
              "internalType": "bool",
              "name": "isLiquidated",
              "type": "bool"
            },
            {
              "internalType": "contract IERC20Standard",
              "name": "stableCoin",
              "type": "address"
            },
            {
              "internalType": "bool",
              "name": "isFinalty",
              "type": "bool"
            },
            {
              "internalType": "bool",
              "name": "isFiat",
              "type": "bool"
            }
          ],
          "indexed": false,
          "internalType": "struct DataTypes.Loan",
          "name": "loanInfo",
          "type": "tuple"
        },
        {
          "indexed": false,
          "internalType": "uint256",
          "name": "collateralAmount",
          "type": "uint256"
        },
        {
          "indexed": false,
          "internalType": "contract IERC20Standard",
          "name": "collateral",
          "type": "address"
        },
        {
          "indexed": false,
          "internalType": "bool",
          "name": "isETH",
          "type": "bool"
        }
      ],
      "name": "AddCollateral",
      "type": "event"
    },
    {
      "anonymous": false,
      "inputs": [
        {
          "indexed": true,
          "internalType": "address",
          "name": "borrower",
          "type": "address"
        },
        {
          "indexed": false,
          "internalType": "address",
          "name": "loanAddress",
          "type": "address"
        },
        {
          "components": [
            {
              "internalType": "uint256",
              "name": "loanId",
              "type": "uint256"
            },
            {
              "internalType": "bool",
              "name": "isPaid",
              "type": "bool"
            },
            {
              "internalType": "uint256",
              "name": "amount",
              "type": "uint256"
            },
            {
              "internalType": "bool",
              "name": "isClosed",
              "type": "bool"
            },
            {
              "internalType": "address",
              "name": "borrower",
              "type": "address"
            },
            {
              "internalType": "bool",
              "name": "isLiquidated",
              "type": "bool"
            },
            {
              "internalType": "contract IERC20Standard",
              "name": "stableCoin",
              "type": "address"
            },
            {
              "internalType": "bool",
              "name": "isFinalty",
              "type": "bool"
            },
            {
              "internalType": "bool",
              "name": "isFiat",
              "type": "bool"
            }
          ],
          "indexed": false,
          "internalType": "struct DataTypes.Loan",
          "name": "loanInfo",
          "type": "tuple"
        },
        {
          "indexed": false,
          "internalType": "uint256",
          "name": "collateralAmount",
          "type": "uint256"
        },
        {
          "indexed": false,
          "internalType": "contract IERC20Standard",
          "name": "collateral",
          "type": "address"
        },
        {
          "indexed": false,
          "internalType": "bool",
          "name": "isYieldGenerating",
          "type": "bool"
        },
        {
          "indexed": false,
          "internalType": "bool",
          "name": "isETH",
          "type": "bool"
        }
      ],
      "name": "CreateLoan",
      "type": "event"
    },
    {
      "anonymous": false,
      "inputs": [
        {
          "indexed": false,
          "internalType": "uint64",
          "name": "version",
          "type": "uint64"
        }
      ],
      "name": "Initialized",
      "type": "event"
    },
    {
      "anonymous": false,
      "inputs": [
        {
          "indexed": true,
          "internalType": "address",
          "name": "liquidator",
          "type": "address"
        },
        {
          "indexed": true,
          "internalType": "address",
          "name": "borrower",
          "type": "address"
        },
        {
          "components": [
            {
              "internalType": "uint256",
              "name": "loanId",
              "type": "uint256"
            },
            {
              "internalType": "bool",
              "name": "isPaid",
              "type": "bool"
            },
            {
              "internalType": "uint256",
              "name": "amount",
              "type": "uint256"
            },
            {
              "internalType": "bool",
              "name": "isClosed",
              "type": "bool"
            },
            {
              "internalType": "address",
              "name": "borrower",
              "type": "address"
            },
            {
              "internalType": "bool",
              "name": "isLiquidated",
              "type": "bool"
            },
            {
              "internalType": "contract IERC20Standard",
              "name": "stableCoin",
              "type": "address"
            },
            {
              "internalType": "bool",
              "name": "isFinalty",
              "type": "bool"
            },
            {
              "internalType": "bool",
              "name": "isFiat",
              "type": "bool"
            }
          ],
          "indexed": false,
          "internalType": "struct DataTypes.Loan",
          "name": "loanInfo",
          "type": "tuple"
        },
        {
          "indexed": false,
          "internalType": "uint256",
          "name": "collateralAmount",
          "type": "uint256"
        },
        {
          "indexed": false,
          "internalType": "contract IERC20Standard",
          "name": "collateral",
          "type": "address"
        }
      ],
      "name": "Liquidate",
      "type": "event"
    },
    {
      "anonymous": false,
      "inputs": [
        {
          "indexed": true,
          "internalType": "address",
          "name": "borrower",
          "type": "address"
        },
        {
          "components": [
            {
              "internalType": "uint256",
              "name": "loanId",
              "type": "uint256"
            },
            {
              "internalType": "bool",
              "name": "isPaid",
              "type": "bool"
            },
            {
              "internalType": "uint256",
              "name": "amount",
              "type": "uint256"
            },
            {
              "internalType": "bool",
              "name": "isClosed",
              "type": "bool"
            },
            {
              "internalType": "address",
              "name": "borrower",
              "type": "address"
            },
            {
              "internalType": "bool",
              "name": "isLiquidated",
              "type": "bool"
            },
            {
              "internalType": "contract IERC20Standard",
              "name": "stableCoin",
              "type": "address"
            },
            {
              "internalType": "bool",
              "name": "isFinalty",
              "type": "bool"
            },
            {
              "internalType": "bool",
              "name": "isFiat",
              "type": "bool"
            }
          ],
          "indexed": false,
          "internalType": "struct DataTypes.Loan",
          "name": "loanInfo",
          "type": "tuple"
        },
        {
          "indexed": false,
          "internalType": "uint256",
          "name": "repayAmount",
          "type": "uint256"
        },
        {
          "indexed": false,
          "internalType": "uint256",
          "name": "debtRemain",
          "type": "uint256"
        }
      ],
      "name": "RepayLoan",
      "type": "event"
    },
    {
      "anonymous": false,
      "inputs": [
        {
          "indexed": true,
          "internalType": "address",
          "name": "borrower",
          "type": "address"
        },
        {
          "components": [
            {
              "internalType": "uint256",
              "name": "loanId",
              "type": "uint256"
            },
            {
              "internalType": "bool",
              "name": "isPaid",
              "type": "bool"
            },
            {
              "internalType": "uint256",
              "name": "amount",
              "type": "uint256"
            },
            {
              "internalType": "bool",
              "name": "isClosed",
              "type": "bool"
            },
            {
              "internalType": "address",
              "name": "borrower",
              "type": "address"
            },
            {
              "internalType": "bool",
              "name": "isLiquidated",
              "type": "bool"
            },
            {
              "internalType": "contract IERC20Standard",
              "name": "stableCoin",
              "type": "address"
            },
            {
              "internalType": "bool",
              "name": "isFinalty",
              "type": "bool"
            },
            {
              "internalType": "bool",
              "name": "isFiat",
              "type": "bool"
            }
          ],
          "indexed": false,
          "internalType": "struct DataTypes.Loan",
          "name": "loanInfo",
          "type": "tuple"
        },
        {
          "indexed": false,
          "internalType": "uint256",
          "name": "collateralAmount",
          "type": "uint256"
        },
        {
          "indexed": false,
          "internalType": "contract IERC20Standard",
          "name": "collateral",
          "type": "address"
        },
        {
          "indexed": false,
          "internalType": "bool",
          "name": "isETH",
          "type": "bool"
        }
      ],
      "name": "WithdrawAllCollateral",
      "type": "event"
    },
    {
      "anonymous": false,
      "inputs": [
        {
          "indexed": true,
          "internalType": "address",
          "name": "admin",
          "type": "address"
        },
        {
          "components": [
            {
              "internalType": "uint256",
              "name": "loanId",
              "type": "uint256"
            },
            {
              "internalType": "bool",
              "name": "isPaid",
              "type": "bool"
            },
            {
              "internalType": "uint256",
              "name": "amount",
              "type": "uint256"
            },
            {
              "internalType": "bool",
              "name": "isClosed",
              "type": "bool"
            },
            {
              "internalType": "address",
              "name": "borrower",
              "type": "address"
            },
            {
              "internalType": "bool",
              "name": "isLiquidated",
              "type": "bool"
            },
            {
              "internalType": "contract IERC20Standard",
              "name": "stableCoin",
              "type": "address"
            },
            {
              "internalType": "bool",
              "name": "isFinalty",
              "type": "bool"
            },
            {
              "internalType": "bool",
              "name": "isFiat",
              "type": "bool"
            }
          ],
          "indexed": false,
          "internalType": "struct DataTypes.Loan",
          "name": "loanInfo",
          "type": "tuple"
        },
        {
          "indexed": false,
          "internalType": "uint256",
          "name": "collateralAmount",
          "type": "uint256"
        },
        {
          "indexed": false,
          "internalType": "contract IERC20Standard",
          "name": "collateral",
          "type": "address"
        },
        {
          "indexed": false,
          "internalType": "bool",
          "name": "isETH",
          "type": "bool"
        }
      ],
      "name": "WithdrawAllCollateralByAdmin",
      "type": "event"
    },
    {
      "anonymous": false,
      "inputs": [
        {
          "indexed": true,
          "internalType": "address",
          "name": "borrower",
          "type": "address"
        },
        {
          "components": [
            {
              "internalType": "uint256",
              "name": "loanId",
              "type": "uint256"
            },
            {
              "internalType": "bool",
              "name": "isPaid",
              "type": "bool"
            },
            {
              "internalType": "uint256",
              "name": "amount",
              "type": "uint256"
            },
            {
              "internalType": "bool",
              "name": "isClosed",
              "type": "bool"
            },
            {
              "internalType": "address",
              "name": "borrower",
              "type": "address"
            },
            {
              "internalType": "bool",
              "name": "isLiquidated",
              "type": "bool"
            },
            {
              "internalType": "contract IERC20Standard",
              "name": "stableCoin",
              "type": "address"
            },
            {
              "internalType": "bool",
              "name": "isFinalty",
              "type": "bool"
            },
            {
              "internalType": "bool",
              "name": "isFiat",
              "type": "bool"
            }
          ],
          "indexed": false,
          "internalType": "struct DataTypes.Loan",
          "name": "loanInfo",
          "type": "tuple"
        }
      ],
      "name": "WithdrawLoan",
      "type": "event"
    },
    {
      "inputs": [
        {
          "internalType": "contract IERC20Standard",
          "name": "",
          "type": "address"
        }
      ],
      "name": "aTokens",
      "outputs": [
        {
          "internalType": "contract IERC20Standard",
          "name": "",
          "type": "address"
        }
      ],
      "stateMutability": "view",
      "type": "function"
    },
    {
      "inputs": [],
      "name": "aaveAddressProvider",
      "outputs": [
        {
          "internalType": "contract IPoolAddressesProvider",
          "name": "",
          "type": "address"
        }
      ],
      "stateMutability": "view",
      "type": "function"
    },
    {
      "inputs": [
        {
          "internalType": "uint256",
          "name": "_loanId",
          "type": "uint256"
        },
        {
          "internalType": "uint256",
          "name": "_amountCollateral",
          "type": "uint256"
        },
        {
          "internalType": "contract IERC20Standard",
          "name": "_collateral",
          "type": "address"
        }
      ],
      "name": "addCollateral",
      "outputs": [],
      "stateMutability": "nonpayable",
      "type": "function"
    },
    {
      "inputs": [
        {
          "internalType": "uint256",
          "name": "_loanId",
          "type": "uint256"
        },
        {
          "internalType": "uint256",
          "name": "_amountETH",
          "type": "uint256"
        }
      ],
      "name": "addCollateralByETH",
      "outputs": [],
      "stateMutability": "payable",
      "type": "function"
    },
    {
      "inputs": [
        {
          "internalType": "uint256",
          "name": "_loanId",
          "type": "uint256"
        },
        {
          "internalType": "uint256",
          "name": "_amountCollateral",
          "type": "uint256"
        }
      ],
      "name": "addCollateralHealthFactor",
      "outputs": [
        {
          "internalType": "uint256",
          "name": "",
          "type": "uint256"
        }
      ],
      "stateMutability": "view",
      "type": "function"
    },
    {
      "inputs": [
        {
          "internalType": "contract IERC20Standard",
          "name": "",
          "type": "address"
        }
      ],
      "name": "ccflActiveCollaterals",
      "outputs": [
        {
          "internalType": "bool",
          "name": "",
          "type": "bool"
        }
      ],
      "stateMutability": "view",
      "type": "function"
    },
    {
      "inputs": [
        {
          "internalType": "contract IERC20Standard",
          "name": "",
          "type": "address"
        }
      ],
      "name": "ccflActivePoolStableCoins",
      "outputs": [
        {
          "internalType": "bool",
          "name": "",
          "type": "bool"
        }
      ],
      "stateMutability": "view",
      "type": "function"
    },
    {
      "inputs": [],
      "name": "ccflLoan",
      "outputs": [
        {
          "internalType": "contract ICCFLLoan",
          "name": "",
          "type": "address"
        }
      ],
      "stateMutability": "view",
      "type": "function"
    },
    {
      "inputs": [
        {
          "internalType": "uint256",
          "name": "",
          "type": "uint256"
        }
      ],
      "name": "ccflPoolStableCoins",
      "outputs": [
        {
          "internalType": "contract IERC20Standard",
          "name": "",
          "type": "address"
        }
      ],
      "stateMutability": "view",
      "type": "function"
    },
    {
      "inputs": [
        {
          "internalType": "contract IERC20Standard",
          "name": "",
          "type": "address"
        }
      ],
      "name": "ccflPools",
      "outputs": [
        {
          "internalType": "contract ICCFLPool",
          "name": "",
          "type": "address"
        }
      ],
      "stateMutability": "view",
      "type": "function"
    },
    {
      "inputs": [
        {
          "internalType": "contract IERC20Standard[]",
          "name": "array",
          "type": "address[]"
        },
        {
          "internalType": "contract IERC20Standard",
          "name": "el",
          "type": "address"
        }
      ],
      "name": "checkExistElement",
      "outputs": [
        {
          "internalType": "bool",
          "name": "",
          "type": "bool"
        }
      ],
      "stateMutability": "pure",
      "type": "function"
    },
    {
      "inputs": [
        {
          "internalType": "uint256",
          "name": "_amount",
          "type": "uint256"
        },
        {
          "internalType": "contract IERC20Standard",
          "name": "_stableCoin",
          "type": "address"
        },
        {
          "internalType": "contract IERC20Standard",
          "name": "_collateral",
          "type": "address"
        }
      ],
      "name": "checkMinimalCollateralForLoan",
      "outputs": [
        {
          "internalType": "uint256",
          "name": "",
          "type": "uint256"
        }
      ],
      "stateMutability": "view",
      "type": "function"
    },
    {
      "inputs": [
        {
          "internalType": "uint256",
          "name": "",
          "type": "uint256"
        }
      ],
      "name": "collateralTokens",
      "outputs": [
        {
          "internalType": "contract IERC20Standard",
          "name": "",
          "type": "address"
        }
      ],
      "stateMutability": "view",
      "type": "function"
    },
    {
      "inputs": [
        {
          "internalType": "address",
          "name": "",
          "type": "address"
        },
        {
          "internalType": "contract IERC20Standard",
          "name": "",
          "type": "address"
        }
      ],
      "name": "collaterals",
      "outputs": [
        {
          "internalType": "uint256",
          "name": "",
          "type": "uint256"
        }
      ],
      "stateMutability": "view",
      "type": "function"
    },
    {
      "inputs": [
        {
          "internalType": "uint256",
          "name": "_amount",
          "type": "uint256"
        },
        {
          "internalType": "contract IERC20Standard",
          "name": "_stableCoin",
          "type": "address"
        },
        {
          "internalType": "uint256",
          "name": "_amountCollateral",
          "type": "uint256"
        },
        {
          "internalType": "contract IERC20Standard",
          "name": "_collateral",
          "type": "address"
        },
        {
          "internalType": "bool",
          "name": "_isYieldGenerating",
          "type": "bool"
        },
        {
          "internalType": "bool",
          "name": "_isFiat",
          "type": "bool"
        }
      ],
      "name": "createLoan",
      "outputs": [],
      "stateMutability": "nonpayable",
      "type": "function"
    },
    {
      "inputs": [
        {
          "internalType": "uint256",
          "name": "_amount",
          "type": "uint256"
        },
        {
          "internalType": "contract IERC20Standard",
          "name": "_stableCoin",
          "type": "address"
        },
        {
          "internalType": "uint256",
          "name": "_amountETH",
          "type": "uint256"
        },
        {
          "internalType": "bool",
          "name": "_isYieldGenerating",
          "type": "bool"
        },
        {
          "internalType": "bool",
          "name": "_isFiat",
          "type": "bool"
        }
      ],
      "name": "createLoanByETH",
      "outputs": [],
      "stateMutability": "payable",
      "type": "function"
    },
    {
      "inputs": [],
      "name": "earnBorrower",
      "outputs": [
        {
          "internalType": "uint256",
          "name": "",
          "type": "uint256"
        }
      ],
      "stateMutability": "view",
      "type": "function"
    },
    {
      "inputs": [],
      "name": "earnLender",
      "outputs": [
        {
          "internalType": "uint256",
          "name": "",
          "type": "uint256"
        }
      ],
      "stateMutability": "view",
      "type": "function"
    },
    {
      "inputs": [],
      "name": "earnPlatform",
      "outputs": [
        {
          "internalType": "uint256",
          "name": "",
          "type": "uint256"
        }
      ],
      "stateMutability": "view",
      "type": "function"
    },
    {
      "inputs": [
        {
          "internalType": "contract IERC20Standard",
          "name": "_stableCoin",
          "type": "address"
        },
        {
          "internalType": "uint256",
          "name": "_amount",
          "type": "uint256"
        },
        {
          "internalType": "contract IERC20Standard",
          "name": "_collateralToken",
          "type": "address"
        },
        {
          "internalType": "uint256",
          "name": "_amountCollateral",
          "type": "uint256"
        }
      ],
      "name": "estimateHealthFactor",
      "outputs": [
        {
          "internalType": "uint256",
          "name": "",
          "type": "uint256"
        }
      ],
      "stateMutability": "view",
      "type": "function"
    },
    {
      "inputs": [],
      "name": "factory",
      "outputs": [
        {
          "internalType": "contract IUniswapV3Factory",
          "name": "",
          "type": "address"
        }
      ],
      "stateMutability": "view",
      "type": "function"
    },
    {
      "inputs": [
        {
          "internalType": "uint256",
          "name": "_loanId",
          "type": "uint256"
        }
      ],
      "name": "getHealthFactor",
      "outputs": [
        {
          "internalType": "uint256",
          "name": "",
          "type": "uint256"
        }
      ],
      "stateMutability": "view",
      "type": "function"
    },
    {
      "inputs": [
        {
          "internalType": "contract IERC20Standard",
          "name": "_stableCoin",
          "type": "address"
        },
        {
          "internalType": "bool",
          "name": "isPool",
          "type": "bool"
        }
      ],
      "name": "getLatestPrice",
      "outputs": [
        {
          "internalType": "uint256",
          "name": "",
          "type": "uint256"
        }
      ],
      "stateMutability": "view",
      "type": "function"
    },
    {
      "inputs": [
        {
          "internalType": "uint256",
          "name": "_loanId",
          "type": "uint256"
        }
      ],
      "name": "getLoanAddress",
      "outputs": [
        {
          "internalType": "address",
          "name": "",
          "type": "address"
        }
      ],
      "stateMutability": "view",
      "type": "function"
    },
    {
      "inputs": [
        {
          "internalType": "address",
          "name": "borrower",
          "type": "address"
        }
      ],
      "name": "getLoanIds",
      "outputs": [
        {
          "internalType": "uint256[]",
          "name": "",
          "type": "uint256[]"
        }
      ],
      "stateMutability": "view",
      "type": "function"
    },
    {
      "inputs": [
        {
          "internalType": "contract IERC20Standard[]",
          "name": "_ccflPoolStableCoin",
          "type": "address[]"
        },
        {
          "internalType": "contract AggregatorV3Interface[]",
          "name": "_poolAggregators",
          "type": "address[]"
        },
        {
          "internalType": "contract ICCFLPool[]",
          "name": "_ccflPools",
          "type": "address[]"
        },
        {
          "internalType": "contract IERC20Standard[]",
          "name": "_collateralTokens",
          "type": "address[]"
        },
        {
          "internalType": "contract AggregatorV3Interface[]",
          "name": "_collateralAggregators",
          "type": "address[]"
        },
        {
          "internalType": "contract IERC20Standard[]",
          "name": "_aTokens",
          "type": "address[]"
        },
        {
          "internalType": "contract IPoolAddressesProvider",
          "name": "_aaveAddressProvider",
          "type": "address"
        },
        {
          "internalType": "uint256",
          "name": "_maxLTV",
          "type": "uint256"
        },
        {
          "internalType": "uint256",
          "name": "_liquidationThreshold",
          "type": "uint256"
        },
        {
          "internalType": "contract ICCFLLoan",
          "name": "_ccflLoan",
          "type": "address"
        }
      ],
      "name": "initialize",
      "outputs": [],
      "stateMutability": "nonpayable",
      "type": "function"
    },
    {
      "inputs": [],
      "name": "isPaused",
      "outputs": [
        {
          "internalType": "bool",
          "name": "",
          "type": "bool"
        }
      ],
      "stateMutability": "view",
      "type": "function"
    },
    {
      "inputs": [
        {
          "internalType": "uint256",
          "name": "_loanId",
          "type": "uint256"
        }
      ],
      "name": "liquidate",
      "outputs": [],
      "stateMutability": "nonpayable",
      "type": "function"
    },
    {
      "inputs": [],
      "name": "liquidationThreshold",
      "outputs": [
        {
          "internalType": "uint256",
          "name": "",
          "type": "uint256"
        }
      ],
      "stateMutability": "view",
      "type": "function"
    },
    {
      "inputs": [],
      "name": "liquidator",
      "outputs": [
        {
          "internalType": "address",
          "name": "",
          "type": "address"
        }
      ],
      "stateMutability": "view",
      "type": "function"
    },
    {
      "inputs": [],
      "name": "loandIds",
      "outputs": [
        {
          "internalType": "uint256",
          "name": "",
          "type": "uint256"
        }
      ],
      "stateMutability": "view",
      "type": "function"
    },
    {
      "inputs": [],
      "name": "maxLTV",
      "outputs": [
        {
          "internalType": "uint256",
          "name": "",
          "type": "uint256"
        }
      ],
      "stateMutability": "view",
      "type": "function"
    },
    {
      "inputs": [
        {
          "internalType": "address",
          "name": "",
          "type": "address"
        }
      ],
      "name": "operators",
      "outputs": [
        {
          "internalType": "bool",
          "name": "",
          "type": "bool"
        }
      ],
      "stateMutability": "view",
      "type": "function"
    },
    {
      "inputs": [],
      "name": "owner",
      "outputs": [
        {
          "internalType": "address",
          "name": "",
          "type": "address"
        }
      ],
      "stateMutability": "view",
      "type": "function"
    },
    {
      "inputs": [],
      "name": "penaltyLender",
      "outputs": [
        {
          "internalType": "uint256",
          "name": "",
          "type": "uint256"
        }
      ],
      "stateMutability": "view",
      "type": "function"
    },
    {
      "inputs": [],
      "name": "penaltyLiquidator",
      "outputs": [
        {
          "internalType": "uint256",
          "name": "",
          "type": "uint256"
        }
      ],
      "stateMutability": "view",
      "type": "function"
    },
    {
      "inputs": [],
      "name": "penaltyPlatform",
      "outputs": [
        {
          "internalType": "uint256",
          "name": "",
          "type": "uint256"
        }
      ],
      "stateMutability": "view",
      "type": "function"
    },
    {
      "inputs": [],
      "name": "platform",
      "outputs": [
        {
          "internalType": "address",
          "name": "",
          "type": "address"
        }
      ],
      "stateMutability": "view",
      "type": "function"
    },
    {
      "inputs": [
        {
          "internalType": "contract IERC20Standard",
          "name": "",
          "type": "address"
        }
      ],
      "name": "priceFeeds",
      "outputs": [
        {
          "internalType": "contract AggregatorV3Interface",
          "name": "",
          "type": "address"
        }
      ],
      "stateMutability": "view",
      "type": "function"
    },
    {
      "inputs": [
        {
          "internalType": "contract IERC20Standard",
          "name": "",
          "type": "address"
        }
      ],
      "name": "pricePoolFeeds",
      "outputs": [
        {
          "internalType": "contract AggregatorV3Interface",
          "name": "",
          "type": "address"
        }
      ],
      "stateMutability": "view",
      "type": "function"
    },
    {
      "inputs": [],
      "name": "quoter",
      "outputs": [
        {
          "internalType": "contract IQuoterV2",
          "name": "",
          "type": "address"
        }
      ],
      "stateMutability": "view",
      "type": "function"
    },
    {
      "inputs": [
        {
          "internalType": "uint256",
          "name": "_loanId",
          "type": "uint256"
        },
        {
          "internalType": "uint256",
          "name": "_amount",
          "type": "uint256"
        }
      ],
      "name": "repayHealthFactor",
      "outputs": [
        {
          "internalType": "uint256",
          "name": "",
          "type": "uint256"
        }
      ],
      "stateMutability": "view",
      "type": "function"
    },
    {
      "inputs": [
        {
          "internalType": "uint256",
          "name": "_loanId",
          "type": "uint256"
        },
        {
          "internalType": "uint256",
          "name": "_amount",
          "type": "uint256"
        },
        {
          "internalType": "contract IERC20Standard",
          "name": "_stableCoin",
          "type": "address"
        }
      ],
      "name": "repayLoan",
      "outputs": [],
      "stateMutability": "nonpayable",
      "type": "function"
    },
    {
      "inputs": [
        {
          "internalType": "contract IPoolAddressesProvider",
          "name": "_aaveAddressProvider",
          "type": "address"
        }
      ],
      "name": "setAaveProvider",
      "outputs": [],
      "stateMutability": "nonpayable",
      "type": "function"
    },
    {
      "inputs": [
        {
          "internalType": "contract IERC20Standard",
          "name": "_token",
          "type": "address"
        },
        {
          "internalType": "bool",
          "name": "_isActived",
          "type": "bool"
        },
        {
          "internalType": "bool",
          "name": "_isPoolToken",
          "type": "bool"
        }
      ],
      "name": "setActiveToken",
      "outputs": [],
      "stateMutability": "nonpayable",
      "type": "function"
    },
    {
      "inputs": [
        {
          "internalType": "contract ICCFLLoan",
          "name": "_loan",
          "type": "address"
        }
      ],
      "name": "setCCFLLoan",
      "outputs": [],
      "stateMutability": "nonpayable",
      "type": "function"
    },
    {
      "inputs": [
        {
          "internalType": "contract IERC20Standard[]",
          "name": "_collateralTokens",
          "type": "address[]"
        },
        {
          "internalType": "contract AggregatorV3Interface[]",
          "name": "_collateralAggregators",
          "type": "address[]"
        },
        {
          "internalType": "contract IERC20Standard[]",
          "name": "_aTokens",
          "type": "address[]"
        }
      ],
      "name": "setCollaterals",
      "outputs": [],
      "stateMutability": "nonpayable",
      "type": "function"
    },
    {
      "inputs": [
        {
          "internalType": "uint256",
          "name": "_borrower",
          "type": "uint256"
        },
        {
          "internalType": "uint256",
          "name": "_platform",
          "type": "uint256"
        },
        {
          "internalType": "uint256",
          "name": "_lender",
          "type": "uint256"
        }
      ],
      "name": "setEarnShare",
      "outputs": [],
      "stateMutability": "nonpayable",
      "type": "function"
    },
    {
      "inputs": [
        {
          "internalType": "bool",
          "name": "_isActived",
          "type": "bool"
        }
      ],
      "name": "setEnableETHNative",
      "outputs": [],
      "stateMutability": "nonpayable",
      "type": "function"
    },
    {
      "inputs": [
        {
          "internalType": "address[]",
          "name": "_addresses",
          "type": "address[]"
        },
        {
          "internalType": "bool[]",
          "name": "_isActives",
          "type": "bool[]"
        }
      ],
      "name": "setOperators",
      "outputs": [],
      "stateMutability": "nonpayable",
      "type": "function"
    },
    {
      "inputs": [
        {
          "internalType": "bool",
          "name": "_paused",
          "type": "bool"
        }
      ],
      "name": "setPaused",
      "outputs": [],
      "stateMutability": "nonpayable",
      "type": "function"
    },
    {
      "inputs": [
        {
          "internalType": "uint256",
          "name": "_platform",
          "type": "uint256"
        },
        {
          "internalType": "uint256",
          "name": "_liquidator",
          "type": "uint256"
        },
        {
          "internalType": "uint256",
          "name": "_lender",
          "type": "uint256"
        }
      ],
      "name": "setPenalty",
      "outputs": [],
      "stateMutability": "nonpayable",
      "type": "function"
    },
    {
      "inputs": [
        {
          "internalType": "address",
          "name": "_liquidator",
          "type": "address"
        },
        {
          "internalType": "address",
          "name": "_platform",
          "type": "address"
        }
      ],
      "name": "setPlatformAddress",
      "outputs": [],
      "stateMutability": "nonpayable",
      "type": "function"
    },
    {
      "inputs": [
        {
          "internalType": "contract IERC20Standard[]",
          "name": "_ccflPoolStableCoin",
          "type": "address[]"
        },
        {
          "internalType": "contract AggregatorV3Interface[]",
          "name": "_poolAggregators",
          "type": "address[]"
        },
        {
          "internalType": "contract ICCFLPool[]",
          "name": "_ccflPools",
          "type": "address[]"
        }
      ],
      "name": "setPools",
      "outputs": [],
      "stateMutability": "nonpayable",
      "type": "function"
    },
    {
      "inputs": [
        {
          "internalType": "contract IV3SwapRouter",
          "name": "_swapRouter",
          "type": "address"
        },
        {
          "internalType": "contract IUniswapV3Factory",
          "name": "_factory",
          "type": "address"
        },
        {
          "internalType": "contract IQuoterV2",
          "name": "_quoter",
          "type": "address"
        }
      ],
      "name": "setSwapRouter",
      "outputs": [],
      "stateMutability": "nonpayable",
      "type": "function"
    },
    {
      "inputs": [
        {
          "internalType": "uint256",
          "name": "_maxLTV",
          "type": "uint256"
        },
        {
          "internalType": "uint256",
          "name": "_liquidationThreshold",
          "type": "uint256"
        }
      ],
      "name": "setThreshold",
      "outputs": [],
      "stateMutability": "nonpayable",
      "type": "function"
    },
    {
      "inputs": [
        {
          "internalType": "contract IWETH",
          "name": "_iWETH",
          "type": "address"
        }
      ],
      "name": "setWETH",
      "outputs": [],
      "stateMutability": "nonpayable",
      "type": "function"
    },
    {
      "inputs": [
        {
          "internalType": "address",
          "name": "",
          "type": "address"
        },
        {
          "internalType": "uint256",
          "name": "",
          "type": "uint256"
        }
      ],
      "name": "userLoans",
      "outputs": [
        {
          "internalType": "uint256",
          "name": "",
          "type": "uint256"
        }
      ],
      "stateMutability": "view",
      "type": "function"
    },
    {
      "inputs": [],
      "name": "wETH",
      "outputs": [
        {
          "internalType": "contract IWETH",
          "name": "",
          "type": "address"
        }
      ],
      "stateMutability": "view",
      "type": "function"
    },
    {
      "inputs": [
        {
          "internalType": "uint256",
          "name": "_loanId",
          "type": "uint256"
        },
        {
          "internalType": "bool",
          "name": "isETH",
          "type": "bool"
        }
      ],
      "name": "withdrawAllCollateral",
      "outputs": [],
      "stateMutability": "nonpayable",
      "type": "function"
    },
    {
      "inputs": [
        {
          "internalType": "uint256",
          "name": "_loanId",
          "type": "uint256"
        },
        {
          "internalType": "bool",
          "name": "isETH",
          "type": "bool"
        }
      ],
      "name": "withdrawAllCollateralByAdmin",
      "outputs": [],
      "stateMutability": "nonpayable",
      "type": "function"
    },
    {
      "inputs": [
        {
          "internalType": "contract IERC20Standard",
          "name": "_stableCoin",
          "type": "address"
        },
        {
          "internalType": "uint256",
          "name": "_loanId",
          "type": "uint256"
        }
      ],
      "name": "withdrawFiatLoan",
      "outputs": [],
      "stateMutability": "nonpayable",
      "type": "function"
    },
    {
      "inputs": [
        {
          "internalType": "contract IERC20Standard",
          "name": "_stableCoin",
          "type": "address"
        },
        {
          "internalType": "uint256",
          "name": "_loanId",
          "type": "uint256"
        }
      ],
      "name": "withdrawLoan",
      "outputs": [],
      "stateMutability": "nonpayable",
      "type": "function"
    },
    {
      "stateMutability": "payable",
      "type": "receive"
    }
  ],
  "bytecode": "0x608060405234801561001057600080fd5b50615de480620000216000396000f3fe6080604052600436106103bc5760003560e01c80638ba2444e116101f2578063c6bbd5a71161010d578063ef3c5d25116100a0578063f43050351161006f578063f430503514610ba6578063f6597bbb14610bc6578063f8f126ff14610bdc578063fdb2b32c14610bfc57600080fd5b8063ef3c5d2514610b30578063f242862114610b50578063f384bd0514610b70578063f3cf4ada14610b8657600080fd5b8063e43b03d6116100dc578063e43b03d614610a8b578063e51e119e14610aab578063e787ea2c14610ae0578063ec7be39d14610b1057600080fd5b8063c6bbd5a714610a18578063cdaabe4114610a38578063cff212e614610a58578063d8bad5bd14610a6b57600080fd5b8063b187bd2611610185578063b9c3620911610154578063b9c3620914610982578063c0d01546146109a2578063c45a0155146109d8578063c694fdc1146109f857600080fd5b8063b187bd26146108fe578063b3bffeaa1461091f578063b5dbde5f1461093f578063b92dd9251461095257600080fd5b8063a58bab62116101c1578063a58bab6214610892578063a8700c3c146108a8578063a95d7132146108c8578063af6a85c4146108de57600080fd5b80638ba2444e146107e65780638da5cb5b14610806578063989397d4146108265780639dcb511a1461085c57600080fd5b80634031234c116102e2578063611f347d116102755780636eb0fdd0116102445780636eb0fdd0146107705780636f43d3dd146107905780638858ddc5146107b05780638ba02e1c146107d057600080fd5b8063611f347d146106e357806364b52097146107035780636b64c885146107235780636cb0ab5e1461075057600080fd5b80634bde38c8116102b15780634bde38c8146106635780635b769f3c146106835780635c8edac4146106a35780635f499ebc146106c357600080fd5b80634031234c146105ed5780634046ebae14610603578063415f124014610623578063474843ea1461064357600080fd5b80631bb514cf1161035a57806338ef67171161032957806338ef6717146105615780633a0720e6146105815780633a2ad9ae146105975780633e108ad9146105b757600080fd5b80631bb514cf146104eb5780631d9eb5d91461050b57806325e9d2fa1461052b57806332df398e1461054b57600080fd5b806313e7c9d81161039657806313e7c9d81461043357806316c38b3c14610473578063172c48c71461049357806317845c69146104cb57600080fd5b80630769594d146103c8578063101b9d31146103ea57806310ac5c3c1461041357600080fd5b366103c357005b600080fd5b3480156103d457600080fd5b506103e86103e3366004615114565b610c32565b005b3480156103f657600080fd5b50610400601a5481565b6040519081526020015b60405180910390f35b34801561041f57600080fd5b506103e861042e36600461519c565b610e40565b34801561043f57600080fd5b5061046361044e3660046151e7565b60016020526000908152604090205460ff1681565b604051901515815260200161040a565b34801561047f57600080fd5b506103e861048e366004615219565b610ed0565b34801561049f57600080fd5b506104b36104ae366004615236565b610f4e565b6040516001600160a01b03909116815260200161040a565b3480156104d757600080fd5b506104006104e6366004615236565b610f78565b3480156104f757600080fd5b5061040061050636600461524f565b6110f6565b34801561051757600080fd5b50610463610526366004615276565b611232565b34801561053757600080fd5b506104006105463660046152c8565b61128d565b34801561055757600080fd5b50610400601b5481565b34801561056d57600080fd5b506103e861057c3660046151e7565b61140d565b34801561058d57600080fd5b50610400601d5481565b3480156105a357600080fd5b506103e86105b23660046152f5565b611480565b3480156105c357600080fd5b506104b36105d23660046151e7565b600b602052600090815260409020546001600160a01b031681565b3480156105f957600080fd5b50610400600d5481565b34801561060f57600080fd5b506013546104b3906001600160a01b031681565b34801561062f57600080fd5b506103e861063e366004615236565b61166a565b34801561064f57600080fd5b506103e861065e3660046151e7565b611de1565b34801561066f57600080fd5b506014546104b3906001600160a01b031681565b34801561068f57600080fd5b506103e861069e3660046151e7565b611e54565b3480156106af57600080fd5b506103e86106be366004615335565b611ec7565b3480156106cf57600080fd5b506103e86106de366004615219565b612172565b3480156106ef57600080fd5b506103e86106fe36600461535a565b6121d6565b34801561070f57600080fd5b506103e861071e366004615114565b6125b8565b34801561072f57600080fd5b5061074361073e3660046151e7565b6127b5565b60405161040a9190615487565b34801561075c57600080fd5b506103e861076b3660046154cb565b612821565b34801561077c57600080fd5b506103e861078b3660046154f7565b612880565b34801561079c57600080fd5b506103e86107ab366004615525565b612f2c565b3480156107bc57600080fd5b506104006107cb366004615551565b6131a0565b3480156107dc57600080fd5b5061040060025481565b3480156107f257600080fd5b506005546104b3906001600160a01b031681565b34801561081257600080fd5b506015546104b3906001600160a01b031681565b34801561083257600080fd5b506104b36108413660046151e7565b600f602052600090815260409020546001600160a01b031681565b34801561086857600080fd5b506104b36108773660046151e7565b600e602052600090815260409020546001600160a01b031681565b34801561089e57600080fd5b5061040060195481565b3480156108b457600080fd5b506103e86108c3366004615599565b61330a565b3480156108d457600080fd5b50610400601c5481565b3480156108ea57600080fd5b506103e86108f9366004615335565b613594565b34801561090a57600080fd5b5060165461046390600160a01b900460ff1681565b34801561092b57600080fd5b5061040061093a366004615609565b613652565b6103e861094d366004615637565b613753565b34801561095e57600080fd5b5061046361096d3660046151e7565b60076020526000908152604090205460ff1681565b34801561098e57600080fd5b506103e861099d3660046152c8565b613a92565b3480156109ae57600080fd5b506104b36109bd3660046151e7565b6003602052600090815260409020546001600160a01b031681565b3480156109e457600080fd5b506011546104b3906001600160a01b031681565b348015610a0457600080fd5b506104b3610a13366004615236565b613aee565b348015610a2457600080fd5b506012546104b3906001600160a01b031681565b348015610a4457600080fd5b50600a546104b3906001600160a01b031681565b6103e8610a663660046152c8565b613afe565b348015610a7757600080fd5b50610400610a86366004615525565b613e80565b348015610a9757600080fd5b50610400610aa63660046152c8565b613eb1565b348015610ab757600080fd5b50610400610ac6366004615696565b600060208181529281526040808220909352908152205481565b348015610aec57600080fd5b50610463610afb3660046151e7565b60096020526000908152604090205460ff1681565b348015610b1c57600080fd5b506103e8610b2b366004615525565b614026565b348015610b3c57600080fd5b506103e8610b4b3660046154f7565b614168565b348015610b5c57600080fd5b506016546104b3906001600160a01b031681565b348015610b7c57600080fd5b50610400600c5481565b348015610b9257600080fd5b506103e8610ba13660046154cb565b614470565b348015610bb257600080fd5b506103e8610bc136600461572c565b6144cc565b348015610bd257600080fd5b5061040060185481565b348015610be857600080fd5b506103e8610bf7366004615696565b614587565b348015610c0857600080fd5b506104b3610c17366004615236565b6000908152600660205260409020546001600160a01b031690565b336000908152600160208181526040928390205483518085019094526002845261062760f31b9184019190915260ff16151514610c8b5760405162461bcd60e51b8152600401610c8291906157ee565b60405180910390fd5b5060005b8351811015610e3a576000848281518110610cac57610cac61583d565b60200260200101519050610d1a6004805480602002602001604051908101604052809291908181526020018280548015610d0f57602002820191906000526020600020905b81546001600160a01b03168152600190910190602001808311610cf1575b505050505082611232565b1515600003610d6f57600480546001810182556000919091527f8a35acfbc15ff81a39ae7d344fd709f28e8600b4aa8c65c6b64bfe7fe36bd19b0180546001600160a01b0319166001600160a01b0383161790555b828281518110610d8157610d8161583d565b602002602001015160036000836001600160a01b03166001600160a01b0316815260200190815260200160002060006101000a8154816001600160a01b0302191690836001600160a01b03160217905550838281518110610de457610de461583d565b6020908102919091018101516001600160a01b039283166000908152600f8352604080822080546001600160a01b0319169590931694909417909155600790915220805460ff1916600190811790915501610c8f565b50505050565b336000908152600160208181526040928390205483518085019094526002845261062760f31b9184019190915260ff16151514610e905760405162461bcd60e51b8152600401610c8291906157ee565b50601080546001600160a01b039485166001600160a01b031991821617909155601180549385169382169390931790925560128054919093169116179055565b6015546040805180820190915260018152601960f91b6020820152906001600160a01b03163314610f145760405162461bcd60e51b8152600401610c8291906157ee565b5060168054911515600160a01b027fffffffffffffffffffffff00ffffffffffffffffffffffffffffffffffffffff909216919091179055565b60088181548110610f5e57600080fd5b6000918252602090912001546001600160a01b0316905081565b600081815260066020526040808220548151635d3e2fa160e01b815291516001600160a01b039091169183918391635d3e2fa1916004808301926101209291908290030181865afa158015610fd1573d6000803e3d6000fd5b505050506040513d601f19601f82011682018060405250810190610ff59190615869565b60c08101516001600160a01b0390811660009081526003602052604080822054905163a52f38d160e01b815260048101899052939450909291169063a52f38d190602401602060405180830381865afa158015611056573d6000803e3d6000fd5b505050506040513d601f19601f8201168201806040525081019061107a9190615911565b604051632696439560e11b815260048101829052600060248201529091506001600160a01b03841690634d2c872a90604401602060405180830381865afa1580156110c9573d6000803e3d6000fd5b505050506040513d601f19601f820116820180604052508101906110ed9190615911565b95945050505050565b6000611103826000613652565b612710846001600160a01b031663313ce5676040518163ffffffff1660e01b8152600401602060405180830381865afa158015611144573d6000803e3d6000fd5b505050506040513d601f19601f82011682018060405250810190611168919061592a565b61117390600a615a47565b61117e866001613652565b600c54866001600160a01b031663313ce5676040518163ffffffff1660e01b8152600401602060405180830381865afa1580156111bf573d6000803e3d6000fd5b505050506040513d601f19601f820116820180604052508101906111e3919061592a565b6111ee90600a615a47565b6111f8908a615a56565b6112029190615a56565b61120c9190615a56565b6112169190615a6d565b6112209190615a6d565b61122a9190615a6d565b949350505050565b600080805b845181101561128357836001600160a01b031685828151811061125c5761125c61583d565b60200260200101516001600160a01b03160361127b5760019150611283565b600101611237565b5090505b92915050565b600082815260066020526040808220548151635d3e2fa160e01b815291516001600160a01b039091169183918391635d3e2fa1916004808301926101209291908290030181865afa1580156112e6573d6000803e3d6000fd5b505050506040513d601f19601f8201168201806040525081019061130a9190615869565b60c08101516001600160a01b0390811660009081526003602052604080822054905163a52f38d160e01b8152600481018a9052939450909291169063a52f38d190602401602060405180830381865afa15801561136b573d6000803e3d6000fd5b505050506040513d601f19601f8201168201806040525081019061138f9190615911565b604051632696439560e11b815260048101829052602481018790529091506001600160a01b03841690634d2c872a906044015b602060405180830381865afa1580156113df573d6000803e3d6000fd5b505050506040513d601f19601f820116820180604052508101906114039190615911565b9695505050505050565b336000908152600160208181526040928390205483518085019094526002845261062760f31b9184019190915260ff1615151461145d5760405162461bcd60e51b8152600401610c8291906157ee565b50600a80546001600160a01b0319166001600160a01b0392909216919091179055565b336000908152600160208181526040928390205483518085019094526002845261062760f31b9184019190915260ff161515146114d05760405162461bcd60e51b8152600401610c8291906157ee565b5080156115a25761153b600480548060200260200160405190810160405280929190818152602001828054801561153057602002820191906000526020600020905b81546001600160a01b03168152600190910190602001808311611512575b505050505084611232565b604080518082019091526001808252603560f81b602083015290911515146115765760405162461bcd60e51b8152600401610c8291906157ee565b506001600160a01b0383166000908152600960205260409020805483151560ff19909116179055505050565b6116046008805480602002602001604051908101604052809291908181526020018280548015611530576020028201919060005260206000209081546001600160a01b0316815260019091019060200180831161151257505050505084611232565b604080518082019091526001808252603560f81b6020830152909115151461163f5760405162461bcd60e51b8152600401610c8291906157ee565b506001600160a01b0383166000908152600760205260409020805460ff19168315151790555b505050565b601654604080518082019091526002815261323160f01b602082015290600160a01b900460ff16156116af5760405162461bcd60e51b8152600401610c8291906157ee565b50600081815260066020526040808220548151635d3e2fa160e01b815291516001600160a01b0390911692918391635d3e2fa191600480820192610120929091908290030181865afa158015611709573d6000803e3d6000fd5b505050506040513d601f19601f8201168201806040525081019061172d9190615869565b60c08101516001600160a01b0390811660009081526003602052604080822054905163a52f38d160e01b815260048101889052939450909291169063a52f38d190602401602060405180830381865afa15801561178e573d6000803e3d6000fd5b505050506040513d601f19601f820116820180604052508101906117b29190615911565b9050600080600080866001600160a01b031663415f1240866040518263ffffffff1660e01b81526004016117e891815260200190565b6080604051808303816000875af1158015611807573d6000803e3d6000fd5b505050506040513d601f19601f8201168201806040525081019061182b9190615a8f565b93509350935093508560c001516001600160a01b03166323b872dd883086888a6118559190615ac5565b61185f9190615ac5565b6040517fffffffff0000000000000000000000000000000000000000000000000000000060e086901b1681526001600160a01b03938416600482015292909116602483015260448201526064016020604051808303816000875af11580156118cb573d6000803e3d6000fd5b505050506040513d601f19601f820116820180604052508101906118ef9190615ad8565b5060c08601516001600160a01b039081166000818152600360205260409081902054905163095ea7b360e01b815292166004830152602482018790529063095ea7b3906044016020604051808303816000875af1158015611954573d6000803e3d6000fd5b505050506040513d601f19601f820116820180604052508101906119789190615ad8565b5060c08601516001600160a01b039081166000908152600360205260409081902054905163d8aed14560e01b8152600481018b90526024810188905291169063d8aed14590604401600060405180830381600087803b1580156119da57600080fd5b505af11580156119ee573d6000803e3d6000fd5b5050505060c08601516014546040516323b872dd60e01b81526001600160a01b038a811660048301529182166024820152604481018590529116906323b872dd906064016020604051808303816000875af1158015611a51573d6000803e3d6000fd5b505050506040513d601f19601f82011682018060405250810190611a759190615ad8565b5060c08601516013546040516323b872dd60e01b81526001600160a01b038a811660048301529182166024820152604481018490529116906323b872dd906064016020604051808303816000875af1158015611ad5573d6000803e3d6000fd5b505050506040513d601f19601f82011682018060405250810190611af99190615ad8565b5060c08601516001600160a01b03908116600081815260036020526040902054909163095ea7b39116611b2c8688615ac5565b6040517fffffffff0000000000000000000000000000000000000000000000000000000060e085901b1681526001600160a01b03909216600483015260248201526044016020604051808303816000875af1158015611b8f573d6000803e3d6000fd5b505050506040513d601f19601f82011682018060405250810190611bb39190615ad8565b5060c08601516001600160a01b03908116600090815260036020526040908190205490517f7f394031000000000000000000000000000000000000000000000000000000008152600481018b905260248101879052911690637f39403190604401600060405180830381600087803b158015611c2e57600080fd5b505af1158015611c42573d6000803e3d6000fd5b505050506000831115611cc25760c08601516001600160a01b03908116600090815260036020526040908190205490516326de36ff60e21b815260048101869052911690639b78dbfc90602401600060405180830381600087803b158015611ca957600080fd5b505af1158015611cbd573d6000803e3d6000fd5b505050505b85608001516001600160a01b0316336001600160a01b03167fd67dda2a46677451d1af5bdf1cca2fff304343d0c226a626583fa8e46f05f88b888a6001600160a01b031663315deeaa6040518163ffffffff1660e01b8152600401602060405180830381865afa158015611d3a573d6000803e3d6000fd5b505050506040513d601f19601f82011682018060405250810190611d5e9190615911565b8b6001600160a01b031663964236636040518163ffffffff1660e01b8152600401602060405180830381865afa158015611d9c573d6000803e3d6000fd5b505050506040513d601f19601f82011682018060405250810190611dc09190615af5565b604051611dcf93929190615ba9565b60405180910390a35050505050505050565b336000908152600160208181526040928390205483518085019094526002845261062760f31b9184019190915260ff16151514611e315760405162461bcd60e51b8152600401610c8291906157ee565b50600580546001600160a01b0319166001600160a01b0392909216919091179055565b336000908152600160208181526040928390205483518085019094526002845261062760f31b9184019190915260ff16151514611ea45760405162461bcd60e51b8152600401610c8291906157ee565b50601680546001600160a01b0319166001600160a01b0392909216919091179055565b601654604080518082019091526002815261323160f01b602082015290600160a01b900460ff1615611f0c5760405162461bcd60e51b8152600401610c8291906157ee565b50600082815260066020526040808220548151635d3e2fa160e01b815291516001600160a01b0390911692918391635d3e2fa191600480820192610120929091908290030181865afa158015611f66573d6000803e3d6000fd5b505050506040513d601f19601f82011682018060405250810190611f8a9190615869565b905080608001516001600160a01b0316336001600160a01b0316146040518060400160405280600281526020017f323200000000000000000000000000000000000000000000000000000000000081525090611ff95760405162461bcd60e51b8152600401610c8291906157ee565b5060808101516040516308165c1760e11b81526001600160a01b03918216600482015284151560248201529083169063102cb82e90604401600060405180830381600087803b15801561204b57600080fd5b505af115801561205f573d6000803e3d6000fd5b50505050336001600160a01b03167f23206eb063144a4ad38015cfdddfde8f6c65a648d766d6efe3f524ba5b03bd2782846001600160a01b031663315deeaa6040518163ffffffff1660e01b8152600401602060405180830381865afa1580156120cd573d6000803e3d6000fd5b505050506040513d601f19601f820116820180604052508101906120f19190615911565b856001600160a01b031663964236636040518163ffffffff1660e01b8152600401602060405180830381865afa15801561212f573d6000803e3d6000fd5b505050506040513d601f19601f820116820180604052508101906121539190615af5565b876040516121649493929190615bd7565b60405180910390a250505050565b336000908152600160208181526040928390205483518085019094526002845261062760f31b9184019190915260ff161515146121c25760405162461bcd60e51b8152600401610c8291906157ee565b50601e805460ff1916911515919091179055565b7ff0c57e16840df040f15088dc2f81fe391c3923bec73e23a9662efc9c229c6a00805468010000000000000000810460ff16159067ffffffffffffffff166000811580156122215750825b905060008267ffffffffffffffff16600114801561223e5750303b155b90508115801561224c575080155b15612283576040517ff92ee8a900000000000000000000000000000000000000000000000000000000815260040160405180910390fd5b845467ffffffffffffffff1916600117855583156122b757845468ff00000000000000001916680100000000000000001785555b8e600490805190602001906122cd929190614f0d565b50600160025560005b6004548110156123db576000600482815481106122f5576122f561583d565b6000918252602090912001548f516001600160a01b0390911691508f90839081106123225761232261583d565b602002602001015160036000836001600160a01b03166001600160a01b0316815260200190815260200160002060006101000a8154816001600160a01b0302191690836001600160a01b031602179055508f82815181106123855761238561583d565b6020908102919091018101516001600160a01b039283166000908152600f8352604080822080546001600160a01b0319169590931694909417909155600790915220805460ff19166001908117909155016122d6565b508b516123ef9060089060208f0190614f0d565b5060005b6008548110156124f8576000600882815481106124125761241261583d565b6000918252602090912001548d516001600160a01b0390911691508d908390811061243f5761243f61583d565b6020026020010151600e6000836001600160a01b03166001600160a01b0316815260200190815260200160002060006101000a8154816001600160a01b0302191690836001600160a01b031602179055508b82815181106124a2576124a261583d565b6020908102919091018101516001600160a01b039283166000908152600b8352604080822080546001600160a01b0319169590931694909417909155600990915220805460ff19166001908117909155016123f3565b50600a80546001600160a01b03199081166001600160a01b038c81169190911790925560058054821692891692909217909155600c899055600d88905560158054339216821790556000908152600160208190526040909120805460ff1916909117905583156125a757845468ff000000000000000019168555604051600181527fc7f505b2f371ae2175ee4913f4499e1f2633a7b5936321eed1cdaeb6115181d29060200160405180910390a15b505050505050505050505050505050565b336000908152600160208181526040928390205483518085019094526002845261062760f31b9184019190915260ff161515146126085760405162461bcd60e51b8152600401610c8291906157ee565b5060005b8351811015610e3a5760008482815181106126295761262961583d565b602002602001015190506126956008805480602002602001604051908101604052809291908181526020018280548015610d0f576020028201919060005260206000209081546001600160a01b03168152600190910190602001808311610cf157505050505082611232565b15156000036126ea57600880546001810182556000919091527ff3f7a9fe364faab93b216da50a3214154f22a0a2b415b23a84c8169e8b636ee30180546001600160a01b0319166001600160a01b0383161790555b8382815181106126fc576126fc61583d565b6020026020010151600e6000836001600160a01b03166001600160a01b0316815260200190815260200160002060006101000a8154816001600160a01b0302191690836001600160a01b0316021790555082828151811061275f5761275f61583d565b6020908102919091018101516001600160a01b039283166000908152600b8352604080822080546001600160a01b0319169590931694909417909155600990915220805460ff191660019081179091550161260c565b6001600160a01b03811660009081526017602090815260409182902080548351818402810184019094528084526060939283018282801561281557602002820191906000526020600020905b815481526020019060010190808311612801575b50505050509050919050565b336000908152600160208181526040928390205483518085019094526002845261062760f31b9184019190915260ff161515146128715760405162461bcd60e51b8152600401610c8291906157ee565b50601d55601c91909155601b55565b6001600160a01b0381166000908152600760209081526040918290205482518084019093526001808452603360f81b9284019290925283929160ff9091161515146128de5760405162461bcd60e51b8152600401610c8291906157ee565b50601654604080518082019091526002815261323160f01b602082015290600160a01b900460ff16156129245760405162461bcd60e51b8152600401610c8291906157ee565b506001600160a01b038281166000908152600360205260409081902054905163a52f38d160e01b8152600481018790528592919091169063a52f38d190602401602060405180830381865afa158015612981573d6000803e3d6000fd5b505050506040513d601f19601f820116820180604052508101906129a59190615911565b841115612a2b576001600160a01b038381166000908152600360205260409081902054905163a52f38d160e01b81526004810188905291169063a52f38d190602401602060405180830381865afa158015612a04573d6000803e3d6000fd5b505050506040513d601f19601f82011682018060405250810190612a289190615911565b90505b600085815260066020526040808220548151635d3e2fa160e01b815291516001600160a01b0390911692918391635d3e2fa191600480820192610120929091908290030181865afa158015612a84573d6000803e3d6000fd5b505050506040513d601f19601f82011682018060405250810190612aa89190615869565b6040516323b872dd60e01b8152336004820152306024820152604481018590529091506001600160a01b038616906323b872dd906064016020604051808303816000875af1158015612afe573d6000803e3d6000fd5b505050506040513d601f19601f82011682018060405250810190612b229190615ad8565b506001600160a01b038581166000818152600360205260409081902054905163095ea7b360e01b815292166004830152602482018590529063095ea7b3906044016020604051808303816000875af1158015612b82573d6000803e3d6000fd5b505050506040513d601f19601f82011682018060405250810190612ba69190615ad8565b506001600160a01b038581166000908152600360205260409081902054905163d8aed14560e01b8152600481018a90526024810186905291169063d8aed14590604401600060405180830381600087803b158015612c0357600080fd5b505af1158015612c17573d6000803e3d6000fd5b505050506001600160a01b0385811660009081526003602052604080822054905163a52f38d160e01b8152600481018b90529192169063a52f38d190602401602060405180830381865afa158015612c73573d6000803e3d6000fd5b505050506040513d601f19601f82011682018060405250810190612c979190615911565b905080600003612edd576000888152600660205260408082205481517f232fa733000000000000000000000000000000000000000000000000000000008152825184936001600160a01b039093169263232fa7339260048082019391829003018187875af1158015612d0d573d6000803e3d6000fd5b505050506040513d601f19601f82011682018060405250810190612d319190615c0f565b90925090508115612e445760008a8152600660209081526040808320546001600160a01b038c81168086526003909452938290205491516323b872dd60e01b815290841660048201529216602483015260448201849052906323b872dd906064016020604051808303816000875af1158015612db1573d6000803e3d6000fd5b505050506040513d601f19601f82011682018060405250810190612dd59190615ad8565b506001600160a01b03888116600090815260036020526040908190205490516326de36ff60e21b815260048101859052911690639b78dbfc90602401600060405180830381600087803b158015612e2b57600080fd5b505af1158015612e3f573d6000803e3d6000fd5b505050505b8015612eda5760008a815260066020526040908190205460145491516323b872dd60e01b81526001600160a01b0391821660048201529181166024830152604482018390528916906323b872dd906064016020604051808303816000875af1158015612eb4573d6000803e3d6000fd5b505050506040513d601f19601f82011682018060405250810190612ed89190615ad8565b505b50505b336001600160a01b03167f60bbdbcc9ae47c9d5e165a6752e36cef569d4a6de3d2b399f9322d7c634041a0838984604051612f1a93929190615c33565b60405180910390a25050505050505050565b336000908152600160208181526040928390205483518085019094526002845261062760f31b9184019190915260ff16151514612f7c5760405162461bcd60e51b8152600401610c8291906157ee565b50601654604080518082019091526002815261323160f01b602082015290600160a01b900460ff1615612fc25760405162461bcd60e51b8152600401610c8291906157ee565b50600081815260066020526040808220548151635d3e2fa160e01b815291516001600160a01b0390911692918391635d3e2fa191600480820192610120929091908290030181865afa15801561301c573d6000803e3d6000fd5b505050506040513d601f19601f820116820180604052508101906130409190615869565b61010081015160408051808201909152600281527f31390000000000000000000000000000000000000000000000000000000000006020820152919250151560011461309f5760405162461bcd60e51b8152600401610c8291906157ee565b506001600160a01b038481166000908152600360205260409081902054905163ec7be39d60e01b81523360048201526024810186905291169063ec7be39d906044015b600060405180830381600087803b1580156130fc57600080fd5b505af1158015613110573d6000803e3d6000fd5b50505050816001600160a01b031663fab320e96040518163ffffffff1660e01b8152600401600060405180830381600087803b15801561314f57600080fd5b505af1158015613163573d6000803e3d6000fd5b50505050336001600160a01b03167f17177416dc9e9c18df48bdbc445b0e80b3ea7582cf5ba716df90dfef91fee39c826040516121649190615c55565b6000806131ae866001613652565b905060006131bd856000613652565b90506000856001600160a01b031663313ce5676040518163ffffffff1660e01b8152600401602060405180830381865afa1580156131ff573d6000803e3d6000fd5b505050506040513d601f19601f82011682018060405250810190613223919061592a565b61322e90600a615a47565b600d546127109061323f8589615a56565b6132499190615a56565b6132539190615a6d565b61325d9190615a6d565b90506000886001600160a01b031663313ce5676040518163ffffffff1660e01b8152600401602060405180830381865afa15801561329f573d6000803e3d6000fd5b505050506040513d601f19601f820116820180604052508101906132c3919061592a565b6132ce90600a615a47565b6132d8858a615a56565b6132e29190615a6d565b90506000816132f2846064615a56565b6132fc9190615a6d565b9a9950505050505050505050565b6001600160a01b0385166000908152600760209081526040918290205482518084019093526001808452603360f81b9284019290925287929160ff9091161515146133685760405162461bcd60e51b8152600401610c8291906157ee565b506001600160a01b0384166000908152600960209081526040918290205482518084019093526001808452600d60fa1b9284019290925286929160ff9091161515146133c75760405162461bcd60e51b8152600401610c8291906157ee565b50601654604080518082019091526002815261323160f01b602082015290600160a01b900460ff161561340d5760405162461bcd60e51b8152600401610c8291906157ee565b50866001600160a01b031663313ce5676040518163ffffffff1660e01b8152600401602060405180830381865afa15801561344c573d6000803e3d6000fd5b505050506040513d601f19601f82011682018060405250810190613470919061592a565b61347b90600a615a47565b613486886001613652565b613490908a615a56565b61349c90612710615a56565b6134a69190615a6d565b856001600160a01b031663313ce5676040518163ffffffff1660e01b8152600401602060405180830381865afa1580156134e4573d6000803e3d6000fd5b505050506040513d601f19601f82011682018060405250810190613508919061592a565b61351390600a615a47565b600c54613521886000613652565b61352b908a615a56565b6135359190615a56565b61353f9190615a6d565b1015604051806040016040528060018152602001603760f81b815250906135795760405162461bcd60e51b8152600401610c8291906157ee565b5061358a8888888888886000614606565b5050505050505050565b6015546040805180820190915260018152601960f91b6020820152906001600160a01b031633146135d85760405162461bcd60e51b8152600401610c8291906157ee565b50600082815260066020526040908190205490516308165c1760e11b815233600482015282151560248201526001600160a01b0390911690819063102cb82e90604401600060405180830381600087803b15801561363557600080fd5b505af1158015613649573d6000803e3d6000fd5b50505050505050565b600081151581036136f3576001600160a01b038084166000908152600e6020526040808220548151633fabe5a360e21b8152915192938493849384938493169163feaf968c9160048082019260a0929091908290030181865afa1580156136bd573d6000803e3d6000fd5b505050506040513d601f19601f820116820180604052508101906136e19190615c7e565b50919850611287975050505050505050565b6001600160a01b038084166000908152600f6020526040808220548151633fabe5a360e21b8152915192938493849384938493169163feaf968c9160048082019260a0929091908290030181865afa1580156136bd573d6000803e3d6000fd5b6001600160a01b0384166000908152600760209081526040918290205482518084019093526001808452603360f81b9284019290925286929160ff9091161515146137b15760405162461bcd60e51b8152600401610c8291906157ee565b50601e54604080518082019091526002815261032360f41b60208201529060ff1615156001146137f45760405162461bcd60e51b8152600401610c8291906157ee565b50601654604080518082019091526002815261323160f01b602082015290600160a01b900460ff161561383a5760405162461bcd60e51b8152600401610c8291906157ee565b506040805180820190915260018152601b60f91b6020820152348511156138745760405162461bcd60e51b8152600401610c8291906157ee565b50601660009054906101000a90046001600160a01b03166001600160a01b031663d0e30db0856040518263ffffffff1660e01b81526004016000604051808303818588803b1580156138c557600080fd5b505af11580156138d9573d6000803e3d6000fd5b5050505050846001600160a01b031663313ce5676040518163ffffffff1660e01b8152600401602060405180830381865afa15801561391c573d6000803e3d6000fd5b505050506040513d601f19601f82011682018060405250810190613940919061592a565b61394b90600a615a47565b613956866001613652565b6139609088615a56565b61396c90612710615a56565b6139769190615a6d565b601660009054906101000a90046001600160a01b03166001600160a01b031663313ce5676040518163ffffffff1660e01b8152600401602060405180830381865afa1580156139c9573d6000803e3d6000fd5b505050506040513d601f19601f820116820180604052508101906139ed919061592a565b6139f890600a615a47565b600c54601654613a12906001600160a01b03166000613652565b613a1c9088615a56565b613a269190615a56565b613a309190615a6d565b1015604051806040016040528060018152602001603760f81b81525090613a6a5760405162461bcd60e51b8152600401610c8291906157ee565b50601654613a8a908790879087906001600160a01b031687876000614606565b505050505050565b336000908152600160208181526040928390205483518085019094526002845261062760f31b9184019190915260ff16151514613ae25760405162461bcd60e51b8152600401610c8291906157ee565b50600c91909155600d55565b60048181548110610f5e57600080fd5b601e54604080518082019091526002815261032360f41b60208201529060ff161515600114613b405760405162461bcd60e51b8152600401610c8291906157ee565b50601654604080518082019091526002815261323160f01b602082015290600160a01b900460ff1615613b865760405162461bcd60e51b8152600401610c8291906157ee565b506040805180820190915260018152601b60f91b602082015234821115613bc05760405162461bcd60e51b8152600401610c8291906157ee565b50601660009054906101000a90046001600160a01b03166001600160a01b031663d0e30db0826040518263ffffffff1660e01b81526004016000604051808303818588803b158015613c1157600080fd5b505af1158015613c25573d6000803e3d6000fd5b505050600084815260066020526040808220548151635d3e2fa160e01b815291516001600160a01b0390911694509192508391635d3e2fa191600480820192610120929091908290030181865afa158015613c84573d6000803e3d6000fd5b505050506040513d601f19601f82011682018060405250810190613ca89190615869565b604051633390ef1360e11b8152600481018590529091506001600160a01b03831690636721de2690602401600060405180830381600087803b158015613ced57600080fd5b505af1158015613d01573d6000803e3d6000fd5b505060165460405163a9059cbb60e01b81526001600160a01b03868116600483015260248201889052909116925063a9059cbb91506044016020604051808303816000875af1158015613d58573d6000803e3d6000fd5b505050506040513d601f19601f82011682018060405250810190613d7c9190615ad8565b50816001600160a01b0316631c783def6040518163ffffffff1660e01b8152600401602060405180830381865afa158015613dbb573d6000803e3d6000fd5b505050506040513d601f19601f82011682018060405250810190613ddf9190615ad8565b1515600103613e3c57816001600160a01b03166307a6bf696040518163ffffffff1660e01b8152600401600060405180830381600087803b158015613e2357600080fd5b505af1158015613e37573d6000803e3d6000fd5b505050505b60165460405133917fae6907a71a3704b591c11a28209aad9c070726b192f3e7300e88562322955d689161216491859188916001600160a01b031690600190615bd7565b60176020528160005260406000208181548110613e9c57600080fd5b90600052602060002001600091509150505481565b600082815260066020526040808220548151635d3e2fa160e01b815291516001600160a01b039091169183918391635d3e2fa1916004808301926101209291908290030181865afa158015613f0a573d6000803e3d6000fd5b505050506040513d601f19601f82011682018060405250810190613f2e9190615869565b60c08101516001600160a01b0390811660009081526003602052604080822054905163a52f38d160e01b8152600481018a9052939450909291169063a52f38d190602401602060405180830381865afa158015613f8f573d6000803e3d6000fd5b505050506040513d601f19601f82011682018060405250810190613fb39190615911565b9050808510613fca576201869f9350505050611287565b6001600160a01b038316634d2c872a613fe38784615cce565b6040517fffffffff0000000000000000000000000000000000000000000000000000000060e084901b1681526004810191909152600060248201526044016113c2565b600081815260066020526040808220548151635d3e2fa160e01b815291516001600160a01b0390911692918391635d3e2fa191600480820192610120929091908290030181865afa15801561407f573d6000803e3d6000fd5b505050506040513d601f19601f820116820180604052508101906140a39190615869565b60808101519091506001600160a01b0316331480156140c55750610100810151155b6040518060400160405280600181526020017f3900000000000000000000000000000000000000000000000000000000000000815250906141195760405162461bcd60e51b8152600401610c8291906157ee565b506001600160a01b0384811660009081526003602052604090819020546080840151915163ec7be39d60e01b81529183166004830152602482018690529091169063ec7be39d906044016130e2565b6001600160a01b0381166000908152600960209081526040918290205482518084019093526001808452600d60fa1b9284019290925283929160ff9091161515146141c65760405162461bcd60e51b8152600401610c8291906157ee565b50601654604080518082019091526002815261323160f01b602082015290600160a01b900460ff161561420c5760405162461bcd60e51b8152600401610c8291906157ee565b50600084815260066020526040808220548151635d3e2fa160e01b815291516001600160a01b0390911692918391635d3e2fa191600480820192610120929091908290030181865afa158015614266573d6000803e3d6000fd5b505050506040513d601f19601f8201168201806040525081019061428a9190615869565b604051633390ef1360e11b8152600481018790529091506001600160a01b03831690636721de2690602401600060405180830381600087803b1580156142cf57600080fd5b505af11580156142e3573d6000803e3d6000fd5b50506040516323b872dd60e01b81523360048201526001600160a01b03858116602483015260448201899052871692506323b872dd91506064016020604051808303816000875af115801561433c573d6000803e3d6000fd5b505050506040513d601f19601f820116820180604052508101906143609190615ad8565b50816001600160a01b0316631c783def6040518163ffffffff1660e01b8152600401602060405180830381865afa15801561439f573d6000803e3d6000fd5b505050506040513d601f19601f820116820180604052508101906143c39190615ad8565b151560010361442057816001600160a01b03166307a6bf696040518163ffffffff1660e01b8152600401600060405180830381600087803b15801561440757600080fd5b505af115801561441b573d6000803e3d6000fd5b505050505b336001600160a01b03167fae6907a71a3704b591c11a28209aad9c070726b192f3e7300e88562322955d6882878760006040516144609493929190615bd7565b60405180910390a2505050505050565b336000908152600160208181526040928390205483518085019094526002845261062760f31b9184019190915260ff161515146144c05760405162461bcd60e51b8152600401610c8291906157ee565b50601a55601955601855565b6015546040805180820190915260018152601960f91b6020820152906001600160a01b031633146145105760405162461bcd60e51b8152600401610c8291906157ee565b5060005b82518110156116655781818151811061452f5761452f61583d565b60200260200101516001600085848151811061454d5761454d61583d565b6020908102919091018101516001600160a01b03168252810191909152604001600020805460ff1916911515919091179055600101614514565b336000908152600160208181526040928390205483518085019094526002845261062760f31b9184019190915260ff161515146145d75760405162461bcd60e51b8152600401610c8291906157ee565b50601380546001600160a01b039384166001600160a01b03199182161790915560148054929093169116179055565b6001600160a01b038087166000908152600360209081526040918290205482517f3b24cc2100000000000000000000000000000000000000000000000000000000815292518b949190911692633b24cc219260048083019391928290030181865afa158015614679573d6000803e3d6000fd5b505050506040513d601f19601f8201168201806040525081019061469d9190615911565b10156040518060400160405280600181526020017f3800000000000000000000000000000000000000000000000000000000000000815250906146f35760405162461bcd60e51b8152600401610c8291906157ee565b506040805161012081018252600060208083018290526060830182905260a0830182905260e0830182905233608084018181528486018d815260025486526001600160a01b038d811660c088018190528a1515610100890190815290875260039095529487902054865191519251945197517f3870862b0000000000000000000000000000000000000000000000000000000081526004810192909252602482019290925292841660448401529415156064830152929390911690633870862b90608401600060405180830381600087803b1580156147d157600080fd5b505af11580156147e5573d6000803e3d6000fd5b5050506001600160a01b03808a166000908152600f6020526040812054600554908316935089926148169116614e82565b90506000819050806001600160a01b03166368b86bc28785600a60009054906101000a90046001600160a01b0316600b6000896001600160a01b03166001600160a01b0316815260200190815260200160002060009054906101000a90046001600160a01b0316600c54600d54600e60008c6001600160a01b03166001600160a01b0316815260200190815260200160002060009054906101000a90046001600160a01b03168c601660009054906101000a90046001600160a01b03166040518a63ffffffff1660e01b81526004016148f799989796959493929190615ce1565b600060405180830381600087803b15801561491157600080fd5b505af1158015614925573d6000803e3d6000fd5b50506040517f8ac1b7750000000000000000000000000000000000000000000000000000000081523060048201526001600160a01b0384169250638ac1b7759150602401600060405180830381600087803b15801561498357600080fd5b505af1158015614997573d6000803e3d6000fd5b50506010546011546012546040517f10ac5c3c0000000000000000000000000000000000000000000000000000000081526001600160a01b03938416600482015291831660248301528216604482015290841692506310ac5c3c9150606401600060405180830381600087803b158015614a1057600080fd5b505af1158015614a24573d6000803e3d6000fd5b5050601c54601b54601d546040517f6cb0ab5e0000000000000000000000000000000000000000000000000000000081526004810193909352602483019190915260448201526001600160a01b0384169250636cb0ab5e9150606401600060405180830381600087803b158015614a9a57600080fd5b505af1158015614aae573d6000803e3d6000fd5b5050601854601954601a546040517ff3cf4ada0000000000000000000000000000000000000000000000000000000081526004810193909352602483019190915260448201526001600160a01b038416925063f3cf4ada9150606401600060405180830381600087803b158015614b2457600080fd5b505af1158015614b38573d6000803e3d6000fd5b50505050861515600003614c1f57604051633390ef1360e11b8152600481018c90526001600160a01b03821690636721de2690602401600060405180830381600087803b158015614b8857600080fd5b505af1158015614b9c573d6000803e3d6000fd5b50506040516323b872dd60e01b81523360048201526001600160a01b038581166024830152604482018f90528d1692506323b872dd91506064016020604051808303816000875af1158015614bf5573d6000803e3d6000fd5b505050506040513d601f19601f82011682018060405250810190614c199190615ad8565b50614d04565b604051633390ef1360e11b8152600481018c90526001600160a01b03821690636721de2690602401600060405180830381600087803b158015614c6157600080fd5b505af1158015614c75573d6000803e3d6000fd5b505060165460405163a9059cbb60e01b81526001600160a01b03909116925063a9059cbb9150614cbf9085908f906004016001600160a01b03929092168252602082015260400190565b6020604051808303816000875af1158015614cde573d6000803e3d6000fd5b505050506040513d601f19601f82011682018060405250810190614d029190615ad8565b505b881515600103614d6257806001600160a01b03166307a6bf696040518163ffffffff1660e01b8152600401600060405180830381600087803b158015614d4957600080fd5b505af1158015614d5d573d6000803e3d6000fd5b505050505b8060066000600254815260200190815260200160002060006101000a8154816001600160a01b0302191690836001600160a01b0316021790555060176000336001600160a01b03166001600160a01b031681526020019081526020016000206002549080600181540180825580915050600190039060005260206000200160009091909190915055336001600160a01b03167f26db8b4d10bdab54a143e26d61e39b0eb3f4582570ee270cf254aaaea4f8068c60066000600254815260200190815260200160002060009054906101000a90046001600160a01b0316888e8e8e8d15604051614e5696959493929190615d47565b60405180910390a260028054906000614e6e83615d95565b919050555050505050505050505050505050565b6000763d602d80600a3d3981f3363d3d373d3d3d363d730000008260601b60e81c176000526e5af43d82803e903d91602b57fd5bf38260781b17602052603760096000f090506001600160a01b038116614f08576040517fc2f868f400000000000000000000000000000000000000000000000000000000815260040160405180910390fd5b919050565b828054828255906000526020600020908101928215614f62579160200282015b82811115614f6257825182546001600160a01b0319166001600160a01b03909116178255602090920191600190910190614f2d565b50614f6e929150614f72565b5090565b5b80821115614f6e5760008155600101614f73565b634e487b7160e01b600052604160045260246000fd5b604051610120810167ffffffffffffffff81118282101715614fc157614fc1614f87565b60405290565b604051601f8201601f1916810167ffffffffffffffff81118282101715614ff057614ff0614f87565b604052919050565b600067ffffffffffffffff82111561501257615012614f87565b5060051b60200190565b6001600160a01b038116811461503157600080fd5b50565b600082601f83011261504557600080fd5b8135602061505a61505583614ff8565b614fc7565b8083825260208201915060208460051b87010193508684111561507c57600080fd5b602086015b848110156150a15780356150948161501c565b8352918301918301615081565b509695505050505050565b600082601f8301126150bd57600080fd5b813560206150cd61505583614ff8565b8083825260208201915060208460051b8701019350868411156150ef57600080fd5b602086015b848110156150a15780356151078161501c565b83529183019183016150f4565b60008060006060848603121561512957600080fd5b833567ffffffffffffffff8082111561514157600080fd5b61514d87838801615034565b9450602086013591508082111561516357600080fd5b61516f878388016150ac565b9350604086013591508082111561518557600080fd5b5061519286828701615034565b9150509250925092565b6000806000606084860312156151b157600080fd5b83356151bc8161501c565b925060208401356151cc8161501c565b915060408401356151dc8161501c565b809150509250925092565b6000602082840312156151f957600080fd5b81356152048161501c565b9392505050565b801515811461503157600080fd5b60006020828403121561522b57600080fd5b81356152048161520b565b60006020828403121561524857600080fd5b5035919050565b60008060006060848603121561526457600080fd5b8335925060208401356151cc8161501c565b6000806040838503121561528957600080fd5b823567ffffffffffffffff8111156152a057600080fd5b6152ac85828601615034565b92505060208301356152bd8161501c565b809150509250929050565b600080604083850312156152db57600080fd5b50508035926020909101359150565b8035614f088161501c565b60008060006060848603121561530a57600080fd5b83356153158161501c565b925060208401356153258161520b565b915060408401356151dc8161520b565b6000806040838503121561534857600080fd5b8235915060208301356152bd8161520b565b6000806000806000806000806000806101408b8d03121561537a57600080fd5b8a3567ffffffffffffffff8082111561539257600080fd5b61539e8e838f01615034565b9b5060208d01359150808211156153b457600080fd5b6153c08e838f016150ac565b9a5060408d01359150808211156153d657600080fd5b6153e28e838f01615034565b995060608d01359150808211156153f857600080fd5b6154048e838f01615034565b985060808d013591508082111561541a57600080fd5b6154268e838f016150ac565b975060a08d013591508082111561543c57600080fd5b506154498d828e01615034565b95505061545860c08c016152ea565b935060e08b013592506101008b013591506154766101208c016152ea565b90509295989b9194979a5092959850565b6020808252825182820181905260009190848201906040850190845b818110156154bf578351835292840192918401916001016154a3565b50909695505050505050565b6000806000606084860312156154e057600080fd5b505081359360208301359350604090920135919050565b60008060006060848603121561550c57600080fd5b833592506020840135915060408401356151dc8161501c565b6000806040838503121561553857600080fd5b82356155438161501c565b946020939093013593505050565b6000806000806080858703121561556757600080fd5b84356155728161501c565b93506020850135925060408501356155898161501c565b9396929550929360600135925050565b60008060008060008060c087890312156155b257600080fd5b8635955060208701356155c48161501c565b94506040870135935060608701356155db8161501c565b925060808701356155eb8161520b565b915060a08701356155fb8161520b565b809150509295509295509295565b6000806040838503121561561c57600080fd5b82356156278161501c565b915060208301356152bd8161520b565b600080600080600060a0868803121561564f57600080fd5b8535945060208601356156618161501c565b93506040860135925060608601356156788161520b565b915060808601356156888161520b565b809150509295509295909350565b600080604083850312156156a957600080fd5b82356156b48161501c565b915060208301356152bd8161501c565b600082601f8301126156d557600080fd5b813560206156e561505583614ff8565b8083825260208201915060208460051b87010193508684111561570757600080fd5b602086015b848110156150a157803561571f8161520b565b835291830191830161570c565b6000806040838503121561573f57600080fd5b823567ffffffffffffffff8082111561575757600080fd5b818501915085601f83011261576b57600080fd5b8135602061577b61505583614ff8565b82815260059290921b8401810191818101908984111561579a57600080fd5b948201945b838610156157c15785356157b28161501c565b8252948201949082019061579f565b965050860135925050808211156157d757600080fd5b506157e4858286016156c4565b9150509250929050565b60006020808352835180602085015260005b8181101561581c57858101830151858201604001528201615800565b506000604082860101526040601f19601f8301168501019250505092915050565b634e487b7160e01b600052603260045260246000fd5b8051614f088161520b565b8051614f088161501c565b6000610120828403121561587c57600080fd5b615884614f9d565b8251815261589460208401615853565b6020820152604083015160408201526158af60608401615853565b60608201526158c06080840161585e565b60808201526158d160a08401615853565b60a08201526158e260c0840161585e565b60c08201526158f360e08401615853565b60e0820152610100615906818501615853565b908201529392505050565b60006020828403121561592357600080fd5b5051919050565b60006020828403121561593c57600080fd5b815160ff8116811461520457600080fd5b634e487b7160e01b600052601160045260246000fd5b600181815b8085111561599e5781600019048211156159845761598461594d565b8085161561599157918102915b93841c9390800290615968565b509250929050565b6000826159b557506001611287565b816159c257506000611287565b81600181146159d857600281146159e2576159fe565b6001915050611287565b60ff8411156159f3576159f361594d565b50506001821b611287565b5060208310610133831016604e8410600b8410161715615a21575081810a611287565b615a2b8383615963565b8060001904821115615a3f57615a3f61594d565b029392505050565b600061520460ff8416836159a6565b80820281158282048414176112875761128761594d565b600082615a8a57634e487b7160e01b600052601260045260246000fd5b500490565b60008060008060808587031215615aa557600080fd5b505082516020840151604085015160609095015191969095509092509050565b808201808211156112875761128761594d565b600060208284031215615aea57600080fd5b81516152048161520b565b600060208284031215615b0757600080fd5b81516152048161501c565b80518252602081015115156020830152604081015160408301526060810151151560608301526080810151615b5260808401826001600160a01b03169052565b5060a0810151615b6660a084018215159052565b5060c0810151615b8160c08401826001600160a01b03169052565b5060e0810151615b9560e084018215159052565b506101008181015180151584830152610e3a565b6101608101615bb88286615b12565b836101208301526001600160a01b038316610140830152949350505050565b6101808101615be68287615b12565b846101208301526001600160a01b03841661014083015282151561016083015295945050505050565b60008060408385031215615c2257600080fd5b505080516020909101519092909150565b6101608101615c428286615b12565b6101208201939093526101400152919050565b61012081016112878284615b12565b805169ffffffffffffffffffff81168114614f0857600080fd5b600080600080600060a08688031215615c9657600080fd5b615c9f86615c64565b9450602086015193506040860151925060608601519150615cc260808701615c64565b90509295509295909350565b818103818111156112875761128761594d565b6102208101615cf0828c615b12565b6001600160a01b03998a166101208301529789166101408201529588166101608701526101808601949094526101a085019290925285166101c084015284166101e083015290921661020090920191909152919050565b6001600160a01b0387811682526101c0820190615d676020840189615b12565b86610140840152808616610160840152508315156101808301528215156101a0830152979650505050505050565b600060018201615da757615da761594d565b506001019056fea2646970667358221220da2fe270d51b655ecd7320afe9f73e66543378a68ebc53c6ed42887a05e318df64736f6c63430008180033",
  "linkReferences": {},
  "deployedLinkReferences": {}
}