{
  "_format": "hh-sol-artifact-1",
  "contractName": "CCFL",
  "sourceName": "contracts/CCFL.sol",
  "abi": [
    {
      "inputs": [],
      "name": "ERC1167FailedCreateClone",
      "type": "error"
    },
    {
      "inputs": [],
      "name": "InvalidInitialization",
      "type": "error"
    },
    {
      "inputs": [],
      "name": "NotInitializing",
      "type": "error"
    },
    {
      "anonymous": false,
      "inputs": [
        {
          "indexed": true,
          "internalType": "address",
          "name": "borrower",
          "type": "address"
        },
        {
          "components": [
            {
              "internalType": "uint256",
              "name": "loanId",
              "type": "uint256"
            },
            {
              "internalType": "bool",
              "name": "isPaid",
              "type": "bool"
            },
            {
              "internalType": "uint256",
              "name": "amount",
              "type": "uint256"
            },
            {
              "internalType": "bool",
              "name": "isClosed",
              "type": "bool"
            },
            {
              "internalType": "address",
              "name": "borrower",
              "type": "address"
            },
            {
              "internalType": "bool",
              "name": "isLiquidated",
              "type": "bool"
            },
            {
              "internalType": "contract IERC20Standard",
              "name": "stableCoin",
              "type": "address"
            },
            {
              "internalType": "bool",
              "name": "isFinalty",
              "type": "bool"
            },
            {
              "internalType": "bool",
              "name": "isFiat",
              "type": "bool"
            }
          ],
          "indexed": false,
          "internalType": "struct DataTypes.Loan",
          "name": "loanInfo",
          "type": "tuple"
        },
        {
          "indexed": false,
          "internalType": "uint256",
          "name": "collateralAmount",
          "type": "uint256"
        },
        {
          "indexed": false,
          "internalType": "contract IERC20Standard",
          "name": "collateral",
          "type": "address"
        },
        {
          "indexed": false,
          "internalType": "bool",
          "name": "isETH",
          "type": "bool"
        }
      ],
      "name": "AddCollateral",
      "type": "event"
    },
    {
      "anonymous": false,
      "inputs": [
        {
          "indexed": true,
          "internalType": "address",
          "name": "borrower",
          "type": "address"
        },
        {
          "indexed": false,
          "internalType": "address",
          "name": "loanAddress",
          "type": "address"
        },
        {
          "components": [
            {
              "internalType": "uint256",
              "name": "loanId",
              "type": "uint256"
            },
            {
              "internalType": "bool",
              "name": "isPaid",
              "type": "bool"
            },
            {
              "internalType": "uint256",
              "name": "amount",
              "type": "uint256"
            },
            {
              "internalType": "bool",
              "name": "isClosed",
              "type": "bool"
            },
            {
              "internalType": "address",
              "name": "borrower",
              "type": "address"
            },
            {
              "internalType": "bool",
              "name": "isLiquidated",
              "type": "bool"
            },
            {
              "internalType": "contract IERC20Standard",
              "name": "stableCoin",
              "type": "address"
            },
            {
              "internalType": "bool",
              "name": "isFinalty",
              "type": "bool"
            },
            {
              "internalType": "bool",
              "name": "isFiat",
              "type": "bool"
            }
          ],
          "indexed": false,
          "internalType": "struct DataTypes.Loan",
          "name": "loanInfo",
          "type": "tuple"
        },
        {
          "indexed": false,
          "internalType": "uint256",
          "name": "collateralAmount",
          "type": "uint256"
        },
        {
          "indexed": false,
          "internalType": "contract IERC20Standard",
          "name": "collateral",
          "type": "address"
        },
        {
          "indexed": false,
          "internalType": "bool",
          "name": "isYieldGenerating",
          "type": "bool"
        },
        {
          "indexed": false,
          "internalType": "bool",
          "name": "isETH",
          "type": "bool"
        }
      ],
      "name": "CreateLoan",
      "type": "event"
    },
    {
      "anonymous": false,
      "inputs": [
        {
          "indexed": false,
          "internalType": "uint64",
          "name": "version",
          "type": "uint64"
        }
      ],
      "name": "Initialized",
      "type": "event"
    },
    {
      "anonymous": false,
      "inputs": [
        {
          "indexed": true,
          "internalType": "address",
          "name": "liquidator",
          "type": "address"
        },
        {
          "indexed": true,
          "internalType": "address",
          "name": "borrower",
          "type": "address"
        },
        {
          "components": [
            {
              "internalType": "uint256",
              "name": "loanId",
              "type": "uint256"
            },
            {
              "internalType": "bool",
              "name": "isPaid",
              "type": "bool"
            },
            {
              "internalType": "uint256",
              "name": "amount",
              "type": "uint256"
            },
            {
              "internalType": "bool",
              "name": "isClosed",
              "type": "bool"
            },
            {
              "internalType": "address",
              "name": "borrower",
              "type": "address"
            },
            {
              "internalType": "bool",
              "name": "isLiquidated",
              "type": "bool"
            },
            {
              "internalType": "contract IERC20Standard",
              "name": "stableCoin",
              "type": "address"
            },
            {
              "internalType": "bool",
              "name": "isFinalty",
              "type": "bool"
            },
            {
              "internalType": "bool",
              "name": "isFiat",
              "type": "bool"
            }
          ],
          "indexed": false,
          "internalType": "struct DataTypes.Loan",
          "name": "loanInfo",
          "type": "tuple"
        },
        {
          "indexed": false,
          "internalType": "uint256",
          "name": "collateralAmount",
          "type": "uint256"
        },
        {
          "indexed": false,
          "internalType": "contract IERC20Standard",
          "name": "collateral",
          "type": "address"
        }
      ],
      "name": "Liquidate",
      "type": "event"
    },
    {
      "anonymous": false,
      "inputs": [
        {
          "indexed": true,
          "internalType": "address",
          "name": "borrower",
          "type": "address"
        },
        {
          "components": [
            {
              "internalType": "uint256",
              "name": "loanId",
              "type": "uint256"
            },
            {
              "internalType": "bool",
              "name": "isPaid",
              "type": "bool"
            },
            {
              "internalType": "uint256",
              "name": "amount",
              "type": "uint256"
            },
            {
              "internalType": "bool",
              "name": "isClosed",
              "type": "bool"
            },
            {
              "internalType": "address",
              "name": "borrower",
              "type": "address"
            },
            {
              "internalType": "bool",
              "name": "isLiquidated",
              "type": "bool"
            },
            {
              "internalType": "contract IERC20Standard",
              "name": "stableCoin",
              "type": "address"
            },
            {
              "internalType": "bool",
              "name": "isFinalty",
              "type": "bool"
            },
            {
              "internalType": "bool",
              "name": "isFiat",
              "type": "bool"
            }
          ],
          "indexed": false,
          "internalType": "struct DataTypes.Loan",
          "name": "loanInfo",
          "type": "tuple"
        },
        {
          "indexed": false,
          "internalType": "uint256",
          "name": "repayAmount",
          "type": "uint256"
        },
        {
          "indexed": false,
          "internalType": "uint256",
          "name": "debtRemain",
          "type": "uint256"
        }
      ],
      "name": "RepayLoan",
      "type": "event"
    },
    {
      "anonymous": false,
      "inputs": [
        {
          "indexed": true,
          "internalType": "address",
          "name": "borrower",
          "type": "address"
        },
        {
          "components": [
            {
              "internalType": "uint256",
              "name": "loanId",
              "type": "uint256"
            },
            {
              "internalType": "bool",
              "name": "isPaid",
              "type": "bool"
            },
            {
              "internalType": "uint256",
              "name": "amount",
              "type": "uint256"
            },
            {
              "internalType": "bool",
              "name": "isClosed",
              "type": "bool"
            },
            {
              "internalType": "address",
              "name": "borrower",
              "type": "address"
            },
            {
              "internalType": "bool",
              "name": "isLiquidated",
              "type": "bool"
            },
            {
              "internalType": "contract IERC20Standard",
              "name": "stableCoin",
              "type": "address"
            },
            {
              "internalType": "bool",
              "name": "isFinalty",
              "type": "bool"
            },
            {
              "internalType": "bool",
              "name": "isFiat",
              "type": "bool"
            }
          ],
          "indexed": false,
          "internalType": "struct DataTypes.Loan",
          "name": "loanInfo",
          "type": "tuple"
        },
        {
          "indexed": false,
          "internalType": "uint256",
          "name": "collateralAmount",
          "type": "uint256"
        },
        {
          "indexed": false,
          "internalType": "contract IERC20Standard",
          "name": "collateral",
          "type": "address"
        },
        {
          "indexed": false,
          "internalType": "bool",
          "name": "isETH",
          "type": "bool"
        }
      ],
      "name": "WithdrawAllCollateral",
      "type": "event"
    },
    {
      "anonymous": false,
      "inputs": [
        {
          "indexed": true,
          "internalType": "address",
          "name": "admin",
          "type": "address"
        },
        {
          "components": [
            {
              "internalType": "uint256",
              "name": "loanId",
              "type": "uint256"
            },
            {
              "internalType": "bool",
              "name": "isPaid",
              "type": "bool"
            },
            {
              "internalType": "uint256",
              "name": "amount",
              "type": "uint256"
            },
            {
              "internalType": "bool",
              "name": "isClosed",
              "type": "bool"
            },
            {
              "internalType": "address",
              "name": "borrower",
              "type": "address"
            },
            {
              "internalType": "bool",
              "name": "isLiquidated",
              "type": "bool"
            },
            {
              "internalType": "contract IERC20Standard",
              "name": "stableCoin",
              "type": "address"
            },
            {
              "internalType": "bool",
              "name": "isFinalty",
              "type": "bool"
            },
            {
              "internalType": "bool",
              "name": "isFiat",
              "type": "bool"
            }
          ],
          "indexed": false,
          "internalType": "struct DataTypes.Loan",
          "name": "loanInfo",
          "type": "tuple"
        },
        {
          "indexed": false,
          "internalType": "uint256",
          "name": "collateralAmount",
          "type": "uint256"
        },
        {
          "indexed": false,
          "internalType": "contract IERC20Standard",
          "name": "collateral",
          "type": "address"
        },
        {
          "indexed": false,
          "internalType": "bool",
          "name": "isETH",
          "type": "bool"
        }
      ],
      "name": "WithdrawAllCollateralByAdmin",
      "type": "event"
    },
    {
      "anonymous": false,
      "inputs": [
        {
          "indexed": true,
          "internalType": "address",
          "name": "borrower",
          "type": "address"
        },
        {
          "components": [
            {
              "internalType": "uint256",
              "name": "loanId",
              "type": "uint256"
            },
            {
              "internalType": "bool",
              "name": "isPaid",
              "type": "bool"
            },
            {
              "internalType": "uint256",
              "name": "amount",
              "type": "uint256"
            },
            {
              "internalType": "bool",
              "name": "isClosed",
              "type": "bool"
            },
            {
              "internalType": "address",
              "name": "borrower",
              "type": "address"
            },
            {
              "internalType": "bool",
              "name": "isLiquidated",
              "type": "bool"
            },
            {
              "internalType": "contract IERC20Standard",
              "name": "stableCoin",
              "type": "address"
            },
            {
              "internalType": "bool",
              "name": "isFinalty",
              "type": "bool"
            },
            {
              "internalType": "bool",
              "name": "isFiat",
              "type": "bool"
            }
          ],
          "indexed": false,
          "internalType": "struct DataTypes.Loan",
          "name": "loanInfo",
          "type": "tuple"
        }
      ],
      "name": "WithdrawLoan",
      "type": "event"
    },
    {
      "inputs": [
        {
          "internalType": "contract IERC20Standard",
          "name": "",
          "type": "address"
        }
      ],
      "name": "aTokens",
      "outputs": [
        {
          "internalType": "contract IERC20Standard",
          "name": "",
          "type": "address"
        }
      ],
      "stateMutability": "view",
      "type": "function"
    },
    {
      "inputs": [],
      "name": "aaveAddressProvider",
      "outputs": [
        {
          "internalType": "contract IPoolAddressesProvider",
          "name": "",
          "type": "address"
        }
      ],
      "stateMutability": "view",
      "type": "function"
    },
    {
      "inputs": [
        {
          "internalType": "uint256",
          "name": "_loanId",
          "type": "uint256"
        },
        {
          "internalType": "uint256",
          "name": "_amountCollateral",
          "type": "uint256"
        },
        {
          "internalType": "contract IERC20Standard",
          "name": "_collateral",
          "type": "address"
        }
      ],
      "name": "addCollateral",
      "outputs": [],
      "stateMutability": "nonpayable",
      "type": "function"
    },
    {
      "inputs": [
        {
          "internalType": "uint256",
          "name": "_loanId",
          "type": "uint256"
        },
        {
          "internalType": "uint256",
          "name": "_amountETH",
          "type": "uint256"
        }
      ],
      "name": "addCollateralByETH",
      "outputs": [],
      "stateMutability": "payable",
      "type": "function"
    },
    {
      "inputs": [
        {
          "internalType": "uint256",
          "name": "_loanId",
          "type": "uint256"
        },
        {
          "internalType": "uint256",
          "name": "_amountCollateral",
          "type": "uint256"
        }
      ],
      "name": "addCollateralHealthFactor",
      "outputs": [
        {
          "internalType": "uint256",
          "name": "",
          "type": "uint256"
        }
      ],
      "stateMutability": "view",
      "type": "function"
    },
    {
      "inputs": [
        {
          "internalType": "contract IERC20Standard",
          "name": "",
          "type": "address"
        }
      ],
      "name": "ccflActiveCollaterals",
      "outputs": [
        {
          "internalType": "bool",
          "name": "",
          "type": "bool"
        }
      ],
      "stateMutability": "view",
      "type": "function"
    },
    {
      "inputs": [
        {
          "internalType": "contract IERC20Standard",
          "name": "",
          "type": "address"
        }
      ],
      "name": "ccflActivePoolStableCoins",
      "outputs": [
        {
          "internalType": "bool",
          "name": "",
          "type": "bool"
        }
      ],
      "stateMutability": "view",
      "type": "function"
    },
    {
      "inputs": [],
      "name": "ccflLoan",
      "outputs": [
        {
          "internalType": "contract ICCFLLoan",
          "name": "",
          "type": "address"
        }
      ],
      "stateMutability": "view",
      "type": "function"
    },
    {
      "inputs": [
        {
          "internalType": "uint256",
          "name": "",
          "type": "uint256"
        }
      ],
      "name": "ccflPoolStableCoins",
      "outputs": [
        {
          "internalType": "contract IERC20Standard",
          "name": "",
          "type": "address"
        }
      ],
      "stateMutability": "view",
      "type": "function"
    },
    {
      "inputs": [
        {
          "internalType": "contract IERC20Standard",
          "name": "",
          "type": "address"
        }
      ],
      "name": "ccflPools",
      "outputs": [
        {
          "internalType": "contract ICCFLPool",
          "name": "",
          "type": "address"
        }
      ],
      "stateMutability": "view",
      "type": "function"
    },
    {
      "inputs": [
        {
          "internalType": "contract IERC20Standard[]",
          "name": "array",
          "type": "address[]"
        },
        {
          "internalType": "contract IERC20Standard",
          "name": "el",
          "type": "address"
        }
      ],
      "name": "checkExistElement",
      "outputs": [
        {
          "internalType": "bool",
          "name": "",
          "type": "bool"
        }
      ],
      "stateMutability": "pure",
      "type": "function"
    },
    {
      "inputs": [
        {
          "internalType": "uint256",
          "name": "_amount",
          "type": "uint256"
        },
        {
          "internalType": "contract IERC20Standard",
          "name": "_stableCoin",
          "type": "address"
        },
        {
          "internalType": "contract IERC20Standard",
          "name": "_collateral",
          "type": "address"
        }
      ],
      "name": "checkMinimalCollateralForLoan",
      "outputs": [
        {
          "internalType": "uint256",
          "name": "",
          "type": "uint256"
        }
      ],
      "stateMutability": "view",
      "type": "function"
    },
    {
      "inputs": [
        {
          "internalType": "uint256",
          "name": "",
          "type": "uint256"
        }
      ],
      "name": "collateralTokens",
      "outputs": [
        {
          "internalType": "contract IERC20Standard",
          "name": "",
          "type": "address"
        }
      ],
      "stateMutability": "view",
      "type": "function"
    },
    {
      "inputs": [
        {
          "internalType": "address",
          "name": "",
          "type": "address"
        },
        {
          "internalType": "contract IERC20Standard",
          "name": "",
          "type": "address"
        }
      ],
      "name": "collaterals",
      "outputs": [
        {
          "internalType": "uint256",
          "name": "",
          "type": "uint256"
        }
      ],
      "stateMutability": "view",
      "type": "function"
    },
    {
      "inputs": [
        {
          "internalType": "uint256",
          "name": "_amount",
          "type": "uint256"
        },
        {
          "internalType": "contract IERC20Standard",
          "name": "_stableCoin",
          "type": "address"
        },
        {
          "internalType": "uint256",
          "name": "_amountCollateral",
          "type": "uint256"
        },
        {
          "internalType": "contract IERC20Standard",
          "name": "_collateral",
          "type": "address"
        },
        {
          "internalType": "bool",
          "name": "_isYieldGenerating",
          "type": "bool"
        },
        {
          "internalType": "bool",
          "name": "_isFiat",
          "type": "bool"
        }
      ],
      "name": "createLoan",
      "outputs": [],
      "stateMutability": "nonpayable",
      "type": "function"
    },
    {
      "inputs": [
        {
          "internalType": "uint256",
          "name": "_amount",
          "type": "uint256"
        },
        {
          "internalType": "contract IERC20Standard",
          "name": "_stableCoin",
          "type": "address"
        },
        {
          "internalType": "uint256",
          "name": "_amountETH",
          "type": "uint256"
        },
        {
          "internalType": "bool",
          "name": "_isYieldGenerating",
          "type": "bool"
        },
        {
          "internalType": "bool",
          "name": "_isFiat",
          "type": "bool"
        }
      ],
      "name": "createLoanByETH",
      "outputs": [],
      "stateMutability": "payable",
      "type": "function"
    },
    {
      "inputs": [],
      "name": "earnBorrower",
      "outputs": [
        {
          "internalType": "uint256",
          "name": "",
          "type": "uint256"
        }
      ],
      "stateMutability": "view",
      "type": "function"
    },
    {
      "inputs": [],
      "name": "earnLender",
      "outputs": [
        {
          "internalType": "uint256",
          "name": "",
          "type": "uint256"
        }
      ],
      "stateMutability": "view",
      "type": "function"
    },
    {
      "inputs": [],
      "name": "earnPlatform",
      "outputs": [
        {
          "internalType": "uint256",
          "name": "",
          "type": "uint256"
        }
      ],
      "stateMutability": "view",
      "type": "function"
    },
    {
      "inputs": [
        {
          "internalType": "contract IERC20Standard",
          "name": "_stableCoin",
          "type": "address"
        },
        {
          "internalType": "uint256",
          "name": "_amount",
          "type": "uint256"
        },
        {
          "internalType": "contract IERC20Standard",
          "name": "_collateralToken",
          "type": "address"
        },
        {
          "internalType": "uint256",
          "name": "_amountCollateral",
          "type": "uint256"
        }
      ],
      "name": "estimateHealthFactor",
      "outputs": [
        {
          "internalType": "uint256",
          "name": "",
          "type": "uint256"
        }
      ],
      "stateMutability": "view",
      "type": "function"
    },
    {
      "inputs": [],
      "name": "factory",
      "outputs": [
        {
          "internalType": "contract IUniswapV3Factory",
          "name": "",
          "type": "address"
        }
      ],
      "stateMutability": "view",
      "type": "function"
    },
    {
      "inputs": [
        {
          "internalType": "uint256",
          "name": "_loanId",
          "type": "uint256"
        }
      ],
      "name": "getHealthFactor",
      "outputs": [
        {
          "internalType": "uint256",
          "name": "",
          "type": "uint256"
        }
      ],
      "stateMutability": "view",
      "type": "function"
    },
    {
      "inputs": [
        {
          "internalType": "contract IERC20Standard",
          "name": "_stableCoin",
          "type": "address"
        },
        {
          "internalType": "bool",
          "name": "isPool",
          "type": "bool"
        }
      ],
      "name": "getLatestPrice",
      "outputs": [
        {
          "internalType": "uint256",
          "name": "",
          "type": "uint256"
        }
      ],
      "stateMutability": "view",
      "type": "function"
    },
    {
      "inputs": [
        {
          "internalType": "uint256",
          "name": "_loanId",
          "type": "uint256"
        }
      ],
      "name": "getLoanAddress",
      "outputs": [
        {
          "internalType": "address",
          "name": "",
          "type": "address"
        }
      ],
      "stateMutability": "view",
      "type": "function"
    },
    {
      "inputs": [
        {
          "internalType": "address",
          "name": "borrower",
          "type": "address"
        }
      ],
      "name": "getLoanIds",
      "outputs": [
        {
          "internalType": "uint256[]",
          "name": "",
          "type": "uint256[]"
        }
      ],
      "stateMutability": "view",
      "type": "function"
    },
    {
      "inputs": [
        {
          "internalType": "contract IERC20Standard[]",
          "name": "_ccflPoolStableCoin",
          "type": "address[]"
        },
        {
          "internalType": "contract AggregatorV3Interface[]",
          "name": "_poolAggregators",
          "type": "address[]"
        },
        {
          "internalType": "contract ICCFLPool[]",
          "name": "_ccflPools",
          "type": "address[]"
        },
        {
          "internalType": "contract IERC20Standard[]",
          "name": "_collateralTokens",
          "type": "address[]"
        },
        {
          "internalType": "contract AggregatorV3Interface[]",
          "name": "_collateralAggregators",
          "type": "address[]"
        },
        {
          "internalType": "contract IERC20Standard[]",
          "name": "_aTokens",
          "type": "address[]"
        },
        {
          "internalType": "contract IPoolAddressesProvider",
          "name": "_aaveAddressProvider",
          "type": "address"
        },
        {
          "internalType": "uint256",
          "name": "_maxLTV",
          "type": "uint256"
        },
        {
          "internalType": "uint256",
          "name": "_liquidationThreshold",
          "type": "uint256"
        },
        {
          "internalType": "contract ICCFLLoan",
          "name": "_ccflLoan",
          "type": "address"
        }
      ],
      "name": "initialize",
      "outputs": [],
      "stateMutability": "nonpayable",
      "type": "function"
    },
    {
      "inputs": [],
      "name": "isPaused",
      "outputs": [
        {
          "internalType": "bool",
          "name": "",
          "type": "bool"
        }
      ],
      "stateMutability": "view",
      "type": "function"
    },
    {
      "inputs": [
        {
          "internalType": "uint256",
          "name": "_loanId",
          "type": "uint256"
        }
      ],
      "name": "liquidate",
      "outputs": [],
      "stateMutability": "nonpayable",
      "type": "function"
    },
    {
      "inputs": [],
      "name": "liquidationThreshold",
      "outputs": [
        {
          "internalType": "uint256",
          "name": "",
          "type": "uint256"
        }
      ],
      "stateMutability": "view",
      "type": "function"
    },
    {
      "inputs": [],
      "name": "liquidator",
      "outputs": [
        {
          "internalType": "address",
          "name": "",
          "type": "address"
        }
      ],
      "stateMutability": "view",
      "type": "function"
    },
    {
      "inputs": [],
      "name": "loandIds",
      "outputs": [
        {
          "internalType": "uint256",
          "name": "",
          "type": "uint256"
        }
      ],
      "stateMutability": "view",
      "type": "function"
    },
    {
      "inputs": [],
      "name": "maxLTV",
      "outputs": [
        {
          "internalType": "uint256",
          "name": "",
          "type": "uint256"
        }
      ],
      "stateMutability": "view",
      "type": "function"
    },
    {
      "inputs": [
        {
          "internalType": "address",
          "name": "",
          "type": "address"
        }
      ],
      "name": "operators",
      "outputs": [
        {
          "internalType": "bool",
          "name": "",
          "type": "bool"
        }
      ],
      "stateMutability": "view",
      "type": "function"
    },
    {
      "inputs": [],
      "name": "owner",
      "outputs": [
        {
          "internalType": "address",
          "name": "",
          "type": "address"
        }
      ],
      "stateMutability": "view",
      "type": "function"
    },
    {
      "inputs": [],
      "name": "penaltyLender",
      "outputs": [
        {
          "internalType": "uint256",
          "name": "",
          "type": "uint256"
        }
      ],
      "stateMutability": "view",
      "type": "function"
    },
    {
      "inputs": [],
      "name": "penaltyLiquidator",
      "outputs": [
        {
          "internalType": "uint256",
          "name": "",
          "type": "uint256"
        }
      ],
      "stateMutability": "view",
      "type": "function"
    },
    {
      "inputs": [],
      "name": "penaltyPlatform",
      "outputs": [
        {
          "internalType": "uint256",
          "name": "",
          "type": "uint256"
        }
      ],
      "stateMutability": "view",
      "type": "function"
    },
    {
      "inputs": [],
      "name": "platform",
      "outputs": [
        {
          "internalType": "address",
          "name": "",
          "type": "address"
        }
      ],
      "stateMutability": "view",
      "type": "function"
    },
    {
      "inputs": [
        {
          "internalType": "contract IERC20Standard",
          "name": "",
          "type": "address"
        }
      ],
      "name": "priceFeeds",
      "outputs": [
        {
          "internalType": "contract AggregatorV3Interface",
          "name": "",
          "type": "address"
        }
      ],
      "stateMutability": "view",
      "type": "function"
    },
    {
      "inputs": [
        {
          "internalType": "contract IERC20Standard",
          "name": "",
          "type": "address"
        }
      ],
      "name": "pricePoolFeeds",
      "outputs": [
        {
          "internalType": "contract AggregatorV3Interface",
          "name": "",
          "type": "address"
        }
      ],
      "stateMutability": "view",
      "type": "function"
    },
    {
      "inputs": [],
      "name": "quoter",
      "outputs": [
        {
          "internalType": "contract IQuoterV2",
          "name": "",
          "type": "address"
        }
      ],
      "stateMutability": "view",
      "type": "function"
    },
    {
      "inputs": [
        {
          "internalType": "uint256",
          "name": "_loanId",
          "type": "uint256"
        },
        {
          "internalType": "uint256",
          "name": "_amount",
          "type": "uint256"
        }
      ],
      "name": "repayHealthFactor",
      "outputs": [
        {
          "internalType": "uint256",
          "name": "",
          "type": "uint256"
        }
      ],
      "stateMutability": "view",
      "type": "function"
    },
    {
      "inputs": [
        {
          "internalType": "uint256",
          "name": "_loanId",
          "type": "uint256"
        },
        {
          "internalType": "uint256",
          "name": "_amount",
          "type": "uint256"
        },
        {
          "internalType": "contract IERC20Standard",
          "name": "_stableCoin",
          "type": "address"
        }
      ],
      "name": "repayLoan",
      "outputs": [],
      "stateMutability": "nonpayable",
      "type": "function"
    },
    {
      "inputs": [
        {
          "internalType": "contract IPoolAddressesProvider",
          "name": "_aaveAddressProvider",
          "type": "address"
        }
      ],
      "name": "setAaveProvider",
      "outputs": [],
      "stateMutability": "nonpayable",
      "type": "function"
    },
    {
      "inputs": [
        {
          "internalType": "contract IERC20Standard",
          "name": "_token",
          "type": "address"
        },
        {
          "internalType": "bool",
          "name": "_isActived",
          "type": "bool"
        },
        {
          "internalType": "bool",
          "name": "_isPoolToken",
          "type": "bool"
        }
      ],
      "name": "setActiveToken",
      "outputs": [],
      "stateMutability": "nonpayable",
      "type": "function"
    },
    {
      "inputs": [
        {
          "internalType": "contract ICCFLLoan",
          "name": "_loan",
          "type": "address"
        }
      ],
      "name": "setCCFLLoan",
      "outputs": [],
      "stateMutability": "nonpayable",
      "type": "function"
    },
    {
      "inputs": [
        {
          "internalType": "contract IERC20Standard[]",
          "name": "_collateralTokens",
          "type": "address[]"
        },
        {
          "internalType": "contract AggregatorV3Interface[]",
          "name": "_collateralAggregators",
          "type": "address[]"
        },
        {
          "internalType": "contract IERC20Standard[]",
          "name": "_aTokens",
          "type": "address[]"
        }
      ],
      "name": "setCollaterals",
      "outputs": [],
      "stateMutability": "nonpayable",
      "type": "function"
    },
    {
      "inputs": [
        {
          "internalType": "uint256",
          "name": "_borrower",
          "type": "uint256"
        },
        {
          "internalType": "uint256",
          "name": "_platform",
          "type": "uint256"
        },
        {
          "internalType": "uint256",
          "name": "_lender",
          "type": "uint256"
        }
      ],
      "name": "setEarnShare",
      "outputs": [],
      "stateMutability": "nonpayable",
      "type": "function"
    },
    {
      "inputs": [
        {
          "internalType": "bool",
          "name": "_isActived",
          "type": "bool"
        }
      ],
      "name": "setEnableETHNative",
      "outputs": [],
      "stateMutability": "nonpayable",
      "type": "function"
    },
    {
      "inputs": [
        {
          "internalType": "address[]",
          "name": "_addresses",
          "type": "address[]"
        },
        {
          "internalType": "bool[]",
          "name": "_isActives",
          "type": "bool[]"
        }
      ],
      "name": "setOperators",
      "outputs": [],
      "stateMutability": "nonpayable",
      "type": "function"
    },
    {
      "inputs": [
        {
          "internalType": "bool",
          "name": "_paused",
          "type": "bool"
        }
      ],
      "name": "setPaused",
      "outputs": [],
      "stateMutability": "nonpayable",
      "type": "function"
    },
    {
      "inputs": [
        {
          "internalType": "uint256",
          "name": "_platform",
          "type": "uint256"
        },
        {
          "internalType": "uint256",
          "name": "_liquidator",
          "type": "uint256"
        },
        {
          "internalType": "uint256",
          "name": "_lender",
          "type": "uint256"
        }
      ],
      "name": "setPenalty",
      "outputs": [],
      "stateMutability": "nonpayable",
      "type": "function"
    },
    {
      "inputs": [
        {
          "internalType": "address",
          "name": "_liquidator",
          "type": "address"
        },
        {
          "internalType": "address",
          "name": "_platform",
          "type": "address"
        }
      ],
      "name": "setPlatformAddress",
      "outputs": [],
      "stateMutability": "nonpayable",
      "type": "function"
    },
    {
      "inputs": [
        {
          "internalType": "contract IERC20Standard[]",
          "name": "_ccflPoolStableCoin",
          "type": "address[]"
        },
        {
          "internalType": "contract AggregatorV3Interface[]",
          "name": "_poolAggregators",
          "type": "address[]"
        },
        {
          "internalType": "contract ICCFLPool[]",
          "name": "_ccflPools",
          "type": "address[]"
        }
      ],
      "name": "setPools",
      "outputs": [],
      "stateMutability": "nonpayable",
      "type": "function"
    },
    {
      "inputs": [
        {
          "internalType": "contract IV3SwapRouter",
          "name": "_swapRouter",
          "type": "address"
        },
        {
          "internalType": "contract IUniswapV3Factory",
          "name": "_factory",
          "type": "address"
        },
        {
          "internalType": "contract IQuoterV2",
          "name": "_quoter",
          "type": "address"
        }
      ],
      "name": "setSwapRouter",
      "outputs": [],
      "stateMutability": "nonpayable",
      "type": "function"
    },
    {
      "inputs": [
        {
          "internalType": "uint256",
          "name": "_maxLTV",
          "type": "uint256"
        },
        {
          "internalType": "uint256",
          "name": "_liquidationThreshold",
          "type": "uint256"
        }
      ],
      "name": "setThreshold",
      "outputs": [],
      "stateMutability": "nonpayable",
      "type": "function"
    },
    {
      "inputs": [
        {
          "internalType": "contract IWETH",
          "name": "_iWETH",
          "type": "address"
        }
      ],
      "name": "setWETH",
      "outputs": [],
      "stateMutability": "nonpayable",
      "type": "function"
    },
    {
      "inputs": [
        {
          "internalType": "address",
          "name": "",
          "type": "address"
        },
        {
          "internalType": "uint256",
          "name": "",
          "type": "uint256"
        }
      ],
      "name": "userLoans",
      "outputs": [
        {
          "internalType": "uint256",
          "name": "",
          "type": "uint256"
        }
      ],
      "stateMutability": "view",
      "type": "function"
    },
    {
      "inputs": [],
      "name": "wETH",
      "outputs": [
        {
          "internalType": "contract IWETH",
          "name": "",
          "type": "address"
        }
      ],
      "stateMutability": "view",
      "type": "function"
    },
    {
      "inputs": [
        {
          "internalType": "uint256",
          "name": "_loanId",
          "type": "uint256"
        },
        {
          "internalType": "bool",
          "name": "isETH",
          "type": "bool"
        }
      ],
      "name": "withdrawAllCollateral",
      "outputs": [],
      "stateMutability": "nonpayable",
      "type": "function"
    },
    {
      "inputs": [
        {
          "internalType": "uint256",
          "name": "_loanId",
          "type": "uint256"
        },
        {
          "internalType": "bool",
          "name": "isETH",
          "type": "bool"
        }
      ],
      "name": "withdrawAllCollateralByAdmin",
      "outputs": [],
      "stateMutability": "nonpayable",
      "type": "function"
    },
    {
      "inputs": [
        {
          "internalType": "contract IERC20Standard",
          "name": "_stableCoin",
          "type": "address"
        },
        {
          "internalType": "uint256",
          "name": "_loanId",
          "type": "uint256"
        }
      ],
      "name": "withdrawFiatLoan",
      "outputs": [],
      "stateMutability": "nonpayable",
      "type": "function"
    },
    {
      "inputs": [
        {
          "internalType": "contract IERC20Standard",
          "name": "_stableCoin",
          "type": "address"
        },
        {
          "internalType": "uint256",
          "name": "_loanId",
          "type": "uint256"
        }
      ],
      "name": "withdrawLoan",
      "outputs": [],
      "stateMutability": "nonpayable",
      "type": "function"
    },
    {
      "stateMutability": "payable",
      "type": "receive"
    }
  ],
  "bytecode": "0x608060405234801561001057600080fd5b50615de380620000216000396000f3fe6080604052600436106103bc5760003560e01c80638ba2444e116101f2578063c6bbd5a71161010d578063ef3c5d25116100a0578063f43050351161006f578063f430503514610ba6578063f6597bbb14610bc6578063f8f126ff14610bdc578063fdb2b32c14610bfc57600080fd5b8063ef3c5d2514610b30578063f242862114610b50578063f384bd0514610b70578063f3cf4ada14610b8657600080fd5b8063e43b03d6116100dc578063e43b03d614610a8b578063e51e119e14610aab578063e787ea2c14610ae0578063ec7be39d14610b1057600080fd5b8063c6bbd5a714610a18578063cdaabe4114610a38578063cff212e614610a58578063d8bad5bd14610a6b57600080fd5b8063b187bd2611610185578063b9c3620911610154578063b9c3620914610982578063c0d01546146109a2578063c45a0155146109d8578063c694fdc1146109f857600080fd5b8063b187bd26146108fe578063b3bffeaa1461091f578063b5dbde5f1461093f578063b92dd9251461095257600080fd5b8063a58bab62116101c1578063a58bab6214610892578063a8700c3c146108a8578063a95d7132146108c8578063af6a85c4146108de57600080fd5b80638ba2444e146107e65780638da5cb5b14610806578063989397d4146108265780639dcb511a1461085c57600080fd5b80634031234c116102e2578063611f347d116102755780636eb0fdd0116102445780636eb0fdd0146107705780636f43d3dd146107905780638858ddc5146107b05780638ba02e1c146107d057600080fd5b8063611f347d146106e357806364b52097146107035780636b64c885146107235780636cb0ab5e1461075057600080fd5b80634bde38c8116102b15780634bde38c8146106635780635b769f3c146106835780635c8edac4146106a35780635f499ebc146106c357600080fd5b80634031234c146105ed5780634046ebae14610603578063415f124014610623578063474843ea1461064357600080fd5b80631bb514cf1161035a57806338ef67171161032957806338ef6717146105615780633a0720e6146105815780633a2ad9ae146105975780633e108ad9146105b757600080fd5b80631bb514cf146104eb5780631d9eb5d91461050b57806325e9d2fa1461052b57806332df398e1461054b57600080fd5b806313e7c9d81161039657806313e7c9d81461043357806316c38b3c14610473578063172c48c71461049357806317845c69146104cb57600080fd5b80630769594d146103c8578063101b9d31146103ea57806310ac5c3c1461041357600080fd5b366103c357005b600080fd5b3480156103d457600080fd5b506103e86103e3366004615113565b610c32565b005b3480156103f657600080fd5b50610400601a5481565b6040519081526020015b60405180910390f35b34801561041f57600080fd5b506103e861042e36600461519b565b610e40565b34801561043f57600080fd5b5061046361044e3660046151e6565b60016020526000908152604090205460ff1681565b604051901515815260200161040a565b34801561047f57600080fd5b506103e861048e366004615218565b610ed0565b34801561049f57600080fd5b506104b36104ae366004615235565b610f4e565b6040516001600160a01b03909116815260200161040a565b3480156104d757600080fd5b506104006104e6366004615235565b610f78565b3480156104f757600080fd5b5061040061050636600461524e565b6110f6565b34801561051757600080fd5b50610463610526366004615275565b611231565b34801561053757600080fd5b506104006105463660046152c7565b61128c565b34801561055757600080fd5b50610400601b5481565b34801561056d57600080fd5b506103e861057c3660046151e6565b61140c565b34801561058d57600080fd5b50610400601d5481565b3480156105a357600080fd5b506103e86105b23660046152f4565b61147f565b3480156105c357600080fd5b506104b36105d23660046151e6565b600b602052600090815260409020546001600160a01b031681565b3480156105f957600080fd5b50610400600d5481565b34801561060f57600080fd5b506013546104b3906001600160a01b031681565b34801561062f57600080fd5b506103e861063e366004615235565b611669565b34801561064f57600080fd5b506103e861065e3660046151e6565b611de0565b34801561066f57600080fd5b506014546104b3906001600160a01b031681565b34801561068f57600080fd5b506103e861069e3660046151e6565b611e53565b3480156106af57600080fd5b506103e86106be366004615334565b611ec6565b3480156106cf57600080fd5b506103e86106de366004615218565b612171565b3480156106ef57600080fd5b506103e86106fe366004615359565b6121d5565b34801561070f57600080fd5b506103e861071e366004615113565b6125b7565b34801561072f57600080fd5b5061074361073e3660046151e6565b6127b4565b60405161040a9190615486565b34801561075c57600080fd5b506103e861076b3660046154ca565b612820565b34801561077c57600080fd5b506103e861078b3660046154f6565b61287f565b34801561079c57600080fd5b506103e86107ab366004615524565b612f2b565b3480156107bc57600080fd5b506104006107cb366004615550565b61319f565b3480156107dc57600080fd5b5061040060025481565b3480156107f257600080fd5b506005546104b3906001600160a01b031681565b34801561081257600080fd5b506015546104b3906001600160a01b031681565b34801561083257600080fd5b506104b36108413660046151e6565b600f602052600090815260409020546001600160a01b031681565b34801561086857600080fd5b506104b36108773660046151e6565b600e602052600090815260409020546001600160a01b031681565b34801561089e57600080fd5b5061040060195481565b3480156108b457600080fd5b506103e86108c3366004615598565b613309565b3480156108d457600080fd5b50610400601c5481565b3480156108ea57600080fd5b506103e86108f9366004615334565b613593565b34801561090a57600080fd5b5060165461046390600160a01b900460ff1681565b34801561092b57600080fd5b5061040061093a366004615608565b613651565b6103e861094d366004615636565b613752565b34801561095e57600080fd5b5061046361096d3660046151e6565b60076020526000908152604090205460ff1681565b34801561098e57600080fd5b506103e861099d3660046152c7565b613a91565b3480156109ae57600080fd5b506104b36109bd3660046151e6565b6003602052600090815260409020546001600160a01b031681565b3480156109e457600080fd5b506011546104b3906001600160a01b031681565b348015610a0457600080fd5b506104b3610a13366004615235565b613aed565b348015610a2457600080fd5b506012546104b3906001600160a01b031681565b348015610a4457600080fd5b50600a546104b3906001600160a01b031681565b6103e8610a663660046152c7565b613afd565b348015610a7757600080fd5b50610400610a86366004615524565b613e7f565b348015610a9757600080fd5b50610400610aa63660046152c7565b613eb0565b348015610ab757600080fd5b50610400610ac6366004615695565b600060208181529281526040808220909352908152205481565b348015610aec57600080fd5b50610463610afb3660046151e6565b60096020526000908152604090205460ff1681565b348015610b1c57600080fd5b506103e8610b2b366004615524565b614025565b348015610b3c57600080fd5b506103e8610b4b3660046154f6565b614167565b348015610b5c57600080fd5b506016546104b3906001600160a01b031681565b348015610b7c57600080fd5b50610400600c5481565b348015610b9257600080fd5b506103e8610ba13660046154ca565b61446f565b348015610bb257600080fd5b506103e8610bc136600461572b565b6144cb565b348015610bd257600080fd5b5061040060185481565b348015610be857600080fd5b506103e8610bf7366004615695565b614586565b348015610c0857600080fd5b506104b3610c17366004615235565b6000908152600660205260409020546001600160a01b031690565b336000908152600160208181526040928390205483518085019094526002845261062760f31b9184019190915260ff16151514610c8b5760405162461bcd60e51b8152600401610c8291906157ed565b60405180910390fd5b5060005b8351811015610e3a576000848281518110610cac57610cac61583c565b60200260200101519050610d1a6004805480602002602001604051908101604052809291908181526020018280548015610d0f57602002820191906000526020600020905b81546001600160a01b03168152600190910190602001808311610cf1575b505050505082611231565b1515600003610d6f57600480546001810182556000919091527f8a35acfbc15ff81a39ae7d344fd709f28e8600b4aa8c65c6b64bfe7fe36bd19b0180546001600160a01b0319166001600160a01b0383161790555b828281518110610d8157610d8161583c565b602002602001015160036000836001600160a01b03166001600160a01b0316815260200190815260200160002060006101000a8154816001600160a01b0302191690836001600160a01b03160217905550838281518110610de457610de461583c565b6020908102919091018101516001600160a01b039283166000908152600f8352604080822080546001600160a01b0319169590931694909417909155600790915220805460ff1916600190811790915501610c8f565b50505050565b336000908152600160208181526040928390205483518085019094526002845261062760f31b9184019190915260ff16151514610e905760405162461bcd60e51b8152600401610c8291906157ed565b50601080546001600160a01b039485166001600160a01b031991821617909155601180549385169382169390931790925560128054919093169116179055565b6015546040805180820190915260018152601960f91b6020820152906001600160a01b03163314610f145760405162461bcd60e51b8152600401610c8291906157ed565b5060168054911515600160a01b027fffffffffffffffffffffff00ffffffffffffffffffffffffffffffffffffffff909216919091179055565b60088181548110610f5e57600080fd5b6000918252602090912001546001600160a01b0316905081565b600081815260066020526040808220548151635d3e2fa160e01b815291516001600160a01b039091169183918391635d3e2fa1916004808301926101209291908290030181865afa158015610fd1573d6000803e3d6000fd5b505050506040513d601f19601f82011682018060405250810190610ff59190615868565b60c08101516001600160a01b0390811660009081526003602052604080822054905163a52f38d160e01b815260048101899052939450909291169063a52f38d190602401602060405180830381865afa158015611056573d6000803e3d6000fd5b505050506040513d601f19601f8201168201806040525081019061107a9190615910565b604051632696439560e11b815260048101829052600060248201529091506001600160a01b03841690634d2c872a90604401602060405180830381865afa1580156110c9573d6000803e3d6000fd5b505050506040513d601f19601f820116820180604052508101906110ed9190615910565b95945050505050565b6000611103826000613651565b600c54846001600160a01b031663313ce5676040518163ffffffff1660e01b8152600401602060405180830381865afa158015611144573d6000803e3d6000fd5b505050506040513d601f19601f820116820180604052508101906111689190615929565b61117390600a615a46565b61117e866001613651565b856001600160a01b031663313ce5676040518163ffffffff1660e01b8152600401602060405180830381865afa1580156111bc573d6000803e3d6000fd5b505050506040513d601f19601f820116820180604052508101906111e09190615929565b6111eb90600a615a46565b6111f59089615a55565b61120190612710615a55565b61120b9190615a55565b6112159190615a6c565b61121f9190615a6c565b6112299190615a6c565b949350505050565b600080805b845181101561128257836001600160a01b031685828151811061125b5761125b61583c565b60200260200101516001600160a01b03160361127a5760019150611282565b600101611236565b5090505b92915050565b600082815260066020526040808220548151635d3e2fa160e01b815291516001600160a01b039091169183918391635d3e2fa1916004808301926101209291908290030181865afa1580156112e5573d6000803e3d6000fd5b505050506040513d601f19601f820116820180604052508101906113099190615868565b60c08101516001600160a01b0390811660009081526003602052604080822054905163a52f38d160e01b8152600481018a9052939450909291169063a52f38d190602401602060405180830381865afa15801561136a573d6000803e3d6000fd5b505050506040513d601f19601f8201168201806040525081019061138e9190615910565b604051632696439560e11b815260048101829052602481018790529091506001600160a01b03841690634d2c872a906044015b602060405180830381865afa1580156113de573d6000803e3d6000fd5b505050506040513d601f19601f820116820180604052508101906114029190615910565b9695505050505050565b336000908152600160208181526040928390205483518085019094526002845261062760f31b9184019190915260ff1615151461145c5760405162461bcd60e51b8152600401610c8291906157ed565b50600a80546001600160a01b0319166001600160a01b0392909216919091179055565b336000908152600160208181526040928390205483518085019094526002845261062760f31b9184019190915260ff161515146114cf5760405162461bcd60e51b8152600401610c8291906157ed565b5080156115a15761153a600480548060200260200160405190810160405280929190818152602001828054801561152f57602002820191906000526020600020905b81546001600160a01b03168152600190910190602001808311611511575b505050505084611231565b604080518082019091526001808252603560f81b602083015290911515146115755760405162461bcd60e51b8152600401610c8291906157ed565b506001600160a01b0383166000908152600960205260409020805483151560ff19909116179055505050565b611603600880548060200260200160405190810160405280929190818152602001828054801561152f576020028201919060005260206000209081546001600160a01b0316815260019091019060200180831161151157505050505084611231565b604080518082019091526001808252603560f81b6020830152909115151461163e5760405162461bcd60e51b8152600401610c8291906157ed565b506001600160a01b0383166000908152600760205260409020805460ff19168315151790555b505050565b601654604080518082019091526002815261323160f01b602082015290600160a01b900460ff16156116ae5760405162461bcd60e51b8152600401610c8291906157ed565b50600081815260066020526040808220548151635d3e2fa160e01b815291516001600160a01b0390911692918391635d3e2fa191600480820192610120929091908290030181865afa158015611708573d6000803e3d6000fd5b505050506040513d601f19601f8201168201806040525081019061172c9190615868565b60c08101516001600160a01b0390811660009081526003602052604080822054905163a52f38d160e01b815260048101889052939450909291169063a52f38d190602401602060405180830381865afa15801561178d573d6000803e3d6000fd5b505050506040513d601f19601f820116820180604052508101906117b19190615910565b9050600080600080866001600160a01b031663415f1240866040518263ffffffff1660e01b81526004016117e791815260200190565b6080604051808303816000875af1158015611806573d6000803e3d6000fd5b505050506040513d601f19601f8201168201806040525081019061182a9190615a8e565b93509350935093508560c001516001600160a01b03166323b872dd883086888a6118549190615ac4565b61185e9190615ac4565b6040517fffffffff0000000000000000000000000000000000000000000000000000000060e086901b1681526001600160a01b03938416600482015292909116602483015260448201526064016020604051808303816000875af11580156118ca573d6000803e3d6000fd5b505050506040513d601f19601f820116820180604052508101906118ee9190615ad7565b5060c08601516001600160a01b039081166000818152600360205260409081902054905163095ea7b360e01b815292166004830152602482018790529063095ea7b3906044016020604051808303816000875af1158015611953573d6000803e3d6000fd5b505050506040513d601f19601f820116820180604052508101906119779190615ad7565b5060c08601516001600160a01b039081166000908152600360205260409081902054905163d8aed14560e01b8152600481018b90526024810188905291169063d8aed14590604401600060405180830381600087803b1580156119d957600080fd5b505af11580156119ed573d6000803e3d6000fd5b5050505060c08601516014546040516323b872dd60e01b81526001600160a01b038a811660048301529182166024820152604481018590529116906323b872dd906064016020604051808303816000875af1158015611a50573d6000803e3d6000fd5b505050506040513d601f19601f82011682018060405250810190611a749190615ad7565b5060c08601516013546040516323b872dd60e01b81526001600160a01b038a811660048301529182166024820152604481018490529116906323b872dd906064016020604051808303816000875af1158015611ad4573d6000803e3d6000fd5b505050506040513d601f19601f82011682018060405250810190611af89190615ad7565b5060c08601516001600160a01b03908116600081815260036020526040902054909163095ea7b39116611b2b8688615ac4565b6040517fffffffff0000000000000000000000000000000000000000000000000000000060e085901b1681526001600160a01b03909216600483015260248201526044016020604051808303816000875af1158015611b8e573d6000803e3d6000fd5b505050506040513d601f19601f82011682018060405250810190611bb29190615ad7565b5060c08601516001600160a01b03908116600090815260036020526040908190205490517f7f394031000000000000000000000000000000000000000000000000000000008152600481018b905260248101879052911690637f39403190604401600060405180830381600087803b158015611c2d57600080fd5b505af1158015611c41573d6000803e3d6000fd5b505050506000831115611cc15760c08601516001600160a01b03908116600090815260036020526040908190205490516326de36ff60e21b815260048101869052911690639b78dbfc90602401600060405180830381600087803b158015611ca857600080fd5b505af1158015611cbc573d6000803e3d6000fd5b505050505b85608001516001600160a01b0316336001600160a01b03167fd67dda2a46677451d1af5bdf1cca2fff304343d0c226a626583fa8e46f05f88b888a6001600160a01b031663315deeaa6040518163ffffffff1660e01b8152600401602060405180830381865afa158015611d39573d6000803e3d6000fd5b505050506040513d601f19601f82011682018060405250810190611d5d9190615910565b8b6001600160a01b031663964236636040518163ffffffff1660e01b8152600401602060405180830381865afa158015611d9b573d6000803e3d6000fd5b505050506040513d601f19601f82011682018060405250810190611dbf9190615af4565b604051611dce93929190615ba8565b60405180910390a35050505050505050565b336000908152600160208181526040928390205483518085019094526002845261062760f31b9184019190915260ff16151514611e305760405162461bcd60e51b8152600401610c8291906157ed565b50600580546001600160a01b0319166001600160a01b0392909216919091179055565b336000908152600160208181526040928390205483518085019094526002845261062760f31b9184019190915260ff16151514611ea35760405162461bcd60e51b8152600401610c8291906157ed565b50601680546001600160a01b0319166001600160a01b0392909216919091179055565b601654604080518082019091526002815261323160f01b602082015290600160a01b900460ff1615611f0b5760405162461bcd60e51b8152600401610c8291906157ed565b50600082815260066020526040808220548151635d3e2fa160e01b815291516001600160a01b0390911692918391635d3e2fa191600480820192610120929091908290030181865afa158015611f65573d6000803e3d6000fd5b505050506040513d601f19601f82011682018060405250810190611f899190615868565b905080608001516001600160a01b0316336001600160a01b0316146040518060400160405280600281526020017f323200000000000000000000000000000000000000000000000000000000000081525090611ff85760405162461bcd60e51b8152600401610c8291906157ed565b5060808101516040516308165c1760e11b81526001600160a01b03918216600482015284151560248201529083169063102cb82e90604401600060405180830381600087803b15801561204a57600080fd5b505af115801561205e573d6000803e3d6000fd5b50505050336001600160a01b03167f23206eb063144a4ad38015cfdddfde8f6c65a648d766d6efe3f524ba5b03bd2782846001600160a01b031663315deeaa6040518163ffffffff1660e01b8152600401602060405180830381865afa1580156120cc573d6000803e3d6000fd5b505050506040513d601f19601f820116820180604052508101906120f09190615910565b856001600160a01b031663964236636040518163ffffffff1660e01b8152600401602060405180830381865afa15801561212e573d6000803e3d6000fd5b505050506040513d601f19601f820116820180604052508101906121529190615af4565b876040516121639493929190615bd6565b60405180910390a250505050565b336000908152600160208181526040928390205483518085019094526002845261062760f31b9184019190915260ff161515146121c15760405162461bcd60e51b8152600401610c8291906157ed565b50601e805460ff1916911515919091179055565b7ff0c57e16840df040f15088dc2f81fe391c3923bec73e23a9662efc9c229c6a00805468010000000000000000810460ff16159067ffffffffffffffff166000811580156122205750825b905060008267ffffffffffffffff16600114801561223d5750303b155b90508115801561224b575080155b15612282576040517ff92ee8a900000000000000000000000000000000000000000000000000000000815260040160405180910390fd5b845467ffffffffffffffff1916600117855583156122b657845468ff00000000000000001916680100000000000000001785555b8e600490805190602001906122cc929190614f0c565b50600160025560005b6004548110156123da576000600482815481106122f4576122f461583c565b6000918252602090912001548f516001600160a01b0390911691508f90839081106123215761232161583c565b602002602001015160036000836001600160a01b03166001600160a01b0316815260200190815260200160002060006101000a8154816001600160a01b0302191690836001600160a01b031602179055508f82815181106123845761238461583c565b6020908102919091018101516001600160a01b039283166000908152600f8352604080822080546001600160a01b0319169590931694909417909155600790915220805460ff19166001908117909155016122d5565b508b516123ee9060089060208f0190614f0c565b5060005b6008548110156124f7576000600882815481106124115761241161583c565b6000918252602090912001548d516001600160a01b0390911691508d908390811061243e5761243e61583c565b6020026020010151600e6000836001600160a01b03166001600160a01b0316815260200190815260200160002060006101000a8154816001600160a01b0302191690836001600160a01b031602179055508b82815181106124a1576124a161583c565b6020908102919091018101516001600160a01b039283166000908152600b8352604080822080546001600160a01b0319169590931694909417909155600990915220805460ff19166001908117909155016123f2565b50600a80546001600160a01b03199081166001600160a01b038c81169190911790925560058054821692891692909217909155600c899055600d88905560158054339216821790556000908152600160208190526040909120805460ff1916909117905583156125a657845468ff000000000000000019168555604051600181527fc7f505b2f371ae2175ee4913f4499e1f2633a7b5936321eed1cdaeb6115181d29060200160405180910390a15b505050505050505050505050505050565b336000908152600160208181526040928390205483518085019094526002845261062760f31b9184019190915260ff161515146126075760405162461bcd60e51b8152600401610c8291906157ed565b5060005b8351811015610e3a5760008482815181106126285761262861583c565b602002602001015190506126946008805480602002602001604051908101604052809291908181526020018280548015610d0f576020028201919060005260206000209081546001600160a01b03168152600190910190602001808311610cf157505050505082611231565b15156000036126e957600880546001810182556000919091527ff3f7a9fe364faab93b216da50a3214154f22a0a2b415b23a84c8169e8b636ee30180546001600160a01b0319166001600160a01b0383161790555b8382815181106126fb576126fb61583c565b6020026020010151600e6000836001600160a01b03166001600160a01b0316815260200190815260200160002060006101000a8154816001600160a01b0302191690836001600160a01b0316021790555082828151811061275e5761275e61583c565b6020908102919091018101516001600160a01b039283166000908152600b8352604080822080546001600160a01b0319169590931694909417909155600990915220805460ff191660019081179091550161260b565b6001600160a01b03811660009081526017602090815260409182902080548351818402810184019094528084526060939283018282801561281457602002820191906000526020600020905b815481526020019060010190808311612800575b50505050509050919050565b336000908152600160208181526040928390205483518085019094526002845261062760f31b9184019190915260ff161515146128705760405162461bcd60e51b8152600401610c8291906157ed565b50601d55601c91909155601b55565b6001600160a01b0381166000908152600760209081526040918290205482518084019093526001808452603360f81b9284019290925283929160ff9091161515146128dd5760405162461bcd60e51b8152600401610c8291906157ed565b50601654604080518082019091526002815261323160f01b602082015290600160a01b900460ff16156129235760405162461bcd60e51b8152600401610c8291906157ed565b506001600160a01b038281166000908152600360205260409081902054905163a52f38d160e01b8152600481018790528592919091169063a52f38d190602401602060405180830381865afa158015612980573d6000803e3d6000fd5b505050506040513d601f19601f820116820180604052508101906129a49190615910565b841115612a2a576001600160a01b038381166000908152600360205260409081902054905163a52f38d160e01b81526004810188905291169063a52f38d190602401602060405180830381865afa158015612a03573d6000803e3d6000fd5b505050506040513d601f19601f82011682018060405250810190612a279190615910565b90505b600085815260066020526040808220548151635d3e2fa160e01b815291516001600160a01b0390911692918391635d3e2fa191600480820192610120929091908290030181865afa158015612a83573d6000803e3d6000fd5b505050506040513d601f19601f82011682018060405250810190612aa79190615868565b6040516323b872dd60e01b8152336004820152306024820152604481018590529091506001600160a01b038616906323b872dd906064016020604051808303816000875af1158015612afd573d6000803e3d6000fd5b505050506040513d601f19601f82011682018060405250810190612b219190615ad7565b506001600160a01b038581166000818152600360205260409081902054905163095ea7b360e01b815292166004830152602482018590529063095ea7b3906044016020604051808303816000875af1158015612b81573d6000803e3d6000fd5b505050506040513d601f19601f82011682018060405250810190612ba59190615ad7565b506001600160a01b038581166000908152600360205260409081902054905163d8aed14560e01b8152600481018a90526024810186905291169063d8aed14590604401600060405180830381600087803b158015612c0257600080fd5b505af1158015612c16573d6000803e3d6000fd5b505050506001600160a01b0385811660009081526003602052604080822054905163a52f38d160e01b8152600481018b90529192169063a52f38d190602401602060405180830381865afa158015612c72573d6000803e3d6000fd5b505050506040513d601f19601f82011682018060405250810190612c969190615910565b905080600003612edc576000888152600660205260408082205481517f232fa733000000000000000000000000000000000000000000000000000000008152825184936001600160a01b039093169263232fa7339260048082019391829003018187875af1158015612d0c573d6000803e3d6000fd5b505050506040513d601f19601f82011682018060405250810190612d309190615c0e565b90925090508115612e435760008a8152600660209081526040808320546001600160a01b038c81168086526003909452938290205491516323b872dd60e01b815290841660048201529216602483015260448201849052906323b872dd906064016020604051808303816000875af1158015612db0573d6000803e3d6000fd5b505050506040513d601f19601f82011682018060405250810190612dd49190615ad7565b506001600160a01b03888116600090815260036020526040908190205490516326de36ff60e21b815260048101859052911690639b78dbfc90602401600060405180830381600087803b158015612e2a57600080fd5b505af1158015612e3e573d6000803e3d6000fd5b505050505b8015612ed95760008a815260066020526040908190205460145491516323b872dd60e01b81526001600160a01b0391821660048201529181166024830152604482018390528916906323b872dd906064016020604051808303816000875af1158015612eb3573d6000803e3d6000fd5b505050506040513d601f19601f82011682018060405250810190612ed79190615ad7565b505b50505b336001600160a01b03167f60bbdbcc9ae47c9d5e165a6752e36cef569d4a6de3d2b399f9322d7c634041a0838984604051612f1993929190615c32565b60405180910390a25050505050505050565b336000908152600160208181526040928390205483518085019094526002845261062760f31b9184019190915260ff16151514612f7b5760405162461bcd60e51b8152600401610c8291906157ed565b50601654604080518082019091526002815261323160f01b602082015290600160a01b900460ff1615612fc15760405162461bcd60e51b8152600401610c8291906157ed565b50600081815260066020526040808220548151635d3e2fa160e01b815291516001600160a01b0390911692918391635d3e2fa191600480820192610120929091908290030181865afa15801561301b573d6000803e3d6000fd5b505050506040513d601f19601f8201168201806040525081019061303f9190615868565b61010081015160408051808201909152600281527f31390000000000000000000000000000000000000000000000000000000000006020820152919250151560011461309e5760405162461bcd60e51b8152600401610c8291906157ed565b506001600160a01b038481166000908152600360205260409081902054905163ec7be39d60e01b81523360048201526024810186905291169063ec7be39d906044015b600060405180830381600087803b1580156130fb57600080fd5b505af115801561310f573d6000803e3d6000fd5b50505050816001600160a01b031663fab320e96040518163ffffffff1660e01b8152600401600060405180830381600087803b15801561314e57600080fd5b505af1158015613162573d6000803e3d6000fd5b50505050336001600160a01b03167f17177416dc9e9c18df48bdbc445b0e80b3ea7582cf5ba716df90dfef91fee39c826040516121639190615c54565b6000806131ad866001613651565b905060006131bc856000613651565b90506000856001600160a01b031663313ce5676040518163ffffffff1660e01b8152600401602060405180830381865afa1580156131fe573d6000803e3d6000fd5b505050506040513d601f19601f820116820180604052508101906132229190615929565b61322d90600a615a46565b600d546127109061323e8589615a55565b6132489190615a55565b6132529190615a6c565b61325c9190615a6c565b90506000886001600160a01b031663313ce5676040518163ffffffff1660e01b8152600401602060405180830381865afa15801561329e573d6000803e3d6000fd5b505050506040513d601f19601f820116820180604052508101906132c29190615929565b6132cd90600a615a46565b6132d7858a615a55565b6132e19190615a6c565b90506000816132f1846064615a55565b6132fb9190615a6c565b9a9950505050505050505050565b6001600160a01b0385166000908152600760209081526040918290205482518084019093526001808452603360f81b9284019290925287929160ff9091161515146133675760405162461bcd60e51b8152600401610c8291906157ed565b506001600160a01b0384166000908152600960209081526040918290205482518084019093526001808452600d60fa1b9284019290925286929160ff9091161515146133c65760405162461bcd60e51b8152600401610c8291906157ed565b50601654604080518082019091526002815261323160f01b602082015290600160a01b900460ff161561340c5760405162461bcd60e51b8152600401610c8291906157ed565b50866001600160a01b031663313ce5676040518163ffffffff1660e01b8152600401602060405180830381865afa15801561344b573d6000803e3d6000fd5b505050506040513d601f19601f8201168201806040525081019061346f9190615929565b61347a90600a615a46565b613485886001613651565b61348f908a615a55565b61349b90612710615a55565b6134a59190615a6c565b856001600160a01b031663313ce5676040518163ffffffff1660e01b8152600401602060405180830381865afa1580156134e3573d6000803e3d6000fd5b505050506040513d601f19601f820116820180604052508101906135079190615929565b61351290600a615a46565b600c54613520886000613651565b61352a908a615a55565b6135349190615a55565b61353e9190615a6c565b1015604051806040016040528060018152602001603760f81b815250906135785760405162461bcd60e51b8152600401610c8291906157ed565b506135898888888888886000614605565b5050505050505050565b6015546040805180820190915260018152601960f91b6020820152906001600160a01b031633146135d75760405162461bcd60e51b8152600401610c8291906157ed565b50600082815260066020526040908190205490516308165c1760e11b815233600482015282151560248201526001600160a01b0390911690819063102cb82e90604401600060405180830381600087803b15801561363457600080fd5b505af1158015613648573d6000803e3d6000fd5b50505050505050565b600081151581036136f2576001600160a01b038084166000908152600e6020526040808220548151633fabe5a360e21b8152915192938493849384938493169163feaf968c9160048082019260a0929091908290030181865afa1580156136bc573d6000803e3d6000fd5b505050506040513d601f19601f820116820180604052508101906136e09190615c7d565b50919850611286975050505050505050565b6001600160a01b038084166000908152600f6020526040808220548151633fabe5a360e21b8152915192938493849384938493169163feaf968c9160048082019260a0929091908290030181865afa1580156136bc573d6000803e3d6000fd5b6001600160a01b0384166000908152600760209081526040918290205482518084019093526001808452603360f81b9284019290925286929160ff9091161515146137b05760405162461bcd60e51b8152600401610c8291906157ed565b50601e54604080518082019091526002815261032360f41b60208201529060ff1615156001146137f35760405162461bcd60e51b8152600401610c8291906157ed565b50601654604080518082019091526002815261323160f01b602082015290600160a01b900460ff16156138395760405162461bcd60e51b8152600401610c8291906157ed565b506040805180820190915260018152601b60f91b6020820152348511156138735760405162461bcd60e51b8152600401610c8291906157ed565b50601660009054906101000a90046001600160a01b03166001600160a01b031663d0e30db0856040518263ffffffff1660e01b81526004016000604051808303818588803b1580156138c457600080fd5b505af11580156138d8573d6000803e3d6000fd5b5050505050846001600160a01b031663313ce5676040518163ffffffff1660e01b8152600401602060405180830381865afa15801561391b573d6000803e3d6000fd5b505050506040513d601f19601f8201168201806040525081019061393f9190615929565b61394a90600a615a46565b613955866001613651565b61395f9088615a55565b61396b90612710615a55565b6139759190615a6c565b601660009054906101000a90046001600160a01b03166001600160a01b031663313ce5676040518163ffffffff1660e01b8152600401602060405180830381865afa1580156139c8573d6000803e3d6000fd5b505050506040513d601f19601f820116820180604052508101906139ec9190615929565b6139f790600a615a46565b600c54601654613a11906001600160a01b03166000613651565b613a1b9088615a55565b613a259190615a55565b613a2f9190615a6c565b1015604051806040016040528060018152602001603760f81b81525090613a695760405162461bcd60e51b8152600401610c8291906157ed565b50601654613a89908790879087906001600160a01b031687876000614605565b505050505050565b336000908152600160208181526040928390205483518085019094526002845261062760f31b9184019190915260ff16151514613ae15760405162461bcd60e51b8152600401610c8291906157ed565b50600c91909155600d55565b60048181548110610f5e57600080fd5b601e54604080518082019091526002815261032360f41b60208201529060ff161515600114613b3f5760405162461bcd60e51b8152600401610c8291906157ed565b50601654604080518082019091526002815261323160f01b602082015290600160a01b900460ff1615613b855760405162461bcd60e51b8152600401610c8291906157ed565b506040805180820190915260018152601b60f91b602082015234821115613bbf5760405162461bcd60e51b8152600401610c8291906157ed565b50601660009054906101000a90046001600160a01b03166001600160a01b031663d0e30db0826040518263ffffffff1660e01b81526004016000604051808303818588803b158015613c1057600080fd5b505af1158015613c24573d6000803e3d6000fd5b505050600084815260066020526040808220548151635d3e2fa160e01b815291516001600160a01b0390911694509192508391635d3e2fa191600480820192610120929091908290030181865afa158015613c83573d6000803e3d6000fd5b505050506040513d601f19601f82011682018060405250810190613ca79190615868565b604051633390ef1360e11b8152600481018590529091506001600160a01b03831690636721de2690602401600060405180830381600087803b158015613cec57600080fd5b505af1158015613d00573d6000803e3d6000fd5b505060165460405163a9059cbb60e01b81526001600160a01b03868116600483015260248201889052909116925063a9059cbb91506044016020604051808303816000875af1158015613d57573d6000803e3d6000fd5b505050506040513d601f19601f82011682018060405250810190613d7b9190615ad7565b50816001600160a01b0316631c783def6040518163ffffffff1660e01b8152600401602060405180830381865afa158015613dba573d6000803e3d6000fd5b505050506040513d601f19601f82011682018060405250810190613dde9190615ad7565b1515600103613e3b57816001600160a01b03166307a6bf696040518163ffffffff1660e01b8152600401600060405180830381600087803b158015613e2257600080fd5b505af1158015613e36573d6000803e3d6000fd5b505050505b60165460405133917fae6907a71a3704b591c11a28209aad9c070726b192f3e7300e88562322955d689161216391859188916001600160a01b031690600190615bd6565b60176020528160005260406000208181548110613e9b57600080fd5b90600052602060002001600091509150505481565b600082815260066020526040808220548151635d3e2fa160e01b815291516001600160a01b039091169183918391635d3e2fa1916004808301926101209291908290030181865afa158015613f09573d6000803e3d6000fd5b505050506040513d601f19601f82011682018060405250810190613f2d9190615868565b60c08101516001600160a01b0390811660009081526003602052604080822054905163a52f38d160e01b8152600481018a9052939450909291169063a52f38d190602401602060405180830381865afa158015613f8e573d6000803e3d6000fd5b505050506040513d601f19601f82011682018060405250810190613fb29190615910565b9050808510613fc9576201869f9350505050611286565b6001600160a01b038316634d2c872a613fe28784615ccd565b6040517fffffffff0000000000000000000000000000000000000000000000000000000060e084901b1681526004810191909152600060248201526044016113c1565b600081815260066020526040808220548151635d3e2fa160e01b815291516001600160a01b0390911692918391635d3e2fa191600480820192610120929091908290030181865afa15801561407e573d6000803e3d6000fd5b505050506040513d601f19601f820116820180604052508101906140a29190615868565b60808101519091506001600160a01b0316331480156140c45750610100810151155b6040518060400160405280600181526020017f3900000000000000000000000000000000000000000000000000000000000000815250906141185760405162461bcd60e51b8152600401610c8291906157ed565b506001600160a01b0384811660009081526003602052604090819020546080840151915163ec7be39d60e01b81529183166004830152602482018690529091169063ec7be39d906044016130e1565b6001600160a01b0381166000908152600960209081526040918290205482518084019093526001808452600d60fa1b9284019290925283929160ff9091161515146141c55760405162461bcd60e51b8152600401610c8291906157ed565b50601654604080518082019091526002815261323160f01b602082015290600160a01b900460ff161561420b5760405162461bcd60e51b8152600401610c8291906157ed565b50600084815260066020526040808220548151635d3e2fa160e01b815291516001600160a01b0390911692918391635d3e2fa191600480820192610120929091908290030181865afa158015614265573d6000803e3d6000fd5b505050506040513d601f19601f820116820180604052508101906142899190615868565b604051633390ef1360e11b8152600481018790529091506001600160a01b03831690636721de2690602401600060405180830381600087803b1580156142ce57600080fd5b505af11580156142e2573d6000803e3d6000fd5b50506040516323b872dd60e01b81523360048201526001600160a01b03858116602483015260448201899052871692506323b872dd91506064016020604051808303816000875af115801561433b573d6000803e3d6000fd5b505050506040513d601f19601f8201168201806040525081019061435f9190615ad7565b50816001600160a01b0316631c783def6040518163ffffffff1660e01b8152600401602060405180830381865afa15801561439e573d6000803e3d6000fd5b505050506040513d601f19601f820116820180604052508101906143c29190615ad7565b151560010361441f57816001600160a01b03166307a6bf696040518163ffffffff1660e01b8152600401600060405180830381600087803b15801561440657600080fd5b505af115801561441a573d6000803e3d6000fd5b505050505b336001600160a01b03167fae6907a71a3704b591c11a28209aad9c070726b192f3e7300e88562322955d68828787600060405161445f9493929190615bd6565b60405180910390a2505050505050565b336000908152600160208181526040928390205483518085019094526002845261062760f31b9184019190915260ff161515146144bf5760405162461bcd60e51b8152600401610c8291906157ed565b50601a55601955601855565b6015546040805180820190915260018152601960f91b6020820152906001600160a01b0316331461450f5760405162461bcd60e51b8152600401610c8291906157ed565b5060005b82518110156116645781818151811061452e5761452e61583c565b60200260200101516001600085848151811061454c5761454c61583c565b6020908102919091018101516001600160a01b03168252810191909152604001600020805460ff1916911515919091179055600101614513565b336000908152600160208181526040928390205483518085019094526002845261062760f31b9184019190915260ff161515146145d65760405162461bcd60e51b8152600401610c8291906157ed565b50601380546001600160a01b039384166001600160a01b03199182161790915560148054929093169116179055565b6001600160a01b038087166000908152600360209081526040918290205482517f3b24cc2100000000000000000000000000000000000000000000000000000000815292518b949190911692633b24cc219260048083019391928290030181865afa158015614678573d6000803e3d6000fd5b505050506040513d601f19601f8201168201806040525081019061469c9190615910565b10156040518060400160405280600181526020017f3800000000000000000000000000000000000000000000000000000000000000815250906146f25760405162461bcd60e51b8152600401610c8291906157ed565b506040805161012081018252600060208083018290526060830182905260a0830182905260e0830182905233608084018181528486018d815260025486526001600160a01b038d811660c088018190528a1515610100890190815290875260039095529487902054865191519251945197517f3870862b0000000000000000000000000000000000000000000000000000000081526004810192909252602482019290925292841660448401529415156064830152929390911690633870862b90608401600060405180830381600087803b1580156147d057600080fd5b505af11580156147e4573d6000803e3d6000fd5b5050506001600160a01b03808a166000908152600f6020526040812054600554908316935089926148159116614e81565b90506000819050806001600160a01b03166368b86bc28785600a60009054906101000a90046001600160a01b0316600b6000896001600160a01b03166001600160a01b0316815260200190815260200160002060009054906101000a90046001600160a01b0316600c54600d54600e60008c6001600160a01b03166001600160a01b0316815260200190815260200160002060009054906101000a90046001600160a01b03168c601660009054906101000a90046001600160a01b03166040518a63ffffffff1660e01b81526004016148f699989796959493929190615ce0565b600060405180830381600087803b15801561491057600080fd5b505af1158015614924573d6000803e3d6000fd5b50506040517f8ac1b7750000000000000000000000000000000000000000000000000000000081523060048201526001600160a01b0384169250638ac1b7759150602401600060405180830381600087803b15801561498257600080fd5b505af1158015614996573d6000803e3d6000fd5b50506010546011546012546040517f10ac5c3c0000000000000000000000000000000000000000000000000000000081526001600160a01b03938416600482015291831660248301528216604482015290841692506310ac5c3c9150606401600060405180830381600087803b158015614a0f57600080fd5b505af1158015614a23573d6000803e3d6000fd5b5050601c54601b54601d546040517f6cb0ab5e0000000000000000000000000000000000000000000000000000000081526004810193909352602483019190915260448201526001600160a01b0384169250636cb0ab5e9150606401600060405180830381600087803b158015614a9957600080fd5b505af1158015614aad573d6000803e3d6000fd5b5050601854601954601a546040517ff3cf4ada0000000000000000000000000000000000000000000000000000000081526004810193909352602483019190915260448201526001600160a01b038416925063f3cf4ada9150606401600060405180830381600087803b158015614b2357600080fd5b505af1158015614b37573d6000803e3d6000fd5b50505050861515600003614c1e57604051633390ef1360e11b8152600481018c90526001600160a01b03821690636721de2690602401600060405180830381600087803b158015614b8757600080fd5b505af1158015614b9b573d6000803e3d6000fd5b50506040516323b872dd60e01b81523360048201526001600160a01b038581166024830152604482018f90528d1692506323b872dd91506064016020604051808303816000875af1158015614bf4573d6000803e3d6000fd5b505050506040513d601f19601f82011682018060405250810190614c189190615ad7565b50614d03565b604051633390ef1360e11b8152600481018c90526001600160a01b03821690636721de2690602401600060405180830381600087803b158015614c6057600080fd5b505af1158015614c74573d6000803e3d6000fd5b505060165460405163a9059cbb60e01b81526001600160a01b03909116925063a9059cbb9150614cbe9085908f906004016001600160a01b03929092168252602082015260400190565b6020604051808303816000875af1158015614cdd573d6000803e3d6000fd5b505050506040513d601f19601f82011682018060405250810190614d019190615ad7565b505b881515600103614d6157806001600160a01b03166307a6bf696040518163ffffffff1660e01b8152600401600060405180830381600087803b158015614d4857600080fd5b505af1158015614d5c573d6000803e3d6000fd5b505050505b8060066000600254815260200190815260200160002060006101000a8154816001600160a01b0302191690836001600160a01b0316021790555060176000336001600160a01b03166001600160a01b031681526020019081526020016000206002549080600181540180825580915050600190039060005260206000200160009091909190915055336001600160a01b03167f26db8b4d10bdab54a143e26d61e39b0eb3f4582570ee270cf254aaaea4f8068c60066000600254815260200190815260200160002060009054906101000a90046001600160a01b0316888e8e8e8d15604051614e5596959493929190615d46565b60405180910390a260028054906000614e6d83615d94565b919050555050505050505050505050505050565b6000763d602d80600a3d3981f3363d3d373d3d3d363d730000008260601b60e81c176000526e5af43d82803e903d91602b57fd5bf38260781b17602052603760096000f090506001600160a01b038116614f07576040517fc2f868f400000000000000000000000000000000000000000000000000000000815260040160405180910390fd5b919050565b828054828255906000526020600020908101928215614f61579160200282015b82811115614f6157825182546001600160a01b0319166001600160a01b03909116178255602090920191600190910190614f2c565b50614f6d929150614f71565b5090565b5b80821115614f6d5760008155600101614f72565b634e487b7160e01b600052604160045260246000fd5b604051610120810167ffffffffffffffff81118282101715614fc057614fc0614f86565b60405290565b604051601f8201601f1916810167ffffffffffffffff81118282101715614fef57614fef614f86565b604052919050565b600067ffffffffffffffff82111561501157615011614f86565b5060051b60200190565b6001600160a01b038116811461503057600080fd5b50565b600082601f83011261504457600080fd5b8135602061505961505483614ff7565b614fc6565b8083825260208201915060208460051b87010193508684111561507b57600080fd5b602086015b848110156150a05780356150938161501b565b8352918301918301615080565b509695505050505050565b600082601f8301126150bc57600080fd5b813560206150cc61505483614ff7565b8083825260208201915060208460051b8701019350868411156150ee57600080fd5b602086015b848110156150a05780356151068161501b565b83529183019183016150f3565b60008060006060848603121561512857600080fd5b833567ffffffffffffffff8082111561514057600080fd5b61514c87838801615033565b9450602086013591508082111561516257600080fd5b61516e878388016150ab565b9350604086013591508082111561518457600080fd5b5061519186828701615033565b9150509250925092565b6000806000606084860312156151b057600080fd5b83356151bb8161501b565b925060208401356151cb8161501b565b915060408401356151db8161501b565b809150509250925092565b6000602082840312156151f857600080fd5b81356152038161501b565b9392505050565b801515811461503057600080fd5b60006020828403121561522a57600080fd5b81356152038161520a565b60006020828403121561524757600080fd5b5035919050565b60008060006060848603121561526357600080fd5b8335925060208401356151cb8161501b565b6000806040838503121561528857600080fd5b823567ffffffffffffffff81111561529f57600080fd5b6152ab85828601615033565b92505060208301356152bc8161501b565b809150509250929050565b600080604083850312156152da57600080fd5b50508035926020909101359150565b8035614f078161501b565b60008060006060848603121561530957600080fd5b83356153148161501b565b925060208401356153248161520a565b915060408401356151db8161520a565b6000806040838503121561534757600080fd5b8235915060208301356152bc8161520a565b6000806000806000806000806000806101408b8d03121561537957600080fd5b8a3567ffffffffffffffff8082111561539157600080fd5b61539d8e838f01615033565b9b5060208d01359150808211156153b357600080fd5b6153bf8e838f016150ab565b9a5060408d01359150808211156153d557600080fd5b6153e18e838f01615033565b995060608d01359150808211156153f757600080fd5b6154038e838f01615033565b985060808d013591508082111561541957600080fd5b6154258e838f016150ab565b975060a08d013591508082111561543b57600080fd5b506154488d828e01615033565b95505061545760c08c016152e9565b935060e08b013592506101008b013591506154756101208c016152e9565b90509295989b9194979a5092959850565b6020808252825182820181905260009190848201906040850190845b818110156154be578351835292840192918401916001016154a2565b50909695505050505050565b6000806000606084860312156154df57600080fd5b505081359360208301359350604090920135919050565b60008060006060848603121561550b57600080fd5b833592506020840135915060408401356151db8161501b565b6000806040838503121561553757600080fd5b82356155428161501b565b946020939093013593505050565b6000806000806080858703121561556657600080fd5b84356155718161501b565b93506020850135925060408501356155888161501b565b9396929550929360600135925050565b60008060008060008060c087890312156155b157600080fd5b8635955060208701356155c38161501b565b94506040870135935060608701356155da8161501b565b925060808701356155ea8161520a565b915060a08701356155fa8161520a565b809150509295509295509295565b6000806040838503121561561b57600080fd5b82356156268161501b565b915060208301356152bc8161520a565b600080600080600060a0868803121561564e57600080fd5b8535945060208601356156608161501b565b93506040860135925060608601356156778161520a565b915060808601356156878161520a565b809150509295509295909350565b600080604083850312156156a857600080fd5b82356156b38161501b565b915060208301356152bc8161501b565b600082601f8301126156d457600080fd5b813560206156e461505483614ff7565b8083825260208201915060208460051b87010193508684111561570657600080fd5b602086015b848110156150a057803561571e8161520a565b835291830191830161570b565b6000806040838503121561573e57600080fd5b823567ffffffffffffffff8082111561575657600080fd5b818501915085601f83011261576a57600080fd5b8135602061577a61505483614ff7565b82815260059290921b8401810191818101908984111561579957600080fd5b948201945b838610156157c05785356157b18161501b565b8252948201949082019061579e565b965050860135925050808211156157d657600080fd5b506157e3858286016156c3565b9150509250929050565b60006020808352835180602085015260005b8181101561581b578581018301518582016040015282016157ff565b506000604082860101526040601f19601f8301168501019250505092915050565b634e487b7160e01b600052603260045260246000fd5b8051614f078161520a565b8051614f078161501b565b6000610120828403121561587b57600080fd5b615883614f9c565b8251815261589360208401615852565b6020820152604083015160408201526158ae60608401615852565b60608201526158bf6080840161585d565b60808201526158d060a08401615852565b60a08201526158e160c0840161585d565b60c08201526158f260e08401615852565b60e0820152610100615905818501615852565b908201529392505050565b60006020828403121561592257600080fd5b5051919050565b60006020828403121561593b57600080fd5b815160ff8116811461520357600080fd5b634e487b7160e01b600052601160045260246000fd5b600181815b8085111561599d5781600019048211156159835761598361594c565b8085161561599057918102915b93841c9390800290615967565b509250929050565b6000826159b457506001611286565b816159c157506000611286565b81600181146159d757600281146159e1576159fd565b6001915050611286565b60ff8411156159f2576159f261594c565b50506001821b611286565b5060208310610133831016604e8410600b8410161715615a20575081810a611286565b615a2a8383615962565b8060001904821115615a3e57615a3e61594c565b029392505050565b600061520360ff8416836159a5565b80820281158282048414176112865761128661594c565b600082615a8957634e487b7160e01b600052601260045260246000fd5b500490565b60008060008060808587031215615aa457600080fd5b505082516020840151604085015160609095015191969095509092509050565b808201808211156112865761128661594c565b600060208284031215615ae957600080fd5b81516152038161520a565b600060208284031215615b0657600080fd5b81516152038161501b565b80518252602081015115156020830152604081015160408301526060810151151560608301526080810151615b5160808401826001600160a01b03169052565b5060a0810151615b6560a084018215159052565b5060c0810151615b8060c08401826001600160a01b03169052565b5060e0810151615b9460e084018215159052565b506101008181015180151584830152610e3a565b6101608101615bb78286615b11565b836101208301526001600160a01b038316610140830152949350505050565b6101808101615be58287615b11565b846101208301526001600160a01b03841661014083015282151561016083015295945050505050565b60008060408385031215615c2157600080fd5b505080516020909101519092909150565b6101608101615c418286615b11565b6101208201939093526101400152919050565b61012081016112868284615b11565b805169ffffffffffffffffffff81168114614f0757600080fd5b600080600080600060a08688031215615c9557600080fd5b615c9e86615c63565b9450602086015193506040860151925060608601519150615cc160808701615c63565b90509295509295909350565b818103818111156112865761128661594c565b6102208101615cef828c615b11565b6001600160a01b03998a166101208301529789166101408201529588166101608701526101808601949094526101a085019290925285166101c084015284166101e083015290921661020090920191909152919050565b6001600160a01b0387811682526101c0820190615d666020840189615b11565b86610140840152808616610160840152508315156101808301528215156101a0830152979650505050505050565b600060018201615da657615da661594c565b506001019056fea26469706673582212204cb63ca91f4a88986ba9a1d70a861733cba2c9ec209faa4a3e2052006bd922f064736f6c63430008180033",
  "linkReferences": {},
  "deployedLinkReferences": {}
}