{
  "_format": "hh-sol-artifact-1",
  "contractName": "CCFLLoan",
  "sourceName": "contracts/CCFLLoan.sol",
  "abi": [
    {
      "inputs": [],
      "stateMutability": "nonpayable",
      "type": "constructor"
    },
    {
      "inputs": [],
      "name": "InvalidInitialization",
      "type": "error"
    },
    {
      "inputs": [],
      "name": "NotInitializing",
      "type": "error"
    },
    {
      "anonymous": false,
      "inputs": [
        {
          "indexed": false,
          "internalType": "uint64",
          "name": "version",
          "type": "uint64"
        }
      ],
      "name": "Initialized",
      "type": "event"
    },
    {
      "anonymous": false,
      "inputs": [
        {
          "indexed": true,
          "internalType": "address",
          "name": "onBehalfOf",
          "type": "address"
        },
        {
          "indexed": true,
          "internalType": "address",
          "name": "_token",
          "type": "address"
        },
        {
          "indexed": false,
          "internalType": "uint256",
          "name": "_amount",
          "type": "uint256"
        }
      ],
      "name": "LiquiditySupplied",
      "type": "event"
    },
    {
      "anonymous": false,
      "inputs": [
        {
          "indexed": true,
          "internalType": "address",
          "name": "to",
          "type": "address"
        },
        {
          "indexed": true,
          "internalType": "address",
          "name": "_token",
          "type": "address"
        },
        {
          "indexed": false,
          "internalType": "uint256",
          "name": "_amount",
          "type": "uint256"
        }
      ],
      "name": "LiquidityWithdrawn",
      "type": "event"
    },
    {
      "inputs": [],
      "name": "LTV",
      "outputs": [
        {
          "internalType": "uint256",
          "name": "",
          "type": "uint256"
        }
      ],
      "stateMutability": "view",
      "type": "function"
    },
    {
      "inputs": [],
      "name": "aToken",
      "outputs": [
        {
          "internalType": "contract IERC20Standard",
          "name": "",
          "type": "address"
        }
      ],
      "stateMutability": "view",
      "type": "function"
    },
    {
      "inputs": [],
      "name": "aaveAddressProvider",
      "outputs": [
        {
          "internalType": "contract IPoolAddressesProvider",
          "name": "",
          "type": "address"
        }
      ],
      "stateMutability": "view",
      "type": "function"
    },
    {
      "inputs": [],
      "name": "admin",
      "outputs": [
        {
          "internalType": "address",
          "name": "",
          "type": "address"
        }
      ],
      "stateMutability": "view",
      "type": "function"
    },
    {
      "inputs": [],
      "name": "ccfl",
      "outputs": [
        {
          "internalType": "address",
          "name": "",
          "type": "address"
        }
      ],
      "stateMutability": "view",
      "type": "function"
    },
    {
      "inputs": [],
      "name": "closeLoan",
      "outputs": [
        {
          "internalType": "uint256",
          "name": "",
          "type": "uint256"
        }
      ],
      "stateMutability": "nonpayable",
      "type": "function"
    },
    {
      "inputs": [],
      "name": "collateralAmount",
      "outputs": [
        {
          "internalType": "uint256",
          "name": "",
          "type": "uint256"
        }
      ],
      "stateMutability": "view",
      "type": "function"
    },
    {
      "inputs": [],
      "name": "collateralToken",
      "outputs": [
        {
          "internalType": "contract IERC20Standard",
          "name": "",
          "type": "address"
        }
      ],
      "stateMutability": "view",
      "type": "function"
    },
    {
      "inputs": [],
      "name": "earnBorrower",
      "outputs": [
        {
          "internalType": "uint256",
          "name": "",
          "type": "uint256"
        }
      ],
      "stateMutability": "view",
      "type": "function"
    },
    {
      "inputs": [],
      "name": "earnLender",
      "outputs": [
        {
          "internalType": "uint256",
          "name": "",
          "type": "uint256"
        }
      ],
      "stateMutability": "view",
      "type": "function"
    },
    {
      "inputs": [],
      "name": "earnPlatform",
      "outputs": [
        {
          "internalType": "uint256",
          "name": "",
          "type": "uint256"
        }
      ],
      "stateMutability": "view",
      "type": "function"
    },
    {
      "inputs": [],
      "name": "factory",
      "outputs": [
        {
          "internalType": "contract IUniswapV3Factory",
          "name": "",
          "type": "address"
        }
      ],
      "stateMutability": "view",
      "type": "function"
    },
    {
      "inputs": [],
      "name": "feeTier",
      "outputs": [
        {
          "internalType": "uint24",
          "name": "",
          "type": "uint24"
        }
      ],
      "stateMutability": "view",
      "type": "function"
    },
    {
      "inputs": [],
      "name": "getCollateralAmount",
      "outputs": [
        {
          "internalType": "uint256",
          "name": "",
          "type": "uint256"
        }
      ],
      "stateMutability": "view",
      "type": "function"
    },
    {
      "inputs": [],
      "name": "getCollateralToken",
      "outputs": [
        {
          "internalType": "contract IERC20Standard",
          "name": "",
          "type": "address"
        }
      ],
      "stateMutability": "view",
      "type": "function"
    },
    {
      "inputs": [
        {
          "internalType": "uint256",
          "name": "currentDebt",
          "type": "uint256"
        },
        {
          "internalType": "uint256",
          "name": "addCollateral",
          "type": "uint256"
        }
      ],
      "name": "getHealthFactor",
      "outputs": [
        {
          "internalType": "uint256",
          "name": "",
          "type": "uint256"
        }
      ],
      "stateMutability": "view",
      "type": "function"
    },
    {
      "inputs": [],
      "name": "getIsYeild",
      "outputs": [
        {
          "internalType": "bool",
          "name": "",
          "type": "bool"
        }
      ],
      "stateMutability": "view",
      "type": "function"
    },
    {
      "inputs": [
        {
          "internalType": "contract IERC20Standard",
          "name": "_coin",
          "type": "address"
        },
        {
          "internalType": "bool",
          "name": "isPool",
          "type": "bool"
        }
      ],
      "name": "getLatestPrice",
      "outputs": [
        {
          "internalType": "uint256",
          "name": "",
          "type": "uint256"
        }
      ],
      "stateMutability": "view",
      "type": "function"
    },
    {
      "inputs": [],
      "name": "getLoanInfo",
      "outputs": [
        {
          "components": [
            {
              "internalType": "uint256",
              "name": "loanId",
              "type": "uint256"
            },
            {
              "internalType": "bool",
              "name": "isPaid",
              "type": "bool"
            },
            {
              "internalType": "uint256",
              "name": "amount",
              "type": "uint256"
            },
            {
              "internalType": "bool",
              "name": "isClosed",
              "type": "bool"
            },
            {
              "internalType": "address",
              "name": "borrower",
              "type": "address"
            },
            {
              "internalType": "bool",
              "name": "isLiquidated",
              "type": "bool"
            },
            {
              "internalType": "contract IERC20Standard",
              "name": "stableCoin",
              "type": "address"
            },
            {
              "internalType": "bool",
              "name": "isFinalty",
              "type": "bool"
            },
            {
              "internalType": "bool",
              "name": "isFiat",
              "type": "bool"
            }
          ],
          "internalType": "struct DataTypes.Loan",
          "name": "",
          "type": "tuple"
        }
      ],
      "stateMutability": "view",
      "type": "function"
    },
    {
      "inputs": [
        {
          "internalType": "address",
          "name": "user",
          "type": "address"
        }
      ],
      "name": "getUserAccountData",
      "outputs": [
        {
          "internalType": "uint256",
          "name": "totalCollateralBase",
          "type": "uint256"
        },
        {
          "internalType": "uint256",
          "name": "totalDebtBase",
          "type": "uint256"
        },
        {
          "internalType": "uint256",
          "name": "availableBorrowsBase",
          "type": "uint256"
        },
        {
          "internalType": "uint256",
          "name": "currentLiquidationThreshold",
          "type": "uint256"
        },
        {
          "internalType": "uint256",
          "name": "ltv",
          "type": "uint256"
        },
        {
          "internalType": "uint256",
          "name": "healthFactor",
          "type": "uint256"
        }
      ],
      "stateMutability": "view",
      "type": "function"
    },
    {
      "inputs": [],
      "name": "getYieldEarned",
      "outputs": [
        {
          "internalType": "uint256",
          "name": "",
          "type": "uint256"
        }
      ],
      "stateMutability": "view",
      "type": "function"
    },
    {
      "inputs": [],
      "name": "initLoan",
      "outputs": [
        {
          "internalType": "uint256",
          "name": "loanId",
          "type": "uint256"
        },
        {
          "internalType": "bool",
          "name": "isPaid",
          "type": "bool"
        },
        {
          "internalType": "uint256",
          "name": "amount",
          "type": "uint256"
        },
        {
          "internalType": "bool",
          "name": "isClosed",
          "type": "bool"
        },
        {
          "internalType": "address",
          "name": "borrower",
          "type": "address"
        },
        {
          "internalType": "bool",
          "name": "isLiquidated",
          "type": "bool"
        },
        {
          "internalType": "contract IERC20Standard",
          "name": "stableCoin",
          "type": "address"
        },
        {
          "internalType": "bool",
          "name": "isFinalty",
          "type": "bool"
        },
        {
          "internalType": "bool",
          "name": "isFiat",
          "type": "bool"
        }
      ],
      "stateMutability": "view",
      "type": "function"
    },
    {
      "inputs": [
        {
          "components": [
            {
              "internalType": "uint256",
              "name": "loanId",
              "type": "uint256"
            },
            {
              "internalType": "bool",
              "name": "isPaid",
              "type": "bool"
            },
            {
              "internalType": "uint256",
              "name": "amount",
              "type": "uint256"
            },
            {
              "internalType": "bool",
              "name": "isClosed",
              "type": "bool"
            },
            {
              "internalType": "address",
              "name": "borrower",
              "type": "address"
            },
            {
              "internalType": "bool",
              "name": "isLiquidated",
              "type": "bool"
            },
            {
              "internalType": "contract IERC20Standard",
              "name": "stableCoin",
              "type": "address"
            },
            {
              "internalType": "bool",
              "name": "isFinalty",
              "type": "bool"
            },
            {
              "internalType": "bool",
              "name": "isFiat",
              "type": "bool"
            }
          ],
          "internalType": "struct DataTypes.Loan",
          "name": "_loan",
          "type": "tuple"
        },
        {
          "internalType": "contract IERC20Standard",
          "name": "_collateralToken",
          "type": "address"
        },
        {
          "internalType": "contract IPoolAddressesProvider",
          "name": "_aaveAddressProvider",
          "type": "address"
        },
        {
          "internalType": "contract IERC20Standard",
          "name": "_aToken",
          "type": "address"
        },
        {
          "internalType": "uint256",
          "name": "_ltv",
          "type": "uint256"
        },
        {
          "internalType": "uint256",
          "name": "_threshold",
          "type": "uint256"
        },
        {
          "internalType": "contract AggregatorV3Interface",
          "name": "_priceFeed",
          "type": "address"
        },
        {
          "internalType": "contract AggregatorV3Interface",
          "name": "_pricePoolFeed",
          "type": "address"
        },
        {
          "internalType": "address",
          "name": "_platform",
          "type": "address"
        },
        {
          "internalType": "contract IWETH",
          "name": "_iWETH",
          "type": "address"
        }
      ],
      "name": "initialize",
      "outputs": [],
      "stateMutability": "nonpayable",
      "type": "function"
    },
    {
      "inputs": [],
      "name": "isStakeAave",
      "outputs": [
        {
          "internalType": "bool",
          "name": "",
          "type": "bool"
        }
      ],
      "stateMutability": "view",
      "type": "function"
    },
    {
      "inputs": [
        {
          "internalType": "uint256",
          "name": "_currentDebt",
          "type": "uint256"
        },
        {
          "internalType": "uint256",
          "name": "_percent",
          "type": "uint256"
        }
      ],
      "name": "liquidate",
      "outputs": [
        {
          "internalType": "uint256",
          "name": "",
          "type": "uint256"
        }
      ],
      "stateMutability": "nonpayable",
      "type": "function"
    },
    {
      "inputs": [],
      "name": "liquidationThreshold",
      "outputs": [
        {
          "internalType": "uint256",
          "name": "",
          "type": "uint256"
        }
      ],
      "stateMutability": "view",
      "type": "function"
    },
    {
      "inputs": [],
      "name": "owner",
      "outputs": [
        {
          "internalType": "address",
          "name": "",
          "type": "address"
        }
      ],
      "stateMutability": "view",
      "type": "function"
    },
    {
      "inputs": [],
      "name": "platform",
      "outputs": [
        {
          "internalType": "address",
          "name": "",
          "type": "address"
        }
      ],
      "stateMutability": "view",
      "type": "function"
    },
    {
      "inputs": [],
      "name": "priceFeed",
      "outputs": [
        {
          "internalType": "contract AggregatorV3Interface",
          "name": "",
          "type": "address"
        }
      ],
      "stateMutability": "view",
      "type": "function"
    },
    {
      "inputs": [],
      "name": "pricePoolFeed",
      "outputs": [
        {
          "internalType": "contract AggregatorV3Interface",
          "name": "",
          "type": "address"
        }
      ],
      "stateMutability": "view",
      "type": "function"
    },
    {
      "inputs": [
        {
          "internalType": "address",
          "name": "_admin",
          "type": "address"
        }
      ],
      "name": "setAdmin",
      "outputs": [],
      "stateMutability": "nonpayable",
      "type": "function"
    },
    {
      "inputs": [
        {
          "internalType": "address",
          "name": "_ccfl",
          "type": "address"
        }
      ],
      "name": "setCCFL",
      "outputs": [],
      "stateMutability": "nonpayable",
      "type": "function"
    },
    {
      "inputs": [
        {
          "internalType": "uint256",
          "name": "_borrower",
          "type": "uint256"
        },
        {
          "internalType": "uint256",
          "name": "_platform",
          "type": "uint256"
        },
        {
          "internalType": "uint256",
          "name": "_lender",
          "type": "uint256"
        }
      ],
      "name": "setEarnShare",
      "outputs": [],
      "stateMutability": "nonpayable",
      "type": "function"
    },
    {
      "inputs": [],
      "name": "setPaid",
      "outputs": [],
      "stateMutability": "nonpayable",
      "type": "function"
    },
    {
      "inputs": [
        {
          "internalType": "contract IV3SwapRouter",
          "name": "_swapRouter",
          "type": "address"
        },
        {
          "internalType": "contract IUniswapV3Factory",
          "name": "_factory",
          "type": "address"
        }
      ],
      "name": "setSwapRouter",
      "outputs": [],
      "stateMutability": "nonpayable",
      "type": "function"
    },
    {
      "inputs": [],
      "name": "shareBorrower",
      "outputs": [
        {
          "internalType": "uint256",
          "name": "",
          "type": "uint256"
        }
      ],
      "stateMutability": "view",
      "type": "function"
    },
    {
      "inputs": [],
      "name": "shareLender",
      "outputs": [
        {
          "internalType": "uint256",
          "name": "",
          "type": "uint256"
        }
      ],
      "stateMutability": "view",
      "type": "function"
    },
    {
      "inputs": [],
      "name": "sharePlatform",
      "outputs": [
        {
          "internalType": "uint256",
          "name": "",
          "type": "uint256"
        }
      ],
      "stateMutability": "view",
      "type": "function"
    },
    {
      "inputs": [],
      "name": "supplyLiquidity",
      "outputs": [],
      "stateMutability": "nonpayable",
      "type": "function"
    },
    {
      "inputs": [],
      "name": "swapRouter",
      "outputs": [
        {
          "internalType": "contract IV3SwapRouter",
          "name": "",
          "type": "address"
        }
      ],
      "stateMutability": "view",
      "type": "function"
    },
    {
      "inputs": [
        {
          "internalType": "uint256",
          "name": "amount",
          "type": "uint256"
        }
      ],
      "name": "updateCollateral",
      "outputs": [],
      "stateMutability": "nonpayable",
      "type": "function"
    },
    {
      "inputs": [],
      "name": "wETH",
      "outputs": [
        {
          "internalType": "contract IWETH",
          "name": "",
          "type": "address"
        }
      ],
      "stateMutability": "view",
      "type": "function"
    },
    {
      "inputs": [
        {
          "internalType": "address",
          "name": "_receiver",
          "type": "address"
        },
        {
          "internalType": "bool",
          "name": "_isETH",
          "type": "bool"
        }
      ],
      "name": "withdrawAllCollateral",
      "outputs": [],
      "stateMutability": "nonpayable",
      "type": "function"
    },
    {
      "inputs": [
        {
          "internalType": "contract IERC20Standard",
          "name": "_token",
          "type": "address"
        },
        {
          "internalType": "address",
          "name": "_receiver",
          "type": "address"
        }
      ],
      "name": "withdrawCollateralByAdmin",
      "outputs": [],
      "stateMutability": "nonpayable",
      "type": "function"
    },
    {
      "inputs": [],
      "name": "withdrawLiquidity",
      "outputs": [],
      "stateMutability": "nonpayable",
      "type": "function"
    },
    {
      "stateMutability": "payable",
      "type": "receive"
    }
  ],
  "bytecode": "0x608060405234801561001057600080fd5b50612f4c806100206000396000f3fe6080604052600436106102f65760003560e01c8063792f436f1161018f578063b2016bd4116100e1578063cdaabe411161008a578063f242862111610064578063f242862114610983578063f851a440146109a3578063fab320e9146109c357600080fd5b8063cdaabe4114610923578063d296d1f114610943578063dc40e2d01461096357600080fd5b8063c31c9c07116100bb578063c31c9c07146108c3578063c45a0155146108e3578063cbe595c91461090357600080fd5b8063b2016bd414610836578063b3bffeaa14610856578063bf92857c1461087657600080fd5b80638da5cb5b11610143578063a0c1f15e1161011d578063a0c1f15e146107e0578063a2c7fd1514610800578063a95d71321461082057600080fd5b80638da5cb5b1461078c57806392d09ceb146107ac57806396423663146107c257600080fd5b80637ea382c1116101745780637ea382c1146107425780638501de01146107575780638ac1b7751461076c57600080fd5b8063792f436f1461067d5780637ce67d601461069357600080fd5b80634bde38c8116102485780636721de26116101fc578063704b6c02116101d6578063704b6c021461061357806372f5d98a14610633578063741bef1a1461065d57600080fd5b80636721de26146105b357806368dcad58146105d35780636cb0ab5e146105f357600080fd5b80635825f5351161022d5780635825f5351461048c5780635d3e2fa1146104ac57806362965d8e1461059d57600080fd5b80634bde38c8146104345780634d2c872a1461046c57600080fd5b8063232fa733116102aa57806332df398e1161028457806332df398e146103f25780633a0720e6146104085780634031234c1461041e57600080fd5b8063232fa733146103b2578063288cc89e146103c7578063315deeaa146103dd57600080fd5b8063102cb82e116102db578063102cb82e1461034257806311256603146103625780631c783def1461039357600080fd5b806305b57c0b1461030257806307a6bf691461032b57600080fd5b366102fd57005b600080fd5b34801561030e57600080fd5b5061031860195481565b6040519081526020015b60405180910390f35b34801561033757600080fd5b506103406109d8565b005b34801561034e57600080fd5b5061034061035d366004612874565b610cc2565b34801561036e57600080fd5b5060035461038390600160a01b900460ff1681565b6040519015158152602001610322565b34801561039f57600080fd5b50600354600160a01b900460ff16610383565b3480156103be57600080fd5b50610318610fea565b3480156103d357600080fd5b5061031860175481565b3480156103e957600080fd5b50600854610318565b3480156103fe57600080fd5b5061031860145481565b34801561041457600080fd5b5061031860165481565b34801561042a57600080fd5b5061031860065481565b34801561044057600080fd5b50601254610454906001600160a01b031681565b6040516001600160a01b039091168152602001610322565b34801561047857600080fd5b506103186104873660046128ad565b6112e2565b34801561049857600080fd5b50601154610454906001600160a01b031681565b3480156104b857600080fd5b506105906040805161012081018252600080825260208201819052918101829052606081018290526080810182905260a0810182905260c0810182905260e08101829052610100810191909152506040805161012081018252600a548152600b5460ff90811615156020830152600c5492820192909252600d54808316151560608301526001600160a01b0361010080830482166080850152600160a81b928390048516151560a0850152600e5491821660c0850152600160a01b82048516151560e085015291900490921615159181019190915290565b60405161032291906128cf565b3480156105a957600080fd5b5061031860075481565b3480156105bf57600080fd5b506103406105ce36600461296d565b6114ae565b3480156105df57600080fd5b50601054610454906001600160a01b031681565b3480156105ff57600080fd5b5061034061060e366004612986565b61150d565b34801561061f57600080fd5b5061034061062e3660046129b2565b611560565b34801561063f57600080fd5b50610649610bb881565b60405162ffffff9091168152602001610322565b34801561066957600080fd5b50600f54610454906001600160a01b031681565b34801561068957600080fd5b5061031860185481565b34801561069f57600080fd5b50600a54600b54600c54600d54600e546106ef949360ff9081169392808216926001600160a01b036101008304811693600160a81b9384900481169391831692600160a01b810482169290041689565b60408051998a5297151560208a01529688019590955292151560608701526001600160a01b039182166080870152151560a08601521660c0840152151560e0830152151561010082015261012001610322565b34801561074e57600080fd5b506103406115d4565b34801561076357600080fd5b5061031861195c565b34801561077857600080fd5b506103406107873660046129b2565b611a03565b34801561079857600080fd5b50600054610454906001600160a01b031681565b3480156107b857600080fd5b5061031860085481565b3480156107ce57600080fd5b506009546001600160a01b0316610454565b3480156107ec57600080fd5b50600354610454906001600160a01b031681565b34801561080c57600080fd5b5061034061081b366004612a0e565b611a77565b34801561082c57600080fd5b5061031860155481565b34801561084257600080fd5b50600954610454906001600160a01b031681565b34801561086257600080fd5b50610318610871366004612874565b611e0e565b34801561088257600080fd5b506108966108913660046129b2565b611f05565b604080519687526020870195909552938501929092526060840152608083015260a082015260c001610322565b3480156108cf57600080fd5b50600454610454906001600160a01b031681565b3480156108ef57600080fd5b50600554610454906001600160a01b031681565b34801561090f57600080fd5b5061034061091e366004612b5b565b612023565b34801561092f57600080fd5b50600254610454906001600160a01b031681565b34801561094f57600080fd5b5061031861095e3660046128ad565b61214d565b34801561096f57600080fd5b5061034061097e366004612b5b565b612262565b34801561098f57600080fd5b50601354610454906001600160a01b031681565b3480156109af57600080fd5b50600154610454906001600160a01b031681565b3480156109cf57600080fd5b506103406122e2565b6000546040805180820190915260018152601960f91b6020820152906001600160a01b03163314610a255760405162461bcd60e51b8152600401610a1c9190612bad565b60405180910390fd5b506009546040516370a0823160e01b81523060048201526001600160a01b039091169060009082906370a0823190602401602060405180830381865afa158015610a73573d6000803e3d6000fd5b505050506040513d601f19601f82011682018060405250810190610a979190612be0565b90506000811160405180604001604052806002815260200161031360f41b81525090610ad65760405162461bcd60e51b8152600401610a1c9190612bad565b506000309050600080600260009054906101000a90046001600160a01b03166001600160a01b031663026b1d5f6040518163ffffffff1660e01b8152600401602060405180830381865afa158015610b32573d6000803e3d6000fd5b505050506040513d601f19601f82011682018060405250810190610b569190612bf9565b60405163095ea7b360e01b81526001600160a01b038083166004830152602482018790529192509086169063095ea7b3906044016020604051808303816000875af1158015610ba9573d6000803e3d6000fd5b505050506040513d601f19601f82011682018060405250810190610bcd9190612c16565b506040517f617ba0370000000000000000000000000000000000000000000000000000000081526001600160a01b03868116600483015260248201869052848116604483015261ffff8416606483015282169063617ba03790608401600060405180830381600087803b158015610c4357600080fd5b505af1158015610c57573d6000803e3d6000fd5b50505050846001600160a01b0316836001600160a01b03167f51a2b359618aeb0bcc2a495a6667c0bdbfddc3bb27eb0dd5b8e3b33a4c15865f86604051610ca091815260200190565b60405180910390a350506003805460ff60a01b1916600160a01b179055505050565b6000546040805180820190915260018152601960f91b6020820152906001600160a01b03163314610d065760405162461bcd60e51b8152600401610a1c9190612bad565b50600d5460ff1615156001148015610d285750600e54600160a01b900460ff16155b6040518060400160405280600281526020017f313200000000000000000000000000000000000000000000000000000000000081525090610d7c5760405162461bcd60e51b8152600401610a1c9190612bad565b508015610eec576013546009546040516370a0823160e01b81523060048201526001600160a01b0392831692632e1a7d4d9216906370a0823190602401602060405180830381865afa158015610dd6573d6000803e3d6000fd5b505050506040513d601f19601f82011682018060405250810190610dfa9190612be0565b6040518263ffffffff1660e01b8152600401610e1891815260200190565b600060405180830381600087803b158015610e3257600080fd5b505af1158015610e46573d6000803e3d6000fd5b50506009546040516370a0823160e01b81523060048201526001600160a01b0386811694506108fc9350909116906370a0823190602401602060405180830381865afa158015610e9a573d6000803e3d6000fd5b505050506040513d601f19601f82011682018060405250810190610ebe9190612be0565b6040518115909202916000818181858888f19350505050158015610ee6573d6000803e3d6000fd5b50610fd3565b6009546040516370a0823160e01b81523060048201526001600160a01b039091169063a9059cbb90849083906370a0823190602401602060405180830381865afa158015610f3e573d6000803e3d6000fd5b505050506040513d601f19601f82011682018060405250810190610f629190612be0565b6040516001600160e01b031960e085901b1681526001600160a01b03909216600483015260248201526044016020604051808303816000875af1158015610fad573d6000803e3d6000fd5b505050506040513d601f19601f82011682018060405250810190610fd19190612c16565b505b5050600e805460ff60a01b1916600160a01b179055565b600080546040805180820190915260018152601960f91b6020820152906001600160a01b0316331461102f5760405162461bcd60e51b8152600401610a1c9190612bad565b50600d805460ff19166001179055600354600160a01b900460ff1615611057576110576115d4565b60006017546018546110699190612c49565b11156112dc576009546004546017546018546001600160a01b039384169363095ea7b393169161109891612c49565b6040516001600160e01b031960e085901b1681526001600160a01b03909216600483015260248201526044016020604051808303816000875af11580156110e3573d6000803e3d6000fd5b505050506040513d601f19601f820116820180604052508101906111079190612c16565b50600061113560175460185461111d9190612c49565b600e546009546001600160a01b039182169116612336565b600e546012546014546016549394506001600160a01b039283169363a9059cbb93909216916111649190612c49565b6014546111719086612c5c565b61117b9190612c73565b6040516001600160e01b031960e085901b1681526001600160a01b03909216600483015260248201526044016020604051808303816000875af11580156111c6573d6000803e3d6000fd5b505050506040513d601f19601f820116820180604052508101906111ea9190612c16565b50600e546011546014546016546001600160a01b039384169363095ea7b393169161121491612c49565b6014546112219086612c5c565b61122b9190612c73565b6112359085612c95565b6040516001600160e01b031960e085901b1681526001600160a01b03909216600483015260248201526044016020604051808303816000875af1158015611280573d6000803e3d6000fd5b505050506040513d601f19601f820116820180604052508101906112a49190612c16565b506014546016546112b59190612c49565b6014546112c29083612c5c565b6112cc9190612c73565b6112d69082612c95565b91505090565b50600090565b600e5460009081906112fe906001600160a01b03166001611e0e565b9050600080846008546113119190612c49565b6009549091506001600160a01b031681156113df576000611333826000611e0e565b9050816001600160a01b031663313ce5676040518163ffffffff1660e01b8152600401602060405180830381865afa158015611373573d6000803e3d6000fd5b505050506040513d601f19601f820116820180604052508101906113979190612ca8565b6113a290600a612daf565b600654612710906113b38487612c5c565b6113bd9190612c5c565b6113c79190612c73565b6113d19190612c73565b6113db9085612c49565b9350505b600e54604080517f313ce56700000000000000000000000000000000000000000000000000000000815290516000926001600160a01b03169163313ce5679160048281019260209291908290030181865afa158015611442573d6000803e3d6000fd5b505050506040513d601f19601f820116820180604052508101906114669190612ca8565b61147190600a612daf565b61147b868a612c5c565b6114859190612c73565b9050600081611495866064612c5c565b61149f9190612c73565b96505050505050505b92915050565b6000546040805180820190915260018152601960f91b6020820152906001600160a01b031633146114f25760405162461bcd60e51b8152600401610a1c9190612bad565b5080600860008282546115059190612c49565b909155505050565b6000546040805180820190915260018152601960f91b6020820152906001600160a01b031633146115515760405162461bcd60e51b8152600401610a1c9190612bad565b50601655601591909155601455565b6000546040805180820190915260018152601960f91b6020820152906001600160a01b031633146115a45760405162461bcd60e51b8152600401610a1c9190612bad565b506001805473ffffffffffffffffffffffffffffffffffffffff19166001600160a01b0392909216919091179055565b6000546040805180820190915260018152601960f91b6020820152906001600160a01b031633146116185760405162461bcd60e51b8152600401610a1c9190612bad565b506009546003546040516370a0823160e01b81523060048201526001600160a01b039283169260009216906370a0823190602401602060405180830381865afa158015611669573d6000803e3d6000fd5b505050506040513d601f19601f8201168201806040525081019061168d9190612be0565b90506000811160405180604001604052806002815260200161031360f41b815250906116cc5760405162461bcd60e51b8152600401610a1c9190612bad565b50600254604080517f026b1d5f00000000000000000000000000000000000000000000000000000000815290516000926001600160a01b03169163026b1d5f9160048083019260209291908290030181865afa158015611730573d6000803e3d6000fd5b505050506040513d601f19601f820116820180604052508101906117549190612bf9565b6040517f69328dec0000000000000000000000000000000000000000000000000000000081526001600160a01b03858116600483015260248201859052306044830152919250908216906369328dec906064016020604051808303816000875af11580156117c6573d6000803e3d6000fd5b505050506040513d601f19601f820116820180604052508101906117ea9190612be0565b506040518281526001600160a01b0384169030907f83aa598dd3e269af677698c6847b3ba594a67d286a771d01099aafa911a91b649060200160405180910390a36003805460ff60a01b191690556009546040516370a0823160e01b81523060048201526000916001600160a01b0316906370a0823190602401602060405180830381865afa158015611881573d6000803e3d6000fd5b505050506040513d601f19601f820116820180604052508101906118a59190612be0565b90506000600854826118b79190612c95565b111561195657612710601554600854836118d19190612c95565b6118db9190612c5c565b6118e59190612c73565b6019556014546016546118f89190612c49565b60145460195460085461190b9085612c95565b6119159190612c95565b61191f9190612c5c565b6119299190612c73565b601781905560195460085461193e9084612c95565b6119489190612c95565b6119529190612c95565b6018555b50505050565b6003546040516370a0823160e01b815230600482015260009182916001600160a01b03909116906370a0823190602401602060405180830381865afa1580156119a9573d6000803e3d6000fd5b505050506040513d601f19601f820116820180604052508101906119cd9190612be0565b90506000600854826119df9190612c95565b9050612710601554826119f29190612c5c565b6119fc9190612c73565b9250505090565b6000546040805180820190915260018152601960f91b6020820152906001600160a01b03163314611a475760405162461bcd60e51b8152600401610a1c9190612bad565b506011805473ffffffffffffffffffffffffffffffffffffffff19166001600160a01b0392909216919091179055565b7ff0c57e16840df040f15088dc2f81fe391c3923bec73e23a9662efc9c229c6a00805468010000000000000000810460ff16159067ffffffffffffffff16600081158015611ac25750825b905060008267ffffffffffffffff166001148015611adf5750303b155b905081158015611aed575080155b15611b24576040517ff92ee8a900000000000000000000000000000000000000000000000000000000815260040160405180910390fd5b845467ffffffffffffffff191660011785558315611b5857845468ff00000000000000001916680100000000000000001785555b336000806101000a8154816001600160a01b0302191690836001600160a01b031602179055508e600a6000820151816000015560208201518160010160006101000a81548160ff0219169083151502179055506040820151816002015560608201518160030160006101000a81548160ff02191690831515021790555060808201518160030160016101000a8154816001600160a01b0302191690836001600160a01b0316021790555060a08201518160030160156101000a81548160ff02191690831515021790555060c08201518160040160006101000a8154816001600160a01b0302191690836001600160a01b0316021790555060e08201518160040160146101000a81548160ff0219169083151502179055506101008201518160040160156101000a81548160ff0219169083151502179055509050508d600960006101000a8154816001600160a01b0302191690836001600160a01b031602179055508c600260006101000a8154816001600160a01b0302191690836001600160a01b031602179055508a600781905550896006819055508b600360006101000a8154816001600160a01b0302191690836001600160a01b0316021790555088600f60006101000a8154816001600160a01b0302191690836001600160a01b0316021790555087601060006101000a8154816001600160a01b0302191690836001600160a01b0316021790555086601260006101000a8154816001600160a01b0302191690836001600160a01b0316021790555085601360006101000a8154816001600160a01b0302191690836001600160a01b031602179055508315611dfd57845468ff000000000000000019168555604051600181527fc7f505b2f371ae2175ee4913f4499e1f2633a7b5936321eed1cdaeb6115181d29060200160405180910390a15b505050505050505050505050505050565b60008115158103611eaa576000806000806000600f60009054906101000a90046001600160a01b03166001600160a01b031663feaf968c6040518163ffffffff1660e01b815260040160a060405180830381865afa158015611e74573d6000803e3d6000fd5b505050506040513d601f19601f82011682018060405250810190611e989190612dd8565b509198506114a8975050505050505050565b6000806000806000601060009054906101000a90046001600160a01b03166001600160a01b031663feaf968c6040518163ffffffff1660e01b815260040160a060405180830381865afa158015611e74573d6000803e3d6000fd5b6000806000806000806000600260009054906101000a90046001600160a01b03166001600160a01b031663026b1d5f6040518163ffffffff1660e01b8152600401602060405180830381865afa158015611f63573d6000803e3d6000fd5b505050506040513d601f19601f82011682018060405250810190611f879190612bf9565b6040517fbf92857c0000000000000000000000000000000000000000000000000000000081526001600160a01b038a811660048301529192509082169063bf92857c9060240160c060405180830381865afa158015611fea573d6000803e3d6000fd5b505050506040513d601f19601f8201168201806040525081019061200e9190612e28565b949d939c50919a509850965090945092505050565b6001805460408051808201909152918252601960f91b60208301526001600160a01b031633146120665760405162461bcd60e51b8152600401610a1c9190612bad565b506040516370a0823160e01b81523060048201526001600160a01b0383169063a9059cbb90839083906370a0823190602401602060405180830381865afa1580156120b5573d6000803e3d6000fd5b505050506040513d601f19601f820116820180604052508101906120d99190612be0565b6040516001600160e01b031960e085901b1681526001600160a01b03909216600483015260248201526044016020604051808303816000875af1158015612124573d6000803e3d6000fd5b505050506040513d601f19601f820116820180604052508101906121489190612c16565b505050565b600080546040805180820190915260018152601960f91b6020820152906001600160a01b031633146121925760405162461bcd60e51b8152600401610a1c9190612bad565b50600354600160a01b900460ff16156121ad576121ad6115d4565b6009546001600160a01b03166122576127106121c98582612c49565b6121d39087612c5c565b6121dd9190612c73565b6040516370a0823160e01b81523060048201526001600160a01b038416906370a0823190602401602060405180830381865afa158015612221573d6000803e3d6000fd5b505050506040513d601f19601f820116820180604052508101906122459190612be0565b600e546001600160a01b03168461250b565b506000949350505050565b6000546040805180820190915260018152601960f91b6020820152906001600160a01b031633146122a65760405162461bcd60e51b8152600401610a1c9190612bad565b50600480546001600160a01b0393841673ffffffffffffffffffffffffffffffffffffffff199182161790915560058054929093169116179055565b6000546040805180820190915260018152601960f91b6020820152906001600160a01b031633146123265760405162461bcd60e51b8152600401610a1c9190612bad565b50600b805460ff19166001179055565b6004546000906123519083906001600160a01b031686612703565b600554604051630b4c774160e11b81526001600160a01b0384811660048301528581166024830152610bb860448301526000921690631698ee8290606401602060405180830381865afa1580156123ac573d6000803e3d6000fd5b505050506040513d601f19601f820116820180604052508101906123d09190612bf9565b90506000816001600160a01b031663ddca3f436040518163ffffffff1660e01b8152600401602060405180830381865afa158015612412573d6000803e3d6000fd5b505050506040513d601f19601f820116820180604052508101906124369190612e72565b6040805160e0810182526001600160a01b038088168252888116602083015262ffffff841682840152336060830152608082018a9052600060a0830181905260c08301526004805493517f04e45aaf00000000000000000000000000000000000000000000000000000000815294955091939216916304e45aaf916124bd91859101612e97565b6020604051808303816000875af11580156124dc573d6000803e3d6000fd5b505050506040513d601f19601f820116820180604052508101906125009190612be0565b979650505050505050565b6004546000906125269083906001600160a01b031686612703565b600554604051630b4c774160e11b81526001600160a01b0384811660048301528581166024830152610bb860448301526000921690631698ee8290606401602060405180830381865afa158015612581573d6000803e3d6000fd5b505050506040513d601f19601f820116820180604052508101906125a59190612bf9565b90506000816001600160a01b031663ddca3f436040518163ffffffff1660e01b8152600401602060405180830381865afa1580156125e7573d6000803e3d6000fd5b505050506040513d601f19601f8201168201806040525081019061260b9190612e72565b6040805160e0810182526001600160a01b038088168252888116602083015262ffffff841682840152336060830152608082018b905260a082018a9052600060c08301526004805493517f5023b4df0000000000000000000000000000000000000000000000000000000081529495509193921691635023b4df9161269291859101612e97565b6020604051808303816000875af11580156126b1573d6000803e3d6000fd5b505050506040513d601f19601f820116820180604052508101906126d59190612be0565b9350868410156126f8576004546126f89086906001600160a01b03166000612703565b505050949350505050565b604080516001600160a01b038481166024830152604480830185905283518084039091018152606490920183526020820180517bffffffffffffffffffffffffffffffffffffffffffffffffffffffff1663095ea7b360e01b17905291516000928392908716916127749190612efa565b6000604051808303816000865af19150503d80600081146127b1576040519150601f19603f3d011682016040523d82523d6000602084013e6127b6565b606091505b50915091508180156127e05750805115806127e05750808060200190518101906127e09190612c16565b61282c5760405162461bcd60e51b815260206004820152600260248201527f53410000000000000000000000000000000000000000000000000000000000006044820152606401610a1c565b5050505050565b6001600160a01b038116811461284857600080fd5b50565b803561285681612833565b919050565b801515811461284857600080fd5b80356128568161285b565b6000806040838503121561288757600080fd5b823561289281612833565b915060208301356128a28161285b565b809150509250929050565b600080604083850312156128c057600080fd5b50508035926020909101359150565b6000610120820190508251825260208301511515602083015260408301516040830152606083015115156060830152608083015161291860808401826001600160a01b03169052565b5060a083015161292c60a084018215159052565b5060c083015161294760c08401826001600160a01b03169052565b5060e083015161295b60e084018215159052565b50610100928301511515919092015290565b60006020828403121561297f57600080fd5b5035919050565b60008060006060848603121561299b57600080fd5b505081359360208301359350604090920135919050565b6000602082840312156129c457600080fd5b81356129cf81612833565b9392505050565b604051610120810167ffffffffffffffff81118282101715612a0857634e487b7160e01b600052604160045260246000fd5b60405290565b6000806000806000806000806000808a8c03610240811215612a2f57600080fd5b61012080821215612a3f57600080fd5b612a476129d6565b91508c358252612a5960208e01612869565b602083015260408d01356040830152612a7460608e01612869565b6060830152612a8560808e0161284b565b6080830152612a9660a08e01612869565b60a0830152612aa760c08e0161284b565b60c0830152612ab860e08e01612869565b60e0830152610100612acb818f01612869565b8184015250819b50612ade818e0161284b565b9a505050612aef6101408c0161284b565b9750612afe6101608c0161284b565b96506101808b013595506101a08b01359450612b1d6101c08c0161284b565b9350612b2c6101e08c0161284b565b9250612b3b6102008c0161284b565b9150612b4a6102208c0161284b565b90509295989b9194979a5092959850565b60008060408385031215612b6e57600080fd5b8235612b7981612833565b915060208301356128a281612833565b60005b83811015612ba4578181015183820152602001612b8c565b50506000910152565b6020815260008251806020840152612bcc816040850160208701612b89565b601f01601f19169190910160400192915050565b600060208284031215612bf257600080fd5b5051919050565b600060208284031215612c0b57600080fd5b81516129cf81612833565b600060208284031215612c2857600080fd5b81516129cf8161285b565b634e487b7160e01b600052601160045260246000fd5b808201808211156114a8576114a8612c33565b80820281158282048414176114a8576114a8612c33565b600082612c9057634e487b7160e01b600052601260045260246000fd5b500490565b818103818111156114a8576114a8612c33565b600060208284031215612cba57600080fd5b815160ff811681146129cf57600080fd5b600181815b80851115612d06578160001904821115612cec57612cec612c33565b80851615612cf957918102915b93841c9390800290612cd0565b509250929050565b600082612d1d575060016114a8565b81612d2a575060006114a8565b8160018114612d405760028114612d4a57612d66565b60019150506114a8565b60ff841115612d5b57612d5b612c33565b50506001821b6114a8565b5060208310610133831016604e8410600b8410161715612d89575081810a6114a8565b612d938383612ccb565b8060001904821115612da757612da7612c33565b029392505050565b60006129cf60ff841683612d0e565b805169ffffffffffffffffffff8116811461285657600080fd5b600080600080600060a08688031215612df057600080fd5b612df986612dbe565b9450602086015193506040860151925060608601519150612e1c60808701612dbe565b90509295509295909350565b60008060008060008060c08789031215612e4157600080fd5b865195506020870151945060408701519350606087015192506080870151915060a087015190509295509295509295565b600060208284031215612e8457600080fd5b815162ffffff811681146129cf57600080fd5b60e081016114a882846001600160a01b0380825116835280602083015116602084015262ffffff60408301511660408401528060608301511660608401526080820151608084015260a082015160a08401528060c08301511660c0840152505050565b60008251612f0c818460208701612b89565b919091019291505056fea2646970667358221220064844c46a5d513feca6d5db539e05b2049a0574b69cfe7a0e99aeaf03bac56264736f6c63430008180033",
  "linkReferences": {},
  "deployedLinkReferences": {}
}