{
  "_format": "hh-sol-artifact-1",
  "contractName": "CCFLLoan",
  "sourceName": "contracts/CCFLLoan.sol",
  "abi": [
    {
      "inputs": [],
      "stateMutability": "nonpayable",
      "type": "constructor"
    },
    {
      "inputs": [],
      "name": "InvalidInitialization",
      "type": "error"
    },
    {
      "inputs": [],
      "name": "NotInitializing",
      "type": "error"
    },
    {
      "anonymous": false,
      "inputs": [
        {
          "indexed": false,
          "internalType": "uint64",
          "name": "version",
          "type": "uint64"
        }
      ],
      "name": "Initialized",
      "type": "event"
    },
    {
      "anonymous": false,
      "inputs": [
        {
          "indexed": true,
          "internalType": "address",
          "name": "onBehalfOf",
          "type": "address"
        },
        {
          "indexed": true,
          "internalType": "address",
          "name": "_token",
          "type": "address"
        },
        {
          "indexed": false,
          "internalType": "uint256",
          "name": "_amount",
          "type": "uint256"
        }
      ],
      "name": "LiquiditySupplied",
      "type": "event"
    },
    {
      "anonymous": false,
      "inputs": [
        {
          "indexed": true,
          "internalType": "address",
          "name": "to",
          "type": "address"
        },
        {
          "indexed": true,
          "internalType": "address",
          "name": "_token",
          "type": "address"
        },
        {
          "indexed": false,
          "internalType": "uint256",
          "name": "_amount",
          "type": "uint256"
        }
      ],
      "name": "LiquidityWithdrawn",
      "type": "event"
    },
    {
      "inputs": [],
      "name": "LTV",
      "outputs": [
        {
          "internalType": "uint256",
          "name": "",
          "type": "uint256"
        }
      ],
      "stateMutability": "view",
      "type": "function"
    },
    {
      "inputs": [],
      "name": "aToken",
      "outputs": [
        {
          "internalType": "contract IERC20Standard",
          "name": "",
          "type": "address"
        }
      ],
      "stateMutability": "view",
      "type": "function"
    },
    {
      "inputs": [],
      "name": "aaveAddressProvider",
      "outputs": [
        {
          "internalType": "contract IPoolAddressesProvider",
          "name": "",
          "type": "address"
        }
      ],
      "stateMutability": "view",
      "type": "function"
    },
    {
      "inputs": [
        {
          "internalType": "uint256",
          "name": "_currentDebt",
          "type": "uint256"
        },
        {
          "internalType": "uint256",
          "name": "_amountOut",
          "type": "uint256"
        }
      ],
      "name": "calculateLiquidation",
      "outputs": [
        {
          "internalType": "uint256",
          "name": "",
          "type": "uint256"
        },
        {
          "internalType": "uint256",
          "name": "",
          "type": "uint256"
        },
        {
          "internalType": "uint256",
          "name": "",
          "type": "uint256"
        },
        {
          "internalType": "uint256",
          "name": "",
          "type": "uint256"
        }
      ],
      "stateMutability": "view",
      "type": "function"
    },
    {
      "inputs": [
        {
          "internalType": "uint256",
          "name": "_currentDebt",
          "type": "uint256"
        }
      ],
      "name": "calculateSwap",
      "outputs": [
        {
          "internalType": "uint256",
          "name": "",
          "type": "uint256"
        },
        {
          "internalType": "uint256",
          "name": "",
          "type": "uint256"
        }
      ],
      "stateMutability": "nonpayable",
      "type": "function"
    },
    {
      "inputs": [],
      "name": "ccfl",
      "outputs": [
        {
          "internalType": "address",
          "name": "",
          "type": "address"
        }
      ],
      "stateMutability": "view",
      "type": "function"
    },
    {
      "inputs": [],
      "name": "closeLoan",
      "outputs": [
        {
          "internalType": "uint256",
          "name": "",
          "type": "uint256"
        },
        {
          "internalType": "uint256",
          "name": "",
          "type": "uint256"
        }
      ],
      "stateMutability": "nonpayable",
      "type": "function"
    },
    {
      "inputs": [],
      "name": "collateralAmount",
      "outputs": [
        {
          "internalType": "uint256",
          "name": "",
          "type": "uint256"
        }
      ],
      "stateMutability": "view",
      "type": "function"
    },
    {
      "inputs": [],
      "name": "collateralToken",
      "outputs": [
        {
          "internalType": "contract IERC20Standard",
          "name": "",
          "type": "address"
        }
      ],
      "stateMutability": "view",
      "type": "function"
    },
    {
      "inputs": [],
      "name": "earnBorrower",
      "outputs": [
        {
          "internalType": "uint256",
          "name": "",
          "type": "uint256"
        }
      ],
      "stateMutability": "view",
      "type": "function"
    },
    {
      "inputs": [],
      "name": "earnLender",
      "outputs": [
        {
          "internalType": "uint256",
          "name": "",
          "type": "uint256"
        }
      ],
      "stateMutability": "view",
      "type": "function"
    },
    {
      "inputs": [],
      "name": "earnPlatform",
      "outputs": [
        {
          "internalType": "uint256",
          "name": "",
          "type": "uint256"
        }
      ],
      "stateMutability": "view",
      "type": "function"
    },
    {
      "inputs": [],
      "name": "factory",
      "outputs": [
        {
          "internalType": "contract IUniswapV3Factory",
          "name": "",
          "type": "address"
        }
      ],
      "stateMutability": "view",
      "type": "function"
    },
    {
      "inputs": [],
      "name": "feeTier",
      "outputs": [
        {
          "internalType": "uint24",
          "name": "",
          "type": "uint24"
        }
      ],
      "stateMutability": "view",
      "type": "function"
    },
    {
      "inputs": [],
      "name": "getCollateralAmount",
      "outputs": [
        {
          "internalType": "uint256",
          "name": "",
          "type": "uint256"
        }
      ],
      "stateMutability": "view",
      "type": "function"
    },
    {
      "inputs": [],
      "name": "getCollateralToken",
      "outputs": [
        {
          "internalType": "contract IERC20Standard",
          "name": "",
          "type": "address"
        }
      ],
      "stateMutability": "view",
      "type": "function"
    },
    {
      "inputs": [
        {
          "internalType": "uint256",
          "name": "currentDebt",
          "type": "uint256"
        },
        {
          "internalType": "uint256",
          "name": "addCollateral",
          "type": "uint256"
        }
      ],
      "name": "getHealthFactor",
      "outputs": [
        {
          "internalType": "uint256",
          "name": "",
          "type": "uint256"
        }
      ],
      "stateMutability": "view",
      "type": "function"
    },
    {
      "inputs": [],
      "name": "getIsYeild",
      "outputs": [
        {
          "internalType": "bool",
          "name": "",
          "type": "bool"
        }
      ],
      "stateMutability": "view",
      "type": "function"
    },
    {
      "inputs": [
        {
          "internalType": "contract IERC20Standard",
          "name": "_coin",
          "type": "address"
        },
        {
          "internalType": "bool",
          "name": "isPool",
          "type": "bool"
        }
      ],
      "name": "getLatestPrice",
      "outputs": [
        {
          "internalType": "uint256",
          "name": "",
          "type": "uint256"
        }
      ],
      "stateMutability": "view",
      "type": "function"
    },
    {
      "inputs": [],
      "name": "getLoanInfo",
      "outputs": [
        {
          "components": [
            {
              "internalType": "uint256",
              "name": "loanId",
              "type": "uint256"
            },
            {
              "internalType": "bool",
              "name": "isPaid",
              "type": "bool"
            },
            {
              "internalType": "uint256",
              "name": "amount",
              "type": "uint256"
            },
            {
              "internalType": "bool",
              "name": "isClosed",
              "type": "bool"
            },
            {
              "internalType": "address",
              "name": "borrower",
              "type": "address"
            },
            {
              "internalType": "bool",
              "name": "isLiquidated",
              "type": "bool"
            },
            {
              "internalType": "contract IERC20Standard",
              "name": "stableCoin",
              "type": "address"
            },
            {
              "internalType": "bool",
              "name": "isFinalty",
              "type": "bool"
            },
            {
              "internalType": "bool",
              "name": "isFiat",
              "type": "bool"
            }
          ],
          "internalType": "struct DataTypes.Loan",
          "name": "",
          "type": "tuple"
        }
      ],
      "stateMutability": "view",
      "type": "function"
    },
    {
      "inputs": [
        {
          "internalType": "address",
          "name": "user",
          "type": "address"
        }
      ],
      "name": "getUserAccountData",
      "outputs": [
        {
          "internalType": "uint256",
          "name": "totalCollateralBase",
          "type": "uint256"
        },
        {
          "internalType": "uint256",
          "name": "totalDebtBase",
          "type": "uint256"
        },
        {
          "internalType": "uint256",
          "name": "availableBorrowsBase",
          "type": "uint256"
        },
        {
          "internalType": "uint256",
          "name": "currentLiquidationThreshold",
          "type": "uint256"
        },
        {
          "internalType": "uint256",
          "name": "ltv",
          "type": "uint256"
        },
        {
          "internalType": "uint256",
          "name": "healthFactor",
          "type": "uint256"
        }
      ],
      "stateMutability": "view",
      "type": "function"
    },
    {
      "inputs": [
        {
          "internalType": "uint256",
          "name": "_earnBorrower",
          "type": "uint256"
        }
      ],
      "name": "getYieldEarned",
      "outputs": [
        {
          "internalType": "uint256",
          "name": "",
          "type": "uint256"
        }
      ],
      "stateMutability": "view",
      "type": "function"
    },
    {
      "inputs": [],
      "name": "initLoan",
      "outputs": [
        {
          "internalType": "uint256",
          "name": "loanId",
          "type": "uint256"
        },
        {
          "internalType": "bool",
          "name": "isPaid",
          "type": "bool"
        },
        {
          "internalType": "uint256",
          "name": "amount",
          "type": "uint256"
        },
        {
          "internalType": "bool",
          "name": "isClosed",
          "type": "bool"
        },
        {
          "internalType": "address",
          "name": "borrower",
          "type": "address"
        },
        {
          "internalType": "bool",
          "name": "isLiquidated",
          "type": "bool"
        },
        {
          "internalType": "contract IERC20Standard",
          "name": "stableCoin",
          "type": "address"
        },
        {
          "internalType": "bool",
          "name": "isFinalty",
          "type": "bool"
        },
        {
          "internalType": "bool",
          "name": "isFiat",
          "type": "bool"
        }
      ],
      "stateMutability": "view",
      "type": "function"
    },
    {
      "inputs": [
        {
          "components": [
            {
              "internalType": "uint256",
              "name": "loanId",
              "type": "uint256"
            },
            {
              "internalType": "bool",
              "name": "isPaid",
              "type": "bool"
            },
            {
              "internalType": "uint256",
              "name": "amount",
              "type": "uint256"
            },
            {
              "internalType": "bool",
              "name": "isClosed",
              "type": "bool"
            },
            {
              "internalType": "address",
              "name": "borrower",
              "type": "address"
            },
            {
              "internalType": "bool",
              "name": "isLiquidated",
              "type": "bool"
            },
            {
              "internalType": "contract IERC20Standard",
              "name": "stableCoin",
              "type": "address"
            },
            {
              "internalType": "bool",
              "name": "isFinalty",
              "type": "bool"
            },
            {
              "internalType": "bool",
              "name": "isFiat",
              "type": "bool"
            }
          ],
          "internalType": "struct DataTypes.Loan",
          "name": "_loan",
          "type": "tuple"
        },
        {
          "internalType": "contract IERC20Standard",
          "name": "_collateralToken",
          "type": "address"
        },
        {
          "internalType": "contract IPoolAddressesProvider",
          "name": "_aaveAddressProvider",
          "type": "address"
        },
        {
          "internalType": "contract IERC20Standard",
          "name": "_aToken",
          "type": "address"
        },
        {
          "internalType": "uint256",
          "name": "_ltv",
          "type": "uint256"
        },
        {
          "internalType": "uint256",
          "name": "_threshold",
          "type": "uint256"
        },
        {
          "internalType": "contract AggregatorV3Interface",
          "name": "_priceFeed",
          "type": "address"
        },
        {
          "internalType": "contract AggregatorV3Interface",
          "name": "_pricePoolFeed",
          "type": "address"
        },
        {
          "internalType": "contract IWETH",
          "name": "_iWETH",
          "type": "address"
        }
      ],
      "name": "initialize",
      "outputs": [],
      "stateMutability": "nonpayable",
      "type": "function"
    },
    {
      "inputs": [],
      "name": "isStakeAave",
      "outputs": [
        {
          "internalType": "bool",
          "name": "",
          "type": "bool"
        }
      ],
      "stateMutability": "view",
      "type": "function"
    },
    {
      "inputs": [
        {
          "internalType": "uint256",
          "name": "_currentDebt",
          "type": "uint256"
        }
      ],
      "name": "liquidate",
      "outputs": [
        {
          "internalType": "uint256",
          "name": "",
          "type": "uint256"
        },
        {
          "internalType": "uint256",
          "name": "",
          "type": "uint256"
        },
        {
          "internalType": "uint256",
          "name": "",
          "type": "uint256"
        },
        {
          "internalType": "uint256",
          "name": "",
          "type": "uint256"
        }
      ],
      "stateMutability": "nonpayable",
      "type": "function"
    },
    {
      "inputs": [],
      "name": "liquidationThreshold",
      "outputs": [
        {
          "internalType": "uint256",
          "name": "",
          "type": "uint256"
        }
      ],
      "stateMutability": "view",
      "type": "function"
    },
    {
      "inputs": [],
      "name": "owner",
      "outputs": [
        {
          "internalType": "address",
          "name": "",
          "type": "address"
        }
      ],
      "stateMutability": "view",
      "type": "function"
    },
    {
      "inputs": [],
      "name": "penaltyLender",
      "outputs": [
        {
          "internalType": "uint256",
          "name": "",
          "type": "uint256"
        }
      ],
      "stateMutability": "view",
      "type": "function"
    },
    {
      "inputs": [],
      "name": "penaltyLiquidator",
      "outputs": [
        {
          "internalType": "uint256",
          "name": "",
          "type": "uint256"
        }
      ],
      "stateMutability": "view",
      "type": "function"
    },
    {
      "inputs": [],
      "name": "penaltyPlatform",
      "outputs": [
        {
          "internalType": "uint256",
          "name": "",
          "type": "uint256"
        }
      ],
      "stateMutability": "view",
      "type": "function"
    },
    {
      "inputs": [],
      "name": "platform",
      "outputs": [
        {
          "internalType": "address",
          "name": "",
          "type": "address"
        }
      ],
      "stateMutability": "view",
      "type": "function"
    },
    {
      "inputs": [],
      "name": "priceFeed",
      "outputs": [
        {
          "internalType": "contract AggregatorV3Interface",
          "name": "",
          "type": "address"
        }
      ],
      "stateMutability": "view",
      "type": "function"
    },
    {
      "inputs": [],
      "name": "pricePoolFeed",
      "outputs": [
        {
          "internalType": "contract AggregatorV3Interface",
          "name": "",
          "type": "address"
        }
      ],
      "stateMutability": "view",
      "type": "function"
    },
    {
      "inputs": [],
      "name": "quoter",
      "outputs": [
        {
          "internalType": "contract IQuoterV2",
          "name": "",
          "type": "address"
        }
      ],
      "stateMutability": "view",
      "type": "function"
    },
    {
      "inputs": [
        {
          "internalType": "address",
          "name": "_ccfl",
          "type": "address"
        }
      ],
      "name": "setCCFL",
      "outputs": [],
      "stateMutability": "nonpayable",
      "type": "function"
    },
    {
      "inputs": [
        {
          "internalType": "uint256",
          "name": "_borrower",
          "type": "uint256"
        },
        {
          "internalType": "uint256",
          "name": "_platform",
          "type": "uint256"
        },
        {
          "internalType": "uint256",
          "name": "_lender",
          "type": "uint256"
        }
      ],
      "name": "setEarnShare",
      "outputs": [],
      "stateMutability": "nonpayable",
      "type": "function"
    },
    {
      "inputs": [],
      "name": "setPaid",
      "outputs": [],
      "stateMutability": "nonpayable",
      "type": "function"
    },
    {
      "inputs": [
        {
          "internalType": "uint256",
          "name": "_platform",
          "type": "uint256"
        },
        {
          "internalType": "uint256",
          "name": "_liquidator",
          "type": "uint256"
        },
        {
          "internalType": "uint256",
          "name": "_lender",
          "type": "uint256"
        }
      ],
      "name": "setPenalty",
      "outputs": [],
      "stateMutability": "nonpayable",
      "type": "function"
    },
    {
      "inputs": [
        {
          "internalType": "contract IV3SwapRouter",
          "name": "_swapRouter",
          "type": "address"
        },
        {
          "internalType": "contract IUniswapV3Factory",
          "name": "_factory",
          "type": "address"
        },
        {
          "internalType": "contract IQuoterV2",
          "name": "_quoter",
          "type": "address"
        }
      ],
      "name": "setSwapRouter",
      "outputs": [],
      "stateMutability": "nonpayable",
      "type": "function"
    },
    {
      "inputs": [],
      "name": "shareBorrower",
      "outputs": [
        {
          "internalType": "uint256",
          "name": "",
          "type": "uint256"
        }
      ],
      "stateMutability": "view",
      "type": "function"
    },
    {
      "inputs": [],
      "name": "shareLender",
      "outputs": [
        {
          "internalType": "uint256",
          "name": "",
          "type": "uint256"
        }
      ],
      "stateMutability": "view",
      "type": "function"
    },
    {
      "inputs": [],
      "name": "sharePlatform",
      "outputs": [
        {
          "internalType": "uint256",
          "name": "",
          "type": "uint256"
        }
      ],
      "stateMutability": "view",
      "type": "function"
    },
    {
      "inputs": [],
      "name": "supplyLiquidity",
      "outputs": [],
      "stateMutability": "nonpayable",
      "type": "function"
    },
    {
      "inputs": [],
      "name": "swapRouter",
      "outputs": [
        {
          "internalType": "contract IV3SwapRouter",
          "name": "",
          "type": "address"
        }
      ],
      "stateMutability": "view",
      "type": "function"
    },
    {
      "inputs": [
        {
          "internalType": "uint256",
          "name": "amount",
          "type": "uint256"
        }
      ],
      "name": "updateCollateral",
      "outputs": [],
      "stateMutability": "nonpayable",
      "type": "function"
    },
    {
      "inputs": [],
      "name": "wETH",
      "outputs": [
        {
          "internalType": "contract IWETH",
          "name": "",
          "type": "address"
        }
      ],
      "stateMutability": "view",
      "type": "function"
    },
    {
      "inputs": [
        {
          "internalType": "address",
          "name": "_receiver",
          "type": "address"
        },
        {
          "internalType": "bool",
          "name": "_isETH",
          "type": "bool"
        }
      ],
      "name": "withdrawAllCollateral",
      "outputs": [],
      "stateMutability": "nonpayable",
      "type": "function"
    },
    {
      "inputs": [
        {
          "internalType": "uint256",
          "name": "_earnPlatform",
          "type": "uint256"
        },
        {
          "internalType": "uint256",
          "name": "_earnBorrower",
          "type": "uint256"
        },
        {
          "internalType": "uint256",
          "name": "_earnLender",
          "type": "uint256"
        }
      ],
      "name": "withdrawLiquidity",
      "outputs": [],
      "stateMutability": "nonpayable",
      "type": "function"
    },
    {
      "stateMutability": "payable",
      "type": "receive"
    }
  ],
  "bytecode": "0x608060405234801561001057600080fd5b506132de806100206000396000f3fe6080604052600436106103225760003560e01c806369fa97c0116101a5578063a58bab62116100ec578063c45a015511610095578063f24286211161006f578063f242862114610a46578063f3cf4ada14610a66578063f6597bbb14610a86578063fab320e914610a9c57600080fd5b8063c45a0155146109e6578063c6bbd5a714610a06578063cdaabe4114610a2657600080fd5b8063b3bffeaa116100c6578063b3bffeaa14610959578063bf92857c14610979578063c31c9c07146109c657600080fd5b8063a58bab621461090d578063a95d713214610923578063b2016bd41461093957600080fd5b8063894059c61161014e57806392d09ceb1161012857806392d09ceb146108b957806396423663146108cf578063a0c1f15e146108ed57600080fd5b8063894059c6146108595780638ac1b775146108795780638da5cb5b1461089957600080fd5b8063741bef1a1161017f578063741bef1a14610774578063792f436f146107945780637ce67d60146107aa57600080fd5b806369fa97c01461070a5780636cb0ab5e1461072a57806372f5d98a1461074a57600080fd5b80633a0720e61161026957806358b275d7116102125780636721de26116101ec5780636721de26146106aa57806368b86bc2146106ca57806368dcad58146106ea57600080fd5b806358b275d7146105835780635d3e2fa1146105a357806362965d8e1461069457600080fd5b80634bde38c8116102435780634bde38c81461050b5780634d2c872a146105435780635825f5351461056357600080fd5b80633a0720e61461049f5780634031234c146104b5578063415f1240146104cb57600080fd5b80631c783def116102cb578063315deeaa116102a5578063315deeaa1461045457806332df398e146104695780633666eefa1461047f57600080fd5b80631c783def146103f5578063232fa73314610414578063288cc89e1461043e57600080fd5b8063102cb82e116102fc578063102cb82e1461038457806310ac5c3c146103a457806311256603146103c457600080fd5b806305b57c0b1461032e57806307a6bf6914610357578063101b9d311461036e57600080fd5b3661032957005b600080fd5b34801561033a57600080fd5b5061034460195481565b6040519081526020015b60405180910390f35b34801561036357600080fd5b5061036c610ab1565b005b34801561037a57600080fd5b50610344601c5481565b34801561039057600080fd5b5061036c61039f366004612ba9565b610d9b565b3480156103b057600080fd5b5061036c6103bf366004612be2565b6110db565b3480156103d057600080fd5b506002546103e590600160a01b900460ff1681565b604051901515815260200161034e565b34801561040157600080fd5b50600254600160a01b900460ff166103e5565b34801561042057600080fd5b5061042961116c565b6040805192835260208301919091520161034e565b34801561044a57600080fd5b5061034460175481565b34801561046057600080fd5b50600854610344565b34801561047557600080fd5b5061034460145481565b34801561048b57600080fd5b5061042961049a366004612c2d565b6113a6565b3480156104ab57600080fd5b5061034460165481565b3480156104c157600080fd5b5061034460065481565b3480156104d757600080fd5b506104eb6104e6366004612c2d565b6114e1565b60408051948552602085019390935291830152606082015260800161034e565b34801561051757600080fd5b5060125461052b906001600160a01b031681565b6040516001600160a01b03909116815260200161034e565b34801561054f57600080fd5b5061034461055e366004612c46565b611644565b34801561056f57600080fd5b5060115461052b906001600160a01b031681565b34801561058f57600080fd5b506104eb61059e366004612c46565b611810565b3480156105af57600080fd5b506106876040805161012081018252600080825260208201819052918101829052606081018290526080810182905260a0810182905260c0810182905260e08101829052610100810191909152506040805161012081018252600a548152600b5460ff90811615156020830152600c5492820192909252600d54808316151560608301526001600160a01b0361010080830482166080850152600160a81b928390048516151560a0850152600e5491821660c0850152600160a01b82048516151560e085015291900490921615159181019190915290565b60405161034e9190612c68565b3480156106a057600080fd5b5061034460075481565b3480156106b657600080fd5b5061036c6106c5366004612c2d565b611902565b3480156106d657600080fd5b5061036c6106e5366004612d3e565b611961565b3480156106f657600080fd5b5060105461052b906001600160a01b031681565b34801561071657600080fd5b50610344610725366004612c2d565b611cd0565b34801561073657600080fd5b5061036c610745366004612e79565b611d74565b34801561075657600080fd5b50610760610bb881565b60405162ffffff909116815260200161034e565b34801561078057600080fd5b50600f5461052b906001600160a01b031681565b3480156107a057600080fd5b5061034460185481565b3480156107b657600080fd5b50600a54600b54600c54600d54600e54610806949360ff9081169392808216926001600160a01b036101008304811693600160a81b9384900481169391831692600160a01b810482169290041689565b60408051998a5297151560208a01529688019590955292151560608701526001600160a01b039182166080870152151560a08601521660c0840152151560e083015215156101008201526101200161034e565b34801561086557600080fd5b5061036c610874366004612e79565b611dc7565b34801561088557600080fd5b5061036c610894366004612ea5565b612149565b3480156108a557600080fd5b5060005461052b906001600160a01b031681565b3480156108c557600080fd5b5061034460085481565b3480156108db57600080fd5b506009546001600160a01b031661052b565b3480156108f957600080fd5b5060025461052b906001600160a01b031681565b34801561091957600080fd5b50610344601b5481565b34801561092f57600080fd5b5061034460155481565b34801561094557600080fd5b5060095461052b906001600160a01b031681565b34801561096557600080fd5b50610344610974366004612ba9565b6121bd565b34801561098557600080fd5b50610999610994366004612ea5565b6122b4565b604080519687526020870195909552938501929092526060840152608083015260a082015260c00161034e565b3480156109d257600080fd5b5060035461052b906001600160a01b031681565b3480156109f257600080fd5b5060045461052b906001600160a01b031681565b348015610a1257600080fd5b5060055461052b906001600160a01b031681565b348015610a3257600080fd5b5060015461052b906001600160a01b031681565b348015610a5257600080fd5b5060135461052b906001600160a01b031681565b348015610a7257600080fd5b5061036c610a81366004612e79565b6123d2565b348015610a9257600080fd5b50610344601a5481565b348015610aa857600080fd5b5061036c612422565b6000546040805180820190915260018152601960f91b6020820152906001600160a01b03163314610afe5760405162461bcd60e51b8152600401610af59190612eed565b60405180910390fd5b506009546040516370a0823160e01b81523060048201526001600160a01b039091169060009082906370a0823190602401602060405180830381865afa158015610b4c573d6000803e3d6000fd5b505050506040513d601f19601f82011682018060405250810190610b709190612f20565b90506000811160405180604001604052806002815260200161031360f41b81525090610baf5760405162461bcd60e51b8152600401610af59190612eed565b506000309050600080600160009054906101000a90046001600160a01b03166001600160a01b031663026b1d5f6040518163ffffffff1660e01b8152600401602060405180830381865afa158015610c0b573d6000803e3d6000fd5b505050506040513d601f19601f82011682018060405250810190610c2f9190612f39565b60405163095ea7b360e01b81526001600160a01b038083166004830152602482018790529192509086169063095ea7b3906044016020604051808303816000875af1158015610c82573d6000803e3d6000fd5b505050506040513d601f19601f82011682018060405250810190610ca69190612f56565b506040517f617ba0370000000000000000000000000000000000000000000000000000000081526001600160a01b03868116600483015260248201869052848116604483015261ffff8416606483015282169063617ba03790608401600060405180830381600087803b158015610d1c57600080fd5b505af1158015610d30573d6000803e3d6000fd5b50505050846001600160a01b0316836001600160a01b03167f51a2b359618aeb0bcc2a495a6667c0bdbfddc3bb27eb0dd5b8e3b33a4c15865f86604051610d7991815260200190565b60405180910390a350506002805460ff60a01b1916600160a01b179055505050565b6000546040805180820190915260018152601960f91b6020820152906001600160a01b03163314610ddf5760405162461bcd60e51b8152600401610af59190612eed565b50600d5460ff1615156001148015610e015750600e54600160a01b900460ff16155b6040518060400160405280600281526020017f313200000000000000000000000000000000000000000000000000000000000081525090610e555760405162461bcd60e51b8152600401610af59190612eed565b508015610fc5576013546009546040516370a0823160e01b81523060048201526001600160a01b0392831692632e1a7d4d9216906370a0823190602401602060405180830381865afa158015610eaf573d6000803e3d6000fd5b505050506040513d601f19601f82011682018060405250810190610ed39190612f20565b6040518263ffffffff1660e01b8152600401610ef191815260200190565b600060405180830381600087803b158015610f0b57600080fd5b505af1158015610f1f573d6000803e3d6000fd5b50506009546040516370a0823160e01b81523060048201526001600160a01b0386811694506108fc9350909116906370a0823190602401602060405180830381865afa158015610f73573d6000803e3d6000fd5b505050506040513d601f19601f82011682018060405250810190610f979190612f20565b6040518115909202916000818181858888f19350505050158015610fbf573d6000803e3d6000fd5b506110c4565b6009546040516370a0823160e01b81523060048201526001600160a01b039091169063a9059cbb90849083906370a0823190602401602060405180830381865afa158015611017573d6000803e3d6000fd5b505050506040513d601f19601f8201168201806040525081019061103b9190612f20565b6040517fffffffff0000000000000000000000000000000000000000000000000000000060e085901b1681526001600160a01b03909216600483015260248201526044016020604051808303816000875af115801561109e573d6000803e3d6000fd5b505050506040513d601f19601f820116820180604052508101906110c29190612f56565b505b5050600e805460ff60a01b1916600160a01b179055565b6000546040805180820190915260018152601960f91b6020820152906001600160a01b0316331461111f5760405162461bcd60e51b8152600401610af59190612eed565b50600380546001600160a01b0394851673ffffffffffffffffffffffffffffffffffffffff1991821617909155600480549385169382169390931790925560058054919093169116179055565b600080546040805180820190915260018152601960f91b602082015282916001600160a01b031633146111b25760405162461bcd60e51b8152600401610af59190612eed565b50600d805460ff19166001179055600254600160a01b900460ff16156111e3576111e3601454601554601654611dc7565b60006017546018546111f59190612f89565b111561139b576009546003546017546018546001600160a01b039384169363095ea7b393169161122491612f89565b6040517fffffffff0000000000000000000000000000000000000000000000000000000060e085901b1681526001600160a01b03909216600483015260248201526044016020604051808303816000875af1158015611287573d6000803e3d6000fd5b505050506040513d601f19601f820116820180604052508101906112ab9190612f56565b5060006112d96017546018546112c19190612f89565b600e546009546001600160a01b039182169116612476565b600e5460115460405163095ea7b360e01b81526001600160a01b03918216600482015260248101849052929350169063095ea7b3906044016020604051808303816000875af1158015611330573d6000803e3d6000fd5b505050506040513d601f19601f820116820180604052508101906113549190612f56565b5060006014546016546113679190612f89565b826016546113759190612f9c565b61137f9190612fb3565b9050600061138d8284612fd5565b9194509092506113a2915050565b5060009050805b9091565b6000806000601a54601b54601c546113be9190612f89565b6113c89190612f89565b90506000806017546018546113dd9190612f89565b11156114115761140e6017546018546113f69190612f89565b600954600e546001600160a01b039182169116612651565b90505b60006127106114208488612f9c565b61142a9190612fb3565b90506000826114398389612f89565b6114439190612f89565b6009546040516370a0823160e01b81523060048201529192506000916114d39184916001600160a01b03909116906370a0823190602401602060405180830381865afa158015611497573d6000803e3d6000fd5b505050506040513d601f19601f820116820180604052508101906114bb9190612f20565b600e546009546001600160a01b03918216911661283a565b989397509295505050505050565b600080546040805180820190915260018152601960f91b60208201528291829182916001600160a01b0316331461152b5760405162461bcd60e51b8152600401610af59190612eed565b50600254600160a01b900460ff161561154f5761154f601454601554601654611dc7565b60008061155b876113a6565b9150915060008060008061156f8b86611810565b600d80547fffffffffffffffffffff00ffffffffffffffffffffffffffffffffffffffff00167501000000000000000000000000000000000000000001179055600e5460115460405163095ea7b360e01b81526001600160a01b039182166004820152602481018d90529599509397509195509350169063095ea7b3906044016020604051808303816000875af115801561160e573d6000803e3d6000fd5b505050506040513d601f19601f820116820180604052508101906116329190612f56565b50929a91995097509095509350505050565b600e546000908190611660906001600160a01b031660016121bd565b9050600080846008546116739190612f89565b6009549091506001600160a01b031681156117415760006116958260006121bd565b9050816001600160a01b031663313ce5676040518163ffffffff1660e01b8152600401602060405180830381865afa1580156116d5573d6000803e3d6000fd5b505050506040513d601f19601f820116820180604052508101906116f99190612fe8565b61170490600a6130ef565b600654612710906117158487612f9c565b61171f9190612f9c565b6117299190612fb3565b6117339190612fb3565b61173d9085612f89565b9350505b600e54604080517f313ce56700000000000000000000000000000000000000000000000000000000815290516000926001600160a01b03169163313ce5679160048281019260209291908290030181865afa1580156117a4573d6000803e3d6000fd5b505050506040513d601f19601f820116820180604052508101906117c89190612fe8565b6117d390600a6130ef565b6117dd868a612f9c565b6117e79190612fb3565b90506000816117f7866064612f9c565b6118019190612fb3565b96505050505050505b92915050565b6000806000806000601a54601b54601c5461182b9190612f89565b6118359190612f89565b90506000612710611846838a612f9c565b6118509190612fb3565b9050600082601c54836118639190612f9c565b61186d9190612fb3565b9050600083601a54846118809190612f9c565b61188a9190612fb3565b90506000816118998486612fd5565b6118a39190612fd5565b905060006014546016546118b79190612f89565b6016546118c4908d612f9c565b6118ce9190612fb3565b905060006118dc828d612fd5565b905084826118ea8387612f89565b919f909e50909c50929a509198505050505050505050565b6000546040805180820190915260018152601960f91b6020820152906001600160a01b031633146119465760405162461bcd60e51b8152600401610af59190612eed565b5080600860008282546119599190612f89565b909155505050565b7ff0c57e16840df040f15088dc2f81fe391c3923bec73e23a9662efc9c229c6a00805468010000000000000000810460ff16159067ffffffffffffffff166000811580156119ac5750825b905060008267ffffffffffffffff1660011480156119c95750303b155b9050811580156119d7575080155b15611a0e576040517ff92ee8a900000000000000000000000000000000000000000000000000000000815260040160405180910390fd5b845467ffffffffffffffff191660011785558315611a4257845468ff00000000000000001916680100000000000000001785555b336000806101000a8154816001600160a01b0302191690836001600160a01b031602179055508d600a6000820151816000015560208201518160010160006101000a81548160ff0219169083151502179055506040820151816002015560608201518160030160006101000a81548160ff02191690831515021790555060808201518160030160016101000a8154816001600160a01b0302191690836001600160a01b0316021790555060a08201518160030160156101000a81548160ff02191690831515021790555060c08201518160040160006101000a8154816001600160a01b0302191690836001600160a01b0316021790555060e08201518160040160146101000a81548160ff0219169083151502179055506101008201518160040160156101000a81548160ff0219169083151502179055509050508c600960006101000a8154816001600160a01b0302191690836001600160a01b031602179055508b600160006101000a8154816001600160a01b0302191690836001600160a01b0316021790555089600781905550886006819055508a600260006101000a8154816001600160a01b0302191690836001600160a01b0316021790555087600f60006101000a8154816001600160a01b0302191690836001600160a01b0316021790555086601060006101000a8154816001600160a01b0302191690836001600160a01b0316021790555085601360006101000a8154816001600160a01b0302191690836001600160a01b031602179055508315611cc057845468ff000000000000000019168555604051600181527fc7f505b2f371ae2175ee4913f4499e1f2633a7b5936321eed1cdaeb6115181d29060200160405180910390a15b5050505050505050505050505050565b6002546040516370a0823160e01b815230600482015260009182916001600160a01b03909116906370a0823190602401602060405180830381865afa158015611d1d573d6000803e3d6000fd5b505050506040513d601f19601f82011682018060405250810190611d419190612f20565b9050600060085482611d539190612fd5565b9050612710611d628583612f9c565b611d6c9190612fb3565b949350505050565b6000546040805180820190915260018152601960f91b6020820152906001600160a01b03163314611db85760405162461bcd60e51b8152600401610af59190612eed565b50601655601591909155601455565b6000546040805180820190915260018152601960f91b6020820152906001600160a01b03163314611e0b5760405162461bcd60e51b8152600401610af59190612eed565b506009546002546040516370a0823160e01b81523060048201526001600160a01b039283169260009216906370a0823190602401602060405180830381865afa158015611e5c573d6000803e3d6000fd5b505050506040513d601f19601f82011682018060405250810190611e809190612f20565b90506000811160405180604001604052806002815260200161031360f41b81525090611ebf5760405162461bcd60e51b8152600401610af59190612eed565b50600154604080517f026b1d5f00000000000000000000000000000000000000000000000000000000815290516000926001600160a01b03169163026b1d5f9160048083019260209291908290030181865afa158015611f23573d6000803e3d6000fd5b505050506040513d601f19601f82011682018060405250810190611f479190612f39565b6040517f69328dec0000000000000000000000000000000000000000000000000000000081526001600160a01b03858116600483015260248201859052306044830152919250908216906369328dec906064016020604051808303816000875af1158015611fb9573d6000803e3d6000fd5b505050506040513d601f19601f82011682018060405250810190611fdd9190612f20565b506040518281526001600160a01b0384169030907f83aa598dd3e269af677698c6847b3ba594a67d286a771d01099aafa911a91b649060200160405180910390a36002805460ff60a01b191690556009546040516370a0823160e01b81523060048201526000916001600160a01b0316906370a0823190602401602060405180830381865afa158015612074573d6000803e3d6000fd5b505050506040513d601f19601f820116820180604052508101906120989190612f20565b90506000600854826120aa9190612fd5565b11156121405761271086600854836120c29190612fd5565b6120cc9190612f9c565b6120d69190612fb3565b6019556120e38786612f89565b87601954600854846120f59190612fd5565b6120ff9190612fd5565b6121099190612f9c565b6121139190612fb3565b60178190556019546008546121289084612fd5565b6121329190612fd5565b61213c9190612fd5565b6018555b50505050505050565b6000546040805180820190915260018152601960f91b6020820152906001600160a01b0316331461218d5760405162461bcd60e51b8152600401610af59190612eed565b506011805473ffffffffffffffffffffffffffffffffffffffff19166001600160a01b0392909216919091179055565b60008115158103612259576000806000806000600f60009054906101000a90046001600160a01b03166001600160a01b031663feaf968c6040518163ffffffff1660e01b815260040160a060405180830381865afa158015612223573d6000803e3d6000fd5b505050506040513d601f19601f820116820180604052508101906122479190613118565b5091985061180a975050505050505050565b6000806000806000601060009054906101000a90046001600160a01b03166001600160a01b031663feaf968c6040518163ffffffff1660e01b815260040160a060405180830381865afa158015612223573d6000803e3d6000fd5b6000806000806000806000600160009054906101000a90046001600160a01b03166001600160a01b031663026b1d5f6040518163ffffffff1660e01b8152600401602060405180830381865afa158015612312573d6000803e3d6000fd5b505050506040513d601f19601f820116820180604052508101906123369190612f39565b6040517fbf92857c0000000000000000000000000000000000000000000000000000000081526001600160a01b038a811660048301529192509082169063bf92857c9060240160c060405180830381865afa158015612399573d6000803e3d6000fd5b505050506040513d601f19601f820116820180604052508101906123bd9190613168565b949d939c50919a509850965090945092505050565b6000546040805180820190915260018152601960f91b6020820152906001600160a01b031633146124165760405162461bcd60e51b8152600401610af59190612eed565b50601c55601b55601a55565b6000546040805180820190915260018152601960f91b6020820152906001600160a01b031633146124665760405162461bcd60e51b8152600401610af59190612eed565b50600b805460ff19166001179055565b6003546000906124919083906001600160a01b031686612a38565b60048054604051630b4c774160e11b81526001600160a01b03858116938201939093528583166024820152610bb8604482015260009290911690631698ee8290606401602060405180830381865afa1580156124f1573d6000803e3d6000fd5b505050506040513d601f19601f820116820180604052508101906125159190612f39565b90506000816001600160a01b031663ddca3f436040518163ffffffff1660e01b8152600401602060405180830381865afa158015612557573d6000803e3d6000fd5b505050506040513d601f19601f8201168201806040525081019061257b91906131b2565b6040805160e0810182526001600160a01b038088168252888116602083015262ffffff841682840152306060830152608082018a9052600060a0830181905260c083015260035492517f04e45aaf00000000000000000000000000000000000000000000000000000000815293945090929116906304e45aaf906126039084906004016131d7565b6020604051808303816000875af1158015612622573d6000803e3d6000fd5b505050506040513d601f19601f820116820180604052508101906126469190612f20565b979650505050505050565b60048054604051630b4c774160e11b81526001600160a01b03848116938201939093528483166024820152610bb8604482015260009283921690631698ee8290606401602060405180830381865afa1580156126b1573d6000803e3d6000fd5b505050506040513d601f19601f820116820180604052508101906126d59190612f39565b90506000816001600160a01b031663ddca3f436040518163ffffffff1660e01b8152600401602060405180830381865afa158015612717573d6000803e3d6000fd5b505050506040513d601f19601f8201168201806040525081019061273b91906131b2565b6040805160a0810182526001600160a01b038781168252888116602083019081528284018b815262ffffff8681166060860190815260006080870181815260055498517fc6a5026a0000000000000000000000000000000000000000000000000000000081528851881660048201529551871660248701529351604486015290519091166064840152905183166084830152949550919392839283928392169063c6a5026a9060a4016080604051808303816000875af1158015612803573d6000803e3d6000fd5b505050506040513d601f19601f82011682018060405250810190612827919061323a565b50919d9c50505050505050505050505050565b6003546000906128559083906001600160a01b031686612a38565b60048054604051630b4c774160e11b81526001600160a01b03858116938201939093528583166024820152610bb8604482015260009290911690631698ee8290606401602060405180830381865afa1580156128b5573d6000803e3d6000fd5b505050506040513d601f19601f820116820180604052508101906128d99190612f39565b90506000816001600160a01b031663ddca3f436040518163ffffffff1660e01b8152600401602060405180830381865afa15801561291b573d6000803e3d6000fd5b505050506040513d601f19601f8201168201806040525081019061293f91906131b2565b6040805160e0810182526001600160a01b038088168252888116602083015262ffffff841682840152306060830152608082018b905260a082018a9052600060c083015260035492517f5023b4df0000000000000000000000000000000000000000000000000000000081529394509092911690635023b4df906129c79084906004016131d7565b6020604051808303816000875af11580156129e6573d6000803e3d6000fd5b505050506040513d601f19601f82011682018060405250810190612a0a9190612f20565b935086841015612a2d57600354612a2d9086906001600160a01b03166000612a38565b505050949350505050565b604080516001600160a01b038481166024830152604480830185905283518084039091018152606490920183526020820180517bffffffffffffffffffffffffffffffffffffffffffffffffffffffff1663095ea7b360e01b1790529151600092839290871691612aa9919061328c565b6000604051808303816000865af19150503d8060008114612ae6576040519150601f19603f3d011682016040523d82523d6000602084013e612aeb565b606091505b5091509150818015612b15575080511580612b15575080806020019051810190612b159190612f56565b612b615760405162461bcd60e51b815260206004820152600260248201527f53410000000000000000000000000000000000000000000000000000000000006044820152606401610af5565b5050505050565b6001600160a01b0381168114612b7d57600080fd5b50565b8035612b8b81612b68565b919050565b8015158114612b7d57600080fd5b8035612b8b81612b90565b60008060408385031215612bbc57600080fd5b8235612bc781612b68565b91506020830135612bd781612b90565b809150509250929050565b600080600060608486031215612bf757600080fd5b8335612c0281612b68565b92506020840135612c1281612b68565b91506040840135612c2281612b68565b809150509250925092565b600060208284031215612c3f57600080fd5b5035919050565b60008060408385031215612c5957600080fd5b50508035926020909101359150565b60006101208201905082518252602083015115156020830152604083015160408301526060830151151560608301526080830151612cb160808401826001600160a01b03169052565b5060a0830151612cc560a084018215159052565b5060c0830151612ce060c08401826001600160a01b03169052565b5060e0830151612cf460e084018215159052565b50610100928301511515919092015290565b604051610120810167ffffffffffffffff81118282101715612d3857634e487b7160e01b600052604160045260246000fd5b60405290565b6000806000806000806000806000898b03610220811215612d5e57600080fd5b61012080821215612d6e57600080fd5b612d76612d06565b91508b358252612d8860208d01612b9e565b602083015260408c01356040830152612da360608d01612b9e565b6060830152612db460808d01612b80565b6080830152612dc560a08d01612b9e565b60a0830152612dd660c08d01612b80565b60c0830152612de760e08d01612b9e565b60e0830152610100612dfa818e01612b9e565b8184015250819a50612e0d818d01612b80565b99505050612e1e6101408b01612b80565b9650612e2d6101608b01612b80565b95506101808a013594506101a08a01359350612e4c6101c08b01612b80565b9250612e5b6101e08b01612b80565b9150612e6a6102008b01612b80565b90509295985092959850929598565b600080600060608486031215612e8e57600080fd5b505081359360208301359350604090920135919050565b600060208284031215612eb757600080fd5b8135612ec281612b68565b9392505050565b60005b83811015612ee4578181015183820152602001612ecc565b50506000910152565b6020815260008251806020840152612f0c816040850160208701612ec9565b601f01601f19169190910160400192915050565b600060208284031215612f3257600080fd5b5051919050565b600060208284031215612f4b57600080fd5b8151612ec281612b68565b600060208284031215612f6857600080fd5b8151612ec281612b90565b634e487b7160e01b600052601160045260246000fd5b8082018082111561180a5761180a612f73565b808202811582820484141761180a5761180a612f73565b600082612fd057634e487b7160e01b600052601260045260246000fd5b500490565b8181038181111561180a5761180a612f73565b600060208284031215612ffa57600080fd5b815160ff81168114612ec257600080fd5b600181815b8085111561304657816000190482111561302c5761302c612f73565b8085161561303957918102915b93841c9390800290613010565b509250929050565b60008261305d5750600161180a565b8161306a5750600061180a565b8160018114613080576002811461308a576130a6565b600191505061180a565b60ff84111561309b5761309b612f73565b50506001821b61180a565b5060208310610133831016604e8410600b84101617156130c9575081810a61180a565b6130d3838361300b565b80600019048211156130e7576130e7612f73565b029392505050565b6000612ec260ff84168361304e565b805169ffffffffffffffffffff81168114612b8b57600080fd5b600080600080600060a0868803121561313057600080fd5b613139866130fe565b945060208601519350604086015192506060860151915061315c608087016130fe565b90509295509295909350565b60008060008060008060c0878903121561318157600080fd5b865195506020870151945060408701519350606087015192506080870151915060a087015190509295509295509295565b6000602082840312156131c457600080fd5b815162ffffff81168114612ec257600080fd5b60e0810161180a82846001600160a01b0380825116835280602083015116602084015262ffffff60408301511660408401528060608301511660608401526080820151608084015260a082015160a08401528060c08301511660c0840152505050565b6000806000806080858703121561325057600080fd5b84519350602085015161326281612b68565b604086015190935063ffffffff8116811461327c57600080fd5b6060959095015193969295505050565b6000825161329e818460208701612ec9565b919091019291505056fea26469706673582212207f072f7b7563174f78e86f75e0bbca45df95173fcbadcc33e563cc696530ce0664736f6c63430008180033",
  "linkReferences": {},
  "deployedLinkReferences": {}
}