{
  "_format": "hh-sol-artifact-1",
  "contractName": "CCFLLoan",
  "sourceName": "contracts/CCFLLoan.sol",
  "abi": [
    {
      "inputs": [],
      "stateMutability": "nonpayable",
      "type": "constructor"
    },
    {
      "inputs": [],
      "name": "InvalidInitialization",
      "type": "error"
    },
    {
      "inputs": [],
      "name": "NotInitializing",
      "type": "error"
    },
    {
      "anonymous": false,
      "inputs": [
        {
          "indexed": false,
          "internalType": "uint64",
          "name": "version",
          "type": "uint64"
        }
      ],
      "name": "Initialized",
      "type": "event"
    },
    {
      "anonymous": false,
      "inputs": [
        {
          "indexed": true,
          "internalType": "address",
          "name": "onBehalfOf",
          "type": "address"
        },
        {
          "indexed": true,
          "internalType": "address",
          "name": "_token",
          "type": "address"
        },
        {
          "indexed": false,
          "internalType": "uint256",
          "name": "_amount",
          "type": "uint256"
        },
        {
          "indexed": false,
          "internalType": "uint256",
          "name": "timestamp",
          "type": "uint256"
        }
      ],
      "name": "LiquiditySupplied",
      "type": "event"
    },
    {
      "anonymous": false,
      "inputs": [
        {
          "indexed": true,
          "internalType": "address",
          "name": "to",
          "type": "address"
        },
        {
          "indexed": true,
          "internalType": "address",
          "name": "_token",
          "type": "address"
        },
        {
          "indexed": false,
          "internalType": "uint256",
          "name": "_amount",
          "type": "uint256"
        },
        {
          "indexed": false,
          "internalType": "uint256",
          "name": "timestamp",
          "type": "uint256"
        }
      ],
      "name": "LiquidityWithdrawn",
      "type": "event"
    },
    {
      "inputs": [],
      "name": "LTV",
      "outputs": [
        {
          "internalType": "uint256",
          "name": "",
          "type": "uint256"
        }
      ],
      "stateMutability": "view",
      "type": "function"
    },
    {
      "inputs": [],
      "name": "aToken",
      "outputs": [
        {
          "internalType": "contract IERC20Standard",
          "name": "",
          "type": "address"
        }
      ],
      "stateMutability": "view",
      "type": "function"
    },
    {
      "inputs": [],
      "name": "aaveAddressProvider",
      "outputs": [
        {
          "internalType": "contract IPoolAddressesProvider",
          "name": "",
          "type": "address"
        }
      ],
      "stateMutability": "view",
      "type": "function"
    },
    {
      "inputs": [],
      "name": "ccfl",
      "outputs": [
        {
          "internalType": "address",
          "name": "",
          "type": "address"
        }
      ],
      "stateMutability": "view",
      "type": "function"
    },
    {
      "inputs": [],
      "name": "closeLoan",
      "outputs": [],
      "stateMutability": "nonpayable",
      "type": "function"
    },
    {
      "inputs": [],
      "name": "collateralAmount",
      "outputs": [
        {
          "internalType": "uint256",
          "name": "",
          "type": "uint256"
        }
      ],
      "stateMutability": "view",
      "type": "function"
    },
    {
      "inputs": [],
      "name": "collateralToken",
      "outputs": [
        {
          "internalType": "contract IERC20Standard",
          "name": "",
          "type": "address"
        }
      ],
      "stateMutability": "view",
      "type": "function"
    },
    {
      "inputs": [],
      "name": "earnSharePercent",
      "outputs": [
        {
          "internalType": "uint256",
          "name": "",
          "type": "uint256"
        }
      ],
      "stateMutability": "view",
      "type": "function"
    },
    {
      "inputs": [],
      "name": "factory",
      "outputs": [
        {
          "internalType": "contract IUniswapV3Factory",
          "name": "",
          "type": "address"
        }
      ],
      "stateMutability": "view",
      "type": "function"
    },
    {
      "inputs": [],
      "name": "feeTier",
      "outputs": [
        {
          "internalType": "uint24",
          "name": "",
          "type": "uint24"
        }
      ],
      "stateMutability": "view",
      "type": "function"
    },
    {
      "inputs": [
        {
          "internalType": "uint256",
          "name": "currentDebt",
          "type": "uint256"
        },
        {
          "internalType": "uint256",
          "name": "addCollateral",
          "type": "uint256"
        }
      ],
      "name": "getHealthFactor",
      "outputs": [
        {
          "internalType": "uint256",
          "name": "",
          "type": "uint256"
        }
      ],
      "stateMutability": "view",
      "type": "function"
    },
    {
      "inputs": [],
      "name": "getIsYeild",
      "outputs": [
        {
          "internalType": "bool",
          "name": "",
          "type": "bool"
        }
      ],
      "stateMutability": "view",
      "type": "function"
    },
    {
      "inputs": [
        {
          "internalType": "contract IERC20Standard",
          "name": "_coin",
          "type": "address"
        },
        {
          "internalType": "bool",
          "name": "isPool",
          "type": "bool"
        }
      ],
      "name": "getLatestPrice",
      "outputs": [
        {
          "internalType": "uint256",
          "name": "",
          "type": "uint256"
        }
      ],
      "stateMutability": "view",
      "type": "function"
    },
    {
      "inputs": [],
      "name": "getLoanInfo",
      "outputs": [
        {
          "components": [
            {
              "internalType": "uint256",
              "name": "loanId",
              "type": "uint256"
            },
            {
              "internalType": "bool",
              "name": "isPaid",
              "type": "bool"
            },
            {
              "internalType": "uint256",
              "name": "amount",
              "type": "uint256"
            },
            {
              "internalType": "bool",
              "name": "isClosed",
              "type": "bool"
            },
            {
              "internalType": "address",
              "name": "borrower",
              "type": "address"
            },
            {
              "internalType": "bool",
              "name": "isLiquidated",
              "type": "bool"
            },
            {
              "internalType": "contract IERC20Standard",
              "name": "stableCoin",
              "type": "address"
            },
            {
              "internalType": "bool",
              "name": "isFinalty",
              "type": "bool"
            }
          ],
          "internalType": "struct DataTypes.Loan",
          "name": "",
          "type": "tuple"
        }
      ],
      "stateMutability": "view",
      "type": "function"
    },
    {
      "inputs": [
        {
          "internalType": "address",
          "name": "user",
          "type": "address"
        }
      ],
      "name": "getUserAccountData",
      "outputs": [
        {
          "internalType": "uint256",
          "name": "totalCollateralBase",
          "type": "uint256"
        },
        {
          "internalType": "uint256",
          "name": "totalDebtBase",
          "type": "uint256"
        },
        {
          "internalType": "uint256",
          "name": "availableBorrowsBase",
          "type": "uint256"
        },
        {
          "internalType": "uint256",
          "name": "currentLiquidationThreshold",
          "type": "uint256"
        },
        {
          "internalType": "uint256",
          "name": "ltv",
          "type": "uint256"
        },
        {
          "internalType": "uint256",
          "name": "healthFactor",
          "type": "uint256"
        }
      ],
      "stateMutability": "view",
      "type": "function"
    },
    {
      "inputs": [],
      "name": "getYieldEarned",
      "outputs": [
        {
          "internalType": "uint256",
          "name": "",
          "type": "uint256"
        }
      ],
      "stateMutability": "view",
      "type": "function"
    },
    {
      "inputs": [],
      "name": "initLoan",
      "outputs": [
        {
          "internalType": "uint256",
          "name": "loanId",
          "type": "uint256"
        },
        {
          "internalType": "bool",
          "name": "isPaid",
          "type": "bool"
        },
        {
          "internalType": "uint256",
          "name": "amount",
          "type": "uint256"
        },
        {
          "internalType": "bool",
          "name": "isClosed",
          "type": "bool"
        },
        {
          "internalType": "address",
          "name": "borrower",
          "type": "address"
        },
        {
          "internalType": "bool",
          "name": "isLiquidated",
          "type": "bool"
        },
        {
          "internalType": "contract IERC20Standard",
          "name": "stableCoin",
          "type": "address"
        },
        {
          "internalType": "bool",
          "name": "isFinalty",
          "type": "bool"
        }
      ],
      "stateMutability": "view",
      "type": "function"
    },
    {
      "inputs": [
        {
          "components": [
            {
              "internalType": "uint256",
              "name": "loanId",
              "type": "uint256"
            },
            {
              "internalType": "bool",
              "name": "isPaid",
              "type": "bool"
            },
            {
              "internalType": "uint256",
              "name": "amount",
              "type": "uint256"
            },
            {
              "internalType": "bool",
              "name": "isClosed",
              "type": "bool"
            },
            {
              "internalType": "address",
              "name": "borrower",
              "type": "address"
            },
            {
              "internalType": "bool",
              "name": "isLiquidated",
              "type": "bool"
            },
            {
              "internalType": "contract IERC20Standard",
              "name": "stableCoin",
              "type": "address"
            },
            {
              "internalType": "bool",
              "name": "isFinalty",
              "type": "bool"
            }
          ],
          "internalType": "struct DataTypes.Loan",
          "name": "_loan",
          "type": "tuple"
        },
        {
          "internalType": "contract IERC20Standard",
          "name": "_collateralToken",
          "type": "address"
        },
        {
          "internalType": "contract IPoolAddressesProvider",
          "name": "_aaveAddressProvider",
          "type": "address"
        },
        {
          "internalType": "contract IERC20Standard",
          "name": "_aToken",
          "type": "address"
        },
        {
          "internalType": "uint256",
          "name": "_ltv",
          "type": "uint256"
        },
        {
          "internalType": "uint256",
          "name": "_threshold",
          "type": "uint256"
        },
        {
          "internalType": "contract AggregatorV3Interface",
          "name": "_priceFeed",
          "type": "address"
        },
        {
          "internalType": "contract AggregatorV3Interface",
          "name": "_pricePoolFeed",
          "type": "address"
        },
        {
          "internalType": "address",
          "name": "_platform",
          "type": "address"
        },
        {
          "internalType": "contract IWETH",
          "name": "_iWETH",
          "type": "address"
        }
      ],
      "name": "initialize",
      "outputs": [],
      "stateMutability": "nonpayable",
      "type": "function"
    },
    {
      "inputs": [],
      "name": "isStakeAave",
      "outputs": [
        {
          "internalType": "bool",
          "name": "",
          "type": "bool"
        }
      ],
      "stateMutability": "view",
      "type": "function"
    },
    {
      "inputs": [
        {
          "internalType": "uint256",
          "name": "_currentDebt",
          "type": "uint256"
        },
        {
          "internalType": "uint256",
          "name": "_percent",
          "type": "uint256"
        }
      ],
      "name": "liquidate",
      "outputs": [],
      "stateMutability": "nonpayable",
      "type": "function"
    },
    {
      "inputs": [],
      "name": "liquidationThreshold",
      "outputs": [
        {
          "internalType": "uint256",
          "name": "",
          "type": "uint256"
        }
      ],
      "stateMutability": "view",
      "type": "function"
    },
    {
      "inputs": [],
      "name": "owner",
      "outputs": [
        {
          "internalType": "address",
          "name": "",
          "type": "address"
        }
      ],
      "stateMutability": "view",
      "type": "function"
    },
    {
      "inputs": [],
      "name": "platform",
      "outputs": [
        {
          "internalType": "address",
          "name": "",
          "type": "address"
        }
      ],
      "stateMutability": "view",
      "type": "function"
    },
    {
      "inputs": [],
      "name": "priceFeed",
      "outputs": [
        {
          "internalType": "contract AggregatorV3Interface",
          "name": "",
          "type": "address"
        }
      ],
      "stateMutability": "view",
      "type": "function"
    },
    {
      "inputs": [],
      "name": "pricePoolFeed",
      "outputs": [
        {
          "internalType": "contract AggregatorV3Interface",
          "name": "",
          "type": "address"
        }
      ],
      "stateMutability": "view",
      "type": "function"
    },
    {
      "inputs": [
        {
          "internalType": "address",
          "name": "_ccfl",
          "type": "address"
        }
      ],
      "name": "setCCFL",
      "outputs": [],
      "stateMutability": "nonpayable",
      "type": "function"
    },
    {
      "inputs": [
        {
          "internalType": "uint256",
          "name": "_earnSharePercent",
          "type": "uint256"
        }
      ],
      "name": "setEarnSharePercent",
      "outputs": [],
      "stateMutability": "nonpayable",
      "type": "function"
    },
    {
      "inputs": [],
      "name": "setPaid",
      "outputs": [],
      "stateMutability": "nonpayable",
      "type": "function"
    },
    {
      "inputs": [
        {
          "internalType": "contract ISwapRouter",
          "name": "_swapRouter",
          "type": "address"
        },
        {
          "internalType": "contract IUniswapV3Factory",
          "name": "_factory",
          "type": "address"
        }
      ],
      "name": "setSwapRouter",
      "outputs": [],
      "stateMutability": "nonpayable",
      "type": "function"
    },
    {
      "inputs": [],
      "name": "supplyLiquidity",
      "outputs": [],
      "stateMutability": "nonpayable",
      "type": "function"
    },
    {
      "inputs": [],
      "name": "swapRouter",
      "outputs": [
        {
          "internalType": "contract ISwapRouter",
          "name": "",
          "type": "address"
        }
      ],
      "stateMutability": "view",
      "type": "function"
    },
    {
      "inputs": [
        {
          "internalType": "uint256",
          "name": "amount",
          "type": "uint256"
        }
      ],
      "name": "updateCollateral",
      "outputs": [],
      "stateMutability": "nonpayable",
      "type": "function"
    },
    {
      "inputs": [],
      "name": "wETH",
      "outputs": [
        {
          "internalType": "contract IWETH",
          "name": "",
          "type": "address"
        }
      ],
      "stateMutability": "view",
      "type": "function"
    },
    {
      "inputs": [
        {
          "internalType": "address",
          "name": "_receiver",
          "type": "address"
        },
        {
          "internalType": "bool",
          "name": "_isETH",
          "type": "bool"
        }
      ],
      "name": "withdrawAllCollateral",
      "outputs": [],
      "stateMutability": "nonpayable",
      "type": "function"
    },
    {
      "inputs": [],
      "name": "withdrawLiquidity",
      "outputs": [],
      "stateMutability": "nonpayable",
      "type": "function"
    },
    {
      "stateMutability": "payable",
      "type": "receive"
    }
  ],
  "bytecode": "0x608060405234801561001057600080fd5b50612850806100206000396000f3fe6080604052600436106102385760003560e01c80637ea382c111610138578063bf92857c116100b0578063d296d1f11161007f578063e0af219311610064578063e0af21931461079d578063f2428621146107bd578063fab320e9146107dd57600080fd5b8063d296d1f11461075d578063dc40e2d01461077d57600080fd5b8063bf92857c146106b0578063c31c9c07146106fd578063c45a01551461071d578063cdaabe411461073d57600080fd5b806392d09ceb11610107578063ae6189f8116100ec578063ae6189f81461065a578063b2016bd414610670578063b3bffeaa1461069057600080fd5b806392d09ceb14610624578063a0c1f15e1461063a57600080fd5b80637ea382c1146105ba5780638501de01146105cf5780638ac1b775146105e45780638da5cb5b1461060457600080fd5b80635825f535116101cb5780636721de261161019a57806372f5d98a1161017f57806372f5d98a146104ce578063741bef1a146104f85780637ce67d601461051857600080fd5b80636721de261461048e57806368dcad58146104ae57600080fd5b80635825f535146103615780635d3e2fa114610381578063626a35fb1461045857806362965d8e1461047857600080fd5b8063232fa73311610207578063232fa733146102d05780634031234c146102e55780634bde38c8146103095780634d2c872a1461034157600080fd5b806307a6bf6914610244578063102cb82e1461025b578063112566031461027b5780631c783def146102b157600080fd5b3661023f57005b600080fd5b34801561025057600080fd5b506102596107f2565b005b34801561026757600080fd5b50610259610276366004612242565b610af1565b34801561028757600080fd5b5060025461029c90600160a01b900460ff1681565b60405190151581526020015b60405180910390f35b3480156102bd57600080fd5b50600254600160a01b900460ff1661029c565b3480156102dc57600080fd5b50610259610e31565b3480156102f157600080fd5b506102fb60055481565b6040519081526020016102a8565b34801561031557600080fd5b50601154610329906001600160a01b031681565b6040516001600160a01b0390911681526020016102a8565b34801561034d57600080fd5b506102fb61035c36600461227b565b610e9f565b34801561036d57600080fd5b50601054610329906001600160a01b031681565b34801561038d57600080fd5b5061044b6040805161010081018252600080825260208201819052918101829052606081018290526080810182905260a0810182905260c0810182905260e0810191909152506040805161010080820183526009548252600a5460ff90811615156020840152600b5493830193909352600c54808416151560608401526001600160a01b0391810482166080840152600160a81b90048316151560a0830152600d5490811660c0830152600160a01b9004909116151560e082015290565b6040516102a8919061229d565b34801561046457600080fd5b50610259610473366004612320565b61106b565b34801561048457600080fd5b506102fb60065481565b34801561049a57600080fd5b506102596104a9366004612320565b6110b5565b3480156104ba57600080fd5b50600f54610329906001600160a01b031681565b3480156104da57600080fd5b506104e4610bb881565b60405162ffffff90911681526020016102a8565b34801561050457600080fd5b50600e54610329906001600160a01b031681565b34801561052457600080fd5b50600954600a54600b54600c54600d5461056e949360ff9081169392808216926001600160a01b036101008304811693600160a81b90930483169290821691600160a01b90041688565b6040805198895296151560208901529587019490945291151560608601526001600160a01b03908116608086015290151560a08501521660c0830152151560e0820152610100016102a8565b3480156105c657600080fd5b50610259611114565b3480156105db57600080fd5b506102fb611464565b3480156105f057600080fd5b506102596105ff366004612339565b611517565b34801561061057600080fd5b50600054610329906001600160a01b031681565b34801561063057600080fd5b506102fb60075481565b34801561064657600080fd5b50600254610329906001600160a01b031681565b34801561066657600080fd5b506102fb60135481565b34801561067c57600080fd5b50600854610329906001600160a01b031681565b34801561069c57600080fd5b506102fb6106ab366004612242565b61158b565b3480156106bc57600080fd5b506106d06106cb366004612339565b611682565b604080519687526020870195909552938501929092526060840152608083015260a082015260c0016102a8565b34801561070957600080fd5b50600354610329906001600160a01b031681565b34801561072957600080fd5b50600454610329906001600160a01b031681565b34801561074957600080fd5b50600154610329906001600160a01b031681565b34801561076957600080fd5b5061025961077836600461227b565b6117a0565b34801561078957600080fd5b5061025961079836600461235d565b611a06565b3480156107a957600080fd5b506102596107b836600461238b565b611a86565b3480156107c957600080fd5b50601254610329906001600160a01b031681565b3480156107e957600080fd5b50610259611dfc565b6000546040805180820190915260018152601960f91b6020820152906001600160a01b0316331461083f5760405162461bcd60e51b81526004016108369190612514565b60405180910390fd5b506008546040516370a0823160e01b81523060048201526001600160a01b039091169060009082906370a0823190602401602060405180830381865afa15801561088d573d6000803e3d6000fd5b505050506040513d601f19601f820116820180604052508101906108b19190612547565b9050600081116040518060400160405280600281526020017f31300000000000000000000000000000000000000000000000000000000000008152509061090b5760405162461bcd60e51b81526004016108369190612514565b506000309050600080600160009054906101000a90046001600160a01b03166001600160a01b031663026b1d5f6040518163ffffffff1660e01b8152600401602060405180830381865afa158015610967573d6000803e3d6000fd5b505050506040513d601f19601f8201168201806040525081019061098b9190612560565b60405163095ea7b360e01b81526001600160a01b038083166004830152602482018790529192509086169063095ea7b3906044016020604051808303816000875af11580156109de573d6000803e3d6000fd5b505050506040513d601f19601f82011682018060405250810190610a02919061257d565b506040517f617ba0370000000000000000000000000000000000000000000000000000000081526001600160a01b03868116600483015260248201869052848116604483015261ffff8416606483015282169063617ba03790608401600060405180830381600087803b158015610a7857600080fd5b505af1158015610a8c573d6000803e3d6000fd5b5050604080518781524260208201526001600160a01b03808a169450871692507f9a07bf3d98170ca14a6bb0b5c7f9a1463ad0d703ae2611ef790fc8ff46d00ecd910160405180910390a350506002805460ff60a01b1916600160a01b179055505050565b6000546040805180820190915260018152601960f91b6020820152906001600160a01b03163314610b355760405162461bcd60e51b81526004016108369190612514565b50600c5460ff1615156001148015610b575750600d54600160a01b900460ff16155b6040518060400160405280600281526020017f313200000000000000000000000000000000000000000000000000000000000081525090610bab5760405162461bcd60e51b81526004016108369190612514565b508015610d1b576012546008546040516370a0823160e01b81523060048201526001600160a01b0392831692632e1a7d4d9216906370a0823190602401602060405180830381865afa158015610c05573d6000803e3d6000fd5b505050506040513d601f19601f82011682018060405250810190610c299190612547565b6040518263ffffffff1660e01b8152600401610c4791815260200190565b600060405180830381600087803b158015610c6157600080fd5b505af1158015610c75573d6000803e3d6000fd5b50506008546040516370a0823160e01b81523060048201526001600160a01b0386811694506108fc9350909116906370a0823190602401602060405180830381865afa158015610cc9573d6000803e3d6000fd5b505050506040513d601f19601f82011682018060405250810190610ced9190612547565b6040518115909202916000818181858888f19350505050158015610d15573d6000803e3d6000fd5b50610e1a565b6008546040516370a0823160e01b81523060048201526001600160a01b039091169063a9059cbb90849083906370a0823190602401602060405180830381865afa158015610d6d573d6000803e3d6000fd5b505050506040513d601f19601f82011682018060405250810190610d919190612547565b6040517fffffffff0000000000000000000000000000000000000000000000000000000060e085901b1681526001600160a01b03909216600483015260248201526044016020604051808303816000875af1158015610df4573d6000803e3d6000fd5b505050506040513d601f19601f82011682018060405250810190610e18919061257d565b505b5050600d805460ff60a01b1916600160a01b179055565b6000546040805180820190915260018152601960f91b6020820152906001600160a01b03163314610e755760405162461bcd60e51b81526004016108369190612514565b50600c805460ff19166001179055600254600160a01b900460ff1615610e9d57610e9d611114565b565b600d546000908190610ebb906001600160a01b0316600161158b565b905060008084600754610ece91906125b0565b6008549091506001600160a01b03168115610f9c576000610ef082600061158b565b9050816001600160a01b031663313ce5676040518163ffffffff1660e01b8152600401602060405180830381865afa158015610f30573d6000803e3d6000fd5b505050506040513d601f19601f82011682018060405250810190610f5491906125c3565b610f5f90600a6126ca565b60055461271090610f7084876126d9565b610f7a91906126d9565b610f8491906126f0565b610f8e91906126f0565b610f9890856125b0565b9350505b600d54604080517f313ce56700000000000000000000000000000000000000000000000000000000815290516000926001600160a01b03169163313ce5679160048281019260209291908290030181865afa158015610fff573d6000803e3d6000fd5b505050506040513d601f19601f8201168201806040525081019061102391906125c3565b61102e90600a6126ca565b611038868a6126d9565b61104291906126f0565b90506000816110528660646126d9565b61105c91906126f0565b96505050505050505b92915050565b6000546040805180820190915260018152601960f91b6020820152906001600160a01b031633146110af5760405162461bcd60e51b81526004016108369190612514565b50601355565b6000546040805180820190915260018152601960f91b6020820152906001600160a01b031633146110f95760405162461bcd60e51b81526004016108369190612514565b50806007600082825461110c91906125b0565b909155505050565b6000546040805180820190915260018152601960f91b6020820152906001600160a01b031633146111585760405162461bcd60e51b81526004016108369190612514565b506002546040516370a0823160e01b81523060048201526000916001600160a01b0316906370a0823190602401602060405180830381865afa1580156111a2573d6000803e3d6000fd5b505050506040513d601f19601f820116820180604052508101906111c69190612547565b90506000600160009054906101000a90046001600160a01b03166001600160a01b031663026b1d5f6040518163ffffffff1660e01b8152600401602060405180830381865afa15801561121d573d6000803e3d6000fd5b505050506040513d601f19601f820116820180604052508101906112419190612560565b6002546040517f69328dec0000000000000000000000000000000000000000000000000000000081526001600160a01b039182166004820152602481018590523060448201529192508216906369328dec906064016020604051808303816000875af11580156112b5573d6000803e3d6000fd5b505050506040513d601f19601f820116820180604052508101906112d99190612547565b50600254604080518481524260208201526001600160a01b039092169130917fba0b893b2f314a229997e335266881b5ac6b290bd350d2c23cc57160b77882b8910160405180910390a36002805460ff60a01b191690556008546040516370a0823160e01b81523060048201526000916001600160a01b0316906370a0823190602401602060405180830381865afa158015611379573d6000803e3d6000fd5b505050506040513d601f19601f8201168201806040525081019061139d9190612547565b90506000612710601354600754846113b59190612712565b6113bf91906126d9565b6113c991906126f0565b6008546011546040517fa9059cbb0000000000000000000000000000000000000000000000000000000081526001600160a01b03918216600482015260248101849052929350169063a9059cbb906044016020604051808303816000875af1158015611439573d6000803e3d6000fd5b505050506040513d601f19601f8201168201806040525081019061145d919061257d565b5050505050565b6002546040516370a0823160e01b815230600482015260009182916001600160a01b03909116906370a0823190602401602060405180830381865afa1580156114b1573d6000803e3d6000fd5b505050506040513d601f19601f820116820180604052508101906114d59190612547565b90506000600754826114e79190612712565b90506127106013546127106114fc9190612712565b61150690836126d9565b61151091906126f0565b9250505090565b6000546040805180820190915260018152601960f91b6020820152906001600160a01b0316331461155b5760405162461bcd60e51b81526004016108369190612514565b506010805473ffffffffffffffffffffffffffffffffffffffff19166001600160a01b0392909216919091179055565b60008115158103611627576000806000806000600e60009054906101000a90046001600160a01b03166001600160a01b031663feaf968c6040518163ffffffff1660e01b815260040160a060405180830381865afa1580156115f1573d6000803e3d6000fd5b505050506040513d601f19601f82011682018060405250810190611615919061273f565b50919850611065975050505050505050565b6000806000806000600f60009054906101000a90046001600160a01b03166001600160a01b031663feaf968c6040518163ffffffff1660e01b815260040160a060405180830381865afa1580156115f1573d6000803e3d6000fd5b6000806000806000806000600160009054906101000a90046001600160a01b03166001600160a01b031663026b1d5f6040518163ffffffff1660e01b8152600401602060405180830381865afa1580156116e0573d6000803e3d6000fd5b505050506040513d601f19601f820116820180604052508101906117049190612560565b6040517fbf92857c0000000000000000000000000000000000000000000000000000000081526001600160a01b038a811660048301529192509082169063bf92857c9060240160c060405180830381865afa158015611767573d6000803e3d6000fd5b505050506040513d601f19601f8201168201806040525081019061178b919061278f565b949d939c50919a509850965090945092505050565b6000546040805180820190915260018152601960f91b6020820152906001600160a01b031633146117e45760405162461bcd60e51b81526004016108369190612514565b5060646117f2836000610e9f565b106040518060400160405280600281526020017f3131000000000000000000000000000000000000000000000000000000000000815250906118475760405162461bcd60e51b81526004016108369190612514565b50600254600160a01b900460ff161561186257611862611114565b6008546001600160a01b03166119106103e861187e84826125b0565b61188890866126d9565b61189291906126f0565b6008546040516370a0823160e01b81523060048201526001600160a01b03909116906370a0823190602401602060405180830381865afa1580156118da573d6000803e3d6000fd5b505050506040513d601f19601f820116820180604052508101906118fe9190612547565b600d546001600160a01b031684611e50565b50600c80547fffffffffffffffffffff00ffffffffffffffffffffffffffffffffffffffffff16600160a81b179055600d546010546001600160a01b039182169163095ea7b391166103e861196586826125b0565b61196f90886126d9565b61197991906126f0565b6040517fffffffff0000000000000000000000000000000000000000000000000000000060e085901b1681526001600160a01b03909216600483015260248201526044016020604051808303816000875af11580156119dc573d6000803e3d6000fd5b505050506040513d601f19601f82011682018060405250810190611a00919061257d565b50505050565b6000546040805180820190915260018152601960f91b6020820152906001600160a01b03163314611a4a5760405162461bcd60e51b81526004016108369190612514565b50600380546001600160a01b0393841673ffffffffffffffffffffffffffffffffffffffff199182161790915560048054929093169116179055565b7ff0c57e16840df040f15088dc2f81fe391c3923bec73e23a9662efc9c229c6a00805468010000000000000000810460ff16159067ffffffffffffffff16600081158015611ad15750825b905060008267ffffffffffffffff166001148015611aee5750303b155b905081158015611afc575080155b15611b33576040517ff92ee8a900000000000000000000000000000000000000000000000000000000815260040160405180910390fd5b845467ffffffffffffffff191660011785558315611b6757845468ff00000000000000001916680100000000000000001785555b336000806101000a8154816001600160a01b0302191690836001600160a01b031602179055508e60096000820151816000015560208201518160010160006101000a81548160ff0219169083151502179055506040820151816002015560608201518160030160006101000a81548160ff02191690831515021790555060808201518160030160016101000a8154816001600160a01b0302191690836001600160a01b0316021790555060a08201518160030160156101000a81548160ff02191690831515021790555060c08201518160040160006101000a8154816001600160a01b0302191690836001600160a01b0316021790555060e08201518160040160146101000a81548160ff0219169083151502179055509050508d600860006101000a8154816001600160a01b0302191690836001600160a01b031602179055508c600160006101000a8154816001600160a01b0302191690836001600160a01b031602179055508a600681905550896005819055508b600260006101000a8154816001600160a01b0302191690836001600160a01b0316021790555088600e60006101000a8154816001600160a01b0302191690836001600160a01b0316021790555087600f60006101000a8154816001600160a01b0302191690836001600160a01b0316021790555086601160006101000a8154816001600160a01b0302191690836001600160a01b0316021790555085601260006101000a8154816001600160a01b0302191690836001600160a01b031602179055508315611deb57845468ff000000000000000019168555604051600181527fc7f505b2f371ae2175ee4913f4499e1f2633a7b5936321eed1cdaeb6115181d29060200160405180910390a15b505050505050505050505050505050565b6000546040805180820190915260018152601960f91b6020820152906001600160a01b03163314611e405760405162461bcd60e51b81526004016108369190612514565b50600a805460ff19166001179055565b600354600090611e6b9083906001600160a01b0316866120d8565b600480546040517f1698ee820000000000000000000000000000000000000000000000000000000081526001600160a01b03858116938201939093528583166024820152610bb8604482015260009290911690631698ee8290606401602060405180830381865afa158015611ee4573d6000803e3d6000fd5b505050506040513d601f19601f82011682018060405250810190611f089190612560565b90506000816001600160a01b031663ddca3f436040518163ffffffff1660e01b8152600401602060405180830381865afa158015611f4a573d6000803e3d6000fd5b505050506040513d601f19601f82011682018060405250810190611f6e91906127d9565b60408051610100810182526001600160a01b038088168252888116602083015262ffffff84168284015233606083015242608083015260a082018b905260c082018a9052600060e083015260035492517fdb3e2198000000000000000000000000000000000000000000000000000000008152939450909291169063db3e2198906120679084906004016000610100820190506001600160a01b0380845116835280602085015116602084015262ffffff60408501511660408401528060608501511660608401526080840151608084015260a084015160a084015260c084015160c08401528060e08501511660e08401525092915050565b6020604051808303816000875af1158015612086573d6000803e3d6000fd5b505050506040513d601f19601f820116820180604052508101906120aa9190612547565b9350868410156120cd576003546120cd9086906001600160a01b031660006120d8565b505050949350505050565b604080516001600160a01b038481166024830152604480830185905283518084039091018152606490920183526020820180517bffffffffffffffffffffffffffffffffffffffffffffffffffffffff1663095ea7b360e01b179052915160009283929087169161214991906127fe565b6000604051808303816000865af19150503d8060008114612186576040519150601f19603f3d011682016040523d82523d6000602084013e61218b565b606091505b50915091508180156121b55750805115806121b55750808060200190518101906121b5919061257d565b61145d5760405162461bcd60e51b815260206004820152600260248201527f53410000000000000000000000000000000000000000000000000000000000006044820152606401610836565b6001600160a01b038116811461221657600080fd5b50565b803561222481612201565b919050565b801515811461221657600080fd5b803561222481612229565b6000806040838503121561225557600080fd5b823561226081612201565b9150602083013561227081612229565b809150509250929050565b6000806040838503121561228e57600080fd5b50508035926020909101359150565b60006101008201905082518252602083015115156020830152604083015160408301526060830151151560608301526001600160a01b03608084015116608083015260a0830151151560a083015260c083015161230560c08401826001600160a01b03169052565b5060e083015161231960e084018215159052565b5092915050565b60006020828403121561233257600080fd5b5035919050565b60006020828403121561234b57600080fd5b813561235681612201565b9392505050565b6000806040838503121561237057600080fd5b823561237b81612201565b9150602083013561227081612201565b6000806000806000806000806000808a8c036102208112156123ac57600080fd5b610100808212156123bc57600080fd5b604051915080820182811067ffffffffffffffff821117156123ee57634e487b7160e01b600052604160045260246000fd5b6040528c35825261240160208e01612237565b602083015260408d0135604083015261241c60608e01612237565b606083015261242d60808e01612219565b608083015261243e60a08e01612237565b60a083015261244f60c08e01612219565b60c083015261246060e08e01612237565b60e0830152819b50612473818e01612219565b9a5050506124846101208c01612219565b97506124936101408c01612219565b96506101608b013595506101808b013594506124b26101a08c01612219565b93506124c16101c08c01612219565b92506124d06101e08c01612219565b91506124df6102008c01612219565b90509295989b9194979a5092959850565b60005b8381101561250b5781810151838201526020016124f3565b50506000910152565b60208152600082518060208401526125338160408501602087016124f0565b601f01601f19169190910160400192915050565b60006020828403121561255957600080fd5b5051919050565b60006020828403121561257257600080fd5b815161235681612201565b60006020828403121561258f57600080fd5b815161235681612229565b634e487b7160e01b600052601160045260246000fd5b808201808211156110655761106561259a565b6000602082840312156125d557600080fd5b815160ff8116811461235657600080fd5b600181815b808511156126215781600019048211156126075761260761259a565b8085161561261457918102915b93841c93908002906125eb565b509250929050565b60008261263857506001611065565b8161264557506000611065565b816001811461265b576002811461266557612681565b6001915050611065565b60ff8411156126765761267661259a565b50506001821b611065565b5060208310610133831016604e8410600b84101617156126a4575081810a611065565b6126ae83836125e6565b80600019048211156126c2576126c261259a565b029392505050565b600061235660ff841683612629565b80820281158282048414176110655761106561259a565b60008261270d57634e487b7160e01b600052601260045260246000fd5b500490565b818103818111156110655761106561259a565b805169ffffffffffffffffffff8116811461222457600080fd5b600080600080600060a0868803121561275757600080fd5b61276086612725565b945060208601519350604086015192506060860151915061278360808701612725565b90509295509295909350565b60008060008060008060c087890312156127a857600080fd5b865195506020870151945060408701519350606087015192506080870151915060a087015190509295509295509295565b6000602082840312156127eb57600080fd5b815162ffffff8116811461235657600080fd5b600082516128108184602087016124f0565b919091019291505056fea2646970667358221220d29498c8f57167b2dfe93a7244b89f64ebb495722424cfd292491cc5c8cb794464736f6c63430008180033",
  "linkReferences": {},
  "deployedLinkReferences": {}
}