{
  "_format": "hh-sol-artifact-1",
  "contractName": "CCFLLoan",
  "sourceName": "contracts/CCFLLoan.sol",
  "abi": [
    {
      "inputs": [],
      "stateMutability": "nonpayable",
      "type": "constructor"
    },
    {
      "inputs": [],
      "name": "InvalidInitialization",
      "type": "error"
    },
    {
      "inputs": [],
      "name": "NotInitializing",
      "type": "error"
    },
    {
      "anonymous": false,
      "inputs": [
        {
          "indexed": false,
          "internalType": "uint64",
          "name": "version",
          "type": "uint64"
        }
      ],
      "name": "Initialized",
      "type": "event"
    },
    {
      "anonymous": false,
      "inputs": [
        {
          "indexed": true,
          "internalType": "address",
          "name": "onBehalfOf",
          "type": "address"
        },
        {
          "indexed": true,
          "internalType": "address",
          "name": "_token",
          "type": "address"
        },
        {
          "indexed": false,
          "internalType": "uint256",
          "name": "_amount",
          "type": "uint256"
        }
      ],
      "name": "LiquiditySupplied",
      "type": "event"
    },
    {
      "anonymous": false,
      "inputs": [
        {
          "indexed": true,
          "internalType": "address",
          "name": "to",
          "type": "address"
        },
        {
          "indexed": true,
          "internalType": "address",
          "name": "_token",
          "type": "address"
        },
        {
          "indexed": false,
          "internalType": "uint256",
          "name": "_amount",
          "type": "uint256"
        }
      ],
      "name": "LiquidityWithdrawn",
      "type": "event"
    },
    {
      "inputs": [],
      "name": "LTV",
      "outputs": [
        {
          "internalType": "uint256",
          "name": "",
          "type": "uint256"
        }
      ],
      "stateMutability": "view",
      "type": "function"
    },
    {
      "inputs": [],
      "name": "aToken",
      "outputs": [
        {
          "internalType": "contract IERC20Standard",
          "name": "",
          "type": "address"
        }
      ],
      "stateMutability": "view",
      "type": "function"
    },
    {
      "inputs": [],
      "name": "aaveAddressProvider",
      "outputs": [
        {
          "internalType": "contract IPoolAddressesProvider",
          "name": "",
          "type": "address"
        }
      ],
      "stateMutability": "view",
      "type": "function"
    },
    {
      "inputs": [],
      "name": "ccfl",
      "outputs": [
        {
          "internalType": "address",
          "name": "",
          "type": "address"
        }
      ],
      "stateMutability": "view",
      "type": "function"
    },
    {
      "inputs": [],
      "name": "closeLoan",
      "outputs": [
        {
          "internalType": "uint256",
          "name": "",
          "type": "uint256"
        }
      ],
      "stateMutability": "nonpayable",
      "type": "function"
    },
    {
      "inputs": [],
      "name": "collateralAmount",
      "outputs": [
        {
          "internalType": "uint256",
          "name": "",
          "type": "uint256"
        }
      ],
      "stateMutability": "view",
      "type": "function"
    },
    {
      "inputs": [],
      "name": "collateralToken",
      "outputs": [
        {
          "internalType": "contract IERC20Standard",
          "name": "",
          "type": "address"
        }
      ],
      "stateMutability": "view",
      "type": "function"
    },
    {
      "inputs": [],
      "name": "earnBorrower",
      "outputs": [
        {
          "internalType": "uint256",
          "name": "",
          "type": "uint256"
        }
      ],
      "stateMutability": "view",
      "type": "function"
    },
    {
      "inputs": [],
      "name": "earnLender",
      "outputs": [
        {
          "internalType": "uint256",
          "name": "",
          "type": "uint256"
        }
      ],
      "stateMutability": "view",
      "type": "function"
    },
    {
      "inputs": [],
      "name": "earnPlatform",
      "outputs": [
        {
          "internalType": "uint256",
          "name": "",
          "type": "uint256"
        }
      ],
      "stateMutability": "view",
      "type": "function"
    },
    {
      "inputs": [],
      "name": "factory",
      "outputs": [
        {
          "internalType": "contract IUniswapV3Factory",
          "name": "",
          "type": "address"
        }
      ],
      "stateMutability": "view",
      "type": "function"
    },
    {
      "inputs": [],
      "name": "feeTier",
      "outputs": [
        {
          "internalType": "uint24",
          "name": "",
          "type": "uint24"
        }
      ],
      "stateMutability": "view",
      "type": "function"
    },
    {
      "inputs": [],
      "name": "getCollateralAmount",
      "outputs": [
        {
          "internalType": "uint256",
          "name": "",
          "type": "uint256"
        }
      ],
      "stateMutability": "view",
      "type": "function"
    },
    {
      "inputs": [],
      "name": "getCollateralToken",
      "outputs": [
        {
          "internalType": "contract IERC20Standard",
          "name": "",
          "type": "address"
        }
      ],
      "stateMutability": "view",
      "type": "function"
    },
    {
      "inputs": [
        {
          "internalType": "uint256",
          "name": "currentDebt",
          "type": "uint256"
        },
        {
          "internalType": "uint256",
          "name": "addCollateral",
          "type": "uint256"
        }
      ],
      "name": "getHealthFactor",
      "outputs": [
        {
          "internalType": "uint256",
          "name": "",
          "type": "uint256"
        }
      ],
      "stateMutability": "view",
      "type": "function"
    },
    {
      "inputs": [],
      "name": "getIsYeild",
      "outputs": [
        {
          "internalType": "bool",
          "name": "",
          "type": "bool"
        }
      ],
      "stateMutability": "view",
      "type": "function"
    },
    {
      "inputs": [
        {
          "internalType": "contract IERC20Standard",
          "name": "_coin",
          "type": "address"
        },
        {
          "internalType": "bool",
          "name": "isPool",
          "type": "bool"
        }
      ],
      "name": "getLatestPrice",
      "outputs": [
        {
          "internalType": "uint256",
          "name": "",
          "type": "uint256"
        }
      ],
      "stateMutability": "view",
      "type": "function"
    },
    {
      "inputs": [],
      "name": "getLoanInfo",
      "outputs": [
        {
          "components": [
            {
              "internalType": "uint256",
              "name": "loanId",
              "type": "uint256"
            },
            {
              "internalType": "bool",
              "name": "isPaid",
              "type": "bool"
            },
            {
              "internalType": "uint256",
              "name": "amount",
              "type": "uint256"
            },
            {
              "internalType": "bool",
              "name": "isClosed",
              "type": "bool"
            },
            {
              "internalType": "address",
              "name": "borrower",
              "type": "address"
            },
            {
              "internalType": "bool",
              "name": "isLiquidated",
              "type": "bool"
            },
            {
              "internalType": "contract IERC20Standard",
              "name": "stableCoin",
              "type": "address"
            },
            {
              "internalType": "bool",
              "name": "isFinalty",
              "type": "bool"
            },
            {
              "internalType": "bool",
              "name": "isFiat",
              "type": "bool"
            }
          ],
          "internalType": "struct DataTypes.Loan",
          "name": "",
          "type": "tuple"
        }
      ],
      "stateMutability": "view",
      "type": "function"
    },
    {
      "inputs": [
        {
          "internalType": "address",
          "name": "user",
          "type": "address"
        }
      ],
      "name": "getUserAccountData",
      "outputs": [
        {
          "internalType": "uint256",
          "name": "totalCollateralBase",
          "type": "uint256"
        },
        {
          "internalType": "uint256",
          "name": "totalDebtBase",
          "type": "uint256"
        },
        {
          "internalType": "uint256",
          "name": "availableBorrowsBase",
          "type": "uint256"
        },
        {
          "internalType": "uint256",
          "name": "currentLiquidationThreshold",
          "type": "uint256"
        },
        {
          "internalType": "uint256",
          "name": "ltv",
          "type": "uint256"
        },
        {
          "internalType": "uint256",
          "name": "healthFactor",
          "type": "uint256"
        }
      ],
      "stateMutability": "view",
      "type": "function"
    },
    {
      "inputs": [],
      "name": "getYieldEarned",
      "outputs": [
        {
          "internalType": "uint256",
          "name": "",
          "type": "uint256"
        }
      ],
      "stateMutability": "view",
      "type": "function"
    },
    {
      "inputs": [],
      "name": "initLoan",
      "outputs": [
        {
          "internalType": "uint256",
          "name": "loanId",
          "type": "uint256"
        },
        {
          "internalType": "bool",
          "name": "isPaid",
          "type": "bool"
        },
        {
          "internalType": "uint256",
          "name": "amount",
          "type": "uint256"
        },
        {
          "internalType": "bool",
          "name": "isClosed",
          "type": "bool"
        },
        {
          "internalType": "address",
          "name": "borrower",
          "type": "address"
        },
        {
          "internalType": "bool",
          "name": "isLiquidated",
          "type": "bool"
        },
        {
          "internalType": "contract IERC20Standard",
          "name": "stableCoin",
          "type": "address"
        },
        {
          "internalType": "bool",
          "name": "isFinalty",
          "type": "bool"
        },
        {
          "internalType": "bool",
          "name": "isFiat",
          "type": "bool"
        }
      ],
      "stateMutability": "view",
      "type": "function"
    },
    {
      "inputs": [
        {
          "components": [
            {
              "internalType": "uint256",
              "name": "loanId",
              "type": "uint256"
            },
            {
              "internalType": "bool",
              "name": "isPaid",
              "type": "bool"
            },
            {
              "internalType": "uint256",
              "name": "amount",
              "type": "uint256"
            },
            {
              "internalType": "bool",
              "name": "isClosed",
              "type": "bool"
            },
            {
              "internalType": "address",
              "name": "borrower",
              "type": "address"
            },
            {
              "internalType": "bool",
              "name": "isLiquidated",
              "type": "bool"
            },
            {
              "internalType": "contract IERC20Standard",
              "name": "stableCoin",
              "type": "address"
            },
            {
              "internalType": "bool",
              "name": "isFinalty",
              "type": "bool"
            },
            {
              "internalType": "bool",
              "name": "isFiat",
              "type": "bool"
            }
          ],
          "internalType": "struct DataTypes.Loan",
          "name": "_loan",
          "type": "tuple"
        },
        {
          "internalType": "contract IERC20Standard",
          "name": "_collateralToken",
          "type": "address"
        },
        {
          "internalType": "contract IPoolAddressesProvider",
          "name": "_aaveAddressProvider",
          "type": "address"
        },
        {
          "internalType": "contract IERC20Standard",
          "name": "_aToken",
          "type": "address"
        },
        {
          "internalType": "uint256",
          "name": "_ltv",
          "type": "uint256"
        },
        {
          "internalType": "uint256",
          "name": "_threshold",
          "type": "uint256"
        },
        {
          "internalType": "contract AggregatorV3Interface",
          "name": "_priceFeed",
          "type": "address"
        },
        {
          "internalType": "contract AggregatorV3Interface",
          "name": "_pricePoolFeed",
          "type": "address"
        },
        {
          "internalType": "address",
          "name": "_platform",
          "type": "address"
        },
        {
          "internalType": "contract IWETH",
          "name": "_iWETH",
          "type": "address"
        }
      ],
      "name": "initialize",
      "outputs": [],
      "stateMutability": "nonpayable",
      "type": "function"
    },
    {
      "inputs": [],
      "name": "isStakeAave",
      "outputs": [
        {
          "internalType": "bool",
          "name": "",
          "type": "bool"
        }
      ],
      "stateMutability": "view",
      "type": "function"
    },
    {
      "inputs": [
        {
          "internalType": "uint256",
          "name": "_currentDebt",
          "type": "uint256"
        },
        {
          "internalType": "uint256",
          "name": "_percent",
          "type": "uint256"
        }
      ],
      "name": "liquidate",
      "outputs": [
        {
          "internalType": "uint256",
          "name": "",
          "type": "uint256"
        }
      ],
      "stateMutability": "nonpayable",
      "type": "function"
    },
    {
      "inputs": [],
      "name": "liquidationThreshold",
      "outputs": [
        {
          "internalType": "uint256",
          "name": "",
          "type": "uint256"
        }
      ],
      "stateMutability": "view",
      "type": "function"
    },
    {
      "inputs": [],
      "name": "owner",
      "outputs": [
        {
          "internalType": "address",
          "name": "",
          "type": "address"
        }
      ],
      "stateMutability": "view",
      "type": "function"
    },
    {
      "inputs": [],
      "name": "platform",
      "outputs": [
        {
          "internalType": "address",
          "name": "",
          "type": "address"
        }
      ],
      "stateMutability": "view",
      "type": "function"
    },
    {
      "inputs": [],
      "name": "priceFeed",
      "outputs": [
        {
          "internalType": "contract AggregatorV3Interface",
          "name": "",
          "type": "address"
        }
      ],
      "stateMutability": "view",
      "type": "function"
    },
    {
      "inputs": [],
      "name": "pricePoolFeed",
      "outputs": [
        {
          "internalType": "contract AggregatorV3Interface",
          "name": "",
          "type": "address"
        }
      ],
      "stateMutability": "view",
      "type": "function"
    },
    {
      "inputs": [
        {
          "internalType": "address",
          "name": "_ccfl",
          "type": "address"
        }
      ],
      "name": "setCCFL",
      "outputs": [],
      "stateMutability": "nonpayable",
      "type": "function"
    },
    {
      "inputs": [
        {
          "internalType": "uint256",
          "name": "_borrower",
          "type": "uint256"
        },
        {
          "internalType": "uint256",
          "name": "_platform",
          "type": "uint256"
        },
        {
          "internalType": "uint256",
          "name": "_lender",
          "type": "uint256"
        }
      ],
      "name": "setEarnShare",
      "outputs": [],
      "stateMutability": "nonpayable",
      "type": "function"
    },
    {
      "inputs": [],
      "name": "setPaid",
      "outputs": [],
      "stateMutability": "nonpayable",
      "type": "function"
    },
    {
      "inputs": [
        {
          "internalType": "contract ISwapRouter",
          "name": "_swapRouter",
          "type": "address"
        },
        {
          "internalType": "contract IUniswapV3Factory",
          "name": "_factory",
          "type": "address"
        }
      ],
      "name": "setSwapRouter",
      "outputs": [],
      "stateMutability": "nonpayable",
      "type": "function"
    },
    {
      "inputs": [],
      "name": "supplyLiquidity",
      "outputs": [],
      "stateMutability": "nonpayable",
      "type": "function"
    },
    {
      "inputs": [],
      "name": "swapRouter",
      "outputs": [
        {
          "internalType": "contract ISwapRouter",
          "name": "",
          "type": "address"
        }
      ],
      "stateMutability": "view",
      "type": "function"
    },
    {
      "inputs": [
        {
          "internalType": "uint256",
          "name": "amount",
          "type": "uint256"
        }
      ],
      "name": "updateCollateral",
      "outputs": [],
      "stateMutability": "nonpayable",
      "type": "function"
    },
    {
      "inputs": [],
      "name": "wETH",
      "outputs": [
        {
          "internalType": "contract IWETH",
          "name": "",
          "type": "address"
        }
      ],
      "stateMutability": "view",
      "type": "function"
    },
    {
      "inputs": [
        {
          "internalType": "address",
          "name": "_receiver",
          "type": "address"
        },
        {
          "internalType": "bool",
          "name": "_isETH",
          "type": "bool"
        }
      ],
      "name": "withdrawAllCollateral",
      "outputs": [],
      "stateMutability": "nonpayable",
      "type": "function"
    },
    {
      "inputs": [],
      "name": "withdrawLiquidity",
      "outputs": [
        {
          "internalType": "uint256",
          "name": "",
          "type": "uint256"
        }
      ],
      "stateMutability": "nonpayable",
      "type": "function"
    },
    {
      "stateMutability": "payable",
      "type": "receive"
    }
  ],
  "bytecode": "0x608060405234801561001057600080fd5b50612903806100206000396000f3fe6080604052600436106102a45760003560e01c80637ce67d601161016e578063b2016bd4116100cb578063cdaabe411161007f578063dc40e2d011610064578063dc40e2d01461088f578063f2428621146108af578063fab320e9146108cf57600080fd5b8063cdaabe411461084f578063d296d1f11461086f57600080fd5b8063bf92857c116100b0578063bf92857c146107c2578063c31c9c071461080f578063c45a01551461082f57600080fd5b8063b2016bd414610782578063b3bffeaa146107a257600080fd5b806392d09ceb11610122578063a0c1f15e11610107578063a0c1f15e1461072c578063a2c7fd151461074c578063a95d71321461076c57600080fd5b806392d09ceb146106f8578063964236631461070e57600080fd5b80638501de01116101535780638501de01146106a35780638ac1b775146106b85780638da5cb5b146106d857600080fd5b80637ce67d60146105df5780637ea382c11461068e57600080fd5b80634bde38c81161021c5780636721de26116101d05780636cb0ab5e116101b55780636cb0ab5e1461057557806372f5d98a14610595578063741bef1a146105bf57600080fd5b80636721de261461053557806368dcad581461055557600080fd5b80635825f535116102015780635825f5351461040e5780635d3e2fa11461042e57806362965d8e1461051f57600080fd5b80634bde38c8146103b65780634d2c872a146103ee57600080fd5b8063232fa7331161027357806332df398e1161025857806332df398e146103745780633a0720e61461038a5780634031234c146103a057600080fd5b8063232fa7331461033c578063315deeaa1461035f57600080fd5b806307a6bf69146102b0578063102cb82e146102c757806311256603146102e75780631c783def1461031d57600080fd5b366102ab57005b600080fd5b3480156102bc57600080fd5b506102c56108e4565b005b3480156102d357600080fd5b506102c56102e236600461228e565b610be9565b3480156102f357600080fd5b5060025461030890600160a01b900460ff1681565b60405190151581526020015b60405180910390f35b34801561032957600080fd5b50600254600160a01b900460ff16610308565b34801561034857600080fd5b50610351610f29565b604051908152602001610314565b34801561036b57600080fd5b50600754610351565b34801561038057600080fd5b5061035160135481565b34801561039657600080fd5b5061035160155481565b3480156103ac57600080fd5b5061035160055481565b3480156103c257600080fd5b506011546103d6906001600160a01b031681565b6040516001600160a01b039091168152602001610314565b3480156103fa57600080fd5b506103516104093660046122c7565b610f5e565b34801561041a57600080fd5b506010546103d6906001600160a01b031681565b34801561043a57600080fd5b506105126040805161012081018252600080825260208201819052918101829052606081018290526080810182905260a0810182905260c0810182905260e081018290526101008101919091525060408051610120810182526009548152600a5460ff90811615156020830152600b5492820192909252600c54808316151560608301526001600160a01b0361010080830482166080850152600160a81b928390048516151560a0850152600d5491821660c0850152600160a01b82048516151560e085015291900490921615159181019190915290565b60405161031491906122e9565b34801561052b57600080fd5b5061035160065481565b34801561054157600080fd5b506102c5610550366004612387565b61112a565b34801561056157600080fd5b50600f546103d6906001600160a01b031681565b34801561058157600080fd5b506102c56105903660046123a0565b611189565b3480156105a157600080fd5b506105ab610bb881565b60405162ffffff9091168152602001610314565b3480156105cb57600080fd5b50600e546103d6906001600160a01b031681565b3480156105eb57600080fd5b50600954600a54600b54600c54600d5461063b949360ff9081169392808216926001600160a01b036101008304811693600160a81b9384900481169391831692600160a01b810482169290041689565b60408051998a5297151560208a01529688019590955292151560608701526001600160a01b039182166080870152151560a08601521660c0840152151560e0830152151561010082015261012001610314565b34801561069a57600080fd5b506103516111dc565b3480156106af57600080fd5b50610351611489565b3480156106c457600080fd5b506102c56106d33660046123cc565b611530565b3480156106e457600080fd5b506000546103d6906001600160a01b031681565b34801561070457600080fd5b5061035160075481565b34801561071a57600080fd5b506008546001600160a01b03166103d6565b34801561073857600080fd5b506002546103d6906001600160a01b031681565b34801561075857600080fd5b506102c5610767366004612428565b6115a4565b34801561077857600080fd5b5061035160145481565b34801561078e57600080fd5b506008546103d6906001600160a01b031681565b3480156107ae57600080fd5b506103516107bd36600461228e565b61193b565b3480156107ce57600080fd5b506107e26107dd3660046123cc565b611a32565b604080519687526020870195909552938501929092526060840152608083015260a082015260c001610314565b34801561081b57600080fd5b506003546103d6906001600160a01b031681565b34801561083b57600080fd5b506004546103d6906001600160a01b031681565b34801561085b57600080fd5b506001546103d6906001600160a01b031681565b34801561087b57600080fd5b5061035161088a3660046122c7565b611b50565b34801561089b57600080fd5b506102c56108aa366004612575565b611dc1565b3480156108bb57600080fd5b506012546103d6906001600160a01b031681565b3480156108db57600080fd5b506102c5611e41565b6000546040805180820190915260018152601960f91b6020820152906001600160a01b031633146109315760405162461bcd60e51b815260040161092891906125c7565b60405180910390fd5b506008546040516370a0823160e01b81523060048201526001600160a01b039091169060009082906370a0823190602401602060405180830381865afa15801561097f573d6000803e3d6000fd5b505050506040513d601f19601f820116820180604052508101906109a391906125fa565b9050600081116040518060400160405280600281526020017f3130000000000000000000000000000000000000000000000000000000000000815250906109fd5760405162461bcd60e51b815260040161092891906125c7565b506000309050600080600160009054906101000a90046001600160a01b03166001600160a01b031663026b1d5f6040518163ffffffff1660e01b8152600401602060405180830381865afa158015610a59573d6000803e3d6000fd5b505050506040513d601f19601f82011682018060405250810190610a7d9190612613565b60405163095ea7b360e01b81526001600160a01b038083166004830152602482018790529192509086169063095ea7b3906044016020604051808303816000875af1158015610ad0573d6000803e3d6000fd5b505050506040513d601f19601f82011682018060405250810190610af49190612630565b506040517f617ba0370000000000000000000000000000000000000000000000000000000081526001600160a01b03868116600483015260248201869052848116604483015261ffff8416606483015282169063617ba03790608401600060405180830381600087803b158015610b6a57600080fd5b505af1158015610b7e573d6000803e3d6000fd5b50505050846001600160a01b0316836001600160a01b03167f51a2b359618aeb0bcc2a495a6667c0bdbfddc3bb27eb0dd5b8e3b33a4c15865f86604051610bc791815260200190565b60405180910390a350506002805460ff60a01b1916600160a01b179055505050565b6000546040805180820190915260018152601960f91b6020820152906001600160a01b03163314610c2d5760405162461bcd60e51b815260040161092891906125c7565b50600c5460ff1615156001148015610c4f5750600d54600160a01b900460ff16155b6040518060400160405280600281526020017f313200000000000000000000000000000000000000000000000000000000000081525090610ca35760405162461bcd60e51b815260040161092891906125c7565b508015610e13576012546008546040516370a0823160e01b81523060048201526001600160a01b0392831692632e1a7d4d9216906370a0823190602401602060405180830381865afa158015610cfd573d6000803e3d6000fd5b505050506040513d601f19601f82011682018060405250810190610d2191906125fa565b6040518263ffffffff1660e01b8152600401610d3f91815260200190565b600060405180830381600087803b158015610d5957600080fd5b505af1158015610d6d573d6000803e3d6000fd5b50506008546040516370a0823160e01b81523060048201526001600160a01b0386811694506108fc9350909116906370a0823190602401602060405180830381865afa158015610dc1573d6000803e3d6000fd5b505050506040513d601f19601f82011682018060405250810190610de591906125fa565b6040518115909202916000818181858888f19350505050158015610e0d573d6000803e3d6000fd5b50610f12565b6008546040516370a0823160e01b81523060048201526001600160a01b039091169063a9059cbb90849083906370a0823190602401602060405180830381865afa158015610e65573d6000803e3d6000fd5b505050506040513d601f19601f82011682018060405250810190610e8991906125fa565b6040517fffffffff0000000000000000000000000000000000000000000000000000000060e085901b1681526001600160a01b03909216600483015260248201526044016020604051808303816000875af1158015610eec573d6000803e3d6000fd5b505050506040513d601f19601f82011682018060405250810190610f109190612630565b505b5050600d805460ff60a01b1916600160a01b179055565b600c805460ff19166001179055600254600090600160a01b900460ff1615610f5857610f536111dc565b905090565b50600090565b600d546000908190610f7a906001600160a01b0316600161193b565b905060008084600754610f8d9190612663565b6008549091506001600160a01b0316811561105b576000610faf82600061193b565b9050816001600160a01b031663313ce5676040518163ffffffff1660e01b8152600401602060405180830381865afa158015610fef573d6000803e3d6000fd5b505050506040513d601f19601f820116820180604052508101906110139190612676565b61101e90600a61277d565b6005546127109061102f848761278c565b611039919061278c565b61104391906127a3565b61104d91906127a3565b6110579085612663565b9350505b600d54604080517f313ce56700000000000000000000000000000000000000000000000000000000815290516000926001600160a01b03169163313ce5679160048281019260209291908290030181865afa1580156110be573d6000803e3d6000fd5b505050506040513d601f19601f820116820180604052508101906110e29190612676565b6110ed90600a61277d565b6110f7868a61278c565b61110191906127a3565b905060008161111186606461278c565b61111b91906127a3565b96505050505050505b92915050565b6000546040805180820190915260018152601960f91b6020820152906001600160a01b0316331461116e5760405162461bcd60e51b815260040161092891906125c7565b5080600760008282546111819190612663565b909155505050565b6000546040805180820190915260018152601960f91b6020820152906001600160a01b031633146111cd5760405162461bcd60e51b815260040161092891906125c7565b50601555601491909155601355565b600080546040805180820190915260018152601960f91b6020820152906001600160a01b031633146112215760405162461bcd60e51b815260040161092891906125c7565b506002546040516370a0823160e01b81523060048201526000916001600160a01b0316906370a0823190602401602060405180830381865afa15801561126b573d6000803e3d6000fd5b505050506040513d601f19601f8201168201806040525081019061128f91906125fa565b9050801561147557600154604080517f026b1d5f00000000000000000000000000000000000000000000000000000000815290516000926001600160a01b03169163026b1d5f9160048083019260209291908290030181865afa1580156112fa573d6000803e3d6000fd5b505050506040513d601f19601f8201168201806040525081019061131e9190612613565b60025460405163095ea7b360e01b81526001600160a01b0380841660048301526024820186905292935091169063095ea7b3906044016020604051808303816000875af1158015611373573d6000803e3d6000fd5b505050506040513d601f19601f820116820180604052508101906113979190612630565b506002546040517f69328dec0000000000000000000000000000000000000000000000000000000081526001600160a01b03918216600482015260248101849052306044820152908216906369328dec906064016020604051808303816000875af115801561140a573d6000803e3d6000fd5b505050506040513d601f19601f8201168201806040525081019061142e91906125fa565b506002546040518381526001600160a01b039091169030907f83aa598dd3e269af677698c6847b3ba594a67d286a771d01099aafa911a91b649060200160405180910390a3505b50506002805460ff60a01b19169055600090565b6002546040516370a0823160e01b815230600482015260009182916001600160a01b03909116906370a0823190602401602060405180830381865afa1580156114d6573d6000803e3d6000fd5b505050506040513d601f19601f820116820180604052508101906114fa91906125fa565b905060006007548261150c91906127c5565b90506127106014548261151f919061278c565b61152991906127a3565b9250505090565b6000546040805180820190915260018152601960f91b6020820152906001600160a01b031633146115745760405162461bcd60e51b815260040161092891906125c7565b506010805473ffffffffffffffffffffffffffffffffffffffff19166001600160a01b0392909216919091179055565b7ff0c57e16840df040f15088dc2f81fe391c3923bec73e23a9662efc9c229c6a00805468010000000000000000810460ff16159067ffffffffffffffff166000811580156115ef5750825b905060008267ffffffffffffffff16600114801561160c5750303b155b90508115801561161a575080155b15611651576040517ff92ee8a900000000000000000000000000000000000000000000000000000000815260040160405180910390fd5b845467ffffffffffffffff19166001178555831561168557845468ff00000000000000001916680100000000000000001785555b336000806101000a8154816001600160a01b0302191690836001600160a01b031602179055508e60096000820151816000015560208201518160010160006101000a81548160ff0219169083151502179055506040820151816002015560608201518160030160006101000a81548160ff02191690831515021790555060808201518160030160016101000a8154816001600160a01b0302191690836001600160a01b0316021790555060a08201518160030160156101000a81548160ff02191690831515021790555060c08201518160040160006101000a8154816001600160a01b0302191690836001600160a01b0316021790555060e08201518160040160146101000a81548160ff0219169083151502179055506101008201518160040160156101000a81548160ff0219169083151502179055509050508d600860006101000a8154816001600160a01b0302191690836001600160a01b031602179055508c600160006101000a8154816001600160a01b0302191690836001600160a01b031602179055508a600681905550896005819055508b600260006101000a8154816001600160a01b0302191690836001600160a01b0316021790555088600e60006101000a8154816001600160a01b0302191690836001600160a01b0316021790555087600f60006101000a8154816001600160a01b0302191690836001600160a01b0316021790555086601160006101000a8154816001600160a01b0302191690836001600160a01b0316021790555085601260006101000a8154816001600160a01b0302191690836001600160a01b03160217905550831561192a57845468ff000000000000000019168555604051600181527fc7f505b2f371ae2175ee4913f4499e1f2633a7b5936321eed1cdaeb6115181d29060200160405180910390a15b505050505050505050505050505050565b600081151581036119d7576000806000806000600e60009054906101000a90046001600160a01b03166001600160a01b031663feaf968c6040518163ffffffff1660e01b815260040160a060405180830381865afa1580156119a1573d6000803e3d6000fd5b505050506040513d601f19601f820116820180604052508101906119c591906127f2565b50919850611124975050505050505050565b6000806000806000600f60009054906101000a90046001600160a01b03166001600160a01b031663feaf968c6040518163ffffffff1660e01b815260040160a060405180830381865afa1580156119a1573d6000803e3d6000fd5b6000806000806000806000600160009054906101000a90046001600160a01b03166001600160a01b031663026b1d5f6040518163ffffffff1660e01b8152600401602060405180830381865afa158015611a90573d6000803e3d6000fd5b505050506040513d601f19601f82011682018060405250810190611ab49190612613565b6040517fbf92857c0000000000000000000000000000000000000000000000000000000081526001600160a01b038a811660048301529192509082169063bf92857c9060240160c060405180830381865afa158015611b17573d6000803e3d6000fd5b505050506040513d601f19601f82011682018060405250810190611b3b9190612842565b949d939c50919a509850965090945092505050565b600080546040805180820190915260018152601960f91b6020820152906001600160a01b03163314611b955760405162461bcd60e51b815260040161092891906125c7565b506064611ba3846000610f5e565b106040518060400160405280600281526020017f313100000000000000000000000000000000000000000000000000000000000081525090611bf85760405162461bcd60e51b815260040161092891906125c7565b50600254600090600160a01b900460ff1615611c1957611c166111dc565b90505b6008546001600160a01b0316611cc7612710611c358682612663565b611c3f908861278c565b611c4991906127a3565b6008546040516370a0823160e01b81523060048201526001600160a01b03909116906370a0823190602401602060405180830381865afa158015611c91573d6000803e3d6000fd5b505050506040513d601f19601f82011682018060405250810190611cb591906125fa565b600d546001600160a01b031684611e95565b50600c80547fffffffffffffffffffff00ffffffffffffffffffffffffffffffffffffffffff16600160a81b179055600d546010546001600160a01b039182169163095ea7b39116612710611d1c8882612663565b611d26908a61278c565b611d3091906127a3565b6040517fffffffff0000000000000000000000000000000000000000000000000000000060e085901b1681526001600160a01b03909216600483015260248201526044016020604051808303816000875af1158015611d93573d6000803e3d6000fd5b505050506040513d601f19601f82011682018060405250810190611db79190612630565b5090949350505050565b6000546040805180820190915260018152601960f91b6020820152906001600160a01b03163314611e055760405162461bcd60e51b815260040161092891906125c7565b50600380546001600160a01b0393841673ffffffffffffffffffffffffffffffffffffffff199182161790915560048054929093169116179055565b6000546040805180820190915260018152601960f91b6020820152906001600160a01b03163314611e855760405162461bcd60e51b815260040161092891906125c7565b50600a805460ff19166001179055565b600354600090611eb09083906001600160a01b03168661211d565b600480546040517f1698ee820000000000000000000000000000000000000000000000000000000081526001600160a01b03858116938201939093528583166024820152610bb8604482015260009290911690631698ee8290606401602060405180830381865afa158015611f29573d6000803e3d6000fd5b505050506040513d601f19601f82011682018060405250810190611f4d9190612613565b90506000816001600160a01b031663ddca3f436040518163ffffffff1660e01b8152600401602060405180830381865afa158015611f8f573d6000803e3d6000fd5b505050506040513d601f19601f82011682018060405250810190611fb3919061288c565b60408051610100810182526001600160a01b038088168252888116602083015262ffffff84168284015233606083015242608083015260a082018b905260c082018a9052600060e083015260035492517fdb3e2198000000000000000000000000000000000000000000000000000000008152939450909291169063db3e2198906120ac9084906004016000610100820190506001600160a01b0380845116835280602085015116602084015262ffffff60408501511660408401528060608501511660608401526080840151608084015260a084015160a084015260c084015160c08401528060e08501511660e08401525092915050565b6020604051808303816000875af11580156120cb573d6000803e3d6000fd5b505050506040513d601f19601f820116820180604052508101906120ef91906125fa565b935086841015612112576003546121129086906001600160a01b0316600061211d565b505050949350505050565b604080516001600160a01b038481166024830152604480830185905283518084039091018152606490920183526020820180517bffffffffffffffffffffffffffffffffffffffffffffffffffffffff1663095ea7b360e01b179052915160009283929087169161218e91906128b1565b6000604051808303816000865af19150503d80600081146121cb576040519150601f19603f3d011682016040523d82523d6000602084013e6121d0565b606091505b50915091508180156121fa5750805115806121fa5750808060200190518101906121fa9190612630565b6122465760405162461bcd60e51b815260206004820152600260248201527f53410000000000000000000000000000000000000000000000000000000000006044820152606401610928565b5050505050565b6001600160a01b038116811461226257600080fd5b50565b80356122708161224d565b919050565b801515811461226257600080fd5b803561227081612275565b600080604083850312156122a157600080fd5b82356122ac8161224d565b915060208301356122bc81612275565b809150509250929050565b600080604083850312156122da57600080fd5b50508035926020909101359150565b6000610120820190508251825260208301511515602083015260408301516040830152606083015115156060830152608083015161233260808401826001600160a01b03169052565b5060a083015161234660a084018215159052565b5060c083015161236160c08401826001600160a01b03169052565b5060e083015161237560e084018215159052565b50610100928301511515919092015290565b60006020828403121561239957600080fd5b5035919050565b6000806000606084860312156123b557600080fd5b505081359360208301359350604090920135919050565b6000602082840312156123de57600080fd5b81356123e98161224d565b9392505050565b604051610120810167ffffffffffffffff8111828210171561242257634e487b7160e01b600052604160045260246000fd5b60405290565b6000806000806000806000806000808a8c0361024081121561244957600080fd5b6101208082121561245957600080fd5b6124616123f0565b91508c35825261247360208e01612283565b602083015260408d0135604083015261248e60608e01612283565b606083015261249f60808e01612265565b60808301526124b060a08e01612283565b60a08301526124c160c08e01612265565b60c08301526124d260e08e01612283565b60e08301526101006124e5818f01612283565b8184015250819b506124f8818e01612265565b9a5050506125096101408c01612265565b97506125186101608c01612265565b96506101808b013595506101a08b013594506125376101c08c01612265565b93506125466101e08c01612265565b92506125556102008c01612265565b91506125646102208c01612265565b90509295989b9194979a5092959850565b6000806040838503121561258857600080fd5b82356125938161224d565b915060208301356122bc8161224d565b60005b838110156125be5781810151838201526020016125a6565b50506000910152565b60208152600082518060208401526125e68160408501602087016125a3565b601f01601f19169190910160400192915050565b60006020828403121561260c57600080fd5b5051919050565b60006020828403121561262557600080fd5b81516123e98161224d565b60006020828403121561264257600080fd5b81516123e981612275565b634e487b7160e01b600052601160045260246000fd5b808201808211156111245761112461264d565b60006020828403121561268857600080fd5b815160ff811681146123e957600080fd5b600181815b808511156126d45781600019048211156126ba576126ba61264d565b808516156126c757918102915b93841c939080029061269e565b509250929050565b6000826126eb57506001611124565b816126f857506000611124565b816001811461270e576002811461271857612734565b6001915050611124565b60ff8411156127295761272961264d565b50506001821b611124565b5060208310610133831016604e8410600b8410161715612757575081810a611124565b6127618383612699565b80600019048211156127755761277561264d565b029392505050565b60006123e960ff8416836126dc565b80820281158282048414176111245761112461264d565b6000826127c057634e487b7160e01b600052601260045260246000fd5b500490565b818103818111156111245761112461264d565b805169ffffffffffffffffffff8116811461227057600080fd5b600080600080600060a0868803121561280a57600080fd5b612813866127d8565b9450602086015193506040860151925060608601519150612836608087016127d8565b90509295509295909350565b60008060008060008060c0878903121561285b57600080fd5b865195506020870151945060408701519350606087015192506080870151915060a087015190509295509295509295565b60006020828403121561289e57600080fd5b815162ffffff811681146123e957600080fd5b600082516128c38184602087016125a3565b919091019291505056fea264697066735822122036ba4eb8c0e47c14c8257e06524f1fd36c1923cd8c14ff5d8fdd2e22acfe929e64736f6c63430008180033",
  "linkReferences": {},
  "deployedLinkReferences": {}
}