{
  "_format": "hh-sol-artifact-1",
  "contractName": "CCFLLoan",
  "sourceName": "contracts/CCFLLoan.sol",
  "abi": [
    {
      "inputs": [],
      "stateMutability": "nonpayable",
      "type": "constructor"
    },
    {
      "inputs": [],
      "name": "InvalidInitialization",
      "type": "error"
    },
    {
      "inputs": [],
      "name": "NotInitializing",
      "type": "error"
    },
    {
      "anonymous": false,
      "inputs": [
        {
          "indexed": false,
          "internalType": "uint64",
          "name": "version",
          "type": "uint64"
        }
      ],
      "name": "Initialized",
      "type": "event"
    },
    {
      "anonymous": false,
      "inputs": [
        {
          "indexed": true,
          "internalType": "address",
          "name": "onBehalfOf",
          "type": "address"
        },
        {
          "indexed": true,
          "internalType": "address",
          "name": "_token",
          "type": "address"
        },
        {
          "indexed": false,
          "internalType": "uint256",
          "name": "_amount",
          "type": "uint256"
        }
      ],
      "name": "LiquiditySupplied",
      "type": "event"
    },
    {
      "anonymous": false,
      "inputs": [
        {
          "indexed": true,
          "internalType": "address",
          "name": "to",
          "type": "address"
        },
        {
          "indexed": true,
          "internalType": "address",
          "name": "_token",
          "type": "address"
        },
        {
          "indexed": false,
          "internalType": "uint256",
          "name": "_amount",
          "type": "uint256"
        }
      ],
      "name": "LiquidityWithdrawn",
      "type": "event"
    },
    {
      "inputs": [],
      "name": "LTV",
      "outputs": [
        {
          "internalType": "uint256",
          "name": "",
          "type": "uint256"
        }
      ],
      "stateMutability": "view",
      "type": "function"
    },
    {
      "inputs": [],
      "name": "aToken",
      "outputs": [
        {
          "internalType": "contract IERC20Standard",
          "name": "",
          "type": "address"
        }
      ],
      "stateMutability": "view",
      "type": "function"
    },
    {
      "inputs": [],
      "name": "aaveAddressProvider",
      "outputs": [
        {
          "internalType": "contract IPoolAddressesProvider",
          "name": "",
          "type": "address"
        }
      ],
      "stateMutability": "view",
      "type": "function"
    },
    {
      "inputs": [],
      "name": "ccfl",
      "outputs": [
        {
          "internalType": "address",
          "name": "",
          "type": "address"
        }
      ],
      "stateMutability": "view",
      "type": "function"
    },
    {
      "inputs": [],
      "name": "closeLoan",
      "outputs": [
        {
          "internalType": "uint256",
          "name": "",
          "type": "uint256"
        }
      ],
      "stateMutability": "nonpayable",
      "type": "function"
    },
    {
      "inputs": [],
      "name": "collateralAmount",
      "outputs": [
        {
          "internalType": "uint256",
          "name": "",
          "type": "uint256"
        }
      ],
      "stateMutability": "view",
      "type": "function"
    },
    {
      "inputs": [],
      "name": "collateralToken",
      "outputs": [
        {
          "internalType": "contract IERC20Standard",
          "name": "",
          "type": "address"
        }
      ],
      "stateMutability": "view",
      "type": "function"
    },
    {
      "inputs": [],
      "name": "earnBorrower",
      "outputs": [
        {
          "internalType": "uint256",
          "name": "",
          "type": "uint256"
        }
      ],
      "stateMutability": "view",
      "type": "function"
    },
    {
      "inputs": [],
      "name": "earnLender",
      "outputs": [
        {
          "internalType": "uint256",
          "name": "",
          "type": "uint256"
        }
      ],
      "stateMutability": "view",
      "type": "function"
    },
    {
      "inputs": [],
      "name": "earnPlatform",
      "outputs": [
        {
          "internalType": "uint256",
          "name": "",
          "type": "uint256"
        }
      ],
      "stateMutability": "view",
      "type": "function"
    },
    {
      "inputs": [],
      "name": "factory",
      "outputs": [
        {
          "internalType": "contract IUniswapV3Factory",
          "name": "",
          "type": "address"
        }
      ],
      "stateMutability": "view",
      "type": "function"
    },
    {
      "inputs": [],
      "name": "feeTier",
      "outputs": [
        {
          "internalType": "uint24",
          "name": "",
          "type": "uint24"
        }
      ],
      "stateMutability": "view",
      "type": "function"
    },
    {
      "inputs": [],
      "name": "getCollateralAmount",
      "outputs": [
        {
          "internalType": "uint256",
          "name": "",
          "type": "uint256"
        }
      ],
      "stateMutability": "view",
      "type": "function"
    },
    {
      "inputs": [],
      "name": "getCollateralToken",
      "outputs": [
        {
          "internalType": "contract IERC20Standard",
          "name": "",
          "type": "address"
        }
      ],
      "stateMutability": "view",
      "type": "function"
    },
    {
      "inputs": [
        {
          "internalType": "uint256",
          "name": "currentDebt",
          "type": "uint256"
        },
        {
          "internalType": "uint256",
          "name": "addCollateral",
          "type": "uint256"
        }
      ],
      "name": "getHealthFactor",
      "outputs": [
        {
          "internalType": "uint256",
          "name": "",
          "type": "uint256"
        }
      ],
      "stateMutability": "view",
      "type": "function"
    },
    {
      "inputs": [],
      "name": "getIsYeild",
      "outputs": [
        {
          "internalType": "bool",
          "name": "",
          "type": "bool"
        }
      ],
      "stateMutability": "view",
      "type": "function"
    },
    {
      "inputs": [
        {
          "internalType": "contract IERC20Standard",
          "name": "_coin",
          "type": "address"
        },
        {
          "internalType": "bool",
          "name": "isPool",
          "type": "bool"
        }
      ],
      "name": "getLatestPrice",
      "outputs": [
        {
          "internalType": "uint256",
          "name": "",
          "type": "uint256"
        }
      ],
      "stateMutability": "view",
      "type": "function"
    },
    {
      "inputs": [],
      "name": "getLoanInfo",
      "outputs": [
        {
          "components": [
            {
              "internalType": "uint256",
              "name": "loanId",
              "type": "uint256"
            },
            {
              "internalType": "bool",
              "name": "isPaid",
              "type": "bool"
            },
            {
              "internalType": "uint256",
              "name": "amount",
              "type": "uint256"
            },
            {
              "internalType": "bool",
              "name": "isClosed",
              "type": "bool"
            },
            {
              "internalType": "address",
              "name": "borrower",
              "type": "address"
            },
            {
              "internalType": "bool",
              "name": "isLiquidated",
              "type": "bool"
            },
            {
              "internalType": "contract IERC20Standard",
              "name": "stableCoin",
              "type": "address"
            },
            {
              "internalType": "bool",
              "name": "isFinalty",
              "type": "bool"
            },
            {
              "internalType": "bool",
              "name": "isFiat",
              "type": "bool"
            }
          ],
          "internalType": "struct DataTypes.Loan",
          "name": "",
          "type": "tuple"
        }
      ],
      "stateMutability": "view",
      "type": "function"
    },
    {
      "inputs": [
        {
          "internalType": "address",
          "name": "user",
          "type": "address"
        }
      ],
      "name": "getUserAccountData",
      "outputs": [
        {
          "internalType": "uint256",
          "name": "totalCollateralBase",
          "type": "uint256"
        },
        {
          "internalType": "uint256",
          "name": "totalDebtBase",
          "type": "uint256"
        },
        {
          "internalType": "uint256",
          "name": "availableBorrowsBase",
          "type": "uint256"
        },
        {
          "internalType": "uint256",
          "name": "currentLiquidationThreshold",
          "type": "uint256"
        },
        {
          "internalType": "uint256",
          "name": "ltv",
          "type": "uint256"
        },
        {
          "internalType": "uint256",
          "name": "healthFactor",
          "type": "uint256"
        }
      ],
      "stateMutability": "view",
      "type": "function"
    },
    {
      "inputs": [],
      "name": "getYieldEarned",
      "outputs": [
        {
          "internalType": "uint256",
          "name": "",
          "type": "uint256"
        }
      ],
      "stateMutability": "view",
      "type": "function"
    },
    {
      "inputs": [],
      "name": "initLoan",
      "outputs": [
        {
          "internalType": "uint256",
          "name": "loanId",
          "type": "uint256"
        },
        {
          "internalType": "bool",
          "name": "isPaid",
          "type": "bool"
        },
        {
          "internalType": "uint256",
          "name": "amount",
          "type": "uint256"
        },
        {
          "internalType": "bool",
          "name": "isClosed",
          "type": "bool"
        },
        {
          "internalType": "address",
          "name": "borrower",
          "type": "address"
        },
        {
          "internalType": "bool",
          "name": "isLiquidated",
          "type": "bool"
        },
        {
          "internalType": "contract IERC20Standard",
          "name": "stableCoin",
          "type": "address"
        },
        {
          "internalType": "bool",
          "name": "isFinalty",
          "type": "bool"
        },
        {
          "internalType": "bool",
          "name": "isFiat",
          "type": "bool"
        }
      ],
      "stateMutability": "view",
      "type": "function"
    },
    {
      "inputs": [
        {
          "components": [
            {
              "internalType": "uint256",
              "name": "loanId",
              "type": "uint256"
            },
            {
              "internalType": "bool",
              "name": "isPaid",
              "type": "bool"
            },
            {
              "internalType": "uint256",
              "name": "amount",
              "type": "uint256"
            },
            {
              "internalType": "bool",
              "name": "isClosed",
              "type": "bool"
            },
            {
              "internalType": "address",
              "name": "borrower",
              "type": "address"
            },
            {
              "internalType": "bool",
              "name": "isLiquidated",
              "type": "bool"
            },
            {
              "internalType": "contract IERC20Standard",
              "name": "stableCoin",
              "type": "address"
            },
            {
              "internalType": "bool",
              "name": "isFinalty",
              "type": "bool"
            },
            {
              "internalType": "bool",
              "name": "isFiat",
              "type": "bool"
            }
          ],
          "internalType": "struct DataTypes.Loan",
          "name": "_loan",
          "type": "tuple"
        },
        {
          "internalType": "contract IERC20Standard",
          "name": "_collateralToken",
          "type": "address"
        },
        {
          "internalType": "contract IPoolAddressesProvider",
          "name": "_aaveAddressProvider",
          "type": "address"
        },
        {
          "internalType": "contract IERC20Standard",
          "name": "_aToken",
          "type": "address"
        },
        {
          "internalType": "uint256",
          "name": "_ltv",
          "type": "uint256"
        },
        {
          "internalType": "uint256",
          "name": "_threshold",
          "type": "uint256"
        },
        {
          "internalType": "contract AggregatorV3Interface",
          "name": "_priceFeed",
          "type": "address"
        },
        {
          "internalType": "contract AggregatorV3Interface",
          "name": "_pricePoolFeed",
          "type": "address"
        },
        {
          "internalType": "address",
          "name": "_platform",
          "type": "address"
        },
        {
          "internalType": "contract IWETH",
          "name": "_iWETH",
          "type": "address"
        }
      ],
      "name": "initialize",
      "outputs": [],
      "stateMutability": "nonpayable",
      "type": "function"
    },
    {
      "inputs": [],
      "name": "isStakeAave",
      "outputs": [
        {
          "internalType": "bool",
          "name": "",
          "type": "bool"
        }
      ],
      "stateMutability": "view",
      "type": "function"
    },
    {
      "inputs": [
        {
          "internalType": "uint256",
          "name": "_currentDebt",
          "type": "uint256"
        },
        {
          "internalType": "uint256",
          "name": "_percent",
          "type": "uint256"
        }
      ],
      "name": "liquidate",
      "outputs": [
        {
          "internalType": "uint256",
          "name": "",
          "type": "uint256"
        }
      ],
      "stateMutability": "nonpayable",
      "type": "function"
    },
    {
      "inputs": [],
      "name": "liquidationThreshold",
      "outputs": [
        {
          "internalType": "uint256",
          "name": "",
          "type": "uint256"
        }
      ],
      "stateMutability": "view",
      "type": "function"
    },
    {
      "inputs": [],
      "name": "owner",
      "outputs": [
        {
          "internalType": "address",
          "name": "",
          "type": "address"
        }
      ],
      "stateMutability": "view",
      "type": "function"
    },
    {
      "inputs": [],
      "name": "platform",
      "outputs": [
        {
          "internalType": "address",
          "name": "",
          "type": "address"
        }
      ],
      "stateMutability": "view",
      "type": "function"
    },
    {
      "inputs": [],
      "name": "priceFeed",
      "outputs": [
        {
          "internalType": "contract AggregatorV3Interface",
          "name": "",
          "type": "address"
        }
      ],
      "stateMutability": "view",
      "type": "function"
    },
    {
      "inputs": [],
      "name": "pricePoolFeed",
      "outputs": [
        {
          "internalType": "contract AggregatorV3Interface",
          "name": "",
          "type": "address"
        }
      ],
      "stateMutability": "view",
      "type": "function"
    },
    {
      "inputs": [
        {
          "internalType": "address",
          "name": "_ccfl",
          "type": "address"
        }
      ],
      "name": "setCCFL",
      "outputs": [],
      "stateMutability": "nonpayable",
      "type": "function"
    },
    {
      "inputs": [
        {
          "internalType": "uint256",
          "name": "_borrower",
          "type": "uint256"
        },
        {
          "internalType": "uint256",
          "name": "_platform",
          "type": "uint256"
        },
        {
          "internalType": "uint256",
          "name": "_lender",
          "type": "uint256"
        }
      ],
      "name": "setEarnShare",
      "outputs": [],
      "stateMutability": "nonpayable",
      "type": "function"
    },
    {
      "inputs": [],
      "name": "setPaid",
      "outputs": [],
      "stateMutability": "nonpayable",
      "type": "function"
    },
    {
      "inputs": [
        {
          "internalType": "contract ISwapRouter",
          "name": "_swapRouter",
          "type": "address"
        },
        {
          "internalType": "contract IUniswapV3Factory",
          "name": "_factory",
          "type": "address"
        }
      ],
      "name": "setSwapRouter",
      "outputs": [],
      "stateMutability": "nonpayable",
      "type": "function"
    },
    {
      "inputs": [],
      "name": "supplyLiquidity",
      "outputs": [],
      "stateMutability": "nonpayable",
      "type": "function"
    },
    {
      "inputs": [],
      "name": "swapRouter",
      "outputs": [
        {
          "internalType": "contract ISwapRouter",
          "name": "",
          "type": "address"
        }
      ],
      "stateMutability": "view",
      "type": "function"
    },
    {
      "inputs": [
        {
          "internalType": "uint256",
          "name": "amount",
          "type": "uint256"
        }
      ],
      "name": "updateCollateral",
      "outputs": [],
      "stateMutability": "nonpayable",
      "type": "function"
    },
    {
      "inputs": [],
      "name": "wETH",
      "outputs": [
        {
          "internalType": "contract IWETH",
          "name": "",
          "type": "address"
        }
      ],
      "stateMutability": "view",
      "type": "function"
    },
    {
      "inputs": [
        {
          "internalType": "address",
          "name": "_receiver",
          "type": "address"
        },
        {
          "internalType": "bool",
          "name": "_isETH",
          "type": "bool"
        }
      ],
      "name": "withdrawAllCollateral",
      "outputs": [],
      "stateMutability": "nonpayable",
      "type": "function"
    },
    {
      "inputs": [],
      "name": "withdrawLiquidity",
      "outputs": [
        {
          "internalType": "uint256",
          "name": "",
          "type": "uint256"
        }
      ],
      "stateMutability": "nonpayable",
      "type": "function"
    },
    {
      "stateMutability": "payable",
      "type": "receive"
    }
  ],
  "bytecode": "0x608060405234801561001057600080fd5b50612924806100206000396000f3fe6080604052600436106102a45760003560e01c80637ce67d601161016e578063b2016bd4116100cb578063cdaabe411161007f578063dc40e2d011610064578063dc40e2d01461088f578063f2428621146108af578063fab320e9146108cf57600080fd5b8063cdaabe411461084f578063d296d1f11461086f57600080fd5b8063bf92857c116100b0578063bf92857c146107c2578063c31c9c071461080f578063c45a01551461082f57600080fd5b8063b2016bd414610782578063b3bffeaa146107a257600080fd5b806392d09ceb11610122578063a0c1f15e11610107578063a0c1f15e1461072c578063a2c7fd151461074c578063a95d71321461076c57600080fd5b806392d09ceb146106f8578063964236631461070e57600080fd5b80638501de01116101535780638501de01146106a35780638ac1b775146106b85780638da5cb5b146106d857600080fd5b80637ce67d60146105df5780637ea382c11461068e57600080fd5b80634bde38c81161021c5780636721de26116101d05780636cb0ab5e116101b55780636cb0ab5e1461057557806372f5d98a14610595578063741bef1a146105bf57600080fd5b80636721de261461053557806368dcad581461055557600080fd5b80635825f535116102015780635825f5351461040e5780635d3e2fa11461042e57806362965d8e1461051f57600080fd5b80634bde38c8146103b65780634d2c872a146103ee57600080fd5b8063232fa7331161027357806332df398e1161025857806332df398e146103745780633a0720e61461038a5780634031234c146103a057600080fd5b8063232fa7331461033c578063315deeaa1461035f57600080fd5b806307a6bf69146102b0578063102cb82e146102c757806311256603146102e75780631c783def1461031d57600080fd5b366102ab57005b600080fd5b3480156102bc57600080fd5b506102c56108e4565b005b3480156102d357600080fd5b506102c56102e23660046122af565b610bce565b3480156102f357600080fd5b5060025461030890600160a01b900460ff1681565b60405190151581526020015b60405180910390f35b34801561032957600080fd5b50600254600160a01b900460ff16610308565b34801561034857600080fd5b50610351610f0e565b604051908152602001610314565b34801561036b57600080fd5b50600754610351565b34801561038057600080fd5b5061035160135481565b34801561039657600080fd5b5061035160155481565b3480156103ac57600080fd5b5061035160055481565b3480156103c257600080fd5b506011546103d6906001600160a01b031681565b6040516001600160a01b039091168152602001610314565b3480156103fa57600080fd5b506103516104093660046122e8565b610f43565b34801561041a57600080fd5b506010546103d6906001600160a01b031681565b34801561043a57600080fd5b506105126040805161012081018252600080825260208201819052918101829052606081018290526080810182905260a0810182905260c0810182905260e081018290526101008101919091525060408051610120810182526009548152600a5460ff90811615156020830152600b5492820192909252600c54808316151560608301526001600160a01b0361010080830482166080850152600160a81b928390048516151560a0850152600d5491821660c0850152600160a01b82048516151560e085015291900490921615159181019190915290565b604051610314919061230a565b34801561052b57600080fd5b5061035160065481565b34801561054157600080fd5b506102c56105503660046123a8565b61110f565b34801561056157600080fd5b50600f546103d6906001600160a01b031681565b34801561058157600080fd5b506102c56105903660046123c1565b61116e565b3480156105a157600080fd5b506105ab610bb881565b60405162ffffff9091168152602001610314565b3480156105cb57600080fd5b50600e546103d6906001600160a01b031681565b3480156105eb57600080fd5b50600954600a54600b54600c54600d5461063b949360ff9081169392808216926001600160a01b036101008304811693600160a81b9384900481169391831692600160a01b810482169290041689565b60408051998a5297151560208a01529688019590955292151560608701526001600160a01b039182166080870152151560a08601521660c0840152151560e0830152151561010082015261012001610314565b34801561069a57600080fd5b506103516111c1565b3480156106af57600080fd5b506103516114aa565b3480156106c457600080fd5b506102c56106d33660046123ed565b611551565b3480156106e457600080fd5b506000546103d6906001600160a01b031681565b34801561070457600080fd5b5061035160075481565b34801561071a57600080fd5b506008546001600160a01b03166103d6565b34801561073857600080fd5b506002546103d6906001600160a01b031681565b34801561075857600080fd5b506102c5610767366004612449565b6115c5565b34801561077857600080fd5b5061035160145481565b34801561078e57600080fd5b506008546103d6906001600160a01b031681565b3480156107ae57600080fd5b506103516107bd3660046122af565b61195c565b3480156107ce57600080fd5b506107e26107dd3660046123ed565b611a53565b604080519687526020870195909552938501929092526060840152608083015260a082015260c001610314565b34801561081b57600080fd5b506003546103d6906001600160a01b031681565b34801561083b57600080fd5b506004546103d6906001600160a01b031681565b34801561085b57600080fd5b506001546103d6906001600160a01b031681565b34801561087b57600080fd5b5061035161088a3660046122e8565b611b71565b34801561089b57600080fd5b506102c56108aa366004612596565b611de2565b3480156108bb57600080fd5b506012546103d6906001600160a01b031681565b3480156108db57600080fd5b506102c5611e62565b6000546040805180820190915260018152601960f91b6020820152906001600160a01b031633146109315760405162461bcd60e51b815260040161092891906125e8565b60405180910390fd5b506008546040516370a0823160e01b81523060048201526001600160a01b039091169060009082906370a0823190602401602060405180830381865afa15801561097f573d6000803e3d6000fd5b505050506040513d601f19601f820116820180604052508101906109a3919061261b565b90506000811160405180604001604052806002815260200161031360f41b815250906109e25760405162461bcd60e51b815260040161092891906125e8565b506000309050600080600160009054906101000a90046001600160a01b03166001600160a01b031663026b1d5f6040518163ffffffff1660e01b8152600401602060405180830381865afa158015610a3e573d6000803e3d6000fd5b505050506040513d601f19601f82011682018060405250810190610a629190612634565b60405163095ea7b360e01b81526001600160a01b038083166004830152602482018790529192509086169063095ea7b3906044016020604051808303816000875af1158015610ab5573d6000803e3d6000fd5b505050506040513d601f19601f82011682018060405250810190610ad99190612651565b506040517f617ba0370000000000000000000000000000000000000000000000000000000081526001600160a01b03868116600483015260248201869052848116604483015261ffff8416606483015282169063617ba03790608401600060405180830381600087803b158015610b4f57600080fd5b505af1158015610b63573d6000803e3d6000fd5b50505050846001600160a01b0316836001600160a01b03167f51a2b359618aeb0bcc2a495a6667c0bdbfddc3bb27eb0dd5b8e3b33a4c15865f86604051610bac91815260200190565b60405180910390a350506002805460ff60a01b1916600160a01b179055505050565b6000546040805180820190915260018152601960f91b6020820152906001600160a01b03163314610c125760405162461bcd60e51b815260040161092891906125e8565b50600c5460ff1615156001148015610c345750600d54600160a01b900460ff16155b6040518060400160405280600281526020017f313200000000000000000000000000000000000000000000000000000000000081525090610c885760405162461bcd60e51b815260040161092891906125e8565b508015610df8576012546008546040516370a0823160e01b81523060048201526001600160a01b0392831692632e1a7d4d9216906370a0823190602401602060405180830381865afa158015610ce2573d6000803e3d6000fd5b505050506040513d601f19601f82011682018060405250810190610d06919061261b565b6040518263ffffffff1660e01b8152600401610d2491815260200190565b600060405180830381600087803b158015610d3e57600080fd5b505af1158015610d52573d6000803e3d6000fd5b50506008546040516370a0823160e01b81523060048201526001600160a01b0386811694506108fc9350909116906370a0823190602401602060405180830381865afa158015610da6573d6000803e3d6000fd5b505050506040513d601f19601f82011682018060405250810190610dca919061261b565b6040518115909202916000818181858888f19350505050158015610df2573d6000803e3d6000fd5b50610ef7565b6008546040516370a0823160e01b81523060048201526001600160a01b039091169063a9059cbb90849083906370a0823190602401602060405180830381865afa158015610e4a573d6000803e3d6000fd5b505050506040513d601f19601f82011682018060405250810190610e6e919061261b565b6040517fffffffff0000000000000000000000000000000000000000000000000000000060e085901b1681526001600160a01b03909216600483015260248201526044016020604051808303816000875af1158015610ed1573d6000803e3d6000fd5b505050506040513d601f19601f82011682018060405250810190610ef59190612651565b505b5050600d805460ff60a01b1916600160a01b179055565b600c805460ff19166001179055600254600090600160a01b900460ff1615610f3d57610f386111c1565b905090565b50600090565b600d546000908190610f5f906001600160a01b0316600161195c565b905060008084600754610f729190612684565b6008549091506001600160a01b03168115611040576000610f9482600061195c565b9050816001600160a01b031663313ce5676040518163ffffffff1660e01b8152600401602060405180830381865afa158015610fd4573d6000803e3d6000fd5b505050506040513d601f19601f82011682018060405250810190610ff89190612697565b61100390600a61279e565b6005546127109061101484876127ad565b61101e91906127ad565b61102891906127c4565b61103291906127c4565b61103c9085612684565b9350505b600d54604080517f313ce56700000000000000000000000000000000000000000000000000000000815290516000926001600160a01b03169163313ce5679160048281019260209291908290030181865afa1580156110a3573d6000803e3d6000fd5b505050506040513d601f19601f820116820180604052508101906110c79190612697565b6110d290600a61279e565b6110dc868a6127ad565b6110e691906127c4565b90506000816110f68660646127ad565b61110091906127c4565b96505050505050505b92915050565b6000546040805180820190915260018152601960f91b6020820152906001600160a01b031633146111535760405162461bcd60e51b815260040161092891906125e8565b5080600760008282546111669190612684565b909155505050565b6000546040805180820190915260018152601960f91b6020820152906001600160a01b031633146111b25760405162461bcd60e51b815260040161092891906125e8565b50601555601491909155601355565b600080546040805180820190915260018152601960f91b6020820152906001600160a01b031633146112065760405162461bcd60e51b815260040161092891906125e8565b506008546002546040516370a0823160e01b81523060048201526001600160a01b039283169260009216906370a0823190602401602060405180830381865afa158015611257573d6000803e3d6000fd5b505050506040513d601f19601f8201168201806040525081019061127b919061261b565b90506000811160405180604001604052806002815260200161031360f41b815250906112ba5760405162461bcd60e51b815260040161092891906125e8565b50600154604080517f026b1d5f00000000000000000000000000000000000000000000000000000000815290516000926001600160a01b03169163026b1d5f9160048083019260209291908290030181865afa15801561131e573d6000803e3d6000fd5b505050506040513d601f19601f820116820180604052508101906113429190612634565b60025460405163095ea7b360e01b81526001600160a01b0380841660048301526024820186905292935091169063095ea7b3906044016020604051808303816000875af1158015611397573d6000803e3d6000fd5b505050506040513d601f19601f820116820180604052508101906113bb9190612651565b506040517f69328dec0000000000000000000000000000000000000000000000000000000081526001600160a01b038481166004830152602482018490523060448301528216906369328dec906064016020604051808303816000875af115801561142a573d6000803e3d6000fd5b505050506040513d601f19601f8201168201806040525081019061144e919061261b565b506002546040518381526001600160a01b039091169030907f83aa598dd3e269af677698c6847b3ba594a67d286a771d01099aafa911a91b649060200160405180910390a350506002805460ff60a01b19169055506000905090565b6002546040516370a0823160e01b815230600482015260009182916001600160a01b03909116906370a0823190602401602060405180830381865afa1580156114f7573d6000803e3d6000fd5b505050506040513d601f19601f8201168201806040525081019061151b919061261b565b905060006007548261152d91906127e6565b90506127106014548261154091906127ad565b61154a91906127c4565b9250505090565b6000546040805180820190915260018152601960f91b6020820152906001600160a01b031633146115955760405162461bcd60e51b815260040161092891906125e8565b506010805473ffffffffffffffffffffffffffffffffffffffff19166001600160a01b0392909216919091179055565b7ff0c57e16840df040f15088dc2f81fe391c3923bec73e23a9662efc9c229c6a00805468010000000000000000810460ff16159067ffffffffffffffff166000811580156116105750825b905060008267ffffffffffffffff16600114801561162d5750303b155b90508115801561163b575080155b15611672576040517ff92ee8a900000000000000000000000000000000000000000000000000000000815260040160405180910390fd5b845467ffffffffffffffff1916600117855583156116a657845468ff00000000000000001916680100000000000000001785555b336000806101000a8154816001600160a01b0302191690836001600160a01b031602179055508e60096000820151816000015560208201518160010160006101000a81548160ff0219169083151502179055506040820151816002015560608201518160030160006101000a81548160ff02191690831515021790555060808201518160030160016101000a8154816001600160a01b0302191690836001600160a01b0316021790555060a08201518160030160156101000a81548160ff02191690831515021790555060c08201518160040160006101000a8154816001600160a01b0302191690836001600160a01b0316021790555060e08201518160040160146101000a81548160ff0219169083151502179055506101008201518160040160156101000a81548160ff0219169083151502179055509050508d600860006101000a8154816001600160a01b0302191690836001600160a01b031602179055508c600160006101000a8154816001600160a01b0302191690836001600160a01b031602179055508a600681905550896005819055508b600260006101000a8154816001600160a01b0302191690836001600160a01b0316021790555088600e60006101000a8154816001600160a01b0302191690836001600160a01b0316021790555087600f60006101000a8154816001600160a01b0302191690836001600160a01b0316021790555086601160006101000a8154816001600160a01b0302191690836001600160a01b0316021790555085601260006101000a8154816001600160a01b0302191690836001600160a01b03160217905550831561194b57845468ff000000000000000019168555604051600181527fc7f505b2f371ae2175ee4913f4499e1f2633a7b5936321eed1cdaeb6115181d29060200160405180910390a15b505050505050505050505050505050565b600081151581036119f8576000806000806000600e60009054906101000a90046001600160a01b03166001600160a01b031663feaf968c6040518163ffffffff1660e01b815260040160a060405180830381865afa1580156119c2573d6000803e3d6000fd5b505050506040513d601f19601f820116820180604052508101906119e69190612813565b50919850611109975050505050505050565b6000806000806000600f60009054906101000a90046001600160a01b03166001600160a01b031663feaf968c6040518163ffffffff1660e01b815260040160a060405180830381865afa1580156119c2573d6000803e3d6000fd5b6000806000806000806000600160009054906101000a90046001600160a01b03166001600160a01b031663026b1d5f6040518163ffffffff1660e01b8152600401602060405180830381865afa158015611ab1573d6000803e3d6000fd5b505050506040513d601f19601f82011682018060405250810190611ad59190612634565b6040517fbf92857c0000000000000000000000000000000000000000000000000000000081526001600160a01b038a811660048301529192509082169063bf92857c9060240160c060405180830381865afa158015611b38573d6000803e3d6000fd5b505050506040513d601f19601f82011682018060405250810190611b5c9190612863565b949d939c50919a509850965090945092505050565b600080546040805180820190915260018152601960f91b6020820152906001600160a01b03163314611bb65760405162461bcd60e51b815260040161092891906125e8565b506064611bc4846000610f43565b106040518060400160405280600281526020017f313100000000000000000000000000000000000000000000000000000000000081525090611c195760405162461bcd60e51b815260040161092891906125e8565b50600254600090600160a01b900460ff1615611c3a57611c376111c1565b90505b6008546001600160a01b0316611ce8612710611c568682612684565b611c6090886127ad565b611c6a91906127c4565b6008546040516370a0823160e01b81523060048201526001600160a01b03909116906370a0823190602401602060405180830381865afa158015611cb2573d6000803e3d6000fd5b505050506040513d601f19601f82011682018060405250810190611cd6919061261b565b600d546001600160a01b031684611eb6565b50600c80547fffffffffffffffffffff00ffffffffffffffffffffffffffffffffffffffffff16600160a81b179055600d546010546001600160a01b039182169163095ea7b39116612710611d3d8882612684565b611d47908a6127ad565b611d5191906127c4565b6040517fffffffff0000000000000000000000000000000000000000000000000000000060e085901b1681526001600160a01b03909216600483015260248201526044016020604051808303816000875af1158015611db4573d6000803e3d6000fd5b505050506040513d601f19601f82011682018060405250810190611dd89190612651565b5090949350505050565b6000546040805180820190915260018152601960f91b6020820152906001600160a01b03163314611e265760405162461bcd60e51b815260040161092891906125e8565b50600380546001600160a01b0393841673ffffffffffffffffffffffffffffffffffffffff199182161790915560048054929093169116179055565b6000546040805180820190915260018152601960f91b6020820152906001600160a01b03163314611ea65760405162461bcd60e51b815260040161092891906125e8565b50600a805460ff19166001179055565b600354600090611ed19083906001600160a01b03168661213e565b600480546040517f1698ee820000000000000000000000000000000000000000000000000000000081526001600160a01b03858116938201939093528583166024820152610bb8604482015260009290911690631698ee8290606401602060405180830381865afa158015611f4a573d6000803e3d6000fd5b505050506040513d601f19601f82011682018060405250810190611f6e9190612634565b90506000816001600160a01b031663ddca3f436040518163ffffffff1660e01b8152600401602060405180830381865afa158015611fb0573d6000803e3d6000fd5b505050506040513d601f19601f82011682018060405250810190611fd491906128ad565b60408051610100810182526001600160a01b038088168252888116602083015262ffffff84168284015233606083015242608083015260a082018b905260c082018a9052600060e083015260035492517fdb3e2198000000000000000000000000000000000000000000000000000000008152939450909291169063db3e2198906120cd9084906004016000610100820190506001600160a01b0380845116835280602085015116602084015262ffffff60408501511660408401528060608501511660608401526080840151608084015260a084015160a084015260c084015160c08401528060e08501511660e08401525092915050565b6020604051808303816000875af11580156120ec573d6000803e3d6000fd5b505050506040513d601f19601f82011682018060405250810190612110919061261b565b935086841015612133576003546121339086906001600160a01b0316600061213e565b505050949350505050565b604080516001600160a01b038481166024830152604480830185905283518084039091018152606490920183526020820180517bffffffffffffffffffffffffffffffffffffffffffffffffffffffff1663095ea7b360e01b17905291516000928392908716916121af91906128d2565b6000604051808303816000865af19150503d80600081146121ec576040519150601f19603f3d011682016040523d82523d6000602084013e6121f1565b606091505b509150915081801561221b57508051158061221b57508080602001905181019061221b9190612651565b6122675760405162461bcd60e51b815260206004820152600260248201527f53410000000000000000000000000000000000000000000000000000000000006044820152606401610928565b5050505050565b6001600160a01b038116811461228357600080fd5b50565b80356122918161226e565b919050565b801515811461228357600080fd5b803561229181612296565b600080604083850312156122c257600080fd5b82356122cd8161226e565b915060208301356122dd81612296565b809150509250929050565b600080604083850312156122fb57600080fd5b50508035926020909101359150565b6000610120820190508251825260208301511515602083015260408301516040830152606083015115156060830152608083015161235360808401826001600160a01b03169052565b5060a083015161236760a084018215159052565b5060c083015161238260c08401826001600160a01b03169052565b5060e083015161239660e084018215159052565b50610100928301511515919092015290565b6000602082840312156123ba57600080fd5b5035919050565b6000806000606084860312156123d657600080fd5b505081359360208301359350604090920135919050565b6000602082840312156123ff57600080fd5b813561240a8161226e565b9392505050565b604051610120810167ffffffffffffffff8111828210171561244357634e487b7160e01b600052604160045260246000fd5b60405290565b6000806000806000806000806000808a8c0361024081121561246a57600080fd5b6101208082121561247a57600080fd5b612482612411565b91508c35825261249460208e016122a4565b602083015260408d013560408301526124af60608e016122a4565b60608301526124c060808e01612286565b60808301526124d160a08e016122a4565b60a08301526124e260c08e01612286565b60c08301526124f360e08e016122a4565b60e0830152610100612506818f016122a4565b8184015250819b50612519818e01612286565b9a50505061252a6101408c01612286565b97506125396101608c01612286565b96506101808b013595506101a08b013594506125586101c08c01612286565b93506125676101e08c01612286565b92506125766102008c01612286565b91506125856102208c01612286565b90509295989b9194979a5092959850565b600080604083850312156125a957600080fd5b82356125b48161226e565b915060208301356122dd8161226e565b60005b838110156125df5781810151838201526020016125c7565b50506000910152565b60208152600082518060208401526126078160408501602087016125c4565b601f01601f19169190910160400192915050565b60006020828403121561262d57600080fd5b5051919050565b60006020828403121561264657600080fd5b815161240a8161226e565b60006020828403121561266357600080fd5b815161240a81612296565b634e487b7160e01b600052601160045260246000fd5b808201808211156111095761110961266e565b6000602082840312156126a957600080fd5b815160ff8116811461240a57600080fd5b600181815b808511156126f55781600019048211156126db576126db61266e565b808516156126e857918102915b93841c93908002906126bf565b509250929050565b60008261270c57506001611109565b8161271957506000611109565b816001811461272f576002811461273957612755565b6001915050611109565b60ff84111561274a5761274a61266e565b50506001821b611109565b5060208310610133831016604e8410600b8410161715612778575081810a611109565b61278283836126ba565b80600019048211156127965761279661266e565b029392505050565b600061240a60ff8416836126fd565b80820281158282048414176111095761110961266e565b6000826127e157634e487b7160e01b600052601260045260246000fd5b500490565b818103818111156111095761110961266e565b805169ffffffffffffffffffff8116811461229157600080fd5b600080600080600060a0868803121561282b57600080fd5b612834866127f9565b9450602086015193506040860151925060608601519150612857608087016127f9565b90509295509295909350565b60008060008060008060c0878903121561287c57600080fd5b865195506020870151945060408701519350606087015192506080870151915060a087015190509295509295509295565b6000602082840312156128bf57600080fd5b815162ffffff8116811461240a57600080fd5b600082516128e48184602087016125c4565b919091019291505056fea26469706673582212206ba9340849b85e8a5bf136a5489b2e0f787f562a803bc71d1ad9095388bf88bd64736f6c63430008180033",
  "linkReferences": {},
  "deployedLinkReferences": {}
}