{
  "_format": "hh-sol-artifact-1",
  "contractName": "CCFL",
  "sourceName": "contracts/CCFL.sol",
  "abi": [
    {
      "inputs": [],
      "name": "ERC1167FailedCreateClone",
      "type": "error"
    },
    {
      "inputs": [],
      "name": "InvalidInitialization",
      "type": "error"
    },
    {
      "inputs": [],
      "name": "NotInitializing",
      "type": "error"
    },
    {
      "anonymous": false,
      "inputs": [
        {
          "indexed": true,
          "internalType": "address",
          "name": "borrower",
          "type": "address"
        },
        {
          "indexed": false,
          "internalType": "uint256",
          "name": "loanId",
          "type": "uint256"
        },
        {
          "indexed": false,
          "internalType": "uint256",
          "name": "collateralAmount",
          "type": "uint256"
        },
        {
          "indexed": false,
          "internalType": "contract IERC20Standard",
          "name": "collateral",
          "type": "address"
        },
        {
          "indexed": false,
          "internalType": "bool",
          "name": "isETH",
          "type": "bool"
        },
        {
          "indexed": false,
          "internalType": "uint256",
          "name": "timestamp",
          "type": "uint256"
        }
      ],
      "name": "AddCollateral",
      "type": "event"
    },
    {
      "anonymous": false,
      "inputs": [
        {
          "indexed": true,
          "internalType": "address",
          "name": "borrower",
          "type": "address"
        },
        {
          "indexed": false,
          "internalType": "uint256",
          "name": "loanAmount",
          "type": "uint256"
        },
        {
          "indexed": false,
          "internalType": "contract IERC20Standard",
          "name": "supply",
          "type": "address"
        },
        {
          "indexed": false,
          "internalType": "uint256",
          "name": "collateralAmount",
          "type": "uint256"
        },
        {
          "indexed": false,
          "internalType": "contract IERC20Standard",
          "name": "collateral",
          "type": "address"
        },
        {
          "indexed": false,
          "internalType": "bool",
          "name": "isYieldGenerating",
          "type": "bool"
        },
        {
          "indexed": false,
          "internalType": "bool",
          "name": "isETH",
          "type": "bool"
        },
        {
          "indexed": false,
          "internalType": "uint256",
          "name": "loanId",
          "type": "uint256"
        },
        {
          "indexed": false,
          "internalType": "uint256",
          "name": "timestamp",
          "type": "uint256"
        }
      ],
      "name": "CreateLoan",
      "type": "event"
    },
    {
      "anonymous": false,
      "inputs": [
        {
          "indexed": false,
          "internalType": "uint64",
          "name": "version",
          "type": "uint64"
        }
      ],
      "name": "Initialized",
      "type": "event"
    },
    {
      "anonymous": false,
      "inputs": [
        {
          "indexed": true,
          "internalType": "address",
          "name": "liquidator",
          "type": "address"
        },
        {
          "indexed": false,
          "internalType": "uint256",
          "name": "loanId",
          "type": "uint256"
        },
        {
          "indexed": false,
          "internalType": "uint256",
          "name": "timestamp",
          "type": "uint256"
        }
      ],
      "name": "Liquidate",
      "type": "event"
    },
    {
      "anonymous": false,
      "inputs": [
        {
          "indexed": true,
          "internalType": "address",
          "name": "borrower",
          "type": "address"
        },
        {
          "indexed": false,
          "internalType": "uint256",
          "name": "loanId",
          "type": "uint256"
        },
        {
          "indexed": false,
          "internalType": "uint256",
          "name": "amount",
          "type": "uint256"
        },
        {
          "indexed": false,
          "internalType": "contract IERC20Standard",
          "name": "supply",
          "type": "address"
        },
        {
          "indexed": false,
          "internalType": "uint256",
          "name": "timestamp",
          "type": "uint256"
        }
      ],
      "name": "RepayLoan",
      "type": "event"
    },
    {
      "anonymous": false,
      "inputs": [
        {
          "indexed": true,
          "internalType": "address",
          "name": "borrower",
          "type": "address"
        },
        {
          "indexed": false,
          "internalType": "uint256",
          "name": "loanId",
          "type": "uint256"
        },
        {
          "indexed": false,
          "internalType": "bool",
          "name": "isETH",
          "type": "bool"
        },
        {
          "indexed": false,
          "internalType": "uint256",
          "name": "timestamp",
          "type": "uint256"
        }
      ],
      "name": "WithdrawAllCollateral",
      "type": "event"
    },
    {
      "anonymous": false,
      "inputs": [
        {
          "indexed": true,
          "internalType": "address",
          "name": "borrower",
          "type": "address"
        },
        {
          "indexed": false,
          "internalType": "uint256",
          "name": "loanId",
          "type": "uint256"
        },
        {
          "indexed": false,
          "internalType": "contract IERC20Standard",
          "name": "supply",
          "type": "address"
        },
        {
          "indexed": false,
          "internalType": "uint256",
          "name": "timestamp",
          "type": "uint256"
        }
      ],
      "name": "WithdrawLoan",
      "type": "event"
    },
    {
      "inputs": [
        {
          "internalType": "contract IERC20Standard",
          "name": "",
          "type": "address"
        }
      ],
      "name": "aTokens",
      "outputs": [
        {
          "internalType": "contract IERC20Standard",
          "name": "",
          "type": "address"
        }
      ],
      "stateMutability": "view",
      "type": "function"
    },
    {
      "inputs": [],
      "name": "aaveAddressProvider",
      "outputs": [
        {
          "internalType": "contract IPoolAddressesProvider",
          "name": "",
          "type": "address"
        }
      ],
      "stateMutability": "view",
      "type": "function"
    },
    {
      "inputs": [
        {
          "internalType": "uint256",
          "name": "_loanId",
          "type": "uint256"
        },
        {
          "internalType": "uint256",
          "name": "_amountCollateral",
          "type": "uint256"
        },
        {
          "internalType": "contract IERC20Standard",
          "name": "_collateral",
          "type": "address"
        },
        {
          "internalType": "bool",
          "name": "_isETH",
          "type": "bool"
        }
      ],
      "name": "addCollateral",
      "outputs": [],
      "stateMutability": "payable",
      "type": "function"
    },
    {
      "inputs": [
        {
          "internalType": "uint256",
          "name": "_loanId",
          "type": "uint256"
        },
        {
          "internalType": "uint256",
          "name": "_amountCollateral",
          "type": "uint256"
        }
      ],
      "name": "addCollateralHealthFactor",
      "outputs": [
        {
          "internalType": "uint256",
          "name": "",
          "type": "uint256"
        }
      ],
      "stateMutability": "view",
      "type": "function"
    },
    {
      "inputs": [
        {
          "internalType": "contract IERC20Standard",
          "name": "",
          "type": "address"
        }
      ],
      "name": "ccflActiveCollaterals",
      "outputs": [
        {
          "internalType": "bool",
          "name": "",
          "type": "bool"
        }
      ],
      "stateMutability": "view",
      "type": "function"
    },
    {
      "inputs": [
        {
          "internalType": "contract IERC20Standard",
          "name": "",
          "type": "address"
        }
      ],
      "name": "ccflActivePoolStableCoins",
      "outputs": [
        {
          "internalType": "bool",
          "name": "",
          "type": "bool"
        }
      ],
      "stateMutability": "view",
      "type": "function"
    },
    {
      "inputs": [
        {
          "internalType": "uint256",
          "name": "",
          "type": "uint256"
        }
      ],
      "name": "ccflPoolStableCoins",
      "outputs": [
        {
          "internalType": "contract IERC20Standard",
          "name": "",
          "type": "address"
        }
      ],
      "stateMutability": "view",
      "type": "function"
    },
    {
      "inputs": [
        {
          "internalType": "contract IERC20Standard",
          "name": "",
          "type": "address"
        }
      ],
      "name": "ccflPools",
      "outputs": [
        {
          "internalType": "contract ICCFLPool",
          "name": "",
          "type": "address"
        }
      ],
      "stateMutability": "view",
      "type": "function"
    },
    {
      "inputs": [
        {
          "internalType": "contract IERC20Standard[]",
          "name": "array",
          "type": "address[]"
        },
        {
          "internalType": "contract IERC20Standard",
          "name": "el",
          "type": "address"
        }
      ],
      "name": "checkExistElement",
      "outputs": [
        {
          "internalType": "bool",
          "name": "",
          "type": "bool"
        }
      ],
      "stateMutability": "pure",
      "type": "function"
    },
    {
      "inputs": [
        {
          "internalType": "uint256",
          "name": "",
          "type": "uint256"
        }
      ],
      "name": "collateralTokens",
      "outputs": [
        {
          "internalType": "contract IERC20Standard",
          "name": "",
          "type": "address"
        }
      ],
      "stateMutability": "view",
      "type": "function"
    },
    {
      "inputs": [
        {
          "internalType": "address",
          "name": "",
          "type": "address"
        },
        {
          "internalType": "contract IERC20Standard",
          "name": "",
          "type": "address"
        }
      ],
      "name": "collaterals",
      "outputs": [
        {
          "internalType": "uint256",
          "name": "",
          "type": "uint256"
        }
      ],
      "stateMutability": "view",
      "type": "function"
    },
    {
      "inputs": [
        {
          "internalType": "uint256",
          "name": "_amount",
          "type": "uint256"
        },
        {
          "internalType": "contract IERC20Standard",
          "name": "_stableCoin",
          "type": "address"
        },
        {
          "internalType": "uint256",
          "name": "_amountCollateral",
          "type": "uint256"
        },
        {
          "internalType": "contract IERC20Standard",
          "name": "_collateral",
          "type": "address"
        },
        {
          "internalType": "bool",
          "name": "_isYieldGenerating",
          "type": "bool"
        }
      ],
      "name": "createLoan",
      "outputs": [],
      "stateMutability": "nonpayable",
      "type": "function"
    },
    {
      "inputs": [
        {
          "internalType": "uint256",
          "name": "_amount",
          "type": "uint256"
        },
        {
          "internalType": "contract IERC20Standard",
          "name": "_stableCoin",
          "type": "address"
        },
        {
          "internalType": "uint256",
          "name": "_amountETH",
          "type": "uint256"
        },
        {
          "internalType": "bool",
          "name": "_isYieldGenerating",
          "type": "bool"
        }
      ],
      "name": "createLoanByETH",
      "outputs": [],
      "stateMutability": "payable",
      "type": "function"
    },
    {
      "inputs": [],
      "name": "earnSharePercent",
      "outputs": [
        {
          "internalType": "uint256",
          "name": "",
          "type": "uint256"
        }
      ],
      "stateMutability": "view",
      "type": "function"
    },
    {
      "inputs": [],
      "name": "factory",
      "outputs": [
        {
          "internalType": "contract IUniswapV3Factory",
          "name": "",
          "type": "address"
        }
      ],
      "stateMutability": "view",
      "type": "function"
    },
    {
      "inputs": [
        {
          "internalType": "uint256",
          "name": "_loanId",
          "type": "uint256"
        }
      ],
      "name": "getHealthFactor",
      "outputs": [
        {
          "internalType": "uint256",
          "name": "",
          "type": "uint256"
        }
      ],
      "stateMutability": "view",
      "type": "function"
    },
    {
      "inputs": [
        {
          "internalType": "contract IERC20Standard",
          "name": "_stableCoin",
          "type": "address"
        },
        {
          "internalType": "bool",
          "name": "isPool",
          "type": "bool"
        }
      ],
      "name": "getLatestPrice",
      "outputs": [
        {
          "internalType": "uint256",
          "name": "",
          "type": "uint256"
        }
      ],
      "stateMutability": "view",
      "type": "function"
    },
    {
      "inputs": [
        {
          "internalType": "uint256",
          "name": "_loanId",
          "type": "uint256"
        }
      ],
      "name": "getLoanAddress",
      "outputs": [
        {
          "internalType": "address",
          "name": "",
          "type": "address"
        }
      ],
      "stateMutability": "view",
      "type": "function"
    },
    {
      "inputs": [
        {
          "internalType": "address",
          "name": "borrower",
          "type": "address"
        }
      ],
      "name": "getLoanIds",
      "outputs": [
        {
          "internalType": "uint256[]",
          "name": "",
          "type": "uint256[]"
        }
      ],
      "stateMutability": "view",
      "type": "function"
    },
    {
      "inputs": [
        {
          "internalType": "uint256",
          "name": "_amount",
          "type": "uint256"
        },
        {
          "internalType": "contract IERC20Standard",
          "name": "_stableCoin",
          "type": "address"
        },
        {
          "internalType": "contract IERC20Standard",
          "name": "_collateral",
          "type": "address"
        }
      ],
      "name": "getMinimalCollateral",
      "outputs": [
        {
          "internalType": "uint256",
          "name": "",
          "type": "uint256"
        }
      ],
      "stateMutability": "view",
      "type": "function"
    },
    {
      "inputs": [
        {
          "internalType": "contract IERC20Standard[]",
          "name": "_ccflPoolStableCoin",
          "type": "address[]"
        },
        {
          "internalType": "contract AggregatorV3Interface[]",
          "name": "_poolAggregators",
          "type": "address[]"
        },
        {
          "internalType": "contract ICCFLPool[]",
          "name": "_ccflPools",
          "type": "address[]"
        },
        {
          "internalType": "contract IERC20Standard[]",
          "name": "_collateralTokens",
          "type": "address[]"
        },
        {
          "internalType": "contract AggregatorV3Interface[]",
          "name": "_collateralAggregators",
          "type": "address[]"
        },
        {
          "internalType": "contract IERC20Standard[]",
          "name": "_aTokens",
          "type": "address[]"
        },
        {
          "internalType": "contract IPoolAddressesProvider",
          "name": "_aaveAddressProvider",
          "type": "address"
        },
        {
          "internalType": "uint256",
          "name": "_maxLTV",
          "type": "uint256"
        },
        {
          "internalType": "uint256",
          "name": "_liquidationThreshold",
          "type": "uint256"
        },
        {
          "internalType": "contract ICCFLLoan",
          "name": "_ccflLoan",
          "type": "address"
        }
      ],
      "name": "initialize",
      "outputs": [],
      "stateMutability": "nonpayable",
      "type": "function"
    },
    {
      "inputs": [
        {
          "internalType": "uint256",
          "name": "_loanId",
          "type": "uint256"
        }
      ],
      "name": "liquidate",
      "outputs": [],
      "stateMutability": "nonpayable",
      "type": "function"
    },
    {
      "inputs": [],
      "name": "liquidationThreshold",
      "outputs": [
        {
          "internalType": "uint256",
          "name": "",
          "type": "uint256"
        }
      ],
      "stateMutability": "view",
      "type": "function"
    },
    {
      "inputs": [],
      "name": "liquidator",
      "outputs": [
        {
          "internalType": "address",
          "name": "",
          "type": "address"
        }
      ],
      "stateMutability": "view",
      "type": "function"
    },
    {
      "inputs": [],
      "name": "loandIds",
      "outputs": [
        {
          "internalType": "uint256",
          "name": "",
          "type": "uint256"
        }
      ],
      "stateMutability": "view",
      "type": "function"
    },
    {
      "inputs": [],
      "name": "maxLTV",
      "outputs": [
        {
          "internalType": "uint256",
          "name": "",
          "type": "uint256"
        }
      ],
      "stateMutability": "view",
      "type": "function"
    },
    {
      "inputs": [],
      "name": "owner",
      "outputs": [
        {
          "internalType": "address",
          "name": "",
          "type": "address"
        }
      ],
      "stateMutability": "view",
      "type": "function"
    },
    {
      "inputs": [],
      "name": "penaltyLender",
      "outputs": [
        {
          "internalType": "uint256",
          "name": "",
          "type": "uint256"
        }
      ],
      "stateMutability": "view",
      "type": "function"
    },
    {
      "inputs": [],
      "name": "penaltyLiquidator",
      "outputs": [
        {
          "internalType": "uint256",
          "name": "",
          "type": "uint256"
        }
      ],
      "stateMutability": "view",
      "type": "function"
    },
    {
      "inputs": [],
      "name": "penaltyPlatform",
      "outputs": [
        {
          "internalType": "uint256",
          "name": "",
          "type": "uint256"
        }
      ],
      "stateMutability": "view",
      "type": "function"
    },
    {
      "inputs": [],
      "name": "platform",
      "outputs": [
        {
          "internalType": "address",
          "name": "",
          "type": "address"
        }
      ],
      "stateMutability": "view",
      "type": "function"
    },
    {
      "inputs": [
        {
          "internalType": "contract IERC20Standard",
          "name": "",
          "type": "address"
        }
      ],
      "name": "priceFeeds",
      "outputs": [
        {
          "internalType": "contract AggregatorV3Interface",
          "name": "",
          "type": "address"
        }
      ],
      "stateMutability": "view",
      "type": "function"
    },
    {
      "inputs": [
        {
          "internalType": "contract IERC20Standard",
          "name": "",
          "type": "address"
        }
      ],
      "name": "pricePoolFeeds",
      "outputs": [
        {
          "internalType": "contract AggregatorV3Interface",
          "name": "",
          "type": "address"
        }
      ],
      "stateMutability": "view",
      "type": "function"
    },
    {
      "inputs": [
        {
          "internalType": "uint256",
          "name": "_loanId",
          "type": "uint256"
        },
        {
          "internalType": "uint256",
          "name": "_amount",
          "type": "uint256"
        }
      ],
      "name": "repayHealthFactor",
      "outputs": [
        {
          "internalType": "uint256",
          "name": "",
          "type": "uint256"
        }
      ],
      "stateMutability": "view",
      "type": "function"
    },
    {
      "inputs": [
        {
          "internalType": "uint256",
          "name": "_loanId",
          "type": "uint256"
        },
        {
          "internalType": "uint256",
          "name": "_amount",
          "type": "uint256"
        },
        {
          "internalType": "contract IERC20Standard",
          "name": "_stableCoin",
          "type": "address"
        }
      ],
      "name": "repayLoan",
      "outputs": [],
      "stateMutability": "nonpayable",
      "type": "function"
    },
    {
      "inputs": [
        {
          "internalType": "contract IPoolAddressesProvider",
          "name": "_aaveAddressProvider",
          "type": "address"
        }
      ],
      "name": "setAaveProvider",
      "outputs": [],
      "stateMutability": "nonpayable",
      "type": "function"
    },
    {
      "inputs": [
        {
          "internalType": "contract IERC20Standard",
          "name": "_token",
          "type": "address"
        },
        {
          "internalType": "bool",
          "name": "_isActived",
          "type": "bool"
        },
        {
          "internalType": "bool",
          "name": "_isPoolToken",
          "type": "bool"
        }
      ],
      "name": "setActiveToken",
      "outputs": [],
      "stateMutability": "nonpayable",
      "type": "function"
    },
    {
      "inputs": [
        {
          "internalType": "contract ICCFLLoan",
          "name": "_loan",
          "type": "address"
        }
      ],
      "name": "setCCFLLoan",
      "outputs": [],
      "stateMutability": "nonpayable",
      "type": "function"
    },
    {
      "inputs": [
        {
          "internalType": "contract IERC20Standard[]",
          "name": "_collateralTokens",
          "type": "address[]"
        },
        {
          "internalType": "contract AggregatorV3Interface[]",
          "name": "_collateralAggregators",
          "type": "address[]"
        },
        {
          "internalType": "contract IERC20Standard[]",
          "name": "_aTokens",
          "type": "address[]"
        }
      ],
      "name": "setCollaterals",
      "outputs": [],
      "stateMutability": "nonpayable",
      "type": "function"
    },
    {
      "inputs": [
        {
          "internalType": "uint256",
          "name": "_earnSharePercent",
          "type": "uint256"
        }
      ],
      "name": "setEarnSharePercent",
      "outputs": [],
      "stateMutability": "nonpayable",
      "type": "function"
    },
    {
      "inputs": [
        {
          "internalType": "uint256",
          "name": "_platform",
          "type": "uint256"
        },
        {
          "internalType": "uint256",
          "name": "_liquidator",
          "type": "uint256"
        },
        {
          "internalType": "uint256",
          "name": "_lender",
          "type": "uint256"
        }
      ],
      "name": "setPenalty",
      "outputs": [],
      "stateMutability": "nonpayable",
      "type": "function"
    },
    {
      "inputs": [
        {
          "internalType": "address",
          "name": "_liquidator",
          "type": "address"
        },
        {
          "internalType": "address",
          "name": "_platform",
          "type": "address"
        }
      ],
      "name": "setPlatformAddress",
      "outputs": [],
      "stateMutability": "nonpayable",
      "type": "function"
    },
    {
      "inputs": [
        {
          "internalType": "contract IERC20Standard[]",
          "name": "_ccflPoolStableCoin",
          "type": "address[]"
        },
        {
          "internalType": "contract AggregatorV3Interface[]",
          "name": "_poolAggregators",
          "type": "address[]"
        },
        {
          "internalType": "contract ICCFLPool[]",
          "name": "_ccflPools",
          "type": "address[]"
        }
      ],
      "name": "setPools",
      "outputs": [],
      "stateMutability": "nonpayable",
      "type": "function"
    },
    {
      "inputs": [
        {
          "internalType": "contract ISwapRouter",
          "name": "_swapRouter",
          "type": "address"
        },
        {
          "internalType": "contract IUniswapV3Factory",
          "name": "_factory",
          "type": "address"
        }
      ],
      "name": "setSwapRouter",
      "outputs": [],
      "stateMutability": "nonpayable",
      "type": "function"
    },
    {
      "inputs": [
        {
          "internalType": "uint256",
          "name": "_maxLTV",
          "type": "uint256"
        },
        {
          "internalType": "uint256",
          "name": "_liquidationThreshold",
          "type": "uint256"
        }
      ],
      "name": "setThreshold",
      "outputs": [],
      "stateMutability": "nonpayable",
      "type": "function"
    },
    {
      "inputs": [
        {
          "internalType": "contract IWETH",
          "name": "_iWETH",
          "type": "address"
        }
      ],
      "name": "setWETH",
      "outputs": [],
      "stateMutability": "nonpayable",
      "type": "function"
    },
    {
      "inputs": [
        {
          "internalType": "address",
          "name": "",
          "type": "address"
        },
        {
          "internalType": "uint256",
          "name": "",
          "type": "uint256"
        }
      ],
      "name": "userLoans",
      "outputs": [
        {
          "internalType": "uint256",
          "name": "",
          "type": "uint256"
        }
      ],
      "stateMutability": "view",
      "type": "function"
    },
    {
      "inputs": [],
      "name": "wETH",
      "outputs": [
        {
          "internalType": "contract IWETH",
          "name": "",
          "type": "address"
        }
      ],
      "stateMutability": "view",
      "type": "function"
    },
    {
      "inputs": [
        {
          "internalType": "uint256",
          "name": "_loanId",
          "type": "uint256"
        },
        {
          "internalType": "bool",
          "name": "isETH",
          "type": "bool"
        }
      ],
      "name": "withdrawAllCollateral",
      "outputs": [],
      "stateMutability": "nonpayable",
      "type": "function"
    },
    {
      "inputs": [
        {
          "internalType": "contract IERC20Standard",
          "name": "_stableCoin",
          "type": "address"
        },
        {
          "internalType": "uint256",
          "name": "_loanId",
          "type": "uint256"
        }
      ],
      "name": "withdrawLoan",
      "outputs": [],
      "stateMutability": "nonpayable",
      "type": "function"
    },
    {
      "stateMutability": "payable",
      "type": "receive"
    }
  ],
  "bytecode": "0x608060405234801561001057600080fd5b50614c9e806100206000396000f3fe60806040526004361061032d5760003560e01c80638da5cb5b116101a5578063cdaabe41116100ec578063ec7be39d11610095578063f3cf4ada1161006f578063f3cf4ada1461097a578063f6597bbb1461099a578063f8f126ff146109b0578063fdb2b32c146109d057600080fd5b8063ec7be39d14610924578063f242862114610944578063f384bd051461096457600080fd5b8063e43b03d6116100c6578063e43b03d61461089f578063e51e119e146108bf578063e787ea2c146108f457600080fd5b8063cdaabe411461083f578063d8bad5bd1461085f578063dc40e2d01461087f57600080fd5b8063b3bffeaa1161014e578063c0d0154611610128578063c0d01546146107c9578063c45a0155146107ff578063c694fdc11461081f57600080fd5b8063b3bffeaa14610759578063b92dd92514610779578063b9c36209146107a957600080fd5b80639dcb511a1161017f5780639dcb511a146106f7578063a58bab621461072d578063ae6189f81461074357600080fd5b80638da5cb5b1461068157806397f2db61146106a1578063989397d4146106c157600080fd5b8063474843ea11610274578063626a35fb1161021d5780636eb0fdd0116101f75780636eb0fdd014610618578063756078151461063857806379384cef146106585780638ba02e1c1461066b57600080fd5b8063626a35fb146105ab57806364b52097146105cb5780636b64c885146105eb57600080fd5b80635b769f3c1161024e5780635b769f3c1461054b5780635c8edac41461056b578063611f347d1461058b57600080fd5b8063474843ea146104f85780634bde38c8146105185780634dd7bd3f1461053857600080fd5b806338ef6717116102d65780634031234c116102b05780634031234c146104a25780634046ebae146104b8578063415f1240146104d857600080fd5b806338ef67171461042c5780633a2ad9ae1461044c5780633e108ad91461046c57600080fd5b806317845c691161030757806317845c69146103bc5780631d9eb5d9146103dc57806325e9d2fa1461040c57600080fd5b80630769594d14610339578063101b9d311461035b578063172c48c71461038457600080fd5b3661033457005b600080fd5b34801561034557600080fd5b506103596103543660046142a1565b610a06565b005b34801561036757600080fd5b5061037160185481565b6040519081526020015b60405180910390f35b34801561039057600080fd5b506103a461039f366004614329565b610c08565b6040516001600160a01b03909116815260200161037b565b3480156103c857600080fd5b506103716103d7366004614329565b610c32565b3480156103e857600080fd5b506103fc6103f7366004614342565b610db0565b604051901515815260200161037b565b34801561041857600080fd5b50610371610427366004614394565b610e0b565b34801561043857600080fd5b506103596104473660046143c1565b610f8b565b34801561045857600080fd5b506103596104673660046143f3565b610ff2565b34801561047857600080fd5b506103a46104873660046143c1565b600a602052600090815260409020546001600160a01b031681565b3480156104ae57600080fd5b50610371600c5481565b3480156104c457600080fd5b506011546103a4906001600160a01b031681565b3480156104e457600080fd5b506103596104f3366004614329565b6111d1565b34801561050457600080fd5b506103596105133660046143c1565b6118e0565b34801561052457600080fd5b506012546103a4906001600160a01b031681565b61035961054636600461443e565b611947565b34801561055757600080fd5b506103596105663660046143c1565b611c18565b34801561057757600080fd5b50610359610586366004614488565b611c7f565b34801561059757600080fd5b506103596105a63660046144ad565b611dcd565b3480156105b757600080fd5b506103596105c6366004614329565b612190565b3480156105d757600080fd5b506103596105e63660046142a1565b6121da565b3480156105f757600080fd5b5061060b6106063660046143c1565b6123cb565b60405161037b91906145da565b34801561062457600080fd5b5061035961063336600461461e565b612437565b34801561064457600080fd5b5061037161065336600461464c565b61273f565b610359610666366004614683565b61287b565b34801561067757600080fd5b5061037160015481565b34801561068d57600080fd5b506013546103a4906001600160a01b031681565b3480156106ad57600080fd5b506103596106bc3660046146c2565b613185565b3480156106cd57600080fd5b506103a46106dc3660046143c1565b600e602052600090815260409020546001600160a01b031681565b34801561070357600080fd5b506103a46107123660046143c1565b600d602052600090815260409020546001600160a01b031681565b34801561073957600080fd5b5061037160175481565b34801561074f57600080fd5b5061037160195481565b34801561076557600080fd5b50610371610774366004614721565b613a16565b34801561078557600080fd5b506103fc6107943660046143c1565b60066020526000908152604090205460ff1681565b3480156107b557600080fd5b506103596107c4366004614394565b613b17565b3480156107d557600080fd5b506103a46107e43660046143c1565b6002602052600090815260409020546001600160a01b031681565b34801561080b57600080fd5b506010546103a4906001600160a01b031681565b34801561082b57600080fd5b506103a461083a366004614329565b613b67565b34801561084b57600080fd5b506009546103a4906001600160a01b031681565b34801561086b57600080fd5b5061037161087a36600461474f565b613b77565b34801561088b57600080fd5b5061035961089a36600461477b565b613ba8565b3480156108ab57600080fd5b506103716108ba366004614394565b613c1b565b3480156108cb57600080fd5b506103716108da36600461477b565b600060208181529281526040808220909352908152205481565b34801561090057600080fd5b506103fc61090f3660046143c1565b60086020526000908152604090205460ff1681565b34801561093057600080fd5b5061035961093f36600461474f565b613d63565b34801561095057600080fd5b506014546103a4906001600160a01b031681565b34801561097057600080fd5b50610371600b5481565b34801561098657600080fd5b506103596109953660046147a9565b613f76565b3480156109a657600080fd5b5061037160165481565b3480156109bc57600080fd5b506103596109cb36600461477b565b613fc6565b3480156109dc57600080fd5b506103a46109eb366004614329565b6000908152600560205260409020546001600160a01b031690565b6013546040805180820190915260018152601960f91b6020820152906001600160a01b03163314610a535760405162461bcd60e51b8152600401610a4a91906147d5565b60405180910390fd5b5060005b8351811015610c02576000848281518110610a7457610a74614824565b60200260200101519050610ae26003805480602002602001604051908101604052809291908181526020018280548015610ad757602002820191906000526020600020905b81546001600160a01b03168152600190910190602001808311610ab9575b505050505082610db0565b1515600003610b3757600380546001810182556000919091527fc2575a0e9e593c00f959f8c92f12db2869c3395a3b0502d05e2516446f71f85b0180546001600160a01b0319166001600160a01b0383161790555b828281518110610b4957610b49614824565b602002602001015160026000836001600160a01b03166001600160a01b0316815260200190815260200160002060006101000a8154816001600160a01b0302191690836001600160a01b03160217905550838281518110610bac57610bac614824565b6020908102919091018101516001600160a01b039283166000908152600e8352604080822080546001600160a01b0319169590931694909417909155600690915220805460ff1916600190811790915501610a57565b50505050565b60078181548110610c1857600080fd5b6000918252602090912001546001600160a01b0316905081565b600081815260056020526040808220548151635d3e2fa160e01b815291516001600160a01b039091169183918391635d3e2fa1916004808301926101009291908290030181865afa158015610c8b573d6000803e3d6000fd5b505050506040513d601f19601f82011682018060405250810190610caf9190614850565b60c08101516001600160a01b0390811660009081526002602052604080822054905163a52f38d160e01b815260048101899052939450909291169063a52f38d190602401602060405180830381865afa158015610d10573d6000803e3d6000fd5b505050506040513d601f19601f82011682018060405250810190610d34919061490c565b604051632696439560e11b815260048101829052600060248201529091506001600160a01b03841690634d2c872a90604401602060405180830381865afa158015610d83573d6000803e3d6000fd5b505050506040513d601f19601f82011682018060405250810190610da7919061490c565b95945050505050565b600080805b8451811015610e0157836001600160a01b0316858281518110610dda57610dda614824565b60200260200101516001600160a01b031603610df95760019150610e01565b600101610db5565b5090505b92915050565b600082815260056020526040808220548151635d3e2fa160e01b815291516001600160a01b039091169183918391635d3e2fa1916004808301926101009291908290030181865afa158015610e64573d6000803e3d6000fd5b505050506040513d601f19601f82011682018060405250810190610e889190614850565b60c08101516001600160a01b0390811660009081526002602052604080822054905163a52f38d160e01b8152600481018a9052939450909291169063a52f38d190602401602060405180830381865afa158015610ee9573d6000803e3d6000fd5b505050506040513d601f19601f82011682018060405250810190610f0d919061490c565b604051632696439560e11b815260048101829052602481018790529091506001600160a01b03841690634d2c872a906044015b602060405180830381865afa158015610f5d573d6000803e3d6000fd5b505050506040513d601f19601f82011682018060405250810190610f81919061490c565b9695505050505050565b6013546040805180820190915260018152601960f91b6020820152906001600160a01b03163314610fcf5760405162461bcd60e51b8152600401610a4a91906147d5565b50600980546001600160a01b0319166001600160a01b0392909216919091179055565b6013546040805180820190915260018152601960f91b6020820152906001600160a01b031633146110365760405162461bcd60e51b8152600401610a4a91906147d5565b508015611108576110a1600380548060200260200160405190810160405280929190818152602001828054801561109657602002820191906000526020600020905b81546001600160a01b03168152600190910190602001808311611078575b505050505084610db0565b604080518082019091526001808252603560f81b602083015290911515146110dc5760405162461bcd60e51b8152600401610a4a91906147d5565b506001600160a01b0383166000908152600860205260409020805483151560ff19909116179055505050565b61116a6007805480602002602001604051908101604052809291908181526020018280548015611096576020028201919060005260206000209081546001600160a01b0316815260019091019060200180831161107857505050505084610db0565b604080518082019091526001808252603560f81b602083015290911515146111a55760405162461bcd60e51b8152600401610a4a91906147d5565b506001600160a01b0383166000908152600660205260409020805483151560ff19909116179055505050565b600081815260056020526040808220548151635d3e2fa160e01b815291516001600160a01b0390911692918391635d3e2fa191600480820192610100929091908290030181865afa15801561122a573d6000803e3d6000fd5b505050506040513d601f19601f8201168201806040525081019061124e9190614850565b60c08101516001600160a01b0390811660009081526002602052604080822054905163a52f38d160e01b815260048101889052939450909291169063a52f38d190602401602060405180830381865afa1580156112af573d6000803e3d6000fd5b505050506040513d601f19601f820116820180604052508101906112d3919061490c565b9050826001600160a01b031663d296d1f1826016546017546018546112f8919061493b565b611302919061493b565b6040516001600160e01b031960e085901b16815260048101929092526024820152604401600060405180830381600087803b15801561134057600080fd5b505af1158015611354573d6000803e3d6000fd5b505050508160c001516001600160a01b03166323b872dd8430612710601654601754601854612710611386919061493b565b611390919061493b565b61139a919061493b565b6113a4908761494e565b6113ae9190614965565b6040516001600160e01b031960e086901b1681526001600160a01b03938416600482015292909116602483015260448201526064016020604051808303816000875af1158015611402573d6000803e3d6000fd5b505050506040513d601f19601f820116820180604052508101906114269190614987565b5060c08201516001600160a01b039081166000818152600260205260409081902054905163095ea7b360e01b815292166004830152602482018390529063095ea7b3906044016020604051808303816000875af115801561148b573d6000803e3d6000fd5b505050506040513d601f19601f820116820180604052508101906114af9190614987565b5060c08201516001600160a01b039081166000908152600260205260409081902054905163d8aed14560e01b8152600481018790526024810184905291169063d8aed14590604401600060405180830381600087803b15801561151157600080fd5b505af1158015611525573d6000803e3d6000fd5b505050508160c001516001600160a01b031663a9059cbb601260009054906101000a90046001600160a01b031661271060165485611563919061494e565b61156d9190614965565b6040516001600160e01b031960e085901b1681526001600160a01b03909216600483015260248201526044016020604051808303816000875af11580156115b8573d6000803e3d6000fd5b505050506040513d601f19601f820116820180604052508101906115dc9190614987565b5060c08201516011546017546001600160a01b039283169263a9059cbb9216906127109061160a908661494e565b6116149190614965565b6040516001600160e01b031960e085901b1681526001600160a01b03909216600483015260248201526044016020604051808303816000875af115801561165f573d6000803e3d6000fd5b505050506040513d601f19601f820116820180604052508101906116839190614987565b50600061271060175483611697919061494e565b6116a19190614965565b612710601654846116b2919061494e565b6116bc9190614965565b836127106016546017546018546127106116d6919061493b565b6116e0919061493b565b6116ea919061493b565b6116f4908761494e565b6116fe9190614965565b61170891906149a4565b61171291906149a4565b61171c91906149a4565b60c08401516001600160a01b039081166000818152600260205260409081902054905163095ea7b360e01b8152921660048301526024820183905291925063095ea7b3906044016020604051808303816000875af1158015611782573d6000803e3d6000fd5b505050506040513d601f19601f820116820180604052508101906117a69190614987565b5060c08301516001600160a01b03908116600090815260026020526040908190205490517f7f3940310000000000000000000000000000000000000000000000000000000081526004810188905260248101849052911690637f39403190604401600060405180830381600087803b15801561182157600080fd5b505af1158015611835573d6000803e3d6000fd5b50505060008681526005602052604080822054815163232fa73360e01b815291516001600160a01b03909116935063232fa7339260048084019391929182900301818387803b15801561188757600080fd5b505af115801561189b573d6000803e3d6000fd5b5050604080518881524260208201523393507f3c4b1d42b9c7fa283f6fe657533f6a5a8a7ad1d36f9ef1d9d89ad04485e10d2c92500160405180910390a25050505050565b6013546040805180820190915260018152601960f91b6020820152906001600160a01b031633146119245760405162461bcd60e51b8152600401610a4a91906147d5565b50600480546001600160a01b0319166001600160a01b0392909216919091179055565b6001600160a01b0382166000908152600860209081526040918290205482518084019093526001808452600d60fa1b9284019290925284929160ff9091161515146119a55760405162461bcd60e51b8152600401610a4a91906147d5565b508115611a50576040805180820190915260018152601b60f91b6020820152348511156119e55760405162461bcd60e51b8152600401610a4a91906147d5565b50601460009054906101000a90046001600160a01b03166001600160a01b031663d0e30db0856040518263ffffffff1660e01b81526004016000604051808303818588803b158015611a3657600080fd5b505af1158015611a4a573d6000803e3d6000fd5b50505050505b60008581526005602052604090819020549051633390ef1360e11b8152600481018690526001600160a01b03909116908190636721de2690602401600060405180830381600087803b158015611aa557600080fd5b505af1158015611ab9573d6000803e3d6000fd5b505050508215611b3c5760405163a9059cbb60e01b81526001600160a01b0382811660048301526024820187905285169063a9059cbb906044016020604051808303816000875af1158015611b12573d6000803e3d6000fd5b505050506040513d601f19601f82011682018060405250810190611b369190614987565b50611bb7565b6040516323b872dd60e01b81523360048201526001600160a01b038281166024830152604482018790528516906323b872dd906064016020604051808303816000875af1158015611b91573d6000803e3d6000fd5b505050506040513d601f19601f82011682018060405250810190611bb59190614987565b505b60408051878152602081018790526001600160a01b038616818301528415156060820152426080820152905133917fa41307c7b4c963a200284b8ab310b85c69dc52a94c312708afc5944c278caaf7919081900360a00190a2505050505050565b6013546040805180820190915260018152601960f91b6020820152906001600160a01b03163314611c5c5760405162461bcd60e51b8152600401610a4a91906147d5565b50601480546001600160a01b0319166001600160a01b0392909216919091179055565b600082815260056020526040808220548151635d3e2fa160e01b815291516001600160a01b0390911692918391635d3e2fa191600480820192610100929091908290030181865afa158015611cd8573d6000803e3d6000fd5b505050506040513d601f19601f82011682018060405250810190611cfc9190614850565b60808101516040517f102cb82e0000000000000000000000000000000000000000000000000000000081526001600160a01b039182166004820152851515602482015291925083169063102cb82e90604401600060405180830381600087803b158015611d6857600080fd5b505af1158015611d7c573d6000803e3d6000fd5b505060408051878152861515602082015242918101919091523392507f8d1d302d01bababc9c00da7a7d2adabd6e02f4ccdb4855101e617c2ef159db0c91506060015b60405180910390a250505050565b7ff0c57e16840df040f15088dc2f81fe391c3923bec73e23a9662efc9c229c6a00805468010000000000000000810460ff16159067ffffffffffffffff16600081158015611e185750825b905060008267ffffffffffffffff166001148015611e355750303b155b905081158015611e43575080155b15611e7a576040517ff92ee8a900000000000000000000000000000000000000000000000000000000815260040160405180910390fd5b845467ffffffffffffffff191660011785558315611eae57845468ff00000000000000001916680100000000000000001785555b8e60039080519060200190611ec49291906140c4565b506001805560005b600354811015611fd157600060038281548110611eeb57611eeb614824565b6000918252602090912001548f516001600160a01b0390911691508f9083908110611f1857611f18614824565b602002602001015160026000836001600160a01b03166001600160a01b0316815260200190815260200160002060006101000a8154816001600160a01b0302191690836001600160a01b031602179055508f8281518110611f7b57611f7b614824565b6020908102919091018101516001600160a01b039283166000908152600e8352604080822080546001600160a01b0319169590931694909417909155600690915220805460ff1916600190811790915501611ecc565b508b51611fe59060079060208f01906140c4565b5060005b6007548110156120ee5760006007828154811061200857612008614824565b6000918252602090912001548d516001600160a01b0390911691508d908390811061203557612035614824565b6020026020010151600d6000836001600160a01b03166001600160a01b0316815260200190815260200160002060006101000a8154816001600160a01b0302191690836001600160a01b031602179055508b828151811061209857612098614824565b6020908102919091018101516001600160a01b039283166000908152600a8352604080822080546001600160a01b0319169590931694909417909155600890915220805460ff1916600190811790915501611fe9565b50600980546001600160a01b03808c166001600160a01b0319928316179092556004805492891692821692909217909155600b899055600c8890556013805490911633179055831561217f57845468ff000000000000000019168555604051600181527fc7f505b2f371ae2175ee4913f4499e1f2633a7b5936321eed1cdaeb6115181d29060200160405180910390a15b505050505050505050505050505050565b6013546040805180820190915260018152601960f91b6020820152906001600160a01b031633146121d45760405162461bcd60e51b8152600401610a4a91906147d5565b50601955565b6013546040805180820190915260018152601960f91b6020820152906001600160a01b0316331461221e5760405162461bcd60e51b8152600401610a4a91906147d5565b5060005b8351811015610c0257600084828151811061223f5761223f614824565b602002602001015190506122ab6007805480602002602001604051908101604052809291908181526020018280548015610ad7576020028201919060005260206000209081546001600160a01b03168152600190910190602001808311610ab957505050505082610db0565b151560000361230057600780546001810182556000919091527fa66cc928b5edb82af9bd49922954155ab7b0942694bea4ce44661d9a8736c6880180546001600160a01b0319166001600160a01b0383161790555b83828151811061231257612312614824565b6020026020010151600d6000836001600160a01b03166001600160a01b0316815260200190815260200160002060006101000a8154816001600160a01b0302191690836001600160a01b0316021790555082828151811061237557612375614824565b6020908102919091018101516001600160a01b039283166000908152600a8352604080822080546001600160a01b0319169590931694909417909155600890915220805460ff1916600190811790915501612222565b6001600160a01b03811660009081526015602090815260409182902080548351818402810184019094528084526060939283018282801561242b57602002820191906000526020600020905b815481526020019060010190808311612417575b50505050509050919050565b6001600160a01b0381166000908152600660209081526040918290205482518084019093526001808452603360f81b9284019290925283929160ff9091161515146124955760405162461bcd60e51b8152600401610a4a91906147d5565b506040516323b872dd60e01b8152336004820152306024820152604481018490526001600160a01b038316906323b872dd906064016020604051808303816000875af11580156124e9573d6000803e3d6000fd5b505050506040513d601f19601f8201168201806040525081019061250d9190614987565b506001600160a01b038281166000818152600260205260409081902054905163095ea7b360e01b815292166004830152602482018590529063095ea7b3906044016020604051808303816000875af115801561256d573d6000803e3d6000fd5b505050506040513d601f19601f820116820180604052508101906125919190614987565b506001600160a01b038281166000908152600260205260409081902054905163d8aed14560e01b8152600481018790526024810186905291169063d8aed14590604401600060405180830381600087803b1580156125ee57600080fd5b505af1158015612602573d6000803e3d6000fd5b505050506001600160a01b038281166000908152600260205260409081902054905163a52f38d160e01b81526004810187905291169063a52f38d190602401602060405180830381865afa15801561265e573d6000803e3d6000fd5b505050506040513d601f19601f82011682018060405250810190612682919061490c565b6000036126ee5760008481526005602052604080822054815163232fa73360e01b815291516001600160a01b039091169263232fa733926004808201939182900301818387803b1580156126d557600080fd5b505af11580156126e9573d6000803e3d6000fd5b505050505b60408051858152602081018590526001600160a01b0384169181019190915242606082015233907f516b9ee1e9b8b43ca5f4a91397869e2190ccd60972b6ec439739892922434cb090608001611dbf565b600061274c826000613a16565b612710846001600160a01b031663313ce5676040518163ffffffff1660e01b8152600401602060405180830381865afa15801561278d573d6000803e3d6000fd5b505050506040513d601f19601f820116820180604052508101906127b191906149b7565b6127bc90600a614abe565b6127c7866001613a16565b600b54866001600160a01b031663313ce5676040518163ffffffff1660e01b8152600401602060405180830381865afa158015612808573d6000803e3d6000fd5b505050506040513d601f19601f8201168201806040525081019061282c91906149b7565b61283790600a614abe565b612841908a61494e565b61284b919061494e565b612855919061494e565b61285f9190614965565b6128699190614965565b6128739190614965565b949350505050565b6001600160a01b0383166000908152600660209081526040918290205482518084019093526001808452603360f81b9284019290925285929160ff9091161515146128d95760405162461bcd60e51b8152600401610a4a91906147d5565b506040805180820190915260018152601b60f91b6020820152348411156129135760405162461bcd60e51b8152600401610a4a91906147d5565b50601460009054906101000a90046001600160a01b03166001600160a01b031663d0e30db0846040518263ffffffff1660e01b81526004016000604051808303818588803b15801561296457600080fd5b505af1158015612978573d6000803e3d6000fd5b5050505050836001600160a01b031663313ce5676040518163ffffffff1660e01b8152600401602060405180830381865afa1580156129bb573d6000803e3d6000fd5b505050506040513d601f19601f820116820180604052508101906129df91906149b7565b6129ea90600a614abe565b6129f5856001613a16565b6129ff908761494e565b612a0b9061271061494e565b612a159190614965565b601460009054906101000a90046001600160a01b03166001600160a01b031663313ce5676040518163ffffffff1660e01b8152600401602060405180830381865afa158015612a68573d6000803e3d6000fd5b505050506040513d601f19601f82011682018060405250810190612a8c91906149b7565b612a9790600a614abe565b600b54601454612ab1906001600160a01b03166000613a16565b612abb908761494e565b612ac5919061494e565b612acf9190614965565b1015604051806040016040528060018152602001603760f81b81525090612b095760405162461bcd60e51b8152600401610a4a91906147d5565b506001600160a01b03808516600090815260026020908152604091829020548251633b24cc2160e01b8152925189949190911692633b24cc219260048083019391928290030181865afa158015612b64573d6000803e3d6000fd5b505050506040513d601f19601f82011682018060405250810190612b88919061490c565b1015604051806040016040528060018152602001600760fb1b81525090612bc25760405162461bcd60e51b8152600401610a4a91906147d5565b506040805161010081018252600060208083018290526060830182905260a0830182905260e0830182905233608084018181528486018b815260015486526001600160a01b038b811660c08801819052865260029094529386902054855194519151965163035af68360e61b81526004810195909552602485019190915294821660448401529293169063d6bda0c090606401600060405180830381600087803b158015612c6f57600080fd5b505af1158015612c83573d6000803e3d6000fd5b5050506001600160a01b038088166000908152600e60205260408120546014546004549184169450831692612cb89116614039565b90506000819050806001600160a01b031663e0af21938785600960009054906101000a90046001600160a01b0316600a6000896001600160a01b03166001600160a01b0316815260200190815260200160002060009054906101000a90046001600160a01b0316600b54600c54600d60008c6001600160a01b03166001600160a01b0316815260200190815260200160002060009054906101000a90046001600160a01b03168c601260009054906101000a90046001600160a01b0316601460009054906101000a90046001600160a01b03166040518b63ffffffff1660e01b8152600401612db09a99989796959493929190614acd565b600060405180830381600087803b158015612dca57600080fd5b505af1158015612dde573d6000803e3d6000fd5b5050604051638ac1b77560e01b81523060048201526001600160a01b0384169250638ac1b7759150602401600060405180830381600087803b158015612e2357600080fd5b505af1158015612e37573d6000803e3d6000fd5b5050600f54601054604051630dc40e2d60e41b81526001600160a01b0392831660048201529082166024820152908416925063dc40e2d09150604401600060405180830381600087803b158015612e8d57600080fd5b505af1158015612ea1573d6000803e3d6000fd5b505060195460405163626a35fb60e01b815260048101919091526001600160a01b038416925063626a35fb9150602401600060405180830381600087803b158015612eeb57600080fd5b505af1158015612eff573d6000803e3d6000fd5b5050604051633390ef1360e11b8152600481018c90526001600160a01b0384169250636721de269150602401600060405180830381600087803b158015612f4557600080fd5b505af1158015612f59573d6000803e3d6000fd5b505060145460405163a9059cbb60e01b81526001600160a01b038681166004830152602482018e9052909116925063a9059cbb91506044016020604051808303816000875af1158015612fb0573d6000803e3d6000fd5b505050506040513d601f19601f82011682018060405250810190612fd49190614987565b5087151560010361303357806001600160a01b03166307a6bf696040518163ffffffff1660e01b8152600401600060405180830381600087803b15801561301a57600080fd5b505af115801561302e573d6000803e3d6000fd5b505050505b8060056000600154815260200190815260200160002060006101000a8154816001600160a01b0302191690836001600160a01b0316021790555060156000336001600160a01b03166001600160a01b031681526020019081526020016000206001549080600181540180825580915050600190039060005260206000200160009091909190915055336001600160a01b03167f5727112172b6092c7288ef1d857adc455935319c0870d1ace4c13383215e53dc8c8c8c601460009054906101000a90046001600160a01b03168d600180544260405161315b9897969594939291909788526001600160a01b03968716602089015260408801959095529290941660608601521515608085015291151560a084015260c083019190915260e08201526101000190565b60405180910390a26001805490600061317383614be5565b91905055505050505050505050505050565b6001600160a01b0384166000908152600660209081526040918290205482518084019093526001808452603360f81b9284019290925286929160ff9091161515146131e35760405162461bcd60e51b8152600401610a4a91906147d5565b506001600160a01b0383166000908152600860209081526040918290205482518084019093526001808452600d60fa1b9284019290925285929160ff9091161515146132425760405162461bcd60e51b8152600401610a4a91906147d5565b50856001600160a01b031663313ce5676040518163ffffffff1660e01b8152600401602060405180830381865afa158015613281573d6000803e3d6000fd5b505050506040513d601f19601f820116820180604052508101906132a591906149b7565b6132b090600a614abe565b6132bb876001613a16565b6132c5908961494e565b6132d19061271061494e565b6132db9190614965565b846001600160a01b031663313ce5676040518163ffffffff1660e01b8152600401602060405180830381865afa158015613319573d6000803e3d6000fd5b505050506040513d601f19601f8201168201806040525081019061333d91906149b7565b61334890600a614abe565b600b54613356876000613a16565b613360908961494e565b61336a919061494e565b6133749190614965565b1015604051806040016040528060018152602001603760f81b815250906133ae5760405162461bcd60e51b8152600401610a4a91906147d5565b506001600160a01b03808716600090815260026020908152604091829020548251633b24cc2160e01b815292518b949190911692633b24cc219260048083019391928290030181865afa158015613409573d6000803e3d6000fd5b505050506040513d601f19601f8201168201806040525081019061342d919061490c565b1015604051806040016040528060018152602001600760fb1b815250906134675760405162461bcd60e51b8152600401610a4a91906147d5565b506040805161010081018252600060208083018290526060830182905260a0830182905260e0830182905233608084018181528486018d815260015486526001600160a01b038d811660c08801819052865260029094529386902054855194519151965163035af68360e61b81526004810195909552602485019190915294821660448401529293169063d6bda0c090606401600060405180830381600087803b15801561351457600080fd5b505af1158015613528573d6000803e3d6000fd5b5050506001600160a01b03808a166000908152600e6020526040812054600454908316935089926135599116614039565b90506000819050806001600160a01b031663e0af21938785600960009054906101000a90046001600160a01b0316600a6000896001600160a01b03166001600160a01b0316815260200190815260200160002060009054906101000a90046001600160a01b0316600b54600c54600d60008c6001600160a01b03166001600160a01b0316815260200190815260200160002060009054906101000a90046001600160a01b03168c601260009054906101000a90046001600160a01b0316601460009054906101000a90046001600160a01b03166040518b63ffffffff1660e01b81526004016136519a99989796959493929190614acd565b600060405180830381600087803b15801561366b57600080fd5b505af115801561367f573d6000803e3d6000fd5b5050604051638ac1b77560e01b81523060048201526001600160a01b0384169250638ac1b7759150602401600060405180830381600087803b1580156136c457600080fd5b505af11580156136d8573d6000803e3d6000fd5b5050600f54601054604051630dc40e2d60e41b81526001600160a01b0392831660048201529082166024820152908416925063dc40e2d09150604401600060405180830381600087803b15801561372e57600080fd5b505af1158015613742573d6000803e3d6000fd5b505060195460405163626a35fb60e01b815260048101919091526001600160a01b038416925063626a35fb9150602401600060405180830381600087803b15801561378c57600080fd5b505af11580156137a0573d6000803e3d6000fd5b5050604051633390ef1360e11b8152600481018e90526001600160a01b0384169250636721de269150602401600060405180830381600087803b1580156137e657600080fd5b505af11580156137fa573d6000803e3d6000fd5b50506040516323b872dd60e01b81523360048201526001600160a01b038581166024830152604482018f90528d1692506323b872dd91506064016020604051808303816000875af1158015613853573d6000803e3d6000fd5b505050506040513d601f19601f820116820180604052508101906138779190614987565b508815156001036138d657806001600160a01b03166307a6bf696040518163ffffffff1660e01b8152600401600060405180830381600087803b1580156138bd57600080fd5b505af11580156138d1573d6000803e3d6000fd5b505050505b8060056000600154815260200190815260200160002060006101000a8154816001600160a01b0302191690836001600160a01b0316021790555060156000336001600160a01b03166001600160a01b031681526020019081526020016000206001549080600181540180825580915050600190039060005260206000200160009091909190915055336001600160a01b03167f5727112172b6092c7288ef1d857adc455935319c0870d1ace4c13383215e53dc8e8e8e8e8e6000600154426040516139ea9897969594939291909788526001600160a01b03968716602089015260408801959095529290941660608601521515608085015291151560a084015260c083019190915260e08201526101000190565b60405180910390a260018054906000613a0283614be5565b919050555050505050505050505050505050565b60008115158103613ab7576001600160a01b038084166000908152600d6020526040808220548151633fabe5a360e21b8152915192938493849384938493169163feaf968c9160048082019260a0929091908290030181865afa158015613a81573d6000803e3d6000fd5b505050506040513d601f19601f82011682018060405250810190613aa59190614c18565b50919850610e05975050505050505050565b6001600160a01b038084166000908152600e6020526040808220548151633fabe5a360e21b8152915192938493849384938493169163feaf968c9160048082019260a0929091908290030181865afa158015613a81573d6000803e3d6000fd5b6013546040805180820190915260018152601960f91b6020820152906001600160a01b03163314613b5b5760405162461bcd60e51b8152600401610a4a91906147d5565b50600b91909155600c55565b60038181548110610c1857600080fd5b60156020528160005260406000208181548110613b9357600080fd5b90600052602060002001600091509150505481565b6013546040805180820190915260018152601960f91b6020820152906001600160a01b03163314613bec5760405162461bcd60e51b8152600401610a4a91906147d5565b50600f80546001600160a01b039384166001600160a01b03199182161790915560108054929093169116179055565b600082815260056020526040808220548151635d3e2fa160e01b815291516001600160a01b039091169183918391635d3e2fa1916004808301926101009291908290030181865afa158015613c74573d6000803e3d6000fd5b505050506040513d601f19601f82011682018060405250810190613c989190614850565b60c08101516001600160a01b0390811660009081526002602052604080822054905163a52f38d160e01b8152600481018a9052939450909291169063a52f38d190602401602060405180830381865afa158015613cf9573d6000803e3d6000fd5b505050506040513d601f19601f82011682018060405250810190613d1d919061490c565b90506001600160a01b038316634d2c872a613d3887846149a4565b6040516001600160e01b031960e084901b168152600481019190915260006024820152604401610f40565b600081815260056020526040808220548151635d3e2fa160e01b815291516001600160a01b0390911692918391635d3e2fa191600480820192610100929091908290030181865afa158015613dbc573d6000803e3d6000fd5b505050506040513d601f19601f82011682018060405250810190613de09190614850565b608081015160408051808201909152600181527f390000000000000000000000000000000000000000000000000000000000000060208201529192506001600160a01b03163314613e445760405162461bcd60e51b8152600401610a4a91906147d5565b506001600160a01b038481166000908152600260205260409081902054608084015191517fec7be39d0000000000000000000000000000000000000000000000000000000081529183166004830152602482018690529091169063ec7be39d90604401600060405180830381600087803b158015613ec157600080fd5b505af1158015613ed5573d6000803e3d6000fd5b50505050816001600160a01b031663fab320e96040518163ffffffff1660e01b8152600401600060405180830381600087803b158015613f1457600080fd5b505af1158015613f28573d6000803e3d6000fd5b5050604080518681526001600160a01b038816602082015242918101919091523392507f926902dafb3e2e10ccc80a644aed5f39170af68180261fbcde7c04fa328c9c419150606001611dbf565b6013546040805180820190915260018152601960f91b6020820152906001600160a01b03163314613fba5760405162461bcd60e51b8152600401610a4a91906147d5565b50601855601755601655565b6013546040805180820190915260018152601960f91b6020820152906001600160a01b0316331461400a5760405162461bcd60e51b8152600401610a4a91906147d5565b50601180546001600160a01b039384166001600160a01b03199182161790915560128054929093169116179055565b6000763d602d80600a3d3981f3363d3d373d3d3d363d730000008260601b60e81c176000526e5af43d82803e903d91602b57fd5bf38260781b17602052603760096000f090506001600160a01b0381166140bf576040517fc2f868f400000000000000000000000000000000000000000000000000000000815260040160405180910390fd5b919050565b828054828255906000526020600020908101928215614119579160200282015b8281111561411957825182546001600160a01b0319166001600160a01b039091161782556020909201916001909101906140e4565b50614125929150614129565b5090565b5b80821115614125576000815560010161412a565b634e487b7160e01b600052604160045260246000fd5b604051601f8201601f1916810167ffffffffffffffff8111828210171561417d5761417d61413e565b604052919050565b600067ffffffffffffffff82111561419f5761419f61413e565b5060051b60200190565b6001600160a01b03811681146141be57600080fd5b50565b600082601f8301126141d257600080fd5b813560206141e76141e283614185565b614154565b8083825260208201915060208460051b87010193508684111561420957600080fd5b602086015b8481101561422e578035614221816141a9565b835291830191830161420e565b509695505050505050565b600082601f83011261424a57600080fd5b8135602061425a6141e283614185565b8083825260208201915060208460051b87010193508684111561427c57600080fd5b602086015b8481101561422e578035614294816141a9565b8352918301918301614281565b6000806000606084860312156142b657600080fd5b833567ffffffffffffffff808211156142ce57600080fd5b6142da878388016141c1565b945060208601359150808211156142f057600080fd5b6142fc87838801614239565b9350604086013591508082111561431257600080fd5b5061431f868287016141c1565b9150509250925092565b60006020828403121561433b57600080fd5b5035919050565b6000806040838503121561435557600080fd5b823567ffffffffffffffff81111561436c57600080fd5b614378858286016141c1565b9250506020830135614389816141a9565b809150509250929050565b600080604083850312156143a757600080fd5b50508035926020909101359150565b80356140bf816141a9565b6000602082840312156143d357600080fd5b81356143de816141a9565b9392505050565b80151581146141be57600080fd5b60008060006060848603121561440857600080fd5b8335614413816141a9565b92506020840135614423816143e5565b91506040840135614433816143e5565b809150509250925092565b6000806000806080858703121561445457600080fd5b8435935060208501359250604085013561446d816141a9565b9150606085013561447d816143e5565b939692955090935050565b6000806040838503121561449b57600080fd5b823591506020830135614389816143e5565b6000806000806000806000806000806101408b8d0312156144cd57600080fd5b8a3567ffffffffffffffff808211156144e557600080fd5b6144f18e838f016141c1565b9b5060208d013591508082111561450757600080fd5b6145138e838f01614239565b9a5060408d013591508082111561452957600080fd5b6145358e838f016141c1565b995060608d013591508082111561454b57600080fd5b6145578e838f016141c1565b985060808d013591508082111561456d57600080fd5b6145798e838f01614239565b975060a08d013591508082111561458f57600080fd5b5061459c8d828e016141c1565b9550506145ab60c08c016143b6565b935060e08b013592506101008b013591506145c96101208c016143b6565b90509295989b9194979a5092959850565b6020808252825182820181905260009190848201906040850190845b81811015614612578351835292840192918401916001016145f6565b50909695505050505050565b60008060006060848603121561463357600080fd5b83359250602084013591506040840135614433816141a9565b60008060006060848603121561466157600080fd5b833592506020840135614673816141a9565b91506040840135614433816141a9565b6000806000806080858703121561469957600080fd5b8435935060208501356146ab816141a9565b925060408501359150606085013561447d816143e5565b600080600080600060a086880312156146da57600080fd5b8535945060208601356146ec816141a9565b9350604086013592506060860135614703816141a9565b91506080860135614713816143e5565b809150509295509295909350565b6000806040838503121561473457600080fd5b823561473f816141a9565b91506020830135614389816143e5565b6000806040838503121561476257600080fd5b823561476d816141a9565b946020939093013593505050565b6000806040838503121561478e57600080fd5b8235614799816141a9565b91506020830135614389816141a9565b6000806000606084860312156147be57600080fd5b505081359360208301359350604090920135919050565b60006020808352835180602085015260005b81811015614803578581018301518582016040015282016147e7565b506000604082860101526040601f19601f8301168501019250505092915050565b634e487b7160e01b600052603260045260246000fd5b80516140bf816143e5565b80516140bf816141a9565b600061010080838503121561486457600080fd5b6040519081019067ffffffffffffffff821181831017156148875761488761413e565b81604052835181526020840151915061489f826143e5565b816020820152604084015160408201526148bb6060850161483a565b60608201526148cc60808501614845565b60808201526148dd60a0850161483a565b60a08201526148ee60c08501614845565b60c08201526148ff60e0850161483a565b60e0820152949350505050565b60006020828403121561491e57600080fd5b5051919050565b634e487b7160e01b600052601160045260246000fd5b80820180821115610e0557610e05614925565b8082028115828204841417610e0557610e05614925565b60008261498257634e487b7160e01b600052601260045260246000fd5b500490565b60006020828403121561499957600080fd5b81516143de816143e5565b81810381811115610e0557610e05614925565b6000602082840312156149c957600080fd5b815160ff811681146143de57600080fd5b600181815b80851115614a155781600019048211156149fb576149fb614925565b80851615614a0857918102915b93841c93908002906149df565b509250929050565b600082614a2c57506001610e05565b81614a3957506000610e05565b8160018114614a4f5760028114614a5957614a75565b6001915050610e05565b60ff841115614a6a57614a6a614925565b50506001821b610e05565b5060208310610133831016604e8410600b8410161715614a98575081810a610e05565b614aa283836149da565b8060001904821115614ab657614ab6614925565b029392505050565b60006143de60ff841683614a1d565b6000610220820190508b51825260208c01511515602083015260408c0151604083015260608c0151151560608301526001600160a01b0360808d015116608083015260a08c0151614b2260a084018215159052565b5060c08c0151614b3d60c08401826001600160a01b03169052565b5060e08c0151614b5160e084018215159052565b506001600160a01b038b166101008301526001600160a01b038a166101208301526001600160a01b0389166101408301528761016083015286610180830152614ba66101a08301876001600160a01b03169052565b6001600160a01b0385166101c08301526001600160a01b0384166101e08301526001600160a01b0383166102008301529b9a5050505050505050505050565b600060018201614bf757614bf7614925565b5060010190565b805169ffffffffffffffffffff811681146140bf57600080fd5b600080600080600060a08688031215614c3057600080fd5b614c3986614bfe565b9450602086015193506040860151925060608601519150614c5c60808701614bfe565b9050929550929590935056fea264697066735822122051c16719b6b38747dd066e48e0a42780a3619af9427c1001c6cda65b279ca25264736f6c63430008180033",
  "linkReferences": {},
  "deployedLinkReferences": {}
}