{
  "_format": "hh-sol-artifact-1",
  "contractName": "CCFL",
  "sourceName": "contracts/CCFL.sol",
  "abi": [
    {
      "inputs": [],
      "name": "ERC1167FailedCreateClone",
      "type": "error"
    },
    {
      "inputs": [],
      "name": "InvalidInitialization",
      "type": "error"
    },
    {
      "inputs": [],
      "name": "NotInitializing",
      "type": "error"
    },
    {
      "anonymous": false,
      "inputs": [
        {
          "indexed": false,
          "internalType": "uint64",
          "name": "version",
          "type": "uint64"
        }
      ],
      "name": "Initialized",
      "type": "event"
    },
    {
      "anonymous": false,
      "inputs": [
        {
          "indexed": true,
          "internalType": "address",
          "name": "onBehalfOf",
          "type": "address"
        },
        {
          "indexed": true,
          "internalType": "address",
          "name": "_token",
          "type": "address"
        },
        {
          "indexed": true,
          "internalType": "uint256",
          "name": "_amount",
          "type": "uint256"
        }
      ],
      "name": "LiquiditySupplied",
      "type": "event"
    },
    {
      "anonymous": false,
      "inputs": [
        {
          "indexed": true,
          "internalType": "address",
          "name": "to",
          "type": "address"
        },
        {
          "indexed": true,
          "internalType": "address",
          "name": "_token",
          "type": "address"
        },
        {
          "indexed": true,
          "internalType": "uint256",
          "name": "_amount",
          "type": "uint256"
        }
      ],
      "name": "LiquidityWithdrawn",
      "type": "event"
    },
    {
      "anonymous": false,
      "inputs": [
        {
          "indexed": false,
          "internalType": "address",
          "name": "borrower",
          "type": "address"
        },
        {
          "indexed": false,
          "internalType": "uint256",
          "name": "amount",
          "type": "uint256"
        },
        {
          "indexed": false,
          "internalType": "uint256",
          "name": "when",
          "type": "uint256"
        }
      ],
      "name": "Withdraw",
      "type": "event"
    },
    {
      "inputs": [
        {
          "internalType": "contract IERC20Standard",
          "name": "",
          "type": "address"
        }
      ],
      "name": "aTokens",
      "outputs": [
        {
          "internalType": "contract IERC20Standard",
          "name": "",
          "type": "address"
        }
      ],
      "stateMutability": "view",
      "type": "function"
    },
    {
      "inputs": [],
      "name": "aaveAddressProvider",
      "outputs": [
        {
          "internalType": "contract IPoolAddressesProvider",
          "name": "",
          "type": "address"
        }
      ],
      "stateMutability": "view",
      "type": "function"
    },
    {
      "inputs": [
        {
          "internalType": "uint256",
          "name": "_loanId",
          "type": "uint256"
        },
        {
          "internalType": "uint256",
          "name": "_amountCollateral",
          "type": "uint256"
        },
        {
          "internalType": "contract IERC20Standard",
          "name": "_collateral",
          "type": "address"
        },
        {
          "internalType": "bool",
          "name": "_isETH",
          "type": "bool"
        }
      ],
      "name": "addCollateral",
      "outputs": [],
      "stateMutability": "payable",
      "type": "function"
    },
    {
      "inputs": [
        {
          "internalType": "uint256",
          "name": "_loanId",
          "type": "uint256"
        },
        {
          "internalType": "uint256",
          "name": "_amountCollateral",
          "type": "uint256"
        }
      ],
      "name": "addCollateralHealthFactor",
      "outputs": [
        {
          "internalType": "uint256",
          "name": "",
          "type": "uint256"
        }
      ],
      "stateMutability": "view",
      "type": "function"
    },
    {
      "inputs": [
        {
          "internalType": "contract IERC20Standard",
          "name": "",
          "type": "address"
        }
      ],
      "name": "ccflActiveCollaterals",
      "outputs": [
        {
          "internalType": "bool",
          "name": "",
          "type": "bool"
        }
      ],
      "stateMutability": "view",
      "type": "function"
    },
    {
      "inputs": [
        {
          "internalType": "contract IERC20Standard",
          "name": "",
          "type": "address"
        }
      ],
      "name": "ccflActivePoolStableCoins",
      "outputs": [
        {
          "internalType": "bool",
          "name": "",
          "type": "bool"
        }
      ],
      "stateMutability": "view",
      "type": "function"
    },
    {
      "inputs": [
        {
          "internalType": "uint256",
          "name": "",
          "type": "uint256"
        }
      ],
      "name": "ccflPoolStableCoins",
      "outputs": [
        {
          "internalType": "contract IERC20Standard",
          "name": "",
          "type": "address"
        }
      ],
      "stateMutability": "view",
      "type": "function"
    },
    {
      "inputs": [
        {
          "internalType": "contract IERC20Standard",
          "name": "",
          "type": "address"
        }
      ],
      "name": "ccflPools",
      "outputs": [
        {
          "internalType": "contract ICCFLPool",
          "name": "",
          "type": "address"
        }
      ],
      "stateMutability": "view",
      "type": "function"
    },
    {
      "inputs": [
        {
          "internalType": "contract IERC20Standard[]",
          "name": "array",
          "type": "address[]"
        },
        {
          "internalType": "contract IERC20Standard",
          "name": "el",
          "type": "address"
        }
      ],
      "name": "checkExistElement",
      "outputs": [
        {
          "internalType": "bool",
          "name": "",
          "type": "bool"
        }
      ],
      "stateMutability": "pure",
      "type": "function"
    },
    {
      "inputs": [
        {
          "internalType": "uint256",
          "name": "",
          "type": "uint256"
        }
      ],
      "name": "collateralTokens",
      "outputs": [
        {
          "internalType": "contract IERC20Standard",
          "name": "",
          "type": "address"
        }
      ],
      "stateMutability": "view",
      "type": "function"
    },
    {
      "inputs": [
        {
          "internalType": "address",
          "name": "",
          "type": "address"
        },
        {
          "internalType": "contract IERC20Standard",
          "name": "",
          "type": "address"
        }
      ],
      "name": "collaterals",
      "outputs": [
        {
          "internalType": "uint256",
          "name": "",
          "type": "uint256"
        }
      ],
      "stateMutability": "view",
      "type": "function"
    },
    {
      "inputs": [
        {
          "internalType": "uint256",
          "name": "_amount",
          "type": "uint256"
        },
        {
          "internalType": "contract IERC20Standard",
          "name": "_stableCoin",
          "type": "address"
        },
        {
          "internalType": "uint256",
          "name": "_amountCollateral",
          "type": "uint256"
        },
        {
          "internalType": "contract IERC20Standard",
          "name": "_collateral",
          "type": "address"
        },
        {
          "internalType": "bool",
          "name": "_isYieldGenerating",
          "type": "bool"
        },
        {
          "internalType": "bool",
          "name": "_isETH",
          "type": "bool"
        }
      ],
      "name": "createLoan",
      "outputs": [],
      "stateMutability": "payable",
      "type": "function"
    },
    {
      "inputs": [],
      "name": "factory",
      "outputs": [
        {
          "internalType": "contract IUniswapV3Factory",
          "name": "",
          "type": "address"
        }
      ],
      "stateMutability": "view",
      "type": "function"
    },
    {
      "inputs": [
        {
          "internalType": "uint256",
          "name": "_loanId",
          "type": "uint256"
        }
      ],
      "name": "getHealthFactor",
      "outputs": [
        {
          "internalType": "uint256",
          "name": "",
          "type": "uint256"
        }
      ],
      "stateMutability": "view",
      "type": "function"
    },
    {
      "inputs": [
        {
          "internalType": "contract IERC20Standard",
          "name": "_stableCoin",
          "type": "address"
        },
        {
          "internalType": "bool",
          "name": "isPool",
          "type": "bool"
        }
      ],
      "name": "getLatestPrice",
      "outputs": [
        {
          "internalType": "uint256",
          "name": "",
          "type": "uint256"
        }
      ],
      "stateMutability": "view",
      "type": "function"
    },
    {
      "inputs": [
        {
          "internalType": "uint256",
          "name": "_loanId",
          "type": "uint256"
        }
      ],
      "name": "getLoanAddress",
      "outputs": [
        {
          "internalType": "address",
          "name": "",
          "type": "address"
        }
      ],
      "stateMutability": "view",
      "type": "function"
    },
    {
      "inputs": [
        {
          "internalType": "address",
          "name": "borrower",
          "type": "address"
        }
      ],
      "name": "getLoanIds",
      "outputs": [
        {
          "internalType": "uint256[]",
          "name": "",
          "type": "uint256[]"
        }
      ],
      "stateMutability": "view",
      "type": "function"
    },
    {
      "inputs": [
        {
          "internalType": "uint256",
          "name": "_amount",
          "type": "uint256"
        },
        {
          "internalType": "contract IERC20Standard",
          "name": "_stableCoin",
          "type": "address"
        },
        {
          "internalType": "contract IERC20Standard",
          "name": "_collateral",
          "type": "address"
        }
      ],
      "name": "getMinimalCollateral",
      "outputs": [
        {
          "internalType": "uint256",
          "name": "",
          "type": "uint256"
        }
      ],
      "stateMutability": "view",
      "type": "function"
    },
    {
      "inputs": [
        {
          "internalType": "contract IERC20Standard[]",
          "name": "_ccflPoolStableCoin",
          "type": "address[]"
        },
        {
          "internalType": "contract AggregatorV3Interface[]",
          "name": "_poolAggregators",
          "type": "address[]"
        },
        {
          "internalType": "contract ICCFLPool[]",
          "name": "_ccflPools",
          "type": "address[]"
        },
        {
          "internalType": "contract IERC20Standard[]",
          "name": "_collateralTokens",
          "type": "address[]"
        },
        {
          "internalType": "contract AggregatorV3Interface[]",
          "name": "_collateralAggregators",
          "type": "address[]"
        },
        {
          "internalType": "contract IERC20Standard[]",
          "name": "_aTokens",
          "type": "address[]"
        },
        {
          "internalType": "contract IPoolAddressesProvider",
          "name": "_aaveAddressProvider",
          "type": "address"
        },
        {
          "internalType": "uint256",
          "name": "_maxLTV",
          "type": "uint256"
        },
        {
          "internalType": "uint256",
          "name": "_liquidationThreshold",
          "type": "uint256"
        },
        {
          "internalType": "contract ICCFLLoan",
          "name": "_ccflLoan",
          "type": "address"
        }
      ],
      "name": "initialize",
      "outputs": [],
      "stateMutability": "nonpayable",
      "type": "function"
    },
    {
      "inputs": [
        {
          "internalType": "uint256",
          "name": "_loanId",
          "type": "uint256"
        }
      ],
      "name": "liquidate",
      "outputs": [],
      "stateMutability": "nonpayable",
      "type": "function"
    },
    {
      "inputs": [],
      "name": "liquidationThreshold",
      "outputs": [
        {
          "internalType": "uint256",
          "name": "",
          "type": "uint256"
        }
      ],
      "stateMutability": "view",
      "type": "function"
    },
    {
      "inputs": [],
      "name": "liquidator",
      "outputs": [
        {
          "internalType": "address",
          "name": "",
          "type": "address"
        }
      ],
      "stateMutability": "view",
      "type": "function"
    },
    {
      "inputs": [],
      "name": "loandIds",
      "outputs": [
        {
          "internalType": "uint256",
          "name": "",
          "type": "uint256"
        }
      ],
      "stateMutability": "view",
      "type": "function"
    },
    {
      "inputs": [],
      "name": "maxLTV",
      "outputs": [
        {
          "internalType": "uint256",
          "name": "",
          "type": "uint256"
        }
      ],
      "stateMutability": "view",
      "type": "function"
    },
    {
      "inputs": [],
      "name": "owner",
      "outputs": [
        {
          "internalType": "address",
          "name": "",
          "type": "address"
        }
      ],
      "stateMutability": "view",
      "type": "function"
    },
    {
      "inputs": [],
      "name": "penaltyLender",
      "outputs": [
        {
          "internalType": "uint256",
          "name": "",
          "type": "uint256"
        }
      ],
      "stateMutability": "view",
      "type": "function"
    },
    {
      "inputs": [],
      "name": "penaltyLiquidator",
      "outputs": [
        {
          "internalType": "uint256",
          "name": "",
          "type": "uint256"
        }
      ],
      "stateMutability": "view",
      "type": "function"
    },
    {
      "inputs": [],
      "name": "penaltyPlatform",
      "outputs": [
        {
          "internalType": "uint256",
          "name": "",
          "type": "uint256"
        }
      ],
      "stateMutability": "view",
      "type": "function"
    },
    {
      "inputs": [],
      "name": "platform",
      "outputs": [
        {
          "internalType": "address",
          "name": "",
          "type": "address"
        }
      ],
      "stateMutability": "view",
      "type": "function"
    },
    {
      "inputs": [
        {
          "internalType": "contract IERC20Standard",
          "name": "",
          "type": "address"
        }
      ],
      "name": "priceFeeds",
      "outputs": [
        {
          "internalType": "contract AggregatorV3Interface",
          "name": "",
          "type": "address"
        }
      ],
      "stateMutability": "view",
      "type": "function"
    },
    {
      "inputs": [
        {
          "internalType": "contract IERC20Standard",
          "name": "",
          "type": "address"
        }
      ],
      "name": "pricePoolFeeds",
      "outputs": [
        {
          "internalType": "contract AggregatorV3Interface",
          "name": "",
          "type": "address"
        }
      ],
      "stateMutability": "view",
      "type": "function"
    },
    {
      "inputs": [
        {
          "internalType": "uint256",
          "name": "_loanId",
          "type": "uint256"
        },
        {
          "internalType": "uint256",
          "name": "_amount",
          "type": "uint256"
        }
      ],
      "name": "repayHealthFactor",
      "outputs": [
        {
          "internalType": "uint256",
          "name": "",
          "type": "uint256"
        }
      ],
      "stateMutability": "view",
      "type": "function"
    },
    {
      "inputs": [
        {
          "internalType": "uint256",
          "name": "_loanId",
          "type": "uint256"
        },
        {
          "internalType": "uint256",
          "name": "_amount",
          "type": "uint256"
        },
        {
          "internalType": "contract IERC20Standard",
          "name": "_stableCoin",
          "type": "address"
        }
      ],
      "name": "repayLoan",
      "outputs": [],
      "stateMutability": "nonpayable",
      "type": "function"
    },
    {
      "inputs": [
        {
          "internalType": "contract IPoolAddressesProvider",
          "name": "_aaveAddressProvider",
          "type": "address"
        }
      ],
      "name": "setAaveProvider",
      "outputs": [],
      "stateMutability": "nonpayable",
      "type": "function"
    },
    {
      "inputs": [
        {
          "internalType": "contract IERC20Standard",
          "name": "_token",
          "type": "address"
        },
        {
          "internalType": "bool",
          "name": "_isActived",
          "type": "bool"
        },
        {
          "internalType": "bool",
          "name": "_isPoolToken",
          "type": "bool"
        }
      ],
      "name": "setActiveToken",
      "outputs": [],
      "stateMutability": "nonpayable",
      "type": "function"
    },
    {
      "inputs": [
        {
          "internalType": "contract ICCFLLoan",
          "name": "_loan",
          "type": "address"
        }
      ],
      "name": "setCCFLLoan",
      "outputs": [],
      "stateMutability": "nonpayable",
      "type": "function"
    },
    {
      "inputs": [
        {
          "internalType": "contract IERC20Standard[]",
          "name": "_collateralTokens",
          "type": "address[]"
        },
        {
          "internalType": "contract AggregatorV3Interface[]",
          "name": "_collateralAggregators",
          "type": "address[]"
        },
        {
          "internalType": "contract IERC20Standard[]",
          "name": "_aTokens",
          "type": "address[]"
        }
      ],
      "name": "setCollaterals",
      "outputs": [],
      "stateMutability": "nonpayable",
      "type": "function"
    },
    {
      "inputs": [
        {
          "internalType": "uint256",
          "name": "_platform",
          "type": "uint256"
        },
        {
          "internalType": "uint256",
          "name": "_liquidator",
          "type": "uint256"
        },
        {
          "internalType": "uint256",
          "name": "_lender",
          "type": "uint256"
        }
      ],
      "name": "setPenalty",
      "outputs": [],
      "stateMutability": "nonpayable",
      "type": "function"
    },
    {
      "inputs": [
        {
          "internalType": "address",
          "name": "_liquidator",
          "type": "address"
        },
        {
          "internalType": "address",
          "name": "_platform",
          "type": "address"
        }
      ],
      "name": "setPlatformAddress",
      "outputs": [],
      "stateMutability": "nonpayable",
      "type": "function"
    },
    {
      "inputs": [
        {
          "internalType": "contract IERC20Standard[]",
          "name": "_ccflPoolStableCoin",
          "type": "address[]"
        },
        {
          "internalType": "contract AggregatorV3Interface[]",
          "name": "_poolAggregators",
          "type": "address[]"
        },
        {
          "internalType": "contract ICCFLPool[]",
          "name": "_ccflPools",
          "type": "address[]"
        }
      ],
      "name": "setPools",
      "outputs": [],
      "stateMutability": "nonpayable",
      "type": "function"
    },
    {
      "inputs": [
        {
          "internalType": "contract ISwapRouter",
          "name": "_swapRouter",
          "type": "address"
        },
        {
          "internalType": "contract IUniswapV3Factory",
          "name": "_factory",
          "type": "address"
        }
      ],
      "name": "setSwapRouter",
      "outputs": [],
      "stateMutability": "nonpayable",
      "type": "function"
    },
    {
      "inputs": [
        {
          "internalType": "uint256",
          "name": "_maxLTV",
          "type": "uint256"
        },
        {
          "internalType": "uint256",
          "name": "_liquidationThreshold",
          "type": "uint256"
        }
      ],
      "name": "setThreshold",
      "outputs": [],
      "stateMutability": "nonpayable",
      "type": "function"
    },
    {
      "inputs": [
        {
          "internalType": "contract IWETH",
          "name": "_iWETH",
          "type": "address"
        }
      ],
      "name": "setWETH",
      "outputs": [],
      "stateMutability": "nonpayable",
      "type": "function"
    },
    {
      "inputs": [
        {
          "internalType": "address",
          "name": "",
          "type": "address"
        },
        {
          "internalType": "uint256",
          "name": "",
          "type": "uint256"
        }
      ],
      "name": "userLoans",
      "outputs": [
        {
          "internalType": "uint256",
          "name": "",
          "type": "uint256"
        }
      ],
      "stateMutability": "view",
      "type": "function"
    },
    {
      "inputs": [],
      "name": "wETH",
      "outputs": [
        {
          "internalType": "contract IWETH",
          "name": "",
          "type": "address"
        }
      ],
      "stateMutability": "view",
      "type": "function"
    },
    {
      "inputs": [
        {
          "internalType": "uint256",
          "name": "_loanId",
          "type": "uint256"
        },
        {
          "internalType": "bool",
          "name": "isETH",
          "type": "bool"
        }
      ],
      "name": "withdrawAllCollateral",
      "outputs": [],
      "stateMutability": "nonpayable",
      "type": "function"
    },
    {
      "inputs": [
        {
          "internalType": "contract IERC20Standard",
          "name": "_stableCoin",
          "type": "address"
        },
        {
          "internalType": "uint256",
          "name": "_loanId",
          "type": "uint256"
        }
      ],
      "name": "withdrawLoan",
      "outputs": [],
      "stateMutability": "nonpayable",
      "type": "function"
    },
    {
      "stateMutability": "payable",
      "type": "receive"
    }
  ],
  "bytecode": "0x608060405234801561001057600080fd5b506140b3806100206000396000f3fe60806040526004361061030c5760003560e01c80638da5cb5b1161019a578063d8bad5bd116100e1578063f24286211161008a578063f6597bbb11610064578063f6597bbb14610923578063f8f126ff14610939578063fdb2b32c1461095957600080fd5b8063f2428621146108cd578063f384bd05146108ed578063f3cf4ada1461090357600080fd5b8063e51e119e116100bb578063e51e119e14610848578063e787ea2c1461087d578063ec7be39d146108ad57600080fd5b8063d8bad5bd146107e8578063dc40e2d014610808578063e43b03d61461082857600080fd5b8063b92dd92511610143578063c45a01551161011d578063c45a015514610788578063c694fdc1146107a8578063cdaabe41146107c857600080fd5b8063b92dd92514610702578063b9c3620914610732578063c0d015461461075257600080fd5b8063a58bab6211610174578063a58bab62146106b9578063a8700c3c146106cf578063b3bffeaa146106e257600080fd5b80638da5cb5b1461062d578063989397d41461064d5780639dcb511a1461068357600080fd5b8063415f12401161025e578063611f347d116102075780636eb0fdd0116101e15780636eb0fdd0146105d757806375607815146105f75780638ba02e1c1461061757600080fd5b8063611f347d1461056a57806364b520971461058a5780636b64c885146105aa57600080fd5b80634dd7bd3f116102385780634dd7bd3f146105175780635b769f3c1461052a5780635c8edac41461054a57600080fd5b8063415f1240146104b7578063474843ea146104d75780634bde38c8146104f757600080fd5b806325e9d2fa116102c05780633e108ad91161029a5780633e108ad91461044b5780634031234c146104815780634046ebae1461049757600080fd5b806325e9d2fa146103eb57806338ef67171461040b5780633a2ad9ae1461042b57600080fd5b8063172c48c7116102f1578063172c48c71461036357806317845c691461039b5780631d9eb5d9146103bb57600080fd5b80630769594d14610318578063101b9d311461033a57600080fd5b3661031357005b600080fd5b34801561032457600080fd5b5061033861033336600461379b565b61098f565b005b34801561034657600080fd5b5061035060185481565b6040519081526020015b60405180910390f35b34801561036f57600080fd5b5061038361037e366004613823565b610b93565b6040516001600160a01b03909116815260200161035a565b3480156103a757600080fd5b506103506103b6366004613823565b610bbd565b3480156103c757600080fd5b506103db6103d636600461383c565b610d3a565b604051901515815260200161035a565b3480156103f757600080fd5b5061035061040636600461388e565b610d95565b34801561041757600080fd5b506103386104263660046138bb565b610f14565b34801561043757600080fd5b506103386104463660046138ed565b610f81565b34801561045757600080fd5b506103836104663660046138bb565b600a602052600090815260409020546001600160a01b031681565b34801561048d57600080fd5b50610350600c5481565b3480156104a357600080fd5b50601154610383906001600160a01b031681565b3480156104c357600080fd5b506103386104d2366004613823565b611190565b3480156104e357600080fd5b506103386104f23660046138bb565b61185d565b34801561050357600080fd5b50601254610383906001600160a01b031681565b610338610525366004613938565b6118ca565b34801561053657600080fd5b506103386105453660046138bb565b611b68565b34801561055657600080fd5b50610338610565366004613982565b611bd5565b34801561057657600080fd5b506103386105853660046139a7565b611cdc565b34801561059657600080fd5b506103386105a536600461379b565b61209f565b3480156105b657600080fd5b506105ca6105c53660046138bb565b612296565b60405161035a9190613ad4565b3480156105e357600080fd5b506103386105f2366004613b18565b612302565b34801561060357600080fd5b50610350610612366004613b46565b6125b0565b34801561062357600080fd5b5061035060015481565b34801561063957600080fd5b50601354610383906001600160a01b031681565b34801561065957600080fd5b506103836106683660046138bb565b600e602052600090815260409020546001600160a01b031681565b34801561068f57600080fd5b5061038361069e3660046138bb565b600d602052600090815260409020546001600160a01b031681565b3480156106c557600080fd5b5061035060175481565b6103386106dd366004613b7d565b6126ec565b3480156106ee57600080fd5b506103506106fd366004613bed565b613026565b34801561070e57600080fd5b506103db61071d3660046138bb565b60066020526000908152604090205460ff1681565b34801561073e57600080fd5b5061033861074d36600461388e565b613127565b34801561075e57600080fd5b5061038361076d3660046138bb565b6002602052600090815260409020546001600160a01b031681565b34801561079457600080fd5b50601054610383906001600160a01b031681565b3480156107b457600080fd5b506103836107c3366004613823565b61317d565b3480156107d457600080fd5b50600954610383906001600160a01b031681565b3480156107f457600080fd5b50610350610803366004613c1b565b61318d565b34801561081457600080fd5b50610338610823366004613c47565b6131be565b34801561083457600080fd5b5061035061084336600461388e565b613237565b34801561085457600080fd5b50610350610863366004613c47565b600060208181529281526040808220909352908152205481565b34801561088957600080fd5b506103db6108983660046138bb565b60086020526000908152604090205460ff1681565b3480156108b957600080fd5b506103386108c8366004613c1b565b61337e565b3480156108d957600080fd5b50601454610383906001600160a01b031681565b3480156108f957600080fd5b50610350600b5481565b34801561090f57600080fd5b5061033861091e366004613c75565b613464565b34801561092f57600080fd5b5061035060165481565b34801561094557600080fd5b50610338610954366004613c47565b6134ba565b34801561096557600080fd5b50610383610974366004613823565b6000908152600560205260409020546001600160a01b031690565b6013546001600160a01b031633146109df5760405162461bcd60e51b815260206004820152600e60248201526d37b7363c903a34329037bbb732b960911b60448201526064015b60405180910390fd5b60005b8351811015610b8d5760008482815181106109ff576109ff613ca1565b60200260200101519050610a6d6003805480602002602001604051908101604052809291908181526020018280548015610a6257602002820191906000526020600020905b81546001600160a01b03168152600190910190602001808311610a44575b505050505082610d3a565b1515600003610ac257600380546001810182556000919091527fc2575a0e9e593c00f959f8c92f12db2869c3395a3b0502d05e2516446f71f85b0180546001600160a01b0319166001600160a01b0383161790555b828281518110610ad457610ad4613ca1565b602002602001015160026000836001600160a01b03166001600160a01b0316815260200190815260200160002060006101000a8154816001600160a01b0302191690836001600160a01b03160217905550838281518110610b3757610b37613ca1565b6020908102919091018101516001600160a01b039283166000908152600e8352604080822080546001600160a01b0319169590931694909417909155600690915220805460ff19166001908117909155016109e2565b50505050565b60078181548110610ba357600080fd5b6000918252602090912001546001600160a01b0316905081565b600081815260056020526040808220548151635d3e2fa160e01b815291516001600160a01b039091169183918391635d3e2fa19160048083019260c09291908290030181865afa158015610c15573d6000803e3d6000fd5b505050506040513d601f19601f82011682018060405250810190610c399190613cb7565b60808101516001600160a01b0390811660009081526002602052604080822054905163a52f38d160e01b815260048101899052939450909291169063a52f38d190602401602060405180830381865afa158015610c9a573d6000803e3d6000fd5b505050506040513d601f19601f82011682018060405250810190610cbe9190613d50565b604051632696439560e11b815260048101829052600060248201529091506001600160a01b03841690634d2c872a90604401602060405180830381865afa158015610d0d573d6000803e3d6000fd5b505050506040513d601f19601f82011682018060405250810190610d319190613d50565b95945050505050565b600080805b8451811015610d8b57836001600160a01b0316858281518110610d6457610d64613ca1565b60200260200101516001600160a01b031603610d835760019150610d8b565b600101610d3f565b5090505b92915050565b600082815260056020526040808220548151635d3e2fa160e01b815291516001600160a01b039091169183918391635d3e2fa19160048083019260c09291908290030181865afa158015610ded573d6000803e3d6000fd5b505050506040513d601f19601f82011682018060405250810190610e119190613cb7565b60808101516001600160a01b0390811660009081526002602052604080822054905163a52f38d160e01b8152600481018a9052939450909291169063a52f38d190602401602060405180830381865afa158015610e72573d6000803e3d6000fd5b505050506040513d601f19601f82011682018060405250810190610e969190613d50565b604051632696439560e11b815260048101829052602481018790529091506001600160a01b03841690634d2c872a906044015b602060405180830381865afa158015610ee6573d6000803e3d6000fd5b505050506040513d601f19601f82011682018060405250810190610f0a9190613d50565b9695505050505050565b6013546001600160a01b03163314610f5f5760405162461bcd60e51b815260206004820152600e60248201526d37b7363c903a34329037bbb732b960911b60448201526064016109d6565b600980546001600160a01b0319166001600160a01b0392909216919091179055565b6013546001600160a01b03163314610fcc5760405162461bcd60e51b815260206004820152600e60248201526d37b7363c903a34329037bbb732b960911b60448201526064016109d6565b80156110b257611036600380548060200260200160405190810160405280929190818152602001828054801561102b57602002820191906000526020600020905b81546001600160a01b0316815260019091019060200180831161100d575b505050505084610d3a565b15156001146110875760405162461bcd60e51b815260206004820152601460248201527f546f6b656e206973206e6f74206578697374656400000000000000000000000060448201526064016109d6565b6001600160a01b0383166000908152600860205260409020805483151560ff19909116179055505050565b611114600780548060200260200160405190810160405280929190818152602001828054801561102b576020028201919060005260206000209081546001600160a01b0316815260019091019060200180831161100d57505050505084610d3a565b15156001146111655760405162461bcd60e51b815260206004820152601460248201527f546f6b656e206973206e6f74206578697374656400000000000000000000000060448201526064016109d6565b6001600160a01b0383166000908152600660205260409020805483151560ff19909116179055505050565b600081815260056020526040808220548151635d3e2fa160e01b815291516001600160a01b0390911692918391635d3e2fa19160048082019260c0929091908290030181865afa1580156111e8573d6000803e3d6000fd5b505050506040513d601f19601f8201168201806040525081019061120c9190613cb7565b60808101516001600160a01b0390811660009081526002602052604080822054905163a52f38d160e01b815260048101889052939450909291169063a52f38d190602401602060405180830381865afa15801561126d573d6000803e3d6000fd5b505050506040513d601f19601f820116820180604052508101906112919190613d50565b9050826001600160a01b031663d296d1f1826016546017546018546112b69190613d7f565b6112c09190613d7f565b6040516001600160e01b031960e085901b16815260048101929092526024820152604401600060405180830381600087803b1580156112fe57600080fd5b505af1158015611312573d6000803e3d6000fd5b5050505081608001516001600160a01b03166323b872dd84306103e86016546017546018546103e86113449190613d7f565b61134e9190613d7f565b6113589190613d7f565b6113629087613d92565b61136c9190613da9565b6040516001600160e01b031960e086901b1681526001600160a01b03938416600482015292909116602483015260448201526064016020604051808303816000875af11580156113c0573d6000803e3d6000fd5b505050506040513d601f19601f820116820180604052508101906113e49190613dcb565b5060808201516001600160a01b039081166000818152600260205260409081902054905163095ea7b360e01b815292166004830152602482018390529063095ea7b3906044016020604051808303816000875af1158015611449573d6000803e3d6000fd5b505050506040513d601f19601f8201168201806040525081019061146d9190613dcb565b5060808201516001600160a01b039081166000908152600260205260409081902054905163d8aed14560e01b8152600481018790526024810184905291169063d8aed14590604401600060405180830381600087803b1580156114cf57600080fd5b505af11580156114e3573d6000803e3d6000fd5b5050505081608001516001600160a01b031663a9059cbb601260009054906101000a90046001600160a01b03166103e8601654856115219190613d92565b61152b9190613da9565b6040516001600160e01b031960e085901b1681526001600160a01b03909216600483015260248201526044016020604051808303816000875af1158015611576573d6000803e3d6000fd5b505050506040513d601f19601f8201168201806040525081019061159a9190613dcb565b5060808201516011546017546001600160a01b039283169263a9059cbb9216906103e8906115c89086613d92565b6115d29190613da9565b6040516001600160e01b031960e085901b1681526001600160a01b03909216600483015260248201526044016020604051808303816000875af115801561161d573d6000803e3d6000fd5b505050506040513d601f19601f820116820180604052508101906116419190613dcb565b5060006103e8601754836116559190613d92565b61165f9190613da9565b6103e8601654846116709190613d92565b61167a9190613da9565b836103e86016546017546018546103e86116949190613d7f565b61169e9190613d7f565b6116a89190613d7f565b6116b29087613d92565b6116bc9190613da9565b6116c69190613de8565b6116d09190613de8565b6116da9190613de8565b60808401516001600160a01b039081166000818152600260205260409081902054905163095ea7b360e01b8152921660048301526024820183905291925063095ea7b3906044016020604051808303816000875af1158015611740573d6000803e3d6000fd5b505050506040513d601f19601f820116820180604052508101906117649190613dcb565b5060808301516001600160a01b03908116600090815260026020526040908190205490517f5737910200000000000000000000000000000000000000000000000000000000815260048101849052911690635737910290602401600060405180830381600087803b1580156117d857600080fd5b505af11580156117ec573d6000803e3d6000fd5b50505060008681526005602052604080822054815163232fa73360e01b815291516001600160a01b03909116935063232fa7339260048084019391929182900301818387803b15801561183e57600080fd5b505af1158015611852573d6000803e3d6000fd5b505050505050505050565b6013546001600160a01b031633146118a85760405162461bcd60e51b815260206004820152600e60248201526d37b7363c903a34329037bbb732b960911b60448201526064016109d6565b600480546001600160a01b0319166001600160a01b0392909216919091179055565b6001600160a01b038216600090815260086020526040902054829060ff1615156001146119395760405162461bcd60e51b815260206004820152601f60248201527f436f6c6c61746572616c20746f6b656e206973206e6f7420616374697665640060448201526064016109d6565b81156119f9573484111561198f5760405162461bcd60e51b815260206004820181905260248201527f646f206e6f74206861766520656e6f756768206465706f73697465642045544860448201526064016109d6565b601460009054906101000a90046001600160a01b03166001600160a01b031663d0e30db0856040518263ffffffff1660e01b81526004016000604051808303818588803b1580156119df57600080fd5b505af11580156119f3573d6000803e3d6000fd5b50505050505b60008581526005602052604090819020549051633390ef1360e11b8152600481018690526001600160a01b03909116908190636721de2690602401600060405180830381600087803b158015611a4e57600080fd5b505af1158015611a62573d6000803e3d6000fd5b505050508215611ae55760405163a9059cbb60e01b81526001600160a01b0382811660048301526024820187905285169063a9059cbb906044016020604051808303816000875af1158015611abb573d6000803e3d6000fd5b505050506040513d601f19601f82011682018060405250810190611adf9190613dcb565b50611b60565b6040516323b872dd60e01b81523360048201526001600160a01b038281166024830152604482018790528516906323b872dd906064016020604051808303816000875af1158015611b3a573d6000803e3d6000fd5b505050506040513d601f19601f82011682018060405250810190611b5e9190613dcb565b505b505050505050565b6013546001600160a01b03163314611bb35760405162461bcd60e51b815260206004820152600e60248201526d37b7363c903a34329037bbb732b960911b60448201526064016109d6565b601480546001600160a01b0319166001600160a01b0392909216919091179055565b600082815260056020526040808220548151635d3e2fa160e01b815291516001600160a01b0390911692918391635d3e2fa19160048082019260c0929091908290030181865afa158015611c2d573d6000803e3d6000fd5b505050506040513d601f19601f82011682018060405250810190611c519190613cb7565b60208101516040517f102cb82e0000000000000000000000000000000000000000000000000000000081526001600160a01b039182166004820152851515602482015291925083169063102cb82e906044015b600060405180830381600087803b158015611cbe57600080fd5b505af1158015611cd2573d6000803e3d6000fd5b5050505050505050565b7ff0c57e16840df040f15088dc2f81fe391c3923bec73e23a9662efc9c229c6a00805468010000000000000000810460ff16159067ffffffffffffffff16600081158015611d275750825b905060008267ffffffffffffffff166001148015611d445750303b155b905081158015611d52575080155b15611d89576040517ff92ee8a900000000000000000000000000000000000000000000000000000000815260040160405180910390fd5b845467ffffffffffffffff191660011785558315611dbd57845468ff00000000000000001916680100000000000000001785555b8e60039080519060200190611dd39291906135be565b506001805560005b600354811015611ee057600060038281548110611dfa57611dfa613ca1565b6000918252602090912001548f516001600160a01b0390911691508f9083908110611e2757611e27613ca1565b602002602001015160026000836001600160a01b03166001600160a01b0316815260200190815260200160002060006101000a8154816001600160a01b0302191690836001600160a01b031602179055508f8281518110611e8a57611e8a613ca1565b6020908102919091018101516001600160a01b039283166000908152600e8352604080822080546001600160a01b0319169590931694909417909155600690915220805460ff1916600190811790915501611ddb565b508b51611ef49060079060208f01906135be565b5060005b600754811015611ffd57600060078281548110611f1757611f17613ca1565b6000918252602090912001548d516001600160a01b0390911691508d9083908110611f4457611f44613ca1565b6020026020010151600d6000836001600160a01b03166001600160a01b0316815260200190815260200160002060006101000a8154816001600160a01b0302191690836001600160a01b031602179055508b8281518110611fa757611fa7613ca1565b6020908102919091018101516001600160a01b039283166000908152600a8352604080822080546001600160a01b0319169590931694909417909155600890915220805460ff1916600190811790915501611ef8565b50600980546001600160a01b03808c166001600160a01b0319928316179092556004805492891692821692909217909155600b899055600c8890556013805490911633179055831561208e57845468ff000000000000000019168555604051600181527fc7f505b2f371ae2175ee4913f4499e1f2633a7b5936321eed1cdaeb6115181d29060200160405180910390a15b505050505050505050505050505050565b6013546001600160a01b031633146120ea5760405162461bcd60e51b815260206004820152600e60248201526d37b7363c903a34329037bbb732b960911b60448201526064016109d6565b60005b8351811015610b8d57600084828151811061210a5761210a613ca1565b602002602001015190506121766007805480602002602001604051908101604052809291908181526020018280548015610a62576020028201919060005260206000209081546001600160a01b03168152600190910190602001808311610a4457505050505082610d3a565b15156000036121cb57600780546001810182556000919091527fa66cc928b5edb82af9bd49922954155ab7b0942694bea4ce44661d9a8736c6880180546001600160a01b0319166001600160a01b0383161790555b8382815181106121dd576121dd613ca1565b6020026020010151600d6000836001600160a01b03166001600160a01b0316815260200190815260200160002060006101000a8154816001600160a01b0302191690836001600160a01b0316021790555082828151811061224057612240613ca1565b6020908102919091018101516001600160a01b039283166000908152600a8352604080822080546001600160a01b0319169590931694909417909155600890915220805460ff19166001908117909155016120ed565b6001600160a01b0381166000908152601560209081526040918290208054835181840281018401909452808452606093928301828280156122f657602002820191906000526020600020905b8154815260200190600101908083116122e2575b50505050509050919050565b6001600160a01b038116600090815260066020526040902054819060ff1615156001146123715760405162461bcd60e51b815260206004820152601960248201527f506f6f6c20746f6b656e206973206e6f7420616374697665640000000000000060448201526064016109d6565b6040516323b872dd60e01b8152336004820152306024820152604481018490526001600160a01b038316906323b872dd906064016020604051808303816000875af11580156123c4573d6000803e3d6000fd5b505050506040513d601f19601f820116820180604052508101906123e89190613dcb565b506001600160a01b038281166000818152600260205260409081902054905163095ea7b360e01b815292166004830152602482018590529063095ea7b3906044016020604051808303816000875af1158015612448573d6000803e3d6000fd5b505050506040513d601f19601f8201168201806040525081019061246c9190613dcb565b506001600160a01b038281166000908152600260205260409081902054905163d8aed14560e01b8152600481018790526024810186905291169063d8aed14590604401600060405180830381600087803b1580156124c957600080fd5b505af11580156124dd573d6000803e3d6000fd5b505050506001600160a01b038281166000908152600260205260409081902054905163a52f38d160e01b81526004810187905291169063a52f38d190602401602060405180830381865afa158015612539573d6000803e3d6000fd5b505050506040513d601f19601f8201168201806040525081019061255d9190613d50565b600003610b8d5760008481526005602052604080822054815163232fa73360e01b815291516001600160a01b039091169263232fa733926004808201939182900301818387803b158015611cbe57600080fd5b60006125bd826000613026565b612710846001600160a01b031663313ce5676040518163ffffffff1660e01b8152600401602060405180830381865afa1580156125fe573d6000803e3d6000fd5b505050506040513d601f19601f820116820180604052508101906126229190613dfb565b61262d90600a613f02565b612638866001613026565b600b54866001600160a01b031663313ce5676040518163ffffffff1660e01b8152600401602060405180830381865afa158015612679573d6000803e3d6000fd5b505050506040513d601f19601f8201168201806040525081019061269d9190613dfb565b6126a890600a613f02565b6126b2908a613d92565b6126bc9190613d92565b6126c69190613d92565b6126d09190613da9565b6126da9190613da9565b6126e49190613da9565b949350505050565b6001600160a01b038516600090815260066020526040902054859060ff16151560011461275b5760405162461bcd60e51b815260206004820152601960248201527f506f6f6c20746f6b656e206973206e6f7420616374697665640000000000000060448201526064016109d6565b6001600160a01b038416600090815260086020526040902054849060ff1615156001146127ca5760405162461bcd60e51b815260206004820152601f60248201527f436f6c6c61746572616c20746f6b656e206973206e6f7420616374697665640060448201526064016109d6565b821561288a57348611156128205760405162461bcd60e51b815260206004820181905260248201527f646f206e6f74206861766520656e6f756768206465706f73697465642045544860448201526064016109d6565b601460009054906101000a90046001600160a01b03166001600160a01b031663d0e30db0876040518263ffffffff1660e01b81526004016000604051808303818588803b15801561287057600080fd5b505af1158015612884573d6000803e3d6000fd5b50505050505b866001600160a01b031663313ce5676040518163ffffffff1660e01b8152600401602060405180830381865afa1580156128c8573d6000803e3d6000fd5b505050506040513d601f19601f820116820180604052508101906128ec9190613dfb565b6128f790600a613f02565b612902886001613026565b61290c908a613d92565b61291890612710613d92565b6129229190613da9565b856001600160a01b031663313ce5676040518163ffffffff1660e01b8152600401602060405180830381865afa158015612960573d6000803e3d6000fd5b505050506040513d601f19601f820116820180604052508101906129849190613dfb565b61298f90600a613f02565b600b5461299d886000613026565b6129a7908a613d92565b6129b19190613d92565b6129bb9190613da9565b1015612a095760405162461bcd60e51b815260206004820152601c60248201527f446f6e2774206861766520656e6f75676820636f6c6c61746572616c0000000060448201526064016109d6565b6001600160a01b038088166000908152600260209081526040918290205482517f3b24cc2100000000000000000000000000000000000000000000000000000000815292518c949190911692633b24cc219260048083019391928290030181865afa158015612a7c573d6000803e3d6000fd5b505050506040513d601f19601f82011682018060405250810190612aa09190613d50565b1015612aee5760405162461bcd60e51b815260206004820152601b60248201527f506f6f6c20646f6e2774206861766520656e6f7567682066756e64000000000060448201526064016109d6565b6040805160c081018252600081830181905260a08201819052336020808401828152606085018e815260015486526001600160a01b038e81166080880181905286526002909352938690205485519451915196517fd6bda0c000000000000000000000000000000000000000000000000000000000815260048101959095526024850191909152948116604484015292939092169063d6bda0c090606401600060405180830381600087803b158015612ba657600080fd5b505af1158015612bba573d6000803e3d6000fd5b5050506001600160a01b03808b166000908152600e602052604081205460045490831693508a92612beb9116613533565b90506000819050806001600160a01b031663f34757c28785600960009054906101000a90046001600160a01b0316600a6000896001600160a01b03166001600160a01b0316815260200190815260200160002060009054906101000a90046001600160a01b0316600b54600c54600d60008c6001600160a01b03166001600160a01b0316815260200190815260200160002060009054906101000a90046001600160a01b03168c601260009054906101000a90046001600160a01b0316601460009054906101000a90046001600160a01b03166040518b63ffffffff1660e01b8152600401612ce39a99989796959493929190613f11565b600060405180830381600087803b158015612cfd57600080fd5b505af1158015612d11573d6000803e3d6000fd5b50506040517f8ac1b7750000000000000000000000000000000000000000000000000000000081523060048201526001600160a01b0384169250638ac1b7759150602401600060405180830381600087803b158015612d6f57600080fd5b505af1158015612d83573d6000803e3d6000fd5b5050600f546010546040517fdc40e2d00000000000000000000000000000000000000000000000000000000081526001600160a01b0392831660048201529082166024820152908416925063dc40e2d09150604401600060405180830381600087803b158015612df257600080fd5b505af1158015612e06573d6000803e3d6000fd5b5050604051633390ef1360e11b8152600481018f90526001600160a01b0384169250636721de269150602401600060405180830381600087803b158015612e4c57600080fd5b505af1158015612e60573d6000803e3d6000fd5b505050508815612ee35760405163a9059cbb60e01b81526001600160a01b038381166004830152602482018e90528c169063a9059cbb906044016020604051808303816000875af1158015612eb9573d6000803e3d6000fd5b505050506040513d601f19601f82011682018060405250810190612edd9190613dcb565b50612f5e565b6040516323b872dd60e01b81523360048201526001600160a01b038381166024830152604482018e90528c16906323b872dd906064016020604051808303816000875af1158015612f38573d6000803e3d6000fd5b505050506040513d601f19601f82011682018060405250810190612f5c9190613dcb565b505b891515600103612fbc57806001600160a01b03166307a6bf696040518163ffffffff1660e01b8152600401600060405180830381600087803b158015612fa357600080fd5b505af1158015612fb7573d6000803e3d6000fd5b505050505b60018054600090815260056020908152604080832080546001600160a01b0319166001600160a01b03871617905533835260158252822083548154808601835591845291832001558154919061301183613ffa565b91905055505050505050505050505050505050565b600081151581036130c7576001600160a01b038084166000908152600d6020526040808220548151633fabe5a360e21b8152915192938493849384938493169163feaf968c9160048082019260a0929091908290030181865afa158015613091573d6000803e3d6000fd5b505050506040513d601f19601f820116820180604052508101906130b5919061402d565b50919850610d8f975050505050505050565b6001600160a01b038084166000908152600e6020526040808220548151633fabe5a360e21b8152915192938493849384938493169163feaf968c9160048082019260a0929091908290030181865afa158015613091573d6000803e3d6000fd5b6013546001600160a01b031633146131725760405162461bcd60e51b815260206004820152600e60248201526d37b7363c903a34329037bbb732b960911b60448201526064016109d6565b600b91909155600c55565b60038181548110610ba357600080fd5b601560205281600052604060002081815481106131a957600080fd5b90600052602060002001600091509150505481565b6013546001600160a01b031633146132095760405162461bcd60e51b815260206004820152600e60248201526d37b7363c903a34329037bbb732b960911b60448201526064016109d6565b600f80546001600160a01b039384166001600160a01b03199182161790915560108054929093169116179055565b600082815260056020526040808220548151635d3e2fa160e01b815291516001600160a01b039091169183918391635d3e2fa19160048083019260c09291908290030181865afa15801561328f573d6000803e3d6000fd5b505050506040513d601f19601f820116820180604052508101906132b39190613cb7565b60808101516001600160a01b0390811660009081526002602052604080822054905163a52f38d160e01b8152600481018a9052939450909291169063a52f38d190602401602060405180830381865afa158015613314573d6000803e3d6000fd5b505050506040513d601f19601f820116820180604052508101906133389190613d50565b90506001600160a01b038316634d2c872a6133538784613de8565b6040516001600160e01b031960e084901b168152600481019190915260006024820152604401610ec9565b600081815260056020526040808220548151635d3e2fa160e01b815291516001600160a01b0390911692918391635d3e2fa19160048082019260c0929091908290030181865afa1580156133d6573d6000803e3d6000fd5b505050506040513d601f19601f820116820180604052508101906133fa9190613cb7565b6001600160a01b03858116600090815260026020908152604091829020549084015191517fec7be39d00000000000000000000000000000000000000000000000000000000815291831660048301526024820187905292935091169063ec7be39d90604401611ca4565b6013546001600160a01b031633146134af5760405162461bcd60e51b815260206004820152600e60248201526d37b7363c903a34329037bbb732b960911b60448201526064016109d6565b601855601755601655565b6013546001600160a01b031633146135055760405162461bcd60e51b815260206004820152600e60248201526d37b7363c903a34329037bbb732b960911b60448201526064016109d6565b601180546001600160a01b039384166001600160a01b03199182161790915560128054929093169116179055565b6000763d602d80600a3d3981f3363d3d373d3d3d363d730000008260601b60e81c176000526e5af43d82803e903d91602b57fd5bf38260781b17602052603760096000f090506001600160a01b0381166135b9576040517fc2f868f400000000000000000000000000000000000000000000000000000000815260040160405180910390fd5b919050565b828054828255906000526020600020908101928215613613579160200282015b8281111561361357825182546001600160a01b0319166001600160a01b039091161782556020909201916001909101906135de565b5061361f929150613623565b5090565b5b8082111561361f5760008155600101613624565b634e487b7160e01b600052604160045260246000fd5b604051601f8201601f1916810167ffffffffffffffff8111828210171561367757613677613638565b604052919050565b600067ffffffffffffffff82111561369957613699613638565b5060051b60200190565b6001600160a01b03811681146136b857600080fd5b50565b600082601f8301126136cc57600080fd5b813560206136e16136dc8361367f565b61364e565b8083825260208201915060208460051b87010193508684111561370357600080fd5b602086015b8481101561372857803561371b816136a3565b8352918301918301613708565b509695505050505050565b600082601f83011261374457600080fd5b813560206137546136dc8361367f565b8083825260208201915060208460051b87010193508684111561377657600080fd5b602086015b8481101561372857803561378e816136a3565b835291830191830161377b565b6000806000606084860312156137b057600080fd5b833567ffffffffffffffff808211156137c857600080fd5b6137d4878388016136bb565b945060208601359150808211156137ea57600080fd5b6137f687838801613733565b9350604086013591508082111561380c57600080fd5b50613819868287016136bb565b9150509250925092565b60006020828403121561383557600080fd5b5035919050565b6000806040838503121561384f57600080fd5b823567ffffffffffffffff81111561386657600080fd5b613872858286016136bb565b9250506020830135613883816136a3565b809150509250929050565b600080604083850312156138a157600080fd5b50508035926020909101359150565b80356135b9816136a3565b6000602082840312156138cd57600080fd5b81356138d8816136a3565b9392505050565b80151581146136b857600080fd5b60008060006060848603121561390257600080fd5b833561390d816136a3565b9250602084013561391d816138df565b9150604084013561392d816138df565b809150509250925092565b6000806000806080858703121561394e57600080fd5b84359350602085013592506040850135613967816136a3565b91506060850135613977816138df565b939692955090935050565b6000806040838503121561399557600080fd5b823591506020830135613883816138df565b6000806000806000806000806000806101408b8d0312156139c757600080fd5b8a3567ffffffffffffffff808211156139df57600080fd5b6139eb8e838f016136bb565b9b5060208d0135915080821115613a0157600080fd5b613a0d8e838f01613733565b9a5060408d0135915080821115613a2357600080fd5b613a2f8e838f016136bb565b995060608d0135915080821115613a4557600080fd5b613a518e838f016136bb565b985060808d0135915080821115613a6757600080fd5b613a738e838f01613733565b975060a08d0135915080821115613a8957600080fd5b50613a968d828e016136bb565b955050613aa560c08c016138b0565b935060e08b013592506101008b01359150613ac36101208c016138b0565b90509295989b9194979a5092959850565b6020808252825182820181905260009190848201906040850190845b81811015613b0c57835183529284019291840191600101613af0565b50909695505050505050565b600080600060608486031215613b2d57600080fd5b8335925060208401359150604084013561392d816136a3565b600080600060608486031215613b5b57600080fd5b833592506020840135613b6d816136a3565b9150604084013561392d816136a3565b60008060008060008060c08789031215613b9657600080fd5b863595506020870135613ba8816136a3565b9450604087013593506060870135613bbf816136a3565b92506080870135613bcf816138df565b915060a0870135613bdf816138df565b809150509295509295509295565b60008060408385031215613c0057600080fd5b8235613c0b816136a3565b91506020830135613883816138df565b60008060408385031215613c2e57600080fd5b8235613c39816136a3565b946020939093013593505050565b60008060408385031215613c5a57600080fd5b8235613c65816136a3565b91506020830135613883816136a3565b600080600060608486031215613c8a57600080fd5b505081359360208301359350604090920135919050565b634e487b7160e01b600052603260045260246000fd5b600060c08284031215613cc957600080fd5b60405160c0810181811067ffffffffffffffff82111715613cec57613cec613638565b604052825181526020830151613d01816136a3565b60208201526040830151613d14816138df565b6040820152606083810151908201526080830151613d31816136a3565b608082015260a0830151613d44816138df565b60a08201529392505050565b600060208284031215613d6257600080fd5b5051919050565b634e487b7160e01b600052601160045260246000fd5b80820180821115610d8f57610d8f613d69565b8082028115828204841417610d8f57610d8f613d69565b600082613dc657634e487b7160e01b600052601260045260246000fd5b500490565b600060208284031215613ddd57600080fd5b81516138d8816138df565b81810381811115610d8f57610d8f613d69565b600060208284031215613e0d57600080fd5b815160ff811681146138d857600080fd5b600181815b80851115613e59578160001904821115613e3f57613e3f613d69565b80851615613e4c57918102915b93841c9390800290613e23565b509250929050565b600082613e7057506001610d8f565b81613e7d57506000610d8f565b8160018114613e935760028114613e9d57613eb9565b6001915050610d8f565b60ff841115613eae57613eae613d69565b50506001821b610d8f565b5060208310610133831016604e8410600b8410161715613edc575081810a610d8f565b613ee68383613e1e565b8060001904821115613efa57613efa613d69565b029392505050565b60006138d860ff841683613e61565b60006101e0820190508b51825260208c01516001600160a01b03808216602085015260408e01511515604085015260608e015160608501528060808f0151166080850152505060a08c0151151560a0830152613f7860c083018c6001600160a01b03169052565b6001600160a01b038a1660e08301526001600160a01b0389166101008301528761012083015286610140830152613fbb6101608301876001600160a01b03169052565b6001600160a01b0385166101808301526001600160a01b0384166101a08301526001600160a01b0383166101c08301529b9a5050505050505050505050565b60006001820161400c5761400c613d69565b5060010190565b805169ffffffffffffffffffff811681146135b957600080fd5b600080600080600060a0868803121561404557600080fd5b61404e86614013565b945060208601519350604086015192506060860151915061407160808701614013565b9050929550929590935056fea2646970667358221220959f05af25131446f4144c70d7ffa77af20895b3ef7a2e698a58b1591d89a50d64736f6c63430008180033",
  "linkReferences": {},
  "deployedLinkReferences": {}
}