{
  "_format": "hh-sol-artifact-1",
  "contractName": "CCFLPool",
  "sourceName": "contracts/CCFLPool.sol",
  "abi": [
    {
      "inputs": [],
      "name": "InvalidInitialization",
      "type": "error"
    },
    {
      "inputs": [],
      "name": "NotInitializing",
      "type": "error"
    },
    {
      "inputs": [
        {
          "internalType": "uint8",
          "name": "bits",
          "type": "uint8"
        },
        {
          "internalType": "uint256",
          "name": "value",
          "type": "uint256"
        }
      ],
      "name": "SafeCastOverflowedUintDowncast",
      "type": "error"
    },
    {
      "anonymous": false,
      "inputs": [
        {
          "indexed": true,
          "internalType": "address",
          "name": "lender",
          "type": "address"
        },
        {
          "indexed": true,
          "internalType": "address",
          "name": "poolAddress",
          "type": "address"
        },
        {
          "indexed": true,
          "internalType": "contract IERC20Standard",
          "name": "stableCoin",
          "type": "address"
        },
        {
          "indexed": false,
          "internalType": "uint256",
          "name": "amount",
          "type": "uint256"
        },
        {
          "indexed": false,
          "internalType": "uint256",
          "name": "lenderShare",
          "type": "uint256"
        },
        {
          "indexed": false,
          "internalType": "uint256",
          "name": "totalSupply",
          "type": "uint256"
        },
        {
          "indexed": false,
          "internalType": "uint256",
          "name": "totalLiquidity",
          "type": "uint256"
        },
        {
          "indexed": false,
          "internalType": "uint256",
          "name": "remainingPool",
          "type": "uint256"
        }
      ],
      "name": "AddSupply",
      "type": "event"
    },
    {
      "anonymous": false,
      "inputs": [
        {
          "indexed": false,
          "internalType": "uint64",
          "name": "version",
          "type": "uint64"
        }
      ],
      "name": "Initialized",
      "type": "event"
    },
    {
      "anonymous": false,
      "inputs": [
        {
          "indexed": true,
          "internalType": "address",
          "name": "lender",
          "type": "address"
        },
        {
          "indexed": true,
          "internalType": "address",
          "name": "poolAddress",
          "type": "address"
        },
        {
          "indexed": true,
          "internalType": "contract IERC20Standard",
          "name": "stableCoin",
          "type": "address"
        },
        {
          "indexed": false,
          "internalType": "uint256",
          "name": "amount",
          "type": "uint256"
        },
        {
          "indexed": false,
          "internalType": "uint256",
          "name": "lenderShare",
          "type": "uint256"
        },
        {
          "indexed": false,
          "internalType": "uint256",
          "name": "totalSupply",
          "type": "uint256"
        },
        {
          "indexed": false,
          "internalType": "uint256",
          "name": "totalLiquidity",
          "type": "uint256"
        },
        {
          "indexed": false,
          "internalType": "uint256",
          "name": "remainingPool",
          "type": "uint256"
        }
      ],
      "name": "WithdrawSupply",
      "type": "event"
    },
    {
      "inputs": [],
      "name": "CCFL",
      "outputs": [
        {
          "internalType": "address",
          "name": "",
          "type": "address"
        }
      ],
      "stateMutability": "view",
      "type": "function"
    },
    {
      "inputs": [
        {
          "internalType": "address",
          "name": "_user",
          "type": "address"
        }
      ],
      "name": "balanceOf",
      "outputs": [
        {
          "internalType": "uint256",
          "name": "",
          "type": "uint256"
        }
      ],
      "stateMutability": "view",
      "type": "function"
    },
    {
      "inputs": [
        {
          "internalType": "uint256",
          "name": "_loanId",
          "type": "uint256"
        },
        {
          "internalType": "uint256",
          "name": "_amount",
          "type": "uint256"
        },
        {
          "internalType": "address",
          "name": "_borrower",
          "type": "address"
        },
        {
          "internalType": "bool",
          "name": "_isFiat",
          "type": "bool"
        }
      ],
      "name": "borrow",
      "outputs": [],
      "stateMutability": "nonpayable",
      "type": "function"
    },
    {
      "inputs": [
        {
          "internalType": "uint256",
          "name": "",
          "type": "uint256"
        }
      ],
      "name": "debt",
      "outputs": [
        {
          "internalType": "uint256",
          "name": "",
          "type": "uint256"
        }
      ],
      "stateMutability": "view",
      "type": "function"
    },
    {
      "inputs": [
        {
          "internalType": "uint256",
          "name": "_amount",
          "type": "uint256"
        }
      ],
      "name": "earnStaking",
      "outputs": [],
      "stateMutability": "nonpayable",
      "type": "function"
    },
    {
      "inputs": [
        {
          "internalType": "uint256",
          "name": "_loanId",
          "type": "uint256"
        }
      ],
      "name": "getCurrentLoan",
      "outputs": [
        {
          "internalType": "uint256",
          "name": "",
          "type": "uint256"
        }
      ],
      "stateMutability": "view",
      "type": "function"
    },
    {
      "inputs": [],
      "name": "getCurrentRate",
      "outputs": [
        {
          "internalType": "uint256",
          "name": "",
          "type": "uint256"
        },
        {
          "internalType": "uint256",
          "name": "",
          "type": "uint256"
        },
        {
          "internalType": "uint256",
          "name": "",
          "type": "uint256"
        },
        {
          "internalType": "uint256",
          "name": "",
          "type": "uint256"
        }
      ],
      "stateMutability": "view",
      "type": "function"
    },
    {
      "inputs": [],
      "name": "getDebtPool",
      "outputs": [
        {
          "internalType": "uint256",
          "name": "amount",
          "type": "uint256"
        }
      ],
      "stateMutability": "view",
      "type": "function"
    },
    {
      "inputs": [],
      "name": "getRemainingPool",
      "outputs": [
        {
          "internalType": "uint256",
          "name": "amount",
          "type": "uint256"
        }
      ],
      "stateMutability": "view",
      "type": "function"
    },
    {
      "inputs": [],
      "name": "getTotalSupply",
      "outputs": [
        {
          "internalType": "uint256",
          "name": "",
          "type": "uint256"
        }
      ],
      "stateMutability": "view",
      "type": "function"
    },
    {
      "inputs": [
        {
          "internalType": "contract IERC20Standard",
          "name": "_stableCoinAddress",
          "type": "address"
        },
        {
          "internalType": "address",
          "name": "interestRateStrategyAddress",
          "type": "address"
        }
      ],
      "name": "initialize",
      "outputs": [],
      "stateMutability": "nonpayable",
      "type": "function"
    },
    {
      "inputs": [],
      "name": "isPaused",
      "outputs": [
        {
          "internalType": "bool",
          "name": "",
          "type": "bool"
        }
      ],
      "stateMutability": "view",
      "type": "function"
    },
    {
      "inputs": [
        {
          "internalType": "uint256",
          "name": "",
          "type": "uint256"
        }
      ],
      "name": "lenders",
      "outputs": [
        {
          "internalType": "address",
          "name": "",
          "type": "address"
        }
      ],
      "stateMutability": "view",
      "type": "function"
    },
    {
      "inputs": [
        {
          "internalType": "uint256",
          "name": "_loanId",
          "type": "uint256"
        },
        {
          "internalType": "uint256",
          "name": "_amount",
          "type": "uint256"
        }
      ],
      "name": "liquidatePenalty",
      "outputs": [],
      "stateMutability": "nonpayable",
      "type": "function"
    },
    {
      "inputs": [
        {
          "internalType": "uint256",
          "name": "",
          "type": "uint256"
        }
      ],
      "name": "loans",
      "outputs": [
        {
          "internalType": "uint256",
          "name": "loanId",
          "type": "uint256"
        },
        {
          "internalType": "bool",
          "name": "isPaid",
          "type": "bool"
        },
        {
          "internalType": "uint256",
          "name": "amount",
          "type": "uint256"
        },
        {
          "internalType": "bool",
          "name": "isClosed",
          "type": "bool"
        },
        {
          "internalType": "address",
          "name": "borrower",
          "type": "address"
        },
        {
          "internalType": "bool",
          "name": "isLiquidated",
          "type": "bool"
        },
        {
          "internalType": "contract IERC20Standard",
          "name": "stableCoin",
          "type": "address"
        },
        {
          "internalType": "bool",
          "name": "isFinalty",
          "type": "bool"
        },
        {
          "internalType": "bool",
          "name": "isFiat",
          "type": "bool"
        }
      ],
      "stateMutability": "view",
      "type": "function"
    },
    {
      "inputs": [
        {
          "internalType": "address",
          "name": "",
          "type": "address"
        }
      ],
      "name": "operators",
      "outputs": [
        {
          "internalType": "bool",
          "name": "",
          "type": "bool"
        }
      ],
      "stateMutability": "view",
      "type": "function"
    },
    {
      "inputs": [],
      "name": "remainingPool",
      "outputs": [
        {
          "internalType": "uint256",
          "name": "",
          "type": "uint256"
        }
      ],
      "stateMutability": "view",
      "type": "function"
    },
    {
      "inputs": [
        {
          "internalType": "uint256",
          "name": "_loanId",
          "type": "uint256"
        },
        {
          "internalType": "uint256",
          "name": "_amount",
          "type": "uint256"
        }
      ],
      "name": "repay",
      "outputs": [],
      "stateMutability": "nonpayable",
      "type": "function"
    },
    {
      "inputs": [],
      "name": "reserve",
      "outputs": [
        {
          "internalType": "uint128",
          "name": "liquidityIndex",
          "type": "uint128"
        },
        {
          "internalType": "uint128",
          "name": "currentLiquidityRate",
          "type": "uint128"
        },
        {
          "internalType": "uint128",
          "name": "variableBorrowIndex",
          "type": "uint128"
        },
        {
          "internalType": "uint128",
          "name": "currentVariableBorrowRate",
          "type": "uint128"
        },
        {
          "internalType": "uint40",
          "name": "lastUpdateTimestamp",
          "type": "uint40"
        },
        {
          "internalType": "uint16",
          "name": "id",
          "type": "uint16"
        },
        {
          "internalType": "address",
          "name": "interestRateStrategyAddress",
          "type": "address"
        }
      ],
      "stateMutability": "view",
      "type": "function"
    },
    {
      "inputs": [
        {
          "internalType": "address",
          "name": "_ccfl",
          "type": "address"
        }
      ],
      "name": "setCCFL",
      "outputs": [],
      "stateMutability": "nonpayable",
      "type": "function"
    },
    {
      "inputs": [
        {
          "internalType": "address[]",
          "name": "_addresses",
          "type": "address[]"
        },
        {
          "internalType": "bool[]",
          "name": "_isActives",
          "type": "bool[]"
        }
      ],
      "name": "setOperators",
      "outputs": [],
      "stateMutability": "nonpayable",
      "type": "function"
    },
    {
      "inputs": [
        {
          "internalType": "bool",
          "name": "_paused",
          "type": "bool"
        }
      ],
      "name": "setPaused",
      "outputs": [],
      "stateMutability": "nonpayable",
      "type": "function"
    },
    {
      "inputs": [
        {
          "internalType": "address",
          "name": "",
          "type": "address"
        }
      ],
      "name": "share",
      "outputs": [
        {
          "internalType": "uint256",
          "name": "",
          "type": "uint256"
        }
      ],
      "stateMutability": "view",
      "type": "function"
    },
    {
      "inputs": [],
      "name": "stableCoinAddress",
      "outputs": [
        {
          "internalType": "contract IERC20Standard",
          "name": "",
          "type": "address"
        }
      ],
      "stateMutability": "view",
      "type": "function"
    },
    {
      "inputs": [
        {
          "internalType": "uint256",
          "name": "_amount",
          "type": "uint256"
        }
      ],
      "name": "supply",
      "outputs": [],
      "stateMutability": "nonpayable",
      "type": "function"
    },
    {
      "inputs": [],
      "name": "totalDebt",
      "outputs": [
        {
          "internalType": "uint256",
          "name": "",
          "type": "uint256"
        }
      ],
      "stateMutability": "view",
      "type": "function"
    },
    {
      "inputs": [],
      "name": "totalLiquidity",
      "outputs": [
        {
          "internalType": "uint256",
          "name": "",
          "type": "uint256"
        }
      ],
      "stateMutability": "view",
      "type": "function"
    },
    {
      "inputs": [],
      "name": "totalSupply",
      "outputs": [
        {
          "internalType": "uint256",
          "name": "",
          "type": "uint256"
        }
      ],
      "stateMutability": "view",
      "type": "function"
    },
    {
      "inputs": [
        {
          "internalType": "uint256",
          "name": "_amount",
          "type": "uint256"
        }
      ],
      "name": "withdraw",
      "outputs": [],
      "stateMutability": "nonpayable",
      "type": "function"
    },
    {
      "inputs": [
        {
          "internalType": "contract IERC20Standard",
          "name": "_token",
          "type": "address"
        },
        {
          "internalType": "address",
          "name": "_receiver",
          "type": "address"
        }
      ],
      "name": "withdrawByAdmin",
      "outputs": [],
      "stateMutability": "nonpayable",
      "type": "function"
    },
    {
      "inputs": [
        {
          "internalType": "address",
          "name": "_receiver",
          "type": "address"
        },
        {
          "internalType": "uint256",
          "name": "_loanId",
          "type": "uint256"
        }
      ],
      "name": "withdrawLoan",
      "outputs": [],
      "stateMutability": "nonpayable",
      "type": "function"
    },
    {
      "stateMutability": "payable",
      "type": "receive"
    }
  ],
  "bytecode": "0x608060405234801561001057600080fd5b50612d77806100206000396000f3fe6080604052600436106101dc5760003560e01c80638ac1b77511610102578063cd3293de11610095578063ec7be39d11610064578063ec7be39d146106cc578063f4305035146106ec578063f7fb07b01461070c578063fc7b9c181461075957600080fd5b8063cd3293de146104f1578063d8aed145146105b7578063e1ec3c68146105d7578063e3691c51146106ac57600080fd5b8063a52f38d1116100d1578063a52f38d114610485578063b14d37c0146104a5578063b187bd26146104bb578063c4e41b22146104dc57600080fd5b80638ac1b77514610405578063929eea2114610425578063982aae46146104455780639b78dbfc1461046557600080fd5b80632e1a7d4d1161017a5780633b4675a7116101495780633b4675a71461036d578063485cc955146103a557806370a08231146103c55780637f394031146103e557600080fd5b80632e1a7d4d146102f857806335403023146103185780633870862b146103385780633b24cc211461035857600080fd5b806316c38b3c116101b657806316c38b3c1461026657806318160ddd146102885780631877bb5c1461029e5780631e0029c8146102cb57600080fd5b806303ec357f146101e857806313e7c9d81461021057806315770f921461025057600080fd5b366101e357005b600080fd5b3480156101f457600080fd5b506101fd61076f565b6040519081526020015b60405180910390f35b34801561021c57600080fd5b5061024061022b3660046127f1565b60006020819052908152604090205460ff1681565b6040519015158152602001610207565b34801561025c57600080fd5b506101fd600b5481565b34801561027257600080fd5b5061028661028136600461281c565b61085f565b005b34801561029457600080fd5b506101fd600a5481565b3480156102aa57600080fd5b506101fd6102b93660046127f1565b60086020526000908152604090205481565b3480156102d757600080fd5b506101fd6102e6366004612839565b60096020526000908152604090205481565b34801561030457600080fd5b50610286610313366004612839565b6108e6565b34801561032457600080fd5b50610286610333366004612839565b610baa565b34801561034457600080fd5b50610286610353366004612852565b610e34565b34801561036457600080fd5b50600d546101fd565b34801561037957600080fd5b5060045461038d906001600160a01b031681565b6040516001600160a01b039091168152602001610207565b3480156103b157600080fd5b506102866103c036600461289c565b6110e4565b3480156103d157600080fd5b506101fd6103e03660046127f1565b6112de565b3480156103f157600080fd5b506102866104003660046128d5565b6113a0565b34801561041157600080fd5b506102866104203660046127f1565b6114cf565b34801561043157600080fd5b5061038d610440366004612839565b61156a565b34801561045157600080fd5b5060015461038d906001600160a01b031681565b34801561047157600080fd5b50610286610480366004612839565b611594565b34801561049157600080fd5b506101fd6104a0366004612839565b61162d565b3480156104b157600080fd5b506101fd600d5481565b3480156104c757600080fd5b50600e5461024090600160a01b900460ff1681565b3480156104e857600080fd5b506101fd61172a565b3480156104fd57600080fd5b5060055460065460075461055c926001600160801b0380821693600160801b92839004821693828216939091049091169064ffffffffff81169065010000000000810461ffff169067010000000000000090046001600160a01b031687565b604080516001600160801b03988916815296881660208801529487169486019490945294909116606084015264ffffffffff16608083015261ffff90921660a08201526001600160a01b0390911660c082015260e001610207565b3480156105c357600080fd5b506102866105d23660046128d5565b611802565b3480156105e357600080fd5b506106596105f2366004612839565b600360208190526000918252604090912080546001820154600283015493830154600490930154919360ff918216939092818316926001600160a01b036101008404811693600160a81b9081900483169391821692600160a01b8304811692919091041689565b60408051998a5297151560208a01529688019590955292151560608701526001600160a01b039182166080870152151560a08601521660c0840152151560e0830152151561010082015261012001610207565b3480156106b857600080fd5b506102866106c736600461289c565b611cf6565b3480156106d857600080fd5b506102866106e73660046128f7565b611e53565b3480156106f857600080fd5b50610286610707366004612a06565b611fa6565b34801561071857600080fd5b50600654600554604080516001600160801b03600160801b808604821683528404811660208301529384169181019190915291166060820152608001610207565b34801561076557600080fd5b506101fd600c5481565b60008061077a612060565b905060006107908260c001518360e0015161215d565b6006549091506107aa9082906001600160801b0316612171565b60808301526001546040805163313ce56760e01b815290516b033b2e3c9fd0803ce8000000926001600160a01b03169163313ce5679160048083019260209291908290030181865afa158015610804573d6000803e3d6000fd5b505050506040513d601f19601f820116820180604052508101906108289190612ac8565b61083390600a612be5565b6080840151600c5461084491612171565b61084e9190612bf4565b6108589190612c21565b9250505090565b600e546040805180820190915260018152601960f91b6020820152906001600160a01b031633146108ac5760405162461bcd60e51b81526004016108a39190612c43565b60405180910390fd5b50600e8054911515600160a01b027fffffffffffffffffffffff00ffffffffffffffffffffffffffffffffffffffff909216919091179055565b600e54604080518082019091526002815261323160f01b602082015290600160a01b900460ff161561092b5760405162461bcd60e51b81526004016108a39190612c43565b506000610936612060565b9050610941816121b5565b6001546040805163313ce56760e01b815290516000926001600160a01b03169163313ce5679160048083019260209291908290030181865afa15801561098b573d6000803e3d6000fd5b505050506040513d601f19601f820116820180604052508101906109af9190612ac8565b6109ba90600a612be5565b6109d06b033b2e3c9fd0803ce800000085612bf4565b6109da9190612c21565b90506109e76000826121ee565b600554600090610a019083906001600160801b0316612376565b3360009081526008602052604081205491925090610a20908390612c92565b905081600a6000828254610a349190612c92565b9250508190555081600b6000828254610a4d9190612c92565b909155505060408051808201909152600181527f3800000000000000000000000000000000000000000000000000000000000000602082015250336000908152600860205260408120829055600d8054879290610aab908490612c92565b909155505060015460405163a9059cbb60e01b8152336004820152602481018790526001600160a01b039091169063a9059cbb906044016020604051808303816000875af1158015610b01573d6000803e3d6000fd5b505050506040513d601f19601f82011682018060405250810190610b259190612ca5565b506001543360008181526008602090815260409182902054600a54600b54600d5485518d81529485019390935293830152606082019290925260808101919091526001600160a01b03909216913091907f173401e3c9626102fe861ca7ddb4665d741deebad547125c24038cafa9345db29060a0015b60405180910390a45050505050565b600e54604080518082019091526002815261323160f01b602082015290600160a01b900460ff1615610bef5760405162461bcd60e51b81526004016108a39190612c43565b506000610bfa612060565b9050610c05816121b5565b6001546040805163313ce56760e01b815290516000926001600160a01b03169163313ce5679160048083019260209291908290030181865afa158015610c4f573d6000803e3d6000fd5b505050506040513d601f19601f82011682018060405250810190610c739190612ac8565b610c7e90600a612be5565b610c946b033b2e3c9fd0803ce800000085612bf4565b610c9e9190612c21565b9050610cab8160006121ee565b600554600090610cc59083906001600160801b0316612376565b3360009081526008602052604081205491925090610ce4908390612cc2565b905081600a6000828254610cf89190612cc2565b9250508190555081600b6000828254610d119190612cc2565b9091555050336000908152600860205260408120829055600d8054879290610d3a908490612cc2565b90915550506001546040516323b872dd60e01b8152336004820152306024820152604481018790526001600160a01b03909116906323b872dd906064016020604051808303816000875af1158015610d96573d6000803e3d6000fd5b505050506040513d601f19601f82011682018060405250810190610dba9190612ca5565b506001543360008181526008602090815260409182902054600a54600b54600d5485518d81529485019390935293830152606082019290925260808101919091526001600160a01b03909216913091907fac71e4358c08cef1a5335ac1c1d79f8eea0a3bd10f01a4259308137ebc63d76a9060a001610b9b565b600454604080518082019091526002815261313360f01b6020820152906001600160a01b03163314610e795760405162461bcd60e51b81526004016108a39190612c43565b50600e54604080518082019091526002815261323160f01b602082015290600160a01b900460ff1615610ebf5760405162461bcd60e51b81526004016108a39190612c43565b506000610eca612060565b9050610ed5816121b5565b6001546040805163313ce56760e01b815290516000926001600160a01b03169163313ce5679160048083019260209291908290030181865afa158015610f1f573d6000803e3d6000fd5b505050506040513d601f19601f82011682018060405250810190610f439190612ac8565b610f4e90600a612be5565b610f646b033b2e3c9fd0803ce800000087612bf4565b610f6e9190612c21565b90506000610f8983608001518361237690919063ffffffff16565b60008881526009602052604081205491925090610fa7908390612cc2565b905081600c6000828254610fbb9190612cc2565b9091555050600d5460408051808201909152600281527f31350000000000000000000000000000000000000000000000000000000000006020820152908811156110185760405162461bcd60e51b81526004016108a39190612c43565b506000888152600360208181526040808420600990925283208490558a8155600281018a905590810180547fffffffffffffffffffffff0000000000000000000000000000000000000000ff166101006001600160a01b038b160217905560048101805460ff60a81b1916600160a81b891515021790559061109a90856121ee565b60408501516110aa908590612376565b600b60008282546110bb9190612c92565b9250508190555087600d60008282546110d49190612c92565b9091555050505050505050505050565b7ff0c57e16840df040f15088dc2f81fe391c3923bec73e23a9662efc9c229c6a00805468010000000000000000810460ff16159067ffffffffffffffff1660008115801561112f5750825b905060008267ffffffffffffffff16600114801561114c5750303b155b90508115801561115a575080155b15611191576040517ff92ee8a900000000000000000000000000000000000000000000000000000000815260040160405180910390fd5b845467ffffffffffffffff1916600117855583156111c557845468ff00000000000000001916680100000000000000001785555b600180546001600160a01b03808a1673ffffffffffffffffffffffffffffffffffffffff1992831617835560078054918a16670100000000000000027fffffffffff0000000000000000000000000000000000000000ffffffffffffff909216919091179055600580546fffffffffffffffffffffffffffffffff199081166b033b2e3c9fd0803ce8000000908117909255600680549091169091179055600e8054909116339081179091556000908152602081905260409020805460ff1916909117905583156112d557845468ff000000000000000019168555604051600181527fc7f505b2f371ae2175ee4913f4499e1f2633a7b5936321eed1cdaeb6115181d29060200160405180910390a15b50505050505050565b6001546040805163313ce56760e01b815290516000926001600160a01b03169163313ce5679160048083019260209291908290030181865afa158015611328573d6000803e3d6000fd5b505050506040513d601f19601f8201168201806040525081019061134c9190612ac8565b61135790601b612cd5565b61136290600a612be5565b6005546001600160a01b038416600090815260086020526040902054611390916001600160801b0316612171565b61139a9190612c21565b92915050565b600454604080518082019091526002815261313360f01b6020820152906001600160a01b031633146113e55760405162461bcd60e51b81526004016108a39190612c43565b50600e54604080518082019091526002815261323160f01b602082015290600160a01b900460ff161561142b5760405162461bcd60e51b81526004016108a39190612c43565b50600082815260036020818152604092839020909101548251808401909352600283527f313700000000000000000000000000000000000000000000000000000000000091830191909152600160a81b900460ff161561149e5760405162461bcd60e51b81526004016108a39190612c43565b506114a981336123b5565b50600090815260036020819052604090912001805460ff60a81b1916600160a81b179055565b3360009081526020818152604091829020548251808401909352600283527f31380000000000000000000000000000000000000000000000000000000000009183019190915260ff16151560011461153a5760405162461bcd60e51b81526004016108a39190612c43565b506004805473ffffffffffffffffffffffffffffffffffffffff19166001600160a01b0392909216919091179055565b6002818154811061157a57600080fd5b6000918252602090912001546001600160a01b0316905081565b600454604080518082019091526002815261313360f01b6020820152906001600160a01b031633146115d95760405162461bcd60e51b81526004016108a39190612c43565b50600e54604080518082019091526002815261323160f01b602082015290600160a01b900460ff161561161f5760405162461bcd60e51b81526004016108a39190612c43565b5061162a81336123b5565b50565b600080611638612060565b9050600061164e8260c001518360e0015161215d565b6006549091506116689082906001600160801b0316612171565b60808301526001546040805163313ce56760e01b815290516b033b2e3c9fd0803ce8000000926001600160a01b03169163313ce5679160048083019260209291908290030181865afa1580156116c2573d6000803e3d6000fd5b505050506040513d601f19601f820116820180604052508101906116e69190612ac8565b6116f190600a612be5565b608084015160008781526009602052604090205461170e91612171565b6117189190612bf4565b6117229190612c21565b949350505050565b600080611735612060565b9050600061174b8260a001518360e0015161253f565b905061176482604001518261217190919063ffffffff16565b604080840191909152600154815163313ce56760e01b815291516b033b2e3c9fd0803ce8000000926001600160a01b039092169163313ce5679160048083019260209291908290030181865afa1580156117c2573d6000803e3d6000fd5b505050506040513d601f19601f820116820180604052508101906117e69190612ac8565b6117f190600a612be5565b6040840151600a5461084491612171565b600454604080518082019091526002815261313360f01b6020820152906001600160a01b031633146118475760405162461bcd60e51b81526004016108a39190612c43565b50600e54604080518082019091526002815261323160f01b602082015290600160a01b900460ff161561188d5760405162461bcd60e51b81526004016108a39190612c43565b50600082815260036020818152604092839020909101548251808401909352600283527f31360000000000000000000000000000000000000000000000000000000000009183019190915260ff16156118f95760405162461bcd60e51b81526004016108a39190612c43565b506000611904612060565b905061190f816121b5565b6001546040805163313ce56760e01b815290516000926001600160a01b03169163313ce5679160048083019260209291908290030181865afa158015611959573d6000803e3d6000fd5b505050506040513d601f19601f8201168201806040525081019061197d9190612ac8565b61198890600a612be5565b61199e6b033b2e3c9fd0803ce800000085612bf4565b6119a89190612c21565b6006549091506000906119c59083906001600160801b0316612376565b6000868152600960205260409020549091508110611bdd57600085815260096020526040812054600c8054919290916119ff908490612c92565b90915550506006546000868152600960205260408120549091611a2b91906001600160801b0316612171565b6001546040805163313ce56760e01b815290519293506000926b033b2e3c9fd0803ce8000000926001600160a01b03169163313ce5679160048083019260209291908290030181865afa158015611a86573d6000803e3d6000fd5b505050506040513d601f19601f82011682018060405250810190611aaa9190612ac8565b611ab590600a612be5565b611abf9084612bf4565b611ac99190612c21565b6000888152600960205260408120819055909150611ae89083906121ee565b604080860151600089815260096020529190912054611b0691612376565b600b6000828254611b179190612cc2565b9250508190555080600d6000828254611b309190612cc2565b9091555050600154600480546040516323b872dd60e01b81526001600160a01b039182169281019290925230602483015260448201849052909116906323b872dd906064016020604051808303816000875af1158015611b94573d6000803e3d6000fd5b505050506040513d601f19601f82011682018060405250810190611bb89190612ca5565b505050600085815260036020819052604090912001805460ff19166001179055611cef565b600085815260096020526040812054611bf7908390612c92565b905081600c6000828254611c0b9190612c92565b90915550506000868152600960205260408120829055611c2c9084906121ee565b6040840151611c3c908490612376565b600b6000828254611c4d9190612cc2565b9250508190555084600d6000828254611c669190612cc2565b9091555050600154600480546040516323b872dd60e01b81526001600160a01b039182169281019290925230602483015260448201889052909116906323b872dd906064015b6020604051808303816000875af1158015611ccb573d6000803e3d6000fd5b505050506040513d601f19601f820116820180604052508101906112d59190612ca5565b5050505050565b600e546040805180820190915260018152601960f91b6020820152906001600160a01b03163314611d3a5760405162461bcd60e51b81526004016108a39190612c43565b506040517f70a082310000000000000000000000000000000000000000000000000000000081523060048201526001600160a01b0383169063a9059cbb90839083906370a0823190602401602060405180830381865afa158015611da2573d6000803e3d6000fd5b505050506040513d601f19601f82011682018060405250810190611dc69190612cee565b6040517fffffffff0000000000000000000000000000000000000000000000000000000060e085901b1681526001600160a01b03909216600483015260248201526044015b6020604051808303816000875af1158015611e2a573d6000803e3d6000fd5b505050506040513d601f19601f82011682018060405250810190611e4e9190612ca5565b505050565b600454604080518082019091526002815261313360f01b6020820152906001600160a01b03163314611e985760405162461bcd60e51b81526004016108a39190612c43565b50600e54604080518082019091526002815261323160f01b602082015290600160a01b900460ff1615611ede5760405162461bcd60e51b81526004016108a39190612c43565b50600081815260036020908152604091829020600101548251808401909352600283527f31340000000000000000000000000000000000000000000000000000000000009183019190915260ff1615611f4a5760405162461bcd60e51b81526004016108a39190612c43565b50600081815260036020526040908190206001808201805460ff19168217905554600290910154915163a9059cbb60e01b81526001600160a01b038581166004830152602482019390935291169063a9059cbb90604401611e0b565b600e546040805180820190915260018152601960f91b6020820152906001600160a01b03163314611fea5760405162461bcd60e51b81526004016108a39190612c43565b5060005b8251811015611e4e5781818151811061200957612009612d07565b602002602001015160008085848151811061202657612026612d07565b6020908102919091018101516001600160a01b03168252810191909152604001600020805460ff1916911515919091179055600101611fee565b6120af60405180610100016040528060008152602001600081526020016000815260200160008152602001600081526020016000815260200160008152602001600064ffffffffff1681525090565b6120fe60405180610100016040528060008152602001600081526020016000815260200160008152602001600081526020016000815260200160008152602001600064ffffffffff1681525090565b6005546001600160801b03808216604084018190526020840152600654808216608085018190526060850152600160801b92839004821660a0850152919091041660c082015260075464ffffffffff1660e0820152600c548152919050565b600061216a83834261257c565b9392505050565b600081156b019d971e4fe8401e74000000198390048411151761219357600080fd5b506b033b2e3c9fd0803ce800000091026b019d971e4fe8401e74000000010490565b60075464ffffffffff4281169116036121cb5750565b6121d4816126a8565b506007805464ffffffffff19164264ffffffffff16179055565b61221260405180606001604052806000815260200160008152602001600081525090565b6007546040805160808101825285815260208101859052600654600c546701000000000000009094046001600160a01b0316936356eaf2649383019161226191906001600160801b0316612171565b8152600554600b54602090920191612281916001600160801b0316612171565b9052604080517fffffffff0000000000000000000000000000000000000000000000000000000060e085901b168152825160048201526020830151602482015290820151604482015260609091015160648201526084016040805180830381865afa1580156122f4573d6000803e3d6000fd5b505050506040513d601f19601f820116820180604052508101906123189190612d1d565b60208301528082526123299061278b565b600580546001600160801b03928316600160801b02921691909117905560208101516123549061278b565b600680546001600160801b03928316600160801b029216919091179055505050565b600081156b033b2e3c9fd0803ce80000006002840419048411171561239a57600080fd5b506b033b2e3c9fd0803ce80000009190910260028204010490565b811561253b5760006123c5612060565b90506123d0816121b5565b6001546040805163313ce56760e01b815290516000926001600160a01b03169163313ce5679160048083019260209291908290030181865afa15801561241a573d6000803e3d6000fd5b505050506040513d601f19601f8201168201806040525081019061243e9190612ac8565b61244990600a612be5565b61245f6b033b2e3c9fd0803ce800000086612bf4565b6124699190612c21565b905060006124868360400151600b5461217190919063ffffffff16565b905060006124ae826124a8866040015186866124a29190612cc2565b90612171565b90612376565b90506124b98161278b565b600580546fffffffffffffffffffffffffffffffff19166001600160801b0392909216919091179055600d80548791906000906124f7908490612cc2565b90915550506001546040516323b872dd60e01b81526001600160a01b03878116600483015230602483015260448201899052909116906323b872dd90606401611cac565b5050565b60008061255364ffffffffff841642612c92565b61255d9085612bf4565b6301e1338090049050611722816b033b2e3c9fd0803ce8000000612cc2565b60008061259064ffffffffff851684612c92565b9050806000036125af576b033b2e3c9fd0803ce800000091505061216a565b600019810160008080600285116125c75760006125cc565b600285035b925066038882915c40006125e08a80612171565b816125ed576125ed612c0b565b0491506301e133806125ff838b612171565b8161260c5761260c612c0b565b04905060008261261c8688612bf4565b6126269190612bf4565b6002900490506000828561263a888a612bf4565b6126449190612bf4565b61264e9190612bf4565b60069004905080826301e133806126658a8f612bf4565b61266f9190612c21565b612685906b033b2e3c9fd0803ce8000000612cc2565b61268f9190612cc2565b6126999190612cc2565b9b9a5050505050505050505050565b60a08101511561271a5760006126c68260a001518360e0015161253f565b90506126df82602001518261217190919063ffffffff16565b604083018190526126ef9061278b565b600580546fffffffffffffffffffffffffffffffff19166001600160801b0392909216919091179055505b80511561162a5760006127358260c001518360e0015161215d565b905061274e82606001518261217190919063ffffffff16565b6080830181905261275e9061278b565b600680546fffffffffffffffffffffffffffffffff19166001600160801b03929092169190911790555050565b60006001600160801b038211156127d8576040517f6dfcc65000000000000000000000000000000000000000000000000000000000815260806004820152602481018390526044016108a3565b5090565b6001600160a01b038116811461162a57600080fd5b60006020828403121561280357600080fd5b813561216a816127dc565b801515811461162a57600080fd5b60006020828403121561282e57600080fd5b813561216a8161280e565b60006020828403121561284b57600080fd5b5035919050565b6000806000806080858703121561286857600080fd5b84359350602085013592506040850135612881816127dc565b915060608501356128918161280e565b939692955090935050565b600080604083850312156128af57600080fd5b82356128ba816127dc565b915060208301356128ca816127dc565b809150509250929050565b600080604083850312156128e857600080fd5b50508035926020909101359150565b6000806040838503121561290a57600080fd5b8235612915816127dc565b946020939093013593505050565b634e487b7160e01b600052604160045260246000fd5b604051601f8201601f1916810167ffffffffffffffff8111828210171561296257612962612923565b604052919050565b600067ffffffffffffffff82111561298457612984612923565b5060051b60200190565b600082601f83011261299f57600080fd5b813560206129b46129af8361296a565b612939565b8083825260208201915060208460051b8701019350868411156129d657600080fd5b602086015b848110156129fb5780356129ee8161280e565b83529183019183016129db565b509695505050505050565b60008060408385031215612a1957600080fd5b823567ffffffffffffffff80821115612a3157600080fd5b818501915085601f830112612a4557600080fd5b81356020612a556129af8361296a565b82815260059290921b84018101918181019089841115612a7457600080fd5b948201945b83861015612a9b578535612a8c816127dc565b82529482019490820190612a79565b96505086013592505080821115612ab157600080fd5b50612abe8582860161298e565b9150509250929050565b600060208284031215612ada57600080fd5b815160ff8116811461216a57600080fd5b634e487b7160e01b600052601160045260246000fd5b600181815b80851115612b3c578160001904821115612b2257612b22612aeb565b80851615612b2f57918102915b93841c9390800290612b06565b509250929050565b600082612b535750600161139a565b81612b605750600061139a565b8160018114612b765760028114612b8057612b9c565b600191505061139a565b60ff841115612b9157612b91612aeb565b50506001821b61139a565b5060208310610133831016604e8410600b8410161715612bbf575081810a61139a565b612bc98383612b01565b8060001904821115612bdd57612bdd612aeb565b029392505050565b600061216a60ff841683612b44565b808202811582820484141761139a5761139a612aeb565b634e487b7160e01b600052601260045260246000fd5b600082612c3e57634e487b7160e01b600052601260045260246000fd5b500490565b60006020808352835180602085015260005b81811015612c7157858101830151858201604001528201612c55565b506000604082860101526040601f19601f8301168501019250505092915050565b8181038181111561139a5761139a612aeb565b600060208284031215612cb757600080fd5b815161216a8161280e565b8082018082111561139a5761139a612aeb565b60ff828116828216039081111561139a5761139a612aeb565b600060208284031215612d0057600080fd5b5051919050565b634e487b7160e01b600052603260045260246000fd5b60008060408385031215612d3057600080fd5b50508051602090910151909290915056fea2646970667358221220490ae8ea79467b464f97cb90c793f9fa5127061b5ccc0df12a78b4cf278c01f764736f6c63430008180033",
  "linkReferences": {},
  "deployedLinkReferences": {}
}