{
  "_format": "hh-sol-artifact-1",
  "contractName": "CCFLPool",
  "sourceName": "contracts/CCFLPool.sol",
  "abi": [
    {
      "inputs": [],
      "name": "InvalidInitialization",
      "type": "error"
    },
    {
      "inputs": [],
      "name": "NotInitializing",
      "type": "error"
    },
    {
      "inputs": [
        {
          "internalType": "uint8",
          "name": "bits",
          "type": "uint8"
        },
        {
          "internalType": "uint256",
          "name": "value",
          "type": "uint256"
        }
      ],
      "name": "SafeCastOverflowedUintDowncast",
      "type": "error"
    },
    {
      "anonymous": false,
      "inputs": [
        {
          "indexed": false,
          "internalType": "uint256",
          "name": "loanId",
          "type": "uint256"
        },
        {
          "indexed": false,
          "internalType": "uint256",
          "name": "amount",
          "type": "uint256"
        },
        {
          "indexed": false,
          "internalType": "address",
          "name": "borrower",
          "type": "address"
        },
        {
          "indexed": false,
          "internalType": "uint256",
          "name": "when",
          "type": "uint256"
        }
      ],
      "name": "CloseLoan",
      "type": "event"
    },
    {
      "anonymous": false,
      "inputs": [
        {
          "indexed": false,
          "internalType": "address",
          "name": "user",
          "type": "address"
        },
        {
          "indexed": false,
          "internalType": "uint256",
          "name": "amount",
          "type": "uint256"
        },
        {
          "indexed": false,
          "internalType": "uint256",
          "name": "when",
          "type": "uint256"
        }
      ],
      "name": "Deposit",
      "type": "event"
    },
    {
      "anonymous": false,
      "inputs": [
        {
          "indexed": false,
          "internalType": "uint64",
          "name": "version",
          "type": "uint64"
        }
      ],
      "name": "Initialized",
      "type": "event"
    },
    {
      "anonymous": false,
      "inputs": [
        {
          "indexed": false,
          "internalType": "address",
          "name": "user",
          "type": "address"
        },
        {
          "indexed": false,
          "internalType": "uint256",
          "name": "amount",
          "type": "uint256"
        },
        {
          "indexed": false,
          "internalType": "uint256",
          "name": "when",
          "type": "uint256"
        }
      ],
      "name": "Withdraw",
      "type": "event"
    },
    {
      "anonymous": false,
      "inputs": [
        {
          "indexed": false,
          "internalType": "address",
          "name": "user",
          "type": "address"
        },
        {
          "indexed": false,
          "internalType": "uint256",
          "name": "amount",
          "type": "uint256"
        },
        {
          "indexed": false,
          "internalType": "uint256",
          "name": "when",
          "type": "uint256"
        }
      ],
      "name": "WithdrawLoan",
      "type": "event"
    },
    {
      "inputs": [],
      "name": "CCFL",
      "outputs": [
        {
          "internalType": "address",
          "name": "",
          "type": "address"
        }
      ],
      "stateMutability": "view",
      "type": "function"
    },
    {
      "inputs": [
        {
          "internalType": "address",
          "name": "_user",
          "type": "address"
        }
      ],
      "name": "balance",
      "outputs": [
        {
          "internalType": "uint256",
          "name": "",
          "type": "uint256"
        }
      ],
      "stateMutability": "view",
      "type": "function"
    },
    {
      "inputs": [
        {
          "internalType": "uint256",
          "name": "_loanId",
          "type": "uint256"
        },
        {
          "internalType": "uint256",
          "name": "_amount",
          "type": "uint256"
        },
        {
          "internalType": "address",
          "name": "_borrower",
          "type": "address"
        }
      ],
      "name": "borrow",
      "outputs": [],
      "stateMutability": "nonpayable",
      "type": "function"
    },
    {
      "inputs": [
        {
          "internalType": "uint256",
          "name": "",
          "type": "uint256"
        }
      ],
      "name": "debt",
      "outputs": [
        {
          "internalType": "uint256",
          "name": "",
          "type": "uint256"
        }
      ],
      "stateMutability": "view",
      "type": "function"
    },
    {
      "inputs": [
        {
          "internalType": "uint256",
          "name": "_loanId",
          "type": "uint256"
        }
      ],
      "name": "getCurrentLoan",
      "outputs": [
        {
          "internalType": "uint256",
          "name": "",
          "type": "uint256"
        }
      ],
      "stateMutability": "view",
      "type": "function"
    },
    {
      "inputs": [],
      "name": "getCurrentRate",
      "outputs": [
        {
          "internalType": "uint256",
          "name": "",
          "type": "uint256"
        },
        {
          "internalType": "uint256",
          "name": "",
          "type": "uint256"
        },
        {
          "internalType": "uint256",
          "name": "",
          "type": "uint256"
        },
        {
          "internalType": "uint256",
          "name": "",
          "type": "uint256"
        }
      ],
      "stateMutability": "view",
      "type": "function"
    },
    {
      "inputs": [],
      "name": "getDebtPool",
      "outputs": [
        {
          "internalType": "uint256",
          "name": "amount",
          "type": "uint256"
        }
      ],
      "stateMutability": "view",
      "type": "function"
    },
    {
      "inputs": [],
      "name": "getRemainingPool",
      "outputs": [
        {
          "internalType": "uint256",
          "name": "amount",
          "type": "uint256"
        }
      ],
      "stateMutability": "view",
      "type": "function"
    },
    {
      "inputs": [],
      "name": "getTotalSupply",
      "outputs": [
        {
          "internalType": "uint256",
          "name": "",
          "type": "uint256"
        }
      ],
      "stateMutability": "view",
      "type": "function"
    },
    {
      "inputs": [
        {
          "internalType": "contract IERC20Standard",
          "name": "_stableCoinAddress",
          "type": "address"
        },
        {
          "internalType": "address",
          "name": "interestRateStrategyAddress",
          "type": "address"
        }
      ],
      "name": "initialize",
      "outputs": [],
      "stateMutability": "nonpayable",
      "type": "function"
    },
    {
      "inputs": [
        {
          "internalType": "uint256",
          "name": "",
          "type": "uint256"
        }
      ],
      "name": "lenders",
      "outputs": [
        {
          "internalType": "address",
          "name": "",
          "type": "address"
        }
      ],
      "stateMutability": "view",
      "type": "function"
    },
    {
      "inputs": [
        {
          "internalType": "uint256",
          "name": "_loanId",
          "type": "uint256"
        },
        {
          "internalType": "uint256",
          "name": "_amount",
          "type": "uint256"
        }
      ],
      "name": "liquidatePenalty",
      "outputs": [],
      "stateMutability": "nonpayable",
      "type": "function"
    },
    {
      "inputs": [
        {
          "internalType": "uint256",
          "name": "",
          "type": "uint256"
        }
      ],
      "name": "loans",
      "outputs": [
        {
          "internalType": "uint256",
          "name": "loanId",
          "type": "uint256"
        },
        {
          "internalType": "bool",
          "name": "isPaid",
          "type": "bool"
        },
        {
          "internalType": "uint256",
          "name": "amount",
          "type": "uint256"
        },
        {
          "internalType": "bool",
          "name": "isClosed",
          "type": "bool"
        },
        {
          "internalType": "address",
          "name": "borrower",
          "type": "address"
        },
        {
          "internalType": "bool",
          "name": "isLiquidated",
          "type": "bool"
        }
      ],
      "stateMutability": "view",
      "type": "function"
    },
    {
      "inputs": [],
      "name": "remainingPool",
      "outputs": [
        {
          "internalType": "uint256",
          "name": "",
          "type": "uint256"
        }
      ],
      "stateMutability": "view",
      "type": "function"
    },
    {
      "inputs": [
        {
          "internalType": "uint256",
          "name": "_loanId",
          "type": "uint256"
        },
        {
          "internalType": "uint256",
          "name": "_amount",
          "type": "uint256"
        }
      ],
      "name": "repay",
      "outputs": [],
      "stateMutability": "nonpayable",
      "type": "function"
    },
    {
      "inputs": [],
      "name": "reserve",
      "outputs": [
        {
          "internalType": "uint128",
          "name": "liquidityIndex",
          "type": "uint128"
        },
        {
          "internalType": "uint128",
          "name": "currentLiquidityRate",
          "type": "uint128"
        },
        {
          "internalType": "uint128",
          "name": "variableBorrowIndex",
          "type": "uint128"
        },
        {
          "internalType": "uint128",
          "name": "currentVariableBorrowRate",
          "type": "uint128"
        },
        {
          "internalType": "uint40",
          "name": "lastUpdateTimestamp",
          "type": "uint40"
        },
        {
          "internalType": "uint16",
          "name": "id",
          "type": "uint16"
        },
        {
          "internalType": "address",
          "name": "interestRateStrategyAddress",
          "type": "address"
        }
      ],
      "stateMutability": "view",
      "type": "function"
    },
    {
      "inputs": [
        {
          "internalType": "address",
          "name": "_ccfl",
          "type": "address"
        }
      ],
      "name": "setCCFL",
      "outputs": [],
      "stateMutability": "nonpayable",
      "type": "function"
    },
    {
      "inputs": [
        {
          "internalType": "address",
          "name": "",
          "type": "address"
        }
      ],
      "name": "share",
      "outputs": [
        {
          "internalType": "uint256",
          "name": "",
          "type": "uint256"
        }
      ],
      "stateMutability": "view",
      "type": "function"
    },
    {
      "inputs": [],
      "name": "stableCoinAddress",
      "outputs": [
        {
          "internalType": "contract IERC20Standard",
          "name": "",
          "type": "address"
        }
      ],
      "stateMutability": "view",
      "type": "function"
    },
    {
      "inputs": [
        {
          "internalType": "uint256",
          "name": "_amount",
          "type": "uint256"
        }
      ],
      "name": "supply",
      "outputs": [],
      "stateMutability": "nonpayable",
      "type": "function"
    },
    {
      "inputs": [],
      "name": "totalDebt",
      "outputs": [
        {
          "internalType": "uint256",
          "name": "",
          "type": "uint256"
        }
      ],
      "stateMutability": "view",
      "type": "function"
    },
    {
      "inputs": [],
      "name": "totalLiquidity",
      "outputs": [
        {
          "internalType": "uint256",
          "name": "",
          "type": "uint256"
        }
      ],
      "stateMutability": "view",
      "type": "function"
    },
    {
      "inputs": [],
      "name": "totalSupply",
      "outputs": [
        {
          "internalType": "uint256",
          "name": "",
          "type": "uint256"
        }
      ],
      "stateMutability": "view",
      "type": "function"
    },
    {
      "inputs": [
        {
          "internalType": "uint256",
          "name": "_amount",
          "type": "uint256"
        }
      ],
      "name": "withdraw",
      "outputs": [],
      "stateMutability": "nonpayable",
      "type": "function"
    },
    {
      "inputs": [
        {
          "internalType": "address",
          "name": "_receiver",
          "type": "address"
        },
        {
          "internalType": "uint256",
          "name": "_loanId",
          "type": "uint256"
        }
      ],
      "name": "withdrawLoan",
      "outputs": [],
      "stateMutability": "nonpayable",
      "type": "function"
    },
    {
      "stateMutability": "payable",
      "type": "receive"
    }
  ],
  "bytecode": "0x608060405234801561001057600080fd5b506123cd806100206000396000f3fe60806040526004361061019a5760003560e01c8063929eea21116100e1578063d6bda0c01161008a578063e3d670d711610064578063e3d670d714610572578063ec7be39d14610592578063f7fb07b0146105b2578063fc7b9c18146105ff57600080fd5b8063d6bda0c014610494578063d8aed145146104b4578063e1ec3c68146104d457600080fd5b8063b14d37c0116100bb578063b14d37c0146103a3578063c4e41b22146103b9578063cd3293de146103ce57600080fd5b8063929eea2114610343578063982aae4614610363578063a52f38d11461038357600080fd5b80633540302311610143578063485cc9551161011d578063485cc955146102e35780637f394031146103035780638ac1b7751461032357600080fd5b806335403023146102765780633b24cc21146102965780633b4675a7146102ab57600080fd5b80631877bb5c116101745780631877bb5c146101fa5780631e0029c8146102275780632e1a7d4d1461025457600080fd5b806303ec357f146101a657806315770f92146101ce57806318160ddd146101e457600080fd5b366101a157005b600080fd5b3480156101b257600080fd5b506101bb610615565b6040519081526020015b60405180910390f35b3480156101da57600080fd5b506101bb600a5481565b3480156101f057600080fd5b506101bb60095481565b34801561020657600080fd5b506101bb6102153660046120ba565b60076020526000908152604090205481565b34801561023357600080fd5b506101bb6102423660046120d7565b60086020526000908152604090205481565b34801561026057600080fd5b5061027461026f3660046120d7565b610705565b005b34801561028257600080fd5b506102746102913660046120d7565b6108eb565b3480156102a257600080fd5b50600c546101bb565b3480156102b757600080fd5b506003546102cb906001600160a01b031681565b6040516001600160a01b0390911681526020016101c5565b3480156102ef57600080fd5b506102746102fe3660046120f0565b610a81565b34801561030f57600080fd5b5061027461031e366004612129565b610c61565b34801561032f57600080fd5b5061027461033e3660046120ba565b610f1f565b34801561034f57600080fd5b506102cb61035e3660046120d7565b610fa8565b34801561036f57600080fd5b506000546102cb906001600160a01b031681565b34801561038f57600080fd5b506101bb61039e3660046120d7565b610fd2565b3480156103af57600080fd5b506101bb600c5481565b3480156103c557600080fd5b506101bb6110cf565b3480156103da57600080fd5b50600454600554600654610439926001600160801b0380821693600160801b92839004821693828216939091049091169064ffffffffff81169065010000000000810461ffff169067010000000000000090046001600160a01b031687565b604080516001600160801b03988916815296881660208801529487169486019490945294909116606084015264ffffffffff16608083015261ffff90921660a08201526001600160a01b0390911660c082015260e0016101c5565b3480156104a057600080fd5b506102746104af36600461214b565b6111a7565b3480156104c057600080fd5b506102746104cf366004612129565b6113fe565b3480156104e057600080fd5b506105386104ef3660046120d7565b60026020819052600091825260409091208054600182015492820154600390920154909260ff9081169291808216916001600160a01b0361010083041691600160a81b90041686565b60408051968752941515602087015293850192909252151560608401526001600160a01b03166080830152151560a082015260c0016101c5565b34801561057e57600080fd5b506101bb61058d3660046120ba565b6118ad565b34801561059e57600080fd5b506102746105ad366004612184565b6118ec565b3480156105be57600080fd5b50600554600454604080516001600160801b03600160801b8086048216835284048116602083015293841691810191909152911660608201526080016101c5565b34801561060b57600080fd5b506101bb600b5481565b600080610620611a8f565b905060006106368260c001518360e00151611b8c565b6005549091506106509082906001600160801b0316611ba0565b60808301526000546040805163313ce56760e01b815290516b033b2e3c9fd0803ce8000000926001600160a01b03169163313ce5679160048083019260209291908290030181865afa1580156106aa573d6000803e3d6000fd5b505050506040513d601f19601f820116820180604052508101906106ce91906121b0565b6106d990600a6122cd565b6080840151600b546106ea91611ba0565b6106f491906122dc565b6106fe9190612309565b9250505090565b600061070f611a8f565b905061071a81611be4565b60008060009054906101000a90046001600160a01b03166001600160a01b031663313ce5676040518163ffffffff1660e01b8152600401602060405180830381865afa15801561076e573d6000803e3d6000fd5b505050506040513d601f19601f8201168201806040525081019061079291906121b0565b61079d90600a6122cd565b6107b36b033b2e3c9fd0803ce8000000856122dc565b6107bd9190612309565b90506107ca600082611c1d565b6004546000906107e49083906001600160801b0316611da5565b336000908152600760205260408120549192509061080390839061232b565b90508160096000828254610817919061232b565b9250508190555081600a6000828254610830919061232b565b909155506108449050565b60405180910390fd5b336000908152600760205260408120829055600c805487929061086890849061232b565b909155505060005460405163a9059cbb60e01b8152336004820152602481018790526001600160a01b039091169063a9059cbb906044015b6020604051808303816000875af11580156108bf573d6000803e3d6000fd5b505050506040513d601f19601f820116820180604052508101906108e3919061233e565b505050505050565b60006108f5611a8f565b905061090081611be4565b60008060009054906101000a90046001600160a01b03166001600160a01b031663313ce5676040518163ffffffff1660e01b8152600401602060405180830381865afa158015610954573d6000803e3d6000fd5b505050506040513d601f19601f8201168201806040525081019061097891906121b0565b61098390600a6122cd565b6109996b033b2e3c9fd0803ce8000000856122dc565b6109a39190612309565b90506109b0816000611c1d565b6004546000906109ca9083906001600160801b0316611da5565b33600090815260076020526040812054919250906109e9908390612360565b905081600960008282546109fd9190612360565b9250508190555081600a6000828254610a169190612360565b9091555050336000908152600760205260408120829055600c8054879290610a3f908490612360565b90915550506000546040516323b872dd60e01b8152336004820152306024820152604481018790526001600160a01b03909116906323b872dd906064016108a0565b7ff0c57e16840df040f15088dc2f81fe391c3923bec73e23a9662efc9c229c6a00805468010000000000000000810460ff16159067ffffffffffffffff16600081158015610acc5750825b905060008267ffffffffffffffff166001148015610ae95750303b155b905081158015610af7575080155b15610b2e576040517ff92ee8a900000000000000000000000000000000000000000000000000000000815260040160405180910390fd5b845467ffffffffffffffff191660011785558315610b6257845468ff00000000000000001916680100000000000000001785555b600080546001600160a01b03808a1673ffffffffffffffffffffffffffffffffffffffff199283161790925560068054928916670100000000000000027fffffffffff0000000000000000000000000000000000000000ffffffffffffff90931692909217909155600480546fffffffffffffffffffffffffffffffff199081166b033b2e3c9fd0803ce8000000908117909255600580549091169091179055600d8054909116331790558315610c5857845468ff000000000000000019168555604051600181527fc7f505b2f371ae2175ee4913f4499e1f2633a7b5936321eed1cdaeb6115181d29060200160405180910390a15b50505050505050565b6003546001600160a01b03163314610cab5760405162461bcd60e51b815260206004820152600d60248201526c1bdb9b1e481d1a194818d8d99b609a1b604482015260640161083b565b600082815260026020526040902060030154600160a81b900460ff1615610d145760405162461bcd60e51b815260206004820152601060248201527f6974206973206c69717569646174656400000000000000000000000000000000604482015260640161083b565b6000610d1e611a8f565b9050610d2981611be4565b60008060009054906101000a90046001600160a01b03166001600160a01b031663313ce5676040518163ffffffff1660e01b8152600401602060405180830381865afa158015610d7d573d6000803e3d6000fd5b505050506040513d601f19601f82011682018060405250810190610da191906121b0565b610dac90600a6122cd565b610dc26b033b2e3c9fd0803ce8000000856122dc565b610dcc9190612309565b90506000610de98360400151600a54611ba090919063ffffffff16565b90506000610e1182610e0b86604001518686610e059190612360565b90611ba0565b90611da5565b9050610e1c81611de4565b600480546fffffffffffffffffffffffffffffffff19166001600160801b0392909216919091179055600c8054869190600090610e5a908490612360565b90915550506000546040516323b872dd60e01b8152336004820152306024820152604481018790526001600160a01b03909116906323b872dd906064016020604051808303816000875af1158015610eb6573d6000803e3d6000fd5b505050506040513d601f19601f82011682018060405250810190610eda919061233e565b505050600093845250506002602052506040902060030180547fffffffffffffffffffff00ffffffffffffffffffffffffffffffffffffffffff16600160a81b179055565b600d546001600160a01b03163314610f795760405162461bcd60e51b815260206004820152600e60248201527f6f6e6c7920746865206f776e6572000000000000000000000000000000000000604482015260640161083b565b6003805473ffffffffffffffffffffffffffffffffffffffff19166001600160a01b0392909216919091179055565b60018181548110610fb857600080fd5b6000918252602090912001546001600160a01b0316905081565b600080610fdd611a8f565b90506000610ff38260c001518360e00151611b8c565b60055490915061100d9082906001600160801b0316611ba0565b60808301526000546040805163313ce56760e01b815290516b033b2e3c9fd0803ce8000000926001600160a01b03169163313ce5679160048083019260209291908290030181865afa158015611067573d6000803e3d6000fd5b505050506040513d601f19601f8201168201806040525081019061108b91906121b0565b61109690600a6122cd565b60808401516000878152600860205260409020546110b391611ba0565b6110bd91906122dc565b6110c79190612309565b949350505050565b6000806110da611a8f565b905060006110f08260a001518360e00151611e35565b9050611109826040015182611ba090919063ffffffff16565b604080840191909152600054815163313ce56760e01b815291516b033b2e3c9fd0803ce8000000926001600160a01b039092169163313ce5679160048083019260209291908290030181865afa158015611167573d6000803e3d6000fd5b505050506040513d601f19601f8201168201806040525081019061118b91906121b0565b61119690600a6122cd565b60408401516009546106ea91611ba0565b6003546001600160a01b031633146111f15760405162461bcd60e51b815260206004820152600d60248201526c1bdb9b1e481d1a194818d8d99b609a1b604482015260640161083b565b60006111fb611a8f565b905061120681611be4565b60008060009054906101000a90046001600160a01b03166001600160a01b031663313ce5676040518163ffffffff1660e01b8152600401602060405180830381865afa15801561125a573d6000803e3d6000fd5b505050506040513d601f19601f8201168201806040525081019061127e91906121b0565b61128990600a6122cd565b61129f6b033b2e3c9fd0803ce8000000866122dc565b6112a99190612309565b905060006112c4836080015183611da590919063ffffffff16565b600087815260086020526040812054919250906112e2908390612360565b905081600b60008282546112f69190612360565b9091555050600c5486111561134d5760405162461bcd60e51b815260206004820152601c60248201527f446f206e6f74206861766520656e6f756768206c697175696469747900000000604482015260640161083b565b6000878152600260208181526040808420600890925283208490558981559081018890556003810180547fffffffffffffffffffffff0000000000000000000000000000000000000000ff166101006001600160a01b038a1602179055906113b59085611c1d565b60408501516113c5908590611da5565b600a60008282546113d6919061232b565b9250508190555086600c60008282546113ef919061232b565b90915550505050505050505050565b6003546001600160a01b031633146114485760405162461bcd60e51b815260206004820152600d60248201526c1bdb9b1e481d1a194818d8d99b609a1b604482015260640161083b565b60008281526002602052604090206003015460ff16156114aa5760405162461bcd60e51b815260206004820152600c60248201527f697420697320636c6f7365640000000000000000000000000000000000000000604482015260640161083b565b60006114b4611a8f565b90506114bf81611be4565b60008060009054906101000a90046001600160a01b03166001600160a01b031663313ce5676040518163ffffffff1660e01b8152600401602060405180830381865afa158015611513573d6000803e3d6000fd5b505050506040513d601f19601f8201168201806040525081019061153791906121b0565b61154290600a6122cd565b6115586b033b2e3c9fd0803ce8000000856122dc565b6115629190612309565b60055490915060009061157f9083906001600160801b0316611da5565b600086815260086020526040902054909150811061179d57600085815260086020526040812054600b8054919290916115b990849061232b565b909155505060055460008681526008602052604081205490916115e591906001600160801b0316611ba0565b905060006b033b2e3c9fd0803ce80000006001600160801b031660008054906101000a90046001600160a01b03166001600160a01b031663313ce5676040518163ffffffff1660e01b8152600401602060405180830381865afa158015611650573d6000803e3d6000fd5b505050506040513d601f19601f8201168201806040525081019061167491906121b0565b61167f90600a6122cd565b61168990846122dc565b6116939190612309565b60008881526008602052604081208190559091506116b19080611c1d565b6040808601516000898152600860205291909120546116cf91611da5565b600a60008282546116e09190612360565b9250508190555080600c60008282546116f99190612360565b90915550506000546040516323b872dd60e01b8152336004820152306024820152604481018390526001600160a01b03909116906323b872dd906064016020604051808303816000875af1158015611755573d6000803e3d6000fd5b505050506040513d601f19601f82011682018060405250810190611779919061233e565b5050506000858152600260205260409020600301805460ff191660011790556118a6565b6000858152600860205260408120546117b790839061232b565b905081600b60008282546117cb919061232b565b909155505060008681526008602052604081208290556117ec908490611c1d565b60408401516117fc908490611da5565b600a600082825461180d9190612360565b9250508190555084600c60008282546118269190612360565b90915550506000546040516323b872dd60e01b8152336004820152306024820152604481018790526001600160a01b03909116906323b872dd906064016020604051808303816000875af1158015611882573d6000803e3d6000fd5b505050506040513d601f19601f82011682018060405250810190610c58919061233e565b5050505050565b6004546001600160a01b03821660009081526007602052604081205490916118e6916118e1916001600160801b0316611ba0565b611e72565b92915050565b6003546001600160a01b031633146119365760405162461bcd60e51b815260206004820152600d60248201526c1bdb9b1e481d1a194818d8d99b609a1b604482015260640161083b565b60008181526002602052604090206001015460ff16156119985760405162461bcd60e51b815260206004820152600c60248201527f4c6f616e20697320706169640000000000000000000000000000000000000000604482015260640161083b565b6000818152600260208181526040928390206001808201805460ff191690911790559091015482516001600160a01b038616815291820152428183015290517fec2db68ed4a8b09a4c7173e6e4230e6cca7e1b48e58a0affc9c550470e0e14819181900360600190a160008054828252600260208190526040928390200154915163a9059cbb60e01b81526001600160a01b038581166004830152602482019390935291169063a9059cbb906044016020604051808303816000875af1158015611a66573d6000803e3d6000fd5b505050506040513d601f19601f82011682018060405250810190611a8a919061233e565b505050565b611ade60405180610100016040528060008152602001600081526020016000815260200160008152602001600081526020016000815260200160008152602001600064ffffffffff1681525090565b611b2d60405180610100016040528060008152602001600081526020016000815260200160008152602001600081526020016000815260200160008152602001600064ffffffffff1681525090565b6004546001600160801b03808216604084018190526020840152600554808216608085018190526060850152600160801b92839004821660a0850152919091041660c082015260065464ffffffffff1660e0820152600b548152919050565b6000611b99838342611e95565b9392505050565b600081156b019d971e4fe8401e740000001983900484111517611bc257600080fd5b506b033b2e3c9fd0803ce800000091026b019d971e4fe8401e74000000010490565b60065464ffffffffff428116911603611bfa5750565b611c0381611fc1565b506006805464ffffffffff19164264ffffffffff16179055565b611c4160405180606001604052806000815260200160008152602001600081525090565b6006546040805160808101825285815260208101859052600554600b546701000000000000009094046001600160a01b0316936356eaf26493830191611c9091906001600160801b0316611ba0565b8152600454600a54602090920191611cb0916001600160801b0316611ba0565b9052604080517fffffffff0000000000000000000000000000000000000000000000000000000060e085901b168152825160048201526020830151602482015290820151604482015260609091015160648201526084016040805180830381865afa158015611d23573d6000803e3d6000fd5b505050506040513d601f19601f82011682018060405250810190611d479190612373565b6020830152808252611d5890611de4565b600480546001600160801b03928316600160801b0292169190911790556020810151611d8390611de4565b600580546001600160801b03928316600160801b029216919091179055505050565b600081156b033b2e3c9fd0803ce800000060028404190484111715611dc957600080fd5b506b033b2e3c9fd0803ce80000009190910260028204010490565b60006001600160801b03821115611e31576040517f6dfcc650000000000000000000000000000000000000000000000000000000008152608060048201526024810183905260440161083b565b5090565b600080611e4964ffffffffff84164261232b565b611e5390856122dc565b6301e13380900490506110c7816b033b2e3c9fd0803ce8000000612360565b633b9aca00808204908206631dcd65008110611e8f576001820191505b50919050565b600080611ea964ffffffffff85168461232b565b905080600003611ec8576b033b2e3c9fd0803ce8000000915050611b99565b60001981016000808060028511611ee0576000611ee5565b600285035b925066038882915c4000611ef98a80611ba0565b81611f0657611f066122f3565b0491506301e13380611f18838b611ba0565b81611f2557611f256122f3565b049050600082611f3586886122dc565b611f3f91906122dc565b60029004905060008285611f53888a6122dc565b611f5d91906122dc565b611f6791906122dc565b60069004905080826301e13380611f7e8a8f6122dc565b611f889190612309565b611f9e906b033b2e3c9fd0803ce8000000612360565b611fa89190612360565b611fb29190612360565b9b9a5050505050505050505050565b60a081015115612033576000611fdf8260a001518360e00151611e35565b9050611ff8826020015182611ba090919063ffffffff16565b6040830181905261200890611de4565b600480546fffffffffffffffffffffffffffffffff19166001600160801b0392909216919091179055505b8051156120a257600061204e8260c001518360e00151611b8c565b9050612067826060015182611ba090919063ffffffff16565b6080830181905261207790611de4565b600580546fffffffffffffffffffffffffffffffff19166001600160801b0392909216919091179055505b50565b6001600160a01b03811681146120a257600080fd5b6000602082840312156120cc57600080fd5b8135611b99816120a5565b6000602082840312156120e957600080fd5b5035919050565b6000806040838503121561210357600080fd5b823561210e816120a5565b9150602083013561211e816120a5565b809150509250929050565b6000806040838503121561213c57600080fd5b50508035926020909101359150565b60008060006060848603121561216057600080fd5b83359250602084013591506040840135612179816120a5565b809150509250925092565b6000806040838503121561219757600080fd5b82356121a2816120a5565b946020939093013593505050565b6000602082840312156121c257600080fd5b815160ff81168114611b9957600080fd5b634e487b7160e01b600052601160045260246000fd5b600181815b8085111561222457816000190482111561220a5761220a6121d3565b8085161561221757918102915b93841c93908002906121ee565b509250929050565b60008261223b575060016118e6565b81612248575060006118e6565b816001811461225e576002811461226857612284565b60019150506118e6565b60ff841115612279576122796121d3565b50506001821b6118e6565b5060208310610133831016604e8410600b84101617156122a7575081810a6118e6565b6122b183836121e9565b80600019048211156122c5576122c56121d3565b029392505050565b6000611b9960ff84168361222c565b80820281158282048414176118e6576118e66121d3565b634e487b7160e01b600052601260045260246000fd5b60008261232657634e487b7160e01b600052601260045260246000fd5b500490565b818103818111156118e6576118e66121d3565b60006020828403121561235057600080fd5b81518015158114611b9957600080fd5b808201808211156118e6576118e66121d3565b6000806040838503121561238657600080fd5b50508051602090910151909290915056fea26469706673582212209dcbbea5ba65f3da5e3c184bd9eff7d294ab8f297d278c687c62da0a7ba0dda564736f6c63430008180033",
  "linkReferences": {},
  "deployedLinkReferences": {}
}