{
  "_format": "hh-sol-artifact-1",
  "contractName": "CCFLLoan",
  "sourceName": "contracts/CCFLLoan.sol",
  "abi": [
    {
      "inputs": [],
      "stateMutability": "nonpayable",
      "type": "constructor"
    },
    {
      "inputs": [],
      "name": "InvalidInitialization",
      "type": "error"
    },
    {
      "inputs": [],
      "name": "NotInitializing",
      "type": "error"
    },
    {
      "anonymous": false,
      "inputs": [
        {
          "indexed": false,
          "internalType": "uint64",
          "name": "version",
          "type": "uint64"
        }
      ],
      "name": "Initialized",
      "type": "event"
    },
    {
      "anonymous": false,
      "inputs": [
        {
          "indexed": true,
          "internalType": "address",
          "name": "onBehalfOf",
          "type": "address"
        },
        {
          "indexed": true,
          "internalType": "address",
          "name": "_token",
          "type": "address"
        },
        {
          "indexed": false,
          "internalType": "uint256",
          "name": "_amount",
          "type": "uint256"
        }
      ],
      "name": "LiquiditySupplied",
      "type": "event"
    },
    {
      "anonymous": false,
      "inputs": [
        {
          "indexed": true,
          "internalType": "address",
          "name": "to",
          "type": "address"
        },
        {
          "indexed": true,
          "internalType": "address",
          "name": "_token",
          "type": "address"
        },
        {
          "indexed": false,
          "internalType": "uint256",
          "name": "_amount",
          "type": "uint256"
        }
      ],
      "name": "LiquidityWithdrawn",
      "type": "event"
    },
    {
      "inputs": [],
      "name": "LTV",
      "outputs": [
        {
          "internalType": "uint256",
          "name": "",
          "type": "uint256"
        }
      ],
      "stateMutability": "view",
      "type": "function"
    },
    {
      "inputs": [],
      "name": "aToken",
      "outputs": [
        {
          "internalType": "contract IERC20Standard",
          "name": "",
          "type": "address"
        }
      ],
      "stateMutability": "view",
      "type": "function"
    },
    {
      "inputs": [],
      "name": "aaveAddressProvider",
      "outputs": [
        {
          "internalType": "contract IPoolAddressesProvider",
          "name": "",
          "type": "address"
        }
      ],
      "stateMutability": "view",
      "type": "function"
    },
    {
      "inputs": [],
      "name": "admin",
      "outputs": [
        {
          "internalType": "address",
          "name": "",
          "type": "address"
        }
      ],
      "stateMutability": "view",
      "type": "function"
    },
    {
      "inputs": [
        {
          "internalType": "uint256",
          "name": "_currentDebt",
          "type": "uint256"
        },
        {
          "internalType": "uint256",
          "name": "_amountOut",
          "type": "uint256"
        }
      ],
      "name": "calculateLiquidation",
      "outputs": [
        {
          "internalType": "uint256",
          "name": "",
          "type": "uint256"
        },
        {
          "internalType": "uint256",
          "name": "",
          "type": "uint256"
        },
        {
          "internalType": "uint256",
          "name": "",
          "type": "uint256"
        },
        {
          "internalType": "uint256",
          "name": "",
          "type": "uint256"
        }
      ],
      "stateMutability": "view",
      "type": "function"
    },
    {
      "inputs": [
        {
          "internalType": "uint256",
          "name": "_currentDebt",
          "type": "uint256"
        }
      ],
      "name": "calculateSwap",
      "outputs": [
        {
          "internalType": "uint256",
          "name": "",
          "type": "uint256"
        },
        {
          "internalType": "uint256",
          "name": "",
          "type": "uint256"
        }
      ],
      "stateMutability": "nonpayable",
      "type": "function"
    },
    {
      "inputs": [],
      "name": "ccfl",
      "outputs": [
        {
          "internalType": "address",
          "name": "",
          "type": "address"
        }
      ],
      "stateMutability": "view",
      "type": "function"
    },
    {
      "inputs": [],
      "name": "closeLoan",
      "outputs": [
        {
          "internalType": "uint256",
          "name": "",
          "type": "uint256"
        },
        {
          "internalType": "uint256",
          "name": "",
          "type": "uint256"
        }
      ],
      "stateMutability": "nonpayable",
      "type": "function"
    },
    {
      "inputs": [],
      "name": "collateralAmount",
      "outputs": [
        {
          "internalType": "uint256",
          "name": "",
          "type": "uint256"
        }
      ],
      "stateMutability": "view",
      "type": "function"
    },
    {
      "inputs": [],
      "name": "collateralToken",
      "outputs": [
        {
          "internalType": "contract IERC20Standard",
          "name": "",
          "type": "address"
        }
      ],
      "stateMutability": "view",
      "type": "function"
    },
    {
      "inputs": [],
      "name": "earnBorrower",
      "outputs": [
        {
          "internalType": "uint256",
          "name": "",
          "type": "uint256"
        }
      ],
      "stateMutability": "view",
      "type": "function"
    },
    {
      "inputs": [],
      "name": "earnLender",
      "outputs": [
        {
          "internalType": "uint256",
          "name": "",
          "type": "uint256"
        }
      ],
      "stateMutability": "view",
      "type": "function"
    },
    {
      "inputs": [],
      "name": "earnPlatform",
      "outputs": [
        {
          "internalType": "uint256",
          "name": "",
          "type": "uint256"
        }
      ],
      "stateMutability": "view",
      "type": "function"
    },
    {
      "inputs": [],
      "name": "factory",
      "outputs": [
        {
          "internalType": "contract IUniswapV3Factory",
          "name": "",
          "type": "address"
        }
      ],
      "stateMutability": "view",
      "type": "function"
    },
    {
      "inputs": [],
      "name": "feeTier",
      "outputs": [
        {
          "internalType": "uint24",
          "name": "",
          "type": "uint24"
        }
      ],
      "stateMutability": "view",
      "type": "function"
    },
    {
      "inputs": [],
      "name": "getCollateralAmount",
      "outputs": [
        {
          "internalType": "uint256",
          "name": "",
          "type": "uint256"
        }
      ],
      "stateMutability": "view",
      "type": "function"
    },
    {
      "inputs": [],
      "name": "getCollateralToken",
      "outputs": [
        {
          "internalType": "contract IERC20Standard",
          "name": "",
          "type": "address"
        }
      ],
      "stateMutability": "view",
      "type": "function"
    },
    {
      "inputs": [
        {
          "internalType": "uint256",
          "name": "currentDebt",
          "type": "uint256"
        },
        {
          "internalType": "uint256",
          "name": "addCollateral",
          "type": "uint256"
        }
      ],
      "name": "getHealthFactor",
      "outputs": [
        {
          "internalType": "uint256",
          "name": "",
          "type": "uint256"
        }
      ],
      "stateMutability": "view",
      "type": "function"
    },
    {
      "inputs": [],
      "name": "getIsYeild",
      "outputs": [
        {
          "internalType": "bool",
          "name": "",
          "type": "bool"
        }
      ],
      "stateMutability": "view",
      "type": "function"
    },
    {
      "inputs": [
        {
          "internalType": "contract IERC20Standard",
          "name": "_coin",
          "type": "address"
        },
        {
          "internalType": "bool",
          "name": "isPool",
          "type": "bool"
        }
      ],
      "name": "getLatestPrice",
      "outputs": [
        {
          "internalType": "uint256",
          "name": "",
          "type": "uint256"
        }
      ],
      "stateMutability": "view",
      "type": "function"
    },
    {
      "inputs": [],
      "name": "getLoanInfo",
      "outputs": [
        {
          "components": [
            {
              "internalType": "uint256",
              "name": "loanId",
              "type": "uint256"
            },
            {
              "internalType": "bool",
              "name": "isPaid",
              "type": "bool"
            },
            {
              "internalType": "uint256",
              "name": "amount",
              "type": "uint256"
            },
            {
              "internalType": "bool",
              "name": "isClosed",
              "type": "bool"
            },
            {
              "internalType": "address",
              "name": "borrower",
              "type": "address"
            },
            {
              "internalType": "bool",
              "name": "isLiquidated",
              "type": "bool"
            },
            {
              "internalType": "contract IERC20Standard",
              "name": "stableCoin",
              "type": "address"
            },
            {
              "internalType": "bool",
              "name": "isFinalty",
              "type": "bool"
            },
            {
              "internalType": "bool",
              "name": "isFiat",
              "type": "bool"
            }
          ],
          "internalType": "struct DataTypes.Loan",
          "name": "",
          "type": "tuple"
        }
      ],
      "stateMutability": "view",
      "type": "function"
    },
    {
      "inputs": [
        {
          "internalType": "address",
          "name": "user",
          "type": "address"
        }
      ],
      "name": "getUserAccountData",
      "outputs": [
        {
          "internalType": "uint256",
          "name": "totalCollateralBase",
          "type": "uint256"
        },
        {
          "internalType": "uint256",
          "name": "totalDebtBase",
          "type": "uint256"
        },
        {
          "internalType": "uint256",
          "name": "availableBorrowsBase",
          "type": "uint256"
        },
        {
          "internalType": "uint256",
          "name": "currentLiquidationThreshold",
          "type": "uint256"
        },
        {
          "internalType": "uint256",
          "name": "ltv",
          "type": "uint256"
        },
        {
          "internalType": "uint256",
          "name": "healthFactor",
          "type": "uint256"
        }
      ],
      "stateMutability": "view",
      "type": "function"
    },
    {
      "inputs": [
        {
          "internalType": "uint256",
          "name": "_earnBorrower",
          "type": "uint256"
        }
      ],
      "name": "getYieldEarned",
      "outputs": [
        {
          "internalType": "uint256",
          "name": "",
          "type": "uint256"
        }
      ],
      "stateMutability": "view",
      "type": "function"
    },
    {
      "inputs": [],
      "name": "initLoan",
      "outputs": [
        {
          "internalType": "uint256",
          "name": "loanId",
          "type": "uint256"
        },
        {
          "internalType": "bool",
          "name": "isPaid",
          "type": "bool"
        },
        {
          "internalType": "uint256",
          "name": "amount",
          "type": "uint256"
        },
        {
          "internalType": "bool",
          "name": "isClosed",
          "type": "bool"
        },
        {
          "internalType": "address",
          "name": "borrower",
          "type": "address"
        },
        {
          "internalType": "bool",
          "name": "isLiquidated",
          "type": "bool"
        },
        {
          "internalType": "contract IERC20Standard",
          "name": "stableCoin",
          "type": "address"
        },
        {
          "internalType": "bool",
          "name": "isFinalty",
          "type": "bool"
        },
        {
          "internalType": "bool",
          "name": "isFiat",
          "type": "bool"
        }
      ],
      "stateMutability": "view",
      "type": "function"
    },
    {
      "inputs": [
        {
          "components": [
            {
              "internalType": "uint256",
              "name": "loanId",
              "type": "uint256"
            },
            {
              "internalType": "bool",
              "name": "isPaid",
              "type": "bool"
            },
            {
              "internalType": "uint256",
              "name": "amount",
              "type": "uint256"
            },
            {
              "internalType": "bool",
              "name": "isClosed",
              "type": "bool"
            },
            {
              "internalType": "address",
              "name": "borrower",
              "type": "address"
            },
            {
              "internalType": "bool",
              "name": "isLiquidated",
              "type": "bool"
            },
            {
              "internalType": "contract IERC20Standard",
              "name": "stableCoin",
              "type": "address"
            },
            {
              "internalType": "bool",
              "name": "isFinalty",
              "type": "bool"
            },
            {
              "internalType": "bool",
              "name": "isFiat",
              "type": "bool"
            }
          ],
          "internalType": "struct DataTypes.Loan",
          "name": "_loan",
          "type": "tuple"
        },
        {
          "internalType": "contract IERC20Standard",
          "name": "_collateralToken",
          "type": "address"
        },
        {
          "internalType": "contract IPoolAddressesProvider",
          "name": "_aaveAddressProvider",
          "type": "address"
        },
        {
          "internalType": "contract IERC20Standard",
          "name": "_aToken",
          "type": "address"
        },
        {
          "internalType": "uint256",
          "name": "_ltv",
          "type": "uint256"
        },
        {
          "internalType": "uint256",
          "name": "_threshold",
          "type": "uint256"
        },
        {
          "internalType": "contract AggregatorV3Interface",
          "name": "_priceFeed",
          "type": "address"
        },
        {
          "internalType": "contract AggregatorV3Interface",
          "name": "_pricePoolFeed",
          "type": "address"
        },
        {
          "internalType": "contract IWETH",
          "name": "_iWETH",
          "type": "address"
        }
      ],
      "name": "initialize",
      "outputs": [],
      "stateMutability": "nonpayable",
      "type": "function"
    },
    {
      "inputs": [],
      "name": "isStakeAave",
      "outputs": [
        {
          "internalType": "bool",
          "name": "",
          "type": "bool"
        }
      ],
      "stateMutability": "view",
      "type": "function"
    },
    {
      "inputs": [
        {
          "internalType": "uint256",
          "name": "_currentDebt",
          "type": "uint256"
        }
      ],
      "name": "liquidate",
      "outputs": [
        {
          "internalType": "uint256",
          "name": "",
          "type": "uint256"
        },
        {
          "internalType": "uint256",
          "name": "",
          "type": "uint256"
        },
        {
          "internalType": "uint256",
          "name": "",
          "type": "uint256"
        },
        {
          "internalType": "uint256",
          "name": "",
          "type": "uint256"
        }
      ],
      "stateMutability": "nonpayable",
      "type": "function"
    },
    {
      "inputs": [],
      "name": "liquidationThreshold",
      "outputs": [
        {
          "internalType": "uint256",
          "name": "",
          "type": "uint256"
        }
      ],
      "stateMutability": "view",
      "type": "function"
    },
    {
      "inputs": [],
      "name": "owner",
      "outputs": [
        {
          "internalType": "address",
          "name": "",
          "type": "address"
        }
      ],
      "stateMutability": "view",
      "type": "function"
    },
    {
      "inputs": [],
      "name": "penaltyLender",
      "outputs": [
        {
          "internalType": "uint256",
          "name": "",
          "type": "uint256"
        }
      ],
      "stateMutability": "view",
      "type": "function"
    },
    {
      "inputs": [],
      "name": "penaltyLiquidator",
      "outputs": [
        {
          "internalType": "uint256",
          "name": "",
          "type": "uint256"
        }
      ],
      "stateMutability": "view",
      "type": "function"
    },
    {
      "inputs": [],
      "name": "penaltyPlatform",
      "outputs": [
        {
          "internalType": "uint256",
          "name": "",
          "type": "uint256"
        }
      ],
      "stateMutability": "view",
      "type": "function"
    },
    {
      "inputs": [],
      "name": "platform",
      "outputs": [
        {
          "internalType": "address",
          "name": "",
          "type": "address"
        }
      ],
      "stateMutability": "view",
      "type": "function"
    },
    {
      "inputs": [],
      "name": "priceFeed",
      "outputs": [
        {
          "internalType": "contract AggregatorV3Interface",
          "name": "",
          "type": "address"
        }
      ],
      "stateMutability": "view",
      "type": "function"
    },
    {
      "inputs": [],
      "name": "pricePoolFeed",
      "outputs": [
        {
          "internalType": "contract AggregatorV3Interface",
          "name": "",
          "type": "address"
        }
      ],
      "stateMutability": "view",
      "type": "function"
    },
    {
      "inputs": [],
      "name": "quoter",
      "outputs": [
        {
          "internalType": "contract IQuoterV2",
          "name": "",
          "type": "address"
        }
      ],
      "stateMutability": "view",
      "type": "function"
    },
    {
      "inputs": [
        {
          "internalType": "address",
          "name": "_admin",
          "type": "address"
        }
      ],
      "name": "setAdmin",
      "outputs": [],
      "stateMutability": "nonpayable",
      "type": "function"
    },
    {
      "inputs": [
        {
          "internalType": "address",
          "name": "_ccfl",
          "type": "address"
        }
      ],
      "name": "setCCFL",
      "outputs": [],
      "stateMutability": "nonpayable",
      "type": "function"
    },
    {
      "inputs": [
        {
          "internalType": "uint256",
          "name": "_borrower",
          "type": "uint256"
        },
        {
          "internalType": "uint256",
          "name": "_platform",
          "type": "uint256"
        },
        {
          "internalType": "uint256",
          "name": "_lender",
          "type": "uint256"
        }
      ],
      "name": "setEarnShare",
      "outputs": [],
      "stateMutability": "nonpayable",
      "type": "function"
    },
    {
      "inputs": [],
      "name": "setPaid",
      "outputs": [],
      "stateMutability": "nonpayable",
      "type": "function"
    },
    {
      "inputs": [
        {
          "internalType": "uint256",
          "name": "_platform",
          "type": "uint256"
        },
        {
          "internalType": "uint256",
          "name": "_liquidator",
          "type": "uint256"
        },
        {
          "internalType": "uint256",
          "name": "_lender",
          "type": "uint256"
        }
      ],
      "name": "setPenalty",
      "outputs": [],
      "stateMutability": "nonpayable",
      "type": "function"
    },
    {
      "inputs": [
        {
          "internalType": "contract IV3SwapRouter",
          "name": "_swapRouter",
          "type": "address"
        },
        {
          "internalType": "contract IUniswapV3Factory",
          "name": "_factory",
          "type": "address"
        },
        {
          "internalType": "contract IQuoterV2",
          "name": "_quoter",
          "type": "address"
        }
      ],
      "name": "setSwapRouter",
      "outputs": [],
      "stateMutability": "nonpayable",
      "type": "function"
    },
    {
      "inputs": [],
      "name": "shareBorrower",
      "outputs": [
        {
          "internalType": "uint256",
          "name": "",
          "type": "uint256"
        }
      ],
      "stateMutability": "view",
      "type": "function"
    },
    {
      "inputs": [],
      "name": "shareLender",
      "outputs": [
        {
          "internalType": "uint256",
          "name": "",
          "type": "uint256"
        }
      ],
      "stateMutability": "view",
      "type": "function"
    },
    {
      "inputs": [],
      "name": "sharePlatform",
      "outputs": [
        {
          "internalType": "uint256",
          "name": "",
          "type": "uint256"
        }
      ],
      "stateMutability": "view",
      "type": "function"
    },
    {
      "inputs": [],
      "name": "supplyLiquidity",
      "outputs": [],
      "stateMutability": "nonpayable",
      "type": "function"
    },
    {
      "inputs": [],
      "name": "swapRouter",
      "outputs": [
        {
          "internalType": "contract IV3SwapRouter",
          "name": "",
          "type": "address"
        }
      ],
      "stateMutability": "view",
      "type": "function"
    },
    {
      "inputs": [
        {
          "internalType": "uint256",
          "name": "amount",
          "type": "uint256"
        }
      ],
      "name": "updateCollateral",
      "outputs": [],
      "stateMutability": "nonpayable",
      "type": "function"
    },
    {
      "inputs": [],
      "name": "wETH",
      "outputs": [
        {
          "internalType": "contract IWETH",
          "name": "",
          "type": "address"
        }
      ],
      "stateMutability": "view",
      "type": "function"
    },
    {
      "inputs": [
        {
          "internalType": "address",
          "name": "_receiver",
          "type": "address"
        },
        {
          "internalType": "bool",
          "name": "_isETH",
          "type": "bool"
        }
      ],
      "name": "withdrawAllCollateral",
      "outputs": [],
      "stateMutability": "nonpayable",
      "type": "function"
    },
    {
      "inputs": [
        {
          "internalType": "contract IERC20Standard",
          "name": "_token",
          "type": "address"
        },
        {
          "internalType": "address",
          "name": "_receiver",
          "type": "address"
        }
      ],
      "name": "withdrawCollateralByAdmin",
      "outputs": [],
      "stateMutability": "nonpayable",
      "type": "function"
    },
    {
      "inputs": [
        {
          "internalType": "uint256",
          "name": "_earnPlatform",
          "type": "uint256"
        },
        {
          "internalType": "uint256",
          "name": "_earnBorrower",
          "type": "uint256"
        },
        {
          "internalType": "uint256",
          "name": "_earnLender",
          "type": "uint256"
        }
      ],
      "name": "withdrawLiquidity",
      "outputs": [],
      "stateMutability": "nonpayable",
      "type": "function"
    },
    {
      "stateMutability": "payable",
      "type": "receive"
    }
  ],
  "bytecode": "0x608060405234801561001057600080fd5b50613535806100206000396000f3fe6080604052600436106103435760003560e01c8063704b6c02116101b0578063b2016bd4116100ec578063cbe595c911610095578063f3cf4ada1161006f578063f3cf4ada14610ac7578063f6597bbb14610ae7578063f851a44014610afd578063fab320e914610b1d57600080fd5b8063cbe595c914610a67578063cdaabe4114610a87578063f242862114610aa757600080fd5b8063c31c9c07116100c6578063c31c9c0714610a07578063c45a015514610a27578063c6bbd5a714610a4757600080fd5b8063b2016bd41461097a578063b3bffeaa1461099a578063bf92857c146109ba57600080fd5b80638ac1b7751161015957806396423663116101335780639642366314610910578063a0c1f15e1461092e578063a58bab621461094e578063a95d71321461096457600080fd5b80638ac1b775146108ba5780638da5cb5b146108da57806392d09ceb146108fa57600080fd5b8063792f436f1161018a578063792f436f146107d55780637ce67d60146107eb578063894059c61461089a57600080fd5b8063704b6c021461076b57806372f5d98a1461078b578063741bef1a146107b557600080fd5b80634031234c1161027f5780635d3e2fa11161022857806368b86bc21161020257806368b86bc2146106eb57806368dcad581461070b57806369fa97c01461072b5780636cb0ab5e1461074b57600080fd5b80635d3e2fa1146105c457806362965d8e146106b55780636721de26146106cb57600080fd5b80634d2c872a116102595780634d2c872a146105645780635825f5351461058457806358b275d7146105a457600080fd5b80634031234c146104d6578063415f1240146104ec5780634bde38c81461052c57600080fd5b80631c783def116102ec578063315deeaa116102c6578063315deeaa1461047557806332df398e1461048a5780633666eefa146104a05780633a0720e6146104c057600080fd5b80631c783def14610416578063232fa73314610435578063288cc89e1461045f57600080fd5b8063102cb82e1161031d578063102cb82e146103a557806310ac5c3c146103c557806311256603146103e557600080fd5b806305b57c0b1461034f57806307a6bf6914610378578063101b9d311461038f57600080fd5b3661034a57005b600080fd5b34801561035b57600080fd5b50610365601a5481565b6040519081526020015b60405180910390f35b34801561038457600080fd5b5061038d610b32565b005b34801561039b57600080fd5b50610365601d5481565b3480156103b157600080fd5b5061038d6103c0366004612dd2565b610e1c565b3480156103d157600080fd5b5061038d6103e0366004612e0b565b61115c565b3480156103f157600080fd5b5060035461040690600160a01b900460ff1681565b604051901515815260200161036f565b34801561042257600080fd5b50600354600160a01b900460ff16610406565b34801561044157600080fd5b5061044a6111ed565b6040805192835260208301919091520161036f565b34801561046b57600080fd5b5061036560185481565b34801561048157600080fd5b50600954610365565b34801561049657600080fd5b5061036560155481565b3480156104ac57600080fd5b5061044a6104bb366004612e56565b611427565b3480156104cc57600080fd5b5061036560175481565b3480156104e257600080fd5b5061036560075481565b3480156104f857600080fd5b5061050c610507366004612e56565b611562565b60408051948552602085019390935291830152606082015260800161036f565b34801561053857600080fd5b5060135461054c906001600160a01b031681565b6040516001600160a01b03909116815260200161036f565b34801561057057600080fd5b5061036561057f366004612e6f565b6116c5565b34801561059057600080fd5b5060125461054c906001600160a01b031681565b3480156105b057600080fd5b5061050c6105bf366004612e6f565b611891565b3480156105d057600080fd5b506106a86040805161012081018252600080825260208201819052918101829052606081018290526080810182905260a0810182905260c0810182905260e08101829052610100810191909152506040805161012081018252600b548152600c5460ff90811615156020830152600d5492820192909252600e54808316151560608301526001600160a01b0361010080830482166080850152600160a81b928390048516151560a0850152600f5491821660c0850152600160a01b82048516151560e085015291900490921615159181019190915290565b60405161036f9190612e91565b3480156106c157600080fd5b5061036560085481565b3480156106d757600080fd5b5061038d6106e6366004612e56565b611983565b3480156106f757600080fd5b5061038d610706366004612f67565b6119e2565b34801561071757600080fd5b5060115461054c906001600160a01b031681565b34801561073757600080fd5b50610365610746366004612e56565b611d51565b34801561075757600080fd5b5061038d6107663660046130a2565b611df5565b34801561077757600080fd5b5061038d6107863660046130ce565b611e48565b34801561079757600080fd5b506107a1610bb881565b60405162ffffff909116815260200161036f565b3480156107c157600080fd5b5060105461054c906001600160a01b031681565b3480156107e157600080fd5b5061036560195481565b3480156107f757600080fd5b50600b54600c54600d54600e54600f54610847949360ff9081169392808216926001600160a01b036101008304811693600160a81b9384900481169391831692600160a01b810482169290041689565b60408051998a5297151560208a01529688019590955292151560608701526001600160a01b039182166080870152151560a08601521660c0840152151560e083015215156101008201526101200161036f565b3480156108a657600080fd5b5061038d6108b53660046130a2565b611ebc565b3480156108c657600080fd5b5061038d6108d53660046130ce565b61223e565b3480156108e657600080fd5b5060005461054c906001600160a01b031681565b34801561090657600080fd5b5061036560095481565b34801561091c57600080fd5b50600a546001600160a01b031661054c565b34801561093a57600080fd5b5060035461054c906001600160a01b031681565b34801561095a57600080fd5b50610365601c5481565b34801561097057600080fd5b5061036560165481565b34801561098657600080fd5b50600a5461054c906001600160a01b031681565b3480156109a657600080fd5b506103656109b5366004612dd2565b6122b2565b3480156109c657600080fd5b506109da6109d53660046130ce565b6123a9565b604080519687526020870195909552938501929092526060840152608083015260a082015260c00161036f565b348015610a1357600080fd5b5060045461054c906001600160a01b031681565b348015610a3357600080fd5b5060055461054c906001600160a01b031681565b348015610a5357600080fd5b5060065461054c906001600160a01b031681565b348015610a7357600080fd5b5061038d610a823660046130f2565b6124c7565b348015610a9357600080fd5b5060025461054c906001600160a01b031681565b348015610ab357600080fd5b5060145461054c906001600160a01b031681565b348015610ad357600080fd5b5061038d610ae23660046130a2565b612609565b348015610af357600080fd5b50610365601b5481565b348015610b0957600080fd5b5060015461054c906001600160a01b031681565b348015610b2957600080fd5b5061038d612659565b6000546040805180820190915260018152601960f91b6020820152906001600160a01b03163314610b7f5760405162461bcd60e51b8152600401610b769190613144565b60405180910390fd5b50600a546040516370a0823160e01b81523060048201526001600160a01b039091169060009082906370a0823190602401602060405180830381865afa158015610bcd573d6000803e3d6000fd5b505050506040513d601f19601f82011682018060405250810190610bf19190613177565b90506000811160405180604001604052806002815260200161031360f41b81525090610c305760405162461bcd60e51b8152600401610b769190613144565b506000309050600080600260009054906101000a90046001600160a01b03166001600160a01b031663026b1d5f6040518163ffffffff1660e01b8152600401602060405180830381865afa158015610c8c573d6000803e3d6000fd5b505050506040513d601f19601f82011682018060405250810190610cb09190613190565b60405163095ea7b360e01b81526001600160a01b038083166004830152602482018790529192509086169063095ea7b3906044016020604051808303816000875af1158015610d03573d6000803e3d6000fd5b505050506040513d601f19601f82011682018060405250810190610d2791906131ad565b506040517f617ba0370000000000000000000000000000000000000000000000000000000081526001600160a01b03868116600483015260248201869052848116604483015261ffff8416606483015282169063617ba03790608401600060405180830381600087803b158015610d9d57600080fd5b505af1158015610db1573d6000803e3d6000fd5b50505050846001600160a01b0316836001600160a01b03167f51a2b359618aeb0bcc2a495a6667c0bdbfddc3bb27eb0dd5b8e3b33a4c15865f86604051610dfa91815260200190565b60405180910390a350506003805460ff60a01b1916600160a01b179055505050565b6000546040805180820190915260018152601960f91b6020820152906001600160a01b03163314610e605760405162461bcd60e51b8152600401610b769190613144565b50600e5460ff1615156001148015610e825750600f54600160a01b900460ff16155b6040518060400160405280600281526020017f313200000000000000000000000000000000000000000000000000000000000081525090610ed65760405162461bcd60e51b8152600401610b769190613144565b50801561104657601454600a546040516370a0823160e01b81523060048201526001600160a01b0392831692632e1a7d4d9216906370a0823190602401602060405180830381865afa158015610f30573d6000803e3d6000fd5b505050506040513d601f19601f82011682018060405250810190610f549190613177565b6040518263ffffffff1660e01b8152600401610f7291815260200190565b600060405180830381600087803b158015610f8c57600080fd5b505af1158015610fa0573d6000803e3d6000fd5b5050600a546040516370a0823160e01b81523060048201526001600160a01b0386811694506108fc9350909116906370a0823190602401602060405180830381865afa158015610ff4573d6000803e3d6000fd5b505050506040513d601f19601f820116820180604052508101906110189190613177565b6040518115909202916000818181858888f19350505050158015611040573d6000803e3d6000fd5b50611145565b600a546040516370a0823160e01b81523060048201526001600160a01b039091169063a9059cbb90849083906370a0823190602401602060405180830381865afa158015611098573d6000803e3d6000fd5b505050506040513d601f19601f820116820180604052508101906110bc9190613177565b6040517fffffffff0000000000000000000000000000000000000000000000000000000060e085901b1681526001600160a01b03909216600483015260248201526044016020604051808303816000875af115801561111f573d6000803e3d6000fd5b505050506040513d601f19601f8201168201806040525081019061114391906131ad565b505b5050600f805460ff60a01b1916600160a01b179055565b6000546040805180820190915260018152601960f91b6020820152906001600160a01b031633146111a05760405162461bcd60e51b8152600401610b769190613144565b50600480546001600160a01b0394851673ffffffffffffffffffffffffffffffffffffffff1991821617909155600580549385169382169390931790925560068054919093169116179055565b600080546040805180820190915260018152601960f91b602082015282916001600160a01b031633146112335760405162461bcd60e51b8152600401610b769190613144565b50600e805460ff19166001179055600354600160a01b900460ff161561126457611264601554601654601754611ebc565b600060185460195461127691906131e0565b111561141c57600a546004546018546019546001600160a01b039384169363095ea7b39316916112a5916131e0565b6040517fffffffff0000000000000000000000000000000000000000000000000000000060e085901b1681526001600160a01b03909216600483015260248201526044016020604051808303816000875af1158015611308573d6000803e3d6000fd5b505050506040513d601f19601f8201168201806040525081019061132c91906131ad565b50600061135a60185460195461134291906131e0565b600f54600a546001600160a01b0391821691166126ad565b600f5460125460405163095ea7b360e01b81526001600160a01b03918216600482015260248101849052929350169063095ea7b3906044016020604051808303816000875af11580156113b1573d6000803e3d6000fd5b505050506040513d601f19601f820116820180604052508101906113d591906131ad565b5060006015546017546113e891906131e0565b826017546113f691906131f3565b611400919061320a565b9050600061140e828461322c565b919450909250611423915050565b5060009050805b9091565b6000806000601b54601c54601d5461143f91906131e0565b61144991906131e0565b905060008060185460195461145e91906131e0565b11156114925761148f60185460195461147791906131e0565b600a54600f546001600160a01b039182169116612882565b90505b60006127106114a184886131f3565b6114ab919061320a565b90506000826114ba83896131e0565b6114c491906131e0565b600a546040516370a0823160e01b81523060048201529192506000916115549184916001600160a01b03909116906370a0823190602401602060405180830381865afa158015611518573d6000803e3d6000fd5b505050506040513d601f19601f8201168201806040525081019061153c9190613177565b600f54600a546001600160a01b039182169116612a69565b989397509295505050505050565b600080546040805180820190915260018152601960f91b60208201528291829182916001600160a01b031633146115ac5760405162461bcd60e51b8152600401610b769190613144565b50600354600160a01b900460ff16156115d0576115d0601554601654601754611ebc565b6000806115dc87611427565b915091506000806000806115f08b86611891565b600e80547fffffffffffffffffffff00ffffffffffffffffffffffffffffffffffffffff00167501000000000000000000000000000000000000000001179055600f5460125460405163095ea7b360e01b81526001600160a01b039182166004820152602481018d90529599509397509195509350169063095ea7b3906044016020604051808303816000875af115801561168f573d6000803e3d6000fd5b505050506040513d601f19601f820116820180604052508101906116b391906131ad565b50929a91995097509095509350505050565b600f5460009081906116e1906001600160a01b031660016122b2565b9050600080846009546116f491906131e0565b600a549091506001600160a01b031681156117c25760006117168260006122b2565b9050816001600160a01b031663313ce5676040518163ffffffff1660e01b8152600401602060405180830381865afa158015611756573d6000803e3d6000fd5b505050506040513d601f19601f8201168201806040525081019061177a919061323f565b61178590600a613346565b6007546127109061179684876131f3565b6117a091906131f3565b6117aa919061320a565b6117b4919061320a565b6117be90856131e0565b9350505b600f54604080517f313ce56700000000000000000000000000000000000000000000000000000000815290516000926001600160a01b03169163313ce5679160048281019260209291908290030181865afa158015611825573d6000803e3d6000fd5b505050506040513d601f19601f82011682018060405250810190611849919061323f565b61185490600a613346565b61185e868a6131f3565b611868919061320a565b90506000816118788660646131f3565b611882919061320a565b96505050505050505b92915050565b6000806000806000601b54601c54601d546118ac91906131e0565b6118b691906131e0565b905060006127106118c7838a6131f3565b6118d1919061320a565b9050600082601d54836118e491906131f3565b6118ee919061320a565b9050600083601b548461190191906131f3565b61190b919061320a565b905060008161191a848661322c565b611924919061322c565b9050600060155460175461193891906131e0565b601754611945908d6131f3565b61194f919061320a565b9050600061195d828d61322c565b9050848261196b83876131e0565b919f909e50909c50929a509198505050505050505050565b6000546040805180820190915260018152601960f91b6020820152906001600160a01b031633146119c75760405162461bcd60e51b8152600401610b769190613144565b5080600960008282546119da91906131e0565b909155505050565b7ff0c57e16840df040f15088dc2f81fe391c3923bec73e23a9662efc9c229c6a00805468010000000000000000810460ff16159067ffffffffffffffff16600081158015611a2d5750825b905060008267ffffffffffffffff166001148015611a4a5750303b155b905081158015611a58575080155b15611a8f576040517ff92ee8a900000000000000000000000000000000000000000000000000000000815260040160405180910390fd5b845467ffffffffffffffff191660011785558315611ac357845468ff00000000000000001916680100000000000000001785555b336000806101000a8154816001600160a01b0302191690836001600160a01b031602179055508d600b6000820151816000015560208201518160010160006101000a81548160ff0219169083151502179055506040820151816002015560608201518160030160006101000a81548160ff02191690831515021790555060808201518160030160016101000a8154816001600160a01b0302191690836001600160a01b0316021790555060a08201518160030160156101000a81548160ff02191690831515021790555060c08201518160040160006101000a8154816001600160a01b0302191690836001600160a01b0316021790555060e08201518160040160146101000a81548160ff0219169083151502179055506101008201518160040160156101000a81548160ff0219169083151502179055509050508c600a60006101000a8154816001600160a01b0302191690836001600160a01b031602179055508b600260006101000a8154816001600160a01b0302191690836001600160a01b0316021790555089600881905550886007819055508a600360006101000a8154816001600160a01b0302191690836001600160a01b0316021790555087601060006101000a8154816001600160a01b0302191690836001600160a01b0316021790555086601160006101000a8154816001600160a01b0302191690836001600160a01b0316021790555085601460006101000a8154816001600160a01b0302191690836001600160a01b031602179055508315611d4157845468ff000000000000000019168555604051600181527fc7f505b2f371ae2175ee4913f4499e1f2633a7b5936321eed1cdaeb6115181d29060200160405180910390a15b5050505050505050505050505050565b6003546040516370a0823160e01b815230600482015260009182916001600160a01b03909116906370a0823190602401602060405180830381865afa158015611d9e573d6000803e3d6000fd5b505050506040513d601f19601f82011682018060405250810190611dc29190613177565b9050600060095482611dd4919061322c565b9050612710611de385836131f3565b611ded919061320a565b949350505050565b6000546040805180820190915260018152601960f91b6020820152906001600160a01b03163314611e395760405162461bcd60e51b8152600401610b769190613144565b50601755601691909155601555565b6000546040805180820190915260018152601960f91b6020820152906001600160a01b03163314611e8c5760405162461bcd60e51b8152600401610b769190613144565b506001805473ffffffffffffffffffffffffffffffffffffffff19166001600160a01b0392909216919091179055565b6000546040805180820190915260018152601960f91b6020820152906001600160a01b03163314611f005760405162461bcd60e51b8152600401610b769190613144565b50600a546003546040516370a0823160e01b81523060048201526001600160a01b039283169260009216906370a0823190602401602060405180830381865afa158015611f51573d6000803e3d6000fd5b505050506040513d601f19601f82011682018060405250810190611f759190613177565b90506000811160405180604001604052806002815260200161031360f41b81525090611fb45760405162461bcd60e51b8152600401610b769190613144565b50600254604080517f026b1d5f00000000000000000000000000000000000000000000000000000000815290516000926001600160a01b03169163026b1d5f9160048083019260209291908290030181865afa158015612018573d6000803e3d6000fd5b505050506040513d601f19601f8201168201806040525081019061203c9190613190565b6040517f69328dec0000000000000000000000000000000000000000000000000000000081526001600160a01b03858116600483015260248201859052306044830152919250908216906369328dec906064016020604051808303816000875af11580156120ae573d6000803e3d6000fd5b505050506040513d601f19601f820116820180604052508101906120d29190613177565b506040518281526001600160a01b0384169030907f83aa598dd3e269af677698c6847b3ba594a67d286a771d01099aafa911a91b649060200160405180910390a36003805460ff60a01b19169055600a546040516370a0823160e01b81523060048201526000916001600160a01b0316906370a0823190602401602060405180830381865afa158015612169573d6000803e3d6000fd5b505050506040513d601f19601f8201168201806040525081019061218d9190613177565b905060006009548261219f919061322c565b11156122355761271086600954836121b7919061322c565b6121c191906131f3565b6121cb919061320a565b601a556121d887866131e0565b87601a54600954846121ea919061322c565b6121f4919061322c565b6121fe91906131f3565b612208919061320a565b6018819055601a5460095461221d908461322c565b612227919061322c565b612231919061322c565b6019555b50505050505050565b6000546040805180820190915260018152601960f91b6020820152906001600160a01b031633146122825760405162461bcd60e51b8152600401610b769190613144565b506012805473ffffffffffffffffffffffffffffffffffffffff19166001600160a01b0392909216919091179055565b6000811515810361234e576000806000806000601060009054906101000a90046001600160a01b03166001600160a01b031663feaf968c6040518163ffffffff1660e01b815260040160a060405180830381865afa158015612318573d6000803e3d6000fd5b505050506040513d601f19601f8201168201806040525081019061233c919061336f565b5091985061188b975050505050505050565b6000806000806000601160009054906101000a90046001600160a01b03166001600160a01b031663feaf968c6040518163ffffffff1660e01b815260040160a060405180830381865afa158015612318573d6000803e3d6000fd5b6000806000806000806000600260009054906101000a90046001600160a01b03166001600160a01b031663026b1d5f6040518163ffffffff1660e01b8152600401602060405180830381865afa158015612407573d6000803e3d6000fd5b505050506040513d601f19601f8201168201806040525081019061242b9190613190565b6040517fbf92857c0000000000000000000000000000000000000000000000000000000081526001600160a01b038a811660048301529192509082169063bf92857c9060240160c060405180830381865afa15801561248e573d6000803e3d6000fd5b505050506040513d601f19601f820116820180604052508101906124b291906133bf565b949d939c50919a509850965090945092505050565b6001805460408051808201909152918252601960f91b60208301526001600160a01b0316331461250a5760405162461bcd60e51b8152600401610b769190613144565b506040516370a0823160e01b81523060048201526001600160a01b0383169063a9059cbb90839083906370a0823190602401602060405180830381865afa158015612559573d6000803e3d6000fd5b505050506040513d601f19601f8201168201806040525081019061257d9190613177565b6040517fffffffff0000000000000000000000000000000000000000000000000000000060e085901b1681526001600160a01b03909216600483015260248201526044016020604051808303816000875af11580156125e0573d6000803e3d6000fd5b505050506040513d601f19601f8201168201806040525081019061260491906131ad565b505050565b6000546040805180820190915260018152601960f91b6020820152906001600160a01b0316331461264d5760405162461bcd60e51b8152600401610b769190613144565b50601d55601c55601b55565b6000546040805180820190915260018152601960f91b6020820152906001600160a01b0316331461269d5760405162461bcd60e51b8152600401610b769190613144565b50600c805460ff19166001179055565b6004546000906126c89083906001600160a01b031686612c61565b600554604051630b4c774160e11b81526001600160a01b0384811660048301528581166024830152610bb860448301526000921690631698ee8290606401602060405180830381865afa158015612723573d6000803e3d6000fd5b505050506040513d601f19601f820116820180604052508101906127479190613190565b90506000816001600160a01b031663ddca3f436040518163ffffffff1660e01b8152600401602060405180830381865afa158015612789573d6000803e3d6000fd5b505050506040513d601f19601f820116820180604052508101906127ad9190613409565b6040805160e0810182526001600160a01b038088168252888116602083015262ffffff841682840152336060830152608082018a9052600060a0830181905260c08301526004805493517f04e45aaf00000000000000000000000000000000000000000000000000000000815294955091939216916304e45aaf916128349185910161342e565b6020604051808303816000875af1158015612853573d6000803e3d6000fd5b505050506040513d601f19601f820116820180604052508101906128779190613177565b979650505050505050565b600554604051630b4c774160e11b81526001600160a01b0383811660048301528481166024830152610bb860448301526000928392911690631698ee8290606401602060405180830381865afa1580156128e0573d6000803e3d6000fd5b505050506040513d601f19601f820116820180604052508101906129049190613190565b90506000816001600160a01b031663ddca3f436040518163ffffffff1660e01b8152600401602060405180830381865afa158015612946573d6000803e3d6000fd5b505050506040513d601f19601f8201168201806040525081019061296a9190613409565b6040805160a0810182526001600160a01b038781168252888116602083019081528284018b815262ffffff8681166060860190815260006080870181815260065498517fc6a5026a0000000000000000000000000000000000000000000000000000000081528851881660048201529551871660248701529351604486015290519091166064840152905183166084830152949550919392839283928392169063c6a5026a9060a4016080604051808303816000875af1158015612a32573d6000803e3d6000fd5b505050506040513d601f19601f82011682018060405250810190612a569190613491565b50919d9c50505050505050505050505050565b600454600090612a849083906001600160a01b031686612c61565b600554604051630b4c774160e11b81526001600160a01b0384811660048301528581166024830152610bb860448301526000921690631698ee8290606401602060405180830381865afa158015612adf573d6000803e3d6000fd5b505050506040513d601f19601f82011682018060405250810190612b039190613190565b90506000816001600160a01b031663ddca3f436040518163ffffffff1660e01b8152600401602060405180830381865afa158015612b45573d6000803e3d6000fd5b505050506040513d601f19601f82011682018060405250810190612b699190613409565b6040805160e0810182526001600160a01b038088168252888116602083015262ffffff841682840152336060830152608082018b905260a082018a9052600060c08301526004805493517f5023b4df0000000000000000000000000000000000000000000000000000000081529495509193921691635023b4df91612bf09185910161342e565b6020604051808303816000875af1158015612c0f573d6000803e3d6000fd5b505050506040513d601f19601f82011682018060405250810190612c339190613177565b935086841015612c5657600454612c569086906001600160a01b03166000612c61565b505050949350505050565b604080516001600160a01b038481166024830152604480830185905283518084039091018152606490920183526020820180517bffffffffffffffffffffffffffffffffffffffffffffffffffffffff1663095ea7b360e01b1790529151600092839290871691612cd291906134e3565b6000604051808303816000865af19150503d8060008114612d0f576040519150601f19603f3d011682016040523d82523d6000602084013e612d14565b606091505b5091509150818015612d3e575080511580612d3e575080806020019051810190612d3e91906131ad565b612d8a5760405162461bcd60e51b815260206004820152600260248201527f53410000000000000000000000000000000000000000000000000000000000006044820152606401610b76565b5050505050565b6001600160a01b0381168114612da657600080fd5b50565b8035612db481612d91565b919050565b8015158114612da657600080fd5b8035612db481612db9565b60008060408385031215612de557600080fd5b8235612df081612d91565b91506020830135612e0081612db9565b809150509250929050565b600080600060608486031215612e2057600080fd5b8335612e2b81612d91565b92506020840135612e3b81612d91565b91506040840135612e4b81612d91565b809150509250925092565b600060208284031215612e6857600080fd5b5035919050565b60008060408385031215612e8257600080fd5b50508035926020909101359150565b60006101208201905082518252602083015115156020830152604083015160408301526060830151151560608301526080830151612eda60808401826001600160a01b03169052565b5060a0830151612eee60a084018215159052565b5060c0830151612f0960c08401826001600160a01b03169052565b5060e0830151612f1d60e084018215159052565b50610100928301511515919092015290565b604051610120810167ffffffffffffffff81118282101715612f6157634e487b7160e01b600052604160045260246000fd5b60405290565b6000806000806000806000806000898b03610220811215612f8757600080fd5b61012080821215612f9757600080fd5b612f9f612f2f565b91508b358252612fb160208d01612dc7565b602083015260408c01356040830152612fcc60608d01612dc7565b6060830152612fdd60808d01612da9565b6080830152612fee60a08d01612dc7565b60a0830152612fff60c08d01612da9565b60c083015261301060e08d01612dc7565b60e0830152610100613023818e01612dc7565b8184015250819a50613036818d01612da9565b995050506130476101408b01612da9565b96506130566101608b01612da9565b95506101808a013594506101a08a013593506130756101c08b01612da9565b92506130846101e08b01612da9565b91506130936102008b01612da9565b90509295985092959850929598565b6000806000606084860312156130b757600080fd5b505081359360208301359350604090920135919050565b6000602082840312156130e057600080fd5b81356130eb81612d91565b9392505050565b6000806040838503121561310557600080fd5b823561311081612d91565b91506020830135612e0081612d91565b60005b8381101561313b578181015183820152602001613123565b50506000910152565b6020815260008251806020840152613163816040850160208701613120565b601f01601f19169190910160400192915050565b60006020828403121561318957600080fd5b5051919050565b6000602082840312156131a257600080fd5b81516130eb81612d91565b6000602082840312156131bf57600080fd5b81516130eb81612db9565b634e487b7160e01b600052601160045260246000fd5b8082018082111561188b5761188b6131ca565b808202811582820484141761188b5761188b6131ca565b60008261322757634e487b7160e01b600052601260045260246000fd5b500490565b8181038181111561188b5761188b6131ca565b60006020828403121561325157600080fd5b815160ff811681146130eb57600080fd5b600181815b8085111561329d578160001904821115613283576132836131ca565b8085161561329057918102915b93841c9390800290613267565b509250929050565b6000826132b45750600161188b565b816132c15750600061188b565b81600181146132d757600281146132e1576132fd565b600191505061188b565b60ff8411156132f2576132f26131ca565b50506001821b61188b565b5060208310610133831016604e8410600b8410161715613320575081810a61188b565b61332a8383613262565b806000190482111561333e5761333e6131ca565b029392505050565b60006130eb60ff8416836132a5565b805169ffffffffffffffffffff81168114612db457600080fd5b600080600080600060a0868803121561338757600080fd5b61339086613355565b94506020860151935060408601519250606086015191506133b360808701613355565b90509295509295909350565b60008060008060008060c087890312156133d857600080fd5b865195506020870151945060408701519350606087015192506080870151915060a087015190509295509295509295565b60006020828403121561341b57600080fd5b815162ffffff811681146130eb57600080fd5b60e0810161188b82846001600160a01b0380825116835280602083015116602084015262ffffff60408301511660408401528060608301511660608401526080820151608084015260a082015160a08401528060c08301511660c0840152505050565b600080600080608085870312156134a757600080fd5b8451935060208501516134b981612d91565b604086015190935063ffffffff811681146134d357600080fd5b6060959095015193969295505050565b600082516134f5818460208701613120565b919091019291505056fea2646970667358221220403c69655efc4600bc540eaafc1adeb774fc089cb8a35b930bf72cae73ef14a164736f6c63430008180033",
  "linkReferences": {},
  "deployedLinkReferences": {}
}