{
  "_format": "hh-sol-artifact-1",
  "contractName": "CCFLLoan",
  "sourceName": "contracts/CCFLLoan.sol",
  "abi": [
    {
      "inputs": [],
      "stateMutability": "nonpayable",
      "type": "constructor"
    },
    {
      "inputs": [],
      "name": "InvalidInitialization",
      "type": "error"
    },
    {
      "inputs": [],
      "name": "NotInitializing",
      "type": "error"
    },
    {
      "anonymous": false,
      "inputs": [
        {
          "indexed": false,
          "internalType": "uint64",
          "name": "version",
          "type": "uint64"
        }
      ],
      "name": "Initialized",
      "type": "event"
    },
    {
      "anonymous": false,
      "inputs": [
        {
          "indexed": true,
          "internalType": "address",
          "name": "onBehalfOf",
          "type": "address"
        },
        {
          "indexed": true,
          "internalType": "address",
          "name": "_token",
          "type": "address"
        },
        {
          "indexed": false,
          "internalType": "uint256",
          "name": "_amount",
          "type": "uint256"
        }
      ],
      "name": "LiquiditySupplied",
      "type": "event"
    },
    {
      "anonymous": false,
      "inputs": [
        {
          "indexed": true,
          "internalType": "address",
          "name": "to",
          "type": "address"
        },
        {
          "indexed": true,
          "internalType": "address",
          "name": "_token",
          "type": "address"
        },
        {
          "indexed": false,
          "internalType": "uint256",
          "name": "_amount",
          "type": "uint256"
        }
      ],
      "name": "LiquidityWithdrawn",
      "type": "event"
    },
    {
      "inputs": [],
      "name": "LTV",
      "outputs": [
        {
          "internalType": "uint256",
          "name": "",
          "type": "uint256"
        }
      ],
      "stateMutability": "view",
      "type": "function"
    },
    {
      "inputs": [],
      "name": "aToken",
      "outputs": [
        {
          "internalType": "contract IERC20Standard",
          "name": "",
          "type": "address"
        }
      ],
      "stateMutability": "view",
      "type": "function"
    },
    {
      "inputs": [],
      "name": "aaveAddressProvider",
      "outputs": [
        {
          "internalType": "contract IPoolAddressesProvider",
          "name": "",
          "type": "address"
        }
      ],
      "stateMutability": "view",
      "type": "function"
    },
    {
      "inputs": [
        {
          "internalType": "uint256",
          "name": "_currentDebt",
          "type": "uint256"
        },
        {
          "internalType": "uint256",
          "name": "_amountOut",
          "type": "uint256"
        }
      ],
      "name": "calculateLiquidation",
      "outputs": [
        {
          "internalType": "uint256",
          "name": "",
          "type": "uint256"
        },
        {
          "internalType": "uint256",
          "name": "",
          "type": "uint256"
        },
        {
          "internalType": "uint256",
          "name": "",
          "type": "uint256"
        },
        {
          "internalType": "uint256",
          "name": "",
          "type": "uint256"
        }
      ],
      "stateMutability": "view",
      "type": "function"
    },
    {
      "inputs": [
        {
          "internalType": "uint256",
          "name": "_currentDebt",
          "type": "uint256"
        }
      ],
      "name": "calculateSwap",
      "outputs": [
        {
          "internalType": "uint256",
          "name": "",
          "type": "uint256"
        },
        {
          "internalType": "uint256",
          "name": "",
          "type": "uint256"
        }
      ],
      "stateMutability": "nonpayable",
      "type": "function"
    },
    {
      "inputs": [],
      "name": "ccfl",
      "outputs": [
        {
          "internalType": "address",
          "name": "",
          "type": "address"
        }
      ],
      "stateMutability": "view",
      "type": "function"
    },
    {
      "inputs": [],
      "name": "closeLoan",
      "outputs": [
        {
          "internalType": "uint256",
          "name": "",
          "type": "uint256"
        },
        {
          "internalType": "uint256",
          "name": "",
          "type": "uint256"
        }
      ],
      "stateMutability": "nonpayable",
      "type": "function"
    },
    {
      "inputs": [],
      "name": "collateralAmount",
      "outputs": [
        {
          "internalType": "uint256",
          "name": "",
          "type": "uint256"
        }
      ],
      "stateMutability": "view",
      "type": "function"
    },
    {
      "inputs": [],
      "name": "collateralToken",
      "outputs": [
        {
          "internalType": "contract IERC20Standard",
          "name": "",
          "type": "address"
        }
      ],
      "stateMutability": "view",
      "type": "function"
    },
    {
      "inputs": [],
      "name": "earnBorrower",
      "outputs": [
        {
          "internalType": "uint256",
          "name": "",
          "type": "uint256"
        }
      ],
      "stateMutability": "view",
      "type": "function"
    },
    {
      "inputs": [],
      "name": "earnLender",
      "outputs": [
        {
          "internalType": "uint256",
          "name": "",
          "type": "uint256"
        }
      ],
      "stateMutability": "view",
      "type": "function"
    },
    {
      "inputs": [],
      "name": "earnPlatform",
      "outputs": [
        {
          "internalType": "uint256",
          "name": "",
          "type": "uint256"
        }
      ],
      "stateMutability": "view",
      "type": "function"
    },
    {
      "inputs": [],
      "name": "factory",
      "outputs": [
        {
          "internalType": "contract IUniswapV3Factory",
          "name": "",
          "type": "address"
        }
      ],
      "stateMutability": "view",
      "type": "function"
    },
    {
      "inputs": [],
      "name": "feeTier",
      "outputs": [
        {
          "internalType": "uint24",
          "name": "",
          "type": "uint24"
        }
      ],
      "stateMutability": "view",
      "type": "function"
    },
    {
      "inputs": [],
      "name": "getCollateralAmount",
      "outputs": [
        {
          "internalType": "uint256",
          "name": "",
          "type": "uint256"
        }
      ],
      "stateMutability": "view",
      "type": "function"
    },
    {
      "inputs": [],
      "name": "getCollateralToken",
      "outputs": [
        {
          "internalType": "contract IERC20Standard",
          "name": "",
          "type": "address"
        }
      ],
      "stateMutability": "view",
      "type": "function"
    },
    {
      "inputs": [
        {
          "internalType": "uint256",
          "name": "currentDebt",
          "type": "uint256"
        },
        {
          "internalType": "uint256",
          "name": "addCollateral",
          "type": "uint256"
        }
      ],
      "name": "getHealthFactor",
      "outputs": [
        {
          "internalType": "uint256",
          "name": "",
          "type": "uint256"
        }
      ],
      "stateMutability": "view",
      "type": "function"
    },
    {
      "inputs": [],
      "name": "getIsYeild",
      "outputs": [
        {
          "internalType": "bool",
          "name": "",
          "type": "bool"
        }
      ],
      "stateMutability": "view",
      "type": "function"
    },
    {
      "inputs": [
        {
          "internalType": "contract IERC20Standard",
          "name": "_coin",
          "type": "address"
        },
        {
          "internalType": "bool",
          "name": "isPool",
          "type": "bool"
        }
      ],
      "name": "getLatestPrice",
      "outputs": [
        {
          "internalType": "uint256",
          "name": "",
          "type": "uint256"
        }
      ],
      "stateMutability": "view",
      "type": "function"
    },
    {
      "inputs": [],
      "name": "getLoanInfo",
      "outputs": [
        {
          "components": [
            {
              "internalType": "uint256",
              "name": "loanId",
              "type": "uint256"
            },
            {
              "internalType": "bool",
              "name": "isPaid",
              "type": "bool"
            },
            {
              "internalType": "uint256",
              "name": "amount",
              "type": "uint256"
            },
            {
              "internalType": "bool",
              "name": "isClosed",
              "type": "bool"
            },
            {
              "internalType": "address",
              "name": "borrower",
              "type": "address"
            },
            {
              "internalType": "bool",
              "name": "isLiquidated",
              "type": "bool"
            },
            {
              "internalType": "contract IERC20Standard",
              "name": "stableCoin",
              "type": "address"
            },
            {
              "internalType": "bool",
              "name": "isFinalty",
              "type": "bool"
            },
            {
              "internalType": "bool",
              "name": "isFiat",
              "type": "bool"
            },
            {
              "internalType": "uint256",
              "name": "closedAmount",
              "type": "uint256"
            }
          ],
          "internalType": "struct DataTypes.Loan",
          "name": "",
          "type": "tuple"
        }
      ],
      "stateMutability": "view",
      "type": "function"
    },
    {
      "inputs": [
        {
          "internalType": "address",
          "name": "user",
          "type": "address"
        }
      ],
      "name": "getUserAccountData",
      "outputs": [
        {
          "internalType": "uint256",
          "name": "totalCollateralBase",
          "type": "uint256"
        },
        {
          "internalType": "uint256",
          "name": "totalDebtBase",
          "type": "uint256"
        },
        {
          "internalType": "uint256",
          "name": "availableBorrowsBase",
          "type": "uint256"
        },
        {
          "internalType": "uint256",
          "name": "currentLiquidationThreshold",
          "type": "uint256"
        },
        {
          "internalType": "uint256",
          "name": "ltv",
          "type": "uint256"
        },
        {
          "internalType": "uint256",
          "name": "healthFactor",
          "type": "uint256"
        }
      ],
      "stateMutability": "view",
      "type": "function"
    },
    {
      "inputs": [
        {
          "internalType": "uint256",
          "name": "_earnBorrower",
          "type": "uint256"
        }
      ],
      "name": "getYieldEarned",
      "outputs": [
        {
          "internalType": "uint256",
          "name": "",
          "type": "uint256"
        }
      ],
      "stateMutability": "view",
      "type": "function"
    },
    {
      "inputs": [],
      "name": "initLoan",
      "outputs": [
        {
          "internalType": "uint256",
          "name": "loanId",
          "type": "uint256"
        },
        {
          "internalType": "bool",
          "name": "isPaid",
          "type": "bool"
        },
        {
          "internalType": "uint256",
          "name": "amount",
          "type": "uint256"
        },
        {
          "internalType": "bool",
          "name": "isClosed",
          "type": "bool"
        },
        {
          "internalType": "address",
          "name": "borrower",
          "type": "address"
        },
        {
          "internalType": "bool",
          "name": "isLiquidated",
          "type": "bool"
        },
        {
          "internalType": "contract IERC20Standard",
          "name": "stableCoin",
          "type": "address"
        },
        {
          "internalType": "bool",
          "name": "isFinalty",
          "type": "bool"
        },
        {
          "internalType": "bool",
          "name": "isFiat",
          "type": "bool"
        },
        {
          "internalType": "uint256",
          "name": "closedAmount",
          "type": "uint256"
        }
      ],
      "stateMutability": "view",
      "type": "function"
    },
    {
      "inputs": [
        {
          "components": [
            {
              "internalType": "uint256",
              "name": "loanId",
              "type": "uint256"
            },
            {
              "internalType": "bool",
              "name": "isPaid",
              "type": "bool"
            },
            {
              "internalType": "uint256",
              "name": "amount",
              "type": "uint256"
            },
            {
              "internalType": "bool",
              "name": "isClosed",
              "type": "bool"
            },
            {
              "internalType": "address",
              "name": "borrower",
              "type": "address"
            },
            {
              "internalType": "bool",
              "name": "isLiquidated",
              "type": "bool"
            },
            {
              "internalType": "contract IERC20Standard",
              "name": "stableCoin",
              "type": "address"
            },
            {
              "internalType": "bool",
              "name": "isFinalty",
              "type": "bool"
            },
            {
              "internalType": "bool",
              "name": "isFiat",
              "type": "bool"
            },
            {
              "internalType": "uint256",
              "name": "closedAmount",
              "type": "uint256"
            }
          ],
          "internalType": "struct DataTypes.Loan",
          "name": "_loan",
          "type": "tuple"
        },
        {
          "internalType": "contract IERC20Standard",
          "name": "_collateralToken",
          "type": "address"
        },
        {
          "internalType": "contract IPoolAddressesProvider",
          "name": "_aaveAddressProvider",
          "type": "address"
        },
        {
          "internalType": "contract IERC20Standard",
          "name": "_aToken",
          "type": "address"
        },
        {
          "internalType": "uint256",
          "name": "_ltv",
          "type": "uint256"
        },
        {
          "internalType": "uint256",
          "name": "_threshold",
          "type": "uint256"
        },
        {
          "internalType": "contract AggregatorV3Interface",
          "name": "_priceFeed",
          "type": "address"
        },
        {
          "internalType": "contract AggregatorV3Interface",
          "name": "_pricePoolFeed",
          "type": "address"
        },
        {
          "internalType": "contract IWETH",
          "name": "_iWETH",
          "type": "address"
        }
      ],
      "name": "initialize",
      "outputs": [],
      "stateMutability": "nonpayable",
      "type": "function"
    },
    {
      "inputs": [],
      "name": "isStakeAave",
      "outputs": [
        {
          "internalType": "bool",
          "name": "",
          "type": "bool"
        }
      ],
      "stateMutability": "view",
      "type": "function"
    },
    {
      "inputs": [
        {
          "internalType": "uint256",
          "name": "_currentDebt",
          "type": "uint256"
        }
      ],
      "name": "liquidate",
      "outputs": [
        {
          "internalType": "uint256",
          "name": "",
          "type": "uint256"
        },
        {
          "internalType": "uint256",
          "name": "",
          "type": "uint256"
        },
        {
          "internalType": "uint256",
          "name": "",
          "type": "uint256"
        },
        {
          "internalType": "uint256",
          "name": "",
          "type": "uint256"
        }
      ],
      "stateMutability": "nonpayable",
      "type": "function"
    },
    {
      "inputs": [],
      "name": "liquidationThreshold",
      "outputs": [
        {
          "internalType": "uint256",
          "name": "",
          "type": "uint256"
        }
      ],
      "stateMutability": "view",
      "type": "function"
    },
    {
      "inputs": [],
      "name": "owner",
      "outputs": [
        {
          "internalType": "address",
          "name": "",
          "type": "address"
        }
      ],
      "stateMutability": "view",
      "type": "function"
    },
    {
      "inputs": [],
      "name": "penaltyLender",
      "outputs": [
        {
          "internalType": "uint256",
          "name": "",
          "type": "uint256"
        }
      ],
      "stateMutability": "view",
      "type": "function"
    },
    {
      "inputs": [],
      "name": "penaltyLiquidator",
      "outputs": [
        {
          "internalType": "uint256",
          "name": "",
          "type": "uint256"
        }
      ],
      "stateMutability": "view",
      "type": "function"
    },
    {
      "inputs": [],
      "name": "penaltyPlatform",
      "outputs": [
        {
          "internalType": "uint256",
          "name": "",
          "type": "uint256"
        }
      ],
      "stateMutability": "view",
      "type": "function"
    },
    {
      "inputs": [],
      "name": "platform",
      "outputs": [
        {
          "internalType": "address",
          "name": "",
          "type": "address"
        }
      ],
      "stateMutability": "view",
      "type": "function"
    },
    {
      "inputs": [],
      "name": "priceFeed",
      "outputs": [
        {
          "internalType": "contract AggregatorV3Interface",
          "name": "",
          "type": "address"
        }
      ],
      "stateMutability": "view",
      "type": "function"
    },
    {
      "inputs": [],
      "name": "pricePoolFeed",
      "outputs": [
        {
          "internalType": "contract AggregatorV3Interface",
          "name": "",
          "type": "address"
        }
      ],
      "stateMutability": "view",
      "type": "function"
    },
    {
      "inputs": [],
      "name": "quoter",
      "outputs": [
        {
          "internalType": "contract IQuoterV2",
          "name": "",
          "type": "address"
        }
      ],
      "stateMutability": "view",
      "type": "function"
    },
    {
      "inputs": [
        {
          "internalType": "address",
          "name": "_ccfl",
          "type": "address"
        }
      ],
      "name": "setCCFL",
      "outputs": [],
      "stateMutability": "nonpayable",
      "type": "function"
    },
    {
      "inputs": [
        {
          "internalType": "uint256",
          "name": "_borrower",
          "type": "uint256"
        },
        {
          "internalType": "uint256",
          "name": "_platform",
          "type": "uint256"
        },
        {
          "internalType": "uint256",
          "name": "_lender",
          "type": "uint256"
        }
      ],
      "name": "setEarnShare",
      "outputs": [],
      "stateMutability": "nonpayable",
      "type": "function"
    },
    {
      "inputs": [],
      "name": "setPaid",
      "outputs": [],
      "stateMutability": "nonpayable",
      "type": "function"
    },
    {
      "inputs": [
        {
          "internalType": "uint256",
          "name": "_platform",
          "type": "uint256"
        },
        {
          "internalType": "uint256",
          "name": "_liquidator",
          "type": "uint256"
        },
        {
          "internalType": "uint256",
          "name": "_lender",
          "type": "uint256"
        }
      ],
      "name": "setPenalty",
      "outputs": [],
      "stateMutability": "nonpayable",
      "type": "function"
    },
    {
      "inputs": [
        {
          "internalType": "contract IV3SwapRouter",
          "name": "_swapRouter",
          "type": "address"
        },
        {
          "internalType": "contract IUniswapV3Factory",
          "name": "_factory",
          "type": "address"
        },
        {
          "internalType": "contract IQuoterV2",
          "name": "_quoter",
          "type": "address"
        }
      ],
      "name": "setSwapRouter",
      "outputs": [],
      "stateMutability": "nonpayable",
      "type": "function"
    },
    {
      "inputs": [
        {
          "internalType": "uint24",
          "name": "_uniFee",
          "type": "uint24"
        }
      ],
      "name": "setUniFee",
      "outputs": [],
      "stateMutability": "nonpayable",
      "type": "function"
    },
    {
      "inputs": [],
      "name": "shareBorrower",
      "outputs": [
        {
          "internalType": "uint256",
          "name": "",
          "type": "uint256"
        }
      ],
      "stateMutability": "view",
      "type": "function"
    },
    {
      "inputs": [],
      "name": "shareLender",
      "outputs": [
        {
          "internalType": "uint256",
          "name": "",
          "type": "uint256"
        }
      ],
      "stateMutability": "view",
      "type": "function"
    },
    {
      "inputs": [],
      "name": "sharePlatform",
      "outputs": [
        {
          "internalType": "uint256",
          "name": "",
          "type": "uint256"
        }
      ],
      "stateMutability": "view",
      "type": "function"
    },
    {
      "inputs": [],
      "name": "supplyLiquidity",
      "outputs": [],
      "stateMutability": "nonpayable",
      "type": "function"
    },
    {
      "inputs": [],
      "name": "swapRouter",
      "outputs": [
        {
          "internalType": "contract IV3SwapRouter",
          "name": "",
          "type": "address"
        }
      ],
      "stateMutability": "view",
      "type": "function"
    },
    {
      "inputs": [
        {
          "internalType": "uint256",
          "name": "amount",
          "type": "uint256"
        }
      ],
      "name": "updateCollateral",
      "outputs": [],
      "stateMutability": "nonpayable",
      "type": "function"
    },
    {
      "inputs": [],
      "name": "wETH",
      "outputs": [
        {
          "internalType": "contract IWETH",
          "name": "",
          "type": "address"
        }
      ],
      "stateMutability": "view",
      "type": "function"
    },
    {
      "inputs": [
        {
          "internalType": "address",
          "name": "_receiver",
          "type": "address"
        },
        {
          "internalType": "bool",
          "name": "_isETH",
          "type": "bool"
        }
      ],
      "name": "withdrawAllCollateral",
      "outputs": [],
      "stateMutability": "nonpayable",
      "type": "function"
    },
    {
      "inputs": [
        {
          "internalType": "uint256",
          "name": "_earnPlatform",
          "type": "uint256"
        },
        {
          "internalType": "uint256",
          "name": "_earnBorrower",
          "type": "uint256"
        },
        {
          "internalType": "uint256",
          "name": "_earnLender",
          "type": "uint256"
        }
      ],
      "name": "withdrawLiquidity",
      "outputs": [],
      "stateMutability": "nonpayable",
      "type": "function"
    },
    {
      "stateMutability": "payable",
      "type": "receive"
    }
  ],
  "bytecode": "0x60806040526003805462ffffff60a01b191661017760a31b17905534801561002657600080fd5b5061358b806100366000396000f3fe60806040526004361061032d5760003560e01c80636cb0ab5e116101a5578063a58bab62116100ec578063c45a015511610095578063f24286211161006f578063f242862114610a9b578063f3cf4ada14610abb578063f6597bbb14610adb578063fab320e914610af157600080fd5b8063c45a015514610a3b578063c6bbd5a714610a5b578063cdaabe4114610a7b57600080fd5b8063b3bffeaa116100c6578063b3bffeaa146109ae578063bf92857c146109ce578063c31c9c0714610a1b57600080fd5b8063a58bab6214610962578063a95d713214610978578063b2016bd41461098e57600080fd5b8063894059c61161014e57806392d09ceb1161012857806392d09ceb1461090e5780639642366314610924578063a0c1f15e1461094257600080fd5b8063894059c6146108ae5780638ac1b775146108ce5780638da5cb5b146108ee57600080fd5b8063792f436f1161017f578063792f436f146107bd5780637ce67d60146107d3578063805a288f1461088e57600080fd5b80636cb0ab5e1461074657806372f5d98a14610766578063741bef1a1461079d57600080fd5b80633a0720e61161027457806358b275d71161021d5780636721de26116101f75780636721de26146106c657806368dcad58146106e657806369fa97c0146107065780636a7b35db1461072657600080fd5b806358b275d71461058e5780635d3e2fa1146105ae57806362965d8e146106b057600080fd5b80634bde38c81161024e5780634bde38c8146105165780634d2c872a1461054e5780635825f5351461056e57600080fd5b80633a0720e6146104aa5780634031234c146104c0578063415f1240146104d657600080fd5b80631c783def116102d6578063315deeaa116102b0578063315deeaa1461045f57806332df398e146104745780633666eefa1461048a57600080fd5b80631c783def14610400578063232fa7331461041f578063288cc89e1461044957600080fd5b8063102cb82e11610307578063102cb82e1461038f57806310ac5c3c146103af57806311256603146103cf57600080fd5b806305b57c0b1461033957806307a6bf6914610362578063101b9d311461037957600080fd5b3661033457005b600080fd5b34801561034557600080fd5b5061034f601a5481565b6040519081526020015b60405180910390f35b34801561036e57600080fd5b50610377610b06565b005b34801561038557600080fd5b5061034f601d5481565b34801561039b57600080fd5b506103776103aa366004612e09565b610df0565b3480156103bb57600080fd5b506103776103ca366004612e42565b611130565b3480156103db57600080fd5b506002546103f090600160a01b900460ff1681565b6040519015158152602001610359565b34801561040c57600080fd5b50600254600160a01b900460ff166103f0565b34801561042b57600080fd5b506104346111c1565b60408051928352602083019190915201610359565b34801561045557600080fd5b5061034f60185481565b34801561046b57600080fd5b5060085461034f565b34801561048057600080fd5b5061034f60155481565b34801561049657600080fd5b506104346104a5366004612e8d565b611473565b3480156104b657600080fd5b5061034f60175481565b3480156104cc57600080fd5b5061034f60065481565b3480156104e257600080fd5b506104f66104f1366004612e8d565b6115ae565b604080519485526020850193909352918301526060820152608001610359565b34801561052257600080fd5b50601354610536906001600160a01b031681565b6040516001600160a01b039091168152602001610359565b34801561055a57600080fd5b5061034f610569366004612ea6565b6117ec565b34801561057a57600080fd5b50601254610536906001600160a01b031681565b34801561059a57600080fd5b506104f66105a9366004612ea6565b6119b8565b3480156105ba57600080fd5b506106a36040805161014081018252600080825260208201819052918101829052606081018290526080810182905260a0810182905260c0810182905260e081018290526101008101829052610120810191909152506040805161014081018252600a548152600b5460ff90811615156020830152600c5492820192909252600d54808316151560608301526001600160a01b0361010080830482166080850152600160a81b928390048516151560a0850152600e5491821660c0850152600160a01b82048516151560e0850152919004909216151591810191909152600f5461012082015290565b6040516103599190612ec8565b3480156106bc57600080fd5b5061034f60075481565b3480156106d257600080fd5b506103776106e1366004612e8d565b611aaa565b3480156106f257600080fd5b50601154610536906001600160a01b031681565b34801561071257600080fd5b5061034f610721366004612e8d565b611b09565b34801561073257600080fd5b50610377610741366004612fb9565b611bad565b34801561075257600080fd5b50610377610761366004613100565b611f27565b34801561077257600080fd5b5060035461078990600160a01b900462ffffff1681565b60405162ffffff9091168152602001610359565b3480156107a957600080fd5b50601054610536906001600160a01b031681565b3480156107c957600080fd5b5061034f60195481565b3480156107df57600080fd5b50600a54600b54600c54600d54600e54600f54610834959460ff9081169493808216936001600160a01b036101008304811694600160a81b9384900485169491831693600160a01b840483169304909116908a565b604080519a8b5298151560208b01529789019690965293151560608801526001600160a01b03928316608088015290151560a08701521660c0850152151560e0840152151561010083015261012082015261014001610359565b34801561089a57600080fd5b506103776108a936600461313d565b611f7a565b3480156108ba57600080fd5b506103776108c9366004613100565b612003565b3480156108da57600080fd5b506103776108e9366004613161565b612385565b3480156108fa57600080fd5b50600054610536906001600160a01b031681565b34801561091a57600080fd5b5061034f60085481565b34801561093057600080fd5b506009546001600160a01b0316610536565b34801561094e57600080fd5b50600254610536906001600160a01b031681565b34801561096e57600080fd5b5061034f601c5481565b34801561098457600080fd5b5061034f60165481565b34801561099a57600080fd5b50600954610536906001600160a01b031681565b3480156109ba57600080fd5b5061034f6109c9366004612e09565b6123f9565b3480156109da57600080fd5b506109ee6109e9366004613161565b6124f0565b604080519687526020870195909552938501929092526060840152608083015260a082015260c001610359565b348015610a2757600080fd5b50600354610536906001600160a01b031681565b348015610a4757600080fd5b50600454610536906001600160a01b031681565b348015610a6757600080fd5b50600554610536906001600160a01b031681565b348015610a8757600080fd5b50600154610536906001600160a01b031681565b348015610aa757600080fd5b50601454610536906001600160a01b031681565b348015610ac757600080fd5b50610377610ad6366004613100565b61260e565b348015610ae757600080fd5b5061034f601b5481565b348015610afd57600080fd5b5061037761265e565b6000546040805180820190915260018152601960f91b6020820152906001600160a01b03163314610b535760405162461bcd60e51b8152600401610b4a91906131a2565b60405180910390fd5b506009546040516370a0823160e01b81523060048201526001600160a01b039091169060009082906370a0823190602401602060405180830381865afa158015610ba1573d6000803e3d6000fd5b505050506040513d601f19601f82011682018060405250810190610bc591906131d5565b90506000811160405180604001604052806002815260200161031360f41b81525090610c045760405162461bcd60e51b8152600401610b4a91906131a2565b506000309050600080600160009054906101000a90046001600160a01b03166001600160a01b031663026b1d5f6040518163ffffffff1660e01b8152600401602060405180830381865afa158015610c60573d6000803e3d6000fd5b505050506040513d601f19601f82011682018060405250810190610c8491906131ee565b60405163095ea7b360e01b81526001600160a01b038083166004830152602482018790529192509086169063095ea7b3906044016020604051808303816000875af1158015610cd7573d6000803e3d6000fd5b505050506040513d601f19601f82011682018060405250810190610cfb919061320b565b506040517f617ba0370000000000000000000000000000000000000000000000000000000081526001600160a01b03868116600483015260248201869052848116604483015261ffff8416606483015282169063617ba03790608401600060405180830381600087803b158015610d7157600080fd5b505af1158015610d85573d6000803e3d6000fd5b50505050846001600160a01b0316836001600160a01b03167f51a2b359618aeb0bcc2a495a6667c0bdbfddc3bb27eb0dd5b8e3b33a4c15865f86604051610dce91815260200190565b60405180910390a350506002805460ff60a01b1916600160a01b179055505050565b6000546040805180820190915260018152601960f91b6020820152906001600160a01b03163314610e345760405162461bcd60e51b8152600401610b4a91906131a2565b50600d5460ff1615156001148015610e565750600e54600160a01b900460ff16155b6040518060400160405280600281526020017f313200000000000000000000000000000000000000000000000000000000000081525090610eaa5760405162461bcd60e51b8152600401610b4a91906131a2565b50801561101a576014546009546040516370a0823160e01b81523060048201526001600160a01b0392831692632e1a7d4d9216906370a0823190602401602060405180830381865afa158015610f04573d6000803e3d6000fd5b505050506040513d601f19601f82011682018060405250810190610f2891906131d5565b6040518263ffffffff1660e01b8152600401610f4691815260200190565b600060405180830381600087803b158015610f6057600080fd5b505af1158015610f74573d6000803e3d6000fd5b50506009546040516370a0823160e01b81523060048201526001600160a01b0386811694506108fc9350909116906370a0823190602401602060405180830381865afa158015610fc8573d6000803e3d6000fd5b505050506040513d601f19601f82011682018060405250810190610fec91906131d5565b6040518115909202916000818181858888f19350505050158015611014573d6000803e3d6000fd5b50611119565b6009546040516370a0823160e01b81523060048201526001600160a01b039091169063a9059cbb90849083906370a0823190602401602060405180830381865afa15801561106c573d6000803e3d6000fd5b505050506040513d601f19601f8201168201806040525081019061109091906131d5565b6040517fffffffff0000000000000000000000000000000000000000000000000000000060e085901b1681526001600160a01b03909216600483015260248201526044016020604051808303816000875af11580156110f3573d6000803e3d6000fd5b505050506040513d601f19601f82011682018060405250810190611117919061320b565b505b5050600e805460ff60a01b1916600160a01b179055565b6000546040805180820190915260018152601960f91b6020820152906001600160a01b031633146111745760405162461bcd60e51b8152600401610b4a91906131a2565b50600380546001600160a01b0394851673ffffffffffffffffffffffffffffffffffffffff1991821617909155600480549385169382169390931790925560058054919093169116179055565b600080546040805180820190915260018152601960f91b602082015282916001600160a01b031633146112075760405162461bcd60e51b8152600401610b4a91906131a2565b50600d805460ff19166001179055600c54600f55600254600160a01b900460ff16156112b0576002546040516370a0823160e01b81523060048201526001600160a01b03909116906370a0823190602401602060405180830381865afa158015611275573d6000803e3d6000fd5b505050506040513d601f19601f8201168201806040525081019061129991906131d5565b600f556015546016546017546112b0929190612003565b60006018546019546112c2919061323e565b1115611468576009546003546018546019546001600160a01b039384169363095ea7b39316916112f19161323e565b6040517fffffffff0000000000000000000000000000000000000000000000000000000060e085901b1681526001600160a01b03909216600483015260248201526044016020604051808303816000875af1158015611354573d6000803e3d6000fd5b505050506040513d601f19601f82011682018060405250810190611378919061320b565b5060006113a660185460195461138e919061323e565b600e546009546001600160a01b0391821691166126b2565b600e5460125460405163095ea7b360e01b81526001600160a01b03918216600482015260248101849052929350169063095ea7b3906044016020604051808303816000875af11580156113fd573d6000803e3d6000fd5b505050506040513d601f19601f82011682018060405250810190611421919061320b565b506000601554601754611434919061323e565b826017546114429190613251565b61144c9190613268565b9050600061145a828461328a565b91945090925061146f915050565b5060009050805b9091565b6000806000601b54601c54601d5461148b919061323e565b611495919061323e565b90506000806018546019546114aa919061323e565b11156114de576114db6018546019546114c3919061323e565b600954600e546001600160a01b03918216911661289a565b90505b60006127106114ed8488613251565b6114f79190613268565b9050600082611506838961323e565b611510919061323e565b6009546040516370a0823160e01b81523060048201529192506000916115a09184916001600160a01b03909116906370a0823190602401602060405180830381865afa158015611564573d6000803e3d6000fd5b505050506040513d601f19601f8201168201806040525081019061158891906131d5565b600e546009546001600160a01b039182169116612a90565b989397509295505050505050565b600080546040805180820190915260018152601960f91b60208201528291829182916001600160a01b031633146115f85760405162461bcd60e51b8152600401610b4a91906131a2565b5060646116068660006117ec565b106040518060400160405280600281526020017f31310000000000000000000000000000000000000000000000000000000000008152509061165b5760405162461bcd60e51b8152600401610b4a91906131a2565b50600c54600f55600254600160a01b900460ff16156116f7576002546040516370a0823160e01b81523060048201526001600160a01b03909116906370a0823190602401602060405180830381865afa1580156116bc573d6000803e3d6000fd5b505050506040513d601f19601f820116820180604052508101906116e091906131d5565b600f556015546016546017546116f7929190612003565b60008061170387611473565b915091506000806000806117178b866119b8565b600d80547fffffffffffffffffffff00ffffffffffffffffffffffffffffffffffffffff00167501000000000000000000000000000000000000000001179055600e5460125460405163095ea7b360e01b81526001600160a01b039182166004820152602481018d90529599509397509195509350169063095ea7b3906044016020604051808303816000875af11580156117b6573d6000803e3d6000fd5b505050506040513d601f19601f820116820180604052508101906117da919061320b565b50929a91995097509095509350505050565b600e546000908190611808906001600160a01b031660016123f9565b90506000808460085461181b919061323e565b6009549091506001600160a01b031681156118e957600061183d8260006123f9565b9050816001600160a01b031663313ce5676040518163ffffffff1660e01b8152600401602060405180830381865afa15801561187d573d6000803e3d6000fd5b505050506040513d601f19601f820116820180604052508101906118a1919061329d565b6118ac90600a6133a4565b600654612710906118bd8487613251565b6118c79190613251565b6118d19190613268565b6118db9190613268565b6118e5908561323e565b9350505b600e54604080517f313ce56700000000000000000000000000000000000000000000000000000000815290516000926001600160a01b03169163313ce5679160048281019260209291908290030181865afa15801561194c573d6000803e3d6000fd5b505050506040513d601f19601f82011682018060405250810190611970919061329d565b61197b90600a6133a4565b611985868a613251565b61198f9190613268565b905060008161199f866064613251565b6119a99190613268565b96505050505050505b92915050565b6000806000806000601b54601c54601d546119d3919061323e565b6119dd919061323e565b905060006127106119ee838a613251565b6119f89190613268565b9050600082601d5483611a0b9190613251565b611a159190613268565b9050600083601b5484611a289190613251565b611a329190613268565b9050600081611a41848661328a565b611a4b919061328a565b90506000601554601754611a5f919061323e565b601754611a6c908d613251565b611a769190613268565b90506000611a84828d61328a565b90508482611a92838761323e565b919f909e50909c50929a509198505050505050505050565b6000546040805180820190915260018152601960f91b6020820152906001600160a01b03163314611aee5760405162461bcd60e51b8152600401610b4a91906131a2565b508060086000828254611b01919061323e565b909155505050565b6002546040516370a0823160e01b815230600482015260009182916001600160a01b03909116906370a0823190602401602060405180830381865afa158015611b56573d6000803e3d6000fd5b505050506040513d601f19601f82011682018060405250810190611b7a91906131d5565b9050600060085482611b8c919061328a565b9050612710611b9b8583613251565b611ba59190613268565b949350505050565b7ff0c57e16840df040f15088dc2f81fe391c3923bec73e23a9662efc9c229c6a00805468010000000000000000810460ff16159067ffffffffffffffff16600081158015611bf85750825b905060008267ffffffffffffffff166001148015611c155750303b155b905081158015611c23575080155b15611c5a576040517ff92ee8a900000000000000000000000000000000000000000000000000000000815260040160405180910390fd5b845467ffffffffffffffff191660011785558315611c8e57845468ff00000000000000001916680100000000000000001785555b336000806101000a8154816001600160a01b0302191690836001600160a01b031602179055508d600a6000820151816000015560208201518160010160006101000a81548160ff0219169083151502179055506040820151816002015560608201518160030160006101000a81548160ff02191690831515021790555060808201518160030160016101000a8154816001600160a01b0302191690836001600160a01b0316021790555060a08201518160030160156101000a81548160ff02191690831515021790555060c08201518160040160006101000a8154816001600160a01b0302191690836001600160a01b0316021790555060e08201518160040160146101000a81548160ff0219169083151502179055506101008201518160040160156101000a81548160ff02191690831515021790555061012082015181600501559050508c600960006101000a8154816001600160a01b0302191690836001600160a01b031602179055508b600160006101000a8154816001600160a01b0302191690836001600160a01b0316021790555089600781905550886006819055508a600260006101000a8154816001600160a01b0302191690836001600160a01b0316021790555087601060006101000a8154816001600160a01b0302191690836001600160a01b0316021790555086601160006101000a8154816001600160a01b0302191690836001600160a01b0316021790555085601460006101000a8154816001600160a01b0302191690836001600160a01b031602179055508315611f1757845468ff000000000000000019168555604051600181527fc7f505b2f371ae2175ee4913f4499e1f2633a7b5936321eed1cdaeb6115181d29060200160405180910390a15b5050505050505050505050505050565b6000546040805180820190915260018152601960f91b6020820152906001600160a01b03163314611f6b5760405162461bcd60e51b8152600401610b4a91906131a2565b50601755601691909155601555565b6000546040805180820190915260018152601960f91b6020820152906001600160a01b03163314611fbe5760405162461bcd60e51b8152600401610b4a91906131a2565b5062ffffff81161561200057600380547fffffffffffffffffff000000ffffffffffffffffffffffffffffffffffffffff16600160a01b62ffffff8416021790555b50565b6000546040805180820190915260018152601960f91b6020820152906001600160a01b031633146120475760405162461bcd60e51b8152600401610b4a91906131a2565b506009546002546040516370a0823160e01b81523060048201526001600160a01b039283169260009216906370a0823190602401602060405180830381865afa158015612098573d6000803e3d6000fd5b505050506040513d601f19601f820116820180604052508101906120bc91906131d5565b90506000811160405180604001604052806002815260200161031360f41b815250906120fb5760405162461bcd60e51b8152600401610b4a91906131a2565b50600154604080517f026b1d5f00000000000000000000000000000000000000000000000000000000815290516000926001600160a01b03169163026b1d5f9160048083019260209291908290030181865afa15801561215f573d6000803e3d6000fd5b505050506040513d601f19601f8201168201806040525081019061218391906131ee565b6040517f69328dec0000000000000000000000000000000000000000000000000000000081526001600160a01b03858116600483015260248201859052306044830152919250908216906369328dec906064016020604051808303816000875af11580156121f5573d6000803e3d6000fd5b505050506040513d601f19601f8201168201806040525081019061221991906131d5565b506040518281526001600160a01b0384169030907f83aa598dd3e269af677698c6847b3ba594a67d286a771d01099aafa911a91b649060200160405180910390a36002805460ff60a01b191690556009546040516370a0823160e01b81523060048201526000916001600160a01b0316906370a0823190602401602060405180830381865afa1580156122b0573d6000803e3d6000fd5b505050506040513d601f19601f820116820180604052508101906122d491906131d5565b90506000600854826122e6919061328a565b111561237c5761271086600854836122fe919061328a565b6123089190613251565b6123129190613268565b601a5561231f878661323e565b87601a5460085484612331919061328a565b61233b919061328a565b6123459190613251565b61234f9190613268565b6018819055601a54600854612364908461328a565b61236e919061328a565b612378919061328a565b6019555b50505050505050565b6000546040805180820190915260018152601960f91b6020820152906001600160a01b031633146123c95760405162461bcd60e51b8152600401610b4a91906131a2565b506012805473ffffffffffffffffffffffffffffffffffffffff19166001600160a01b0392909216919091179055565b60008115158103612495576000806000806000601060009054906101000a90046001600160a01b03166001600160a01b031663feaf968c6040518163ffffffff1660e01b815260040160a060405180830381865afa15801561245f573d6000803e3d6000fd5b505050506040513d601f19601f8201168201806040525081019061248391906133cd565b509198506119b2975050505050505050565b6000806000806000601160009054906101000a90046001600160a01b03166001600160a01b031663feaf968c6040518163ffffffff1660e01b815260040160a060405180830381865afa15801561245f573d6000803e3d6000fd5b6000806000806000806000600160009054906101000a90046001600160a01b03166001600160a01b031663026b1d5f6040518163ffffffff1660e01b8152600401602060405180830381865afa15801561254e573d6000803e3d6000fd5b505050506040513d601f19601f8201168201806040525081019061257291906131ee565b6040517fbf92857c0000000000000000000000000000000000000000000000000000000081526001600160a01b038a811660048301529192509082169063bf92857c9060240160c060405180830381865afa1580156125d5573d6000803e3d6000fd5b505050506040513d601f19601f820116820180604052508101906125f9919061341d565b949d939c50919a509850965090945092505050565b6000546040805180820190915260018152601960f91b6020820152906001600160a01b031633146126525760405162461bcd60e51b8152600401610b4a91906131a2565b50601d55601c55601b55565b6000546040805180820190915260018152601960f91b6020820152906001600160a01b031633146126a25760405162461bcd60e51b8152600401610b4a91906131a2565b50600b805460ff19166001179055565b6003546000906126cd9083906001600160a01b031686612c9b565b60048054600354604051630b4c774160e11b81526001600160a01b03868116948201949094528684166024820152600160a01b90910462ffffff16604482015260009290911690631698ee8290606401602060405180830381865afa15801561273a573d6000803e3d6000fd5b505050506040513d601f19601f8201168201806040525081019061275e91906131ee565b90506000816001600160a01b031663ddca3f436040518163ffffffff1660e01b8152600401602060405180830381865afa1580156127a0573d6000803e3d6000fd5b505050506040513d601f19601f820116820180604052508101906127c49190613467565b6040805160e0810182526001600160a01b038088168252888116602083015262ffffff841682840152306060830152608082018a9052600060a0830181905260c083015260035492517f04e45aaf00000000000000000000000000000000000000000000000000000000815293945090929116906304e45aaf9061284c908490600401613484565b6020604051808303816000875af115801561286b573d6000803e3d6000fd5b505050506040513d601f19601f8201168201806040525081019061288f91906131d5565b979650505050505050565b60048054600354604051630b4c774160e11b81526001600160a01b03858116948201949094528584166024820152600160a01b90910462ffffff16604482015260009283921690631698ee8290606401602060405180830381865afa158015612907573d6000803e3d6000fd5b505050506040513d601f19601f8201168201806040525081019061292b91906131ee565b90506000816001600160a01b031663ddca3f436040518163ffffffff1660e01b8152600401602060405180830381865afa15801561296d573d6000803e3d6000fd5b505050506040513d601f19601f820116820180604052508101906129919190613467565b6040805160a0810182526001600160a01b038781168252888116602083019081528284018b815262ffffff8681166060860190815260006080870181815260055498517fc6a5026a0000000000000000000000000000000000000000000000000000000081528851881660048201529551871660248701529351604486015290519091166064840152905183166084830152949550919392839283928392169063c6a5026a9060a4016080604051808303816000875af1158015612a59573d6000803e3d6000fd5b505050506040513d601f19601f82011682018060405250810190612a7d91906134e7565b50919d9c50505050505050505050505050565b600354600090612aab9083906001600160a01b031686612c9b565b60048054600354604051630b4c774160e11b81526001600160a01b03868116948201949094528684166024820152600160a01b90910462ffffff16604482015260009290911690631698ee8290606401602060405180830381865afa158015612b18573d6000803e3d6000fd5b505050506040513d601f19601f82011682018060405250810190612b3c91906131ee565b90506000816001600160a01b031663ddca3f436040518163ffffffff1660e01b8152600401602060405180830381865afa158015612b7e573d6000803e3d6000fd5b505050506040513d601f19601f82011682018060405250810190612ba29190613467565b6040805160e0810182526001600160a01b038088168252888116602083015262ffffff841682840152306060830152608082018b905260a082018a9052600060c083015260035492517f5023b4df0000000000000000000000000000000000000000000000000000000081529394509092911690635023b4df90612c2a908490600401613484565b6020604051808303816000875af1158015612c49573d6000803e3d6000fd5b505050506040513d601f19601f82011682018060405250810190612c6d91906131d5565b935086841015612c9057600354612c909086906001600160a01b03166000612c9b565b505050949350505050565b604080516001600160a01b038481166024830152604480830185905283518084039091018152606490920183526020820180517bffffffffffffffffffffffffffffffffffffffffffffffffffffffff1663095ea7b360e01b1790529151600092839290871691612d0c9190613539565b6000604051808303816000865af19150503d8060008114612d49576040519150601f19603f3d011682016040523d82523d6000602084013e612d4e565b606091505b5091509150818015612d78575080511580612d78575080806020019051810190612d78919061320b565b612dc45760405162461bcd60e51b815260206004820152600260248201527f53410000000000000000000000000000000000000000000000000000000000006044820152606401610b4a565b5050505050565b6001600160a01b038116811461200057600080fd5b8035612deb81612dcb565b919050565b801515811461200057600080fd5b8035612deb81612df0565b60008060408385031215612e1c57600080fd5b8235612e2781612dcb565b91506020830135612e3781612df0565b809150509250929050565b600080600060608486031215612e5757600080fd5b8335612e6281612dcb565b92506020840135612e7281612dcb565b91506040840135612e8281612dcb565b809150509250925092565b600060208284031215612e9f57600080fd5b5035919050565b60008060408385031215612eb957600080fd5b50508035926020909101359150565b81518152602080830151610140830191612ee59084018215159052565b50604083015160408301526060830151612f03606084018215159052565b506080830151612f1e60808401826001600160a01b03169052565b5060a0830151612f3260a084018215159052565b5060c0830151612f4d60c08401826001600160a01b03169052565b5060e0830151612f6160e084018215159052565b506101008381015180151584830152505061012092830151919092015290565b604051610140810167ffffffffffffffff81118282101715612fb357634e487b7160e01b600052604160045260246000fd5b60405290565b6000806000806000806000806000898b03610240811215612fd957600080fd5b61014080821215612fe957600080fd5b612ff1612f81565b91508b35825261300360208d01612dfe565b602083015260408c0135604083015261301e60608d01612dfe565b606083015261302f60808d01612de0565b608083015261304060a08d01612dfe565b60a083015261305160c08d01612de0565b60c083015261306260e08d01612dfe565b60e0830152610100613075818e01612dfe565b8184015250610120808d01358184015250819a50613094818d01612de0565b995050506130a56101608b01612de0565b96506130b46101808b01612de0565b95506101a08a013594506101c08a013593506130d36101e08b01612de0565b92506130e26102008b01612de0565b91506130f16102208b01612de0565b90509295985092959850929598565b60008060006060848603121561311557600080fd5b505081359360208301359350604090920135919050565b62ffffff8116811461200057600080fd5b60006020828403121561314f57600080fd5b813561315a8161312c565b9392505050565b60006020828403121561317357600080fd5b813561315a81612dcb565b60005b83811015613199578181015183820152602001613181565b50506000910152565b60208152600082518060208401526131c181604085016020870161317e565b601f01601f19169190910160400192915050565b6000602082840312156131e757600080fd5b5051919050565b60006020828403121561320057600080fd5b815161315a81612dcb565b60006020828403121561321d57600080fd5b815161315a81612df0565b634e487b7160e01b600052601160045260246000fd5b808201808211156119b2576119b2613228565b80820281158282048414176119b2576119b2613228565b60008261328557634e487b7160e01b600052601260045260246000fd5b500490565b818103818111156119b2576119b2613228565b6000602082840312156132af57600080fd5b815160ff8116811461315a57600080fd5b600181815b808511156132fb5781600019048211156132e1576132e1613228565b808516156132ee57918102915b93841c93908002906132c5565b509250929050565b600082613312575060016119b2565b8161331f575060006119b2565b8160018114613335576002811461333f5761335b565b60019150506119b2565b60ff84111561335057613350613228565b50506001821b6119b2565b5060208310610133831016604e8410600b841016171561337e575081810a6119b2565b61338883836132c0565b806000190482111561339c5761339c613228565b029392505050565b600061315a60ff841683613303565b805169ffffffffffffffffffff81168114612deb57600080fd5b600080600080600060a086880312156133e557600080fd5b6133ee866133b3565b9450602086015193506040860151925060608601519150613411608087016133b3565b90509295509295909350565b60008060008060008060c0878903121561343657600080fd5b865195506020870151945060408701519350606087015192506080870151915060a087015190509295509295509295565b60006020828403121561347957600080fd5b815161315a8161312c565b60e081016119b282846001600160a01b0380825116835280602083015116602084015262ffffff60408301511660408401528060608301511660608401526080820151608084015260a082015160a08401528060c08301511660c0840152505050565b600080600080608085870312156134fd57600080fd5b84519350602085015161350f81612dcb565b604086015190935063ffffffff8116811461352957600080fd5b6060959095015193969295505050565b6000825161354b81846020870161317e565b919091019291505056fea2646970667358221220766b17f566294372424bf5cb13537f27301682795be6670b8797cf783fa680f564736f6c63430008180033",
  "linkReferences": {},
  "deployedLinkReferences": {}
}