{
  "_format": "hh-sol-artifact-1",
  "contractName": "CCFLPool",
  "sourceName": "contracts/CCFLPool.sol",
  "abi": [
    {
      "inputs": [],
      "name": "InvalidInitialization",
      "type": "error"
    },
    {
      "inputs": [],
      "name": "NotInitializing",
      "type": "error"
    },
    {
      "inputs": [
        {
          "internalType": "uint8",
          "name": "bits",
          "type": "uint8"
        },
        {
          "internalType": "uint256",
          "name": "value",
          "type": "uint256"
        }
      ],
      "name": "SafeCastOverflowedUintDowncast",
      "type": "error"
    },
    {
      "anonymous": false,
      "inputs": [
        {
          "indexed": true,
          "internalType": "address",
          "name": "lender",
          "type": "address"
        },
        {
          "indexed": true,
          "internalType": "address",
          "name": "poolAddress",
          "type": "address"
        },
        {
          "indexed": true,
          "internalType": "contract IERC20Standard",
          "name": "stableCoin",
          "type": "address"
        },
        {
          "indexed": false,
          "internalType": "uint256",
          "name": "amount",
          "type": "uint256"
        },
        {
          "indexed": false,
          "internalType": "uint256",
          "name": "lenderShare",
          "type": "uint256"
        },
        {
          "indexed": false,
          "internalType": "uint256",
          "name": "totalSupply",
          "type": "uint256"
        },
        {
          "indexed": false,
          "internalType": "uint256",
          "name": "totalLiquidity",
          "type": "uint256"
        },
        {
          "indexed": false,
          "internalType": "uint256",
          "name": "remainingPool",
          "type": "uint256"
        }
      ],
      "name": "AddSupply",
      "type": "event"
    },
    {
      "anonymous": false,
      "inputs": [
        {
          "indexed": false,
          "internalType": "uint64",
          "name": "version",
          "type": "uint64"
        }
      ],
      "name": "Initialized",
      "type": "event"
    },
    {
      "anonymous": false,
      "inputs": [
        {
          "indexed": true,
          "internalType": "address",
          "name": "lender",
          "type": "address"
        },
        {
          "indexed": true,
          "internalType": "address",
          "name": "poolAddress",
          "type": "address"
        },
        {
          "indexed": true,
          "internalType": "contract IERC20Standard",
          "name": "stableCoin",
          "type": "address"
        },
        {
          "indexed": false,
          "internalType": "uint256",
          "name": "amount",
          "type": "uint256"
        },
        {
          "indexed": false,
          "internalType": "uint256",
          "name": "lenderShare",
          "type": "uint256"
        },
        {
          "indexed": false,
          "internalType": "uint256",
          "name": "totalSupply",
          "type": "uint256"
        },
        {
          "indexed": false,
          "internalType": "uint256",
          "name": "totalLiquidity",
          "type": "uint256"
        },
        {
          "indexed": false,
          "internalType": "uint256",
          "name": "remainingPool",
          "type": "uint256"
        }
      ],
      "name": "WithdrawSupply",
      "type": "event"
    },
    {
      "inputs": [],
      "name": "CCFL",
      "outputs": [
        {
          "internalType": "address",
          "name": "",
          "type": "address"
        }
      ],
      "stateMutability": "view",
      "type": "function"
    },
    {
      "inputs": [
        {
          "internalType": "address",
          "name": "_user",
          "type": "address"
        }
      ],
      "name": "balanceOf",
      "outputs": [
        {
          "internalType": "uint256",
          "name": "",
          "type": "uint256"
        }
      ],
      "stateMutability": "view",
      "type": "function"
    },
    {
      "inputs": [
        {
          "internalType": "uint256",
          "name": "_loanId",
          "type": "uint256"
        },
        {
          "internalType": "uint256",
          "name": "_amount",
          "type": "uint256"
        },
        {
          "internalType": "address",
          "name": "_borrower",
          "type": "address"
        },
        {
          "internalType": "bool",
          "name": "_isFiat",
          "type": "bool"
        }
      ],
      "name": "borrow",
      "outputs": [],
      "stateMutability": "nonpayable",
      "type": "function"
    },
    {
      "inputs": [
        {
          "internalType": "uint256",
          "name": "",
          "type": "uint256"
        }
      ],
      "name": "debt",
      "outputs": [
        {
          "internalType": "uint256",
          "name": "",
          "type": "uint256"
        }
      ],
      "stateMutability": "view",
      "type": "function"
    },
    {
      "inputs": [
        {
          "internalType": "uint256",
          "name": "_amount",
          "type": "uint256"
        }
      ],
      "name": "earnStaking",
      "outputs": [],
      "stateMutability": "nonpayable",
      "type": "function"
    },
    {
      "inputs": [
        {
          "internalType": "uint256",
          "name": "_loanId",
          "type": "uint256"
        }
      ],
      "name": "getCurrentLoan",
      "outputs": [
        {
          "internalType": "uint256",
          "name": "",
          "type": "uint256"
        }
      ],
      "stateMutability": "view",
      "type": "function"
    },
    {
      "inputs": [],
      "name": "getCurrentRate",
      "outputs": [
        {
          "internalType": "uint256",
          "name": "",
          "type": "uint256"
        },
        {
          "internalType": "uint256",
          "name": "",
          "type": "uint256"
        },
        {
          "internalType": "uint256",
          "name": "",
          "type": "uint256"
        },
        {
          "internalType": "uint256",
          "name": "",
          "type": "uint256"
        }
      ],
      "stateMutability": "view",
      "type": "function"
    },
    {
      "inputs": [],
      "name": "getDebtPool",
      "outputs": [
        {
          "internalType": "uint256",
          "name": "amount",
          "type": "uint256"
        }
      ],
      "stateMutability": "view",
      "type": "function"
    },
    {
      "inputs": [],
      "name": "getRemainingPool",
      "outputs": [
        {
          "internalType": "uint256",
          "name": "amount",
          "type": "uint256"
        }
      ],
      "stateMutability": "view",
      "type": "function"
    },
    {
      "inputs": [],
      "name": "getTotalSupply",
      "outputs": [
        {
          "internalType": "uint256",
          "name": "",
          "type": "uint256"
        }
      ],
      "stateMutability": "view",
      "type": "function"
    },
    {
      "inputs": [
        {
          "internalType": "contract IERC20Standard",
          "name": "_stableCoinAddress",
          "type": "address"
        },
        {
          "internalType": "address",
          "name": "interestRateStrategyAddress",
          "type": "address"
        }
      ],
      "name": "initialize",
      "outputs": [],
      "stateMutability": "nonpayable",
      "type": "function"
    },
    {
      "inputs": [],
      "name": "isPaused",
      "outputs": [
        {
          "internalType": "bool",
          "name": "",
          "type": "bool"
        }
      ],
      "stateMutability": "view",
      "type": "function"
    },
    {
      "inputs": [
        {
          "internalType": "uint256",
          "name": "",
          "type": "uint256"
        }
      ],
      "name": "lenders",
      "outputs": [
        {
          "internalType": "address",
          "name": "",
          "type": "address"
        }
      ],
      "stateMutability": "view",
      "type": "function"
    },
    {
      "inputs": [
        {
          "internalType": "uint256",
          "name": "_loanId",
          "type": "uint256"
        },
        {
          "internalType": "uint256",
          "name": "_amount",
          "type": "uint256"
        }
      ],
      "name": "liquidatePenalty",
      "outputs": [],
      "stateMutability": "nonpayable",
      "type": "function"
    },
    {
      "inputs": [
        {
          "internalType": "uint256",
          "name": "",
          "type": "uint256"
        }
      ],
      "name": "loans",
      "outputs": [
        {
          "internalType": "uint256",
          "name": "loanId",
          "type": "uint256"
        },
        {
          "internalType": "bool",
          "name": "isPaid",
          "type": "bool"
        },
        {
          "internalType": "uint256",
          "name": "amount",
          "type": "uint256"
        },
        {
          "internalType": "bool",
          "name": "isClosed",
          "type": "bool"
        },
        {
          "internalType": "address",
          "name": "borrower",
          "type": "address"
        },
        {
          "internalType": "bool",
          "name": "isLiquidated",
          "type": "bool"
        },
        {
          "internalType": "contract IERC20Standard",
          "name": "stableCoin",
          "type": "address"
        },
        {
          "internalType": "bool",
          "name": "isFinalty",
          "type": "bool"
        },
        {
          "internalType": "bool",
          "name": "isFiat",
          "type": "bool"
        }
      ],
      "stateMutability": "view",
      "type": "function"
    },
    {
      "inputs": [
        {
          "internalType": "address",
          "name": "",
          "type": "address"
        }
      ],
      "name": "operators",
      "outputs": [
        {
          "internalType": "bool",
          "name": "",
          "type": "bool"
        }
      ],
      "stateMutability": "view",
      "type": "function"
    },
    {
      "inputs": [],
      "name": "remainingPool",
      "outputs": [
        {
          "internalType": "uint256",
          "name": "",
          "type": "uint256"
        }
      ],
      "stateMutability": "view",
      "type": "function"
    },
    {
      "inputs": [
        {
          "internalType": "uint256",
          "name": "_loanId",
          "type": "uint256"
        },
        {
          "internalType": "uint256",
          "name": "_amount",
          "type": "uint256"
        }
      ],
      "name": "repay",
      "outputs": [],
      "stateMutability": "nonpayable",
      "type": "function"
    },
    {
      "inputs": [],
      "name": "reserve",
      "outputs": [
        {
          "internalType": "uint128",
          "name": "liquidityIndex",
          "type": "uint128"
        },
        {
          "internalType": "uint128",
          "name": "currentLiquidityRate",
          "type": "uint128"
        },
        {
          "internalType": "uint128",
          "name": "variableBorrowIndex",
          "type": "uint128"
        },
        {
          "internalType": "uint128",
          "name": "currentVariableBorrowRate",
          "type": "uint128"
        },
        {
          "internalType": "uint40",
          "name": "lastUpdateTimestamp",
          "type": "uint40"
        },
        {
          "internalType": "uint16",
          "name": "id",
          "type": "uint16"
        },
        {
          "internalType": "address",
          "name": "interestRateStrategyAddress",
          "type": "address"
        }
      ],
      "stateMutability": "view",
      "type": "function"
    },
    {
      "inputs": [
        {
          "internalType": "address",
          "name": "_ccfl",
          "type": "address"
        }
      ],
      "name": "setCCFL",
      "outputs": [],
      "stateMutability": "nonpayable",
      "type": "function"
    },
    {
      "inputs": [
        {
          "internalType": "address[]",
          "name": "_addresses",
          "type": "address[]"
        },
        {
          "internalType": "bool[]",
          "name": "_isActives",
          "type": "bool[]"
        }
      ],
      "name": "setOperators",
      "outputs": [],
      "stateMutability": "nonpayable",
      "type": "function"
    },
    {
      "inputs": [
        {
          "internalType": "bool",
          "name": "_paused",
          "type": "bool"
        }
      ],
      "name": "setPaused",
      "outputs": [],
      "stateMutability": "nonpayable",
      "type": "function"
    },
    {
      "inputs": [
        {
          "internalType": "address",
          "name": "",
          "type": "address"
        }
      ],
      "name": "share",
      "outputs": [
        {
          "internalType": "uint256",
          "name": "",
          "type": "uint256"
        }
      ],
      "stateMutability": "view",
      "type": "function"
    },
    {
      "inputs": [],
      "name": "stableCoinAddress",
      "outputs": [
        {
          "internalType": "contract IERC20Standard",
          "name": "",
          "type": "address"
        }
      ],
      "stateMutability": "view",
      "type": "function"
    },
    {
      "inputs": [
        {
          "internalType": "uint256",
          "name": "_amount",
          "type": "uint256"
        }
      ],
      "name": "supply",
      "outputs": [],
      "stateMutability": "nonpayable",
      "type": "function"
    },
    {
      "inputs": [],
      "name": "totalDebt",
      "outputs": [
        {
          "internalType": "uint256",
          "name": "",
          "type": "uint256"
        }
      ],
      "stateMutability": "view",
      "type": "function"
    },
    {
      "inputs": [],
      "name": "totalLiquidity",
      "outputs": [
        {
          "internalType": "uint256",
          "name": "",
          "type": "uint256"
        }
      ],
      "stateMutability": "view",
      "type": "function"
    },
    {
      "inputs": [],
      "name": "totalSupply",
      "outputs": [
        {
          "internalType": "uint256",
          "name": "",
          "type": "uint256"
        }
      ],
      "stateMutability": "view",
      "type": "function"
    },
    {
      "inputs": [
        {
          "internalType": "uint256",
          "name": "_amount",
          "type": "uint256"
        }
      ],
      "name": "withdraw",
      "outputs": [],
      "stateMutability": "nonpayable",
      "type": "function"
    },
    {
      "inputs": [],
      "name": "withdrawAllByAdmin",
      "outputs": [],
      "stateMutability": "nonpayable",
      "type": "function"
    },
    {
      "inputs": [
        {
          "internalType": "address",
          "name": "_receiver",
          "type": "address"
        },
        {
          "internalType": "uint256",
          "name": "_loanId",
          "type": "uint256"
        }
      ],
      "name": "withdrawLoan",
      "outputs": [],
      "stateMutability": "nonpayable",
      "type": "function"
    },
    {
      "stateMutability": "payable",
      "type": "receive"
    }
  ],
  "bytecode": "0x608060405234801561001057600080fd5b50612dad806100206000396000f3fe6080604052600436106101dc5760003560e01c80638ac1b77511610102578063c4e41b2211610095578063ec7be39d11610064578063ec7be39d146106c1578063f4305035146106e1578063f7fb07b014610701578063fc7b9c181461074e57600080fd5b8063c4e41b22146104f1578063cd3293de14610506578063d8aed145146105cc578063e1ec3c68146105ec57600080fd5b80639b78dbfc116100d15780639b78dbfc1461047a578063a52f38d11461049a578063b14d37c0146104ba578063b187bd26146104d057600080fd5b80638ac1b77514610405578063929eea211461042557806394a368d214610445578063982aae461461045a57600080fd5b80632e1a7d4d1161017a5780633b4675a7116101495780633b4675a71461036d578063485cc955146103a557806370a08231146103c55780637f394031146103e557600080fd5b80632e1a7d4d146102f857806335403023146103185780633870862b146103385780633b24cc211461035857600080fd5b806316c38b3c116101b657806316c38b3c1461026657806318160ddd146102885780631877bb5c1461029e5780631e0029c8146102cb57600080fd5b806303ec357f146101e857806313e7c9d81461021057806315770f921461025057600080fd5b366101e357005b600080fd5b3480156101f457600080fd5b506101fd610764565b6040519081526020015b60405180910390f35b34801561021c57600080fd5b5061024061022b366004612827565b60006020819052908152604090205460ff1681565b6040519015158152602001610207565b34801561025c57600080fd5b506101fd600b5481565b34801561027257600080fd5b50610286610281366004612852565b610854565b005b34801561029457600080fd5b506101fd600a5481565b3480156102aa57600080fd5b506101fd6102b9366004612827565b60086020526000908152604090205481565b3480156102d757600080fd5b506101fd6102e636600461286f565b60096020526000908152604090205481565b34801561030457600080fd5b5061028661031336600461286f565b6108db565b34801561032457600080fd5b5061028661033336600461286f565b610b9f565b34801561034457600080fd5b50610286610353366004612888565b610e29565b34801561036457600080fd5b50600d546101fd565b34801561037957600080fd5b5060045461038d906001600160a01b031681565b6040516001600160a01b039091168152602001610207565b3480156103b157600080fd5b506102866103c03660046128d2565b6110d9565b3480156103d157600080fd5b506101fd6103e0366004612827565b6112d3565b3480156103f157600080fd5b5061028661040036600461290b565b611395565b34801561041157600080fd5b50610286610420366004612827565b6114c4565b34801561043157600080fd5b5061038d61044036600461286f565b61155f565b34801561045157600080fd5b50610286611589565b34801561046657600080fd5b5060015461038d906001600160a01b031681565b34801561048657600080fd5b5061028661049536600461286f565b6116e7565b3480156104a657600080fd5b506101fd6104b536600461286f565b61177d565b3480156104c657600080fd5b506101fd600d5481565b3480156104dc57600080fd5b50600e5461024090600160a01b900460ff1681565b3480156104fd57600080fd5b506101fd61187a565b34801561051257600080fd5b50600554600654600754610571926001600160801b0380821693600160801b92839004821693828216939091049091169064ffffffffff81169065010000000000810461ffff169067010000000000000090046001600160a01b031687565b604080516001600160801b03988916815296881660208801529487169486019490945294909116606084015264ffffffffff16608083015261ffff90921660a08201526001600160a01b0390911660c082015260e001610207565b3480156105d857600080fd5b506102866105e736600461290b565b611952565b3480156105f857600080fd5b5061066e61060736600461286f565b600360208190526000918252604090912080546001820154600283015493830154600490930154919360ff918216939092818316926001600160a01b036101008404811693600160a81b9081900483169391821692600160a01b8304811692919091041689565b60408051998a5297151560208a01529688019590955292151560608701526001600160a01b039182166080870152151560a08601521660c0840152151560e0830152151561010082015261012001610207565b3480156106cd57600080fd5b506102866106dc36600461292d565b611e46565b3480156106ed57600080fd5b506102866106fc366004612a3c565b611fdc565b34801561070d57600080fd5b50600654600554604080516001600160801b03600160801b808604821683528404811660208301529384169181019190915291166060820152608001610207565b34801561075a57600080fd5b506101fd600c5481565b60008061076f612096565b905060006107858260c001518360e00151612193565b60065490915061079f9082906001600160801b03166121a7565b60808301526001546040805163313ce56760e01b815290516b033b2e3c9fd0803ce8000000926001600160a01b03169163313ce5679160048083019260209291908290030181865afa1580156107f9573d6000803e3d6000fd5b505050506040513d601f19601f8201168201806040525081019061081d9190612afe565b61082890600a612c1b565b6080840151600c54610839916121a7565b6108439190612c2a565b61084d9190612c57565b9250505090565b600e546040805180820190915260018152601960f91b6020820152906001600160a01b031633146108a15760405162461bcd60e51b81526004016108989190612c79565b60405180910390fd5b50600e8054911515600160a01b027fffffffffffffffffffffff00ffffffffffffffffffffffffffffffffffffffff909216919091179055565b600e54604080518082019091526002815261323160f01b602082015290600160a01b900460ff16156109205760405162461bcd60e51b81526004016108989190612c79565b50600061092b612096565b9050610936816121eb565b6001546040805163313ce56760e01b815290516000926001600160a01b03169163313ce5679160048083019260209291908290030181865afa158015610980573d6000803e3d6000fd5b505050506040513d601f19601f820116820180604052508101906109a49190612afe565b6109af90600a612c1b565b6109c56b033b2e3c9fd0803ce800000085612c2a565b6109cf9190612c57565b90506109dc600082612224565b6005546000906109f69083906001600160801b03166123ac565b3360009081526008602052604081205491925090610a15908390612cc8565b905081600a6000828254610a299190612cc8565b9250508190555081600b6000828254610a429190612cc8565b909155505060408051808201909152600181527f3800000000000000000000000000000000000000000000000000000000000000602082015250336000908152600860205260408120829055600d8054879290610aa0908490612cc8565b909155505060015460405163a9059cbb60e01b8152336004820152602481018790526001600160a01b039091169063a9059cbb906044016020604051808303816000875af1158015610af6573d6000803e3d6000fd5b505050506040513d601f19601f82011682018060405250810190610b1a9190612cdb565b506001543360008181526008602090815260409182902054600a54600b54600d5485518d81529485019390935293830152606082019290925260808101919091526001600160a01b03909216913091907f173401e3c9626102fe861ca7ddb4665d741deebad547125c24038cafa9345db29060a0015b60405180910390a45050505050565b600e54604080518082019091526002815261323160f01b602082015290600160a01b900460ff1615610be45760405162461bcd60e51b81526004016108989190612c79565b506000610bef612096565b9050610bfa816121eb565b6001546040805163313ce56760e01b815290516000926001600160a01b03169163313ce5679160048083019260209291908290030181865afa158015610c44573d6000803e3d6000fd5b505050506040513d601f19601f82011682018060405250810190610c689190612afe565b610c7390600a612c1b565b610c896b033b2e3c9fd0803ce800000085612c2a565b610c939190612c57565b9050610ca0816000612224565b600554600090610cba9083906001600160801b03166123ac565b3360009081526008602052604081205491925090610cd9908390612cf8565b905081600a6000828254610ced9190612cf8565b9250508190555081600b6000828254610d069190612cf8565b9091555050336000908152600860205260408120829055600d8054879290610d2f908490612cf8565b90915550506001546040516323b872dd60e01b8152336004820152306024820152604481018790526001600160a01b03909116906323b872dd906064016020604051808303816000875af1158015610d8b573d6000803e3d6000fd5b505050506040513d601f19601f82011682018060405250810190610daf9190612cdb565b506001543360008181526008602090815260409182902054600a54600b54600d5485518d81529485019390935293830152606082019290925260808101919091526001600160a01b03909216913091907fac71e4358c08cef1a5335ac1c1d79f8eea0a3bd10f01a4259308137ebc63d76a9060a001610b90565b600454604080518082019091526002815261313360f01b6020820152906001600160a01b03163314610e6e5760405162461bcd60e51b81526004016108989190612c79565b50600e54604080518082019091526002815261323160f01b602082015290600160a01b900460ff1615610eb45760405162461bcd60e51b81526004016108989190612c79565b506000610ebf612096565b9050610eca816121eb565b6001546040805163313ce56760e01b815290516000926001600160a01b03169163313ce5679160048083019260209291908290030181865afa158015610f14573d6000803e3d6000fd5b505050506040513d601f19601f82011682018060405250810190610f389190612afe565b610f4390600a612c1b565b610f596b033b2e3c9fd0803ce800000087612c2a565b610f639190612c57565b90506000610f7e8360800151836123ac90919063ffffffff16565b60008881526009602052604081205491925090610f9c908390612cf8565b905081600c6000828254610fb09190612cf8565b9091555050600d5460408051808201909152600281527f313500000000000000000000000000000000000000000000000000000000000060208201529088111561100d5760405162461bcd60e51b81526004016108989190612c79565b506000888152600360208181526040808420600990925283208490558a8155600281018a905590810180547fffffffffffffffffffffff0000000000000000000000000000000000000000ff166101006001600160a01b038b160217905560048101805460ff60a81b1916600160a81b891515021790559061108f9085612224565b604085015161109f9085906123ac565b600b60008282546110b09190612cc8565b9250508190555087600d60008282546110c99190612cc8565b9091555050505050505050505050565b7ff0c57e16840df040f15088dc2f81fe391c3923bec73e23a9662efc9c229c6a00805468010000000000000000810460ff16159067ffffffffffffffff166000811580156111245750825b905060008267ffffffffffffffff1660011480156111415750303b155b90508115801561114f575080155b15611186576040517ff92ee8a900000000000000000000000000000000000000000000000000000000815260040160405180910390fd5b845467ffffffffffffffff1916600117855583156111ba57845468ff00000000000000001916680100000000000000001785555b600180546001600160a01b03808a1673ffffffffffffffffffffffffffffffffffffffff1992831617835560078054918a16670100000000000000027fffffffffff0000000000000000000000000000000000000000ffffffffffffff909216919091179055600580546fffffffffffffffffffffffffffffffff199081166b033b2e3c9fd0803ce8000000908117909255600680549091169091179055600e8054909116339081179091556000908152602081905260409020805460ff1916909117905583156112ca57845468ff000000000000000019168555604051600181527fc7f505b2f371ae2175ee4913f4499e1f2633a7b5936321eed1cdaeb6115181d29060200160405180910390a15b50505050505050565b6001546040805163313ce56760e01b815290516000926001600160a01b03169163313ce5679160048083019260209291908290030181865afa15801561131d573d6000803e3d6000fd5b505050506040513d601f19601f820116820180604052508101906113419190612afe565b61134c90601b612d0b565b61135790600a612c1b565b6005546001600160a01b038416600090815260086020526040902054611385916001600160801b03166121a7565b61138f9190612c57565b92915050565b600454604080518082019091526002815261313360f01b6020820152906001600160a01b031633146113da5760405162461bcd60e51b81526004016108989190612c79565b50600e54604080518082019091526002815261323160f01b602082015290600160a01b900460ff16156114205760405162461bcd60e51b81526004016108989190612c79565b50600082815260036020818152604092839020909101548251808401909352600283527f313700000000000000000000000000000000000000000000000000000000000091830191909152600160a81b900460ff16156114935760405162461bcd60e51b81526004016108989190612c79565b5061149e81336123eb565b50600090815260036020819052604090912001805460ff60a81b1916600160a81b179055565b3360009081526020818152604091829020548251808401909352600283527f31380000000000000000000000000000000000000000000000000000000000009183019190915260ff16151560011461152f5760405162461bcd60e51b81526004016108989190612c79565b506004805473ffffffffffffffffffffffffffffffffffffffff19166001600160a01b0392909216919091179055565b6002818154811061156f57600080fd5b6000918252602090912001546001600160a01b0316905081565b600e546040805180820190915260018152601960f91b6020820152906001600160a01b031633146115cd5760405162461bcd60e51b81526004016108989190612c79565b506001546040517f70a082310000000000000000000000000000000000000000000000000000000081523060048201526001600160a01b039091169063a9059cbb90339083906370a0823190602401602060405180830381865afa158015611639573d6000803e3d6000fd5b505050506040513d601f19601f8201168201806040525081019061165d9190612d24565b6040517fffffffff0000000000000000000000000000000000000000000000000000000060e085901b1681526001600160a01b03909216600483015260248201526044016020604051808303816000875af11580156116c0573d6000803e3d6000fd5b505050506040513d601f19601f820116820180604052508101906116e49190612cdb565b50565b600454604080518082019091526002815261313360f01b6020820152906001600160a01b0316331461172c5760405162461bcd60e51b81526004016108989190612c79565b50600e54604080518082019091526002815261323160f01b602082015290600160a01b900460ff16156117725760405162461bcd60e51b81526004016108989190612c79565b506116e481336123eb565b600080611788612096565b9050600061179e8260c001518360e00151612193565b6006549091506117b89082906001600160801b03166121a7565b60808301526001546040805163313ce56760e01b815290516b033b2e3c9fd0803ce8000000926001600160a01b03169163313ce5679160048083019260209291908290030181865afa158015611812573d6000803e3d6000fd5b505050506040513d601f19601f820116820180604052508101906118369190612afe565b61184190600a612c1b565b608084015160008781526009602052604090205461185e916121a7565b6118689190612c2a565b6118729190612c57565b949350505050565b600080611885612096565b9050600061189b8260a001518360e00151612575565b90506118b48260400151826121a790919063ffffffff16565b604080840191909152600154815163313ce56760e01b815291516b033b2e3c9fd0803ce8000000926001600160a01b039092169163313ce5679160048083019260209291908290030181865afa158015611912573d6000803e3d6000fd5b505050506040513d601f19601f820116820180604052508101906119369190612afe565b61194190600a612c1b565b6040840151600a54610839916121a7565b600454604080518082019091526002815261313360f01b6020820152906001600160a01b031633146119975760405162461bcd60e51b81526004016108989190612c79565b50600e54604080518082019091526002815261323160f01b602082015290600160a01b900460ff16156119dd5760405162461bcd60e51b81526004016108989190612c79565b50600082815260036020818152604092839020909101548251808401909352600283527f31360000000000000000000000000000000000000000000000000000000000009183019190915260ff1615611a495760405162461bcd60e51b81526004016108989190612c79565b506000611a54612096565b9050611a5f816121eb565b6001546040805163313ce56760e01b815290516000926001600160a01b03169163313ce5679160048083019260209291908290030181865afa158015611aa9573d6000803e3d6000fd5b505050506040513d601f19601f82011682018060405250810190611acd9190612afe565b611ad890600a612c1b565b611aee6b033b2e3c9fd0803ce800000085612c2a565b611af89190612c57565b600654909150600090611b159083906001600160801b03166123ac565b6000868152600960205260409020549091508110611d2d57600085815260096020526040812054600c805491929091611b4f908490612cc8565b90915550506006546000868152600960205260408120549091611b7b91906001600160801b03166121a7565b6001546040805163313ce56760e01b815290519293506000926b033b2e3c9fd0803ce8000000926001600160a01b03169163313ce5679160048083019260209291908290030181865afa158015611bd6573d6000803e3d6000fd5b505050506040513d601f19601f82011682018060405250810190611bfa9190612afe565b611c0590600a612c1b565b611c0f9084612c2a565b611c199190612c57565b6000888152600960205260408120819055909150611c38908390612224565b604080860151600089815260096020529190912054611c56916123ac565b600b6000828254611c679190612cf8565b9250508190555080600d6000828254611c809190612cf8565b9091555050600154600480546040516323b872dd60e01b81526001600160a01b039182169281019290925230602483015260448201849052909116906323b872dd906064016020604051808303816000875af1158015611ce4573d6000803e3d6000fd5b505050506040513d601f19601f82011682018060405250810190611d089190612cdb565b505050600085815260036020819052604090912001805460ff19166001179055611e3f565b600085815260096020526040812054611d47908390612cc8565b905081600c6000828254611d5b9190612cc8565b90915550506000868152600960205260408120829055611d7c908490612224565b6040840151611d8c9084906123ac565b600b6000828254611d9d9190612cf8565b9250508190555084600d6000828254611db69190612cf8565b9091555050600154600480546040516323b872dd60e01b81526001600160a01b039182169281019290925230602483015260448201889052909116906323b872dd906064015b6020604051808303816000875af1158015611e1b573d6000803e3d6000fd5b505050506040513d601f19601f820116820180604052508101906112ca9190612cdb565b5050505050565b600454604080518082019091526002815261313360f01b6020820152906001600160a01b03163314611e8b5760405162461bcd60e51b81526004016108989190612c79565b50600e54604080518082019091526002815261323160f01b602082015290600160a01b900460ff1615611ed15760405162461bcd60e51b81526004016108989190612c79565b50600081815260036020908152604091829020600101548251808401909352600283527f31340000000000000000000000000000000000000000000000000000000000009183019190915260ff1615611f3d5760405162461bcd60e51b81526004016108989190612c79565b50600081815260036020526040908190206001808201805460ff19168217905554600290910154915163a9059cbb60e01b81526001600160a01b038581166004830152602482019390935291169063a9059cbb906044016020604051808303816000875af1158015611fb3573d6000803e3d6000fd5b505050506040513d601f19601f82011682018060405250810190611fd79190612cdb565b505050565b600e546040805180820190915260018152601960f91b6020820152906001600160a01b031633146120205760405162461bcd60e51b81526004016108989190612c79565b5060005b8251811015611fd75781818151811061203f5761203f612d3d565b602002602001015160008085848151811061205c5761205c612d3d565b6020908102919091018101516001600160a01b03168252810191909152604001600020805460ff1916911515919091179055600101612024565b6120e560405180610100016040528060008152602001600081526020016000815260200160008152602001600081526020016000815260200160008152602001600064ffffffffff1681525090565b61213460405180610100016040528060008152602001600081526020016000815260200160008152602001600081526020016000815260200160008152602001600064ffffffffff1681525090565b6005546001600160801b03808216604084018190526020840152600654808216608085018190526060850152600160801b92839004821660a0850152919091041660c082015260075464ffffffffff1660e0820152600c548152919050565b60006121a08383426125b2565b9392505050565b600081156b019d971e4fe8401e7400000019839004841115176121c957600080fd5b506b033b2e3c9fd0803ce800000091026b019d971e4fe8401e74000000010490565b60075464ffffffffff4281169116036122015750565b61220a816126de565b506007805464ffffffffff19164264ffffffffff16179055565b61224860405180606001604052806000815260200160008152602001600081525090565b6007546040805160808101825285815260208101859052600654600c546701000000000000009094046001600160a01b0316936356eaf2649383019161229791906001600160801b03166121a7565b8152600554600b546020909201916122b7916001600160801b03166121a7565b9052604080517fffffffff0000000000000000000000000000000000000000000000000000000060e085901b168152825160048201526020830151602482015290820151604482015260609091015160648201526084016040805180830381865afa15801561232a573d6000803e3d6000fd5b505050506040513d601f19601f8201168201806040525081019061234e9190612d53565b602083015280825261235f906127c1565b600580546001600160801b03928316600160801b029216919091179055602081015161238a906127c1565b600680546001600160801b03928316600160801b029216919091179055505050565b600081156b033b2e3c9fd0803ce8000000600284041904841117156123d057600080fd5b506b033b2e3c9fd0803ce80000009190910260028204010490565b81156125715760006123fb612096565b9050612406816121eb565b6001546040805163313ce56760e01b815290516000926001600160a01b03169163313ce5679160048083019260209291908290030181865afa158015612450573d6000803e3d6000fd5b505050506040513d601f19601f820116820180604052508101906124749190612afe565b61247f90600a612c1b565b6124956b033b2e3c9fd0803ce800000086612c2a565b61249f9190612c57565b905060006124bc8360400151600b546121a790919063ffffffff16565b905060006124e4826124de866040015186866124d89190612cf8565b906121a7565b906123ac565b90506124ef816127c1565b600580546fffffffffffffffffffffffffffffffff19166001600160801b0392909216919091179055600d805487919060009061252d908490612cf8565b90915550506001546040516323b872dd60e01b81526001600160a01b03878116600483015230602483015260448201899052909116906323b872dd90606401611dfc565b5050565b60008061258964ffffffffff841642612cc8565b6125939085612c2a565b6301e1338090049050611872816b033b2e3c9fd0803ce8000000612cf8565b6000806125c664ffffffffff851684612cc8565b9050806000036125e5576b033b2e3c9fd0803ce80000009150506121a0565b600019810160008080600285116125fd576000612602565b600285035b925066038882915c40006126168a806121a7565b8161262357612623612c41565b0491506301e13380612635838b6121a7565b8161264257612642612c41565b0490506000826126528688612c2a565b61265c9190612c2a565b60029004905060008285612670888a612c2a565b61267a9190612c2a565b6126849190612c2a565b60069004905080826301e1338061269b8a8f612c2a565b6126a59190612c57565b6126bb906b033b2e3c9fd0803ce8000000612cf8565b6126c59190612cf8565b6126cf9190612cf8565b9b9a5050505050505050505050565b60a0810151156127505760006126fc8260a001518360e00151612575565b90506127158260200151826121a790919063ffffffff16565b60408301819052612725906127c1565b600580546fffffffffffffffffffffffffffffffff19166001600160801b0392909216919091179055505b8051156116e457600061276b8260c001518360e00151612193565b90506127848260600151826121a790919063ffffffff16565b60808301819052612794906127c1565b600680546fffffffffffffffffffffffffffffffff19166001600160801b03929092169190911790555050565b60006001600160801b0382111561280e576040517f6dfcc6500000000000000000000000000000000000000000000000000000000081526080600482015260248101839052604401610898565b5090565b6001600160a01b03811681146116e457600080fd5b60006020828403121561283957600080fd5b81356121a081612812565b80151581146116e457600080fd5b60006020828403121561286457600080fd5b81356121a081612844565b60006020828403121561288157600080fd5b5035919050565b6000806000806080858703121561289e57600080fd5b843593506020850135925060408501356128b781612812565b915060608501356128c781612844565b939692955090935050565b600080604083850312156128e557600080fd5b82356128f081612812565b9150602083013561290081612812565b809150509250929050565b6000806040838503121561291e57600080fd5b50508035926020909101359150565b6000806040838503121561294057600080fd5b823561294b81612812565b946020939093013593505050565b634e487b7160e01b600052604160045260246000fd5b604051601f8201601f1916810167ffffffffffffffff8111828210171561299857612998612959565b604052919050565b600067ffffffffffffffff8211156129ba576129ba612959565b5060051b60200190565b600082601f8301126129d557600080fd5b813560206129ea6129e5836129a0565b61296f565b8083825260208201915060208460051b870101935086841115612a0c57600080fd5b602086015b84811015612a31578035612a2481612844565b8352918301918301612a11565b509695505050505050565b60008060408385031215612a4f57600080fd5b823567ffffffffffffffff80821115612a6757600080fd5b818501915085601f830112612a7b57600080fd5b81356020612a8b6129e5836129a0565b82815260059290921b84018101918181019089841115612aaa57600080fd5b948201945b83861015612ad1578535612ac281612812565b82529482019490820190612aaf565b96505086013592505080821115612ae757600080fd5b50612af4858286016129c4565b9150509250929050565b600060208284031215612b1057600080fd5b815160ff811681146121a057600080fd5b634e487b7160e01b600052601160045260246000fd5b600181815b80851115612b72578160001904821115612b5857612b58612b21565b80851615612b6557918102915b93841c9390800290612b3c565b509250929050565b600082612b895750600161138f565b81612b965750600061138f565b8160018114612bac5760028114612bb657612bd2565b600191505061138f565b60ff841115612bc757612bc7612b21565b50506001821b61138f565b5060208310610133831016604e8410600b8410161715612bf5575081810a61138f565b612bff8383612b37565b8060001904821115612c1357612c13612b21565b029392505050565b60006121a060ff841683612b7a565b808202811582820484141761138f5761138f612b21565b634e487b7160e01b600052601260045260246000fd5b600082612c7457634e487b7160e01b600052601260045260246000fd5b500490565b60006020808352835180602085015260005b81811015612ca757858101830151858201604001528201612c8b565b506000604082860101526040601f19601f8301168501019250505092915050565b8181038181111561138f5761138f612b21565b600060208284031215612ced57600080fd5b81516121a081612844565b8082018082111561138f5761138f612b21565b60ff828116828216039081111561138f5761138f612b21565b600060208284031215612d3657600080fd5b5051919050565b634e487b7160e01b600052603260045260246000fd5b60008060408385031215612d6657600080fd5b50508051602090910151909290915056fea2646970667358221220edc4c66557b192f1660189b3ddb13e31aa0de6724ab9a5b9f48aff68a7fb5a1164736f6c63430008180033",
  "linkReferences": {},
  "deployedLinkReferences": {}
}