{
  "_format": "hh-sol-artifact-1",
  "contractName": "CCFL",
  "sourceName": "contracts/CCFL.sol",
  "abi": [
    {
      "inputs": [],
      "name": "ERC1167FailedCreateClone",
      "type": "error"
    },
    {
      "inputs": [],
      "name": "InvalidInitialization",
      "type": "error"
    },
    {
      "inputs": [],
      "name": "NotInitializing",
      "type": "error"
    },
    {
      "anonymous": false,
      "inputs": [
        {
          "indexed": true,
          "internalType": "address",
          "name": "borrower",
          "type": "address"
        },
        {
          "indexed": false,
          "internalType": "uint256",
          "name": "loanId",
          "type": "uint256"
        },
        {
          "indexed": false,
          "internalType": "uint256",
          "name": "collateralAmount",
          "type": "uint256"
        },
        {
          "indexed": false,
          "internalType": "contract IERC20Standard",
          "name": "collateral",
          "type": "address"
        },
        {
          "indexed": false,
          "internalType": "bool",
          "name": "isETH",
          "type": "bool"
        },
        {
          "indexed": false,
          "internalType": "uint256",
          "name": "timestamp",
          "type": "uint256"
        }
      ],
      "name": "AddCollateral",
      "type": "event"
    },
    {
      "anonymous": false,
      "inputs": [
        {
          "indexed": true,
          "internalType": "address",
          "name": "borrower",
          "type": "address"
        },
        {
          "indexed": false,
          "internalType": "uint256",
          "name": "loanAmount",
          "type": "uint256"
        },
        {
          "indexed": false,
          "internalType": "contract IERC20Standard",
          "name": "supply",
          "type": "address"
        },
        {
          "indexed": false,
          "internalType": "uint256",
          "name": "collateralAmount",
          "type": "uint256"
        },
        {
          "indexed": false,
          "internalType": "contract IERC20Standard",
          "name": "collateral",
          "type": "address"
        },
        {
          "indexed": false,
          "internalType": "bool",
          "name": "isYieldGenerating",
          "type": "bool"
        },
        {
          "indexed": false,
          "internalType": "bool",
          "name": "isETH",
          "type": "bool"
        },
        {
          "indexed": false,
          "internalType": "uint256",
          "name": "loanId",
          "type": "uint256"
        },
        {
          "indexed": false,
          "internalType": "uint256",
          "name": "timestamp",
          "type": "uint256"
        }
      ],
      "name": "CreateLoan",
      "type": "event"
    },
    {
      "anonymous": false,
      "inputs": [
        {
          "indexed": false,
          "internalType": "uint64",
          "name": "version",
          "type": "uint64"
        }
      ],
      "name": "Initialized",
      "type": "event"
    },
    {
      "anonymous": false,
      "inputs": [
        {
          "indexed": true,
          "internalType": "address",
          "name": "liquidator",
          "type": "address"
        },
        {
          "indexed": false,
          "internalType": "uint256",
          "name": "loanId",
          "type": "uint256"
        },
        {
          "indexed": false,
          "internalType": "uint256",
          "name": "timestamp",
          "type": "uint256"
        }
      ],
      "name": "Liquidate",
      "type": "event"
    },
    {
      "anonymous": false,
      "inputs": [
        {
          "indexed": true,
          "internalType": "address",
          "name": "borrower",
          "type": "address"
        },
        {
          "indexed": false,
          "internalType": "uint256",
          "name": "loanId",
          "type": "uint256"
        },
        {
          "indexed": false,
          "internalType": "uint256",
          "name": "amount",
          "type": "uint256"
        },
        {
          "indexed": false,
          "internalType": "contract IERC20Standard",
          "name": "supply",
          "type": "address"
        },
        {
          "indexed": false,
          "internalType": "uint256",
          "name": "timestamp",
          "type": "uint256"
        }
      ],
      "name": "RepayLoan",
      "type": "event"
    },
    {
      "anonymous": false,
      "inputs": [
        {
          "indexed": true,
          "internalType": "address",
          "name": "borrower",
          "type": "address"
        },
        {
          "indexed": false,
          "internalType": "uint256",
          "name": "loanId",
          "type": "uint256"
        },
        {
          "indexed": false,
          "internalType": "bool",
          "name": "isETH",
          "type": "bool"
        },
        {
          "indexed": false,
          "internalType": "uint256",
          "name": "timestamp",
          "type": "uint256"
        }
      ],
      "name": "WithdrawAllCollateral",
      "type": "event"
    },
    {
      "anonymous": false,
      "inputs": [
        {
          "indexed": true,
          "internalType": "address",
          "name": "borrower",
          "type": "address"
        },
        {
          "indexed": false,
          "internalType": "uint256",
          "name": "loanId",
          "type": "uint256"
        },
        {
          "indexed": false,
          "internalType": "contract IERC20Standard",
          "name": "supply",
          "type": "address"
        },
        {
          "indexed": false,
          "internalType": "uint256",
          "name": "timestamp",
          "type": "uint256"
        }
      ],
      "name": "WithdrawLoan",
      "type": "event"
    },
    {
      "inputs": [
        {
          "internalType": "contract IERC20Standard",
          "name": "",
          "type": "address"
        }
      ],
      "name": "aTokens",
      "outputs": [
        {
          "internalType": "contract IERC20Standard",
          "name": "",
          "type": "address"
        }
      ],
      "stateMutability": "view",
      "type": "function"
    },
    {
      "inputs": [],
      "name": "aaveAddressProvider",
      "outputs": [
        {
          "internalType": "contract IPoolAddressesProvider",
          "name": "",
          "type": "address"
        }
      ],
      "stateMutability": "view",
      "type": "function"
    },
    {
      "inputs": [
        {
          "internalType": "uint256",
          "name": "_loanId",
          "type": "uint256"
        },
        {
          "internalType": "uint256",
          "name": "_amountCollateral",
          "type": "uint256"
        },
        {
          "internalType": "contract IERC20Standard",
          "name": "_collateral",
          "type": "address"
        },
        {
          "internalType": "bool",
          "name": "_isETH",
          "type": "bool"
        }
      ],
      "name": "addCollateral",
      "outputs": [],
      "stateMutability": "payable",
      "type": "function"
    },
    {
      "inputs": [
        {
          "internalType": "uint256",
          "name": "_loanId",
          "type": "uint256"
        },
        {
          "internalType": "uint256",
          "name": "_amountCollateral",
          "type": "uint256"
        }
      ],
      "name": "addCollateralHealthFactor",
      "outputs": [
        {
          "internalType": "uint256",
          "name": "",
          "type": "uint256"
        }
      ],
      "stateMutability": "view",
      "type": "function"
    },
    {
      "inputs": [
        {
          "internalType": "contract IERC20Standard",
          "name": "",
          "type": "address"
        }
      ],
      "name": "ccflActiveCollaterals",
      "outputs": [
        {
          "internalType": "bool",
          "name": "",
          "type": "bool"
        }
      ],
      "stateMutability": "view",
      "type": "function"
    },
    {
      "inputs": [
        {
          "internalType": "contract IERC20Standard",
          "name": "",
          "type": "address"
        }
      ],
      "name": "ccflActivePoolStableCoins",
      "outputs": [
        {
          "internalType": "bool",
          "name": "",
          "type": "bool"
        }
      ],
      "stateMutability": "view",
      "type": "function"
    },
    {
      "inputs": [
        {
          "internalType": "uint256",
          "name": "",
          "type": "uint256"
        }
      ],
      "name": "ccflPoolStableCoins",
      "outputs": [
        {
          "internalType": "contract IERC20Standard",
          "name": "",
          "type": "address"
        }
      ],
      "stateMutability": "view",
      "type": "function"
    },
    {
      "inputs": [
        {
          "internalType": "contract IERC20Standard",
          "name": "",
          "type": "address"
        }
      ],
      "name": "ccflPools",
      "outputs": [
        {
          "internalType": "contract ICCFLPool",
          "name": "",
          "type": "address"
        }
      ],
      "stateMutability": "view",
      "type": "function"
    },
    {
      "inputs": [
        {
          "internalType": "contract IERC20Standard[]",
          "name": "array",
          "type": "address[]"
        },
        {
          "internalType": "contract IERC20Standard",
          "name": "el",
          "type": "address"
        }
      ],
      "name": "checkExistElement",
      "outputs": [
        {
          "internalType": "bool",
          "name": "",
          "type": "bool"
        }
      ],
      "stateMutability": "pure",
      "type": "function"
    },
    {
      "inputs": [
        {
          "internalType": "uint256",
          "name": "",
          "type": "uint256"
        }
      ],
      "name": "collateralTokens",
      "outputs": [
        {
          "internalType": "contract IERC20Standard",
          "name": "",
          "type": "address"
        }
      ],
      "stateMutability": "view",
      "type": "function"
    },
    {
      "inputs": [
        {
          "internalType": "address",
          "name": "",
          "type": "address"
        },
        {
          "internalType": "contract IERC20Standard",
          "name": "",
          "type": "address"
        }
      ],
      "name": "collaterals",
      "outputs": [
        {
          "internalType": "uint256",
          "name": "",
          "type": "uint256"
        }
      ],
      "stateMutability": "view",
      "type": "function"
    },
    {
      "inputs": [
        {
          "internalType": "uint256",
          "name": "_amount",
          "type": "uint256"
        },
        {
          "internalType": "contract IERC20Standard",
          "name": "_stableCoin",
          "type": "address"
        },
        {
          "internalType": "uint256",
          "name": "_amountCollateral",
          "type": "uint256"
        },
        {
          "internalType": "contract IERC20Standard",
          "name": "_collateral",
          "type": "address"
        },
        {
          "internalType": "bool",
          "name": "_isYieldGenerating",
          "type": "bool"
        },
        {
          "internalType": "bool",
          "name": "_isETH",
          "type": "bool"
        }
      ],
      "name": "createLoan",
      "outputs": [],
      "stateMutability": "payable",
      "type": "function"
    },
    {
      "inputs": [],
      "name": "earnSharePercent",
      "outputs": [
        {
          "internalType": "uint256",
          "name": "",
          "type": "uint256"
        }
      ],
      "stateMutability": "view",
      "type": "function"
    },
    {
      "inputs": [],
      "name": "factory",
      "outputs": [
        {
          "internalType": "contract IUniswapV3Factory",
          "name": "",
          "type": "address"
        }
      ],
      "stateMutability": "view",
      "type": "function"
    },
    {
      "inputs": [
        {
          "internalType": "uint256",
          "name": "_loanId",
          "type": "uint256"
        }
      ],
      "name": "getHealthFactor",
      "outputs": [
        {
          "internalType": "uint256",
          "name": "",
          "type": "uint256"
        }
      ],
      "stateMutability": "view",
      "type": "function"
    },
    {
      "inputs": [
        {
          "internalType": "contract IERC20Standard",
          "name": "_stableCoin",
          "type": "address"
        },
        {
          "internalType": "bool",
          "name": "isPool",
          "type": "bool"
        }
      ],
      "name": "getLatestPrice",
      "outputs": [
        {
          "internalType": "uint256",
          "name": "",
          "type": "uint256"
        }
      ],
      "stateMutability": "view",
      "type": "function"
    },
    {
      "inputs": [
        {
          "internalType": "uint256",
          "name": "_loanId",
          "type": "uint256"
        }
      ],
      "name": "getLoanAddress",
      "outputs": [
        {
          "internalType": "address",
          "name": "",
          "type": "address"
        }
      ],
      "stateMutability": "view",
      "type": "function"
    },
    {
      "inputs": [
        {
          "internalType": "address",
          "name": "borrower",
          "type": "address"
        }
      ],
      "name": "getLoanIds",
      "outputs": [
        {
          "internalType": "uint256[]",
          "name": "",
          "type": "uint256[]"
        }
      ],
      "stateMutability": "view",
      "type": "function"
    },
    {
      "inputs": [
        {
          "internalType": "uint256",
          "name": "_amount",
          "type": "uint256"
        },
        {
          "internalType": "contract IERC20Standard",
          "name": "_stableCoin",
          "type": "address"
        },
        {
          "internalType": "contract IERC20Standard",
          "name": "_collateral",
          "type": "address"
        }
      ],
      "name": "getMinimalCollateral",
      "outputs": [
        {
          "internalType": "uint256",
          "name": "",
          "type": "uint256"
        }
      ],
      "stateMutability": "view",
      "type": "function"
    },
    {
      "inputs": [
        {
          "internalType": "contract IERC20Standard[]",
          "name": "_ccflPoolStableCoin",
          "type": "address[]"
        },
        {
          "internalType": "contract AggregatorV3Interface[]",
          "name": "_poolAggregators",
          "type": "address[]"
        },
        {
          "internalType": "contract ICCFLPool[]",
          "name": "_ccflPools",
          "type": "address[]"
        },
        {
          "internalType": "contract IERC20Standard[]",
          "name": "_collateralTokens",
          "type": "address[]"
        },
        {
          "internalType": "contract AggregatorV3Interface[]",
          "name": "_collateralAggregators",
          "type": "address[]"
        },
        {
          "internalType": "contract IERC20Standard[]",
          "name": "_aTokens",
          "type": "address[]"
        },
        {
          "internalType": "contract IPoolAddressesProvider",
          "name": "_aaveAddressProvider",
          "type": "address"
        },
        {
          "internalType": "uint256",
          "name": "_maxLTV",
          "type": "uint256"
        },
        {
          "internalType": "uint256",
          "name": "_liquidationThreshold",
          "type": "uint256"
        },
        {
          "internalType": "contract ICCFLLoan",
          "name": "_ccflLoan",
          "type": "address"
        }
      ],
      "name": "initialize",
      "outputs": [],
      "stateMutability": "nonpayable",
      "type": "function"
    },
    {
      "inputs": [
        {
          "internalType": "uint256",
          "name": "_loanId",
          "type": "uint256"
        }
      ],
      "name": "liquidate",
      "outputs": [],
      "stateMutability": "nonpayable",
      "type": "function"
    },
    {
      "inputs": [],
      "name": "liquidationThreshold",
      "outputs": [
        {
          "internalType": "uint256",
          "name": "",
          "type": "uint256"
        }
      ],
      "stateMutability": "view",
      "type": "function"
    },
    {
      "inputs": [],
      "name": "liquidator",
      "outputs": [
        {
          "internalType": "address",
          "name": "",
          "type": "address"
        }
      ],
      "stateMutability": "view",
      "type": "function"
    },
    {
      "inputs": [],
      "name": "loandIds",
      "outputs": [
        {
          "internalType": "uint256",
          "name": "",
          "type": "uint256"
        }
      ],
      "stateMutability": "view",
      "type": "function"
    },
    {
      "inputs": [],
      "name": "maxLTV",
      "outputs": [
        {
          "internalType": "uint256",
          "name": "",
          "type": "uint256"
        }
      ],
      "stateMutability": "view",
      "type": "function"
    },
    {
      "inputs": [],
      "name": "owner",
      "outputs": [
        {
          "internalType": "address",
          "name": "",
          "type": "address"
        }
      ],
      "stateMutability": "view",
      "type": "function"
    },
    {
      "inputs": [],
      "name": "penaltyLender",
      "outputs": [
        {
          "internalType": "uint256",
          "name": "",
          "type": "uint256"
        }
      ],
      "stateMutability": "view",
      "type": "function"
    },
    {
      "inputs": [],
      "name": "penaltyLiquidator",
      "outputs": [
        {
          "internalType": "uint256",
          "name": "",
          "type": "uint256"
        }
      ],
      "stateMutability": "view",
      "type": "function"
    },
    {
      "inputs": [],
      "name": "penaltyPlatform",
      "outputs": [
        {
          "internalType": "uint256",
          "name": "",
          "type": "uint256"
        }
      ],
      "stateMutability": "view",
      "type": "function"
    },
    {
      "inputs": [],
      "name": "platform",
      "outputs": [
        {
          "internalType": "address",
          "name": "",
          "type": "address"
        }
      ],
      "stateMutability": "view",
      "type": "function"
    },
    {
      "inputs": [
        {
          "internalType": "contract IERC20Standard",
          "name": "",
          "type": "address"
        }
      ],
      "name": "priceFeeds",
      "outputs": [
        {
          "internalType": "contract AggregatorV3Interface",
          "name": "",
          "type": "address"
        }
      ],
      "stateMutability": "view",
      "type": "function"
    },
    {
      "inputs": [
        {
          "internalType": "contract IERC20Standard",
          "name": "",
          "type": "address"
        }
      ],
      "name": "pricePoolFeeds",
      "outputs": [
        {
          "internalType": "contract AggregatorV3Interface",
          "name": "",
          "type": "address"
        }
      ],
      "stateMutability": "view",
      "type": "function"
    },
    {
      "inputs": [
        {
          "internalType": "uint256",
          "name": "_loanId",
          "type": "uint256"
        },
        {
          "internalType": "uint256",
          "name": "_amount",
          "type": "uint256"
        }
      ],
      "name": "repayHealthFactor",
      "outputs": [
        {
          "internalType": "uint256",
          "name": "",
          "type": "uint256"
        }
      ],
      "stateMutability": "view",
      "type": "function"
    },
    {
      "inputs": [
        {
          "internalType": "uint256",
          "name": "_loanId",
          "type": "uint256"
        },
        {
          "internalType": "uint256",
          "name": "_amount",
          "type": "uint256"
        },
        {
          "internalType": "contract IERC20Standard",
          "name": "_stableCoin",
          "type": "address"
        }
      ],
      "name": "repayLoan",
      "outputs": [],
      "stateMutability": "nonpayable",
      "type": "function"
    },
    {
      "inputs": [
        {
          "internalType": "contract IPoolAddressesProvider",
          "name": "_aaveAddressProvider",
          "type": "address"
        }
      ],
      "name": "setAaveProvider",
      "outputs": [],
      "stateMutability": "nonpayable",
      "type": "function"
    },
    {
      "inputs": [
        {
          "internalType": "contract IERC20Standard",
          "name": "_token",
          "type": "address"
        },
        {
          "internalType": "bool",
          "name": "_isActived",
          "type": "bool"
        },
        {
          "internalType": "bool",
          "name": "_isPoolToken",
          "type": "bool"
        }
      ],
      "name": "setActiveToken",
      "outputs": [],
      "stateMutability": "nonpayable",
      "type": "function"
    },
    {
      "inputs": [
        {
          "internalType": "contract ICCFLLoan",
          "name": "_loan",
          "type": "address"
        }
      ],
      "name": "setCCFLLoan",
      "outputs": [],
      "stateMutability": "nonpayable",
      "type": "function"
    },
    {
      "inputs": [
        {
          "internalType": "contract IERC20Standard[]",
          "name": "_collateralTokens",
          "type": "address[]"
        },
        {
          "internalType": "contract AggregatorV3Interface[]",
          "name": "_collateralAggregators",
          "type": "address[]"
        },
        {
          "internalType": "contract IERC20Standard[]",
          "name": "_aTokens",
          "type": "address[]"
        }
      ],
      "name": "setCollaterals",
      "outputs": [],
      "stateMutability": "nonpayable",
      "type": "function"
    },
    {
      "inputs": [
        {
          "internalType": "uint256",
          "name": "_earnSharePercent",
          "type": "uint256"
        }
      ],
      "name": "setEarnSharePercent",
      "outputs": [],
      "stateMutability": "nonpayable",
      "type": "function"
    },
    {
      "inputs": [
        {
          "internalType": "uint256",
          "name": "_platform",
          "type": "uint256"
        },
        {
          "internalType": "uint256",
          "name": "_liquidator",
          "type": "uint256"
        },
        {
          "internalType": "uint256",
          "name": "_lender",
          "type": "uint256"
        }
      ],
      "name": "setPenalty",
      "outputs": [],
      "stateMutability": "nonpayable",
      "type": "function"
    },
    {
      "inputs": [
        {
          "internalType": "address",
          "name": "_liquidator",
          "type": "address"
        },
        {
          "internalType": "address",
          "name": "_platform",
          "type": "address"
        }
      ],
      "name": "setPlatformAddress",
      "outputs": [],
      "stateMutability": "nonpayable",
      "type": "function"
    },
    {
      "inputs": [
        {
          "internalType": "contract IERC20Standard[]",
          "name": "_ccflPoolStableCoin",
          "type": "address[]"
        },
        {
          "internalType": "contract AggregatorV3Interface[]",
          "name": "_poolAggregators",
          "type": "address[]"
        },
        {
          "internalType": "contract ICCFLPool[]",
          "name": "_ccflPools",
          "type": "address[]"
        }
      ],
      "name": "setPools",
      "outputs": [],
      "stateMutability": "nonpayable",
      "type": "function"
    },
    {
      "inputs": [
        {
          "internalType": "contract ISwapRouter",
          "name": "_swapRouter",
          "type": "address"
        },
        {
          "internalType": "contract IUniswapV3Factory",
          "name": "_factory",
          "type": "address"
        }
      ],
      "name": "setSwapRouter",
      "outputs": [],
      "stateMutability": "nonpayable",
      "type": "function"
    },
    {
      "inputs": [
        {
          "internalType": "uint256",
          "name": "_maxLTV",
          "type": "uint256"
        },
        {
          "internalType": "uint256",
          "name": "_liquidationThreshold",
          "type": "uint256"
        }
      ],
      "name": "setThreshold",
      "outputs": [],
      "stateMutability": "nonpayable",
      "type": "function"
    },
    {
      "inputs": [
        {
          "internalType": "contract IWETH",
          "name": "_iWETH",
          "type": "address"
        }
      ],
      "name": "setWETH",
      "outputs": [],
      "stateMutability": "nonpayable",
      "type": "function"
    },
    {
      "inputs": [
        {
          "internalType": "address",
          "name": "",
          "type": "address"
        },
        {
          "internalType": "uint256",
          "name": "",
          "type": "uint256"
        }
      ],
      "name": "userLoans",
      "outputs": [
        {
          "internalType": "uint256",
          "name": "",
          "type": "uint256"
        }
      ],
      "stateMutability": "view",
      "type": "function"
    },
    {
      "inputs": [],
      "name": "wETH",
      "outputs": [
        {
          "internalType": "contract IWETH",
          "name": "",
          "type": "address"
        }
      ],
      "stateMutability": "view",
      "type": "function"
    },
    {
      "inputs": [
        {
          "internalType": "uint256",
          "name": "_loanId",
          "type": "uint256"
        },
        {
          "internalType": "bool",
          "name": "isETH",
          "type": "bool"
        }
      ],
      "name": "withdrawAllCollateral",
      "outputs": [],
      "stateMutability": "nonpayable",
      "type": "function"
    },
    {
      "inputs": [
        {
          "internalType": "contract IERC20Standard",
          "name": "_stableCoin",
          "type": "address"
        },
        {
          "internalType": "uint256",
          "name": "_loanId",
          "type": "uint256"
        }
      ],
      "name": "withdrawLoan",
      "outputs": [],
      "stateMutability": "nonpayable",
      "type": "function"
    },
    {
      "stateMutability": "payable",
      "type": "receive"
    }
  ],
  "bytecode": "0x608060405234801561001057600080fd5b5061451a806100206000396000f3fe6080604052600436106103225760003560e01c80638da5cb5b116101a5578063cdaabe41116100ec578063ec7be39d11610095578063f3cf4ada1161006f578063f3cf4ada1461094f578063f6597bbb1461096f578063f8f126ff14610985578063fdb2b32c146109a557600080fd5b8063ec7be39d146108f9578063f242862114610919578063f384bd051461093957600080fd5b8063e43b03d6116100c6578063e43b03d614610874578063e51e119e14610894578063e787ea2c146108c957600080fd5b8063cdaabe4114610814578063d8bad5bd14610834578063dc40e2d01461085457600080fd5b8063b3bffeaa1161014e578063c0d0154611610128578063c0d015461461079e578063c45a0155146107d4578063c694fdc1146107f457600080fd5b8063b3bffeaa1461072e578063b92dd9251461074e578063b9c362091461077e57600080fd5b8063a58bab621161017f578063a58bab62146106ef578063a8700c3c14610705578063ae6189f81461071857600080fd5b80638da5cb5b14610663578063989397d4146106835780639dcb511a146106b957600080fd5b8063474843ea11610269578063626a35fb116102125780636eb0fdd0116101ec5780636eb0fdd01461060d578063756078151461062d5780638ba02e1c1461064d57600080fd5b8063626a35fb146105a057806364b52097146105c05780636b64c885146105e057600080fd5b80635b769f3c116102435780635b769f3c146105405780635c8edac414610560578063611f347d1461058057600080fd5b8063474843ea146104ed5780634bde38c81461050d5780634dd7bd3f1461052d57600080fd5b806338ef6717116102cb5780634031234c116102a55780634031234c146104975780634046ebae146104ad578063415f1240146104cd57600080fd5b806338ef6717146104215780633a2ad9ae146104415780633e108ad91461046157600080fd5b806317845c69116102fc57806317845c69146103b15780631d9eb5d9146103d157806325e9d2fa1461040157600080fd5b80630769594d1461032e578063101b9d3114610350578063172c48c71461037957600080fd5b3661032957005b600080fd5b34801561033a57600080fd5b5061034e610349366004613b4b565b6109db565b005b34801561035c57600080fd5b5061036660185481565b6040519081526020015b60405180910390f35b34801561038557600080fd5b50610399610394366004613bd3565b610bdd565b6040516001600160a01b039091168152602001610370565b3480156103bd57600080fd5b506103666103cc366004613bd3565b610c07565b3480156103dd57600080fd5b506103f16103ec366004613bec565b610d85565b6040519015158152602001610370565b34801561040d57600080fd5b5061036661041c366004613c3e565b610de0565b34801561042d57600080fd5b5061034e61043c366004613c6b565b610f60565b34801561044d57600080fd5b5061034e61045c366004613c9d565b610fc7565b34801561046d57600080fd5b5061039961047c366004613c6b565b600a602052600090815260409020546001600160a01b031681565b3480156104a357600080fd5b50610366600c5481565b3480156104b957600080fd5b50601154610399906001600160a01b031681565b3480156104d957600080fd5b5061034e6104e8366004613bd3565b6111a6565b3480156104f957600080fd5b5061034e610508366004613c6b565b6118b5565b34801561051957600080fd5b50601254610399906001600160a01b031681565b61034e61053b366004613ce8565b61191c565b34801561054c57600080fd5b5061034e61055b366004613c6b565b611bed565b34801561056c57600080fd5b5061034e61057b366004613d32565b611c54565b34801561058c57600080fd5b5061034e61059b366004613d57565b611da2565b3480156105ac57600080fd5b5061034e6105bb366004613bd3565b612165565b3480156105cc57600080fd5b5061034e6105db366004613b4b565b6121af565b3480156105ec57600080fd5b506106006105fb366004613c6b565b6123a0565b6040516103709190613e84565b34801561061957600080fd5b5061034e610628366004613ec8565b61240c565b34801561063957600080fd5b50610366610648366004613ef6565b612714565b34801561065957600080fd5b5061036660015481565b34801561066f57600080fd5b50601354610399906001600160a01b031681565b34801561068f57600080fd5b5061039961069e366004613c6b565b600e602052600090815260409020546001600160a01b031681565b3480156106c557600080fd5b506103996106d4366004613c6b565b600d602052600090815260409020546001600160a01b031681565b3480156106fb57600080fd5b5061036660175481565b61034e610713366004613f2d565b612850565b34801561072457600080fd5b5061036660195481565b34801561073a57600080fd5b50610366610749366004613f9d565b6132c0565b34801561075a57600080fd5b506103f1610769366004613c6b565b60066020526000908152604090205460ff1681565b34801561078a57600080fd5b5061034e610799366004613c3e565b6133c1565b3480156107aa57600080fd5b506103996107b9366004613c6b565b6002602052600090815260409020546001600160a01b031681565b3480156107e057600080fd5b50601054610399906001600160a01b031681565b34801561080057600080fd5b5061039961080f366004613bd3565b613411565b34801561082057600080fd5b50600954610399906001600160a01b031681565b34801561084057600080fd5b5061036661084f366004613fcb565b613421565b34801561086057600080fd5b5061034e61086f366004613ff7565b613452565b34801561088057600080fd5b5061036661088f366004613c3e565b6134c5565b3480156108a057600080fd5b506103666108af366004613ff7565b600060208181529281526040808220909352908152205481565b3480156108d557600080fd5b506103f16108e4366004613c6b565b60086020526000908152604090205460ff1681565b34801561090557600080fd5b5061034e610914366004613fcb565b61360d565b34801561092557600080fd5b50601454610399906001600160a01b031681565b34801561094557600080fd5b50610366600b5481565b34801561095b57600080fd5b5061034e61096a366004614025565b613820565b34801561097b57600080fd5b5061036660165481565b34801561099157600080fd5b5061034e6109a0366004613ff7565b613870565b3480156109b157600080fd5b506103996109c0366004613bd3565b6000908152600560205260409020546001600160a01b031690565b6013546040805180820190915260018152601960f91b6020820152906001600160a01b03163314610a285760405162461bcd60e51b8152600401610a1f9190614051565b60405180910390fd5b5060005b8351811015610bd7576000848281518110610a4957610a496140a0565b60200260200101519050610ab76003805480602002602001604051908101604052809291908181526020018280548015610aac57602002820191906000526020600020905b81546001600160a01b03168152600190910190602001808311610a8e575b505050505082610d85565b1515600003610b0c57600380546001810182556000919091527fc2575a0e9e593c00f959f8c92f12db2869c3395a3b0502d05e2516446f71f85b0180546001600160a01b0319166001600160a01b0383161790555b828281518110610b1e57610b1e6140a0565b602002602001015160026000836001600160a01b03166001600160a01b0316815260200190815260200160002060006101000a8154816001600160a01b0302191690836001600160a01b03160217905550838281518110610b8157610b816140a0565b6020908102919091018101516001600160a01b039283166000908152600e8352604080822080546001600160a01b0319169590931694909417909155600690915220805460ff1916600190811790915501610a2c565b50505050565b60078181548110610bed57600080fd5b6000918252602090912001546001600160a01b0316905081565b600081815260056020526040808220548151635d3e2fa160e01b815291516001600160a01b039091169183918391635d3e2fa1916004808301926101009291908290030181865afa158015610c60573d6000803e3d6000fd5b505050506040513d601f19601f82011682018060405250810190610c8491906140cc565b60c08101516001600160a01b0390811660009081526002602052604080822054905163a52f38d160e01b815260048101899052939450909291169063a52f38d190602401602060405180830381865afa158015610ce5573d6000803e3d6000fd5b505050506040513d601f19601f82011682018060405250810190610d099190614188565b604051632696439560e11b815260048101829052600060248201529091506001600160a01b03841690634d2c872a90604401602060405180830381865afa158015610d58573d6000803e3d6000fd5b505050506040513d601f19601f82011682018060405250810190610d7c9190614188565b95945050505050565b600080805b8451811015610dd657836001600160a01b0316858281518110610daf57610daf6140a0565b60200260200101516001600160a01b031603610dce5760019150610dd6565b600101610d8a565b5090505b92915050565b600082815260056020526040808220548151635d3e2fa160e01b815291516001600160a01b039091169183918391635d3e2fa1916004808301926101009291908290030181865afa158015610e39573d6000803e3d6000fd5b505050506040513d601f19601f82011682018060405250810190610e5d91906140cc565b60c08101516001600160a01b0390811660009081526002602052604080822054905163a52f38d160e01b8152600481018a9052939450909291169063a52f38d190602401602060405180830381865afa158015610ebe573d6000803e3d6000fd5b505050506040513d601f19601f82011682018060405250810190610ee29190614188565b604051632696439560e11b815260048101829052602481018790529091506001600160a01b03841690634d2c872a906044015b602060405180830381865afa158015610f32573d6000803e3d6000fd5b505050506040513d601f19601f82011682018060405250810190610f569190614188565b9695505050505050565b6013546040805180820190915260018152601960f91b6020820152906001600160a01b03163314610fa45760405162461bcd60e51b8152600401610a1f9190614051565b50600980546001600160a01b0319166001600160a01b0392909216919091179055565b6013546040805180820190915260018152601960f91b6020820152906001600160a01b0316331461100b5760405162461bcd60e51b8152600401610a1f9190614051565b5080156110dd57611076600380548060200260200160405190810160405280929190818152602001828054801561106b57602002820191906000526020600020905b81546001600160a01b0316815260019091019060200180831161104d575b505050505084610d85565b604080518082019091526001808252603560f81b602083015290911515146110b15760405162461bcd60e51b8152600401610a1f9190614051565b506001600160a01b0383166000908152600860205260409020805483151560ff19909116179055505050565b61113f600780548060200260200160405190810160405280929190818152602001828054801561106b576020028201919060005260206000209081546001600160a01b0316815260019091019060200180831161104d57505050505084610d85565b604080518082019091526001808252603560f81b6020830152909115151461117a5760405162461bcd60e51b8152600401610a1f9190614051565b506001600160a01b0383166000908152600660205260409020805483151560ff19909116179055505050565b600081815260056020526040808220548151635d3e2fa160e01b815291516001600160a01b0390911692918391635d3e2fa191600480820192610100929091908290030181865afa1580156111ff573d6000803e3d6000fd5b505050506040513d601f19601f8201168201806040525081019061122391906140cc565b60c08101516001600160a01b0390811660009081526002602052604080822054905163a52f38d160e01b815260048101889052939450909291169063a52f38d190602401602060405180830381865afa158015611284573d6000803e3d6000fd5b505050506040513d601f19601f820116820180604052508101906112a89190614188565b9050826001600160a01b031663d296d1f1826016546017546018546112cd91906141b7565b6112d791906141b7565b6040516001600160e01b031960e085901b16815260048101929092526024820152604401600060405180830381600087803b15801561131557600080fd5b505af1158015611329573d6000803e3d6000fd5b505050508160c001516001600160a01b03166323b872dd843061271060165460175460185461271061135b91906141b7565b61136591906141b7565b61136f91906141b7565b61137990876141ca565b61138391906141e1565b6040516001600160e01b031960e086901b1681526001600160a01b03938416600482015292909116602483015260448201526064016020604051808303816000875af11580156113d7573d6000803e3d6000fd5b505050506040513d601f19601f820116820180604052508101906113fb9190614203565b5060c08201516001600160a01b039081166000818152600260205260409081902054905163095ea7b360e01b815292166004830152602482018390529063095ea7b3906044016020604051808303816000875af1158015611460573d6000803e3d6000fd5b505050506040513d601f19601f820116820180604052508101906114849190614203565b5060c08201516001600160a01b039081166000908152600260205260409081902054905163d8aed14560e01b8152600481018790526024810184905291169063d8aed14590604401600060405180830381600087803b1580156114e657600080fd5b505af11580156114fa573d6000803e3d6000fd5b505050508160c001516001600160a01b031663a9059cbb601260009054906101000a90046001600160a01b03166127106016548561153891906141ca565b61154291906141e1565b6040516001600160e01b031960e085901b1681526001600160a01b03909216600483015260248201526044016020604051808303816000875af115801561158d573d6000803e3d6000fd5b505050506040513d601f19601f820116820180604052508101906115b19190614203565b5060c08201516011546017546001600160a01b039283169263a9059cbb921690612710906115df90866141ca565b6115e991906141e1565b6040516001600160e01b031960e085901b1681526001600160a01b03909216600483015260248201526044016020604051808303816000875af1158015611634573d6000803e3d6000fd5b505050506040513d601f19601f820116820180604052508101906116589190614203565b5060006127106017548361166c91906141ca565b61167691906141e1565b6127106016548461168791906141ca565b61169191906141e1565b836127106016546017546018546127106116ab91906141b7565b6116b591906141b7565b6116bf91906141b7565b6116c990876141ca565b6116d391906141e1565b6116dd9190614220565b6116e79190614220565b6116f19190614220565b60c08401516001600160a01b039081166000818152600260205260409081902054905163095ea7b360e01b8152921660048301526024820183905291925063095ea7b3906044016020604051808303816000875af1158015611757573d6000803e3d6000fd5b505050506040513d601f19601f8201168201806040525081019061177b9190614203565b5060c08301516001600160a01b03908116600090815260026020526040908190205490517f7f3940310000000000000000000000000000000000000000000000000000000081526004810188905260248101849052911690637f39403190604401600060405180830381600087803b1580156117f657600080fd5b505af115801561180a573d6000803e3d6000fd5b50505060008681526005602052604080822054815163232fa73360e01b815291516001600160a01b03909116935063232fa7339260048084019391929182900301818387803b15801561185c57600080fd5b505af1158015611870573d6000803e3d6000fd5b5050604080518881524260208201523393507f3c4b1d42b9c7fa283f6fe657533f6a5a8a7ad1d36f9ef1d9d89ad04485e10d2c92500160405180910390a25050505050565b6013546040805180820190915260018152601960f91b6020820152906001600160a01b031633146118f95760405162461bcd60e51b8152600401610a1f9190614051565b50600480546001600160a01b0319166001600160a01b0392909216919091179055565b6001600160a01b0382166000908152600860209081526040918290205482518084019093526001808452600d60fa1b9284019290925284929160ff90911615151461197a5760405162461bcd60e51b8152600401610a1f9190614051565b508115611a25576040805180820190915260018152601b60f91b6020820152348511156119ba5760405162461bcd60e51b8152600401610a1f9190614051565b50601460009054906101000a90046001600160a01b03166001600160a01b031663d0e30db0856040518263ffffffff1660e01b81526004016000604051808303818588803b158015611a0b57600080fd5b505af1158015611a1f573d6000803e3d6000fd5b50505050505b60008581526005602052604090819020549051633390ef1360e11b8152600481018690526001600160a01b03909116908190636721de2690602401600060405180830381600087803b158015611a7a57600080fd5b505af1158015611a8e573d6000803e3d6000fd5b505050508215611b115760405163a9059cbb60e01b81526001600160a01b0382811660048301526024820187905285169063a9059cbb906044016020604051808303816000875af1158015611ae7573d6000803e3d6000fd5b505050506040513d601f19601f82011682018060405250810190611b0b9190614203565b50611b8c565b6040516323b872dd60e01b81523360048201526001600160a01b038281166024830152604482018790528516906323b872dd906064016020604051808303816000875af1158015611b66573d6000803e3d6000fd5b505050506040513d601f19601f82011682018060405250810190611b8a9190614203565b505b60408051878152602081018790526001600160a01b038616818301528415156060820152426080820152905133917fa41307c7b4c963a200284b8ab310b85c69dc52a94c312708afc5944c278caaf7919081900360a00190a2505050505050565b6013546040805180820190915260018152601960f91b6020820152906001600160a01b03163314611c315760405162461bcd60e51b8152600401610a1f9190614051565b50601480546001600160a01b0319166001600160a01b0392909216919091179055565b600082815260056020526040808220548151635d3e2fa160e01b815291516001600160a01b0390911692918391635d3e2fa191600480820192610100929091908290030181865afa158015611cad573d6000803e3d6000fd5b505050506040513d601f19601f82011682018060405250810190611cd191906140cc565b60808101516040517f102cb82e0000000000000000000000000000000000000000000000000000000081526001600160a01b039182166004820152851515602482015291925083169063102cb82e90604401600060405180830381600087803b158015611d3d57600080fd5b505af1158015611d51573d6000803e3d6000fd5b505060408051878152861515602082015242918101919091523392507f8d1d302d01bababc9c00da7a7d2adabd6e02f4ccdb4855101e617c2ef159db0c91506060015b60405180910390a250505050565b7ff0c57e16840df040f15088dc2f81fe391c3923bec73e23a9662efc9c229c6a00805468010000000000000000810460ff16159067ffffffffffffffff16600081158015611ded5750825b905060008267ffffffffffffffff166001148015611e0a5750303b155b905081158015611e18575080155b15611e4f576040517ff92ee8a900000000000000000000000000000000000000000000000000000000815260040160405180910390fd5b845467ffffffffffffffff191660011785558315611e8357845468ff00000000000000001916680100000000000000001785555b8e60039080519060200190611e9992919061396e565b506001805560005b600354811015611fa657600060038281548110611ec057611ec06140a0565b6000918252602090912001548f516001600160a01b0390911691508f9083908110611eed57611eed6140a0565b602002602001015160026000836001600160a01b03166001600160a01b0316815260200190815260200160002060006101000a8154816001600160a01b0302191690836001600160a01b031602179055508f8281518110611f5057611f506140a0565b6020908102919091018101516001600160a01b039283166000908152600e8352604080822080546001600160a01b0319169590931694909417909155600690915220805460ff1916600190811790915501611ea1565b508b51611fba9060079060208f019061396e565b5060005b6007548110156120c357600060078281548110611fdd57611fdd6140a0565b6000918252602090912001548d516001600160a01b0390911691508d908390811061200a5761200a6140a0565b6020026020010151600d6000836001600160a01b03166001600160a01b0316815260200190815260200160002060006101000a8154816001600160a01b0302191690836001600160a01b031602179055508b828151811061206d5761206d6140a0565b6020908102919091018101516001600160a01b039283166000908152600a8352604080822080546001600160a01b0319169590931694909417909155600890915220805460ff1916600190811790915501611fbe565b50600980546001600160a01b03808c166001600160a01b0319928316179092556004805492891692821692909217909155600b899055600c8890556013805490911633179055831561215457845468ff000000000000000019168555604051600181527fc7f505b2f371ae2175ee4913f4499e1f2633a7b5936321eed1cdaeb6115181d29060200160405180910390a15b505050505050505050505050505050565b6013546040805180820190915260018152601960f91b6020820152906001600160a01b031633146121a95760405162461bcd60e51b8152600401610a1f9190614051565b50601955565b6013546040805180820190915260018152601960f91b6020820152906001600160a01b031633146121f35760405162461bcd60e51b8152600401610a1f9190614051565b5060005b8351811015610bd7576000848281518110612214576122146140a0565b602002602001015190506122806007805480602002602001604051908101604052809291908181526020018280548015610aac576020028201919060005260206000209081546001600160a01b03168152600190910190602001808311610a8e57505050505082610d85565b15156000036122d557600780546001810182556000919091527fa66cc928b5edb82af9bd49922954155ab7b0942694bea4ce44661d9a8736c6880180546001600160a01b0319166001600160a01b0383161790555b8382815181106122e7576122e76140a0565b6020026020010151600d6000836001600160a01b03166001600160a01b0316815260200190815260200160002060006101000a8154816001600160a01b0302191690836001600160a01b0316021790555082828151811061234a5761234a6140a0565b6020908102919091018101516001600160a01b039283166000908152600a8352604080822080546001600160a01b0319169590931694909417909155600890915220805460ff19166001908117909155016121f7565b6001600160a01b03811660009081526015602090815260409182902080548351818402810184019094528084526060939283018282801561240057602002820191906000526020600020905b8154815260200190600101908083116123ec575b50505050509050919050565b6001600160a01b0381166000908152600660209081526040918290205482518084019093526001808452603360f81b9284019290925283929160ff90911615151461246a5760405162461bcd60e51b8152600401610a1f9190614051565b506040516323b872dd60e01b8152336004820152306024820152604481018490526001600160a01b038316906323b872dd906064016020604051808303816000875af11580156124be573d6000803e3d6000fd5b505050506040513d601f19601f820116820180604052508101906124e29190614203565b506001600160a01b038281166000818152600260205260409081902054905163095ea7b360e01b815292166004830152602482018590529063095ea7b3906044016020604051808303816000875af1158015612542573d6000803e3d6000fd5b505050506040513d601f19601f820116820180604052508101906125669190614203565b506001600160a01b038281166000908152600260205260409081902054905163d8aed14560e01b8152600481018790526024810186905291169063d8aed14590604401600060405180830381600087803b1580156125c357600080fd5b505af11580156125d7573d6000803e3d6000fd5b505050506001600160a01b038281166000908152600260205260409081902054905163a52f38d160e01b81526004810187905291169063a52f38d190602401602060405180830381865afa158015612633573d6000803e3d6000fd5b505050506040513d601f19601f820116820180604052508101906126579190614188565b6000036126c35760008481526005602052604080822054815163232fa73360e01b815291516001600160a01b039091169263232fa733926004808201939182900301818387803b1580156126aa57600080fd5b505af11580156126be573d6000803e3d6000fd5b505050505b60408051858152602081018590526001600160a01b0384169181019190915242606082015233907f516b9ee1e9b8b43ca5f4a91397869e2190ccd60972b6ec439739892922434cb090608001611d94565b60006127218260006132c0565b612710846001600160a01b031663313ce5676040518163ffffffff1660e01b8152600401602060405180830381865afa158015612762573d6000803e3d6000fd5b505050506040513d601f19601f820116820180604052508101906127869190614233565b61279190600a61433a565b61279c8660016132c0565b600b54866001600160a01b031663313ce5676040518163ffffffff1660e01b8152600401602060405180830381865afa1580156127dd573d6000803e3d6000fd5b505050506040513d601f19601f820116820180604052508101906128019190614233565b61280c90600a61433a565b612816908a6141ca565b61282091906141ca565b61282a91906141ca565b61283491906141e1565b61283e91906141e1565b61284891906141e1565b949350505050565b6001600160a01b0385166000908152600660209081526040918290205482518084019093526001808452603360f81b9284019290925287929160ff9091161515146128ae5760405162461bcd60e51b8152600401610a1f9190614051565b506001600160a01b0384166000908152600860209081526040918290205482518084019093526001808452600d60fa1b9284019290925286929160ff90911615151461290d5760405162461bcd60e51b8152600401610a1f9190614051565b5082156129b8576040805180820190915260018152601b60f91b60208201523487111561294d5760405162461bcd60e51b8152600401610a1f9190614051565b50601460009054906101000a90046001600160a01b03166001600160a01b031663d0e30db0876040518263ffffffff1660e01b81526004016000604051808303818588803b15801561299e57600080fd5b505af11580156129b2573d6000803e3d6000fd5b50505050505b866001600160a01b031663313ce5676040518163ffffffff1660e01b8152600401602060405180830381865afa1580156129f6573d6000803e3d6000fd5b505050506040513d601f19601f82011682018060405250810190612a1a9190614233565b612a2590600a61433a565b612a308860016132c0565b612a3a908a6141ca565b612a46906127106141ca565b612a5091906141e1565b856001600160a01b031663313ce5676040518163ffffffff1660e01b8152600401602060405180830381865afa158015612a8e573d6000803e3d6000fd5b505050506040513d601f19601f82011682018060405250810190612ab29190614233565b612abd90600a61433a565b600b54612acb8860006132c0565b612ad5908a6141ca565b612adf91906141ca565b612ae991906141e1565b10156040518060400160405280600181526020017f370000000000000000000000000000000000000000000000000000000000000081525090612b3f5760405162461bcd60e51b8152600401610a1f9190614051565b506001600160a01b038088166000908152600260209081526040918290205482517f3b24cc2100000000000000000000000000000000000000000000000000000000815292518c949190911692633b24cc219260048083019391928290030181865afa158015612bb3573d6000803e3d6000fd5b505050506040513d601f19601f82011682018060405250810190612bd79190614188565b10156040518060400160405280600181526020017f380000000000000000000000000000000000000000000000000000000000000081525090612c2d5760405162461bcd60e51b8152600401610a1f9190614051565b506040805161010081018252600060208083018290526060830182905260a0830182905260e0830182905233608084018181528486018e815260015486526001600160a01b038e811660c0880181905286526002909452938690205485519451915196517fd6bda0c00000000000000000000000000000000000000000000000000000000081526004810195909552602485019190915294821660448401529293169063d6bda0c090606401600060405180830381600087803b158015612cf357600080fd5b505af1158015612d07573d6000803e3d6000fd5b5050506001600160a01b03808b166000908152600e602052604081205460045490831693508a92612d3891166138e3565b90506000819050806001600160a01b031663e0af21938785600960009054906101000a90046001600160a01b0316600a6000896001600160a01b03166001600160a01b0316815260200190815260200160002060009054906101000a90046001600160a01b0316600b54600c54600d60008c6001600160a01b03166001600160a01b0316815260200190815260200160002060009054906101000a90046001600160a01b03168c601260009054906101000a90046001600160a01b0316601460009054906101000a90046001600160a01b03166040518b63ffffffff1660e01b8152600401612e309a99989796959493929190614349565b600060405180830381600087803b158015612e4a57600080fd5b505af1158015612e5e573d6000803e3d6000fd5b50506040517f8ac1b7750000000000000000000000000000000000000000000000000000000081523060048201526001600160a01b0384169250638ac1b7759150602401600060405180830381600087803b158015612ebc57600080fd5b505af1158015612ed0573d6000803e3d6000fd5b5050600f546010546040517fdc40e2d00000000000000000000000000000000000000000000000000000000081526001600160a01b0392831660048201529082166024820152908416925063dc40e2d09150604401600060405180830381600087803b158015612f3f57600080fd5b505af1158015612f53573d6000803e3d6000fd5b50506019546040517f626a35fb00000000000000000000000000000000000000000000000000000000815260048101919091526001600160a01b038416925063626a35fb9150602401600060405180830381600087803b158015612fb657600080fd5b505af1158015612fca573d6000803e3d6000fd5b5050604051633390ef1360e11b8152600481018f90526001600160a01b0384169250636721de269150602401600060405180830381600087803b15801561301057600080fd5b505af1158015613024573d6000803e3d6000fd5b5050505088156130a75760405163a9059cbb60e01b81526001600160a01b038381166004830152602482018e90528c169063a9059cbb906044016020604051808303816000875af115801561307d573d6000803e3d6000fd5b505050506040513d601f19601f820116820180604052508101906130a19190614203565b50613122565b6040516323b872dd60e01b81523360048201526001600160a01b038381166024830152604482018e90528c16906323b872dd906064016020604051808303816000875af11580156130fc573d6000803e3d6000fd5b505050506040513d601f19601f820116820180604052508101906131209190614203565b505b89151560010361318057806001600160a01b03166307a6bf696040518163ffffffff1660e01b8152600401600060405180830381600087803b15801561316757600080fd5b505af115801561317b573d6000803e3d6000fd5b505050505b8060056000600154815260200190815260200160002060006101000a8154816001600160a01b0302191690836001600160a01b0316021790555060156000336001600160a01b03166001600160a01b031681526020019081526020016000206001549080600181540180825580915050600190039060005260206000200160009091909190915055336001600160a01b03167f5727112172b6092c7288ef1d857adc455935319c0870d1ace4c13383215e53dc8f8f8f8f8f8f600154426040516132939897969594939291909788526001600160a01b03968716602089015260408801959095529290941660608601521515608085015291151560a084015260c083019190915260e08201526101000190565b60405180910390a2600180549060006132ab83614461565b91905055505050505050505050505050505050565b60008115158103613361576001600160a01b038084166000908152600d6020526040808220548151633fabe5a360e21b8152915192938493849384938493169163feaf968c9160048082019260a0929091908290030181865afa15801561332b573d6000803e3d6000fd5b505050506040513d601f19601f8201168201806040525081019061334f9190614494565b50919850610dda975050505050505050565b6001600160a01b038084166000908152600e6020526040808220548151633fabe5a360e21b8152915192938493849384938493169163feaf968c9160048082019260a0929091908290030181865afa15801561332b573d6000803e3d6000fd5b6013546040805180820190915260018152601960f91b6020820152906001600160a01b031633146134055760405162461bcd60e51b8152600401610a1f9190614051565b50600b91909155600c55565b60038181548110610bed57600080fd5b6015602052816000526040600020818154811061343d57600080fd5b90600052602060002001600091509150505481565b6013546040805180820190915260018152601960f91b6020820152906001600160a01b031633146134965760405162461bcd60e51b8152600401610a1f9190614051565b50600f80546001600160a01b039384166001600160a01b03199182161790915560108054929093169116179055565b600082815260056020526040808220548151635d3e2fa160e01b815291516001600160a01b039091169183918391635d3e2fa1916004808301926101009291908290030181865afa15801561351e573d6000803e3d6000fd5b505050506040513d601f19601f8201168201806040525081019061354291906140cc565b60c08101516001600160a01b0390811660009081526002602052604080822054905163a52f38d160e01b8152600481018a9052939450909291169063a52f38d190602401602060405180830381865afa1580156135a3573d6000803e3d6000fd5b505050506040513d601f19601f820116820180604052508101906135c79190614188565b90506001600160a01b038316634d2c872a6135e28784614220565b6040516001600160e01b031960e084901b168152600481019190915260006024820152604401610f15565b600081815260056020526040808220548151635d3e2fa160e01b815291516001600160a01b0390911692918391635d3e2fa191600480820192610100929091908290030181865afa158015613666573d6000803e3d6000fd5b505050506040513d601f19601f8201168201806040525081019061368a91906140cc565b608081015160408051808201909152600181527f390000000000000000000000000000000000000000000000000000000000000060208201529192506001600160a01b031633146136ee5760405162461bcd60e51b8152600401610a1f9190614051565b506001600160a01b038481166000908152600260205260409081902054608084015191517fec7be39d0000000000000000000000000000000000000000000000000000000081529183166004830152602482018690529091169063ec7be39d90604401600060405180830381600087803b15801561376b57600080fd5b505af115801561377f573d6000803e3d6000fd5b50505050816001600160a01b031663fab320e96040518163ffffffff1660e01b8152600401600060405180830381600087803b1580156137be57600080fd5b505af11580156137d2573d6000803e3d6000fd5b5050604080518681526001600160a01b038816602082015242918101919091523392507f926902dafb3e2e10ccc80a644aed5f39170af68180261fbcde7c04fa328c9c419150606001611d94565b6013546040805180820190915260018152601960f91b6020820152906001600160a01b031633146138645760405162461bcd60e51b8152600401610a1f9190614051565b50601855601755601655565b6013546040805180820190915260018152601960f91b6020820152906001600160a01b031633146138b45760405162461bcd60e51b8152600401610a1f9190614051565b50601180546001600160a01b039384166001600160a01b03199182161790915560128054929093169116179055565b6000763d602d80600a3d3981f3363d3d373d3d3d363d730000008260601b60e81c176000526e5af43d82803e903d91602b57fd5bf38260781b17602052603760096000f090506001600160a01b038116613969576040517fc2f868f400000000000000000000000000000000000000000000000000000000815260040160405180910390fd5b919050565b8280548282559060005260206000209081019282156139c3579160200282015b828111156139c357825182546001600160a01b0319166001600160a01b0390911617825560209092019160019091019061398e565b506139cf9291506139d3565b5090565b5b808211156139cf57600081556001016139d4565b634e487b7160e01b600052604160045260246000fd5b604051601f8201601f1916810167ffffffffffffffff81118282101715613a2757613a276139e8565b604052919050565b600067ffffffffffffffff821115613a4957613a496139e8565b5060051b60200190565b6001600160a01b0381168114613a6857600080fd5b50565b600082601f830112613a7c57600080fd5b81356020613a91613a8c83613a2f565b6139fe565b8083825260208201915060208460051b870101935086841115613ab357600080fd5b602086015b84811015613ad8578035613acb81613a53565b8352918301918301613ab8565b509695505050505050565b600082601f830112613af457600080fd5b81356020613b04613a8c83613a2f565b8083825260208201915060208460051b870101935086841115613b2657600080fd5b602086015b84811015613ad8578035613b3e81613a53565b8352918301918301613b2b565b600080600060608486031215613b6057600080fd5b833567ffffffffffffffff80821115613b7857600080fd5b613b8487838801613a6b565b94506020860135915080821115613b9a57600080fd5b613ba687838801613ae3565b93506040860135915080821115613bbc57600080fd5b50613bc986828701613a6b565b9150509250925092565b600060208284031215613be557600080fd5b5035919050565b60008060408385031215613bff57600080fd5b823567ffffffffffffffff811115613c1657600080fd5b613c2285828601613a6b565b9250506020830135613c3381613a53565b809150509250929050565b60008060408385031215613c5157600080fd5b50508035926020909101359150565b803561396981613a53565b600060208284031215613c7d57600080fd5b8135613c8881613a53565b9392505050565b8015158114613a6857600080fd5b600080600060608486031215613cb257600080fd5b8335613cbd81613a53565b92506020840135613ccd81613c8f565b91506040840135613cdd81613c8f565b809150509250925092565b60008060008060808587031215613cfe57600080fd5b84359350602085013592506040850135613d1781613a53565b91506060850135613d2781613c8f565b939692955090935050565b60008060408385031215613d4557600080fd5b823591506020830135613c3381613c8f565b6000806000806000806000806000806101408b8d031215613d7757600080fd5b8a3567ffffffffffffffff80821115613d8f57600080fd5b613d9b8e838f01613a6b565b9b5060208d0135915080821115613db157600080fd5b613dbd8e838f01613ae3565b9a5060408d0135915080821115613dd357600080fd5b613ddf8e838f01613a6b565b995060608d0135915080821115613df557600080fd5b613e018e838f01613a6b565b985060808d0135915080821115613e1757600080fd5b613e238e838f01613ae3565b975060a08d0135915080821115613e3957600080fd5b50613e468d828e01613a6b565b955050613e5560c08c01613c60565b935060e08b013592506101008b01359150613e736101208c01613c60565b90509295989b9194979a5092959850565b6020808252825182820181905260009190848201906040850190845b81811015613ebc57835183529284019291840191600101613ea0565b50909695505050505050565b600080600060608486031215613edd57600080fd5b83359250602084013591506040840135613cdd81613a53565b600080600060608486031215613f0b57600080fd5b833592506020840135613f1d81613a53565b91506040840135613cdd81613a53565b60008060008060008060c08789031215613f4657600080fd5b863595506020870135613f5881613a53565b9450604087013593506060870135613f6f81613a53565b92506080870135613f7f81613c8f565b915060a0870135613f8f81613c8f565b809150509295509295509295565b60008060408385031215613fb057600080fd5b8235613fbb81613a53565b91506020830135613c3381613c8f565b60008060408385031215613fde57600080fd5b8235613fe981613a53565b946020939093013593505050565b6000806040838503121561400a57600080fd5b823561401581613a53565b91506020830135613c3381613a53565b60008060006060848603121561403a57600080fd5b505081359360208301359350604090920135919050565b60006020808352835180602085015260005b8181101561407f57858101830151858201604001528201614063565b506000604082860101526040601f19601f8301168501019250505092915050565b634e487b7160e01b600052603260045260246000fd5b805161396981613c8f565b805161396981613a53565b60006101008083850312156140e057600080fd5b6040519081019067ffffffffffffffff82118183101715614103576141036139e8565b81604052835181526020840151915061411b82613c8f565b81602082015260408401516040820152614137606085016140b6565b6060820152614148608085016140c1565b608082015261415960a085016140b6565b60a082015261416a60c085016140c1565b60c082015261417b60e085016140b6565b60e0820152949350505050565b60006020828403121561419a57600080fd5b5051919050565b634e487b7160e01b600052601160045260246000fd5b80820180821115610dda57610dda6141a1565b8082028115828204841417610dda57610dda6141a1565b6000826141fe57634e487b7160e01b600052601260045260246000fd5b500490565b60006020828403121561421557600080fd5b8151613c8881613c8f565b81810381811115610dda57610dda6141a1565b60006020828403121561424557600080fd5b815160ff81168114613c8857600080fd5b600181815b80851115614291578160001904821115614277576142776141a1565b8085161561428457918102915b93841c939080029061425b565b509250929050565b6000826142a857506001610dda565b816142b557506000610dda565b81600181146142cb57600281146142d5576142f1565b6001915050610dda565b60ff8411156142e6576142e66141a1565b50506001821b610dda565b5060208310610133831016604e8410600b8410161715614314575081810a610dda565b61431e8383614256565b8060001904821115614332576143326141a1565b029392505050565b6000613c8860ff841683614299565b6000610220820190508b51825260208c01511515602083015260408c0151604083015260608c0151151560608301526001600160a01b0360808d015116608083015260a08c015161439e60a084018215159052565b5060c08c01516143b960c08401826001600160a01b03169052565b5060e08c01516143cd60e084018215159052565b506001600160a01b038b166101008301526001600160a01b038a166101208301526001600160a01b03891661014083015287610160830152866101808301526144226101a08301876001600160a01b03169052565b6001600160a01b0385166101c08301526001600160a01b0384166101e08301526001600160a01b0383166102008301529b9a5050505050505050505050565b600060018201614473576144736141a1565b5060010190565b805169ffffffffffffffffffff8116811461396957600080fd5b600080600080600060a086880312156144ac57600080fd5b6144b58661447a565b94506020860151935060408601519250606086015191506144d86080870161447a565b9050929550929590935056fea2646970667358221220e680b1bc842bb6f3de140d48b0ddf7745c9ae686a7f798fe24d18a4b914d606664736f6c63430008180033",
  "linkReferences": {},
  "deployedLinkReferences": {}
}