{
  "_format": "hh-sol-artifact-1",
  "contractName": "CCFLPool",
  "sourceName": "contracts/CCFLPool.sol",
  "abi": [
    {
      "inputs": [],
      "name": "InvalidInitialization",
      "type": "error"
    },
    {
      "inputs": [],
      "name": "NotInitializing",
      "type": "error"
    },
    {
      "inputs": [
        {
          "internalType": "uint8",
          "name": "bits",
          "type": "uint8"
        },
        {
          "internalType": "uint256",
          "name": "value",
          "type": "uint256"
        }
      ],
      "name": "SafeCastOverflowedUintDowncast",
      "type": "error"
    },
    {
      "anonymous": false,
      "inputs": [
        {
          "indexed": true,
          "internalType": "address",
          "name": "lender",
          "type": "address"
        },
        {
          "indexed": true,
          "internalType": "address",
          "name": "poolAddress",
          "type": "address"
        },
        {
          "indexed": true,
          "internalType": "contract IERC20Standard",
          "name": "stableCoin",
          "type": "address"
        },
        {
          "indexed": false,
          "internalType": "uint256",
          "name": "amount",
          "type": "uint256"
        },
        {
          "indexed": false,
          "internalType": "uint256",
          "name": "lenderShare",
          "type": "uint256"
        },
        {
          "indexed": false,
          "internalType": "uint256",
          "name": "totalSupply",
          "type": "uint256"
        },
        {
          "indexed": false,
          "internalType": "uint256",
          "name": "totalLiquidity",
          "type": "uint256"
        },
        {
          "indexed": false,
          "internalType": "uint256",
          "name": "remainingPool",
          "type": "uint256"
        }
      ],
      "name": "AddSupply",
      "type": "event"
    },
    {
      "anonymous": false,
      "inputs": [
        {
          "indexed": false,
          "internalType": "uint64",
          "name": "version",
          "type": "uint64"
        }
      ],
      "name": "Initialized",
      "type": "event"
    },
    {
      "anonymous": false,
      "inputs": [
        {
          "indexed": true,
          "internalType": "address",
          "name": "lender",
          "type": "address"
        },
        {
          "indexed": true,
          "internalType": "address",
          "name": "poolAddress",
          "type": "address"
        },
        {
          "indexed": true,
          "internalType": "contract IERC20Standard",
          "name": "stableCoin",
          "type": "address"
        },
        {
          "indexed": false,
          "internalType": "uint256",
          "name": "amount",
          "type": "uint256"
        },
        {
          "indexed": false,
          "internalType": "uint256",
          "name": "lenderShare",
          "type": "uint256"
        },
        {
          "indexed": false,
          "internalType": "uint256",
          "name": "totalSupply",
          "type": "uint256"
        },
        {
          "indexed": false,
          "internalType": "uint256",
          "name": "totalLiquidity",
          "type": "uint256"
        },
        {
          "indexed": false,
          "internalType": "uint256",
          "name": "remainingPool",
          "type": "uint256"
        }
      ],
      "name": "WithdrawSupply",
      "type": "event"
    },
    {
      "inputs": [],
      "name": "CCFL",
      "outputs": [
        {
          "internalType": "address",
          "name": "",
          "type": "address"
        }
      ],
      "stateMutability": "view",
      "type": "function"
    },
    {
      "inputs": [
        {
          "internalType": "address",
          "name": "_user",
          "type": "address"
        }
      ],
      "name": "balanceOf",
      "outputs": [
        {
          "internalType": "uint256",
          "name": "",
          "type": "uint256"
        }
      ],
      "stateMutability": "view",
      "type": "function"
    },
    {
      "inputs": [
        {
          "internalType": "uint256",
          "name": "_loanId",
          "type": "uint256"
        },
        {
          "internalType": "uint256",
          "name": "_amount",
          "type": "uint256"
        },
        {
          "internalType": "address",
          "name": "_borrower",
          "type": "address"
        },
        {
          "internalType": "bool",
          "name": "_isFiat",
          "type": "bool"
        }
      ],
      "name": "borrow",
      "outputs": [],
      "stateMutability": "nonpayable",
      "type": "function"
    },
    {
      "inputs": [],
      "name": "cap",
      "outputs": [
        {
          "internalType": "uint256",
          "name": "",
          "type": "uint256"
        }
      ],
      "stateMutability": "view",
      "type": "function"
    },
    {
      "inputs": [
        {
          "internalType": "uint256",
          "name": "",
          "type": "uint256"
        }
      ],
      "name": "debt",
      "outputs": [
        {
          "internalType": "uint256",
          "name": "",
          "type": "uint256"
        }
      ],
      "stateMutability": "view",
      "type": "function"
    },
    {
      "inputs": [
        {
          "internalType": "address",
          "name": "",
          "type": "address"
        }
      ],
      "name": "depositWithdrawAmount",
      "outputs": [
        {
          "internalType": "uint256",
          "name": "",
          "type": "uint256"
        }
      ],
      "stateMutability": "view",
      "type": "function"
    },
    {
      "inputs": [
        {
          "internalType": "uint256",
          "name": "_amount",
          "type": "uint256"
        }
      ],
      "name": "earnStaking",
      "outputs": [],
      "stateMutability": "nonpayable",
      "type": "function"
    },
    {
      "inputs": [
        {
          "internalType": "uint256",
          "name": "_loanId",
          "type": "uint256"
        }
      ],
      "name": "getCurrentLoan",
      "outputs": [
        {
          "internalType": "uint256",
          "name": "",
          "type": "uint256"
        }
      ],
      "stateMutability": "view",
      "type": "function"
    },
    {
      "inputs": [],
      "name": "getCurrentRate",
      "outputs": [
        {
          "internalType": "uint256",
          "name": "",
          "type": "uint256"
        },
        {
          "internalType": "uint256",
          "name": "",
          "type": "uint256"
        },
        {
          "internalType": "uint256",
          "name": "",
          "type": "uint256"
        },
        {
          "internalType": "uint256",
          "name": "",
          "type": "uint256"
        }
      ],
      "stateMutability": "view",
      "type": "function"
    },
    {
      "inputs": [],
      "name": "getDebtPool",
      "outputs": [
        {
          "internalType": "uint256",
          "name": "amount",
          "type": "uint256"
        }
      ],
      "stateMutability": "view",
      "type": "function"
    },
    {
      "inputs": [
        {
          "internalType": "address",
          "name": "_user",
          "type": "address"
        }
      ],
      "name": "getDepositWithdrawAmount",
      "outputs": [
        {
          "internalType": "uint256",
          "name": "",
          "type": "uint256"
        }
      ],
      "stateMutability": "view",
      "type": "function"
    },
    {
      "inputs": [],
      "name": "getRemainingPool",
      "outputs": [
        {
          "internalType": "uint256",
          "name": "amount",
          "type": "uint256"
        }
      ],
      "stateMutability": "view",
      "type": "function"
    },
    {
      "inputs": [],
      "name": "getTotalSupply",
      "outputs": [
        {
          "internalType": "uint256",
          "name": "",
          "type": "uint256"
        }
      ],
      "stateMutability": "view",
      "type": "function"
    },
    {
      "inputs": [
        {
          "internalType": "contract IERC20Standard",
          "name": "_stableCoinAddress",
          "type": "address"
        },
        {
          "internalType": "address",
          "name": "interestRateStrategyAddress",
          "type": "address"
        },
        {
          "internalType": "uint256",
          "name": "_cap",
          "type": "uint256"
        }
      ],
      "name": "initialize",
      "outputs": [],
      "stateMutability": "nonpayable",
      "type": "function"
    },
    {
      "inputs": [],
      "name": "isPaused",
      "outputs": [
        {
          "internalType": "bool",
          "name": "",
          "type": "bool"
        }
      ],
      "stateMutability": "view",
      "type": "function"
    },
    {
      "inputs": [
        {
          "internalType": "uint256",
          "name": "",
          "type": "uint256"
        }
      ],
      "name": "lenders",
      "outputs": [
        {
          "internalType": "address",
          "name": "",
          "type": "address"
        }
      ],
      "stateMutability": "view",
      "type": "function"
    },
    {
      "inputs": [
        {
          "internalType": "uint256",
          "name": "_loanId",
          "type": "uint256"
        },
        {
          "internalType": "uint256",
          "name": "_amount",
          "type": "uint256"
        }
      ],
      "name": "liquidatePenalty",
      "outputs": [],
      "stateMutability": "nonpayable",
      "type": "function"
    },
    {
      "inputs": [
        {
          "internalType": "uint256",
          "name": "",
          "type": "uint256"
        }
      ],
      "name": "loans",
      "outputs": [
        {
          "internalType": "uint256",
          "name": "loanId",
          "type": "uint256"
        },
        {
          "internalType": "bool",
          "name": "isPaid",
          "type": "bool"
        },
        {
          "internalType": "uint256",
          "name": "amount",
          "type": "uint256"
        },
        {
          "internalType": "bool",
          "name": "isClosed",
          "type": "bool"
        },
        {
          "internalType": "address",
          "name": "borrower",
          "type": "address"
        },
        {
          "internalType": "bool",
          "name": "isLiquidated",
          "type": "bool"
        },
        {
          "internalType": "contract IERC20Standard",
          "name": "stableCoin",
          "type": "address"
        },
        {
          "internalType": "bool",
          "name": "isFinalty",
          "type": "bool"
        },
        {
          "internalType": "bool",
          "name": "isFiat",
          "type": "bool"
        },
        {
          "internalType": "uint256",
          "name": "closedAmount",
          "type": "uint256"
        }
      ],
      "stateMutability": "view",
      "type": "function"
    },
    {
      "inputs": [
        {
          "internalType": "address",
          "name": "",
          "type": "address"
        }
      ],
      "name": "operators",
      "outputs": [
        {
          "internalType": "bool",
          "name": "",
          "type": "bool"
        }
      ],
      "stateMutability": "view",
      "type": "function"
    },
    {
      "inputs": [],
      "name": "remainingPool",
      "outputs": [
        {
          "internalType": "uint256",
          "name": "",
          "type": "uint256"
        }
      ],
      "stateMutability": "view",
      "type": "function"
    },
    {
      "inputs": [
        {
          "internalType": "uint256",
          "name": "_loanId",
          "type": "uint256"
        },
        {
          "internalType": "uint256",
          "name": "_amount",
          "type": "uint256"
        }
      ],
      "name": "repay",
      "outputs": [],
      "stateMutability": "nonpayable",
      "type": "function"
    },
    {
      "inputs": [],
      "name": "reserve",
      "outputs": [
        {
          "internalType": "uint128",
          "name": "liquidityIndex",
          "type": "uint128"
        },
        {
          "internalType": "uint128",
          "name": "currentLiquidityRate",
          "type": "uint128"
        },
        {
          "internalType": "uint128",
          "name": "variableBorrowIndex",
          "type": "uint128"
        },
        {
          "internalType": "uint128",
          "name": "currentVariableBorrowRate",
          "type": "uint128"
        },
        {
          "internalType": "uint40",
          "name": "lastUpdateTimestamp",
          "type": "uint40"
        },
        {
          "internalType": "uint16",
          "name": "id",
          "type": "uint16"
        },
        {
          "internalType": "address",
          "name": "interestRateStrategyAddress",
          "type": "address"
        }
      ],
      "stateMutability": "view",
      "type": "function"
    },
    {
      "inputs": [
        {
          "internalType": "address",
          "name": "_ccfl",
          "type": "address"
        }
      ],
      "name": "setCCFL",
      "outputs": [],
      "stateMutability": "nonpayable",
      "type": "function"
    },
    {
      "inputs": [
        {
          "internalType": "uint256",
          "name": "_cap",
          "type": "uint256"
        }
      ],
      "name": "setCap",
      "outputs": [],
      "stateMutability": "nonpayable",
      "type": "function"
    },
    {
      "inputs": [
        {
          "internalType": "address[]",
          "name": "_addresses",
          "type": "address[]"
        },
        {
          "internalType": "bool[]",
          "name": "_isActives",
          "type": "bool[]"
        }
      ],
      "name": "setOperators",
      "outputs": [],
      "stateMutability": "nonpayable",
      "type": "function"
    },
    {
      "inputs": [
        {
          "internalType": "bool",
          "name": "_paused",
          "type": "bool"
        }
      ],
      "name": "setPaused",
      "outputs": [],
      "stateMutability": "nonpayable",
      "type": "function"
    },
    {
      "inputs": [
        {
          "internalType": "address",
          "name": "_interestRateStrategyAddress",
          "type": "address"
        }
      ],
      "name": "setReserveInterestRateStrategy",
      "outputs": [],
      "stateMutability": "nonpayable",
      "type": "function"
    },
    {
      "inputs": [
        {
          "internalType": "address",
          "name": "",
          "type": "address"
        }
      ],
      "name": "share",
      "outputs": [
        {
          "internalType": "uint256",
          "name": "",
          "type": "uint256"
        }
      ],
      "stateMutability": "view",
      "type": "function"
    },
    {
      "inputs": [],
      "name": "stableCoinAddress",
      "outputs": [
        {
          "internalType": "contract IERC20Standard",
          "name": "",
          "type": "address"
        }
      ],
      "stateMutability": "view",
      "type": "function"
    },
    {
      "inputs": [
        {
          "internalType": "uint256",
          "name": "_amount",
          "type": "uint256"
        }
      ],
      "name": "supply",
      "outputs": [],
      "stateMutability": "nonpayable",
      "type": "function"
    },
    {
      "inputs": [],
      "name": "totalDebt",
      "outputs": [
        {
          "internalType": "uint256",
          "name": "",
          "type": "uint256"
        }
      ],
      "stateMutability": "view",
      "type": "function"
    },
    {
      "inputs": [],
      "name": "totalLiquidity",
      "outputs": [
        {
          "internalType": "uint256",
          "name": "",
          "type": "uint256"
        }
      ],
      "stateMutability": "view",
      "type": "function"
    },
    {
      "inputs": [],
      "name": "totalSupply",
      "outputs": [
        {
          "internalType": "uint256",
          "name": "",
          "type": "uint256"
        }
      ],
      "stateMutability": "view",
      "type": "function"
    },
    {
      "inputs": [
        {
          "internalType": "uint256",
          "name": "_amount",
          "type": "uint256"
        }
      ],
      "name": "withdraw",
      "outputs": [],
      "stateMutability": "nonpayable",
      "type": "function"
    },
    {
      "inputs": [
        {
          "internalType": "contract IERC20Standard",
          "name": "_token",
          "type": "address"
        },
        {
          "internalType": "address",
          "name": "_receiver",
          "type": "address"
        }
      ],
      "name": "withdrawByAdmin",
      "outputs": [],
      "stateMutability": "nonpayable",
      "type": "function"
    },
    {
      "inputs": [
        {
          "internalType": "address",
          "name": "_receiver",
          "type": "address"
        },
        {
          "internalType": "uint256",
          "name": "_loanId",
          "type": "uint256"
        }
      ],
      "name": "withdrawLoan",
      "outputs": [],
      "stateMutability": "nonpayable",
      "type": "function"
    },
    {
      "stateMutability": "payable",
      "type": "receive"
    }
  ],
  "bytecode": "0x608060405234801561001057600080fd5b506130b2806100206000396000f3fe6080604052600436106102535760003560e01c80637871b06011610138578063c4e41b22116100b0578063e3691c511161007f578063f430503511610064578063f430503514610829578063f7fb07b014610849578063fc7b9c181461089657600080fd5b8063e3691c51146107e9578063ec7be39d1461080957600080fd5b8063c4e41b221461060c578063cd3293de14610621578063d8aed145146106e7578063e1ec3c681461070757600080fd5b8063982aae4611610107578063a52f38d1116100ec578063a52f38d1146105b5578063b14d37c0146105d5578063b187bd26146105eb57600080fd5b8063982aae46146105755780639b78dbfc1461059557600080fd5b80637871b060146104df5780637f394031146105155780638ac1b77514610535578063929eea211461055557600080fd5b806330793601116101cb57806339cd7d6a1161019a5780633b4675a71161017f5780633b4675a71461046757806347786d371461049f57806370a08231146104bf57600080fd5b806339cd7d6a146104325780633b24cc211461045257600080fd5b806330793601146103af57806335403023146103dc578063355274ea146103fc5780633870862b1461041257600080fd5b80631794bb3c116102225780631877bb5c116102075780631877bb5c146103355780631e0029c8146103625780632e1a7d4d1461038f57600080fd5b80631794bb3c146102ff57806318160ddd1461031f57600080fd5b806303ec357f1461025f57806313e7c9d81461028757806315770f92146102c757806316c38b3c146102dd57600080fd5b3661025a57005b600080fd5b34801561026b57600080fd5b506102746108ac565b6040519081526020015b60405180910390f35b34801561029357600080fd5b506102b76102a2366004612aeb565b60006020819052908152604090205460ff1681565b604051901515815260200161027e565b3480156102d357600080fd5b50610274600b5481565b3480156102e957600080fd5b506102fd6102f8366004612b16565b61099c565b005b34801561030b57600080fd5b506102fd61031a366004612b33565b610a23565b34801561032b57600080fd5b50610274600a5481565b34801561034157600080fd5b50610274610350366004612aeb565b60086020526000908152604090205481565b34801561036e57600080fd5b5061027461037d366004612b74565b60096020526000908152604090205481565b34801561039b57600080fd5b506102fd6103aa366004612b74565b610c23565b3480156103bb57600080fd5b506102746103ca366004612aeb565b600f6020526000908152604090205481565b3480156103e857600080fd5b506102fd6103f7366004612b74565b610f39565b34801561040857600080fd5b5061027460105481565b34801561041e57600080fd5b506102fd61042d366004612b8d565b611254565b34801561043e57600080fd5b506102fd61044d366004612aeb565b611504565b34801561045e57600080fd5b50600d54610274565b34801561047357600080fd5b50600454610487906001600160a01b031681565b6040516001600160a01b03909116815260200161027e565b3480156104ab57600080fd5b506102fd6104ba366004612b74565b61159a565b3480156104cb57600080fd5b506102746104da366004612aeb565b6115f0565b3480156104eb57600080fd5b506102746104fa366004612aeb565b6001600160a01b03166000908152600f602052604090205490565b34801561052157600080fd5b506102fd610530366004612bd7565b6116b2565b34801561054157600080fd5b506102fd610550366004612aeb565b6117e1565b34801561056157600080fd5b50610487610570366004612b74565b611861565b34801561058157600080fd5b50600154610487906001600160a01b031681565b3480156105a157600080fd5b506102fd6105b0366004612b74565b61188b565b3480156105c157600080fd5b506102746105d0366004612b74565b611924565b3480156105e157600080fd5b50610274600d5481565b3480156105f757600080fd5b50600e546102b790600160a01b900460ff1681565b34801561061857600080fd5b50610274611a21565b34801561062d57600080fd5b5060055460065460075461068c926001600160801b0380821693600160801b92839004821693828216939091049091169064ffffffffff81169065010000000000810461ffff169067010000000000000090046001600160a01b031687565b604080516001600160801b03988916815296881660208801529487169486019490945294909116606084015264ffffffffff16608083015261ffff90921660a08201526001600160a01b0390911660c082015260e00161027e565b3480156106f357600080fd5b506102fd610702366004612bd7565b611af9565b34801561071357600080fd5b5061078f610722366004612b74565b6003602081905260009182526040909120805460018201546002830154938301546004840154600590940154929460ff928316949093828416936001600160a01b036101008504811694600160a81b9081900483169491821693600160a01b83048416939190920416908a565b604080519a8b5298151560208b01529789019690965293151560608801526001600160a01b03928316608088015290151560a08701521660c0850152151560e084015215156101008301526101208201526101400161027e565b3480156107f557600080fd5b506102fd610804366004612bf9565b611ff0565b34801561081557600080fd5b506102fd610824366004612c32565b61214d565b34801561083557600080fd5b506102fd610844366004612d41565b6122a0565b34801561085557600080fd5b50600654600554604080516001600160801b03600160801b80860482168352840481166020830152938416918101919091529116606082015260800161027e565b3480156108a257600080fd5b50610274600c5481565b6000806108b761235a565b905060006108cd8260c001518360e00151612457565b6006549091506108e79082906001600160801b031661246b565b60808301526001546040805163313ce56760e01b815290516b033b2e3c9fd0803ce8000000926001600160a01b03169163313ce5679160048083019260209291908290030181865afa158015610941573d6000803e3d6000fd5b505050506040513d601f19601f820116820180604052508101906109659190612e03565b61097090600a612f20565b6080840151600c546109819161246b565b61098b9190612f2f565b6109959190612f5c565b9250505090565b600e546040805180820190915260018152601960f91b6020820152906001600160a01b031633146109e95760405162461bcd60e51b81526004016109e09190612f7e565b60405180910390fd5b50600e8054911515600160a01b027fffffffffffffffffffffff00ffffffffffffffffffffffffffffffffffffffff909216919091179055565b7ff0c57e16840df040f15088dc2f81fe391c3923bec73e23a9662efc9c229c6a00805468010000000000000000810460ff16159067ffffffffffffffff16600081158015610a6e5750825b905060008267ffffffffffffffff166001148015610a8b5750303b155b905081158015610a99575080155b15610ad0576040517ff92ee8a900000000000000000000000000000000000000000000000000000000815260040160405180910390fd5b845467ffffffffffffffff191660011785558315610b0457845468ff00000000000000001916680100000000000000001785555b600180546001600160a01b03808b1673ffffffffffffffffffffffffffffffffffffffff1992831617835560078054918b16670100000000000000027fffffffffff0000000000000000000000000000000000000000ffffffffffffff909216919091179055600580546fffffffffffffffffffffffffffffffff199081166b033b2e3c9fd0803ce8000000908117909255600680549091169091179055600e8054909116339081179091556000908152602081905260409020805460ff1916909117905560108690558315610c1957845468ff000000000000000019168555604051600181527fc7f505b2f371ae2175ee4913f4499e1f2633a7b5936321eed1cdaeb6115181d29060200160405180910390a15b5050505050505050565b600e54604080518082019091526002815261323160f01b602082015290600160a01b900460ff1615610c685760405162461bcd60e51b81526004016109e09190612f7e565b506000610c7361235a565b9050610c7e816124af565b6001546040805163313ce56760e01b815290516000926001600160a01b03169163313ce5679160048083019260209291908290030181865afa158015610cc8573d6000803e3d6000fd5b505050506040513d601f19601f82011682018060405250810190610cec9190612e03565b610cf790600a612f20565b610d0d6b033b2e3c9fd0803ce800000085612f2f565b610d179190612f5c565b9050610d246000826124e8565b600554600090610d3e9083906001600160801b0316612670565b3360009081526008602052604081205491925090610d5d908390612fcd565b905081600a6000828254610d719190612fcd565b9250508190555081600b6000828254610d8a9190612fcd565b909155505060408051808201909152600181527f3800000000000000000000000000000000000000000000000000000000000000602082015250336000908152600860205260408120829055600d8054879290610de8908490612fcd565b909155505060015460405163a9059cbb60e01b8152336004820152602481018790526001600160a01b039091169063a9059cbb906044016020604051808303816000875af1158015610e3e573d6000803e3d6000fd5b505050506040513d601f19601f82011682018060405250810190610e629190612fe0565b50336000908152600f6020526040902054851015610ea457336000908152600f602052604081208054879290610e99908490612fcd565b90915550610eb59050565b336000908152600f60205260408120555b6001543360008181526008602090815260409182902054600a54600b54600d5485518d81529485019390935293830152606082019290925260808101919091526001600160a01b03909216913091907f173401e3c9626102fe861ca7ddb4665d741deebad547125c24038cafa9345db29060a0015b60405180910390a45050505050565b600e54604080518082019091526002815261323160f01b602082015290600160a01b900460ff1615610f7e5760405162461bcd60e51b81526004016109e09190612f7e565b5060105481610f8b611a21565b610f959190612ffd565b11156040518060400160405280600281526020017f323300000000000000000000000000000000000000000000000000000000000081525090610feb5760405162461bcd60e51b81526004016109e09190612f7e565b506000610ff661235a565b9050611001816124af565b6001546040805163313ce56760e01b815290516000926001600160a01b03169163313ce5679160048083019260209291908290030181865afa15801561104b573d6000803e3d6000fd5b505050506040513d601f19601f8201168201806040525081019061106f9190612e03565b61107a90600a612f20565b6110906b033b2e3c9fd0803ce800000085612f2f565b61109a9190612f5c565b90506110a78160006124e8565b6005546000906110c19083906001600160801b0316612670565b33600090815260086020526040812054919250906110e0908390612ffd565b905081600a60008282546110f49190612ffd565b9250508190555081600b600082825461110d9190612ffd565b9091555050336000908152600860205260408120829055600d8054879290611136908490612ffd565b90915550506001546040516323b872dd60e01b8152336004820152306024820152604481018790526001600160a01b03909116906323b872dd906064016020604051808303816000875af1158015611192573d6000803e3d6000fd5b505050506040513d601f19601f820116820180604052508101906111b69190612fe0565b50336000908152600f6020526040812080548792906111d6908490612ffd565b90915550506001543360008181526008602090815260409182902054600a54600b54600d5485518d81529485019390935293830152606082019290925260808101919091526001600160a01b03909216913091907fac71e4358c08cef1a5335ac1c1d79f8eea0a3bd10f01a4259308137ebc63d76a9060a001610f2a565b600454604080518082019091526002815261313360f01b6020820152906001600160a01b031633146112995760405162461bcd60e51b81526004016109e09190612f7e565b50600e54604080518082019091526002815261323160f01b602082015290600160a01b900460ff16156112df5760405162461bcd60e51b81526004016109e09190612f7e565b5060006112ea61235a565b90506112f5816124af565b6001546040805163313ce56760e01b815290516000926001600160a01b03169163313ce5679160048083019260209291908290030181865afa15801561133f573d6000803e3d6000fd5b505050506040513d601f19601f820116820180604052508101906113639190612e03565b61136e90600a612f20565b6113846b033b2e3c9fd0803ce800000087612f2f565b61138e9190612f5c565b905060006113a983608001518361267090919063ffffffff16565b600088815260096020526040812054919250906113c7908390612ffd565b905081600c60008282546113db9190612ffd565b9091555050600d5460408051808201909152600281527f31350000000000000000000000000000000000000000000000000000000000006020820152908811156114385760405162461bcd60e51b81526004016109e09190612f7e565b506000888152600360208181526040808420600990925283208490558a8155600281018a905590810180547fffffffffffffffffffffff0000000000000000000000000000000000000000ff166101006001600160a01b038b160217905560048101805460ff60a81b1916600160a81b89151502179055906114ba90856124e8565b60408501516114ca908590612670565b600b60008282546114db9190612fcd565b9250508190555087600d60008282546114f49190612fcd565b9091555050505050505050505050565b33600090815260208181526040918290205482518084019093526002835261062760f31b9183019190915260ff1615156001146115545760405162461bcd60e51b81526004016109e09190612f7e565b50600780546001600160a01b03909216670100000000000000027fffffffffff0000000000000000000000000000000000000000ffffffffffffff909216919091179055565b33600090815260208181526040918290205482518084019093526002835261062760f31b9183019190915260ff1615156001146115ea5760405162461bcd60e51b81526004016109e09190612f7e565b50601055565b6001546040805163313ce56760e01b815290516000926001600160a01b03169163313ce5679160048083019260209291908290030181865afa15801561163a573d6000803e3d6000fd5b505050506040513d601f19601f8201168201806040525081019061165e9190612e03565b61166990601b613010565b61167490600a612f20565b6005546001600160a01b0384166000908152600860205260409020546116a2916001600160801b031661246b565b6116ac9190612f5c565b92915050565b600454604080518082019091526002815261313360f01b6020820152906001600160a01b031633146116f75760405162461bcd60e51b81526004016109e09190612f7e565b50600e54604080518082019091526002815261323160f01b602082015290600160a01b900460ff161561173d5760405162461bcd60e51b81526004016109e09190612f7e565b50600082815260036020818152604092839020909101548251808401909352600283527f313700000000000000000000000000000000000000000000000000000000000091830191909152600160a81b900460ff16156117b05760405162461bcd60e51b81526004016109e09190612f7e565b506117bb81336126af565b50600090815260036020819052604090912001805460ff60a81b1916600160a81b179055565b33600090815260208181526040918290205482518084019093526002835261062760f31b9183019190915260ff1615156001146118315760405162461bcd60e51b81526004016109e09190612f7e565b506004805473ffffffffffffffffffffffffffffffffffffffff19166001600160a01b0392909216919091179055565b6002818154811061187157600080fd5b6000918252602090912001546001600160a01b0316905081565b600454604080518082019091526002815261313360f01b6020820152906001600160a01b031633146118d05760405162461bcd60e51b81526004016109e09190612f7e565b50600e54604080518082019091526002815261323160f01b602082015290600160a01b900460ff16156119165760405162461bcd60e51b81526004016109e09190612f7e565b5061192181336126af565b50565b60008061192f61235a565b905060006119458260c001518360e00151612457565b60065490915061195f9082906001600160801b031661246b565b60808301526001546040805163313ce56760e01b815290516b033b2e3c9fd0803ce8000000926001600160a01b03169163313ce5679160048083019260209291908290030181865afa1580156119b9573d6000803e3d6000fd5b505050506040513d601f19601f820116820180604052508101906119dd9190612e03565b6119e890600a612f20565b6080840151600087815260096020526040902054611a059161246b565b611a0f9190612f2f565b611a199190612f5c565b949350505050565b600080611a2c61235a565b90506000611a428260a001518360e00151612839565b9050611a5b82604001518261246b90919063ffffffff16565b604080840191909152600154815163313ce56760e01b815291516b033b2e3c9fd0803ce8000000926001600160a01b039092169163313ce5679160048083019260209291908290030181865afa158015611ab9573d6000803e3d6000fd5b505050506040513d601f19601f82011682018060405250810190611add9190612e03565b611ae890600a612f20565b6040840151600a546109819161246b565b600454604080518082019091526002815261313360f01b6020820152906001600160a01b03163314611b3e5760405162461bcd60e51b81526004016109e09190612f7e565b50600e54604080518082019091526002815261323160f01b602082015290600160a01b900460ff1615611b845760405162461bcd60e51b81526004016109e09190612f7e565b50600082815260036020818152604092839020909101548251808401909352600283527f31360000000000000000000000000000000000000000000000000000000000009183019190915260ff1615611bf05760405162461bcd60e51b81526004016109e09190612f7e565b506000611bfb61235a565b9050611c06816124af565b6001546040805163313ce56760e01b815290516000926001600160a01b03169163313ce5679160048083019260209291908290030181865afa158015611c50573d6000803e3d6000fd5b505050506040513d601f19601f82011682018060405250810190611c749190612e03565b611c7f90600a612f20565b611c956b033b2e3c9fd0803ce800000085612f2f565b611c9f9190612f5c565b600654909150600090611cbc9083906001600160801b0316612670565b6000868152600960205260409020549091508110611ed457600085815260096020526040812054600c805491929091611cf6908490612fcd565b90915550506006546000868152600960205260408120549091611d2291906001600160801b031661246b565b6001546040805163313ce56760e01b815290519293506000926b033b2e3c9fd0803ce8000000926001600160a01b03169163313ce5679160048083019260209291908290030181865afa158015611d7d573d6000803e3d6000fd5b505050506040513d601f19601f82011682018060405250810190611da19190612e03565b611dac90600a612f20565b611db69084612f2f565b611dc09190612f5c565b6000888152600960205260408120819055909150611ddf9083906124e8565b604080860151600089815260096020529190912054611dfd91612670565b600b6000828254611e0e9190612ffd565b9250508190555080600d6000828254611e279190612ffd565b9091555050600154600480546040516323b872dd60e01b81526001600160a01b039182169281019290925230602483015260448201849052909116906323b872dd906064016020604051808303816000875af1158015611e8b573d6000803e3d6000fd5b505050506040513d601f19601f82011682018060405250810190611eaf9190612fe0565b505050600085815260036020819052604090912001805460ff19166001179055611fe9565b600085815260096020526040812054611eee908390612fcd565b905081600c6000828254611f029190612fcd565b90915550506000868152600960205260408120829055611f239084906124e8565b6040840151611f33908490612670565b600b6000828254611f449190612ffd565b9250508190555084600d6000828254611f5d9190612ffd565b9091555050600154600480546040516323b872dd60e01b81526001600160a01b039182169281019290925230602483015260448201889052909116906323b872dd906064015b6020604051808303816000875af1158015611fc2573d6000803e3d6000fd5b505050506040513d601f19601f82011682018060405250810190611fe69190612fe0565b50505b5050505050565b600e546040805180820190915260018152601960f91b6020820152906001600160a01b031633146120345760405162461bcd60e51b81526004016109e09190612f7e565b506040517f70a082310000000000000000000000000000000000000000000000000000000081523060048201526001600160a01b0383169063a9059cbb90839083906370a0823190602401602060405180830381865afa15801561209c573d6000803e3d6000fd5b505050506040513d601f19601f820116820180604052508101906120c09190613029565b6040517fffffffff0000000000000000000000000000000000000000000000000000000060e085901b1681526001600160a01b03909216600483015260248201526044015b6020604051808303816000875af1158015612124573d6000803e3d6000fd5b505050506040513d601f19601f820116820180604052508101906121489190612fe0565b505050565b600454604080518082019091526002815261313360f01b6020820152906001600160a01b031633146121925760405162461bcd60e51b81526004016109e09190612f7e565b50600e54604080518082019091526002815261323160f01b602082015290600160a01b900460ff16156121d85760405162461bcd60e51b81526004016109e09190612f7e565b50600081815260036020908152604091829020600101548251808401909352600283527f31340000000000000000000000000000000000000000000000000000000000009183019190915260ff16156122445760405162461bcd60e51b81526004016109e09190612f7e565b50600081815260036020526040908190206001808201805460ff19168217905554600290910154915163a9059cbb60e01b81526001600160a01b038581166004830152602482019390935291169063a9059cbb90604401612105565b600e546040805180820190915260018152601960f91b6020820152906001600160a01b031633146122e45760405162461bcd60e51b81526004016109e09190612f7e565b5060005b82518110156121485781818151811061230357612303613042565b602002602001015160008085848151811061232057612320613042565b6020908102919091018101516001600160a01b03168252810191909152604001600020805460ff19169115159190911790556001016122e8565b6123a960405180610100016040528060008152602001600081526020016000815260200160008152602001600081526020016000815260200160008152602001600064ffffffffff1681525090565b6123f860405180610100016040528060008152602001600081526020016000815260200160008152602001600081526020016000815260200160008152602001600064ffffffffff1681525090565b6005546001600160801b03808216604084018190526020840152600654808216608085018190526060850152600160801b92839004821660a0850152919091041660c082015260075464ffffffffff1660e0820152600c548152919050565b6000612464838342612876565b9392505050565b600081156b019d971e4fe8401e74000000198390048411151761248d57600080fd5b506b033b2e3c9fd0803ce800000091026b019d971e4fe8401e74000000010490565b60075464ffffffffff4281169116036124c55750565b6124ce816129a2565b506007805464ffffffffff19164264ffffffffff16179055565b61250c60405180606001604052806000815260200160008152602001600081525090565b6007546040805160808101825285815260208101859052600654600c546701000000000000009094046001600160a01b0316936356eaf2649383019161255b91906001600160801b031661246b565b8152600554600b5460209092019161257b916001600160801b031661246b565b9052604080517fffffffff0000000000000000000000000000000000000000000000000000000060e085901b168152825160048201526020830151602482015290820151604482015260609091015160648201526084016040805180830381865afa1580156125ee573d6000803e3d6000fd5b505050506040513d601f19601f820116820180604052508101906126129190613058565b602083015280825261262390612a85565b600580546001600160801b03928316600160801b029216919091179055602081015161264e90612a85565b600680546001600160801b03928316600160801b029216919091179055505050565b600081156b033b2e3c9fd0803ce80000006002840419048411171561269457600080fd5b506b033b2e3c9fd0803ce80000009190910260028204010490565b81156128355760006126bf61235a565b90506126ca816124af565b6001546040805163313ce56760e01b815290516000926001600160a01b03169163313ce5679160048083019260209291908290030181865afa158015612714573d6000803e3d6000fd5b505050506040513d601f19601f820116820180604052508101906127389190612e03565b61274390600a612f20565b6127596b033b2e3c9fd0803ce800000086612f2f565b6127639190612f5c565b905060006127808360400151600b5461246b90919063ffffffff16565b905060006127a8826127a28660400151868661279c9190612ffd565b9061246b565b90612670565b90506127b381612a85565b600580546fffffffffffffffffffffffffffffffff19166001600160801b0392909216919091179055600d80548791906000906127f1908490612ffd565b90915550506001546040516323b872dd60e01b81526001600160a01b03878116600483015230602483015260448201899052909116906323b872dd90606401611fa3565b5050565b60008061284d64ffffffffff841642612fcd565b6128579085612f2f565b6301e1338090049050611a19816b033b2e3c9fd0803ce8000000612ffd565b60008061288a64ffffffffff851684612fcd565b9050806000036128a9576b033b2e3c9fd0803ce8000000915050612464565b600019810160008080600285116128c15760006128c6565b600285035b925066038882915c40006128da8a8061246b565b816128e7576128e7612f46565b0491506301e133806128f9838b61246b565b8161290657612906612f46565b0490506000826129168688612f2f565b6129209190612f2f565b60029004905060008285612934888a612f2f565b61293e9190612f2f565b6129489190612f2f565b60069004905080826301e1338061295f8a8f612f2f565b6129699190612f5c565b61297f906b033b2e3c9fd0803ce8000000612ffd565b6129899190612ffd565b6129939190612ffd565b9b9a5050505050505050505050565b60a081015115612a145760006129c08260a001518360e00151612839565b90506129d982602001518261246b90919063ffffffff16565b604083018190526129e990612a85565b600580546fffffffffffffffffffffffffffffffff19166001600160801b0392909216919091179055505b805115611921576000612a2f8260c001518360e00151612457565b9050612a4882606001518261246b90919063ffffffff16565b60808301819052612a5890612a85565b600680546fffffffffffffffffffffffffffffffff19166001600160801b03929092169190911790555050565b60006001600160801b03821115612ad2576040517f6dfcc65000000000000000000000000000000000000000000000000000000000815260806004820152602481018390526044016109e0565b5090565b6001600160a01b038116811461192157600080fd5b600060208284031215612afd57600080fd5b813561246481612ad6565b801515811461192157600080fd5b600060208284031215612b2857600080fd5b813561246481612b08565b600080600060608486031215612b4857600080fd5b8335612b5381612ad6565b92506020840135612b6381612ad6565b929592945050506040919091013590565b600060208284031215612b8657600080fd5b5035919050565b60008060008060808587031215612ba357600080fd5b84359350602085013592506040850135612bbc81612ad6565b91506060850135612bcc81612b08565b939692955090935050565b60008060408385031215612bea57600080fd5b50508035926020909101359150565b60008060408385031215612c0c57600080fd5b8235612c1781612ad6565b91506020830135612c2781612ad6565b809150509250929050565b60008060408385031215612c4557600080fd5b8235612c5081612ad6565b946020939093013593505050565b634e487b7160e01b600052604160045260246000fd5b604051601f8201601f1916810167ffffffffffffffff81118282101715612c9d57612c9d612c5e565b604052919050565b600067ffffffffffffffff821115612cbf57612cbf612c5e565b5060051b60200190565b600082601f830112612cda57600080fd5b81356020612cef612cea83612ca5565b612c74565b8083825260208201915060208460051b870101935086841115612d1157600080fd5b602086015b84811015612d36578035612d2981612b08565b8352918301918301612d16565b509695505050505050565b60008060408385031215612d5457600080fd5b823567ffffffffffffffff80821115612d6c57600080fd5b818501915085601f830112612d8057600080fd5b81356020612d90612cea83612ca5565b82815260059290921b84018101918181019089841115612daf57600080fd5b948201945b83861015612dd6578535612dc781612ad6565b82529482019490820190612db4565b96505086013592505080821115612dec57600080fd5b50612df985828601612cc9565b9150509250929050565b600060208284031215612e1557600080fd5b815160ff8116811461246457600080fd5b634e487b7160e01b600052601160045260246000fd5b600181815b80851115612e77578160001904821115612e5d57612e5d612e26565b80851615612e6a57918102915b93841c9390800290612e41565b509250929050565b600082612e8e575060016116ac565b81612e9b575060006116ac565b8160018114612eb15760028114612ebb57612ed7565b60019150506116ac565b60ff841115612ecc57612ecc612e26565b50506001821b6116ac565b5060208310610133831016604e8410600b8410161715612efa575081810a6116ac565b612f048383612e3c565b8060001904821115612f1857612f18612e26565b029392505050565b600061246460ff841683612e7f565b80820281158282048414176116ac576116ac612e26565b634e487b7160e01b600052601260045260246000fd5b600082612f7957634e487b7160e01b600052601260045260246000fd5b500490565b60006020808352835180602085015260005b81811015612fac57858101830151858201604001528201612f90565b506000604082860101526040601f19601f8301168501019250505092915050565b818103818111156116ac576116ac612e26565b600060208284031215612ff257600080fd5b815161246481612b08565b808201808211156116ac576116ac612e26565b60ff82811682821603908111156116ac576116ac612e26565b60006020828403121561303b57600080fd5b5051919050565b634e487b7160e01b600052603260045260246000fd5b6000806040838503121561306b57600080fd5b50508051602090910151909290915056fea2646970667358221220a36e6c389f6b7621cdb031d5bd7d32360e85d162a01b0cfab600ea559baf9dc564736f6c63430008180033",
  "linkReferences": {},
  "deployedLinkReferences": {}
}