{
  "_format": "hh-sol-artifact-1",
  "contractName": "CCFLLoan",
  "sourceName": "contracts/CCFLLoan.sol",
  "abi": [
    {
      "inputs": [],
      "stateMutability": "nonpayable",
      "type": "constructor"
    },
    {
      "inputs": [],
      "name": "InvalidInitialization",
      "type": "error"
    },
    {
      "inputs": [],
      "name": "NotInitializing",
      "type": "error"
    },
    {
      "anonymous": false,
      "inputs": [
        {
          "indexed": false,
          "internalType": "uint64",
          "name": "version",
          "type": "uint64"
        }
      ],
      "name": "Initialized",
      "type": "event"
    },
    {
      "anonymous": false,
      "inputs": [
        {
          "indexed": true,
          "internalType": "address",
          "name": "onBehalfOf",
          "type": "address"
        },
        {
          "indexed": true,
          "internalType": "address",
          "name": "_token",
          "type": "address"
        },
        {
          "indexed": true,
          "internalType": "uint256",
          "name": "_amount",
          "type": "uint256"
        }
      ],
      "name": "LiquiditySupplied",
      "type": "event"
    },
    {
      "anonymous": false,
      "inputs": [
        {
          "indexed": true,
          "internalType": "address",
          "name": "to",
          "type": "address"
        },
        {
          "indexed": true,
          "internalType": "address",
          "name": "_token",
          "type": "address"
        },
        {
          "indexed": true,
          "internalType": "uint256",
          "name": "_amount",
          "type": "uint256"
        }
      ],
      "name": "LiquidityWithdrawn",
      "type": "event"
    },
    {
      "anonymous": false,
      "inputs": [
        {
          "indexed": false,
          "internalType": "uint256",
          "name": "amount",
          "type": "uint256"
        },
        {
          "indexed": false,
          "internalType": "uint256",
          "name": "when",
          "type": "uint256"
        }
      ],
      "name": "Withdrawal",
      "type": "event"
    },
    {
      "inputs": [],
      "name": "LTV",
      "outputs": [
        {
          "internalType": "uint256",
          "name": "",
          "type": "uint256"
        }
      ],
      "stateMutability": "view",
      "type": "function"
    },
    {
      "inputs": [],
      "name": "aToken",
      "outputs": [
        {
          "internalType": "contract IERC20Standard",
          "name": "",
          "type": "address"
        }
      ],
      "stateMutability": "view",
      "type": "function"
    },
    {
      "inputs": [],
      "name": "aaveAddressProvider",
      "outputs": [
        {
          "internalType": "contract IPoolAddressesProvider",
          "name": "",
          "type": "address"
        }
      ],
      "stateMutability": "view",
      "type": "function"
    },
    {
      "inputs": [],
      "name": "ccfl",
      "outputs": [
        {
          "internalType": "address",
          "name": "",
          "type": "address"
        }
      ],
      "stateMutability": "view",
      "type": "function"
    },
    {
      "inputs": [],
      "name": "closeLoan",
      "outputs": [],
      "stateMutability": "nonpayable",
      "type": "function"
    },
    {
      "inputs": [],
      "name": "collateralAmount",
      "outputs": [
        {
          "internalType": "uint256",
          "name": "",
          "type": "uint256"
        }
      ],
      "stateMutability": "view",
      "type": "function"
    },
    {
      "inputs": [],
      "name": "collateralToken",
      "outputs": [
        {
          "internalType": "contract IERC20Standard",
          "name": "",
          "type": "address"
        }
      ],
      "stateMutability": "view",
      "type": "function"
    },
    {
      "inputs": [],
      "name": "earnSharePercent",
      "outputs": [
        {
          "internalType": "uint256",
          "name": "",
          "type": "uint256"
        }
      ],
      "stateMutability": "view",
      "type": "function"
    },
    {
      "inputs": [],
      "name": "factory",
      "outputs": [
        {
          "internalType": "contract IUniswapV3Factory",
          "name": "",
          "type": "address"
        }
      ],
      "stateMutability": "view",
      "type": "function"
    },
    {
      "inputs": [],
      "name": "feeTier",
      "outputs": [
        {
          "internalType": "uint24",
          "name": "",
          "type": "uint24"
        }
      ],
      "stateMutability": "view",
      "type": "function"
    },
    {
      "inputs": [
        {
          "internalType": "uint256",
          "name": "currentDebt",
          "type": "uint256"
        },
        {
          "internalType": "uint256",
          "name": "addCollateral",
          "type": "uint256"
        }
      ],
      "name": "getHealthFactor",
      "outputs": [
        {
          "internalType": "uint256",
          "name": "",
          "type": "uint256"
        }
      ],
      "stateMutability": "view",
      "type": "function"
    },
    {
      "inputs": [
        {
          "internalType": "contract IERC20Standard",
          "name": "_coin",
          "type": "address"
        },
        {
          "internalType": "bool",
          "name": "isPool",
          "type": "bool"
        }
      ],
      "name": "getLatestPrice",
      "outputs": [
        {
          "internalType": "uint256",
          "name": "",
          "type": "uint256"
        }
      ],
      "stateMutability": "view",
      "type": "function"
    },
    {
      "inputs": [],
      "name": "getLoanInfo",
      "outputs": [
        {
          "components": [
            {
              "internalType": "uint256",
              "name": "loanId",
              "type": "uint256"
            },
            {
              "internalType": "address",
              "name": "borrower",
              "type": "address"
            },
            {
              "internalType": "uint256",
              "name": "amount",
              "type": "uint256"
            },
            {
              "internalType": "contract IERC20Standard",
              "name": "stableCoin",
              "type": "address"
            },
            {
              "internalType": "bool",
              "name": "isClosed",
              "type": "bool"
            },
            {
              "internalType": "bool",
              "name": "isLiquidated",
              "type": "bool"
            },
            {
              "internalType": "bool",
              "name": "isPaid",
              "type": "bool"
            },
            {
              "internalType": "bool",
              "name": "isFinalty",
              "type": "bool"
            }
          ],
          "internalType": "struct Loan",
          "name": "",
          "type": "tuple"
        }
      ],
      "stateMutability": "view",
      "type": "function"
    },
    {
      "inputs": [
        {
          "internalType": "address",
          "name": "user",
          "type": "address"
        }
      ],
      "name": "getUserAccountData",
      "outputs": [
        {
          "internalType": "uint256",
          "name": "totalCollateralBase",
          "type": "uint256"
        },
        {
          "internalType": "uint256",
          "name": "totalDebtBase",
          "type": "uint256"
        },
        {
          "internalType": "uint256",
          "name": "availableBorrowsBase",
          "type": "uint256"
        },
        {
          "internalType": "uint256",
          "name": "currentLiquidationThreshold",
          "type": "uint256"
        },
        {
          "internalType": "uint256",
          "name": "ltv",
          "type": "uint256"
        },
        {
          "internalType": "uint256",
          "name": "healthFactor",
          "type": "uint256"
        }
      ],
      "stateMutability": "view",
      "type": "function"
    },
    {
      "inputs": [],
      "name": "initLoan",
      "outputs": [
        {
          "internalType": "uint256",
          "name": "loanId",
          "type": "uint256"
        },
        {
          "internalType": "address",
          "name": "borrower",
          "type": "address"
        },
        {
          "internalType": "uint256",
          "name": "amount",
          "type": "uint256"
        },
        {
          "internalType": "contract IERC20Standard",
          "name": "stableCoin",
          "type": "address"
        },
        {
          "internalType": "bool",
          "name": "isClosed",
          "type": "bool"
        },
        {
          "internalType": "bool",
          "name": "isLiquidated",
          "type": "bool"
        },
        {
          "internalType": "bool",
          "name": "isPaid",
          "type": "bool"
        },
        {
          "internalType": "bool",
          "name": "isFinalty",
          "type": "bool"
        }
      ],
      "stateMutability": "view",
      "type": "function"
    },
    {
      "inputs": [
        {
          "components": [
            {
              "internalType": "uint256",
              "name": "loanId",
              "type": "uint256"
            },
            {
              "internalType": "address",
              "name": "borrower",
              "type": "address"
            },
            {
              "internalType": "uint256",
              "name": "amount",
              "type": "uint256"
            },
            {
              "internalType": "contract IERC20Standard",
              "name": "stableCoin",
              "type": "address"
            },
            {
              "internalType": "bool",
              "name": "isClosed",
              "type": "bool"
            },
            {
              "internalType": "bool",
              "name": "isLiquidated",
              "type": "bool"
            },
            {
              "internalType": "bool",
              "name": "isPaid",
              "type": "bool"
            },
            {
              "internalType": "bool",
              "name": "isFinalty",
              "type": "bool"
            }
          ],
          "internalType": "struct Loan",
          "name": "_loan",
          "type": "tuple"
        },
        {
          "internalType": "contract IERC20Standard",
          "name": "_collateralToken",
          "type": "address"
        },
        {
          "internalType": "contract IPoolAddressesProvider",
          "name": "_aaveAddressProvider",
          "type": "address"
        },
        {
          "internalType": "contract IERC20Standard",
          "name": "_aToken",
          "type": "address"
        },
        {
          "internalType": "uint256",
          "name": "_ltv",
          "type": "uint256"
        },
        {
          "internalType": "uint256",
          "name": "_threshold",
          "type": "uint256"
        },
        {
          "internalType": "contract AggregatorV3Interface",
          "name": "_priceFeed",
          "type": "address"
        },
        {
          "internalType": "contract AggregatorV3Interface",
          "name": "_pricePoolFeed",
          "type": "address"
        },
        {
          "internalType": "address",
          "name": "_platform",
          "type": "address"
        },
        {
          "internalType": "contract IWETH",
          "name": "_iWETH",
          "type": "address"
        }
      ],
      "name": "initialize",
      "outputs": [],
      "stateMutability": "nonpayable",
      "type": "function"
    },
    {
      "inputs": [],
      "name": "isStakeAave",
      "outputs": [
        {
          "internalType": "bool",
          "name": "",
          "type": "bool"
        }
      ],
      "stateMutability": "view",
      "type": "function"
    },
    {
      "inputs": [
        {
          "internalType": "uint256",
          "name": "_currentDebt",
          "type": "uint256"
        },
        {
          "internalType": "uint256",
          "name": "_percent",
          "type": "uint256"
        }
      ],
      "name": "liquidate",
      "outputs": [],
      "stateMutability": "nonpayable",
      "type": "function"
    },
    {
      "inputs": [],
      "name": "liquidationThreshold",
      "outputs": [
        {
          "internalType": "uint256",
          "name": "",
          "type": "uint256"
        }
      ],
      "stateMutability": "view",
      "type": "function"
    },
    {
      "inputs": [],
      "name": "owner",
      "outputs": [
        {
          "internalType": "address",
          "name": "",
          "type": "address"
        }
      ],
      "stateMutability": "view",
      "type": "function"
    },
    {
      "inputs": [],
      "name": "platform",
      "outputs": [
        {
          "internalType": "address",
          "name": "",
          "type": "address"
        }
      ],
      "stateMutability": "view",
      "type": "function"
    },
    {
      "inputs": [],
      "name": "priceFeed",
      "outputs": [
        {
          "internalType": "contract AggregatorV3Interface",
          "name": "",
          "type": "address"
        }
      ],
      "stateMutability": "view",
      "type": "function"
    },
    {
      "inputs": [],
      "name": "pricePoolFeed",
      "outputs": [
        {
          "internalType": "contract AggregatorV3Interface",
          "name": "",
          "type": "address"
        }
      ],
      "stateMutability": "view",
      "type": "function"
    },
    {
      "inputs": [
        {
          "internalType": "address",
          "name": "_ccfl",
          "type": "address"
        }
      ],
      "name": "setCCFL",
      "outputs": [],
      "stateMutability": "nonpayable",
      "type": "function"
    },
    {
      "inputs": [
        {
          "internalType": "uint256",
          "name": "_earnSharePercent",
          "type": "uint256"
        }
      ],
      "name": "setEarnSharePercent",
      "outputs": [],
      "stateMutability": "nonpayable",
      "type": "function"
    },
    {
      "inputs": [],
      "name": "setPaid",
      "outputs": [],
      "stateMutability": "nonpayable",
      "type": "function"
    },
    {
      "inputs": [
        {
          "internalType": "contract ISwapRouter",
          "name": "_swapRouter",
          "type": "address"
        },
        {
          "internalType": "contract IUniswapV3Factory",
          "name": "_factory",
          "type": "address"
        }
      ],
      "name": "setSwapRouter",
      "outputs": [],
      "stateMutability": "nonpayable",
      "type": "function"
    },
    {
      "inputs": [],
      "name": "supplyLiquidity",
      "outputs": [],
      "stateMutability": "nonpayable",
      "type": "function"
    },
    {
      "inputs": [],
      "name": "swapRouter",
      "outputs": [
        {
          "internalType": "contract ISwapRouter",
          "name": "",
          "type": "address"
        }
      ],
      "stateMutability": "view",
      "type": "function"
    },
    {
      "inputs": [
        {
          "internalType": "uint256",
          "name": "amount",
          "type": "uint256"
        }
      ],
      "name": "updateCollateral",
      "outputs": [],
      "stateMutability": "nonpayable",
      "type": "function"
    },
    {
      "inputs": [],
      "name": "wETH",
      "outputs": [
        {
          "internalType": "contract IWETH",
          "name": "",
          "type": "address"
        }
      ],
      "stateMutability": "view",
      "type": "function"
    },
    {
      "inputs": [
        {
          "internalType": "address",
          "name": "_receiver",
          "type": "address"
        },
        {
          "internalType": "bool",
          "name": "_isETH",
          "type": "bool"
        }
      ],
      "name": "withdrawAllCollateral",
      "outputs": [],
      "stateMutability": "nonpayable",
      "type": "function"
    },
    {
      "inputs": [],
      "name": "withdrawLiquidity",
      "outputs": [],
      "stateMutability": "nonpayable",
      "type": "function"
    },
    {
      "stateMutability": "payable",
      "type": "receive"
    }
  ],
  "bytecode": "0x608060405234801561001057600080fd5b50612744806100206000396000f3fe6080604052600436106102025760003560e01c80637ce67d601161011d578063b3bffeaa116100b0578063cdaabe411161007f578063dc40e2d011610064578063dc40e2d01461073e578063f24286211461075e578063fab320e91461077e57600080fd5b8063cdaabe41146106fe578063d296d1f11461071e57600080fd5b8063b3bffeaa14610651578063bf92857c14610671578063c31c9c07146106be578063c45a0155146106de57600080fd5b806392d09ceb116100ec57806392d09ceb146105e5578063a0c1f15e146105fb578063ae6189f81461061b578063b2016bd41461063157600080fd5b80637ce67d60146104ea5780637ea382c1146105905780638ac1b775146105a55780638da5cb5b146105c557600080fd5b80635825f535116101955780636721de26116101645780636721de261461046057806368dcad581461048057806372f5d98a146104a0578063741bef1a146104ca57600080fd5b80635825f5351461032c5780635d3e2fa11461034c578063626a35fb1461042a57806362965d8e1461044a57600080fd5b80632e38d0b3116101d15780632e38d0b3146102905780634031234c146102b05780634bde38c8146102d45780634d2c872a1461030c57600080fd5b806307a6bf691461020e578063102cb82e146102255780631125660314610245578063232fa7331461027b57600080fd5b3661020957005b600080fd5b34801561021a57600080fd5b50610223610793565b005b34801561023157600080fd5b5061022361024036600461217d565b610a85565b34801561025157600080fd5b5060025461026690600160a01b900460ff1681565b60405190151581526020015b60405180910390f35b34801561028757600080fd5b50610223610de4565b34801561029c57600080fd5b506102236102ab3660046121b6565b610e5b565b3480156102bc57600080fd5b506102c660055481565b604051908152602001610272565b3480156102e057600080fd5b506010546102f4906001600160a01b031681565b6040516001600160a01b039091168152602001610272565b34801561031857600080fd5b506102c661032736600461231b565b6111d1565b34801561033857600080fd5b50600f546102f4906001600160a01b031681565b34801561035857600080fd5b5061041d6040805161010081018252600080825260208201819052918101829052606081018290526080810182905260a0810182905260c0810182905260e08101919091525060408051610100810182526009548152600a546001600160a01b039081166020830152600b5492820192909252600c54918216606082015260ff600160a01b8304811615156080830152600160a81b83048116151560a0830152600160b01b83048116151560c0830152600160b81b909204909116151560e082015290565b604051610272919061233d565b34801561043657600080fd5b506102236104453660046123bd565b61139d565b34801561045657600080fd5b506102c660065481565b34801561046c57600080fd5b5061022361047b3660046123bd565b6113ed565b34801561048c57600080fd5b50600e546102f4906001600160a01b031681565b3480156104ac57600080fd5b506104b6610bb881565b60405162ffffff9091168152602001610272565b3480156104d657600080fd5b50600d546102f4906001600160a01b031681565b3480156104f657600080fd5b50600954600a54600b54600c5461054493926001600160a01b0390811692919081169060ff600160a01b8204811691600160a81b8104821691600160b01b8204811691600160b81b90041688565b604080519889526001600160a01b0397881660208a015288019590955294909216606086015215156080850152151560a084015290151560c0830152151560e082015261010001610272565b34801561059c57600080fd5b50610223611452565b3480156105b157600080fd5b506102236105c03660046123d6565b611799565b3480156105d157600080fd5b506000546102f4906001600160a01b031681565b3480156105f157600080fd5b506102c660075481565b34801561060757600080fd5b506002546102f4906001600160a01b031681565b34801561062757600080fd5b506102c660125481565b34801561063d57600080fd5b506008546102f4906001600160a01b031681565b34801561065d57600080fd5b506102c661066c36600461217d565b611813565b34801561067d57600080fd5b5061069161068c3660046123d6565b61190a565b604080519687526020870195909552938501929092526060840152608083015260a082015260c001610272565b3480156106ca57600080fd5b506003546102f4906001600160a01b031681565b3480156106ea57600080fd5b506004546102f4906001600160a01b031681565b34801561070a57600080fd5b506001546102f4906001600160a01b031681565b34801561072a57600080fd5b5061022361073936600461231b565b611a28565b34801561074a57600080fd5b506102236107593660046123fa565b611c8a565b34801561076a57600080fd5b506011546102f4906001600160a01b031681565b34801561078a57600080fd5b50610223611d10565b6000546001600160a01b031633146107e35760405162461bcd60e51b815260206004820152600e60248201526d37b7363c903a34329037bbb732b960911b60448201526064015b60405180910390fd5b6008546040516370a0823160e01b81523060048201526001600160a01b039091169060009082906370a0823190602401602060405180830381865afa158015610830573d6000803e3d6000fd5b505050506040513d601f19601f820116820180604052508101906108549190612428565b9050600081116108a65760405162461bcd60e51b815260206004820152601060248201527f646f6e742068617665206173736574730000000000000000000000000000000060448201526064016107da565b6000309050600080600160009054906101000a90046001600160a01b03166001600160a01b031663026b1d5f6040518163ffffffff1660e01b8152600401602060405180830381865afa158015610901573d6000803e3d6000fd5b505050506040513d601f19601f820116820180604052508101906109259190612441565b60405163095ea7b360e01b81526001600160a01b038083166004830152602482018790529192509086169063095ea7b3906044016020604051808303816000875af1158015610978573d6000803e3d6000fd5b505050506040513d601f19601f8201168201806040525081019061099c919061245e565b506040517f617ba0370000000000000000000000000000000000000000000000000000000081526001600160a01b03868116600483015260248201869052848116604483015261ffff8416606483015282169063617ba03790608401600060405180830381600087803b158015610a1257600080fd5b505af1158015610a26573d6000803e3d6000fd5b5050505083856001600160a01b0316846001600160a01b03167f51a2b359618aeb0bcc2a495a6667c0bdbfddc3bb27eb0dd5b8e3b33a4c15865f60405160405180910390a450506002805460ff60a01b1916600160a01b179055505050565b6000546001600160a01b03163314610ad05760405162461bcd60e51b815260206004820152600e60248201526d37b7363c903a34329037bbb732b960911b60448201526064016107da565b600c54600160a01b900460ff1615156001148015610af85750600c54600160b81b900460ff16155b610b445760405162461bcd60e51b815260206004820152601d60248201527f4c6f616e206973206e6f7420636c6f736564206f722066696e616c747900000060448201526064016107da565b8015610cb3576011546008546040516370a0823160e01b81523060048201526001600160a01b0392831692632e1a7d4d9216906370a0823190602401602060405180830381865afa158015610b9d573d6000803e3d6000fd5b505050506040513d601f19601f82011682018060405250810190610bc19190612428565b6040518263ffffffff1660e01b8152600401610bdf91815260200190565b600060405180830381600087803b158015610bf957600080fd5b505af1158015610c0d573d6000803e3d6000fd5b50506008546040516370a0823160e01b81523060048201526001600160a01b0386811694506108fc9350909116906370a0823190602401602060405180830381865afa158015610c61573d6000803e3d6000fd5b505050506040513d601f19601f82011682018060405250810190610c859190612428565b6040518115909202916000818181858888f19350505050158015610cad573d6000803e3d6000fd5b50610db2565b6008546040516370a0823160e01b81523060048201526001600160a01b039091169063a9059cbb90849083906370a0823190602401602060405180830381865afa158015610d05573d6000803e3d6000fd5b505050506040513d601f19601f82011682018060405250810190610d299190612428565b6040517fffffffff0000000000000000000000000000000000000000000000000000000060e085901b1681526001600160a01b03909216600483015260248201526044016020604051808303816000875af1158015610d8c573d6000803e3d6000fd5b505050506040513d601f19601f82011682018060405250810190610db0919061245e565b505b5050600c80547fffffffffffffffff00ffffffffffffffffffffffffffffffffffffffffffffff16600160b81b179055565b6000546001600160a01b03163314610e2f5760405162461bcd60e51b815260206004820152600e60248201526d37b7363c903a34329037bbb732b960911b60448201526064016107da565b600c805460ff60a01b1916600160a01b9081179091556002540460ff1615610e5957610e59611452565b565b7ff0c57e16840df040f15088dc2f81fe391c3923bec73e23a9662efc9c229c6a00805468010000000000000000810460ff16159067ffffffffffffffff16600081158015610ea65750825b905060008267ffffffffffffffff166001148015610ec35750303b155b905081158015610ed1575080155b15610f08576040517ff92ee8a900000000000000000000000000000000000000000000000000000000815260040160405180910390fd5b845467ffffffffffffffff191660011785558315610f3c57845468ff00000000000000001916680100000000000000001785555b336000806101000a8154816001600160a01b0302191690836001600160a01b031602179055508e60096000820151816000015560208201518160010160006101000a8154816001600160a01b0302191690836001600160a01b031602179055506040820151816002015560608201518160030160006101000a8154816001600160a01b0302191690836001600160a01b0316021790555060808201518160030160146101000a81548160ff02191690831515021790555060a08201518160030160156101000a81548160ff02191690831515021790555060c08201518160030160166101000a81548160ff02191690831515021790555060e08201518160030160176101000a81548160ff0219169083151502179055509050508d600860006101000a8154816001600160a01b0302191690836001600160a01b031602179055508c600160006101000a8154816001600160a01b0302191690836001600160a01b031602179055508a600681905550896005819055508b600260006101000a8154816001600160a01b0302191690836001600160a01b0316021790555088600d60006101000a8154816001600160a01b0302191690836001600160a01b0316021790555087600e60006101000a8154816001600160a01b0302191690836001600160a01b0316021790555086601060006101000a8154816001600160a01b0302191690836001600160a01b0316021790555085601160006101000a8154816001600160a01b0302191690836001600160a01b0316021790555083156111c057845468ff000000000000000019168555604051600181527fc7f505b2f371ae2175ee4913f4499e1f2633a7b5936321eed1cdaeb6115181d29060200160405180910390a15b505050505050505050505050505050565b600c5460009081906111ed906001600160a01b03166001611813565b9050600080846007546112009190612491565b6008549091506001600160a01b031681156112ce576000611222826000611813565b9050816001600160a01b031663313ce5676040518163ffffffff1660e01b8152600401602060405180830381865afa158015611262573d6000803e3d6000fd5b505050506040513d601f19601f8201168201806040525081019061128691906124a4565b61129190600a6125ab565b600554612710906112a284876125ba565b6112ac91906125ba565b6112b691906125d1565b6112c091906125d1565b6112ca9085612491565b9350505b600c54604080517f313ce56700000000000000000000000000000000000000000000000000000000815290516000926001600160a01b03169163313ce5679160048083019260209291908290030181865afa158015611331573d6000803e3d6000fd5b505050506040513d601f19601f8201168201806040525081019061135591906124a4565b61136090600a6125ab565b61136a868a6125ba565b61137491906125d1565b90506000816113848660646125ba565b61138e91906125d1565b96505050505050505b92915050565b6000546001600160a01b031633146113e85760405162461bcd60e51b815260206004820152600e60248201526d37b7363c903a34329037bbb732b960911b60448201526064016107da565b601255565b6000546001600160a01b031633146114385760405162461bcd60e51b815260206004820152600e60248201526d37b7363c903a34329037bbb732b960911b60448201526064016107da565b806007600082825461144a9190612491565b909155505050565b6000546001600160a01b0316331461149d5760405162461bcd60e51b815260206004820152600e60248201526d37b7363c903a34329037bbb732b960911b60448201526064016107da565b6002546040516370a0823160e01b81523060048201526000916001600160a01b0316906370a0823190602401602060405180830381865afa1580156114e6573d6000803e3d6000fd5b505050506040513d601f19601f8201168201806040525081019061150a9190612428565b90506000600160009054906101000a90046001600160a01b03166001600160a01b031663026b1d5f6040518163ffffffff1660e01b8152600401602060405180830381865afa158015611561573d6000803e3d6000fd5b505050506040513d601f19601f820116820180604052508101906115859190612441565b6002546040517f69328dec0000000000000000000000000000000000000000000000000000000081526001600160a01b039182166004820152602481018590523060448201529192508216906369328dec906064016020604051808303816000875af11580156115f9573d6000803e3d6000fd5b505050506040513d601f19601f8201168201806040525081019061161d9190612428565b5060025460405183916001600160a01b03169030907f83aa598dd3e269af677698c6847b3ba594a67d286a771d01099aafa911a91b6490600090a46002805460ff60a01b191690556008546040516370a0823160e01b81523060048201526000916001600160a01b0316906370a0823190602401602060405180830381865afa1580156116ae573d6000803e3d6000fd5b505050506040513d601f19601f820116820180604052508101906116d29190612428565b90506000612710601254600754846116ea91906125f3565b6116f491906125ba565b6116fe91906125d1565b6008546010546040517fa9059cbb0000000000000000000000000000000000000000000000000000000081526001600160a01b03918216600482015260248101849052929350169063a9059cbb906044016020604051808303816000875af115801561176e573d6000803e3d6000fd5b505050506040513d601f19601f82011682018060405250810190611792919061245e565b5050505050565b6000546001600160a01b031633146117e45760405162461bcd60e51b815260206004820152600e60248201526d37b7363c903a34329037bbb732b960911b60448201526064016107da565b600f805473ffffffffffffffffffffffffffffffffffffffff19166001600160a01b0392909216919091179055565b600081151581036118af576000806000806000600d60009054906101000a90046001600160a01b03166001600160a01b031663feaf968c6040518163ffffffff1660e01b815260040160a060405180830381865afa158015611879573d6000803e3d6000fd5b505050506040513d601f19601f8201168201806040525081019061189d9190612620565b50919850611397975050505050505050565b6000806000806000600e60009054906101000a90046001600160a01b03166001600160a01b031663feaf968c6040518163ffffffff1660e01b815260040160a060405180830381865afa158015611879573d6000803e3d6000fd5b6000806000806000806000600160009054906101000a90046001600160a01b03166001600160a01b031663026b1d5f6040518163ffffffff1660e01b8152600401602060405180830381865afa158015611968573d6000803e3d6000fd5b505050506040513d601f19601f8201168201806040525081019061198c9190612441565b6040517fbf92857c0000000000000000000000000000000000000000000000000000000081526001600160a01b038a811660048301529192509082169063bf92857c9060240160c060405180830381865afa1580156119ef573d6000803e3d6000fd5b505050506040513d601f19601f82011682018060405250810190611a139190612670565b949d939c50919a509850965090945092505050565b6000546001600160a01b03163314611a735760405162461bcd60e51b815260206004820152600e60248201526d37b7363c903a34329037bbb732b960911b60448201526064016107da565b6064611a808360006111d1565b10611acd5760405162461bcd60e51b815260206004820152601160248201527f43616e206e6f74206c697175696461746500000000000000000000000000000060448201526064016107da565b600254600160a01b900460ff1615611ae757611ae7611452565b6008546001600160a01b0316611b956103e8611b038482612491565b611b0d90866125ba565b611b1791906125d1565b6008546040516370a0823160e01b81523060048201526001600160a01b03909116906370a0823190602401602060405180830381865afa158015611b5f573d6000803e3d6000fd5b505050506040513d601f19601f82011682018060405250810190611b839190612428565b600c546001600160a01b031684611d8b565b50600c80547fffffffffffffffffffff00ffffffffffffffffffffffffffffffffffffffffff8116600160a81b17909155600f546001600160a01b039182169163095ea7b391166103e8611be98682612491565b611bf390886125ba565b611bfd91906125d1565b6040517fffffffff0000000000000000000000000000000000000000000000000000000060e085901b1681526001600160a01b03909216600483015260248201526044016020604051808303816000875af1158015611c60573d6000803e3d6000fd5b505050506040513d601f19601f82011682018060405250810190611c84919061245e565b50505050565b6000546001600160a01b03163314611cd55760405162461bcd60e51b815260206004820152600e60248201526d37b7363c903a34329037bbb732b960911b60448201526064016107da565b600380546001600160a01b0393841673ffffffffffffffffffffffffffffffffffffffff199182161790915560048054929093169116179055565b6000546001600160a01b03163314611d5b5760405162461bcd60e51b815260206004820152600e60248201526d37b7363c903a34329037bbb732b960911b60448201526064016107da565b600c80547fffffffffffffffffff00ffffffffffffffffffffffffffffffffffffffffffff16600160b01b179055565b600354600090611da69083906001600160a01b031686612013565b600480546040517f1698ee820000000000000000000000000000000000000000000000000000000081526001600160a01b03858116938201939093528583166024820152610bb8604482015260009290911690631698ee8290606401602060405180830381865afa158015611e1f573d6000803e3d6000fd5b505050506040513d601f19601f82011682018060405250810190611e439190612441565b90506000816001600160a01b031663ddca3f436040518163ffffffff1660e01b8152600401602060405180830381865afa158015611e85573d6000803e3d6000fd5b505050506040513d601f19601f82011682018060405250810190611ea991906126ba565b60408051610100810182526001600160a01b038088168252888116602083015262ffffff84168284015233606083015242608083015260a082018b905260c082018a9052600060e083015260035492517fdb3e2198000000000000000000000000000000000000000000000000000000008152939450909291169063db3e219890611fa29084906004016000610100820190506001600160a01b0380845116835280602085015116602084015262ffffff60408501511660408401528060608501511660608401526080840151608084015260a084015160a084015260c084015160c08401528060e08501511660e08401525092915050565b6020604051808303816000875af1158015611fc1573d6000803e3d6000fd5b505050506040513d601f19601f82011682018060405250810190611fe59190612428565b935086841015612008576003546120089086906001600160a01b03166000612013565b505050949350505050565b604080516001600160a01b038481166024830152604480830185905283518084039091018152606490920183526020820180517bffffffffffffffffffffffffffffffffffffffffffffffffffffffff1663095ea7b360e01b179052915160009283929087169161208491906126df565b6000604051808303816000865af19150503d80600081146120c1576040519150601f19603f3d011682016040523d82523d6000602084013e6120c6565b606091505b50915091508180156120f05750805115806120f05750808060200190518101906120f0919061245e565b6117925760405162461bcd60e51b815260206004820152600260248201527f534100000000000000000000000000000000000000000000000000000000000060448201526064016107da565b6001600160a01b038116811461215157600080fd5b50565b803561215f8161213c565b919050565b801515811461215157600080fd5b803561215f81612164565b6000806040838503121561219057600080fd5b823561219b8161213c565b915060208301356121ab81612164565b809150509250929050565b6000806000806000806000806000808a8c036102208112156121d757600080fd5b610100808212156121e757600080fd5b604051915080820182811067ffffffffffffffff8211171561221957634e487b7160e01b600052604160045260246000fd5b6040528c35825261222c60208e01612154565b602083015260408d0135604083015261224760608e01612154565b606083015261225860808e01612172565b608083015261226960a08e01612172565b60a083015261227a60c08e01612172565b60c083015261228b60e08e01612172565b60e0830152819b5061229e818e01612154565b9a5050506122af6101208c01612154565b97506122be6101408c01612154565b96506101608b013595506101808b013594506122dd6101a08c01612154565b93506122ec6101c08c01612154565b92506122fb6101e08c01612154565b915061230a6102008c01612154565b90509295989b9194979a5092959850565b6000806040838503121561232e57600080fd5b50508035926020909101359150565b6000610100820190508251825260208301516001600160a01b03808216602085015260408501516040850152806060860151166060850152505060808301511515608083015260a0830151151560a083015260c08301516123a260c084018215159052565b5060e08301516123b660e084018215159052565b5092915050565b6000602082840312156123cf57600080fd5b5035919050565b6000602082840312156123e857600080fd5b81356123f38161213c565b9392505050565b6000806040838503121561240d57600080fd5b82356124188161213c565b915060208301356121ab8161213c565b60006020828403121561243a57600080fd5b5051919050565b60006020828403121561245357600080fd5b81516123f38161213c565b60006020828403121561247057600080fd5b81516123f381612164565b634e487b7160e01b600052601160045260246000fd5b808201808211156113975761139761247b565b6000602082840312156124b657600080fd5b815160ff811681146123f357600080fd5b600181815b808511156125025781600019048211156124e8576124e861247b565b808516156124f557918102915b93841c93908002906124cc565b509250929050565b60008261251957506001611397565b8161252657506000611397565b816001811461253c576002811461254657612562565b6001915050611397565b60ff8411156125575761255761247b565b50506001821b611397565b5060208310610133831016604e8410600b8410161715612585575081810a611397565b61258f83836124c7565b80600019048211156125a3576125a361247b565b029392505050565b60006123f360ff84168361250a565b80820281158282048414176113975761139761247b565b6000826125ee57634e487b7160e01b600052601260045260246000fd5b500490565b818103818111156113975761139761247b565b805169ffffffffffffffffffff8116811461215f57600080fd5b600080600080600060a0868803121561263857600080fd5b61264186612606565b945060208601519350604086015192506060860151915061266460808701612606565b90509295509295909350565b60008060008060008060c0878903121561268957600080fd5b865195506020870151945060408701519350606087015192506080870151915060a087015190509295509295509295565b6000602082840312156126cc57600080fd5b815162ffffff811681146123f357600080fd5b6000825160005b8181101561270057602081860181015185830152016126e6565b50600092019182525091905056fea2646970667358221220b8cb6274f3b7cecfc3a75ed3764c98bc856cb61ffe6386b240e5ddbd996477e364736f6c63430008180033",
  "linkReferences": {},
  "deployedLinkReferences": {}
}