{
  "_format": "hh-sol-artifact-1",
  "contractName": "CCFL",
  "sourceName": "contracts/CCFL.sol",
  "abi": [
    {
      "inputs": [],
      "name": "ERC1167FailedCreateClone",
      "type": "error"
    },
    {
      "inputs": [],
      "name": "InvalidInitialization",
      "type": "error"
    },
    {
      "inputs": [],
      "name": "NotInitializing",
      "type": "error"
    },
    {
      "anonymous": false,
      "inputs": [
        {
          "indexed": true,
          "internalType": "address",
          "name": "borrower",
          "type": "address"
        },
        {
          "indexed": false,
          "internalType": "uint256",
          "name": "loanId",
          "type": "uint256"
        },
        {
          "indexed": false,
          "internalType": "uint256",
          "name": "collateralAmount",
          "type": "uint256"
        },
        {
          "indexed": false,
          "internalType": "contract IERC20Standard",
          "name": "collateral",
          "type": "address"
        },
        {
          "indexed": false,
          "internalType": "bool",
          "name": "isETH",
          "type": "bool"
        },
        {
          "indexed": false,
          "internalType": "uint256",
          "name": "timestamp",
          "type": "uint256"
        }
      ],
      "name": "AddCollateral",
      "type": "event"
    },
    {
      "anonymous": false,
      "inputs": [
        {
          "indexed": true,
          "internalType": "address",
          "name": "borrower",
          "type": "address"
        },
        {
          "indexed": false,
          "internalType": "uint256",
          "name": "loanAmount",
          "type": "uint256"
        },
        {
          "indexed": false,
          "internalType": "contract IERC20Standard",
          "name": "supply",
          "type": "address"
        },
        {
          "indexed": false,
          "internalType": "uint256",
          "name": "collateralAmount",
          "type": "uint256"
        },
        {
          "indexed": false,
          "internalType": "contract IERC20Standard",
          "name": "collateral",
          "type": "address"
        },
        {
          "indexed": false,
          "internalType": "bool",
          "name": "isYieldGenerating",
          "type": "bool"
        },
        {
          "indexed": false,
          "internalType": "bool",
          "name": "isETH",
          "type": "bool"
        },
        {
          "indexed": false,
          "internalType": "uint256",
          "name": "loanId",
          "type": "uint256"
        },
        {
          "indexed": false,
          "internalType": "uint256",
          "name": "timestamp",
          "type": "uint256"
        }
      ],
      "name": "CreateLoan",
      "type": "event"
    },
    {
      "anonymous": false,
      "inputs": [
        {
          "indexed": false,
          "internalType": "uint64",
          "name": "version",
          "type": "uint64"
        }
      ],
      "name": "Initialized",
      "type": "event"
    },
    {
      "anonymous": false,
      "inputs": [
        {
          "indexed": true,
          "internalType": "address",
          "name": "liquidator",
          "type": "address"
        },
        {
          "indexed": false,
          "internalType": "uint256",
          "name": "loanId",
          "type": "uint256"
        },
        {
          "indexed": false,
          "internalType": "uint256",
          "name": "timestamp",
          "type": "uint256"
        }
      ],
      "name": "Liquidate",
      "type": "event"
    },
    {
      "anonymous": false,
      "inputs": [
        {
          "indexed": true,
          "internalType": "address",
          "name": "borrower",
          "type": "address"
        },
        {
          "indexed": false,
          "internalType": "uint256",
          "name": "loanId",
          "type": "uint256"
        },
        {
          "indexed": false,
          "internalType": "uint256",
          "name": "amount",
          "type": "uint256"
        },
        {
          "indexed": false,
          "internalType": "contract IERC20Standard",
          "name": "supply",
          "type": "address"
        },
        {
          "indexed": false,
          "internalType": "uint256",
          "name": "timestamp",
          "type": "uint256"
        }
      ],
      "name": "RepayLoan",
      "type": "event"
    },
    {
      "anonymous": false,
      "inputs": [
        {
          "indexed": true,
          "internalType": "address",
          "name": "borrower",
          "type": "address"
        },
        {
          "indexed": false,
          "internalType": "uint256",
          "name": "loanId",
          "type": "uint256"
        },
        {
          "indexed": false,
          "internalType": "bool",
          "name": "isETH",
          "type": "bool"
        },
        {
          "indexed": false,
          "internalType": "uint256",
          "name": "timestamp",
          "type": "uint256"
        }
      ],
      "name": "WithdrawAllCollateral",
      "type": "event"
    },
    {
      "anonymous": false,
      "inputs": [
        {
          "indexed": true,
          "internalType": "address",
          "name": "borrower",
          "type": "address"
        },
        {
          "indexed": false,
          "internalType": "uint256",
          "name": "loanId",
          "type": "uint256"
        },
        {
          "indexed": false,
          "internalType": "contract IERC20Standard",
          "name": "supply",
          "type": "address"
        },
        {
          "indexed": false,
          "internalType": "uint256",
          "name": "timestamp",
          "type": "uint256"
        }
      ],
      "name": "WithdrawLoan",
      "type": "event"
    },
    {
      "inputs": [
        {
          "internalType": "contract IERC20Standard",
          "name": "",
          "type": "address"
        }
      ],
      "name": "aTokens",
      "outputs": [
        {
          "internalType": "contract IERC20Standard",
          "name": "",
          "type": "address"
        }
      ],
      "stateMutability": "view",
      "type": "function"
    },
    {
      "inputs": [],
      "name": "aaveAddressProvider",
      "outputs": [
        {
          "internalType": "contract IPoolAddressesProvider",
          "name": "",
          "type": "address"
        }
      ],
      "stateMutability": "view",
      "type": "function"
    },
    {
      "inputs": [
        {
          "internalType": "uint256",
          "name": "_loanId",
          "type": "uint256"
        },
        {
          "internalType": "uint256",
          "name": "_amountCollateral",
          "type": "uint256"
        },
        {
          "internalType": "contract IERC20Standard",
          "name": "_collateral",
          "type": "address"
        }
      ],
      "name": "addCollateral",
      "outputs": [],
      "stateMutability": "nonpayable",
      "type": "function"
    },
    {
      "inputs": [
        {
          "internalType": "uint256",
          "name": "_loanId",
          "type": "uint256"
        },
        {
          "internalType": "uint256",
          "name": "_amountETH",
          "type": "uint256"
        }
      ],
      "name": "addCollateralByETH",
      "outputs": [],
      "stateMutability": "payable",
      "type": "function"
    },
    {
      "inputs": [
        {
          "internalType": "uint256",
          "name": "_loanId",
          "type": "uint256"
        },
        {
          "internalType": "uint256",
          "name": "_amountCollateral",
          "type": "uint256"
        }
      ],
      "name": "addCollateralHealthFactor",
      "outputs": [
        {
          "internalType": "uint256",
          "name": "",
          "type": "uint256"
        }
      ],
      "stateMutability": "view",
      "type": "function"
    },
    {
      "inputs": [
        {
          "internalType": "contract IERC20Standard",
          "name": "",
          "type": "address"
        }
      ],
      "name": "ccflActiveCollaterals",
      "outputs": [
        {
          "internalType": "bool",
          "name": "",
          "type": "bool"
        }
      ],
      "stateMutability": "view",
      "type": "function"
    },
    {
      "inputs": [
        {
          "internalType": "contract IERC20Standard",
          "name": "",
          "type": "address"
        }
      ],
      "name": "ccflActivePoolStableCoins",
      "outputs": [
        {
          "internalType": "bool",
          "name": "",
          "type": "bool"
        }
      ],
      "stateMutability": "view",
      "type": "function"
    },
    {
      "inputs": [],
      "name": "ccflLoan",
      "outputs": [
        {
          "internalType": "contract ICCFLLoan",
          "name": "",
          "type": "address"
        }
      ],
      "stateMutability": "view",
      "type": "function"
    },
    {
      "inputs": [
        {
          "internalType": "uint256",
          "name": "",
          "type": "uint256"
        }
      ],
      "name": "ccflPoolStableCoins",
      "outputs": [
        {
          "internalType": "contract IERC20Standard",
          "name": "",
          "type": "address"
        }
      ],
      "stateMutability": "view",
      "type": "function"
    },
    {
      "inputs": [
        {
          "internalType": "contract IERC20Standard",
          "name": "",
          "type": "address"
        }
      ],
      "name": "ccflPools",
      "outputs": [
        {
          "internalType": "contract ICCFLPool",
          "name": "",
          "type": "address"
        }
      ],
      "stateMutability": "view",
      "type": "function"
    },
    {
      "inputs": [
        {
          "internalType": "contract IERC20Standard[]",
          "name": "array",
          "type": "address[]"
        },
        {
          "internalType": "contract IERC20Standard",
          "name": "el",
          "type": "address"
        }
      ],
      "name": "checkExistElement",
      "outputs": [
        {
          "internalType": "bool",
          "name": "",
          "type": "bool"
        }
      ],
      "stateMutability": "pure",
      "type": "function"
    },
    {
      "inputs": [
        {
          "internalType": "uint256",
          "name": "_amount",
          "type": "uint256"
        },
        {
          "internalType": "contract IERC20Standard",
          "name": "_stableCoin",
          "type": "address"
        },
        {
          "internalType": "contract IERC20Standard",
          "name": "_collateral",
          "type": "address"
        }
      ],
      "name": "checkMinimalCollateralForLoan",
      "outputs": [
        {
          "internalType": "uint256",
          "name": "",
          "type": "uint256"
        }
      ],
      "stateMutability": "view",
      "type": "function"
    },
    {
      "inputs": [
        {
          "internalType": "uint256",
          "name": "",
          "type": "uint256"
        }
      ],
      "name": "collateralTokens",
      "outputs": [
        {
          "internalType": "contract IERC20Standard",
          "name": "",
          "type": "address"
        }
      ],
      "stateMutability": "view",
      "type": "function"
    },
    {
      "inputs": [
        {
          "internalType": "address",
          "name": "",
          "type": "address"
        },
        {
          "internalType": "contract IERC20Standard",
          "name": "",
          "type": "address"
        }
      ],
      "name": "collaterals",
      "outputs": [
        {
          "internalType": "uint256",
          "name": "",
          "type": "uint256"
        }
      ],
      "stateMutability": "view",
      "type": "function"
    },
    {
      "inputs": [
        {
          "internalType": "uint256",
          "name": "_amount",
          "type": "uint256"
        },
        {
          "internalType": "contract IERC20Standard",
          "name": "_stableCoin",
          "type": "address"
        },
        {
          "internalType": "uint256",
          "name": "_amountCollateral",
          "type": "uint256"
        },
        {
          "internalType": "contract IERC20Standard",
          "name": "_collateral",
          "type": "address"
        },
        {
          "internalType": "bool",
          "name": "_isYieldGenerating",
          "type": "bool"
        },
        {
          "internalType": "bool",
          "name": "_isFiat",
          "type": "bool"
        }
      ],
      "name": "createLoan",
      "outputs": [],
      "stateMutability": "nonpayable",
      "type": "function"
    },
    {
      "inputs": [
        {
          "internalType": "uint256",
          "name": "_amount",
          "type": "uint256"
        },
        {
          "internalType": "contract IERC20Standard",
          "name": "_stableCoin",
          "type": "address"
        },
        {
          "internalType": "uint256",
          "name": "_amountETH",
          "type": "uint256"
        },
        {
          "internalType": "bool",
          "name": "_isYieldGenerating",
          "type": "bool"
        },
        {
          "internalType": "bool",
          "name": "_isFiat",
          "type": "bool"
        }
      ],
      "name": "createLoanByETH",
      "outputs": [],
      "stateMutability": "payable",
      "type": "function"
    },
    {
      "inputs": [],
      "name": "earnBorrower",
      "outputs": [
        {
          "internalType": "uint256",
          "name": "",
          "type": "uint256"
        }
      ],
      "stateMutability": "view",
      "type": "function"
    },
    {
      "inputs": [],
      "name": "earnLender",
      "outputs": [
        {
          "internalType": "uint256",
          "name": "",
          "type": "uint256"
        }
      ],
      "stateMutability": "view",
      "type": "function"
    },
    {
      "inputs": [],
      "name": "earnPlatform",
      "outputs": [
        {
          "internalType": "uint256",
          "name": "",
          "type": "uint256"
        }
      ],
      "stateMutability": "view",
      "type": "function"
    },
    {
      "inputs": [],
      "name": "factory",
      "outputs": [
        {
          "internalType": "contract IUniswapV3Factory",
          "name": "",
          "type": "address"
        }
      ],
      "stateMutability": "view",
      "type": "function"
    },
    {
      "inputs": [
        {
          "internalType": "uint256",
          "name": "_loanId",
          "type": "uint256"
        }
      ],
      "name": "getHealthFactor",
      "outputs": [
        {
          "internalType": "uint256",
          "name": "",
          "type": "uint256"
        }
      ],
      "stateMutability": "view",
      "type": "function"
    },
    {
      "inputs": [
        {
          "internalType": "contract IERC20Standard",
          "name": "_stableCoin",
          "type": "address"
        },
        {
          "internalType": "bool",
          "name": "isPool",
          "type": "bool"
        }
      ],
      "name": "getLatestPrice",
      "outputs": [
        {
          "internalType": "uint256",
          "name": "",
          "type": "uint256"
        }
      ],
      "stateMutability": "view",
      "type": "function"
    },
    {
      "inputs": [
        {
          "internalType": "uint256",
          "name": "_loanId",
          "type": "uint256"
        }
      ],
      "name": "getLoanAddress",
      "outputs": [
        {
          "internalType": "address",
          "name": "",
          "type": "address"
        }
      ],
      "stateMutability": "view",
      "type": "function"
    },
    {
      "inputs": [
        {
          "internalType": "address",
          "name": "borrower",
          "type": "address"
        }
      ],
      "name": "getLoanIds",
      "outputs": [
        {
          "internalType": "uint256[]",
          "name": "",
          "type": "uint256[]"
        }
      ],
      "stateMutability": "view",
      "type": "function"
    },
    {
      "inputs": [
        {
          "internalType": "contract IERC20Standard[]",
          "name": "_ccflPoolStableCoin",
          "type": "address[]"
        },
        {
          "internalType": "contract AggregatorV3Interface[]",
          "name": "_poolAggregators",
          "type": "address[]"
        },
        {
          "internalType": "contract ICCFLPool[]",
          "name": "_ccflPools",
          "type": "address[]"
        },
        {
          "internalType": "contract IERC20Standard[]",
          "name": "_collateralTokens",
          "type": "address[]"
        },
        {
          "internalType": "contract AggregatorV3Interface[]",
          "name": "_collateralAggregators",
          "type": "address[]"
        },
        {
          "internalType": "contract IERC20Standard[]",
          "name": "_aTokens",
          "type": "address[]"
        },
        {
          "internalType": "contract IPoolAddressesProvider",
          "name": "_aaveAddressProvider",
          "type": "address"
        },
        {
          "internalType": "uint256",
          "name": "_maxLTV",
          "type": "uint256"
        },
        {
          "internalType": "uint256",
          "name": "_liquidationThreshold",
          "type": "uint256"
        },
        {
          "internalType": "contract ICCFLLoan",
          "name": "_ccflLoan",
          "type": "address"
        }
      ],
      "name": "initialize",
      "outputs": [],
      "stateMutability": "nonpayable",
      "type": "function"
    },
    {
      "inputs": [],
      "name": "isPaused",
      "outputs": [
        {
          "internalType": "bool",
          "name": "",
          "type": "bool"
        }
      ],
      "stateMutability": "view",
      "type": "function"
    },
    {
      "inputs": [
        {
          "internalType": "uint256",
          "name": "_loanId",
          "type": "uint256"
        }
      ],
      "name": "liquidate",
      "outputs": [],
      "stateMutability": "nonpayable",
      "type": "function"
    },
    {
      "inputs": [],
      "name": "liquidationThreshold",
      "outputs": [
        {
          "internalType": "uint256",
          "name": "",
          "type": "uint256"
        }
      ],
      "stateMutability": "view",
      "type": "function"
    },
    {
      "inputs": [],
      "name": "liquidator",
      "outputs": [
        {
          "internalType": "address",
          "name": "",
          "type": "address"
        }
      ],
      "stateMutability": "view",
      "type": "function"
    },
    {
      "inputs": [],
      "name": "loandIds",
      "outputs": [
        {
          "internalType": "uint256",
          "name": "",
          "type": "uint256"
        }
      ],
      "stateMutability": "view",
      "type": "function"
    },
    {
      "inputs": [],
      "name": "maxLTV",
      "outputs": [
        {
          "internalType": "uint256",
          "name": "",
          "type": "uint256"
        }
      ],
      "stateMutability": "view",
      "type": "function"
    },
    {
      "inputs": [
        {
          "internalType": "address",
          "name": "",
          "type": "address"
        }
      ],
      "name": "operators",
      "outputs": [
        {
          "internalType": "bool",
          "name": "",
          "type": "bool"
        }
      ],
      "stateMutability": "view",
      "type": "function"
    },
    {
      "inputs": [],
      "name": "owner",
      "outputs": [
        {
          "internalType": "address",
          "name": "",
          "type": "address"
        }
      ],
      "stateMutability": "view",
      "type": "function"
    },
    {
      "inputs": [],
      "name": "penaltyLender",
      "outputs": [
        {
          "internalType": "uint256",
          "name": "",
          "type": "uint256"
        }
      ],
      "stateMutability": "view",
      "type": "function"
    },
    {
      "inputs": [],
      "name": "penaltyLiquidator",
      "outputs": [
        {
          "internalType": "uint256",
          "name": "",
          "type": "uint256"
        }
      ],
      "stateMutability": "view",
      "type": "function"
    },
    {
      "inputs": [],
      "name": "penaltyPlatform",
      "outputs": [
        {
          "internalType": "uint256",
          "name": "",
          "type": "uint256"
        }
      ],
      "stateMutability": "view",
      "type": "function"
    },
    {
      "inputs": [],
      "name": "platform",
      "outputs": [
        {
          "internalType": "address",
          "name": "",
          "type": "address"
        }
      ],
      "stateMutability": "view",
      "type": "function"
    },
    {
      "inputs": [
        {
          "internalType": "contract IERC20Standard",
          "name": "",
          "type": "address"
        }
      ],
      "name": "priceFeeds",
      "outputs": [
        {
          "internalType": "contract AggregatorV3Interface",
          "name": "",
          "type": "address"
        }
      ],
      "stateMutability": "view",
      "type": "function"
    },
    {
      "inputs": [
        {
          "internalType": "contract IERC20Standard",
          "name": "",
          "type": "address"
        }
      ],
      "name": "pricePoolFeeds",
      "outputs": [
        {
          "internalType": "contract AggregatorV3Interface",
          "name": "",
          "type": "address"
        }
      ],
      "stateMutability": "view",
      "type": "function"
    },
    {
      "inputs": [
        {
          "internalType": "uint256",
          "name": "_loanId",
          "type": "uint256"
        },
        {
          "internalType": "uint256",
          "name": "_amount",
          "type": "uint256"
        }
      ],
      "name": "repayHealthFactor",
      "outputs": [
        {
          "internalType": "uint256",
          "name": "",
          "type": "uint256"
        }
      ],
      "stateMutability": "view",
      "type": "function"
    },
    {
      "inputs": [
        {
          "internalType": "uint256",
          "name": "_loanId",
          "type": "uint256"
        },
        {
          "internalType": "uint256",
          "name": "_amount",
          "type": "uint256"
        },
        {
          "internalType": "contract IERC20Standard",
          "name": "_stableCoin",
          "type": "address"
        }
      ],
      "name": "repayLoan",
      "outputs": [],
      "stateMutability": "nonpayable",
      "type": "function"
    },
    {
      "inputs": [
        {
          "internalType": "contract IPoolAddressesProvider",
          "name": "_aaveAddressProvider",
          "type": "address"
        }
      ],
      "name": "setAaveProvider",
      "outputs": [],
      "stateMutability": "nonpayable",
      "type": "function"
    },
    {
      "inputs": [
        {
          "internalType": "contract IERC20Standard",
          "name": "_token",
          "type": "address"
        },
        {
          "internalType": "bool",
          "name": "_isActived",
          "type": "bool"
        },
        {
          "internalType": "bool",
          "name": "_isPoolToken",
          "type": "bool"
        }
      ],
      "name": "setActiveToken",
      "outputs": [],
      "stateMutability": "nonpayable",
      "type": "function"
    },
    {
      "inputs": [
        {
          "internalType": "contract ICCFLLoan",
          "name": "_loan",
          "type": "address"
        }
      ],
      "name": "setCCFLLoan",
      "outputs": [],
      "stateMutability": "nonpayable",
      "type": "function"
    },
    {
      "inputs": [
        {
          "internalType": "contract IERC20Standard[]",
          "name": "_collateralTokens",
          "type": "address[]"
        },
        {
          "internalType": "contract AggregatorV3Interface[]",
          "name": "_collateralAggregators",
          "type": "address[]"
        },
        {
          "internalType": "contract IERC20Standard[]",
          "name": "_aTokens",
          "type": "address[]"
        }
      ],
      "name": "setCollaterals",
      "outputs": [],
      "stateMutability": "nonpayable",
      "type": "function"
    },
    {
      "inputs": [
        {
          "internalType": "uint256",
          "name": "_borrower",
          "type": "uint256"
        },
        {
          "internalType": "uint256",
          "name": "_platform",
          "type": "uint256"
        },
        {
          "internalType": "uint256",
          "name": "_lender",
          "type": "uint256"
        }
      ],
      "name": "setEarnShare",
      "outputs": [],
      "stateMutability": "nonpayable",
      "type": "function"
    },
    {
      "inputs": [
        {
          "internalType": "bool",
          "name": "_isActived",
          "type": "bool"
        }
      ],
      "name": "setEnableETHNative",
      "outputs": [],
      "stateMutability": "nonpayable",
      "type": "function"
    },
    {
      "inputs": [
        {
          "internalType": "address[]",
          "name": "_addresses",
          "type": "address[]"
        },
        {
          "internalType": "bool[]",
          "name": "_isActives",
          "type": "bool[]"
        }
      ],
      "name": "setOperators",
      "outputs": [],
      "stateMutability": "nonpayable",
      "type": "function"
    },
    {
      "inputs": [
        {
          "internalType": "bool",
          "name": "_paused",
          "type": "bool"
        }
      ],
      "name": "setPaused",
      "outputs": [],
      "stateMutability": "nonpayable",
      "type": "function"
    },
    {
      "inputs": [
        {
          "internalType": "uint256",
          "name": "_platform",
          "type": "uint256"
        },
        {
          "internalType": "uint256",
          "name": "_liquidator",
          "type": "uint256"
        },
        {
          "internalType": "uint256",
          "name": "_lender",
          "type": "uint256"
        }
      ],
      "name": "setPenalty",
      "outputs": [],
      "stateMutability": "nonpayable",
      "type": "function"
    },
    {
      "inputs": [
        {
          "internalType": "address",
          "name": "_liquidator",
          "type": "address"
        },
        {
          "internalType": "address",
          "name": "_platform",
          "type": "address"
        }
      ],
      "name": "setPlatformAddress",
      "outputs": [],
      "stateMutability": "nonpayable",
      "type": "function"
    },
    {
      "inputs": [
        {
          "internalType": "contract IERC20Standard[]",
          "name": "_ccflPoolStableCoin",
          "type": "address[]"
        },
        {
          "internalType": "contract AggregatorV3Interface[]",
          "name": "_poolAggregators",
          "type": "address[]"
        },
        {
          "internalType": "contract ICCFLPool[]",
          "name": "_ccflPools",
          "type": "address[]"
        }
      ],
      "name": "setPools",
      "outputs": [],
      "stateMutability": "nonpayable",
      "type": "function"
    },
    {
      "inputs": [
        {
          "internalType": "contract ISwapRouter",
          "name": "_swapRouter",
          "type": "address"
        },
        {
          "internalType": "contract IUniswapV3Factory",
          "name": "_factory",
          "type": "address"
        }
      ],
      "name": "setSwapRouter",
      "outputs": [],
      "stateMutability": "nonpayable",
      "type": "function"
    },
    {
      "inputs": [
        {
          "internalType": "uint256",
          "name": "_maxLTV",
          "type": "uint256"
        },
        {
          "internalType": "uint256",
          "name": "_liquidationThreshold",
          "type": "uint256"
        }
      ],
      "name": "setThreshold",
      "outputs": [],
      "stateMutability": "nonpayable",
      "type": "function"
    },
    {
      "inputs": [
        {
          "internalType": "contract IWETH",
          "name": "_iWETH",
          "type": "address"
        }
      ],
      "name": "setWETH",
      "outputs": [],
      "stateMutability": "nonpayable",
      "type": "function"
    },
    {
      "inputs": [
        {
          "internalType": "address",
          "name": "",
          "type": "address"
        },
        {
          "internalType": "uint256",
          "name": "",
          "type": "uint256"
        }
      ],
      "name": "userLoans",
      "outputs": [
        {
          "internalType": "uint256",
          "name": "",
          "type": "uint256"
        }
      ],
      "stateMutability": "view",
      "type": "function"
    },
    {
      "inputs": [],
      "name": "wETH",
      "outputs": [
        {
          "internalType": "contract IWETH",
          "name": "",
          "type": "address"
        }
      ],
      "stateMutability": "view",
      "type": "function"
    },
    {
      "inputs": [
        {
          "internalType": "uint256",
          "name": "_loanId",
          "type": "uint256"
        },
        {
          "internalType": "bool",
          "name": "isETH",
          "type": "bool"
        }
      ],
      "name": "withdrawAllCollateral",
      "outputs": [],
      "stateMutability": "nonpayable",
      "type": "function"
    },
    {
      "inputs": [
        {
          "internalType": "uint256",
          "name": "_loanId",
          "type": "uint256"
        },
        {
          "internalType": "bool",
          "name": "isETH",
          "type": "bool"
        }
      ],
      "name": "withdrawAllCollateralByAdmin",
      "outputs": [],
      "stateMutability": "nonpayable",
      "type": "function"
    },
    {
      "inputs": [
        {
          "internalType": "contract IERC20Standard",
          "name": "_stableCoin",
          "type": "address"
        },
        {
          "internalType": "uint256",
          "name": "_loanId",
          "type": "uint256"
        }
      ],
      "name": "withdrawFiatLoan",
      "outputs": [],
      "stateMutability": "nonpayable",
      "type": "function"
    },
    {
      "inputs": [
        {
          "internalType": "contract IERC20Standard",
          "name": "_stableCoin",
          "type": "address"
        },
        {
          "internalType": "uint256",
          "name": "_loanId",
          "type": "uint256"
        }
      ],
      "name": "withdrawLoan",
      "outputs": [],
      "stateMutability": "nonpayable",
      "type": "function"
    },
    {
      "stateMutability": "payable",
      "type": "receive"
    }
  ],
  "bytecode": "0x608060405234801561001057600080fd5b50615b6780620000216000396000f3fe6080604052600436106103a65760003560e01c80638da5cb5b116101e7578063cdaabe411161010d578063ef3c5d25116100a0578063f43050351161006f578063f430503514610b50578063f6597bbb14610b70578063f8f126ff14610b86578063fdb2b32c14610ba657600080fd5b8063ef3c5d2514610ada578063f242862114610afa578063f384bd0514610b1a578063f3cf4ada14610b3057600080fd5b8063e43b03d6116100dc578063e43b03d614610a35578063e51e119e14610a55578063e787ea2c14610a8a578063ec7be39d14610aba57600080fd5b8063cdaabe41146109c2578063cff212e6146109e2578063d8bad5bd146109f5578063dc40e2d014610a1557600080fd5b8063b187bd2611610185578063b9c3620911610154578063b9c362091461092c578063c0d015461461094c578063c45a015514610982578063c694fdc1146109a257600080fd5b8063b187bd26146108a8578063b3bffeaa146108c9578063b5dbde5f146108e9578063b92dd925146108fc57600080fd5b8063a58bab62116101c1578063a58bab621461083c578063a8700c3c14610852578063a95d713214610872578063af6a85c41461088857600080fd5b80638da5cb5b146107b0578063989397d4146107d05780639dcb511a1461080657600080fd5b80634046ebae116102cc578063611f347d1161026a5780636eb0fdd0116102395780636eb0fdd01461073a5780636f43d3dd1461075a5780638ba02e1c1461077a5780638ba2444e1461079057600080fd5b8063611f347d146106ad57806364b52097146106cd5780636b64c885146106ed5780636cb0ab5e1461071a57600080fd5b80634bde38c8116102a65780634bde38c81461062d5780635b769f3c1461064d5780635c8edac41461066d5780635f499ebc1461068d57600080fd5b80634046ebae146105cd578063415f1240146105ed578063474843ea1461060d57600080fd5b80631d9eb5d9116103445780633a0720e6116103135780633a0720e61461054b5780633a2ad9ae146105615780633e108ad9146105815780634031234c146105b757600080fd5b80631d9eb5d9146104d557806325e9d2fa146104f557806332df398e1461051557806338ef67171461052b57600080fd5b806316c38b3c1161038057806316c38b3c1461043d578063172c48c71461045d57806317845c69146104955780631bb514cf146104b557600080fd5b80630769594d146103b2578063101b9d31146103d457806313e7c9d8146103fd57600080fd5b366103ad57005b600080fd5b3480156103be57600080fd5b506103d26103cd366004615071565b610bdc565b005b3480156103e057600080fd5b506103ea60195481565b6040519081526020015b60405180910390f35b34801561040957600080fd5b5061042d6104183660046150f9565b60016020526000908152604090205460ff1681565b60405190151581526020016103f4565b34801561044957600080fd5b506103d261045836600461512b565b610dea565b34801561046957600080fd5b5061047d610478366004615148565b610e68565b6040516001600160a01b0390911681526020016103f4565b3480156104a157600080fd5b506103ea6104b0366004615148565b610e92565b3480156104c157600080fd5b506103ea6104d0366004615161565b611010565b3480156104e157600080fd5b5061042d6104f03660046151a3565b61114c565b34801561050157600080fd5b506103ea6105103660046151f5565b6111a7565b34801561052157600080fd5b506103ea601a5481565b34801561053757600080fd5b506103d26105463660046150f9565b611327565b34801561055757600080fd5b506103ea601c5481565b34801561056d57600080fd5b506103d261057c366004615222565b61139a565b34801561058d57600080fd5b5061047d61059c3660046150f9565b600b602052600090815260409020546001600160a01b031681565b3480156105c357600080fd5b506103ea600d5481565b3480156105d957600080fd5b5060125461047d906001600160a01b031681565b3480156105f957600080fd5b506103d2610608366004615148565b611584565b34801561061957600080fd5b506103d26106283660046150f9565b611d8d565b34801561063957600080fd5b5060135461047d906001600160a01b031681565b34801561065957600080fd5b506103d26106683660046150f9565b611e00565b34801561067957600080fd5b506103d2610688366004615262565b611e73565b34801561069957600080fd5b506103d26106a836600461512b565b611fee565b3480156106b957600080fd5b506103d26106c8366004615287565b612052565b3480156106d957600080fd5b506103d26106e8366004615071565b612434565b3480156106f957600080fd5b5061070d6107083660046150f9565b612631565b6040516103f491906153b4565b34801561072657600080fd5b506103d26107353660046153f8565b61269d565b34801561074657600080fd5b506103d2610755366004615424565b6126fc565b34801561076657600080fd5b506103d2610775366004615452565b612b70565b34801561078657600080fd5b506103ea60025481565b34801561079c57600080fd5b5060055461047d906001600160a01b031681565b3480156107bc57600080fd5b5060145461047d906001600160a01b031681565b3480156107dc57600080fd5b5061047d6107eb3660046150f9565b600f602052600090815260409020546001600160a01b031681565b34801561081257600080fd5b5061047d6108213660046150f9565b600e602052600090815260409020546001600160a01b031681565b34801561084857600080fd5b506103ea60185481565b34801561085e57600080fd5b506103d261086d36600461547e565b612df5565b34801561087e57600080fd5b506103ea601b5481565b34801561089457600080fd5b506103d26108a3366004615262565b613711565b3480156108b457600080fd5b5060155461042d90600160a01b900460ff1681565b3480156108d557600080fd5b506103ea6108e43660046154ee565b613816565b6103d26108f736600461551c565b613917565b34801561090857600080fd5b5061042d6109173660046150f9565b60076020526000908152604090205460ff1681565b34801561093857600080fd5b506103d26109473660046151f5565b6142d7565b34801561095857600080fd5b5061047d6109673660046150f9565b6003602052600090815260409020546001600160a01b031681565b34801561098e57600080fd5b5060115461047d906001600160a01b031681565b3480156109ae57600080fd5b5061047d6109bd366004615148565b614333565b3480156109ce57600080fd5b50600a5461047d906001600160a01b031681565b6103d26109f03660046151f5565b614343565b348015610a0157600080fd5b506103ea610a10366004615452565b61466c565b348015610a2157600080fd5b506103d2610a3036600461557b565b61469d565b348015610a4157600080fd5b506103ea610a503660046151f5565b61471c565b348015610a6157600080fd5b506103ea610a7036600461557b565b600060208181529281526040808220909352908152205481565b348015610a9657600080fd5b5061042d610aa53660046150f9565b60096020526000908152604090205460ff1681565b348015610ac657600080fd5b506103d2610ad5366004615452565b614864565b348015610ae657600080fd5b506103d2610af5366004615424565b6149a6565b348015610b0657600080fd5b5060155461047d906001600160a01b031681565b348015610b2657600080fd5b506103ea600c5481565b348015610b3c57600080fd5b506103d2610b4b3660046153f8565b614c49565b348015610b5c57600080fd5b506103d2610b6b366004615611565b614ca5565b348015610b7c57600080fd5b506103ea60175481565b348015610b9257600080fd5b506103d2610ba136600461557b565b614d60565b348015610bb257600080fd5b5061047d610bc1366004615148565b6000908152600660205260409020546001600160a01b031690565b336000908152600160208181526040928390205483518085019094526002845261062760f31b9184019190915260ff16151514610c355760405162461bcd60e51b8152600401610c2c91906156d3565b60405180910390fd5b5060005b8351811015610de4576000848281518110610c5657610c56615722565b60200260200101519050610cc46004805480602002602001604051908101604052809291908181526020018280548015610cb957602002820191906000526020600020905b81546001600160a01b03168152600190910190602001808311610c9b575b50505050508261114c565b1515600003610d1957600480546001810182556000919091527f8a35acfbc15ff81a39ae7d344fd709f28e8600b4aa8c65c6b64bfe7fe36bd19b0180546001600160a01b0319166001600160a01b0383161790555b828281518110610d2b57610d2b615722565b602002602001015160036000836001600160a01b03166001600160a01b0316815260200190815260200160002060006101000a8154816001600160a01b0302191690836001600160a01b03160217905550838281518110610d8e57610d8e615722565b6020908102919091018101516001600160a01b039283166000908152600f8352604080822080546001600160a01b0319169590931694909417909155600790915220805460ff1916600190811790915501610c39565b50505050565b6014546040805180820190915260018152601960f91b6020820152906001600160a01b03163314610e2e5760405162461bcd60e51b8152600401610c2c91906156d3565b5060158054911515600160a01b027fffffffffffffffffffffff00ffffffffffffffffffffffffffffffffffffffff909216919091179055565b60088181548110610e7857600080fd5b6000918252602090912001546001600160a01b0316905081565b600081815260066020526040808220548151635d3e2fa160e01b815291516001600160a01b039091169183918391635d3e2fa1916004808301926101209291908290030181865afa158015610eeb573d6000803e3d6000fd5b505050506040513d601f19601f82011682018060405250810190610f0f919061574e565b60c08101516001600160a01b0390811660009081526003602052604080822054905163a52f38d160e01b815260048101899052939450909291169063a52f38d190602401602060405180830381865afa158015610f70573d6000803e3d6000fd5b505050506040513d601f19601f82011682018060405250810190610f9491906157f6565b604051632696439560e11b815260048101829052600060248201529091506001600160a01b03841690634d2c872a90604401602060405180830381865afa158015610fe3573d6000803e3d6000fd5b505050506040513d601f19601f8201168201806040525081019061100791906157f6565b95945050505050565b600061101d826000613816565b612710846001600160a01b031663313ce5676040518163ffffffff1660e01b8152600401602060405180830381865afa15801561105e573d6000803e3d6000fd5b505050506040513d601f19601f82011682018060405250810190611082919061580f565b61108d90600a61592c565b611098866001613816565b600c54866001600160a01b031663313ce5676040518163ffffffff1660e01b8152600401602060405180830381865afa1580156110d9573d6000803e3d6000fd5b505050506040513d601f19601f820116820180604052508101906110fd919061580f565b61110890600a61592c565b611112908a61593b565b61111c919061593b565b611126919061593b565b6111309190615952565b61113a9190615952565b6111449190615952565b949350505050565b600080805b845181101561119d57836001600160a01b031685828151811061117657611176615722565b60200260200101516001600160a01b031603611195576001915061119d565b600101611151565b5090505b92915050565b600082815260066020526040808220548151635d3e2fa160e01b815291516001600160a01b039091169183918391635d3e2fa1916004808301926101209291908290030181865afa158015611200573d6000803e3d6000fd5b505050506040513d601f19601f82011682018060405250810190611224919061574e565b60c08101516001600160a01b0390811660009081526003602052604080822054905163a52f38d160e01b8152600481018a9052939450909291169063a52f38d190602401602060405180830381865afa158015611285573d6000803e3d6000fd5b505050506040513d601f19601f820116820180604052508101906112a991906157f6565b604051632696439560e11b815260048101829052602481018790529091506001600160a01b03841690634d2c872a906044015b602060405180830381865afa1580156112f9573d6000803e3d6000fd5b505050506040513d601f19601f8201168201806040525081019061131d91906157f6565b9695505050505050565b336000908152600160208181526040928390205483518085019094526002845261062760f31b9184019190915260ff161515146113775760405162461bcd60e51b8152600401610c2c91906156d3565b50600a80546001600160a01b0319166001600160a01b0392909216919091179055565b336000908152600160208181526040928390205483518085019094526002845261062760f31b9184019190915260ff161515146113ea5760405162461bcd60e51b8152600401610c2c91906156d3565b5080156114bc57611455600480548060200260200160405190810160405280929190818152602001828054801561144a57602002820191906000526020600020905b81546001600160a01b0316815260019091019060200180831161142c575b50505050508461114c565b604080518082019091526001808252603560f81b602083015290911515146114905760405162461bcd60e51b8152600401610c2c91906156d3565b506001600160a01b0383166000908152600960205260409020805483151560ff19909116179055505050565b61151e600880548060200260200160405190810160405280929190818152602001828054801561144a576020028201919060005260206000209081546001600160a01b0316815260019091019060200180831161142c5750505050508461114c565b604080518082019091526001808252603560f81b602083015290911515146115595760405162461bcd60e51b8152600401610c2c91906156d3565b506001600160a01b0383166000908152600760205260409020805460ff19168315151790555b505050565b601554604080518082019091526002815261323160f01b602082015290600160a01b900460ff16156115c95760405162461bcd60e51b8152600401610c2c91906156d3565b50600081815260066020526040808220548151635d3e2fa160e01b815291516001600160a01b0390911692918391635d3e2fa191600480820192610120929091908290030181865afa158015611623573d6000803e3d6000fd5b505050506040513d601f19601f82011682018060405250810190611647919061574e565b60c08101516001600160a01b0390811660009081526003602052604080822054905163a52f38d160e01b815260048101889052939450909291169063a52f38d190602401602060405180830381865afa1580156116a8573d6000803e3d6000fd5b505050506040513d601f19601f820116820180604052508101906116cc91906157f6565b90506000836001600160a01b031663d296d1f1836017546018546019546116f39190615974565b6116fd9190615974565b6040516001600160e01b031960e085901b168152600481019290925260248201526044016020604051808303816000875af1158015611740573d6000803e3d6000fd5b505050506040513d601f19601f8201168201806040525081019061176491906157f6565b90508260c001516001600160a01b03166323b872dd85306127106017546018546019546127106117949190615974565b61179e9190615974565b6117a89190615974565b6117b2908861593b565b6117bc9190615952565b6040516001600160e01b031960e086901b1681526001600160a01b03938416600482015292909116602483015260448201526064016020604051808303816000875af1158015611810573d6000803e3d6000fd5b505050506040513d601f19601f820116820180604052508101906118349190615987565b5060c08301516001600160a01b039081166000818152600360205260409081902054905163095ea7b360e01b815292166004830152602482018490529063095ea7b3906044016020604051808303816000875af1158015611899573d6000803e3d6000fd5b505050506040513d601f19601f820116820180604052508101906118bd9190615987565b5060c08301516001600160a01b039081166000908152600360205260409081902054905163d8aed14560e01b8152600481018890526024810185905291169063d8aed14590604401600060405180830381600087803b15801561191f57600080fd5b505af1158015611933573d6000803e3d6000fd5b505050508260c001516001600160a01b031663a9059cbb601360009054906101000a90046001600160a01b031661271060175486611971919061593b565b61197b9190615952565b6040516001600160e01b031960e085901b1681526001600160a01b03909216600483015260248201526044016020604051808303816000875af11580156119c6573d6000803e3d6000fd5b505050506040513d601f19601f820116820180604052508101906119ea9190615987565b5060c08301516012546018546001600160a01b039283169263a9059cbb92169061271090611a18908761593b565b611a229190615952565b6040516001600160e01b031960e085901b1681526001600160a01b03909216600483015260248201526044016020604051808303816000875af1158015611a6d573d6000803e3d6000fd5b505050506040513d601f19601f82011682018060405250810190611a919190615987565b50600061271060185484611aa5919061593b565b611aaf9190615952565b61271060175485611ac0919061593b565b611aca9190615952565b84612710601754601854601954612710611ae49190615974565b611aee9190615974565b611af89190615974565b611b02908861593b565b611b0c9190615952565b611b1691906159a4565b611b2091906159a4565b611b2a91906159a4565b60c08501516001600160a01b039081166000818152600360205260409081902054905163095ea7b360e01b8152921660048301526024820183905291925063095ea7b3906044016020604051808303816000875af1158015611b90573d6000803e3d6000fd5b505050506040513d601f19601f82011682018060405250810190611bb49190615987565b5060c08401516001600160a01b03908116600090815260036020526040908190205490517f7f3940310000000000000000000000000000000000000000000000000000000081526004810189905260248101849052911690637f39403190604401600060405180830381600087803b158015611c2f57600080fd5b505af1158015611c43573d6000803e3d6000fd5b5050505060c08401516001600160a01b03908116600090815260036020526040908190205490517f9b78dbfc00000000000000000000000000000000000000000000000000000000815260048101859052911690639b78dbfc90602401600060405180830381600087803b158015611cba57600080fd5b505af1158015611cce573d6000803e3d6000fd5b505050600087815260066020908152604080832054815163232fa73360e01b815291516001600160a01b03909116945063232fa733936004808401949383900301908290875af1158015611d26573d6000803e3d6000fd5b505050506040513d601f19601f82011682018060405250810190611d4a91906157f6565b506040805187815242602082015233917f3c4b1d42b9c7fa283f6fe657533f6a5a8a7ad1d36f9ef1d9d89ad04485e10d2c910160405180910390a2505050505050565b336000908152600160208181526040928390205483518085019094526002845261062760f31b9184019190915260ff16151514611ddd5760405162461bcd60e51b8152600401610c2c91906156d3565b50600580546001600160a01b0319166001600160a01b0392909216919091179055565b336000908152600160208181526040928390205483518085019094526002845261062760f31b9184019190915260ff16151514611e505760405162461bcd60e51b8152600401610c2c91906156d3565b50601580546001600160a01b0319166001600160a01b0392909216919091179055565b601554604080518082019091526002815261323160f01b602082015290600160a01b900460ff1615611eb85760405162461bcd60e51b8152600401610c2c91906156d3565b50600082815260066020526040808220548151635d3e2fa160e01b815291516001600160a01b0390911692918391635d3e2fa191600480820192610120929091908290030181865afa158015611f12573d6000803e3d6000fd5b505050506040513d601f19601f82011682018060405250810190611f36919061574e565b60808101516040516308165c1760e11b81526001600160a01b039182166004820152851515602482015291925083169063102cb82e90604401600060405180830381600087803b158015611f8957600080fd5b505af1158015611f9d573d6000803e3d6000fd5b505060408051878152861515602082015242918101919091523392507f8d1d302d01bababc9c00da7a7d2adabd6e02f4ccdb4855101e617c2ef159db0c91506060015b60405180910390a250505050565b336000908152600160208181526040928390205483518085019094526002845261062760f31b9184019190915260ff1615151461203e5760405162461bcd60e51b8152600401610c2c91906156d3565b50601d805460ff1916911515919091179055565b7ff0c57e16840df040f15088dc2f81fe391c3923bec73e23a9662efc9c229c6a00805468010000000000000000810460ff16159067ffffffffffffffff1660008115801561209d5750825b905060008267ffffffffffffffff1660011480156120ba5750303b155b9050811580156120c8575080155b156120ff576040517ff92ee8a900000000000000000000000000000000000000000000000000000000815260040160405180910390fd5b845467ffffffffffffffff19166001178555831561213357845468ff00000000000000001916680100000000000000001785555b8e60049080519060200190612149929190614e6a565b50600160025560005b6004548110156122575760006004828154811061217157612171615722565b6000918252602090912001548f516001600160a01b0390911691508f908390811061219e5761219e615722565b602002602001015160036000836001600160a01b03166001600160a01b0316815260200190815260200160002060006101000a8154816001600160a01b0302191690836001600160a01b031602179055508f828151811061220157612201615722565b6020908102919091018101516001600160a01b039283166000908152600f8352604080822080546001600160a01b0319169590931694909417909155600790915220805460ff1916600190811790915501612152565b508b5161226b9060089060208f0190614e6a565b5060005b6008548110156123745760006008828154811061228e5761228e615722565b6000918252602090912001548d516001600160a01b0390911691508d90839081106122bb576122bb615722565b6020026020010151600e6000836001600160a01b03166001600160a01b0316815260200190815260200160002060006101000a8154816001600160a01b0302191690836001600160a01b031602179055508b828151811061231e5761231e615722565b6020908102919091018101516001600160a01b039283166000908152600b8352604080822080546001600160a01b0319169590931694909417909155600990915220805460ff191660019081179091550161226f565b50600a80546001600160a01b03199081166001600160a01b038c81169190911790925560058054821692891692909217909155600c899055600d88905560148054339216821790556000908152600160208190526040909120805460ff19169091179055831561242357845468ff000000000000000019168555604051600181527fc7f505b2f371ae2175ee4913f4499e1f2633a7b5936321eed1cdaeb6115181d29060200160405180910390a15b505050505050505050505050505050565b336000908152600160208181526040928390205483518085019094526002845261062760f31b9184019190915260ff161515146124845760405162461bcd60e51b8152600401610c2c91906156d3565b5060005b8351811015610de45760008482815181106124a5576124a5615722565b602002602001015190506125116008805480602002602001604051908101604052809291908181526020018280548015610cb9576020028201919060005260206000209081546001600160a01b03168152600190910190602001808311610c9b5750505050508261114c565b151560000361256657600880546001810182556000919091527ff3f7a9fe364faab93b216da50a3214154f22a0a2b415b23a84c8169e8b636ee30180546001600160a01b0319166001600160a01b0383161790555b83828151811061257857612578615722565b6020026020010151600e6000836001600160a01b03166001600160a01b0316815260200190815260200160002060006101000a8154816001600160a01b0302191690836001600160a01b031602179055508282815181106125db576125db615722565b6020908102919091018101516001600160a01b039283166000908152600b8352604080822080546001600160a01b0319169590931694909417909155600990915220805460ff1916600190811790915501612488565b6001600160a01b03811660009081526016602090815260409182902080548351818402810184019094528084526060939283018282801561269157602002820191906000526020600020905b81548152602001906001019080831161267d575b50505050509050919050565b336000908152600160208181526040928390205483518085019094526002845261062760f31b9184019190915260ff161515146126ed5760405162461bcd60e51b8152600401610c2c91906156d3565b50601c55601b91909155601a55565b6001600160a01b0381166000908152600760209081526040918290205482518084019093526001808452603360f81b9284019290925283929160ff90911615151461275a5760405162461bcd60e51b8152600401610c2c91906156d3565b50601554604080518082019091526002815261323160f01b602082015290600160a01b900460ff16156127a05760405162461bcd60e51b8152600401610c2c91906156d3565b506001600160a01b038281166000908152600360205260409081902054905163a52f38d160e01b8152600481018790528592919091169063a52f38d190602401602060405180830381865afa1580156127fd573d6000803e3d6000fd5b505050506040513d601f19601f8201168201806040525081019061282191906157f6565b8411156128a7576001600160a01b038381166000908152600360205260409081902054905163a52f38d160e01b81526004810188905291169063a52f38d190602401602060405180830381865afa158015612880573d6000803e3d6000fd5b505050506040513d601f19601f820116820180604052508101906128a491906157f6565b90505b6040516323b872dd60e01b8152336004820152306024820152604481018290526001600160a01b038416906323b872dd906064016020604051808303816000875af11580156128fa573d6000803e3d6000fd5b505050506040513d601f19601f8201168201806040525081019061291e9190615987565b506001600160a01b038381166000818152600360205260409081902054905163095ea7b360e01b815292166004830152602482018390529063095ea7b3906044016020604051808303816000875af115801561297e573d6000803e3d6000fd5b505050506040513d601f19601f820116820180604052508101906129a29190615987565b506001600160a01b038381166000908152600360205260409081902054905163d8aed14560e01b8152600481018890526024810184905291169063d8aed14590604401600060405180830381600087803b1580156129ff57600080fd5b505af1158015612a13573d6000803e3d6000fd5b505050506001600160a01b038381166000908152600360205260409081902054905163a52f38d160e01b81526004810188905291169063a52f38d190602401602060405180830381865afa158015612a6f573d6000803e3d6000fd5b505050506040513d601f19601f82011682018060405250810190612a9391906157f6565b600003612b1457600085815260066020908152604080832054815163232fa73360e01b815291516001600160a01b039091169263232fa7339260048082019391829003018187875af1158015612aed573d6000803e3d6000fd5b505050506040513d601f19601f82011682018060405250810190612b1191906157f6565b50505b60408051868152602081018390526001600160a01b0385169181019190915242606082015233907f516b9ee1e9b8b43ca5f4a91397869e2190ccd60972b6ec439739892922434cb0906080015b60405180910390a25050505050565b336000908152600160208181526040928390205483518085019094526002845261062760f31b9184019190915260ff16151514612bc05760405162461bcd60e51b8152600401610c2c91906156d3565b50601554604080518082019091526002815261323160f01b602082015290600160a01b900460ff1615612c065760405162461bcd60e51b8152600401610c2c91906156d3565b50600081815260066020526040808220548151635d3e2fa160e01b815291516001600160a01b0390911692918391635d3e2fa191600480820192610120929091908290030181865afa158015612c60573d6000803e3d6000fd5b505050506040513d601f19601f82011682018060405250810190612c84919061574e565b61010081015160408051808201909152600281527f313900000000000000000000000000000000000000000000000000000000000060208201529192501515600114612ce35760405162461bcd60e51b8152600401610c2c91906156d3565b506001600160a01b038481166000908152600360205260409081902054905163ec7be39d60e01b81523360048201526024810186905291169063ec7be39d906044015b600060405180830381600087803b158015612d4057600080fd5b505af1158015612d54573d6000803e3d6000fd5b50505050816001600160a01b031663fab320e96040518163ffffffff1660e01b8152600401600060405180830381600087803b158015612d9357600080fd5b505af1158015612da7573d6000803e3d6000fd5b5050604080518681526001600160a01b038816602082015242918101919091523392507f926902dafb3e2e10ccc80a644aed5f39170af68180261fbcde7c04fa328c9c419150606001611fe0565b6001600160a01b0385166000908152600760209081526040918290205482518084019093526001808452603360f81b9284019290925287929160ff909116151514612e535760405162461bcd60e51b8152600401610c2c91906156d3565b506001600160a01b0384166000908152600960209081526040918290205482518084019093526001808452600d60fa1b9284019290925286929160ff909116151514612eb25760405162461bcd60e51b8152600401610c2c91906156d3565b50601554604080518082019091526002815261323160f01b602082015290600160a01b900460ff1615612ef85760405162461bcd60e51b8152600401610c2c91906156d3565b50866001600160a01b031663313ce5676040518163ffffffff1660e01b8152600401602060405180830381865afa158015612f37573d6000803e3d6000fd5b505050506040513d601f19601f82011682018060405250810190612f5b919061580f565b612f6690600a61592c565b612f71886001613816565b612f7b908a61593b565b612f879061271061593b565b612f919190615952565b856001600160a01b031663313ce5676040518163ffffffff1660e01b8152600401602060405180830381865afa158015612fcf573d6000803e3d6000fd5b505050506040513d601f19601f82011682018060405250810190612ff3919061580f565b612ffe90600a61592c565b600c5461300c886000613816565b613016908a61593b565b613020919061593b565b61302a9190615952565b1015604051806040016040528060018152602001603760f81b815250906130645760405162461bcd60e51b8152600401610c2c91906156d3565b506001600160a01b03808816600090815260036020908152604091829020548251633b24cc2160e01b815292518c949190911692633b24cc219260048083019391928290030181865afa1580156130bf573d6000803e3d6000fd5b505050506040513d601f19601f820116820180604052508101906130e391906157f6565b1015604051806040016040528060018152602001600760fb1b8152509061311d5760405162461bcd60e51b8152600401610c2c91906156d3565b506040805161012081018252600060208083018290526060830182905260a0830182905260e0830182905233608084018181528486018e815260025486526001600160a01b038e811660c088018190528b151561010089019081529087526003909552948790205486519151925194519751633870862b60e01b81526004810192909252602482019290925292841660448401529415156064830152929390911690633870862b90608401600060405180830381600087803b1580156131e257600080fd5b505af11580156131f6573d6000803e3d6000fd5b5050506001600160a01b03808b166000908152600f602052604081205460055490831693508a926132279116614ddf565b90506000819050806001600160a01b031663a2c7fd158785600a60009054906101000a90046001600160a01b0316600b6000896001600160a01b03166001600160a01b0316815260200190815260200160002060009054906101000a90046001600160a01b0316600c54600d54600e60008c6001600160a01b03166001600160a01b0316815260200190815260200160002060009054906101000a90046001600160a01b03168c601360009054906101000a90046001600160a01b0316601560009054906101000a90046001600160a01b03166040518b63ffffffff1660e01b815260040161331f9a999897969594939291906159b7565b600060405180830381600087803b15801561333957600080fd5b505af115801561334d573d6000803e3d6000fd5b5050604051638ac1b77560e01b81523060048201526001600160a01b0384169250638ac1b7759150602401600060405180830381600087803b15801561339257600080fd5b505af11580156133a6573d6000803e3d6000fd5b5050601054601154604051630dc40e2d60e41b81526001600160a01b0392831660048201529082166024820152908416925063dc40e2d09150604401600060405180830381600087803b1580156133fc57600080fd5b505af1158015613410573d6000803e3d6000fd5b5050601b54601a54601c5460405163365855af60e11b81526004810193909352602483019190915260448201526001600160a01b0384169250636cb0ab5e9150606401600060405180830381600087803b15801561346d57600080fd5b505af1158015613481573d6000803e3d6000fd5b5050604051633390ef1360e11b8152600481018f90526001600160a01b0384169250636721de269150602401600060405180830381600087803b1580156134c757600080fd5b505af11580156134db573d6000803e3d6000fd5b505050508a6001600160a01b03166323b872dd33848f6040518463ffffffff1660e01b815260040161352e939291906001600160a01b039384168152919092166020820152604081019190915260600190565b6020604051808303816000875af115801561354d573d6000803e3d6000fd5b505050506040513d601f19601f820116820180604052508101906135719190615987565b508915156001036135d057806001600160a01b03166307a6bf696040518163ffffffff1660e01b8152600401600060405180830381600087803b1580156135b757600080fd5b505af11580156135cb573d6000803e3d6000fd5b505050505b8060066000600254815260200190815260200160002060006101000a8154816001600160a01b0302191690836001600160a01b0316021790555060166000336001600160a01b03166001600160a01b031681526020019081526020016000206002549080600181540180825580915050600190039060005260206000200160009091909190915055336001600160a01b03167f5727112172b6092c7288ef1d857adc455935319c0870d1ace4c13383215e53dc8f8f8f8f8f6000600254426040516136e49897969594939291909788526001600160a01b03968716602089015260408801959095529290941660608601521515608085015291151560a084015260c083019190915260e08201526101000190565b60405180910390a2600280549060006136fc83615aae565b91905055505050505050505050505050505050565b6014546040805180820190915260018152601960f91b6020820152906001600160a01b031633146137555760405162461bcd60e51b8152600401610c2c91906156d3565b50600082815260066020526040908190205490516308165c1760e11b815233600482015282151560248201526001600160a01b0390911690819063102cb82e90604401600060405180830381600087803b1580156137b257600080fd5b505af11580156137c6573d6000803e3d6000fd5b505060408051868152851515602082015242918101919091523392507f8d1d302d01bababc9c00da7a7d2adabd6e02f4ccdb4855101e617c2ef159db0c91506060015b60405180910390a2505050565b600081151581036138b7576001600160a01b038084166000908152600e6020526040808220548151633fabe5a360e21b8152915192938493849384938493169163feaf968c9160048082019260a0929091908290030181865afa158015613881573d6000803e3d6000fd5b505050506040513d601f19601f820116820180604052508101906138a59190615ae1565b509198506111a1975050505050505050565b6001600160a01b038084166000908152600f6020526040808220548151633fabe5a360e21b8152915192938493849384938493169163feaf968c9160048082019260a0929091908290030181865afa158015613881573d6000803e3d6000fd5b6001600160a01b0384166000908152600760209081526040918290205482518084019093526001808452603360f81b9284019290925286929160ff9091161515146139755760405162461bcd60e51b8152600401610c2c91906156d3565b50601d54604080518082019091526002815261032360f41b60208201529060ff1615156001146139b85760405162461bcd60e51b8152600401610c2c91906156d3565b50601554604080518082019091526002815261323160f01b602082015290600160a01b900460ff16156139fe5760405162461bcd60e51b8152600401610c2c91906156d3565b506040805180820190915260018152601b60f91b602082015234851115613a385760405162461bcd60e51b8152600401610c2c91906156d3565b50601560009054906101000a90046001600160a01b03166001600160a01b031663d0e30db0856040518263ffffffff1660e01b81526004016000604051808303818588803b158015613a8957600080fd5b505af1158015613a9d573d6000803e3d6000fd5b5050505050846001600160a01b031663313ce5676040518163ffffffff1660e01b8152600401602060405180830381865afa158015613ae0573d6000803e3d6000fd5b505050506040513d601f19601f82011682018060405250810190613b04919061580f565b613b0f90600a61592c565b613b1a866001613816565b613b24908861593b565b613b309061271061593b565b613b3a9190615952565b601560009054906101000a90046001600160a01b03166001600160a01b031663313ce5676040518163ffffffff1660e01b8152600401602060405180830381865afa158015613b8d573d6000803e3d6000fd5b505050506040513d601f19601f82011682018060405250810190613bb1919061580f565b613bbc90600a61592c565b600c54601554613bd6906001600160a01b03166000613816565b613be0908861593b565b613bea919061593b565b613bf49190615952565b1015604051806040016040528060018152602001603760f81b81525090613c2e5760405162461bcd60e51b8152600401610c2c91906156d3565b506001600160a01b03808616600090815260036020908152604091829020548251633b24cc2160e01b815292518a949190911692633b24cc219260048083019391928290030181865afa158015613c89573d6000803e3d6000fd5b505050506040513d601f19601f82011682018060405250810190613cad91906157f6565b1015604051806040016040528060018152602001600760fb1b81525090613ce75760405162461bcd60e51b8152600401610c2c91906156d3565b506040805161012081018252600060208083018290526060830182905260a0830182905260e0830182905233608084018181528486018c815260025486526001600160a01b038c811660c088018190528a151561010089019081529087526003909552948790205486519151925194519751633870862b60e01b81526004810192909252602482019290925292841660448401529415156064830152929390911690633870862b90608401600060405180830381600087803b158015613dac57600080fd5b505af1158015613dc0573d6000803e3d6000fd5b5050506001600160a01b038089166000908152600f60205260408120546015546005549184169450831692613df59116614ddf565b90506000819050806001600160a01b031663a2c7fd158785600a60009054906101000a90046001600160a01b0316600b6000896001600160a01b03166001600160a01b0316815260200190815260200160002060009054906101000a90046001600160a01b0316600c54600d54600e60008c6001600160a01b03166001600160a01b0316815260200190815260200160002060009054906101000a90046001600160a01b03168c601360009054906101000a90046001600160a01b0316601560009054906101000a90046001600160a01b03166040518b63ffffffff1660e01b8152600401613eed9a999897969594939291906159b7565b600060405180830381600087803b158015613f0757600080fd5b505af1158015613f1b573d6000803e3d6000fd5b5050604051638ac1b77560e01b81523060048201526001600160a01b0384169250638ac1b7759150602401600060405180830381600087803b158015613f6057600080fd5b505af1158015613f74573d6000803e3d6000fd5b5050601054601154604051630dc40e2d60e41b81526001600160a01b0392831660048201529082166024820152908416925063dc40e2d09150604401600060405180830381600087803b158015613fca57600080fd5b505af1158015613fde573d6000803e3d6000fd5b5050601b54601a54601c5460405163365855af60e11b81526004810193909352602483019190915260448201526001600160a01b0384169250636cb0ab5e9150606401600060405180830381600087803b15801561403b57600080fd5b505af115801561404f573d6000803e3d6000fd5b5050604051633390ef1360e11b8152600481018d90526001600160a01b0384169250636721de269150602401600060405180830381600087803b15801561409557600080fd5b505af11580156140a9573d6000803e3d6000fd5b505060155460405163a9059cbb60e01b81526001600160a01b038681166004830152602482018f9052909116925063a9059cbb91506044016020604051808303816000875af1158015614100573d6000803e3d6000fd5b505050506040513d601f19601f820116820180604052508101906141249190615987565b5088151560010361418357806001600160a01b03166307a6bf696040518163ffffffff1660e01b8152600401600060405180830381600087803b15801561416a57600080fd5b505af115801561417e573d6000803e3d6000fd5b505050505b8060066000600254815260200190815260200160002060006101000a8154816001600160a01b0302191690836001600160a01b0316021790555060166000336001600160a01b03166001600160a01b031681526020019081526020016000206002549080600181540180825580915050600190039060005260206000200160009091909190915055336001600160a01b03167f5727112172b6092c7288ef1d857adc455935319c0870d1ace4c13383215e53dc8d8d8d601560009054906101000a90046001600160a01b03168e6001600254426040516142ac9897969594939291909788526001600160a01b03968716602089015260408801959095529290941660608601521515608085015291151560a084015260c083019190915260e08201526101000190565b60405180910390a2600280549060006142c483615aae565b9190505550505050505050505050505050565b336000908152600160208181526040928390205483518085019094526002845261062760f31b9184019190915260ff161515146143275760405162461bcd60e51b8152600401610c2c91906156d3565b50600c91909155600d55565b60048181548110610e7857600080fd5b601d54604080518082019091526002815261032360f41b60208201529060ff1615156001146143855760405162461bcd60e51b8152600401610c2c91906156d3565b50601554604080518082019091526002815261323160f01b602082015290600160a01b900460ff16156143cb5760405162461bcd60e51b8152600401610c2c91906156d3565b506040805180820190915260018152601b60f91b6020820152348211156144055760405162461bcd60e51b8152600401610c2c91906156d3565b50601560009054906101000a90046001600160a01b03166001600160a01b031663d0e30db0826040518263ffffffff1660e01b81526004016000604051808303818588803b15801561445657600080fd5b505af115801561446a573d6000803e3d6000fd5b50505060008481526006602052604090819020549051633390ef1360e11b8152600481018590526001600160a01b039091169250829150636721de2690602401600060405180830381600087803b1580156144c457600080fd5b505af11580156144d8573d6000803e3d6000fd5b505060155460405163a9059cbb60e01b81526001600160a01b03858116600483015260248201879052909116925063a9059cbb91506044016020604051808303816000875af115801561452f573d6000803e3d6000fd5b505050506040513d601f19601f820116820180604052508101906145539190615987565b50806001600160a01b0316631c783def6040518163ffffffff1660e01b8152600401602060405180830381865afa158015614592573d6000803e3d6000fd5b505050506040513d601f19601f820116820180604052508101906145b69190615987565b151560010361461357806001600160a01b03166307a6bf696040518163ffffffff1660e01b8152600401600060405180830381600087803b1580156145fa57600080fd5b505af115801561460e573d6000803e3d6000fd5b505050505b60155460408051858152602081018590526001600160a01b03909216908201526001606082015242608082015233907fa41307c7b4c963a200284b8ab310b85c69dc52a94c312708afc5944c278caaf79060a001613809565b6016602052816000526040600020818154811061468857600080fd5b90600052602060002001600091509150505481565b336000908152600160208181526040928390205483518085019094526002845261062760f31b9184019190915260ff161515146146ed5760405162461bcd60e51b8152600401610c2c91906156d3565b50601080546001600160a01b039384166001600160a01b03199182161790915560118054929093169116179055565b600082815260066020526040808220548151635d3e2fa160e01b815291516001600160a01b039091169183918391635d3e2fa1916004808301926101209291908290030181865afa158015614775573d6000803e3d6000fd5b505050506040513d601f19601f82011682018060405250810190614799919061574e565b60c08101516001600160a01b0390811660009081526003602052604080822054905163a52f38d160e01b8152600481018a9052939450909291169063a52f38d190602401602060405180830381865afa1580156147fa573d6000803e3d6000fd5b505050506040513d601f19601f8201168201806040525081019061481e91906157f6565b90506001600160a01b038316634d2c872a61483987846159a4565b6040516001600160e01b031960e084901b1681526004810191909152600060248201526044016112dc565b600081815260066020526040808220548151635d3e2fa160e01b815291516001600160a01b0390911692918391635d3e2fa191600480820192610120929091908290030181865afa1580156148bd573d6000803e3d6000fd5b505050506040513d601f19601f820116820180604052508101906148e1919061574e565b60808101519091506001600160a01b0316331480156149035750610100810151155b6040518060400160405280600181526020017f3900000000000000000000000000000000000000000000000000000000000000815250906149575760405162461bcd60e51b8152600401610c2c91906156d3565b506001600160a01b0384811660009081526003602052604090819020546080840151915163ec7be39d60e01b81529183166004830152602482018690529091169063ec7be39d90604401612d26565b6001600160a01b0381166000908152600960209081526040918290205482518084019093526001808452600d60fa1b9284019290925283929160ff909116151514614a045760405162461bcd60e51b8152600401610c2c91906156d3565b50601554604080518082019091526002815261323160f01b602082015290600160a01b900460ff1615614a4a5760405162461bcd60e51b8152600401610c2c91906156d3565b5060008481526006602052604090819020549051633390ef1360e11b8152600481018590526001600160a01b03909116908190636721de2690602401600060405180830381600087803b158015614aa057600080fd5b505af1158015614ab4573d6000803e3d6000fd5b50506040516323b872dd60e01b81523360048201526001600160a01b03848116602483015260448201889052861692506323b872dd91506064016020604051808303816000875af1158015614b0d573d6000803e3d6000fd5b505050506040513d601f19601f82011682018060405250810190614b319190615987565b50806001600160a01b0316631c783def6040518163ffffffff1660e01b8152600401602060405180830381865afa158015614b70573d6000803e3d6000fd5b505050506040513d601f19601f82011682018060405250810190614b949190615987565b1515600103614bf157806001600160a01b03166307a6bf696040518163ffffffff1660e01b8152600401600060405180830381600087803b158015614bd857600080fd5b505af1158015614bec573d6000803e3d6000fd5b505050505b60408051868152602081018690526001600160a01b038516918101919091526000606082015242608082015233907fa41307c7b4c963a200284b8ab310b85c69dc52a94c312708afc5944c278caaf79060a001612b61565b336000908152600160208181526040928390205483518085019094526002845261062760f31b9184019190915260ff16151514614c995760405162461bcd60e51b8152600401610c2c91906156d3565b50601955601855601755565b6014546040805180820190915260018152601960f91b6020820152906001600160a01b03163314614ce95760405162461bcd60e51b8152600401610c2c91906156d3565b5060005b825181101561157f57818181518110614d0857614d08615722565b602002602001015160016000858481518110614d2657614d26615722565b6020908102919091018101516001600160a01b03168252810191909152604001600020805460ff1916911515919091179055600101614ced565b336000908152600160208181526040928390205483518085019094526002845261062760f31b9184019190915260ff16151514614db05760405162461bcd60e51b8152600401610c2c91906156d3565b50601280546001600160a01b039384166001600160a01b03199182161790915560138054929093169116179055565b6000763d602d80600a3d3981f3363d3d373d3d3d363d730000008260601b60e81c176000526e5af43d82803e903d91602b57fd5bf38260781b17602052603760096000f090506001600160a01b038116614e65576040517fc2f868f400000000000000000000000000000000000000000000000000000000815260040160405180910390fd5b919050565b828054828255906000526020600020908101928215614ebf579160200282015b82811115614ebf57825182546001600160a01b0319166001600160a01b03909116178255602090920191600190910190614e8a565b50614ecb929150614ecf565b5090565b5b80821115614ecb5760008155600101614ed0565b634e487b7160e01b600052604160045260246000fd5b604051610120810167ffffffffffffffff81118282101715614f1e57614f1e614ee4565b60405290565b604051601f8201601f1916810167ffffffffffffffff81118282101715614f4d57614f4d614ee4565b604052919050565b600067ffffffffffffffff821115614f6f57614f6f614ee4565b5060051b60200190565b6001600160a01b0381168114614f8e57600080fd5b50565b600082601f830112614fa257600080fd5b81356020614fb7614fb283614f55565b614f24565b8083825260208201915060208460051b870101935086841115614fd957600080fd5b602086015b84811015614ffe578035614ff181614f79565b8352918301918301614fde565b509695505050505050565b600082601f83011261501a57600080fd5b8135602061502a614fb283614f55565b8083825260208201915060208460051b87010193508684111561504c57600080fd5b602086015b84811015614ffe57803561506481614f79565b8352918301918301615051565b60008060006060848603121561508657600080fd5b833567ffffffffffffffff8082111561509e57600080fd5b6150aa87838801614f91565b945060208601359150808211156150c057600080fd5b6150cc87838801615009565b935060408601359150808211156150e257600080fd5b506150ef86828701614f91565b9150509250925092565b60006020828403121561510b57600080fd5b813561511681614f79565b9392505050565b8015158114614f8e57600080fd5b60006020828403121561513d57600080fd5b81356151168161511d565b60006020828403121561515a57600080fd5b5035919050565b60008060006060848603121561517657600080fd5b83359250602084013561518881614f79565b9150604084013561519881614f79565b809150509250925092565b600080604083850312156151b657600080fd5b823567ffffffffffffffff8111156151cd57600080fd5b6151d985828601614f91565b92505060208301356151ea81614f79565b809150509250929050565b6000806040838503121561520857600080fd5b50508035926020909101359150565b8035614e6581614f79565b60008060006060848603121561523757600080fd5b833561524281614f79565b925060208401356152528161511d565b915060408401356151988161511d565b6000806040838503121561527557600080fd5b8235915060208301356151ea8161511d565b6000806000806000806000806000806101408b8d0312156152a757600080fd5b8a3567ffffffffffffffff808211156152bf57600080fd5b6152cb8e838f01614f91565b9b5060208d01359150808211156152e157600080fd5b6152ed8e838f01615009565b9a5060408d013591508082111561530357600080fd5b61530f8e838f01614f91565b995060608d013591508082111561532557600080fd5b6153318e838f01614f91565b985060808d013591508082111561534757600080fd5b6153538e838f01615009565b975060a08d013591508082111561536957600080fd5b506153768d828e01614f91565b95505061538560c08c01615217565b935060e08b013592506101008b013591506153a36101208c01615217565b90509295989b9194979a5092959850565b6020808252825182820181905260009190848201906040850190845b818110156153ec578351835292840192918401916001016153d0565b50909695505050505050565b60008060006060848603121561540d57600080fd5b505081359360208301359350604090920135919050565b60008060006060848603121561543957600080fd5b8335925060208401359150604084013561519881614f79565b6000806040838503121561546557600080fd5b823561547081614f79565b946020939093013593505050565b60008060008060008060c0878903121561549757600080fd5b8635955060208701356154a981614f79565b94506040870135935060608701356154c081614f79565b925060808701356154d08161511d565b915060a08701356154e08161511d565b809150509295509295509295565b6000806040838503121561550157600080fd5b823561550c81614f79565b915060208301356151ea8161511d565b600080600080600060a0868803121561553457600080fd5b85359450602086013561554681614f79565b935060408601359250606086013561555d8161511d565b9150608086013561556d8161511d565b809150509295509295909350565b6000806040838503121561558e57600080fd5b823561559981614f79565b915060208301356151ea81614f79565b600082601f8301126155ba57600080fd5b813560206155ca614fb283614f55565b8083825260208201915060208460051b8701019350868411156155ec57600080fd5b602086015b84811015614ffe5780356156048161511d565b83529183019183016155f1565b6000806040838503121561562457600080fd5b823567ffffffffffffffff8082111561563c57600080fd5b818501915085601f83011261565057600080fd5b81356020615660614fb283614f55565b82815260059290921b8401810191818101908984111561567f57600080fd5b948201945b838610156156a657853561569781614f79565b82529482019490820190615684565b965050860135925050808211156156bc57600080fd5b506156c9858286016155a9565b9150509250929050565b60006020808352835180602085015260005b81811015615701578581018301518582016040015282016156e5565b506000604082860101526040601f19601f8301168501019250505092915050565b634e487b7160e01b600052603260045260246000fd5b8051614e658161511d565b8051614e6581614f79565b6000610120828403121561576157600080fd5b615769614efa565b8251815261577960208401615738565b60208201526040830151604082015261579460608401615738565b60608201526157a560808401615743565b60808201526157b660a08401615738565b60a08201526157c760c08401615743565b60c08201526157d860e08401615738565b60e08201526101006157eb818501615738565b908201529392505050565b60006020828403121561580857600080fd5b5051919050565b60006020828403121561582157600080fd5b815160ff8116811461511657600080fd5b634e487b7160e01b600052601160045260246000fd5b600181815b8085111561588357816000190482111561586957615869615832565b8085161561587657918102915b93841c939080029061584d565b509250929050565b60008261589a575060016111a1565b816158a7575060006111a1565b81600181146158bd57600281146158c7576158e3565b60019150506111a1565b60ff8411156158d8576158d8615832565b50506001821b6111a1565b5060208310610133831016604e8410600b8410161715615906575081810a6111a1565b6159108383615848565b806000190482111561592457615924615832565b029392505050565b600061511660ff84168361588b565b80820281158282048414176111a1576111a1615832565b60008261596f57634e487b7160e01b600052601260045260246000fd5b500490565b808201808211156111a1576111a1615832565b60006020828403121561599957600080fd5b81516151168161511d565b818103818111156111a1576111a1615832565b6000610240820190508b51825260208c01511515602083015260408c0151604083015260608c01511515606083015260808c0151615a0060808401826001600160a01b03169052565b5060a08c0151615a1460a084018215159052565b5060c08c0151615a2f60c08401826001600160a01b03169052565b5060e08c0151615a4360e084018215159052565b506101009b8c015115159b82019b909b526001600160a01b03998a166101208201529789166101408901529588166101608801526101808701949094526101a086019290925285166101c085015284166101e084015283166102008301529091166102209091015290565b600060018201615ac057615ac0615832565b5060010190565b805169ffffffffffffffffffff81168114614e6557600080fd5b600080600080600060a08688031215615af957600080fd5b615b0286615ac7565b9450602086015193506040860151925060608601519150615b2560808701615ac7565b9050929550929590935056fea2646970667358221220fde11b1062cbf5dc2d7d3eecb04a7ebc9200357586813da42f697d899bf3b49764736f6c63430008180033",
  "linkReferences": {},
  "deployedLinkReferences": {}
}