{
  "_format": "hh-sol-artifact-1",
  "contractName": "CCFLLoan",
  "sourceName": "contracts/CCFLLoan.sol",
  "abi": [
    {
      "inputs": [],
      "stateMutability": "nonpayable",
      "type": "constructor"
    },
    {
      "inputs": [],
      "name": "InvalidInitialization",
      "type": "error"
    },
    {
      "inputs": [],
      "name": "NotInitializing",
      "type": "error"
    },
    {
      "anonymous": false,
      "inputs": [
        {
          "indexed": false,
          "internalType": "uint64",
          "name": "version",
          "type": "uint64"
        }
      ],
      "name": "Initialized",
      "type": "event"
    },
    {
      "anonymous": false,
      "inputs": [
        {
          "indexed": true,
          "internalType": "address",
          "name": "onBehalfOf",
          "type": "address"
        },
        {
          "indexed": true,
          "internalType": "address",
          "name": "_token",
          "type": "address"
        },
        {
          "indexed": false,
          "internalType": "uint256",
          "name": "_amount",
          "type": "uint256"
        }
      ],
      "name": "LiquiditySupplied",
      "type": "event"
    },
    {
      "anonymous": false,
      "inputs": [
        {
          "indexed": true,
          "internalType": "address",
          "name": "to",
          "type": "address"
        },
        {
          "indexed": true,
          "internalType": "address",
          "name": "_token",
          "type": "address"
        },
        {
          "indexed": false,
          "internalType": "uint256",
          "name": "_amount",
          "type": "uint256"
        }
      ],
      "name": "LiquidityWithdrawn",
      "type": "event"
    },
    {
      "inputs": [
        {
          "internalType": "uint256",
          "name": "_currentDebt",
          "type": "uint256"
        },
        {
          "internalType": "uint256",
          "name": "_amountOut",
          "type": "uint256"
        }
      ],
      "name": "calculateLiquidation",
      "outputs": [
        {
          "internalType": "uint256",
          "name": "",
          "type": "uint256"
        },
        {
          "internalType": "uint256",
          "name": "",
          "type": "uint256"
        },
        {
          "internalType": "uint256",
          "name": "",
          "type": "uint256"
        },
        {
          "internalType": "uint256",
          "name": "",
          "type": "uint256"
        }
      ],
      "stateMutability": "view",
      "type": "function"
    },
    {
      "inputs": [
        {
          "internalType": "uint256",
          "name": "_currentDebt",
          "type": "uint256"
        }
      ],
      "name": "calculateSwap",
      "outputs": [
        {
          "internalType": "uint256",
          "name": "",
          "type": "uint256"
        },
        {
          "internalType": "uint256",
          "name": "",
          "type": "uint256"
        }
      ],
      "stateMutability": "nonpayable",
      "type": "function"
    },
    {
      "inputs": [],
      "name": "ccfl",
      "outputs": [
        {
          "internalType": "address",
          "name": "",
          "type": "address"
        }
      ],
      "stateMutability": "view",
      "type": "function"
    },
    {
      "inputs": [],
      "name": "closeLoan",
      "outputs": [
        {
          "internalType": "uint256",
          "name": "",
          "type": "uint256"
        },
        {
          "internalType": "uint256",
          "name": "",
          "type": "uint256"
        }
      ],
      "stateMutability": "nonpayable",
      "type": "function"
    },
    {
      "inputs": [],
      "name": "collateralAmount",
      "outputs": [
        {
          "internalType": "uint256",
          "name": "",
          "type": "uint256"
        }
      ],
      "stateMutability": "view",
      "type": "function"
    },
    {
      "inputs": [],
      "name": "collateralToken",
      "outputs": [
        {
          "internalType": "contract IERC20Standard",
          "name": "",
          "type": "address"
        }
      ],
      "stateMutability": "view",
      "type": "function"
    },
    {
      "inputs": [],
      "name": "feeTier",
      "outputs": [
        {
          "internalType": "uint24",
          "name": "",
          "type": "uint24"
        }
      ],
      "stateMutability": "view",
      "type": "function"
    },
    {
      "inputs": [],
      "name": "getCollateralAmount",
      "outputs": [
        {
          "internalType": "uint256",
          "name": "",
          "type": "uint256"
        }
      ],
      "stateMutability": "view",
      "type": "function"
    },
    {
      "inputs": [],
      "name": "getCollateralToken",
      "outputs": [
        {
          "internalType": "contract IERC20Standard",
          "name": "",
          "type": "address"
        }
      ],
      "stateMutability": "view",
      "type": "function"
    },
    {
      "inputs": [
        {
          "internalType": "uint256",
          "name": "currentDebt",
          "type": "uint256"
        },
        {
          "internalType": "uint256",
          "name": "addCollateral",
          "type": "uint256"
        }
      ],
      "name": "getHealthFactor",
      "outputs": [
        {
          "internalType": "uint256",
          "name": "",
          "type": "uint256"
        }
      ],
      "stateMutability": "view",
      "type": "function"
    },
    {
      "inputs": [],
      "name": "getIsYeild",
      "outputs": [
        {
          "internalType": "bool",
          "name": "",
          "type": "bool"
        }
      ],
      "stateMutability": "view",
      "type": "function"
    },
    {
      "inputs": [],
      "name": "getLoanInfo",
      "outputs": [
        {
          "components": [
            {
              "internalType": "uint256",
              "name": "loanId",
              "type": "uint256"
            },
            {
              "internalType": "bool",
              "name": "isPaid",
              "type": "bool"
            },
            {
              "internalType": "uint256",
              "name": "amount",
              "type": "uint256"
            },
            {
              "internalType": "bool",
              "name": "isClosed",
              "type": "bool"
            },
            {
              "internalType": "address",
              "name": "borrower",
              "type": "address"
            },
            {
              "internalType": "bool",
              "name": "isLiquidated",
              "type": "bool"
            },
            {
              "internalType": "contract IERC20Standard",
              "name": "stableCoin",
              "type": "address"
            },
            {
              "internalType": "bool",
              "name": "isFinalty",
              "type": "bool"
            },
            {
              "internalType": "bool",
              "name": "isFiat",
              "type": "bool"
            },
            {
              "internalType": "uint256",
              "name": "closedAmount",
              "type": "uint256"
            }
          ],
          "internalType": "struct DataTypes.Loan",
          "name": "",
          "type": "tuple"
        }
      ],
      "stateMutability": "view",
      "type": "function"
    },
    {
      "inputs": [
        {
          "internalType": "address",
          "name": "user",
          "type": "address"
        }
      ],
      "name": "getUserAccountData",
      "outputs": [
        {
          "internalType": "uint256",
          "name": "totalCollateralBase",
          "type": "uint256"
        },
        {
          "internalType": "uint256",
          "name": "totalDebtBase",
          "type": "uint256"
        },
        {
          "internalType": "uint256",
          "name": "availableBorrowsBase",
          "type": "uint256"
        },
        {
          "internalType": "uint256",
          "name": "currentLiquidationThreshold",
          "type": "uint256"
        },
        {
          "internalType": "uint256",
          "name": "ltv",
          "type": "uint256"
        },
        {
          "internalType": "uint256",
          "name": "healthFactor",
          "type": "uint256"
        }
      ],
      "stateMutability": "view",
      "type": "function"
    },
    {
      "inputs": [
        {
          "internalType": "uint256",
          "name": "_earnBorrower",
          "type": "uint256"
        }
      ],
      "name": "getYieldEarned",
      "outputs": [
        {
          "internalType": "uint256",
          "name": "",
          "type": "uint256"
        }
      ],
      "stateMutability": "view",
      "type": "function"
    },
    {
      "inputs": [],
      "name": "iCCFLConfig",
      "outputs": [
        {
          "internalType": "contract ICCFLConfig",
          "name": "",
          "type": "address"
        }
      ],
      "stateMutability": "view",
      "type": "function"
    },
    {
      "inputs": [],
      "name": "initLoan",
      "outputs": [
        {
          "internalType": "uint256",
          "name": "loanId",
          "type": "uint256"
        },
        {
          "internalType": "bool",
          "name": "isPaid",
          "type": "bool"
        },
        {
          "internalType": "uint256",
          "name": "amount",
          "type": "uint256"
        },
        {
          "internalType": "bool",
          "name": "isClosed",
          "type": "bool"
        },
        {
          "internalType": "address",
          "name": "borrower",
          "type": "address"
        },
        {
          "internalType": "bool",
          "name": "isLiquidated",
          "type": "bool"
        },
        {
          "internalType": "contract IERC20Standard",
          "name": "stableCoin",
          "type": "address"
        },
        {
          "internalType": "bool",
          "name": "isFinalty",
          "type": "bool"
        },
        {
          "internalType": "bool",
          "name": "isFiat",
          "type": "bool"
        },
        {
          "internalType": "uint256",
          "name": "closedAmount",
          "type": "uint256"
        }
      ],
      "stateMutability": "view",
      "type": "function"
    },
    {
      "inputs": [
        {
          "components": [
            {
              "internalType": "uint256",
              "name": "loanId",
              "type": "uint256"
            },
            {
              "internalType": "bool",
              "name": "isPaid",
              "type": "bool"
            },
            {
              "internalType": "uint256",
              "name": "amount",
              "type": "uint256"
            },
            {
              "internalType": "bool",
              "name": "isClosed",
              "type": "bool"
            },
            {
              "internalType": "address",
              "name": "borrower",
              "type": "address"
            },
            {
              "internalType": "bool",
              "name": "isLiquidated",
              "type": "bool"
            },
            {
              "internalType": "contract IERC20Standard",
              "name": "stableCoin",
              "type": "address"
            },
            {
              "internalType": "bool",
              "name": "isFinalty",
              "type": "bool"
            },
            {
              "internalType": "bool",
              "name": "isFiat",
              "type": "bool"
            },
            {
              "internalType": "uint256",
              "name": "closedAmount",
              "type": "uint256"
            }
          ],
          "internalType": "struct DataTypes.Loan",
          "name": "_loan",
          "type": "tuple"
        },
        {
          "internalType": "contract IERC20Standard",
          "name": "_collateralToken",
          "type": "address"
        },
        {
          "internalType": "contract ICCFLConfig",
          "name": "_iCCFLConfig",
          "type": "address"
        }
      ],
      "name": "initialize",
      "outputs": [],
      "stateMutability": "nonpayable",
      "type": "function"
    },
    {
      "inputs": [],
      "name": "isStakeAave",
      "outputs": [
        {
          "internalType": "bool",
          "name": "",
          "type": "bool"
        }
      ],
      "stateMutability": "view",
      "type": "function"
    },
    {
      "inputs": [
        {
          "internalType": "uint256",
          "name": "_currentDebt",
          "type": "uint256"
        }
      ],
      "name": "liquidate",
      "outputs": [
        {
          "internalType": "uint256",
          "name": "",
          "type": "uint256"
        },
        {
          "internalType": "uint256",
          "name": "",
          "type": "uint256"
        },
        {
          "internalType": "uint256",
          "name": "",
          "type": "uint256"
        },
        {
          "internalType": "uint256",
          "name": "",
          "type": "uint256"
        }
      ],
      "stateMutability": "nonpayable",
      "type": "function"
    },
    {
      "inputs": [],
      "name": "owner",
      "outputs": [
        {
          "internalType": "address",
          "name": "",
          "type": "address"
        }
      ],
      "stateMutability": "view",
      "type": "function"
    },
    {
      "inputs": [],
      "name": "platform",
      "outputs": [
        {
          "internalType": "address",
          "name": "",
          "type": "address"
        }
      ],
      "stateMutability": "view",
      "type": "function"
    },
    {
      "inputs": [
        {
          "internalType": "address",
          "name": "_ccfl",
          "type": "address"
        }
      ],
      "name": "setCCFL",
      "outputs": [],
      "stateMutability": "nonpayable",
      "type": "function"
    },
    {
      "inputs": [],
      "name": "setPaid",
      "outputs": [],
      "stateMutability": "nonpayable",
      "type": "function"
    },
    {
      "inputs": [
        {
          "internalType": "uint24",
          "name": "_uniFee",
          "type": "uint24"
        }
      ],
      "name": "setUniFee",
      "outputs": [],
      "stateMutability": "nonpayable",
      "type": "function"
    },
    {
      "inputs": [],
      "name": "shareBorrower",
      "outputs": [
        {
          "internalType": "uint256",
          "name": "",
          "type": "uint256"
        }
      ],
      "stateMutability": "view",
      "type": "function"
    },
    {
      "inputs": [],
      "name": "shareLender",
      "outputs": [
        {
          "internalType": "uint256",
          "name": "",
          "type": "uint256"
        }
      ],
      "stateMutability": "view",
      "type": "function"
    },
    {
      "inputs": [],
      "name": "sharePlatform",
      "outputs": [
        {
          "internalType": "uint256",
          "name": "",
          "type": "uint256"
        }
      ],
      "stateMutability": "view",
      "type": "function"
    },
    {
      "inputs": [],
      "name": "supplyLiquidity",
      "outputs": [],
      "stateMutability": "nonpayable",
      "type": "function"
    },
    {
      "inputs": [
        {
          "internalType": "uint256",
          "name": "amount",
          "type": "uint256"
        }
      ],
      "name": "updateCollateral",
      "outputs": [],
      "stateMutability": "nonpayable",
      "type": "function"
    },
    {
      "inputs": [
        {
          "internalType": "address",
          "name": "_receiver",
          "type": "address"
        },
        {
          "internalType": "bool",
          "name": "_isETH",
          "type": "bool"
        }
      ],
      "name": "withdrawAllCollateral",
      "outputs": [],
      "stateMutability": "nonpayable",
      "type": "function"
    },
    {
      "inputs": [
        {
          "internalType": "uint256",
          "name": "_earnPlatform",
          "type": "uint256"
        },
        {
          "internalType": "uint256",
          "name": "_earnBorrower",
          "type": "uint256"
        },
        {
          "internalType": "uint256",
          "name": "_earnLender",
          "type": "uint256"
        }
      ],
      "name": "withdrawLiquidity",
      "outputs": [],
      "stateMutability": "nonpayable",
      "type": "function"
    },
    {
      "stateMutability": "payable",
      "type": "receive"
    }
  ],
  "bytecode": "0x60806040526000805462ffffff60a81b191661017760ab1b17905534801561002657600080fd5b5061382e806100366000396000f3fe6080604052600436106101dc5760003560e01c80635d3e2fa1116101025780638ac1b77511610095578063b15624f311610064578063b15624f314610703578063b2016bd414610723578063bf92857c14610743578063fab320e91461079057600080fd5b80638ac1b7751461068f5780638da5cb5b146106af57806392d09ceb146106cf57806396423663146106e557600080fd5b8063792f436f116100d1578063792f436f1461057e5780637ce67d6014610594578063805a288f1461064f578063894059c61461066f57600080fd5b80635d3e2fa1146104055780636721de261461050757806369fa97c01461052757806372f5d98a1461054757600080fd5b8063315deeaa1161017a5780634d2c872a116101495780634d2c872a146103855780635825f535146103a557806358559a34146103c557806358b275d7146103e557600080fd5b8063315deeaa146102d85780633666eefa146102ed578063415f12401461030d5780634bde38c81461034d57600080fd5b806311256603116101b657806311256603146102485780631c783def14610279578063232fa73314610298578063288cc89e146102c257600080fd5b806305b57c0b146101e857806307a6bf6914610211578063102cb82e1461022857600080fd5b366101e357005b600080fd5b3480156101f457600080fd5b506101fe600d5481565b6040519081526020015b60405180910390f35b34801561021d57600080fd5b506102266107a5565b005b34801561023457600080fd5b5061022661024336600461311d565b610af6565b34801561025457600080fd5b5060005461026990600160a01b900460ff1681565b6040519015158152602001610208565b34801561028557600080fd5b50600054600160a01b900460ff16610269565b3480156102a457600080fd5b506102ad610ec1565b60408051928352602083019190915201610208565b3480156102ce57600080fd5b506101fe600b5481565b3480156102e457600080fd5b506001546101fe565b3480156102f957600080fd5b506102ad610308366004613156565b6112e7565b34801561031957600080fd5b5061032d610328366004613156565b6114a0565b604080519485526020850193909352918301526060820152608001610208565b34801561035957600080fd5b50600a5461036d906001600160a01b031681565b6040516001600160a01b039091168152602001610208565b34801561039157600080fd5b506101fe6103a036600461316f565b6117e4565b3480156103b157600080fd5b5060095461036d906001600160a01b031681565b3480156103d157600080fd5b506102266103e03660046131c9565b611b01565b3480156103f157600080fd5b5061032d61040036600461316f565b611dcb565b34801561041157600080fd5b506104fa6040805161014081018252600080825260208201819052918101829052606081018290526080810182905260a0810182905260c0810182905260e081018290526101008101829052610120810191909152506040805161014081018252600354815260045460ff9081161515602083015260055492820192909252600654808316151560608301526001600160a01b0361010080830482166080850152600160a81b928390048516151560a085015260075491821660c0850152600160a01b82048516151560e085015291900490921615159181019190915260085461012082015290565b60405161020891906132b5565b34801561051357600080fd5b50610226610522366004613156565b611fd2565b34801561053357600080fd5b506101fe610542366004613156565b612031565b34801561055357600080fd5b5060005461056a90600160a81b900462ffffff1681565b60405162ffffff9091168152602001610208565b34801561058a57600080fd5b506101fe600c5481565b3480156105a057600080fd5b506003546004546005546006546007546008546105f5959460ff9081169493808216936001600160a01b036101008304811694600160a81b9384900485169491831693600160a01b840483169304909116908a565b604080519a8b5298151560208b01529789019690965293151560608801526001600160a01b03928316608088015290151560a08701521660c0850152151560e0840152151561010083015261012082015261014001610208565b34801561065b57600080fd5b5061022661066a36600461337f565b612147565b34801561067b57600080fd5b5061022661068a3660046133a3565b6121d0565b34801561069b57600080fd5b506102266106aa3660046133cf565b612628565b3480156106bb57600080fd5b5060005461036d906001600160a01b031681565b3480156106db57600080fd5b506101fe60015481565b3480156106f157600080fd5b506002546001600160a01b031661036d565b34801561070f57600080fd5b50600e5461036d906001600160a01b031681565b34801561072f57600080fd5b5060025461036d906001600160a01b031681565b34801561074f57600080fd5b5061076361075e3660046133cf565b6126a7565b604080519687526020870195909552938501929092526060840152608083015260a082015260c001610208565b34801561079c57600080fd5b5061022661282c565b6000546040805180820190915260018152601960f91b6020820152906001600160a01b031633146107f25760405162461bcd60e51b81526004016107e99190613410565b60405180910390fd5b506002546040516370a0823160e01b81523060048201526001600160a01b039091169060009082906370a0823190602401602060405180830381865afa158015610840573d6000803e3d6000fd5b505050506040513d601f19601f820116820180604052508101906108649190613443565b90506000811160405180604001604052806002815260200161031360f41b815250906108a35760405162461bcd60e51b81526004016107e99190613410565b506000309050600080600e60009054906101000a90046001600160a01b03166001600160a01b031663d03f6bac6040518163ffffffff1660e01b8152600401602060405180830381865afa1580156108ff573d6000803e3d6000fd5b505050506040513d601f19601f82011682018060405250810190610923919061345c565b90506000816001600160a01b031663026b1d5f6040518163ffffffff1660e01b8152600401602060405180830381865afa158015610965573d6000803e3d6000fd5b505050506040513d601f19601f82011682018060405250810190610989919061345c565b60405163095ea7b360e01b81526001600160a01b038083166004830152602482018890529192509087169063095ea7b3906044016020604051808303816000875af11580156109dc573d6000803e3d6000fd5b505050506040513d601f19601f82011682018060405250810190610a009190613479565b506040517f617ba0370000000000000000000000000000000000000000000000000000000081526001600160a01b03878116600483015260248201879052858116604483015261ffff8516606483015282169063617ba03790608401600060405180830381600087803b158015610a7657600080fd5b505af1158015610a8a573d6000803e3d6000fd5b50505050856001600160a01b0316846001600160a01b03167f51a2b359618aeb0bcc2a495a6667c0bdbfddc3bb27eb0dd5b8e3b33a4c15865f87604051610ad391815260200190565b60405180910390a350506000805460ff60a01b1916600160a01b17905550505050565b6000546040805180820190915260018152601960f91b6020820152906001600160a01b03163314610b3a5760405162461bcd60e51b81526004016107e99190613410565b5060065460ff1615156001148015610b5c5750600754600160a01b900460ff16155b6040518060400160405280600281526020017f313200000000000000000000000000000000000000000000000000000000000081525090610bb05760405162461bcd60e51b81526004016107e99190613410565b508015610dab57600e54604080517fcae5f11e00000000000000000000000000000000000000000000000000000000815290516000926001600160a01b03169163cae5f11e9160048083019260209291908290030181865afa158015610c1a573d6000803e3d6000fd5b505050506040513d601f19601f82011682018060405250810190610c3e919061345c565b6002546040516370a0823160e01b81523060048201529192506001600160a01b0380841692632e1a7d4d9291909116906370a0823190602401602060405180830381865afa158015610c94573d6000803e3d6000fd5b505050506040513d601f19601f82011682018060405250810190610cb89190613443565b6040518263ffffffff1660e01b8152600401610cd691815260200190565b600060405180830381600087803b158015610cf057600080fd5b505af1158015610d04573d6000803e3d6000fd5b50506002546040516370a0823160e01b81523060048201526001600160a01b0387811694506108fc9350909116906370a0823190602401602060405180830381865afa158015610d58573d6000803e3d6000fd5b505050506040513d601f19601f82011682018060405250810190610d7c9190613443565b6040518115909202916000818181858888f19350505050158015610da4573d6000803e3d6000fd5b5050610eaa565b6002546040516370a0823160e01b81523060048201526001600160a01b039091169063a9059cbb90849083906370a0823190602401602060405180830381865afa158015610dfd573d6000803e3d6000fd5b505050506040513d601f19601f82011682018060405250810190610e219190613443565b6040517fffffffff0000000000000000000000000000000000000000000000000000000060e085901b1681526001600160a01b03909216600483015260248201526044016020604051808303816000875af1158015610e84573d6000803e3d6000fd5b505050506040513d601f19601f82011682018060405250810190610ea89190613479565b505b50506007805460ff60a01b1916600160a01b179055565b600080546040805180820190915260018152601960f91b602082015282916001600160a01b03163314610f075760405162461bcd60e51b81526004016107e99190613410565b506000806000600e60009054906101000a90046001600160a01b03166001600160a01b031663725c9c496040518163ffffffff1660e01b8152600401606060405180830381865afa158015610f60573d6000803e3d6000fd5b505050506040513d601f19601f82011682018060405250810190610f849190613496565b9250925092506000806000600e60009054906101000a90046001600160a01b03166001600160a01b031663c2dcadab6040518163ffffffff1660e01b8152600401606060405180830381865afa158015610fe2573d6000803e3d6000fd5b505050506040513d601f19601f8201168201806040525081019061100691906134e3565b6006805460ff191660011790556005546008556000549295509093509150600160a01b900460ff161561112357600e546002546040516363df573560e11b81526001600160a01b039182166004820152600092919091169063c7beae6a90602401602060405180830381865afa158015611084573d6000803e3d6000fd5b505050506040513d601f19601f820116820180604052508101906110a8919061345c565b6040516370a0823160e01b81523060048201529091506001600160a01b038216906370a0823190602401602060405180830381865afa1580156110ef573d6000803e3d6000fd5b505050506040513d601f19601f820116820180604052508101906111139190613443565b6008556111218284866121d0565b505b6000600b54600c546111359190613527565b11156112d557600254600b54600c546001600160a01b039092169163095ea7b39189916111629190613527565b6040517fffffffff0000000000000000000000000000000000000000000000000000000060e085901b1681526001600160a01b03909216600483015260248201526044016020604051808303816000875af11580156111c5573d6000803e3d6000fd5b505050506040513d601f19601f820116820180604052508101906111e99190613479565b506000611217600b54600c546111ff9190613527565b6007546002546001600160a01b039182169116612880565b60075460095460405163095ea7b360e01b81526001600160a01b03918216600482015260248101849052929350169063095ea7b3906044016020604051808303816000875af115801561126e573d6000803e3d6000fd5b505050506040513d601f19601f820116820180604052508101906112929190613479565b50600061129f8386613527565b6112a9838761353a565b6112b39190613551565b905060006112c18284613573565b919a509098506112e3975050505050505050565b600080975097505050505050505b9091565b6000806000806000600e60009054906101000a90046001600160a01b03166001600160a01b031663e56e56db6040518163ffffffff1660e01b8152600401606060405180830381865afa158015611342573d6000803e3d6000fd5b505050506040513d601f19601f8201168201806040525081019061136691906134e3565b9194509250905060008161137a8486613527565b6113849190613527565b9050600080600b54600c546113999190613527565b11156113cd576113ca600b54600c546113b29190613527565b6002546007546001600160a01b039182169116612ad3565b90505b60006127106113dc848b61353a565b6113e69190613551565b90506000826113f5838c613527565b6113ff9190613527565b6002546040516370a0823160e01b815230600482015291925060009161148f9184916001600160a01b03909116906370a0823190602401602060405180830381865afa158015611453573d6000803e3d6000fd5b505050506040513d601f19601f820116820180604052508101906114779190613443565b6007546002546001600160a01b039182169116612d46565b9b939a509298505050505050505050565b600080546040805180820190915260018152601960f91b60208201528291829182916001600160a01b031633146114ea5760405162461bcd60e51b81526004016107e99190613410565b5060646114f88660006117e4565b106040518060400160405280600281526020017f31310000000000000000000000000000000000000000000000000000000000008152509061154d5760405162461bcd60e51b81526004016107e99190613410565b50600554600855600e54604080517fc2dcadab0000000000000000000000000000000000000000000000000000000081529051600092839283926001600160a01b039092169163c2dcadab916004808201926060929091908290030181865afa1580156115be573d6000803e3d6000fd5b505050506040513d601f19601f820116820180604052508101906115e291906134e3565b6000549295509093509150600160a01b900460ff16156116ec57600e546002546040516363df573560e11b81526001600160a01b039182166004820152600092919091169063c7beae6a90602401602060405180830381865afa15801561164d573d6000803e3d6000fd5b505050506040513d601f19601f82011682018060405250810190611671919061345c565b6040516370a0823160e01b81523060048201529091506001600160a01b038216906370a0823190602401602060405180830381865afa1580156116b8573d6000803e3d6000fd5b505050506040513d601f19601f820116820180604052508101906116dc9190613443565b6008556116ea8284866121d0565b505b6000806116f88a6112e7565b9150915060008060008061170c8e86611dcb565b600680547fffffffffffffffffffff00ffffffffffffffffffffffffffffffffffffffff0016750100000000000000000000000000000000000000000117905560075460095460405163095ea7b360e01b81526001600160a01b039182166004820152602481018d90529599509397509195509350169063095ea7b3906044016020604051808303816000875af11580156117ab573d6000803e3d6000fd5b505050506040513d601f19601f820116820180604052508101906117cf9190613479565b50929d919c509a509098509650505050505050565b600e546007546040516359dfff5560e11b81526001600160a01b039182166004820152600160248201526000928392169063b3bffeaa90604401602060405180830381865afa15801561183b573d6000803e3d6000fd5b505050506040513d601f19601f8201168201806040525081019061185f9190613443565b9050600080846001546118729190613527565b6002549091506001600160a01b03168115611a3257600e546040516359dfff5560e11b81526001600160a01b03838116600483015260006024830181905292169063b3bffeaa90604401602060405180830381865afa1580156118d9573d6000803e3d6000fd5b505050506040513d601f19601f820116820180604052508101906118fd9190613443565b600e54604080517fe75235b8000000000000000000000000000000000000000000000000000000008152815193945060009384936001600160a01b03169263e75235b892600480820193918290030181865afa158015611961573d6000803e3d6000fd5b505050506040513d601f19601f820116820180604052508101906119859190613586565b91509150836001600160a01b031663313ce5676040518163ffffffff1660e01b8152600401602060405180830381865afa1580156119c7573d6000803e3d6000fd5b505050506040513d601f19601f820116820180604052508101906119eb91906135aa565b6119f690600a6136b1565b61271082611a04868961353a565b611a0e919061353a565b611a189190613551565b611a229190613551565b611a2c9087613527565b95505050505b600754604080517f313ce56700000000000000000000000000000000000000000000000000000000815290516000926001600160a01b03169163313ce5679160048281019260209291908290030181865afa158015611a95573d6000803e3d6000fd5b505050506040513d601f19601f82011682018060405250810190611ab991906135aa565b611ac490600a6136b1565b611ace868a61353a565b611ad89190613551565b9050600081611ae886606461353a565b611af29190613551565b96505050505050505b92915050565b7ff0c57e16840df040f15088dc2f81fe391c3923bec73e23a9662efc9c229c6a00805468010000000000000000810460ff16159067ffffffffffffffff16600081158015611b4c5750825b905060008267ffffffffffffffff166001148015611b695750303b155b905081158015611b77575080155b15611bae576040517ff92ee8a900000000000000000000000000000000000000000000000000000000815260040160405180910390fd5b845467ffffffffffffffff191660011785558315611be257845468ff00000000000000001916680100000000000000001785555b336000806101000a8154816001600160a01b0302191690836001600160a01b0316021790555085600e60006101000a8154816001600160a01b0302191690836001600160a01b031602179055508760036000820151816000015560208201518160010160006101000a81548160ff0219169083151502179055506040820151816002015560608201518160030160006101000a81548160ff02191690831515021790555060808201518160030160016101000a8154816001600160a01b0302191690836001600160a01b0316021790555060a08201518160030160156101000a81548160ff02191690831515021790555060c08201518160040160006101000a8154816001600160a01b0302191690836001600160a01b0316021790555060e08201518160040160146101000a81548160ff0219169083151502179055506101008201518160040160156101000a81548160ff021916908315150217905550610120820151816005015590505086600260006101000a8154816001600160a01b0302191690836001600160a01b031602179055508315611dc157845468ff000000000000000019168555604051600181527fc7f505b2f371ae2175ee4913f4499e1f2633a7b5936321eed1cdaeb6115181d29060200160405180910390a15b5050505050505050565b6000806000806000806000806000600e60009054906101000a90046001600160a01b03166001600160a01b031663c2dcadab6040518163ffffffff1660e01b8152600401606060405180830381865afa158015611e2c573d6000803e3d6000fd5b505050506040513d601f19601f82011682018060405250810190611e5091906134e3565b600e54604080517fe56e56db0000000000000000000000000000000000000000000000000000000081529051949950919750600096508695508594506001600160a01b03169263e56e56db925060048083019260609291908290030181865afa158015611ec1573d6000803e3d6000fd5b505050506040513d601f19601f82011682018060405250810190611ee591906134e3565b91945092509050600081611ef98486613527565b611f039190613527565b90506000612710611f14838f61353a565b611f1e9190613551565b9050600082611f2d858461353a565b611f379190613551565b90506000611f45888a613527565b898f611f51919061353a565b611f5b9190613551565b90506000818f611f6b9190613573565b905084611f78898661353a565b611f829190613551565b82611f8d8386613527565b8588611f998d8a61353a565b611fa39190613551565b611fad9089613573565b611fb79190613573565b9d509d509d509d505050505050505050505092959194509250565b6000546040805180820190915260018152601960f91b6020820152906001600160a01b031633146120165760405162461bcd60e51b81526004016107e99190613410565b5080600160008282546120299190613527565b909155505050565b600e546002546040516363df573560e11b81526001600160a01b0391821660048201526000928392169063c7beae6a90602401602060405180830381865afa158015612081573d6000803e3d6000fd5b505050506040513d601f19601f820116820180604052508101906120a5919061345c565b6040516370a0823160e01b81523060048201529091506000906001600160a01b038316906370a0823190602401602060405180830381865afa1580156120ef573d6000803e3d6000fd5b505050506040513d601f19601f820116820180604052508101906121139190613443565b90506000600154826121259190613573565b9050612710612134868361353a565b61213e9190613551565b95945050505050565b6000546040805180820190915260018152601960f91b6020820152906001600160a01b0316331461218b5760405162461bcd60e51b81526004016107e99190613410565b5062ffffff8116156121cd57600080547fffffffffffffffff000000ffffffffffffffffffffffffffffffffffffffffff16600160a81b62ffffff8416021790555b50565b6000546040805180820190915260018152601960f91b6020820152906001600160a01b031633146122145760405162461bcd60e51b81526004016107e99190613410565b50600254600e546040516363df573560e11b81526001600160a01b039283166004820181905292600092169063c7beae6a90602401602060405180830381865afa158015612266573d6000803e3d6000fd5b505050506040513d601f19601f8201168201806040525081019061228a919061345c565b6040516370a0823160e01b81523060048201529091506000906001600160a01b038316906370a0823190602401602060405180830381865afa1580156122d4573d6000803e3d6000fd5b505050506040513d601f19601f820116820180604052508101906122f89190613443565b90506000811160405180604001604052806002815260200161031360f41b815250906123375760405162461bcd60e51b81526004016107e99190613410565b50600e54604080517fd03f6bac00000000000000000000000000000000000000000000000000000000815290516000926001600160a01b03169163d03f6bac9160048083019260209291908290030181865afa15801561239b573d6000803e3d6000fd5b505050506040513d601f19601f820116820180604052508101906123bf919061345c565b90506000816001600160a01b031663026b1d5f6040518163ffffffff1660e01b8152600401602060405180830381865afa158015612401573d6000803e3d6000fd5b505050506040513d601f19601f82011682018060405250810190612425919061345c565b6040517f69328dec0000000000000000000000000000000000000000000000000000000081526001600160a01b03878116600483015260248201869052306044830152919250908216906369328dec906064016020604051808303816000875af1158015612497573d6000803e3d6000fd5b505050506040513d601f19601f820116820180604052508101906124bb9190613443565b506040518381526001600160a01b0386169030907f83aa598dd3e269af677698c6847b3ba594a67d286a771d01099aafa911a91b649060200160405180910390a36000805460ff60a01b191681556002546040516370a0823160e01b81523060048201526001600160a01b03909116906370a0823190602401602060405180830381865afa158015612551573d6000803e3d6000fd5b505050506040513d601f19601f820116820180604052508101906125759190613443565b90506000600154826125879190613573565b111561261d57612710886001548361259f9190613573565b6125a9919061353a565b6125b39190613551565b600d556125c08988613527565b89600d54600154846125d29190613573565b6125dc9190613573565b6125e6919061353a565b6125f09190613551565b600b819055600d546001546126059084613573565b61260f9190613573565b6126199190613573565b600c555b505050505050505050565b6000546040805180820190915260018152601960f91b6020820152906001600160a01b0316331461266c5760405162461bcd60e51b81526004016107e99190613410565b50600980547fffffffffffffffffffffffff0000000000000000000000000000000000000000166001600160a01b0392909216919091179055565b6000806000806000806000600e60009054906101000a90046001600160a01b03166001600160a01b031663d03f6bac6040518163ffffffff1660e01b8152600401602060405180830381865afa158015612705573d6000803e3d6000fd5b505050506040513d601f19601f82011682018060405250810190612729919061345c565b90506000816001600160a01b031663026b1d5f6040518163ffffffff1660e01b8152600401602060405180830381865afa15801561276b573d6000803e3d6000fd5b505050506040513d601f19601f8201168201806040525081019061278f919061345c565b6040517fbf92857c0000000000000000000000000000000000000000000000000000000081526001600160a01b038b811660048301529192509082169063bf92857c9060240160c060405180830381865afa1580156127f2573d6000803e3d6000fd5b505050506040513d601f19601f8201168201806040525081019061281691906136c0565b949e939d50919b50995097509095509350505050565b6000546040805180820190915260018152601960f91b6020820152906001600160a01b031633146128705760405162461bcd60e51b81526004016107e99190613410565b506004805460ff19166001179055565b600080600080600e60009054906101000a90046001600160a01b03166001600160a01b031663725c9c496040518163ffffffff1660e01b8152600401606060405180830381865afa1580156128d9573d6000803e3d6000fd5b505050506040513d601f19601f820116820180604052508101906128fd9190613496565b92509250925061290e858489612faf565b60008054604051630b4c774160e11b81526001600160a01b0388811660048301528981166024830152600160a81b90920462ffffff16604482015290841690631698ee8290606401602060405180830381865afa158015612973573d6000803e3d6000fd5b505050506040513d601f19601f82011682018060405250810190612997919061345c565b90506000816001600160a01b031663ddca3f436040518163ffffffff1660e01b8152600401602060405180830381865afa1580156129d9573d6000803e3d6000fd5b505050506040513d601f19601f820116820180604052508101906129fd919061370a565b6040805160e0810182526001600160a01b03808b1682528b8116602083015262ffffff841682840152306060830152608082018d9052600060a0830181905260c083015291517f04e45aaf00000000000000000000000000000000000000000000000000000000815292935091908716906304e45aaf90612a82908490600401613727565b6020604051808303816000875af1158015612aa1573d6000803e3d6000fd5b505050506040513d601f19601f82011682018060405250810190612ac59190613443565b9a9950505050505050505050565b600080600080600e60009054906101000a90046001600160a01b03166001600160a01b031663725c9c496040518163ffffffff1660e01b8152600401606060405180830381865afa158015612b2c573d6000803e3d6000fd5b505050506040513d601f19601f82011682018060405250810190612b509190613496565b60008054604051630b4c774160e11b81526001600160a01b038b811660048301528c81166024830152600160a81b90920462ffffff1660448201529497509295509093509190841690631698ee8290606401602060405180830381865afa158015612bbf573d6000803e3d6000fd5b505050506040513d601f19601f82011682018060405250810190612be3919061345c565b90506000816001600160a01b031663ddca3f436040518163ffffffff1660e01b8152600401602060405180830381865afa158015612c25573d6000803e3d6000fd5b505050506040513d601f19601f82011682018060405250810190612c49919061370a565b6040805160a0810182526001600160a01b03808b1682528b8116602083019081528284018e815262ffffff8087166060860190815260006080870181815297517fc6a5026a0000000000000000000000000000000000000000000000000000000081528751871660048201529451861660248601529251604485015251166064830152935182166084820152939450909282918291829189169063c6a5026a9060a4016080604051808303816000875af1158015612d0b573d6000803e3d6000fd5b505050506040513d601f19601f82011682018060405250810190612d2f919061378a565b50919c505050505050505050505050509392505050565b600080600080600e60009054906101000a90046001600160a01b03166001600160a01b031663725c9c496040518163ffffffff1660e01b8152600401606060405180830381865afa158015612d9f573d6000803e3d6000fd5b505050506040513d601f19601f82011682018060405250810190612dc39190613496565b925092509250612dd4858489612faf565b60008054604051630b4c774160e11b81526001600160a01b0388811660048301528981166024830152600160a81b90920462ffffff16604482015290841690631698ee8290606401602060405180830381865afa158015612e39573d6000803e3d6000fd5b505050506040513d601f19601f82011682018060405250810190612e5d919061345c565b90506000816001600160a01b031663ddca3f436040518163ffffffff1660e01b8152600401602060405180830381865afa158015612e9f573d6000803e3d6000fd5b505050506040513d601f19601f82011682018060405250810190612ec3919061370a565b6040805160e0810182526001600160a01b03808b1682528b8116602083015262ffffff841682840152306060830152608082018e905260a082018d9052600060c083015291517f5023b4df0000000000000000000000000000000000000000000000000000000081529293509190871690635023b4df90612f48908490600401613727565b6020604051808303816000875af1158015612f67573d6000803e3d6000fd5b505050506040513d601f19601f82011682018060405250810190612f8b9190613443565b965089871015612fa157612fa188876000612faf565b505050505050949350505050565b604080516001600160a01b038481166024830152604480830185905283518084039091018152606490920183526020820180517bffffffffffffffffffffffffffffffffffffffffffffffffffffffff1663095ea7b360e01b179052915160009283929087169161302091906137dc565b6000604051808303816000865af19150503d806000811461305d576040519150601f19603f3d011682016040523d82523d6000602084013e613062565b606091505b509150915081801561308c57508051158061308c57508080602001905181019061308c9190613479565b6130d85760405162461bcd60e51b815260206004820152600260248201527f534100000000000000000000000000000000000000000000000000000000000060448201526064016107e9565b5050505050565b6001600160a01b03811681146121cd57600080fd5b80356130ff816130df565b919050565b80151581146121cd57600080fd5b80356130ff81613104565b6000806040838503121561313057600080fd5b823561313b816130df565b9150602083013561314b81613104565b809150509250929050565b60006020828403121561316857600080fd5b5035919050565b6000806040838503121561318257600080fd5b50508035926020909101359150565b604051610140810167ffffffffffffffff811182821017156131c357634e487b7160e01b600052604160045260246000fd5b60405290565b60008060008385036101808112156131e057600080fd5b610140808212156131f057600080fd5b6131f8613191565b91508535825261320a60208701613112565b60208301526040860135604083015261322560608701613112565b6060830152613236608087016130f4565b608083015261324760a08701613112565b60a083015261325860c087016130f4565b60c083015261326960e08701613112565b60e083015261010061327c818801613112565b818401525061012080870135818401525081945061329b8187016130f4565b935050506132ac61016085016130f4565b90509250925092565b815181526020808301516101408301916132d29084018215159052565b506040830151604083015260608301516132f0606084018215159052565b50608083015161330b60808401826001600160a01b03169052565b5060a083015161331f60a084018215159052565b5060c083015161333a60c08401826001600160a01b03169052565b5060e083015161334e60e084018215159052565b506101008381015180151584830152505061012092830151919092015290565b62ffffff811681146121cd57600080fd5b60006020828403121561339157600080fd5b813561339c8161336e565b9392505050565b6000806000606084860312156133b857600080fd5b505081359360208301359350604090920135919050565b6000602082840312156133e157600080fd5b813561339c816130df565b60005b838110156134075781810151838201526020016133ef565b50506000910152565b602081526000825180602084015261342f8160408501602087016133ec565b601f01601f19169190910160400192915050565b60006020828403121561345557600080fd5b5051919050565b60006020828403121561346e57600080fd5b815161339c816130df565b60006020828403121561348b57600080fd5b815161339c81613104565b6000806000606084860312156134ab57600080fd5b83516134b6816130df565b60208501519093506134c7816130df565b60408501519092506134d8816130df565b809150509250925092565b6000806000606084860312156134f857600080fd5b8351925060208401519150604084015190509250925092565b634e487b7160e01b600052601160045260246000fd5b80820180821115611afb57611afb613511565b8082028115828204841417611afb57611afb613511565b60008261356e57634e487b7160e01b600052601260045260246000fd5b500490565b81810381811115611afb57611afb613511565b6000806040838503121561359957600080fd5b505080516020909101519092909150565b6000602082840312156135bc57600080fd5b815160ff8116811461339c57600080fd5b600181815b808511156136085781600019048211156135ee576135ee613511565b808516156135fb57918102915b93841c93908002906135d2565b509250929050565b60008261361f57506001611afb565b8161362c57506000611afb565b8160018114613642576002811461364c57613668565b6001915050611afb565b60ff84111561365d5761365d613511565b50506001821b611afb565b5060208310610133831016604e8410600b841016171561368b575081810a611afb565b61369583836135cd565b80600019048211156136a9576136a9613511565b029392505050565b600061339c60ff841683613610565b60008060008060008060c087890312156136d957600080fd5b865195506020870151945060408701519350606087015192506080870151915060a087015190509295509295509295565b60006020828403121561371c57600080fd5b815161339c8161336e565b60e08101611afb82846001600160a01b0380825116835280602083015116602084015262ffffff60408301511660408401528060608301511660608401526080820151608084015260a082015160a08401528060c08301511660c0840152505050565b600080600080608085870312156137a057600080fd5b8451935060208501516137b2816130df565b604086015190935063ffffffff811681146137cc57600080fd5b6060959095015193969295505050565b600082516137ee8184602087016133ec565b919091019291505056fea2646970667358221220fe3c4b6b4eef25875e1ea4100f8e885bcec9c0135449c1a1c76c19a2d4204a0164736f6c63430008180033",
  "linkReferences": {},
  "deployedLinkReferences": {}
}