{
  "_format": "hh-sol-artifact-1",
  "contractName": "CCFLLoan",
  "sourceName": "contracts/CCFLLoan.sol",
  "abi": [
    {
      "inputs": [],
      "stateMutability": "nonpayable",
      "type": "constructor"
    },
    {
      "inputs": [],
      "name": "InvalidInitialization",
      "type": "error"
    },
    {
      "inputs": [],
      "name": "NotInitializing",
      "type": "error"
    },
    {
      "anonymous": false,
      "inputs": [
        {
          "indexed": false,
          "internalType": "uint64",
          "name": "version",
          "type": "uint64"
        }
      ],
      "name": "Initialized",
      "type": "event"
    },
    {
      "anonymous": false,
      "inputs": [
        {
          "indexed": true,
          "internalType": "address",
          "name": "onBehalfOf",
          "type": "address"
        },
        {
          "indexed": true,
          "internalType": "address",
          "name": "_token",
          "type": "address"
        },
        {
          "indexed": false,
          "internalType": "uint256",
          "name": "_amount",
          "type": "uint256"
        },
        {
          "indexed": false,
          "internalType": "uint256",
          "name": "timestamp",
          "type": "uint256"
        }
      ],
      "name": "LiquiditySupplied",
      "type": "event"
    },
    {
      "anonymous": false,
      "inputs": [
        {
          "indexed": true,
          "internalType": "address",
          "name": "to",
          "type": "address"
        },
        {
          "indexed": true,
          "internalType": "address",
          "name": "_token",
          "type": "address"
        },
        {
          "indexed": false,
          "internalType": "uint256",
          "name": "_amount",
          "type": "uint256"
        },
        {
          "indexed": false,
          "internalType": "uint256",
          "name": "timestamp",
          "type": "uint256"
        }
      ],
      "name": "LiquidityWithdrawn",
      "type": "event"
    },
    {
      "inputs": [],
      "name": "LTV",
      "outputs": [
        {
          "internalType": "uint256",
          "name": "",
          "type": "uint256"
        }
      ],
      "stateMutability": "view",
      "type": "function"
    },
    {
      "inputs": [],
      "name": "aToken",
      "outputs": [
        {
          "internalType": "contract IERC20Standard",
          "name": "",
          "type": "address"
        }
      ],
      "stateMutability": "view",
      "type": "function"
    },
    {
      "inputs": [],
      "name": "aaveAddressProvider",
      "outputs": [
        {
          "internalType": "contract IPoolAddressesProvider",
          "name": "",
          "type": "address"
        }
      ],
      "stateMutability": "view",
      "type": "function"
    },
    {
      "inputs": [],
      "name": "ccfl",
      "outputs": [
        {
          "internalType": "address",
          "name": "",
          "type": "address"
        }
      ],
      "stateMutability": "view",
      "type": "function"
    },
    {
      "inputs": [],
      "name": "closeLoan",
      "outputs": [
        {
          "internalType": "uint256",
          "name": "",
          "type": "uint256"
        }
      ],
      "stateMutability": "nonpayable",
      "type": "function"
    },
    {
      "inputs": [],
      "name": "collateralAmount",
      "outputs": [
        {
          "internalType": "uint256",
          "name": "",
          "type": "uint256"
        }
      ],
      "stateMutability": "view",
      "type": "function"
    },
    {
      "inputs": [],
      "name": "collateralToken",
      "outputs": [
        {
          "internalType": "contract IERC20Standard",
          "name": "",
          "type": "address"
        }
      ],
      "stateMutability": "view",
      "type": "function"
    },
    {
      "inputs": [],
      "name": "earnBorrower",
      "outputs": [
        {
          "internalType": "uint256",
          "name": "",
          "type": "uint256"
        }
      ],
      "stateMutability": "view",
      "type": "function"
    },
    {
      "inputs": [],
      "name": "earnLender",
      "outputs": [
        {
          "internalType": "uint256",
          "name": "",
          "type": "uint256"
        }
      ],
      "stateMutability": "view",
      "type": "function"
    },
    {
      "inputs": [],
      "name": "earnPlatform",
      "outputs": [
        {
          "internalType": "uint256",
          "name": "",
          "type": "uint256"
        }
      ],
      "stateMutability": "view",
      "type": "function"
    },
    {
      "inputs": [],
      "name": "factory",
      "outputs": [
        {
          "internalType": "contract IUniswapV3Factory",
          "name": "",
          "type": "address"
        }
      ],
      "stateMutability": "view",
      "type": "function"
    },
    {
      "inputs": [],
      "name": "feeTier",
      "outputs": [
        {
          "internalType": "uint24",
          "name": "",
          "type": "uint24"
        }
      ],
      "stateMutability": "view",
      "type": "function"
    },
    {
      "inputs": [
        {
          "internalType": "uint256",
          "name": "currentDebt",
          "type": "uint256"
        },
        {
          "internalType": "uint256",
          "name": "addCollateral",
          "type": "uint256"
        }
      ],
      "name": "getHealthFactor",
      "outputs": [
        {
          "internalType": "uint256",
          "name": "",
          "type": "uint256"
        }
      ],
      "stateMutability": "view",
      "type": "function"
    },
    {
      "inputs": [],
      "name": "getIsYeild",
      "outputs": [
        {
          "internalType": "bool",
          "name": "",
          "type": "bool"
        }
      ],
      "stateMutability": "view",
      "type": "function"
    },
    {
      "inputs": [
        {
          "internalType": "contract IERC20Standard",
          "name": "_coin",
          "type": "address"
        },
        {
          "internalType": "bool",
          "name": "isPool",
          "type": "bool"
        }
      ],
      "name": "getLatestPrice",
      "outputs": [
        {
          "internalType": "uint256",
          "name": "",
          "type": "uint256"
        }
      ],
      "stateMutability": "view",
      "type": "function"
    },
    {
      "inputs": [],
      "name": "getLoanInfo",
      "outputs": [
        {
          "components": [
            {
              "internalType": "uint256",
              "name": "loanId",
              "type": "uint256"
            },
            {
              "internalType": "bool",
              "name": "isPaid",
              "type": "bool"
            },
            {
              "internalType": "uint256",
              "name": "amount",
              "type": "uint256"
            },
            {
              "internalType": "bool",
              "name": "isClosed",
              "type": "bool"
            },
            {
              "internalType": "address",
              "name": "borrower",
              "type": "address"
            },
            {
              "internalType": "bool",
              "name": "isLiquidated",
              "type": "bool"
            },
            {
              "internalType": "contract IERC20Standard",
              "name": "stableCoin",
              "type": "address"
            },
            {
              "internalType": "bool",
              "name": "isFinalty",
              "type": "bool"
            },
            {
              "internalType": "bool",
              "name": "isFiat",
              "type": "bool"
            }
          ],
          "internalType": "struct DataTypes.Loan",
          "name": "",
          "type": "tuple"
        }
      ],
      "stateMutability": "view",
      "type": "function"
    },
    {
      "inputs": [
        {
          "internalType": "address",
          "name": "user",
          "type": "address"
        }
      ],
      "name": "getUserAccountData",
      "outputs": [
        {
          "internalType": "uint256",
          "name": "totalCollateralBase",
          "type": "uint256"
        },
        {
          "internalType": "uint256",
          "name": "totalDebtBase",
          "type": "uint256"
        },
        {
          "internalType": "uint256",
          "name": "availableBorrowsBase",
          "type": "uint256"
        },
        {
          "internalType": "uint256",
          "name": "currentLiquidationThreshold",
          "type": "uint256"
        },
        {
          "internalType": "uint256",
          "name": "ltv",
          "type": "uint256"
        },
        {
          "internalType": "uint256",
          "name": "healthFactor",
          "type": "uint256"
        }
      ],
      "stateMutability": "view",
      "type": "function"
    },
    {
      "inputs": [],
      "name": "getYieldEarned",
      "outputs": [
        {
          "internalType": "uint256",
          "name": "",
          "type": "uint256"
        }
      ],
      "stateMutability": "view",
      "type": "function"
    },
    {
      "inputs": [],
      "name": "initLoan",
      "outputs": [
        {
          "internalType": "uint256",
          "name": "loanId",
          "type": "uint256"
        },
        {
          "internalType": "bool",
          "name": "isPaid",
          "type": "bool"
        },
        {
          "internalType": "uint256",
          "name": "amount",
          "type": "uint256"
        },
        {
          "internalType": "bool",
          "name": "isClosed",
          "type": "bool"
        },
        {
          "internalType": "address",
          "name": "borrower",
          "type": "address"
        },
        {
          "internalType": "bool",
          "name": "isLiquidated",
          "type": "bool"
        },
        {
          "internalType": "contract IERC20Standard",
          "name": "stableCoin",
          "type": "address"
        },
        {
          "internalType": "bool",
          "name": "isFinalty",
          "type": "bool"
        },
        {
          "internalType": "bool",
          "name": "isFiat",
          "type": "bool"
        }
      ],
      "stateMutability": "view",
      "type": "function"
    },
    {
      "inputs": [
        {
          "components": [
            {
              "internalType": "uint256",
              "name": "loanId",
              "type": "uint256"
            },
            {
              "internalType": "bool",
              "name": "isPaid",
              "type": "bool"
            },
            {
              "internalType": "uint256",
              "name": "amount",
              "type": "uint256"
            },
            {
              "internalType": "bool",
              "name": "isClosed",
              "type": "bool"
            },
            {
              "internalType": "address",
              "name": "borrower",
              "type": "address"
            },
            {
              "internalType": "bool",
              "name": "isLiquidated",
              "type": "bool"
            },
            {
              "internalType": "contract IERC20Standard",
              "name": "stableCoin",
              "type": "address"
            },
            {
              "internalType": "bool",
              "name": "isFinalty",
              "type": "bool"
            },
            {
              "internalType": "bool",
              "name": "isFiat",
              "type": "bool"
            }
          ],
          "internalType": "struct DataTypes.Loan",
          "name": "_loan",
          "type": "tuple"
        },
        {
          "internalType": "contract IERC20Standard",
          "name": "_collateralToken",
          "type": "address"
        },
        {
          "internalType": "contract IPoolAddressesProvider",
          "name": "_aaveAddressProvider",
          "type": "address"
        },
        {
          "internalType": "contract IERC20Standard",
          "name": "_aToken",
          "type": "address"
        },
        {
          "internalType": "uint256",
          "name": "_ltv",
          "type": "uint256"
        },
        {
          "internalType": "uint256",
          "name": "_threshold",
          "type": "uint256"
        },
        {
          "internalType": "contract AggregatorV3Interface",
          "name": "_priceFeed",
          "type": "address"
        },
        {
          "internalType": "contract AggregatorV3Interface",
          "name": "_pricePoolFeed",
          "type": "address"
        },
        {
          "internalType": "address",
          "name": "_platform",
          "type": "address"
        },
        {
          "internalType": "contract IWETH",
          "name": "_iWETH",
          "type": "address"
        }
      ],
      "name": "initialize",
      "outputs": [],
      "stateMutability": "nonpayable",
      "type": "function"
    },
    {
      "inputs": [],
      "name": "isStakeAave",
      "outputs": [
        {
          "internalType": "bool",
          "name": "",
          "type": "bool"
        }
      ],
      "stateMutability": "view",
      "type": "function"
    },
    {
      "inputs": [
        {
          "internalType": "uint256",
          "name": "_currentDebt",
          "type": "uint256"
        },
        {
          "internalType": "uint256",
          "name": "_percent",
          "type": "uint256"
        }
      ],
      "name": "liquidate",
      "outputs": [
        {
          "internalType": "uint256",
          "name": "",
          "type": "uint256"
        }
      ],
      "stateMutability": "nonpayable",
      "type": "function"
    },
    {
      "inputs": [],
      "name": "liquidationThreshold",
      "outputs": [
        {
          "internalType": "uint256",
          "name": "",
          "type": "uint256"
        }
      ],
      "stateMutability": "view",
      "type": "function"
    },
    {
      "inputs": [],
      "name": "owner",
      "outputs": [
        {
          "internalType": "address",
          "name": "",
          "type": "address"
        }
      ],
      "stateMutability": "view",
      "type": "function"
    },
    {
      "inputs": [],
      "name": "platform",
      "outputs": [
        {
          "internalType": "address",
          "name": "",
          "type": "address"
        }
      ],
      "stateMutability": "view",
      "type": "function"
    },
    {
      "inputs": [],
      "name": "priceFeed",
      "outputs": [
        {
          "internalType": "contract AggregatorV3Interface",
          "name": "",
          "type": "address"
        }
      ],
      "stateMutability": "view",
      "type": "function"
    },
    {
      "inputs": [],
      "name": "pricePoolFeed",
      "outputs": [
        {
          "internalType": "contract AggregatorV3Interface",
          "name": "",
          "type": "address"
        }
      ],
      "stateMutability": "view",
      "type": "function"
    },
    {
      "inputs": [
        {
          "internalType": "address",
          "name": "_ccfl",
          "type": "address"
        }
      ],
      "name": "setCCFL",
      "outputs": [],
      "stateMutability": "nonpayable",
      "type": "function"
    },
    {
      "inputs": [
        {
          "internalType": "uint256",
          "name": "_borrower",
          "type": "uint256"
        },
        {
          "internalType": "uint256",
          "name": "_platform",
          "type": "uint256"
        },
        {
          "internalType": "uint256",
          "name": "_lender",
          "type": "uint256"
        }
      ],
      "name": "setEarnShare",
      "outputs": [],
      "stateMutability": "nonpayable",
      "type": "function"
    },
    {
      "inputs": [],
      "name": "setPaid",
      "outputs": [],
      "stateMutability": "nonpayable",
      "type": "function"
    },
    {
      "inputs": [
        {
          "internalType": "contract ISwapRouter",
          "name": "_swapRouter",
          "type": "address"
        },
        {
          "internalType": "contract IUniswapV3Factory",
          "name": "_factory",
          "type": "address"
        }
      ],
      "name": "setSwapRouter",
      "outputs": [],
      "stateMutability": "nonpayable",
      "type": "function"
    },
    {
      "inputs": [],
      "name": "supplyLiquidity",
      "outputs": [],
      "stateMutability": "nonpayable",
      "type": "function"
    },
    {
      "inputs": [],
      "name": "swapRouter",
      "outputs": [
        {
          "internalType": "contract ISwapRouter",
          "name": "",
          "type": "address"
        }
      ],
      "stateMutability": "view",
      "type": "function"
    },
    {
      "inputs": [
        {
          "internalType": "uint256",
          "name": "amount",
          "type": "uint256"
        }
      ],
      "name": "updateCollateral",
      "outputs": [],
      "stateMutability": "nonpayable",
      "type": "function"
    },
    {
      "inputs": [],
      "name": "wETH",
      "outputs": [
        {
          "internalType": "contract IWETH",
          "name": "",
          "type": "address"
        }
      ],
      "stateMutability": "view",
      "type": "function"
    },
    {
      "inputs": [
        {
          "internalType": "address",
          "name": "_receiver",
          "type": "address"
        },
        {
          "internalType": "bool",
          "name": "_isETH",
          "type": "bool"
        }
      ],
      "name": "withdrawAllCollateral",
      "outputs": [],
      "stateMutability": "nonpayable",
      "type": "function"
    },
    {
      "inputs": [],
      "name": "withdrawLiquidity",
      "outputs": [
        {
          "internalType": "uint256",
          "name": "",
          "type": "uint256"
        }
      ],
      "stateMutability": "nonpayable",
      "type": "function"
    },
    {
      "stateMutability": "payable",
      "type": "receive"
    }
  ],
  "bytecode": "0x608060405234801561001057600080fd5b50612c60806100206000396000f3fe60806040526004361061026e5760003560e01c80637ce67d6011610153578063b2016bd4116100cb578063cdaabe411161007f578063dc40e2d011610064578063dc40e2d014610826578063f242862114610846578063fab320e91461086657600080fd5b8063cdaabe41146107e6578063d296d1f11461080657600080fd5b8063bf92857c116100b0578063bf92857c14610759578063c31c9c07146107a6578063c45a0155146107c657600080fd5b8063b2016bd414610719578063b3bffeaa1461073957600080fd5b80638da5cb5b11610122578063a0c1f15e11610107578063a0c1f15e146106c3578063a2c7fd15146106e3578063a95d71321461070357600080fd5b80638da5cb5b1461068d57806392d09ceb146106ad57600080fd5b80637ce67d60146105945780637ea382c1146106435780638501de01146106585780638ac1b7751461066d57600080fd5b80634d2c872a116101e65780636721de26116101b55780636cb0ab5e1161019a5780636cb0ab5e1461052a57806372f5d98a1461054a578063741bef1a1461057457600080fd5b80636721de26146104ea57806368dcad581461050a57600080fd5b80634d2c872a146103a35780635825f535146103c35780635d3e2fa1146103e357806362965d8e146104d457600080fd5b8063232fa7331161023d5780633a0720e6116102225780633a0720e61461033f5780634031234c146103555780634bde38c81461036b57600080fd5b8063232fa7331461030657806332df398e1461032957600080fd5b806307a6bf691461027a578063102cb82e1461029157806311256603146102b15780631c783def146102e757600080fd5b3661027557005b600080fd5b34801561028657600080fd5b5061028f61087b565b005b34801561029d57600080fd5b5061028f6102ac36600461257d565b610b7a565b3480156102bd57600080fd5b506002546102d290600160a01b900460ff1681565b60405190151581526020015b60405180910390f35b3480156102f357600080fd5b50600254600160a01b900460ff166102d2565b34801561031257600080fd5b5061031b610ea2565b6040519081526020016102de565b34801561033557600080fd5b5061031b60135481565b34801561034b57600080fd5b5061031b60155481565b34801561036157600080fd5b5061031b60055481565b34801561037757600080fd5b5060115461038b906001600160a01b031681565b6040516001600160a01b0390911681526020016102de565b3480156103af57600080fd5b5061031b6103be3660046125b6565b610f1a565b3480156103cf57600080fd5b5060105461038b906001600160a01b031681565b3480156103ef57600080fd5b506104c76040805161012081018252600080825260208201819052918101829052606081018290526080810182905260a0810182905260c0810182905260e081018290526101008101919091525060408051610120810182526009548152600a5460ff90811615156020830152600b5492820192909252600c54808316151560608301526001600160a01b0361010080830482166080850152600160a81b928390048516151560a0850152600d5491821660c0850152600160a01b82048516151560e085015291900490921615159181019190915290565b6040516102de91906125d8565b3480156104e057600080fd5b5061031b60065481565b3480156104f657600080fd5b5061028f610505366004612676565b6110e6565b34801561051657600080fd5b50600f5461038b906001600160a01b031681565b34801561053657600080fd5b5061028f61054536600461268f565b611145565b34801561055657600080fd5b50610560610bb881565b60405162ffffff90911681526020016102de565b34801561058057600080fd5b50600e5461038b906001600160a01b031681565b3480156105a057600080fd5b50600954600a54600b54600c54600d546105f0949360ff9081169392808216926001600160a01b036101008304811693600160a81b9384900481169391831692600160a01b810482169290041689565b60408051998a5297151560208a01529688019590955292151560608701526001600160a01b039182166080870152151560a08601521660c0840152151560e08301521515610100820152610120016102de565b34801561064f57600080fd5b5061031b611198565b34801561066457600080fd5b5061031b611631565b34801561067957600080fd5b5061028f6106883660046126bb565b6116d8565b34801561069957600080fd5b5060005461038b906001600160a01b031681565b3480156106b957600080fd5b5061031b60075481565b3480156106cf57600080fd5b5060025461038b906001600160a01b031681565b3480156106ef57600080fd5b5061028f6106fe366004612717565b61174c565b34801561070f57600080fd5b5061031b60145481565b34801561072557600080fd5b5060085461038b906001600160a01b031681565b34801561074557600080fd5b5061031b61075436600461257d565b611ae3565b34801561076557600080fd5b506107796107743660046126bb565b611bda565b604080519687526020870195909552938501929092526060840152608083015260a082015260c0016102de565b3480156107b257600080fd5b5060035461038b906001600160a01b031681565b3480156107d257600080fd5b5060045461038b906001600160a01b031681565b3480156107f257600080fd5b5060015461038b906001600160a01b031681565b34801561081257600080fd5b5061031b6108213660046125b6565b611cf8565b34801561083257600080fd5b5061028f610841366004612864565b611f51565b34801561085257600080fd5b5060125461038b906001600160a01b031681565b34801561087257600080fd5b5061028f611fd1565b6000546040805180820190915260018152601960f91b6020820152906001600160a01b031633146108c85760405162461bcd60e51b81526004016108bf91906128b6565b60405180910390fd5b506008546040516370a0823160e01b81523060048201526001600160a01b039091169060009082906370a0823190602401602060405180830381865afa158015610916573d6000803e3d6000fd5b505050506040513d601f19601f8201168201806040525081019061093a91906128e9565b9050600081116040518060400160405280600281526020017f3130000000000000000000000000000000000000000000000000000000000000815250906109945760405162461bcd60e51b81526004016108bf91906128b6565b506000309050600080600160009054906101000a90046001600160a01b03166001600160a01b031663026b1d5f6040518163ffffffff1660e01b8152600401602060405180830381865afa1580156109f0573d6000803e3d6000fd5b505050506040513d601f19601f82011682018060405250810190610a149190612902565b60405163095ea7b360e01b81526001600160a01b038083166004830152602482018790529192509086169063095ea7b3906044016020604051808303816000875af1158015610a67573d6000803e3d6000fd5b505050506040513d601f19601f82011682018060405250810190610a8b919061291f565b506040517f617ba0370000000000000000000000000000000000000000000000000000000081526001600160a01b03868116600483015260248201869052848116604483015261ffff8416606483015282169063617ba03790608401600060405180830381600087803b158015610b0157600080fd5b505af1158015610b15573d6000803e3d6000fd5b5050604080518781524260208201526001600160a01b03808a169450871692507f9a07bf3d98170ca14a6bb0b5c7f9a1463ad0d703ae2611ef790fc8ff46d00ecd910160405180910390a350506002805460ff60a01b1916600160a01b179055505050565b6000546040805180820190915260018152601960f91b6020820152906001600160a01b03163314610bbe5760405162461bcd60e51b81526004016108bf91906128b6565b50600c5460ff1615156001148015610be05750600d54600160a01b900460ff16155b6040518060400160405280600281526020017f313200000000000000000000000000000000000000000000000000000000000081525090610c345760405162461bcd60e51b81526004016108bf91906128b6565b508015610da4576012546008546040516370a0823160e01b81523060048201526001600160a01b0392831692632e1a7d4d9216906370a0823190602401602060405180830381865afa158015610c8e573d6000803e3d6000fd5b505050506040513d601f19601f82011682018060405250810190610cb291906128e9565b6040518263ffffffff1660e01b8152600401610cd091815260200190565b600060405180830381600087803b158015610cea57600080fd5b505af1158015610cfe573d6000803e3d6000fd5b50506008546040516370a0823160e01b81523060048201526001600160a01b0386811694506108fc9350909116906370a0823190602401602060405180830381865afa158015610d52573d6000803e3d6000fd5b505050506040513d601f19601f82011682018060405250810190610d7691906128e9565b6040518115909202916000818181858888f19350505050158015610d9e573d6000803e3d6000fd5b50610e8b565b6008546040516370a0823160e01b81523060048201526001600160a01b039091169063a9059cbb90849083906370a0823190602401602060405180830381865afa158015610df6573d6000803e3d6000fd5b505050506040513d601f19601f82011682018060405250810190610e1a91906128e9565b6040516001600160e01b031960e085901b1681526001600160a01b03909216600483015260248201526044016020604051808303816000875af1158015610e65573d6000803e3d6000fd5b505050506040513d601f19601f82011682018060405250810190610e89919061291f565b505b5050600d805460ff60a01b1916600160a01b179055565b600080546040805180820190915260018152601960f91b6020820152906001600160a01b03163314610ee75760405162461bcd60e51b81526004016108bf91906128b6565b50600c805460ff19166001179055600254600160a01b900460ff1615610f1457610f0f611198565b905090565b50600090565b600d546000908190610f36906001600160a01b03166001611ae3565b905060008084600754610f499190612952565b6008549091506001600160a01b03168115611017576000610f6b826000611ae3565b9050816001600160a01b031663313ce5676040518163ffffffff1660e01b8152600401602060405180830381865afa158015610fab573d6000803e3d6000fd5b505050506040513d601f19601f82011682018060405250810190610fcf9190612965565b610fda90600a612a6c565b60055461271090610feb8487612a7b565b610ff59190612a7b565b610fff9190612a92565b6110099190612a92565b6110139085612952565b9350505b600d54604080517f313ce56700000000000000000000000000000000000000000000000000000000815290516000926001600160a01b03169163313ce5679160048281019260209291908290030181865afa15801561107a573d6000803e3d6000fd5b505050506040513d601f19601f8201168201806040525081019061109e9190612965565b6110a990600a612a6c565b6110b3868a612a7b565b6110bd9190612a92565b90506000816110cd866064612a7b565b6110d79190612a92565b96505050505050505b92915050565b6000546040805180820190915260018152601960f91b6020820152906001600160a01b0316331461112a5760405162461bcd60e51b81526004016108bf91906128b6565b50806007600082825461113d9190612952565b909155505050565b6000546040805180820190915260018152601960f91b6020820152906001600160a01b031633146111895760405162461bcd60e51b81526004016108bf91906128b6565b50601555601491909155601355565b600080546040805180820190915260018152601960f91b6020820152906001600160a01b031633146111dd5760405162461bcd60e51b81526004016108bf91906128b6565b506002546040516370a0823160e01b81523060048201526000916001600160a01b0316906370a0823190602401602060405180830381865afa158015611227573d6000803e3d6000fd5b505050506040513d601f19601f8201168201806040525081019061124b91906128e9565b90506000600160009054906101000a90046001600160a01b03166001600160a01b031663026b1d5f6040518163ffffffff1660e01b8152600401602060405180830381865afa1580156112a2573d6000803e3d6000fd5b505050506040513d601f19601f820116820180604052508101906112c69190612902565b6002546040517f69328dec0000000000000000000000000000000000000000000000000000000081526001600160a01b039182166004820152602481018590523060448201529192508216906369328dec906064016020604051808303816000875af115801561133a573d6000803e3d6000fd5b505050506040513d601f19601f8201168201806040525081019061135e91906128e9565b50600254604080518481524260208201526001600160a01b039092169130917fba0b893b2f314a229997e335266881b5ac6b290bd350d2c23cc57160b77882b8910160405180910390a36002805460ff60a01b191690556008546040516370a0823160e01b81523060048201526000916001600160a01b0316906370a0823190602401602060405180830381865afa1580156113fe573d6000803e3d6000fd5b505050506040513d601f19601f8201168201806040525081019061142291906128e9565b905060006127106014546007548461143a9190612ab4565b6114449190612a7b565b61144e9190612a92565b9050600061148682600754856114649190612ab4565b61146e9190612ab4565b600d546008546001600160a01b039182169116612025565b600d546011546013546015549394506001600160a01b039283169363a9059cbb93909216916114b59190612952565b6013546114c29086612a7b565b6114cc9190612a92565b6040516001600160e01b031960e085901b1681526001600160a01b03909216600483015260248201526044016020604051808303816000875af1158015611517573d6000803e3d6000fd5b505050506040513d601f19601f8201168201806040525081019061153b919061291f565b50600d546010546013546015546001600160a01b039384169363095ea7b393169161156591612952565b6013546115729086612a7b565b61157c9190612a92565b6115869085612ab4565b6040516001600160e01b031960e085901b1681526001600160a01b03909216600483015260248201526044016020604051808303816000875af11580156115d1573d6000803e3d6000fd5b505050506040513d601f19601f820116820180604052508101906115f5919061291f565b506013546015546116069190612952565b6013546116139083612a7b565b61161d9190612a92565b6116279082612ab4565b9550505050505090565b6002546040516370a0823160e01b815230600482015260009182916001600160a01b03909116906370a0823190602401602060405180830381865afa15801561167e573d6000803e3d6000fd5b505050506040513d601f19601f820116820180604052508101906116a291906128e9565b90506000600754826116b49190612ab4565b9050612710601454826116c79190612a7b565b6116d19190612a92565b9250505090565b6000546040805180820190915260018152601960f91b6020820152906001600160a01b0316331461171c5760405162461bcd60e51b81526004016108bf91906128b6565b506010805473ffffffffffffffffffffffffffffffffffffffff19166001600160a01b0392909216919091179055565b7ff0c57e16840df040f15088dc2f81fe391c3923bec73e23a9662efc9c229c6a00805468010000000000000000810460ff16159067ffffffffffffffff166000811580156117975750825b905060008267ffffffffffffffff1660011480156117b45750303b155b9050811580156117c2575080155b156117f9576040517ff92ee8a900000000000000000000000000000000000000000000000000000000815260040160405180910390fd5b845467ffffffffffffffff19166001178555831561182d57845468ff00000000000000001916680100000000000000001785555b336000806101000a8154816001600160a01b0302191690836001600160a01b031602179055508e60096000820151816000015560208201518160010160006101000a81548160ff0219169083151502179055506040820151816002015560608201518160030160006101000a81548160ff02191690831515021790555060808201518160030160016101000a8154816001600160a01b0302191690836001600160a01b0316021790555060a08201518160030160156101000a81548160ff02191690831515021790555060c08201518160040160006101000a8154816001600160a01b0302191690836001600160a01b0316021790555060e08201518160040160146101000a81548160ff0219169083151502179055506101008201518160040160156101000a81548160ff0219169083151502179055509050508d600860006101000a8154816001600160a01b0302191690836001600160a01b031602179055508c600160006101000a8154816001600160a01b0302191690836001600160a01b031602179055508a600681905550896005819055508b600260006101000a8154816001600160a01b0302191690836001600160a01b0316021790555088600e60006101000a8154816001600160a01b0302191690836001600160a01b0316021790555087600f60006101000a8154816001600160a01b0302191690836001600160a01b0316021790555086601160006101000a8154816001600160a01b0302191690836001600160a01b0316021790555085601260006101000a8154816001600160a01b0302191690836001600160a01b031602179055508315611ad257845468ff000000000000000019168555604051600181527fc7f505b2f371ae2175ee4913f4499e1f2633a7b5936321eed1cdaeb6115181d29060200160405180910390a15b505050505050505050505050505050565b60008115158103611b7f576000806000806000600e60009054906101000a90046001600160a01b03166001600160a01b031663feaf968c6040518163ffffffff1660e01b815260040160a060405180830381865afa158015611b49573d6000803e3d6000fd5b505050506040513d601f19601f82011682018060405250810190611b6d9190612ae1565b509198506110e0975050505050505050565b6000806000806000600f60009054906101000a90046001600160a01b03166001600160a01b031663feaf968c6040518163ffffffff1660e01b815260040160a060405180830381865afa158015611b49573d6000803e3d6000fd5b6000806000806000806000600160009054906101000a90046001600160a01b03166001600160a01b031663026b1d5f6040518163ffffffff1660e01b8152600401602060405180830381865afa158015611c38573d6000803e3d6000fd5b505050506040513d601f19601f82011682018060405250810190611c5c9190612902565b6040517fbf92857c0000000000000000000000000000000000000000000000000000000081526001600160a01b038a811660048301529192509082169063bf92857c9060240160c060405180830381865afa158015611cbf573d6000803e3d6000fd5b505050506040513d601f19601f82011682018060405250810190611ce39190612b31565b949d939c50919a509850965090945092505050565b600080546040805180820190915260018152601960f91b6020820152906001600160a01b03163314611d3d5760405162461bcd60e51b81526004016108bf91906128b6565b506064611d4b846000610f1a565b106040518060400160405280600281526020017f313100000000000000000000000000000000000000000000000000000000000081525090611da05760405162461bcd60e51b81526004016108bf91906128b6565b50600254600090600160a01b900460ff1615611dc157611dbe611198565b90505b6008546001600160a01b0316611e6f612710611ddd8682612952565b611de79088612a7b565b611df19190612a92565b6008546040516370a0823160e01b81523060048201526001600160a01b03909116906370a0823190602401602060405180830381865afa158015611e39573d6000803e3d6000fd5b505050506040513d601f19601f82011682018060405250810190611e5d91906128e9565b600d546001600160a01b031684612207565b50600c80547fffffffffffffffffffff00ffffffffffffffffffffffffffffffffffffffffff16600160a81b179055600d546010546001600160a01b039182169163095ea7b39116612710611ec48882612952565b611ece908a612a7b565b611ed89190612a92565b6040516001600160e01b031960e085901b1681526001600160a01b03909216600483015260248201526044016020604051808303816000875af1158015611f23573d6000803e3d6000fd5b505050506040513d601f19601f82011682018060405250810190611f47919061291f565b5090949350505050565b6000546040805180820190915260018152601960f91b6020820152906001600160a01b03163314611f955760405162461bcd60e51b81526004016108bf91906128b6565b50600380546001600160a01b0393841673ffffffffffffffffffffffffffffffffffffffff199182161790915560048054929093169116179055565b6000546040805180820190915260018152601960f91b6020820152906001600160a01b031633146120155760405162461bcd60e51b81526004016108bf91906128b6565b50600a805460ff19166001179055565b6003546000906120409083906001600160a01b03168661240c565b60048054604051630b4c774160e11b81526001600160a01b03858116938201939093528583166024820152610bb8604482015260009290911690631698ee8290606401602060405180830381865afa1580156120a0573d6000803e3d6000fd5b505050506040513d601f19601f820116820180604052508101906120c49190612902565b90506000816001600160a01b031663ddca3f436040518163ffffffff1660e01b8152600401602060405180830381865afa158015612106573d6000803e3d6000fd5b505050506040513d601f19601f8201168201806040525081019061212a9190612b7b565b60408051610100810182526001600160a01b038088168252888116602083015262ffffff84168284015233606083015242608083015260a082018a9052600060c0830181905260e083015260035492517f414bf389000000000000000000000000000000000000000000000000000000008152939450909291169063414bf389906121b9908490600401612ba0565b6020604051808303816000875af11580156121d8573d6000803e3d6000fd5b505050506040513d601f19601f820116820180604052508101906121fc91906128e9565b979650505050505050565b6003546000906122229083906001600160a01b03168661240c565b60048054604051630b4c774160e11b81526001600160a01b03858116938201939093528583166024820152610bb8604482015260009290911690631698ee8290606401602060405180830381865afa158015612282573d6000803e3d6000fd5b505050506040513d601f19601f820116820180604052508101906122a69190612902565b90506000816001600160a01b031663ddca3f436040518163ffffffff1660e01b8152600401602060405180830381865afa1580156122e8573d6000803e3d6000fd5b505050506040513d601f19601f8201168201806040525081019061230c9190612b7b565b60408051610100810182526001600160a01b038088168252888116602083015262ffffff84168284015233606083015242608083015260a082018b905260c082018a9052600060e083015260035492517fdb3e2198000000000000000000000000000000000000000000000000000000008152939450909291169063db3e21989061239b908490600401612ba0565b6020604051808303816000875af11580156123ba573d6000803e3d6000fd5b505050506040513d601f19601f820116820180604052508101906123de91906128e9565b935086841015612401576003546124019086906001600160a01b0316600061240c565b505050949350505050565b604080516001600160a01b038481166024830152604480830185905283518084039091018152606490920183526020820180517bffffffffffffffffffffffffffffffffffffffffffffffffffffffff1663095ea7b360e01b179052915160009283929087169161247d9190612c0e565b6000604051808303816000865af19150503d80600081146124ba576040519150601f19603f3d011682016040523d82523d6000602084013e6124bf565b606091505b50915091508180156124e95750805115806124e95750808060200190518101906124e9919061291f565b6125355760405162461bcd60e51b815260206004820152600260248201527f534100000000000000000000000000000000000000000000000000000000000060448201526064016108bf565b5050505050565b6001600160a01b038116811461255157600080fd5b50565b803561255f8161253c565b919050565b801515811461255157600080fd5b803561255f81612564565b6000806040838503121561259057600080fd5b823561259b8161253c565b915060208301356125ab81612564565b809150509250929050565b600080604083850312156125c957600080fd5b50508035926020909101359150565b6000610120820190508251825260208301511515602083015260408301516040830152606083015115156060830152608083015161262160808401826001600160a01b03169052565b5060a083015161263560a084018215159052565b5060c083015161265060c08401826001600160a01b03169052565b5060e083015161266460e084018215159052565b50610100928301511515919092015290565b60006020828403121561268857600080fd5b5035919050565b6000806000606084860312156126a457600080fd5b505081359360208301359350604090920135919050565b6000602082840312156126cd57600080fd5b81356126d88161253c565b9392505050565b604051610120810167ffffffffffffffff8111828210171561271157634e487b7160e01b600052604160045260246000fd5b60405290565b6000806000806000806000806000808a8c0361024081121561273857600080fd5b6101208082121561274857600080fd5b6127506126df565b91508c35825261276260208e01612572565b602083015260408d0135604083015261277d60608e01612572565b606083015261278e60808e01612554565b608083015261279f60a08e01612572565b60a08301526127b060c08e01612554565b60c08301526127c160e08e01612572565b60e08301526101006127d4818f01612572565b8184015250819b506127e7818e01612554565b9a5050506127f86101408c01612554565b97506128076101608c01612554565b96506101808b013595506101a08b013594506128266101c08c01612554565b93506128356101e08c01612554565b92506128446102008c01612554565b91506128536102208c01612554565b90509295989b9194979a5092959850565b6000806040838503121561287757600080fd5b82356128828161253c565b915060208301356125ab8161253c565b60005b838110156128ad578181015183820152602001612895565b50506000910152565b60208152600082518060208401526128d5816040850160208701612892565b601f01601f19169190910160400192915050565b6000602082840312156128fb57600080fd5b5051919050565b60006020828403121561291457600080fd5b81516126d88161253c565b60006020828403121561293157600080fd5b81516126d881612564565b634e487b7160e01b600052601160045260246000fd5b808201808211156110e0576110e061293c565b60006020828403121561297757600080fd5b815160ff811681146126d857600080fd5b600181815b808511156129c35781600019048211156129a9576129a961293c565b808516156129b657918102915b93841c939080029061298d565b509250929050565b6000826129da575060016110e0565b816129e7575060006110e0565b81600181146129fd5760028114612a0757612a23565b60019150506110e0565b60ff841115612a1857612a1861293c565b50506001821b6110e0565b5060208310610133831016604e8410600b8410161715612a46575081810a6110e0565b612a508383612988565b8060001904821115612a6457612a6461293c565b029392505050565b60006126d860ff8416836129cb565b80820281158282048414176110e0576110e061293c565b600082612aaf57634e487b7160e01b600052601260045260246000fd5b500490565b818103818111156110e0576110e061293c565b805169ffffffffffffffffffff8116811461255f57600080fd5b600080600080600060a08688031215612af957600080fd5b612b0286612ac7565b9450602086015193506040860151925060608601519150612b2560808701612ac7565b90509295509295909350565b60008060008060008060c08789031215612b4a57600080fd5b865195506020870151945060408701519350606087015192506080870151915060a087015190509295509295509295565b600060208284031215612b8d57600080fd5b815162ffffff811681146126d857600080fd5b61010081016110e082846001600160a01b0380825116835280602083015116602084015262ffffff60408301511660408401528060608301511660608401526080820151608084015260a082015160a084015260c082015160c08401528060e08301511660e0840152505050565b60008251612c20818460208701612892565b919091019291505056fea264697066735822122012f98444cc8bdf9d4cd60ab93d2de7c4e84547eaa57b0390f71320b95f187f1264736f6c63430008180033",
  "linkReferences": {},
  "deployedLinkReferences": {}
}