{
  "_format": "hh-sol-artifact-1",
  "contractName": "CCFL",
  "sourceName": "contracts/CCFL.sol",
  "abi": [
    {
      "inputs": [],
      "name": "ERC1167FailedCreateClone",
      "type": "error"
    },
    {
      "inputs": [],
      "name": "InvalidInitialization",
      "type": "error"
    },
    {
      "inputs": [],
      "name": "NotInitializing",
      "type": "error"
    },
    {
      "anonymous": false,
      "inputs": [
        {
          "indexed": true,
          "internalType": "address",
          "name": "borrower",
          "type": "address"
        },
        {
          "components": [
            {
              "internalType": "uint256",
              "name": "loanId",
              "type": "uint256"
            },
            {
              "internalType": "bool",
              "name": "isPaid",
              "type": "bool"
            },
            {
              "internalType": "uint256",
              "name": "amount",
              "type": "uint256"
            },
            {
              "internalType": "bool",
              "name": "isClosed",
              "type": "bool"
            },
            {
              "internalType": "address",
              "name": "borrower",
              "type": "address"
            },
            {
              "internalType": "bool",
              "name": "isLiquidated",
              "type": "bool"
            },
            {
              "internalType": "contract IERC20Standard",
              "name": "stableCoin",
              "type": "address"
            },
            {
              "internalType": "bool",
              "name": "isFinalty",
              "type": "bool"
            },
            {
              "internalType": "bool",
              "name": "isFiat",
              "type": "bool"
            },
            {
              "internalType": "uint256",
              "name": "closedAmount",
              "type": "uint256"
            }
          ],
          "indexed": false,
          "internalType": "struct DataTypes.Loan",
          "name": "loanInfo",
          "type": "tuple"
        },
        {
          "indexed": false,
          "internalType": "uint256",
          "name": "collateralAmount",
          "type": "uint256"
        },
        {
          "indexed": false,
          "internalType": "contract IERC20Standard",
          "name": "collateral",
          "type": "address"
        },
        {
          "indexed": false,
          "internalType": "bool",
          "name": "isETH",
          "type": "bool"
        }
      ],
      "name": "AddCollateral",
      "type": "event"
    },
    {
      "anonymous": false,
      "inputs": [
        {
          "indexed": true,
          "internalType": "address",
          "name": "borrower",
          "type": "address"
        },
        {
          "indexed": false,
          "internalType": "address",
          "name": "loanAddress",
          "type": "address"
        },
        {
          "components": [
            {
              "internalType": "uint256",
              "name": "loanId",
              "type": "uint256"
            },
            {
              "internalType": "bool",
              "name": "isPaid",
              "type": "bool"
            },
            {
              "internalType": "uint256",
              "name": "amount",
              "type": "uint256"
            },
            {
              "internalType": "bool",
              "name": "isClosed",
              "type": "bool"
            },
            {
              "internalType": "address",
              "name": "borrower",
              "type": "address"
            },
            {
              "internalType": "bool",
              "name": "isLiquidated",
              "type": "bool"
            },
            {
              "internalType": "contract IERC20Standard",
              "name": "stableCoin",
              "type": "address"
            },
            {
              "internalType": "bool",
              "name": "isFinalty",
              "type": "bool"
            },
            {
              "internalType": "bool",
              "name": "isFiat",
              "type": "bool"
            },
            {
              "internalType": "uint256",
              "name": "closedAmount",
              "type": "uint256"
            }
          ],
          "indexed": false,
          "internalType": "struct DataTypes.Loan",
          "name": "loanInfo",
          "type": "tuple"
        },
        {
          "indexed": false,
          "internalType": "uint256",
          "name": "collateralAmount",
          "type": "uint256"
        },
        {
          "indexed": false,
          "internalType": "contract IERC20Standard",
          "name": "collateral",
          "type": "address"
        },
        {
          "indexed": false,
          "internalType": "bool",
          "name": "isYieldGenerating",
          "type": "bool"
        },
        {
          "indexed": false,
          "internalType": "bool",
          "name": "isETH",
          "type": "bool"
        }
      ],
      "name": "CreateLoan",
      "type": "event"
    },
    {
      "anonymous": false,
      "inputs": [
        {
          "indexed": false,
          "internalType": "uint64",
          "name": "version",
          "type": "uint64"
        }
      ],
      "name": "Initialized",
      "type": "event"
    },
    {
      "anonymous": false,
      "inputs": [
        {
          "indexed": true,
          "internalType": "address",
          "name": "liquidator",
          "type": "address"
        },
        {
          "indexed": true,
          "internalType": "address",
          "name": "borrower",
          "type": "address"
        },
        {
          "components": [
            {
              "internalType": "uint256",
              "name": "loanId",
              "type": "uint256"
            },
            {
              "internalType": "bool",
              "name": "isPaid",
              "type": "bool"
            },
            {
              "internalType": "uint256",
              "name": "amount",
              "type": "uint256"
            },
            {
              "internalType": "bool",
              "name": "isClosed",
              "type": "bool"
            },
            {
              "internalType": "address",
              "name": "borrower",
              "type": "address"
            },
            {
              "internalType": "bool",
              "name": "isLiquidated",
              "type": "bool"
            },
            {
              "internalType": "contract IERC20Standard",
              "name": "stableCoin",
              "type": "address"
            },
            {
              "internalType": "bool",
              "name": "isFinalty",
              "type": "bool"
            },
            {
              "internalType": "bool",
              "name": "isFiat",
              "type": "bool"
            },
            {
              "internalType": "uint256",
              "name": "closedAmount",
              "type": "uint256"
            }
          ],
          "indexed": false,
          "internalType": "struct DataTypes.Loan",
          "name": "loanInfo",
          "type": "tuple"
        },
        {
          "indexed": false,
          "internalType": "uint256",
          "name": "collateralAmount",
          "type": "uint256"
        },
        {
          "indexed": false,
          "internalType": "contract IERC20Standard",
          "name": "collateral",
          "type": "address"
        }
      ],
      "name": "Liquidate",
      "type": "event"
    },
    {
      "anonymous": false,
      "inputs": [
        {
          "indexed": true,
          "internalType": "address",
          "name": "borrower",
          "type": "address"
        },
        {
          "components": [
            {
              "internalType": "uint256",
              "name": "loanId",
              "type": "uint256"
            },
            {
              "internalType": "bool",
              "name": "isPaid",
              "type": "bool"
            },
            {
              "internalType": "uint256",
              "name": "amount",
              "type": "uint256"
            },
            {
              "internalType": "bool",
              "name": "isClosed",
              "type": "bool"
            },
            {
              "internalType": "address",
              "name": "borrower",
              "type": "address"
            },
            {
              "internalType": "bool",
              "name": "isLiquidated",
              "type": "bool"
            },
            {
              "internalType": "contract IERC20Standard",
              "name": "stableCoin",
              "type": "address"
            },
            {
              "internalType": "bool",
              "name": "isFinalty",
              "type": "bool"
            },
            {
              "internalType": "bool",
              "name": "isFiat",
              "type": "bool"
            },
            {
              "internalType": "uint256",
              "name": "closedAmount",
              "type": "uint256"
            }
          ],
          "indexed": false,
          "internalType": "struct DataTypes.Loan",
          "name": "loanInfo",
          "type": "tuple"
        },
        {
          "indexed": false,
          "internalType": "uint256",
          "name": "repayAmount",
          "type": "uint256"
        },
        {
          "indexed": false,
          "internalType": "uint256",
          "name": "debtRemain",
          "type": "uint256"
        }
      ],
      "name": "RepayLoan",
      "type": "event"
    },
    {
      "anonymous": false,
      "inputs": [
        {
          "indexed": true,
          "internalType": "address",
          "name": "borrower",
          "type": "address"
        },
        {
          "components": [
            {
              "internalType": "uint256",
              "name": "loanId",
              "type": "uint256"
            },
            {
              "internalType": "bool",
              "name": "isPaid",
              "type": "bool"
            },
            {
              "internalType": "uint256",
              "name": "amount",
              "type": "uint256"
            },
            {
              "internalType": "bool",
              "name": "isClosed",
              "type": "bool"
            },
            {
              "internalType": "address",
              "name": "borrower",
              "type": "address"
            },
            {
              "internalType": "bool",
              "name": "isLiquidated",
              "type": "bool"
            },
            {
              "internalType": "contract IERC20Standard",
              "name": "stableCoin",
              "type": "address"
            },
            {
              "internalType": "bool",
              "name": "isFinalty",
              "type": "bool"
            },
            {
              "internalType": "bool",
              "name": "isFiat",
              "type": "bool"
            },
            {
              "internalType": "uint256",
              "name": "closedAmount",
              "type": "uint256"
            }
          ],
          "indexed": false,
          "internalType": "struct DataTypes.Loan",
          "name": "loanInfo",
          "type": "tuple"
        },
        {
          "indexed": false,
          "internalType": "uint256",
          "name": "collateralAmount",
          "type": "uint256"
        },
        {
          "indexed": false,
          "internalType": "contract IERC20Standard",
          "name": "collateral",
          "type": "address"
        },
        {
          "indexed": false,
          "internalType": "bool",
          "name": "isETH",
          "type": "bool"
        }
      ],
      "name": "WithdrawAllCollateral",
      "type": "event"
    },
    {
      "anonymous": false,
      "inputs": [
        {
          "indexed": true,
          "internalType": "address",
          "name": "admin",
          "type": "address"
        },
        {
          "components": [
            {
              "internalType": "uint256",
              "name": "loanId",
              "type": "uint256"
            },
            {
              "internalType": "bool",
              "name": "isPaid",
              "type": "bool"
            },
            {
              "internalType": "uint256",
              "name": "amount",
              "type": "uint256"
            },
            {
              "internalType": "bool",
              "name": "isClosed",
              "type": "bool"
            },
            {
              "internalType": "address",
              "name": "borrower",
              "type": "address"
            },
            {
              "internalType": "bool",
              "name": "isLiquidated",
              "type": "bool"
            },
            {
              "internalType": "contract IERC20Standard",
              "name": "stableCoin",
              "type": "address"
            },
            {
              "internalType": "bool",
              "name": "isFinalty",
              "type": "bool"
            },
            {
              "internalType": "bool",
              "name": "isFiat",
              "type": "bool"
            },
            {
              "internalType": "uint256",
              "name": "closedAmount",
              "type": "uint256"
            }
          ],
          "indexed": false,
          "internalType": "struct DataTypes.Loan",
          "name": "loanInfo",
          "type": "tuple"
        },
        {
          "indexed": false,
          "internalType": "uint256",
          "name": "collateralAmount",
          "type": "uint256"
        },
        {
          "indexed": false,
          "internalType": "contract IERC20Standard",
          "name": "collateral",
          "type": "address"
        },
        {
          "indexed": false,
          "internalType": "bool",
          "name": "isETH",
          "type": "bool"
        }
      ],
      "name": "WithdrawAllCollateralByAdmin",
      "type": "event"
    },
    {
      "anonymous": false,
      "inputs": [
        {
          "indexed": true,
          "internalType": "address",
          "name": "borrower",
          "type": "address"
        },
        {
          "components": [
            {
              "internalType": "uint256",
              "name": "loanId",
              "type": "uint256"
            },
            {
              "internalType": "bool",
              "name": "isPaid",
              "type": "bool"
            },
            {
              "internalType": "uint256",
              "name": "amount",
              "type": "uint256"
            },
            {
              "internalType": "bool",
              "name": "isClosed",
              "type": "bool"
            },
            {
              "internalType": "address",
              "name": "borrower",
              "type": "address"
            },
            {
              "internalType": "bool",
              "name": "isLiquidated",
              "type": "bool"
            },
            {
              "internalType": "contract IERC20Standard",
              "name": "stableCoin",
              "type": "address"
            },
            {
              "internalType": "bool",
              "name": "isFinalty",
              "type": "bool"
            },
            {
              "internalType": "bool",
              "name": "isFiat",
              "type": "bool"
            },
            {
              "internalType": "uint256",
              "name": "closedAmount",
              "type": "uint256"
            }
          ],
          "indexed": false,
          "internalType": "struct DataTypes.Loan",
          "name": "loanInfo",
          "type": "tuple"
        }
      ],
      "name": "WithdrawLoan",
      "type": "event"
    },
    {
      "inputs": [
        {
          "internalType": "contract IERC20Standard",
          "name": "",
          "type": "address"
        }
      ],
      "name": "aTokens",
      "outputs": [
        {
          "internalType": "contract IERC20Standard",
          "name": "",
          "type": "address"
        }
      ],
      "stateMutability": "view",
      "type": "function"
    },
    {
      "inputs": [
        {
          "internalType": "uint256",
          "name": "_loanId",
          "type": "uint256"
        },
        {
          "internalType": "uint256",
          "name": "_amountCollateral",
          "type": "uint256"
        },
        {
          "internalType": "contract IERC20Standard",
          "name": "_collateral",
          "type": "address"
        }
      ],
      "name": "addCollateral",
      "outputs": [],
      "stateMutability": "nonpayable",
      "type": "function"
    },
    {
      "inputs": [
        {
          "internalType": "uint256",
          "name": "_loanId",
          "type": "uint256"
        },
        {
          "internalType": "uint256",
          "name": "_amountETH",
          "type": "uint256"
        }
      ],
      "name": "addCollateralByETH",
      "outputs": [],
      "stateMutability": "payable",
      "type": "function"
    },
    {
      "inputs": [
        {
          "internalType": "uint256",
          "name": "_loanId",
          "type": "uint256"
        },
        {
          "internalType": "uint256",
          "name": "_amountCollateral",
          "type": "uint256"
        }
      ],
      "name": "addCollateralHealthFactor",
      "outputs": [
        {
          "internalType": "uint256",
          "name": "",
          "type": "uint256"
        }
      ],
      "stateMutability": "view",
      "type": "function"
    },
    {
      "inputs": [
        {
          "internalType": "contract IERC20Standard",
          "name": "",
          "type": "address"
        }
      ],
      "name": "ccflActiveCoins",
      "outputs": [
        {
          "internalType": "bool",
          "name": "",
          "type": "bool"
        }
      ],
      "stateMutability": "view",
      "type": "function"
    },
    {
      "inputs": [],
      "name": "ccflConfig",
      "outputs": [
        {
          "internalType": "contract ICCFLConfig",
          "name": "",
          "type": "address"
        }
      ],
      "stateMutability": "view",
      "type": "function"
    },
    {
      "inputs": [],
      "name": "ccflLoan",
      "outputs": [
        {
          "internalType": "contract ICCFLLoan",
          "name": "",
          "type": "address"
        }
      ],
      "stateMutability": "view",
      "type": "function"
    },
    {
      "inputs": [
        {
          "internalType": "uint256",
          "name": "",
          "type": "uint256"
        }
      ],
      "name": "ccflPoolStableCoins",
      "outputs": [
        {
          "internalType": "contract IERC20Standard",
          "name": "",
          "type": "address"
        }
      ],
      "stateMutability": "view",
      "type": "function"
    },
    {
      "inputs": [
        {
          "internalType": "contract IERC20Standard",
          "name": "",
          "type": "address"
        }
      ],
      "name": "ccflPools",
      "outputs": [
        {
          "internalType": "contract ICCFLPool",
          "name": "",
          "type": "address"
        }
      ],
      "stateMutability": "view",
      "type": "function"
    },
    {
      "inputs": [
        {
          "internalType": "contract IERC20Standard[]",
          "name": "array",
          "type": "address[]"
        },
        {
          "internalType": "contract IERC20Standard",
          "name": "el",
          "type": "address"
        }
      ],
      "name": "checkExistElement",
      "outputs": [
        {
          "internalType": "bool",
          "name": "",
          "type": "bool"
        }
      ],
      "stateMutability": "pure",
      "type": "function"
    },
    {
      "inputs": [
        {
          "internalType": "uint256",
          "name": "_amount",
          "type": "uint256"
        },
        {
          "internalType": "contract IERC20Standard",
          "name": "_stableCoin",
          "type": "address"
        },
        {
          "internalType": "contract IERC20Standard",
          "name": "_collateral",
          "type": "address"
        }
      ],
      "name": "checkMinimalCollateralForLoan",
      "outputs": [
        {
          "internalType": "uint256",
          "name": "",
          "type": "uint256"
        }
      ],
      "stateMutability": "view",
      "type": "function"
    },
    {
      "inputs": [
        {
          "internalType": "uint256",
          "name": "",
          "type": "uint256"
        }
      ],
      "name": "collateralTokens",
      "outputs": [
        {
          "internalType": "contract IERC20Standard",
          "name": "",
          "type": "address"
        }
      ],
      "stateMutability": "view",
      "type": "function"
    },
    {
      "inputs": [
        {
          "internalType": "uint256",
          "name": "_amount",
          "type": "uint256"
        },
        {
          "internalType": "contract IERC20Standard",
          "name": "_stableCoin",
          "type": "address"
        },
        {
          "internalType": "uint256",
          "name": "_amountCollateral",
          "type": "uint256"
        },
        {
          "internalType": "contract IERC20Standard",
          "name": "_collateral",
          "type": "address"
        },
        {
          "internalType": "bool",
          "name": "_isYieldGenerating",
          "type": "bool"
        },
        {
          "internalType": "bool",
          "name": "_isFiat",
          "type": "bool"
        }
      ],
      "name": "createLoan",
      "outputs": [],
      "stateMutability": "nonpayable",
      "type": "function"
    },
    {
      "inputs": [
        {
          "internalType": "uint256",
          "name": "_amount",
          "type": "uint256"
        },
        {
          "internalType": "contract IERC20Standard",
          "name": "_stableCoin",
          "type": "address"
        },
        {
          "internalType": "uint256",
          "name": "_amountETH",
          "type": "uint256"
        },
        {
          "internalType": "bool",
          "name": "_isYieldGenerating",
          "type": "bool"
        },
        {
          "internalType": "bool",
          "name": "_isFiat",
          "type": "bool"
        }
      ],
      "name": "createLoanByETH",
      "outputs": [],
      "stateMutability": "payable",
      "type": "function"
    },
    {
      "inputs": [
        {
          "internalType": "contract IERC20Standard",
          "name": "_stableCoin",
          "type": "address"
        },
        {
          "internalType": "uint256",
          "name": "_amount",
          "type": "uint256"
        },
        {
          "internalType": "contract IERC20Standard",
          "name": "_collateralToken",
          "type": "address"
        },
        {
          "internalType": "uint256",
          "name": "_amountCollateral",
          "type": "uint256"
        }
      ],
      "name": "estimateHealthFactor",
      "outputs": [
        {
          "internalType": "uint256",
          "name": "",
          "type": "uint256"
        }
      ],
      "stateMutability": "view",
      "type": "function"
    },
    {
      "inputs": [
        {
          "internalType": "uint256",
          "name": "_loanId",
          "type": "uint256"
        }
      ],
      "name": "getHealthFactor",
      "outputs": [
        {
          "internalType": "uint256",
          "name": "",
          "type": "uint256"
        }
      ],
      "stateMutability": "view",
      "type": "function"
    },
    {
      "inputs": [
        {
          "internalType": "contract IERC20Standard",
          "name": "_stableCoin",
          "type": "address"
        },
        {
          "internalType": "bool",
          "name": "isPool",
          "type": "bool"
        }
      ],
      "name": "getLatestPrice",
      "outputs": [
        {
          "internalType": "uint256",
          "name": "",
          "type": "uint256"
        }
      ],
      "stateMutability": "view",
      "type": "function"
    },
    {
      "inputs": [
        {
          "internalType": "uint256",
          "name": "_loanId",
          "type": "uint256"
        }
      ],
      "name": "getLoanAddress",
      "outputs": [
        {
          "internalType": "address",
          "name": "",
          "type": "address"
        }
      ],
      "stateMutability": "view",
      "type": "function"
    },
    {
      "inputs": [
        {
          "internalType": "address",
          "name": "borrower",
          "type": "address"
        }
      ],
      "name": "getLoanIds",
      "outputs": [
        {
          "internalType": "uint256[]",
          "name": "",
          "type": "uint256[]"
        }
      ],
      "stateMutability": "view",
      "type": "function"
    },
    {
      "inputs": [
        {
          "internalType": "contract IERC20Standard[]",
          "name": "_ccflPoolStableCoin",
          "type": "address[]"
        },
        {
          "internalType": "contract AggregatorV3Interface[]",
          "name": "_poolAggregators",
          "type": "address[]"
        },
        {
          "internalType": "contract ICCFLPool[]",
          "name": "_ccflPools",
          "type": "address[]"
        },
        {
          "internalType": "contract IERC20Standard[]",
          "name": "_collateralTokens",
          "type": "address[]"
        },
        {
          "internalType": "contract AggregatorV3Interface[]",
          "name": "_collateralAggregators",
          "type": "address[]"
        },
        {
          "internalType": "contract IERC20Standard[]",
          "name": "_aTokens",
          "type": "address[]"
        },
        {
          "internalType": "contract ICCFLConfig",
          "name": "_ccflConfig",
          "type": "address"
        },
        {
          "internalType": "contract ICCFLLoan",
          "name": "_ccflLoan",
          "type": "address"
        }
      ],
      "name": "initialize",
      "outputs": [],
      "stateMutability": "nonpayable",
      "type": "function"
    },
    {
      "inputs": [],
      "name": "isPaused",
      "outputs": [
        {
          "internalType": "bool",
          "name": "",
          "type": "bool"
        }
      ],
      "stateMutability": "view",
      "type": "function"
    },
    {
      "inputs": [
        {
          "internalType": "uint256",
          "name": "_loanId",
          "type": "uint256"
        }
      ],
      "name": "liquidate",
      "outputs": [],
      "stateMutability": "nonpayable",
      "type": "function"
    },
    {
      "inputs": [],
      "name": "loandIds",
      "outputs": [
        {
          "internalType": "uint256",
          "name": "",
          "type": "uint256"
        }
      ],
      "stateMutability": "view",
      "type": "function"
    },
    {
      "inputs": [
        {
          "internalType": "address",
          "name": "",
          "type": "address"
        }
      ],
      "name": "operators",
      "outputs": [
        {
          "internalType": "bool",
          "name": "",
          "type": "bool"
        }
      ],
      "stateMutability": "view",
      "type": "function"
    },
    {
      "inputs": [],
      "name": "owner",
      "outputs": [
        {
          "internalType": "address",
          "name": "",
          "type": "address"
        }
      ],
      "stateMutability": "view",
      "type": "function"
    },
    {
      "inputs": [
        {
          "internalType": "contract IERC20Standard",
          "name": "",
          "type": "address"
        }
      ],
      "name": "priceFeeds",
      "outputs": [
        {
          "internalType": "contract AggregatorV3Interface",
          "name": "",
          "type": "address"
        }
      ],
      "stateMutability": "view",
      "type": "function"
    },
    {
      "inputs": [
        {
          "internalType": "contract IERC20Standard",
          "name": "",
          "type": "address"
        }
      ],
      "name": "pricePoolFeeds",
      "outputs": [
        {
          "internalType": "contract AggregatorV3Interface",
          "name": "",
          "type": "address"
        }
      ],
      "stateMutability": "view",
      "type": "function"
    },
    {
      "inputs": [
        {
          "internalType": "uint256",
          "name": "_loanId",
          "type": "uint256"
        },
        {
          "internalType": "uint256",
          "name": "_amount",
          "type": "uint256"
        }
      ],
      "name": "repayHealthFactor",
      "outputs": [
        {
          "internalType": "uint256",
          "name": "",
          "type": "uint256"
        }
      ],
      "stateMutability": "view",
      "type": "function"
    },
    {
      "inputs": [
        {
          "internalType": "uint256",
          "name": "_loanId",
          "type": "uint256"
        },
        {
          "internalType": "uint256",
          "name": "_amount",
          "type": "uint256"
        },
        {
          "internalType": "contract IERC20Standard",
          "name": "_stableCoin",
          "type": "address"
        }
      ],
      "name": "repayLoan",
      "outputs": [],
      "stateMutability": "nonpayable",
      "type": "function"
    },
    {
      "inputs": [
        {
          "internalType": "contract IERC20Standard",
          "name": "_token",
          "type": "address"
        },
        {
          "internalType": "bool",
          "name": "_isActived",
          "type": "bool"
        },
        {
          "internalType": "bool",
          "name": "_isPoolToken",
          "type": "bool"
        }
      ],
      "name": "setActiveToken",
      "outputs": [],
      "stateMutability": "nonpayable",
      "type": "function"
    },
    {
      "inputs": [
        {
          "internalType": "contract ICCFLLoan",
          "name": "_loan",
          "type": "address"
        }
      ],
      "name": "setCCFLLoan",
      "outputs": [],
      "stateMutability": "nonpayable",
      "type": "function"
    },
    {
      "inputs": [
        {
          "internalType": "contract IERC20Standard[]",
          "name": "_collateralTokens",
          "type": "address[]"
        },
        {
          "internalType": "contract AggregatorV3Interface[]",
          "name": "_collateralAggregators",
          "type": "address[]"
        },
        {
          "internalType": "contract IERC20Standard[]",
          "name": "_aTokens",
          "type": "address[]"
        }
      ],
      "name": "setCollaterals",
      "outputs": [],
      "stateMutability": "nonpayable",
      "type": "function"
    },
    {
      "inputs": [
        {
          "internalType": "address[]",
          "name": "_addresses",
          "type": "address[]"
        },
        {
          "internalType": "bool[]",
          "name": "_isActives",
          "type": "bool[]"
        }
      ],
      "name": "setOperators",
      "outputs": [],
      "stateMutability": "nonpayable",
      "type": "function"
    },
    {
      "inputs": [
        {
          "internalType": "bool",
          "name": "_paused",
          "type": "bool"
        }
      ],
      "name": "setPaused",
      "outputs": [],
      "stateMutability": "nonpayable",
      "type": "function"
    },
    {
      "inputs": [
        {
          "internalType": "contract IERC20Standard[]",
          "name": "_ccflPoolStableCoin",
          "type": "address[]"
        },
        {
          "internalType": "contract AggregatorV3Interface[]",
          "name": "_poolAggregators",
          "type": "address[]"
        },
        {
          "internalType": "contract ICCFLPool[]",
          "name": "_ccflPools",
          "type": "address[]"
        }
      ],
      "name": "setPools",
      "outputs": [],
      "stateMutability": "nonpayable",
      "type": "function"
    },
    {
      "inputs": [
        {
          "internalType": "address",
          "name": "",
          "type": "address"
        },
        {
          "internalType": "uint256",
          "name": "",
          "type": "uint256"
        }
      ],
      "name": "userLoans",
      "outputs": [
        {
          "internalType": "uint256",
          "name": "",
          "type": "uint256"
        }
      ],
      "stateMutability": "view",
      "type": "function"
    },
    {
      "inputs": [
        {
          "internalType": "uint256",
          "name": "_loanId",
          "type": "uint256"
        },
        {
          "internalType": "bool",
          "name": "_isETH",
          "type": "bool"
        }
      ],
      "name": "withdrawAllCollateral",
      "outputs": [],
      "stateMutability": "nonpayable",
      "type": "function"
    },
    {
      "inputs": [
        {
          "internalType": "uint256",
          "name": "_loanId",
          "type": "uint256"
        },
        {
          "internalType": "bool",
          "name": "isETH",
          "type": "bool"
        }
      ],
      "name": "withdrawAllCollateralByAdmin",
      "outputs": [],
      "stateMutability": "nonpayable",
      "type": "function"
    },
    {
      "inputs": [
        {
          "internalType": "contract IERC20Standard",
          "name": "_stableCoin",
          "type": "address"
        },
        {
          "internalType": "uint256",
          "name": "_loanId",
          "type": "uint256"
        }
      ],
      "name": "withdrawFiatLoan",
      "outputs": [],
      "stateMutability": "nonpayable",
      "type": "function"
    },
    {
      "inputs": [
        {
          "internalType": "contract IERC20Standard",
          "name": "_stableCoin",
          "type": "address"
        },
        {
          "internalType": "uint256",
          "name": "_loanId",
          "type": "uint256"
        }
      ],
      "name": "withdrawLoan",
      "outputs": [],
      "stateMutability": "nonpayable",
      "type": "function"
    },
    {
      "stateMutability": "payable",
      "type": "receive"
    }
  ],
  "bytecode": "0x608060405234801561001057600080fd5b50615d8280620000216000396000f3fe6080604052600436106102bf5760003560e01c80638ba02e1c1161016e578063c0d01546116100cb578063eabfa9c51161007f578063ef3c5d2511610064578063ef3c5d251461080a578063f43050351461082a578063fdb2b32c1461084a57600080fd5b8063eabfa9c5146107ca578063ec7be39d146107ea57600080fd5b8063cff212e6116100b0578063cff212e614610777578063d8bad5bd1461078a578063e43b03d6146107aa57600080fd5b8063c0d0154614610721578063c694fdc11461075757600080fd5b8063a8700c3c11610122578063b187bd2611610107578063b187bd26146106cd578063b3bffeaa146106ee578063b5dbde5f1461070e57600080fd5b8063a8700c3c1461068d578063af6a85c4146106ad57600080fd5b80638da5cb5b116101535780638da5cb5b14610601578063989397d4146106215780639dcb511a1461065757600080fd5b80638ba02e1c146105cb5780638ba2444e146105e157600080fd5b80633a2ad9ae1161021c57806364b52097116101d05780636eb0fdd0116101b55780636eb0fdd01461056b5780636f43d3dd1461058b5780638858ddc5146105ab57600080fd5b806364b520971461051e5780636b64c8851461053e57600080fd5b8063415f124011610201578063415f1240146104be578063474843ea146104de5780635c8edac4146104fe57600080fd5b80633a2ad9ae146104685780633e108ad91461048857600080fd5b806317845c69116102735780631d9eb5d9116102585780631d9eb5d91461040857806325e9d2fa14610428578063301356411461044857600080fd5b806317845c69146103ba5780631bb514cf146103e857600080fd5b806313e7c9d8116102a457806313e7c9d81461033257806316c38b3c14610362578063172c48c71461038257600080fd5b80630769594d146102cb57806309372a3c146102ed57600080fd5b366102c657005b600080fd5b3480156102d757600080fd5b506102eb6102e6366004615083565b610880565b005b3480156102f957600080fd5b5061031d61030836600461510b565b60056020526000908152604090205460ff1681565b60405190151581526020015b60405180910390f35b34801561033e57600080fd5b5061031d61034d36600461510b565b60006020819052908152604090205460ff1681565b34801561036e57600080fd5b506102eb61037d36600461513d565b610a8e565b34801561038e57600080fd5b506103a261039d36600461515a565b610b0c565b6040516001600160a01b039091168152602001610329565b3480156103c657600080fd5b506103da6103d536600461515a565b610b36565b604051908152602001610329565b3480156103f457600080fd5b506103da610403366004615173565b610cb4565b34801561041457600080fd5b5061031d6104233660046151b5565b610e6c565b34801561043457600080fd5b506103da610443366004615207565b610ec7565b34801561045457600080fd5b50600c546103a2906001600160a01b031681565b34801561047457600080fd5b506102eb610483366004615229565b61103d565b34801561049457600080fd5b506103a26104a336600461510b565b6007602052600090815260409020546001600160a01b031681565b3480156104ca57600080fd5b506102eb6104d936600461515a565b6111e2565b3480156104ea57600080fd5b506102eb6104f936600461510b565b6119d4565b34801561050a57600080fd5b506102eb610519366004615274565b611a3b565b34801561052a57600080fd5b506102eb610539366004615083565b611ce3565b34801561054a57600080fd5b5061055e61055936600461510b565b611ee0565b6040516103299190615299565b34801561057757600080fd5b506102eb6105863660046152dd565b611f4c565b34801561059757600080fd5b506102eb6105a636600461530b565b612689565b3480156105b757600080fd5b506103da6105c6366004615337565b6128fa565b3480156105d757600080fd5b506103da60015481565b3480156105ed57600080fd5b50600d546103a2906001600160a01b031681565b34801561060d57600080fd5b50600a546103a2906001600160a01b031681565b34801561062d57600080fd5b506103a261063c36600461510b565b6009602052600090815260409020546001600160a01b031681565b34801561066357600080fd5b506103a261067236600461510b565b6008602052600090815260409020546001600160a01b031681565b34801561069957600080fd5b506102eb6106a836600461537f565b612ad4565b3480156106b957600080fd5b506102eb6106c8366004615274565b612dd0565b3480156106d957600080fd5b50600a5461031d90600160a01b900460ff1681565b3480156106fa57600080fd5b506103da6107093660046153ef565b612e92565b6102eb61071c36600461541d565b612f93565b34801561072d57600080fd5b506103a261073c36600461510b565b6002602052600090815260409020546001600160a01b031681565b34801561076357600080fd5b506103a261077236600461515a565b6133e1565b6102eb610785366004615207565b6133f1565b34801561079657600080fd5b506103da6107a536600461530b565b613845565b3480156107b657600080fd5b506103da6107c5366004615207565b613876565b3480156107d657600080fd5b506102eb6107e536600461547c565b6139eb565b3480156107f657600080fd5b506102eb61080536600461530b565b613dbc565b34801561081657600080fd5b506102eb6108253660046152dd565b613efb565b34801561083657600080fd5b506102eb6108453660046155fc565b614200565b34801561085657600080fd5b506103a261086536600461515a565b6000908152600460205260409020546001600160a01b031690565b33600090815260208181526040918290205482518084019093526002835261062760f31b9183019190915260ff1615156001146108d95760405162461bcd60e51b81526004016108d091906156be565b60405180910390fd5b5060005b8351811015610a885760008482815181106108fa576108fa61570d565b60200260200101519050610968600380548060200260200160405190810160405280929190818152602001828054801561095d57602002820191906000526020600020905b81546001600160a01b0316815260019091019060200180831161093f575b505050505082610e6c565b15156000036109bd57600380546001810182556000919091527fc2575a0e9e593c00f959f8c92f12db2869c3395a3b0502d05e2516446f71f85b0180546001600160a01b0319166001600160a01b0383161790555b8282815181106109cf576109cf61570d565b602002602001015160026000836001600160a01b03166001600160a01b0316815260200190815260200160002060006101000a8154816001600160a01b0302191690836001600160a01b03160217905550838281518110610a3257610a3261570d565b6020908102919091018101516001600160a01b03928316600090815260098352604080822080546001600160a01b0319169590931694909417909155600590915220805460ff19166001908117909155016108dd565b50505050565b600a546040805180820190915260018152601960f91b6020820152906001600160a01b03163314610ad25760405162461bcd60e51b81526004016108d091906156be565b50600a8054911515600160a01b027fffffffffffffffffffffff00ffffffffffffffffffffffffffffffffffffffff909216919091179055565b60068181548110610b1c57600080fd5b6000918252602090912001546001600160a01b0316905081565b6000818152600460208190526040808320548151635d3e2fa160e01b815291516001600160a01b039091169284928492635d3e2fa192828101926101409291908290030181865afa158015610b8f573d6000803e3d6000fd5b505050506040513d601f19601f82011682018060405250810190610bb39190615739565b60c08101516001600160a01b0390811660009081526002602052604080822054905163a52f38d160e01b815260048101899052939450909291169063a52f38d190602401602060405180830381865afa158015610c14573d6000803e3d6000fd5b505050506040513d601f19601f82011682018060405250810190610c3891906157ee565b604051632696439560e11b815260048101829052600060248201529091506001600160a01b03841690634d2c872a90604401602060405180830381865afa158015610c87573d6000803e3d6000fd5b505050506040513d601f19601f82011682018060405250810190610cab91906157ee565b95945050505050565b6000806000600c60009054906101000a90046001600160a01b03166001600160a01b031663e75235b86040518163ffffffff1660e01b81526004016040805180830381865afa158015610d0b573d6000803e3d6000fd5b505050506040513d601f19601f82011682018060405250810190610d2f9190615807565b91509150610d3e846000612e92565b82866001600160a01b031663313ce5676040518163ffffffff1660e01b8152600401602060405180830381865afa158015610d7d573d6000803e3d6000fd5b505050506040513d601f19601f82011682018060405250810190610da1919061582b565b610dac90600a615948565b610db7886001612e92565b876001600160a01b031663313ce5676040518163ffffffff1660e01b8152600401602060405180830381865afa158015610df5573d6000803e3d6000fd5b505050506040513d601f19601f82011682018060405250810190610e19919061582b565b610e2490600a615948565b610e2e908b615957565b610e3a90612710615957565b610e449190615957565b610e4e919061596e565b610e58919061596e565b610e62919061596e565b9695505050505050565b600080805b8451811015610ebd57836001600160a01b0316858281518110610e9657610e9661570d565b60200260200101516001600160a01b031603610eb55760019150610ebd565b600101610e71565b5090505b92915050565b6000828152600460208190526040808320548151635d3e2fa160e01b815291516001600160a01b039091169284928492635d3e2fa192828101926101409291908290030181865afa158015610f20573d6000803e3d6000fd5b505050506040513d601f19601f82011682018060405250810190610f449190615739565b60c08101516001600160a01b0390811660009081526002602052604080822054905163a52f38d160e01b8152600481018a9052939450909291169063a52f38d190602401602060405180830381865afa158015610fa5573d6000803e3d6000fd5b505050506040513d601f19601f82011682018060405250810190610fc991906157ee565b604051632696439560e11b815260048101829052602481018790529091506001600160a01b03841690634d2c872a906044015b602060405180830381865afa158015611019573d6000803e3d6000fd5b505050506040513d601f19601f82011682018060405250810190610e6291906157ee565b33600090815260208181526040918290205482518084019093526002835261062760f31b9183019190915260ff16151560011461108d5760405162461bcd60e51b81526004016108d091906156be565b50801561117b576110f860038054806020026020016040519081016040528092919081815260200182805480156110ed57602002820191906000526020600020905b81546001600160a01b031681526001909101906020018083116110cf575b505050505084610e6c565b6040805180820190915260018082527f35000000000000000000000000000000000000000000000000000000000000006020830152909115151461114f5760405162461bcd60e51b81526004016108d091906156be565b506001600160a01b0383166000908152600560205260409020805483151560ff19909116179055505050565b6110f860068054806020026020016040519081016040528092919081815260200182805480156110ed576020028201919060005260206000209081546001600160a01b031681526001909101906020018083116110cf57505050505084610e6c565b505050565b600a54604080518082019091526002815261323160f01b602082015290600160a01b900460ff16156112275760405162461bcd60e51b81526004016108d091906156be565b506000818152600460208190526040808320548151635d3e2fa160e01b815291516001600160a01b0390911693928492635d3e2fa19281830192610140928290030181865afa15801561127e573d6000803e3d6000fd5b505050506040513d601f19601f820116820180604052508101906112a29190615739565b60c08101516001600160a01b0390811660009081526002602052604080822054905163a52f38d160e01b815260048101889052939450909291169063a52f38d190602401602060405180830381865afa158015611303573d6000803e3d6000fd5b505050506040513d601f19601f8201168201806040525081019061132791906157ee565b9050600080600080866001600160a01b031663415f1240866040518263ffffffff1660e01b815260040161135d91815260200190565b6080604051808303816000875af115801561137c573d6000803e3d6000fd5b505050506040513d601f19601f820116820180604052508101906113a09190615990565b93509350935093508560c001516001600160a01b03166323b872dd883086888a6113ca91906159c6565b6113d491906159c6565b6040517fffffffff0000000000000000000000000000000000000000000000000000000060e086901b1681526001600160a01b03938416600482015292909116602483015260448201526064016020604051808303816000875af1158015611440573d6000803e3d6000fd5b505050506040513d601f19601f8201168201806040525081019061146491906159d9565b5060c08601516001600160a01b039081166000818152600260205260409081902054905163095ea7b360e01b815292166004830152602482018790529063095ea7b3906044016020604051808303816000875af11580156114c9573d6000803e3d6000fd5b505050506040513d601f19601f820116820180604052508101906114ed91906159d9565b5060c08601516001600160a01b039081166000908152600260205260409081902054905163d8aed14560e01b8152600481018b90526024810188905291169063d8aed14590604401600060405180830381600087803b15801561154f57600080fd5b505af1158015611563573d6000803e3d6000fd5b50505050600080600c60009054906101000a90046001600160a01b03166001600160a01b0316633c0c45666040518163ffffffff1660e01b81526004016040805180830381865afa1580156115bc573d6000803e3d6000fd5b505050506040513d601f19601f820116820180604052508101906115e091906159f6565b60c08a01516040516323b872dd60e01b81526001600160a01b038d8116600483015280841660248301526044820189905293955091935091909116906323b872dd906064016020604051808303816000875af1158015611644573d6000803e3d6000fd5b505050506040513d601f19601f8201168201806040525081019061166891906159d9565b5060c08801516040516323b872dd60e01b81526001600160a01b038b81166004830152848116602483015260448201869052909116906323b872dd906064016020604051808303816000875af11580156116c6573d6000803e3d6000fd5b505050506040513d601f19601f820116820180604052508101906116ea91906159d9565b5060c08801516001600160a01b03908116600081815260026020526040902054909163095ea7b3911661171d888a6159c6565b6040517fffffffff0000000000000000000000000000000000000000000000000000000060e085901b1681526001600160a01b03909216600483015260248201526044016020604051808303816000875af1158015611780573d6000803e3d6000fd5b505050506040513d601f19601f820116820180604052508101906117a491906159d9565b5060c08801516001600160a01b03908116600090815260026020526040908190205490517f7f394031000000000000000000000000000000000000000000000000000000008152600481018d905260248101899052911690637f39403190604401600060405180830381600087803b15801561181f57600080fd5b505af1158015611833573d6000803e3d6000fd5b5050505060008511156118b35760c08801516001600160a01b03908116600090815260026020526040908190205490516326de36ff60e21b815260048101889052911690639b78dbfc90602401600060405180830381600087803b15801561189a57600080fd5b505af11580156118ae573d6000803e3d6000fd5b505050505b87608001516001600160a01b0316336001600160a01b03167f50ae99a0f4b29683aadd73511c3e176be68b159e0ad2bde41b7ad74a634fcd188a8c6001600160a01b031663315deeaa6040518163ffffffff1660e01b8152600401602060405180830381865afa15801561192b573d6000803e3d6000fd5b505050506040513d601f19601f8201168201806040525081019061194f91906157ee565b8d6001600160a01b031663964236636040518163ffffffff1660e01b8152600401602060405180830381865afa15801561198d573d6000803e3d6000fd5b505050506040513d601f19601f820116820180604052508101906119b19190615a25565b6040516119c093929190615aef565b60405180910390a350505050505050505050565b600a546040805180820190915260018152601960f91b6020820152906001600160a01b03163314611a185760405162461bcd60e51b81526004016108d091906156be565b50600d80546001600160a01b0319166001600160a01b0392909216919091179055565b600a54604080518082019091526002815261323160f01b602082015290600160a01b900460ff1615611a805760405162461bcd60e51b81526004016108d091906156be565b506000828152600460208190526040808320548151635d3e2fa160e01b815291516001600160a01b0390911693928492635d3e2fa19281830192610140928290030181865afa158015611ad7573d6000803e3d6000fd5b505050506040513d601f19601f82011682018060405250810190611afb9190615739565b905080608001516001600160a01b0316336001600160a01b0316146040518060400160405280600281526020017f323200000000000000000000000000000000000000000000000000000000000081525090611b6a5760405162461bcd60e51b81526004016108d091906156be565b5060808101516040516308165c1760e11b81526001600160a01b03918216600482015284151560248201529083169063102cb82e90604401600060405180830381600087803b158015611bbc57600080fd5b505af1158015611bd0573d6000803e3d6000fd5b50505050336001600160a01b03167fca342d978a428f07e2ddb65bd2d508b47435f260b9a4358d12bf17f8015a680e82846001600160a01b031663315deeaa6040518163ffffffff1660e01b8152600401602060405180830381865afa158015611c3e573d6000803e3d6000fd5b505050506040513d601f19601f82011682018060405250810190611c6291906157ee565b856001600160a01b031663964236636040518163ffffffff1660e01b8152600401602060405180830381865afa158015611ca0573d6000803e3d6000fd5b505050506040513d601f19601f82011682018060405250810190611cc49190615a25565b87604051611cd59493929190615b1d565b60405180910390a250505050565b33600090815260208181526040918290205482518084019093526002835261062760f31b9183019190915260ff161515600114611d335760405162461bcd60e51b81526004016108d091906156be565b5060005b8351811015610a88576000848281518110611d5457611d5461570d565b60200260200101519050611dc0600680548060200260200160405190810160405280929190818152602001828054801561095d576020028201919060005260206000209081546001600160a01b0316815260019091019060200180831161093f57505050505082610e6c565b1515600003611e1557600680546001810182556000919091527ff652222313e28459528d920b65115c16c04f3efc82aaedc97be59f3f377c0d3f0180546001600160a01b0319166001600160a01b0383161790555b838281518110611e2757611e2761570d565b602002602001015160086000836001600160a01b03166001600160a01b0316815260200190815260200160002060006101000a8154816001600160a01b0302191690836001600160a01b03160217905550828281518110611e8a57611e8a61570d565b6020908102919091018101516001600160a01b03928316600090815260078352604080822080546001600160a01b0319169590931694909417909155600590915220805460ff1916600190811790915501611d37565b6001600160a01b0381166000908152600b6020908152604091829020805483518184028101840190945280845260609392830182828015611f4057602002820191906000526020600020905b815481526020019060010190808311611f2c575b50505050509050919050565b6001600160a01b0381166000908152600560209081526040918290205482518084019093526001808452603360f81b9284019290925283929160ff909116151514611faa5760405162461bcd60e51b81526004016108d091906156be565b50600a54604080518082019091526002815261323160f01b602082015290600160a01b900460ff1615611ff05760405162461bcd60e51b81526004016108d091906156be565b506001600160a01b038281166000908152600260205260409081902054905163a52f38d160e01b8152600481018790528592919091169063a52f38d190602401602060405180830381865afa15801561204d573d6000803e3d6000fd5b505050506040513d601f19601f8201168201806040525081019061207191906157ee565b8411156120f7576001600160a01b038381166000908152600260205260409081902054905163a52f38d160e01b81526004810188905291169063a52f38d190602401602060405180830381865afa1580156120d0573d6000803e3d6000fd5b505050506040513d601f19601f820116820180604052508101906120f491906157ee565b90505b6000858152600460208190526040808320548151635d3e2fa160e01b815291516001600160a01b0390911693928492635d3e2fa19281830192610140928290030181865afa15801561214d573d6000803e3d6000fd5b505050506040513d601f19601f820116820180604052508101906121719190615739565b6040516323b872dd60e01b8152336004820152306024820152604481018590529091506001600160a01b038616906323b872dd906064016020604051808303816000875af11580156121c7573d6000803e3d6000fd5b505050506040513d601f19601f820116820180604052508101906121eb91906159d9565b506001600160a01b038581166000818152600260205260409081902054905163095ea7b360e01b815292166004830152602482018590529063095ea7b3906044016020604051808303816000875af115801561224b573d6000803e3d6000fd5b505050506040513d601f19601f8201168201806040525081019061226f91906159d9565b506001600160a01b038581166000908152600260205260409081902054905163d8aed14560e01b8152600481018a90526024810186905291169063d8aed14590604401600060405180830381600087803b1580156122cc57600080fd5b505af11580156122e0573d6000803e3d6000fd5b505050506001600160a01b0385811660009081526002602052604080822054905163a52f38d160e01b8152600481018b90529192169063a52f38d190602401602060405180830381865afa15801561233c573d6000803e3d6000fd5b505050506040513d601f19601f8201168201806040525081019061236091906157ee565b90508060000361263a5760008881526004602081905260408083205481517f232fa733000000000000000000000000000000000000000000000000000000008152825185946001600160a01b039093169363232fa7339383810193919291829003018187875af11580156123d8573d6000803e3d6000fd5b505050506040513d601f19601f820116820180604052508101906123fc9190615807565b909250905081156125115760008a8152600460208181526040808420546001600160a01b038d81168087526002909452948290205491516323b872dd60e01b8152908516938101939093529092166024820152604481018490526323b872dd906064016020604051808303816000875af115801561247e573d6000803e3d6000fd5b505050506040513d601f19601f820116820180604052508101906124a291906159d9565b506001600160a01b03888116600090815260026020526040908190205490516326de36ff60e21b815260048101859052911690639b78dbfc90602401600060405180830381600087803b1580156124f857600080fd5b505af115801561250c573d6000803e3d6000fd5b505050505b600c54604080517f3c0c4566000000000000000000000000000000000000000000000000000000008152815160009384936001600160a01b0390911692633c0c456692600480830193928290030181865afa158015612574573d6000803e3d6000fd5b505050506040513d601f19601f8201168201806040525081019061259891906159f6565b909250905082156126355760008c8152600460208190526040918290205491516323b872dd60e01b81526001600160a01b0392831691810191909152828216602482015260448101859052908b16906323b872dd906064016020604051808303816000875af115801561260f573d6000803e3d6000fd5b505050506040513d601f19601f8201168201806040525081019061263391906159d9565b505b505050505b336001600160a01b03167fadc378173a62bab769bed82749db12a50dc49a4a95c340b6a607dda354f8bfd883898460405161267793929190615b55565b60405180910390a25050505050505050565b33600090815260208181526040918290205482518084019093526002835261062760f31b9183019190915260ff1615156001146126d95760405162461bcd60e51b81526004016108d091906156be565b50600a54604080518082019091526002815261323160f01b602082015290600160a01b900460ff161561271f5760405162461bcd60e51b81526004016108d091906156be565b506000818152600460208190526040808320548151635d3e2fa160e01b815291516001600160a01b0390911693928492635d3e2fa19281830192610140928290030181865afa158015612776573d6000803e3d6000fd5b505050506040513d601f19601f8201168201806040525081019061279a9190615739565b61010081015160408051808201909152600281527f3139000000000000000000000000000000000000000000000000000000000000602082015291925015156001146127f95760405162461bcd60e51b81526004016108d091906156be565b506001600160a01b038481166000908152600260205260409081902054905163ec7be39d60e01b81523360048201526024810186905291169063ec7be39d906044015b600060405180830381600087803b15801561285657600080fd5b505af115801561286a573d6000803e3d6000fd5b50505050816001600160a01b031663fab320e96040518163ffffffff1660e01b8152600401600060405180830381600087803b1580156128a957600080fd5b505af11580156128bd573d6000803e3d6000fd5b50505050336001600160a01b03167fef41bc389463cc7bed371efb4b9809aaab2e8360be55f906e407bcf55f2314ee82604051611cd59190615b77565b600080612908866001612e92565b90506000612917856000612e92565b600c5460408051631cea46b760e31b8152815193945060009384936001600160a01b03169263e75235b892600480820193918290030181865afa158015612962573d6000803e3d6000fd5b505050506040513d601f19601f820116820180604052508101906129869190615807565b915091506000876001600160a01b031663313ce5676040518163ffffffff1660e01b8152600401602060405180830381865afa1580156129ca573d6000803e3d6000fd5b505050506040513d601f19601f820116820180604052508101906129ee919061582b565b6129f990600a615948565b61271083612a07878b615957565b612a119190615957565b612a1b919061596e565b612a25919061596e565b905060008a6001600160a01b031663313ce5676040518163ffffffff1660e01b8152600401602060405180830381865afa158015612a67573d6000803e3d6000fd5b505050506040513d601f19601f82011682018060405250810190612a8b919061582b565b612a9690600a615948565b612aa0878c615957565b612aaa919061596e565b9050600081612aba846064615957565b612ac4919061596e565b9c9b505050505050505050505050565b6001600160a01b0385166000908152600560209081526040918290205482518084019093526001808452603360f81b9284019290925287929160ff909116151514612b325760405162461bcd60e51b81526004016108d091906156be565b506001600160a01b0384166000908152600560209081526040918290205482518084019093526001808452600d60fa1b9284019290925286929160ff909116151514612b915760405162461bcd60e51b81526004016108d091906156be565b50600a54604080518082019091526002815261323160f01b602082015290600160a01b900460ff1615612bd75760405162461bcd60e51b81526004016108d091906156be565b50600c5460408051631cea46b760e31b8152815160009384936001600160a01b039091169263e75235b892600480830193928290030181865afa158015612c22573d6000803e3d6000fd5b505050506040513d601f19601f82011682018060405250810190612c469190615807565b91509150886001600160a01b031663313ce5676040518163ffffffff1660e01b8152600401602060405180830381865afa158015612c88573d6000803e3d6000fd5b505050506040513d601f19601f82011682018060405250810190612cac919061582b565b612cb790600a615948565b612cc28a6001612e92565b612ccc908c615957565b612cd890612710615957565b612ce2919061596e565b876001600160a01b031663313ce5676040518163ffffffff1660e01b8152600401602060405180830381865afa158015612d20573d6000803e3d6000fd5b505050506040513d601f19601f82011682018060405250810190612d44919061582b565b612d4f90600a615948565b83612d5b8a6000612e92565b612d65908c615957565b612d6f9190615957565b612d79919061596e565b1015604051806040016040528060018152602001603760f81b81525090612db35760405162461bcd60e51b81526004016108d091906156be565b50612dc48a8a8a8a8a8a60006142ba565b50505050505050505050565b600a546040805180820190915260018152601960f91b6020820152906001600160a01b03163314612e145760405162461bcd60e51b81526004016108d091906156be565b506000828152600460208190526040918290205491516308165c1760e11b8152339181019190915282151560248201526001600160a01b0390911690819063102cb82e90604401600060405180830381600087803b158015612e7557600080fd5b505af1158015612e89573d6000803e3d6000fd5b50505050505050565b60008115158103612f33576001600160a01b03808416600090815260086020526040808220548151633fabe5a360e21b8152915192938493849384938493169163feaf968c9160048082019260a0929091908290030181865afa158015612efd573d6000803e3d6000fd5b505050506040513d601f19601f82011682018060405250810190612f219190615ba0565b50919850610ec1975050505050505050565b6001600160a01b03808416600090815260096020526040808220548151633fabe5a360e21b8152915192938493849384938493169163feaf968c9160048082019260a0929091908290030181865afa158015612efd573d6000803e3d6000fd5b6001600160a01b0384166000908152600560209081526040918290205482518084019093526001808452603360f81b9284019290925286929160ff909116151514612ff15760405162461bcd60e51b81526004016108d091906156be565b50600c60009054906101000a90046001600160a01b03166001600160a01b0316639854db026040518163ffffffff1660e01b8152600401602060405180830381865afa158015613045573d6000803e3d6000fd5b505050506040513d601f19601f8201168201806040525081019061306991906159d9565b604080518082019091526002815261032360f41b60208201529015156001146130a55760405162461bcd60e51b81526004016108d091906156be565b50600a54604080518082019091526002815261323160f01b602082015290600160a01b900460ff16156130eb5760405162461bcd60e51b81526004016108d091906156be565b506040805180820190915260018152601b60f91b6020820152348511156131255760405162461bcd60e51b81526004016108d091906156be565b50600c5460408051636572f88f60e11b815290516000926001600160a01b03169163cae5f11e9160048083019260209291908290030181865afa158015613170573d6000803e3d6000fd5b505050506040513d601f19601f820116820180604052508101906131949190615a25565b9050806001600160a01b031663d0e30db0866040518263ffffffff1660e01b81526004016000604051808303818588803b1580156131d157600080fd5b505af11580156131e5573d6000803e3d6000fd5b5050600c5460408051631cea46b760e31b81528151600096508695506001600160a01b03909316935063e75235b892600480830193928290030181865afa158015613234573d6000803e3d6000fd5b505050506040513d601f19601f820116820180604052508101906132589190615807565b91509150876001600160a01b031663313ce5676040518163ffffffff1660e01b8152600401602060405180830381865afa15801561329a573d6000803e3d6000fd5b505050506040513d601f19601f820116820180604052508101906132be919061582b565b6132c990600a615948565b6132d4896001612e92565b6132de908b615957565b6132ea90612710615957565b6132f4919061596e565b836001600160a01b031663313ce5676040518163ffffffff1660e01b8152600401602060405180830381865afa158015613332573d6000803e3d6000fd5b505050506040513d601f19601f82011682018060405250810190613356919061582b565b61336190600a615948565b8361336d866000612e92565b613377908b615957565b6133819190615957565b61338b919061596e565b1015604051806040016040528060018152602001603760f81b815250906133c55760405162461bcd60e51b81526004016108d091906156be565b506133d6898989868a8a60006142ba565b505050505050505050565b60038181548110610b1c57600080fd5b600c60009054906101000a90046001600160a01b03166001600160a01b0316639854db026040518163ffffffff1660e01b8152600401602060405180830381865afa158015613444573d6000803e3d6000fd5b505050506040513d601f19601f8201168201806040525081019061346891906159d9565b604080518082019091526002815261032360f41b60208201529015156001146134a45760405162461bcd60e51b81526004016108d091906156be565b50600a54604080518082019091526002815261323160f01b602082015290600160a01b900460ff16156134ea5760405162461bcd60e51b81526004016108d091906156be565b506040805180820190915260018152601b60f91b6020820152348211156135245760405162461bcd60e51b81526004016108d091906156be565b50600c5460408051636572f88f60e11b815290516000926001600160a01b03169163cae5f11e9160048083019260209291908290030181865afa15801561356f573d6000803e3d6000fd5b505050506040513d601f19601f820116820180604052508101906135939190615a25565b9050806001600160a01b031663d0e30db0836040518263ffffffff1660e01b81526004016000604051808303818588803b1580156135d057600080fd5b505af11580156135e4573d6000803e3d6000fd5b5050506000858152600460208190526040808320548151635d3e2fa160e01b815291516001600160a01b0390911695509293508492635d3e2fa192828101926101409291908290030181865afa158015613642573d6000803e3d6000fd5b505050506040513d601f19601f820116820180604052508101906136669190615739565b604051633390ef1360e11b8152600481018690529091506001600160a01b03831690636721de2690602401600060405180830381600087803b1580156136ab57600080fd5b505af11580156136bf573d6000803e3d6000fd5b505060405163a9059cbb60e01b81526001600160a01b038581166004830152602482018890528616925063a9059cbb91506044016020604051808303816000875af1158015613712573d6000803e3d6000fd5b505050506040513d601f19601f8201168201806040525081019061373691906159d9565b50816001600160a01b0316631c783def6040518163ffffffff1660e01b8152600401602060405180830381865afa158015613775573d6000803e3d6000fd5b505050506040513d601f19601f8201168201806040525081019061379991906159d9565b15156001036137f657816001600160a01b03166307a6bf696040518163ffffffff1660e01b8152600401600060405180830381600087803b1580156137dd57600080fd5b505af11580156137f1573d6000803e3d6000fd5b505050505b336001600160a01b03167fe474797e92cecc3dd725263d8aa6b5ba5f84756e80f4cb9d15863ddc26c84acc82868660016040516138369493929190615b1d565b60405180910390a25050505050565b600b602052816000526040600020818154811061386157600080fd5b90600052602060002001600091509150505481565b6000828152600460208190526040808320548151635d3e2fa160e01b815291516001600160a01b039091169284928492635d3e2fa192828101926101409291908290030181865afa1580156138cf573d6000803e3d6000fd5b505050506040513d601f19601f820116820180604052508101906138f39190615739565b60c08101516001600160a01b0390811660009081526002602052604080822054905163a52f38d160e01b8152600481018a9052939450909291169063a52f38d190602401602060405180830381865afa158015613954573d6000803e3d6000fd5b505050506040513d601f19601f8201168201806040525081019061397891906157ee565b905080851061398f576201869f9350505050610ec1565b6001600160a01b038316634d2c872a6139a88784615bf0565b6040517fffffffff0000000000000000000000000000000000000000000000000000000060e084901b168152600481019190915260006024820152604401610ffc565b7ff0c57e16840df040f15088dc2f81fe391c3923bec73e23a9662efc9c229c6a00805468010000000000000000810460ff16159067ffffffffffffffff16600081158015613a365750825b905060008267ffffffffffffffff166001148015613a535750303b155b905081158015613a61575080155b15613a98576040517ff92ee8a900000000000000000000000000000000000000000000000000000000815260040160405180910390fd5b845467ffffffffffffffff191660011785558315613acc57845468ff00000000000000001916680100000000000000001785555b8c60039080519060200190613ae2929190614e7c565b506001805560005b600354811015613bef57600060038281548110613b0957613b0961570d565b6000918252602090912001548d516001600160a01b0390911691508d9083908110613b3657613b3661570d565b602002602001015160026000836001600160a01b03166001600160a01b0316815260200190815260200160002060006101000a8154816001600160a01b0302191690836001600160a01b031602179055508d8281518110613b9957613b9961570d565b6020908102919091018101516001600160a01b03928316600090815260098352604080822080546001600160a01b0319169590931694909417909155600590915220805460ff1916600190811790915501613aea565b508951613c039060069060208d0190614e7c565b5060005b600654811015613d0c57600060068281548110613c2657613c2661570d565b6000918252602090912001548b516001600160a01b0390911691508b9083908110613c5357613c5361570d565b602002602001015160086000836001600160a01b03166001600160a01b0316815260200190815260200160002060006101000a8154816001600160a01b0302191690836001600160a01b03160217905550898281518110613cb657613cb661570d565b6020908102919091018101516001600160a01b03928316600090815260078352604080822080546001600160a01b0319169590931694909417909155600590915220805460ff1916600190811790915501613c07565b50600a8054336001600160a01b03199182168117909255600091825260208290526040909120805460ff19166001179055600c805482166001600160a01b038a811691909117909155600d80549092169088161790558315613dad57845468ff000000000000000019168555604051600181527fc7f505b2f371ae2175ee4913f4499e1f2633a7b5936321eed1cdaeb6115181d29060200160405180910390a15b50505050505050505050505050565b6000818152600460208190526040808320548151635d3e2fa160e01b815291516001600160a01b0390911693928492635d3e2fa19281830192610140928290030181865afa158015613e12573d6000803e3d6000fd5b505050506040513d601f19601f82011682018060405250810190613e369190615739565b60808101519091506001600160a01b031633148015613e585750610100810151155b6040518060400160405280600181526020017f390000000000000000000000000000000000000000000000000000000000000081525090613eac5760405162461bcd60e51b81526004016108d091906156be565b506001600160a01b0384811660009081526002602052604090819020546080840151915163ec7be39d60e01b81529183166004830152602482018690529091169063ec7be39d9060440161283c565b6001600160a01b0381166000908152600560209081526040918290205482518084019093526001808452600d60fa1b9284019290925283929160ff909116151514613f595760405162461bcd60e51b81526004016108d091906156be565b50600a54604080518082019091526002815261323160f01b602082015290600160a01b900460ff1615613f9f5760405162461bcd60e51b81526004016108d091906156be565b506000848152600460208190526040808320548151635d3e2fa160e01b815291516001600160a01b0390911693928492635d3e2fa19281830192610140928290030181865afa158015613ff6573d6000803e3d6000fd5b505050506040513d601f19601f8201168201806040525081019061401a9190615739565b604051633390ef1360e11b8152600481018790529091506001600160a01b03831690636721de2690602401600060405180830381600087803b15801561405f57600080fd5b505af1158015614073573d6000803e3d6000fd5b50506040516323b872dd60e01b81523360048201526001600160a01b03858116602483015260448201899052871692506323b872dd91506064016020604051808303816000875af11580156140cc573d6000803e3d6000fd5b505050506040513d601f19601f820116820180604052508101906140f091906159d9565b50816001600160a01b0316631c783def6040518163ffffffff1660e01b8152600401602060405180830381865afa15801561412f573d6000803e3d6000fd5b505050506040513d601f19601f8201168201806040525081019061415391906159d9565b15156001036141b057816001600160a01b03166307a6bf696040518163ffffffff1660e01b8152600401600060405180830381600087803b15801561419757600080fd5b505af11580156141ab573d6000803e3d6000fd5b505050505b336001600160a01b03167fe474797e92cecc3dd725263d8aa6b5ba5f84756e80f4cb9d15863ddc26c84acc82878760006040516141f09493929190615b1d565b60405180910390a2505050505050565b600a546040805180820190915260018152601960f91b6020820152906001600160a01b031633146142445760405162461bcd60e51b81526004016108d091906156be565b5060005b82518110156111dd578181815181106142635761426361570d565b60200260200101516000808584815181106142805761428061570d565b6020908102919091018101516001600160a01b03168252810191909152604001600020805460ff1916911515919091179055600101614248565b6001600160a01b038087166000908152600260209081526040918290205482517f3b24cc2100000000000000000000000000000000000000000000000000000000815292518b949190911692633b24cc219260048083019391928290030181865afa15801561432d573d6000803e3d6000fd5b505050506040513d601f19601f8201168201806040525081019061435191906157ee565b10156040518060400160405280600181526020017f3800000000000000000000000000000000000000000000000000000000000000815250906143a75760405162461bcd60e51b81526004016108d091906156be565b506040805161014081018252600060208083018290526060830182905260a0830182905260e08301829052610120830182905233608084019081528385018c815260015485526001600160a01b038c811660c08701819052891515610100880190815290865260029094529386902054855191519251935196517f3870862b000000000000000000000000000000000000000000000000000000008152600481019290925260248201929092529183166044830152931515606482015291921690633870862b90608401600060405180830381600087803b15801561448b57600080fd5b505af115801561449f573d6000803e3d6000fd5b5050506001600160a01b03808916600090815260096020526040812054600d54908316935088926144d09116614df1565b600c5460408051631cea46b760e31b81528151939450849360009384936001600160a01b039091169263e75235b892600480830193928290030181865afa15801561451f573d6000803e3d6000fd5b505050506040513d601f19601f820116820180604052508101906145439190615807565b6001600160a01b0387811660009081526007602090815260408083205460089092529182902054600c5492517fa13cd37e0000000000000000000000000000000000000000000000000000000081529597509395508288169463a13cd37e946145c0948e948d94821693928216928f929190911690600401615c03565b600060405180830381600087803b1580156145da57600080fd5b505af11580156145ee573d6000803e3d6000fd5b50506040517f8ac1b7750000000000000000000000000000000000000000000000000000000081523060048201526001600160a01b0386169450638ac1b7759350602401915061463b9050565b600060405180830381600087803b15801561465557600080fd5b505af1158015614669573d6000803e3d6000fd5b505050506000806000600c60009054906101000a90046001600160a01b03166001600160a01b031663725c9c496040518163ffffffff1660e01b8152600401606060405180830381865afa1580156146c5573d6000803e3d6000fd5b505050506040513d601f19601f820116820180604052508101906146e99190615c50565b6040517f10ac5c3c0000000000000000000000000000000000000000000000000000000081526001600160a01b038085166004830152808416602483015280831660448301529396509194509250908516906310ac5c3c90606401600060405180830381600087803b15801561475e57600080fd5b505af1158015614772573d6000803e3d6000fd5b505050505050506000806000600c60009054906101000a90046001600160a01b03166001600160a01b031663c2dcadab6040518163ffffffff1660e01b8152600401606060405180830381865afa1580156147d1573d6000803e3d6000fd5b505050506040513d601f19601f820116820180604052508101906147f59190615c92565b6040517f6cb0ab5e00000000000000000000000000000000000000000000000000000000815260048101849052602481018390526044810182905292955090935091506001600160a01b03851690636cb0ab5e90606401600060405180830381600087803b15801561486657600080fd5b505af115801561487a573d6000803e3d6000fd5b505050505050506000806000600c60009054906101000a90046001600160a01b03166001600160a01b031663e56e56db6040518163ffffffff1660e01b8152600401606060405180830381865afa1580156148d9573d6000803e3d6000fd5b505050506040513d601f19601f820116820180604052508101906148fd9190615c92565b6040517ff3cf4ada00000000000000000000000000000000000000000000000000000000815260048101849052602481018390526044810182905292955090935091506001600160a01b0385169063f3cf4ada90606401600060405180830381600087803b15801561496e57600080fd5b505af1158015614982573d6000803e3d6000fd5b505050505050506000600c60009054906101000a90046001600160a01b03166001600160a01b031663365bef00858e6040518363ffffffff1660e01b81526004016149e39291906001600160a01b0392831681529116602082015260400190565b602060405180830381865afa158015614a00573d6000803e3d6000fd5b505050506040513d601f19601f82011682018060405250810190614a249190615cc0565b6040517f805a288f00000000000000000000000000000000000000000000000000000000815262ffffff821660048201529091506001600160a01b0383169063805a288f90602401600060405180830381600087803b158015614a8657600080fd5b505af1158015614a9a573d6000803e3d6000fd5b505050508615156000039050614b8357604051633390ef1360e11b8152600481018b90526001600160a01b03821690636721de2690602401600060405180830381600087803b158015614aec57600080fd5b505af1158015614b00573d6000803e3d6000fd5b50506040516323b872dd60e01b81523360048201526001600160a01b038581166024830152604482018e90528c1692506323b872dd91506064016020604051808303816000875af1158015614b59573d6000803e3d6000fd5b505050506040513d601f19601f82011682018060405250810190614b7d91906159d9565b50614cd0565b604051633390ef1360e11b8152600481018b90526001600160a01b03821690636721de2690602401600060405180830381600087803b158015614bc557600080fd5b505af1158015614bd9573d6000803e3d6000fd5b505050506000600c60009054906101000a90046001600160a01b03166001600160a01b031663cae5f11e6040518163ffffffff1660e01b8152600401602060405180830381865afa158015614c32573d6000803e3d6000fd5b505050506040513d601f19601f82011682018060405250810190614c569190615a25565b60405163a9059cbb60e01b81526001600160a01b038581166004830152602482018e90529192509082169063a9059cbb906044016020604051808303816000875af1158015614ca9573d6000803e3d6000fd5b505050506040513d601f19601f82011682018060405250810190614ccd91906159d9565b50505b871515600103614d2e57806001600160a01b03166307a6bf696040518163ffffffff1660e01b8152600401600060405180830381600087803b158015614d1557600080fd5b505af1158015614d29573d6000803e3d6000fd5b505050505b60018054600090815260046020818152604080842080546001600160a01b0319166001600160a01b038881169190911790915533808652600b845282862087548154808a018355918852858820909101559554855292909152918290205491517fbc2d4eb506fbd7b120aab5a0c94776c0416f23ed12a154e146f923454a80390e92614dc692169089908f908f908f908e1590615ce5565b60405180910390a260018054906000614dde83615d33565b9190505550505050505050505050505050565b6000763d602d80600a3d3981f3363d3d373d3d3d363d730000008260601b60e81c176000526e5af43d82803e903d91602b57fd5bf38260781b17602052603760096000f090506001600160a01b038116614e77576040517fc2f868f400000000000000000000000000000000000000000000000000000000815260040160405180910390fd5b919050565b828054828255906000526020600020908101928215614ed1579160200282015b82811115614ed157825182546001600160a01b0319166001600160a01b03909116178255602090920191600190910190614e9c565b50614edd929150614ee1565b5090565b5b80821115614edd5760008155600101614ee2565b634e487b7160e01b600052604160045260246000fd5b604051610140810167ffffffffffffffff81118282101715614f3057614f30614ef6565b60405290565b604051601f8201601f1916810167ffffffffffffffff81118282101715614f5f57614f5f614ef6565b604052919050565b600067ffffffffffffffff821115614f8157614f81614ef6565b5060051b60200190565b6001600160a01b0381168114614fa057600080fd5b50565b600082601f830112614fb457600080fd5b81356020614fc9614fc483614f67565b614f36565b8083825260208201915060208460051b870101935086841115614feb57600080fd5b602086015b8481101561501057803561500381614f8b565b8352918301918301614ff0565b509695505050505050565b600082601f83011261502c57600080fd5b8135602061503c614fc483614f67565b8083825260208201915060208460051b87010193508684111561505e57600080fd5b602086015b8481101561501057803561507681614f8b565b8352918301918301615063565b60008060006060848603121561509857600080fd5b833567ffffffffffffffff808211156150b057600080fd5b6150bc87838801614fa3565b945060208601359150808211156150d257600080fd5b6150de8783880161501b565b935060408601359150808211156150f457600080fd5b5061510186828701614fa3565b9150509250925092565b60006020828403121561511d57600080fd5b813561512881614f8b565b9392505050565b8015158114614fa057600080fd5b60006020828403121561514f57600080fd5b81356151288161512f565b60006020828403121561516c57600080fd5b5035919050565b60008060006060848603121561518857600080fd5b83359250602084013561519a81614f8b565b915060408401356151aa81614f8b565b809150509250925092565b600080604083850312156151c857600080fd5b823567ffffffffffffffff8111156151df57600080fd5b6151eb85828601614fa3565b92505060208301356151fc81614f8b565b809150509250929050565b6000806040838503121561521a57600080fd5b50508035926020909101359150565b60008060006060848603121561523e57600080fd5b833561524981614f8b565b925060208401356152598161512f565b915060408401356151aa8161512f565b8035614e7781614f8b565b6000806040838503121561528757600080fd5b8235915060208301356151fc8161512f565b6020808252825182820181905260009190848201906040850190845b818110156152d1578351835292840192918401916001016152b5565b50909695505050505050565b6000806000606084860312156152f257600080fd5b833592506020840135915060408401356151aa81614f8b565b6000806040838503121561531e57600080fd5b823561532981614f8b565b946020939093013593505050565b6000806000806080858703121561534d57600080fd5b843561535881614f8b565b935060208501359250604085013561536f81614f8b565b9396929550929360600135925050565b60008060008060008060c0878903121561539857600080fd5b8635955060208701356153aa81614f8b565b94506040870135935060608701356153c181614f8b565b925060808701356153d18161512f565b915060a08701356153e18161512f565b809150509295509295509295565b6000806040838503121561540257600080fd5b823561540d81614f8b565b915060208301356151fc8161512f565b600080600080600060a0868803121561543557600080fd5b85359450602086013561544781614f8b565b935060408601359250606086013561545e8161512f565b9150608086013561546e8161512f565b809150509295509295909350565b600080600080600080600080610100898b03121561549957600080fd5b883567ffffffffffffffff808211156154b157600080fd5b6154bd8c838d01614fa3565b995060208b01359150808211156154d357600080fd5b6154df8c838d0161501b565b985060408b01359150808211156154f557600080fd5b6155018c838d01614fa3565b975060608b013591508082111561551757600080fd5b6155238c838d01614fa3565b965060808b013591508082111561553957600080fd5b6155458c838d0161501b565b955060a08b013591508082111561555b57600080fd5b506155688b828c01614fa3565b93505061557760c08a01615269565b915061558560e08a01615269565b90509295985092959890939650565b600082601f8301126155a557600080fd5b813560206155b5614fc483614f67565b8083825260208201915060208460051b8701019350868411156155d757600080fd5b602086015b848110156150105780356155ef8161512f565b83529183019183016155dc565b6000806040838503121561560f57600080fd5b823567ffffffffffffffff8082111561562757600080fd5b818501915085601f83011261563b57600080fd5b8135602061564b614fc483614f67565b82815260059290921b8401810191818101908984111561566a57600080fd5b948201945b8386101561569157853561568281614f8b565b8252948201949082019061566f565b965050860135925050808211156156a757600080fd5b506156b485828601615594565b9150509250929050565b60006020808352835180602085015260005b818110156156ec578581018301518582016040015282016156d0565b506000604082860101526040601f19601f8301168501019250505092915050565b634e487b7160e01b600052603260045260246000fd5b8051614e778161512f565b8051614e7781614f8b565b6000610140828403121561574c57600080fd5b615754614f0c565b8251815261576460208401615723565b60208201526040830151604082015261577f60608401615723565b60608201526157906080840161572e565b60808201526157a160a08401615723565b60a08201526157b260c0840161572e565b60c08201526157c360e08401615723565b60e08201526101006157d6818501615723565b90820152610120928301519281019290925250919050565b60006020828403121561580057600080fd5b5051919050565b6000806040838503121561581a57600080fd5b505080516020909101519092909150565b60006020828403121561583d57600080fd5b815160ff8116811461512857600080fd5b634e487b7160e01b600052601160045260246000fd5b600181815b8085111561589f5781600019048211156158855761588561584e565b8085161561589257918102915b93841c9390800290615869565b509250929050565b6000826158b657506001610ec1565b816158c357506000610ec1565b81600181146158d957600281146158e3576158ff565b6001915050610ec1565b60ff8411156158f4576158f461584e565b50506001821b610ec1565b5060208310610133831016604e8410600b8410161715615922575081810a610ec1565b61592c8383615864565b80600019048211156159405761594061584e565b029392505050565b600061512860ff8416836158a7565b8082028115828204841417610ec157610ec161584e565b60008261598b57634e487b7160e01b600052601260045260246000fd5b500490565b600080600080608085870312156159a657600080fd5b505082516020840151604085015160609095015191969095509092509050565b80820180821115610ec157610ec161584e565b6000602082840312156159eb57600080fd5b81516151288161512f565b60008060408385031215615a0957600080fd5b8251615a1481614f8b565b60208401519092506151fc81614f8b565b600060208284031215615a3757600080fd5b815161512881614f8b565b805182526020810151615a59602084018215159052565b50604081015160408301526060810151615a77606084018215159052565b506080810151615a9260808401826001600160a01b03169052565b5060a0810151615aa660a084018215159052565b5060c0810151615ac160c08401826001600160a01b03169052565b5060e0810151615ad560e084018215159052565b506101008181015115159083015261012090810151910152565b6101808101615afe8286615a42565b836101408301526001600160a01b038316610160830152949350505050565b6101a08101615b2c8287615a42565b846101408301526001600160a01b03841661016083015282151561018083015295945050505050565b6101808101615b648286615a42565b6101408201939093526101600152919050565b6101408101610ec18284615a42565b805169ffffffffffffffffffff81168114614e7757600080fd5b600080600080600060a08688031215615bb857600080fd5b615bc186615b86565b9450602086015193506040860151925060608601519150615be460808701615b86565b90509295509295909350565b81810381811115610ec157610ec161584e565b6101e08101615c128289615a42565b6001600160a01b039687166101408301529486166101608201529285166101808401529084166101a08301529092166101c090920191909152919050565b600080600060608486031215615c6557600080fd5b8351615c7081614f8b565b6020850151909350615c8181614f8b565b60408501519092506151aa81614f8b565b600080600060608486031215615ca757600080fd5b8351925060208401519150604084015190509250925092565b600060208284031215615cd257600080fd5b815162ffffff8116811461512857600080fd5b6001600160a01b0387811682526101e0820190615d056020840189615a42565b86610160840152808616610180840152508315156101a08301528215156101c0830152979650505050505050565b600060018201615d4557615d4561584e565b506001019056fea264697066735822122025faf0703f261b568df8ebab9de0513719da9f879fa8fad41e9f208343447fd464736f6c63430008180033",
  "linkReferences": {},
  "deployedLinkReferences": {}
}