{
  "_format": "hh-sol-artifact-1",
  "contractName": "CCFL",
  "sourceName": "contracts/CCFL.sol",
  "abi": [
    {
      "inputs": [],
      "name": "ERC1167FailedCreateClone",
      "type": "error"
    },
    {
      "inputs": [],
      "name": "InvalidInitialization",
      "type": "error"
    },
    {
      "inputs": [],
      "name": "NotInitializing",
      "type": "error"
    },
    {
      "anonymous": false,
      "inputs": [
        {
          "indexed": true,
          "internalType": "address",
          "name": "borrower",
          "type": "address"
        },
        {
          "components": [
            {
              "internalType": "uint256",
              "name": "loanId",
              "type": "uint256"
            },
            {
              "internalType": "bool",
              "name": "isPaid",
              "type": "bool"
            },
            {
              "internalType": "uint256",
              "name": "amount",
              "type": "uint256"
            },
            {
              "internalType": "bool",
              "name": "isClosed",
              "type": "bool"
            },
            {
              "internalType": "address",
              "name": "borrower",
              "type": "address"
            },
            {
              "internalType": "bool",
              "name": "isLiquidated",
              "type": "bool"
            },
            {
              "internalType": "contract IERC20Standard",
              "name": "stableCoin",
              "type": "address"
            },
            {
              "internalType": "bool",
              "name": "isFinalty",
              "type": "bool"
            },
            {
              "internalType": "bool",
              "name": "isFiat",
              "type": "bool"
            },
            {
              "internalType": "uint256",
              "name": "closedAmount",
              "type": "uint256"
            }
          ],
          "indexed": false,
          "internalType": "struct DataTypes.Loan",
          "name": "loanInfo",
          "type": "tuple"
        },
        {
          "indexed": false,
          "internalType": "uint256",
          "name": "collateralAmount",
          "type": "uint256"
        },
        {
          "indexed": false,
          "internalType": "contract IERC20Standard",
          "name": "collateral",
          "type": "address"
        },
        {
          "indexed": false,
          "internalType": "bool",
          "name": "isETH",
          "type": "bool"
        }
      ],
      "name": "AddCollateral",
      "type": "event"
    },
    {
      "anonymous": false,
      "inputs": [
        {
          "indexed": true,
          "internalType": "address",
          "name": "borrower",
          "type": "address"
        },
        {
          "indexed": false,
          "internalType": "address",
          "name": "loanAddress",
          "type": "address"
        },
        {
          "components": [
            {
              "internalType": "uint256",
              "name": "loanId",
              "type": "uint256"
            },
            {
              "internalType": "bool",
              "name": "isPaid",
              "type": "bool"
            },
            {
              "internalType": "uint256",
              "name": "amount",
              "type": "uint256"
            },
            {
              "internalType": "bool",
              "name": "isClosed",
              "type": "bool"
            },
            {
              "internalType": "address",
              "name": "borrower",
              "type": "address"
            },
            {
              "internalType": "bool",
              "name": "isLiquidated",
              "type": "bool"
            },
            {
              "internalType": "contract IERC20Standard",
              "name": "stableCoin",
              "type": "address"
            },
            {
              "internalType": "bool",
              "name": "isFinalty",
              "type": "bool"
            },
            {
              "internalType": "bool",
              "name": "isFiat",
              "type": "bool"
            },
            {
              "internalType": "uint256",
              "name": "closedAmount",
              "type": "uint256"
            }
          ],
          "indexed": false,
          "internalType": "struct DataTypes.Loan",
          "name": "loanInfo",
          "type": "tuple"
        },
        {
          "indexed": false,
          "internalType": "uint256",
          "name": "collateralAmount",
          "type": "uint256"
        },
        {
          "indexed": false,
          "internalType": "contract IERC20Standard",
          "name": "collateral",
          "type": "address"
        },
        {
          "indexed": false,
          "internalType": "bool",
          "name": "isYieldGenerating",
          "type": "bool"
        },
        {
          "indexed": false,
          "internalType": "bool",
          "name": "isETH",
          "type": "bool"
        }
      ],
      "name": "CreateLoan",
      "type": "event"
    },
    {
      "anonymous": false,
      "inputs": [
        {
          "indexed": false,
          "internalType": "uint64",
          "name": "version",
          "type": "uint64"
        }
      ],
      "name": "Initialized",
      "type": "event"
    },
    {
      "anonymous": false,
      "inputs": [
        {
          "indexed": true,
          "internalType": "address",
          "name": "liquidator",
          "type": "address"
        },
        {
          "indexed": true,
          "internalType": "address",
          "name": "borrower",
          "type": "address"
        },
        {
          "components": [
            {
              "internalType": "uint256",
              "name": "loanId",
              "type": "uint256"
            },
            {
              "internalType": "bool",
              "name": "isPaid",
              "type": "bool"
            },
            {
              "internalType": "uint256",
              "name": "amount",
              "type": "uint256"
            },
            {
              "internalType": "bool",
              "name": "isClosed",
              "type": "bool"
            },
            {
              "internalType": "address",
              "name": "borrower",
              "type": "address"
            },
            {
              "internalType": "bool",
              "name": "isLiquidated",
              "type": "bool"
            },
            {
              "internalType": "contract IERC20Standard",
              "name": "stableCoin",
              "type": "address"
            },
            {
              "internalType": "bool",
              "name": "isFinalty",
              "type": "bool"
            },
            {
              "internalType": "bool",
              "name": "isFiat",
              "type": "bool"
            },
            {
              "internalType": "uint256",
              "name": "closedAmount",
              "type": "uint256"
            }
          ],
          "indexed": false,
          "internalType": "struct DataTypes.Loan",
          "name": "loanInfo",
          "type": "tuple"
        },
        {
          "indexed": false,
          "internalType": "uint256",
          "name": "collateralAmount",
          "type": "uint256"
        },
        {
          "indexed": false,
          "internalType": "contract IERC20Standard",
          "name": "collateral",
          "type": "address"
        }
      ],
      "name": "Liquidate",
      "type": "event"
    },
    {
      "anonymous": false,
      "inputs": [
        {
          "indexed": true,
          "internalType": "address",
          "name": "borrower",
          "type": "address"
        },
        {
          "components": [
            {
              "internalType": "uint256",
              "name": "loanId",
              "type": "uint256"
            },
            {
              "internalType": "bool",
              "name": "isPaid",
              "type": "bool"
            },
            {
              "internalType": "uint256",
              "name": "amount",
              "type": "uint256"
            },
            {
              "internalType": "bool",
              "name": "isClosed",
              "type": "bool"
            },
            {
              "internalType": "address",
              "name": "borrower",
              "type": "address"
            },
            {
              "internalType": "bool",
              "name": "isLiquidated",
              "type": "bool"
            },
            {
              "internalType": "contract IERC20Standard",
              "name": "stableCoin",
              "type": "address"
            },
            {
              "internalType": "bool",
              "name": "isFinalty",
              "type": "bool"
            },
            {
              "internalType": "bool",
              "name": "isFiat",
              "type": "bool"
            },
            {
              "internalType": "uint256",
              "name": "closedAmount",
              "type": "uint256"
            }
          ],
          "indexed": false,
          "internalType": "struct DataTypes.Loan",
          "name": "loanInfo",
          "type": "tuple"
        },
        {
          "indexed": false,
          "internalType": "uint256",
          "name": "repayAmount",
          "type": "uint256"
        },
        {
          "indexed": false,
          "internalType": "uint256",
          "name": "debtRemain",
          "type": "uint256"
        }
      ],
      "name": "RepayLoan",
      "type": "event"
    },
    {
      "anonymous": false,
      "inputs": [
        {
          "indexed": true,
          "internalType": "address",
          "name": "borrower",
          "type": "address"
        },
        {
          "components": [
            {
              "internalType": "uint256",
              "name": "loanId",
              "type": "uint256"
            },
            {
              "internalType": "bool",
              "name": "isPaid",
              "type": "bool"
            },
            {
              "internalType": "uint256",
              "name": "amount",
              "type": "uint256"
            },
            {
              "internalType": "bool",
              "name": "isClosed",
              "type": "bool"
            },
            {
              "internalType": "address",
              "name": "borrower",
              "type": "address"
            },
            {
              "internalType": "bool",
              "name": "isLiquidated",
              "type": "bool"
            },
            {
              "internalType": "contract IERC20Standard",
              "name": "stableCoin",
              "type": "address"
            },
            {
              "internalType": "bool",
              "name": "isFinalty",
              "type": "bool"
            },
            {
              "internalType": "bool",
              "name": "isFiat",
              "type": "bool"
            },
            {
              "internalType": "uint256",
              "name": "closedAmount",
              "type": "uint256"
            }
          ],
          "indexed": false,
          "internalType": "struct DataTypes.Loan",
          "name": "loanInfo",
          "type": "tuple"
        },
        {
          "indexed": false,
          "internalType": "uint256",
          "name": "collateralAmount",
          "type": "uint256"
        },
        {
          "indexed": false,
          "internalType": "contract IERC20Standard",
          "name": "collateral",
          "type": "address"
        },
        {
          "indexed": false,
          "internalType": "bool",
          "name": "isETH",
          "type": "bool"
        }
      ],
      "name": "WithdrawAllCollateral",
      "type": "event"
    },
    {
      "anonymous": false,
      "inputs": [
        {
          "indexed": true,
          "internalType": "address",
          "name": "admin",
          "type": "address"
        },
        {
          "components": [
            {
              "internalType": "uint256",
              "name": "loanId",
              "type": "uint256"
            },
            {
              "internalType": "bool",
              "name": "isPaid",
              "type": "bool"
            },
            {
              "internalType": "uint256",
              "name": "amount",
              "type": "uint256"
            },
            {
              "internalType": "bool",
              "name": "isClosed",
              "type": "bool"
            },
            {
              "internalType": "address",
              "name": "borrower",
              "type": "address"
            },
            {
              "internalType": "bool",
              "name": "isLiquidated",
              "type": "bool"
            },
            {
              "internalType": "contract IERC20Standard",
              "name": "stableCoin",
              "type": "address"
            },
            {
              "internalType": "bool",
              "name": "isFinalty",
              "type": "bool"
            },
            {
              "internalType": "bool",
              "name": "isFiat",
              "type": "bool"
            },
            {
              "internalType": "uint256",
              "name": "closedAmount",
              "type": "uint256"
            }
          ],
          "indexed": false,
          "internalType": "struct DataTypes.Loan",
          "name": "loanInfo",
          "type": "tuple"
        },
        {
          "indexed": false,
          "internalType": "uint256",
          "name": "collateralAmount",
          "type": "uint256"
        },
        {
          "indexed": false,
          "internalType": "contract IERC20Standard",
          "name": "collateral",
          "type": "address"
        },
        {
          "indexed": false,
          "internalType": "bool",
          "name": "isETH",
          "type": "bool"
        }
      ],
      "name": "WithdrawAllCollateralByAdmin",
      "type": "event"
    },
    {
      "anonymous": false,
      "inputs": [
        {
          "indexed": true,
          "internalType": "address",
          "name": "borrower",
          "type": "address"
        },
        {
          "components": [
            {
              "internalType": "uint256",
              "name": "loanId",
              "type": "uint256"
            },
            {
              "internalType": "bool",
              "name": "isPaid",
              "type": "bool"
            },
            {
              "internalType": "uint256",
              "name": "amount",
              "type": "uint256"
            },
            {
              "internalType": "bool",
              "name": "isClosed",
              "type": "bool"
            },
            {
              "internalType": "address",
              "name": "borrower",
              "type": "address"
            },
            {
              "internalType": "bool",
              "name": "isLiquidated",
              "type": "bool"
            },
            {
              "internalType": "contract IERC20Standard",
              "name": "stableCoin",
              "type": "address"
            },
            {
              "internalType": "bool",
              "name": "isFinalty",
              "type": "bool"
            },
            {
              "internalType": "bool",
              "name": "isFiat",
              "type": "bool"
            },
            {
              "internalType": "uint256",
              "name": "closedAmount",
              "type": "uint256"
            }
          ],
          "indexed": false,
          "internalType": "struct DataTypes.Loan",
          "name": "loanInfo",
          "type": "tuple"
        }
      ],
      "name": "WithdrawLoan",
      "type": "event"
    },
    {
      "inputs": [
        {
          "internalType": "contract IERC20Standard",
          "name": "",
          "type": "address"
        }
      ],
      "name": "aTokens",
      "outputs": [
        {
          "internalType": "contract IERC20Standard",
          "name": "",
          "type": "address"
        }
      ],
      "stateMutability": "view",
      "type": "function"
    },
    {
      "inputs": [
        {
          "internalType": "uint256",
          "name": "_loanId",
          "type": "uint256"
        },
        {
          "internalType": "uint256",
          "name": "_amountCollateral",
          "type": "uint256"
        },
        {
          "internalType": "contract IERC20Standard",
          "name": "_collateral",
          "type": "address"
        }
      ],
      "name": "addCollateral",
      "outputs": [],
      "stateMutability": "nonpayable",
      "type": "function"
    },
    {
      "inputs": [
        {
          "internalType": "uint256",
          "name": "_loanId",
          "type": "uint256"
        },
        {
          "internalType": "uint256",
          "name": "_amountETH",
          "type": "uint256"
        }
      ],
      "name": "addCollateralByETH",
      "outputs": [],
      "stateMutability": "payable",
      "type": "function"
    },
    {
      "inputs": [
        {
          "internalType": "uint256",
          "name": "_loanId",
          "type": "uint256"
        },
        {
          "internalType": "uint256",
          "name": "_amountCollateral",
          "type": "uint256"
        }
      ],
      "name": "addCollateralHealthFactor",
      "outputs": [
        {
          "internalType": "uint256",
          "name": "",
          "type": "uint256"
        }
      ],
      "stateMutability": "view",
      "type": "function"
    },
    {
      "inputs": [
        {
          "internalType": "contract IERC20Standard",
          "name": "",
          "type": "address"
        }
      ],
      "name": "ccflActiveCoins",
      "outputs": [
        {
          "internalType": "bool",
          "name": "",
          "type": "bool"
        }
      ],
      "stateMutability": "view",
      "type": "function"
    },
    {
      "inputs": [],
      "name": "ccflConfig",
      "outputs": [
        {
          "internalType": "contract ICCFLConfig",
          "name": "",
          "type": "address"
        }
      ],
      "stateMutability": "view",
      "type": "function"
    },
    {
      "inputs": [
        {
          "internalType": "uint256",
          "name": "",
          "type": "uint256"
        }
      ],
      "name": "ccflPoolStableCoins",
      "outputs": [
        {
          "internalType": "contract IERC20Standard",
          "name": "",
          "type": "address"
        }
      ],
      "stateMutability": "view",
      "type": "function"
    },
    {
      "inputs": [
        {
          "internalType": "contract IERC20Standard",
          "name": "",
          "type": "address"
        }
      ],
      "name": "ccflPools",
      "outputs": [
        {
          "internalType": "contract ICCFLPool",
          "name": "",
          "type": "address"
        }
      ],
      "stateMutability": "view",
      "type": "function"
    },
    {
      "inputs": [
        {
          "internalType": "contract IERC20Standard[]",
          "name": "array",
          "type": "address[]"
        },
        {
          "internalType": "contract IERC20Standard",
          "name": "el",
          "type": "address"
        }
      ],
      "name": "checkExistElement",
      "outputs": [
        {
          "internalType": "bool",
          "name": "",
          "type": "bool"
        }
      ],
      "stateMutability": "pure",
      "type": "function"
    },
    {
      "inputs": [
        {
          "internalType": "uint256",
          "name": "_amount",
          "type": "uint256"
        },
        {
          "internalType": "contract IERC20Standard",
          "name": "_stableCoin",
          "type": "address"
        },
        {
          "internalType": "contract IERC20Standard",
          "name": "_collateral",
          "type": "address"
        }
      ],
      "name": "checkMinimalCollateralForLoan",
      "outputs": [
        {
          "internalType": "uint256",
          "name": "",
          "type": "uint256"
        }
      ],
      "stateMutability": "view",
      "type": "function"
    },
    {
      "inputs": [
        {
          "internalType": "uint256",
          "name": "",
          "type": "uint256"
        }
      ],
      "name": "collateralTokens",
      "outputs": [
        {
          "internalType": "contract IERC20Standard",
          "name": "",
          "type": "address"
        }
      ],
      "stateMutability": "view",
      "type": "function"
    },
    {
      "inputs": [
        {
          "internalType": "uint256",
          "name": "_amount",
          "type": "uint256"
        },
        {
          "internalType": "contract IERC20Standard",
          "name": "_stableCoin",
          "type": "address"
        },
        {
          "internalType": "uint256",
          "name": "_amountCollateral",
          "type": "uint256"
        },
        {
          "internalType": "contract IERC20Standard",
          "name": "_collateral",
          "type": "address"
        },
        {
          "internalType": "bool",
          "name": "_isYieldGenerating",
          "type": "bool"
        },
        {
          "internalType": "bool",
          "name": "_isFiat",
          "type": "bool"
        }
      ],
      "name": "createLoan",
      "outputs": [],
      "stateMutability": "nonpayable",
      "type": "function"
    },
    {
      "inputs": [
        {
          "internalType": "uint256",
          "name": "_amount",
          "type": "uint256"
        },
        {
          "internalType": "contract IERC20Standard",
          "name": "_stableCoin",
          "type": "address"
        },
        {
          "internalType": "uint256",
          "name": "_amountETH",
          "type": "uint256"
        },
        {
          "internalType": "bool",
          "name": "_isYieldGenerating",
          "type": "bool"
        },
        {
          "internalType": "bool",
          "name": "_isFiat",
          "type": "bool"
        }
      ],
      "name": "createLoanByETH",
      "outputs": [],
      "stateMutability": "payable",
      "type": "function"
    },
    {
      "inputs": [
        {
          "internalType": "contract IERC20Standard",
          "name": "_stableCoin",
          "type": "address"
        },
        {
          "internalType": "uint256",
          "name": "_amount",
          "type": "uint256"
        },
        {
          "internalType": "contract IERC20Standard",
          "name": "_collateralToken",
          "type": "address"
        },
        {
          "internalType": "uint256",
          "name": "_amountCollateral",
          "type": "uint256"
        }
      ],
      "name": "estimateHealthFactor",
      "outputs": [
        {
          "internalType": "uint256",
          "name": "",
          "type": "uint256"
        }
      ],
      "stateMutability": "view",
      "type": "function"
    },
    {
      "inputs": [
        {
          "internalType": "uint256",
          "name": "_loanId",
          "type": "uint256"
        }
      ],
      "name": "getHealthFactor",
      "outputs": [
        {
          "internalType": "uint256",
          "name": "",
          "type": "uint256"
        }
      ],
      "stateMutability": "view",
      "type": "function"
    },
    {
      "inputs": [
        {
          "internalType": "contract IERC20Standard",
          "name": "_stableCoin",
          "type": "address"
        },
        {
          "internalType": "bool",
          "name": "isPool",
          "type": "bool"
        }
      ],
      "name": "getLatestPrice",
      "outputs": [
        {
          "internalType": "uint256",
          "name": "",
          "type": "uint256"
        }
      ],
      "stateMutability": "view",
      "type": "function"
    },
    {
      "inputs": [
        {
          "internalType": "uint256",
          "name": "_loanId",
          "type": "uint256"
        }
      ],
      "name": "getLoanAddress",
      "outputs": [
        {
          "internalType": "address",
          "name": "",
          "type": "address"
        }
      ],
      "stateMutability": "view",
      "type": "function"
    },
    {
      "inputs": [
        {
          "internalType": "address",
          "name": "borrower",
          "type": "address"
        }
      ],
      "name": "getLoanIds",
      "outputs": [
        {
          "internalType": "uint256[]",
          "name": "",
          "type": "uint256[]"
        }
      ],
      "stateMutability": "view",
      "type": "function"
    },
    {
      "inputs": [
        {
          "internalType": "contract IERC20Standard[]",
          "name": "_ccflPoolStableCoin",
          "type": "address[]"
        },
        {
          "internalType": "contract AggregatorV3Interface[]",
          "name": "_poolAggregators",
          "type": "address[]"
        },
        {
          "internalType": "contract ICCFLPool[]",
          "name": "_ccflPools",
          "type": "address[]"
        },
        {
          "internalType": "contract IERC20Standard[]",
          "name": "_collateralTokens",
          "type": "address[]"
        },
        {
          "internalType": "contract AggregatorV3Interface[]",
          "name": "_collateralAggregators",
          "type": "address[]"
        },
        {
          "internalType": "contract IERC20Standard[]",
          "name": "_aTokens",
          "type": "address[]"
        },
        {
          "internalType": "contract ICCFLConfig",
          "name": "_ccflConfig",
          "type": "address"
        }
      ],
      "name": "initialize",
      "outputs": [],
      "stateMutability": "nonpayable",
      "type": "function"
    },
    {
      "inputs": [],
      "name": "isPaused",
      "outputs": [
        {
          "internalType": "bool",
          "name": "",
          "type": "bool"
        }
      ],
      "stateMutability": "view",
      "type": "function"
    },
    {
      "inputs": [
        {
          "internalType": "uint256",
          "name": "_loanId",
          "type": "uint256"
        }
      ],
      "name": "liquidate",
      "outputs": [],
      "stateMutability": "nonpayable",
      "type": "function"
    },
    {
      "inputs": [],
      "name": "loandIds",
      "outputs": [
        {
          "internalType": "uint256",
          "name": "",
          "type": "uint256"
        }
      ],
      "stateMutability": "view",
      "type": "function"
    },
    {
      "inputs": [
        {
          "internalType": "address",
          "name": "",
          "type": "address"
        }
      ],
      "name": "operators",
      "outputs": [
        {
          "internalType": "bool",
          "name": "",
          "type": "bool"
        }
      ],
      "stateMutability": "view",
      "type": "function"
    },
    {
      "inputs": [],
      "name": "owner",
      "outputs": [
        {
          "internalType": "address",
          "name": "",
          "type": "address"
        }
      ],
      "stateMutability": "view",
      "type": "function"
    },
    {
      "inputs": [
        {
          "internalType": "contract IERC20Standard",
          "name": "",
          "type": "address"
        }
      ],
      "name": "priceFeeds",
      "outputs": [
        {
          "internalType": "contract AggregatorV3Interface",
          "name": "",
          "type": "address"
        }
      ],
      "stateMutability": "view",
      "type": "function"
    },
    {
      "inputs": [
        {
          "internalType": "contract IERC20Standard",
          "name": "",
          "type": "address"
        }
      ],
      "name": "pricePoolFeeds",
      "outputs": [
        {
          "internalType": "contract AggregatorV3Interface",
          "name": "",
          "type": "address"
        }
      ],
      "stateMutability": "view",
      "type": "function"
    },
    {
      "inputs": [
        {
          "internalType": "uint256",
          "name": "_loanId",
          "type": "uint256"
        },
        {
          "internalType": "uint256",
          "name": "_amount",
          "type": "uint256"
        }
      ],
      "name": "repayHealthFactor",
      "outputs": [
        {
          "internalType": "uint256",
          "name": "",
          "type": "uint256"
        }
      ],
      "stateMutability": "view",
      "type": "function"
    },
    {
      "inputs": [
        {
          "internalType": "uint256",
          "name": "_loanId",
          "type": "uint256"
        },
        {
          "internalType": "uint256",
          "name": "_amount",
          "type": "uint256"
        },
        {
          "internalType": "contract IERC20Standard",
          "name": "_stableCoin",
          "type": "address"
        }
      ],
      "name": "repayLoan",
      "outputs": [],
      "stateMutability": "nonpayable",
      "type": "function"
    },
    {
      "inputs": [
        {
          "internalType": "contract IERC20Standard",
          "name": "_token",
          "type": "address"
        },
        {
          "internalType": "bool",
          "name": "_isActived",
          "type": "bool"
        },
        {
          "internalType": "bool",
          "name": "_isPoolToken",
          "type": "bool"
        }
      ],
      "name": "setActiveToken",
      "outputs": [],
      "stateMutability": "nonpayable",
      "type": "function"
    },
    {
      "inputs": [
        {
          "internalType": "contract IERC20Standard[]",
          "name": "_collateralTokens",
          "type": "address[]"
        },
        {
          "internalType": "contract AggregatorV3Interface[]",
          "name": "_collateralAggregators",
          "type": "address[]"
        },
        {
          "internalType": "contract IERC20Standard[]",
          "name": "_aTokens",
          "type": "address[]"
        }
      ],
      "name": "setCollaterals",
      "outputs": [],
      "stateMutability": "nonpayable",
      "type": "function"
    },
    {
      "inputs": [
        {
          "internalType": "address[]",
          "name": "_addresses",
          "type": "address[]"
        },
        {
          "internalType": "bool[]",
          "name": "_isActives",
          "type": "bool[]"
        }
      ],
      "name": "setOperators",
      "outputs": [],
      "stateMutability": "nonpayable",
      "type": "function"
    },
    {
      "inputs": [
        {
          "internalType": "bool",
          "name": "_paused",
          "type": "bool"
        }
      ],
      "name": "setPaused",
      "outputs": [],
      "stateMutability": "nonpayable",
      "type": "function"
    },
    {
      "inputs": [
        {
          "internalType": "contract IERC20Standard[]",
          "name": "_ccflPoolStableCoin",
          "type": "address[]"
        },
        {
          "internalType": "contract AggregatorV3Interface[]",
          "name": "_poolAggregators",
          "type": "address[]"
        },
        {
          "internalType": "contract ICCFLPool[]",
          "name": "_ccflPools",
          "type": "address[]"
        }
      ],
      "name": "setPools",
      "outputs": [],
      "stateMutability": "nonpayable",
      "type": "function"
    },
    {
      "inputs": [
        {
          "internalType": "address",
          "name": "",
          "type": "address"
        },
        {
          "internalType": "uint256",
          "name": "",
          "type": "uint256"
        }
      ],
      "name": "userLoans",
      "outputs": [
        {
          "internalType": "uint256",
          "name": "",
          "type": "uint256"
        }
      ],
      "stateMutability": "view",
      "type": "function"
    },
    {
      "inputs": [
        {
          "internalType": "uint256",
          "name": "_loanId",
          "type": "uint256"
        },
        {
          "internalType": "bool",
          "name": "_isETH",
          "type": "bool"
        }
      ],
      "name": "withdrawAllCollateral",
      "outputs": [],
      "stateMutability": "nonpayable",
      "type": "function"
    },
    {
      "inputs": [
        {
          "internalType": "uint256",
          "name": "_loanId",
          "type": "uint256"
        },
        {
          "internalType": "bool",
          "name": "isETH",
          "type": "bool"
        }
      ],
      "name": "withdrawAllCollateralByAdmin",
      "outputs": [],
      "stateMutability": "nonpayable",
      "type": "function"
    },
    {
      "inputs": [
        {
          "internalType": "contract IERC20Standard",
          "name": "_stableCoin",
          "type": "address"
        },
        {
          "internalType": "uint256",
          "name": "_loanId",
          "type": "uint256"
        }
      ],
      "name": "withdrawFiatLoan",
      "outputs": [],
      "stateMutability": "nonpayable",
      "type": "function"
    },
    {
      "inputs": [
        {
          "internalType": "contract IERC20Standard",
          "name": "_stableCoin",
          "type": "address"
        },
        {
          "internalType": "uint256",
          "name": "_loanId",
          "type": "uint256"
        }
      ],
      "name": "withdrawLoan",
      "outputs": [],
      "stateMutability": "nonpayable",
      "type": "function"
    },
    {
      "stateMutability": "payable",
      "type": "receive"
    }
  ],
  "bytecode": "0x608060405234801561001057600080fd5b50615e3680620000216000396000f3fe6080604052600436106102895760003560e01c80638ba02e1c11610153578063c0d01546116100cb578063e43b03d61161007f578063ef3c5d2511610064578063ef3c5d2514610794578063f4305035146107b4578063fdb2b32c146107d457600080fd5b8063e43b03d614610754578063ec7be39d1461077457600080fd5b8063cff212e6116100b0578063cff212e614610701578063d8bad5bd14610714578063ddae5fee1461073457600080fd5b8063c0d01546146106ab578063c694fdc1146106e157600080fd5b8063a8700c3c11610122578063b187bd2611610107578063b187bd2614610657578063b3bffeaa14610678578063b5dbde5f1461069857600080fd5b8063a8700c3c14610617578063af6a85c41461063757600080fd5b80638ba02e1c146105755780638da5cb5b1461058b578063989397d4146105ab5780639dcb511a146105e157600080fd5b8063301356411161020157806364b52097116101b55780636eb0fdd01161019a5780636eb0fdd0146105155780636f43d3dd146105355780638858ddc51461055557600080fd5b806364b52097146104c85780636b64c885146104e857600080fd5b80633e108ad9116101e65780633e108ad914610452578063415f1240146104885780635c8edac4146104a857600080fd5b806330135641146104125780633a2ad9ae1461043257600080fd5b8063172c48c7116102585780631bb514cf1161023d5780631bb514cf146103b25780631d9eb5d9146103d257806325e9d2fa146103f257600080fd5b8063172c48c71461034c57806317845c691461038457600080fd5b80630769594d1461029557806309372a3c146102b757806313e7c9d8146102fc57806316c38b3c1461032c57600080fd5b3661029057005b600080fd5b3480156102a157600080fd5b506102b56102b036600461512f565b61080a565b005b3480156102c357600080fd5b506102e76102d23660046151b7565b60056020526000908152604090205460ff1681565b60405190151581526020015b60405180910390f35b34801561030857600080fd5b506102e76103173660046151b7565b60006020819052908152604090205460ff1681565b34801561033857600080fd5b506102b56103473660046151e9565b610a18565b34801561035857600080fd5b5061036c610367366004615206565b610a96565b6040516001600160a01b0390911681526020016102f3565b34801561039057600080fd5b506103a461039f366004615206565b610ac0565b6040519081526020016102f3565b3480156103be57600080fd5b506103a46103cd36600461521f565b610c3e565b3480156103de57600080fd5b506102e76103ed366004615261565b610df6565b3480156103fe57600080fd5b506103a461040d3660046152b3565b610e51565b34801561041e57600080fd5b50600c5461036c906001600160a01b031681565b34801561043e57600080fd5b506102b561044d3660046152d5565b610fc7565b34801561045e57600080fd5b5061036c61046d3660046151b7565b6007602052600090815260409020546001600160a01b031681565b34801561049457600080fd5b506102b56104a3366004615206565b61116c565b3480156104b457600080fd5b506102b56104c3366004615315565b61195e565b3480156104d457600080fd5b506102b56104e336600461512f565b611c06565b3480156104f457600080fd5b506105086105033660046151b7565b611e03565b6040516102f3919061533a565b34801561052157600080fd5b506102b561053036600461537e565b611e6f565b34801561054157600080fd5b506102b56105503660046153ac565b6125ac565b34801561056157600080fd5b506103a46105703660046153d8565b61281d565b34801561058157600080fd5b506103a460015481565b34801561059757600080fd5b50600a5461036c906001600160a01b031681565b3480156105b757600080fd5b5061036c6105c63660046151b7565b6009602052600090815260409020546001600160a01b031681565b3480156105ed57600080fd5b5061036c6105fc3660046151b7565b6008602052600090815260409020546001600160a01b031681565b34801561062357600080fd5b506102b5610632366004615420565b6129f7565b34801561064357600080fd5b506102b5610652366004615315565b612cf3565b34801561066357600080fd5b50600a546102e790600160a01b900460ff1681565b34801561068457600080fd5b506103a4610693366004615490565b612db5565b6102b56106a63660046154be565b612eb6565b3480156106b757600080fd5b5061036c6106c63660046151b7565b6002602052600090815260409020546001600160a01b031681565b3480156106ed57600080fd5b5061036c6106fc366004615206565b613304565b6102b561070f3660046152b3565b613314565b34801561072057600080fd5b506103a461072f3660046153ac565b613768565b34801561074057600080fd5b506102b561074f366004615528565b613799565b34801561076057600080fd5b506103a461076f3660046152b3565b613b55565b34801561078057600080fd5b506102b561078f3660046153ac565b613cca565b3480156107a057600080fd5b506102b56107af36600461537e565b613e09565b3480156107c057600080fd5b506102b56107cf366004615697565b61410e565b3480156107e057600080fd5b5061036c6107ef366004615206565b6000908152600460205260409020546001600160a01b031690565b33600090815260208181526040918290205482518084019093526002835261062760f31b9183019190915260ff1615156001146108635760405162461bcd60e51b815260040161085a9190615759565b60405180910390fd5b5060005b8351811015610a12576000848281518110610884576108846157a8565b602002602001015190506108f260038054806020026020016040519081016040528092919081815260200182805480156108e757602002820191906000526020600020905b81546001600160a01b031681526001909101906020018083116108c9575b505050505082610df6565b151560000361094757600380546001810182556000919091527fc2575a0e9e593c00f959f8c92f12db2869c3395a3b0502d05e2516446f71f85b0180546001600160a01b0319166001600160a01b0383161790555b828281518110610959576109596157a8565b602002602001015160026000836001600160a01b03166001600160a01b0316815260200190815260200160002060006101000a8154816001600160a01b0302191690836001600160a01b031602179055508382815181106109bc576109bc6157a8565b6020908102919091018101516001600160a01b03928316600090815260098352604080822080546001600160a01b0319169590931694909417909155600590915220805460ff1916600190811790915501610867565b50505050565b600a546040805180820190915260018152601960f91b6020820152906001600160a01b03163314610a5c5760405162461bcd60e51b815260040161085a9190615759565b50600a8054911515600160a01b027fffffffffffffffffffffff00ffffffffffffffffffffffffffffffffffffffff909216919091179055565b60068181548110610aa657600080fd5b6000918252602090912001546001600160a01b0316905081565b6000818152600460208190526040808320548151635d3e2fa160e01b815291516001600160a01b039091169284928492635d3e2fa192828101926101409291908290030181865afa158015610b19573d6000803e3d6000fd5b505050506040513d601f19601f82011682018060405250810190610b3d91906157d4565b60c08101516001600160a01b0390811660009081526002602052604080822054905163a52f38d160e01b815260048101899052939450909291169063a52f38d190602401602060405180830381865afa158015610b9e573d6000803e3d6000fd5b505050506040513d601f19601f82011682018060405250810190610bc29190615889565b604051632696439560e11b815260048101829052600060248201529091506001600160a01b03841690634d2c872a90604401602060405180830381865afa158015610c11573d6000803e3d6000fd5b505050506040513d601f19601f82011682018060405250810190610c359190615889565b95945050505050565b6000806000600c60009054906101000a90046001600160a01b03166001600160a01b031663e75235b86040518163ffffffff1660e01b81526004016040805180830381865afa158015610c95573d6000803e3d6000fd5b505050506040513d601f19601f82011682018060405250810190610cb991906158a2565b91509150610cc8846000612db5565b82866001600160a01b031663313ce5676040518163ffffffff1660e01b8152600401602060405180830381865afa158015610d07573d6000803e3d6000fd5b505050506040513d601f19601f82011682018060405250810190610d2b91906158c6565b610d3690600a6159e3565b610d41886001612db5565b876001600160a01b031663313ce5676040518163ffffffff1660e01b8152600401602060405180830381865afa158015610d7f573d6000803e3d6000fd5b505050506040513d601f19601f82011682018060405250810190610da391906158c6565b610dae90600a6159e3565b610db8908b6159f2565b610dc4906127106159f2565b610dce91906159f2565b610dd89190615a09565b610de29190615a09565b610dec9190615a09565b9695505050505050565b600080805b8451811015610e4757836001600160a01b0316858281518110610e2057610e206157a8565b60200260200101516001600160a01b031603610e3f5760019150610e47565b600101610dfb565b5090505b92915050565b6000828152600460208190526040808320548151635d3e2fa160e01b815291516001600160a01b039091169284928492635d3e2fa192828101926101409291908290030181865afa158015610eaa573d6000803e3d6000fd5b505050506040513d601f19601f82011682018060405250810190610ece91906157d4565b60c08101516001600160a01b0390811660009081526002602052604080822054905163a52f38d160e01b8152600481018a9052939450909291169063a52f38d190602401602060405180830381865afa158015610f2f573d6000803e3d6000fd5b505050506040513d601f19601f82011682018060405250810190610f539190615889565b604051632696439560e11b815260048101829052602481018790529091506001600160a01b03841690634d2c872a906044015b602060405180830381865afa158015610fa3573d6000803e3d6000fd5b505050506040513d601f19601f82011682018060405250810190610dec9190615889565b33600090815260208181526040918290205482518084019093526002835261062760f31b9183019190915260ff1615156001146110175760405162461bcd60e51b815260040161085a9190615759565b50801561110557611082600380548060200260200160405190810160405280929190818152602001828054801561107757602002820191906000526020600020905b81546001600160a01b03168152600190910190602001808311611059575b505050505084610df6565b6040805180820190915260018082527f3500000000000000000000000000000000000000000000000000000000000000602083015290911515146110d95760405162461bcd60e51b815260040161085a9190615759565b506001600160a01b0383166000908152600560205260409020805483151560ff19909116179055505050565b6110826006805480602002602001604051908101604052809291908181526020018280548015611077576020028201919060005260206000209081546001600160a01b0316815260019091019060200180831161105957505050505084610df6565b505050565b600a54604080518082019091526002815261323160f01b602082015290600160a01b900460ff16156111b15760405162461bcd60e51b815260040161085a9190615759565b506000818152600460208190526040808320548151635d3e2fa160e01b815291516001600160a01b0390911693928492635d3e2fa19281830192610140928290030181865afa158015611208573d6000803e3d6000fd5b505050506040513d601f19601f8201168201806040525081019061122c91906157d4565b60c08101516001600160a01b0390811660009081526002602052604080822054905163a52f38d160e01b815260048101889052939450909291169063a52f38d190602401602060405180830381865afa15801561128d573d6000803e3d6000fd5b505050506040513d601f19601f820116820180604052508101906112b19190615889565b9050600080600080866001600160a01b031663415f1240866040518263ffffffff1660e01b81526004016112e791815260200190565b6080604051808303816000875af1158015611306573d6000803e3d6000fd5b505050506040513d601f19601f8201168201806040525081019061132a9190615a2b565b93509350935093508560c001516001600160a01b03166323b872dd883086888a6113549190615a61565b61135e9190615a61565b6040517fffffffff0000000000000000000000000000000000000000000000000000000060e086901b1681526001600160a01b03938416600482015292909116602483015260448201526064016020604051808303816000875af11580156113ca573d6000803e3d6000fd5b505050506040513d601f19601f820116820180604052508101906113ee9190615a74565b5060c08601516001600160a01b039081166000818152600260205260409081902054905163095ea7b360e01b815292166004830152602482018790529063095ea7b3906044016020604051808303816000875af1158015611453573d6000803e3d6000fd5b505050506040513d601f19601f820116820180604052508101906114779190615a74565b5060c08601516001600160a01b039081166000908152600260205260409081902054905163d8aed14560e01b8152600481018b90526024810188905291169063d8aed14590604401600060405180830381600087803b1580156114d957600080fd5b505af11580156114ed573d6000803e3d6000fd5b50505050600080600c60009054906101000a90046001600160a01b03166001600160a01b0316633c0c45666040518163ffffffff1660e01b81526004016040805180830381865afa158015611546573d6000803e3d6000fd5b505050506040513d601f19601f8201168201806040525081019061156a9190615a91565b60c08a01516040516323b872dd60e01b81526001600160a01b038d8116600483015280841660248301526044820189905293955091935091909116906323b872dd906064016020604051808303816000875af11580156115ce573d6000803e3d6000fd5b505050506040513d601f19601f820116820180604052508101906115f29190615a74565b5060c08801516040516323b872dd60e01b81526001600160a01b038b81166004830152848116602483015260448201869052909116906323b872dd906064016020604051808303816000875af1158015611650573d6000803e3d6000fd5b505050506040513d601f19601f820116820180604052508101906116749190615a74565b5060c08801516001600160a01b03908116600081815260026020526040902054909163095ea7b391166116a7888a615a61565b6040517fffffffff0000000000000000000000000000000000000000000000000000000060e085901b1681526001600160a01b03909216600483015260248201526044016020604051808303816000875af115801561170a573d6000803e3d6000fd5b505050506040513d601f19601f8201168201806040525081019061172e9190615a74565b5060c08801516001600160a01b03908116600090815260026020526040908190205490517f7f394031000000000000000000000000000000000000000000000000000000008152600481018d905260248101899052911690637f39403190604401600060405180830381600087803b1580156117a957600080fd5b505af11580156117bd573d6000803e3d6000fd5b50505050600085111561183d5760c08801516001600160a01b03908116600090815260026020526040908190205490516326de36ff60e21b815260048101889052911690639b78dbfc90602401600060405180830381600087803b15801561182457600080fd5b505af1158015611838573d6000803e3d6000fd5b505050505b87608001516001600160a01b0316336001600160a01b03167f50ae99a0f4b29683aadd73511c3e176be68b159e0ad2bde41b7ad74a634fcd188a8c6001600160a01b031663315deeaa6040518163ffffffff1660e01b8152600401602060405180830381865afa1580156118b5573d6000803e3d6000fd5b505050506040513d601f19601f820116820180604052508101906118d99190615889565b8d6001600160a01b031663964236636040518163ffffffff1660e01b8152600401602060405180830381865afa158015611917573d6000803e3d6000fd5b505050506040513d601f19601f8201168201806040525081019061193b9190615ac0565b60405161194a93929190615b8a565b60405180910390a350505050505050505050565b600a54604080518082019091526002815261323160f01b602082015290600160a01b900460ff16156119a35760405162461bcd60e51b815260040161085a9190615759565b506000828152600460208190526040808320548151635d3e2fa160e01b815291516001600160a01b0390911693928492635d3e2fa19281830192610140928290030181865afa1580156119fa573d6000803e3d6000fd5b505050506040513d601f19601f82011682018060405250810190611a1e91906157d4565b905080608001516001600160a01b0316336001600160a01b0316146040518060400160405280600281526020017f323200000000000000000000000000000000000000000000000000000000000081525090611a8d5760405162461bcd60e51b815260040161085a9190615759565b5060808101516040516308165c1760e11b81526001600160a01b03918216600482015284151560248201529083169063102cb82e90604401600060405180830381600087803b158015611adf57600080fd5b505af1158015611af3573d6000803e3d6000fd5b50505050336001600160a01b03167fca342d978a428f07e2ddb65bd2d508b47435f260b9a4358d12bf17f8015a680e82846001600160a01b031663315deeaa6040518163ffffffff1660e01b8152600401602060405180830381865afa158015611b61573d6000803e3d6000fd5b505050506040513d601f19601f82011682018060405250810190611b859190615889565b856001600160a01b031663964236636040518163ffffffff1660e01b8152600401602060405180830381865afa158015611bc3573d6000803e3d6000fd5b505050506040513d601f19601f82011682018060405250810190611be79190615ac0565b87604051611bf89493929190615bb8565b60405180910390a250505050565b33600090815260208181526040918290205482518084019093526002835261062760f31b9183019190915260ff161515600114611c565760405162461bcd60e51b815260040161085a9190615759565b5060005b8351811015610a12576000848281518110611c7757611c776157a8565b60200260200101519050611ce360068054806020026020016040519081016040528092919081815260200182805480156108e7576020028201919060005260206000209081546001600160a01b031681526001909101906020018083116108c957505050505082610df6565b1515600003611d3857600680546001810182556000919091527ff652222313e28459528d920b65115c16c04f3efc82aaedc97be59f3f377c0d3f0180546001600160a01b0319166001600160a01b0383161790555b838281518110611d4a57611d4a6157a8565b602002602001015160086000836001600160a01b03166001600160a01b0316815260200190815260200160002060006101000a8154816001600160a01b0302191690836001600160a01b03160217905550828281518110611dad57611dad6157a8565b6020908102919091018101516001600160a01b03928316600090815260078352604080822080546001600160a01b0319169590931694909417909155600590915220805460ff1916600190811790915501611c5a565b6001600160a01b0381166000908152600b6020908152604091829020805483518184028101840190945280845260609392830182828015611e6357602002820191906000526020600020905b815481526020019060010190808311611e4f575b50505050509050919050565b6001600160a01b0381166000908152600560209081526040918290205482518084019093526001808452603360f81b9284019290925283929160ff909116151514611ecd5760405162461bcd60e51b815260040161085a9190615759565b50600a54604080518082019091526002815261323160f01b602082015290600160a01b900460ff1615611f135760405162461bcd60e51b815260040161085a9190615759565b506001600160a01b038281166000908152600260205260409081902054905163a52f38d160e01b8152600481018790528592919091169063a52f38d190602401602060405180830381865afa158015611f70573d6000803e3d6000fd5b505050506040513d601f19601f82011682018060405250810190611f949190615889565b84111561201a576001600160a01b038381166000908152600260205260409081902054905163a52f38d160e01b81526004810188905291169063a52f38d190602401602060405180830381865afa158015611ff3573d6000803e3d6000fd5b505050506040513d601f19601f820116820180604052508101906120179190615889565b90505b6000858152600460208190526040808320548151635d3e2fa160e01b815291516001600160a01b0390911693928492635d3e2fa19281830192610140928290030181865afa158015612070573d6000803e3d6000fd5b505050506040513d601f19601f8201168201806040525081019061209491906157d4565b6040516323b872dd60e01b8152336004820152306024820152604481018590529091506001600160a01b038616906323b872dd906064016020604051808303816000875af11580156120ea573d6000803e3d6000fd5b505050506040513d601f19601f8201168201806040525081019061210e9190615a74565b506001600160a01b038581166000818152600260205260409081902054905163095ea7b360e01b815292166004830152602482018590529063095ea7b3906044016020604051808303816000875af115801561216e573d6000803e3d6000fd5b505050506040513d601f19601f820116820180604052508101906121929190615a74565b506001600160a01b038581166000908152600260205260409081902054905163d8aed14560e01b8152600481018a90526024810186905291169063d8aed14590604401600060405180830381600087803b1580156121ef57600080fd5b505af1158015612203573d6000803e3d6000fd5b505050506001600160a01b0385811660009081526002602052604080822054905163a52f38d160e01b8152600481018b90529192169063a52f38d190602401602060405180830381865afa15801561225f573d6000803e3d6000fd5b505050506040513d601f19601f820116820180604052508101906122839190615889565b90508060000361255d5760008881526004602081905260408083205481517f232fa733000000000000000000000000000000000000000000000000000000008152825185946001600160a01b039093169363232fa7339383810193919291829003018187875af11580156122fb573d6000803e3d6000fd5b505050506040513d601f19601f8201168201806040525081019061231f91906158a2565b909250905081156124345760008a8152600460208181526040808420546001600160a01b038d81168087526002909452948290205491516323b872dd60e01b8152908516938101939093529092166024820152604481018490526323b872dd906064016020604051808303816000875af11580156123a1573d6000803e3d6000fd5b505050506040513d601f19601f820116820180604052508101906123c59190615a74565b506001600160a01b03888116600090815260026020526040908190205490516326de36ff60e21b815260048101859052911690639b78dbfc90602401600060405180830381600087803b15801561241b57600080fd5b505af115801561242f573d6000803e3d6000fd5b505050505b600c54604080517f3c0c4566000000000000000000000000000000000000000000000000000000008152815160009384936001600160a01b0390911692633c0c456692600480830193928290030181865afa158015612497573d6000803e3d6000fd5b505050506040513d601f19601f820116820180604052508101906124bb9190615a91565b909250905082156125585760008c8152600460208190526040918290205491516323b872dd60e01b81526001600160a01b0392831691810191909152828216602482015260448101859052908b16906323b872dd906064016020604051808303816000875af1158015612532573d6000803e3d6000fd5b505050506040513d601f19601f820116820180604052508101906125569190615a74565b505b505050505b336001600160a01b03167fadc378173a62bab769bed82749db12a50dc49a4a95c340b6a607dda354f8bfd883898460405161259a93929190615bf0565b60405180910390a25050505050505050565b33600090815260208181526040918290205482518084019093526002835261062760f31b9183019190915260ff1615156001146125fc5760405162461bcd60e51b815260040161085a9190615759565b50600a54604080518082019091526002815261323160f01b602082015290600160a01b900460ff16156126425760405162461bcd60e51b815260040161085a9190615759565b506000818152600460208190526040808320548151635d3e2fa160e01b815291516001600160a01b0390911693928492635d3e2fa19281830192610140928290030181865afa158015612699573d6000803e3d6000fd5b505050506040513d601f19601f820116820180604052508101906126bd91906157d4565b61010081015160408051808201909152600281527f31390000000000000000000000000000000000000000000000000000000000006020820152919250151560011461271c5760405162461bcd60e51b815260040161085a9190615759565b506001600160a01b038481166000908152600260205260409081902054905163ec7be39d60e01b81523360048201526024810186905291169063ec7be39d906044015b600060405180830381600087803b15801561277957600080fd5b505af115801561278d573d6000803e3d6000fd5b50505050816001600160a01b031663fab320e96040518163ffffffff1660e01b8152600401600060405180830381600087803b1580156127cc57600080fd5b505af11580156127e0573d6000803e3d6000fd5b50505050336001600160a01b03167fef41bc389463cc7bed371efb4b9809aaab2e8360be55f906e407bcf55f2314ee82604051611bf89190615c12565b60008061282b866001612db5565b9050600061283a856000612db5565b600c5460408051631cea46b760e31b8152815193945060009384936001600160a01b03169263e75235b892600480820193918290030181865afa158015612885573d6000803e3d6000fd5b505050506040513d601f19601f820116820180604052508101906128a991906158a2565b915091506000876001600160a01b031663313ce5676040518163ffffffff1660e01b8152600401602060405180830381865afa1580156128ed573d6000803e3d6000fd5b505050506040513d601f19601f8201168201806040525081019061291191906158c6565b61291c90600a6159e3565b6127108361292a878b6159f2565b61293491906159f2565b61293e9190615a09565b6129489190615a09565b905060008a6001600160a01b031663313ce5676040518163ffffffff1660e01b8152600401602060405180830381865afa15801561298a573d6000803e3d6000fd5b505050506040513d601f19601f820116820180604052508101906129ae91906158c6565b6129b990600a6159e3565b6129c3878c6159f2565b6129cd9190615a09565b90506000816129dd8460646159f2565b6129e79190615a09565b9c9b505050505050505050505050565b6001600160a01b0385166000908152600560209081526040918290205482518084019093526001808452603360f81b9284019290925287929160ff909116151514612a555760405162461bcd60e51b815260040161085a9190615759565b506001600160a01b0384166000908152600560209081526040918290205482518084019093526001808452600d60fa1b9284019290925286929160ff909116151514612ab45760405162461bcd60e51b815260040161085a9190615759565b50600a54604080518082019091526002815261323160f01b602082015290600160a01b900460ff1615612afa5760405162461bcd60e51b815260040161085a9190615759565b50600c5460408051631cea46b760e31b8152815160009384936001600160a01b039091169263e75235b892600480830193928290030181865afa158015612b45573d6000803e3d6000fd5b505050506040513d601f19601f82011682018060405250810190612b6991906158a2565b91509150886001600160a01b031663313ce5676040518163ffffffff1660e01b8152600401602060405180830381865afa158015612bab573d6000803e3d6000fd5b505050506040513d601f19601f82011682018060405250810190612bcf91906158c6565b612bda90600a6159e3565b612be58a6001612db5565b612bef908c6159f2565b612bfb906127106159f2565b612c059190615a09565b876001600160a01b031663313ce5676040518163ffffffff1660e01b8152600401602060405180830381865afa158015612c43573d6000803e3d6000fd5b505050506040513d601f19601f82011682018060405250810190612c6791906158c6565b612c7290600a6159e3565b83612c7e8a6000612db5565b612c88908c6159f2565b612c9291906159f2565b612c9c9190615a09565b1015604051806040016040528060018152602001603760f81b81525090612cd65760405162461bcd60e51b815260040161085a9190615759565b50612ce78a8a8a8a8a8a60006141c8565b50505050505050505050565b600a546040805180820190915260018152601960f91b6020820152906001600160a01b03163314612d375760405162461bcd60e51b815260040161085a9190615759565b506000828152600460208190526040918290205491516308165c1760e11b8152339181019190915282151560248201526001600160a01b0390911690819063102cb82e90604401600060405180830381600087803b158015612d9857600080fd5b505af1158015612dac573d6000803e3d6000fd5b50505050505050565b60008115158103612e56576001600160a01b03808416600090815260086020526040808220548151633fabe5a360e21b8152915192938493849384938493169163feaf968c9160048082019260a0929091908290030181865afa158015612e20573d6000803e3d6000fd5b505050506040513d601f19601f82011682018060405250810190612e449190615c3b565b50919850610e4b975050505050505050565b6001600160a01b03808416600090815260096020526040808220548151633fabe5a360e21b8152915192938493849384938493169163feaf968c9160048082019260a0929091908290030181865afa158015612e20573d6000803e3d6000fd5b6001600160a01b0384166000908152600560209081526040918290205482518084019093526001808452603360f81b9284019290925286929160ff909116151514612f145760405162461bcd60e51b815260040161085a9190615759565b50600c60009054906101000a90046001600160a01b03166001600160a01b0316639854db026040518163ffffffff1660e01b8152600401602060405180830381865afa158015612f68573d6000803e3d6000fd5b505050506040513d601f19601f82011682018060405250810190612f8c9190615a74565b604080518082019091526002815261032360f41b6020820152901515600114612fc85760405162461bcd60e51b815260040161085a9190615759565b50600a54604080518082019091526002815261323160f01b602082015290600160a01b900460ff161561300e5760405162461bcd60e51b815260040161085a9190615759565b506040805180820190915260018152601b60f91b6020820152348511156130485760405162461bcd60e51b815260040161085a9190615759565b50600c5460408051636572f88f60e11b815290516000926001600160a01b03169163cae5f11e9160048083019260209291908290030181865afa158015613093573d6000803e3d6000fd5b505050506040513d601f19601f820116820180604052508101906130b79190615ac0565b9050806001600160a01b031663d0e30db0866040518263ffffffff1660e01b81526004016000604051808303818588803b1580156130f457600080fd5b505af1158015613108573d6000803e3d6000fd5b5050600c5460408051631cea46b760e31b81528151600096508695506001600160a01b03909316935063e75235b892600480830193928290030181865afa158015613157573d6000803e3d6000fd5b505050506040513d601f19601f8201168201806040525081019061317b91906158a2565b91509150876001600160a01b031663313ce5676040518163ffffffff1660e01b8152600401602060405180830381865afa1580156131bd573d6000803e3d6000fd5b505050506040513d601f19601f820116820180604052508101906131e191906158c6565b6131ec90600a6159e3565b6131f7896001612db5565b613201908b6159f2565b61320d906127106159f2565b6132179190615a09565b836001600160a01b031663313ce5676040518163ffffffff1660e01b8152600401602060405180830381865afa158015613255573d6000803e3d6000fd5b505050506040513d601f19601f8201168201806040525081019061327991906158c6565b61328490600a6159e3565b83613290866000612db5565b61329a908b6159f2565b6132a491906159f2565b6132ae9190615a09565b1015604051806040016040528060018152602001603760f81b815250906132e85760405162461bcd60e51b815260040161085a9190615759565b506132f9898989868a8a60006141c8565b505050505050505050565b60038181548110610aa657600080fd5b600c60009054906101000a90046001600160a01b03166001600160a01b0316639854db026040518163ffffffff1660e01b8152600401602060405180830381865afa158015613367573d6000803e3d6000fd5b505050506040513d601f19601f8201168201806040525081019061338b9190615a74565b604080518082019091526002815261032360f41b60208201529015156001146133c75760405162461bcd60e51b815260040161085a9190615759565b50600a54604080518082019091526002815261323160f01b602082015290600160a01b900460ff161561340d5760405162461bcd60e51b815260040161085a9190615759565b506040805180820190915260018152601b60f91b6020820152348211156134475760405162461bcd60e51b815260040161085a9190615759565b50600c5460408051636572f88f60e11b815290516000926001600160a01b03169163cae5f11e9160048083019260209291908290030181865afa158015613492573d6000803e3d6000fd5b505050506040513d601f19601f820116820180604052508101906134b69190615ac0565b9050806001600160a01b031663d0e30db0836040518263ffffffff1660e01b81526004016000604051808303818588803b1580156134f357600080fd5b505af1158015613507573d6000803e3d6000fd5b5050506000858152600460208190526040808320548151635d3e2fa160e01b815291516001600160a01b0390911695509293508492635d3e2fa192828101926101409291908290030181865afa158015613565573d6000803e3d6000fd5b505050506040513d601f19601f8201168201806040525081019061358991906157d4565b604051633390ef1360e11b8152600481018690529091506001600160a01b03831690636721de2690602401600060405180830381600087803b1580156135ce57600080fd5b505af11580156135e2573d6000803e3d6000fd5b505060405163a9059cbb60e01b81526001600160a01b038581166004830152602482018890528616925063a9059cbb91506044016020604051808303816000875af1158015613635573d6000803e3d6000fd5b505050506040513d601f19601f820116820180604052508101906136599190615a74565b50816001600160a01b0316631c783def6040518163ffffffff1660e01b8152600401602060405180830381865afa158015613698573d6000803e3d6000fd5b505050506040513d601f19601f820116820180604052508101906136bc9190615a74565b151560010361371957816001600160a01b03166307a6bf696040518163ffffffff1660e01b8152600401600060405180830381600087803b15801561370057600080fd5b505af1158015613714573d6000803e3d6000fd5b505050505b336001600160a01b03167fe474797e92cecc3dd725263d8aa6b5ba5f84756e80f4cb9d15863ddc26c84acc82868660016040516137599493929190615bb8565b60405180910390a25050505050565b600b602052816000526040600020818154811061378457600080fd5b90600052602060002001600091509150505481565b7ff0c57e16840df040f15088dc2f81fe391c3923bec73e23a9662efc9c229c6a00805468010000000000000000810460ff16159067ffffffffffffffff166000811580156137e45750825b905060008267ffffffffffffffff1660011480156138015750303b155b90508115801561380f575080155b15613846576040517ff92ee8a900000000000000000000000000000000000000000000000000000000815260040160405180910390fd5b845467ffffffffffffffff19166001178555831561387a57845468ff00000000000000001916680100000000000000001785555b8b5161388d9060039060208f0190614f28565b506001805560005b60035481101561399a576000600382815481106138b4576138b46157a8565b6000918252602090912001548c516001600160a01b0390911691508c90839081106138e1576138e16157a8565b602002602001015160026000836001600160a01b03166001600160a01b0316815260200190815260200160002060006101000a8154816001600160a01b0302191690836001600160a01b031602179055508c8281518110613944576139446157a8565b6020908102919091018101516001600160a01b03928316600090815260098352604080822080546001600160a01b0319169590931694909417909155600590915220805460ff1916600190811790915501613895565b5088516139ae9060069060208c0190614f28565b5060005b600654811015613ab7576000600682815481106139d1576139d16157a8565b6000918252602090912001548a516001600160a01b0390911691508a90839081106139fe576139fe6157a8565b602002602001015160086000836001600160a01b03166001600160a01b0316815260200190815260200160002060006101000a8154816001600160a01b0302191690836001600160a01b03160217905550888281518110613a6157613a616157a8565b6020908102919091018101516001600160a01b03928316600090815260078352604080822080546001600160a01b0319169590931694909417909155600590915220805460ff19166001908117909155016139b2565b50600a8054336001600160a01b03199182168117909255600091825260208290526040909120805460ff19166001179055600c80549091166001600160a01b0388161790558315613b4757845468ff000000000000000019168555604051600181527fc7f505b2f371ae2175ee4913f4499e1f2633a7b5936321eed1cdaeb6115181d29060200160405180910390a15b505050505050505050505050565b6000828152600460208190526040808320548151635d3e2fa160e01b815291516001600160a01b039091169284928492635d3e2fa192828101926101409291908290030181865afa158015613bae573d6000803e3d6000fd5b505050506040513d601f19601f82011682018060405250810190613bd291906157d4565b60c08101516001600160a01b0390811660009081526002602052604080822054905163a52f38d160e01b8152600481018a9052939450909291169063a52f38d190602401602060405180830381865afa158015613c33573d6000803e3d6000fd5b505050506040513d601f19601f82011682018060405250810190613c579190615889565b9050808510613c6e576201869f9350505050610e4b565b6001600160a01b038316634d2c872a613c878784615c8b565b6040517fffffffff0000000000000000000000000000000000000000000000000000000060e084901b168152600481019190915260006024820152604401610f86565b6000818152600460208190526040808320548151635d3e2fa160e01b815291516001600160a01b0390911693928492635d3e2fa19281830192610140928290030181865afa158015613d20573d6000803e3d6000fd5b505050506040513d601f19601f82011682018060405250810190613d4491906157d4565b60808101519091506001600160a01b031633148015613d665750610100810151155b6040518060400160405280600181526020017f390000000000000000000000000000000000000000000000000000000000000081525090613dba5760405162461bcd60e51b815260040161085a9190615759565b506001600160a01b0384811660009081526002602052604090819020546080840151915163ec7be39d60e01b81529183166004830152602482018690529091169063ec7be39d9060440161275f565b6001600160a01b0381166000908152600560209081526040918290205482518084019093526001808452600d60fa1b9284019290925283929160ff909116151514613e675760405162461bcd60e51b815260040161085a9190615759565b50600a54604080518082019091526002815261323160f01b602082015290600160a01b900460ff1615613ead5760405162461bcd60e51b815260040161085a9190615759565b506000848152600460208190526040808320548151635d3e2fa160e01b815291516001600160a01b0390911693928492635d3e2fa19281830192610140928290030181865afa158015613f04573d6000803e3d6000fd5b505050506040513d601f19601f82011682018060405250810190613f2891906157d4565b604051633390ef1360e11b8152600481018790529091506001600160a01b03831690636721de2690602401600060405180830381600087803b158015613f6d57600080fd5b505af1158015613f81573d6000803e3d6000fd5b50506040516323b872dd60e01b81523360048201526001600160a01b03858116602483015260448201899052871692506323b872dd91506064016020604051808303816000875af1158015613fda573d6000803e3d6000fd5b505050506040513d601f19601f82011682018060405250810190613ffe9190615a74565b50816001600160a01b0316631c783def6040518163ffffffff1660e01b8152600401602060405180830381865afa15801561403d573d6000803e3d6000fd5b505050506040513d601f19601f820116820180604052508101906140619190615a74565b15156001036140be57816001600160a01b03166307a6bf696040518163ffffffff1660e01b8152600401600060405180830381600087803b1580156140a557600080fd5b505af11580156140b9573d6000803e3d6000fd5b505050505b336001600160a01b03167fe474797e92cecc3dd725263d8aa6b5ba5f84756e80f4cb9d15863ddc26c84acc82878760006040516140fe9493929190615bb8565b60405180910390a2505050505050565b600a546040805180820190915260018152601960f91b6020820152906001600160a01b031633146141525760405162461bcd60e51b815260040161085a9190615759565b5060005b825181101561116757818181518110614171576141716157a8565b602002602001015160008085848151811061418e5761418e6157a8565b6020908102919091018101516001600160a01b03168252810191909152604001600020805460ff1916911515919091179055600101614156565b6001600160a01b038087166000908152600260209081526040918290205482517f3b24cc2100000000000000000000000000000000000000000000000000000000815292518b949190911692633b24cc219260048083019391928290030181865afa15801561423b573d6000803e3d6000fd5b505050506040513d601f19601f8201168201806040525081019061425f9190615889565b10156040518060400160405280600181526020017f3800000000000000000000000000000000000000000000000000000000000000815250906142b55760405162461bcd60e51b815260040161085a9190615759565b506040805161014081018252600060208083018290526060830182905260a0830182905260e08301829052610120830182905233608084019081528385018c815260015485526001600160a01b038c811660c08701819052891515610100880190815290865260029094529386902054855191519251935196517f3870862b000000000000000000000000000000000000000000000000000000008152600481019290925260248201929092529183166044830152931515606482015291921690633870862b90608401600060405180830381600087803b15801561439957600080fd5b505af11580156143ad573d6000803e3d6000fd5b5050506001600160a01b03808916600090815260096020908152604080832054600c5482517fbc0f39e0000000000000000000000000000000000000000000000000000000008152925191861696508b9561445d9491169263bc0f39e092600480830193928290030181865afa15801561442b573d6000803e3d6000fd5b505050506040513d601f19601f8201168201806040525081019061444f9190615ac0565b6001600160a01b0316614e9d565b600c5460408051631cea46b760e31b81528151939450849360009384936001600160a01b039091169263e75235b892600480830193928290030181865afa1580156144ac573d6000803e3d6000fd5b505050506040513d601f19601f820116820180604052508101906144d091906158a2565b91509150826001600160a01b0316636a7b35db8887600c60009054906101000a90046001600160a01b03166001600160a01b031663d03f6bac6040518163ffffffff1660e01b8152600401602060405180830381865afa158015614538573d6000803e3d6000fd5b505050506040513d601f19601f8201168201806040525081019061455c9190615ac0565b600760008b6001600160a01b03166001600160a01b0316815260200190815260200160002060009054906101000a90046001600160a01b03168787600860008e6001600160a01b03166001600160a01b0316815260200190815260200160002060009054906101000a90046001600160a01b03168e600c60009054906101000a90046001600160a01b03166001600160a01b031663cae5f11e6040518163ffffffff1660e01b8152600401602060405180830381865afa158015614624573d6000803e3d6000fd5b505050506040513d601f19601f820116820180604052508101906146489190615ac0565b6040518a63ffffffff1660e01b815260040161466c99989796959493929190615c9e565b600060405180830381600087803b15801561468657600080fd5b505af115801561469a573d6000803e3d6000fd5b50506040517f8ac1b7750000000000000000000000000000000000000000000000000000000081523060048201526001600160a01b0386169450638ac1b775935060240191506146e79050565b600060405180830381600087803b15801561470157600080fd5b505af1158015614715573d6000803e3d6000fd5b505050506000806000600c60009054906101000a90046001600160a01b03166001600160a01b031663725c9c496040518163ffffffff1660e01b8152600401606060405180830381865afa158015614771573d6000803e3d6000fd5b505050506040513d601f19601f820116820180604052508101906147959190615d04565b6040517f10ac5c3c0000000000000000000000000000000000000000000000000000000081526001600160a01b038085166004830152808416602483015280831660448301529396509194509250908516906310ac5c3c90606401600060405180830381600087803b15801561480a57600080fd5b505af115801561481e573d6000803e3d6000fd5b505050505050506000806000600c60009054906101000a90046001600160a01b03166001600160a01b031663c2dcadab6040518163ffffffff1660e01b8152600401606060405180830381865afa15801561487d573d6000803e3d6000fd5b505050506040513d601f19601f820116820180604052508101906148a19190615d46565b6040517f6cb0ab5e00000000000000000000000000000000000000000000000000000000815260048101849052602481018390526044810182905292955090935091506001600160a01b03851690636cb0ab5e90606401600060405180830381600087803b15801561491257600080fd5b505af1158015614926573d6000803e3d6000fd5b505050505050506000806000600c60009054906101000a90046001600160a01b03166001600160a01b031663e56e56db6040518163ffffffff1660e01b8152600401606060405180830381865afa158015614985573d6000803e3d6000fd5b505050506040513d601f19601f820116820180604052508101906149a99190615d46565b6040517ff3cf4ada00000000000000000000000000000000000000000000000000000000815260048101849052602481018390526044810182905292955090935091506001600160a01b0385169063f3cf4ada90606401600060405180830381600087803b158015614a1a57600080fd5b505af1158015614a2e573d6000803e3d6000fd5b505050505050506000600c60009054906101000a90046001600160a01b03166001600160a01b031663365bef00858e6040518363ffffffff1660e01b8152600401614a8f9291906001600160a01b0392831681529116602082015260400190565b602060405180830381865afa158015614aac573d6000803e3d6000fd5b505050506040513d601f19601f82011682018060405250810190614ad09190615d74565b6040517f805a288f00000000000000000000000000000000000000000000000000000000815262ffffff821660048201529091506001600160a01b0383169063805a288f90602401600060405180830381600087803b158015614b3257600080fd5b505af1158015614b46573d6000803e3d6000fd5b505050508615156000039050614c2f57604051633390ef1360e11b8152600481018b90526001600160a01b03821690636721de2690602401600060405180830381600087803b158015614b9857600080fd5b505af1158015614bac573d6000803e3d6000fd5b50506040516323b872dd60e01b81523360048201526001600160a01b038581166024830152604482018e90528c1692506323b872dd91506064016020604051808303816000875af1158015614c05573d6000803e3d6000fd5b505050506040513d601f19601f82011682018060405250810190614c299190615a74565b50614d7c565b604051633390ef1360e11b8152600481018b90526001600160a01b03821690636721de2690602401600060405180830381600087803b158015614c7157600080fd5b505af1158015614c85573d6000803e3d6000fd5b505050506000600c60009054906101000a90046001600160a01b03166001600160a01b031663cae5f11e6040518163ffffffff1660e01b8152600401602060405180830381865afa158015614cde573d6000803e3d6000fd5b505050506040513d601f19601f82011682018060405250810190614d029190615ac0565b60405163a9059cbb60e01b81526001600160a01b038581166004830152602482018e90529192509082169063a9059cbb906044016020604051808303816000875af1158015614d55573d6000803e3d6000fd5b505050506040513d601f19601f82011682018060405250810190614d799190615a74565b50505b871515600103614dda57806001600160a01b03166307a6bf696040518163ffffffff1660e01b8152600401600060405180830381600087803b158015614dc157600080fd5b505af1158015614dd5573d6000803e3d6000fd5b505050505b60018054600090815260046020818152604080842080546001600160a01b0319166001600160a01b038881169190911790915533808652600b845282862087548154808a018355918852858820909101559554855292909152918290205491517fbc2d4eb506fbd7b120aab5a0c94776c0416f23ed12a154e146f923454a80390e92614e7292169089908f908f908f908e1590615d99565b60405180910390a260018054906000614e8a83615de7565b9190505550505050505050505050505050565b6000763d602d80600a3d3981f3363d3d373d3d3d363d730000008260601b60e81c176000526e5af43d82803e903d91602b57fd5bf38260781b17602052603760096000f090506001600160a01b038116614f23576040517fc2f868f400000000000000000000000000000000000000000000000000000000815260040160405180910390fd5b919050565b828054828255906000526020600020908101928215614f7d579160200282015b82811115614f7d57825182546001600160a01b0319166001600160a01b03909116178255602090920191600190910190614f48565b50614f89929150614f8d565b5090565b5b80821115614f895760008155600101614f8e565b634e487b7160e01b600052604160045260246000fd5b604051610140810167ffffffffffffffff81118282101715614fdc57614fdc614fa2565b60405290565b604051601f8201601f1916810167ffffffffffffffff8111828210171561500b5761500b614fa2565b604052919050565b600067ffffffffffffffff82111561502d5761502d614fa2565b5060051b60200190565b6001600160a01b038116811461504c57600080fd5b50565b600082601f83011261506057600080fd5b8135602061507561507083615013565b614fe2565b8083825260208201915060208460051b87010193508684111561509757600080fd5b602086015b848110156150bc5780356150af81615037565b835291830191830161509c565b509695505050505050565b600082601f8301126150d857600080fd5b813560206150e861507083615013565b8083825260208201915060208460051b87010193508684111561510a57600080fd5b602086015b848110156150bc57803561512281615037565b835291830191830161510f565b60008060006060848603121561514457600080fd5b833567ffffffffffffffff8082111561515c57600080fd5b6151688783880161504f565b9450602086013591508082111561517e57600080fd5b61518a878388016150c7565b935060408601359150808211156151a057600080fd5b506151ad8682870161504f565b9150509250925092565b6000602082840312156151c957600080fd5b81356151d481615037565b9392505050565b801515811461504c57600080fd5b6000602082840312156151fb57600080fd5b81356151d4816151db565b60006020828403121561521857600080fd5b5035919050565b60008060006060848603121561523457600080fd5b83359250602084013561524681615037565b9150604084013561525681615037565b809150509250925092565b6000806040838503121561527457600080fd5b823567ffffffffffffffff81111561528b57600080fd5b6152978582860161504f565b92505060208301356152a881615037565b809150509250929050565b600080604083850312156152c657600080fd5b50508035926020909101359150565b6000806000606084860312156152ea57600080fd5b83356152f581615037565b92506020840135615305816151db565b91506040840135615256816151db565b6000806040838503121561532857600080fd5b8235915060208301356152a8816151db565b6020808252825182820181905260009190848201906040850190845b8181101561537257835183529284019291840191600101615356565b50909695505050505050565b60008060006060848603121561539357600080fd5b8335925060208401359150604084013561525681615037565b600080604083850312156153bf57600080fd5b82356153ca81615037565b946020939093013593505050565b600080600080608085870312156153ee57600080fd5b84356153f981615037565b935060208501359250604085013561541081615037565b9396929550929360600135925050565b60008060008060008060c0878903121561543957600080fd5b86359550602087013561544b81615037565b945060408701359350606087013561546281615037565b92506080870135615472816151db565b915060a0870135615482816151db565b809150509295509295509295565b600080604083850312156154a357600080fd5b82356154ae81615037565b915060208301356152a8816151db565b600080600080600060a086880312156154d657600080fd5b8535945060208601356154e881615037565b93506040860135925060608601356154ff816151db565b9150608086013561550f816151db565b809150509295509295909350565b8035614f2381615037565b600080600080600080600060e0888a03121561554357600080fd5b873567ffffffffffffffff8082111561555b57600080fd5b6155678b838c0161504f565b985060208a013591508082111561557d57600080fd5b6155898b838c016150c7565b975060408a013591508082111561559f57600080fd5b6155ab8b838c0161504f565b965060608a01359150808211156155c157600080fd5b6155cd8b838c0161504f565b955060808a01359150808211156155e357600080fd5b6155ef8b838c016150c7565b945060a08a013591508082111561560557600080fd5b506156128a828b0161504f565b92505061562160c0890161551d565b905092959891949750929550565b600082601f83011261564057600080fd5b8135602061565061507083615013565b8083825260208201915060208460051b87010193508684111561567257600080fd5b602086015b848110156150bc57803561568a816151db565b8352918301918301615677565b600080604083850312156156aa57600080fd5b823567ffffffffffffffff808211156156c257600080fd5b818501915085601f8301126156d657600080fd5b813560206156e661507083615013565b82815260059290921b8401810191818101908984111561570557600080fd5b948201945b8386101561572c57853561571d81615037565b8252948201949082019061570a565b9650508601359250508082111561574257600080fd5b5061574f8582860161562f565b9150509250929050565b60006020808352835180602085015260005b818110156157875785810183015185820160400152820161576b565b506000604082860101526040601f19601f8301168501019250505092915050565b634e487b7160e01b600052603260045260246000fd5b8051614f23816151db565b8051614f2381615037565b600061014082840312156157e757600080fd5b6157ef614fb8565b825181526157ff602084016157be565b60208201526040830151604082015261581a606084016157be565b606082015261582b608084016157c9565b608082015261583c60a084016157be565b60a082015261584d60c084016157c9565b60c082015261585e60e084016157be565b60e08201526101006158718185016157be565b90820152610120928301519281019290925250919050565b60006020828403121561589b57600080fd5b5051919050565b600080604083850312156158b557600080fd5b505080516020909101519092909150565b6000602082840312156158d857600080fd5b815160ff811681146151d457600080fd5b634e487b7160e01b600052601160045260246000fd5b600181815b8085111561593a578160001904821115615920576159206158e9565b8085161561592d57918102915b93841c9390800290615904565b509250929050565b60008261595157506001610e4b565b8161595e57506000610e4b565b8160018114615974576002811461597e5761599a565b6001915050610e4b565b60ff84111561598f5761598f6158e9565b50506001821b610e4b565b5060208310610133831016604e8410600b84101617156159bd575081810a610e4b565b6159c783836158ff565b80600019048211156159db576159db6158e9565b029392505050565b60006151d460ff841683615942565b8082028115828204841417610e4b57610e4b6158e9565b600082615a2657634e487b7160e01b600052601260045260246000fd5b500490565b60008060008060808587031215615a4157600080fd5b505082516020840151604085015160609095015191969095509092509050565b80820180821115610e4b57610e4b6158e9565b600060208284031215615a8657600080fd5b81516151d4816151db565b60008060408385031215615aa457600080fd5b8251615aaf81615037565b60208401519092506152a881615037565b600060208284031215615ad257600080fd5b81516151d481615037565b805182526020810151615af4602084018215159052565b50604081015160408301526060810151615b12606084018215159052565b506080810151615b2d60808401826001600160a01b03169052565b5060a0810151615b4160a084018215159052565b5060c0810151615b5c60c08401826001600160a01b03169052565b5060e0810151615b7060e084018215159052565b506101008181015115159083015261012090810151910152565b6101808101615b998286615add565b836101408301526001600160a01b038316610160830152949350505050565b6101a08101615bc78287615add565b846101408301526001600160a01b03841661016083015282151561018083015295945050505050565b6101808101615bff8286615add565b6101408201939093526101600152919050565b6101408101610e4b8284615add565b805169ffffffffffffffffffff81168114614f2357600080fd5b600080600080600060a08688031215615c5357600080fd5b615c5c86615c21565b9450602086015193506040860151925060608601519150615c7f60808701615c21565b90509295509295909350565b81810381811115610e4b57610e4b6158e9565b6102408101615cad828c615add565b6001600160a01b03998a166101408301529789166101608201529588166101808701526101a08601949094526101c085019290925285166101e0840152841661020083015290921661022090920191909152919050565b600080600060608486031215615d1957600080fd5b8351615d2481615037565b6020850151909350615d3581615037565b604085015190925061525681615037565b600080600060608486031215615d5b57600080fd5b8351925060208401519150604084015190509250925092565b600060208284031215615d8657600080fd5b815162ffffff811681146151d457600080fd5b6001600160a01b0387811682526101e0820190615db96020840189615add565b86610160840152808616610180840152508315156101a08301528215156101c0830152979650505050505050565b600060018201615df957615df96158e9565b506001019056fea26469706673582212207ce469ac52edcdb508d41dd1fba1b15d06b3f949c45c5da26e94bc9e7f286af964736f6c63430008180033",
  "linkReferences": {},
  "deployedLinkReferences": {}
}