{
  "_format": "hh-sol-artifact-1",
  "contractName": "CCFL",
  "sourceName": "contracts/CCFL.sol",
  "abi": [
    {
      "inputs": [],
      "name": "ERC1167FailedCreateClone",
      "type": "error"
    },
    {
      "inputs": [],
      "name": "InvalidInitialization",
      "type": "error"
    },
    {
      "inputs": [],
      "name": "NotInitializing",
      "type": "error"
    },
    {
      "anonymous": false,
      "inputs": [
        {
          "indexed": true,
          "internalType": "address",
          "name": "borrower",
          "type": "address"
        },
        {
          "components": [
            {
              "internalType": "uint256",
              "name": "loanId",
              "type": "uint256"
            },
            {
              "internalType": "uint256",
              "name": "amount",
              "type": "uint256"
            },
            {
              "internalType": "bool",
              "name": "isClosed",
              "type": "bool"
            },
            {
              "internalType": "address",
              "name": "borrower",
              "type": "address"
            },
            {
              "internalType": "bool",
              "name": "isLiquidated",
              "type": "bool"
            },
            {
              "internalType": "contract IERC20Standard",
              "name": "stableCoin",
              "type": "address"
            },
            {
              "internalType": "bool",
              "name": "isFinalty",
              "type": "bool"
            },
            {
              "internalType": "bool",
              "name": "isFiat",
              "type": "bool"
            },
            {
              "internalType": "uint256",
              "name": "closedAmount",
              "type": "uint256"
            }
          ],
          "indexed": false,
          "internalType": "struct DataTypes.Loan",
          "name": "loanInfo",
          "type": "tuple"
        },
        {
          "indexed": false,
          "internalType": "uint256",
          "name": "collateralAmount",
          "type": "uint256"
        },
        {
          "indexed": false,
          "internalType": "contract IERC20Standard",
          "name": "collateral",
          "type": "address"
        },
        {
          "indexed": false,
          "internalType": "bool",
          "name": "isETH",
          "type": "bool"
        }
      ],
      "name": "AddCollateral",
      "type": "event"
    },
    {
      "anonymous": false,
      "inputs": [
        {
          "indexed": true,
          "internalType": "address",
          "name": "borrower",
          "type": "address"
        },
        {
          "indexed": false,
          "internalType": "address",
          "name": "loanAddress",
          "type": "address"
        },
        {
          "components": [
            {
              "internalType": "uint256",
              "name": "loanId",
              "type": "uint256"
            },
            {
              "internalType": "uint256",
              "name": "amount",
              "type": "uint256"
            },
            {
              "internalType": "bool",
              "name": "isClosed",
              "type": "bool"
            },
            {
              "internalType": "address",
              "name": "borrower",
              "type": "address"
            },
            {
              "internalType": "bool",
              "name": "isLiquidated",
              "type": "bool"
            },
            {
              "internalType": "contract IERC20Standard",
              "name": "stableCoin",
              "type": "address"
            },
            {
              "internalType": "bool",
              "name": "isFinalty",
              "type": "bool"
            },
            {
              "internalType": "bool",
              "name": "isFiat",
              "type": "bool"
            },
            {
              "internalType": "uint256",
              "name": "closedAmount",
              "type": "uint256"
            }
          ],
          "indexed": false,
          "internalType": "struct DataTypes.Loan",
          "name": "loanInfo",
          "type": "tuple"
        },
        {
          "indexed": false,
          "internalType": "uint256",
          "name": "collateralAmount",
          "type": "uint256"
        },
        {
          "indexed": false,
          "internalType": "contract IERC20Standard",
          "name": "collateral",
          "type": "address"
        },
        {
          "indexed": false,
          "internalType": "bool",
          "name": "isYieldGenerating",
          "type": "bool"
        },
        {
          "indexed": false,
          "internalType": "bool",
          "name": "isETH",
          "type": "bool"
        }
      ],
      "name": "CreateLoan",
      "type": "event"
    },
    {
      "anonymous": false,
      "inputs": [
        {
          "indexed": false,
          "internalType": "uint64",
          "name": "version",
          "type": "uint64"
        }
      ],
      "name": "Initialized",
      "type": "event"
    },
    {
      "anonymous": false,
      "inputs": [
        {
          "indexed": true,
          "internalType": "address",
          "name": "liquidator",
          "type": "address"
        },
        {
          "indexed": true,
          "internalType": "address",
          "name": "borrower",
          "type": "address"
        },
        {
          "components": [
            {
              "internalType": "uint256",
              "name": "loanId",
              "type": "uint256"
            },
            {
              "internalType": "uint256",
              "name": "amount",
              "type": "uint256"
            },
            {
              "internalType": "bool",
              "name": "isClosed",
              "type": "bool"
            },
            {
              "internalType": "address",
              "name": "borrower",
              "type": "address"
            },
            {
              "internalType": "bool",
              "name": "isLiquidated",
              "type": "bool"
            },
            {
              "internalType": "contract IERC20Standard",
              "name": "stableCoin",
              "type": "address"
            },
            {
              "internalType": "bool",
              "name": "isFinalty",
              "type": "bool"
            },
            {
              "internalType": "bool",
              "name": "isFiat",
              "type": "bool"
            },
            {
              "internalType": "uint256",
              "name": "closedAmount",
              "type": "uint256"
            }
          ],
          "indexed": false,
          "internalType": "struct DataTypes.Loan",
          "name": "loanInfo",
          "type": "tuple"
        },
        {
          "indexed": false,
          "internalType": "uint256",
          "name": "collateralAmount",
          "type": "uint256"
        },
        {
          "indexed": false,
          "internalType": "contract IERC20Standard",
          "name": "collateral",
          "type": "address"
        }
      ],
      "name": "Liquidate",
      "type": "event"
    },
    {
      "anonymous": false,
      "inputs": [
        {
          "indexed": true,
          "internalType": "address",
          "name": "borrower",
          "type": "address"
        },
        {
          "components": [
            {
              "internalType": "uint256",
              "name": "loanId",
              "type": "uint256"
            },
            {
              "internalType": "uint256",
              "name": "amount",
              "type": "uint256"
            },
            {
              "internalType": "bool",
              "name": "isClosed",
              "type": "bool"
            },
            {
              "internalType": "address",
              "name": "borrower",
              "type": "address"
            },
            {
              "internalType": "bool",
              "name": "isLiquidated",
              "type": "bool"
            },
            {
              "internalType": "contract IERC20Standard",
              "name": "stableCoin",
              "type": "address"
            },
            {
              "internalType": "bool",
              "name": "isFinalty",
              "type": "bool"
            },
            {
              "internalType": "bool",
              "name": "isFiat",
              "type": "bool"
            },
            {
              "internalType": "uint256",
              "name": "closedAmount",
              "type": "uint256"
            }
          ],
          "indexed": false,
          "internalType": "struct DataTypes.Loan",
          "name": "loanInfo",
          "type": "tuple"
        },
        {
          "indexed": false,
          "internalType": "uint256",
          "name": "repayAmount",
          "type": "uint256"
        },
        {
          "indexed": false,
          "internalType": "uint256",
          "name": "debtRemain",
          "type": "uint256"
        }
      ],
      "name": "RepayLoan",
      "type": "event"
    },
    {
      "anonymous": false,
      "inputs": [
        {
          "indexed": true,
          "internalType": "address",
          "name": "borrower",
          "type": "address"
        },
        {
          "components": [
            {
              "internalType": "uint256",
              "name": "loanId",
              "type": "uint256"
            },
            {
              "internalType": "uint256",
              "name": "amount",
              "type": "uint256"
            },
            {
              "internalType": "bool",
              "name": "isClosed",
              "type": "bool"
            },
            {
              "internalType": "address",
              "name": "borrower",
              "type": "address"
            },
            {
              "internalType": "bool",
              "name": "isLiquidated",
              "type": "bool"
            },
            {
              "internalType": "contract IERC20Standard",
              "name": "stableCoin",
              "type": "address"
            },
            {
              "internalType": "bool",
              "name": "isFinalty",
              "type": "bool"
            },
            {
              "internalType": "bool",
              "name": "isFiat",
              "type": "bool"
            },
            {
              "internalType": "uint256",
              "name": "closedAmount",
              "type": "uint256"
            }
          ],
          "indexed": false,
          "internalType": "struct DataTypes.Loan",
          "name": "loanInfo",
          "type": "tuple"
        },
        {
          "indexed": false,
          "internalType": "uint256",
          "name": "collateralAmount",
          "type": "uint256"
        },
        {
          "indexed": false,
          "internalType": "contract IERC20Standard",
          "name": "collateral",
          "type": "address"
        },
        {
          "indexed": false,
          "internalType": "bool",
          "name": "isETH",
          "type": "bool"
        }
      ],
      "name": "WithdrawAllCollateral",
      "type": "event"
    },
    {
      "anonymous": false,
      "inputs": [
        {
          "indexed": true,
          "internalType": "address",
          "name": "admin",
          "type": "address"
        },
        {
          "components": [
            {
              "internalType": "uint256",
              "name": "loanId",
              "type": "uint256"
            },
            {
              "internalType": "uint256",
              "name": "amount",
              "type": "uint256"
            },
            {
              "internalType": "bool",
              "name": "isClosed",
              "type": "bool"
            },
            {
              "internalType": "address",
              "name": "borrower",
              "type": "address"
            },
            {
              "internalType": "bool",
              "name": "isLiquidated",
              "type": "bool"
            },
            {
              "internalType": "contract IERC20Standard",
              "name": "stableCoin",
              "type": "address"
            },
            {
              "internalType": "bool",
              "name": "isFinalty",
              "type": "bool"
            },
            {
              "internalType": "bool",
              "name": "isFiat",
              "type": "bool"
            },
            {
              "internalType": "uint256",
              "name": "closedAmount",
              "type": "uint256"
            }
          ],
          "indexed": false,
          "internalType": "struct DataTypes.Loan",
          "name": "loanInfo",
          "type": "tuple"
        },
        {
          "indexed": false,
          "internalType": "uint256",
          "name": "collateralAmount",
          "type": "uint256"
        },
        {
          "indexed": false,
          "internalType": "contract IERC20Standard",
          "name": "collateral",
          "type": "address"
        },
        {
          "indexed": false,
          "internalType": "bool",
          "name": "isETH",
          "type": "bool"
        }
      ],
      "name": "WithdrawAllCollateralByAdmin",
      "type": "event"
    },
    {
      "inputs": [
        {
          "internalType": "uint256",
          "name": "_loanId",
          "type": "uint256"
        },
        {
          "internalType": "uint256",
          "name": "_amountCollateral",
          "type": "uint256"
        },
        {
          "internalType": "contract IERC20Standard",
          "name": "_collateral",
          "type": "address"
        }
      ],
      "name": "addCollateral",
      "outputs": [],
      "stateMutability": "nonpayable",
      "type": "function"
    },
    {
      "inputs": [
        {
          "internalType": "uint256",
          "name": "_loanId",
          "type": "uint256"
        },
        {
          "internalType": "uint256",
          "name": "_amountETH",
          "type": "uint256"
        }
      ],
      "name": "addCollateralByETH",
      "outputs": [],
      "stateMutability": "payable",
      "type": "function"
    },
    {
      "inputs": [
        {
          "internalType": "uint256",
          "name": "_loanId",
          "type": "uint256"
        },
        {
          "internalType": "uint256",
          "name": "_amountCollateral",
          "type": "uint256"
        }
      ],
      "name": "addCollateralHealthFactor",
      "outputs": [
        {
          "internalType": "uint256",
          "name": "",
          "type": "uint256"
        }
      ],
      "stateMutability": "view",
      "type": "function"
    },
    {
      "inputs": [],
      "name": "ccflConfig",
      "outputs": [
        {
          "internalType": "contract ICCFLConfig",
          "name": "",
          "type": "address"
        }
      ],
      "stateMutability": "view",
      "type": "function"
    },
    {
      "inputs": [],
      "name": "ccflLoan",
      "outputs": [
        {
          "internalType": "contract ICCFLLoan",
          "name": "",
          "type": "address"
        }
      ],
      "stateMutability": "view",
      "type": "function"
    },
    {
      "inputs": [
        {
          "internalType": "contract IERC20Standard",
          "name": "",
          "type": "address"
        }
      ],
      "name": "ccflPools",
      "outputs": [
        {
          "internalType": "contract ICCFLPool",
          "name": "",
          "type": "address"
        }
      ],
      "stateMutability": "view",
      "type": "function"
    },
    {
      "inputs": [
        {
          "internalType": "contract IERC20Standard[]",
          "name": "array",
          "type": "address[]"
        },
        {
          "internalType": "contract IERC20Standard",
          "name": "el",
          "type": "address"
        }
      ],
      "name": "checkExistElement",
      "outputs": [
        {
          "internalType": "bool",
          "name": "",
          "type": "bool"
        }
      ],
      "stateMutability": "pure",
      "type": "function"
    },
    {
      "inputs": [
        {
          "internalType": "uint256",
          "name": "_amount",
          "type": "uint256"
        },
        {
          "internalType": "contract IERC20Standard",
          "name": "_stableCoin",
          "type": "address"
        },
        {
          "internalType": "contract IERC20Standard",
          "name": "_collateral",
          "type": "address"
        }
      ],
      "name": "checkMinimalCollateralForLoan",
      "outputs": [
        {
          "internalType": "uint256",
          "name": "",
          "type": "uint256"
        }
      ],
      "stateMutability": "view",
      "type": "function"
    },
    {
      "inputs": [
        {
          "internalType": "uint256",
          "name": "_amount",
          "type": "uint256"
        },
        {
          "internalType": "contract IERC20Standard",
          "name": "_stableCoin",
          "type": "address"
        },
        {
          "internalType": "uint256",
          "name": "_amountCollateral",
          "type": "uint256"
        },
        {
          "internalType": "contract IERC20Standard",
          "name": "_collateral",
          "type": "address"
        },
        {
          "internalType": "bool",
          "name": "_isYieldGenerating",
          "type": "bool"
        },
        {
          "internalType": "bool",
          "name": "_isFiat",
          "type": "bool"
        }
      ],
      "name": "createLoan",
      "outputs": [],
      "stateMutability": "nonpayable",
      "type": "function"
    },
    {
      "inputs": [
        {
          "internalType": "uint256",
          "name": "_amount",
          "type": "uint256"
        },
        {
          "internalType": "contract IERC20Standard",
          "name": "_stableCoin",
          "type": "address"
        },
        {
          "internalType": "uint256",
          "name": "_amountETH",
          "type": "uint256"
        },
        {
          "internalType": "bool",
          "name": "_isYieldGenerating",
          "type": "bool"
        },
        {
          "internalType": "bool",
          "name": "_isFiat",
          "type": "bool"
        }
      ],
      "name": "createLoanByETH",
      "outputs": [],
      "stateMutability": "payable",
      "type": "function"
    },
    {
      "inputs": [
        {
          "internalType": "contract IERC20Standard",
          "name": "_stableCoin",
          "type": "address"
        },
        {
          "internalType": "uint256",
          "name": "_amount",
          "type": "uint256"
        },
        {
          "internalType": "contract IERC20Standard",
          "name": "_collateralToken",
          "type": "address"
        },
        {
          "internalType": "uint256",
          "name": "_amountCollateral",
          "type": "uint256"
        }
      ],
      "name": "estimateHealthFactor",
      "outputs": [
        {
          "internalType": "uint256",
          "name": "",
          "type": "uint256"
        }
      ],
      "stateMutability": "view",
      "type": "function"
    },
    {
      "inputs": [
        {
          "internalType": "uint256",
          "name": "_loanId",
          "type": "uint256"
        }
      ],
      "name": "getHealthFactor",
      "outputs": [
        {
          "internalType": "uint256",
          "name": "",
          "type": "uint256"
        }
      ],
      "stateMutability": "view",
      "type": "function"
    },
    {
      "inputs": [
        {
          "internalType": "uint256",
          "name": "_loanId",
          "type": "uint256"
        }
      ],
      "name": "getLoanAddress",
      "outputs": [
        {
          "internalType": "address",
          "name": "",
          "type": "address"
        }
      ],
      "stateMutability": "view",
      "type": "function"
    },
    {
      "inputs": [
        {
          "internalType": "address",
          "name": "borrower",
          "type": "address"
        }
      ],
      "name": "getLoanIds",
      "outputs": [
        {
          "internalType": "uint256[]",
          "name": "",
          "type": "uint256[]"
        }
      ],
      "stateMutability": "view",
      "type": "function"
    },
    {
      "inputs": [
        {
          "internalType": "contract IERC20Standard[]",
          "name": "_ccflPoolStableCoin",
          "type": "address[]"
        },
        {
          "internalType": "contract ICCFLPool[]",
          "name": "_ccflPools",
          "type": "address[]"
        },
        {
          "internalType": "contract ICCFLConfig",
          "name": "_ccflConfig",
          "type": "address"
        },
        {
          "internalType": "contract ICCFLLoan",
          "name": "_ccflLoan",
          "type": "address"
        }
      ],
      "name": "initialize",
      "outputs": [],
      "stateMutability": "nonpayable",
      "type": "function"
    },
    {
      "inputs": [],
      "name": "isPaused",
      "outputs": [
        {
          "internalType": "bool",
          "name": "",
          "type": "bool"
        }
      ],
      "stateMutability": "view",
      "type": "function"
    },
    {
      "inputs": [
        {
          "internalType": "uint256",
          "name": "_loanId",
          "type": "uint256"
        }
      ],
      "name": "liquidate",
      "outputs": [],
      "stateMutability": "nonpayable",
      "type": "function"
    },
    {
      "inputs": [],
      "name": "loandIds",
      "outputs": [
        {
          "internalType": "uint256",
          "name": "",
          "type": "uint256"
        }
      ],
      "stateMutability": "view",
      "type": "function"
    },
    {
      "inputs": [
        {
          "internalType": "address",
          "name": "",
          "type": "address"
        }
      ],
      "name": "operators",
      "outputs": [
        {
          "internalType": "bool",
          "name": "",
          "type": "bool"
        }
      ],
      "stateMutability": "view",
      "type": "function"
    },
    {
      "inputs": [],
      "name": "owner",
      "outputs": [
        {
          "internalType": "address",
          "name": "",
          "type": "address"
        }
      ],
      "stateMutability": "view",
      "type": "function"
    },
    {
      "inputs": [
        {
          "internalType": "uint256",
          "name": "_loanId",
          "type": "uint256"
        },
        {
          "internalType": "uint256",
          "name": "_amount",
          "type": "uint256"
        }
      ],
      "name": "repayHealthFactor",
      "outputs": [
        {
          "internalType": "uint256",
          "name": "",
          "type": "uint256"
        }
      ],
      "stateMutability": "view",
      "type": "function"
    },
    {
      "inputs": [
        {
          "internalType": "uint256",
          "name": "_loanId",
          "type": "uint256"
        },
        {
          "internalType": "uint256",
          "name": "_amount",
          "type": "uint256"
        },
        {
          "internalType": "contract IERC20Standard",
          "name": "_stableCoin",
          "type": "address"
        }
      ],
      "name": "repayLoan",
      "outputs": [],
      "stateMutability": "nonpayable",
      "type": "function"
    },
    {
      "inputs": [
        {
          "internalType": "contract ICCFLLoan",
          "name": "_loan",
          "type": "address"
        }
      ],
      "name": "setCCFLLoan",
      "outputs": [],
      "stateMutability": "nonpayable",
      "type": "function"
    },
    {
      "inputs": [
        {
          "internalType": "address[]",
          "name": "_addresses",
          "type": "address[]"
        },
        {
          "internalType": "bool[]",
          "name": "_isActives",
          "type": "bool[]"
        }
      ],
      "name": "setOperators",
      "outputs": [],
      "stateMutability": "nonpayable",
      "type": "function"
    },
    {
      "inputs": [
        {
          "internalType": "bool",
          "name": "_paused",
          "type": "bool"
        }
      ],
      "name": "setPaused",
      "outputs": [],
      "stateMutability": "nonpayable",
      "type": "function"
    },
    {
      "inputs": [
        {
          "internalType": "contract IERC20Standard[]",
          "name": "_ccflPoolStableCoin",
          "type": "address[]"
        },
        {
          "internalType": "contract ICCFLPool[]",
          "name": "_ccflPools",
          "type": "address[]"
        }
      ],
      "name": "setPools",
      "outputs": [],
      "stateMutability": "nonpayable",
      "type": "function"
    },
    {
      "inputs": [
        {
          "internalType": "address",
          "name": "",
          "type": "address"
        },
        {
          "internalType": "uint256",
          "name": "",
          "type": "uint256"
        }
      ],
      "name": "userLoans",
      "outputs": [
        {
          "internalType": "uint256",
          "name": "",
          "type": "uint256"
        }
      ],
      "stateMutability": "view",
      "type": "function"
    },
    {
      "inputs": [
        {
          "internalType": "uint256",
          "name": "_loanId",
          "type": "uint256"
        },
        {
          "internalType": "bool",
          "name": "_isETH",
          "type": "bool"
        }
      ],
      "name": "withdrawAllCollateral",
      "outputs": [],
      "stateMutability": "nonpayable",
      "type": "function"
    },
    {
      "inputs": [
        {
          "internalType": "uint256",
          "name": "_loanId",
          "type": "uint256"
        },
        {
          "internalType": "bool",
          "name": "isETH",
          "type": "bool"
        }
      ],
      "name": "withdrawAllCollateralByAdmin",
      "outputs": [],
      "stateMutability": "nonpayable",
      "type": "function"
    },
    {
      "stateMutability": "payable",
      "type": "receive"
    }
  ],
  "bytecode": "0x608060405234801561001057600080fd5b50614f09806100206000396000f3fe6080604052600436106101c65760003560e01c80638858ddc5116100f7578063b5dbde5f11610095578063e43b03d611610064578063e43b03d61461053f578063ef3c5d251461055f578063f43050351461057f578063fdb2b32c1461059f57600080fd5b8063b5dbde5f146104c3578063c0d01546146104d6578063cff212e61461050c578063d8bad5bd1461051f57600080fd5b80638da5cb5b116100d15780638da5cb5b14610442578063a8700c3c14610462578063af6a85c414610482578063b187bd26146104a257600080fd5b80638858ddc5146103ec5780638ba02e1c1461040c5780638ba2444e1461042257600080fd5b80633c8bf9b3116101645780635c8edac41161013e5780635c8edac41461035f5780636b64c8851461037f5780636eb0fdd0146103ac5780636f601217146103cc57600080fd5b80633c8bf9b3146102ff578063415f12401461031f578063474843ea1461033f57600080fd5b80631bb514cf116101a05780631bb514cf146102675780631d9eb5d91461028757806325e9d2fa146102a757806330135641146102c757600080fd5b806313e7c9d8146101d257806316c38b3c1461021757806317845c691461023957600080fd5b366101cd57005b600080fd5b3480156101de57600080fd5b506102026101ed3660046142fe565b60006020819052908152604090205460ff1681565b60405190151581526020015b60405180910390f35b34801561022357600080fd5b50610237610232366004614330565b6105d5565b005b34801561024557600080fd5b5061025961025436600461434d565b61065c565b60405190815260200161020e565b34801561027357600080fd5b50610259610282366004614366565b6107da565b34801561029357600080fd5b506102026102a23660046144b5565b610a6b565b3480156102b357600080fd5b506102596102c2366004614507565b610ac6565b3480156102d357600080fd5b506004546102e7906001600160a01b031681565b6040516001600160a01b03909116815260200161020e565b34801561030b57600080fd5b5061023761031a366004614591565b610c3c565b34801561032b57600080fd5b5061023761033a36600461434d565b610e4f565b34801561034b57600080fd5b5061023761035a3660046142fe565b611643565b34801561036b57600080fd5b5061023761037a36600461461a565b6116aa565b34801561038b57600080fd5b5061039f61039a3660046142fe565b611954565b60405161020e919061463f565b3480156103b857600080fd5b506102376103c7366004614683565b6119c0565b3480156103d857600080fd5b506102376103e73660046146b1565b612146565b3480156103f857600080fd5b50610259610407366004614715565b612237565b34801561041857600080fd5b5061025960015481565b34801561042e57600080fd5b506005546102e7906001600160a01b031681565b34801561044e57600080fd5b506002546102e7906001600160a01b031681565b34801561046e57600080fd5b5061023761047d36600461475d565b6124f7565b34801561048e57600080fd5b5061023761049d36600461461a565b61296b565b3480156104ae57600080fd5b5060025461020290600160a01b900460ff1681565b6102376104d13660046147cd565b612a29565b3480156104e257600080fd5b506102e76104f13660046142fe565b6006602052600090815260409020546001600160a01b031681565b61023761051a366004614507565b612f93565b34801561052b57600080fd5b5061025961053a36600461482c565b6133e7565b34801561054b57600080fd5b5061025961055a366004614507565b613418565b34801561056b57600080fd5b5061023761057a366004614683565b61358d565b34801561058b57600080fd5b5061023761059a3660046148c0565b613956565b3480156105ab57600080fd5b506102e76105ba36600461434d565b6000908152600760205260409020546001600160a01b031690565b6002546040805180820190915260018152601960f91b6020820152906001600160a01b031633146106225760405162461bcd60e51b81526004016106199190614978565b60405180910390fd5b5060028054911515600160a01b027fffffffffffffffffffffff00ffffffffffffffffffffffffffffffffffffffff909216919091179055565b600081815260076020526040808220548151635d3e2fa160e01b815291516001600160a01b039091169183918391635d3e2fa1916004808301926101209291908290030181865afa1580156106b5573d6000803e3d6000fd5b505050506040513d601f19601f820116820180604052508101906106d991906149dd565b60a08101516001600160a01b0390811660009081526006602052604080822054905163a52f38d160e01b815260048101899052939450909291169063a52f38d190602401602060405180830381865afa15801561073a573d6000803e3d6000fd5b505050506040513d601f19601f8201168201806040525081019061075e9190614a80565b604051632696439560e11b815260048101829052600060248201529091506001600160a01b03841690634d2c872a90604401602060405180830381865afa1580156107ad573d6000803e3d6000fd5b505050506040513d601f19601f820116820180604052508101906107d19190614a80565b95945050505050565b6000806000600460009054906101000a90046001600160a01b03166001600160a01b031663e75235b86040518163ffffffff1660e01b81526004016040805180830381865afa158015610831573d6000803e3d6000fd5b505050506040513d601f19601f820116820180604052508101906108559190614a99565b600480546040516359dfff5560e11b81526001600160a01b038981169382019390935260006024820152939550919350169063b3bffeaa90604401602060405180830381865afa1580156108ad573d6000803e3d6000fd5b505050506040513d601f19601f820116820180604052508101906108d19190614a80565b82866001600160a01b031663313ce5676040518163ffffffff1660e01b8152600401602060405180830381865afa158015610910573d6000803e3d6000fd5b505050506040513d601f19601f820116820180604052508101906109349190614abd565b61093f90600a614bda565b600480546040516359dfff5560e11b81526001600160a01b038b8116938201939093526001602482015291169063b3bffeaa90604401602060405180830381865afa158015610992573d6000803e3d6000fd5b505050506040513d601f19601f820116820180604052508101906109b69190614a80565b876001600160a01b031663313ce5676040518163ffffffff1660e01b8152600401602060405180830381865afa1580156109f4573d6000803e3d6000fd5b505050506040513d601f19601f82011682018060405250810190610a189190614abd565b610a2390600a614bda565b610a2d908b614be9565b610a3990612710614be9565b610a439190614be9565b610a4d9190614c00565b610a579190614c00565b610a619190614c00565b9695505050505050565b600080805b8451811015610abc57836001600160a01b0316858281518110610a9557610a95614c22565b60200260200101516001600160a01b031603610ab45760019150610abc565b600101610a70565b5090505b92915050565b600082815260076020526040808220548151635d3e2fa160e01b815291516001600160a01b039091169183918391635d3e2fa1916004808301926101209291908290030181865afa158015610b1f573d6000803e3d6000fd5b505050506040513d601f19601f82011682018060405250810190610b4391906149dd565b60a08101516001600160a01b0390811660009081526006602052604080822054905163a52f38d160e01b8152600481018a9052939450909291169063a52f38d190602401602060405180830381865afa158015610ba4573d6000803e3d6000fd5b505050506040513d601f19601f82011682018060405250810190610bc89190614a80565b604051632696439560e11b815260048101829052602481018790529091506001600160a01b03841690634d2c872a906044015b602060405180830381865afa158015610c18573d6000803e3d6000fd5b505050506040513d601f19601f82011682018060405250810190610a619190614a80565b7ff0c57e16840df040f15088dc2f81fe391c3923bec73e23a9662efc9c229c6a00805468010000000000000000810460ff16159067ffffffffffffffff16600081158015610c875750825b905060008267ffffffffffffffff166001148015610ca45750303b155b905081158015610cb2575080155b15610ce9576040517ff92ee8a900000000000000000000000000000000000000000000000000000000815260040160405180910390fd5b845467ffffffffffffffff191660011785558315610d1d57845468ff00000000000000001916680100000000000000001785555b60005b8851811015610d9d57888181518110610d3b57610d3b614c22565b6020026020010151600660008c8481518110610d5957610d59614c22565b6020908102919091018101516001600160a01b0390811683529082019290925260400160002080546001600160a01b03191692909116919091179055600101610d20565b50600180805560028054336001600160a01b03199182168117909255600091825260208290526040909120805460ff19169092179091556004805482166001600160a01b038a811691909117909155600580549092169088161790558315610e4457845468ff000000000000000019168555604051600181527fc7f505b2f371ae2175ee4913f4499e1f2633a7b5936321eed1cdaeb6115181d29060200160405180910390a15b505050505050505050565b600280546040805180820190915291825261323160f01b6020830152600160a01b900460ff1615610e935760405162461bcd60e51b81526004016106199190614978565b50600081815260076020526040808220548151635d3e2fa160e01b815291516001600160a01b0390911692918391635d3e2fa191600480820192610120929091908290030181865afa158015610eed573d6000803e3d6000fd5b505050506040513d601f19601f82011682018060405250810190610f1191906149dd565b60a08101516001600160a01b0390811660009081526006602052604080822054905163a52f38d160e01b815260048101889052939450909291169063a52f38d190602401602060405180830381865afa158015610f72573d6000803e3d6000fd5b505050506040513d601f19601f82011682018060405250810190610f969190614a80565b9050600080600080866001600160a01b031663415f1240866040518263ffffffff1660e01b8152600401610fcc91815260200190565b6080604051808303816000875af1158015610feb573d6000803e3d6000fd5b505050506040513d601f19601f8201168201806040525081019061100f9190614c38565b93509350935093508560a001516001600160a01b03166323b872dd883086888a6110399190614c6e565b6110439190614c6e565b6040517fffffffff0000000000000000000000000000000000000000000000000000000060e086901b1681526001600160a01b03938416600482015292909116602483015260448201526064016020604051808303816000875af11580156110af573d6000803e3d6000fd5b505050506040513d601f19601f820116820180604052508101906110d39190614c81565b5060a08601516001600160a01b039081166000818152600660205260409081902054905163095ea7b360e01b815292166004830152602482018790529063095ea7b3906044016020604051808303816000875af1158015611138573d6000803e3d6000fd5b505050506040513d601f19601f8201168201806040525081019061115c9190614c81565b5060a08601516001600160a01b039081166000908152600660205260409081902054905163d8aed14560e01b8152600481018b90526024810188905291169063d8aed14590604401600060405180830381600087803b1580156111be57600080fd5b505af11580156111d2573d6000803e3d6000fd5b50505050600080600460009054906101000a90046001600160a01b03166001600160a01b0316633c0c45666040518163ffffffff1660e01b81526004016040805180830381865afa15801561122b573d6000803e3d6000fd5b505050506040513d601f19601f8201168201806040525081019061124f9190614c9e565b60a08a01516040516323b872dd60e01b81526001600160a01b038d8116600483015280841660248301526044820189905293955091935091909116906323b872dd906064016020604051808303816000875af11580156112b3573d6000803e3d6000fd5b505050506040513d601f19601f820116820180604052508101906112d79190614c81565b5060a08801516040516323b872dd60e01b81526001600160a01b038b81166004830152848116602483015260448201869052909116906323b872dd906064016020604051808303816000875af1158015611335573d6000803e3d6000fd5b505050506040513d601f19601f820116820180604052508101906113599190614c81565b5060a08801516001600160a01b03908116600081815260066020526040902054909163095ea7b3911661138c888a614c6e565b6040517fffffffff0000000000000000000000000000000000000000000000000000000060e085901b1681526001600160a01b03909216600483015260248201526044016020604051808303816000875af11580156113ef573d6000803e3d6000fd5b505050506040513d601f19601f820116820180604052508101906114139190614c81565b5060a08801516001600160a01b03908116600090815260066020526040908190205490517f7f394031000000000000000000000000000000000000000000000000000000008152600481018d905260248101899052911690637f39403190604401600060405180830381600087803b15801561148e57600080fd5b505af11580156114a2573d6000803e3d6000fd5b5050505060008511156115225760a08801516001600160a01b03908116600090815260066020526040908190205490516326de36ff60e21b815260048101889052911690639b78dbfc90602401600060405180830381600087803b15801561150957600080fd5b505af115801561151d573d6000803e3d6000fd5b505050505b87606001516001600160a01b0316336001600160a01b03167f6f851c52fae6f0f8f229cc3193f6fd098b5c4b093280472784eaaeaad7d4f2268a8c6001600160a01b031663315deeaa6040518163ffffffff1660e01b8152600401602060405180830381865afa15801561159a573d6000803e3d6000fd5b505050506040513d601f19601f820116820180604052508101906115be9190614a80565b8d6001600160a01b031663964236636040518163ffffffff1660e01b8152600401602060405180830381865afa1580156115fc573d6000803e3d6000fd5b505050506040513d601f19601f820116820180604052508101906116209190614ccd565b60405161162f93929190614d7a565b60405180910390a350505050505050505050565b6002546040805180820190915260018152601960f91b6020820152906001600160a01b031633146116875760405162461bcd60e51b81526004016106199190614978565b50600580546001600160a01b0319166001600160a01b0392909216919091179055565b600280546040805180820190915291825261323160f01b6020830152600160a01b900460ff16156116ee5760405162461bcd60e51b81526004016106199190614978565b50600082815260076020526040808220548151635d3e2fa160e01b815291516001600160a01b0390911692918391635d3e2fa191600480820192610120929091908290030181865afa158015611748573d6000803e3d6000fd5b505050506040513d601f19601f8201168201806040525081019061176c91906149dd565b905080606001516001600160a01b0316336001600160a01b0316146040518060400160405280600281526020017f3232000000000000000000000000000000000000000000000000000000000000815250906117db5760405162461bcd60e51b81526004016106199190614978565b5060608101516040516308165c1760e11b81526001600160a01b03918216600482015284151560248201529083169063102cb82e90604401600060405180830381600087803b15801561182d57600080fd5b505af1158015611841573d6000803e3d6000fd5b50505050336001600160a01b03167f67778843092c92d2f53106e57be7c25564eca5eb75e2c2acfa42846b6abdd92382846001600160a01b031663315deeaa6040518163ffffffff1660e01b8152600401602060405180830381865afa1580156118af573d6000803e3d6000fd5b505050506040513d601f19601f820116820180604052508101906118d39190614a80565b856001600160a01b031663964236636040518163ffffffff1660e01b8152600401602060405180830381865afa158015611911573d6000803e3d6000fd5b505050506040513d601f19601f820116820180604052508101906119359190614ccd565b876040516119469493929190614da8565b60405180910390a250505050565b6001600160a01b0381166000908152600360209081526040918290208054835181840281018401909452808452606093928301828280156119b457602002820191906000526020600020905b8154815260200190600101908083116119a0575b50505050509050919050565b60048054604051630e7f137960e21b81526001600160a01b03808516938201939093528392909116906339fc4de490602401602060405180830381865afa158015611a0f573d6000803e3d6000fd5b505050506040513d601f19601f82011682018060405250810190611a339190614c81565b604080518082019091526001808252603360f81b60208301529091151514611a6e5760405162461bcd60e51b81526004016106199190614978565b50600280546040805180820190915291825261323160f01b6020830152600160a01b900460ff1615611ab35760405162461bcd60e51b81526004016106199190614978565b506001600160a01b038281166000908152600660205260409081902054905163a52f38d160e01b8152600481018790528592919091169063a52f38d190602401602060405180830381865afa158015611b10573d6000803e3d6000fd5b505050506040513d601f19601f82011682018060405250810190611b349190614a80565b841115611bba576001600160a01b038381166000908152600660205260409081902054905163a52f38d160e01b81526004810188905291169063a52f38d190602401602060405180830381865afa158015611b93573d6000803e3d6000fd5b505050506040513d601f19601f82011682018060405250810190611bb79190614a80565b90505b600085815260076020526040808220548151635d3e2fa160e01b815291516001600160a01b0390911692918391635d3e2fa191600480820192610120929091908290030181865afa158015611c13573d6000803e3d6000fd5b505050506040513d601f19601f82011682018060405250810190611c3791906149dd565b6040516323b872dd60e01b8152336004820152306024820152604481018590529091506001600160a01b038616906323b872dd906064016020604051808303816000875af1158015611c8d573d6000803e3d6000fd5b505050506040513d601f19601f82011682018060405250810190611cb19190614c81565b506001600160a01b038581166000818152600660205260409081902054905163095ea7b360e01b815292166004830152602482018590529063095ea7b3906044016020604051808303816000875af1158015611d11573d6000803e3d6000fd5b505050506040513d601f19601f82011682018060405250810190611d359190614c81565b506001600160a01b038581166000908152600660205260409081902054905163d8aed14560e01b8152600481018a90526024810186905291169063d8aed14590604401600060405180830381600087803b158015611d9257600080fd5b505af1158015611da6573d6000803e3d6000fd5b505050506001600160a01b0385811660009081526006602052604080822054905163a52f38d160e01b8152600481018b90529192169063a52f38d190602401602060405180830381865afa158015611e02573d6000803e3d6000fd5b505050506040513d601f19601f82011682018060405250810190611e269190614a80565b9050806000036120f7576000888152600760205260408082205481517f232fa733000000000000000000000000000000000000000000000000000000008152825184936001600160a01b039093169263232fa7339260048082019391829003018187875af1158015611e9c573d6000803e3d6000fd5b505050506040513d601f19601f82011682018060405250810190611ec09190614a99565b90925090508115611fd35760008a8152600760209081526040808320546001600160a01b038c81168086526006909452938290205491516323b872dd60e01b815290841660048201529216602483015260448201849052906323b872dd906064016020604051808303816000875af1158015611f40573d6000803e3d6000fd5b505050506040513d601f19601f82011682018060405250810190611f649190614c81565b506001600160a01b03888116600090815260066020526040908190205490516326de36ff60e21b815260048101859052911690639b78dbfc90602401600060405180830381600087803b158015611fba57600080fd5b505af1158015611fce573d6000803e3d6000fd5b505050505b60048054604080517f3c0c4566000000000000000000000000000000000000000000000000000000008152815160009485946001600160a01b031693633c0c456693808301939192908290030181865afa158015612035573d6000803e3d6000fd5b505050506040513d601f19601f820116820180604052508101906120599190614c9e565b909250905082156120f25760008c815260076020526040908190205490516323b872dd60e01b81526001600160a01b039182166004820152828216602482015260448101859052908b16906323b872dd906064016020604051808303816000875af11580156120cc573d6000803e3d6000fd5b505050506040513d601f19601f820116820180604052508101906120f09190614c81565b505b505050505b336001600160a01b03167fa9864e01b27de7bb079f82f0ee5445c4e9a0a7ac39140f41525a696f2b2458e783898460405161213493929190614de0565b60405180910390a25050505050505050565b3360009081526020818152604091829020548251808401909352600283527f31380000000000000000000000000000000000000000000000000000000000009183019190915260ff1615156001146121b15760405162461bcd60e51b81526004016106199190614978565b5060005b8151811015612232578181815181106121d0576121d0614c22565b6020026020010151600660008584815181106121ee576121ee614c22565b6020908102919091018101516001600160a01b0390811683529082019290925260400160002080546001600160a01b031916929091169190911790556001016121b5565b505050565b600480546040516359dfff5560e11b81526001600160a01b0387811693820193909352600160248201526000928392169063b3bffeaa90604401602060405180830381865afa15801561228e573d6000803e3d6000fd5b505050506040513d601f19601f820116820180604052508101906122b29190614a80565b600480546040516359dfff5560e11b81526001600160a01b038881169382019390935260006024820181905293945091169063b3bffeaa90604401602060405180830381865afa15801561230a573d6000803e3d6000fd5b505050506040513d601f19601f8201168201806040525081019061232e9190614a80565b9050600080600460009054906101000a90046001600160a01b03166001600160a01b031663e75235b86040518163ffffffff1660e01b81526004016040805180830381865afa158015612385573d6000803e3d6000fd5b505050506040513d601f19601f820116820180604052508101906123a99190614a99565b915091506000876001600160a01b031663313ce5676040518163ffffffff1660e01b8152600401602060405180830381865afa1580156123ed573d6000803e3d6000fd5b505050506040513d601f19601f820116820180604052508101906124119190614abd565b61241c90600a614bda565b6127108361242a878b614be9565b6124349190614be9565b61243e9190614c00565b6124489190614c00565b905060008a6001600160a01b031663313ce5676040518163ffffffff1660e01b8152600401602060405180830381865afa15801561248a573d6000803e3d6000fd5b505050506040513d601f19601f820116820180604052508101906124ae9190614abd565b6124b990600a614bda565b6124c3878c614be9565b6124cd9190614c00565b90506000816124dd846064614be9565b6124e79190614c00565b9c9b505050505050505050505050565b60048054604051630e7f137960e21b81526001600160a01b03808916938201939093528792909116906339fc4de490602401602060405180830381865afa158015612546573d6000803e3d6000fd5b505050506040513d601f19601f8201168201806040525081019061256a9190614c81565b604080518082019091526001808252603360f81b602083015290911515146125a55760405162461bcd60e51b81526004016106199190614978565b5060048054604051630e7f137960e21b81526001600160a01b03808816938201939093528692909116906339fc4de490602401602060405180830381865afa1580156125f5573d6000803e3d6000fd5b505050506040513d601f19601f820116820180604052508101906126199190614c81565b604080518082019091526001808252600d60fa1b602083015290911515146126545760405162461bcd60e51b81526004016106199190614978565b50600280546040805180820190915291825261323160f01b6020830152600160a01b900460ff16156126995760405162461bcd60e51b81526004016106199190614978565b506004805460408051631cea46b760e31b8152815160009485946001600160a01b03169363e75235b893808301939192908290030181865afa1580156126e3573d6000803e3d6000fd5b505050506040513d601f19601f820116820180604052508101906127079190614a99565b91509150886001600160a01b031663313ce5676040518163ffffffff1660e01b8152600401602060405180830381865afa158015612749573d6000803e3d6000fd5b505050506040513d601f19601f8201168201806040525081019061276d9190614abd565b61277890600a614bda565b600480546040516359dfff5560e11b81526001600160a01b038d8116938201939093526001602482015291169063b3bffeaa90604401602060405180830381865afa1580156127cb573d6000803e3d6000fd5b505050506040513d601f19601f820116820180604052508101906127ef9190614a80565b6127f9908c614be9565b61280590612710614be9565b61280f9190614c00565b876001600160a01b031663313ce5676040518163ffffffff1660e01b8152600401602060405180830381865afa15801561284d573d6000803e3d6000fd5b505050506040513d601f19601f820116820180604052508101906128719190614abd565b61287c90600a614bda565b600480546040516359dfff5560e11b81526001600160a01b038c8116938201939093526000602482015286929091169063b3bffeaa90604401602060405180830381865afa1580156128d2573d6000803e3d6000fd5b505050506040513d601f19601f820116820180604052508101906128f69190614a80565b612900908c614be9565b61290a9190614be9565b6129149190614c00565b1015604051806040016040528060018152602001603760f81b8152509061294e5760405162461bcd60e51b81526004016106199190614978565b5061295f8a8a8a8a8a8a6000613a10565b50505050505050505050565b6002546040805180820190915260018152601960f91b6020820152906001600160a01b031633146129af5760405162461bcd60e51b81526004016106199190614978565b50600082815260076020526040908190205490516308165c1760e11b815233600482015282151560248201526001600160a01b0390911690819063102cb82e90604401600060405180830381600087803b158015612a0c57600080fd5b505af1158015612a20573d6000803e3d6000fd5b50505050505050565b60048054604051630e7f137960e21b81526001600160a01b03808816938201939093528692909116906339fc4de490602401602060405180830381865afa158015612a78573d6000803e3d6000fd5b505050506040513d601f19601f82011682018060405250810190612a9c9190614c81565b604080518082019091526001808252603360f81b60208301529091151514612ad75760405162461bcd60e51b81526004016106199190614978565b506004805460408051634c2a6d8160e11b815290516001600160a01b0390921692639854db029282820192602092908290030181865afa158015612b1f573d6000803e3d6000fd5b505050506040513d601f19601f82011682018060405250810190612b439190614c81565b604080518082019091526002815261032360f41b6020820152901515600114612b7f5760405162461bcd60e51b81526004016106199190614978565b50600280546040805180820190915291825261323160f01b6020830152600160a01b900460ff1615612bc45760405162461bcd60e51b81526004016106199190614978565b506040805180820190915260018152601b60f91b602082015234851115612bfe5760405162461bcd60e51b81526004016106199190614978565b506000600460009054906101000a90046001600160a01b03166001600160a01b031663cae5f11e6040518163ffffffff1660e01b8152600401602060405180830381865afa158015612c54573d6000803e3d6000fd5b505050506040513d601f19601f82011682018060405250810190612c789190614ccd565b9050806001600160a01b031663d0e30db0866040518263ffffffff1660e01b81526004016000604051808303818588803b158015612cb557600080fd5b505af1158015612cc9573d6000803e3d6000fd5b50506004805460408051631cea46b760e31b81528151600097508796506001600160a01b03909316945063e75235b89381810193918290030181865afa158015612d17573d6000803e3d6000fd5b505050506040513d601f19601f82011682018060405250810190612d3b9190614a99565b91509150876001600160a01b031663313ce5676040518163ffffffff1660e01b8152600401602060405180830381865afa158015612d7d573d6000803e3d6000fd5b505050506040513d601f19601f82011682018060405250810190612da19190614abd565b612dac90600a614bda565b600480546040516359dfff5560e11b81526001600160a01b038c8116938201939093526001602482015291169063b3bffeaa90604401602060405180830381865afa158015612dff573d6000803e3d6000fd5b505050506040513d601f19601f82011682018060405250810190612e239190614a80565b612e2d908b614be9565b612e3990612710614be9565b612e439190614c00565b836001600160a01b031663313ce5676040518163ffffffff1660e01b8152600401602060405180830381865afa158015612e81573d6000803e3d6000fd5b505050506040513d601f19601f82011682018060405250810190612ea59190614abd565b612eb090600a614bda565b600480546040516359dfff5560e11b81526001600160a01b03888116938201939093526000602482015286929091169063b3bffeaa90604401602060405180830381865afa158015612f06573d6000803e3d6000fd5b505050506040513d601f19601f82011682018060405250810190612f2a9190614a80565b612f34908b614be9565b612f3e9190614be9565b612f489190614c00565b1015604051806040016040528060018152602001603760f81b81525090612f825760405162461bcd60e51b81526004016106199190614978565b50610e44898989868a8a6001613a10565b6004805460408051634c2a6d8160e11b815290516001600160a01b0390921692639854db029282820192602092908290030181865afa158015612fda573d6000803e3d6000fd5b505050506040513d601f19601f82011682018060405250810190612ffe9190614c81565b604080518082019091526002815261032360f41b602082015290151560011461303a5760405162461bcd60e51b81526004016106199190614978565b50600280546040805180820190915291825261323160f01b6020830152600160a01b900460ff161561307f5760405162461bcd60e51b81526004016106199190614978565b506040805180820190915260018152601b60f91b6020820152348211156130b95760405162461bcd60e51b81526004016106199190614978565b506000600460009054906101000a90046001600160a01b03166001600160a01b031663cae5f11e6040518163ffffffff1660e01b8152600401602060405180830381865afa15801561310f573d6000803e3d6000fd5b505050506040513d601f19601f820116820180604052508101906131339190614ccd565b9050806001600160a01b031663d0e30db0836040518263ffffffff1660e01b81526004016000604051808303818588803b15801561317057600080fd5b505af1158015613184573d6000803e3d6000fd5b505050600085815260076020526040808220548151635d3e2fa160e01b815291516001600160a01b0390911694509192508391635d3e2fa191600480820192610120929091908290030181865afa1580156131e3573d6000803e3d6000fd5b505050506040513d601f19601f8201168201806040525081019061320791906149dd565b60405163095ea7b360e01b81526001600160a01b038481166004830152602482018790529192509084169063095ea7b3906044016020604051808303816000875af115801561325a573d6000803e3d6000fd5b505050506040513d601f19601f8201168201806040525081019061327e9190614c81565b50604051633390ef1360e11b8152600481018590526001600160a01b03831690636721de2690602401600060405180830381600087803b1580156132c157600080fd5b505af11580156132d5573d6000803e3d6000fd5b50505050816001600160a01b0316631c783def6040518163ffffffff1660e01b8152600401602060405180830381865afa158015613317573d6000803e3d6000fd5b505050506040513d601f19601f8201168201806040525081019061333b9190614c81565b151560010361339857816001600160a01b03166307a6bf696040518163ffffffff1660e01b8152600401600060405180830381600087803b15801561337f57600080fd5b505af1158015613393573d6000803e3d6000fd5b505050505b336001600160a01b03167fa8afae2cdff9d4c50d5a50050c37acfd66b35605ce674636323e26167967309d82868660016040516133d89493929190614da8565b60405180910390a25050505050565b6003602052816000526040600020818154811061340357600080fd5b90600052602060002001600091509150505481565b600082815260076020526040808220548151635d3e2fa160e01b815291516001600160a01b039091169183918391635d3e2fa1916004808301926101209291908290030181865afa158015613471573d6000803e3d6000fd5b505050506040513d601f19601f8201168201806040525081019061349591906149dd565b60a08101516001600160a01b0390811660009081526006602052604080822054905163a52f38d160e01b8152600481018a9052939450909291169063a52f38d190602401602060405180830381865afa1580156134f6573d6000803e3d6000fd5b505050506040513d601f19601f8201168201806040525081019061351a9190614a80565b9050808510613531576201869f9350505050610ac0565b6001600160a01b038316634d2c872a61354a8784614e02565b6040517fffffffff0000000000000000000000000000000000000000000000000000000060e084901b168152600481019190915260006024820152604401610bfb565b60048054604051630e7f137960e21b81526001600160a01b03808516938201939093528392909116906339fc4de490602401602060405180830381865afa1580156135dc573d6000803e3d6000fd5b505050506040513d601f19601f820116820180604052508101906136009190614c81565b604080518082019091526001808252600d60fa1b6020830152909115151461363b5760405162461bcd60e51b81526004016106199190614978565b50600280546040805180820190915291825261323160f01b6020830152600160a01b900460ff16156136805760405162461bcd60e51b81526004016106199190614978565b50600084815260076020526040808220548151635d3e2fa160e01b815291516001600160a01b0390911692918391635d3e2fa191600480820192610120929091908290030181865afa1580156136da573d6000803e3d6000fd5b505050506040513d601f19601f820116820180604052508101906136fe91906149dd565b6040516323b872dd60e01b8152336004820152306024820152604481018790529091506001600160a01b038516906323b872dd906064016020604051808303816000875af1158015613754573d6000803e3d6000fd5b505050506040513d601f19601f820116820180604052508101906137789190614c81565b5060405163095ea7b360e01b81526001600160a01b0383811660048301526024820187905285169063095ea7b3906044016020604051808303816000875af11580156137c8573d6000803e3d6000fd5b505050506040513d601f19601f820116820180604052508101906137ec9190614c81565b50604051633390ef1360e11b8152600481018690526001600160a01b03831690636721de2690602401600060405180830381600087803b15801561382f57600080fd5b505af1158015613843573d6000803e3d6000fd5b50505050816001600160a01b0316631c783def6040518163ffffffff1660e01b8152600401602060405180830381865afa158015613885573d6000803e3d6000fd5b505050506040513d601f19601f820116820180604052508101906138a99190614c81565b151560010361390657816001600160a01b03166307a6bf696040518163ffffffff1660e01b8152600401600060405180830381600087803b1580156138ed57600080fd5b505af1158015613901573d6000803e3d6000fd5b505050505b336001600160a01b03167fa8afae2cdff9d4c50d5a50050c37acfd66b35605ce674636323e26167967309d82878760006040516139469493929190614da8565b60405180910390a2505050505050565b6002546040805180820190915260018152601960f91b6020820152906001600160a01b0316331461399a5760405162461bcd60e51b81526004016106199190614978565b5060005b8251811015612232578181815181106139b9576139b9614c22565b60200260200101516000808584815181106139d6576139d6614c22565b6020908102919091018101516001600160a01b03168252810191909152604001600020805460ff191691151591909117905560010161399e565b6001600160a01b038087166000908152600660209081526040918290205482517f3b24cc2100000000000000000000000000000000000000000000000000000000815292518b949190911692633b24cc219260048083019391928290030181865afa158015613a83573d6000803e3d6000fd5b505050506040513d601f19601f82011682018060405250810190613aa79190614a80565b10156040518060400160405280600181526020017f380000000000000000000000000000000000000000000000000000000000000081525090613afd5760405162461bcd60e51b81526004016106199190614978565b50604080516101208101825260009181018290526080810182905260c0810182905261010081018290523360608201526020810189905260015481526001600160a01b0388811660a083015284151560e0830152600554919287929091613b64911661425b565b6004805460408051631cea46b760e31b81528151949550859460009485946001600160a01b03169363e75235b893808301939192908290030181865afa158015613bb2573d6000803e3d6000fd5b505050506040513d601f19601f82011682018060405250810190613bd69190614a99565b600480546040517f5de710f30000000000000000000000000000000000000000000000000000000081529395509193506001600160a01b0380871693635de710f393613c29938c938c9392169101614e15565b600060405180830381600087803b158015613c4357600080fd5b505af1158015613c57573d6000803e3d6000fd5b50506040517f8ac1b7750000000000000000000000000000000000000000000000000000000081523060048201526001600160a01b0386169450638ac1b77593506024019150613ca49050565b600060405180830381600087803b158015613cbe57600080fd5b505af1158015613cd2573d6000803e3d6000fd5b5050600480546040517f365bef000000000000000000000000000000000000000000000000000000000081526001600160a01b03888116938201939093528e83166024820152600094509116915063365bef0090604401602060405180830381865afa158015613d46573d6000803e3d6000fd5b505050506040513d601f19601f82011682018060405250810190613d6a9190614e47565b6040517f805a288f00000000000000000000000000000000000000000000000000000000815262ffffff821660048201529091506001600160a01b0383169063805a288f90602401600060405180830381600087803b158015613dcc57600080fd5b505af1158015613de0573d6000803e3d6000fd5b505050508515156000039050613f3b576040516323b872dd60e01b8152336004820152306024820152604481018a90526001600160a01b038916906323b872dd906064016020604051808303816000875af1158015613e43573d6000803e3d6000fd5b505050506040513d601f19601f82011682018060405250810190613e679190614c81565b5060405163095ea7b360e01b81526001600160a01b038381166004830152602482018b905289169063095ea7b3906044016020604051808303816000875af1158015613eb7573d6000803e3d6000fd5b505050506040513d601f19601f82011682018060405250810190613edb9190614c81565b50604051633390ef1360e11b8152600481018a90526001600160a01b03821690636721de2690602401600060405180830381600087803b158015613f1e57600080fd5b505af1158015613f32573d6000803e3d6000fd5b50505050614088565b6000600460009054906101000a90046001600160a01b03166001600160a01b031663cae5f11e6040518163ffffffff1660e01b8152600401602060405180830381865afa158015613f90573d6000803e3d6000fd5b505050506040513d601f19601f82011682018060405250810190613fb49190614ccd565b60405163095ea7b360e01b81526001600160a01b038581166004830152602482018d90529192509082169063095ea7b3906044016020604051808303816000875af1158015614007573d6000803e3d6000fd5b505050506040513d601f19601f8201168201806040525081019061402b9190614c81565b50604051633390ef1360e11b8152600481018b90526001600160a01b03831690636721de2690602401600060405180830381600087803b15801561406e57600080fd5b505af1158015614082573d6000803e3d6000fd5b50505050505b8615156001036140e657806001600160a01b03166307a6bf696040518163ffffffff1660e01b8152600401600060405180830381600087803b1580156140cd57600080fd5b505af11580156140e1573d6000803e3d6000fd5b505050505b60018054600090815260076020908152604080832080546001600160a01b0319166001600160a01b038781169190911790915533845260038352818420855481549687018255908552838520909501949094558d84168352600682529182902054875191880151606089015160e08a015194517f3870862b00000000000000000000000000000000000000000000000000000000815260048101949094526024840191909152841660448301529115156064820152911690633870862b90608401600060405180830381600087803b1580156141c157600080fd5b505af11580156141d5573d6000803e3d6000fd5b5050600154600090815260076020526040908190205490513393507f16d0c378cad0022a514411d1d288358413a1d1e7b79fb98c11509ac3912459e59250614231916001600160a01b03169088908e908e908e908d1590614e6c565b60405180910390a26001805490600061424983614eba565b91905055505050505050505050505050565b6000763d602d80600a3d3981f3363d3d373d3d3d363d730000008260601b60e81c176000526e5af43d82803e903d91602b57fd5bf38260781b17602052603760096000f090506001600160a01b0381166142e1576040517fc2f868f400000000000000000000000000000000000000000000000000000000815260040160405180910390fd5b919050565b6001600160a01b03811681146142fb57600080fd5b50565b60006020828403121561431057600080fd5b813561431b816142e6565b9392505050565b80151581146142fb57600080fd5b60006020828403121561434257600080fd5b813561431b81614322565b60006020828403121561435f57600080fd5b5035919050565b60008060006060848603121561437b57600080fd5b83359250602084013561438d816142e6565b9150604084013561439d816142e6565b809150509250925092565b634e487b7160e01b600052604160045260246000fd5b604051610120810167ffffffffffffffff811182821017156143e2576143e26143a8565b60405290565b604051601f8201601f1916810167ffffffffffffffff81118282101715614411576144116143a8565b604052919050565b600067ffffffffffffffff821115614433576144336143a8565b5060051b60200190565b600082601f83011261444e57600080fd5b8135602061446361445e83614419565b6143e8565b8083825260208201915060208460051b87010193508684111561448557600080fd5b602086015b848110156144aa57803561449d816142e6565b835291830191830161448a565b509695505050505050565b600080604083850312156144c857600080fd5b823567ffffffffffffffff8111156144df57600080fd5b6144eb8582860161443d565b92505060208301356144fc816142e6565b809150509250929050565b6000806040838503121561451a57600080fd5b50508035926020909101359150565b600082601f83011261453a57600080fd5b8135602061454a61445e83614419565b8083825260208201915060208460051b87010193508684111561456c57600080fd5b602086015b848110156144aa578035614584816142e6565b8352918301918301614571565b600080600080608085870312156145a757600080fd5b843567ffffffffffffffff808211156145bf57600080fd5b6145cb8883890161443d565b955060208701359150808211156145e157600080fd5b506145ee87828801614529565b93505060408501356145ff816142e6565b9150606085013561460f816142e6565b939692955090935050565b6000806040838503121561462d57600080fd5b8235915060208301356144fc81614322565b6020808252825182820181905260009190848201906040850190845b818110156146775783518352928401929184019160010161465b565b50909695505050505050565b60008060006060848603121561469857600080fd5b8335925060208401359150604084013561439d816142e6565b600080604083850312156146c457600080fd5b823567ffffffffffffffff808211156146dc57600080fd5b6146e88683870161443d565b935060208501359150808211156146fe57600080fd5b5061470b85828601614529565b9150509250929050565b6000806000806080858703121561472b57600080fd5b8435614736816142e6565b935060208501359250604085013561474d816142e6565b9396929550929360600135925050565b60008060008060008060c0878903121561477657600080fd5b863595506020870135614788816142e6565b945060408701359350606087013561479f816142e6565b925060808701356147af81614322565b915060a08701356147bf81614322565b809150509295509295509295565b600080600080600060a086880312156147e557600080fd5b8535945060208601356147f7816142e6565b935060408601359250606086013561480e81614322565b9150608086013561481e81614322565b809150509295509295909350565b6000806040838503121561483f57600080fd5b823561484a816142e6565b946020939093013593505050565b600082601f83011261486957600080fd5b8135602061487961445e83614419565b8083825260208201915060208460051b87010193508684111561489b57600080fd5b602086015b848110156144aa5780356148b381614322565b83529183019183016148a0565b600080604083850312156148d357600080fd5b823567ffffffffffffffff808211156148eb57600080fd5b818501915085601f8301126148ff57600080fd5b8135602061490f61445e83614419565b82815260059290921b8401810191818101908984111561492e57600080fd5b948201945b83861015614955578535614946816142e6565b82529482019490820190614933565b9650508601359250508082111561496b57600080fd5b5061470b85828601614858565b60006020808352835180602085015260005b818110156149a65785810183015185820160400152820161498a565b506000604082860101526040601f19601f8301168501019250505092915050565b80516142e181614322565b80516142e1816142e6565b600061012082840312156149f057600080fd5b6149f86143be565b8251815260208301516020820152614a12604084016149c7565b6040820152614a23606084016149d2565b6060820152614a34608084016149c7565b6080820152614a4560a084016149d2565b60a0820152614a5660c084016149c7565b60c0820152614a6760e084016149c7565b60e0820152610100928301519281019290925250919050565b600060208284031215614a9257600080fd5b5051919050565b60008060408385031215614aac57600080fd5b505080516020909101519092909150565b600060208284031215614acf57600080fd5b815160ff8116811461431b57600080fd5b634e487b7160e01b600052601160045260246000fd5b600181815b80851115614b31578160001904821115614b1757614b17614ae0565b80851615614b2457918102915b93841c9390800290614afb565b509250929050565b600082614b4857506001610ac0565b81614b5557506000610ac0565b8160018114614b6b5760028114614b7557614b91565b6001915050610ac0565b60ff841115614b8657614b86614ae0565b50506001821b610ac0565b5060208310610133831016604e8410600b8410161715614bb4575081810a610ac0565b614bbe8383614af6565b8060001904821115614bd257614bd2614ae0565b029392505050565b600061431b60ff841683614b39565b8082028115828204841417610ac057610ac0614ae0565b600082614c1d57634e487b7160e01b600052601260045260246000fd5b500490565b634e487b7160e01b600052603260045260246000fd5b60008060008060808587031215614c4e57600080fd5b505082516020840151604085015160609095015191969095509092509050565b80820180821115610ac057610ac0614ae0565b600060208284031215614c9357600080fd5b815161431b81614322565b60008060408385031215614cb157600080fd5b8251614cbc816142e6565b60208401519092506144fc816142e6565b600060208284031215614cdf57600080fd5b815161431b816142e6565b80518252602081015160208301526040810151151560408301526001600160a01b0360608201511660608301526080810151614d2a608084018215159052565b5060a0810151614d4560a08401826001600160a01b03169052565b5060c0810151614d5960c084018215159052565b5060e0810151614d6d60e084018215159052565b5061010090810151910152565b6101608101614d898286614cea565b836101208301526001600160a01b038316610140830152949350505050565b6101808101614db78287614cea565b846101208301526001600160a01b03841661014083015282151561016083015295945050505050565b6101608101614def8286614cea565b6101208201939093526101400152919050565b81810381811115610ac057610ac0614ae0565b6101608101614e248286614cea565b6001600160a01b0380851661012084015280841661014084015250949350505050565b600060208284031215614e5957600080fd5b815162ffffff8116811461431b57600080fd5b6001600160a01b0387811682526101c0820190614e8c6020840189614cea565b86610140840152808616610160840152508315156101808301528215156101a0830152979650505050505050565b600060018201614ecc57614ecc614ae0565b506001019056fea2646970667358221220f65c80547ed9f6c98783ffd9ae75891f249e4ff257b99da04bcccdcc57bf3ca464736f6c63430008180033",
  "linkReferences": {},
  "deployedLinkReferences": {}
}