{
  "_format": "hh-sol-artifact-1",
  "contractName": "CCFL",
  "sourceName": "contracts/CCFL.sol",
  "abi": [
    {
      "inputs": [],
      "name": "ERC1167FailedCreateClone",
      "type": "error"
    },
    {
      "inputs": [],
      "name": "InvalidInitialization",
      "type": "error"
    },
    {
      "inputs": [],
      "name": "NotInitializing",
      "type": "error"
    },
    {
      "anonymous": false,
      "inputs": [
        {
          "indexed": false,
          "internalType": "uint64",
          "name": "version",
          "type": "uint64"
        }
      ],
      "name": "Initialized",
      "type": "event"
    },
    {
      "anonymous": false,
      "inputs": [
        {
          "indexed": true,
          "internalType": "address",
          "name": "onBehalfOf",
          "type": "address"
        },
        {
          "indexed": true,
          "internalType": "address",
          "name": "_token",
          "type": "address"
        },
        {
          "indexed": true,
          "internalType": "uint256",
          "name": "_amount",
          "type": "uint256"
        }
      ],
      "name": "LiquiditySupplied",
      "type": "event"
    },
    {
      "anonymous": false,
      "inputs": [
        {
          "indexed": true,
          "internalType": "address",
          "name": "to",
          "type": "address"
        },
        {
          "indexed": true,
          "internalType": "address",
          "name": "_token",
          "type": "address"
        },
        {
          "indexed": true,
          "internalType": "uint256",
          "name": "_amount",
          "type": "uint256"
        }
      ],
      "name": "LiquidityWithdrawn",
      "type": "event"
    },
    {
      "anonymous": false,
      "inputs": [
        {
          "indexed": false,
          "internalType": "address",
          "name": "borrower",
          "type": "address"
        },
        {
          "indexed": false,
          "internalType": "uint256",
          "name": "amount",
          "type": "uint256"
        },
        {
          "indexed": false,
          "internalType": "uint256",
          "name": "when",
          "type": "uint256"
        }
      ],
      "name": "Withdraw",
      "type": "event"
    },
    {
      "inputs": [
        {
          "internalType": "contract IERC20Standard",
          "name": "",
          "type": "address"
        }
      ],
      "name": "aTokens",
      "outputs": [
        {
          "internalType": "contract IERC20Standard",
          "name": "",
          "type": "address"
        }
      ],
      "stateMutability": "view",
      "type": "function"
    },
    {
      "inputs": [],
      "name": "aaveAddressProvider",
      "outputs": [
        {
          "internalType": "contract IPoolAddressesProvider",
          "name": "",
          "type": "address"
        }
      ],
      "stateMutability": "view",
      "type": "function"
    },
    {
      "inputs": [
        {
          "internalType": "uint256",
          "name": "_loanId",
          "type": "uint256"
        },
        {
          "internalType": "uint256",
          "name": "_amountCollateral",
          "type": "uint256"
        },
        {
          "internalType": "contract IERC20Standard",
          "name": "_collateral",
          "type": "address"
        },
        {
          "internalType": "bool",
          "name": "_isETH",
          "type": "bool"
        }
      ],
      "name": "addCollateral",
      "outputs": [],
      "stateMutability": "payable",
      "type": "function"
    },
    {
      "inputs": [
        {
          "internalType": "uint256",
          "name": "_loanId",
          "type": "uint256"
        },
        {
          "internalType": "uint256",
          "name": "_amountCollateral",
          "type": "uint256"
        }
      ],
      "name": "addCollateralHealthFactor",
      "outputs": [
        {
          "internalType": "uint256",
          "name": "",
          "type": "uint256"
        }
      ],
      "stateMutability": "view",
      "type": "function"
    },
    {
      "inputs": [
        {
          "internalType": "contract IERC20Standard",
          "name": "",
          "type": "address"
        }
      ],
      "name": "ccflActiveCollaterals",
      "outputs": [
        {
          "internalType": "bool",
          "name": "",
          "type": "bool"
        }
      ],
      "stateMutability": "view",
      "type": "function"
    },
    {
      "inputs": [
        {
          "internalType": "contract IERC20Standard",
          "name": "",
          "type": "address"
        }
      ],
      "name": "ccflActivePoolStableCoins",
      "outputs": [
        {
          "internalType": "bool",
          "name": "",
          "type": "bool"
        }
      ],
      "stateMutability": "view",
      "type": "function"
    },
    {
      "inputs": [
        {
          "internalType": "uint256",
          "name": "",
          "type": "uint256"
        }
      ],
      "name": "ccflPoolStableCoins",
      "outputs": [
        {
          "internalType": "contract IERC20Standard",
          "name": "",
          "type": "address"
        }
      ],
      "stateMutability": "view",
      "type": "function"
    },
    {
      "inputs": [
        {
          "internalType": "contract IERC20Standard",
          "name": "",
          "type": "address"
        }
      ],
      "name": "ccflPools",
      "outputs": [
        {
          "internalType": "contract ICCFLPool",
          "name": "",
          "type": "address"
        }
      ],
      "stateMutability": "view",
      "type": "function"
    },
    {
      "inputs": [
        {
          "internalType": "contract IERC20Standard[]",
          "name": "array",
          "type": "address[]"
        },
        {
          "internalType": "contract IERC20Standard",
          "name": "el",
          "type": "address"
        }
      ],
      "name": "checkExistElement",
      "outputs": [
        {
          "internalType": "bool",
          "name": "",
          "type": "bool"
        }
      ],
      "stateMutability": "pure",
      "type": "function"
    },
    {
      "inputs": [
        {
          "internalType": "uint256",
          "name": "",
          "type": "uint256"
        }
      ],
      "name": "collateralTokens",
      "outputs": [
        {
          "internalType": "contract IERC20Standard",
          "name": "",
          "type": "address"
        }
      ],
      "stateMutability": "view",
      "type": "function"
    },
    {
      "inputs": [
        {
          "internalType": "address",
          "name": "",
          "type": "address"
        },
        {
          "internalType": "contract IERC20Standard",
          "name": "",
          "type": "address"
        }
      ],
      "name": "collaterals",
      "outputs": [
        {
          "internalType": "uint256",
          "name": "",
          "type": "uint256"
        }
      ],
      "stateMutability": "view",
      "type": "function"
    },
    {
      "inputs": [
        {
          "internalType": "uint256",
          "name": "_amount",
          "type": "uint256"
        },
        {
          "internalType": "contract IERC20Standard",
          "name": "_stableCoin",
          "type": "address"
        },
        {
          "internalType": "uint256",
          "name": "_amountCollateral",
          "type": "uint256"
        },
        {
          "internalType": "contract IERC20Standard",
          "name": "_collateral",
          "type": "address"
        },
        {
          "internalType": "bool",
          "name": "_isYieldGenerating",
          "type": "bool"
        },
        {
          "internalType": "bool",
          "name": "_isETH",
          "type": "bool"
        }
      ],
      "name": "createLoan",
      "outputs": [],
      "stateMutability": "payable",
      "type": "function"
    },
    {
      "inputs": [
        {
          "internalType": "uint256",
          "name": "_loanId",
          "type": "uint256"
        }
      ],
      "name": "getHealthFactor",
      "outputs": [
        {
          "internalType": "uint256",
          "name": "",
          "type": "uint256"
        }
      ],
      "stateMutability": "view",
      "type": "function"
    },
    {
      "inputs": [
        {
          "internalType": "contract IERC20Standard",
          "name": "_stableCoin",
          "type": "address"
        },
        {
          "internalType": "bool",
          "name": "isPool",
          "type": "bool"
        }
      ],
      "name": "getLatestPrice",
      "outputs": [
        {
          "internalType": "uint256",
          "name": "",
          "type": "uint256"
        }
      ],
      "stateMutability": "view",
      "type": "function"
    },
    {
      "inputs": [
        {
          "internalType": "uint256",
          "name": "_loanId",
          "type": "uint256"
        }
      ],
      "name": "getLoanAddress",
      "outputs": [
        {
          "internalType": "address",
          "name": "",
          "type": "address"
        }
      ],
      "stateMutability": "view",
      "type": "function"
    },
    {
      "inputs": [
        {
          "internalType": "uint256",
          "name": "_amount",
          "type": "uint256"
        },
        {
          "internalType": "contract IERC20Standard",
          "name": "_stableCoin",
          "type": "address"
        },
        {
          "internalType": "contract IERC20Standard",
          "name": "_collateral",
          "type": "address"
        }
      ],
      "name": "getMinimalCollateral",
      "outputs": [
        {
          "internalType": "uint256",
          "name": "",
          "type": "uint256"
        }
      ],
      "stateMutability": "view",
      "type": "function"
    },
    {
      "inputs": [
        {
          "internalType": "contract IERC20Standard[]",
          "name": "_ccflPoolStableCoin",
          "type": "address[]"
        },
        {
          "internalType": "contract AggregatorV3Interface[]",
          "name": "_poolAggregators",
          "type": "address[]"
        },
        {
          "internalType": "contract ICCFLPool[]",
          "name": "_ccflPools",
          "type": "address[]"
        },
        {
          "internalType": "contract IERC20Standard[]",
          "name": "_collateralTokens",
          "type": "address[]"
        },
        {
          "internalType": "contract AggregatorV3Interface[]",
          "name": "_collateralAggregators",
          "type": "address[]"
        },
        {
          "internalType": "contract IERC20Standard[]",
          "name": "_aTokens",
          "type": "address[]"
        },
        {
          "internalType": "contract IPoolAddressesProvider",
          "name": "_aaveAddressProvider",
          "type": "address"
        },
        {
          "internalType": "uint256",
          "name": "_maxLTV",
          "type": "uint256"
        },
        {
          "internalType": "uint256",
          "name": "_liquidationThreshold",
          "type": "uint256"
        },
        {
          "internalType": "contract ICCFLLoan",
          "name": "_ccflLoan",
          "type": "address"
        }
      ],
      "name": "initialize",
      "outputs": [],
      "stateMutability": "nonpayable",
      "type": "function"
    },
    {
      "inputs": [
        {
          "internalType": "uint256",
          "name": "_loanId",
          "type": "uint256"
        }
      ],
      "name": "liquidate",
      "outputs": [],
      "stateMutability": "nonpayable",
      "type": "function"
    },
    {
      "inputs": [],
      "name": "liquidationThreshold",
      "outputs": [
        {
          "internalType": "uint256",
          "name": "",
          "type": "uint256"
        }
      ],
      "stateMutability": "view",
      "type": "function"
    },
    {
      "inputs": [],
      "name": "liquidator",
      "outputs": [
        {
          "internalType": "address",
          "name": "",
          "type": "address"
        }
      ],
      "stateMutability": "view",
      "type": "function"
    },
    {
      "inputs": [],
      "name": "loandIds",
      "outputs": [
        {
          "internalType": "uint256",
          "name": "",
          "type": "uint256"
        }
      ],
      "stateMutability": "view",
      "type": "function"
    },
    {
      "inputs": [],
      "name": "maxLTV",
      "outputs": [
        {
          "internalType": "uint256",
          "name": "",
          "type": "uint256"
        }
      ],
      "stateMutability": "view",
      "type": "function"
    },
    {
      "inputs": [],
      "name": "owner",
      "outputs": [
        {
          "internalType": "address",
          "name": "",
          "type": "address"
        }
      ],
      "stateMutability": "view",
      "type": "function"
    },
    {
      "inputs": [],
      "name": "penaltyLender",
      "outputs": [
        {
          "internalType": "uint256",
          "name": "",
          "type": "uint256"
        }
      ],
      "stateMutability": "view",
      "type": "function"
    },
    {
      "inputs": [],
      "name": "penaltyLiquidator",
      "outputs": [
        {
          "internalType": "uint256",
          "name": "",
          "type": "uint256"
        }
      ],
      "stateMutability": "view",
      "type": "function"
    },
    {
      "inputs": [],
      "name": "penaltyPlatform",
      "outputs": [
        {
          "internalType": "uint256",
          "name": "",
          "type": "uint256"
        }
      ],
      "stateMutability": "view",
      "type": "function"
    },
    {
      "inputs": [],
      "name": "platform",
      "outputs": [
        {
          "internalType": "address",
          "name": "",
          "type": "address"
        }
      ],
      "stateMutability": "view",
      "type": "function"
    },
    {
      "inputs": [
        {
          "internalType": "contract IERC20Standard",
          "name": "",
          "type": "address"
        }
      ],
      "name": "priceFeeds",
      "outputs": [
        {
          "internalType": "contract AggregatorV3Interface",
          "name": "",
          "type": "address"
        }
      ],
      "stateMutability": "view",
      "type": "function"
    },
    {
      "inputs": [
        {
          "internalType": "contract IERC20Standard",
          "name": "",
          "type": "address"
        }
      ],
      "name": "pricePoolFeeds",
      "outputs": [
        {
          "internalType": "contract AggregatorV3Interface",
          "name": "",
          "type": "address"
        }
      ],
      "stateMutability": "view",
      "type": "function"
    },
    {
      "inputs": [
        {
          "internalType": "uint256",
          "name": "_loanId",
          "type": "uint256"
        },
        {
          "internalType": "uint256",
          "name": "_amount",
          "type": "uint256"
        }
      ],
      "name": "repayHealthFactor",
      "outputs": [
        {
          "internalType": "uint256",
          "name": "",
          "type": "uint256"
        }
      ],
      "stateMutability": "view",
      "type": "function"
    },
    {
      "inputs": [
        {
          "internalType": "uint256",
          "name": "_loanId",
          "type": "uint256"
        },
        {
          "internalType": "uint256",
          "name": "_amount",
          "type": "uint256"
        },
        {
          "internalType": "contract IERC20Standard",
          "name": "_stableCoin",
          "type": "address"
        }
      ],
      "name": "repayLoan",
      "outputs": [],
      "stateMutability": "nonpayable",
      "type": "function"
    },
    {
      "inputs": [
        {
          "internalType": "contract IPoolAddressesProvider",
          "name": "_aaveAddressProvider",
          "type": "address"
        }
      ],
      "name": "setAaveProvider",
      "outputs": [],
      "stateMutability": "nonpayable",
      "type": "function"
    },
    {
      "inputs": [
        {
          "internalType": "contract IERC20Standard",
          "name": "_token",
          "type": "address"
        },
        {
          "internalType": "bool",
          "name": "_isActived",
          "type": "bool"
        },
        {
          "internalType": "bool",
          "name": "_isPoolToken",
          "type": "bool"
        }
      ],
      "name": "setActiveToken",
      "outputs": [],
      "stateMutability": "nonpayable",
      "type": "function"
    },
    {
      "inputs": [
        {
          "internalType": "contract ICCFLLoan",
          "name": "_loan",
          "type": "address"
        }
      ],
      "name": "setCCFLLoan",
      "outputs": [],
      "stateMutability": "nonpayable",
      "type": "function"
    },
    {
      "inputs": [
        {
          "internalType": "contract IERC20Standard[]",
          "name": "_collateralTokens",
          "type": "address[]"
        },
        {
          "internalType": "contract AggregatorV3Interface[]",
          "name": "_collateralAggregators",
          "type": "address[]"
        },
        {
          "internalType": "contract IERC20Standard[]",
          "name": "_aTokens",
          "type": "address[]"
        }
      ],
      "name": "setCollaterals",
      "outputs": [],
      "stateMutability": "nonpayable",
      "type": "function"
    },
    {
      "inputs": [
        {
          "internalType": "uint256",
          "name": "_platform",
          "type": "uint256"
        },
        {
          "internalType": "uint256",
          "name": "_liquidator",
          "type": "uint256"
        },
        {
          "internalType": "uint256",
          "name": "_lender",
          "type": "uint256"
        }
      ],
      "name": "setPenalty",
      "outputs": [],
      "stateMutability": "nonpayable",
      "type": "function"
    },
    {
      "inputs": [
        {
          "internalType": "address",
          "name": "_liquidator",
          "type": "address"
        },
        {
          "internalType": "address",
          "name": "_platform",
          "type": "address"
        }
      ],
      "name": "setPlatformAddress",
      "outputs": [],
      "stateMutability": "nonpayable",
      "type": "function"
    },
    {
      "inputs": [
        {
          "internalType": "contract IERC20Standard[]",
          "name": "_ccflPoolStableCoin",
          "type": "address[]"
        },
        {
          "internalType": "contract AggregatorV3Interface[]",
          "name": "_poolAggregators",
          "type": "address[]"
        },
        {
          "internalType": "contract ICCFLPool[]",
          "name": "_ccflPools",
          "type": "address[]"
        }
      ],
      "name": "setPools",
      "outputs": [],
      "stateMutability": "nonpayable",
      "type": "function"
    },
    {
      "inputs": [
        {
          "internalType": "contract ISwapRouter",
          "name": "_swapRouter",
          "type": "address"
        }
      ],
      "name": "setSwapRouter",
      "outputs": [],
      "stateMutability": "nonpayable",
      "type": "function"
    },
    {
      "inputs": [
        {
          "internalType": "uint256",
          "name": "_maxLTV",
          "type": "uint256"
        },
        {
          "internalType": "uint256",
          "name": "_liquidationThreshold",
          "type": "uint256"
        }
      ],
      "name": "setThreshold",
      "outputs": [],
      "stateMutability": "nonpayable",
      "type": "function"
    },
    {
      "inputs": [
        {
          "internalType": "contract IWETH",
          "name": "_iWETH",
          "type": "address"
        }
      ],
      "name": "setWETH",
      "outputs": [],
      "stateMutability": "nonpayable",
      "type": "function"
    },
    {
      "inputs": [],
      "name": "wETH",
      "outputs": [
        {
          "internalType": "contract IWETH",
          "name": "",
          "type": "address"
        }
      ],
      "stateMutability": "view",
      "type": "function"
    },
    {
      "inputs": [
        {
          "internalType": "uint256",
          "name": "_loanId",
          "type": "uint256"
        },
        {
          "internalType": "bool",
          "name": "isETH",
          "type": "bool"
        }
      ],
      "name": "withdrawAllCollateral",
      "outputs": [],
      "stateMutability": "nonpayable",
      "type": "function"
    },
    {
      "inputs": [
        {
          "internalType": "contract IERC20Standard",
          "name": "_stableCoin",
          "type": "address"
        },
        {
          "internalType": "uint256",
          "name": "_loanId",
          "type": "uint256"
        }
      ],
      "name": "withdrawLoan",
      "outputs": [],
      "stateMutability": "nonpayable",
      "type": "function"
    },
    {
      "stateMutability": "payable",
      "type": "receive"
    }
  ],
  "bytecode": "0x608060405234801561001057600080fd5b50613ee2806100206000396000f3fe6080604052600436106102eb5760003560e01c80638ba02e1c11610184578063cdaabe41116100d6578063f24286211161008a578063f6597bbb11610064578063f6597bbb14610895578063f8f126ff146108ab578063fdb2b32c146108cb57600080fd5b8063f24286211461083f578063f384bd051461085f578063f3cf4ada1461087557600080fd5b8063e51e119e116100bb578063e51e119e146107ba578063e787ea2c146107ef578063ec7be39d1461081f57600080fd5b8063cdaabe411461077a578063e43b03d61461079a57600080fd5b8063a8700c3c11610138578063b9c3620911610112578063b9c3620914610704578063c0d0154614610724578063c694fdc11461075a57600080fd5b8063a8700c3c146106a1578063b3bffeaa146106b4578063b92dd925146106d457600080fd5b8063989397d411610169578063989397d41461061f5780639dcb511a14610655578063a58bab621461068b57600080fd5b80638ba02e1c146105e95780638da5cb5b146105ff57600080fd5b8063412736571161023d5780635b769f3c116101f157806364b52097116101cb57806364b52097146105895780636eb0fdd0146105a957806375607815146105c957600080fd5b80635b769f3c146105295780635c8edac414610549578063611f347d1461056957600080fd5b8063474843ea11610222578063474843ea146104d65780634bde38c8146104f65780634dd7bd3f1461051657600080fd5b80634127365714610496578063415f1240146104b657600080fd5b806325e9d2fa1161029f5780633e108ad9116102795780633e108ad91461042a5780634031234c146104605780634046ebae1461047657600080fd5b806325e9d2fa146103ca57806338ef6717146103ea5780633a2ad9ae1461040a57600080fd5b8063172c48c7116102d0578063172c48c71461034257806317845c691461037a5780631d9eb5d91461039a57600080fd5b80630769594d146102f7578063101b9d311461031957600080fd5b366102f257005b600080fd5b34801561030357600080fd5b506103176103123660046135f8565b610901565b005b34801561032557600080fd5b5061032f60175481565b6040519081526020015b60405180910390f35b34801561034e57600080fd5b5061036261035d366004613680565b610b05565b6040516001600160a01b039091168152602001610339565b34801561038657600080fd5b5061032f610395366004613680565b610b2f565b3480156103a657600080fd5b506103ba6103b5366004613699565b610cac565b6040519015158152602001610339565b3480156103d657600080fd5b5061032f6103e53660046136eb565b610d07565b3480156103f657600080fd5b50610317610405366004613718565b610e86565b34801561041657600080fd5b5061031761042536600461374a565b610ef3565b34801561043657600080fd5b50610362610445366004613718565b600a602052600090815260409020546001600160a01b031681565b34801561046c57600080fd5b5061032f600c5481565b34801561048257600080fd5b50601054610362906001600160a01b031681565b3480156104a257600080fd5b506103176104b1366004613718565b611102565b3480156104c257600080fd5b506103176104d1366004613680565b61116f565b3480156104e257600080fd5b506103176104f1366004613718565b61183c565b34801561050257600080fd5b50601154610362906001600160a01b031681565b610317610524366004613795565b6118a9565b34801561053557600080fd5b50610317610544366004613718565b611b47565b34801561055557600080fd5b506103176105643660046137df565b611bb4565b34801561057557600080fd5b50610317610584366004613804565b611cbb565b34801561059557600080fd5b506103176105a43660046135f8565b61207e565b3480156105b557600080fd5b506103176105c4366004613931565b612275565b3480156105d557600080fd5b5061032f6105e436600461395f565b612523565b3480156105f557600080fd5b5061032f60015481565b34801561060b57600080fd5b50601254610362906001600160a01b031681565b34801561062b57600080fd5b5061036261063a366004613718565b600e602052600090815260409020546001600160a01b031681565b34801561066157600080fd5b50610362610670366004613718565b600d602052600090815260409020546001600160a01b031681565b34801561069757600080fd5b5061032f60165481565b6103176106af366004613996565b61265f565b3480156106c057600080fd5b5061032f6106cf366004613a06565b612f2d565b3480156106e057600080fd5b506103ba6106ef366004613718565b60066020526000908152604090205460ff1681565b34801561071057600080fd5b5061031761071f3660046136eb565b61302e565b34801561073057600080fd5b5061036261073f366004613718565b6002602052600090815260409020546001600160a01b031681565b34801561076657600080fd5b50610362610775366004613680565b613084565b34801561078657600080fd5b50600954610362906001600160a01b031681565b3480156107a657600080fd5b5061032f6107b53660046136eb565b613094565b3480156107c657600080fd5b5061032f6107d5366004613a34565b600060208181529281526040808220909352908152205481565b3480156107fb57600080fd5b506103ba61080a366004613718565b60086020526000908152604090205460ff1681565b34801561082b57600080fd5b5061031761083a366004613a62565b6131db565b34801561084b57600080fd5b50601354610362906001600160a01b031681565b34801561086b57600080fd5b5061032f600b5481565b34801561088157600080fd5b50610317610890366004613a8e565b6132c1565b3480156108a157600080fd5b5061032f60155481565b3480156108b757600080fd5b506103176108c6366004613a34565b613317565b3480156108d757600080fd5b506103626108e6366004613680565b6000908152600560205260409020546001600160a01b031690565b6012546001600160a01b031633146109515760405162461bcd60e51b815260206004820152600e60248201526d37b7363c903a34329037bbb732b960911b60448201526064015b60405180910390fd5b60005b8351811015610aff57600084828151811061097157610971613aba565b602002602001015190506109df60038054806020026020016040519081016040528092919081815260200182805480156109d457602002820191906000526020600020905b81546001600160a01b031681526001909101906020018083116109b6575b505050505082610cac565b1515600003610a3457600380546001810182556000919091527fc2575a0e9e593c00f959f8c92f12db2869c3395a3b0502d05e2516446f71f85b0180546001600160a01b0319166001600160a01b0383161790555b828281518110610a4657610a46613aba565b602002602001015160026000836001600160a01b03166001600160a01b0316815260200190815260200160002060006101000a8154816001600160a01b0302191690836001600160a01b03160217905550838281518110610aa957610aa9613aba565b6020908102919091018101516001600160a01b039283166000908152600e8352604080822080546001600160a01b0319169590931694909417909155600690915220805460ff1916600190811790915501610954565b50505050565b60078181548110610b1557600080fd5b6000918252602090912001546001600160a01b0316905081565b600081815260056020526040808220548151635d3e2fa160e01b815291516001600160a01b039091169183918391635d3e2fa19160048083019260c09291908290030181865afa158015610b87573d6000803e3d6000fd5b505050506040513d601f19601f82011682018060405250810190610bab9190613ad0565b60808101516001600160a01b0390811660009081526002602052604080822054905163a52f38d160e01b815260048101899052939450909291169063a52f38d190602401602060405180830381865afa158015610c0c573d6000803e3d6000fd5b505050506040513d601f19601f82011682018060405250810190610c309190613b69565b604051632696439560e11b815260048101829052600060248201529091506001600160a01b03841690634d2c872a90604401602060405180830381865afa158015610c7f573d6000803e3d6000fd5b505050506040513d601f19601f82011682018060405250810190610ca39190613b69565b95945050505050565b600080805b8451811015610cfd57836001600160a01b0316858281518110610cd657610cd6613aba565b60200260200101516001600160a01b031603610cf55760019150610cfd565b600101610cb1565b5090505b92915050565b600082815260056020526040808220548151635d3e2fa160e01b815291516001600160a01b039091169183918391635d3e2fa19160048083019260c09291908290030181865afa158015610d5f573d6000803e3d6000fd5b505050506040513d601f19601f82011682018060405250810190610d839190613ad0565b60808101516001600160a01b0390811660009081526002602052604080822054905163a52f38d160e01b8152600481018a9052939450909291169063a52f38d190602401602060405180830381865afa158015610de4573d6000803e3d6000fd5b505050506040513d601f19601f82011682018060405250810190610e089190613b69565b604051632696439560e11b815260048101829052602481018790529091506001600160a01b03841690634d2c872a906044015b602060405180830381865afa158015610e58573d6000803e3d6000fd5b505050506040513d601f19601f82011682018060405250810190610e7c9190613b69565b9695505050505050565b6012546001600160a01b03163314610ed15760405162461bcd60e51b815260206004820152600e60248201526d37b7363c903a34329037bbb732b960911b6044820152606401610948565b600980546001600160a01b0319166001600160a01b0392909216919091179055565b6012546001600160a01b03163314610f3e5760405162461bcd60e51b815260206004820152600e60248201526d37b7363c903a34329037bbb732b960911b6044820152606401610948565b801561102457610fa86003805480602002602001604051908101604052809291908181526020018280548015610f9d57602002820191906000526020600020905b81546001600160a01b03168152600190910190602001808311610f7f575b505050505084610cac565b1515600114610ff95760405162461bcd60e51b815260206004820152601460248201527f546f6b656e206973206e6f7420657869737465640000000000000000000000006044820152606401610948565b6001600160a01b0383166000908152600860205260409020805483151560ff19909116179055505050565b6110866007805480602002602001604051908101604052809291908181526020018280548015610f9d576020028201919060005260206000209081546001600160a01b03168152600190910190602001808311610f7f57505050505084610cac565b15156001146110d75760405162461bcd60e51b815260206004820152601460248201527f546f6b656e206973206e6f7420657869737465640000000000000000000000006044820152606401610948565b6001600160a01b0383166000908152600660205260409020805483151560ff19909116179055505050565b6012546001600160a01b0316331461114d5760405162461bcd60e51b815260206004820152600e60248201526d37b7363c903a34329037bbb732b960911b6044820152606401610948565b600f80546001600160a01b0319166001600160a01b0392909216919091179055565b600081815260056020526040808220548151635d3e2fa160e01b815291516001600160a01b0390911692918391635d3e2fa19160048082019260c0929091908290030181865afa1580156111c7573d6000803e3d6000fd5b505050506040513d601f19601f820116820180604052508101906111eb9190613ad0565b60808101516001600160a01b0390811660009081526002602052604080822054905163a52f38d160e01b815260048101889052939450909291169063a52f38d190602401602060405180830381865afa15801561124c573d6000803e3d6000fd5b505050506040513d601f19601f820116820180604052508101906112709190613b69565b9050826001600160a01b031663d296d1f1826015546016546017546112959190613b98565b61129f9190613b98565b6040516001600160e01b031960e085901b16815260048101929092526024820152604401600060405180830381600087803b1580156112dd57600080fd5b505af11580156112f1573d6000803e3d6000fd5b5050505081608001516001600160a01b03166323b872dd84306103e86015546016546017546103e86113239190613b98565b61132d9190613b98565b6113379190613b98565b6113419087613bab565b61134b9190613bc2565b6040516001600160e01b031960e086901b1681526001600160a01b03938416600482015292909116602483015260448201526064016020604051808303816000875af115801561139f573d6000803e3d6000fd5b505050506040513d601f19601f820116820180604052508101906113c39190613be4565b5060808201516001600160a01b039081166000818152600260205260409081902054905163095ea7b360e01b815292166004830152602482018390529063095ea7b3906044016020604051808303816000875af1158015611428573d6000803e3d6000fd5b505050506040513d601f19601f8201168201806040525081019061144c9190613be4565b5060808201516001600160a01b039081166000908152600260205260409081902054905163d8aed14560e01b8152600481018790526024810184905291169063d8aed14590604401600060405180830381600087803b1580156114ae57600080fd5b505af11580156114c2573d6000803e3d6000fd5b5050505081608001516001600160a01b031663a9059cbb601160009054906101000a90046001600160a01b03166103e8601554856115009190613bab565b61150a9190613bc2565b6040516001600160e01b031960e085901b1681526001600160a01b03909216600483015260248201526044016020604051808303816000875af1158015611555573d6000803e3d6000fd5b505050506040513d601f19601f820116820180604052508101906115799190613be4565b5060808201516010546016546001600160a01b039283169263a9059cbb9216906103e8906115a79086613bab565b6115b19190613bc2565b6040516001600160e01b031960e085901b1681526001600160a01b03909216600483015260248201526044016020604051808303816000875af11580156115fc573d6000803e3d6000fd5b505050506040513d601f19601f820116820180604052508101906116209190613be4565b5060006103e8601654836116349190613bab565b61163e9190613bc2565b6103e86015548461164f9190613bab565b6116599190613bc2565b836103e86015546016546017546103e86116739190613b98565b61167d9190613b98565b6116879190613b98565b6116919087613bab565b61169b9190613bc2565b6116a59190613c01565b6116af9190613c01565b6116b99190613c01565b60808401516001600160a01b039081166000818152600260205260409081902054905163095ea7b360e01b8152921660048301526024820183905291925063095ea7b3906044016020604051808303816000875af115801561171f573d6000803e3d6000fd5b505050506040513d601f19601f820116820180604052508101906117439190613be4565b5060808301516001600160a01b03908116600090815260026020526040908190205490517f5737910200000000000000000000000000000000000000000000000000000000815260048101849052911690635737910290602401600060405180830381600087803b1580156117b757600080fd5b505af11580156117cb573d6000803e3d6000fd5b50505060008681526005602052604080822054815163232fa73360e01b815291516001600160a01b03909116935063232fa7339260048084019391929182900301818387803b15801561181d57600080fd5b505af1158015611831573d6000803e3d6000fd5b505050505050505050565b6012546001600160a01b031633146118875760405162461bcd60e51b815260206004820152600e60248201526d37b7363c903a34329037bbb732b960911b6044820152606401610948565b600480546001600160a01b0319166001600160a01b0392909216919091179055565b6001600160a01b038216600090815260086020526040902054829060ff1615156001146119185760405162461bcd60e51b815260206004820152601f60248201527f436f6c6c61746572616c20746f6b656e206973206e6f742061637469766564006044820152606401610948565b81156119d8573484111561196e5760405162461bcd60e51b815260206004820181905260248201527f646f206e6f74206861766520656e6f756768206465706f7369746564204554486044820152606401610948565b601360009054906101000a90046001600160a01b03166001600160a01b031663d0e30db0856040518263ffffffff1660e01b81526004016000604051808303818588803b1580156119be57600080fd5b505af11580156119d2573d6000803e3d6000fd5b50505050505b60008581526005602052604090819020549051633390ef1360e11b8152600481018690526001600160a01b03909116908190636721de2690602401600060405180830381600087803b158015611a2d57600080fd5b505af1158015611a41573d6000803e3d6000fd5b505050508215611ac45760405163a9059cbb60e01b81526001600160a01b0382811660048301526024820187905285169063a9059cbb906044016020604051808303816000875af1158015611a9a573d6000803e3d6000fd5b505050506040513d601f19601f82011682018060405250810190611abe9190613be4565b50611b3f565b6040516323b872dd60e01b81523360048201526001600160a01b038281166024830152604482018790528516906323b872dd906064016020604051808303816000875af1158015611b19573d6000803e3d6000fd5b505050506040513d601f19601f82011682018060405250810190611b3d9190613be4565b505b505050505050565b6012546001600160a01b03163314611b925760405162461bcd60e51b815260206004820152600e60248201526d37b7363c903a34329037bbb732b960911b6044820152606401610948565b601380546001600160a01b0319166001600160a01b0392909216919091179055565b600082815260056020526040808220548151635d3e2fa160e01b815291516001600160a01b0390911692918391635d3e2fa19160048082019260c0929091908290030181865afa158015611c0c573d6000803e3d6000fd5b505050506040513d601f19601f82011682018060405250810190611c309190613ad0565b60208101516040517f102cb82e0000000000000000000000000000000000000000000000000000000081526001600160a01b039182166004820152851515602482015291925083169063102cb82e906044015b600060405180830381600087803b158015611c9d57600080fd5b505af1158015611cb1573d6000803e3d6000fd5b5050505050505050565b7ff0c57e16840df040f15088dc2f81fe391c3923bec73e23a9662efc9c229c6a00805468010000000000000000810460ff16159067ffffffffffffffff16600081158015611d065750825b905060008267ffffffffffffffff166001148015611d235750303b155b905081158015611d31575080155b15611d68576040517ff92ee8a900000000000000000000000000000000000000000000000000000000815260040160405180910390fd5b845467ffffffffffffffff191660011785558315611d9c57845468ff00000000000000001916680100000000000000001785555b8e60039080519060200190611db292919061341b565b506001805560005b600354811015611ebf57600060038281548110611dd957611dd9613aba565b6000918252602090912001548f516001600160a01b0390911691508f9083908110611e0657611e06613aba565b602002602001015160026000836001600160a01b03166001600160a01b0316815260200190815260200160002060006101000a8154816001600160a01b0302191690836001600160a01b031602179055508f8281518110611e6957611e69613aba565b6020908102919091018101516001600160a01b039283166000908152600e8352604080822080546001600160a01b0319169590931694909417909155600690915220805460ff1916600190811790915501611dba565b508b51611ed39060079060208f019061341b565b5060005b600754811015611fdc57600060078281548110611ef657611ef6613aba565b6000918252602090912001548d516001600160a01b0390911691508d9083908110611f2357611f23613aba565b6020026020010151600d6000836001600160a01b03166001600160a01b0316815260200190815260200160002060006101000a8154816001600160a01b0302191690836001600160a01b031602179055508b8281518110611f8657611f86613aba565b6020908102919091018101516001600160a01b039283166000908152600a8352604080822080546001600160a01b0319169590931694909417909155600890915220805460ff1916600190811790915501611ed7565b50600980546001600160a01b03808c166001600160a01b0319928316179092556004805492891692821692909217909155600b899055600c8890556012805490911633179055831561206d57845468ff000000000000000019168555604051600181527fc7f505b2f371ae2175ee4913f4499e1f2633a7b5936321eed1cdaeb6115181d29060200160405180910390a15b505050505050505050505050505050565b6012546001600160a01b031633146120c95760405162461bcd60e51b815260206004820152600e60248201526d37b7363c903a34329037bbb732b960911b6044820152606401610948565b60005b8351811015610aff5760008482815181106120e9576120e9613aba565b6020026020010151905061215560078054806020026020016040519081016040528092919081815260200182805480156109d4576020028201919060005260206000209081546001600160a01b031681526001909101906020018083116109b657505050505082610cac565b15156000036121aa57600780546001810182556000919091527fa66cc928b5edb82af9bd49922954155ab7b0942694bea4ce44661d9a8736c6880180546001600160a01b0319166001600160a01b0383161790555b8382815181106121bc576121bc613aba565b6020026020010151600d6000836001600160a01b03166001600160a01b0316815260200190815260200160002060006101000a8154816001600160a01b0302191690836001600160a01b0316021790555082828151811061221f5761221f613aba565b6020908102919091018101516001600160a01b039283166000908152600a8352604080822080546001600160a01b0319169590931694909417909155600890915220805460ff19166001908117909155016120cc565b6001600160a01b038116600090815260066020526040902054819060ff1615156001146122e45760405162461bcd60e51b815260206004820152601960248201527f506f6f6c20746f6b656e206973206e6f742061637469766564000000000000006044820152606401610948565b6040516323b872dd60e01b8152336004820152306024820152604481018490526001600160a01b038316906323b872dd906064016020604051808303816000875af1158015612337573d6000803e3d6000fd5b505050506040513d601f19601f8201168201806040525081019061235b9190613be4565b506001600160a01b038281166000818152600260205260409081902054905163095ea7b360e01b815292166004830152602482018590529063095ea7b3906044016020604051808303816000875af11580156123bb573d6000803e3d6000fd5b505050506040513d601f19601f820116820180604052508101906123df9190613be4565b506001600160a01b038281166000908152600260205260409081902054905163d8aed14560e01b8152600481018790526024810186905291169063d8aed14590604401600060405180830381600087803b15801561243c57600080fd5b505af1158015612450573d6000803e3d6000fd5b505050506001600160a01b038281166000908152600260205260409081902054905163a52f38d160e01b81526004810187905291169063a52f38d190602401602060405180830381865afa1580156124ac573d6000803e3d6000fd5b505050506040513d601f19601f820116820180604052508101906124d09190613b69565b600003610aff5760008481526005602052604080822054815163232fa73360e01b815291516001600160a01b039091169263232fa733926004808201939182900301818387803b158015611c9d57600080fd5b6000612530826000612f2d565b612710846001600160a01b031663313ce5676040518163ffffffff1660e01b8152600401602060405180830381865afa158015612571573d6000803e3d6000fd5b505050506040513d601f19601f820116820180604052508101906125959190613c14565b6125a090600a613d1b565b6125ab866001612f2d565b600b54866001600160a01b031663313ce5676040518163ffffffff1660e01b8152600401602060405180830381865afa1580156125ec573d6000803e3d6000fd5b505050506040513d601f19601f820116820180604052508101906126109190613c14565b61261b90600a613d1b565b612625908a613bab565b61262f9190613bab565b6126399190613bab565b6126439190613bc2565b61264d9190613bc2565b6126579190613bc2565b949350505050565b6001600160a01b038516600090815260066020526040902054859060ff1615156001146126ce5760405162461bcd60e51b815260206004820152601960248201527f506f6f6c20746f6b656e206973206e6f742061637469766564000000000000006044820152606401610948565b6001600160a01b038416600090815260086020526040902054849060ff16151560011461273d5760405162461bcd60e51b815260206004820152601f60248201527f436f6c6c61746572616c20746f6b656e206973206e6f742061637469766564006044820152606401610948565b82156127fd57348611156127935760405162461bcd60e51b815260206004820181905260248201527f646f206e6f74206861766520656e6f756768206465706f7369746564204554486044820152606401610948565b601360009054906101000a90046001600160a01b03166001600160a01b031663d0e30db0876040518263ffffffff1660e01b81526004016000604051808303818588803b1580156127e357600080fd5b505af11580156127f7573d6000803e3d6000fd5b50505050505b866001600160a01b031663313ce5676040518163ffffffff1660e01b8152600401602060405180830381865afa15801561283b573d6000803e3d6000fd5b505050506040513d601f19601f8201168201806040525081019061285f9190613c14565b61286a90600a613d1b565b612875886001612f2d565b61287f908a613bab565b61288b90612710613bab565b6128959190613bc2565b856001600160a01b031663313ce5676040518163ffffffff1660e01b8152600401602060405180830381865afa1580156128d3573d6000803e3d6000fd5b505050506040513d601f19601f820116820180604052508101906128f79190613c14565b61290290600a613d1b565b600b54612910886000612f2d565b61291a908a613bab565b6129249190613bab565b61292e9190613bc2565b101561297c5760405162461bcd60e51b815260206004820152601c60248201527f446f6e2774206861766520656e6f75676820636f6c6c61746572616c000000006044820152606401610948565b6001600160a01b038088166000908152600260209081526040918290205482517f3b24cc2100000000000000000000000000000000000000000000000000000000815292518c949190911692633b24cc219260048083019391928290030181865afa1580156129ef573d6000803e3d6000fd5b505050506040513d601f19601f82011682018060405250810190612a139190613b69565b1015612a615760405162461bcd60e51b815260206004820152601b60248201527f506f6f6c20646f6e2774206861766520656e6f7567682066756e6400000000006044820152606401610948565b6040805160c081018252600081830181905260a08201819052336020808401828152606085018e815260015486526001600160a01b038e81166080880181905286526002909352938690205485519451915196517fd6bda0c000000000000000000000000000000000000000000000000000000000815260048101959095526024850191909152948116604484015292939092169063d6bda0c090606401600060405180830381600087803b158015612b1957600080fd5b505af1158015612b2d573d6000803e3d6000fd5b5050506001600160a01b03808b166000908152600e602052604081205460045490831693508a92612b5e9116613390565b90506000819050806001600160a01b03166383f8964e8785600960009054906101000a90046001600160a01b0316600a6000896001600160a01b03166001600160a01b0316815260200190815260200160002060009054906101000a90046001600160a01b0316600b54600c54600d60008c6001600160a01b03166001600160a01b0316815260200190815260200160002060009054906101000a90046001600160a01b03168c600f60009054906101000a90046001600160a01b0316601160009054906101000a90046001600160a01b0316601360009054906101000a90046001600160a01b03166040518c63ffffffff1660e01b8152600401612c6d9b9a99989796959493929190613d2a565b600060405180830381600087803b158015612c8757600080fd5b505af1158015612c9b573d6000803e3d6000fd5b50506040517f8ac1b7750000000000000000000000000000000000000000000000000000000081523060048201526001600160a01b0384169250638ac1b7759150602401600060405180830381600087803b158015612cf957600080fd5b505af1158015612d0d573d6000803e3d6000fd5b5050604051633390ef1360e11b8152600481018f90526001600160a01b0384169250636721de269150602401600060405180830381600087803b158015612d5357600080fd5b505af1158015612d67573d6000803e3d6000fd5b505050508815612dea5760405163a9059cbb60e01b81526001600160a01b038381166004830152602482018e90528c169063a9059cbb906044016020604051808303816000875af1158015612dc0573d6000803e3d6000fd5b505050506040513d601f19601f82011682018060405250810190612de49190613be4565b50612e65565b6040516323b872dd60e01b81523360048201526001600160a01b038381166024830152604482018e90528c16906323b872dd906064016020604051808303816000875af1158015612e3f573d6000803e3d6000fd5b505050506040513d601f19601f82011682018060405250810190612e639190613be4565b505b891515600103612ec357806001600160a01b03166307a6bf696040518163ffffffff1660e01b8152600401600060405180830381600087803b158015612eaa57600080fd5b505af1158015612ebe573d6000803e3d6000fd5b505050505b60018054600090815260056020908152604080832080546001600160a01b0319166001600160a01b038716179055338352601482528220835481548086018355918452918320015581549190612f1883613e29565b91905055505050505050505050505050505050565b60008115158103612fce576001600160a01b038084166000908152600d6020526040808220548151633fabe5a360e21b8152915192938493849384938493169163feaf968c9160048082019260a0929091908290030181865afa158015612f98573d6000803e3d6000fd5b505050506040513d601f19601f82011682018060405250810190612fbc9190613e5c565b50919850610d01975050505050505050565b6001600160a01b038084166000908152600e6020526040808220548151633fabe5a360e21b8152915192938493849384938493169163feaf968c9160048082019260a0929091908290030181865afa158015612f98573d6000803e3d6000fd5b6012546001600160a01b031633146130795760405162461bcd60e51b815260206004820152600e60248201526d37b7363c903a34329037bbb732b960911b6044820152606401610948565b600b91909155600c55565b60038181548110610b1557600080fd5b600082815260056020526040808220548151635d3e2fa160e01b815291516001600160a01b039091169183918391635d3e2fa19160048083019260c09291908290030181865afa1580156130ec573d6000803e3d6000fd5b505050506040513d601f19601f820116820180604052508101906131109190613ad0565b60808101516001600160a01b0390811660009081526002602052604080822054905163a52f38d160e01b8152600481018a9052939450909291169063a52f38d190602401602060405180830381865afa158015613171573d6000803e3d6000fd5b505050506040513d601f19601f820116820180604052508101906131959190613b69565b90506001600160a01b038316634d2c872a6131b08784613c01565b6040516001600160e01b031960e084901b168152600481019190915260006024820152604401610e3b565b600081815260056020526040808220548151635d3e2fa160e01b815291516001600160a01b0390911692918391635d3e2fa19160048082019260c0929091908290030181865afa158015613233573d6000803e3d6000fd5b505050506040513d601f19601f820116820180604052508101906132579190613ad0565b6001600160a01b03858116600090815260026020908152604091829020549084015191517fec7be39d00000000000000000000000000000000000000000000000000000000815291831660048301526024820187905292935091169063ec7be39d90604401611c83565b6012546001600160a01b0316331461330c5760405162461bcd60e51b815260206004820152600e60248201526d37b7363c903a34329037bbb732b960911b6044820152606401610948565b601755601655601555565b6012546001600160a01b031633146133625760405162461bcd60e51b815260206004820152600e60248201526d37b7363c903a34329037bbb732b960911b6044820152606401610948565b601080546001600160a01b039384166001600160a01b03199182161790915560118054929093169116179055565b6000763d602d80600a3d3981f3363d3d373d3d3d363d730000008260601b60e81c176000526e5af43d82803e903d91602b57fd5bf38260781b17602052603760096000f090506001600160a01b038116613416576040517fc2f868f400000000000000000000000000000000000000000000000000000000815260040160405180910390fd5b919050565b828054828255906000526020600020908101928215613470579160200282015b8281111561347057825182546001600160a01b0319166001600160a01b0390911617825560209092019160019091019061343b565b5061347c929150613480565b5090565b5b8082111561347c5760008155600101613481565b634e487b7160e01b600052604160045260246000fd5b604051601f8201601f1916810167ffffffffffffffff811182821017156134d4576134d4613495565b604052919050565b600067ffffffffffffffff8211156134f6576134f6613495565b5060051b60200190565b6001600160a01b038116811461351557600080fd5b50565b600082601f83011261352957600080fd5b8135602061353e613539836134dc565b6134ab565b8083825260208201915060208460051b87010193508684111561356057600080fd5b602086015b8481101561358557803561357881613500565b8352918301918301613565565b509695505050505050565b600082601f8301126135a157600080fd5b813560206135b1613539836134dc565b8083825260208201915060208460051b8701019350868411156135d357600080fd5b602086015b848110156135855780356135eb81613500565b83529183019183016135d8565b60008060006060848603121561360d57600080fd5b833567ffffffffffffffff8082111561362557600080fd5b61363187838801613518565b9450602086013591508082111561364757600080fd5b61365387838801613590565b9350604086013591508082111561366957600080fd5b5061367686828701613518565b9150509250925092565b60006020828403121561369257600080fd5b5035919050565b600080604083850312156136ac57600080fd5b823567ffffffffffffffff8111156136c357600080fd5b6136cf85828601613518565b92505060208301356136e081613500565b809150509250929050565b600080604083850312156136fe57600080fd5b50508035926020909101359150565b803561341681613500565b60006020828403121561372a57600080fd5b813561373581613500565b9392505050565b801515811461351557600080fd5b60008060006060848603121561375f57600080fd5b833561376a81613500565b9250602084013561377a8161373c565b9150604084013561378a8161373c565b809150509250925092565b600080600080608085870312156137ab57600080fd5b843593506020850135925060408501356137c481613500565b915060608501356137d48161373c565b939692955090935050565b600080604083850312156137f257600080fd5b8235915060208301356136e08161373c565b6000806000806000806000806000806101408b8d03121561382457600080fd5b8a3567ffffffffffffffff8082111561383c57600080fd5b6138488e838f01613518565b9b5060208d013591508082111561385e57600080fd5b61386a8e838f01613590565b9a5060408d013591508082111561388057600080fd5b61388c8e838f01613518565b995060608d01359150808211156138a257600080fd5b6138ae8e838f01613518565b985060808d01359150808211156138c457600080fd5b6138d08e838f01613590565b975060a08d01359150808211156138e657600080fd5b506138f38d828e01613518565b95505061390260c08c0161370d565b935060e08b013592506101008b013591506139206101208c0161370d565b90509295989b9194979a5092959850565b60008060006060848603121561394657600080fd5b8335925060208401359150604084013561378a81613500565b60008060006060848603121561397457600080fd5b83359250602084013561398681613500565b9150604084013561378a81613500565b60008060008060008060c087890312156139af57600080fd5b8635955060208701356139c181613500565b94506040870135935060608701356139d881613500565b925060808701356139e88161373c565b915060a08701356139f88161373c565b809150509295509295509295565b60008060408385031215613a1957600080fd5b8235613a2481613500565b915060208301356136e08161373c565b60008060408385031215613a4757600080fd5b8235613a5281613500565b915060208301356136e081613500565b60008060408385031215613a7557600080fd5b8235613a8081613500565b946020939093013593505050565b600080600060608486031215613aa357600080fd5b505081359360208301359350604090920135919050565b634e487b7160e01b600052603260045260246000fd5b600060c08284031215613ae257600080fd5b60405160c0810181811067ffffffffffffffff82111715613b0557613b05613495565b604052825181526020830151613b1a81613500565b60208201526040830151613b2d8161373c565b6040820152606083810151908201526080830151613b4a81613500565b608082015260a0830151613b5d8161373c565b60a08201529392505050565b600060208284031215613b7b57600080fd5b5051919050565b634e487b7160e01b600052601160045260246000fd5b80820180821115610d0157610d01613b82565b8082028115828204841417610d0157610d01613b82565b600082613bdf57634e487b7160e01b600052601260045260246000fd5b500490565b600060208284031215613bf657600080fd5b81516137358161373c565b81810381811115610d0157610d01613b82565b600060208284031215613c2657600080fd5b815160ff8116811461373557600080fd5b600181815b80851115613c72578160001904821115613c5857613c58613b82565b80851615613c6557918102915b93841c9390800290613c3c565b509250929050565b600082613c8957506001610d01565b81613c9657506000610d01565b8160018114613cac5760028114613cb657613cd2565b6001915050610d01565b60ff841115613cc757613cc7613b82565b50506001821b610d01565b5060208310610133831016604e8410600b8410161715613cf5575081810a610d01565b613cff8383613c37565b8060001904821115613d1357613d13613b82565b029392505050565b600061373560ff841683613c7a565b6000610200820190508c51825260208d01516001600160a01b03811660208401525060408d01511515604083015260608d015160608301526001600160a01b0360808e015116608083015260a08d0151151560a0830152613d9660c083018d6001600160a01b03169052565b6001600160a01b038b1660e08301526001600160a01b038a166101008301528861012083015287610140830152613dd96101608301886001600160a01b03169052565b6001600160a01b0386166101808301526001600160a01b0385166101a08301526001600160a01b0384166101c08301526001600160a01b0383166101e08301529c9b505050505050505050505050565b600060018201613e3b57613e3b613b82565b5060010190565b805169ffffffffffffffffffff8116811461341657600080fd5b600080600080600060a08688031215613e7457600080fd5b613e7d86613e42565b9450602086015193506040860151925060608601519150613ea060808701613e42565b9050929550929590935056fea2646970667358221220ec2f3bc0768678d9dd6d86b31b0328c2d2344bbefdce719cc194cf056551f57764736f6c63430008180033",
  "linkReferences": {},
  "deployedLinkReferences": {}
}