{
  "_format": "hh-sol-artifact-1",
  "contractName": "CCFLPool",
  "sourceName": "contracts/CCFLPool.sol",
  "abi": [
    {
      "inputs": [],
      "name": "InvalidInitialization",
      "type": "error"
    },
    {
      "inputs": [],
      "name": "NotInitializing",
      "type": "error"
    },
    {
      "inputs": [
        {
          "internalType": "uint8",
          "name": "bits",
          "type": "uint8"
        },
        {
          "internalType": "uint256",
          "name": "value",
          "type": "uint256"
        }
      ],
      "name": "SafeCastOverflowedUintDowncast",
      "type": "error"
    },
    {
      "anonymous": false,
      "inputs": [
        {
          "indexed": false,
          "internalType": "uint256",
          "name": "loanId",
          "type": "uint256"
        },
        {
          "indexed": false,
          "internalType": "uint256",
          "name": "amount",
          "type": "uint256"
        },
        {
          "indexed": false,
          "internalType": "address",
          "name": "borrower",
          "type": "address"
        },
        {
          "indexed": false,
          "internalType": "uint256",
          "name": "when",
          "type": "uint256"
        }
      ],
      "name": "CloseLoan",
      "type": "event"
    },
    {
      "anonymous": false,
      "inputs": [
        {
          "indexed": false,
          "internalType": "address",
          "name": "user",
          "type": "address"
        },
        {
          "indexed": false,
          "internalType": "uint256",
          "name": "amount",
          "type": "uint256"
        },
        {
          "indexed": false,
          "internalType": "uint256",
          "name": "when",
          "type": "uint256"
        }
      ],
      "name": "Deposit",
      "type": "event"
    },
    {
      "anonymous": false,
      "inputs": [
        {
          "indexed": false,
          "internalType": "uint64",
          "name": "version",
          "type": "uint64"
        }
      ],
      "name": "Initialized",
      "type": "event"
    },
    {
      "anonymous": false,
      "inputs": [
        {
          "indexed": false,
          "internalType": "address",
          "name": "user",
          "type": "address"
        },
        {
          "indexed": false,
          "internalType": "uint256",
          "name": "amount",
          "type": "uint256"
        },
        {
          "indexed": false,
          "internalType": "uint256",
          "name": "when",
          "type": "uint256"
        }
      ],
      "name": "Withdraw",
      "type": "event"
    },
    {
      "anonymous": false,
      "inputs": [
        {
          "indexed": false,
          "internalType": "address",
          "name": "user",
          "type": "address"
        },
        {
          "indexed": false,
          "internalType": "uint256",
          "name": "amount",
          "type": "uint256"
        },
        {
          "indexed": false,
          "internalType": "uint256",
          "name": "when",
          "type": "uint256"
        }
      ],
      "name": "WithdrawLoan",
      "type": "event"
    },
    {
      "inputs": [],
      "name": "CCFL",
      "outputs": [
        {
          "internalType": "address",
          "name": "",
          "type": "address"
        }
      ],
      "stateMutability": "view",
      "type": "function"
    },
    {
      "inputs": [
        {
          "internalType": "uint256",
          "name": "_loanId",
          "type": "uint256"
        },
        {
          "internalType": "uint256",
          "name": "_amount",
          "type": "uint256"
        },
        {
          "internalType": "address",
          "name": "_borrower",
          "type": "address"
        }
      ],
      "name": "borrow",
      "outputs": [],
      "stateMutability": "nonpayable",
      "type": "function"
    },
    {
      "inputs": [
        {
          "internalType": "uint256",
          "name": "",
          "type": "uint256"
        }
      ],
      "name": "debt",
      "outputs": [
        {
          "internalType": "uint256",
          "name": "",
          "type": "uint256"
        }
      ],
      "stateMutability": "view",
      "type": "function"
    },
    {
      "inputs": [
        {
          "internalType": "uint256",
          "name": "_loanId",
          "type": "uint256"
        }
      ],
      "name": "getCurrentLoan",
      "outputs": [
        {
          "internalType": "uint256",
          "name": "",
          "type": "uint256"
        }
      ],
      "stateMutability": "view",
      "type": "function"
    },
    {
      "inputs": [],
      "name": "getCurrentRate",
      "outputs": [
        {
          "internalType": "uint256",
          "name": "",
          "type": "uint256"
        },
        {
          "internalType": "uint256",
          "name": "",
          "type": "uint256"
        },
        {
          "internalType": "uint256",
          "name": "",
          "type": "uint256"
        },
        {
          "internalType": "uint256",
          "name": "",
          "type": "uint256"
        }
      ],
      "stateMutability": "view",
      "type": "function"
    },
    {
      "inputs": [],
      "name": "getDebtPool",
      "outputs": [
        {
          "internalType": "uint256",
          "name": "amount",
          "type": "uint256"
        }
      ],
      "stateMutability": "view",
      "type": "function"
    },
    {
      "inputs": [],
      "name": "getMaxWidthdraw",
      "outputs": [
        {
          "internalType": "uint256",
          "name": "",
          "type": "uint256"
        }
      ],
      "stateMutability": "view",
      "type": "function"
    },
    {
      "inputs": [],
      "name": "getRemainingPool",
      "outputs": [
        {
          "internalType": "uint256",
          "name": "amount",
          "type": "uint256"
        }
      ],
      "stateMutability": "view",
      "type": "function"
    },
    {
      "inputs": [],
      "name": "getTotalSupply",
      "outputs": [
        {
          "internalType": "uint256",
          "name": "",
          "type": "uint256"
        }
      ],
      "stateMutability": "view",
      "type": "function"
    },
    {
      "inputs": [
        {
          "internalType": "contract IERC20Standard",
          "name": "_stableCoinAddress",
          "type": "address"
        },
        {
          "internalType": "address",
          "name": "interestRateStrategyAddress",
          "type": "address"
        }
      ],
      "name": "initialize",
      "outputs": [],
      "stateMutability": "nonpayable",
      "type": "function"
    },
    {
      "inputs": [
        {
          "internalType": "uint256",
          "name": "",
          "type": "uint256"
        }
      ],
      "name": "lenders",
      "outputs": [
        {
          "internalType": "address",
          "name": "",
          "type": "address"
        }
      ],
      "stateMutability": "view",
      "type": "function"
    },
    {
      "inputs": [
        {
          "internalType": "uint256",
          "name": "_amount",
          "type": "uint256"
        }
      ],
      "name": "liquidatePenalty",
      "outputs": [],
      "stateMutability": "nonpayable",
      "type": "function"
    },
    {
      "inputs": [
        {
          "internalType": "uint256",
          "name": "",
          "type": "uint256"
        }
      ],
      "name": "loans",
      "outputs": [
        {
          "internalType": "uint256",
          "name": "loanId",
          "type": "uint256"
        },
        {
          "internalType": "bool",
          "name": "isPaid",
          "type": "bool"
        },
        {
          "internalType": "uint256",
          "name": "amount",
          "type": "uint256"
        },
        {
          "internalType": "bool",
          "name": "isClosed",
          "type": "bool"
        },
        {
          "internalType": "bool",
          "name": "isLocked",
          "type": "bool"
        },
        {
          "internalType": "address",
          "name": "borrower",
          "type": "address"
        }
      ],
      "stateMutability": "view",
      "type": "function"
    },
    {
      "inputs": [],
      "name": "remainingPool",
      "outputs": [
        {
          "internalType": "uint256",
          "name": "",
          "type": "uint256"
        }
      ],
      "stateMutability": "view",
      "type": "function"
    },
    {
      "inputs": [
        {
          "internalType": "uint256",
          "name": "_loanId",
          "type": "uint256"
        },
        {
          "internalType": "uint256",
          "name": "_amount",
          "type": "uint256"
        }
      ],
      "name": "repay",
      "outputs": [],
      "stateMutability": "nonpayable",
      "type": "function"
    },
    {
      "inputs": [],
      "name": "reserve",
      "outputs": [
        {
          "internalType": "uint128",
          "name": "liquidityIndex",
          "type": "uint128"
        },
        {
          "internalType": "uint128",
          "name": "currentLiquidityRate",
          "type": "uint128"
        },
        {
          "internalType": "uint128",
          "name": "variableBorrowIndex",
          "type": "uint128"
        },
        {
          "internalType": "uint128",
          "name": "currentVariableBorrowRate",
          "type": "uint128"
        },
        {
          "internalType": "uint40",
          "name": "lastUpdateTimestamp",
          "type": "uint40"
        },
        {
          "internalType": "uint16",
          "name": "id",
          "type": "uint16"
        },
        {
          "internalType": "address",
          "name": "interestRateStrategyAddress",
          "type": "address"
        }
      ],
      "stateMutability": "view",
      "type": "function"
    },
    {
      "inputs": [
        {
          "internalType": "address",
          "name": "_ccfl",
          "type": "address"
        }
      ],
      "name": "setCCFL",
      "outputs": [],
      "stateMutability": "nonpayable",
      "type": "function"
    },
    {
      "inputs": [
        {
          "internalType": "address",
          "name": "",
          "type": "address"
        }
      ],
      "name": "share",
      "outputs": [
        {
          "internalType": "uint256",
          "name": "",
          "type": "uint256"
        }
      ],
      "stateMutability": "view",
      "type": "function"
    },
    {
      "inputs": [],
      "name": "stableCoinAddress",
      "outputs": [
        {
          "internalType": "contract IERC20Standard",
          "name": "",
          "type": "address"
        }
      ],
      "stateMutability": "view",
      "type": "function"
    },
    {
      "inputs": [
        {
          "internalType": "uint256",
          "name": "_amount",
          "type": "uint256"
        }
      ],
      "name": "supply",
      "outputs": [],
      "stateMutability": "nonpayable",
      "type": "function"
    },
    {
      "inputs": [],
      "name": "totalDebt",
      "outputs": [
        {
          "internalType": "uint256",
          "name": "",
          "type": "uint256"
        }
      ],
      "stateMutability": "view",
      "type": "function"
    },
    {
      "inputs": [],
      "name": "totalLiquidity",
      "outputs": [
        {
          "internalType": "uint256",
          "name": "",
          "type": "uint256"
        }
      ],
      "stateMutability": "view",
      "type": "function"
    },
    {
      "inputs": [],
      "name": "totalSupply",
      "outputs": [
        {
          "internalType": "uint256",
          "name": "",
          "type": "uint256"
        }
      ],
      "stateMutability": "view",
      "type": "function"
    },
    {
      "inputs": [
        {
          "internalType": "uint256",
          "name": "_amount",
          "type": "uint256"
        }
      ],
      "name": "withdraw",
      "outputs": [],
      "stateMutability": "nonpayable",
      "type": "function"
    },
    {
      "inputs": [
        {
          "internalType": "address",
          "name": "_receiver",
          "type": "address"
        },
        {
          "internalType": "uint256",
          "name": "_loanId",
          "type": "uint256"
        }
      ],
      "name": "withdrawLoan",
      "outputs": [],
      "stateMutability": "nonpayable",
      "type": "function"
    },
    {
      "stateMutability": "payable",
      "type": "receive"
    }
  ],
  "bytecode": "0x608060405234801561001057600080fd5b50612211806100206000396000f3fe60806040526004361061019a5760003560e01c8063929eea21116100e1578063cd3293de1161008a578063e1ec3c6811610064578063e1ec3c68146104e9578063ec7be39d14610586578063f7fb07b0146105a6578063fc7b9c18146105f357600080fd5b8063cd3293de146103e3578063d6bda0c0146104a9578063d8aed145146104c957600080fd5b8063a9f808b8116100bb578063a9f808b8146103a3578063b14d37c0146103b8578063c4e41b22146103ce57600080fd5b8063929eea2114610343578063982aae4614610363578063a52f38d11461038357600080fd5b80633540302311610143578063485cc9551161011d578063485cc955146102e357806357379102146103035780638ac1b7751461032357600080fd5b806335403023146102765780633b24cc21146102965780633b4675a7146102ab57600080fd5b80631877bb5c116101745780631877bb5c146101fa5780631e0029c8146102275780632e1a7d4d1461025457600080fd5b806303ec357f146101a657806315770f92146101ce57806318160ddd146101e457600080fd5b366101a157005b600080fd5b3480156101b257600080fd5b506101bb610609565b6040519081526020015b60405180910390f35b3480156101da57600080fd5b506101bb600a5481565b3480156101f057600080fd5b506101bb60095481565b34801561020657600080fd5b506101bb610215366004611efe565b60076020526000908152604090205481565b34801561023357600080fd5b506101bb610242366004611f1b565b60086020526000908152604090205481565b34801561026057600080fd5b5061027461026f366004611f1b565b6106f9565b005b34801561028257600080fd5b50610274610291366004611f1b565b6108df565b3480156102a257600080fd5b50600c546101bb565b3480156102b757600080fd5b506003546102cb906001600160a01b031681565b6040516001600160a01b0390911681526020016101c5565b3480156102ef57600080fd5b506102746102fe366004611f34565b610a75565b34801561030f57600080fd5b5061027461031e366004611f1b565b610c55565b34801561032f57600080fd5b5061027461033e366004611efe565b610de5565b34801561034f57600080fd5b506102cb61035e366004611f1b565b610e6e565b34801561036f57600080fd5b506000546102cb906001600160a01b031681565b34801561038f57600080fd5b506101bb61039e366004611f1b565b610e98565b3480156103af57600080fd5b506101bb610f95565b3480156103c457600080fd5b506101bb600c5481565b3480156103da57600080fd5b506101bb610fca565b3480156103ef57600080fd5b5060045460055460065461044e926001600160801b0380821693600160801b92839004821693828216939091049091169064ffffffffff81169065010000000000810461ffff169067010000000000000090046001600160a01b031687565b604080516001600160801b03988916815296881660208801529487169486019490945294909116606084015264ffffffffff16608083015261ffff90921660a08201526001600160a01b0390911660c082015260e0016101c5565b3480156104b557600080fd5b506102746104c4366004611f6d565b6110a2565b3480156104d557600080fd5b506102746104e4366004611fa6565b6112fa565b3480156104f557600080fd5b5061054c610504366004611f1b565b60026020819052600091825260409091208054600182015492820154600390920154909260ff908116929181811691610100820416906201000090046001600160a01b031686565b6040805196875294151560208701529385019290925215156060840152151560808301526001600160a01b031660a082015260c0016101c5565b34801561059257600080fd5b506102746105a1366004611fc8565b61172c565b3480156105b257600080fd5b50600554600454604080516001600160801b03600160801b8086048216835284048116602083015293841691810191909152911660608201526080016101c5565b3480156105ff57600080fd5b506101bb600b5481565b6000806106146118cf565b9050600061062a8260c001518360e001516119cc565b6005549091506106449082906001600160801b03166119e2565b60808301526000546040805163313ce56760e01b815290516b033b2e3c9fd0803ce8000000926001600160a01b03169163313ce5679160048083019260209291908290030181865afa15801561069e573d6000803e3d6000fd5b505050506040513d601f19601f820116820180604052508101906106c29190611ff4565b6106cd90600a612111565b6080840151600b546106de916119e2565b6106e89190612120565b6106f2919061214d565b9250505090565b60006107036118cf565b905061070e81611a26565b60008060009054906101000a90046001600160a01b03166001600160a01b031663313ce5676040518163ffffffff1660e01b8152600401602060405180830381865afa158015610762573d6000803e3d6000fd5b505050506040513d601f19601f820116820180604052508101906107869190611ff4565b61079190600a612111565b6107a76b033b2e3c9fd0803ce800000085612120565b6107b1919061214d565b90506107be600082611a5f565b6004546000906107d89083906001600160801b0316611be7565b33600090815260076020526040812054919250906107f790839061216f565b9050816009600082825461080b919061216f565b9250508190555081600a6000828254610824919061216f565b909155506108389050565b60405180910390fd5b336000908152600760205260408120829055600c805487929061085c90849061216f565b909155505060005460405163a9059cbb60e01b8152336004820152602481018790526001600160a01b039091169063a9059cbb906044015b6020604051808303816000875af11580156108b3573d6000803e3d6000fd5b505050506040513d601f19601f820116820180604052508101906108d79190612182565b505050505050565b60006108e96118cf565b90506108f481611a26565b60008060009054906101000a90046001600160a01b03166001600160a01b031663313ce5676040518163ffffffff1660e01b8152600401602060405180830381865afa158015610948573d6000803e3d6000fd5b505050506040513d601f19601f8201168201806040525081019061096c9190611ff4565b61097790600a612111565b61098d6b033b2e3c9fd0803ce800000085612120565b610997919061214d565b90506109a4816000611a5f565b6004546000906109be9083906001600160801b0316611be7565b33600090815260076020526040812054919250906109dd9083906121a4565b905081600960008282546109f191906121a4565b9250508190555081600a6000828254610a0a91906121a4565b9091555050336000908152600760205260408120829055600c8054879290610a339084906121a4565b90915550506000546040516323b872dd60e01b8152336004820152306024820152604481018790526001600160a01b03909116906323b872dd90606401610894565b7ff0c57e16840df040f15088dc2f81fe391c3923bec73e23a9662efc9c229c6a00805468010000000000000000810460ff16159067ffffffffffffffff16600081158015610ac05750825b905060008267ffffffffffffffff166001148015610add5750303b155b905081158015610aeb575080155b15610b22576040517ff92ee8a900000000000000000000000000000000000000000000000000000000815260040160405180910390fd5b845467ffffffffffffffff191660011785558315610b5657845468ff00000000000000001916680100000000000000001785555b600080546001600160a01b03808a1673ffffffffffffffffffffffffffffffffffffffff199283161790925560068054928916670100000000000000027fffffffffff0000000000000000000000000000000000000000ffffffffffffff90931692909217909155600480546fffffffffffffffffffffffffffffffff199081166b033b2e3c9fd0803ce8000000908117909255600580549091169091179055600d8054909116331790558315610c4c57845468ff000000000000000019168555604051600181527fc7f505b2f371ae2175ee4913f4499e1f2633a7b5936321eed1cdaeb6115181d29060200160405180910390a15b50505050505050565b6003546001600160a01b03163314610c9f5760405162461bcd60e51b815260206004820152600d60248201526c1bdb9b1e481d1a194818d8d99b609a1b604482015260640161082f565b6000610ca96118cf565b9050610cb481611a26565b60008060009054906101000a90046001600160a01b03166001600160a01b031663313ce5676040518163ffffffff1660e01b8152600401602060405180830381865afa158015610d08573d6000803e3d6000fd5b505050506040513d601f19601f82011682018060405250810190610d2c9190611ff4565b610d3790600a612111565b610d4d6b033b2e3c9fd0803ce800000085612120565b610d57919061214d565b90506000610d748360400151600a546119e290919063ffffffff16565b90506000610d9c82610d9686604001518686610d9091906121a4565b906119e2565b90611be7565b9050610da781611c26565b600480546fffffffffffffffffffffffffffffffff19166001600160801b0392909216919091179055600c8054869190600090610a339084906121a4565b600d546001600160a01b03163314610e3f5760405162461bcd60e51b815260206004820152600e60248201527f6f6e6c7920746865206f776e6572000000000000000000000000000000000000604482015260640161082f565b6003805473ffffffffffffffffffffffffffffffffffffffff19166001600160a01b0392909216919091179055565b60018181548110610e7e57600080fd5b6000918252602090912001546001600160a01b0316905081565b600080610ea36118cf565b90506000610eb98260c001518360e001516119cc565b600554909150610ed39082906001600160801b03166119e2565b60808301526000546040805163313ce56760e01b815290516b033b2e3c9fd0803ce8000000926001600160a01b03169163313ce5679160048083019260209291908290030181865afa158015610f2d573d6000803e3d6000fd5b505050506040513d601f19601f82011682018060405250810190610f519190611ff4565b610f5c90600a612111565b6080840151600087815260086020526040902054610f79916119e2565b610f839190612120565b610f8d919061214d565b949350505050565b600454336000908152600760205260408120549091610fc591610fc0916001600160801b03166119e2565b611c77565b905090565b600080610fd56118cf565b90506000610feb8260a001518360e00151611c9a565b90506110048260400151826119e290919063ffffffff16565b604080840191909152600054815163313ce56760e01b815291516b033b2e3c9fd0803ce8000000926001600160a01b039092169163313ce5679160048083019260209291908290030181865afa158015611062573d6000803e3d6000fd5b505050506040513d601f19601f820116820180604052508101906110869190611ff4565b61109190600a612111565b60408401516009546106de916119e2565b6003546001600160a01b031633146110ec5760405162461bcd60e51b815260206004820152600d60248201526c1bdb9b1e481d1a194818d8d99b609a1b604482015260640161082f565b60006110f66118cf565b905061110181611a26565b60008060009054906101000a90046001600160a01b03166001600160a01b031663313ce5676040518163ffffffff1660e01b8152600401602060405180830381865afa158015611155573d6000803e3d6000fd5b505050506040513d601f19601f820116820180604052508101906111799190611ff4565b61118490600a612111565b61119a6b033b2e3c9fd0803ce800000086612120565b6111a4919061214d565b905060006111bf836080015183611be790919063ffffffff16565b600087815260086020526040812054919250906111dd9083906121a4565b905081600b60008282546111f191906121a4565b9091555050600c548611156112485760405162461bcd60e51b815260206004820152601c60248201527f446f206e6f74206861766520656e6f756768206c697175696469747900000000604482015260640161082f565b6000878152600260208181526040808420600890925283208490558981559081018890556003810180547fffffffffffffffffffff0000000000000000000000000000000000000000ffff16620100006001600160a01b038a1602179055906112b19085611a5f565b60408501516112c1908590611be7565b600a60008282546112d2919061216f565b9250508190555086600c60008282546112eb919061216f565b90915550505050505050505050565b6003546001600160a01b031633146113445760405162461bcd60e51b815260206004820152600d60248201526c1bdb9b1e481d1a194818d8d99b609a1b604482015260640161082f565b600061134e6118cf565b905061135981611a26565b60008060009054906101000a90046001600160a01b03166001600160a01b031663313ce5676040518163ffffffff1660e01b8152600401602060405180830381865afa1580156113ad573d6000803e3d6000fd5b505050506040513d601f19601f820116820180604052508101906113d19190611ff4565b6113dc90600a612111565b6113f26b033b2e3c9fd0803ce800000085612120565b6113fc919061214d565b6005549091506000906114199083906001600160801b0316611be7565b60008681526008602052604090205490915081111561161c57600085815260086020526040812054600b80549192909161145490849061216f565b9091555050600554600086815260086020526040812054909161148091906001600160801b03166119e2565b905060006b033b2e3c9fd0803ce80000006001600160801b031660008054906101000a90046001600160a01b03166001600160a01b031663313ce5676040518163ffffffff1660e01b8152600401602060405180830381865afa1580156114eb573d6000803e3d6000fd5b505050506040513d601f19601f8201168201806040525081019061150f9190611ff4565b61151a90600a612111565b6115249084612120565b61152e919061214d565b600088815260086020526040812081905590915061154c9080611a5f565b60408086015160008981526008602052919091205461156a91611be7565b600a600082825461157b91906121a4565b9250508190555080600c600082825461159491906121a4565b90915550506000546040516323b872dd60e01b8152336004820152306024820152604481018390526001600160a01b03909116906323b872dd906064016020604051808303816000875af11580156115f0573d6000803e3d6000fd5b505050506040513d601f19601f820116820180604052508101906116149190612182565b505050611725565b60008581526008602052604081205461163690839061216f565b905081600b600082825461164a919061216f565b9091555050600086815260086020526040812082905561166b908490611a5f565b604084015161167b908490611be7565b600a600082825461168c91906121a4565b9250508190555084600c60008282546116a591906121a4565b90915550506000546040516323b872dd60e01b8152336004820152306024820152604481018790526001600160a01b03909116906323b872dd906064016020604051808303816000875af1158015611701573d6000803e3d6000fd5b505050506040513d601f19601f82011682018060405250810190610c4c9190612182565b5050505050565b6003546001600160a01b031633146117765760405162461bcd60e51b815260206004820152600d60248201526c1bdb9b1e481d1a194818d8d99b609a1b604482015260640161082f565b60008181526002602052604090206001015460ff16156117d85760405162461bcd60e51b815260206004820152600c60248201527f4c6f616e20697320706169640000000000000000000000000000000000000000604482015260640161082f565b6000818152600260208181526040928390206001808201805460ff191690911790559091015482516001600160a01b038616815291820152428183015290517fec2db68ed4a8b09a4c7173e6e4230e6cca7e1b48e58a0affc9c550470e0e14819181900360600190a160008054828252600260208190526040928390200154915163a9059cbb60e01b81526001600160a01b038581166004830152602482019390935291169063a9059cbb906044016020604051808303816000875af11580156118a6573d6000803e3d6000fd5b505050506040513d601f19601f820116820180604052508101906118ca9190612182565b505050565b61191e60405180610100016040528060008152602001600081526020016000815260200160008152602001600081526020016000815260200160008152602001600064ffffffffff1681525090565b61196d60405180610100016040528060008152602001600081526020016000815260200160008152602001600081526020016000815260200160008152602001600064ffffffffff1681525090565b6004546001600160801b03808216604084018190526020840152600554808216608085018190526060850152600160801b92839004821660a0850152919091041660c082015260065464ffffffffff1660e0820152600b548152919050565b60006119d9838342611cd7565b90505b92915050565b600081156b019d971e4fe8401e740000001983900484111517611a0457600080fd5b506b033b2e3c9fd0803ce800000091026b019d971e4fe8401e74000000010490565b60065464ffffffffff428116911603611a3c5750565b611a4581611e05565b506006805464ffffffffff19164264ffffffffff16179055565b611a8360405180606001604052806000815260200160008152602001600081525090565b6006546040805160808101825285815260208101859052600554600b546701000000000000009094046001600160a01b0316936356eaf26493830191611ad291906001600160801b03166119e2565b8152600454600a54602090920191611af2916001600160801b03166119e2565b9052604080517fffffffff0000000000000000000000000000000000000000000000000000000060e085901b168152825160048201526020830151602482015290820151604482015260609091015160648201526084016040805180830381865afa158015611b65573d6000803e3d6000fd5b505050506040513d601f19601f82011682018060405250810190611b8991906121b7565b6020830152808252611b9a90611c26565b600480546001600160801b03928316600160801b0292169190911790556020810151611bc590611c26565b600580546001600160801b03928316600160801b029216919091179055505050565b600081156b033b2e3c9fd0803ce800000060028404190484111715611c0b57600080fd5b506b033b2e3c9fd0803ce80000009190910260028204010490565b60006001600160801b03821115611c73576040517f6dfcc650000000000000000000000000000000000000000000000000000000008152608060048201526024810183905260440161082f565b5090565b633b9aca00808204908206631dcd65008110611c94576001820191505b50919050565b600080611cae64ffffffffff84164261216f565b611cb89085612120565b6301e1338090049050610f8d816b033b2e3c9fd0803ce80000006121a4565b600080611ceb64ffffffffff85168461216f565b905080600003611d0a576b033b2e3c9fd0803ce8000000915050611dfe565b60001981016000808060028511611d22576000611d27565b600285035b925066038882915c4000611d3b8a806119e2565b81611d4857611d48612137565b0491506301e13380611d5a838b6119e2565b81611d6757611d67612137565b049050600082611d778688612120565b611d819190612120565b60029004905060008285611d95888a612120565b611d9f9190612120565b611da99190612120565b60069004905080826301e13380611dc08a8f612120565b611dca919061214d565b611de0906b033b2e3c9fd0803ce80000006121a4565b611dea91906121a4565b611df491906121a4565b9750505050505050505b9392505050565b60a081015115611e77576000611e238260a001518360e00151611c9a565b9050611e3c8260200151826119e290919063ffffffff16565b60408301819052611e4c90611c26565b600480546fffffffffffffffffffffffffffffffff19166001600160801b0392909216919091179055505b805115611ee6576000611e928260c001518360e001516119cc565b9050611eab8260600151826119e290919063ffffffff16565b60808301819052611ebb90611c26565b600580546fffffffffffffffffffffffffffffffff19166001600160801b0392909216919091179055505b50565b6001600160a01b0381168114611ee657600080fd5b600060208284031215611f1057600080fd5b8135611dfe81611ee9565b600060208284031215611f2d57600080fd5b5035919050565b60008060408385031215611f4757600080fd5b8235611f5281611ee9565b91506020830135611f6281611ee9565b809150509250929050565b600080600060608486031215611f8257600080fd5b83359250602084013591506040840135611f9b81611ee9565b809150509250925092565b60008060408385031215611fb957600080fd5b50508035926020909101359150565b60008060408385031215611fdb57600080fd5b8235611fe681611ee9565b946020939093013593505050565b60006020828403121561200657600080fd5b815160ff81168114611dfe57600080fd5b634e487b7160e01b600052601160045260246000fd5b600181815b8085111561206857816000190482111561204e5761204e612017565b8085161561205b57918102915b93841c9390800290612032565b509250929050565b60008261207f575060016119dc565b8161208c575060006119dc565b81600181146120a257600281146120ac576120c8565b60019150506119dc565b60ff8411156120bd576120bd612017565b50506001821b6119dc565b5060208310610133831016604e8410600b84101617156120eb575081810a6119dc565b6120f5838361202d565b806000190482111561210957612109612017565b029392505050565b60006119d960ff841683612070565b80820281158282048414176119dc576119dc612017565b634e487b7160e01b600052601260045260246000fd5b60008261216a57634e487b7160e01b600052601260045260246000fd5b500490565b818103818111156119dc576119dc612017565b60006020828403121561219457600080fd5b81518015158114611dfe57600080fd5b808201808211156119dc576119dc612017565b600080604083850312156121ca57600080fd5b50508051602090910151909290915056fea2646970667358221220a565a00af397bfa04e07bc84077790e38d51dbc4f9a0b70be812e9e3d4870a7f64736f6c63430008180033",
  "linkReferences": {},
  "deployedLinkReferences": {}
}