{
  "_format": "hh-sol-artifact-1",
  "contractName": "CCFLLoan",
  "sourceName": "contracts/CCFLLoan.sol",
  "abi": [
    {
      "inputs": [],
      "stateMutability": "nonpayable",
      "type": "constructor"
    },
    {
      "inputs": [],
      "name": "InvalidInitialization",
      "type": "error"
    },
    {
      "inputs": [],
      "name": "NotInitializing",
      "type": "error"
    },
    {
      "anonymous": false,
      "inputs": [
        {
          "indexed": false,
          "internalType": "uint64",
          "name": "version",
          "type": "uint64"
        }
      ],
      "name": "Initialized",
      "type": "event"
    },
    {
      "anonymous": false,
      "inputs": [
        {
          "indexed": true,
          "internalType": "address",
          "name": "onBehalfOf",
          "type": "address"
        },
        {
          "indexed": true,
          "internalType": "address",
          "name": "_token",
          "type": "address"
        },
        {
          "indexed": true,
          "internalType": "uint256",
          "name": "_amount",
          "type": "uint256"
        }
      ],
      "name": "LiquiditySupplied",
      "type": "event"
    },
    {
      "anonymous": false,
      "inputs": [
        {
          "indexed": true,
          "internalType": "address",
          "name": "to",
          "type": "address"
        },
        {
          "indexed": true,
          "internalType": "address",
          "name": "_token",
          "type": "address"
        },
        {
          "indexed": true,
          "internalType": "uint256",
          "name": "_amount",
          "type": "uint256"
        }
      ],
      "name": "LiquidityWithdrawn",
      "type": "event"
    },
    {
      "anonymous": false,
      "inputs": [
        {
          "indexed": false,
          "internalType": "uint256",
          "name": "amount",
          "type": "uint256"
        },
        {
          "indexed": false,
          "internalType": "uint256",
          "name": "when",
          "type": "uint256"
        }
      ],
      "name": "Withdrawal",
      "type": "event"
    },
    {
      "inputs": [],
      "name": "LTV",
      "outputs": [
        {
          "internalType": "uint256",
          "name": "",
          "type": "uint256"
        }
      ],
      "stateMutability": "view",
      "type": "function"
    },
    {
      "inputs": [],
      "name": "aToken",
      "outputs": [
        {
          "internalType": "contract IERC20Standard",
          "name": "",
          "type": "address"
        }
      ],
      "stateMutability": "view",
      "type": "function"
    },
    {
      "inputs": [],
      "name": "aaveAddressProvider",
      "outputs": [
        {
          "internalType": "contract IPoolAddressesProvider",
          "name": "",
          "type": "address"
        }
      ],
      "stateMutability": "view",
      "type": "function"
    },
    {
      "inputs": [],
      "name": "ccfl",
      "outputs": [
        {
          "internalType": "address",
          "name": "",
          "type": "address"
        }
      ],
      "stateMutability": "view",
      "type": "function"
    },
    {
      "inputs": [],
      "name": "closeLoan",
      "outputs": [],
      "stateMutability": "nonpayable",
      "type": "function"
    },
    {
      "inputs": [],
      "name": "collateralAmount",
      "outputs": [
        {
          "internalType": "uint256",
          "name": "",
          "type": "uint256"
        }
      ],
      "stateMutability": "view",
      "type": "function"
    },
    {
      "inputs": [],
      "name": "collateralToken",
      "outputs": [
        {
          "internalType": "contract IERC20Standard",
          "name": "",
          "type": "address"
        }
      ],
      "stateMutability": "view",
      "type": "function"
    },
    {
      "inputs": [],
      "name": "feeTier",
      "outputs": [
        {
          "internalType": "uint24",
          "name": "",
          "type": "uint24"
        }
      ],
      "stateMutability": "view",
      "type": "function"
    },
    {
      "inputs": [
        {
          "internalType": "uint256",
          "name": "currentDebt",
          "type": "uint256"
        }
      ],
      "name": "getHealthFactor",
      "outputs": [
        {
          "internalType": "uint256",
          "name": "",
          "type": "uint256"
        }
      ],
      "stateMutability": "view",
      "type": "function"
    },
    {
      "inputs": [
        {
          "internalType": "contract IERC20Standard",
          "name": "_coin",
          "type": "address"
        },
        {
          "internalType": "bool",
          "name": "isPool",
          "type": "bool"
        }
      ],
      "name": "getLatestPrice",
      "outputs": [
        {
          "internalType": "uint256",
          "name": "",
          "type": "uint256"
        }
      ],
      "stateMutability": "view",
      "type": "function"
    },
    {
      "inputs": [],
      "name": "getLoanInfo",
      "outputs": [
        {
          "components": [
            {
              "internalType": "uint256",
              "name": "loanId",
              "type": "uint256"
            },
            {
              "internalType": "address",
              "name": "borrower",
              "type": "address"
            },
            {
              "internalType": "bool",
              "name": "isPaid",
              "type": "bool"
            },
            {
              "internalType": "uint256",
              "name": "amount",
              "type": "uint256"
            },
            {
              "internalType": "contract IERC20Standard",
              "name": "stableCoin",
              "type": "address"
            },
            {
              "internalType": "bool",
              "name": "isClosed",
              "type": "bool"
            }
          ],
          "internalType": "struct Loan",
          "name": "",
          "type": "tuple"
        }
      ],
      "stateMutability": "view",
      "type": "function"
    },
    {
      "inputs": [
        {
          "internalType": "address",
          "name": "user",
          "type": "address"
        }
      ],
      "name": "getUserAccountData",
      "outputs": [
        {
          "internalType": "uint256",
          "name": "totalCollateralBase",
          "type": "uint256"
        },
        {
          "internalType": "uint256",
          "name": "totalDebtBase",
          "type": "uint256"
        },
        {
          "internalType": "uint256",
          "name": "availableBorrowsBase",
          "type": "uint256"
        },
        {
          "internalType": "uint256",
          "name": "currentLiquidationThreshold",
          "type": "uint256"
        },
        {
          "internalType": "uint256",
          "name": "ltv",
          "type": "uint256"
        },
        {
          "internalType": "uint256",
          "name": "healthFactor",
          "type": "uint256"
        }
      ],
      "stateMutability": "view",
      "type": "function"
    },
    {
      "inputs": [],
      "name": "initLoan",
      "outputs": [
        {
          "internalType": "uint256",
          "name": "loanId",
          "type": "uint256"
        },
        {
          "internalType": "address",
          "name": "borrower",
          "type": "address"
        },
        {
          "internalType": "bool",
          "name": "isPaid",
          "type": "bool"
        },
        {
          "internalType": "uint256",
          "name": "amount",
          "type": "uint256"
        },
        {
          "internalType": "contract IERC20Standard",
          "name": "stableCoin",
          "type": "address"
        },
        {
          "internalType": "bool",
          "name": "isClosed",
          "type": "bool"
        }
      ],
      "stateMutability": "view",
      "type": "function"
    },
    {
      "inputs": [
        {
          "components": [
            {
              "internalType": "uint256",
              "name": "loanId",
              "type": "uint256"
            },
            {
              "internalType": "address",
              "name": "borrower",
              "type": "address"
            },
            {
              "internalType": "bool",
              "name": "isPaid",
              "type": "bool"
            },
            {
              "internalType": "uint256",
              "name": "amount",
              "type": "uint256"
            },
            {
              "internalType": "contract IERC20Standard",
              "name": "stableCoin",
              "type": "address"
            },
            {
              "internalType": "bool",
              "name": "isClosed",
              "type": "bool"
            }
          ],
          "internalType": "struct Loan",
          "name": "_loan",
          "type": "tuple"
        },
        {
          "internalType": "contract IERC20Standard",
          "name": "_collateralToken",
          "type": "address"
        },
        {
          "internalType": "contract IPoolAddressesProvider",
          "name": "_aaveAddressProvider",
          "type": "address"
        },
        {
          "internalType": "contract IERC20Standard",
          "name": "_aToken",
          "type": "address"
        },
        {
          "internalType": "uint256",
          "name": "_ltv",
          "type": "uint256"
        },
        {
          "internalType": "uint256",
          "name": "_threshold",
          "type": "uint256"
        },
        {
          "internalType": "contract AggregatorV3Interface",
          "name": "_priceFeed",
          "type": "address"
        },
        {
          "internalType": "contract AggregatorV3Interface",
          "name": "_pricePoolFeed",
          "type": "address"
        },
        {
          "internalType": "contract ISwapRouter",
          "name": "_swapRouter",
          "type": "address"
        },
        {
          "internalType": "address",
          "name": "_platform",
          "type": "address"
        },
        {
          "internalType": "contract IWETH",
          "name": "_iWETH",
          "type": "address"
        }
      ],
      "name": "initialize",
      "outputs": [],
      "stateMutability": "nonpayable",
      "type": "function"
    },
    {
      "inputs": [],
      "name": "isStakeAave",
      "outputs": [
        {
          "internalType": "bool",
          "name": "",
          "type": "bool"
        }
      ],
      "stateMutability": "view",
      "type": "function"
    },
    {
      "inputs": [
        {
          "internalType": "uint256",
          "name": "_currentDebt",
          "type": "uint256"
        },
        {
          "internalType": "uint256",
          "name": "_percent",
          "type": "uint256"
        }
      ],
      "name": "liquidate",
      "outputs": [],
      "stateMutability": "nonpayable",
      "type": "function"
    },
    {
      "inputs": [],
      "name": "liquidationThreshold",
      "outputs": [
        {
          "internalType": "uint256",
          "name": "",
          "type": "uint256"
        }
      ],
      "stateMutability": "view",
      "type": "function"
    },
    {
      "inputs": [],
      "name": "owner",
      "outputs": [
        {
          "internalType": "address",
          "name": "",
          "type": "address"
        }
      ],
      "stateMutability": "view",
      "type": "function"
    },
    {
      "inputs": [],
      "name": "platform",
      "outputs": [
        {
          "internalType": "address",
          "name": "",
          "type": "address"
        }
      ],
      "stateMutability": "view",
      "type": "function"
    },
    {
      "inputs": [],
      "name": "priceFeed",
      "outputs": [
        {
          "internalType": "contract AggregatorV3Interface",
          "name": "",
          "type": "address"
        }
      ],
      "stateMutability": "view",
      "type": "function"
    },
    {
      "inputs": [],
      "name": "pricePoolFeed",
      "outputs": [
        {
          "internalType": "contract AggregatorV3Interface",
          "name": "",
          "type": "address"
        }
      ],
      "stateMutability": "view",
      "type": "function"
    },
    {
      "inputs": [
        {
          "internalType": "address",
          "name": "_ccfl",
          "type": "address"
        }
      ],
      "name": "setCCFL",
      "outputs": [],
      "stateMutability": "nonpayable",
      "type": "function"
    },
    {
      "inputs": [],
      "name": "supplyLiquidity",
      "outputs": [],
      "stateMutability": "nonpayable",
      "type": "function"
    },
    {
      "inputs": [],
      "name": "swapRouter",
      "outputs": [
        {
          "internalType": "contract ISwapRouter",
          "name": "",
          "type": "address"
        }
      ],
      "stateMutability": "view",
      "type": "function"
    },
    {
      "inputs": [
        {
          "internalType": "uint256",
          "name": "amount",
          "type": "uint256"
        }
      ],
      "name": "updateCollateral",
      "outputs": [],
      "stateMutability": "nonpayable",
      "type": "function"
    },
    {
      "inputs": [],
      "name": "wETH",
      "outputs": [
        {
          "internalType": "contract IWETH",
          "name": "",
          "type": "address"
        }
      ],
      "stateMutability": "view",
      "type": "function"
    },
    {
      "inputs": [
        {
          "internalType": "address",
          "name": "_receiver",
          "type": "address"
        },
        {
          "internalType": "bool",
          "name": "_isETH",
          "type": "bool"
        }
      ],
      "name": "withdrawAllCollateral",
      "outputs": [],
      "stateMutability": "nonpayable",
      "type": "function"
    },
    {
      "inputs": [],
      "name": "withdrawLiquidity",
      "outputs": [],
      "stateMutability": "nonpayable",
      "type": "function"
    },
    {
      "stateMutability": "payable",
      "type": "receive"
    }
  ],
  "bytecode": "0x608060405234801561001057600080fd5b506122a3806100206000396000f3fe6080604052600436106101bb5760003560e01c80637ce67d60116100ec578063b2016bd41161008a578063c31c9c0711610064578063c31c9c071461063d578063cdaabe411461065d578063d296d1f11461067d578063f24286211461069d57600080fd5b8063b2016bd4146105b0578063b3bffeaa146105d0578063bf92857c146105f057600080fd5b80638ac1b775116100c65780638ac1b7751461053a5780638da5cb5b1461055a57806392d09ceb1461057a578063a0c1f15e1461059057600080fd5b80637ce67d60146104805780637ea382c11461050557806383f8964e1461051a57600080fd5b80635825f535116101595780636721de26116101335780636721de26146103f657806368dcad581461041657806372f5d98a14610436578063741bef1a1461046057600080fd5b80635825f535146102c55780635d3e2fa1146102e557806362965d8e146103e057600080fd5b806317845c691161019557806317845c6914610234578063232fa733146102625780634031234c146102775780634bde38c81461028d57600080fd5b806307a6bf69146101c7578063102cb82e146101de57806311256603146101fe57600080fd5b366101c257005b600080fd5b3480156101d357600080fd5b506101dc6106bd565b005b3480156101ea57600080fd5b506101dc6101f9366004611dc4565b6108eb565b34801561020a57600080fd5b5060025461021f90600160a01b900460ff1681565b60405190151581526020015b60405180910390f35b34801561024057600080fd5b5061025461024f366004611dfd565b610bff565b60405190815260200161022b565b34801561026e57600080fd5b506101dc610dd9565b34801561028357600080fd5b5061025460045481565b34801561029957600080fd5b50600f546102ad906001600160a01b031681565b6040516001600160a01b03909116815260200161022b565b3480156102d157600080fd5b50600e546102ad906001600160a01b031681565b3480156102f157600080fd5b506103816040805160c081018252600080825260208201819052918101829052606081018290526080810182905260a0810191909152506040805160c08101825260085481526009546001600160a01b03808216602084015260ff600160a01b928390048116151594840194909452600a546060840152600b54908116608084015204909116151560a082015290565b60405161022b9190600060c0820190508251825260208301516001600160a01b03808216602085015260408501511515604085015260608501516060850152806080860151166080850152505060a0830151151560a083015292915050565b3480156103ec57600080fd5b5061025460055481565b34801561040257600080fd5b506101dc610411366004611dfd565b610e50565b34801561042257600080fd5b50600d546102ad906001600160a01b031681565b34801561044257600080fd5b5061044c610bb881565b60405162ffffff909116815260200161022b565b34801561046c57600080fd5b50600c546102ad906001600160a01b031681565b34801561048c57600080fd5b50600854600954600a54600b546104c593926001600160a01b038082169360ff600160a01b938490048116949193928216929091041686565b604080519687526001600160a01b0395861660208801529315159386019390935260608501919091529091166080830152151560a082015260c00161022b565b34801561051157600080fd5b506101dc610eb5565b34801561052657600080fd5b506101dc610535366004611e16565b6111f9565b34801561054657600080fd5b506101dc610555366004611f66565b61157d565b34801561056657600080fd5b506000546102ad906001600160a01b031681565b34801561058657600080fd5b5061025460065481565b34801561059c57600080fd5b506002546102ad906001600160a01b031681565b3480156105bc57600080fd5b506007546102ad906001600160a01b031681565b3480156105dc57600080fd5b506102546105eb366004611dc4565b611602565b3480156105fc57600080fd5b5061061061060b366004611f66565b6116ff565b604080519687526020870195909552938501929092526060840152608083015260a082015260c00161022b565b34801561064957600080fd5b506003546102ad906001600160a01b031681565b34801561066957600080fd5b506001546102ad906001600160a01b031681565b34801561068957600080fd5b506101dc610698366004611f8a565b61181d565b3480156106a957600080fd5b506010546102ad906001600160a01b031681565b6000546001600160a01b0316331461070d5760405162461bcd60e51b815260206004820152600e60248201526d37b7363c903a34329037bbb732b960911b60448201526064015b60405180910390fd5b6007546040516370a0823160e01b81523060048201526001600160a01b039091169060009082906370a0823190602401602060405180830381865afa15801561075a573d6000803e3d6000fd5b505050506040513d601f19601f8201168201806040525081019061077e9190611fac565b90506000309050600080600160009054906101000a90046001600160a01b03166001600160a01b031663026b1d5f6040518163ffffffff1660e01b8152600401602060405180830381865afa1580156107db573d6000803e3d6000fd5b505050506040513d601f19601f820116820180604052508101906107ff9190611fc5565b6040517f617ba0370000000000000000000000000000000000000000000000000000000081526001600160a01b03878116600483015260248201879052858116604483015261ffff851660648301529192509082169063617ba03790608401600060405180830381600087803b15801561087857600080fd5b505af115801561088c573d6000803e3d6000fd5b5050505083856001600160a01b0316846001600160a01b03167f51a2b359618aeb0bcc2a495a6667c0bdbfddc3bb27eb0dd5b8e3b33a4c15865f60405160405180910390a450506002805460ff60a01b1916600160a01b179055505050565b6000546001600160a01b031633146109365760405162461bcd60e51b815260206004820152600e60248201526d37b7363c903a34329037bbb732b960911b6044820152606401610704565b600b54600160a01b900460ff1615156001146109945760405162461bcd60e51b815260206004820152601260248201527f4c6f616e206973206e6f7420636c6f73656400000000000000000000000000006044820152606401610704565b8015610b02576010546007546040516370a0823160e01b81523060048201526001600160a01b0392831692632e1a7d4d9216906370a0823190602401602060405180830381865afa1580156109ed573d6000803e3d6000fd5b505050506040513d601f19601f82011682018060405250810190610a119190611fac565b6040518263ffffffff1660e01b8152600401610a2f91815260200190565b600060405180830381600087803b158015610a4957600080fd5b505af1158015610a5d573d6000803e3d6000fd5b50506007546040516370a0823160e01b81523060048201526001600160a01b0386811694506108fc9350909116906370a0823190602401602060405180830381865afa158015610ab1573d6000803e3d6000fd5b505050506040513d601f19601f82011682018060405250810190610ad59190611fac565b6040518115909202916000818181858888f19350505050158015610afd573d6000803e3d6000fd5b505050565b6007546040516370a0823160e01b81523060048201526001600160a01b039091169063a9059cbb90849083906370a0823190602401602060405180830381865afa158015610b54573d6000803e3d6000fd5b505050506040513d601f19601f82011682018060405250810190610b789190611fac565b6040517fffffffff0000000000000000000000000000000000000000000000000000000060e085901b1681526001600160a01b03909216600483015260248201526044016020604051808303816000875af1158015610bdb573d6000803e3d6000fd5b505050506040513d601f19601f82011682018060405250810190610afd9190611fe2565b6000610c1b610c16670de0b6b3a764000084612015565b611a50565b600b54600090610c35906001600160a01b03166001611602565b6007546006549192506000916001600160a01b039091169015610d0e576000610c5f826000611602565b9050816001600160a01b031663313ce5676040518163ffffffff1660e01b8152600401602060405180830381865afa158015610c9f573d6000803e3d6000fd5b505050506040513d601f19601f82011682018060405250810190610cc39190612037565b610cce90600a61213e565b61271060045483600654610ce2919061214d565b610cec919061214d565b610cf69190612015565b610d009190612015565b610d0a9084612164565b9250505b600b54604080517f313ce56700000000000000000000000000000000000000000000000000000000815290516000926001600160a01b03169163313ce5679160048083019260209291908290030181865afa158015610d71573d6000803e3d6000fd5b505050506040513d601f19601f82011682018060405250810190610d959190612037565b610da090600a61213e565b610daa858861214d565b610db49190612015565b9050600081610dc485606461214d565b610dce9190612015565b979650505050505050565b6000546001600160a01b03163314610e245760405162461bcd60e51b815260206004820152600e60248201526d37b7363c903a34329037bbb732b960911b6044820152606401610704565b600b805460ff60a01b1916600160a01b9081179091556002540460ff1615610e4e57610e4e610eb5565b565b6000546001600160a01b03163314610e9b5760405162461bcd60e51b815260206004820152600e60248201526d37b7363c903a34329037bbb732b960911b6044820152606401610704565b8060066000828254610ead9190612164565b909155505050565b6000546001600160a01b03163314610f005760405162461bcd60e51b815260206004820152600e60248201526d37b7363c903a34329037bbb732b960911b6044820152606401610704565b6002546040516370a0823160e01b81523060048201526000916001600160a01b0316906370a0823190602401602060405180830381865afa158015610f49573d6000803e3d6000fd5b505050506040513d601f19601f82011682018060405250810190610f6d9190611fac565b90506000600160009054906101000a90046001600160a01b03166001600160a01b031663026b1d5f6040518163ffffffff1660e01b8152600401602060405180830381865afa158015610fc4573d6000803e3d6000fd5b505050506040513d601f19601f82011682018060405250810190610fe89190611fc5565b6002546040517f69328dec0000000000000000000000000000000000000000000000000000000081526001600160a01b039182166004820152602481018590523060448201529192508216906369328dec906064016020604051808303816000875af115801561105c573d6000803e3d6000fd5b505050506040513d601f19601f820116820180604052508101906110809190611fac565b5060025460405183916001600160a01b03169030907f83aa598dd3e269af677698c6847b3ba594a67d286a771d01099aafa911a91b6490600090a46002805460ff60a01b191690556007546040516370a0823160e01b81523060048201526000916001600160a01b0316906370a0823190602401602060405180830381865afa158015611111573d6000803e3d6000fd5b505050506040513d601f19601f820116820180604052508101906111359190611fac565b905060006064600654836111499190612177565b61115490601e61214d565b61115e9190612015565b600754600f546040517fa9059cbb0000000000000000000000000000000000000000000000000000000081526001600160a01b03918216600482015260248101849052929350169063a9059cbb906044016020604051808303816000875af11580156111ce573d6000803e3d6000fd5b505050506040513d601f19601f820116820180604052508101906111f29190611fe2565b5050505050565b7ff0c57e16840df040f15088dc2f81fe391c3923bec73e23a9662efc9c229c6a00805468010000000000000000810460ff16159067ffffffffffffffff166000811580156112445750825b905060008267ffffffffffffffff1660011480156112615750303b155b90508115801561126f575080155b156112a6576040517ff92ee8a900000000000000000000000000000000000000000000000000000000815260040160405180910390fd5b845467ffffffffffffffff1916600117855583156112da57845468ff00000000000000001916680100000000000000001785555b336000806101000a8154816001600160a01b0302191690836001600160a01b031602179055508f60086000820151816000015560208201518160010160006101000a8154816001600160a01b0302191690836001600160a01b0316021790555060408201518160010160146101000a81548160ff0219169083151502179055506060820151816002015560808201518160030160006101000a8154816001600160a01b0302191690836001600160a01b0316021790555060a08201518160030160146101000a81548160ff0219169083151502179055509050508e600760006101000a8154816001600160a01b0302191690836001600160a01b03160217905550336000806101000a8154816001600160a01b0302191690836001600160a01b031602179055508d600160006101000a8154816001600160a01b0302191690836001600160a01b031602179055508b6005819055508a6004819055508c600260006101000a8154816001600160a01b0302191690836001600160a01b0316021790555089600c60006101000a8154816001600160a01b0302191690836001600160a01b0316021790555088600d60006101000a8154816001600160a01b0302191690836001600160a01b0316021790555087600360006101000a8154816001600160a01b0302191690836001600160a01b0316021790555086600f60006101000a8154816001600160a01b0302191690836001600160a01b0316021790555085601060006101000a8154816001600160a01b0302191690836001600160a01b03160217905550831561156b57845468ff000000000000000019168555604051600181527fc7f505b2f371ae2175ee4913f4499e1f2633a7b5936321eed1cdaeb6115181d29060200160405180910390a15b50505050505050505050505050505050565b6000546001600160a01b031633146115c85760405162461bcd60e51b815260206004820152600e60248201526d37b7363c903a34329037bbb732b960911b6044820152606401610704565b600e80547fffffffffffffffffffffffff0000000000000000000000000000000000000000166001600160a01b0392909216919091179055565b6000811515810361169e576000806000806000600c60009054906101000a90046001600160a01b03166001600160a01b031663feaf968c6040518163ffffffff1660e01b815260040160a060405180830381865afa158015611668573d6000803e3d6000fd5b505050506040513d601f19601f8201168201806040525081019061168c91906121a4565b509198506116f9975050505050505050565b6000806000806000600d60009054906101000a90046001600160a01b03166001600160a01b031663feaf968c6040518163ffffffff1660e01b815260040160a060405180830381865afa158015611668573d6000803e3d6000fd5b92915050565b6000806000806000806000600160009054906101000a90046001600160a01b03166001600160a01b031663026b1d5f6040518163ffffffff1660e01b8152600401602060405180830381865afa15801561175d573d6000803e3d6000fd5b505050506040513d601f19601f820116820180604052508101906117819190611fc5565b6040517fbf92857c0000000000000000000000000000000000000000000000000000000081526001600160a01b038a811660048301529192509082169063bf92857c9060240160c060405180830381865afa1580156117e4573d6000803e3d6000fd5b505050506040513d601f19601f8201168201806040525081019061180891906121f4565b949d939c50919a509850965090945092505050565b6000546001600160a01b031633146118685760405162461bcd60e51b815260206004820152600e60248201526d37b7363c903a34329037bbb732b960911b6044820152606401610704565b606461187383610bff565b106118c05760405162461bcd60e51b815260206004820152601160248201527f43616e206e6f74206c69717569646174650000000000000000000000000000006044820152606401610704565b600254600160a01b900460ff16156118da576118da610eb5565b6007546001600160a01b03166119886103e86118f68482612164565b611900908661214d565b61190a9190612015565b6007546040516370a0823160e01b81523060048201526001600160a01b03909116906370a0823190602401602060405180830381865afa158015611952573d6000803e3d6000fd5b505050506040513d601f19601f820116820180604052508101906119769190611fac565b600b546001600160a01b031684611ac6565b50600b54600e546001600160a01b039182169163095ea7b391166103e86119af8682612164565b6119b9908861214d565b6119c39190612015565b6040517fffffffff0000000000000000000000000000000000000000000000000000000060e085901b1681526001600160a01b03909216600483015260248201526044016020604051808303816000875af1158015611a26573d6000803e3d6000fd5b505050506040513d601f19601f82011682018060405250810190611a4a9190611fe2565b50505050565b611ac381604051602401611a6691815260200190565b60408051601f198184030181529190526020810180517bffffffffffffffffffffffffffffffffffffffffffffffffffffffff167ff82c50f100000000000000000000000000000000000000000000000000000000179052611c1a565b50565b600354600090611ae19083906001600160a01b031686611c23565b60408051610100810182526001600160a01b03848116825285811660208301908152610bb88385019081523360608501908152426080860190815260a086018c815260c087018c8152600060e0890190815260035499517fdb3e2198000000000000000000000000000000000000000000000000000000008152895189166004820152965188166024880152945162ffffff166044870152925186166064860152905160848501525160a48401525160c483015251821660e48201529192169063db3e219890610104016020604051808303816000875af1158015611bca573d6000803e3d6000fd5b505050506040513d601f19601f82011682018060405250810190611bee9190611fac565b915084821015611c1157600354611c119084906001600160a01b03166000611c23565b50949350505050565b611ac381611d65565b604080516001600160a01b038481166024830152604480830185905283518084039091018152606490920183526020820180517bffffffffffffffffffffffffffffffffffffffffffffffffffffffff167f095ea7b3000000000000000000000000000000000000000000000000000000001790529151600092839290871691611cad919061223e565b6000604051808303816000865af19150503d8060008114611cea576040519150601f19603f3d011682016040523d82523d6000602084013e611cef565b606091505b5091509150818015611d19575080511580611d19575080806020019051810190611d199190611fe2565b6111f25760405162461bcd60e51b815260206004820152600260248201527f53410000000000000000000000000000000000000000000000000000000000006044820152606401610704565b60006a636f6e736f6c652e6c6f679050600080835160208501845afa505050565b6001600160a01b0381168114611ac357600080fd5b8035611da681611d86565b919050565b8015158114611ac357600080fd5b8035611da681611dab565b60008060408385031215611dd757600080fd5b8235611de281611d86565b91506020830135611df281611dab565b809150509250929050565b600060208284031215611e0f57600080fd5b5035919050565b60008060008060008060008060008060008b8d03610200811215611e3957600080fd5b60c0811215611e4757600080fd5b5060405160c0810181811067ffffffffffffffff82111715611e7957634e487b7160e01b600052604160045260246000fd5b6040528c358152611e8c60208e01611d9b565b6020820152611e9d60408e01611db9565b604082015260608d01356060820152611eb860808e01611d9b565b6080820152611ec960a08e01611db9565b60a08201529a50611edc60c08d01611d9b565b9950611eea60e08d01611d9b565b9850611ef96101008d01611d9b565b97506101208c013596506101408c01359550611f186101608d01611d9b565b9450611f276101808d01611d9b565b9350611f366101a08d01611d9b565b9250611f456101c08d01611d9b565b9150611f546101e08d01611d9b565b90509295989b509295989b9093969950565b600060208284031215611f7857600080fd5b8135611f8381611d86565b9392505050565b60008060408385031215611f9d57600080fd5b50508035926020909101359150565b600060208284031215611fbe57600080fd5b5051919050565b600060208284031215611fd757600080fd5b8151611f8381611d86565b600060208284031215611ff457600080fd5b8151611f8381611dab565b634e487b7160e01b600052601160045260246000fd5b60008261203257634e487b7160e01b600052601260045260246000fd5b500490565b60006020828403121561204957600080fd5b815160ff81168114611f8357600080fd5b600181815b8085111561209557816000190482111561207b5761207b611fff565b8085161561208857918102915b93841c939080029061205f565b509250929050565b6000826120ac575060016116f9565b816120b9575060006116f9565b81600181146120cf57600281146120d9576120f5565b60019150506116f9565b60ff8411156120ea576120ea611fff565b50506001821b6116f9565b5060208310610133831016604e8410600b8410161715612118575081810a6116f9565b612122838361205a565b806000190482111561213657612136611fff565b029392505050565b6000611f8360ff84168361209d565b80820281158282048414176116f9576116f9611fff565b808201808211156116f9576116f9611fff565b818103818111156116f9576116f9611fff565b805169ffffffffffffffffffff81168114611da657600080fd5b600080600080600060a086880312156121bc57600080fd5b6121c58661218a565b94506020860151935060408601519250606086015191506121e86080870161218a565b90509295509295909350565b60008060008060008060c0878903121561220d57600080fd5b865195506020870151945060408701519350606087015192506080870151915060a087015190509295509295509295565b6000825160005b8181101561225f5760208186018101518583015201612245565b50600092019182525091905056fea26469706673582212208ddc1b23c6f7b487895e5a3972153252c437d7906e8f1db0ab70b053b025106664736f6c63430008180033",
  "linkReferences": {},
  "deployedLinkReferences": {}
}