{
  "_format": "hh-sol-artifact-1",
  "contractName": "CCFLLoan",
  "sourceName": "contracts/CCFLLoan.sol",
  "abi": [
    {
      "inputs": [],
      "stateMutability": "nonpayable",
      "type": "constructor"
    },
    {
      "inputs": [],
      "name": "InvalidInitialization",
      "type": "error"
    },
    {
      "inputs": [],
      "name": "NotInitializing",
      "type": "error"
    },
    {
      "anonymous": false,
      "inputs": [
        {
          "indexed": false,
          "internalType": "uint64",
          "name": "version",
          "type": "uint64"
        }
      ],
      "name": "Initialized",
      "type": "event"
    },
    {
      "anonymous": false,
      "inputs": [
        {
          "indexed": true,
          "internalType": "address",
          "name": "onBehalfOf",
          "type": "address"
        },
        {
          "indexed": true,
          "internalType": "address",
          "name": "_token",
          "type": "address"
        },
        {
          "indexed": true,
          "internalType": "uint256",
          "name": "_amount",
          "type": "uint256"
        }
      ],
      "name": "LiquiditySupplied",
      "type": "event"
    },
    {
      "anonymous": false,
      "inputs": [
        {
          "indexed": true,
          "internalType": "address",
          "name": "to",
          "type": "address"
        },
        {
          "indexed": true,
          "internalType": "address",
          "name": "_token",
          "type": "address"
        },
        {
          "indexed": true,
          "internalType": "uint256",
          "name": "_amount",
          "type": "uint256"
        }
      ],
      "name": "LiquidityWithdrawn",
      "type": "event"
    },
    {
      "anonymous": false,
      "inputs": [
        {
          "indexed": false,
          "internalType": "uint256",
          "name": "amount",
          "type": "uint256"
        },
        {
          "indexed": false,
          "internalType": "uint256",
          "name": "when",
          "type": "uint256"
        }
      ],
      "name": "Withdrawal",
      "type": "event"
    },
    {
      "inputs": [],
      "name": "LTV",
      "outputs": [
        {
          "internalType": "uint256",
          "name": "",
          "type": "uint256"
        }
      ],
      "stateMutability": "view",
      "type": "function"
    },
    {
      "inputs": [],
      "name": "aToken",
      "outputs": [
        {
          "internalType": "contract IERC20Standard",
          "name": "",
          "type": "address"
        }
      ],
      "stateMutability": "view",
      "type": "function"
    },
    {
      "inputs": [],
      "name": "aaveAddressProvider",
      "outputs": [
        {
          "internalType": "contract IPoolAddressesProvider",
          "name": "",
          "type": "address"
        }
      ],
      "stateMutability": "view",
      "type": "function"
    },
    {
      "inputs": [],
      "name": "ccfl",
      "outputs": [
        {
          "internalType": "address",
          "name": "",
          "type": "address"
        }
      ],
      "stateMutability": "view",
      "type": "function"
    },
    {
      "inputs": [],
      "name": "closeLoan",
      "outputs": [],
      "stateMutability": "nonpayable",
      "type": "function"
    },
    {
      "inputs": [],
      "name": "collateralAmount",
      "outputs": [
        {
          "internalType": "uint256",
          "name": "",
          "type": "uint256"
        }
      ],
      "stateMutability": "view",
      "type": "function"
    },
    {
      "inputs": [],
      "name": "collateralToken",
      "outputs": [
        {
          "internalType": "contract IERC20Standard",
          "name": "",
          "type": "address"
        }
      ],
      "stateMutability": "view",
      "type": "function"
    },
    {
      "inputs": [],
      "name": "factory",
      "outputs": [
        {
          "internalType": "contract IUniswapV3Factory",
          "name": "",
          "type": "address"
        }
      ],
      "stateMutability": "view",
      "type": "function"
    },
    {
      "inputs": [],
      "name": "feeTier",
      "outputs": [
        {
          "internalType": "uint24",
          "name": "",
          "type": "uint24"
        }
      ],
      "stateMutability": "view",
      "type": "function"
    },
    {
      "inputs": [
        {
          "internalType": "uint256",
          "name": "currentDebt",
          "type": "uint256"
        },
        {
          "internalType": "uint256",
          "name": "addCollateral",
          "type": "uint256"
        }
      ],
      "name": "getHealthFactor",
      "outputs": [
        {
          "internalType": "uint256",
          "name": "",
          "type": "uint256"
        }
      ],
      "stateMutability": "view",
      "type": "function"
    },
    {
      "inputs": [
        {
          "internalType": "contract IERC20Standard",
          "name": "_coin",
          "type": "address"
        },
        {
          "internalType": "bool",
          "name": "isPool",
          "type": "bool"
        }
      ],
      "name": "getLatestPrice",
      "outputs": [
        {
          "internalType": "uint256",
          "name": "",
          "type": "uint256"
        }
      ],
      "stateMutability": "view",
      "type": "function"
    },
    {
      "inputs": [],
      "name": "getLoanInfo",
      "outputs": [
        {
          "components": [
            {
              "internalType": "uint256",
              "name": "loanId",
              "type": "uint256"
            },
            {
              "internalType": "address",
              "name": "borrower",
              "type": "address"
            },
            {
              "internalType": "bool",
              "name": "isPaid",
              "type": "bool"
            },
            {
              "internalType": "uint256",
              "name": "amount",
              "type": "uint256"
            },
            {
              "internalType": "contract IERC20Standard",
              "name": "stableCoin",
              "type": "address"
            },
            {
              "internalType": "bool",
              "name": "isClosed",
              "type": "bool"
            }
          ],
          "internalType": "struct Loan",
          "name": "",
          "type": "tuple"
        }
      ],
      "stateMutability": "view",
      "type": "function"
    },
    {
      "inputs": [
        {
          "internalType": "address",
          "name": "user",
          "type": "address"
        }
      ],
      "name": "getUserAccountData",
      "outputs": [
        {
          "internalType": "uint256",
          "name": "totalCollateralBase",
          "type": "uint256"
        },
        {
          "internalType": "uint256",
          "name": "totalDebtBase",
          "type": "uint256"
        },
        {
          "internalType": "uint256",
          "name": "availableBorrowsBase",
          "type": "uint256"
        },
        {
          "internalType": "uint256",
          "name": "currentLiquidationThreshold",
          "type": "uint256"
        },
        {
          "internalType": "uint256",
          "name": "ltv",
          "type": "uint256"
        },
        {
          "internalType": "uint256",
          "name": "healthFactor",
          "type": "uint256"
        }
      ],
      "stateMutability": "view",
      "type": "function"
    },
    {
      "inputs": [],
      "name": "initLoan",
      "outputs": [
        {
          "internalType": "uint256",
          "name": "loanId",
          "type": "uint256"
        },
        {
          "internalType": "address",
          "name": "borrower",
          "type": "address"
        },
        {
          "internalType": "bool",
          "name": "isPaid",
          "type": "bool"
        },
        {
          "internalType": "uint256",
          "name": "amount",
          "type": "uint256"
        },
        {
          "internalType": "contract IERC20Standard",
          "name": "stableCoin",
          "type": "address"
        },
        {
          "internalType": "bool",
          "name": "isClosed",
          "type": "bool"
        }
      ],
      "stateMutability": "view",
      "type": "function"
    },
    {
      "inputs": [
        {
          "components": [
            {
              "internalType": "uint256",
              "name": "loanId",
              "type": "uint256"
            },
            {
              "internalType": "address",
              "name": "borrower",
              "type": "address"
            },
            {
              "internalType": "bool",
              "name": "isPaid",
              "type": "bool"
            },
            {
              "internalType": "uint256",
              "name": "amount",
              "type": "uint256"
            },
            {
              "internalType": "contract IERC20Standard",
              "name": "stableCoin",
              "type": "address"
            },
            {
              "internalType": "bool",
              "name": "isClosed",
              "type": "bool"
            }
          ],
          "internalType": "struct Loan",
          "name": "_loan",
          "type": "tuple"
        },
        {
          "internalType": "contract IERC20Standard",
          "name": "_collateralToken",
          "type": "address"
        },
        {
          "internalType": "contract IPoolAddressesProvider",
          "name": "_aaveAddressProvider",
          "type": "address"
        },
        {
          "internalType": "contract IERC20Standard",
          "name": "_aToken",
          "type": "address"
        },
        {
          "internalType": "uint256",
          "name": "_ltv",
          "type": "uint256"
        },
        {
          "internalType": "uint256",
          "name": "_threshold",
          "type": "uint256"
        },
        {
          "internalType": "contract AggregatorV3Interface",
          "name": "_priceFeed",
          "type": "address"
        },
        {
          "internalType": "contract AggregatorV3Interface",
          "name": "_pricePoolFeed",
          "type": "address"
        },
        {
          "internalType": "address",
          "name": "_platform",
          "type": "address"
        },
        {
          "internalType": "contract IWETH",
          "name": "_iWETH",
          "type": "address"
        }
      ],
      "name": "initialize",
      "outputs": [],
      "stateMutability": "nonpayable",
      "type": "function"
    },
    {
      "inputs": [],
      "name": "isStakeAave",
      "outputs": [
        {
          "internalType": "bool",
          "name": "",
          "type": "bool"
        }
      ],
      "stateMutability": "view",
      "type": "function"
    },
    {
      "inputs": [
        {
          "internalType": "uint256",
          "name": "_currentDebt",
          "type": "uint256"
        },
        {
          "internalType": "uint256",
          "name": "_percent",
          "type": "uint256"
        }
      ],
      "name": "liquidate",
      "outputs": [],
      "stateMutability": "nonpayable",
      "type": "function"
    },
    {
      "inputs": [],
      "name": "liquidationThreshold",
      "outputs": [
        {
          "internalType": "uint256",
          "name": "",
          "type": "uint256"
        }
      ],
      "stateMutability": "view",
      "type": "function"
    },
    {
      "inputs": [],
      "name": "owner",
      "outputs": [
        {
          "internalType": "address",
          "name": "",
          "type": "address"
        }
      ],
      "stateMutability": "view",
      "type": "function"
    },
    {
      "inputs": [],
      "name": "platform",
      "outputs": [
        {
          "internalType": "address",
          "name": "",
          "type": "address"
        }
      ],
      "stateMutability": "view",
      "type": "function"
    },
    {
      "inputs": [],
      "name": "priceFeed",
      "outputs": [
        {
          "internalType": "contract AggregatorV3Interface",
          "name": "",
          "type": "address"
        }
      ],
      "stateMutability": "view",
      "type": "function"
    },
    {
      "inputs": [],
      "name": "pricePoolFeed",
      "outputs": [
        {
          "internalType": "contract AggregatorV3Interface",
          "name": "",
          "type": "address"
        }
      ],
      "stateMutability": "view",
      "type": "function"
    },
    {
      "inputs": [
        {
          "internalType": "address",
          "name": "_ccfl",
          "type": "address"
        }
      ],
      "name": "setCCFL",
      "outputs": [],
      "stateMutability": "nonpayable",
      "type": "function"
    },
    {
      "inputs": [
        {
          "internalType": "contract ISwapRouter",
          "name": "_swapRouter",
          "type": "address"
        },
        {
          "internalType": "contract IUniswapV3Factory",
          "name": "_factory",
          "type": "address"
        }
      ],
      "name": "setSwapRouter",
      "outputs": [],
      "stateMutability": "nonpayable",
      "type": "function"
    },
    {
      "inputs": [],
      "name": "supplyLiquidity",
      "outputs": [],
      "stateMutability": "nonpayable",
      "type": "function"
    },
    {
      "inputs": [],
      "name": "swapRouter",
      "outputs": [
        {
          "internalType": "contract ISwapRouter",
          "name": "",
          "type": "address"
        }
      ],
      "stateMutability": "view",
      "type": "function"
    },
    {
      "inputs": [
        {
          "internalType": "uint256",
          "name": "amount",
          "type": "uint256"
        }
      ],
      "name": "updateCollateral",
      "outputs": [],
      "stateMutability": "nonpayable",
      "type": "function"
    },
    {
      "inputs": [],
      "name": "wETH",
      "outputs": [
        {
          "internalType": "contract IWETH",
          "name": "",
          "type": "address"
        }
      ],
      "stateMutability": "view",
      "type": "function"
    },
    {
      "inputs": [
        {
          "internalType": "address",
          "name": "_receiver",
          "type": "address"
        },
        {
          "internalType": "bool",
          "name": "_isETH",
          "type": "bool"
        }
      ],
      "name": "withdrawAllCollateral",
      "outputs": [],
      "stateMutability": "nonpayable",
      "type": "function"
    },
    {
      "inputs": [],
      "name": "withdrawLiquidity",
      "outputs": [],
      "stateMutability": "nonpayable",
      "type": "function"
    },
    {
      "stateMutability": "payable",
      "type": "receive"
    }
  ],
  "bytecode": "0x608060405234801561001057600080fd5b50612497806100206000396000f3fe6080604052600436106101d15760003560e01c80637ea382c1116100f7578063bf92857c11610095578063d296d1f111610064578063d296d1f114610693578063dc40e2d0146106b3578063f2428621146106d3578063f34757c2146106f357600080fd5b8063bf92857c146105e6578063c31c9c0714610633578063c45a015514610653578063cdaabe411461067357600080fd5b806392d09ceb116100d157806392d09ceb14610570578063a0c1f15e14610586578063b2016bd4146105a6578063b3bffeaa146105c657600080fd5b80637ea382c11461051b5780638ac1b775146105305780638da5cb5b1461055057600080fd5b80635825f5351161016f57806368dcad581161013e57806368dcad581461042c57806372f5d98a1461044c578063741bef1a146104765780637ce67d601461049657600080fd5b80635825f535146102db5780635d3e2fa1146102fb57806362965d8e146103f65780636721de261461040c57600080fd5b8063232fa733116101ab578063232fa7331461024a5780634031234c1461025f5780634bde38c8146102835780634d2c872a146102bb57600080fd5b806307a6bf69146101dd578063102cb82e146101f4578063112566031461021457600080fd5b366101d857005b600080fd5b3480156101e957600080fd5b506101f2610713565b005b34801561020057600080fd5b506101f261020f366004611f77565b610a05565b34801561022057600080fd5b5060025461023590600160a01b900460ff1681565b60405190151581526020015b60405180910390f35b34801561025657600080fd5b506101f2610d19565b34801561026b57600080fd5b5061027560055481565b604051908152602001610241565b34801561028f57600080fd5b506010546102a3906001600160a01b031681565b6040516001600160a01b039091168152602001610241565b3480156102c757600080fd5b506102756102d6366004611fb0565b610d90565b3480156102e757600080fd5b50600f546102a3906001600160a01b031681565b34801561030757600080fd5b506103976040805160c081018252600080825260208201819052918101829052606081018290526080810182905260a0810191909152506040805160c0810182526009548152600a546001600160a01b03808216602084015260ff600160a01b928390048116151594840194909452600b546060840152600c54908116608084015204909116151560a082015290565b6040516102419190600060c0820190508251825260208301516001600160a01b03808216602085015260408501511515604085015260608501516060850152806080860151166080850152505060a0830151151560a083015292915050565b34801561040257600080fd5b5061027560065481565b34801561041857600080fd5b506101f2610427366004611fd2565b610f5c565b34801561043857600080fd5b50600e546102a3906001600160a01b031681565b34801561045857600080fd5b50610462610bb881565b60405162ffffff9091168152602001610241565b34801561048257600080fd5b50600d546102a3906001600160a01b031681565b3480156104a257600080fd5b50600954600a54600b54600c546104db93926001600160a01b038082169360ff600160a01b938490048116949193928216929091041686565b604080519687526001600160a01b0395861660208801529315159386019390935260608501919091529091166080830152151560a082015260c001610241565b34801561052757600080fd5b506101f2610fc1565b34801561053c57600080fd5b506101f261054b366004611feb565b611305565b34801561055c57600080fd5b506000546102a3906001600160a01b031681565b34801561057c57600080fd5b5061027560075481565b34801561059257600080fd5b506002546102a3906001600160a01b031681565b3480156105b257600080fd5b506008546102a3906001600160a01b031681565b3480156105d257600080fd5b506102756105e1366004611f77565b61137f565b3480156105f257600080fd5b50610606610601366004611feb565b611476565b604080519687526020870195909552938501929092526060840152608083015260a082015260c001610241565b34801561063f57600080fd5b506003546102a3906001600160a01b031681565b34801561065f57600080fd5b506004546102a3906001600160a01b031681565b34801561067f57600080fd5b506001546102a3906001600160a01b031681565b34801561069f57600080fd5b506101f26106ae366004611fb0565b611594565b3480156106bf57600080fd5b506101f26106ce36600461200f565b6117c9565b3480156106df57600080fd5b506011546102a3906001600160a01b031681565b3480156106ff57600080fd5b506101f261070e36600461203d565b61184f565b6000546001600160a01b031633146107635760405162461bcd60e51b815260206004820152600e60248201526d37b7363c903a34329037bbb732b960911b60448201526064015b60405180910390fd5b6008546040516370a0823160e01b81523060048201526001600160a01b039091169060009082906370a0823190602401602060405180830381865afa1580156107b0573d6000803e3d6000fd5b505050506040513d601f19601f820116820180604052508101906107d4919061217b565b9050600081116108265760405162461bcd60e51b815260206004820152601060248201527f646f6e7420686176652061737365747300000000000000000000000000000000604482015260640161075a565b6000309050600080600160009054906101000a90046001600160a01b03166001600160a01b031663026b1d5f6040518163ffffffff1660e01b8152600401602060405180830381865afa158015610881573d6000803e3d6000fd5b505050506040513d601f19601f820116820180604052508101906108a59190612194565b60405163095ea7b360e01b81526001600160a01b038083166004830152602482018790529192509086169063095ea7b3906044016020604051808303816000875af11580156108f8573d6000803e3d6000fd5b505050506040513d601f19601f8201168201806040525081019061091c91906121b1565b506040517f617ba0370000000000000000000000000000000000000000000000000000000081526001600160a01b03868116600483015260248201869052848116604483015261ffff8416606483015282169063617ba03790608401600060405180830381600087803b15801561099257600080fd5b505af11580156109a6573d6000803e3d6000fd5b5050505083856001600160a01b0316846001600160a01b03167f51a2b359618aeb0bcc2a495a6667c0bdbfddc3bb27eb0dd5b8e3b33a4c15865f60405160405180910390a450506002805460ff60a01b1916600160a01b179055505050565b6000546001600160a01b03163314610a505760405162461bcd60e51b815260206004820152600e60248201526d37b7363c903a34329037bbb732b960911b604482015260640161075a565b600c54600160a01b900460ff161515600114610aae5760405162461bcd60e51b815260206004820152601260248201527f4c6f616e206973206e6f7420636c6f7365640000000000000000000000000000604482015260640161075a565b8015610c1c576011546008546040516370a0823160e01b81523060048201526001600160a01b0392831692632e1a7d4d9216906370a0823190602401602060405180830381865afa158015610b07573d6000803e3d6000fd5b505050506040513d601f19601f82011682018060405250810190610b2b919061217b565b6040518263ffffffff1660e01b8152600401610b4991815260200190565b600060405180830381600087803b158015610b6357600080fd5b505af1158015610b77573d6000803e3d6000fd5b50506008546040516370a0823160e01b81523060048201526001600160a01b0386811694506108fc9350909116906370a0823190602401602060405180830381865afa158015610bcb573d6000803e3d6000fd5b505050506040513d601f19601f82011682018060405250810190610bef919061217b565b6040518115909202916000818181858888f19350505050158015610c17573d6000803e3d6000fd5b505050565b6008546040516370a0823160e01b81523060048201526001600160a01b039091169063a9059cbb90849083906370a0823190602401602060405180830381865afa158015610c6e573d6000803e3d6000fd5b505050506040513d601f19601f82011682018060405250810190610c92919061217b565b6040517fffffffff0000000000000000000000000000000000000000000000000000000060e085901b1681526001600160a01b03909216600483015260248201526044016020604051808303816000875af1158015610cf5573d6000803e3d6000fd5b505050506040513d601f19601f82011682018060405250810190610c1791906121b1565b6000546001600160a01b03163314610d645760405162461bcd60e51b815260206004820152600e60248201526d37b7363c903a34329037bbb732b960911b604482015260640161075a565b600c805460ff60a01b1916600160a01b9081179091556002540460ff1615610d8e57610d8e610fc1565b565b600c546000908190610dac906001600160a01b0316600161137f565b905060008084600754610dbf91906121e4565b6008549091506001600160a01b03168115610e8d576000610de182600061137f565b9050816001600160a01b031663313ce5676040518163ffffffff1660e01b8152600401602060405180830381865afa158015610e21573d6000803e3d6000fd5b505050506040513d601f19601f82011682018060405250810190610e4591906121f7565b610e5090600a6122fe565b60055461271090610e61848761230d565b610e6b919061230d565b610e759190612324565b610e7f9190612324565b610e8990856121e4565b9350505b600c54604080517f313ce56700000000000000000000000000000000000000000000000000000000815290516000926001600160a01b03169163313ce5679160048083019260209291908290030181865afa158015610ef0573d6000803e3d6000fd5b505050506040513d601f19601f82011682018060405250810190610f1491906121f7565b610f1f90600a6122fe565b610f29868a61230d565b610f339190612324565b9050600081610f4386606461230d565b610f4d9190612324565b96505050505050505b92915050565b6000546001600160a01b03163314610fa75760405162461bcd60e51b815260206004820152600e60248201526d37b7363c903a34329037bbb732b960911b604482015260640161075a565b8060076000828254610fb991906121e4565b909155505050565b6000546001600160a01b0316331461100c5760405162461bcd60e51b815260206004820152600e60248201526d37b7363c903a34329037bbb732b960911b604482015260640161075a565b6002546040516370a0823160e01b81523060048201526000916001600160a01b0316906370a0823190602401602060405180830381865afa158015611055573d6000803e3d6000fd5b505050506040513d601f19601f82011682018060405250810190611079919061217b565b90506000600160009054906101000a90046001600160a01b03166001600160a01b031663026b1d5f6040518163ffffffff1660e01b8152600401602060405180830381865afa1580156110d0573d6000803e3d6000fd5b505050506040513d601f19601f820116820180604052508101906110f49190612194565b6002546040517f69328dec0000000000000000000000000000000000000000000000000000000081526001600160a01b039182166004820152602481018590523060448201529192508216906369328dec906064016020604051808303816000875af1158015611168573d6000803e3d6000fd5b505050506040513d601f19601f8201168201806040525081019061118c919061217b565b5060025460405183916001600160a01b03169030907f83aa598dd3e269af677698c6847b3ba594a67d286a771d01099aafa911a91b6490600090a46002805460ff60a01b191690556008546040516370a0823160e01b81523060048201526000916001600160a01b0316906370a0823190602401602060405180830381865afa15801561121d573d6000803e3d6000fd5b505050506040513d601f19601f82011682018060405250810190611241919061217b565b905060006064600754836112559190612346565b61126090601e61230d565b61126a9190612324565b6008546010546040517fa9059cbb0000000000000000000000000000000000000000000000000000000081526001600160a01b03918216600482015260248101849052929350169063a9059cbb906044016020604051808303816000875af11580156112da573d6000803e3d6000fd5b505050506040513d601f19601f820116820180604052508101906112fe91906121b1565b5050505050565b6000546001600160a01b031633146113505760405162461bcd60e51b815260206004820152600e60248201526d37b7363c903a34329037bbb732b960911b604482015260640161075a565b600f805473ffffffffffffffffffffffffffffffffffffffff19166001600160a01b0392909216919091179055565b6000811515810361141b576000806000806000600d60009054906101000a90046001600160a01b03166001600160a01b031663feaf968c6040518163ffffffff1660e01b815260040160a060405180830381865afa1580156113e5573d6000803e3d6000fd5b505050506040513d601f19601f820116820180604052508101906114099190612373565b50919850610f56975050505050505050565b6000806000806000600e60009054906101000a90046001600160a01b03166001600160a01b031663feaf968c6040518163ffffffff1660e01b815260040160a060405180830381865afa1580156113e5573d6000803e3d6000fd5b6000806000806000806000600160009054906101000a90046001600160a01b03166001600160a01b031663026b1d5f6040518163ffffffff1660e01b8152600401602060405180830381865afa1580156114d4573d6000803e3d6000fd5b505050506040513d601f19601f820116820180604052508101906114f89190612194565b6040517fbf92857c0000000000000000000000000000000000000000000000000000000081526001600160a01b038a811660048301529192509082169063bf92857c9060240160c060405180830381865afa15801561155b573d6000803e3d6000fd5b505050506040513d601f19601f8201168201806040525081019061157f91906123c3565b949d939c50919a509850965090945092505050565b6000546001600160a01b031633146115df5760405162461bcd60e51b815260206004820152600e60248201526d37b7363c903a34329037bbb732b960911b604482015260640161075a565b60646115ec836000610d90565b106116395760405162461bcd60e51b815260206004820152601160248201527f43616e206e6f74206c6971756964617465000000000000000000000000000000604482015260640161075a565b600254600160a01b900460ff161561165357611653610fc1565b6008546001600160a01b03166117016103e861166f84826121e4565b611679908661230d565b6116839190612324565b6008546040516370a0823160e01b81523060048201526001600160a01b03909116906370a0823190602401602060405180830381865afa1580156116cb573d6000803e3d6000fd5b505050506040513d601f19601f820116820180604052508101906116ef919061217b565b600c546001600160a01b031684611b85565b50600c54600f546001600160a01b039182169163095ea7b391166103e861172886826121e4565b611732908861230d565b61173c9190612324565b6040517fffffffff0000000000000000000000000000000000000000000000000000000060e085901b1681526001600160a01b03909216600483015260248201526044016020604051808303816000875af115801561179f573d6000803e3d6000fd5b505050506040513d601f19601f820116820180604052508101906117c391906121b1565b50505050565b6000546001600160a01b031633146118145760405162461bcd60e51b815260206004820152600e60248201526d37b7363c903a34329037bbb732b960911b604482015260640161075a565b600380546001600160a01b0393841673ffffffffffffffffffffffffffffffffffffffff199182161790915560048054929093169116179055565b7ff0c57e16840df040f15088dc2f81fe391c3923bec73e23a9662efc9c229c6a00805468010000000000000000810460ff16159067ffffffffffffffff1660008115801561189a5750825b905060008267ffffffffffffffff1660011480156118b75750303b155b9050811580156118c5575080155b156118fc576040517ff92ee8a900000000000000000000000000000000000000000000000000000000815260040160405180910390fd5b845467ffffffffffffffff19166001178555831561193057845468ff00000000000000001916680100000000000000001785555b336000806101000a8154816001600160a01b0302191690836001600160a01b031602179055508e60096000820151816000015560208201518160010160006101000a8154816001600160a01b0302191690836001600160a01b0316021790555060408201518160010160146101000a81548160ff0219169083151502179055506060820151816002015560808201518160030160006101000a8154816001600160a01b0302191690836001600160a01b0316021790555060a08201518160030160146101000a81548160ff0219169083151502179055509050508d600860006101000a8154816001600160a01b0302191690836001600160a01b031602179055508c600160006101000a8154816001600160a01b0302191690836001600160a01b031602179055508a600681905550896005819055508b600260006101000a8154816001600160a01b0302191690836001600160a01b0316021790555088600d60006101000a8154816001600160a01b0302191690836001600160a01b0316021790555087600e60006101000a8154816001600160a01b0302191690836001600160a01b0316021790555086601060006101000a8154816001600160a01b0302191690836001600160a01b0316021790555085601160006101000a8154816001600160a01b0302191690836001600160a01b031602179055508315611b7457845468ff000000000000000019168555604051600181527fc7f505b2f371ae2175ee4913f4499e1f2633a7b5936321eed1cdaeb6115181d29060200160405180910390a15b505050505050505050505050505050565b600354600090611ba09083906001600160a01b031686611e0d565b600480546040517f1698ee820000000000000000000000000000000000000000000000000000000081526001600160a01b03858116938201939093528583166024820152610bb8604482015260009290911690631698ee8290606401602060405180830381865afa158015611c19573d6000803e3d6000fd5b505050506040513d601f19601f82011682018060405250810190611c3d9190612194565b90506000816001600160a01b031663ddca3f436040518163ffffffff1660e01b8152600401602060405180830381865afa158015611c7f573d6000803e3d6000fd5b505050506040513d601f19601f82011682018060405250810190611ca3919061240d565b60408051610100810182526001600160a01b038088168252888116602083015262ffffff84168284015233606083015242608083015260a082018b905260c082018a9052600060e083015260035492517fdb3e2198000000000000000000000000000000000000000000000000000000008152939450909291169063db3e219890611d9c9084906004016000610100820190506001600160a01b0380845116835280602085015116602084015262ffffff60408501511660408401528060608501511660608401526080840151608084015260a084015160a084015260c084015160c08401528060e08501511660e08401525092915050565b6020604051808303816000875af1158015611dbb573d6000803e3d6000fd5b505050506040513d601f19601f82011682018060405250810190611ddf919061217b565b935086841015611e0257600354611e029086906001600160a01b03166000611e0d565b505050949350505050565b604080516001600160a01b038481166024830152604480830185905283518084039091018152606490920183526020820180517bffffffffffffffffffffffffffffffffffffffffffffffffffffffff1663095ea7b360e01b1790529151600092839290871691611e7e9190612432565b6000604051808303816000865af19150503d8060008114611ebb576040519150601f19603f3d011682016040523d82523d6000602084013e611ec0565b606091505b5091509150818015611eea575080511580611eea575080806020019051810190611eea91906121b1565b6112fe5760405162461bcd60e51b815260206004820152600260248201527f5341000000000000000000000000000000000000000000000000000000000000604482015260640161075a565b6001600160a01b0381168114611f4b57600080fd5b50565b8035611f5981611f36565b919050565b8015158114611f4b57600080fd5b8035611f5981611f5e565b60008060408385031215611f8a57600080fd5b8235611f9581611f36565b91506020830135611fa581611f5e565b809150509250929050565b60008060408385031215611fc357600080fd5b50508035926020909101359150565b600060208284031215611fe457600080fd5b5035919050565b600060208284031215611ffd57600080fd5b813561200881611f36565b9392505050565b6000806040838503121561202257600080fd5b823561202d81611f36565b91506020830135611fa581611f36565b6000806000806000806000806000808a8c036101e081121561205e57600080fd5b60c081121561206c57600080fd5b5060405160c0810181811067ffffffffffffffff8211171561209e57634e487b7160e01b600052604160045260246000fd5b6040528b3581526120b160208d01611f4e565b60208201526120c260408d01611f6c565b604082015260608c013560608201526120dd60808d01611f4e565b60808201526120ee60a08d01611f6c565b60a0820152995061210160c08c01611f4e565b985061210f60e08c01611f4e565b975061211e6101008c01611f4e565b96506101208b013595506101408b0135945061213d6101608c01611f4e565b935061214c6101808c01611f4e565b925061215b6101a08c01611f4e565b915061216a6101c08c01611f4e565b90509295989b9194979a5092959850565b60006020828403121561218d57600080fd5b5051919050565b6000602082840312156121a657600080fd5b815161200881611f36565b6000602082840312156121c357600080fd5b815161200881611f5e565b634e487b7160e01b600052601160045260246000fd5b80820180821115610f5657610f566121ce565b60006020828403121561220957600080fd5b815160ff8116811461200857600080fd5b600181815b8085111561225557816000190482111561223b5761223b6121ce565b8085161561224857918102915b93841c939080029061221f565b509250929050565b60008261226c57506001610f56565b8161227957506000610f56565b816001811461228f5760028114612299576122b5565b6001915050610f56565b60ff8411156122aa576122aa6121ce565b50506001821b610f56565b5060208310610133831016604e8410600b84101617156122d8575081810a610f56565b6122e2838361221a565b80600019048211156122f6576122f66121ce565b029392505050565b600061200860ff84168361225d565b8082028115828204841417610f5657610f566121ce565b60008261234157634e487b7160e01b600052601260045260246000fd5b500490565b81810381811115610f5657610f566121ce565b805169ffffffffffffffffffff81168114611f5957600080fd5b600080600080600060a0868803121561238b57600080fd5b61239486612359565b94506020860151935060408601519250606086015191506123b760808701612359565b90509295509295909350565b60008060008060008060c087890312156123dc57600080fd5b865195506020870151945060408701519350606087015192506080870151915060a087015190509295509295509295565b60006020828403121561241f57600080fd5b815162ffffff8116811461200857600080fd5b6000825160005b818110156124535760208186018101518583015201612439565b50600092019182525091905056fea2646970667358221220a8790d4127d641438a2a77a8c5d34bd8b51f6b4614041e309d188e18ef29a21464736f6c63430008180033",
  "linkReferences": {},
  "deployedLinkReferences": {}
}