{
  "_format": "hh-sol-artifact-1",
  "contractName": "CCFLLoan",
  "sourceName": "contracts/CCFLLoan.sol",
  "abi": [
    {
      "inputs": [],
      "stateMutability": "nonpayable",
      "type": "constructor"
    },
    {
      "inputs": [],
      "name": "InvalidInitialization",
      "type": "error"
    },
    {
      "inputs": [],
      "name": "NotInitializing",
      "type": "error"
    },
    {
      "anonymous": false,
      "inputs": [
        {
          "indexed": false,
          "internalType": "uint64",
          "name": "version",
          "type": "uint64"
        }
      ],
      "name": "Initialized",
      "type": "event"
    },
    {
      "anonymous": false,
      "inputs": [
        {
          "indexed": true,
          "internalType": "address",
          "name": "onBehalfOf",
          "type": "address"
        },
        {
          "indexed": true,
          "internalType": "address",
          "name": "_token",
          "type": "address"
        },
        {
          "indexed": true,
          "internalType": "uint256",
          "name": "_amount",
          "type": "uint256"
        }
      ],
      "name": "LiquiditySupplied",
      "type": "event"
    },
    {
      "anonymous": false,
      "inputs": [
        {
          "indexed": true,
          "internalType": "address",
          "name": "to",
          "type": "address"
        },
        {
          "indexed": true,
          "internalType": "address",
          "name": "_token",
          "type": "address"
        },
        {
          "indexed": true,
          "internalType": "uint256",
          "name": "_amount",
          "type": "uint256"
        }
      ],
      "name": "LiquidityWithdrawn",
      "type": "event"
    },
    {
      "anonymous": false,
      "inputs": [
        {
          "indexed": false,
          "internalType": "uint256",
          "name": "amount",
          "type": "uint256"
        },
        {
          "indexed": false,
          "internalType": "uint256",
          "name": "when",
          "type": "uint256"
        }
      ],
      "name": "Withdrawal",
      "type": "event"
    },
    {
      "inputs": [],
      "name": "LTV",
      "outputs": [
        {
          "internalType": "uint256",
          "name": "",
          "type": "uint256"
        }
      ],
      "stateMutability": "view",
      "type": "function"
    },
    {
      "inputs": [],
      "name": "aToken",
      "outputs": [
        {
          "internalType": "contract IERC20Standard",
          "name": "",
          "type": "address"
        }
      ],
      "stateMutability": "view",
      "type": "function"
    },
    {
      "inputs": [],
      "name": "aaveAddressProvider",
      "outputs": [
        {
          "internalType": "contract IPoolAddressesProvider",
          "name": "",
          "type": "address"
        }
      ],
      "stateMutability": "view",
      "type": "function"
    },
    {
      "inputs": [],
      "name": "ccfl",
      "outputs": [
        {
          "internalType": "address",
          "name": "",
          "type": "address"
        }
      ],
      "stateMutability": "view",
      "type": "function"
    },
    {
      "inputs": [],
      "name": "closeLoan",
      "outputs": [],
      "stateMutability": "nonpayable",
      "type": "function"
    },
    {
      "inputs": [],
      "name": "collateralAmount",
      "outputs": [
        {
          "internalType": "uint256",
          "name": "",
          "type": "uint256"
        }
      ],
      "stateMutability": "view",
      "type": "function"
    },
    {
      "inputs": [],
      "name": "collateralToken",
      "outputs": [
        {
          "internalType": "contract IERC20Standard",
          "name": "",
          "type": "address"
        }
      ],
      "stateMutability": "view",
      "type": "function"
    },
    {
      "inputs": [],
      "name": "feeTier",
      "outputs": [
        {
          "internalType": "uint24",
          "name": "",
          "type": "uint24"
        }
      ],
      "stateMutability": "view",
      "type": "function"
    },
    {
      "inputs": [
        {
          "internalType": "uint256",
          "name": "currentDebt",
          "type": "uint256"
        },
        {
          "internalType": "uint256",
          "name": "addCollateral",
          "type": "uint256"
        }
      ],
      "name": "getHealthFactor",
      "outputs": [
        {
          "internalType": "uint256",
          "name": "",
          "type": "uint256"
        }
      ],
      "stateMutability": "view",
      "type": "function"
    },
    {
      "inputs": [
        {
          "internalType": "contract IERC20Standard",
          "name": "_coin",
          "type": "address"
        },
        {
          "internalType": "bool",
          "name": "isPool",
          "type": "bool"
        }
      ],
      "name": "getLatestPrice",
      "outputs": [
        {
          "internalType": "uint256",
          "name": "",
          "type": "uint256"
        }
      ],
      "stateMutability": "view",
      "type": "function"
    },
    {
      "inputs": [],
      "name": "getLoanInfo",
      "outputs": [
        {
          "components": [
            {
              "internalType": "uint256",
              "name": "loanId",
              "type": "uint256"
            },
            {
              "internalType": "address",
              "name": "borrower",
              "type": "address"
            },
            {
              "internalType": "bool",
              "name": "isPaid",
              "type": "bool"
            },
            {
              "internalType": "uint256",
              "name": "amount",
              "type": "uint256"
            },
            {
              "internalType": "contract IERC20Standard",
              "name": "stableCoin",
              "type": "address"
            },
            {
              "internalType": "bool",
              "name": "isClosed",
              "type": "bool"
            }
          ],
          "internalType": "struct Loan",
          "name": "",
          "type": "tuple"
        }
      ],
      "stateMutability": "view",
      "type": "function"
    },
    {
      "inputs": [
        {
          "internalType": "address",
          "name": "user",
          "type": "address"
        }
      ],
      "name": "getUserAccountData",
      "outputs": [
        {
          "internalType": "uint256",
          "name": "totalCollateralBase",
          "type": "uint256"
        },
        {
          "internalType": "uint256",
          "name": "totalDebtBase",
          "type": "uint256"
        },
        {
          "internalType": "uint256",
          "name": "availableBorrowsBase",
          "type": "uint256"
        },
        {
          "internalType": "uint256",
          "name": "currentLiquidationThreshold",
          "type": "uint256"
        },
        {
          "internalType": "uint256",
          "name": "ltv",
          "type": "uint256"
        },
        {
          "internalType": "uint256",
          "name": "healthFactor",
          "type": "uint256"
        }
      ],
      "stateMutability": "view",
      "type": "function"
    },
    {
      "inputs": [],
      "name": "initLoan",
      "outputs": [
        {
          "internalType": "uint256",
          "name": "loanId",
          "type": "uint256"
        },
        {
          "internalType": "address",
          "name": "borrower",
          "type": "address"
        },
        {
          "internalType": "bool",
          "name": "isPaid",
          "type": "bool"
        },
        {
          "internalType": "uint256",
          "name": "amount",
          "type": "uint256"
        },
        {
          "internalType": "contract IERC20Standard",
          "name": "stableCoin",
          "type": "address"
        },
        {
          "internalType": "bool",
          "name": "isClosed",
          "type": "bool"
        }
      ],
      "stateMutability": "view",
      "type": "function"
    },
    {
      "inputs": [
        {
          "components": [
            {
              "internalType": "uint256",
              "name": "loanId",
              "type": "uint256"
            },
            {
              "internalType": "address",
              "name": "borrower",
              "type": "address"
            },
            {
              "internalType": "bool",
              "name": "isPaid",
              "type": "bool"
            },
            {
              "internalType": "uint256",
              "name": "amount",
              "type": "uint256"
            },
            {
              "internalType": "contract IERC20Standard",
              "name": "stableCoin",
              "type": "address"
            },
            {
              "internalType": "bool",
              "name": "isClosed",
              "type": "bool"
            }
          ],
          "internalType": "struct Loan",
          "name": "_loan",
          "type": "tuple"
        },
        {
          "internalType": "contract IERC20Standard",
          "name": "_collateralToken",
          "type": "address"
        },
        {
          "internalType": "contract IPoolAddressesProvider",
          "name": "_aaveAddressProvider",
          "type": "address"
        },
        {
          "internalType": "contract IERC20Standard",
          "name": "_aToken",
          "type": "address"
        },
        {
          "internalType": "uint256",
          "name": "_ltv",
          "type": "uint256"
        },
        {
          "internalType": "uint256",
          "name": "_threshold",
          "type": "uint256"
        },
        {
          "internalType": "contract AggregatorV3Interface",
          "name": "_priceFeed",
          "type": "address"
        },
        {
          "internalType": "contract AggregatorV3Interface",
          "name": "_pricePoolFeed",
          "type": "address"
        },
        {
          "internalType": "contract ISwapRouter",
          "name": "_swapRouter",
          "type": "address"
        },
        {
          "internalType": "address",
          "name": "_platform",
          "type": "address"
        },
        {
          "internalType": "contract IWETH",
          "name": "_iWETH",
          "type": "address"
        }
      ],
      "name": "initialize",
      "outputs": [],
      "stateMutability": "nonpayable",
      "type": "function"
    },
    {
      "inputs": [],
      "name": "isStakeAave",
      "outputs": [
        {
          "internalType": "bool",
          "name": "",
          "type": "bool"
        }
      ],
      "stateMutability": "view",
      "type": "function"
    },
    {
      "inputs": [
        {
          "internalType": "uint256",
          "name": "_currentDebt",
          "type": "uint256"
        },
        {
          "internalType": "uint256",
          "name": "_percent",
          "type": "uint256"
        }
      ],
      "name": "liquidate",
      "outputs": [],
      "stateMutability": "nonpayable",
      "type": "function"
    },
    {
      "inputs": [],
      "name": "liquidationThreshold",
      "outputs": [
        {
          "internalType": "uint256",
          "name": "",
          "type": "uint256"
        }
      ],
      "stateMutability": "view",
      "type": "function"
    },
    {
      "inputs": [],
      "name": "owner",
      "outputs": [
        {
          "internalType": "address",
          "name": "",
          "type": "address"
        }
      ],
      "stateMutability": "view",
      "type": "function"
    },
    {
      "inputs": [],
      "name": "platform",
      "outputs": [
        {
          "internalType": "address",
          "name": "",
          "type": "address"
        }
      ],
      "stateMutability": "view",
      "type": "function"
    },
    {
      "inputs": [],
      "name": "priceFeed",
      "outputs": [
        {
          "internalType": "contract AggregatorV3Interface",
          "name": "",
          "type": "address"
        }
      ],
      "stateMutability": "view",
      "type": "function"
    },
    {
      "inputs": [],
      "name": "pricePoolFeed",
      "outputs": [
        {
          "internalType": "contract AggregatorV3Interface",
          "name": "",
          "type": "address"
        }
      ],
      "stateMutability": "view",
      "type": "function"
    },
    {
      "inputs": [
        {
          "internalType": "address",
          "name": "_ccfl",
          "type": "address"
        }
      ],
      "name": "setCCFL",
      "outputs": [],
      "stateMutability": "nonpayable",
      "type": "function"
    },
    {
      "inputs": [],
      "name": "supplyLiquidity",
      "outputs": [],
      "stateMutability": "nonpayable",
      "type": "function"
    },
    {
      "inputs": [],
      "name": "swapRouter",
      "outputs": [
        {
          "internalType": "contract ISwapRouter",
          "name": "",
          "type": "address"
        }
      ],
      "stateMutability": "view",
      "type": "function"
    },
    {
      "inputs": [
        {
          "internalType": "uint256",
          "name": "amount",
          "type": "uint256"
        }
      ],
      "name": "updateCollateral",
      "outputs": [],
      "stateMutability": "nonpayable",
      "type": "function"
    },
    {
      "inputs": [],
      "name": "wETH",
      "outputs": [
        {
          "internalType": "contract IWETH",
          "name": "",
          "type": "address"
        }
      ],
      "stateMutability": "view",
      "type": "function"
    },
    {
      "inputs": [
        {
          "internalType": "address",
          "name": "_receiver",
          "type": "address"
        },
        {
          "internalType": "bool",
          "name": "_isETH",
          "type": "bool"
        }
      ],
      "name": "withdrawAllCollateral",
      "outputs": [],
      "stateMutability": "nonpayable",
      "type": "function"
    },
    {
      "inputs": [],
      "name": "withdrawLiquidity",
      "outputs": [],
      "stateMutability": "nonpayable",
      "type": "function"
    },
    {
      "stateMutability": "payable",
      "type": "receive"
    }
  ],
  "bytecode": "0x608060405234801561001057600080fd5b50612242806100206000396000f3fe6080604052600436106101bb5760003560e01c80637ce67d60116100ec578063b2016bd41161008a578063c31c9c0711610064578063c31c9c071461063d578063cdaabe411461065d578063d296d1f11461067d578063f24286211461069d57600080fd5b8063b2016bd4146105b0578063b3bffeaa146105d0578063bf92857c146105f057600080fd5b80638ac1b775116100c65780638ac1b7751461053a5780638da5cb5b1461055a57806392d09ceb1461057a578063a0c1f15e1461059057600080fd5b80637ce67d60146104805780637ea382c11461050557806383f8964e1461051a57600080fd5b80635825f535116101595780636721de26116101335780636721de26146103f657806368dcad581461041657806372f5d98a14610436578063741bef1a1461046057600080fd5b80635825f535146102c55780635d3e2fa1146102e557806362965d8e146103e057600080fd5b8063232fa73311610195578063232fa733146102345780634031234c146102495780634bde38c81461026d5780634d2c872a146102a557600080fd5b806307a6bf69146101c7578063102cb82e146101de57806311256603146101fe57600080fd5b366101c257005b600080fd5b3480156101d357600080fd5b506101dc6106bd565b005b3480156101ea57600080fd5b506101dc6101f9366004611d63565b610939565b34801561020a57600080fd5b5060025461021f90600160a01b900460ff1681565b60405190151581526020015b60405180910390f35b34801561024057600080fd5b506101dc610c4d565b34801561025557600080fd5b5061025f60045481565b60405190815260200161022b565b34801561027957600080fd5b50600f5461028d906001600160a01b031681565b6040516001600160a01b03909116815260200161022b565b3480156102b157600080fd5b5061025f6102c0366004611d9c565b610cc4565b3480156102d157600080fd5b50600e5461028d906001600160a01b031681565b3480156102f157600080fd5b506103816040805160c081018252600080825260208201819052918101829052606081018290526080810182905260a0810191909152506040805160c08101825260085481526009546001600160a01b03808216602084015260ff600160a01b928390048116151594840194909452600a546060840152600b54908116608084015204909116151560a082015290565b60405161022b9190600060c0820190508251825260208301516001600160a01b03808216602085015260408501511515604085015260608501516060850152806080860151166080850152505060a0830151151560a083015292915050565b3480156103ec57600080fd5b5061025f60055481565b34801561040257600080fd5b506101dc610411366004611dbe565b610e90565b34801561042257600080fd5b50600d5461028d906001600160a01b031681565b34801561044257600080fd5b5061044c610bb881565b60405162ffffff909116815260200161022b565b34801561046c57600080fd5b50600c5461028d906001600160a01b031681565b34801561048c57600080fd5b50600854600954600a54600b546104c593926001600160a01b038082169360ff600160a01b938490048116949193928216929091041686565b604080519687526001600160a01b0395861660208801529315159386019390935260608501919091529091166080830152151560a082015260c00161022b565b34801561051157600080fd5b506101dc610ef5565b34801561052657600080fd5b506101dc610535366004611dd7565b611239565b34801561054657600080fd5b506101dc610555366004611f27565b6115bd565b34801561056657600080fd5b5060005461028d906001600160a01b031681565b34801561058657600080fd5b5061025f60065481565b34801561059c57600080fd5b5060025461028d906001600160a01b031681565b3480156105bc57600080fd5b5060075461028d906001600160a01b031681565b3480156105dc57600080fd5b5061025f6105eb366004611d63565b611642565b3480156105fc57600080fd5b5061061061060b366004611f27565b611739565b604080519687526020870195909552938501929092526060840152608083015260a082015260c00161022b565b34801561064957600080fd5b5060035461028d906001600160a01b031681565b34801561066957600080fd5b5060015461028d906001600160a01b031681565b34801561068957600080fd5b506101dc610698366004611d9c565b611857565b3480156106a957600080fd5b5060105461028d906001600160a01b031681565b6000546001600160a01b0316331461070d5760405162461bcd60e51b815260206004820152600e60248201526d37b7363c903a34329037bbb732b960911b60448201526064015b60405180910390fd5b6007546040516370a0823160e01b81523060048201526001600160a01b039091169060009082906370a0823190602401602060405180830381865afa15801561075a573d6000803e3d6000fd5b505050506040513d601f19601f8201168201806040525081019061077e9190611f4b565b90506000309050600080600160009054906101000a90046001600160a01b03166001600160a01b031663026b1d5f6040518163ffffffff1660e01b8152600401602060405180830381865afa1580156107db573d6000803e3d6000fd5b505050506040513d601f19601f820116820180604052508101906107ff9190611f64565b9050600084116108515760405162461bcd60e51b815260206004820152601260248201527f646f206e6f7420686176652061737365747300000000000000000000000000006044820152606401610704565b6040517f617ba0370000000000000000000000000000000000000000000000000000000081526001600160a01b03868116600483015260248201869052848116604483015261ffff8416606483015282169063617ba03790608401600060405180830381600087803b1580156108c657600080fd5b505af11580156108da573d6000803e3d6000fd5b5050505083856001600160a01b0316846001600160a01b03167f51a2b359618aeb0bcc2a495a6667c0bdbfddc3bb27eb0dd5b8e3b33a4c15865f60405160405180910390a450506002805460ff60a01b1916600160a01b179055505050565b6000546001600160a01b031633146109845760405162461bcd60e51b815260206004820152600e60248201526d37b7363c903a34329037bbb732b960911b6044820152606401610704565b600b54600160a01b900460ff1615156001146109e25760405162461bcd60e51b815260206004820152601260248201527f4c6f616e206973206e6f7420636c6f73656400000000000000000000000000006044820152606401610704565b8015610b50576010546007546040516370a0823160e01b81523060048201526001600160a01b0392831692632e1a7d4d9216906370a0823190602401602060405180830381865afa158015610a3b573d6000803e3d6000fd5b505050506040513d601f19601f82011682018060405250810190610a5f9190611f4b565b6040518263ffffffff1660e01b8152600401610a7d91815260200190565b600060405180830381600087803b158015610a9757600080fd5b505af1158015610aab573d6000803e3d6000fd5b50506007546040516370a0823160e01b81523060048201526001600160a01b0386811694506108fc9350909116906370a0823190602401602060405180830381865afa158015610aff573d6000803e3d6000fd5b505050506040513d601f19601f82011682018060405250810190610b239190611f4b565b6040518115909202916000818181858888f19350505050158015610b4b573d6000803e3d6000fd5b505050565b6007546040516370a0823160e01b81523060048201526001600160a01b039091169063a9059cbb90849083906370a0823190602401602060405180830381865afa158015610ba2573d6000803e3d6000fd5b505050506040513d601f19601f82011682018060405250810190610bc69190611f4b565b6040517fffffffff0000000000000000000000000000000000000000000000000000000060e085901b1681526001600160a01b03909216600483015260248201526044016020604051808303816000875af1158015610c29573d6000803e3d6000fd5b505050506040513d601f19601f82011682018060405250810190610b4b9190611f81565b6000546001600160a01b03163314610c985760405162461bcd60e51b815260206004820152600e60248201526d37b7363c903a34329037bbb732b960911b6044820152606401610704565b600b805460ff60a01b1916600160a01b9081179091556002540460ff1615610cc257610cc2610ef5565b565b600b546000908190610ce0906001600160a01b03166001611642565b905060008084600654610cf39190611fb4565b6007549091506001600160a01b03168115610dc1576000610d15826000611642565b9050816001600160a01b031663313ce5676040518163ffffffff1660e01b8152600401602060405180830381865afa158015610d55573d6000803e3d6000fd5b505050506040513d601f19601f82011682018060405250810190610d799190611fc7565b610d8490600a6120ce565b60045461271090610d9584876120dd565b610d9f91906120dd565b610da991906120f4565b610db391906120f4565b610dbd9085611fb4565b9350505b600b54604080517f313ce56700000000000000000000000000000000000000000000000000000000815290516000926001600160a01b03169163313ce5679160048083019260209291908290030181865afa158015610e24573d6000803e3d6000fd5b505050506040513d601f19601f82011682018060405250810190610e489190611fc7565b610e5390600a6120ce565b610e5d868a6120dd565b610e6791906120f4565b9050600081610e778660646120dd565b610e8191906120f4565b96505050505050505b92915050565b6000546001600160a01b03163314610edb5760405162461bcd60e51b815260206004820152600e60248201526d37b7363c903a34329037bbb732b960911b6044820152606401610704565b8060066000828254610eed9190611fb4565b909155505050565b6000546001600160a01b03163314610f405760405162461bcd60e51b815260206004820152600e60248201526d37b7363c903a34329037bbb732b960911b6044820152606401610704565b6002546040516370a0823160e01b81523060048201526000916001600160a01b0316906370a0823190602401602060405180830381865afa158015610f89573d6000803e3d6000fd5b505050506040513d601f19601f82011682018060405250810190610fad9190611f4b565b90506000600160009054906101000a90046001600160a01b03166001600160a01b031663026b1d5f6040518163ffffffff1660e01b8152600401602060405180830381865afa158015611004573d6000803e3d6000fd5b505050506040513d601f19601f820116820180604052508101906110289190611f64565b6002546040517f69328dec0000000000000000000000000000000000000000000000000000000081526001600160a01b039182166004820152602481018590523060448201529192508216906369328dec906064016020604051808303816000875af115801561109c573d6000803e3d6000fd5b505050506040513d601f19601f820116820180604052508101906110c09190611f4b565b5060025460405183916001600160a01b03169030907f83aa598dd3e269af677698c6847b3ba594a67d286a771d01099aafa911a91b6490600090a46002805460ff60a01b191690556007546040516370a0823160e01b81523060048201526000916001600160a01b0316906370a0823190602401602060405180830381865afa158015611151573d6000803e3d6000fd5b505050506040513d601f19601f820116820180604052508101906111759190611f4b565b905060006064600654836111899190612116565b61119490601e6120dd565b61119e91906120f4565b600754600f546040517fa9059cbb0000000000000000000000000000000000000000000000000000000081526001600160a01b03918216600482015260248101849052929350169063a9059cbb906044016020604051808303816000875af115801561120e573d6000803e3d6000fd5b505050506040513d601f19601f820116820180604052508101906112329190611f81565b5050505050565b7ff0c57e16840df040f15088dc2f81fe391c3923bec73e23a9662efc9c229c6a00805468010000000000000000810460ff16159067ffffffffffffffff166000811580156112845750825b905060008267ffffffffffffffff1660011480156112a15750303b155b9050811580156112af575080155b156112e6576040517ff92ee8a900000000000000000000000000000000000000000000000000000000815260040160405180910390fd5b845467ffffffffffffffff19166001178555831561131a57845468ff00000000000000001916680100000000000000001785555b336000806101000a8154816001600160a01b0302191690836001600160a01b031602179055508f60086000820151816000015560208201518160010160006101000a8154816001600160a01b0302191690836001600160a01b0316021790555060408201518160010160146101000a81548160ff0219169083151502179055506060820151816002015560808201518160030160006101000a8154816001600160a01b0302191690836001600160a01b0316021790555060a08201518160030160146101000a81548160ff0219169083151502179055509050508e600760006101000a8154816001600160a01b0302191690836001600160a01b03160217905550336000806101000a8154816001600160a01b0302191690836001600160a01b031602179055508d600160006101000a8154816001600160a01b0302191690836001600160a01b031602179055508b6005819055508a6004819055508c600260006101000a8154816001600160a01b0302191690836001600160a01b0316021790555089600c60006101000a8154816001600160a01b0302191690836001600160a01b0316021790555088600d60006101000a8154816001600160a01b0302191690836001600160a01b0316021790555087600360006101000a8154816001600160a01b0302191690836001600160a01b0316021790555086600f60006101000a8154816001600160a01b0302191690836001600160a01b0316021790555085601060006101000a8154816001600160a01b0302191690836001600160a01b0316021790555083156115ab57845468ff000000000000000019168555604051600181527fc7f505b2f371ae2175ee4913f4499e1f2633a7b5936321eed1cdaeb6115181d29060200160405180910390a15b50505050505050505050505050505050565b6000546001600160a01b031633146116085760405162461bcd60e51b815260206004820152600e60248201526d37b7363c903a34329037bbb732b960911b6044820152606401610704565b600e80547fffffffffffffffffffffffff0000000000000000000000000000000000000000166001600160a01b0392909216919091179055565b600081151581036116de576000806000806000600c60009054906101000a90046001600160a01b03166001600160a01b031663feaf968c6040518163ffffffff1660e01b815260040160a060405180830381865afa1580156116a8573d6000803e3d6000fd5b505050506040513d601f19601f820116820180604052508101906116cc9190612143565b50919850610e8a975050505050505050565b6000806000806000600d60009054906101000a90046001600160a01b03166001600160a01b031663feaf968c6040518163ffffffff1660e01b815260040160a060405180830381865afa1580156116a8573d6000803e3d6000fd5b6000806000806000806000600160009054906101000a90046001600160a01b03166001600160a01b031663026b1d5f6040518163ffffffff1660e01b8152600401602060405180830381865afa158015611797573d6000803e3d6000fd5b505050506040513d601f19601f820116820180604052508101906117bb9190611f64565b6040517fbf92857c0000000000000000000000000000000000000000000000000000000081526001600160a01b038a811660048301529192509082169063bf92857c9060240160c060405180830381865afa15801561181e573d6000803e3d6000fd5b505050506040513d601f19601f820116820180604052508101906118429190612193565b949d939c50919a509850965090945092505050565b6000546001600160a01b031633146118a25760405162461bcd60e51b815260206004820152600e60248201526d37b7363c903a34329037bbb732b960911b6044820152606401610704565b60646118af836000610cc4565b106118fc5760405162461bcd60e51b815260206004820152601160248201527f43616e206e6f74206c69717569646174650000000000000000000000000000006044820152606401610704565b600254600160a01b900460ff161561191657611916610ef5565b6007546001600160a01b03166119c46103e86119328482611fb4565b61193c90866120dd565b61194691906120f4565b6007546040516370a0823160e01b81523060048201526001600160a01b03909116906370a0823190602401602060405180830381865afa15801561198e573d6000803e3d6000fd5b505050506040513d601f19601f820116820180604052508101906119b29190611f4b565b600b546001600160a01b031684611a8c565b50600b54600e546001600160a01b039182169163095ea7b391166103e86119eb8682611fb4565b6119f590886120dd565b6119ff91906120f4565b6040517fffffffff0000000000000000000000000000000000000000000000000000000060e085901b1681526001600160a01b03909216600483015260248201526044016020604051808303816000875af1158015611a62573d6000803e3d6000fd5b505050506040513d601f19601f82011682018060405250810190611a869190611f81565b50505050565b600354600090611aa79083906001600160a01b031686611be0565b60408051610100810182526001600160a01b03848116825285811660208301908152610bb88385019081523360608501908152426080860190815260a086018c815260c087018c8152600060e0890190815260035499517fdb3e2198000000000000000000000000000000000000000000000000000000008152895189166004820152965188166024880152945162ffffff166044870152925186166064860152905160848501525160a48401525160c483015251821660e48201529192169063db3e219890610104016020604051808303816000875af1158015611b90573d6000803e3d6000fd5b505050506040513d601f19601f82011682018060405250810190611bb49190611f4b565b915084821015611bd757600354611bd79084906001600160a01b03166000611be0565b50949350505050565b604080516001600160a01b038481166024830152604480830185905283518084039091018152606490920183526020820180517bffffffffffffffffffffffffffffffffffffffffffffffffffffffff167f095ea7b3000000000000000000000000000000000000000000000000000000001790529151600092839290871691611c6a91906121dd565b6000604051808303816000865af19150503d8060008114611ca7576040519150601f19603f3d011682016040523d82523d6000602084013e611cac565b606091505b5091509150818015611cd6575080511580611cd6575080806020019051810190611cd69190611f81565b6112325760405162461bcd60e51b815260206004820152600260248201527f53410000000000000000000000000000000000000000000000000000000000006044820152606401610704565b6001600160a01b0381168114611d3757600080fd5b50565b8035611d4581611d22565b919050565b8015158114611d3757600080fd5b8035611d4581611d4a565b60008060408385031215611d7657600080fd5b8235611d8181611d22565b91506020830135611d9181611d4a565b809150509250929050565b60008060408385031215611daf57600080fd5b50508035926020909101359150565b600060208284031215611dd057600080fd5b5035919050565b60008060008060008060008060008060008b8d03610200811215611dfa57600080fd5b60c0811215611e0857600080fd5b5060405160c0810181811067ffffffffffffffff82111715611e3a57634e487b7160e01b600052604160045260246000fd5b6040528c358152611e4d60208e01611d3a565b6020820152611e5e60408e01611d58565b604082015260608d01356060820152611e7960808e01611d3a565b6080820152611e8a60a08e01611d58565b60a08201529a50611e9d60c08d01611d3a565b9950611eab60e08d01611d3a565b9850611eba6101008d01611d3a565b97506101208c013596506101408c01359550611ed96101608d01611d3a565b9450611ee86101808d01611d3a565b9350611ef76101a08d01611d3a565b9250611f066101c08d01611d3a565b9150611f156101e08d01611d3a565b90509295989b509295989b9093969950565b600060208284031215611f3957600080fd5b8135611f4481611d22565b9392505050565b600060208284031215611f5d57600080fd5b5051919050565b600060208284031215611f7657600080fd5b8151611f4481611d22565b600060208284031215611f9357600080fd5b8151611f4481611d4a565b634e487b7160e01b600052601160045260246000fd5b80820180821115610e8a57610e8a611f9e565b600060208284031215611fd957600080fd5b815160ff81168114611f4457600080fd5b600181815b8085111561202557816000190482111561200b5761200b611f9e565b8085161561201857918102915b93841c9390800290611fef565b509250929050565b60008261203c57506001610e8a565b8161204957506000610e8a565b816001811461205f576002811461206957612085565b6001915050610e8a565b60ff84111561207a5761207a611f9e565b50506001821b610e8a565b5060208310610133831016604e8410600b84101617156120a8575081810a610e8a565b6120b28383611fea565b80600019048211156120c6576120c6611f9e565b029392505050565b6000611f4460ff84168361202d565b8082028115828204841417610e8a57610e8a611f9e565b60008261211157634e487b7160e01b600052601260045260246000fd5b500490565b81810381811115610e8a57610e8a611f9e565b805169ffffffffffffffffffff81168114611d4557600080fd5b600080600080600060a0868803121561215b57600080fd5b61216486612129565b945060208601519350604086015192506060860151915061218760808701612129565b90509295509295909350565b60008060008060008060c087890312156121ac57600080fd5b865195506020870151945060408701519350606087015192506080870151915060a087015190509295509295509295565b6000825160005b818110156121fe57602081860181015185830152016121e4565b50600092019182525091905056fea26469706673582212202cc2867a771f309266a841c58b669d0e0018a85fe72d8523ff9dc88368e42b9a64736f6c63430008180033",
  "linkReferences": {},
  "deployedLinkReferences": {}
}