{
  "_format": "hh-sol-artifact-1",
  "contractName": "CCFLConfig",
  "sourceName": "contracts/CCFLConfig.sol",
  "abi": [
    {
      "inputs": [],
      "name": "InvalidInitialization",
      "type": "error"
    },
    {
      "inputs": [],
      "name": "NotInitializing",
      "type": "error"
    },
    {
      "anonymous": false,
      "inputs": [
        {
          "indexed": false,
          "internalType": "uint64",
          "name": "version",
          "type": "uint64"
        }
      ],
      "name": "Initialized",
      "type": "event"
    },
    {
      "inputs": [],
      "name": "aaveAddressProvider",
      "outputs": [
        {
          "internalType": "contract IPoolAddressesProvider",
          "name": "",
          "type": "address"
        }
      ],
      "stateMutability": "view",
      "type": "function"
    },
    {
      "inputs": [],
      "name": "ccflLoan",
      "outputs": [
        {
          "internalType": "contract ICCFLLoan",
          "name": "",
          "type": "address"
        }
      ],
      "stateMutability": "view",
      "type": "function"
    },
    {
      "inputs": [
        {
          "internalType": "contract IERC20Standard",
          "name": "",
          "type": "address"
        },
        {
          "internalType": "contract IERC20Standard",
          "name": "",
          "type": "address"
        }
      ],
      "name": "collateralToStableCoinFee",
      "outputs": [
        {
          "internalType": "uint24",
          "name": "",
          "type": "uint24"
        }
      ],
      "stateMutability": "view",
      "type": "function"
    },
    {
      "inputs": [],
      "name": "earnBorrower",
      "outputs": [
        {
          "internalType": "uint256",
          "name": "",
          "type": "uint256"
        }
      ],
      "stateMutability": "view",
      "type": "function"
    },
    {
      "inputs": [],
      "name": "earnLender",
      "outputs": [
        {
          "internalType": "uint256",
          "name": "",
          "type": "uint256"
        }
      ],
      "stateMutability": "view",
      "type": "function"
    },
    {
      "inputs": [],
      "name": "earnPlatform",
      "outputs": [
        {
          "internalType": "uint256",
          "name": "",
          "type": "uint256"
        }
      ],
      "stateMutability": "view",
      "type": "function"
    },
    {
      "inputs": [],
      "name": "factory",
      "outputs": [
        {
          "internalType": "contract IUniswapV3Factory",
          "name": "",
          "type": "address"
        }
      ],
      "stateMutability": "view",
      "type": "function"
    },
    {
      "inputs": [],
      "name": "getAaveProvider",
      "outputs": [
        {
          "internalType": "contract IPoolAddressesProvider",
          "name": "",
          "type": "address"
        }
      ],
      "stateMutability": "view",
      "type": "function"
    },
    {
      "inputs": [],
      "name": "getCCFLLoan",
      "outputs": [
        {
          "internalType": "contract ICCFLLoan",
          "name": "",
          "type": "address"
        }
      ],
      "stateMutability": "view",
      "type": "function"
    },
    {
      "inputs": [
        {
          "internalType": "contract IERC20Standard",
          "name": "_collateral",
          "type": "address"
        },
        {
          "internalType": "contract IERC20Standard",
          "name": "_stable",
          "type": "address"
        }
      ],
      "name": "getCollateralToStableFee",
      "outputs": [
        {
          "internalType": "uint24",
          "name": "",
          "type": "uint24"
        }
      ],
      "stateMutability": "view",
      "type": "function"
    },
    {
      "inputs": [],
      "name": "getEarnShare",
      "outputs": [
        {
          "internalType": "uint256",
          "name": "",
          "type": "uint256"
        },
        {
          "internalType": "uint256",
          "name": "",
          "type": "uint256"
        },
        {
          "internalType": "uint256",
          "name": "",
          "type": "uint256"
        }
      ],
      "stateMutability": "view",
      "type": "function"
    },
    {
      "inputs": [],
      "name": "getEnableETHNative",
      "outputs": [
        {
          "internalType": "bool",
          "name": "",
          "type": "bool"
        }
      ],
      "stateMutability": "view",
      "type": "function"
    },
    {
      "inputs": [],
      "name": "getPenalty",
      "outputs": [
        {
          "internalType": "uint256",
          "name": "",
          "type": "uint256"
        },
        {
          "internalType": "uint256",
          "name": "",
          "type": "uint256"
        },
        {
          "internalType": "uint256",
          "name": "",
          "type": "uint256"
        }
      ],
      "stateMutability": "view",
      "type": "function"
    },
    {
      "inputs": [],
      "name": "getPlatformAddress",
      "outputs": [
        {
          "internalType": "address",
          "name": "",
          "type": "address"
        },
        {
          "internalType": "address",
          "name": "",
          "type": "address"
        }
      ],
      "stateMutability": "view",
      "type": "function"
    },
    {
      "inputs": [],
      "name": "getSwapRouter",
      "outputs": [
        {
          "internalType": "contract IV3SwapRouter",
          "name": "",
          "type": "address"
        },
        {
          "internalType": "contract IUniswapV3Factory",
          "name": "",
          "type": "address"
        },
        {
          "internalType": "contract IQuoterV2",
          "name": "",
          "type": "address"
        }
      ],
      "stateMutability": "view",
      "type": "function"
    },
    {
      "inputs": [],
      "name": "getThreshold",
      "outputs": [
        {
          "internalType": "uint256",
          "name": "",
          "type": "uint256"
        },
        {
          "internalType": "uint256",
          "name": "",
          "type": "uint256"
        }
      ],
      "stateMutability": "view",
      "type": "function"
    },
    {
      "inputs": [],
      "name": "getWETH",
      "outputs": [
        {
          "internalType": "contract IWETH",
          "name": "",
          "type": "address"
        }
      ],
      "stateMutability": "view",
      "type": "function"
    },
    {
      "inputs": [
        {
          "internalType": "uint256",
          "name": "_maxLTV",
          "type": "uint256"
        },
        {
          "internalType": "uint256",
          "name": "_liquidationThreshold",
          "type": "uint256"
        },
        {
          "internalType": "contract IV3SwapRouter",
          "name": "_swapRouter",
          "type": "address"
        },
        {
          "internalType": "contract IUniswapV3Factory",
          "name": "_factory",
          "type": "address"
        },
        {
          "internalType": "contract IQuoterV2",
          "name": "_quoter",
          "type": "address"
        },
        {
          "internalType": "contract IPoolAddressesProvider",
          "name": "_aaveAddressProvider",
          "type": "address"
        },
        {
          "internalType": "address",
          "name": "_liquidator",
          "type": "address"
        },
        {
          "internalType": "address",
          "name": "_platform",
          "type": "address"
        },
        {
          "internalType": "bool",
          "name": "_isEnableETHNative",
          "type": "bool"
        },
        {
          "internalType": "contract IWETH",
          "name": "_wETH",
          "type": "address"
        },
        {
          "internalType": "contract ICCFLLoan",
          "name": "_ccflLoan",
          "type": "address"
        }
      ],
      "name": "initialize",
      "outputs": [],
      "stateMutability": "nonpayable",
      "type": "function"
    },
    {
      "inputs": [],
      "name": "liquidationThreshold",
      "outputs": [
        {
          "internalType": "uint256",
          "name": "",
          "type": "uint256"
        }
      ],
      "stateMutability": "view",
      "type": "function"
    },
    {
      "inputs": [],
      "name": "liquidator",
      "outputs": [
        {
          "internalType": "address",
          "name": "",
          "type": "address"
        }
      ],
      "stateMutability": "view",
      "type": "function"
    },
    {
      "inputs": [],
      "name": "maxLTV",
      "outputs": [
        {
          "internalType": "uint256",
          "name": "",
          "type": "uint256"
        }
      ],
      "stateMutability": "view",
      "type": "function"
    },
    {
      "inputs": [],
      "name": "owner",
      "outputs": [
        {
          "internalType": "address",
          "name": "",
          "type": "address"
        }
      ],
      "stateMutability": "view",
      "type": "function"
    },
    {
      "inputs": [],
      "name": "penaltyLender",
      "outputs": [
        {
          "internalType": "uint256",
          "name": "",
          "type": "uint256"
        }
      ],
      "stateMutability": "view",
      "type": "function"
    },
    {
      "inputs": [],
      "name": "penaltyLiquidator",
      "outputs": [
        {
          "internalType": "uint256",
          "name": "",
          "type": "uint256"
        }
      ],
      "stateMutability": "view",
      "type": "function"
    },
    {
      "inputs": [],
      "name": "penaltyPlatform",
      "outputs": [
        {
          "internalType": "uint256",
          "name": "",
          "type": "uint256"
        }
      ],
      "stateMutability": "view",
      "type": "function"
    },
    {
      "inputs": [],
      "name": "platform",
      "outputs": [
        {
          "internalType": "address",
          "name": "",
          "type": "address"
        }
      ],
      "stateMutability": "view",
      "type": "function"
    },
    {
      "inputs": [],
      "name": "quoter",
      "outputs": [
        {
          "internalType": "contract IQuoterV2",
          "name": "",
          "type": "address"
        }
      ],
      "stateMutability": "view",
      "type": "function"
    },
    {
      "inputs": [
        {
          "internalType": "contract IPoolAddressesProvider",
          "name": "_aaveAddressProvider",
          "type": "address"
        }
      ],
      "name": "setAaveProvider",
      "outputs": [],
      "stateMutability": "nonpayable",
      "type": "function"
    },
    {
      "inputs": [
        {
          "internalType": "contract ICCFLLoan",
          "name": "_loan",
          "type": "address"
        }
      ],
      "name": "setCCFLLoan",
      "outputs": [],
      "stateMutability": "nonpayable",
      "type": "function"
    },
    {
      "inputs": [
        {
          "internalType": "contract IERC20Standard[]",
          "name": "_collateral",
          "type": "address[]"
        },
        {
          "internalType": "contract IERC20Standard[]",
          "name": "_stable",
          "type": "address[]"
        },
        {
          "internalType": "uint24[]",
          "name": "_fee",
          "type": "uint24[]"
        }
      ],
      "name": "setCollateralToStableFee",
      "outputs": [],
      "stateMutability": "nonpayable",
      "type": "function"
    },
    {
      "inputs": [
        {
          "internalType": "uint256",
          "name": "_borrower",
          "type": "uint256"
        },
        {
          "internalType": "uint256",
          "name": "_platform",
          "type": "uint256"
        },
        {
          "internalType": "uint256",
          "name": "_lender",
          "type": "uint256"
        }
      ],
      "name": "setEarnShare",
      "outputs": [],
      "stateMutability": "nonpayable",
      "type": "function"
    },
    {
      "inputs": [
        {
          "internalType": "bool",
          "name": "_isActived",
          "type": "bool"
        }
      ],
      "name": "setEnableETHNative",
      "outputs": [],
      "stateMutability": "nonpayable",
      "type": "function"
    },
    {
      "inputs": [
        {
          "internalType": "uint256",
          "name": "_platform",
          "type": "uint256"
        },
        {
          "internalType": "uint256",
          "name": "_liquidator",
          "type": "uint256"
        },
        {
          "internalType": "uint256",
          "name": "_lender",
          "type": "uint256"
        }
      ],
      "name": "setPenalty",
      "outputs": [],
      "stateMutability": "nonpayable",
      "type": "function"
    },
    {
      "inputs": [
        {
          "internalType": "address",
          "name": "_liquidator",
          "type": "address"
        },
        {
          "internalType": "address",
          "name": "_platform",
          "type": "address"
        }
      ],
      "name": "setPlatformAddress",
      "outputs": [],
      "stateMutability": "nonpayable",
      "type": "function"
    },
    {
      "inputs": [
        {
          "internalType": "contract IV3SwapRouter",
          "name": "_swapRouter",
          "type": "address"
        },
        {
          "internalType": "contract IUniswapV3Factory",
          "name": "_factory",
          "type": "address"
        },
        {
          "internalType": "contract IQuoterV2",
          "name": "_quoter",
          "type": "address"
        }
      ],
      "name": "setSwapRouter",
      "outputs": [],
      "stateMutability": "nonpayable",
      "type": "function"
    },
    {
      "inputs": [
        {
          "internalType": "uint256",
          "name": "_maxLTV",
          "type": "uint256"
        },
        {
          "internalType": "uint256",
          "name": "_liquidationThreshold",
          "type": "uint256"
        }
      ],
      "name": "setThreshold",
      "outputs": [],
      "stateMutability": "nonpayable",
      "type": "function"
    },
    {
      "inputs": [
        {
          "internalType": "contract IWETH",
          "name": "_iWETH",
          "type": "address"
        }
      ],
      "name": "setWETH",
      "outputs": [],
      "stateMutability": "nonpayable",
      "type": "function"
    },
    {
      "inputs": [],
      "name": "wETH",
      "outputs": [
        {
          "internalType": "contract IWETH",
          "name": "",
          "type": "address"
        }
      ],
      "stateMutability": "view",
      "type": "function"
    }
  ],
  "bytecode": "0x608060405234801561001057600080fd5b50611245806100206000396000f3fe608060405234801561001057600080fd5b50600436106102925760003560e01c80639854db0211610160578063cae5f11e116100d8578063f24286211161008c578063f3cf4ada11610071578063f3cf4ada146105be578063f6597bbb146105d1578063f8f126ff146105da57600080fd5b8063f2428621146105a2578063f384bd05146105b557600080fd5b8063d03f6bac116100bd578063d03f6bac14610568578063e56e56db14610579578063e75235b81461058757600080fd5b8063cae5f11e14610544578063cdaabe411461055557600080fd5b8063bc0f39e01161012f578063c40b97ab11610114578063c40b97ab146104ee578063c45a01551461051e578063c6bbd5a71461053157600080fd5b8063bc0f39e0146104b8578063c2dcadab146104c957600080fd5b80639854db0214610476578063a58bab6214610493578063a95d71321461049c578063b9c36209146104a557600080fd5b8063474843ea1161020e5780635f499ebc116101c2578063725c9c49116101a7578063725c9c491461041e5780638ba2444e146104505780638da5cb5b1461046357600080fd5b80635f499ebc146103f85780636cb0ab5e1461040b57600080fd5b80635187d9a2116101f35780635187d9a2146103bf5780635607c334146103d25780635b769f3c146103e557600080fd5b8063474843ea146103995780634bde38c8146103ac57600080fd5b806338ef6717116102655780633c0c45661161024a5780633c0c45661461033f5780634031234c146103655780634046ebae1461036e57600080fd5b806338ef6717146103235780633a0720e61461033657600080fd5b8063101b9d311461029757806310ac5c3c146102b357806332df398e146102c8578063365bef00146102d1575b600080fd5b6102a060085481565b6040519081526020015b60405180910390f35b6102c66102c1366004610de1565b6105ed565b005b6102a060095481565b61030f6102df366004610e2c565b6001600160a01b03918216600090815260116020908152604080832093909416825291909152205462ffffff1690565b60405162ffffff90911681526020016102aa565b6102c6610331366004610e65565b61067a565b6102a0600b5481565b600d54600e54604080516001600160a01b039384168152929091166020830152016102aa565b6102a060015481565b600d54610381906001600160a01b031681565b6040516001600160a01b0390911681526020016102aa565b6102c66103a7366004610e65565b6106e1565b600e54610381906001600160a01b031681565b6102c66103cd366004610e9e565b610748565b6102c66103e0366004611051565b610a0d565b6102c66103f3366004610e65565b610b11565b6102c6610406366004611141565b610b78565b6102c661041936600461115c565b610bf6565b610426610c49565b604080516001600160a01b03948516815292841660208401529216918101919091526060016102aa565b601054610381906001600160a01b031681565b600554610381906001600160a01b031681565b600e54600160a01b900460ff1660405190151581526020016102aa565b6102a060075481565b6102a0600a5481565b6102c66104b3366004611188565b610cb6565b6010546001600160a01b0316610381565b600b54600a546009545b604080519384526020840192909252908201526060016102aa565b61030f6104fc366004610e2c565b601160209081526000928352604080842090915290825290205462ffffff1681565b600354610381906001600160a01b031681565b600454610381906001600160a01b031681565b600f546001600160a01b0316610381565b600c54610381906001600160a01b031681565b600c546001600160a01b0316610381565b6008546007546006546104d3565b600054600154604080519283526020830191909152016102aa565b600f54610381906001600160a01b031681565b6102a060005481565b6102c66105cc36600461115c565b610d06565b6102a060065481565b6102c66105e8366004610e2c565b610d56565b6005546040805180820190915260018152601960f91b6020820152906001600160a01b0316331461063a5760405162461bcd60e51b815260040161063191906111aa565b60405180910390fd5b50600280546001600160a01b039485166001600160a01b031991821617909155600380549385169382169390931790925560048054919093169116179055565b6005546040805180820190915260018152601960f91b6020820152906001600160a01b031633146106be5760405162461bcd60e51b815260040161063191906111aa565b50600c80546001600160a01b0319166001600160a01b0392909216919091179055565b6005546040805180820190915260018152601960f91b6020820152906001600160a01b031633146107255760405162461bcd60e51b815260040161063191906111aa565b50601080546001600160a01b0319166001600160a01b0392909216919091179055565b7ff0c57e16840df040f15088dc2f81fe391c3923bec73e23a9662efc9c229c6a00805468010000000000000000810460ff16159067ffffffffffffffff166000811580156107935750825b905060008267ffffffffffffffff1660011480156107b05750303b155b9050811580156107be575080155b156107f5576040517ff92ee8a900000000000000000000000000000000000000000000000000000000815260040160405180910390fd5b845467ffffffffffffffff19166001178555831561082957845468ff00000000000000001916680100000000000000001785555b8f6000819055508e6001819055508d600260006101000a8154816001600160a01b0302191690836001600160a01b031602179055508c600360006101000a8154816001600160a01b0302191690836001600160a01b031602179055508b600460006101000a8154816001600160a01b0302191690836001600160a01b031602179055508a600c60006101000a8154816001600160a01b0302191690836001600160a01b0316021790555089600d60006101000a8154816001600160a01b0302191690836001600160a01b0316021790555088600e60006101000a8154816001600160a01b0302191690836001600160a01b0316021790555087600e60146101000a81548160ff02191690831515021790555086600f60006101000a8154816001600160a01b0302191690836001600160a01b0316021790555085601060006101000a8154816001600160a01b0302191690836001600160a01b0316021790555033600560006101000a8154816001600160a01b0302191690836001600160a01b0316021790555083156109fb57845468ff000000000000000019168555604051600181527fc7f505b2f371ae2175ee4913f4499e1f2633a7b5936321eed1cdaeb6115181d29060200160405180910390a15b50505050505050505050505050505050565b6005546040805180820190915260018152601960f91b6020820152906001600160a01b03163314610a515760405162461bcd60e51b815260040161063191906111aa565b5060005b8351811015610b0b57818181518110610a7057610a706111f9565b602002602001015160116000868481518110610a8e57610a8e6111f9565b60200260200101516001600160a01b03166001600160a01b031681526020019081526020016000206000858481518110610aca57610aca6111f9565b6020908102919091018101516001600160a01b03168252810191909152604001600020805462ffffff191662ffffff92909216919091179055600101610a55565b50505050565b6005546040805180820190915260018152601960f91b6020820152906001600160a01b03163314610b555760405162461bcd60e51b815260040161063191906111aa565b50600f80546001600160a01b0319166001600160a01b0392909216919091179055565b6005546040805180820190915260018152601960f91b6020820152906001600160a01b03163314610bbc5760405162461bcd60e51b815260040161063191906111aa565b50600e8054911515600160a01b027fffffffffffffffffffffff00ffffffffffffffffffffffffffffffffffffffff909216919091179055565b6005546040805180820190915260018152601960f91b6020820152906001600160a01b03163314610c3a5760405162461bcd60e51b815260040161063191906111aa565b50600b55600a91909155600955565b6005546040805180820190915260018152601960f91b6020820152600091829182916001600160a01b03163314610c935760405162461bcd60e51b815260040161063191906111aa565b50506002546003546004546001600160a01b039283169450908216925016909192565b6005546040805180820190915260018152601960f91b6020820152906001600160a01b03163314610cfa5760405162461bcd60e51b815260040161063191906111aa565b50600091909155600155565b6005546040805180820190915260018152601960f91b6020820152906001600160a01b03163314610d4a5760405162461bcd60e51b815260040161063191906111aa565b50600855600755600655565b6005546040805180820190915260018152601960f91b6020820152906001600160a01b03163314610d9a5760405162461bcd60e51b815260040161063191906111aa565b50600d80546001600160a01b039384166001600160a01b031991821617909155600e8054929093169116179055565b6001600160a01b0381168114610dde57600080fd5b50565b600080600060608486031215610df657600080fd5b8335610e0181610dc9565b92506020840135610e1181610dc9565b91506040840135610e2181610dc9565b809150509250925092565b60008060408385031215610e3f57600080fd5b8235610e4a81610dc9565b91506020830135610e5a81610dc9565b809150509250929050565b600060208284031215610e7757600080fd5b8135610e8281610dc9565b9392505050565b80358015158114610e9957600080fd5b919050565b60008060008060008060008060008060006101608c8e031215610ec057600080fd5b8b359a5060208c0135995060408c0135610ed981610dc9565b985060608c0135610ee981610dc9565b975060808c0135610ef981610dc9565b965060a08c0135610f0981610dc9565b955060c08c0135610f1981610dc9565b945060e08c0135610f2981610dc9565b9350610f386101008d01610e89565b92506101208c0135610f4981610dc9565b91506101408c0135610f5a81610dc9565b809150509295989b509295989b9093969950565b634e487b7160e01b600052604160045260246000fd5b604051601f8201601f1916810167ffffffffffffffff81118282101715610fad57610fad610f6e565b604052919050565b600067ffffffffffffffff821115610fcf57610fcf610f6e565b5060051b60200190565b600082601f830112610fea57600080fd5b81356020610fff610ffa83610fb5565b610f84565b8083825260208201915060208460051b87010193508684111561102157600080fd5b602086015b8481101561104657803561103981610dc9565b8352918301918301611026565b509695505050505050565b60008060006060848603121561106657600080fd5b833567ffffffffffffffff8082111561107e57600080fd5b61108a87838801610fd9565b94506020915081860135818111156110a157600080fd5b6110ad88828901610fd9565b9450506040860135818111156110c257600080fd5b86019050601f810187136110d557600080fd5b80356110e3610ffa82610fb5565b81815260059190911b8201830190838101908983111561110257600080fd5b928401925b8284101561113257833562ffffff811681146111235760008081fd5b82529284019290840190611107565b80955050505050509250925092565b60006020828403121561115357600080fd5b610e8282610e89565b60008060006060848603121561117157600080fd5b505081359360208301359350604090920135919050565b6000806040838503121561119b57600080fd5b50508035926020909101359150565b60006020808352835180602085015260005b818110156111d8578581018301518582016040015282016111bc565b506000604082860101526040601f19601f8301168501019250505092915050565b634e487b7160e01b600052603260045260246000fdfea2646970667358221220f45398c044303310b95a8d091eea8da61158153a20ba1712c3a1f338e59529f964736f6c63430008180033",
  "linkReferences": {},
  "deployedLinkReferences": {}
}