{
  "_format": "hh-sol-artifact-1",
  "contractName": "CCFLPool",
  "sourceName": "contracts/CCFLPool.sol",
  "abi": [
    {
      "inputs": [],
      "name": "InvalidInitialization",
      "type": "error"
    },
    {
      "inputs": [],
      "name": "NotInitializing",
      "type": "error"
    },
    {
      "inputs": [
        {
          "internalType": "uint8",
          "name": "bits",
          "type": "uint8"
        },
        {
          "internalType": "uint256",
          "name": "value",
          "type": "uint256"
        }
      ],
      "name": "SafeCastOverflowedUintDowncast",
      "type": "error"
    },
    {
      "anonymous": false,
      "inputs": [
        {
          "indexed": true,
          "internalType": "address",
          "name": "lender",
          "type": "address"
        },
        {
          "indexed": true,
          "internalType": "contract IERC20Standard",
          "name": "supply",
          "type": "address"
        },
        {
          "indexed": false,
          "internalType": "uint256",
          "name": "amount",
          "type": "uint256"
        },
        {
          "indexed": false,
          "internalType": "uint256",
          "name": "timestamp",
          "type": "uint256"
        }
      ],
      "name": "AddSupply",
      "type": "event"
    },
    {
      "anonymous": false,
      "inputs": [
        {
          "indexed": false,
          "internalType": "uint64",
          "name": "version",
          "type": "uint64"
        }
      ],
      "name": "Initialized",
      "type": "event"
    },
    {
      "anonymous": false,
      "inputs": [
        {
          "indexed": true,
          "internalType": "address",
          "name": "lender",
          "type": "address"
        },
        {
          "indexed": true,
          "internalType": "contract IERC20Standard",
          "name": "supply",
          "type": "address"
        },
        {
          "indexed": false,
          "internalType": "uint256",
          "name": "amount",
          "type": "uint256"
        },
        {
          "indexed": false,
          "internalType": "uint256",
          "name": "timestamp",
          "type": "uint256"
        }
      ],
      "name": "WithdrawSupply",
      "type": "event"
    },
    {
      "inputs": [],
      "name": "CCFL",
      "outputs": [
        {
          "internalType": "address",
          "name": "",
          "type": "address"
        }
      ],
      "stateMutability": "view",
      "type": "function"
    },
    {
      "inputs": [
        {
          "internalType": "address",
          "name": "_user",
          "type": "address"
        }
      ],
      "name": "balance",
      "outputs": [
        {
          "internalType": "uint256",
          "name": "",
          "type": "uint256"
        }
      ],
      "stateMutability": "view",
      "type": "function"
    },
    {
      "inputs": [
        {
          "internalType": "uint256",
          "name": "_loanId",
          "type": "uint256"
        },
        {
          "internalType": "uint256",
          "name": "_amount",
          "type": "uint256"
        },
        {
          "internalType": "address",
          "name": "_borrower",
          "type": "address"
        }
      ],
      "name": "borrow",
      "outputs": [],
      "stateMutability": "nonpayable",
      "type": "function"
    },
    {
      "inputs": [
        {
          "internalType": "uint256",
          "name": "",
          "type": "uint256"
        }
      ],
      "name": "debt",
      "outputs": [
        {
          "internalType": "uint256",
          "name": "",
          "type": "uint256"
        }
      ],
      "stateMutability": "view",
      "type": "function"
    },
    {
      "inputs": [
        {
          "internalType": "uint256",
          "name": "_loanId",
          "type": "uint256"
        }
      ],
      "name": "getCurrentLoan",
      "outputs": [
        {
          "internalType": "uint256",
          "name": "",
          "type": "uint256"
        }
      ],
      "stateMutability": "view",
      "type": "function"
    },
    {
      "inputs": [],
      "name": "getCurrentRate",
      "outputs": [
        {
          "internalType": "uint256",
          "name": "",
          "type": "uint256"
        },
        {
          "internalType": "uint256",
          "name": "",
          "type": "uint256"
        },
        {
          "internalType": "uint256",
          "name": "",
          "type": "uint256"
        },
        {
          "internalType": "uint256",
          "name": "",
          "type": "uint256"
        }
      ],
      "stateMutability": "view",
      "type": "function"
    },
    {
      "inputs": [],
      "name": "getDebtPool",
      "outputs": [
        {
          "internalType": "uint256",
          "name": "amount",
          "type": "uint256"
        }
      ],
      "stateMutability": "view",
      "type": "function"
    },
    {
      "inputs": [],
      "name": "getRemainingPool",
      "outputs": [
        {
          "internalType": "uint256",
          "name": "amount",
          "type": "uint256"
        }
      ],
      "stateMutability": "view",
      "type": "function"
    },
    {
      "inputs": [],
      "name": "getTotalSupply",
      "outputs": [
        {
          "internalType": "uint256",
          "name": "",
          "type": "uint256"
        }
      ],
      "stateMutability": "view",
      "type": "function"
    },
    {
      "inputs": [
        {
          "internalType": "contract IERC20Standard",
          "name": "_stableCoinAddress",
          "type": "address"
        },
        {
          "internalType": "address",
          "name": "interestRateStrategyAddress",
          "type": "address"
        }
      ],
      "name": "initialize",
      "outputs": [],
      "stateMutability": "nonpayable",
      "type": "function"
    },
    {
      "inputs": [
        {
          "internalType": "uint256",
          "name": "",
          "type": "uint256"
        }
      ],
      "name": "lenders",
      "outputs": [
        {
          "internalType": "address",
          "name": "",
          "type": "address"
        }
      ],
      "stateMutability": "view",
      "type": "function"
    },
    {
      "inputs": [
        {
          "internalType": "uint256",
          "name": "_loanId",
          "type": "uint256"
        },
        {
          "internalType": "uint256",
          "name": "_amount",
          "type": "uint256"
        }
      ],
      "name": "liquidatePenalty",
      "outputs": [],
      "stateMutability": "nonpayable",
      "type": "function"
    },
    {
      "inputs": [
        {
          "internalType": "uint256",
          "name": "",
          "type": "uint256"
        }
      ],
      "name": "loans",
      "outputs": [
        {
          "internalType": "uint256",
          "name": "loanId",
          "type": "uint256"
        },
        {
          "internalType": "bool",
          "name": "isPaid",
          "type": "bool"
        },
        {
          "internalType": "uint256",
          "name": "amount",
          "type": "uint256"
        },
        {
          "internalType": "bool",
          "name": "isClosed",
          "type": "bool"
        },
        {
          "internalType": "address",
          "name": "borrower",
          "type": "address"
        },
        {
          "internalType": "bool",
          "name": "isLiquidated",
          "type": "bool"
        },
        {
          "internalType": "contract IERC20Standard",
          "name": "stableCoin",
          "type": "address"
        },
        {
          "internalType": "bool",
          "name": "isFinalty",
          "type": "bool"
        }
      ],
      "stateMutability": "view",
      "type": "function"
    },
    {
      "inputs": [],
      "name": "remainingPool",
      "outputs": [
        {
          "internalType": "uint256",
          "name": "",
          "type": "uint256"
        }
      ],
      "stateMutability": "view",
      "type": "function"
    },
    {
      "inputs": [
        {
          "internalType": "uint256",
          "name": "_loanId",
          "type": "uint256"
        },
        {
          "internalType": "uint256",
          "name": "_amount",
          "type": "uint256"
        }
      ],
      "name": "repay",
      "outputs": [],
      "stateMutability": "nonpayable",
      "type": "function"
    },
    {
      "inputs": [],
      "name": "reserve",
      "outputs": [
        {
          "internalType": "uint128",
          "name": "liquidityIndex",
          "type": "uint128"
        },
        {
          "internalType": "uint128",
          "name": "currentLiquidityRate",
          "type": "uint128"
        },
        {
          "internalType": "uint128",
          "name": "variableBorrowIndex",
          "type": "uint128"
        },
        {
          "internalType": "uint128",
          "name": "currentVariableBorrowRate",
          "type": "uint128"
        },
        {
          "internalType": "uint40",
          "name": "lastUpdateTimestamp",
          "type": "uint40"
        },
        {
          "internalType": "uint16",
          "name": "id",
          "type": "uint16"
        },
        {
          "internalType": "address",
          "name": "interestRateStrategyAddress",
          "type": "address"
        }
      ],
      "stateMutability": "view",
      "type": "function"
    },
    {
      "inputs": [
        {
          "internalType": "address",
          "name": "_ccfl",
          "type": "address"
        }
      ],
      "name": "setCCFL",
      "outputs": [],
      "stateMutability": "nonpayable",
      "type": "function"
    },
    {
      "inputs": [
        {
          "internalType": "address",
          "name": "",
          "type": "address"
        }
      ],
      "name": "share",
      "outputs": [
        {
          "internalType": "uint256",
          "name": "",
          "type": "uint256"
        }
      ],
      "stateMutability": "view",
      "type": "function"
    },
    {
      "inputs": [],
      "name": "stableCoinAddress",
      "outputs": [
        {
          "internalType": "contract IERC20Standard",
          "name": "",
          "type": "address"
        }
      ],
      "stateMutability": "view",
      "type": "function"
    },
    {
      "inputs": [
        {
          "internalType": "uint256",
          "name": "_amount",
          "type": "uint256"
        }
      ],
      "name": "supply",
      "outputs": [],
      "stateMutability": "nonpayable",
      "type": "function"
    },
    {
      "inputs": [],
      "name": "totalDebt",
      "outputs": [
        {
          "internalType": "uint256",
          "name": "",
          "type": "uint256"
        }
      ],
      "stateMutability": "view",
      "type": "function"
    },
    {
      "inputs": [],
      "name": "totalLiquidity",
      "outputs": [
        {
          "internalType": "uint256",
          "name": "",
          "type": "uint256"
        }
      ],
      "stateMutability": "view",
      "type": "function"
    },
    {
      "inputs": [],
      "name": "totalSupply",
      "outputs": [
        {
          "internalType": "uint256",
          "name": "",
          "type": "uint256"
        }
      ],
      "stateMutability": "view",
      "type": "function"
    },
    {
      "inputs": [
        {
          "internalType": "uint256",
          "name": "_amount",
          "type": "uint256"
        }
      ],
      "name": "withdraw",
      "outputs": [],
      "stateMutability": "nonpayable",
      "type": "function"
    },
    {
      "inputs": [
        {
          "internalType": "address",
          "name": "_receiver",
          "type": "address"
        },
        {
          "internalType": "uint256",
          "name": "_loanId",
          "type": "uint256"
        }
      ],
      "name": "withdrawLoan",
      "outputs": [],
      "stateMutability": "nonpayable",
      "type": "function"
    },
    {
      "stateMutability": "payable",
      "type": "receive"
    }
  ],
  "bytecode": "0x608060405234801561001057600080fd5b50612511806100206000396000f3fe60806040526004361061019a5760003560e01c8063929eea21116100e1578063d6bda0c01161008a578063e3d670d711610064578063e3d670d7146105ac578063ec7be39d146105cc578063f7fb07b0146105ec578063fc7b9c181461063957600080fd5b8063d6bda0c014610494578063d8aed145146104b4578063e1ec3c68146104d457600080fd5b8063b14d37c0116100bb578063b14d37c0146103a3578063c4e41b22146103b9578063cd3293de146103ce57600080fd5b8063929eea2114610343578063982aae4614610363578063a52f38d11461038357600080fd5b80633540302311610143578063485cc9551161011d578063485cc955146102e35780637f394031146103035780638ac1b7751461032357600080fd5b806335403023146102765780633b24cc21146102965780633b4675a7146102ab57600080fd5b80631877bb5c116101745780631877bb5c146101fa5780631e0029c8146102275780632e1a7d4d1461025457600080fd5b806303ec357f146101a657806315770f92146101ce57806318160ddd146101e457600080fd5b366101a157005b600080fd5b3480156101b257600080fd5b506101bb61064f565b6040519081526020015b60405180910390f35b3480156101da57600080fd5b506101bb600a5481565b3480156101f057600080fd5b506101bb60095481565b34801561020657600080fd5b506101bb6102153660046121af565b60076020526000908152604090205481565b34801561023357600080fd5b506101bb6102423660046121cc565b60086020526000908152604090205481565b34801561026057600080fd5b5061027461026f3660046121cc565b61073f565b005b34801561028257600080fd5b506102746102913660046121cc565b6109a2565b3480156102a257600080fd5b50600c546101bb565b3480156102b757600080fd5b506003546102cb906001600160a01b031681565b6040516001600160a01b0390911681526020016101c5565b3480156102ef57600080fd5b506102746102fe3660046121e5565b610bbd565b34801561030f57600080fd5b5061027461031e36600461221e565b610d9d565b34801561032f57600080fd5b5061027461033e3660046121af565b61105d565b34801561034f57600080fd5b506102cb61035e3660046121cc565b6110ed565b34801561036f57600080fd5b506000546102cb906001600160a01b031681565b34801561038f57600080fd5b506101bb61039e3660046121cc565b611117565b3480156103af57600080fd5b506101bb600c5481565b3480156103c557600080fd5b506101bb611214565b3480156103da57600080fd5b50600454600554600654610439926001600160801b0380821693600160801b92839004821693828216939091049091169064ffffffffff81169065010000000000810461ffff169067010000000000000090046001600160a01b031687565b604080516001600160801b03988916815296881660208801529487169486019490945294909116606084015264ffffffffff16608083015261ffff90921660a08201526001600160a01b0390911660c082015260e0016101c5565b3480156104a057600080fd5b506102746104af366004612240565b6112ec565b3480156104c057600080fd5b506102746104cf36600461221e565b611546565b3480156104e057600080fd5b506105606104ef3660046121cc565b600260208190526000918252604090912080546001820154928201546003830154600490930154919360ff908116939192828216926001600160a01b036101008204811693600160a81b90920482169290811691740100000000000000000000000000000000000000009091041688565b6040805198895296151560208901529587019490945291151560608601526001600160a01b03908116608086015290151560a08501521660c0830152151560e0820152610100016101c5565b3480156105b857600080fd5b506101bb6105c73660046121af565b6119f7565b3480156105d857600080fd5b506102746105e7366004612279565b611a36565b3480156105f857600080fd5b50600554600454604080516001600160801b03600160801b8086048216835284048116602083015293841691810191909152911660608201526080016101c5565b34801561064557600080fd5b506101bb600b5481565b60008061065a611b84565b905060006106708260c001518360e00151611c81565b60055490915061068a9082906001600160801b0316611c95565b60808301526000546040805163313ce56760e01b815290516b033b2e3c9fd0803ce8000000926001600160a01b03169163313ce5679160048083019260209291908290030181865afa1580156106e4573d6000803e3d6000fd5b505050506040513d601f19601f8201168201806040525081019061070891906122a5565b61071390600a6123c2565b6080840151600b5461072491611c95565b61072e91906123d1565b61073891906123fe565b9250505090565b6000610749611b84565b905061075481611cd9565b60008060009054906101000a90046001600160a01b03166001600160a01b031663313ce5676040518163ffffffff1660e01b8152600401602060405180830381865afa1580156107a8573d6000803e3d6000fd5b505050506040513d601f19601f820116820180604052508101906107cc91906122a5565b6107d790600a6123c2565b6107ed6b033b2e3c9fd0803ce8000000856123d1565b6107f791906123fe565b9050610804600082611d12565b60045460009061081e9083906001600160801b0316611e9a565b336000908152600760205260408120549192509061083d908390612420565b905081600960008282546108519190612420565b9250508190555081600a600082825461086a9190612420565b909155505060408051808201909152600181527f380000000000000000000000000000000000000000000000000000000000000060208201526108b1565b60405180910390fd5b50336000908152600760205260408120829055600c80548792906108d6908490612420565b909155505060005460405163a9059cbb60e01b8152336004820152602481018790526001600160a01b039091169063a9059cbb906044016020604051808303816000875af115801561092c573d6000803e3d6000fd5b505050506040513d601f19601f820116820180604052508101906109509190612482565b50600054604080518781524260208201526001600160a01b039092169133917ff920a98209abfdc322e529414e4f3e4daf45c2a9cf6a1a1245a903648c84b3a391015b60405180910390a35050505050565b60006109ac611b84565b90506109b781611cd9565b60008060009054906101000a90046001600160a01b03166001600160a01b031663313ce5676040518163ffffffff1660e01b8152600401602060405180830381865afa158015610a0b573d6000803e3d6000fd5b505050506040513d601f19601f82011682018060405250810190610a2f91906122a5565b610a3a90600a6123c2565b610a506b033b2e3c9fd0803ce8000000856123d1565b610a5a91906123fe565b9050610a67816000611d12565b600454600090610a819083906001600160801b0316611e9a565b3360009081526007602052604081205491925090610aa09083906124a4565b90508160096000828254610ab491906124a4565b9250508190555081600a6000828254610acd91906124a4565b9091555050336000908152600760205260408120829055600c8054879290610af69084906124a4565b90915550506000546040516323b872dd60e01b8152336004820152306024820152604481018790526001600160a01b03909116906323b872dd906064016020604051808303816000875af1158015610b52573d6000803e3d6000fd5b505050506040513d601f19601f82011682018060405250810190610b769190612482565b50600054604080518781524260208201526001600160a01b039092169133917fcae7933f97cc1867dc5809b71fe2fef50587154907804d33215880df5ff6a9899101610993565b7ff0c57e16840df040f15088dc2f81fe391c3923bec73e23a9662efc9c229c6a00805468010000000000000000810460ff16159067ffffffffffffffff16600081158015610c085750825b905060008267ffffffffffffffff166001148015610c255750303b155b905081158015610c33575080155b15610c6a576040517ff92ee8a900000000000000000000000000000000000000000000000000000000815260040160405180910390fd5b845467ffffffffffffffff191660011785558315610c9e57845468ff00000000000000001916680100000000000000001785555b600080546001600160a01b03808a1673ffffffffffffffffffffffffffffffffffffffff199283161790925560068054928916670100000000000000027fffffffffff0000000000000000000000000000000000000000ffffffffffffff90931692909217909155600480546fffffffffffffffffffffffffffffffff199081166b033b2e3c9fd0803ce8000000908117909255600580549091169091179055600d8054909116331790558315610d9457845468ff000000000000000019168555604051600181527fc7f505b2f371ae2175ee4913f4499e1f2633a7b5936321eed1cdaeb6115181d29060200160405180910390a15b50505050505050565b600354604080518082019091526002815261313360f01b6020820152906001600160a01b03163314610de25760405162461bcd60e51b81526004016108a89190612433565b506000828152600260208181526040928390206003015483518085019094529183527f313700000000000000000000000000000000000000000000000000000000000090830152600160a81b900460ff1615610e515760405162461bcd60e51b81526004016108a89190612433565b506000610e5c611b84565b9050610e6781611cd9565b60008060009054906101000a90046001600160a01b03166001600160a01b031663313ce5676040518163ffffffff1660e01b8152600401602060405180830381865afa158015610ebb573d6000803e3d6000fd5b505050506040513d601f19601f82011682018060405250810190610edf91906122a5565b610eea90600a6123c2565b610f006b033b2e3c9fd0803ce8000000856123d1565b610f0a91906123fe565b90506000610f278360400151600a54611c9590919063ffffffff16565b90506000610f4f82610f4986604001518686610f4391906124a4565b90611c95565b90611e9a565b9050610f5a81611ed9565b600480546fffffffffffffffffffffffffffffffff19166001600160801b0392909216919091179055600c8054869190600090610f989084906124a4565b90915550506000546040516323b872dd60e01b8152336004820152306024820152604481018790526001600160a01b03909116906323b872dd906064016020604051808303816000875af1158015610ff4573d6000803e3d6000fd5b505050506040513d601f19601f820116820180604052508101906110189190612482565b505050600093845250506002602052506040902060030180547fffffffffffffffffffff00ffffffffffffffffffffffffffffffffffffffffff16600160a81b179055565b600d5460408051808201909152600181527f32000000000000000000000000000000000000000000000000000000000000006020820152906001600160a01b031633146110bd5760405162461bcd60e51b81526004016108a89190612433565b506003805473ffffffffffffffffffffffffffffffffffffffff19166001600160a01b0392909216919091179055565b600181815481106110fd57600080fd5b6000918252602090912001546001600160a01b0316905081565b600080611122611b84565b905060006111388260c001518360e00151611c81565b6005549091506111529082906001600160801b0316611c95565b60808301526000546040805163313ce56760e01b815290516b033b2e3c9fd0803ce8000000926001600160a01b03169163313ce5679160048083019260209291908290030181865afa1580156111ac573d6000803e3d6000fd5b505050506040513d601f19601f820116820180604052508101906111d091906122a5565b6111db90600a6123c2565b60808401516000878152600860205260409020546111f891611c95565b61120291906123d1565b61120c91906123fe565b949350505050565b60008061121f611b84565b905060006112358260a001518360e00151611f2a565b905061124e826040015182611c9590919063ffffffff16565b604080840191909152600054815163313ce56760e01b815291516b033b2e3c9fd0803ce8000000926001600160a01b039092169163313ce5679160048083019260209291908290030181865afa1580156112ac573d6000803e3d6000fd5b505050506040513d601f19601f820116820180604052508101906112d091906122a5565b6112db90600a6123c2565b604084015160095461072491611c95565b600354604080518082019091526002815261313360f01b6020820152906001600160a01b031633146113315760405162461bcd60e51b81526004016108a89190612433565b50600061133c611b84565b905061134781611cd9565b60008060009054906101000a90046001600160a01b03166001600160a01b031663313ce5676040518163ffffffff1660e01b8152600401602060405180830381865afa15801561139b573d6000803e3d6000fd5b505050506040513d601f19601f820116820180604052508101906113bf91906122a5565b6113ca90600a6123c2565b6113e06b033b2e3c9fd0803ce8000000866123d1565b6113ea91906123fe565b90506000611405836080015183611e9a90919063ffffffff16565b600087815260086020526040812054919250906114239083906124a4565b905081600b600082825461143791906124a4565b9091555050600c5460408051808201909152600281527f31350000000000000000000000000000000000000000000000000000000000006020820152908711156114945760405162461bcd60e51b81526004016108a89190612433565b506000878152600260208181526040808420600890925283208490558981559081018890556003810180547fffffffffffffffffffffff0000000000000000000000000000000000000000ff166101006001600160a01b038a1602179055906114fd9085611d12565b604085015161150d908590611e9a565b600a600082825461151e9190612420565b9250508190555086600c60008282546115379190612420565b90915550505050505050505050565b600354604080518082019091526002815261313360f01b6020820152906001600160a01b0316331461158b5760405162461bcd60e51b81526004016108a89190612433565b506000828152600260208181526040928390206003015483518085019094529183527f31360000000000000000000000000000000000000000000000000000000000009083015260ff16156115f35760405162461bcd60e51b81526004016108a89190612433565b5060006115fe611b84565b905061160981611cd9565b60008060009054906101000a90046001600160a01b03166001600160a01b031663313ce5676040518163ffffffff1660e01b8152600401602060405180830381865afa15801561165d573d6000803e3d6000fd5b505050506040513d601f19601f8201168201806040525081019061168191906122a5565b61168c90600a6123c2565b6116a26b033b2e3c9fd0803ce8000000856123d1565b6116ac91906123fe565b6005549091506000906116c99083906001600160801b0316611e9a565b60008681526008602052604090205490915081106118e757600085815260086020526040812054600b805491929091611703908490612420565b9091555050600554600086815260086020526040812054909161172f91906001600160801b0316611c95565b905060006b033b2e3c9fd0803ce80000006001600160801b031660008054906101000a90046001600160a01b03166001600160a01b031663313ce5676040518163ffffffff1660e01b8152600401602060405180830381865afa15801561179a573d6000803e3d6000fd5b505050506040513d601f19601f820116820180604052508101906117be91906122a5565b6117c990600a6123c2565b6117d390846123d1565b6117dd91906123fe565b60008881526008602052604081208190559091506117fb9080611d12565b60408086015160008981526008602052919091205461181991611e9a565b600a600082825461182a91906124a4565b9250508190555080600c600082825461184391906124a4565b90915550506000546040516323b872dd60e01b8152336004820152306024820152604481018390526001600160a01b03909116906323b872dd906064016020604051808303816000875af115801561189f573d6000803e3d6000fd5b505050506040513d601f19601f820116820180604052508101906118c39190612482565b5050506000858152600260205260409020600301805460ff191660011790556119f0565b600085815260086020526040812054611901908390612420565b905081600b60008282546119159190612420565b90915550506000868152600860205260408120829055611936908490611d12565b6040840151611946908490611e9a565b600a600082825461195791906124a4565b9250508190555084600c600082825461197091906124a4565b90915550506000546040516323b872dd60e01b8152336004820152306024820152604481018790526001600160a01b03909116906323b872dd906064016020604051808303816000875af11580156119cc573d6000803e3d6000fd5b505050506040513d601f19601f82011682018060405250810190610d949190612482565b5050505050565b6004546001600160a01b0382166000908152600760205260408120549091611a3091611a2b916001600160801b0316611c95565b611f67565b92915050565b600354604080518082019091526002815261313360f01b6020820152906001600160a01b03163314611a7b5760405162461bcd60e51b81526004016108a89190612433565b506000818152600260208181526040928390206001015483518085019094529183527f31340000000000000000000000000000000000000000000000000000000000009083015260ff1615611ae35760405162461bcd60e51b81526004016108a89190612433565b5060008181526002602081905260408083206001808201805460ff1916909117905592549290910154905163a9059cbb60e01b81526001600160a01b038581166004830152602482019290925291169063a9059cbb906044016020604051808303816000875af1158015611b5b573d6000803e3d6000fd5b505050506040513d601f19601f82011682018060405250810190611b7f9190612482565b505050565b611bd360405180610100016040528060008152602001600081526020016000815260200160008152602001600081526020016000815260200160008152602001600064ffffffffff1681525090565b611c2260405180610100016040528060008152602001600081526020016000815260200160008152602001600081526020016000815260200160008152602001600064ffffffffff1681525090565b6004546001600160801b03808216604084018190526020840152600554808216608085018190526060850152600160801b92839004821660a0850152919091041660c082015260065464ffffffffff1660e0820152600b548152919050565b6000611c8e838342611f8a565b9392505050565b600081156b019d971e4fe8401e740000001983900484111517611cb757600080fd5b506b033b2e3c9fd0803ce800000091026b019d971e4fe8401e74000000010490565b60065464ffffffffff428116911603611cef5750565b611cf8816120b6565b506006805464ffffffffff19164264ffffffffff16179055565b611d3660405180606001604052806000815260200160008152602001600081525090565b6006546040805160808101825285815260208101859052600554600b546701000000000000009094046001600160a01b0316936356eaf26493830191611d8591906001600160801b0316611c95565b8152600454600a54602090920191611da5916001600160801b0316611c95565b9052604080517fffffffff0000000000000000000000000000000000000000000000000000000060e085901b168152825160048201526020830151602482015290820151604482015260609091015160648201526084016040805180830381865afa158015611e18573d6000803e3d6000fd5b505050506040513d601f19601f82011682018060405250810190611e3c91906124b7565b6020830152808252611e4d90611ed9565b600480546001600160801b03928316600160801b0292169190911790556020810151611e7890611ed9565b600580546001600160801b03928316600160801b029216919091179055505050565b600081156b033b2e3c9fd0803ce800000060028404190484111715611ebe57600080fd5b506b033b2e3c9fd0803ce80000009190910260028204010490565b60006001600160801b03821115611f26576040517f6dfcc65000000000000000000000000000000000000000000000000000000000815260806004820152602481018390526044016108a8565b5090565b600080611f3e64ffffffffff841642612420565b611f4890856123d1565b6301e133809004905061120c816b033b2e3c9fd0803ce80000006124a4565b633b9aca00808204908206631dcd65008110611f84576001820191505b50919050565b600080611f9e64ffffffffff851684612420565b905080600003611fbd576b033b2e3c9fd0803ce8000000915050611c8e565b60001981016000808060028511611fd5576000611fda565b600285035b925066038882915c4000611fee8a80611c95565b81611ffb57611ffb6123e8565b0491506301e1338061200d838b611c95565b8161201a5761201a6123e8565b04905060008261202a86886123d1565b61203491906123d1565b60029004905060008285612048888a6123d1565b61205291906123d1565b61205c91906123d1565b60069004905080826301e133806120738a8f6123d1565b61207d91906123fe565b612093906b033b2e3c9fd0803ce80000006124a4565b61209d91906124a4565b6120a791906124a4565b9b9a5050505050505050505050565b60a0810151156121285760006120d48260a001518360e00151611f2a565b90506120ed826020015182611c9590919063ffffffff16565b604083018190526120fd90611ed9565b600480546fffffffffffffffffffffffffffffffff19166001600160801b0392909216919091179055505b8051156121975760006121438260c001518360e00151611c81565b905061215c826060015182611c9590919063ffffffff16565b6080830181905261216c90611ed9565b600580546fffffffffffffffffffffffffffffffff19166001600160801b0392909216919091179055505b50565b6001600160a01b038116811461219757600080fd5b6000602082840312156121c157600080fd5b8135611c8e8161219a565b6000602082840312156121de57600080fd5b5035919050565b600080604083850312156121f857600080fd5b82356122038161219a565b915060208301356122138161219a565b809150509250929050565b6000806040838503121561223157600080fd5b50508035926020909101359150565b60008060006060848603121561225557600080fd5b8335925060208401359150604084013561226e8161219a565b809150509250925092565b6000806040838503121561228c57600080fd5b82356122978161219a565b946020939093013593505050565b6000602082840312156122b757600080fd5b815160ff81168114611c8e57600080fd5b634e487b7160e01b600052601160045260246000fd5b600181815b808511156123195781600019048211156122ff576122ff6122c8565b8085161561230c57918102915b93841c93908002906122e3565b509250929050565b60008261233057506001611a30565b8161233d57506000611a30565b8160018114612353576002811461235d57612379565b6001915050611a30565b60ff84111561236e5761236e6122c8565b50506001821b611a30565b5060208310610133831016604e8410600b841016171561239c575081810a611a30565b6123a683836122de565b80600019048211156123ba576123ba6122c8565b029392505050565b6000611c8e60ff841683612321565b8082028115828204841417611a3057611a306122c8565b634e487b7160e01b600052601260045260246000fd5b60008261241b57634e487b7160e01b600052601260045260246000fd5b500490565b81810381811115611a3057611a306122c8565b60006020808352835180602085015260005b8181101561246157858101830151858201604001528201612445565b506000604082860101526040601f19601f8301168501019250505092915050565b60006020828403121561249457600080fd5b81518015158114611c8e57600080fd5b80820180821115611a3057611a306122c8565b600080604083850312156124ca57600080fd5b50508051602090910151909290915056fea26469706673582212201909b1a7d3091aae934a8f5e351557d59cb65eef6c33c601f64e7eac5c7b689c64736f6c63430008180033",
  "linkReferences": {},
  "deployedLinkReferences": {}
}