{
  "_format": "hh-sol-artifact-1",
  "contractName": "CCFLConfig",
  "sourceName": "contracts/CCFLConfig.sol",
  "abi": [
    {
      "inputs": [],
      "name": "InvalidInitialization",
      "type": "error"
    },
    {
      "inputs": [],
      "name": "NotInitializing",
      "type": "error"
    },
    {
      "anonymous": false,
      "inputs": [
        {
          "indexed": false,
          "internalType": "uint64",
          "name": "version",
          "type": "uint64"
        }
      ],
      "name": "Initialized",
      "type": "event"
    },
    {
      "inputs": [],
      "name": "aaveAddressProvider",
      "outputs": [
        {
          "internalType": "contract IPoolAddressesProvider",
          "name": "",
          "type": "address"
        }
      ],
      "stateMutability": "view",
      "type": "function"
    },
    {
      "inputs": [
        {
          "internalType": "contract IERC20Standard",
          "name": "",
          "type": "address"
        },
        {
          "internalType": "contract IERC20Standard",
          "name": "",
          "type": "address"
        }
      ],
      "name": "collateralToStableCoinFee",
      "outputs": [
        {
          "internalType": "uint24",
          "name": "",
          "type": "uint24"
        }
      ],
      "stateMutability": "view",
      "type": "function"
    },
    {
      "inputs": [],
      "name": "earnBorrower",
      "outputs": [
        {
          "internalType": "uint256",
          "name": "",
          "type": "uint256"
        }
      ],
      "stateMutability": "view",
      "type": "function"
    },
    {
      "inputs": [],
      "name": "earnLender",
      "outputs": [
        {
          "internalType": "uint256",
          "name": "",
          "type": "uint256"
        }
      ],
      "stateMutability": "view",
      "type": "function"
    },
    {
      "inputs": [],
      "name": "earnPlatform",
      "outputs": [
        {
          "internalType": "uint256",
          "name": "",
          "type": "uint256"
        }
      ],
      "stateMutability": "view",
      "type": "function"
    },
    {
      "inputs": [],
      "name": "factory",
      "outputs": [
        {
          "internalType": "contract IUniswapV3Factory",
          "name": "",
          "type": "address"
        }
      ],
      "stateMutability": "view",
      "type": "function"
    },
    {
      "inputs": [],
      "name": "getAaveProvider",
      "outputs": [
        {
          "internalType": "contract IPoolAddressesProvider",
          "name": "",
          "type": "address"
        }
      ],
      "stateMutability": "view",
      "type": "function"
    },
    {
      "inputs": [
        {
          "internalType": "contract IERC20Standard",
          "name": "_collateral",
          "type": "address"
        },
        {
          "internalType": "contract IERC20Standard",
          "name": "_stable",
          "type": "address"
        }
      ],
      "name": "getCollateralToStableFee",
      "outputs": [
        {
          "internalType": "uint24",
          "name": "",
          "type": "uint24"
        }
      ],
      "stateMutability": "view",
      "type": "function"
    },
    {
      "inputs": [],
      "name": "getEarnShare",
      "outputs": [
        {
          "internalType": "uint256",
          "name": "",
          "type": "uint256"
        },
        {
          "internalType": "uint256",
          "name": "",
          "type": "uint256"
        },
        {
          "internalType": "uint256",
          "name": "",
          "type": "uint256"
        }
      ],
      "stateMutability": "view",
      "type": "function"
    },
    {
      "inputs": [],
      "name": "getEnableETHNative",
      "outputs": [
        {
          "internalType": "bool",
          "name": "",
          "type": "bool"
        }
      ],
      "stateMutability": "view",
      "type": "function"
    },
    {
      "inputs": [],
      "name": "getPenalty",
      "outputs": [
        {
          "internalType": "uint256",
          "name": "",
          "type": "uint256"
        },
        {
          "internalType": "uint256",
          "name": "",
          "type": "uint256"
        },
        {
          "internalType": "uint256",
          "name": "",
          "type": "uint256"
        }
      ],
      "stateMutability": "view",
      "type": "function"
    },
    {
      "inputs": [],
      "name": "getPlatformAddress",
      "outputs": [
        {
          "internalType": "address",
          "name": "",
          "type": "address"
        },
        {
          "internalType": "address",
          "name": "",
          "type": "address"
        }
      ],
      "stateMutability": "view",
      "type": "function"
    },
    {
      "inputs": [],
      "name": "getSwapRouter",
      "outputs": [
        {
          "internalType": "contract IV3SwapRouter",
          "name": "",
          "type": "address"
        },
        {
          "internalType": "contract IUniswapV3Factory",
          "name": "",
          "type": "address"
        },
        {
          "internalType": "contract IQuoterV2",
          "name": "",
          "type": "address"
        }
      ],
      "stateMutability": "view",
      "type": "function"
    },
    {
      "inputs": [],
      "name": "getThreshold",
      "outputs": [
        {
          "internalType": "uint256",
          "name": "",
          "type": "uint256"
        },
        {
          "internalType": "uint256",
          "name": "",
          "type": "uint256"
        }
      ],
      "stateMutability": "view",
      "type": "function"
    },
    {
      "inputs": [],
      "name": "getWETH",
      "outputs": [
        {
          "internalType": "contract IWETH",
          "name": "",
          "type": "address"
        }
      ],
      "stateMutability": "view",
      "type": "function"
    },
    {
      "inputs": [
        {
          "internalType": "uint256",
          "name": "_maxLTV",
          "type": "uint256"
        },
        {
          "internalType": "uint256",
          "name": "_liquidationThreshold",
          "type": "uint256"
        },
        {
          "internalType": "contract IV3SwapRouter",
          "name": "_swapRouter",
          "type": "address"
        },
        {
          "internalType": "contract IUniswapV3Factory",
          "name": "_factory",
          "type": "address"
        },
        {
          "internalType": "contract IQuoterV2",
          "name": "_quoter",
          "type": "address"
        },
        {
          "internalType": "contract IPoolAddressesProvider",
          "name": "_aaveAddressProvider",
          "type": "address"
        },
        {
          "internalType": "address",
          "name": "_liquidator",
          "type": "address"
        },
        {
          "internalType": "address",
          "name": "_platform",
          "type": "address"
        },
        {
          "internalType": "bool",
          "name": "_isEnableETHNative",
          "type": "bool"
        },
        {
          "internalType": "contract IWETH",
          "name": "_wETH",
          "type": "address"
        }
      ],
      "name": "initialize",
      "outputs": [],
      "stateMutability": "nonpayable",
      "type": "function"
    },
    {
      "inputs": [],
      "name": "liquidationThreshold",
      "outputs": [
        {
          "internalType": "uint256",
          "name": "",
          "type": "uint256"
        }
      ],
      "stateMutability": "view",
      "type": "function"
    },
    {
      "inputs": [],
      "name": "liquidator",
      "outputs": [
        {
          "internalType": "address",
          "name": "",
          "type": "address"
        }
      ],
      "stateMutability": "view",
      "type": "function"
    },
    {
      "inputs": [],
      "name": "maxLTV",
      "outputs": [
        {
          "internalType": "uint256",
          "name": "",
          "type": "uint256"
        }
      ],
      "stateMutability": "view",
      "type": "function"
    },
    {
      "inputs": [],
      "name": "owner",
      "outputs": [
        {
          "internalType": "address",
          "name": "",
          "type": "address"
        }
      ],
      "stateMutability": "view",
      "type": "function"
    },
    {
      "inputs": [],
      "name": "penaltyLender",
      "outputs": [
        {
          "internalType": "uint256",
          "name": "",
          "type": "uint256"
        }
      ],
      "stateMutability": "view",
      "type": "function"
    },
    {
      "inputs": [],
      "name": "penaltyLiquidator",
      "outputs": [
        {
          "internalType": "uint256",
          "name": "",
          "type": "uint256"
        }
      ],
      "stateMutability": "view",
      "type": "function"
    },
    {
      "inputs": [],
      "name": "penaltyPlatform",
      "outputs": [
        {
          "internalType": "uint256",
          "name": "",
          "type": "uint256"
        }
      ],
      "stateMutability": "view",
      "type": "function"
    },
    {
      "inputs": [],
      "name": "platform",
      "outputs": [
        {
          "internalType": "address",
          "name": "",
          "type": "address"
        }
      ],
      "stateMutability": "view",
      "type": "function"
    },
    {
      "inputs": [],
      "name": "quoter",
      "outputs": [
        {
          "internalType": "contract IQuoterV2",
          "name": "",
          "type": "address"
        }
      ],
      "stateMutability": "view",
      "type": "function"
    },
    {
      "inputs": [
        {
          "internalType": "contract IPoolAddressesProvider",
          "name": "_aaveAddressProvider",
          "type": "address"
        }
      ],
      "name": "setAaveProvider",
      "outputs": [],
      "stateMutability": "nonpayable",
      "type": "function"
    },
    {
      "inputs": [
        {
          "internalType": "contract IERC20Standard[]",
          "name": "_collateral",
          "type": "address[]"
        },
        {
          "internalType": "contract IERC20Standard[]",
          "name": "_stable",
          "type": "address[]"
        },
        {
          "internalType": "uint24[]",
          "name": "_fee",
          "type": "uint24[]"
        }
      ],
      "name": "setCollateralToStableFee",
      "outputs": [],
      "stateMutability": "nonpayable",
      "type": "function"
    },
    {
      "inputs": [
        {
          "internalType": "uint256",
          "name": "_borrower",
          "type": "uint256"
        },
        {
          "internalType": "uint256",
          "name": "_platform",
          "type": "uint256"
        },
        {
          "internalType": "uint256",
          "name": "_lender",
          "type": "uint256"
        }
      ],
      "name": "setEarnShare",
      "outputs": [],
      "stateMutability": "nonpayable",
      "type": "function"
    },
    {
      "inputs": [
        {
          "internalType": "bool",
          "name": "_isActived",
          "type": "bool"
        }
      ],
      "name": "setEnableETHNative",
      "outputs": [],
      "stateMutability": "nonpayable",
      "type": "function"
    },
    {
      "inputs": [
        {
          "internalType": "uint256",
          "name": "_platform",
          "type": "uint256"
        },
        {
          "internalType": "uint256",
          "name": "_liquidator",
          "type": "uint256"
        },
        {
          "internalType": "uint256",
          "name": "_lender",
          "type": "uint256"
        }
      ],
      "name": "setPenalty",
      "outputs": [],
      "stateMutability": "nonpayable",
      "type": "function"
    },
    {
      "inputs": [
        {
          "internalType": "address",
          "name": "_liquidator",
          "type": "address"
        },
        {
          "internalType": "address",
          "name": "_platform",
          "type": "address"
        }
      ],
      "name": "setPlatformAddress",
      "outputs": [],
      "stateMutability": "nonpayable",
      "type": "function"
    },
    {
      "inputs": [
        {
          "internalType": "contract IV3SwapRouter",
          "name": "_swapRouter",
          "type": "address"
        },
        {
          "internalType": "contract IUniswapV3Factory",
          "name": "_factory",
          "type": "address"
        },
        {
          "internalType": "contract IQuoterV2",
          "name": "_quoter",
          "type": "address"
        }
      ],
      "name": "setSwapRouter",
      "outputs": [],
      "stateMutability": "nonpayable",
      "type": "function"
    },
    {
      "inputs": [
        {
          "internalType": "uint256",
          "name": "_maxLTV",
          "type": "uint256"
        },
        {
          "internalType": "uint256",
          "name": "_liquidationThreshold",
          "type": "uint256"
        }
      ],
      "name": "setThreshold",
      "outputs": [],
      "stateMutability": "nonpayable",
      "type": "function"
    },
    {
      "inputs": [
        {
          "internalType": "contract IWETH",
          "name": "_iWETH",
          "type": "address"
        }
      ],
      "name": "setWETH",
      "outputs": [],
      "stateMutability": "nonpayable",
      "type": "function"
    },
    {
      "inputs": [],
      "name": "wETH",
      "outputs": [
        {
          "internalType": "contract IWETH",
          "name": "",
          "type": "address"
        }
      ],
      "stateMutability": "view",
      "type": "function"
    }
  ],
  "bytecode": "0x608060405234801561001057600080fd5b506110e2806100206000396000f3fe608060405234801561001057600080fd5b50600436106102415760003560e01c80639854db0211610145578063cdaabe41116100bd578063f24286211161008c578063f3cf4ada11610071578063f3cf4ada14610537578063f6597bbb1461054a578063f8f126ff1461055357600080fd5b8063f24286211461051b578063f384bd051461052e57600080fd5b8063cdaabe41146104ce578063d03f6bac146104e1578063e56e56db146104f2578063e75235b81461050057600080fd5b8063c2dcadab11610114578063c45a0155116100f9578063c45a015514610497578063c6bbd5a7146104aa578063cae5f11e146104bd57600080fd5b8063c2dcadab14610442578063c40b97ab1461046757600080fd5b80639854db0214610400578063a58bab621461041d578063a95d713214610426578063b9c362091461042f57600080fd5b80634031234c116101d85780635b769f3c116101a75780636cb0ab5e1161018c5780636cb0ab5e146103a7578063725c9c49146103ba5780638da5cb5b146103ed57600080fd5b80635b769f3c146103815780635f499ebc1461039457600080fd5b80634031234c146103275780634046ebae146103305780634bde38c81461035b5780635607c3341461036e57600080fd5b80633756e332116102145780633756e332146102d257806338ef6717146102e55780633a0720e6146102f85780633c0c45661461030157600080fd5b8063101b9d311461024657806310ac5c3c1461026257806332df398e14610277578063365bef0014610280575b600080fd5b61024f60085481565b6040519081526020015b60405180910390f35b610275610270366004610c92565b610566565b005b61024f60095481565b6102be61028e366004610cdd565b6001600160a01b03918216600090815260106020908152604080832093909416825291909152205462ffffff1690565b60405162ffffff9091168152602001610259565b6102756102e0366004610d2b565b610600565b6102756102f3366004610de7565b61089d565b61024f600b5481565b600d54600e54604080516001600160a01b03938416815292909116602083015201610259565b61024f60015481565b600d54610343906001600160a01b031681565b6040516001600160a01b039091168152602001610259565b600e54610343906001600160a01b031681565b61027561037c366004610eee565b610911565b61027561038f366004610de7565b610a15565b6102756103a2366004610fde565b610a89565b6102756103b5366004610ff9565b610b07565b600254600354600454604080516001600160a01b0394851681529284166020840152921691810191909152606001610259565b600554610343906001600160a01b031681565b600e54600160a01b900460ff166040519015158152602001610259565b61024f60075481565b61024f600a5481565b61027561043d366004611025565b610b5a565b600b54600a546009545b60408051938452602084019290925290820152606001610259565b6102be610475366004610cdd565b601060209081526000928352604080842090915290825290205462ffffff1681565b600354610343906001600160a01b031681565b600454610343906001600160a01b031681565b600f546001600160a01b0316610343565b600c54610343906001600160a01b031681565b600c546001600160a01b0316610343565b60085460075460065461044c565b60005460015460408051928352602083019190915201610259565b600f54610343906001600160a01b031681565b61024f60005481565b610275610545366004610ff9565b610baa565b61024f60065481565b610275610561366004610cdd565b610bfa565b6005546040805180820190915260018152601960f91b6020820152906001600160a01b031633146105b35760405162461bcd60e51b81526004016105aa9190611047565b60405180910390fd5b50600280546001600160a01b0394851673ffffffffffffffffffffffffffffffffffffffff1991821617909155600380549385169382169390931790925560048054919093169116179055565b7ff0c57e16840df040f15088dc2f81fe391c3923bec73e23a9662efc9c229c6a00805468010000000000000000810460ff16159067ffffffffffffffff1660008115801561064b5750825b905060008267ffffffffffffffff1660011480156106685750303b155b905081158015610676575080155b156106ad576040517ff92ee8a900000000000000000000000000000000000000000000000000000000815260040160405180910390fd5b845467ffffffffffffffff1916600117855583156106e157845468ff00000000000000001916680100000000000000001785555b8e6000819055508d6001819055508c600260006101000a8154816001600160a01b0302191690836001600160a01b031602179055508b600360006101000a8154816001600160a01b0302191690836001600160a01b031602179055508a600460006101000a8154816001600160a01b0302191690836001600160a01b0316021790555089600c60006101000a8154816001600160a01b0302191690836001600160a01b0316021790555088600d60006101000a8154816001600160a01b0302191690836001600160a01b0316021790555087600e60006101000a8154816001600160a01b0302191690836001600160a01b0316021790555086600e60146101000a81548160ff02191690831515021790555085600f60006101000a8154816001600160a01b0302191690836001600160a01b0316021790555033600560006101000a8154816001600160a01b0302191690836001600160a01b03160217905550831561088c57845468ff000000000000000019168555604051600181527fc7f505b2f371ae2175ee4913f4499e1f2633a7b5936321eed1cdaeb6115181d29060200160405180910390a15b505050505050505050505050505050565b6005546040805180820190915260018152601960f91b6020820152906001600160a01b031633146108e15760405162461bcd60e51b81526004016105aa9190611047565b50600c805473ffffffffffffffffffffffffffffffffffffffff19166001600160a01b0392909216919091179055565b6005546040805180820190915260018152601960f91b6020820152906001600160a01b031633146109555760405162461bcd60e51b81526004016105aa9190611047565b5060005b8351811015610a0f5781818151811061097457610974611096565b60200260200101516010600086848151811061099257610992611096565b60200260200101516001600160a01b03166001600160a01b0316815260200190815260200160002060008584815181106109ce576109ce611096565b6020908102919091018101516001600160a01b03168252810191909152604001600020805462ffffff191662ffffff92909216919091179055600101610959565b50505050565b6005546040805180820190915260018152601960f91b6020820152906001600160a01b03163314610a595760405162461bcd60e51b81526004016105aa9190611047565b50600f805473ffffffffffffffffffffffffffffffffffffffff19166001600160a01b0392909216919091179055565b6005546040805180820190915260018152601960f91b6020820152906001600160a01b03163314610acd5760405162461bcd60e51b81526004016105aa9190611047565b50600e8054911515600160a01b027fffffffffffffffffffffff00ffffffffffffffffffffffffffffffffffffffff909216919091179055565b6005546040805180820190915260018152601960f91b6020820152906001600160a01b03163314610b4b5760405162461bcd60e51b81526004016105aa9190611047565b50600b55600a91909155600955565b6005546040805180820190915260018152601960f91b6020820152906001600160a01b03163314610b9e5760405162461bcd60e51b81526004016105aa9190611047565b50600091909155600155565b6005546040805180820190915260018152601960f91b6020820152906001600160a01b03163314610bee5760405162461bcd60e51b81526004016105aa9190611047565b50600855600755600655565b6005546040805180820190915260018152601960f91b6020820152906001600160a01b03163314610c3e5760405162461bcd60e51b81526004016105aa9190611047565b50600d80546001600160a01b0393841673ffffffffffffffffffffffffffffffffffffffff1991821617909155600e8054929093169116179055565b6001600160a01b0381168114610c8f57600080fd5b50565b600080600060608486031215610ca757600080fd5b8335610cb281610c7a565b92506020840135610cc281610c7a565b91506040840135610cd281610c7a565b809150509250925092565b60008060408385031215610cf057600080fd5b8235610cfb81610c7a565b91506020830135610d0b81610c7a565b809150509250929050565b80358015158114610d2657600080fd5b919050565b6000806000806000806000806000806101408b8d031215610d4b57600080fd5b8a35995060208b0135985060408b0135610d6481610c7a565b975060608b0135610d7481610c7a565b965060808b0135610d8481610c7a565b955060a08b0135610d9481610c7a565b945060c08b0135610da481610c7a565b935060e08b0135610db481610c7a565b9250610dc36101008c01610d16565b91506101208b0135610dd481610c7a565b809150509295989b9194979a5092959850565b600060208284031215610df957600080fd5b8135610e0481610c7a565b9392505050565b634e487b7160e01b600052604160045260246000fd5b604051601f8201601f1916810167ffffffffffffffff81118282101715610e4a57610e4a610e0b565b604052919050565b600067ffffffffffffffff821115610e6c57610e6c610e0b565b5060051b60200190565b600082601f830112610e8757600080fd5b81356020610e9c610e9783610e52565b610e21565b8083825260208201915060208460051b870101935086841115610ebe57600080fd5b602086015b84811015610ee3578035610ed681610c7a565b8352918301918301610ec3565b509695505050505050565b600080600060608486031215610f0357600080fd5b833567ffffffffffffffff80821115610f1b57600080fd5b610f2787838801610e76565b9450602091508186013581811115610f3e57600080fd5b610f4a88828901610e76565b945050604086013581811115610f5f57600080fd5b86019050601f81018713610f7257600080fd5b8035610f80610e9782610e52565b81815260059190911b82018301908381019089831115610f9f57600080fd5b928401925b82841015610fcf57833562ffffff81168114610fc05760008081fd5b82529284019290840190610fa4565b80955050505050509250925092565b600060208284031215610ff057600080fd5b610e0482610d16565b60008060006060848603121561100e57600080fd5b505081359360208301359350604090920135919050565b6000806040838503121561103857600080fd5b50508035926020909101359150565b60006020808352835180602085015260005b8181101561107557858101830151858201604001528201611059565b506000604082860101526040601f19601f8301168501019250505092915050565b634e487b7160e01b600052603260045260246000fdfea264697066735822122064970b2c2cb20991716c58c2c3128ab113d33f250ac7d921002865c49be77a2c64736f6c63430008180033",
  "linkReferences": {},
  "deployedLinkReferences": {}
}