{
  "_format": "hh-sol-artifact-1",
  "contractName": "CCFL",
  "sourceName": "contracts/CCFL.sol",
  "abi": [
    {
      "inputs": [],
      "name": "ERC1167FailedCreateClone",
      "type": "error"
    },
    {
      "inputs": [],
      "name": "InvalidInitialization",
      "type": "error"
    },
    {
      "inputs": [],
      "name": "NotInitializing",
      "type": "error"
    },
    {
      "anonymous": false,
      "inputs": [
        {
          "indexed": false,
          "internalType": "uint64",
          "name": "version",
          "type": "uint64"
        }
      ],
      "name": "Initialized",
      "type": "event"
    },
    {
      "anonymous": false,
      "inputs": [
        {
          "indexed": true,
          "internalType": "address",
          "name": "onBehalfOf",
          "type": "address"
        },
        {
          "indexed": true,
          "internalType": "address",
          "name": "_token",
          "type": "address"
        },
        {
          "indexed": true,
          "internalType": "uint256",
          "name": "_amount",
          "type": "uint256"
        }
      ],
      "name": "LiquiditySupplied",
      "type": "event"
    },
    {
      "anonymous": false,
      "inputs": [
        {
          "indexed": true,
          "internalType": "address",
          "name": "to",
          "type": "address"
        },
        {
          "indexed": true,
          "internalType": "address",
          "name": "_token",
          "type": "address"
        },
        {
          "indexed": true,
          "internalType": "uint256",
          "name": "_amount",
          "type": "uint256"
        }
      ],
      "name": "LiquidityWithdrawn",
      "type": "event"
    },
    {
      "anonymous": false,
      "inputs": [
        {
          "indexed": false,
          "internalType": "address",
          "name": "borrower",
          "type": "address"
        },
        {
          "indexed": false,
          "internalType": "uint256",
          "name": "amount",
          "type": "uint256"
        },
        {
          "indexed": false,
          "internalType": "uint256",
          "name": "when",
          "type": "uint256"
        }
      ],
      "name": "Withdraw",
      "type": "event"
    },
    {
      "inputs": [
        {
          "internalType": "contract IERC20Standard",
          "name": "",
          "type": "address"
        }
      ],
      "name": "aTokens",
      "outputs": [
        {
          "internalType": "contract IERC20Standard",
          "name": "",
          "type": "address"
        }
      ],
      "stateMutability": "view",
      "type": "function"
    },
    {
      "inputs": [],
      "name": "aaveAddressProvider",
      "outputs": [
        {
          "internalType": "contract IPoolAddressesProvider",
          "name": "",
          "type": "address"
        }
      ],
      "stateMutability": "view",
      "type": "function"
    },
    {
      "inputs": [
        {
          "internalType": "uint256",
          "name": "_loanId",
          "type": "uint256"
        },
        {
          "internalType": "uint256",
          "name": "_amountCollateral",
          "type": "uint256"
        },
        {
          "internalType": "contract IERC20Standard",
          "name": "_collateral",
          "type": "address"
        },
        {
          "internalType": "bool",
          "name": "_isETH",
          "type": "bool"
        }
      ],
      "name": "addCollateral",
      "outputs": [],
      "stateMutability": "payable",
      "type": "function"
    },
    {
      "inputs": [
        {
          "internalType": "uint256",
          "name": "_loanId",
          "type": "uint256"
        },
        {
          "internalType": "uint256",
          "name": "_amountCollateral",
          "type": "uint256"
        }
      ],
      "name": "addCollateralHealthFactor",
      "outputs": [
        {
          "internalType": "uint256",
          "name": "",
          "type": "uint256"
        }
      ],
      "stateMutability": "view",
      "type": "function"
    },
    {
      "inputs": [
        {
          "internalType": "contract IERC20Standard",
          "name": "",
          "type": "address"
        }
      ],
      "name": "ccflActiveCollaterals",
      "outputs": [
        {
          "internalType": "bool",
          "name": "",
          "type": "bool"
        }
      ],
      "stateMutability": "view",
      "type": "function"
    },
    {
      "inputs": [
        {
          "internalType": "contract IERC20Standard",
          "name": "",
          "type": "address"
        }
      ],
      "name": "ccflActivePoolStableCoins",
      "outputs": [
        {
          "internalType": "bool",
          "name": "",
          "type": "bool"
        }
      ],
      "stateMutability": "view",
      "type": "function"
    },
    {
      "inputs": [
        {
          "internalType": "uint256",
          "name": "",
          "type": "uint256"
        }
      ],
      "name": "ccflPoolStableCoins",
      "outputs": [
        {
          "internalType": "contract IERC20Standard",
          "name": "",
          "type": "address"
        }
      ],
      "stateMutability": "view",
      "type": "function"
    },
    {
      "inputs": [
        {
          "internalType": "contract IERC20Standard",
          "name": "",
          "type": "address"
        }
      ],
      "name": "ccflPools",
      "outputs": [
        {
          "internalType": "contract ICCFLPool",
          "name": "",
          "type": "address"
        }
      ],
      "stateMutability": "view",
      "type": "function"
    },
    {
      "inputs": [
        {
          "internalType": "contract IERC20Standard[]",
          "name": "array",
          "type": "address[]"
        },
        {
          "internalType": "contract IERC20Standard",
          "name": "el",
          "type": "address"
        }
      ],
      "name": "checkExistElement",
      "outputs": [
        {
          "internalType": "bool",
          "name": "",
          "type": "bool"
        }
      ],
      "stateMutability": "pure",
      "type": "function"
    },
    {
      "inputs": [
        {
          "internalType": "uint256",
          "name": "",
          "type": "uint256"
        }
      ],
      "name": "collateralTokens",
      "outputs": [
        {
          "internalType": "contract IERC20Standard",
          "name": "",
          "type": "address"
        }
      ],
      "stateMutability": "view",
      "type": "function"
    },
    {
      "inputs": [
        {
          "internalType": "address",
          "name": "",
          "type": "address"
        },
        {
          "internalType": "contract IERC20Standard",
          "name": "",
          "type": "address"
        }
      ],
      "name": "collaterals",
      "outputs": [
        {
          "internalType": "uint256",
          "name": "",
          "type": "uint256"
        }
      ],
      "stateMutability": "view",
      "type": "function"
    },
    {
      "inputs": [
        {
          "internalType": "uint256",
          "name": "_amount",
          "type": "uint256"
        },
        {
          "internalType": "contract IERC20Standard",
          "name": "_stableCoin",
          "type": "address"
        },
        {
          "internalType": "uint256",
          "name": "_amountCollateral",
          "type": "uint256"
        },
        {
          "internalType": "contract IERC20Standard",
          "name": "_collateral",
          "type": "address"
        },
        {
          "internalType": "bool",
          "name": "_isYieldGenerating",
          "type": "bool"
        },
        {
          "internalType": "bool",
          "name": "_isETH",
          "type": "bool"
        }
      ],
      "name": "createLoan",
      "outputs": [],
      "stateMutability": "payable",
      "type": "function"
    },
    {
      "inputs": [],
      "name": "earnSharePercent",
      "outputs": [
        {
          "internalType": "uint256",
          "name": "",
          "type": "uint256"
        }
      ],
      "stateMutability": "view",
      "type": "function"
    },
    {
      "inputs": [],
      "name": "factory",
      "outputs": [
        {
          "internalType": "contract IUniswapV3Factory",
          "name": "",
          "type": "address"
        }
      ],
      "stateMutability": "view",
      "type": "function"
    },
    {
      "inputs": [
        {
          "internalType": "uint256",
          "name": "_loanId",
          "type": "uint256"
        }
      ],
      "name": "getHealthFactor",
      "outputs": [
        {
          "internalType": "uint256",
          "name": "",
          "type": "uint256"
        }
      ],
      "stateMutability": "view",
      "type": "function"
    },
    {
      "inputs": [
        {
          "internalType": "contract IERC20Standard",
          "name": "_stableCoin",
          "type": "address"
        },
        {
          "internalType": "bool",
          "name": "isPool",
          "type": "bool"
        }
      ],
      "name": "getLatestPrice",
      "outputs": [
        {
          "internalType": "uint256",
          "name": "",
          "type": "uint256"
        }
      ],
      "stateMutability": "view",
      "type": "function"
    },
    {
      "inputs": [
        {
          "internalType": "uint256",
          "name": "_loanId",
          "type": "uint256"
        }
      ],
      "name": "getLoanAddress",
      "outputs": [
        {
          "internalType": "address",
          "name": "",
          "type": "address"
        }
      ],
      "stateMutability": "view",
      "type": "function"
    },
    {
      "inputs": [
        {
          "internalType": "address",
          "name": "borrower",
          "type": "address"
        }
      ],
      "name": "getLoanIds",
      "outputs": [
        {
          "internalType": "uint256[]",
          "name": "",
          "type": "uint256[]"
        }
      ],
      "stateMutability": "view",
      "type": "function"
    },
    {
      "inputs": [
        {
          "internalType": "uint256",
          "name": "_amount",
          "type": "uint256"
        },
        {
          "internalType": "contract IERC20Standard",
          "name": "_stableCoin",
          "type": "address"
        },
        {
          "internalType": "contract IERC20Standard",
          "name": "_collateral",
          "type": "address"
        }
      ],
      "name": "getMinimalCollateral",
      "outputs": [
        {
          "internalType": "uint256",
          "name": "",
          "type": "uint256"
        }
      ],
      "stateMutability": "view",
      "type": "function"
    },
    {
      "inputs": [
        {
          "internalType": "contract IERC20Standard[]",
          "name": "_ccflPoolStableCoin",
          "type": "address[]"
        },
        {
          "internalType": "contract AggregatorV3Interface[]",
          "name": "_poolAggregators",
          "type": "address[]"
        },
        {
          "internalType": "contract ICCFLPool[]",
          "name": "_ccflPools",
          "type": "address[]"
        },
        {
          "internalType": "contract IERC20Standard[]",
          "name": "_collateralTokens",
          "type": "address[]"
        },
        {
          "internalType": "contract AggregatorV3Interface[]",
          "name": "_collateralAggregators",
          "type": "address[]"
        },
        {
          "internalType": "contract IERC20Standard[]",
          "name": "_aTokens",
          "type": "address[]"
        },
        {
          "internalType": "contract IPoolAddressesProvider",
          "name": "_aaveAddressProvider",
          "type": "address"
        },
        {
          "internalType": "uint256",
          "name": "_maxLTV",
          "type": "uint256"
        },
        {
          "internalType": "uint256",
          "name": "_liquidationThreshold",
          "type": "uint256"
        },
        {
          "internalType": "contract ICCFLLoan",
          "name": "_ccflLoan",
          "type": "address"
        }
      ],
      "name": "initialize",
      "outputs": [],
      "stateMutability": "nonpayable",
      "type": "function"
    },
    {
      "inputs": [
        {
          "internalType": "uint256",
          "name": "_loanId",
          "type": "uint256"
        }
      ],
      "name": "liquidate",
      "outputs": [],
      "stateMutability": "nonpayable",
      "type": "function"
    },
    {
      "inputs": [],
      "name": "liquidationThreshold",
      "outputs": [
        {
          "internalType": "uint256",
          "name": "",
          "type": "uint256"
        }
      ],
      "stateMutability": "view",
      "type": "function"
    },
    {
      "inputs": [],
      "name": "liquidator",
      "outputs": [
        {
          "internalType": "address",
          "name": "",
          "type": "address"
        }
      ],
      "stateMutability": "view",
      "type": "function"
    },
    {
      "inputs": [],
      "name": "loandIds",
      "outputs": [
        {
          "internalType": "uint256",
          "name": "",
          "type": "uint256"
        }
      ],
      "stateMutability": "view",
      "type": "function"
    },
    {
      "inputs": [],
      "name": "maxLTV",
      "outputs": [
        {
          "internalType": "uint256",
          "name": "",
          "type": "uint256"
        }
      ],
      "stateMutability": "view",
      "type": "function"
    },
    {
      "inputs": [],
      "name": "owner",
      "outputs": [
        {
          "internalType": "address",
          "name": "",
          "type": "address"
        }
      ],
      "stateMutability": "view",
      "type": "function"
    },
    {
      "inputs": [],
      "name": "penaltyLender",
      "outputs": [
        {
          "internalType": "uint256",
          "name": "",
          "type": "uint256"
        }
      ],
      "stateMutability": "view",
      "type": "function"
    },
    {
      "inputs": [],
      "name": "penaltyLiquidator",
      "outputs": [
        {
          "internalType": "uint256",
          "name": "",
          "type": "uint256"
        }
      ],
      "stateMutability": "view",
      "type": "function"
    },
    {
      "inputs": [],
      "name": "penaltyPlatform",
      "outputs": [
        {
          "internalType": "uint256",
          "name": "",
          "type": "uint256"
        }
      ],
      "stateMutability": "view",
      "type": "function"
    },
    {
      "inputs": [],
      "name": "platform",
      "outputs": [
        {
          "internalType": "address",
          "name": "",
          "type": "address"
        }
      ],
      "stateMutability": "view",
      "type": "function"
    },
    {
      "inputs": [
        {
          "internalType": "contract IERC20Standard",
          "name": "",
          "type": "address"
        }
      ],
      "name": "priceFeeds",
      "outputs": [
        {
          "internalType": "contract AggregatorV3Interface",
          "name": "",
          "type": "address"
        }
      ],
      "stateMutability": "view",
      "type": "function"
    },
    {
      "inputs": [
        {
          "internalType": "contract IERC20Standard",
          "name": "",
          "type": "address"
        }
      ],
      "name": "pricePoolFeeds",
      "outputs": [
        {
          "internalType": "contract AggregatorV3Interface",
          "name": "",
          "type": "address"
        }
      ],
      "stateMutability": "view",
      "type": "function"
    },
    {
      "inputs": [
        {
          "internalType": "uint256",
          "name": "_loanId",
          "type": "uint256"
        },
        {
          "internalType": "uint256",
          "name": "_amount",
          "type": "uint256"
        }
      ],
      "name": "repayHealthFactor",
      "outputs": [
        {
          "internalType": "uint256",
          "name": "",
          "type": "uint256"
        }
      ],
      "stateMutability": "view",
      "type": "function"
    },
    {
      "inputs": [
        {
          "internalType": "uint256",
          "name": "_loanId",
          "type": "uint256"
        },
        {
          "internalType": "uint256",
          "name": "_amount",
          "type": "uint256"
        },
        {
          "internalType": "contract IERC20Standard",
          "name": "_stableCoin",
          "type": "address"
        }
      ],
      "name": "repayLoan",
      "outputs": [],
      "stateMutability": "nonpayable",
      "type": "function"
    },
    {
      "inputs": [
        {
          "internalType": "contract IPoolAddressesProvider",
          "name": "_aaveAddressProvider",
          "type": "address"
        }
      ],
      "name": "setAaveProvider",
      "outputs": [],
      "stateMutability": "nonpayable",
      "type": "function"
    },
    {
      "inputs": [
        {
          "internalType": "contract IERC20Standard",
          "name": "_token",
          "type": "address"
        },
        {
          "internalType": "bool",
          "name": "_isActived",
          "type": "bool"
        },
        {
          "internalType": "bool",
          "name": "_isPoolToken",
          "type": "bool"
        }
      ],
      "name": "setActiveToken",
      "outputs": [],
      "stateMutability": "nonpayable",
      "type": "function"
    },
    {
      "inputs": [
        {
          "internalType": "contract ICCFLLoan",
          "name": "_loan",
          "type": "address"
        }
      ],
      "name": "setCCFLLoan",
      "outputs": [],
      "stateMutability": "nonpayable",
      "type": "function"
    },
    {
      "inputs": [
        {
          "internalType": "contract IERC20Standard[]",
          "name": "_collateralTokens",
          "type": "address[]"
        },
        {
          "internalType": "contract AggregatorV3Interface[]",
          "name": "_collateralAggregators",
          "type": "address[]"
        },
        {
          "internalType": "contract IERC20Standard[]",
          "name": "_aTokens",
          "type": "address[]"
        }
      ],
      "name": "setCollaterals",
      "outputs": [],
      "stateMutability": "nonpayable",
      "type": "function"
    },
    {
      "inputs": [
        {
          "internalType": "uint256",
          "name": "_earnSharePercent",
          "type": "uint256"
        }
      ],
      "name": "setEarnSharePercent",
      "outputs": [],
      "stateMutability": "nonpayable",
      "type": "function"
    },
    {
      "inputs": [
        {
          "internalType": "uint256",
          "name": "_platform",
          "type": "uint256"
        },
        {
          "internalType": "uint256",
          "name": "_liquidator",
          "type": "uint256"
        },
        {
          "internalType": "uint256",
          "name": "_lender",
          "type": "uint256"
        }
      ],
      "name": "setPenalty",
      "outputs": [],
      "stateMutability": "nonpayable",
      "type": "function"
    },
    {
      "inputs": [
        {
          "internalType": "address",
          "name": "_liquidator",
          "type": "address"
        },
        {
          "internalType": "address",
          "name": "_platform",
          "type": "address"
        }
      ],
      "name": "setPlatformAddress",
      "outputs": [],
      "stateMutability": "nonpayable",
      "type": "function"
    },
    {
      "inputs": [
        {
          "internalType": "contract IERC20Standard[]",
          "name": "_ccflPoolStableCoin",
          "type": "address[]"
        },
        {
          "internalType": "contract AggregatorV3Interface[]",
          "name": "_poolAggregators",
          "type": "address[]"
        },
        {
          "internalType": "contract ICCFLPool[]",
          "name": "_ccflPools",
          "type": "address[]"
        }
      ],
      "name": "setPools",
      "outputs": [],
      "stateMutability": "nonpayable",
      "type": "function"
    },
    {
      "inputs": [
        {
          "internalType": "contract ISwapRouter",
          "name": "_swapRouter",
          "type": "address"
        },
        {
          "internalType": "contract IUniswapV3Factory",
          "name": "_factory",
          "type": "address"
        }
      ],
      "name": "setSwapRouter",
      "outputs": [],
      "stateMutability": "nonpayable",
      "type": "function"
    },
    {
      "inputs": [
        {
          "internalType": "uint256",
          "name": "_maxLTV",
          "type": "uint256"
        },
        {
          "internalType": "uint256",
          "name": "_liquidationThreshold",
          "type": "uint256"
        }
      ],
      "name": "setThreshold",
      "outputs": [],
      "stateMutability": "nonpayable",
      "type": "function"
    },
    {
      "inputs": [
        {
          "internalType": "contract IWETH",
          "name": "_iWETH",
          "type": "address"
        }
      ],
      "name": "setWETH",
      "outputs": [],
      "stateMutability": "nonpayable",
      "type": "function"
    },
    {
      "inputs": [
        {
          "internalType": "address",
          "name": "",
          "type": "address"
        },
        {
          "internalType": "uint256",
          "name": "",
          "type": "uint256"
        }
      ],
      "name": "userLoans",
      "outputs": [
        {
          "internalType": "uint256",
          "name": "",
          "type": "uint256"
        }
      ],
      "stateMutability": "view",
      "type": "function"
    },
    {
      "inputs": [],
      "name": "wETH",
      "outputs": [
        {
          "internalType": "contract IWETH",
          "name": "",
          "type": "address"
        }
      ],
      "stateMutability": "view",
      "type": "function"
    },
    {
      "inputs": [
        {
          "internalType": "uint256",
          "name": "_loanId",
          "type": "uint256"
        },
        {
          "internalType": "bool",
          "name": "isETH",
          "type": "bool"
        }
      ],
      "name": "withdrawAllCollateral",
      "outputs": [],
      "stateMutability": "nonpayable",
      "type": "function"
    },
    {
      "inputs": [
        {
          "internalType": "contract IERC20Standard",
          "name": "_stableCoin",
          "type": "address"
        },
        {
          "internalType": "uint256",
          "name": "_loanId",
          "type": "uint256"
        }
      ],
      "name": "withdrawLoan",
      "outputs": [],
      "stateMutability": "nonpayable",
      "type": "function"
    },
    {
      "stateMutability": "payable",
      "type": "receive"
    }
  ],
  "bytecode": "0x608060405234801561001057600080fd5b5061430b806100206000396000f3fe6080604052600436106103225760003560e01c80638da5cb5b116101a5578063cdaabe41116100ec578063ec7be39d11610095578063f3cf4ada1161006f578063f3cf4ada1461094f578063f6597bbb1461096f578063f8f126ff14610985578063fdb2b32c146109a557600080fd5b8063ec7be39d146108f9578063f242862114610919578063f384bd051461093957600080fd5b8063e43b03d6116100c6578063e43b03d614610874578063e51e119e14610894578063e787ea2c146108c957600080fd5b8063cdaabe4114610814578063d8bad5bd14610834578063dc40e2d01461085457600080fd5b8063b3bffeaa1161014e578063c0d0154611610128578063c0d015461461079e578063c45a0155146107d4578063c694fdc1146107f457600080fd5b8063b3bffeaa1461072e578063b92dd9251461074e578063b9c362091461077e57600080fd5b8063a58bab621161017f578063a58bab62146106ef578063a8700c3c14610705578063ae6189f81461071857600080fd5b80638da5cb5b14610663578063989397d4146106835780639dcb511a146106b957600080fd5b8063474843ea11610269578063626a35fb116102125780636eb0fdd0116101ec5780636eb0fdd01461060d578063756078151461062d5780638ba02e1c1461064d57600080fd5b8063626a35fb146105a057806364b52097146105c05780636b64c885146105e057600080fd5b80635b769f3c116102435780635b769f3c146105405780635c8edac414610560578063611f347d1461058057600080fd5b8063474843ea146104ed5780634bde38c81461050d5780634dd7bd3f1461052d57600080fd5b806338ef6717116102cb5780634031234c116102a55780634031234c146104975780634046ebae146104ad578063415f1240146104cd57600080fd5b806338ef6717146104215780633a2ad9ae146104415780633e108ad91461046157600080fd5b806317845c69116102fc57806317845c69146103b15780631d9eb5d9146103d157806325e9d2fa1461040157600080fd5b80630769594d1461032e578063101b9d3114610350578063172c48c71461037957600080fd5b3661032957005b600080fd5b34801561033a57600080fd5b5061034e61034936600461398e565b6109db565b005b34801561035c57600080fd5b5061036660185481565b6040519081526020015b60405180910390f35b34801561038557600080fd5b50610399610394366004613a16565b610bdf565b6040516001600160a01b039091168152602001610370565b3480156103bd57600080fd5b506103666103cc366004613a16565b610c09565b3480156103dd57600080fd5b506103f16103ec366004613a2f565b610d87565b6040519015158152602001610370565b34801561040d57600080fd5b5061036661041c366004613a81565b610de2565b34801561042d57600080fd5b5061034e61043c366004613aae565b610f62565b34801561044d57600080fd5b5061034e61045c366004613ae0565b610fcf565b34801561046d57600080fd5b5061039961047c366004613aae565b600a602052600090815260409020546001600160a01b031681565b3480156104a357600080fd5b50610366600c5481565b3480156104b957600080fd5b50601154610399906001600160a01b031681565b3480156104d957600080fd5b5061034e6104e8366004613a16565b6111de565b3480156104f957600080fd5b5061034e610508366004613aae565b6118b3565b34801561051957600080fd5b50601254610399906001600160a01b031681565b61034e61053b366004613b2b565b611920565b34801561054c57600080fd5b5061034e61055b366004613aae565b611bbe565b34801561056c57600080fd5b5061034e61057b366004613b75565b611c2b565b34801561058c57600080fd5b5061034e61059b366004613b9a565b611d32565b3480156105ac57600080fd5b5061034e6105bb366004613a16565b6120f5565b3480156105cc57600080fd5b5061034e6105db36600461398e565b612145565b3480156105ec57600080fd5b506106006105fb366004613aae565b61233c565b6040516103709190613cc7565b34801561061957600080fd5b5061034e610628366004613d0b565b6123a8565b34801561063957600080fd5b50610366610648366004613d39565b612656565b34801561065957600080fd5b5061036660015481565b34801561066f57600080fd5b50601354610399906001600160a01b031681565b34801561068f57600080fd5b5061039961069e366004613aae565b600e602052600090815260409020546001600160a01b031681565b3480156106c557600080fd5b506103996106d4366004613aae565b600d602052600090815260409020546001600160a01b031681565b3480156106fb57600080fd5b5061036660175481565b61034e610713366004613d70565b612792565b34801561072457600080fd5b5061036660195481565b34801561073a57600080fd5b50610366610749366004613de0565b613152565b34801561075a57600080fd5b506103f1610769366004613aae565b60066020526000908152604090205460ff1681565b34801561078a57600080fd5b5061034e610799366004613a81565b613253565b3480156107aa57600080fd5b506103996107b9366004613aae565b6002602052600090815260409020546001600160a01b031681565b3480156107e057600080fd5b50601054610399906001600160a01b031681565b34801561080057600080fd5b5061039961080f366004613a16565b6132a9565b34801561082057600080fd5b50600954610399906001600160a01b031681565b34801561084057600080fd5b5061036661084f366004613e0e565b6132b9565b34801561086057600080fd5b5061034e61086f366004613e3a565b6132ea565b34801561088057600080fd5b5061036661088f366004613a81565b613363565b3480156108a057600080fd5b506103666108af366004613e3a565b600060208181529281526040808220909352908152205481565b3480156108d557600080fd5b506103f16108e4366004613aae565b60086020526000908152604090205460ff1681565b34801561090557600080fd5b5061034e610914366004613e0e565b6134ab565b34801561092557600080fd5b50601454610399906001600160a01b031681565b34801561094557600080fd5b50610366600b5481565b34801561095b57600080fd5b5061034e61096a366004613e68565b613657565b34801561097b57600080fd5b5061036660165481565b34801561099157600080fd5b5061034e6109a0366004613e3a565b6136ad565b3480156109b157600080fd5b506103996109c0366004613a16565b6000908152600560205260409020546001600160a01b031690565b6013546001600160a01b03163314610a2b5760405162461bcd60e51b815260206004820152600e60248201526d37b7363c903a34329037bbb732b960911b60448201526064015b60405180910390fd5b60005b8351811015610bd9576000848281518110610a4b57610a4b613e94565b60200260200101519050610ab96003805480602002602001604051908101604052809291908181526020018280548015610aae57602002820191906000526020600020905b81546001600160a01b03168152600190910190602001808311610a90575b505050505082610d87565b1515600003610b0e57600380546001810182556000919091527fc2575a0e9e593c00f959f8c92f12db2869c3395a3b0502d05e2516446f71f85b0180546001600160a01b0319166001600160a01b0383161790555b828281518110610b2057610b20613e94565b602002602001015160026000836001600160a01b03166001600160a01b0316815260200190815260200160002060006101000a8154816001600160a01b0302191690836001600160a01b03160217905550838281518110610b8357610b83613e94565b6020908102919091018101516001600160a01b039283166000908152600e8352604080822080546001600160a01b0319169590931694909417909155600690915220805460ff1916600190811790915501610a2e565b50505050565b60078181548110610bef57600080fd5b6000918252602090912001546001600160a01b0316905081565b600081815260056020526040808220548151635d3e2fa160e01b815291516001600160a01b039091169183918391635d3e2fa1916004808301926101009291908290030181865afa158015610c62573d6000803e3d6000fd5b505050506040513d601f19601f82011682018060405250810190610c869190613ec0565b60608101516001600160a01b0390811660009081526002602052604080822054905163a52f38d160e01b815260048101899052939450909291169063a52f38d190602401602060405180830381865afa158015610ce7573d6000803e3d6000fd5b505050506040513d601f19601f82011682018060405250810190610d0b9190613f7c565b604051632696439560e11b815260048101829052600060248201529091506001600160a01b03841690634d2c872a90604401602060405180830381865afa158015610d5a573d6000803e3d6000fd5b505050506040513d601f19601f82011682018060405250810190610d7e9190613f7c565b95945050505050565b600080805b8451811015610dd857836001600160a01b0316858281518110610db157610db1613e94565b60200260200101516001600160a01b031603610dd05760019150610dd8565b600101610d8c565b5090505b92915050565b600082815260056020526040808220548151635d3e2fa160e01b815291516001600160a01b039091169183918391635d3e2fa1916004808301926101009291908290030181865afa158015610e3b573d6000803e3d6000fd5b505050506040513d601f19601f82011682018060405250810190610e5f9190613ec0565b60608101516001600160a01b0390811660009081526002602052604080822054905163a52f38d160e01b8152600481018a9052939450909291169063a52f38d190602401602060405180830381865afa158015610ec0573d6000803e3d6000fd5b505050506040513d601f19601f82011682018060405250810190610ee49190613f7c565b604051632696439560e11b815260048101829052602481018790529091506001600160a01b03841690634d2c872a906044015b602060405180830381865afa158015610f34573d6000803e3d6000fd5b505050506040513d601f19601f82011682018060405250810190610f589190613f7c565b9695505050505050565b6013546001600160a01b03163314610fad5760405162461bcd60e51b815260206004820152600e60248201526d37b7363c903a34329037bbb732b960911b6044820152606401610a22565b600980546001600160a01b0319166001600160a01b0392909216919091179055565b6013546001600160a01b0316331461101a5760405162461bcd60e51b815260206004820152600e60248201526d37b7363c903a34329037bbb732b960911b6044820152606401610a22565b801561110057611084600380548060200260200160405190810160405280929190818152602001828054801561107957602002820191906000526020600020905b81546001600160a01b0316815260019091019060200180831161105b575b505050505084610d87565b15156001146110d55760405162461bcd60e51b815260206004820152601460248201527f546f6b656e206973206e6f7420657869737465640000000000000000000000006044820152606401610a22565b6001600160a01b0383166000908152600860205260409020805483151560ff19909116179055505050565b6111626007805480602002602001604051908101604052809291908181526020018280548015611079576020028201919060005260206000209081546001600160a01b0316815260019091019060200180831161105b57505050505084610d87565b15156001146111b35760405162461bcd60e51b815260206004820152601460248201527f546f6b656e206973206e6f7420657869737465640000000000000000000000006044820152606401610a22565b6001600160a01b0383166000908152600660205260409020805483151560ff19909116179055505050565b600081815260056020526040808220548151635d3e2fa160e01b815291516001600160a01b0390911692918391635d3e2fa191600480820192610100929091908290030181865afa158015611237573d6000803e3d6000fd5b505050506040513d601f19601f8201168201806040525081019061125b9190613ec0565b60608101516001600160a01b0390811660009081526002602052604080822054905163a52f38d160e01b815260048101889052939450909291169063a52f38d190602401602060405180830381865afa1580156112bc573d6000803e3d6000fd5b505050506040513d601f19601f820116820180604052508101906112e09190613f7c565b9050826001600160a01b031663d296d1f1826016546017546018546113059190613fab565b61130f9190613fab565b6040516001600160e01b031960e085901b16815260048101929092526024820152604401600060405180830381600087803b15801561134d57600080fd5b505af1158015611361573d6000803e3d6000fd5b5050505081606001516001600160a01b03166323b872dd84306127106016546017546018546127106113939190613fab565b61139d9190613fab565b6113a79190613fab565b6113b19087613fbe565b6113bb9190613fd5565b6040516001600160e01b031960e086901b1681526001600160a01b03938416600482015292909116602483015260448201526064016020604051808303816000875af115801561140f573d6000803e3d6000fd5b505050506040513d601f19601f820116820180604052508101906114339190613ff7565b5060608201516001600160a01b039081166000818152600260205260409081902054905163095ea7b360e01b815292166004830152602482018390529063095ea7b3906044016020604051808303816000875af1158015611498573d6000803e3d6000fd5b505050506040513d601f19601f820116820180604052508101906114bc9190613ff7565b5060608201516001600160a01b039081166000908152600260205260409081902054905163d8aed14560e01b8152600481018790526024810184905291169063d8aed14590604401600060405180830381600087803b15801561151e57600080fd5b505af1158015611532573d6000803e3d6000fd5b5050505081606001516001600160a01b031663a9059cbb601260009054906101000a90046001600160a01b0316612710601654856115709190613fbe565b61157a9190613fd5565b6040516001600160e01b031960e085901b1681526001600160a01b03909216600483015260248201526044016020604051808303816000875af11580156115c5573d6000803e3d6000fd5b505050506040513d601f19601f820116820180604052508101906115e99190613ff7565b5060608201516011546017546001600160a01b039283169263a9059cbb921690612710906116179086613fbe565b6116219190613fd5565b6040516001600160e01b031960e085901b1681526001600160a01b03909216600483015260248201526044016020604051808303816000875af115801561166c573d6000803e3d6000fd5b505050506040513d601f19601f820116820180604052508101906116909190613ff7565b506000612710601754836116a49190613fbe565b6116ae9190613fd5565b612710601654846116bf9190613fbe565b6116c99190613fd5565b836127106016546017546018546127106116e39190613fab565b6116ed9190613fab565b6116f79190613fab565b6117019087613fbe565b61170b9190613fd5565b6117159190614014565b61171f9190614014565b6117299190614014565b60608401516001600160a01b039081166000818152600260205260409081902054905163095ea7b360e01b8152921660048301526024820183905291925063095ea7b3906044016020604051808303816000875af115801561178f573d6000803e3d6000fd5b505050506040513d601f19601f820116820180604052508101906117b39190613ff7565b5060608301516001600160a01b03908116600090815260026020526040908190205490517f7f3940310000000000000000000000000000000000000000000000000000000081526004810188905260248101849052911690637f39403190604401600060405180830381600087803b15801561182e57600080fd5b505af1158015611842573d6000803e3d6000fd5b50505060008681526005602052604080822054815163232fa73360e01b815291516001600160a01b03909116935063232fa7339260048084019391929182900301818387803b15801561189457600080fd5b505af11580156118a8573d6000803e3d6000fd5b505050505050505050565b6013546001600160a01b031633146118fe5760405162461bcd60e51b815260206004820152600e60248201526d37b7363c903a34329037bbb732b960911b6044820152606401610a22565b600480546001600160a01b0319166001600160a01b0392909216919091179055565b6001600160a01b038216600090815260086020526040902054829060ff16151560011461198f5760405162461bcd60e51b815260206004820152601f60248201527f436f6c6c61746572616c20746f6b656e206973206e6f742061637469766564006044820152606401610a22565b8115611a4f57348411156119e55760405162461bcd60e51b815260206004820181905260248201527f646f206e6f74206861766520656e6f756768206465706f7369746564204554486044820152606401610a22565b601460009054906101000a90046001600160a01b03166001600160a01b031663d0e30db0856040518263ffffffff1660e01b81526004016000604051808303818588803b158015611a3557600080fd5b505af1158015611a49573d6000803e3d6000fd5b50505050505b60008581526005602052604090819020549051633390ef1360e11b8152600481018690526001600160a01b03909116908190636721de2690602401600060405180830381600087803b158015611aa457600080fd5b505af1158015611ab8573d6000803e3d6000fd5b505050508215611b3b5760405163a9059cbb60e01b81526001600160a01b0382811660048301526024820187905285169063a9059cbb906044016020604051808303816000875af1158015611b11573d6000803e3d6000fd5b505050506040513d601f19601f82011682018060405250810190611b359190613ff7565b50611bb6565b6040516323b872dd60e01b81523360048201526001600160a01b038281166024830152604482018790528516906323b872dd906064016020604051808303816000875af1158015611b90573d6000803e3d6000fd5b505050506040513d601f19601f82011682018060405250810190611bb49190613ff7565b505b505050505050565b6013546001600160a01b03163314611c095760405162461bcd60e51b815260206004820152600e60248201526d37b7363c903a34329037bbb732b960911b6044820152606401610a22565b601480546001600160a01b0319166001600160a01b0392909216919091179055565b600082815260056020526040808220548151635d3e2fa160e01b815291516001600160a01b0390911692918391635d3e2fa191600480820192610100929091908290030181865afa158015611c84573d6000803e3d6000fd5b505050506040513d601f19601f82011682018060405250810190611ca89190613ec0565b60208101516040517f102cb82e0000000000000000000000000000000000000000000000000000000081526001600160a01b039182166004820152851515602482015291925083169063102cb82e90604401600060405180830381600087803b158015611d1457600080fd5b505af1158015611d28573d6000803e3d6000fd5b5050505050505050565b7ff0c57e16840df040f15088dc2f81fe391c3923bec73e23a9662efc9c229c6a00805468010000000000000000810460ff16159067ffffffffffffffff16600081158015611d7d5750825b905060008267ffffffffffffffff166001148015611d9a5750303b155b905081158015611da8575080155b15611ddf576040517ff92ee8a900000000000000000000000000000000000000000000000000000000815260040160405180910390fd5b845467ffffffffffffffff191660011785558315611e1357845468ff00000000000000001916680100000000000000001785555b8e60039080519060200190611e299291906137b1565b506001805560005b600354811015611f3657600060038281548110611e5057611e50613e94565b6000918252602090912001548f516001600160a01b0390911691508f9083908110611e7d57611e7d613e94565b602002602001015160026000836001600160a01b03166001600160a01b0316815260200190815260200160002060006101000a8154816001600160a01b0302191690836001600160a01b031602179055508f8281518110611ee057611ee0613e94565b6020908102919091018101516001600160a01b039283166000908152600e8352604080822080546001600160a01b0319169590931694909417909155600690915220805460ff1916600190811790915501611e31565b508b51611f4a9060079060208f01906137b1565b5060005b60075481101561205357600060078281548110611f6d57611f6d613e94565b6000918252602090912001548d516001600160a01b0390911691508d9083908110611f9a57611f9a613e94565b6020026020010151600d6000836001600160a01b03166001600160a01b0316815260200190815260200160002060006101000a8154816001600160a01b0302191690836001600160a01b031602179055508b8281518110611ffd57611ffd613e94565b6020908102919091018101516001600160a01b039283166000908152600a8352604080822080546001600160a01b0319169590931694909417909155600890915220805460ff1916600190811790915501611f4e565b50600980546001600160a01b03808c166001600160a01b0319928316179092556004805492891692821692909217909155600b899055600c889055601380549091163317905583156120e457845468ff000000000000000019168555604051600181527fc7f505b2f371ae2175ee4913f4499e1f2633a7b5936321eed1cdaeb6115181d29060200160405180910390a15b505050505050505050505050505050565b6013546001600160a01b031633146121405760405162461bcd60e51b815260206004820152600e60248201526d37b7363c903a34329037bbb732b960911b6044820152606401610a22565b601955565b6013546001600160a01b031633146121905760405162461bcd60e51b815260206004820152600e60248201526d37b7363c903a34329037bbb732b960911b6044820152606401610a22565b60005b8351811015610bd95760008482815181106121b0576121b0613e94565b6020026020010151905061221c6007805480602002602001604051908101604052809291908181526020018280548015610aae576020028201919060005260206000209081546001600160a01b03168152600190910190602001808311610a9057505050505082610d87565b151560000361227157600780546001810182556000919091527fa66cc928b5edb82af9bd49922954155ab7b0942694bea4ce44661d9a8736c6880180546001600160a01b0319166001600160a01b0383161790555b83828151811061228357612283613e94565b6020026020010151600d6000836001600160a01b03166001600160a01b0316815260200190815260200160002060006101000a8154816001600160a01b0302191690836001600160a01b031602179055508282815181106122e6576122e6613e94565b6020908102919091018101516001600160a01b039283166000908152600a8352604080822080546001600160a01b0319169590931694909417909155600890915220805460ff1916600190811790915501612193565b6001600160a01b03811660009081526015602090815260409182902080548351818402810184019094528084526060939283018282801561239c57602002820191906000526020600020905b815481526020019060010190808311612388575b50505050509050919050565b6001600160a01b038116600090815260066020526040902054819060ff1615156001146124175760405162461bcd60e51b815260206004820152601960248201527f506f6f6c20746f6b656e206973206e6f742061637469766564000000000000006044820152606401610a22565b6040516323b872dd60e01b8152336004820152306024820152604481018490526001600160a01b038316906323b872dd906064016020604051808303816000875af115801561246a573d6000803e3d6000fd5b505050506040513d601f19601f8201168201806040525081019061248e9190613ff7565b506001600160a01b038281166000818152600260205260409081902054905163095ea7b360e01b815292166004830152602482018590529063095ea7b3906044016020604051808303816000875af11580156124ee573d6000803e3d6000fd5b505050506040513d601f19601f820116820180604052508101906125129190613ff7565b506001600160a01b038281166000908152600260205260409081902054905163d8aed14560e01b8152600481018790526024810186905291169063d8aed14590604401600060405180830381600087803b15801561256f57600080fd5b505af1158015612583573d6000803e3d6000fd5b505050506001600160a01b038281166000908152600260205260409081902054905163a52f38d160e01b81526004810187905291169063a52f38d190602401602060405180830381865afa1580156125df573d6000803e3d6000fd5b505050506040513d601f19601f820116820180604052508101906126039190613f7c565b600003610bd95760008481526005602052604080822054815163232fa73360e01b815291516001600160a01b039091169263232fa733926004808201939182900301818387803b158015611d1457600080fd5b6000612663826000613152565b612710846001600160a01b031663313ce5676040518163ffffffff1660e01b8152600401602060405180830381865afa1580156126a4573d6000803e3d6000fd5b505050506040513d601f19601f820116820180604052508101906126c89190614027565b6126d390600a61412e565b6126de866001613152565b600b54866001600160a01b031663313ce5676040518163ffffffff1660e01b8152600401602060405180830381865afa15801561271f573d6000803e3d6000fd5b505050506040513d601f19601f820116820180604052508101906127439190614027565b61274e90600a61412e565b612758908a613fbe565b6127629190613fbe565b61276c9190613fbe565b6127769190613fd5565b6127809190613fd5565b61278a9190613fd5565b949350505050565b6001600160a01b038516600090815260066020526040902054859060ff1615156001146128015760405162461bcd60e51b815260206004820152601960248201527f506f6f6c20746f6b656e206973206e6f742061637469766564000000000000006044820152606401610a22565b6001600160a01b038416600090815260086020526040902054849060ff1615156001146128705760405162461bcd60e51b815260206004820152601f60248201527f436f6c6c61746572616c20746f6b656e206973206e6f742061637469766564006044820152606401610a22565b821561293057348611156128c65760405162461bcd60e51b815260206004820181905260248201527f646f206e6f74206861766520656e6f756768206465706f7369746564204554486044820152606401610a22565b601460009054906101000a90046001600160a01b03166001600160a01b031663d0e30db0876040518263ffffffff1660e01b81526004016000604051808303818588803b15801561291657600080fd5b505af115801561292a573d6000803e3d6000fd5b50505050505b866001600160a01b031663313ce5676040518163ffffffff1660e01b8152600401602060405180830381865afa15801561296e573d6000803e3d6000fd5b505050506040513d601f19601f820116820180604052508101906129929190614027565b61299d90600a61412e565b6129a8886001613152565b6129b2908a613fbe565b6129be90612710613fbe565b6129c89190613fd5565b856001600160a01b031663313ce5676040518163ffffffff1660e01b8152600401602060405180830381865afa158015612a06573d6000803e3d6000fd5b505050506040513d601f19601f82011682018060405250810190612a2a9190614027565b612a3590600a61412e565b600b54612a43886000613152565b612a4d908a613fbe565b612a579190613fbe565b612a619190613fd5565b1015612aaf5760405162461bcd60e51b815260206004820152601c60248201527f446f6e2774206861766520656e6f75676820636f6c6c61746572616c000000006044820152606401610a22565b6001600160a01b038088166000908152600260209081526040918290205482517f3b24cc2100000000000000000000000000000000000000000000000000000000815292518c949190911692633b24cc219260048083019391928290030181865afa158015612b22573d6000803e3d6000fd5b505050506040513d601f19601f82011682018060405250810190612b469190613f7c565b1015612b945760405162461bcd60e51b815260206004820152601b60248201527f506f6f6c20646f6e2774206861766520656e6f7567682066756e6400000000006044820152606401610a22565b604080516101008101825260006080820181905260a0820181905260c0820181905260e082018190523360208084018281528486018e815260015486526001600160a01b038e81166060880181905286526002909352938690205485519451915196517fd6bda0c000000000000000000000000000000000000000000000000000000000815260048101959095526024850191909152948116604484015292939092169063d6bda0c090606401600060405180830381600087803b158015612c5b57600080fd5b505af1158015612c6f573d6000803e3d6000fd5b5050506001600160a01b03808b166000908152600e602052604081205460045490831693508a92612ca09116613726565b90506000819050806001600160a01b0316632e38d0b38785600960009054906101000a90046001600160a01b0316600a6000896001600160a01b03166001600160a01b0316815260200190815260200160002060009054906101000a90046001600160a01b0316600b54600c54600d60008c6001600160a01b03166001600160a01b0316815260200190815260200160002060009054906101000a90046001600160a01b03168c601260009054906101000a90046001600160a01b0316601460009054906101000a90046001600160a01b03166040518b63ffffffff1660e01b8152600401612d989a9998979695949392919061413d565b600060405180830381600087803b158015612db257600080fd5b505af1158015612dc6573d6000803e3d6000fd5b50506040517f8ac1b7750000000000000000000000000000000000000000000000000000000081523060048201526001600160a01b0384169250638ac1b7759150602401600060405180830381600087803b158015612e2457600080fd5b505af1158015612e38573d6000803e3d6000fd5b5050600f546010546040517fdc40e2d00000000000000000000000000000000000000000000000000000000081526001600160a01b0392831660048201529082166024820152908416925063dc40e2d09150604401600060405180830381600087803b158015612ea757600080fd5b505af1158015612ebb573d6000803e3d6000fd5b50506019546040517f626a35fb00000000000000000000000000000000000000000000000000000000815260048101919091526001600160a01b038416925063626a35fb9150602401600060405180830381600087803b158015612f1e57600080fd5b505af1158015612f32573d6000803e3d6000fd5b5050604051633390ef1360e11b8152600481018f90526001600160a01b0384169250636721de269150602401600060405180830381600087803b158015612f7857600080fd5b505af1158015612f8c573d6000803e3d6000fd5b50505050881561300f5760405163a9059cbb60e01b81526001600160a01b038381166004830152602482018e90528c169063a9059cbb906044016020604051808303816000875af1158015612fe5573d6000803e3d6000fd5b505050506040513d601f19601f820116820180604052508101906130099190613ff7565b5061308a565b6040516323b872dd60e01b81523360048201526001600160a01b038381166024830152604482018e90528c16906323b872dd906064016020604051808303816000875af1158015613064573d6000803e3d6000fd5b505050506040513d601f19601f820116820180604052508101906130889190613ff7565b505b8915156001036130e857806001600160a01b03166307a6bf696040518163ffffffff1660e01b8152600401600060405180830381600087803b1580156130cf57600080fd5b505af11580156130e3573d6000803e3d6000fd5b505050505b60018054600090815260056020908152604080832080546001600160a01b0319166001600160a01b03871617905533835260158252822083548154808601835591845291832001558154919061313d83614252565b91905055505050505050505050505050505050565b600081151581036131f3576001600160a01b038084166000908152600d6020526040808220548151633fabe5a360e21b8152915192938493849384938493169163feaf968c9160048082019260a0929091908290030181865afa1580156131bd573d6000803e3d6000fd5b505050506040513d601f19601f820116820180604052508101906131e19190614285565b50919850610ddc975050505050505050565b6001600160a01b038084166000908152600e6020526040808220548151633fabe5a360e21b8152915192938493849384938493169163feaf968c9160048082019260a0929091908290030181865afa1580156131bd573d6000803e3d6000fd5b6013546001600160a01b0316331461329e5760405162461bcd60e51b815260206004820152600e60248201526d37b7363c903a34329037bbb732b960911b6044820152606401610a22565b600b91909155600c55565b60038181548110610bef57600080fd5b601560205281600052604060002081815481106132d557600080fd5b90600052602060002001600091509150505481565b6013546001600160a01b031633146133355760405162461bcd60e51b815260206004820152600e60248201526d37b7363c903a34329037bbb732b960911b6044820152606401610a22565b600f80546001600160a01b039384166001600160a01b03199182161790915560108054929093169116179055565b600082815260056020526040808220548151635d3e2fa160e01b815291516001600160a01b039091169183918391635d3e2fa1916004808301926101009291908290030181865afa1580156133bc573d6000803e3d6000fd5b505050506040513d601f19601f820116820180604052508101906133e09190613ec0565b60608101516001600160a01b0390811660009081526002602052604080822054905163a52f38d160e01b8152600481018a9052939450909291169063a52f38d190602401602060405180830381865afa158015613441573d6000803e3d6000fd5b505050506040513d601f19601f820116820180604052508101906134659190613f7c565b90506001600160a01b038316634d2c872a6134808784614014565b6040516001600160e01b031960e084901b168152600481019190915260006024820152604401610f17565b600081815260056020526040808220548151635d3e2fa160e01b815291516001600160a01b0390911692918391635d3e2fa191600480820192610100929091908290030181865afa158015613504573d6000803e3d6000fd5b505050506040513d601f19601f820116820180604052508101906135289190613ec0565b60208101519091506001600160a01b031633146135875760405162461bcd60e51b815260206004820152600e60248201527f4e6f74206f776e6572206c6f616e0000000000000000000000000000000000006044820152606401610a22565b6001600160a01b03848116600090815260026020908152604091829020549084015191517fec7be39d0000000000000000000000000000000000000000000000000000000081529183166004830152602482018690529091169063ec7be39d90604401600060405180830381600087803b15801561360457600080fd5b505af1158015613618573d6000803e3d6000fd5b50505050816001600160a01b031663fab320e96040518163ffffffff1660e01b8152600401600060405180830381600087803b158015611d1457600080fd5b6013546001600160a01b031633146136a25760405162461bcd60e51b815260206004820152600e60248201526d37b7363c903a34329037bbb732b960911b6044820152606401610a22565b601855601755601655565b6013546001600160a01b031633146136f85760405162461bcd60e51b815260206004820152600e60248201526d37b7363c903a34329037bbb732b960911b6044820152606401610a22565b601180546001600160a01b039384166001600160a01b03199182161790915560128054929093169116179055565b6000763d602d80600a3d3981f3363d3d373d3d3d363d730000008260601b60e81c176000526e5af43d82803e903d91602b57fd5bf38260781b17602052603760096000f090506001600160a01b0381166137ac576040517fc2f868f400000000000000000000000000000000000000000000000000000000815260040160405180910390fd5b919050565b828054828255906000526020600020908101928215613806579160200282015b8281111561380657825182546001600160a01b0319166001600160a01b039091161782556020909201916001909101906137d1565b50613812929150613816565b5090565b5b808211156138125760008155600101613817565b634e487b7160e01b600052604160045260246000fd5b604051601f8201601f1916810167ffffffffffffffff8111828210171561386a5761386a61382b565b604052919050565b600067ffffffffffffffff82111561388c5761388c61382b565b5060051b60200190565b6001600160a01b03811681146138ab57600080fd5b50565b600082601f8301126138bf57600080fd5b813560206138d46138cf83613872565b613841565b8083825260208201915060208460051b8701019350868411156138f657600080fd5b602086015b8481101561391b57803561390e81613896565b83529183019183016138fb565b509695505050505050565b600082601f83011261393757600080fd5b813560206139476138cf83613872565b8083825260208201915060208460051b87010193508684111561396957600080fd5b602086015b8481101561391b57803561398181613896565b835291830191830161396e565b6000806000606084860312156139a357600080fd5b833567ffffffffffffffff808211156139bb57600080fd5b6139c7878388016138ae565b945060208601359150808211156139dd57600080fd5b6139e987838801613926565b935060408601359150808211156139ff57600080fd5b50613a0c868287016138ae565b9150509250925092565b600060208284031215613a2857600080fd5b5035919050565b60008060408385031215613a4257600080fd5b823567ffffffffffffffff811115613a5957600080fd5b613a65858286016138ae565b9250506020830135613a7681613896565b809150509250929050565b60008060408385031215613a9457600080fd5b50508035926020909101359150565b80356137ac81613896565b600060208284031215613ac057600080fd5b8135613acb81613896565b9392505050565b80151581146138ab57600080fd5b600080600060608486031215613af557600080fd5b8335613b0081613896565b92506020840135613b1081613ad2565b91506040840135613b2081613ad2565b809150509250925092565b60008060008060808587031215613b4157600080fd5b84359350602085013592506040850135613b5a81613896565b91506060850135613b6a81613ad2565b939692955090935050565b60008060408385031215613b8857600080fd5b823591506020830135613a7681613ad2565b6000806000806000806000806000806101408b8d031215613bba57600080fd5b8a3567ffffffffffffffff80821115613bd257600080fd5b613bde8e838f016138ae565b9b5060208d0135915080821115613bf457600080fd5b613c008e838f01613926565b9a5060408d0135915080821115613c1657600080fd5b613c228e838f016138ae565b995060608d0135915080821115613c3857600080fd5b613c448e838f016138ae565b985060808d0135915080821115613c5a57600080fd5b613c668e838f01613926565b975060a08d0135915080821115613c7c57600080fd5b50613c898d828e016138ae565b955050613c9860c08c01613aa3565b935060e08b013592506101008b01359150613cb66101208c01613aa3565b90509295989b9194979a5092959850565b6020808252825182820181905260009190848201906040850190845b81811015613cff57835183529284019291840191600101613ce3565b50909695505050505050565b600080600060608486031215613d2057600080fd5b83359250602084013591506040840135613b2081613896565b600080600060608486031215613d4e57600080fd5b833592506020840135613d6081613896565b91506040840135613b2081613896565b60008060008060008060c08789031215613d8957600080fd5b863595506020870135613d9b81613896565b9450604087013593506060870135613db281613896565b92506080870135613dc281613ad2565b915060a0870135613dd281613ad2565b809150509295509295509295565b60008060408385031215613df357600080fd5b8235613dfe81613896565b91506020830135613a7681613ad2565b60008060408385031215613e2157600080fd5b8235613e2c81613896565b946020939093013593505050565b60008060408385031215613e4d57600080fd5b8235613e5881613896565b91506020830135613a7681613896565b600080600060608486031215613e7d57600080fd5b505081359360208301359350604090920135919050565b634e487b7160e01b600052603260045260246000fd5b80516137ac81613896565b80516137ac81613ad2565b6000610100808385031215613ed457600080fd5b6040519081019067ffffffffffffffff82118183101715613ef757613ef761382b565b816040528351815260208401519150613f0f82613896565b81602082015260408401516040820152613f2b60608501613eaa565b6060820152613f3c60808501613eb5565b6080820152613f4d60a08501613eb5565b60a0820152613f5e60c08501613eb5565b60c0820152613f6f60e08501613eb5565b60e0820152949350505050565b600060208284031215613f8e57600080fd5b5051919050565b634e487b7160e01b600052601160045260246000fd5b80820180821115610ddc57610ddc613f95565b8082028115828204841417610ddc57610ddc613f95565b600082613ff257634e487b7160e01b600052601260045260246000fd5b500490565b60006020828403121561400957600080fd5b8151613acb81613ad2565b81810381811115610ddc57610ddc613f95565b60006020828403121561403957600080fd5b815160ff81168114613acb57600080fd5b600181815b8085111561408557816000190482111561406b5761406b613f95565b8085161561407857918102915b93841c939080029061404f565b509250929050565b60008261409c57506001610ddc565b816140a957506000610ddc565b81600181146140bf57600281146140c9576140e5565b6001915050610ddc565b60ff8411156140da576140da613f95565b50506001821b610ddc565b5060208310610133831016604e8410600b8410161715614108575081810a610ddc565b614112838361404a565b806000190482111561412657614126613f95565b029392505050565b6000613acb60ff84168361408d565b6000610220820190508b51825260208c01516001600160a01b03808216602085015260408e015160408501528060608f0151166060850152505060808c01511515608083015260a08c015161419660a084018215159052565b5060c08c01516141aa60c084018215159052565b5060e08c01516141be60e084018215159052565b506001600160a01b038b166101008301526001600160a01b038a166101208301526001600160a01b03891661014083015287610160830152866101808301526142136101a08301876001600160a01b03169052565b6001600160a01b0385166101c08301526001600160a01b0384166101e08301526001600160a01b0383166102008301529b9a5050505050505050505050565b60006001820161426457614264613f95565b5060010190565b805169ffffffffffffffffffff811681146137ac57600080fd5b600080600080600060a0868803121561429d57600080fd5b6142a68661426b565b94506020860151935060408601519250606086015191506142c96080870161426b565b9050929550929590935056fea2646970667358221220f7eb152903a1eebe0ec1a571ed16604c50e392d3ca255f343a07f88bce93033864736f6c63430008180033",
  "linkReferences": {},
  "deployedLinkReferences": {}
}