{
  "_format": "hh-sol-artifact-1",
  "contractName": "CCFL",
  "sourceName": "contracts/CCFL.sol",
  "abi": [
    {
      "inputs": [],
      "name": "ERC1167FailedCreateClone",
      "type": "error"
    },
    {
      "inputs": [],
      "name": "InvalidInitialization",
      "type": "error"
    },
    {
      "inputs": [],
      "name": "NotInitializing",
      "type": "error"
    },
    {
      "anonymous": false,
      "inputs": [
        {
          "indexed": true,
          "internalType": "address",
          "name": "borrower",
          "type": "address"
        },
        {
          "indexed": false,
          "internalType": "uint256",
          "name": "loanId",
          "type": "uint256"
        },
        {
          "indexed": false,
          "internalType": "uint256",
          "name": "collateralAmount",
          "type": "uint256"
        },
        {
          "indexed": false,
          "internalType": "contract IERC20Standard",
          "name": "collateral",
          "type": "address"
        },
        {
          "indexed": false,
          "internalType": "bool",
          "name": "isETH",
          "type": "bool"
        },
        {
          "indexed": false,
          "internalType": "uint256",
          "name": "timestamp",
          "type": "uint256"
        }
      ],
      "name": "AddCollateral",
      "type": "event"
    },
    {
      "anonymous": false,
      "inputs": [
        {
          "indexed": true,
          "internalType": "address",
          "name": "borrower",
          "type": "address"
        },
        {
          "indexed": false,
          "internalType": "uint256",
          "name": "loanAmount",
          "type": "uint256"
        },
        {
          "indexed": false,
          "internalType": "contract IERC20Standard",
          "name": "supply",
          "type": "address"
        },
        {
          "indexed": false,
          "internalType": "uint256",
          "name": "collateralAmount",
          "type": "uint256"
        },
        {
          "indexed": false,
          "internalType": "contract IERC20Standard",
          "name": "collateral",
          "type": "address"
        },
        {
          "indexed": false,
          "internalType": "bool",
          "name": "isYieldGenerating",
          "type": "bool"
        },
        {
          "indexed": false,
          "internalType": "bool",
          "name": "isETH",
          "type": "bool"
        },
        {
          "indexed": false,
          "internalType": "uint256",
          "name": "loanId",
          "type": "uint256"
        },
        {
          "indexed": false,
          "internalType": "uint256",
          "name": "timestamp",
          "type": "uint256"
        }
      ],
      "name": "CreateLoan",
      "type": "event"
    },
    {
      "anonymous": false,
      "inputs": [
        {
          "indexed": false,
          "internalType": "uint64",
          "name": "version",
          "type": "uint64"
        }
      ],
      "name": "Initialized",
      "type": "event"
    },
    {
      "anonymous": false,
      "inputs": [
        {
          "indexed": true,
          "internalType": "address",
          "name": "liquidator",
          "type": "address"
        },
        {
          "indexed": false,
          "internalType": "uint256",
          "name": "loanId",
          "type": "uint256"
        },
        {
          "indexed": false,
          "internalType": "uint256",
          "name": "timestamp",
          "type": "uint256"
        }
      ],
      "name": "Liquidate",
      "type": "event"
    },
    {
      "anonymous": false,
      "inputs": [
        {
          "indexed": true,
          "internalType": "address",
          "name": "borrower",
          "type": "address"
        },
        {
          "indexed": false,
          "internalType": "uint256",
          "name": "loanId",
          "type": "uint256"
        },
        {
          "indexed": false,
          "internalType": "uint256",
          "name": "amount",
          "type": "uint256"
        },
        {
          "indexed": false,
          "internalType": "contract IERC20Standard",
          "name": "supply",
          "type": "address"
        },
        {
          "indexed": false,
          "internalType": "uint256",
          "name": "timestamp",
          "type": "uint256"
        }
      ],
      "name": "RepayLoan",
      "type": "event"
    },
    {
      "anonymous": false,
      "inputs": [
        {
          "indexed": true,
          "internalType": "address",
          "name": "borrower",
          "type": "address"
        },
        {
          "indexed": false,
          "internalType": "uint256",
          "name": "loanId",
          "type": "uint256"
        },
        {
          "indexed": false,
          "internalType": "bool",
          "name": "isETH",
          "type": "bool"
        },
        {
          "indexed": false,
          "internalType": "uint256",
          "name": "timestamp",
          "type": "uint256"
        }
      ],
      "name": "WithdrawAllCollateral",
      "type": "event"
    },
    {
      "anonymous": false,
      "inputs": [
        {
          "indexed": true,
          "internalType": "address",
          "name": "borrower",
          "type": "address"
        },
        {
          "indexed": false,
          "internalType": "uint256",
          "name": "loanId",
          "type": "uint256"
        },
        {
          "indexed": false,
          "internalType": "contract IERC20Standard",
          "name": "supply",
          "type": "address"
        },
        {
          "indexed": false,
          "internalType": "uint256",
          "name": "timestamp",
          "type": "uint256"
        }
      ],
      "name": "WithdrawLoan",
      "type": "event"
    },
    {
      "inputs": [
        {
          "internalType": "contract IERC20Standard",
          "name": "",
          "type": "address"
        }
      ],
      "name": "aTokens",
      "outputs": [
        {
          "internalType": "contract IERC20Standard",
          "name": "",
          "type": "address"
        }
      ],
      "stateMutability": "view",
      "type": "function"
    },
    {
      "inputs": [],
      "name": "aaveAddressProvider",
      "outputs": [
        {
          "internalType": "contract IPoolAddressesProvider",
          "name": "",
          "type": "address"
        }
      ],
      "stateMutability": "view",
      "type": "function"
    },
    {
      "inputs": [
        {
          "internalType": "uint256",
          "name": "_loanId",
          "type": "uint256"
        },
        {
          "internalType": "uint256",
          "name": "_amountCollateral",
          "type": "uint256"
        },
        {
          "internalType": "contract IERC20Standard",
          "name": "_collateral",
          "type": "address"
        }
      ],
      "name": "addCollateral",
      "outputs": [],
      "stateMutability": "nonpayable",
      "type": "function"
    },
    {
      "inputs": [
        {
          "internalType": "uint256",
          "name": "_loanId",
          "type": "uint256"
        },
        {
          "internalType": "uint256",
          "name": "_amountETH",
          "type": "uint256"
        }
      ],
      "name": "addCollateralByETH",
      "outputs": [],
      "stateMutability": "payable",
      "type": "function"
    },
    {
      "inputs": [
        {
          "internalType": "uint256",
          "name": "_loanId",
          "type": "uint256"
        },
        {
          "internalType": "uint256",
          "name": "_amountCollateral",
          "type": "uint256"
        }
      ],
      "name": "addCollateralHealthFactor",
      "outputs": [
        {
          "internalType": "uint256",
          "name": "",
          "type": "uint256"
        }
      ],
      "stateMutability": "view",
      "type": "function"
    },
    {
      "inputs": [
        {
          "internalType": "contract IERC20Standard",
          "name": "",
          "type": "address"
        }
      ],
      "name": "ccflActiveCollaterals",
      "outputs": [
        {
          "internalType": "bool",
          "name": "",
          "type": "bool"
        }
      ],
      "stateMutability": "view",
      "type": "function"
    },
    {
      "inputs": [
        {
          "internalType": "contract IERC20Standard",
          "name": "",
          "type": "address"
        }
      ],
      "name": "ccflActivePoolStableCoins",
      "outputs": [
        {
          "internalType": "bool",
          "name": "",
          "type": "bool"
        }
      ],
      "stateMutability": "view",
      "type": "function"
    },
    {
      "inputs": [
        {
          "internalType": "uint256",
          "name": "",
          "type": "uint256"
        }
      ],
      "name": "ccflPoolStableCoins",
      "outputs": [
        {
          "internalType": "contract IERC20Standard",
          "name": "",
          "type": "address"
        }
      ],
      "stateMutability": "view",
      "type": "function"
    },
    {
      "inputs": [
        {
          "internalType": "contract IERC20Standard",
          "name": "",
          "type": "address"
        }
      ],
      "name": "ccflPools",
      "outputs": [
        {
          "internalType": "contract ICCFLPool",
          "name": "",
          "type": "address"
        }
      ],
      "stateMutability": "view",
      "type": "function"
    },
    {
      "inputs": [
        {
          "internalType": "contract IERC20Standard[]",
          "name": "array",
          "type": "address[]"
        },
        {
          "internalType": "contract IERC20Standard",
          "name": "el",
          "type": "address"
        }
      ],
      "name": "checkExistElement",
      "outputs": [
        {
          "internalType": "bool",
          "name": "",
          "type": "bool"
        }
      ],
      "stateMutability": "pure",
      "type": "function"
    },
    {
      "inputs": [
        {
          "internalType": "uint256",
          "name": "_amount",
          "type": "uint256"
        },
        {
          "internalType": "contract IERC20Standard",
          "name": "_stableCoin",
          "type": "address"
        },
        {
          "internalType": "contract IERC20Standard",
          "name": "_collateral",
          "type": "address"
        }
      ],
      "name": "checkMinimalCollateralForLoan",
      "outputs": [
        {
          "internalType": "uint256",
          "name": "",
          "type": "uint256"
        }
      ],
      "stateMutability": "view",
      "type": "function"
    },
    {
      "inputs": [
        {
          "internalType": "uint256",
          "name": "",
          "type": "uint256"
        }
      ],
      "name": "collateralTokens",
      "outputs": [
        {
          "internalType": "contract IERC20Standard",
          "name": "",
          "type": "address"
        }
      ],
      "stateMutability": "view",
      "type": "function"
    },
    {
      "inputs": [
        {
          "internalType": "address",
          "name": "",
          "type": "address"
        },
        {
          "internalType": "contract IERC20Standard",
          "name": "",
          "type": "address"
        }
      ],
      "name": "collaterals",
      "outputs": [
        {
          "internalType": "uint256",
          "name": "",
          "type": "uint256"
        }
      ],
      "stateMutability": "view",
      "type": "function"
    },
    {
      "inputs": [
        {
          "internalType": "uint256",
          "name": "_amount",
          "type": "uint256"
        },
        {
          "internalType": "contract IERC20Standard",
          "name": "_stableCoin",
          "type": "address"
        },
        {
          "internalType": "uint256",
          "name": "_amountCollateral",
          "type": "uint256"
        },
        {
          "internalType": "contract IERC20Standard",
          "name": "_collateral",
          "type": "address"
        },
        {
          "internalType": "bool",
          "name": "_isYieldGenerating",
          "type": "bool"
        },
        {
          "internalType": "bool",
          "name": "_isFiat",
          "type": "bool"
        }
      ],
      "name": "createLoan",
      "outputs": [],
      "stateMutability": "nonpayable",
      "type": "function"
    },
    {
      "inputs": [
        {
          "internalType": "uint256",
          "name": "_amount",
          "type": "uint256"
        },
        {
          "internalType": "contract IERC20Standard",
          "name": "_stableCoin",
          "type": "address"
        },
        {
          "internalType": "uint256",
          "name": "_amountETH",
          "type": "uint256"
        },
        {
          "internalType": "bool",
          "name": "_isYieldGenerating",
          "type": "bool"
        },
        {
          "internalType": "bool",
          "name": "_isFiat",
          "type": "bool"
        }
      ],
      "name": "createLoanByETH",
      "outputs": [],
      "stateMutability": "payable",
      "type": "function"
    },
    {
      "inputs": [],
      "name": "earnBorrower",
      "outputs": [
        {
          "internalType": "uint256",
          "name": "",
          "type": "uint256"
        }
      ],
      "stateMutability": "view",
      "type": "function"
    },
    {
      "inputs": [],
      "name": "earnLender",
      "outputs": [
        {
          "internalType": "uint256",
          "name": "",
          "type": "uint256"
        }
      ],
      "stateMutability": "view",
      "type": "function"
    },
    {
      "inputs": [],
      "name": "earnPlatform",
      "outputs": [
        {
          "internalType": "uint256",
          "name": "",
          "type": "uint256"
        }
      ],
      "stateMutability": "view",
      "type": "function"
    },
    {
      "inputs": [],
      "name": "factory",
      "outputs": [
        {
          "internalType": "contract IUniswapV3Factory",
          "name": "",
          "type": "address"
        }
      ],
      "stateMutability": "view",
      "type": "function"
    },
    {
      "inputs": [
        {
          "internalType": "uint256",
          "name": "_loanId",
          "type": "uint256"
        }
      ],
      "name": "getHealthFactor",
      "outputs": [
        {
          "internalType": "uint256",
          "name": "",
          "type": "uint256"
        }
      ],
      "stateMutability": "view",
      "type": "function"
    },
    {
      "inputs": [
        {
          "internalType": "contract IERC20Standard",
          "name": "_stableCoin",
          "type": "address"
        },
        {
          "internalType": "bool",
          "name": "isPool",
          "type": "bool"
        }
      ],
      "name": "getLatestPrice",
      "outputs": [
        {
          "internalType": "uint256",
          "name": "",
          "type": "uint256"
        }
      ],
      "stateMutability": "view",
      "type": "function"
    },
    {
      "inputs": [
        {
          "internalType": "uint256",
          "name": "_loanId",
          "type": "uint256"
        }
      ],
      "name": "getLoanAddress",
      "outputs": [
        {
          "internalType": "address",
          "name": "",
          "type": "address"
        }
      ],
      "stateMutability": "view",
      "type": "function"
    },
    {
      "inputs": [
        {
          "internalType": "address",
          "name": "borrower",
          "type": "address"
        }
      ],
      "name": "getLoanIds",
      "outputs": [
        {
          "internalType": "uint256[]",
          "name": "",
          "type": "uint256[]"
        }
      ],
      "stateMutability": "view",
      "type": "function"
    },
    {
      "inputs": [
        {
          "internalType": "contract IERC20Standard[]",
          "name": "_ccflPoolStableCoin",
          "type": "address[]"
        },
        {
          "internalType": "contract AggregatorV3Interface[]",
          "name": "_poolAggregators",
          "type": "address[]"
        },
        {
          "internalType": "contract ICCFLPool[]",
          "name": "_ccflPools",
          "type": "address[]"
        },
        {
          "internalType": "contract IERC20Standard[]",
          "name": "_collateralTokens",
          "type": "address[]"
        },
        {
          "internalType": "contract AggregatorV3Interface[]",
          "name": "_collateralAggregators",
          "type": "address[]"
        },
        {
          "internalType": "contract IERC20Standard[]",
          "name": "_aTokens",
          "type": "address[]"
        },
        {
          "internalType": "contract IPoolAddressesProvider",
          "name": "_aaveAddressProvider",
          "type": "address"
        },
        {
          "internalType": "uint256",
          "name": "_maxLTV",
          "type": "uint256"
        },
        {
          "internalType": "uint256",
          "name": "_liquidationThreshold",
          "type": "uint256"
        },
        {
          "internalType": "contract ICCFLLoan",
          "name": "_ccflLoan",
          "type": "address"
        }
      ],
      "name": "initialize",
      "outputs": [],
      "stateMutability": "nonpayable",
      "type": "function"
    },
    {
      "inputs": [
        {
          "internalType": "uint256",
          "name": "_loanId",
          "type": "uint256"
        }
      ],
      "name": "liquidate",
      "outputs": [],
      "stateMutability": "nonpayable",
      "type": "function"
    },
    {
      "inputs": [],
      "name": "liquidationThreshold",
      "outputs": [
        {
          "internalType": "uint256",
          "name": "",
          "type": "uint256"
        }
      ],
      "stateMutability": "view",
      "type": "function"
    },
    {
      "inputs": [],
      "name": "liquidator",
      "outputs": [
        {
          "internalType": "address",
          "name": "",
          "type": "address"
        }
      ],
      "stateMutability": "view",
      "type": "function"
    },
    {
      "inputs": [],
      "name": "loandIds",
      "outputs": [
        {
          "internalType": "uint256",
          "name": "",
          "type": "uint256"
        }
      ],
      "stateMutability": "view",
      "type": "function"
    },
    {
      "inputs": [],
      "name": "maxLTV",
      "outputs": [
        {
          "internalType": "uint256",
          "name": "",
          "type": "uint256"
        }
      ],
      "stateMutability": "view",
      "type": "function"
    },
    {
      "inputs": [
        {
          "internalType": "address",
          "name": "",
          "type": "address"
        }
      ],
      "name": "operators",
      "outputs": [
        {
          "internalType": "bool",
          "name": "",
          "type": "bool"
        }
      ],
      "stateMutability": "view",
      "type": "function"
    },
    {
      "inputs": [],
      "name": "owner",
      "outputs": [
        {
          "internalType": "address",
          "name": "",
          "type": "address"
        }
      ],
      "stateMutability": "view",
      "type": "function"
    },
    {
      "inputs": [],
      "name": "penaltyLender",
      "outputs": [
        {
          "internalType": "uint256",
          "name": "",
          "type": "uint256"
        }
      ],
      "stateMutability": "view",
      "type": "function"
    },
    {
      "inputs": [],
      "name": "penaltyLiquidator",
      "outputs": [
        {
          "internalType": "uint256",
          "name": "",
          "type": "uint256"
        }
      ],
      "stateMutability": "view",
      "type": "function"
    },
    {
      "inputs": [],
      "name": "penaltyPlatform",
      "outputs": [
        {
          "internalType": "uint256",
          "name": "",
          "type": "uint256"
        }
      ],
      "stateMutability": "view",
      "type": "function"
    },
    {
      "inputs": [],
      "name": "platform",
      "outputs": [
        {
          "internalType": "address",
          "name": "",
          "type": "address"
        }
      ],
      "stateMutability": "view",
      "type": "function"
    },
    {
      "inputs": [
        {
          "internalType": "contract IERC20Standard",
          "name": "",
          "type": "address"
        }
      ],
      "name": "priceFeeds",
      "outputs": [
        {
          "internalType": "contract AggregatorV3Interface",
          "name": "",
          "type": "address"
        }
      ],
      "stateMutability": "view",
      "type": "function"
    },
    {
      "inputs": [
        {
          "internalType": "contract IERC20Standard",
          "name": "",
          "type": "address"
        }
      ],
      "name": "pricePoolFeeds",
      "outputs": [
        {
          "internalType": "contract AggregatorV3Interface",
          "name": "",
          "type": "address"
        }
      ],
      "stateMutability": "view",
      "type": "function"
    },
    {
      "inputs": [
        {
          "internalType": "uint256",
          "name": "_loanId",
          "type": "uint256"
        },
        {
          "internalType": "uint256",
          "name": "_amount",
          "type": "uint256"
        }
      ],
      "name": "repayHealthFactor",
      "outputs": [
        {
          "internalType": "uint256",
          "name": "",
          "type": "uint256"
        }
      ],
      "stateMutability": "view",
      "type": "function"
    },
    {
      "inputs": [
        {
          "internalType": "uint256",
          "name": "_loanId",
          "type": "uint256"
        },
        {
          "internalType": "uint256",
          "name": "_amount",
          "type": "uint256"
        },
        {
          "internalType": "contract IERC20Standard",
          "name": "_stableCoin",
          "type": "address"
        }
      ],
      "name": "repayLoan",
      "outputs": [],
      "stateMutability": "nonpayable",
      "type": "function"
    },
    {
      "inputs": [
        {
          "internalType": "contract IPoolAddressesProvider",
          "name": "_aaveAddressProvider",
          "type": "address"
        }
      ],
      "name": "setAaveProvider",
      "outputs": [],
      "stateMutability": "nonpayable",
      "type": "function"
    },
    {
      "inputs": [
        {
          "internalType": "contract IERC20Standard",
          "name": "_token",
          "type": "address"
        },
        {
          "internalType": "bool",
          "name": "_isActived",
          "type": "bool"
        },
        {
          "internalType": "bool",
          "name": "_isPoolToken",
          "type": "bool"
        }
      ],
      "name": "setActiveToken",
      "outputs": [],
      "stateMutability": "nonpayable",
      "type": "function"
    },
    {
      "inputs": [
        {
          "internalType": "contract ICCFLLoan",
          "name": "_loan",
          "type": "address"
        }
      ],
      "name": "setCCFLLoan",
      "outputs": [],
      "stateMutability": "nonpayable",
      "type": "function"
    },
    {
      "inputs": [
        {
          "internalType": "contract IERC20Standard[]",
          "name": "_collateralTokens",
          "type": "address[]"
        },
        {
          "internalType": "contract AggregatorV3Interface[]",
          "name": "_collateralAggregators",
          "type": "address[]"
        },
        {
          "internalType": "contract IERC20Standard[]",
          "name": "_aTokens",
          "type": "address[]"
        }
      ],
      "name": "setCollaterals",
      "outputs": [],
      "stateMutability": "nonpayable",
      "type": "function"
    },
    {
      "inputs": [
        {
          "internalType": "uint256",
          "name": "_borrower",
          "type": "uint256"
        },
        {
          "internalType": "uint256",
          "name": "_platform",
          "type": "uint256"
        },
        {
          "internalType": "uint256",
          "name": "_lender",
          "type": "uint256"
        }
      ],
      "name": "setEarnShare",
      "outputs": [],
      "stateMutability": "nonpayable",
      "type": "function"
    },
    {
      "inputs": [
        {
          "internalType": "bool",
          "name": "_isActived",
          "type": "bool"
        }
      ],
      "name": "setEnableETHNative",
      "outputs": [],
      "stateMutability": "nonpayable",
      "type": "function"
    },
    {
      "inputs": [
        {
          "internalType": "address[]",
          "name": "_addresses",
          "type": "address[]"
        },
        {
          "internalType": "bool[]",
          "name": "_isActives",
          "type": "bool[]"
        }
      ],
      "name": "setOperators",
      "outputs": [],
      "stateMutability": "nonpayable",
      "type": "function"
    },
    {
      "inputs": [
        {
          "internalType": "uint256",
          "name": "_platform",
          "type": "uint256"
        },
        {
          "internalType": "uint256",
          "name": "_liquidator",
          "type": "uint256"
        },
        {
          "internalType": "uint256",
          "name": "_lender",
          "type": "uint256"
        }
      ],
      "name": "setPenalty",
      "outputs": [],
      "stateMutability": "nonpayable",
      "type": "function"
    },
    {
      "inputs": [
        {
          "internalType": "address",
          "name": "_liquidator",
          "type": "address"
        },
        {
          "internalType": "address",
          "name": "_platform",
          "type": "address"
        }
      ],
      "name": "setPlatformAddress",
      "outputs": [],
      "stateMutability": "nonpayable",
      "type": "function"
    },
    {
      "inputs": [
        {
          "internalType": "contract IERC20Standard[]",
          "name": "_ccflPoolStableCoin",
          "type": "address[]"
        },
        {
          "internalType": "contract AggregatorV3Interface[]",
          "name": "_poolAggregators",
          "type": "address[]"
        },
        {
          "internalType": "contract ICCFLPool[]",
          "name": "_ccflPools",
          "type": "address[]"
        }
      ],
      "name": "setPools",
      "outputs": [],
      "stateMutability": "nonpayable",
      "type": "function"
    },
    {
      "inputs": [
        {
          "internalType": "contract ISwapRouter",
          "name": "_swapRouter",
          "type": "address"
        },
        {
          "internalType": "contract IUniswapV3Factory",
          "name": "_factory",
          "type": "address"
        }
      ],
      "name": "setSwapRouter",
      "outputs": [],
      "stateMutability": "nonpayable",
      "type": "function"
    },
    {
      "inputs": [
        {
          "internalType": "uint256",
          "name": "_maxLTV",
          "type": "uint256"
        },
        {
          "internalType": "uint256",
          "name": "_liquidationThreshold",
          "type": "uint256"
        }
      ],
      "name": "setThreshold",
      "outputs": [],
      "stateMutability": "nonpayable",
      "type": "function"
    },
    {
      "inputs": [
        {
          "internalType": "contract IWETH",
          "name": "_iWETH",
          "type": "address"
        }
      ],
      "name": "setWETH",
      "outputs": [],
      "stateMutability": "nonpayable",
      "type": "function"
    },
    {
      "inputs": [
        {
          "internalType": "address",
          "name": "",
          "type": "address"
        },
        {
          "internalType": "uint256",
          "name": "",
          "type": "uint256"
        }
      ],
      "name": "userLoans",
      "outputs": [
        {
          "internalType": "uint256",
          "name": "",
          "type": "uint256"
        }
      ],
      "stateMutability": "view",
      "type": "function"
    },
    {
      "inputs": [],
      "name": "wETH",
      "outputs": [
        {
          "internalType": "contract IWETH",
          "name": "",
          "type": "address"
        }
      ],
      "stateMutability": "view",
      "type": "function"
    },
    {
      "inputs": [
        {
          "internalType": "uint256",
          "name": "_loanId",
          "type": "uint256"
        },
        {
          "internalType": "bool",
          "name": "isETH",
          "type": "bool"
        }
      ],
      "name": "withdrawAllCollateral",
      "outputs": [],
      "stateMutability": "nonpayable",
      "type": "function"
    },
    {
      "inputs": [
        {
          "internalType": "contract IERC20Standard",
          "name": "_stableCoin",
          "type": "address"
        },
        {
          "internalType": "uint256",
          "name": "_loanId",
          "type": "uint256"
        }
      ],
      "name": "withdrawFiatLoan",
      "outputs": [],
      "stateMutability": "nonpayable",
      "type": "function"
    },
    {
      "inputs": [
        {
          "internalType": "contract IERC20Standard",
          "name": "_stableCoin",
          "type": "address"
        },
        {
          "internalType": "uint256",
          "name": "_loanId",
          "type": "uint256"
        }
      ],
      "name": "withdrawLoan",
      "outputs": [],
      "stateMutability": "nonpayable",
      "type": "function"
    },
    {
      "stateMutability": "payable",
      "type": "receive"
    }
  ],
  "bytecode": "0x608060405234801561001057600080fd5b5061568f80620000216000396000f3fe60806040526004361061037a5760003560e01c80638da5cb5b116101d1578063cff212e611610102578063ef3c5d25116100a0578063f43050351161006f578063f430503514610aa3578063f6597bbb14610ac3578063f8f126ff14610ad9578063fdb2b32c14610af957600080fd5b8063ef3c5d2514610a2d578063f242862114610a4d578063f384bd0514610a6d578063f3cf4ada14610a8357600080fd5b8063e43b03d6116100dc578063e43b03d614610988578063e51e119e146109a8578063e787ea2c146109dd578063ec7be39d14610a0d57600080fd5b8063cff212e614610935578063d8bad5bd14610948578063dc40e2d01461096857600080fd5b8063b5dbde5f1161016f578063c0d0154611610149578063c0d015461461089f578063c45a0155146108d5578063c694fdc1146108f5578063cdaabe411461091557600080fd5b8063b5dbde5f1461083c578063b92dd9251461084f578063b9c362091461087f57600080fd5b8063a58bab62116101ab578063a58bab62146107d0578063a8700c3c146107e6578063a95d713214610806578063b3bffeaa1461081c57600080fd5b80638da5cb5b14610744578063989397d4146107645780639dcb511a1461079a57600080fd5b80634046ebae116102ab578063611f347d116102495780636cb0ab5e116102235780636cb0ab5e146106ce5780636eb0fdd0146106ee5780636f43d3dd1461070e5780638ba02e1c1461072e57600080fd5b8063611f347d1461066157806364b52097146106815780636b64c885146106a157600080fd5b80634bde38c8116102855780634bde38c8146105e15780635b769f3c146106015780635c8edac4146106215780635f499ebc1461064157600080fd5b80634046ebae14610581578063415f1240146105a1578063474843ea146105c157600080fd5b806325e9d2fa116103185780633a0720e6116102f25780633a0720e6146104ff5780633a2ad9ae146105155780633e108ad9146105355780634031234c1461056b57600080fd5b806325e9d2fa146104a957806332df398e146104c957806338ef6717146104df57600080fd5b8063172c48c711610354578063172c48c71461041157806317845c69146104495780631bb514cf146104695780631d9eb5d91461048957600080fd5b80630769594d14610386578063101b9d31146103a857806313e7c9d8146103d157600080fd5b3661038157005b600080fd5b34801561039257600080fd5b506103a66103a1366004614b99565b610b2f565b005b3480156103b457600080fd5b506103be60195481565b6040519081526020015b60405180910390f35b3480156103dd57600080fd5b506104016103ec366004614c21565b60016020526000908152604090205460ff1681565b60405190151581526020016103c8565b34801561041d57600080fd5b5061043161042c366004614c45565b610d3d565b6040516001600160a01b0390911681526020016103c8565b34801561045557600080fd5b506103be610464366004614c45565b610d67565b34801561047557600080fd5b506103be610484366004614c5e565b610ee5565b34801561049557600080fd5b506104016104a4366004614ca0565b611021565b3480156104b557600080fd5b506103be6104c4366004614cf2565b61107c565b3480156104d557600080fd5b506103be601a5481565b3480156104eb57600080fd5b506103a66104fa366004614c21565b6111fc565b34801561050b57600080fd5b506103be601c5481565b34801561052157600080fd5b506103a6610530366004614d2d565b61126f565b34801561054157600080fd5b50610431610550366004614c21565b600b602052600090815260409020546001600160a01b031681565b34801561057757600080fd5b506103be600d5481565b34801561058d57600080fd5b50601254610431906001600160a01b031681565b3480156105ad57600080fd5b506103a66105bc366004614c45565b611459565b3480156105cd57600080fd5b506103a66105dc366004614c21565b611c03565b3480156105ed57600080fd5b50601354610431906001600160a01b031681565b34801561060d57600080fd5b506103a661061c366004614c21565b611c76565b34801561062d57600080fd5b506103a661063c366004614d6d565b611ce9565b34801561064d57600080fd5b506103a661065c366004614d92565b611e37565b34801561066d57600080fd5b506103a661067c366004614daf565b611e9b565b34801561068d57600080fd5b506103a661069c366004614b99565b61227d565b3480156106ad57600080fd5b506106c16106bc366004614c21565b61247a565b6040516103c89190614edc565b3480156106da57600080fd5b506103a66106e9366004614f20565b6124e6565b3480156106fa57600080fd5b506103a6610709366004614f4c565b612545565b34801561071a57600080fd5b506103a6610729366004614f7a565b6128d0565b34801561073a57600080fd5b506103be60025481565b34801561075057600080fd5b50601454610431906001600160a01b031681565b34801561077057600080fd5b5061043161077f366004614c21565b600f602052600090815260409020546001600160a01b031681565b3480156107a657600080fd5b506104316107b5366004614c21565b600e602052600090815260409020546001600160a01b031681565b3480156107dc57600080fd5b506103be60185481565b3480156107f257600080fd5b506103a6610801366004614fa6565b612b0f565b34801561081257600080fd5b506103be601b5481565b34801561082857600080fd5b506103be610837366004615016565b6133e5565b6103a661084a366004615044565b6134e6565b34801561085b57600080fd5b5061040161086a366004614c21565b60076020526000908152604090205460ff1681565b34801561088b57600080fd5b506103a661089a366004614cf2565b613e60565b3480156108ab57600080fd5b506104316108ba366004614c21565b6003602052600090815260409020546001600160a01b031681565b3480156108e157600080fd5b50601154610431906001600160a01b031681565b34801561090157600080fd5b50610431610910366004614c45565b613ebc565b34801561092157600080fd5b50600a54610431906001600160a01b031681565b6103a6610943366004614cf2565b613ecc565b34801561095457600080fd5b506103be610963366004614f7a565b6141b7565b34801561097457600080fd5b506103a66109833660046150a3565b6141e8565b34801561099457600080fd5b506103be6109a3366004614cf2565b614267565b3480156109b457600080fd5b506103be6109c33660046150a3565b600060208181529281526040808220909352908152205481565b3480156109e957600080fd5b506104016109f8366004614c21565b60096020526000908152604090205460ff1681565b348015610a1957600080fd5b506103a6610a28366004614f7a565b6143af565b348015610a3957600080fd5b506103a6610a48366004614f4c565b6144f1565b348015610a5957600080fd5b50601554610431906001600160a01b031681565b348015610a7957600080fd5b506103be600c5481565b348015610a8f57600080fd5b506103a6610a9e366004614f20565b614755565b348015610aaf57600080fd5b506103a6610abe366004615139565b6147b1565b348015610acf57600080fd5b506103be60175481565b348015610ae557600080fd5b506103a6610af43660046150a3565b614888565b348015610b0557600080fd5b50610431610b14366004614c45565b6000908152600660205260409020546001600160a01b031690565b336000908152600160208181526040928390205483518085019094526002845261062760f31b9184019190915260ff16151514610b885760405162461bcd60e51b8152600401610b7f91906151fb565b60405180910390fd5b5060005b8351811015610d37576000848281518110610ba957610ba961524a565b60200260200101519050610c176004805480602002602001604051908101604052809291908181526020018280548015610c0c57602002820191906000526020600020905b81546001600160a01b03168152600190910190602001808311610bee575b505050505082611021565b1515600003610c6c57600480546001810182556000919091527f8a35acfbc15ff81a39ae7d344fd709f28e8600b4aa8c65c6b64bfe7fe36bd19b0180546001600160a01b0319166001600160a01b0383161790555b828281518110610c7e57610c7e61524a565b602002602001015160036000836001600160a01b03166001600160a01b0316815260200190815260200160002060006101000a8154816001600160a01b0302191690836001600160a01b03160217905550838281518110610ce157610ce161524a565b6020908102919091018101516001600160a01b039283166000908152600f8352604080822080546001600160a01b0319169590931694909417909155600790915220805460ff1916600190811790915501610b8c565b50505050565b60088181548110610d4d57600080fd5b6000918252602090912001546001600160a01b0316905081565b600081815260066020526040808220548151635d3e2fa160e01b815291516001600160a01b039091169183918391635d3e2fa1916004808301926101209291908290030181865afa158015610dc0573d6000803e3d6000fd5b505050506040513d601f19601f82011682018060405250810190610de49190615276565b60c08101516001600160a01b0390811660009081526003602052604080822054905163a52f38d160e01b815260048101899052939450909291169063a52f38d190602401602060405180830381865afa158015610e45573d6000803e3d6000fd5b505050506040513d601f19601f82011682018060405250810190610e69919061531e565b604051632696439560e11b815260048101829052600060248201529091506001600160a01b03841690634d2c872a90604401602060405180830381865afa158015610eb8573d6000803e3d6000fd5b505050506040513d601f19601f82011682018060405250810190610edc919061531e565b95945050505050565b6000610ef28260006133e5565b612710846001600160a01b031663313ce5676040518163ffffffff1660e01b8152600401602060405180830381865afa158015610f33573d6000803e3d6000fd5b505050506040513d601f19601f82011682018060405250810190610f579190615337565b610f6290600a615454565b610f6d8660016133e5565b600c54866001600160a01b031663313ce5676040518163ffffffff1660e01b8152600401602060405180830381865afa158015610fae573d6000803e3d6000fd5b505050506040513d601f19601f82011682018060405250810190610fd29190615337565b610fdd90600a615454565b610fe7908a615463565b610ff19190615463565b610ffb9190615463565b611005919061547a565b61100f919061547a565b611019919061547a565b949350505050565b600080805b845181101561107257836001600160a01b031685828151811061104b5761104b61524a565b60200260200101516001600160a01b03160361106a5760019150611072565b600101611026565b5090505b92915050565b600082815260066020526040808220548151635d3e2fa160e01b815291516001600160a01b039091169183918391635d3e2fa1916004808301926101209291908290030181865afa1580156110d5573d6000803e3d6000fd5b505050506040513d601f19601f820116820180604052508101906110f99190615276565b60c08101516001600160a01b0390811660009081526003602052604080822054905163a52f38d160e01b8152600481018a9052939450909291169063a52f38d190602401602060405180830381865afa15801561115a573d6000803e3d6000fd5b505050506040513d601f19601f8201168201806040525081019061117e919061531e565b604051632696439560e11b815260048101829052602481018790529091506001600160a01b03841690634d2c872a906044015b602060405180830381865afa1580156111ce573d6000803e3d6000fd5b505050506040513d601f19601f820116820180604052508101906111f2919061531e565b9695505050505050565b336000908152600160208181526040928390205483518085019094526002845261062760f31b9184019190915260ff1615151461124c5760405162461bcd60e51b8152600401610b7f91906151fb565b50600a80546001600160a01b0319166001600160a01b0392909216919091179055565b336000908152600160208181526040928390205483518085019094526002845261062760f31b9184019190915260ff161515146112bf5760405162461bcd60e51b8152600401610b7f91906151fb565b5080156113915761132a600480548060200260200160405190810160405280929190818152602001828054801561131f57602002820191906000526020600020905b81546001600160a01b03168152600190910190602001808311611301575b505050505084611021565b604080518082019091526001808252603560f81b602083015290911515146113655760405162461bcd60e51b8152600401610b7f91906151fb565b506001600160a01b0383166000908152600960205260409020805483151560ff19909116179055505050565b6113f3600880548060200260200160405190810160405280929190818152602001828054801561131f576020028201919060005260206000209081546001600160a01b0316815260019091019060200180831161130157505050505084611021565b604080518082019091526001808252603560f81b6020830152909115151461142e5760405162461bcd60e51b8152600401610b7f91906151fb565b506001600160a01b0383166000908152600760205260409020805460ff19168315151790555b505050565b600081815260066020526040808220548151635d3e2fa160e01b815291516001600160a01b0390911692918391635d3e2fa191600480820192610120929091908290030181865afa1580156114b2573d6000803e3d6000fd5b505050506040513d601f19601f820116820180604052508101906114d69190615276565b60c08101516001600160a01b0390811660009081526003602052604080822054905163a52f38d160e01b815260048101889052939450909291169063a52f38d190602401602060405180830381865afa158015611537573d6000803e3d6000fd5b505050506040513d601f19601f8201168201806040525081019061155b919061531e565b90506000836001600160a01b031663d296d1f183601754601854601954611582919061549c565b61158c919061549c565b6040516001600160e01b031960e085901b168152600481019290925260248201526044016020604051808303816000875af11580156115cf573d6000803e3d6000fd5b505050506040513d601f19601f820116820180604052508101906115f3919061531e565b90508260c001516001600160a01b03166323b872dd8530612710601754601854601954612710611623919061549c565b61162d919061549c565b611637919061549c565b6116419088615463565b61164b919061547a565b6040516001600160e01b031960e086901b1681526001600160a01b03938416600482015292909116602483015260448201526064016020604051808303816000875af115801561169f573d6000803e3d6000fd5b505050506040513d601f19601f820116820180604052508101906116c391906154af565b5060c08301516001600160a01b039081166000818152600360205260409081902054905163095ea7b360e01b815292166004830152602482018490529063095ea7b3906044016020604051808303816000875af1158015611728573d6000803e3d6000fd5b505050506040513d601f19601f8201168201806040525081019061174c91906154af565b5060c08301516001600160a01b039081166000908152600360205260409081902054905163d8aed14560e01b8152600481018890526024810185905291169063d8aed14590604401600060405180830381600087803b1580156117ae57600080fd5b505af11580156117c2573d6000803e3d6000fd5b505050508260c001516001600160a01b031663a9059cbb601360009054906101000a90046001600160a01b0316612710601754866118009190615463565b61180a919061547a565b6040516001600160e01b031960e085901b1681526001600160a01b03909216600483015260248201526044016020604051808303816000875af1158015611855573d6000803e3d6000fd5b505050506040513d601f19601f8201168201806040525081019061187991906154af565b5060c08301516012546018546001600160a01b039283169263a9059cbb921690612710906118a79087615463565b6118b1919061547a565b6040516001600160e01b031960e085901b1681526001600160a01b03909216600483015260248201526044016020604051808303816000875af11580156118fc573d6000803e3d6000fd5b505050506040513d601f19601f8201168201806040525081019061192091906154af565b506000612710601854846119349190615463565b61193e919061547a565b6127106017548561194f9190615463565b611959919061547a565b84612710601754601854601954612710611973919061549c565b61197d919061549c565b611987919061549c565b6119919088615463565b61199b919061547a565b6119a591906154cc565b6119af91906154cc565b6119b991906154cc565b60c08501516001600160a01b039081166000818152600360205260409081902054905163095ea7b360e01b8152921660048301526024820183905291925063095ea7b3906044016020604051808303816000875af1158015611a1f573d6000803e3d6000fd5b505050506040513d601f19601f82011682018060405250810190611a4391906154af565b5060c08401516001600160a01b03908116600090815260036020526040908190205490517f7f3940310000000000000000000000000000000000000000000000000000000081526004810189905260248101849052911690637f39403190604401600060405180830381600087803b158015611abe57600080fd5b505af1158015611ad2573d6000803e3d6000fd5b5050505060c08401516001600160a01b03908116600090815260036020526040908190205490516326de36ff60e21b815260048101859052911690639b78dbfc90602401600060405180830381600087803b158015611b3057600080fd5b505af1158015611b44573d6000803e3d6000fd5b505050600087815260066020908152604080832054815163232fa73360e01b815291516001600160a01b03909116945063232fa733936004808401949383900301908290875af1158015611b9c573d6000803e3d6000fd5b505050506040513d601f19601f82011682018060405250810190611bc0919061531e565b506040805187815242602082015233917f3c4b1d42b9c7fa283f6fe657533f6a5a8a7ad1d36f9ef1d9d89ad04485e10d2c910160405180910390a2505050505050565b336000908152600160208181526040928390205483518085019094526002845261062760f31b9184019190915260ff16151514611c535760405162461bcd60e51b8152600401610b7f91906151fb565b50600580546001600160a01b0319166001600160a01b0392909216919091179055565b336000908152600160208181526040928390205483518085019094526002845261062760f31b9184019190915260ff16151514611cc65760405162461bcd60e51b8152600401610b7f91906151fb565b50601580546001600160a01b0319166001600160a01b0392909216919091179055565b600082815260066020526040808220548151635d3e2fa160e01b815291516001600160a01b0390911692918391635d3e2fa191600480820192610120929091908290030181865afa158015611d42573d6000803e3d6000fd5b505050506040513d601f19601f82011682018060405250810190611d669190615276565b60808101516040517f102cb82e0000000000000000000000000000000000000000000000000000000081526001600160a01b039182166004820152851515602482015291925083169063102cb82e90604401600060405180830381600087803b158015611dd257600080fd5b505af1158015611de6573d6000803e3d6000fd5b505060408051878152861515602082015242918101919091523392507f8d1d302d01bababc9c00da7a7d2adabd6e02f4ccdb4855101e617c2ef159db0c91506060015b60405180910390a250505050565b336000908152600160208181526040928390205483518085019094526002845261062760f31b9184019190915260ff16151514611e875760405162461bcd60e51b8152600401610b7f91906151fb565b50601d805460ff1916911515919091179055565b7ff0c57e16840df040f15088dc2f81fe391c3923bec73e23a9662efc9c229c6a00805468010000000000000000810460ff16159067ffffffffffffffff16600081158015611ee65750825b905060008267ffffffffffffffff166001148015611f035750303b155b905081158015611f11575080155b15611f48576040517ff92ee8a900000000000000000000000000000000000000000000000000000000815260040160405180910390fd5b845467ffffffffffffffff191660011785558315611f7c57845468ff00000000000000001916680100000000000000001785555b8e60049080519060200190611f92929190614992565b50600160025560005b6004548110156120a057600060048281548110611fba57611fba61524a565b6000918252602090912001548f516001600160a01b0390911691508f9083908110611fe757611fe761524a565b602002602001015160036000836001600160a01b03166001600160a01b0316815260200190815260200160002060006101000a8154816001600160a01b0302191690836001600160a01b031602179055508f828151811061204a5761204a61524a565b6020908102919091018101516001600160a01b039283166000908152600f8352604080822080546001600160a01b0319169590931694909417909155600790915220805460ff1916600190811790915501611f9b565b508b516120b49060089060208f0190614992565b5060005b6008548110156121bd576000600882815481106120d7576120d761524a565b6000918252602090912001548d516001600160a01b0390911691508d90839081106121045761210461524a565b6020026020010151600e6000836001600160a01b03166001600160a01b0316815260200190815260200160002060006101000a8154816001600160a01b0302191690836001600160a01b031602179055508b82815181106121675761216761524a565b6020908102919091018101516001600160a01b039283166000908152600b8352604080822080546001600160a01b0319169590931694909417909155600990915220805460ff19166001908117909155016120b8565b50600a80546001600160a01b03199081166001600160a01b038c81169190911790925560058054821692891692909217909155600c899055600d88905560148054339216821790556000908152600160208190526040909120805460ff19169091179055831561226c57845468ff000000000000000019168555604051600181527fc7f505b2f371ae2175ee4913f4499e1f2633a7b5936321eed1cdaeb6115181d29060200160405180910390a15b505050505050505050505050505050565b336000908152600160208181526040928390205483518085019094526002845261062760f31b9184019190915260ff161515146122cd5760405162461bcd60e51b8152600401610b7f91906151fb565b5060005b8351811015610d375760008482815181106122ee576122ee61524a565b6020026020010151905061235a6008805480602002602001604051908101604052809291908181526020018280548015610c0c576020028201919060005260206000209081546001600160a01b03168152600190910190602001808311610bee57505050505082611021565b15156000036123af57600880546001810182556000919091527ff3f7a9fe364faab93b216da50a3214154f22a0a2b415b23a84c8169e8b636ee30180546001600160a01b0319166001600160a01b0383161790555b8382815181106123c1576123c161524a565b6020026020010151600e6000836001600160a01b03166001600160a01b0316815260200190815260200160002060006101000a8154816001600160a01b0302191690836001600160a01b031602179055508282815181106124245761242461524a565b6020908102919091018101516001600160a01b039283166000908152600b8352604080822080546001600160a01b0319169590931694909417909155600990915220805460ff19166001908117909155016122d1565b6001600160a01b0381166000908152601660209081526040918290208054835181840281018401909452808452606093928301828280156124da57602002820191906000526020600020905b8154815260200190600101908083116124c6575b50505050509050919050565b336000908152600160208181526040928390205483518085019094526002845261062760f31b9184019190915260ff161515146125365760405162461bcd60e51b8152600401610b7f91906151fb565b50601c55601b91909155601a55565b6001600160a01b0381166000908152600760209081526040918290205482518084019093526001808452603360f81b9284019290925283929160ff9091161515146125a35760405162461bcd60e51b8152600401610b7f91906151fb565b506040516323b872dd60e01b8152336004820152306024820152604481018490526001600160a01b038316906323b872dd906064016020604051808303816000875af11580156125f7573d6000803e3d6000fd5b505050506040513d601f19601f8201168201806040525081019061261b91906154af565b506001600160a01b038281166000818152600360205260409081902054905163095ea7b360e01b815292166004830152602482018590529063095ea7b3906044016020604051808303816000875af115801561267b573d6000803e3d6000fd5b505050506040513d601f19601f8201168201806040525081019061269f91906154af565b506001600160a01b038281166000908152600360205260409081902054905163d8aed14560e01b8152600481018790526024810186905291169063d8aed14590604401600060405180830381600087803b1580156126fc57600080fd5b505af1158015612710573d6000803e3d6000fd5b505050506001600160a01b038281166000908152600360205260409081902054905163a52f38d160e01b81526004810187905291169063a52f38d190602401602060405180830381865afa15801561276c573d6000803e3d6000fd5b505050506040513d601f19601f82011682018060405250810190612790919061531e565b60000361287f57600084815260066020908152604080832054815163232fa73360e01b815291516001600160a01b039091169263232fa7339260048082019391829003018187875af11580156127ea573d6000803e3d6000fd5b505050506040513d601f19601f8201168201806040525081019061280e919061531e565b6001600160a01b03848116600090815260036020526040908190205490516326de36ff60e21b8152600481018490529293501690639b78dbfc90602401600060405180830381600087803b15801561286557600080fd5b505af1158015612879573d6000803e3d6000fd5b50505050505b60408051858152602081018590526001600160a01b0384169181019190915242606082015233907f516b9ee1e9b8b43ca5f4a91397869e2190ccd60972b6ec439739892922434cb090608001611e29565b336000908152600160208181526040928390205483518085019094526002845261062760f31b9184019190915260ff161515146129205760405162461bcd60e51b8152600401610b7f91906151fb565b50600081815260066020526040808220548151635d3e2fa160e01b815291516001600160a01b0390911692918391635d3e2fa191600480820192610120929091908290030181865afa15801561297a573d6000803e3d6000fd5b505050506040513d601f19601f8201168201806040525081019061299e9190615276565b61010081015160408051808201909152600281527f3139000000000000000000000000000000000000000000000000000000000000602082015291925015156001146129fd5760405162461bcd60e51b8152600401610b7f91906151fb565b506001600160a01b038481166000908152600360205260409081902054905163ec7be39d60e01b81523360048201526024810186905291169063ec7be39d906044015b600060405180830381600087803b158015612a5a57600080fd5b505af1158015612a6e573d6000803e3d6000fd5b50505050816001600160a01b031663fab320e96040518163ffffffff1660e01b8152600401600060405180830381600087803b158015612aad57600080fd5b505af1158015612ac1573d6000803e3d6000fd5b5050604080518681526001600160a01b038816602082015242918101919091523392507f926902dafb3e2e10ccc80a644aed5f39170af68180261fbcde7c04fa328c9c419150606001611e29565b6001600160a01b0385166000908152600760209081526040918290205482518084019093526001808452603360f81b9284019290925287929160ff909116151514612b6d5760405162461bcd60e51b8152600401610b7f91906151fb565b506001600160a01b0384166000908152600960209081526040918290205482518084019093526001808452600d60fa1b9284019290925286929160ff909116151514612bcc5760405162461bcd60e51b8152600401610b7f91906151fb565b50866001600160a01b031663313ce5676040518163ffffffff1660e01b8152600401602060405180830381865afa158015612c0b573d6000803e3d6000fd5b505050506040513d601f19601f82011682018060405250810190612c2f9190615337565b612c3a90600a615454565b612c458860016133e5565b612c4f908a615463565b612c5b90612710615463565b612c65919061547a565b856001600160a01b031663313ce5676040518163ffffffff1660e01b8152600401602060405180830381865afa158015612ca3573d6000803e3d6000fd5b505050506040513d601f19601f82011682018060405250810190612cc79190615337565b612cd290600a615454565b600c54612ce08860006133e5565b612cea908a615463565b612cf49190615463565b612cfe919061547a565b1015604051806040016040528060018152602001603760f81b81525090612d385760405162461bcd60e51b8152600401610b7f91906151fb565b506001600160a01b03808816600090815260036020908152604091829020548251633b24cc2160e01b815292518c949190911692633b24cc219260048083019391928290030181865afa158015612d93573d6000803e3d6000fd5b505050506040513d601f19601f82011682018060405250810190612db7919061531e565b1015604051806040016040528060018152602001600760fb1b81525090612df15760405162461bcd60e51b8152600401610b7f91906151fb565b506040805161012081018252600060208083018290526060830182905260a0830182905260e0830182905233608084018181528486018e815260025486526001600160a01b038e811660c088018190528b151561010089019081529087526003909552948790205486519151925194519751633870862b60e01b81526004810192909252602482019290925292841660448401529415156064830152929390911690633870862b90608401600060405180830381600087803b158015612eb657600080fd5b505af1158015612eca573d6000803e3d6000fd5b5050506001600160a01b03808b166000908152600f602052604081205460055490831693508a92612efb9116614907565b90506000819050806001600160a01b031663a2c7fd158785600a60009054906101000a90046001600160a01b0316600b6000896001600160a01b03166001600160a01b0316815260200190815260200160002060009054906101000a90046001600160a01b0316600c54600d54600e60008c6001600160a01b03166001600160a01b0316815260200190815260200160002060009054906101000a90046001600160a01b03168c601360009054906101000a90046001600160a01b0316601560009054906101000a90046001600160a01b03166040518b63ffffffff1660e01b8152600401612ff39a999897969594939291906154df565b600060405180830381600087803b15801561300d57600080fd5b505af1158015613021573d6000803e3d6000fd5b5050604051638ac1b77560e01b81523060048201526001600160a01b0384169250638ac1b7759150602401600060405180830381600087803b15801561306657600080fd5b505af115801561307a573d6000803e3d6000fd5b5050601054601154604051630dc40e2d60e41b81526001600160a01b0392831660048201529082166024820152908416925063dc40e2d09150604401600060405180830381600087803b1580156130d057600080fd5b505af11580156130e4573d6000803e3d6000fd5b5050601b54601a54601c5460405163365855af60e11b81526004810193909352602483019190915260448201526001600160a01b0384169250636cb0ab5e9150606401600060405180830381600087803b15801561314157600080fd5b505af1158015613155573d6000803e3d6000fd5b5050604051633390ef1360e11b8152600481018f90526001600160a01b0384169250636721de269150602401600060405180830381600087803b15801561319b57600080fd5b505af11580156131af573d6000803e3d6000fd5b505050508a6001600160a01b03166323b872dd33848f6040518463ffffffff1660e01b8152600401613202939291906001600160a01b039384168152919092166020820152604081019190915260600190565b6020604051808303816000875af1158015613221573d6000803e3d6000fd5b505050506040513d601f19601f8201168201806040525081019061324591906154af565b508915156001036132a457806001600160a01b03166307a6bf696040518163ffffffff1660e01b8152600401600060405180830381600087803b15801561328b57600080fd5b505af115801561329f573d6000803e3d6000fd5b505050505b8060066000600254815260200190815260200160002060006101000a8154816001600160a01b0302191690836001600160a01b0316021790555060166000336001600160a01b03166001600160a01b031681526020019081526020016000206002549080600181540180825580915050600190039060005260206000200160009091909190915055336001600160a01b03167f5727112172b6092c7288ef1d857adc455935319c0870d1ace4c13383215e53dc8f8f8f8f8f6000600254426040516133b89897969594939291909788526001600160a01b03968716602089015260408801959095529290941660608601521515608085015291151560a084015260c083019190915260e08201526101000190565b60405180910390a2600280549060006133d0836155d6565b91905055505050505050505050505050505050565b60008115158103613486576001600160a01b038084166000908152600e6020526040808220548151633fabe5a360e21b8152915192938493849384938493169163feaf968c9160048082019260a0929091908290030181865afa158015613450573d6000803e3d6000fd5b505050506040513d601f19601f820116820180604052508101906134749190615609565b50919850611076975050505050505050565b6001600160a01b038084166000908152600f6020526040808220548151633fabe5a360e21b8152915192938493849384938493169163feaf968c9160048082019260a0929091908290030181865afa158015613450573d6000803e3d6000fd5b6001600160a01b0384166000908152600760209081526040918290205482518084019093526001808452603360f81b9284019290925286929160ff9091161515146135445760405162461bcd60e51b8152600401610b7f91906151fb565b50601d54604080518082019091526002815261032360f41b60208201529060ff1615156001146135875760405162461bcd60e51b8152600401610b7f91906151fb565b506040805180820190915260018152601b60f91b6020820152348511156135c15760405162461bcd60e51b8152600401610b7f91906151fb565b50601560009054906101000a90046001600160a01b03166001600160a01b031663d0e30db0856040518263ffffffff1660e01b81526004016000604051808303818588803b15801561361257600080fd5b505af1158015613626573d6000803e3d6000fd5b5050505050846001600160a01b031663313ce5676040518163ffffffff1660e01b8152600401602060405180830381865afa158015613669573d6000803e3d6000fd5b505050506040513d601f19601f8201168201806040525081019061368d9190615337565b61369890600a615454565b6136a38660016133e5565b6136ad9088615463565b6136b990612710615463565b6136c3919061547a565b601560009054906101000a90046001600160a01b03166001600160a01b031663313ce5676040518163ffffffff1660e01b8152600401602060405180830381865afa158015613716573d6000803e3d6000fd5b505050506040513d601f19601f8201168201806040525081019061373a9190615337565b61374590600a615454565b600c5460155461375f906001600160a01b031660006133e5565b6137699088615463565b6137739190615463565b61377d919061547a565b1015604051806040016040528060018152602001603760f81b815250906137b75760405162461bcd60e51b8152600401610b7f91906151fb565b506001600160a01b03808616600090815260036020908152604091829020548251633b24cc2160e01b815292518a949190911692633b24cc219260048083019391928290030181865afa158015613812573d6000803e3d6000fd5b505050506040513d601f19601f82011682018060405250810190613836919061531e565b1015604051806040016040528060018152602001600760fb1b815250906138705760405162461bcd60e51b8152600401610b7f91906151fb565b506040805161012081018252600060208083018290526060830182905260a0830182905260e0830182905233608084018181528486018c815260025486526001600160a01b038c811660c088018190528a151561010089019081529087526003909552948790205486519151925194519751633870862b60e01b81526004810192909252602482019290925292841660448401529415156064830152929390911690633870862b90608401600060405180830381600087803b15801561393557600080fd5b505af1158015613949573d6000803e3d6000fd5b5050506001600160a01b038089166000908152600f6020526040812054601554600554918416945083169261397e9116614907565b90506000819050806001600160a01b031663a2c7fd158785600a60009054906101000a90046001600160a01b0316600b6000896001600160a01b03166001600160a01b0316815260200190815260200160002060009054906101000a90046001600160a01b0316600c54600d54600e60008c6001600160a01b03166001600160a01b0316815260200190815260200160002060009054906101000a90046001600160a01b03168c601360009054906101000a90046001600160a01b0316601560009054906101000a90046001600160a01b03166040518b63ffffffff1660e01b8152600401613a769a999897969594939291906154df565b600060405180830381600087803b158015613a9057600080fd5b505af1158015613aa4573d6000803e3d6000fd5b5050604051638ac1b77560e01b81523060048201526001600160a01b0384169250638ac1b7759150602401600060405180830381600087803b158015613ae957600080fd5b505af1158015613afd573d6000803e3d6000fd5b5050601054601154604051630dc40e2d60e41b81526001600160a01b0392831660048201529082166024820152908416925063dc40e2d09150604401600060405180830381600087803b158015613b5357600080fd5b505af1158015613b67573d6000803e3d6000fd5b5050601b54601a54601c5460405163365855af60e11b81526004810193909352602483019190915260448201526001600160a01b0384169250636cb0ab5e9150606401600060405180830381600087803b158015613bc457600080fd5b505af1158015613bd8573d6000803e3d6000fd5b5050604051633390ef1360e11b8152600481018d90526001600160a01b0384169250636721de269150602401600060405180830381600087803b158015613c1e57600080fd5b505af1158015613c32573d6000803e3d6000fd5b505060155460405163a9059cbb60e01b81526001600160a01b038681166004830152602482018f9052909116925063a9059cbb91506044016020604051808303816000875af1158015613c89573d6000803e3d6000fd5b505050506040513d601f19601f82011682018060405250810190613cad91906154af565b50881515600103613d0c57806001600160a01b03166307a6bf696040518163ffffffff1660e01b8152600401600060405180830381600087803b158015613cf357600080fd5b505af1158015613d07573d6000803e3d6000fd5b505050505b8060066000600254815260200190815260200160002060006101000a8154816001600160a01b0302191690836001600160a01b0316021790555060166000336001600160a01b03166001600160a01b031681526020019081526020016000206002549080600181540180825580915050600190039060005260206000200160009091909190915055336001600160a01b03167f5727112172b6092c7288ef1d857adc455935319c0870d1ace4c13383215e53dc8d8d8d601560009054906101000a90046001600160a01b03168e600160025442604051613e359897969594939291909788526001600160a01b03968716602089015260408801959095529290941660608601521515608085015291151560a084015260c083019190915260e08201526101000190565b60405180910390a260028054906000613e4d836155d6565b9190505550505050505050505050505050565b336000908152600160208181526040928390205483518085019094526002845261062760f31b9184019190915260ff16151514613eb05760405162461bcd60e51b8152600401610b7f91906151fb565b50600c91909155600d55565b60048181548110610d4d57600080fd5b601d54604080518082019091526002815261032360f41b60208201529060ff161515600114613f0e5760405162461bcd60e51b8152600401610b7f91906151fb565b506040805180820190915260018152601b60f91b602082015234821115613f485760405162461bcd60e51b8152600401610b7f91906151fb565b50601560009054906101000a90046001600160a01b03166001600160a01b031663d0e30db0826040518263ffffffff1660e01b81526004016000604051808303818588803b158015613f9957600080fd5b505af1158015613fad573d6000803e3d6000fd5b50505060008481526006602052604090819020549051633390ef1360e11b8152600481018590526001600160a01b039091169250829150636721de2690602401600060405180830381600087803b15801561400757600080fd5b505af115801561401b573d6000803e3d6000fd5b505060155460405163a9059cbb60e01b81526001600160a01b03858116600483015260248201879052909116925063a9059cbb91506044016020604051808303816000875af1158015614072573d6000803e3d6000fd5b505050506040513d601f19601f8201168201806040525081019061409691906154af565b50806001600160a01b0316631c783def6040518163ffffffff1660e01b8152600401602060405180830381865afa1580156140d5573d6000803e3d6000fd5b505050506040513d601f19601f820116820180604052508101906140f991906154af565b151560010361415657806001600160a01b03166307a6bf696040518163ffffffff1660e01b8152600401600060405180830381600087803b15801561413d57600080fd5b505af1158015614151573d6000803e3d6000fd5b505050505b60155460408051858152602081018590526001600160a01b03909216908201526001606082015242608082015233907fa41307c7b4c963a200284b8ab310b85c69dc52a94c312708afc5944c278caaf79060a00160405180910390a2505050565b601660205281600052604060002081815481106141d357600080fd5b90600052602060002001600091509150505481565b336000908152600160208181526040928390205483518085019094526002845261062760f31b9184019190915260ff161515146142385760405162461bcd60e51b8152600401610b7f91906151fb565b50601080546001600160a01b039384166001600160a01b03199182161790915560118054929093169116179055565b600082815260066020526040808220548151635d3e2fa160e01b815291516001600160a01b039091169183918391635d3e2fa1916004808301926101209291908290030181865afa1580156142c0573d6000803e3d6000fd5b505050506040513d601f19601f820116820180604052508101906142e49190615276565b60c08101516001600160a01b0390811660009081526003602052604080822054905163a52f38d160e01b8152600481018a9052939450909291169063a52f38d190602401602060405180830381865afa158015614345573d6000803e3d6000fd5b505050506040513d601f19601f82011682018060405250810190614369919061531e565b90506001600160a01b038316634d2c872a61438487846154cc565b6040516001600160e01b031960e084901b1681526004810191909152600060248201526044016111b1565b600081815260066020526040808220548151635d3e2fa160e01b815291516001600160a01b0390911692918391635d3e2fa191600480820192610120929091908290030181865afa158015614408573d6000803e3d6000fd5b505050506040513d601f19601f8201168201806040525081019061442c9190615276565b60808101519091506001600160a01b03163314801561444e5750610100810151155b6040518060400160405280600181526020017f3900000000000000000000000000000000000000000000000000000000000000815250906144a25760405162461bcd60e51b8152600401610b7f91906151fb565b506001600160a01b0384811660009081526003602052604090819020546080840151915163ec7be39d60e01b81529183166004830152602482018690529091169063ec7be39d90604401612a40565b6001600160a01b0381166000908152600960209081526040918290205482518084019093526001808452600d60fa1b9284019290925283929160ff90911615151461454f5760405162461bcd60e51b8152600401610b7f91906151fb565b5060008481526006602052604090819020549051633390ef1360e11b8152600481018590526001600160a01b03909116908190636721de2690602401600060405180830381600087803b1580156145a557600080fd5b505af11580156145b9573d6000803e3d6000fd5b50506040516323b872dd60e01b81523360048201526001600160a01b03848116602483015260448201889052861692506323b872dd91506064016020604051808303816000875af1158015614612573d6000803e3d6000fd5b505050506040513d601f19601f8201168201806040525081019061463691906154af565b50806001600160a01b0316631c783def6040518163ffffffff1660e01b8152600401602060405180830381865afa158015614675573d6000803e3d6000fd5b505050506040513d601f19601f8201168201806040525081019061469991906154af565b15156001036146f657806001600160a01b03166307a6bf696040518163ffffffff1660e01b8152600401600060405180830381600087803b1580156146dd57600080fd5b505af11580156146f1573d6000803e3d6000fd5b505050505b60408051868152602081018690526001600160a01b0385168183015260006060820152426080820152905133917fa41307c7b4c963a200284b8ab310b85c69dc52a94c312708afc5944c278caaf7919081900360a00190a25050505050565b336000908152600160208181526040928390205483518085019094526002845261062760f31b9184019190915260ff161515146147a55760405162461bcd60e51b8152600401610b7f91906151fb565b50601955601855601755565b60145460408051808201909152600181527f32000000000000000000000000000000000000000000000000000000000000006020820152906001600160a01b031633146148115760405162461bcd60e51b8152600401610b7f91906151fb565b5060005b8251811015611454578181815181106148305761483061524a565b60200260200101516001600085848151811061484e5761484e61524a565b6020908102919091018101516001600160a01b03168252810191909152604001600020805460ff1916911515919091179055600101614815565b336000908152600160208181526040928390205483518085019094526002845261062760f31b9184019190915260ff161515146148d85760405162461bcd60e51b8152600401610b7f91906151fb565b50601280546001600160a01b039384166001600160a01b03199182161790915560138054929093169116179055565b6000763d602d80600a3d3981f3363d3d373d3d3d363d730000008260601b60e81c176000526e5af43d82803e903d91602b57fd5bf38260781b17602052603760096000f090506001600160a01b03811661498d576040517fc2f868f400000000000000000000000000000000000000000000000000000000815260040160405180910390fd5b919050565b8280548282559060005260206000209081019282156149e7579160200282015b828111156149e757825182546001600160a01b0319166001600160a01b039091161782556020909201916001909101906149b2565b506149f39291506149f7565b5090565b5b808211156149f357600081556001016149f8565b634e487b7160e01b600052604160045260246000fd5b604051610120810167ffffffffffffffff81118282101715614a4657614a46614a0c565b60405290565b604051601f8201601f1916810167ffffffffffffffff81118282101715614a7557614a75614a0c565b604052919050565b600067ffffffffffffffff821115614a9757614a97614a0c565b5060051b60200190565b6001600160a01b0381168114614ab657600080fd5b50565b600082601f830112614aca57600080fd5b81356020614adf614ada83614a7d565b614a4c565b8083825260208201915060208460051b870101935086841115614b0157600080fd5b602086015b84811015614b26578035614b1981614aa1565b8352918301918301614b06565b509695505050505050565b600082601f830112614b4257600080fd5b81356020614b52614ada83614a7d565b8083825260208201915060208460051b870101935086841115614b7457600080fd5b602086015b84811015614b26578035614b8c81614aa1565b8352918301918301614b79565b600080600060608486031215614bae57600080fd5b833567ffffffffffffffff80821115614bc657600080fd5b614bd287838801614ab9565b94506020860135915080821115614be857600080fd5b614bf487838801614b31565b93506040860135915080821115614c0a57600080fd5b50614c1786828701614ab9565b9150509250925092565b600060208284031215614c3357600080fd5b8135614c3e81614aa1565b9392505050565b600060208284031215614c5757600080fd5b5035919050565b600080600060608486031215614c7357600080fd5b833592506020840135614c8581614aa1565b91506040840135614c9581614aa1565b809150509250925092565b60008060408385031215614cb357600080fd5b823567ffffffffffffffff811115614cca57600080fd5b614cd685828601614ab9565b9250506020830135614ce781614aa1565b809150509250929050565b60008060408385031215614d0557600080fd5b50508035926020909101359150565b803561498d81614aa1565b8015158114614ab657600080fd5b600080600060608486031215614d4257600080fd5b8335614d4d81614aa1565b92506020840135614d5d81614d1f565b91506040840135614c9581614d1f565b60008060408385031215614d8057600080fd5b823591506020830135614ce781614d1f565b600060208284031215614da457600080fd5b8135614c3e81614d1f565b6000806000806000806000806000806101408b8d031215614dcf57600080fd5b8a3567ffffffffffffffff80821115614de757600080fd5b614df38e838f01614ab9565b9b5060208d0135915080821115614e0957600080fd5b614e158e838f01614b31565b9a5060408d0135915080821115614e2b57600080fd5b614e378e838f01614ab9565b995060608d0135915080821115614e4d57600080fd5b614e598e838f01614ab9565b985060808d0135915080821115614e6f57600080fd5b614e7b8e838f01614b31565b975060a08d0135915080821115614e9157600080fd5b50614e9e8d828e01614ab9565b955050614ead60c08c01614d14565b935060e08b013592506101008b01359150614ecb6101208c01614d14565b90509295989b9194979a5092959850565b6020808252825182820181905260009190848201906040850190845b81811015614f1457835183529284019291840191600101614ef8565b50909695505050505050565b600080600060608486031215614f3557600080fd5b505081359360208301359350604090920135919050565b600080600060608486031215614f6157600080fd5b83359250602084013591506040840135614c9581614aa1565b60008060408385031215614f8d57600080fd5b8235614f9881614aa1565b946020939093013593505050565b60008060008060008060c08789031215614fbf57600080fd5b863595506020870135614fd181614aa1565b9450604087013593506060870135614fe881614aa1565b92506080870135614ff881614d1f565b915060a087013561500881614d1f565b809150509295509295509295565b6000806040838503121561502957600080fd5b823561503481614aa1565b91506020830135614ce781614d1f565b600080600080600060a0868803121561505c57600080fd5b85359450602086013561506e81614aa1565b935060408601359250606086013561508581614d1f565b9150608086013561509581614d1f565b809150509295509295909350565b600080604083850312156150b657600080fd5b82356150c181614aa1565b91506020830135614ce781614aa1565b600082601f8301126150e257600080fd5b813560206150f2614ada83614a7d565b8083825260208201915060208460051b87010193508684111561511457600080fd5b602086015b84811015614b2657803561512c81614d1f565b8352918301918301615119565b6000806040838503121561514c57600080fd5b823567ffffffffffffffff8082111561516457600080fd5b818501915085601f83011261517857600080fd5b81356020615188614ada83614a7d565b82815260059290921b840181019181810190898411156151a757600080fd5b948201945b838610156151ce5785356151bf81614aa1565b825294820194908201906151ac565b965050860135925050808211156151e457600080fd5b506151f1858286016150d1565b9150509250929050565b60006020808352835180602085015260005b818110156152295785810183015185820160400152820161520d565b506000604082860101526040601f19601f8301168501019250505092915050565b634e487b7160e01b600052603260045260246000fd5b805161498d81614d1f565b805161498d81614aa1565b6000610120828403121561528957600080fd5b615291614a22565b825181526152a160208401615260565b6020820152604083015160408201526152bc60608401615260565b60608201526152cd6080840161526b565b60808201526152de60a08401615260565b60a08201526152ef60c0840161526b565b60c082015261530060e08401615260565b60e0820152610100615313818501615260565b908201529392505050565b60006020828403121561533057600080fd5b5051919050565b60006020828403121561534957600080fd5b815160ff81168114614c3e57600080fd5b634e487b7160e01b600052601160045260246000fd5b600181815b808511156153ab5781600019048211156153915761539161535a565b8085161561539e57918102915b93841c9390800290615375565b509250929050565b6000826153c257506001611076565b816153cf57506000611076565b81600181146153e557600281146153ef5761540b565b6001915050611076565b60ff8411156154005761540061535a565b50506001821b611076565b5060208310610133831016604e8410600b841016171561542e575081810a611076565b6154388383615370565b806000190482111561544c5761544c61535a565b029392505050565b6000614c3e60ff8416836153b3565b80820281158282048414176110765761107661535a565b60008261549757634e487b7160e01b600052601260045260246000fd5b500490565b808201808211156110765761107661535a565b6000602082840312156154c157600080fd5b8151614c3e81614d1f565b818103818111156110765761107661535a565b6000610240820190508b51825260208c01511515602083015260408c0151604083015260608c01511515606083015260808c015161552860808401826001600160a01b03169052565b5060a08c015161553c60a084018215159052565b5060c08c015161555760c08401826001600160a01b03169052565b5060e08c015161556b60e084018215159052565b506101009b8c015115159b82019b909b526001600160a01b03998a166101208201529789166101408901529588166101608801526101808701949094526101a086019290925285166101c085015284166101e084015283166102008301529091166102209091015290565b6000600182016155e8576155e861535a565b5060010190565b805169ffffffffffffffffffff8116811461498d57600080fd5b600080600080600060a0868803121561562157600080fd5b61562a866155ef565b945060208601519350604086015192506060860151915061564d608087016155ef565b9050929550929590935056fea264697066735822122015ae82c4619e5e272731d96e33040e62be7e690a9c252b03613337dbd56ea24764736f6c63430008180033",
  "linkReferences": {},
  "deployedLinkReferences": {}
}