{
  "_format": "hh-sol-artifact-1",
  "contractName": "CCFLLoan",
  "sourceName": "contracts/CCFLLoan.sol",
  "abi": [
    {
      "inputs": [],
      "stateMutability": "nonpayable",
      "type": "constructor"
    },
    {
      "inputs": [],
      "name": "InvalidInitialization",
      "type": "error"
    },
    {
      "inputs": [],
      "name": "NotInitializing",
      "type": "error"
    },
    {
      "anonymous": false,
      "inputs": [
        {
          "indexed": false,
          "internalType": "uint64",
          "name": "version",
          "type": "uint64"
        }
      ],
      "name": "Initialized",
      "type": "event"
    },
    {
      "anonymous": false,
      "inputs": [
        {
          "indexed": true,
          "internalType": "address",
          "name": "onBehalfOf",
          "type": "address"
        },
        {
          "indexed": true,
          "internalType": "address",
          "name": "_token",
          "type": "address"
        },
        {
          "indexed": false,
          "internalType": "uint256",
          "name": "_amount",
          "type": "uint256"
        },
        {
          "indexed": false,
          "internalType": "uint256",
          "name": "timestamp",
          "type": "uint256"
        }
      ],
      "name": "LiquiditySupplied",
      "type": "event"
    },
    {
      "anonymous": false,
      "inputs": [
        {
          "indexed": true,
          "internalType": "address",
          "name": "to",
          "type": "address"
        },
        {
          "indexed": true,
          "internalType": "address",
          "name": "_token",
          "type": "address"
        },
        {
          "indexed": false,
          "internalType": "uint256",
          "name": "_amount",
          "type": "uint256"
        },
        {
          "indexed": false,
          "internalType": "uint256",
          "name": "timestamp",
          "type": "uint256"
        }
      ],
      "name": "LiquidityWithdrawn",
      "type": "event"
    },
    {
      "inputs": [],
      "name": "LTV",
      "outputs": [
        {
          "internalType": "uint256",
          "name": "",
          "type": "uint256"
        }
      ],
      "stateMutability": "view",
      "type": "function"
    },
    {
      "inputs": [],
      "name": "aToken",
      "outputs": [
        {
          "internalType": "contract IERC20Standard",
          "name": "",
          "type": "address"
        }
      ],
      "stateMutability": "view",
      "type": "function"
    },
    {
      "inputs": [],
      "name": "aaveAddressProvider",
      "outputs": [
        {
          "internalType": "contract IPoolAddressesProvider",
          "name": "",
          "type": "address"
        }
      ],
      "stateMutability": "view",
      "type": "function"
    },
    {
      "inputs": [],
      "name": "ccfl",
      "outputs": [
        {
          "internalType": "address",
          "name": "",
          "type": "address"
        }
      ],
      "stateMutability": "view",
      "type": "function"
    },
    {
      "inputs": [],
      "name": "closeLoan",
      "outputs": [],
      "stateMutability": "nonpayable",
      "type": "function"
    },
    {
      "inputs": [],
      "name": "collateralAmount",
      "outputs": [
        {
          "internalType": "uint256",
          "name": "",
          "type": "uint256"
        }
      ],
      "stateMutability": "view",
      "type": "function"
    },
    {
      "inputs": [],
      "name": "collateralToken",
      "outputs": [
        {
          "internalType": "contract IERC20Standard",
          "name": "",
          "type": "address"
        }
      ],
      "stateMutability": "view",
      "type": "function"
    },
    {
      "inputs": [],
      "name": "earnSharePercent",
      "outputs": [
        {
          "internalType": "uint256",
          "name": "",
          "type": "uint256"
        }
      ],
      "stateMutability": "view",
      "type": "function"
    },
    {
      "inputs": [],
      "name": "factory",
      "outputs": [
        {
          "internalType": "contract IUniswapV3Factory",
          "name": "",
          "type": "address"
        }
      ],
      "stateMutability": "view",
      "type": "function"
    },
    {
      "inputs": [],
      "name": "feeTier",
      "outputs": [
        {
          "internalType": "uint24",
          "name": "",
          "type": "uint24"
        }
      ],
      "stateMutability": "view",
      "type": "function"
    },
    {
      "inputs": [
        {
          "internalType": "uint256",
          "name": "currentDebt",
          "type": "uint256"
        },
        {
          "internalType": "uint256",
          "name": "addCollateral",
          "type": "uint256"
        }
      ],
      "name": "getHealthFactor",
      "outputs": [
        {
          "internalType": "uint256",
          "name": "",
          "type": "uint256"
        }
      ],
      "stateMutability": "view",
      "type": "function"
    },
    {
      "inputs": [
        {
          "internalType": "contract IERC20Standard",
          "name": "_coin",
          "type": "address"
        },
        {
          "internalType": "bool",
          "name": "isPool",
          "type": "bool"
        }
      ],
      "name": "getLatestPrice",
      "outputs": [
        {
          "internalType": "uint256",
          "name": "",
          "type": "uint256"
        }
      ],
      "stateMutability": "view",
      "type": "function"
    },
    {
      "inputs": [],
      "name": "getLoanInfo",
      "outputs": [
        {
          "components": [
            {
              "internalType": "uint256",
              "name": "loanId",
              "type": "uint256"
            },
            {
              "internalType": "bool",
              "name": "isPaid",
              "type": "bool"
            },
            {
              "internalType": "uint256",
              "name": "amount",
              "type": "uint256"
            },
            {
              "internalType": "bool",
              "name": "isClosed",
              "type": "bool"
            },
            {
              "internalType": "address",
              "name": "borrower",
              "type": "address"
            },
            {
              "internalType": "bool",
              "name": "isLiquidated",
              "type": "bool"
            },
            {
              "internalType": "contract IERC20Standard",
              "name": "stableCoin",
              "type": "address"
            },
            {
              "internalType": "bool",
              "name": "isFinalty",
              "type": "bool"
            }
          ],
          "internalType": "struct DataTypes.Loan",
          "name": "",
          "type": "tuple"
        }
      ],
      "stateMutability": "view",
      "type": "function"
    },
    {
      "inputs": [
        {
          "internalType": "address",
          "name": "user",
          "type": "address"
        }
      ],
      "name": "getUserAccountData",
      "outputs": [
        {
          "internalType": "uint256",
          "name": "totalCollateralBase",
          "type": "uint256"
        },
        {
          "internalType": "uint256",
          "name": "totalDebtBase",
          "type": "uint256"
        },
        {
          "internalType": "uint256",
          "name": "availableBorrowsBase",
          "type": "uint256"
        },
        {
          "internalType": "uint256",
          "name": "currentLiquidationThreshold",
          "type": "uint256"
        },
        {
          "internalType": "uint256",
          "name": "ltv",
          "type": "uint256"
        },
        {
          "internalType": "uint256",
          "name": "healthFactor",
          "type": "uint256"
        }
      ],
      "stateMutability": "view",
      "type": "function"
    },
    {
      "inputs": [],
      "name": "initLoan",
      "outputs": [
        {
          "internalType": "uint256",
          "name": "loanId",
          "type": "uint256"
        },
        {
          "internalType": "bool",
          "name": "isPaid",
          "type": "bool"
        },
        {
          "internalType": "uint256",
          "name": "amount",
          "type": "uint256"
        },
        {
          "internalType": "bool",
          "name": "isClosed",
          "type": "bool"
        },
        {
          "internalType": "address",
          "name": "borrower",
          "type": "address"
        },
        {
          "internalType": "bool",
          "name": "isLiquidated",
          "type": "bool"
        },
        {
          "internalType": "contract IERC20Standard",
          "name": "stableCoin",
          "type": "address"
        },
        {
          "internalType": "bool",
          "name": "isFinalty",
          "type": "bool"
        }
      ],
      "stateMutability": "view",
      "type": "function"
    },
    {
      "inputs": [
        {
          "components": [
            {
              "internalType": "uint256",
              "name": "loanId",
              "type": "uint256"
            },
            {
              "internalType": "bool",
              "name": "isPaid",
              "type": "bool"
            },
            {
              "internalType": "uint256",
              "name": "amount",
              "type": "uint256"
            },
            {
              "internalType": "bool",
              "name": "isClosed",
              "type": "bool"
            },
            {
              "internalType": "address",
              "name": "borrower",
              "type": "address"
            },
            {
              "internalType": "bool",
              "name": "isLiquidated",
              "type": "bool"
            },
            {
              "internalType": "contract IERC20Standard",
              "name": "stableCoin",
              "type": "address"
            },
            {
              "internalType": "bool",
              "name": "isFinalty",
              "type": "bool"
            }
          ],
          "internalType": "struct DataTypes.Loan",
          "name": "_loan",
          "type": "tuple"
        },
        {
          "internalType": "contract IERC20Standard",
          "name": "_collateralToken",
          "type": "address"
        },
        {
          "internalType": "contract IPoolAddressesProvider",
          "name": "_aaveAddressProvider",
          "type": "address"
        },
        {
          "internalType": "contract IERC20Standard",
          "name": "_aToken",
          "type": "address"
        },
        {
          "internalType": "uint256",
          "name": "_ltv",
          "type": "uint256"
        },
        {
          "internalType": "uint256",
          "name": "_threshold",
          "type": "uint256"
        },
        {
          "internalType": "contract AggregatorV3Interface",
          "name": "_priceFeed",
          "type": "address"
        },
        {
          "internalType": "contract AggregatorV3Interface",
          "name": "_pricePoolFeed",
          "type": "address"
        },
        {
          "internalType": "address",
          "name": "_platform",
          "type": "address"
        },
        {
          "internalType": "contract IWETH",
          "name": "_iWETH",
          "type": "address"
        }
      ],
      "name": "initialize",
      "outputs": [],
      "stateMutability": "nonpayable",
      "type": "function"
    },
    {
      "inputs": [],
      "name": "isStakeAave",
      "outputs": [
        {
          "internalType": "bool",
          "name": "",
          "type": "bool"
        }
      ],
      "stateMutability": "view",
      "type": "function"
    },
    {
      "inputs": [
        {
          "internalType": "uint256",
          "name": "_currentDebt",
          "type": "uint256"
        },
        {
          "internalType": "uint256",
          "name": "_percent",
          "type": "uint256"
        }
      ],
      "name": "liquidate",
      "outputs": [],
      "stateMutability": "nonpayable",
      "type": "function"
    },
    {
      "inputs": [],
      "name": "liquidationThreshold",
      "outputs": [
        {
          "internalType": "uint256",
          "name": "",
          "type": "uint256"
        }
      ],
      "stateMutability": "view",
      "type": "function"
    },
    {
      "inputs": [],
      "name": "owner",
      "outputs": [
        {
          "internalType": "address",
          "name": "",
          "type": "address"
        }
      ],
      "stateMutability": "view",
      "type": "function"
    },
    {
      "inputs": [],
      "name": "platform",
      "outputs": [
        {
          "internalType": "address",
          "name": "",
          "type": "address"
        }
      ],
      "stateMutability": "view",
      "type": "function"
    },
    {
      "inputs": [],
      "name": "priceFeed",
      "outputs": [
        {
          "internalType": "contract AggregatorV3Interface",
          "name": "",
          "type": "address"
        }
      ],
      "stateMutability": "view",
      "type": "function"
    },
    {
      "inputs": [],
      "name": "pricePoolFeed",
      "outputs": [
        {
          "internalType": "contract AggregatorV3Interface",
          "name": "",
          "type": "address"
        }
      ],
      "stateMutability": "view",
      "type": "function"
    },
    {
      "inputs": [
        {
          "internalType": "address",
          "name": "_ccfl",
          "type": "address"
        }
      ],
      "name": "setCCFL",
      "outputs": [],
      "stateMutability": "nonpayable",
      "type": "function"
    },
    {
      "inputs": [
        {
          "internalType": "uint256",
          "name": "_earnSharePercent",
          "type": "uint256"
        }
      ],
      "name": "setEarnSharePercent",
      "outputs": [],
      "stateMutability": "nonpayable",
      "type": "function"
    },
    {
      "inputs": [],
      "name": "setPaid",
      "outputs": [],
      "stateMutability": "nonpayable",
      "type": "function"
    },
    {
      "inputs": [
        {
          "internalType": "contract ISwapRouter",
          "name": "_swapRouter",
          "type": "address"
        },
        {
          "internalType": "contract IUniswapV3Factory",
          "name": "_factory",
          "type": "address"
        }
      ],
      "name": "setSwapRouter",
      "outputs": [],
      "stateMutability": "nonpayable",
      "type": "function"
    },
    {
      "inputs": [],
      "name": "supplyLiquidity",
      "outputs": [],
      "stateMutability": "nonpayable",
      "type": "function"
    },
    {
      "inputs": [],
      "name": "swapRouter",
      "outputs": [
        {
          "internalType": "contract ISwapRouter",
          "name": "",
          "type": "address"
        }
      ],
      "stateMutability": "view",
      "type": "function"
    },
    {
      "inputs": [
        {
          "internalType": "uint256",
          "name": "amount",
          "type": "uint256"
        }
      ],
      "name": "updateCollateral",
      "outputs": [],
      "stateMutability": "nonpayable",
      "type": "function"
    },
    {
      "inputs": [],
      "name": "wETH",
      "outputs": [
        {
          "internalType": "contract IWETH",
          "name": "",
          "type": "address"
        }
      ],
      "stateMutability": "view",
      "type": "function"
    },
    {
      "inputs": [
        {
          "internalType": "address",
          "name": "_receiver",
          "type": "address"
        },
        {
          "internalType": "bool",
          "name": "_isETH",
          "type": "bool"
        }
      ],
      "name": "withdrawAllCollateral",
      "outputs": [],
      "stateMutability": "nonpayable",
      "type": "function"
    },
    {
      "inputs": [],
      "name": "withdrawLiquidity",
      "outputs": [],
      "stateMutability": "nonpayable",
      "type": "function"
    },
    {
      "stateMutability": "payable",
      "type": "receive"
    }
  ],
  "bytecode": "0x608060405234801561001057600080fd5b50612733806100206000396000f3fe6080604052600436106102025760003560e01c80637ea382c11161011d578063bf92857c116100b0578063d296d1f11161007f578063e0af219311610064578063e0af219314610733578063f242862114610753578063fab320e91461077357600080fd5b8063d296d1f1146106f3578063dc40e2d01461071357600080fd5b8063bf92857c14610646578063c31c9c0714610693578063c45a0155146106b3578063cdaabe41146106d357600080fd5b8063a0c1f15e116100ec578063a0c1f15e146105d0578063ae6189f8146105f0578063b2016bd414610606578063b3bffeaa1461062657600080fd5b80637ea382c1146105655780638ac1b7751461057a5780638da5cb5b1461059a57806392d09ceb146105ba57600080fd5b80635d3e2fa11161019557806368dcad581161016457806368dcad581461045957806372f5d98a14610479578063741bef1a146104a35780637ce67d60146104c357600080fd5b80635d3e2fa11461032c578063626a35fb1461040357806362965d8e146104235780636721de261461043957600080fd5b80634031234c116101d15780634031234c146102905780634bde38c8146102b45780634d2c872a146102ec5780635825f5351461030c57600080fd5b806307a6bf691461020e578063102cb82e146102255780631125660314610245578063232fa7331461027b57600080fd5b3661020957005b600080fd5b34801561021a57600080fd5b50610223610788565b005b34801561023157600080fd5b50610223610240366004612125565b610a87565b34801561025157600080fd5b5060025461026690600160a01b900460ff1681565b60405190151581526020015b60405180910390f35b34801561028757600080fd5b50610223610dc7565b34801561029c57600080fd5b506102a660055481565b604051908152602001610272565b3480156102c057600080fd5b506011546102d4906001600160a01b031681565b6040516001600160a01b039091168152602001610272565b3480156102f857600080fd5b506102a661030736600461215e565b610e35565b34801561031857600080fd5b506010546102d4906001600160a01b031681565b34801561033857600080fd5b506103f66040805161010081018252600080825260208201819052918101829052606081018290526080810182905260a0810182905260c0810182905260e0810191909152506040805161010080820183526009548252600a5460ff90811615156020840152600b5493830193909352600c54808416151560608401526001600160a01b0391810482166080840152600160a81b90048316151560a0830152600d5490811660c0830152600160a01b9004909116151560e082015290565b6040516102729190612180565b34801561040f57600080fd5b5061022361041e366004612203565b611001565b34801561042f57600080fd5b506102a660065481565b34801561044557600080fd5b50610223610454366004612203565b61104b565b34801561046557600080fd5b50600f546102d4906001600160a01b031681565b34801561048557600080fd5b5061048f610bb881565b60405162ffffff9091168152602001610272565b3480156104af57600080fd5b50600e546102d4906001600160a01b031681565b3480156104cf57600080fd5b50600954600a54600b54600c54600d54610519949360ff9081169392808216926001600160a01b036101008304811693600160a81b90930483169290821691600160a01b90041688565b6040805198895296151560208901529587019490945291151560608601526001600160a01b03908116608086015290151560a08501521660c0830152151560e082015261010001610272565b34801561057157600080fd5b506102236110aa565b34801561058657600080fd5b5061022361059536600461221c565b6113fa565b3480156105a657600080fd5b506000546102d4906001600160a01b031681565b3480156105c657600080fd5b506102a660075481565b3480156105dc57600080fd5b506002546102d4906001600160a01b031681565b3480156105fc57600080fd5b506102a660135481565b34801561061257600080fd5b506008546102d4906001600160a01b031681565b34801561063257600080fd5b506102a6610641366004612125565b61146e565b34801561065257600080fd5b5061066661066136600461221c565b611565565b604080519687526020870195909552938501929092526060840152608083015260a082015260c001610272565b34801561069f57600080fd5b506003546102d4906001600160a01b031681565b3480156106bf57600080fd5b506004546102d4906001600160a01b031681565b3480156106df57600080fd5b506001546102d4906001600160a01b031681565b3480156106ff57600080fd5b5061022361070e36600461215e565b611683565b34801561071f57600080fd5b5061022361072e366004612240565b6118e9565b34801561073f57600080fd5b5061022361074e36600461226e565b611969565b34801561075f57600080fd5b506012546102d4906001600160a01b031681565b34801561077f57600080fd5b50610223611cdf565b6000546040805180820190915260018152601960f91b6020820152906001600160a01b031633146107d55760405162461bcd60e51b81526004016107cc91906123f7565b60405180910390fd5b506008546040516370a0823160e01b81523060048201526001600160a01b039091169060009082906370a0823190602401602060405180830381865afa158015610823573d6000803e3d6000fd5b505050506040513d601f19601f82011682018060405250810190610847919061242a565b9050600081116040518060400160405280600281526020017f3130000000000000000000000000000000000000000000000000000000000000815250906108a15760405162461bcd60e51b81526004016107cc91906123f7565b506000309050600080600160009054906101000a90046001600160a01b03166001600160a01b031663026b1d5f6040518163ffffffff1660e01b8152600401602060405180830381865afa1580156108fd573d6000803e3d6000fd5b505050506040513d601f19601f820116820180604052508101906109219190612443565b60405163095ea7b360e01b81526001600160a01b038083166004830152602482018790529192509086169063095ea7b3906044016020604051808303816000875af1158015610974573d6000803e3d6000fd5b505050506040513d601f19601f820116820180604052508101906109989190612460565b506040517f617ba0370000000000000000000000000000000000000000000000000000000081526001600160a01b03868116600483015260248201869052848116604483015261ffff8416606483015282169063617ba03790608401600060405180830381600087803b158015610a0e57600080fd5b505af1158015610a22573d6000803e3d6000fd5b5050604080518781524260208201526001600160a01b03808a169450871692507f9a07bf3d98170ca14a6bb0b5c7f9a1463ad0d703ae2611ef790fc8ff46d00ecd910160405180910390a350506002805460ff60a01b1916600160a01b179055505050565b6000546040805180820190915260018152601960f91b6020820152906001600160a01b03163314610acb5760405162461bcd60e51b81526004016107cc91906123f7565b50600c5460ff1615156001148015610aed5750600d54600160a01b900460ff16155b6040518060400160405280600281526020017f313200000000000000000000000000000000000000000000000000000000000081525090610b415760405162461bcd60e51b81526004016107cc91906123f7565b508015610cb1576012546008546040516370a0823160e01b81523060048201526001600160a01b0392831692632e1a7d4d9216906370a0823190602401602060405180830381865afa158015610b9b573d6000803e3d6000fd5b505050506040513d601f19601f82011682018060405250810190610bbf919061242a565b6040518263ffffffff1660e01b8152600401610bdd91815260200190565b600060405180830381600087803b158015610bf757600080fd5b505af1158015610c0b573d6000803e3d6000fd5b50506008546040516370a0823160e01b81523060048201526001600160a01b0386811694506108fc9350909116906370a0823190602401602060405180830381865afa158015610c5f573d6000803e3d6000fd5b505050506040513d601f19601f82011682018060405250810190610c83919061242a565b6040518115909202916000818181858888f19350505050158015610cab573d6000803e3d6000fd5b50610db0565b6008546040516370a0823160e01b81523060048201526001600160a01b039091169063a9059cbb90849083906370a0823190602401602060405180830381865afa158015610d03573d6000803e3d6000fd5b505050506040513d601f19601f82011682018060405250810190610d27919061242a565b6040517fffffffff0000000000000000000000000000000000000000000000000000000060e085901b1681526001600160a01b03909216600483015260248201526044016020604051808303816000875af1158015610d8a573d6000803e3d6000fd5b505050506040513d601f19601f82011682018060405250810190610dae9190612460565b505b5050600d805460ff60a01b1916600160a01b179055565b6000546040805180820190915260018152601960f91b6020820152906001600160a01b03163314610e0b5760405162461bcd60e51b81526004016107cc91906123f7565b50600c805460ff19166001179055600254600160a01b900460ff1615610e3357610e336110aa565b565b600d546000908190610e51906001600160a01b0316600161146e565b905060008084600754610e649190612493565b6008549091506001600160a01b03168115610f32576000610e8682600061146e565b9050816001600160a01b031663313ce5676040518163ffffffff1660e01b8152600401602060405180830381865afa158015610ec6573d6000803e3d6000fd5b505050506040513d601f19601f82011682018060405250810190610eea91906124a6565b610ef590600a6125ad565b60055461271090610f0684876125bc565b610f1091906125bc565b610f1a91906125d3565b610f2491906125d3565b610f2e9085612493565b9350505b600d54604080517f313ce56700000000000000000000000000000000000000000000000000000000815290516000926001600160a01b03169163313ce5679160048281019260209291908290030181865afa158015610f95573d6000803e3d6000fd5b505050506040513d601f19601f82011682018060405250810190610fb991906124a6565b610fc490600a6125ad565b610fce868a6125bc565b610fd891906125d3565b9050600081610fe88660646125bc565b610ff291906125d3565b96505050505050505b92915050565b6000546040805180820190915260018152601960f91b6020820152906001600160a01b031633146110455760405162461bcd60e51b81526004016107cc91906123f7565b50601355565b6000546040805180820190915260018152601960f91b6020820152906001600160a01b0316331461108f5760405162461bcd60e51b81526004016107cc91906123f7565b5080600760008282546110a29190612493565b909155505050565b6000546040805180820190915260018152601960f91b6020820152906001600160a01b031633146110ee5760405162461bcd60e51b81526004016107cc91906123f7565b506002546040516370a0823160e01b81523060048201526000916001600160a01b0316906370a0823190602401602060405180830381865afa158015611138573d6000803e3d6000fd5b505050506040513d601f19601f8201168201806040525081019061115c919061242a565b90506000600160009054906101000a90046001600160a01b03166001600160a01b031663026b1d5f6040518163ffffffff1660e01b8152600401602060405180830381865afa1580156111b3573d6000803e3d6000fd5b505050506040513d601f19601f820116820180604052508101906111d79190612443565b6002546040517f69328dec0000000000000000000000000000000000000000000000000000000081526001600160a01b039182166004820152602481018590523060448201529192508216906369328dec906064016020604051808303816000875af115801561124b573d6000803e3d6000fd5b505050506040513d601f19601f8201168201806040525081019061126f919061242a565b50600254604080518481524260208201526001600160a01b039092169130917fba0b893b2f314a229997e335266881b5ac6b290bd350d2c23cc57160b77882b8910160405180910390a36002805460ff60a01b191690556008546040516370a0823160e01b81523060048201526000916001600160a01b0316906370a0823190602401602060405180830381865afa15801561130f573d6000803e3d6000fd5b505050506040513d601f19601f82011682018060405250810190611333919061242a565b905060006127106013546007548461134b91906125f5565b61135591906125bc565b61135f91906125d3565b6008546011546040517fa9059cbb0000000000000000000000000000000000000000000000000000000081526001600160a01b03918216600482015260248101849052929350169063a9059cbb906044016020604051808303816000875af11580156113cf573d6000803e3d6000fd5b505050506040513d601f19601f820116820180604052508101906113f39190612460565b5050505050565b6000546040805180820190915260018152601960f91b6020820152906001600160a01b0316331461143e5760405162461bcd60e51b81526004016107cc91906123f7565b506010805473ffffffffffffffffffffffffffffffffffffffff19166001600160a01b0392909216919091179055565b6000811515810361150a576000806000806000600e60009054906101000a90046001600160a01b03166001600160a01b031663feaf968c6040518163ffffffff1660e01b815260040160a060405180830381865afa1580156114d4573d6000803e3d6000fd5b505050506040513d601f19601f820116820180604052508101906114f89190612622565b50919850610ffb975050505050505050565b6000806000806000600f60009054906101000a90046001600160a01b03166001600160a01b031663feaf968c6040518163ffffffff1660e01b815260040160a060405180830381865afa1580156114d4573d6000803e3d6000fd5b6000806000806000806000600160009054906101000a90046001600160a01b03166001600160a01b031663026b1d5f6040518163ffffffff1660e01b8152600401602060405180830381865afa1580156115c3573d6000803e3d6000fd5b505050506040513d601f19601f820116820180604052508101906115e79190612443565b6040517fbf92857c0000000000000000000000000000000000000000000000000000000081526001600160a01b038a811660048301529192509082169063bf92857c9060240160c060405180830381865afa15801561164a573d6000803e3d6000fd5b505050506040513d601f19601f8201168201806040525081019061166e9190612672565b949d939c50919a509850965090945092505050565b6000546040805180820190915260018152601960f91b6020820152906001600160a01b031633146116c75760405162461bcd60e51b81526004016107cc91906123f7565b5060646116d5836000610e35565b106040518060400160405280600281526020017f31310000000000000000000000000000000000000000000000000000000000008152509061172a5760405162461bcd60e51b81526004016107cc91906123f7565b50600254600160a01b900460ff1615611745576117456110aa565b6008546001600160a01b03166117f36103e86117618482612493565b61176b90866125bc565b61177591906125d3565b6008546040516370a0823160e01b81523060048201526001600160a01b03909116906370a0823190602401602060405180830381865afa1580156117bd573d6000803e3d6000fd5b505050506040513d601f19601f820116820180604052508101906117e1919061242a565b600d546001600160a01b031684611d33565b50600c80547fffffffffffffffffffff00ffffffffffffffffffffffffffffffffffffffffff16600160a81b179055600d546010546001600160a01b039182169163095ea7b391166103e86118488682612493565b61185290886125bc565b61185c91906125d3565b6040517fffffffff0000000000000000000000000000000000000000000000000000000060e085901b1681526001600160a01b03909216600483015260248201526044016020604051808303816000875af11580156118bf573d6000803e3d6000fd5b505050506040513d601f19601f820116820180604052508101906118e39190612460565b50505050565b6000546040805180820190915260018152601960f91b6020820152906001600160a01b0316331461192d5760405162461bcd60e51b81526004016107cc91906123f7565b50600380546001600160a01b0393841673ffffffffffffffffffffffffffffffffffffffff199182161790915560048054929093169116179055565b7ff0c57e16840df040f15088dc2f81fe391c3923bec73e23a9662efc9c229c6a00805468010000000000000000810460ff16159067ffffffffffffffff166000811580156119b45750825b905060008267ffffffffffffffff1660011480156119d15750303b155b9050811580156119df575080155b15611a16576040517ff92ee8a900000000000000000000000000000000000000000000000000000000815260040160405180910390fd5b845467ffffffffffffffff191660011785558315611a4a57845468ff00000000000000001916680100000000000000001785555b336000806101000a8154816001600160a01b0302191690836001600160a01b031602179055508e60096000820151816000015560208201518160010160006101000a81548160ff0219169083151502179055506040820151816002015560608201518160030160006101000a81548160ff02191690831515021790555060808201518160030160016101000a8154816001600160a01b0302191690836001600160a01b0316021790555060a08201518160030160156101000a81548160ff02191690831515021790555060c08201518160040160006101000a8154816001600160a01b0302191690836001600160a01b0316021790555060e08201518160040160146101000a81548160ff0219169083151502179055509050508d600860006101000a8154816001600160a01b0302191690836001600160a01b031602179055508c600160006101000a8154816001600160a01b0302191690836001600160a01b031602179055508a600681905550896005819055508b600260006101000a8154816001600160a01b0302191690836001600160a01b0316021790555088600e60006101000a8154816001600160a01b0302191690836001600160a01b0316021790555087600f60006101000a8154816001600160a01b0302191690836001600160a01b0316021790555086601160006101000a8154816001600160a01b0302191690836001600160a01b0316021790555085601260006101000a8154816001600160a01b0302191690836001600160a01b031602179055508315611cce57845468ff000000000000000019168555604051600181527fc7f505b2f371ae2175ee4913f4499e1f2633a7b5936321eed1cdaeb6115181d29060200160405180910390a15b505050505050505050505050505050565b6000546040805180820190915260018152601960f91b6020820152906001600160a01b03163314611d235760405162461bcd60e51b81526004016107cc91906123f7565b50600a805460ff19166001179055565b600354600090611d4e9083906001600160a01b031686611fbb565b600480546040517f1698ee820000000000000000000000000000000000000000000000000000000081526001600160a01b03858116938201939093528583166024820152610bb8604482015260009290911690631698ee8290606401602060405180830381865afa158015611dc7573d6000803e3d6000fd5b505050506040513d601f19601f82011682018060405250810190611deb9190612443565b90506000816001600160a01b031663ddca3f436040518163ffffffff1660e01b8152600401602060405180830381865afa158015611e2d573d6000803e3d6000fd5b505050506040513d601f19601f82011682018060405250810190611e5191906126bc565b60408051610100810182526001600160a01b038088168252888116602083015262ffffff84168284015233606083015242608083015260a082018b905260c082018a9052600060e083015260035492517fdb3e2198000000000000000000000000000000000000000000000000000000008152939450909291169063db3e219890611f4a9084906004016000610100820190506001600160a01b0380845116835280602085015116602084015262ffffff60408501511660408401528060608501511660608401526080840151608084015260a084015160a084015260c084015160c08401528060e08501511660e08401525092915050565b6020604051808303816000875af1158015611f69573d6000803e3d6000fd5b505050506040513d601f19601f82011682018060405250810190611f8d919061242a565b935086841015611fb057600354611fb09086906001600160a01b03166000611fbb565b505050949350505050565b604080516001600160a01b038481166024830152604480830185905283518084039091018152606490920183526020820180517bffffffffffffffffffffffffffffffffffffffffffffffffffffffff1663095ea7b360e01b179052915160009283929087169161202c91906126e1565b6000604051808303816000865af19150503d8060008114612069576040519150601f19603f3d011682016040523d82523d6000602084013e61206e565b606091505b50915091508180156120985750805115806120985750808060200190518101906120989190612460565b6113f35760405162461bcd60e51b815260206004820152600260248201527f534100000000000000000000000000000000000000000000000000000000000060448201526064016107cc565b6001600160a01b03811681146120f957600080fd5b50565b8035612107816120e4565b919050565b80151581146120f957600080fd5b80356121078161210c565b6000806040838503121561213857600080fd5b8235612143816120e4565b915060208301356121538161210c565b809150509250929050565b6000806040838503121561217157600080fd5b50508035926020909101359150565b60006101008201905082518252602083015115156020830152604083015160408301526060830151151560608301526001600160a01b03608084015116608083015260a0830151151560a083015260c08301516121e860c08401826001600160a01b03169052565b5060e08301516121fc60e084018215159052565b5092915050565b60006020828403121561221557600080fd5b5035919050565b60006020828403121561222e57600080fd5b8135612239816120e4565b9392505050565b6000806040838503121561225357600080fd5b823561225e816120e4565b91506020830135612153816120e4565b6000806000806000806000806000808a8c0361022081121561228f57600080fd5b6101008082121561229f57600080fd5b604051915080820182811067ffffffffffffffff821117156122d157634e487b7160e01b600052604160045260246000fd5b6040528c3582526122e460208e0161211a565b602083015260408d013560408301526122ff60608e0161211a565b606083015261231060808e016120fc565b608083015261232160a08e0161211a565b60a083015261233260c08e016120fc565b60c083015261234360e08e0161211a565b60e0830152819b50612356818e016120fc565b9a5050506123676101208c016120fc565b97506123766101408c016120fc565b96506101608b013595506101808b013594506123956101a08c016120fc565b93506123a46101c08c016120fc565b92506123b36101e08c016120fc565b91506123c26102008c016120fc565b90509295989b9194979a5092959850565b60005b838110156123ee5781810151838201526020016123d6565b50506000910152565b60208152600082518060208401526124168160408501602087016123d3565b601f01601f19169190910160400192915050565b60006020828403121561243c57600080fd5b5051919050565b60006020828403121561245557600080fd5b8151612239816120e4565b60006020828403121561247257600080fd5b81516122398161210c565b634e487b7160e01b600052601160045260246000fd5b80820180821115610ffb57610ffb61247d565b6000602082840312156124b857600080fd5b815160ff8116811461223957600080fd5b600181815b808511156125045781600019048211156124ea576124ea61247d565b808516156124f757918102915b93841c93908002906124ce565b509250929050565b60008261251b57506001610ffb565b8161252857506000610ffb565b816001811461253e576002811461254857612564565b6001915050610ffb565b60ff8411156125595761255961247d565b50506001821b610ffb565b5060208310610133831016604e8410600b8410161715612587575081810a610ffb565b61259183836124c9565b80600019048211156125a5576125a561247d565b029392505050565b600061223960ff84168361250c565b8082028115828204841417610ffb57610ffb61247d565b6000826125f057634e487b7160e01b600052601260045260246000fd5b500490565b81810381811115610ffb57610ffb61247d565b805169ffffffffffffffffffff8116811461210757600080fd5b600080600080600060a0868803121561263a57600080fd5b61264386612608565b945060208601519350604086015192506060860151915061266660808701612608565b90509295509295909350565b60008060008060008060c0878903121561268b57600080fd5b865195506020870151945060408701519350606087015192506080870151915060a087015190509295509295509295565b6000602082840312156126ce57600080fd5b815162ffffff8116811461223957600080fd5b600082516126f38184602087016123d3565b919091019291505056fea26469706673582212205204dab9c1c5d3ec713a1efc34daf4f833beae5f1d8035213776f43661f47c1464736f6c63430008180033",
  "linkReferences": {},
  "deployedLinkReferences": {}
}