{
  "_format": "hh-sol-artifact-1",
  "contractName": "CCFLPool",
  "sourceName": "contracts/CCFLPool.sol",
  "abi": [
    {
      "inputs": [],
      "name": "InvalidInitialization",
      "type": "error"
    },
    {
      "inputs": [],
      "name": "NotInitializing",
      "type": "error"
    },
    {
      "inputs": [
        {
          "internalType": "uint8",
          "name": "bits",
          "type": "uint8"
        },
        {
          "internalType": "uint256",
          "name": "value",
          "type": "uint256"
        }
      ],
      "name": "SafeCastOverflowedUintDowncast",
      "type": "error"
    },
    {
      "anonymous": false,
      "inputs": [
        {
          "indexed": true,
          "internalType": "address",
          "name": "lender",
          "type": "address"
        },
        {
          "indexed": true,
          "internalType": "address",
          "name": "poolAddress",
          "type": "address"
        },
        {
          "indexed": true,
          "internalType": "contract IERC20Standard",
          "name": "stableCoin",
          "type": "address"
        },
        {
          "indexed": false,
          "internalType": "uint256",
          "name": "amount",
          "type": "uint256"
        },
        {
          "indexed": false,
          "internalType": "uint256",
          "name": "lenderShare",
          "type": "uint256"
        },
        {
          "indexed": false,
          "internalType": "uint256",
          "name": "totalSupply",
          "type": "uint256"
        },
        {
          "indexed": false,
          "internalType": "uint256",
          "name": "totalLiquidity",
          "type": "uint256"
        },
        {
          "indexed": false,
          "internalType": "uint256",
          "name": "remainingPool",
          "type": "uint256"
        }
      ],
      "name": "AddSupply",
      "type": "event"
    },
    {
      "anonymous": false,
      "inputs": [
        {
          "indexed": false,
          "internalType": "uint64",
          "name": "version",
          "type": "uint64"
        }
      ],
      "name": "Initialized",
      "type": "event"
    },
    {
      "anonymous": false,
      "inputs": [
        {
          "indexed": true,
          "internalType": "address",
          "name": "lender",
          "type": "address"
        },
        {
          "indexed": true,
          "internalType": "address",
          "name": "poolAddress",
          "type": "address"
        },
        {
          "indexed": true,
          "internalType": "contract IERC20Standard",
          "name": "stableCoin",
          "type": "address"
        },
        {
          "indexed": false,
          "internalType": "uint256",
          "name": "amount",
          "type": "uint256"
        },
        {
          "indexed": false,
          "internalType": "uint256",
          "name": "lenderShare",
          "type": "uint256"
        },
        {
          "indexed": false,
          "internalType": "uint256",
          "name": "totalSupply",
          "type": "uint256"
        },
        {
          "indexed": false,
          "internalType": "uint256",
          "name": "totalLiquidity",
          "type": "uint256"
        },
        {
          "indexed": false,
          "internalType": "uint256",
          "name": "remainingPool",
          "type": "uint256"
        }
      ],
      "name": "WithdrawSupply",
      "type": "event"
    },
    {
      "inputs": [],
      "name": "CCFL",
      "outputs": [
        {
          "internalType": "address",
          "name": "",
          "type": "address"
        }
      ],
      "stateMutability": "view",
      "type": "function"
    },
    {
      "inputs": [
        {
          "internalType": "address",
          "name": "_user",
          "type": "address"
        }
      ],
      "name": "balanceOf",
      "outputs": [
        {
          "internalType": "uint256",
          "name": "",
          "type": "uint256"
        }
      ],
      "stateMutability": "view",
      "type": "function"
    },
    {
      "inputs": [
        {
          "internalType": "uint256",
          "name": "_loanId",
          "type": "uint256"
        },
        {
          "internalType": "uint256",
          "name": "_amount",
          "type": "uint256"
        },
        {
          "internalType": "address",
          "name": "_borrower",
          "type": "address"
        },
        {
          "internalType": "bool",
          "name": "_isFiat",
          "type": "bool"
        }
      ],
      "name": "borrow",
      "outputs": [],
      "stateMutability": "nonpayable",
      "type": "function"
    },
    {
      "inputs": [],
      "name": "cap",
      "outputs": [
        {
          "internalType": "uint256",
          "name": "",
          "type": "uint256"
        }
      ],
      "stateMutability": "view",
      "type": "function"
    },
    {
      "inputs": [
        {
          "internalType": "uint256",
          "name": "",
          "type": "uint256"
        }
      ],
      "name": "debt",
      "outputs": [
        {
          "internalType": "uint256",
          "name": "",
          "type": "uint256"
        }
      ],
      "stateMutability": "view",
      "type": "function"
    },
    {
      "inputs": [
        {
          "internalType": "address",
          "name": "",
          "type": "address"
        }
      ],
      "name": "depositWithdrawAmount",
      "outputs": [
        {
          "internalType": "uint256",
          "name": "",
          "type": "uint256"
        }
      ],
      "stateMutability": "view",
      "type": "function"
    },
    {
      "inputs": [
        {
          "internalType": "uint256",
          "name": "_amount",
          "type": "uint256"
        }
      ],
      "name": "earnStaking",
      "outputs": [],
      "stateMutability": "nonpayable",
      "type": "function"
    },
    {
      "inputs": [
        {
          "internalType": "uint256",
          "name": "_loanId",
          "type": "uint256"
        }
      ],
      "name": "getCurrentLoan",
      "outputs": [
        {
          "internalType": "uint256",
          "name": "",
          "type": "uint256"
        }
      ],
      "stateMutability": "view",
      "type": "function"
    },
    {
      "inputs": [],
      "name": "getCurrentRate",
      "outputs": [
        {
          "internalType": "uint256",
          "name": "",
          "type": "uint256"
        },
        {
          "internalType": "uint256",
          "name": "",
          "type": "uint256"
        },
        {
          "internalType": "uint256",
          "name": "",
          "type": "uint256"
        },
        {
          "internalType": "uint256",
          "name": "",
          "type": "uint256"
        }
      ],
      "stateMutability": "view",
      "type": "function"
    },
    {
      "inputs": [],
      "name": "getDebtPool",
      "outputs": [
        {
          "internalType": "uint256",
          "name": "amount",
          "type": "uint256"
        }
      ],
      "stateMutability": "view",
      "type": "function"
    },
    {
      "inputs": [
        {
          "internalType": "address",
          "name": "_user",
          "type": "address"
        }
      ],
      "name": "getDepositWithdrawAmount",
      "outputs": [
        {
          "internalType": "uint256",
          "name": "",
          "type": "uint256"
        }
      ],
      "stateMutability": "view",
      "type": "function"
    },
    {
      "inputs": [],
      "name": "getRemainingPool",
      "outputs": [
        {
          "internalType": "uint256",
          "name": "amount",
          "type": "uint256"
        }
      ],
      "stateMutability": "view",
      "type": "function"
    },
    {
      "inputs": [],
      "name": "getTotalSupply",
      "outputs": [
        {
          "internalType": "uint256",
          "name": "",
          "type": "uint256"
        }
      ],
      "stateMutability": "view",
      "type": "function"
    },
    {
      "inputs": [
        {
          "internalType": "contract IERC20Standard",
          "name": "_stableCoinAddress",
          "type": "address"
        },
        {
          "internalType": "address",
          "name": "interestRateStrategyAddress",
          "type": "address"
        },
        {
          "internalType": "uint256",
          "name": "_cap",
          "type": "uint256"
        }
      ],
      "name": "initialize",
      "outputs": [],
      "stateMutability": "nonpayable",
      "type": "function"
    },
    {
      "inputs": [],
      "name": "isPaused",
      "outputs": [
        {
          "internalType": "bool",
          "name": "",
          "type": "bool"
        }
      ],
      "stateMutability": "view",
      "type": "function"
    },
    {
      "inputs": [
        {
          "internalType": "uint256",
          "name": "",
          "type": "uint256"
        }
      ],
      "name": "lenders",
      "outputs": [
        {
          "internalType": "address",
          "name": "",
          "type": "address"
        }
      ],
      "stateMutability": "view",
      "type": "function"
    },
    {
      "inputs": [
        {
          "internalType": "uint256",
          "name": "_loanId",
          "type": "uint256"
        },
        {
          "internalType": "uint256",
          "name": "_amount",
          "type": "uint256"
        }
      ],
      "name": "liquidatePenalty",
      "outputs": [],
      "stateMutability": "nonpayable",
      "type": "function"
    },
    {
      "inputs": [
        {
          "internalType": "uint256",
          "name": "",
          "type": "uint256"
        }
      ],
      "name": "loans",
      "outputs": [
        {
          "internalType": "uint256",
          "name": "loanId",
          "type": "uint256"
        },
        {
          "internalType": "bool",
          "name": "isPaid",
          "type": "bool"
        },
        {
          "internalType": "uint256",
          "name": "amount",
          "type": "uint256"
        },
        {
          "internalType": "bool",
          "name": "isClosed",
          "type": "bool"
        },
        {
          "internalType": "address",
          "name": "borrower",
          "type": "address"
        },
        {
          "internalType": "bool",
          "name": "isLiquidated",
          "type": "bool"
        },
        {
          "internalType": "contract IERC20Standard",
          "name": "stableCoin",
          "type": "address"
        },
        {
          "internalType": "bool",
          "name": "isFinalty",
          "type": "bool"
        },
        {
          "internalType": "bool",
          "name": "isFiat",
          "type": "bool"
        },
        {
          "internalType": "uint256",
          "name": "closedAmount",
          "type": "uint256"
        }
      ],
      "stateMutability": "view",
      "type": "function"
    },
    {
      "inputs": [
        {
          "internalType": "address",
          "name": "",
          "type": "address"
        }
      ],
      "name": "operators",
      "outputs": [
        {
          "internalType": "bool",
          "name": "",
          "type": "bool"
        }
      ],
      "stateMutability": "view",
      "type": "function"
    },
    {
      "inputs": [],
      "name": "remainingPool",
      "outputs": [
        {
          "internalType": "uint256",
          "name": "",
          "type": "uint256"
        }
      ],
      "stateMutability": "view",
      "type": "function"
    },
    {
      "inputs": [
        {
          "internalType": "uint256",
          "name": "_loanId",
          "type": "uint256"
        },
        {
          "internalType": "uint256",
          "name": "_amount",
          "type": "uint256"
        }
      ],
      "name": "repay",
      "outputs": [],
      "stateMutability": "nonpayable",
      "type": "function"
    },
    {
      "inputs": [],
      "name": "reserve",
      "outputs": [
        {
          "internalType": "uint128",
          "name": "liquidityIndex",
          "type": "uint128"
        },
        {
          "internalType": "uint128",
          "name": "currentLiquidityRate",
          "type": "uint128"
        },
        {
          "internalType": "uint128",
          "name": "variableBorrowIndex",
          "type": "uint128"
        },
        {
          "internalType": "uint128",
          "name": "currentVariableBorrowRate",
          "type": "uint128"
        },
        {
          "internalType": "uint40",
          "name": "lastUpdateTimestamp",
          "type": "uint40"
        },
        {
          "internalType": "uint16",
          "name": "id",
          "type": "uint16"
        },
        {
          "internalType": "address",
          "name": "interestRateStrategyAddress",
          "type": "address"
        }
      ],
      "stateMutability": "view",
      "type": "function"
    },
    {
      "inputs": [
        {
          "internalType": "address",
          "name": "_ccfl",
          "type": "address"
        }
      ],
      "name": "setCCFL",
      "outputs": [],
      "stateMutability": "nonpayable",
      "type": "function"
    },
    {
      "inputs": [
        {
          "internalType": "uint256",
          "name": "_cap",
          "type": "uint256"
        }
      ],
      "name": "setCap",
      "outputs": [],
      "stateMutability": "nonpayable",
      "type": "function"
    },
    {
      "inputs": [
        {
          "internalType": "address[]",
          "name": "_addresses",
          "type": "address[]"
        },
        {
          "internalType": "bool[]",
          "name": "_isActives",
          "type": "bool[]"
        }
      ],
      "name": "setOperators",
      "outputs": [],
      "stateMutability": "nonpayable",
      "type": "function"
    },
    {
      "inputs": [
        {
          "internalType": "bool",
          "name": "_paused",
          "type": "bool"
        }
      ],
      "name": "setPaused",
      "outputs": [],
      "stateMutability": "nonpayable",
      "type": "function"
    },
    {
      "inputs": [
        {
          "internalType": "address",
          "name": "",
          "type": "address"
        }
      ],
      "name": "share",
      "outputs": [
        {
          "internalType": "uint256",
          "name": "",
          "type": "uint256"
        }
      ],
      "stateMutability": "view",
      "type": "function"
    },
    {
      "inputs": [],
      "name": "stableCoinAddress",
      "outputs": [
        {
          "internalType": "contract IERC20Standard",
          "name": "",
          "type": "address"
        }
      ],
      "stateMutability": "view",
      "type": "function"
    },
    {
      "inputs": [
        {
          "internalType": "uint256",
          "name": "_amount",
          "type": "uint256"
        }
      ],
      "name": "supply",
      "outputs": [],
      "stateMutability": "nonpayable",
      "type": "function"
    },
    {
      "inputs": [],
      "name": "totalDebt",
      "outputs": [
        {
          "internalType": "uint256",
          "name": "",
          "type": "uint256"
        }
      ],
      "stateMutability": "view",
      "type": "function"
    },
    {
      "inputs": [],
      "name": "totalLiquidity",
      "outputs": [
        {
          "internalType": "uint256",
          "name": "",
          "type": "uint256"
        }
      ],
      "stateMutability": "view",
      "type": "function"
    },
    {
      "inputs": [],
      "name": "totalSupply",
      "outputs": [
        {
          "internalType": "uint256",
          "name": "",
          "type": "uint256"
        }
      ],
      "stateMutability": "view",
      "type": "function"
    },
    {
      "inputs": [
        {
          "internalType": "uint256",
          "name": "_amount",
          "type": "uint256"
        }
      ],
      "name": "withdraw",
      "outputs": [],
      "stateMutability": "nonpayable",
      "type": "function"
    },
    {
      "inputs": [
        {
          "internalType": "contract IERC20Standard",
          "name": "_token",
          "type": "address"
        },
        {
          "internalType": "address",
          "name": "_receiver",
          "type": "address"
        }
      ],
      "name": "withdrawByAdmin",
      "outputs": [],
      "stateMutability": "nonpayable",
      "type": "function"
    },
    {
      "inputs": [
        {
          "internalType": "address",
          "name": "_receiver",
          "type": "address"
        },
        {
          "internalType": "uint256",
          "name": "_loanId",
          "type": "uint256"
        }
      ],
      "name": "withdrawLoan",
      "outputs": [],
      "stateMutability": "nonpayable",
      "type": "function"
    },
    {
      "stateMutability": "payable",
      "type": "receive"
    }
  ],
  "bytecode": "0x608060405234801561001057600080fd5b50612fe1806100206000396000f3fe6080604052600436106102385760003560e01c80637871b06011610138578063c4e41b22116100b0578063e3691c511161007f578063f430503511610064578063f4305035146107ee578063f7fb07b01461080e578063fc7b9c181461085b57600080fd5b8063e3691c51146107ae578063ec7be39d146107ce57600080fd5b8063c4e41b22146105d1578063cd3293de146105e6578063d8aed145146106ac578063e1ec3c68146106cc57600080fd5b8063982aae4611610107578063a52f38d1116100ec578063a52f38d11461057a578063b14d37c01461059a578063b187bd26146105b057600080fd5b8063982aae461461053a5780639b78dbfc1461055a57600080fd5b80637871b060146104a45780637f394031146104da5780638ac1b775146104fa578063929eea211461051a57600080fd5b80632e1a7d4d116101cb5780633870862b1161019a5780633b4675a71161017f5780633b4675a71461042c57806347786d371461046457806370a082311461048457600080fd5b80633870862b146103f75780633b24cc211461041757600080fd5b80632e1a7d4d14610374578063307936011461039457806335403023146103c1578063355274ea146103e157600080fd5b80631794bb3c116102075780631794bb3c146102e457806318160ddd146103045780631877bb5c1461031a5780631e0029c81461034757600080fd5b806303ec357f1461024457806313e7c9d81461026c57806315770f92146102ac57806316c38b3c146102c257600080fd5b3661023f57005b600080fd5b34801561025057600080fd5b50610259610871565b6040519081526020015b60405180910390f35b34801561027857600080fd5b5061029c610287366004612a1a565b60006020819052908152604090205460ff1681565b6040519015158152602001610263565b3480156102b857600080fd5b50610259600b5481565b3480156102ce57600080fd5b506102e26102dd366004612a45565b610961565b005b3480156102f057600080fd5b506102e26102ff366004612a62565b6109e8565b34801561031057600080fd5b50610259600a5481565b34801561032657600080fd5b50610259610335366004612a1a565b60086020526000908152604090205481565b34801561035357600080fd5b50610259610362366004612aa3565b60096020526000908152604090205481565b34801561038057600080fd5b506102e261038f366004612aa3565b610be8565b3480156103a057600080fd5b506102596103af366004612a1a565b600f6020526000908152604090205481565b3480156103cd57600080fd5b506102e26103dc366004612aa3565b610efe565b3480156103ed57600080fd5b5061025960105481565b34801561040357600080fd5b506102e2610412366004612abc565b611219565b34801561042357600080fd5b50600d54610259565b34801561043857600080fd5b5060045461044c906001600160a01b031681565b6040516001600160a01b039091168152602001610263565b34801561047057600080fd5b506102e261047f366004612aa3565b6114c9565b34801561049057600080fd5b5061025961049f366004612a1a565b61151f565b3480156104b057600080fd5b506102596104bf366004612a1a565b6001600160a01b03166000908152600f602052604090205490565b3480156104e657600080fd5b506102e26104f5366004612b06565b6115e1565b34801561050657600080fd5b506102e2610515366004612a1a565b611710565b34801561052657600080fd5b5061044c610535366004612aa3565b611790565b34801561054657600080fd5b5060015461044c906001600160a01b031681565b34801561056657600080fd5b506102e2610575366004612aa3565b6117ba565b34801561058657600080fd5b50610259610595366004612aa3565b611853565b3480156105a657600080fd5b50610259600d5481565b3480156105bc57600080fd5b50600e5461029c90600160a01b900460ff1681565b3480156105dd57600080fd5b50610259611950565b3480156105f257600080fd5b50600554600654600754610651926001600160801b0380821693600160801b92839004821693828216939091049091169064ffffffffff81169065010000000000810461ffff169067010000000000000090046001600160a01b031687565b604080516001600160801b03988916815296881660208801529487169486019490945294909116606084015264ffffffffff16608083015261ffff90921660a08201526001600160a01b0390911660c082015260e001610263565b3480156106b857600080fd5b506102e26106c7366004612b06565b611a28565b3480156106d857600080fd5b506107546106e7366004612aa3565b6003602081905260009182526040909120805460018201546002830154938301546004840154600590940154929460ff928316949093828416936001600160a01b036101008504811694600160a81b9081900483169491821693600160a01b83048416939190920416908a565b604080519a8b5298151560208b01529789019690965293151560608801526001600160a01b03928316608088015290151560a08701521660c0850152151560e0840152151561010083015261012082015261014001610263565b3480156107ba57600080fd5b506102e26107c9366004612b28565b611f1f565b3480156107da57600080fd5b506102e26107e9366004612b61565b61207c565b3480156107fa57600080fd5b506102e2610809366004612c70565b6121cf565b34801561081a57600080fd5b50600654600554604080516001600160801b03600160801b808604821683528404811660208301529384169181019190915291166060820152608001610263565b34801561086757600080fd5b50610259600c5481565b60008061087c612289565b905060006108928260c001518360e00151612386565b6006549091506108ac9082906001600160801b031661239a565b60808301526001546040805163313ce56760e01b815290516b033b2e3c9fd0803ce8000000926001600160a01b03169163313ce5679160048083019260209291908290030181865afa158015610906573d6000803e3d6000fd5b505050506040513d601f19601f8201168201806040525081019061092a9190612d32565b61093590600a612e4f565b6080840151600c546109469161239a565b6109509190612e5e565b61095a9190612e8b565b9250505090565b600e546040805180820190915260018152601960f91b6020820152906001600160a01b031633146109ae5760405162461bcd60e51b81526004016109a59190612ead565b60405180910390fd5b50600e8054911515600160a01b027fffffffffffffffffffffff00ffffffffffffffffffffffffffffffffffffffff909216919091179055565b7ff0c57e16840df040f15088dc2f81fe391c3923bec73e23a9662efc9c229c6a00805468010000000000000000810460ff16159067ffffffffffffffff16600081158015610a335750825b905060008267ffffffffffffffff166001148015610a505750303b155b905081158015610a5e575080155b15610a95576040517ff92ee8a900000000000000000000000000000000000000000000000000000000815260040160405180910390fd5b845467ffffffffffffffff191660011785558315610ac957845468ff00000000000000001916680100000000000000001785555b600180546001600160a01b03808b1673ffffffffffffffffffffffffffffffffffffffff1992831617835560078054918b16670100000000000000027fffffffffff0000000000000000000000000000000000000000ffffffffffffff909216919091179055600580546fffffffffffffffffffffffffffffffff199081166b033b2e3c9fd0803ce8000000908117909255600680549091169091179055600e8054909116339081179091556000908152602081905260409020805460ff1916909117905560108690558315610bde57845468ff000000000000000019168555604051600181527fc7f505b2f371ae2175ee4913f4499e1f2633a7b5936321eed1cdaeb6115181d29060200160405180910390a15b5050505050505050565b600e54604080518082019091526002815261323160f01b602082015290600160a01b900460ff1615610c2d5760405162461bcd60e51b81526004016109a59190612ead565b506000610c38612289565b9050610c43816123de565b6001546040805163313ce56760e01b815290516000926001600160a01b03169163313ce5679160048083019260209291908290030181865afa158015610c8d573d6000803e3d6000fd5b505050506040513d601f19601f82011682018060405250810190610cb19190612d32565b610cbc90600a612e4f565b610cd26b033b2e3c9fd0803ce800000085612e5e565b610cdc9190612e8b565b9050610ce9600082612417565b600554600090610d039083906001600160801b031661259f565b3360009081526008602052604081205491925090610d22908390612efc565b905081600a6000828254610d369190612efc565b9250508190555081600b6000828254610d4f9190612efc565b909155505060408051808201909152600181527f3800000000000000000000000000000000000000000000000000000000000000602082015250336000908152600860205260408120829055600d8054879290610dad908490612efc565b909155505060015460405163a9059cbb60e01b8152336004820152602481018790526001600160a01b039091169063a9059cbb906044016020604051808303816000875af1158015610e03573d6000803e3d6000fd5b505050506040513d601f19601f82011682018060405250810190610e279190612f0f565b50336000908152600f6020526040902054851015610e6957336000908152600f602052604081208054879290610e5e908490612efc565b90915550610e7a9050565b336000908152600f60205260408120555b6001543360008181526008602090815260409182902054600a54600b54600d5485518d81529485019390935293830152606082019290925260808101919091526001600160a01b03909216913091907f173401e3c9626102fe861ca7ddb4665d741deebad547125c24038cafa9345db29060a0015b60405180910390a45050505050565b600e54604080518082019091526002815261323160f01b602082015290600160a01b900460ff1615610f435760405162461bcd60e51b81526004016109a59190612ead565b5060105481610f50611950565b610f5a9190612f2c565b11156040518060400160405280600281526020017f323300000000000000000000000000000000000000000000000000000000000081525090610fb05760405162461bcd60e51b81526004016109a59190612ead565b506000610fbb612289565b9050610fc6816123de565b6001546040805163313ce56760e01b815290516000926001600160a01b03169163313ce5679160048083019260209291908290030181865afa158015611010573d6000803e3d6000fd5b505050506040513d601f19601f820116820180604052508101906110349190612d32565b61103f90600a612e4f565b6110556b033b2e3c9fd0803ce800000085612e5e565b61105f9190612e8b565b905061106c816000612417565b6005546000906110869083906001600160801b031661259f565b33600090815260086020526040812054919250906110a5908390612f2c565b905081600a60008282546110b99190612f2c565b9250508190555081600b60008282546110d29190612f2c565b9091555050336000908152600860205260408120829055600d80548792906110fb908490612f2c565b90915550506001546040516323b872dd60e01b8152336004820152306024820152604481018790526001600160a01b03909116906323b872dd906064016020604051808303816000875af1158015611157573d6000803e3d6000fd5b505050506040513d601f19601f8201168201806040525081019061117b9190612f0f565b50336000908152600f60205260408120805487929061119b908490612f2c565b90915550506001543360008181526008602090815260409182902054600a54600b54600d5485518d81529485019390935293830152606082019290925260808101919091526001600160a01b03909216913091907fac71e4358c08cef1a5335ac1c1d79f8eea0a3bd10f01a4259308137ebc63d76a9060a001610eef565b600454604080518082019091526002815261313360f01b6020820152906001600160a01b0316331461125e5760405162461bcd60e51b81526004016109a59190612ead565b50600e54604080518082019091526002815261323160f01b602082015290600160a01b900460ff16156112a45760405162461bcd60e51b81526004016109a59190612ead565b5060006112af612289565b90506112ba816123de565b6001546040805163313ce56760e01b815290516000926001600160a01b03169163313ce5679160048083019260209291908290030181865afa158015611304573d6000803e3d6000fd5b505050506040513d601f19601f820116820180604052508101906113289190612d32565b61133390600a612e4f565b6113496b033b2e3c9fd0803ce800000087612e5e565b6113539190612e8b565b9050600061136e83608001518361259f90919063ffffffff16565b6000888152600960205260408120549192509061138c908390612f2c565b905081600c60008282546113a09190612f2c565b9091555050600d5460408051808201909152600281527f31350000000000000000000000000000000000000000000000000000000000006020820152908811156113fd5760405162461bcd60e51b81526004016109a59190612ead565b506000888152600360208181526040808420600990925283208490558a8155600281018a905590810180547fffffffffffffffffffffff0000000000000000000000000000000000000000ff166101006001600160a01b038b160217905560048101805460ff60a81b1916600160a81b891515021790559061147f9085612417565b604085015161148f90859061259f565b600b60008282546114a09190612efc565b9250508190555087600d60008282546114b99190612efc565b9091555050505050505050505050565b33600090815260208181526040918290205482518084019093526002835261062760f31b9183019190915260ff1615156001146115195760405162461bcd60e51b81526004016109a59190612ead565b50601055565b6001546040805163313ce56760e01b815290516000926001600160a01b03169163313ce5679160048083019260209291908290030181865afa158015611569573d6000803e3d6000fd5b505050506040513d601f19601f8201168201806040525081019061158d9190612d32565b61159890601b612f3f565b6115a390600a612e4f565b6005546001600160a01b0384166000908152600860205260409020546115d1916001600160801b031661239a565b6115db9190612e8b565b92915050565b600454604080518082019091526002815261313360f01b6020820152906001600160a01b031633146116265760405162461bcd60e51b81526004016109a59190612ead565b50600e54604080518082019091526002815261323160f01b602082015290600160a01b900460ff161561166c5760405162461bcd60e51b81526004016109a59190612ead565b50600082815260036020818152604092839020909101548251808401909352600283527f313700000000000000000000000000000000000000000000000000000000000091830191909152600160a81b900460ff16156116df5760405162461bcd60e51b81526004016109a59190612ead565b506116ea81336125de565b50600090815260036020819052604090912001805460ff60a81b1916600160a81b179055565b33600090815260208181526040918290205482518084019093526002835261062760f31b9183019190915260ff1615156001146117605760405162461bcd60e51b81526004016109a59190612ead565b506004805473ffffffffffffffffffffffffffffffffffffffff19166001600160a01b0392909216919091179055565b600281815481106117a057600080fd5b6000918252602090912001546001600160a01b0316905081565b600454604080518082019091526002815261313360f01b6020820152906001600160a01b031633146117ff5760405162461bcd60e51b81526004016109a59190612ead565b50600e54604080518082019091526002815261323160f01b602082015290600160a01b900460ff16156118455760405162461bcd60e51b81526004016109a59190612ead565b5061185081336125de565b50565b60008061185e612289565b905060006118748260c001518360e00151612386565b60065490915061188e9082906001600160801b031661239a565b60808301526001546040805163313ce56760e01b815290516b033b2e3c9fd0803ce8000000926001600160a01b03169163313ce5679160048083019260209291908290030181865afa1580156118e8573d6000803e3d6000fd5b505050506040513d601f19601f8201168201806040525081019061190c9190612d32565b61191790600a612e4f565b60808401516000878152600960205260409020546119349161239a565b61193e9190612e5e565b6119489190612e8b565b949350505050565b60008061195b612289565b905060006119718260a001518360e00151612768565b905061198a82604001518261239a90919063ffffffff16565b604080840191909152600154815163313ce56760e01b815291516b033b2e3c9fd0803ce8000000926001600160a01b039092169163313ce5679160048083019260209291908290030181865afa1580156119e8573d6000803e3d6000fd5b505050506040513d601f19601f82011682018060405250810190611a0c9190612d32565b611a1790600a612e4f565b6040840151600a546109469161239a565b600454604080518082019091526002815261313360f01b6020820152906001600160a01b03163314611a6d5760405162461bcd60e51b81526004016109a59190612ead565b50600e54604080518082019091526002815261323160f01b602082015290600160a01b900460ff1615611ab35760405162461bcd60e51b81526004016109a59190612ead565b50600082815260036020818152604092839020909101548251808401909352600283527f31360000000000000000000000000000000000000000000000000000000000009183019190915260ff1615611b1f5760405162461bcd60e51b81526004016109a59190612ead565b506000611b2a612289565b9050611b35816123de565b6001546040805163313ce56760e01b815290516000926001600160a01b03169163313ce5679160048083019260209291908290030181865afa158015611b7f573d6000803e3d6000fd5b505050506040513d601f19601f82011682018060405250810190611ba39190612d32565b611bae90600a612e4f565b611bc46b033b2e3c9fd0803ce800000085612e5e565b611bce9190612e8b565b600654909150600090611beb9083906001600160801b031661259f565b6000868152600960205260409020549091508110611e0357600085815260096020526040812054600c805491929091611c25908490612efc565b90915550506006546000868152600960205260408120549091611c5191906001600160801b031661239a565b6001546040805163313ce56760e01b815290519293506000926b033b2e3c9fd0803ce8000000926001600160a01b03169163313ce5679160048083019260209291908290030181865afa158015611cac573d6000803e3d6000fd5b505050506040513d601f19601f82011682018060405250810190611cd09190612d32565b611cdb90600a612e4f565b611ce59084612e5e565b611cef9190612e8b565b6000888152600960205260408120819055909150611d0e908390612417565b604080860151600089815260096020529190912054611d2c9161259f565b600b6000828254611d3d9190612f2c565b9250508190555080600d6000828254611d569190612f2c565b9091555050600154600480546040516323b872dd60e01b81526001600160a01b039182169281019290925230602483015260448201849052909116906323b872dd906064016020604051808303816000875af1158015611dba573d6000803e3d6000fd5b505050506040513d601f19601f82011682018060405250810190611dde9190612f0f565b505050600085815260036020819052604090912001805460ff19166001179055611f18565b600085815260096020526040812054611e1d908390612efc565b905081600c6000828254611e319190612efc565b90915550506000868152600960205260408120829055611e52908490612417565b6040840151611e6290849061259f565b600b6000828254611e739190612f2c565b9250508190555084600d6000828254611e8c9190612f2c565b9091555050600154600480546040516323b872dd60e01b81526001600160a01b039182169281019290925230602483015260448201889052909116906323b872dd906064015b6020604051808303816000875af1158015611ef1573d6000803e3d6000fd5b505050506040513d601f19601f82011682018060405250810190611f159190612f0f565b50505b5050505050565b600e546040805180820190915260018152601960f91b6020820152906001600160a01b03163314611f635760405162461bcd60e51b81526004016109a59190612ead565b506040517f70a082310000000000000000000000000000000000000000000000000000000081523060048201526001600160a01b0383169063a9059cbb90839083906370a0823190602401602060405180830381865afa158015611fcb573d6000803e3d6000fd5b505050506040513d601f19601f82011682018060405250810190611fef9190612f58565b6040517fffffffff0000000000000000000000000000000000000000000000000000000060e085901b1681526001600160a01b03909216600483015260248201526044015b6020604051808303816000875af1158015612053573d6000803e3d6000fd5b505050506040513d601f19601f820116820180604052508101906120779190612f0f565b505050565b600454604080518082019091526002815261313360f01b6020820152906001600160a01b031633146120c15760405162461bcd60e51b81526004016109a59190612ead565b50600e54604080518082019091526002815261323160f01b602082015290600160a01b900460ff16156121075760405162461bcd60e51b81526004016109a59190612ead565b50600081815260036020908152604091829020600101548251808401909352600283527f31340000000000000000000000000000000000000000000000000000000000009183019190915260ff16156121735760405162461bcd60e51b81526004016109a59190612ead565b50600081815260036020526040908190206001808201805460ff19168217905554600290910154915163a9059cbb60e01b81526001600160a01b038581166004830152602482019390935291169063a9059cbb90604401612034565b600e546040805180820190915260018152601960f91b6020820152906001600160a01b031633146122135760405162461bcd60e51b81526004016109a59190612ead565b5060005b82518110156120775781818151811061223257612232612f71565b602002602001015160008085848151811061224f5761224f612f71565b6020908102919091018101516001600160a01b03168252810191909152604001600020805460ff1916911515919091179055600101612217565b6122d860405180610100016040528060008152602001600081526020016000815260200160008152602001600081526020016000815260200160008152602001600064ffffffffff1681525090565b61232760405180610100016040528060008152602001600081526020016000815260200160008152602001600081526020016000815260200160008152602001600064ffffffffff1681525090565b6005546001600160801b03808216604084018190526020840152600654808216608085018190526060850152600160801b92839004821660a0850152919091041660c082015260075464ffffffffff1660e0820152600c548152919050565b60006123938383426127a5565b9392505050565b600081156b019d971e4fe8401e7400000019839004841115176123bc57600080fd5b506b033b2e3c9fd0803ce800000091026b019d971e4fe8401e74000000010490565b60075464ffffffffff4281169116036123f45750565b6123fd816128d1565b506007805464ffffffffff19164264ffffffffff16179055565b61243b60405180606001604052806000815260200160008152602001600081525090565b6007546040805160808101825285815260208101859052600654600c546701000000000000009094046001600160a01b0316936356eaf2649383019161248a91906001600160801b031661239a565b8152600554600b546020909201916124aa916001600160801b031661239a565b9052604080517fffffffff0000000000000000000000000000000000000000000000000000000060e085901b168152825160048201526020830151602482015290820151604482015260609091015160648201526084016040805180830381865afa15801561251d573d6000803e3d6000fd5b505050506040513d601f19601f820116820180604052508101906125419190612f87565b6020830152808252612552906129b4565b600580546001600160801b03928316600160801b029216919091179055602081015161257d906129b4565b600680546001600160801b03928316600160801b029216919091179055505050565b600081156b033b2e3c9fd0803ce8000000600284041904841117156125c357600080fd5b506b033b2e3c9fd0803ce80000009190910260028204010490565b81156127645760006125ee612289565b90506125f9816123de565b6001546040805163313ce56760e01b815290516000926001600160a01b03169163313ce5679160048083019260209291908290030181865afa158015612643573d6000803e3d6000fd5b505050506040513d601f19601f820116820180604052508101906126679190612d32565b61267290600a612e4f565b6126886b033b2e3c9fd0803ce800000086612e5e565b6126929190612e8b565b905060006126af8360400151600b5461239a90919063ffffffff16565b905060006126d7826126d1866040015186866126cb9190612f2c565b9061239a565b9061259f565b90506126e2816129b4565b600580546fffffffffffffffffffffffffffffffff19166001600160801b0392909216919091179055600d8054879190600090612720908490612f2c565b90915550506001546040516323b872dd60e01b81526001600160a01b03878116600483015230602483015260448201899052909116906323b872dd90606401611ed2565b5050565b60008061277c64ffffffffff841642612efc565b6127869085612e5e565b6301e1338090049050611948816b033b2e3c9fd0803ce8000000612f2c565b6000806127b964ffffffffff851684612efc565b9050806000036127d8576b033b2e3c9fd0803ce8000000915050612393565b600019810160008080600285116127f05760006127f5565b600285035b925066038882915c40006128098a8061239a565b8161281657612816612e75565b0491506301e13380612828838b61239a565b8161283557612835612e75565b0490506000826128458688612e5e565b61284f9190612e5e565b60029004905060008285612863888a612e5e565b61286d9190612e5e565b6128779190612e5e565b60069004905080826301e1338061288e8a8f612e5e565b6128989190612e8b565b6128ae906b033b2e3c9fd0803ce8000000612f2c565b6128b89190612f2c565b6128c29190612f2c565b9b9a5050505050505050505050565b60a0810151156129435760006128ef8260a001518360e00151612768565b905061290882602001518261239a90919063ffffffff16565b60408301819052612918906129b4565b600580546fffffffffffffffffffffffffffffffff19166001600160801b0392909216919091179055505b80511561185057600061295e8260c001518360e00151612386565b905061297782606001518261239a90919063ffffffff16565b60808301819052612987906129b4565b600680546fffffffffffffffffffffffffffffffff19166001600160801b03929092169190911790555050565b60006001600160801b03821115612a01576040517f6dfcc65000000000000000000000000000000000000000000000000000000000815260806004820152602481018390526044016109a5565b5090565b6001600160a01b038116811461185057600080fd5b600060208284031215612a2c57600080fd5b813561239381612a05565b801515811461185057600080fd5b600060208284031215612a5757600080fd5b813561239381612a37565b600080600060608486031215612a7757600080fd5b8335612a8281612a05565b92506020840135612a9281612a05565b929592945050506040919091013590565b600060208284031215612ab557600080fd5b5035919050565b60008060008060808587031215612ad257600080fd5b84359350602085013592506040850135612aeb81612a05565b91506060850135612afb81612a37565b939692955090935050565b60008060408385031215612b1957600080fd5b50508035926020909101359150565b60008060408385031215612b3b57600080fd5b8235612b4681612a05565b91506020830135612b5681612a05565b809150509250929050565b60008060408385031215612b7457600080fd5b8235612b7f81612a05565b946020939093013593505050565b634e487b7160e01b600052604160045260246000fd5b604051601f8201601f1916810167ffffffffffffffff81118282101715612bcc57612bcc612b8d565b604052919050565b600067ffffffffffffffff821115612bee57612bee612b8d565b5060051b60200190565b600082601f830112612c0957600080fd5b81356020612c1e612c1983612bd4565b612ba3565b8083825260208201915060208460051b870101935086841115612c4057600080fd5b602086015b84811015612c65578035612c5881612a37565b8352918301918301612c45565b509695505050505050565b60008060408385031215612c8357600080fd5b823567ffffffffffffffff80821115612c9b57600080fd5b818501915085601f830112612caf57600080fd5b81356020612cbf612c1983612bd4565b82815260059290921b84018101918181019089841115612cde57600080fd5b948201945b83861015612d05578535612cf681612a05565b82529482019490820190612ce3565b96505086013592505080821115612d1b57600080fd5b50612d2885828601612bf8565b9150509250929050565b600060208284031215612d4457600080fd5b815160ff8116811461239357600080fd5b634e487b7160e01b600052601160045260246000fd5b600181815b80851115612da6578160001904821115612d8c57612d8c612d55565b80851615612d9957918102915b93841c9390800290612d70565b509250929050565b600082612dbd575060016115db565b81612dca575060006115db565b8160018114612de05760028114612dea57612e06565b60019150506115db565b60ff841115612dfb57612dfb612d55565b50506001821b6115db565b5060208310610133831016604e8410600b8410161715612e29575081810a6115db565b612e338383612d6b565b8060001904821115612e4757612e47612d55565b029392505050565b600061239360ff841683612dae565b80820281158282048414176115db576115db612d55565b634e487b7160e01b600052601260045260246000fd5b600082612ea857634e487b7160e01b600052601260045260246000fd5b500490565b60006020808352835180602085015260005b81811015612edb57858101830151858201604001528201612ebf565b506000604082860101526040601f19601f8301168501019250505092915050565b818103818111156115db576115db612d55565b600060208284031215612f2157600080fd5b815161239381612a37565b808201808211156115db576115db612d55565b60ff82811682821603908111156115db576115db612d55565b600060208284031215612f6a57600080fd5b5051919050565b634e487b7160e01b600052603260045260246000fd5b60008060408385031215612f9a57600080fd5b50508051602090910151909290915056fea2646970667358221220a61a1a76d38c2572aa808ded71fddb6f0d33ddd05440d35c569f38e79319908a64736f6c63430008180033",
  "linkReferences": {},
  "deployedLinkReferences": {}
}