{
  "_format": "hh-sol-artifact-1",
  "contractName": "CCFLPool",
  "sourceName": "contracts/CCFLPool.sol",
  "abi": [
    {
      "inputs": [],
      "name": "InvalidInitialization",
      "type": "error"
    },
    {
      "inputs": [],
      "name": "NotInitializing",
      "type": "error"
    },
    {
      "inputs": [
        {
          "internalType": "uint8",
          "name": "bits",
          "type": "uint8"
        },
        {
          "internalType": "uint256",
          "name": "value",
          "type": "uint256"
        }
      ],
      "name": "SafeCastOverflowedUintDowncast",
      "type": "error"
    },
    {
      "anonymous": false,
      "inputs": [
        {
          "indexed": true,
          "internalType": "address",
          "name": "lender",
          "type": "address"
        },
        {
          "indexed": true,
          "internalType": "address",
          "name": "poolAddress",
          "type": "address"
        },
        {
          "indexed": true,
          "internalType": "contract IERC20Standard",
          "name": "stableCoin",
          "type": "address"
        },
        {
          "indexed": false,
          "internalType": "uint256",
          "name": "amount",
          "type": "uint256"
        },
        {
          "indexed": false,
          "internalType": "uint256",
          "name": "lenderShare",
          "type": "uint256"
        },
        {
          "indexed": false,
          "internalType": "uint256",
          "name": "totalSupply",
          "type": "uint256"
        },
        {
          "indexed": false,
          "internalType": "uint256",
          "name": "totalLiquidity",
          "type": "uint256"
        },
        {
          "indexed": false,
          "internalType": "uint256",
          "name": "remainingPool",
          "type": "uint256"
        }
      ],
      "name": "AddSupply",
      "type": "event"
    },
    {
      "anonymous": false,
      "inputs": [
        {
          "indexed": false,
          "internalType": "uint64",
          "name": "version",
          "type": "uint64"
        }
      ],
      "name": "Initialized",
      "type": "event"
    },
    {
      "anonymous": false,
      "inputs": [
        {
          "indexed": true,
          "internalType": "address",
          "name": "lender",
          "type": "address"
        },
        {
          "indexed": true,
          "internalType": "address",
          "name": "poolAddress",
          "type": "address"
        },
        {
          "indexed": true,
          "internalType": "contract IERC20Standard",
          "name": "stableCoin",
          "type": "address"
        },
        {
          "indexed": false,
          "internalType": "uint256",
          "name": "amount",
          "type": "uint256"
        },
        {
          "indexed": false,
          "internalType": "uint256",
          "name": "lenderShare",
          "type": "uint256"
        },
        {
          "indexed": false,
          "internalType": "uint256",
          "name": "totalSupply",
          "type": "uint256"
        },
        {
          "indexed": false,
          "internalType": "uint256",
          "name": "totalLiquidity",
          "type": "uint256"
        },
        {
          "indexed": false,
          "internalType": "uint256",
          "name": "remainingPool",
          "type": "uint256"
        }
      ],
      "name": "WithdrawSupply",
      "type": "event"
    },
    {
      "inputs": [],
      "name": "CCFL",
      "outputs": [
        {
          "internalType": "address",
          "name": "",
          "type": "address"
        }
      ],
      "stateMutability": "view",
      "type": "function"
    },
    {
      "inputs": [
        {
          "internalType": "address",
          "name": "_user",
          "type": "address"
        }
      ],
      "name": "balanceOf",
      "outputs": [
        {
          "internalType": "uint256",
          "name": "",
          "type": "uint256"
        }
      ],
      "stateMutability": "view",
      "type": "function"
    },
    {
      "inputs": [
        {
          "internalType": "uint256",
          "name": "_loanId",
          "type": "uint256"
        },
        {
          "internalType": "uint256",
          "name": "_amount",
          "type": "uint256"
        },
        {
          "internalType": "address",
          "name": "_borrower",
          "type": "address"
        },
        {
          "internalType": "bool",
          "name": "_isFiat",
          "type": "bool"
        }
      ],
      "name": "borrow",
      "outputs": [],
      "stateMutability": "nonpayable",
      "type": "function"
    },
    {
      "inputs": [],
      "name": "cap",
      "outputs": [
        {
          "internalType": "uint256",
          "name": "",
          "type": "uint256"
        }
      ],
      "stateMutability": "view",
      "type": "function"
    },
    {
      "inputs": [
        {
          "internalType": "uint256",
          "name": "",
          "type": "uint256"
        }
      ],
      "name": "debt",
      "outputs": [
        {
          "internalType": "uint256",
          "name": "",
          "type": "uint256"
        }
      ],
      "stateMutability": "view",
      "type": "function"
    },
    {
      "inputs": [
        {
          "internalType": "address",
          "name": "",
          "type": "address"
        }
      ],
      "name": "depositWithdrawAmount",
      "outputs": [
        {
          "internalType": "uint256",
          "name": "",
          "type": "uint256"
        }
      ],
      "stateMutability": "view",
      "type": "function"
    },
    {
      "inputs": [
        {
          "internalType": "uint256",
          "name": "_amount",
          "type": "uint256"
        }
      ],
      "name": "earnStaking",
      "outputs": [],
      "stateMutability": "nonpayable",
      "type": "function"
    },
    {
      "inputs": [
        {
          "internalType": "uint256",
          "name": "_loanId",
          "type": "uint256"
        }
      ],
      "name": "getCurrentLoan",
      "outputs": [
        {
          "internalType": "uint256",
          "name": "",
          "type": "uint256"
        }
      ],
      "stateMutability": "view",
      "type": "function"
    },
    {
      "inputs": [],
      "name": "getCurrentRate",
      "outputs": [
        {
          "internalType": "uint256",
          "name": "",
          "type": "uint256"
        },
        {
          "internalType": "uint256",
          "name": "",
          "type": "uint256"
        },
        {
          "internalType": "uint256",
          "name": "",
          "type": "uint256"
        },
        {
          "internalType": "uint256",
          "name": "",
          "type": "uint256"
        }
      ],
      "stateMutability": "view",
      "type": "function"
    },
    {
      "inputs": [],
      "name": "getDebtPool",
      "outputs": [
        {
          "internalType": "uint256",
          "name": "amount",
          "type": "uint256"
        }
      ],
      "stateMutability": "view",
      "type": "function"
    },
    {
      "inputs": [
        {
          "internalType": "address",
          "name": "_user",
          "type": "address"
        }
      ],
      "name": "getDepositWithdrawAmount",
      "outputs": [
        {
          "internalType": "uint256",
          "name": "",
          "type": "uint256"
        }
      ],
      "stateMutability": "view",
      "type": "function"
    },
    {
      "inputs": [],
      "name": "getRemainingPool",
      "outputs": [
        {
          "internalType": "uint256",
          "name": "amount",
          "type": "uint256"
        }
      ],
      "stateMutability": "view",
      "type": "function"
    },
    {
      "inputs": [],
      "name": "getTotalSupply",
      "outputs": [
        {
          "internalType": "uint256",
          "name": "",
          "type": "uint256"
        }
      ],
      "stateMutability": "view",
      "type": "function"
    },
    {
      "inputs": [
        {
          "internalType": "contract IERC20Standard",
          "name": "_stableCoinAddress",
          "type": "address"
        },
        {
          "internalType": "address",
          "name": "interestRateStrategyAddress",
          "type": "address"
        },
        {
          "internalType": "uint256",
          "name": "_cap",
          "type": "uint256"
        }
      ],
      "name": "initialize",
      "outputs": [],
      "stateMutability": "nonpayable",
      "type": "function"
    },
    {
      "inputs": [],
      "name": "isPaused",
      "outputs": [
        {
          "internalType": "bool",
          "name": "",
          "type": "bool"
        }
      ],
      "stateMutability": "view",
      "type": "function"
    },
    {
      "inputs": [
        {
          "internalType": "uint256",
          "name": "",
          "type": "uint256"
        }
      ],
      "name": "lenders",
      "outputs": [
        {
          "internalType": "address",
          "name": "",
          "type": "address"
        }
      ],
      "stateMutability": "view",
      "type": "function"
    },
    {
      "inputs": [
        {
          "internalType": "uint256",
          "name": "_loanId",
          "type": "uint256"
        },
        {
          "internalType": "uint256",
          "name": "_amount",
          "type": "uint256"
        }
      ],
      "name": "liquidatePenalty",
      "outputs": [],
      "stateMutability": "nonpayable",
      "type": "function"
    },
    {
      "inputs": [
        {
          "internalType": "uint256",
          "name": "",
          "type": "uint256"
        }
      ],
      "name": "loans",
      "outputs": [
        {
          "internalType": "uint256",
          "name": "loanId",
          "type": "uint256"
        },
        {
          "internalType": "uint256",
          "name": "amount",
          "type": "uint256"
        },
        {
          "internalType": "bool",
          "name": "isClosed",
          "type": "bool"
        },
        {
          "internalType": "address",
          "name": "borrower",
          "type": "address"
        },
        {
          "internalType": "bool",
          "name": "isLiquidated",
          "type": "bool"
        },
        {
          "internalType": "contract IERC20Standard",
          "name": "stableCoin",
          "type": "address"
        },
        {
          "internalType": "bool",
          "name": "isFinalty",
          "type": "bool"
        },
        {
          "internalType": "bool",
          "name": "isFiat",
          "type": "bool"
        },
        {
          "internalType": "uint256",
          "name": "closedAmount",
          "type": "uint256"
        }
      ],
      "stateMutability": "view",
      "type": "function"
    },
    {
      "inputs": [
        {
          "internalType": "address",
          "name": "",
          "type": "address"
        }
      ],
      "name": "operators",
      "outputs": [
        {
          "internalType": "bool",
          "name": "",
          "type": "bool"
        }
      ],
      "stateMutability": "view",
      "type": "function"
    },
    {
      "inputs": [],
      "name": "remainingPool",
      "outputs": [
        {
          "internalType": "uint256",
          "name": "",
          "type": "uint256"
        }
      ],
      "stateMutability": "view",
      "type": "function"
    },
    {
      "inputs": [
        {
          "internalType": "uint256",
          "name": "_loanId",
          "type": "uint256"
        },
        {
          "internalType": "uint256",
          "name": "_amount",
          "type": "uint256"
        }
      ],
      "name": "repay",
      "outputs": [],
      "stateMutability": "nonpayable",
      "type": "function"
    },
    {
      "inputs": [],
      "name": "reserve",
      "outputs": [
        {
          "internalType": "uint128",
          "name": "liquidityIndex",
          "type": "uint128"
        },
        {
          "internalType": "uint128",
          "name": "currentLiquidityRate",
          "type": "uint128"
        },
        {
          "internalType": "uint128",
          "name": "variableBorrowIndex",
          "type": "uint128"
        },
        {
          "internalType": "uint128",
          "name": "currentVariableBorrowRate",
          "type": "uint128"
        },
        {
          "internalType": "uint40",
          "name": "lastUpdateTimestamp",
          "type": "uint40"
        },
        {
          "internalType": "uint16",
          "name": "id",
          "type": "uint16"
        },
        {
          "internalType": "address",
          "name": "interestRateStrategyAddress",
          "type": "address"
        }
      ],
      "stateMutability": "view",
      "type": "function"
    },
    {
      "inputs": [
        {
          "internalType": "address",
          "name": "_ccfl",
          "type": "address"
        }
      ],
      "name": "setCCFL",
      "outputs": [],
      "stateMutability": "nonpayable",
      "type": "function"
    },
    {
      "inputs": [
        {
          "internalType": "uint256",
          "name": "_cap",
          "type": "uint256"
        }
      ],
      "name": "setCap",
      "outputs": [],
      "stateMutability": "nonpayable",
      "type": "function"
    },
    {
      "inputs": [
        {
          "internalType": "address[]",
          "name": "_addresses",
          "type": "address[]"
        },
        {
          "internalType": "bool[]",
          "name": "_isActives",
          "type": "bool[]"
        }
      ],
      "name": "setOperators",
      "outputs": [],
      "stateMutability": "nonpayable",
      "type": "function"
    },
    {
      "inputs": [
        {
          "internalType": "bool",
          "name": "_paused",
          "type": "bool"
        }
      ],
      "name": "setPaused",
      "outputs": [],
      "stateMutability": "nonpayable",
      "type": "function"
    },
    {
      "inputs": [
        {
          "internalType": "address",
          "name": "_interestRateStrategyAddress",
          "type": "address"
        }
      ],
      "name": "setReserveInterestRateStrategy",
      "outputs": [],
      "stateMutability": "nonpayable",
      "type": "function"
    },
    {
      "inputs": [
        {
          "internalType": "address",
          "name": "",
          "type": "address"
        }
      ],
      "name": "share",
      "outputs": [
        {
          "internalType": "uint256",
          "name": "",
          "type": "uint256"
        }
      ],
      "stateMutability": "view",
      "type": "function"
    },
    {
      "inputs": [],
      "name": "stableCoinAddress",
      "outputs": [
        {
          "internalType": "contract IERC20Standard",
          "name": "",
          "type": "address"
        }
      ],
      "stateMutability": "view",
      "type": "function"
    },
    {
      "inputs": [
        {
          "internalType": "uint256",
          "name": "_amount",
          "type": "uint256"
        }
      ],
      "name": "supply",
      "outputs": [],
      "stateMutability": "nonpayable",
      "type": "function"
    },
    {
      "inputs": [],
      "name": "totalDebt",
      "outputs": [
        {
          "internalType": "uint256",
          "name": "",
          "type": "uint256"
        }
      ],
      "stateMutability": "view",
      "type": "function"
    },
    {
      "inputs": [],
      "name": "totalLiquidity",
      "outputs": [
        {
          "internalType": "uint256",
          "name": "",
          "type": "uint256"
        }
      ],
      "stateMutability": "view",
      "type": "function"
    },
    {
      "inputs": [],
      "name": "totalSupply",
      "outputs": [
        {
          "internalType": "uint256",
          "name": "",
          "type": "uint256"
        }
      ],
      "stateMutability": "view",
      "type": "function"
    },
    {
      "inputs": [
        {
          "internalType": "uint256",
          "name": "_amount",
          "type": "uint256"
        }
      ],
      "name": "withdraw",
      "outputs": [],
      "stateMutability": "nonpayable",
      "type": "function"
    },
    {
      "inputs": [
        {
          "internalType": "contract IERC20Standard",
          "name": "_token",
          "type": "address"
        },
        {
          "internalType": "address",
          "name": "_receiver",
          "type": "address"
        }
      ],
      "name": "withdrawByAdmin",
      "outputs": [],
      "stateMutability": "nonpayable",
      "type": "function"
    },
    {
      "stateMutability": "payable",
      "type": "receive"
    }
  ],
  "bytecode": "0x608060405234801561001057600080fd5b50612f79806100206000396000f3fe6080604052600436106102385760003560e01c806370a0823111610138578063b187bd26116100b0578063e1ec3c681161007f578063f430503511610064578063f4305035146107e4578063f7fb07b014610804578063fc7b9c181461085157600080fd5b8063e1ec3c68146106ec578063e3691c51146107c457600080fd5b8063b187bd26146105d0578063c4e41b22146105f1578063cd3293de14610606578063d8aed145146106cc57600080fd5b8063929eea21116101075780639b78dbfc116100ec5780639b78dbfc1461057a578063a52f38d11461059a578063b14d37c0146105ba57600080fd5b8063929eea211461053a578063982aae461461055a57600080fd5b806370a08231146104a45780637871b060146104c45780637f394031146104fa5780638ac1b7751461051a57600080fd5b80632e1a7d4d116101cb5780633870862b1161019a5780633b24cc211161017f5780633b24cc21146104375780633b4675a71461044c57806347786d371461048457600080fd5b80633870862b146103f757806339cd7d6a1461041757600080fd5b80632e1a7d4d14610374578063307936011461039457806335403023146103c1578063355274ea146103e157600080fd5b80631794bb3c116102075780631794bb3c146102e457806318160ddd146103045780631877bb5c1461031a5780631e0029c81461034757600080fd5b806303ec357f1461024457806313e7c9d81461026c57806315770f92146102ac57806316c38b3c146102c257600080fd5b3661023f57005b600080fd5b34801561025057600080fd5b50610259610867565b6040519081526020015b60405180910390f35b34801561027857600080fd5b5061029c6102873660046129de565b60006020819052908152604090205460ff1681565b6040519015158152602001610263565b3480156102b857600080fd5b50610259600b5481565b3480156102ce57600080fd5b506102e26102dd366004612a09565b610957565b005b3480156102f057600080fd5b506102e26102ff366004612a26565b6109de565b34801561031057600080fd5b50610259600a5481565b34801561032657600080fd5b506102596103353660046129de565b60086020526000908152604090205481565b34801561035357600080fd5b50610259610362366004612a67565b60096020526000908152604090205481565b34801561038057600080fd5b506102e261038f366004612a67565b610bde565b3480156103a057600080fd5b506102596103af3660046129de565b600f6020526000908152604090205481565b3480156103cd57600080fd5b506102e26103dc366004612a67565b610ef4565b3480156103ed57600080fd5b5061025960105481565b34801561040357600080fd5b506102e2610412366004612a80565b61120f565b34801561042357600080fd5b506102e26104323660046129de565b61154b565b34801561044357600080fd5b50600d54610259565b34801561045857600080fd5b5060045461046c906001600160a01b031681565b6040516001600160a01b039091168152602001610263565b34801561049057600080fd5b506102e261049f366004612a67565b6115e1565b3480156104b057600080fd5b506102596104bf3660046129de565b611637565b3480156104d057600080fd5b506102596104df3660046129de565b6001600160a01b03166000908152600f602052604090205490565b34801561050657600080fd5b506102e2610515366004612aca565b6116f9565b34801561052657600080fd5b506102e26105353660046129de565b611828565b34801561054657600080fd5b5061046c610555366004612a67565b6118a8565b34801561056657600080fd5b5060015461046c906001600160a01b031681565b34801561058657600080fd5b506102e2610595366004612a67565b6118d2565b3480156105a657600080fd5b506102596105b5366004612a67565b61196b565b3480156105c657600080fd5b50610259600d5481565b3480156105dc57600080fd5b50600e5461029c90600160a01b900460ff1681565b3480156105fd57600080fd5b50610259611a68565b34801561061257600080fd5b50600554600654600754610671926001600160801b0380821693600160801b92839004821693828216939091049091169064ffffffffff81169065010000000000810461ffff169067010000000000000090046001600160a01b031687565b604080516001600160801b03988916815296881660208801529487169486019490945294909116606084015264ffffffffff16608083015261ffff90921660a08201526001600160a01b0390911660c082015260e001610263565b3480156106d857600080fd5b506102e26106e7366004612aca565b611b40565b3480156106f857600080fd5b5061076d610707366004612a67565b6003602081905260009182526040909120805460018201546002830154938301546004909301549193909260ff808316936001600160a01b036101008504811694600160a81b9081900484169491821693600160a01b8304811693919092049091169089565b60408051998a5260208a0198909852951515968801969096526001600160a01b039384166060880152911515608087015290911660a0850152151560c084015290151560e083015261010082015261012001610263565b3480156107d057600080fd5b506102e26107df366004612aec565b612037565b3480156107f057600080fd5b506102e26107ff366004612c08565b612193565b34801561081057600080fd5b50600654600554604080516001600160801b03600160801b808604821683528404811660208301529384169181019190915291166060820152608001610263565b34801561085d57600080fd5b50610259600c5481565b60008061087261224d565b905060006108888260c001518360e0015161234a565b6006549091506108a29082906001600160801b031661235e565b60808301526001546040805163313ce56760e01b815290516b033b2e3c9fd0803ce8000000926001600160a01b03169163313ce5679160048083019260209291908290030181865afa1580156108fc573d6000803e3d6000fd5b505050506040513d601f19601f820116820180604052508101906109209190612cca565b61092b90600a612de7565b6080840151600c5461093c9161235e565b6109469190612df6565b6109509190612e23565b9250505090565b600e546040805180820190915260018152601960f91b6020820152906001600160a01b031633146109a45760405162461bcd60e51b815260040161099b9190612e45565b60405180910390fd5b50600e8054911515600160a01b027fffffffffffffffffffffff00ffffffffffffffffffffffffffffffffffffffff909216919091179055565b7ff0c57e16840df040f15088dc2f81fe391c3923bec73e23a9662efc9c229c6a00805468010000000000000000810460ff16159067ffffffffffffffff16600081158015610a295750825b905060008267ffffffffffffffff166001148015610a465750303b155b905081158015610a54575080155b15610a8b576040517ff92ee8a900000000000000000000000000000000000000000000000000000000815260040160405180910390fd5b845467ffffffffffffffff191660011785558315610abf57845468ff00000000000000001916680100000000000000001785555b600180546001600160a01b03808b1673ffffffffffffffffffffffffffffffffffffffff1992831617835560078054918b16670100000000000000027fffffffffff0000000000000000000000000000000000000000ffffffffffffff909216919091179055600580546fffffffffffffffffffffffffffffffff199081166b033b2e3c9fd0803ce8000000908117909255600680549091169091179055600e8054909116339081179091556000908152602081905260409020805460ff1916909117905560108690558315610bd457845468ff000000000000000019168555604051600181527fc7f505b2f371ae2175ee4913f4499e1f2633a7b5936321eed1cdaeb6115181d29060200160405180910390a15b5050505050505050565b600e54604080518082019091526002815261323160f01b602082015290600160a01b900460ff1615610c235760405162461bcd60e51b815260040161099b9190612e45565b506000610c2e61224d565b9050610c39816123a2565b6001546040805163313ce56760e01b815290516000926001600160a01b03169163313ce5679160048083019260209291908290030181865afa158015610c83573d6000803e3d6000fd5b505050506040513d601f19601f82011682018060405250810190610ca79190612cca565b610cb290600a612de7565b610cc86b033b2e3c9fd0803ce800000085612df6565b610cd29190612e23565b9050610cdf6000826123db565b600554600090610cf99083906001600160801b0316612563565b3360009081526008602052604081205491925090610d18908390612e94565b905081600a6000828254610d2c9190612e94565b9250508190555081600b6000828254610d459190612e94565b909155505060408051808201909152600181527f3800000000000000000000000000000000000000000000000000000000000000602082015250336000908152600860205260408120829055600d8054879290610da3908490612e94565b909155505060015460405163a9059cbb60e01b8152336004820152602481018790526001600160a01b039091169063a9059cbb906044016020604051808303816000875af1158015610df9573d6000803e3d6000fd5b505050506040513d601f19601f82011682018060405250810190610e1d9190612ea7565b50336000908152600f6020526040902054851015610e5f57336000908152600f602052604081208054879290610e54908490612e94565b90915550610e709050565b336000908152600f60205260408120555b6001543360008181526008602090815260409182902054600a54600b54600d5485518d81529485019390935293830152606082019290925260808101919091526001600160a01b03909216913091907f173401e3c9626102fe861ca7ddb4665d741deebad547125c24038cafa9345db29060a0015b60405180910390a45050505050565b600e54604080518082019091526002815261323160f01b602082015290600160a01b900460ff1615610f395760405162461bcd60e51b815260040161099b9190612e45565b5060105481610f46611a68565b610f509190612ec4565b11156040518060400160405280600281526020017f323300000000000000000000000000000000000000000000000000000000000081525090610fa65760405162461bcd60e51b815260040161099b9190612e45565b506000610fb161224d565b9050610fbc816123a2565b6001546040805163313ce56760e01b815290516000926001600160a01b03169163313ce5679160048083019260209291908290030181865afa158015611006573d6000803e3d6000fd5b505050506040513d601f19601f8201168201806040525081019061102a9190612cca565b61103590600a612de7565b61104b6b033b2e3c9fd0803ce800000085612df6565b6110559190612e23565b90506110628160006123db565b60055460009061107c9083906001600160801b0316612563565b336000908152600860205260408120549192509061109b908390612ec4565b905081600a60008282546110af9190612ec4565b9250508190555081600b60008282546110c89190612ec4565b9091555050336000908152600860205260408120829055600d80548792906110f1908490612ec4565b90915550506001546040516323b872dd60e01b8152336004820152306024820152604481018790526001600160a01b03909116906323b872dd906064016020604051808303816000875af115801561114d573d6000803e3d6000fd5b505050506040513d601f19601f820116820180604052508101906111719190612ea7565b50336000908152600f602052604081208054879290611191908490612ec4565b90915550506001543360008181526008602090815260409182902054600a54600b54600d5485518d81529485019390935293830152606082019290925260808101919091526001600160a01b03909216913091907fac71e4358c08cef1a5335ac1c1d79f8eea0a3bd10f01a4259308137ebc63d76a9060a001610ee5565b600454604080518082019091526002815261313360f01b6020820152906001600160a01b031633146112545760405162461bcd60e51b815260040161099b9190612e45565b50600e54604080518082019091526002815261323160f01b602082015290600160a01b900460ff161561129a5760405162461bcd60e51b815260040161099b9190612e45565b5060006112a561224d565b90506112b0816123a2565b6001546040805163313ce56760e01b815290516000926001600160a01b03169163313ce5679160048083019260209291908290030181865afa1580156112fa573d6000803e3d6000fd5b505050506040513d601f19601f8201168201806040525081019061131e9190612cca565b61132990600a612de7565b61133f6b033b2e3c9fd0803ce800000087612df6565b6113499190612e23565b9050600061136483608001518361256390919063ffffffff16565b60008881526009602052604081205491925090611382908390612ec4565b905081600c60008282546113969190612ec4565b9091555050600d5460408051808201909152600281527f31350000000000000000000000000000000000000000000000000000000000006020820152908811156113f35760405162461bcd60e51b815260040161099b9190612e45565b506000888152600360208181526040808420600990925283208490558a8155600181018a90556002810180547fffffffffffffffffffffff0000000000000000000000000000000000000000ff166101006001600160a01b038c1602179055908101805460ff60a81b1916600160a81b891515021790559061147590856123db565b6040850151611485908590612563565b600b60008282546114969190612e94565b9250508190555087600d60008282546114af9190612e94565b90915550506001805460008b8152600360205260409081902090920154915163a9059cbb60e01b81526001600160a01b038a81166004830152602482019390935291169063a9059cbb906044016020604051808303816000875af115801561151b573d6000803e3d6000fd5b505050506040513d601f19601f8201168201806040525081019061153f9190612ea7565b50505050505050505050565b33600090815260208181526040918290205482518084019093526002835261062760f31b9183019190915260ff16151560011461159b5760405162461bcd60e51b815260040161099b9190612e45565b50600780546001600160a01b03909216670100000000000000027fffffffffff0000000000000000000000000000000000000000ffffffffffffff909216919091179055565b33600090815260208181526040918290205482518084019093526002835261062760f31b9183019190915260ff1615156001146116315760405162461bcd60e51b815260040161099b9190612e45565b50601055565b6001546040805163313ce56760e01b815290516000926001600160a01b03169163313ce5679160048083019260209291908290030181865afa158015611681573d6000803e3d6000fd5b505050506040513d601f19601f820116820180604052508101906116a59190612cca565b6116b090601b612ed7565b6116bb90600a612de7565b6005546001600160a01b0384166000908152600860205260409020546116e9916001600160801b031661235e565b6116f39190612e23565b92915050565b600454604080518082019091526002815261313360f01b6020820152906001600160a01b0316331461173e5760405162461bcd60e51b815260040161099b9190612e45565b50600e54604080518082019091526002815261323160f01b602082015290600160a01b900460ff16156117845760405162461bcd60e51b815260040161099b9190612e45565b5060008281526003602090815260409182902060029081015483518085019094529083527f313700000000000000000000000000000000000000000000000000000000000091830191909152600160a81b900460ff16156117f85760405162461bcd60e51b815260040161099b9190612e45565b5061180381336125a2565b506000908152600360205260409020600201805460ff60a81b1916600160a81b179055565b33600090815260208181526040918290205482518084019093526002835261062760f31b9183019190915260ff1615156001146118785760405162461bcd60e51b815260040161099b9190612e45565b506004805473ffffffffffffffffffffffffffffffffffffffff19166001600160a01b0392909216919091179055565b600281815481106118b857600080fd5b6000918252602090912001546001600160a01b0316905081565b600454604080518082019091526002815261313360f01b6020820152906001600160a01b031633146119175760405162461bcd60e51b815260040161099b9190612e45565b50600e54604080518082019091526002815261323160f01b602082015290600160a01b900460ff161561195d5760405162461bcd60e51b815260040161099b9190612e45565b5061196881336125a2565b50565b60008061197661224d565b9050600061198c8260c001518360e0015161234a565b6006549091506119a69082906001600160801b031661235e565b60808301526001546040805163313ce56760e01b815290516b033b2e3c9fd0803ce8000000926001600160a01b03169163313ce5679160048083019260209291908290030181865afa158015611a00573d6000803e3d6000fd5b505050506040513d601f19601f82011682018060405250810190611a249190612cca565b611a2f90600a612de7565b6080840151600087815260096020526040902054611a4c9161235e565b611a569190612df6565b611a609190612e23565b949350505050565b600080611a7361224d565b90506000611a898260a001518360e0015161272c565b9050611aa282604001518261235e90919063ffffffff16565b604080840191909152600154815163313ce56760e01b815291516b033b2e3c9fd0803ce8000000926001600160a01b039092169163313ce5679160048083019260209291908290030181865afa158015611b00573d6000803e3d6000fd5b505050506040513d601f19601f82011682018060405250810190611b249190612cca565b611b2f90600a612de7565b6040840151600a5461093c9161235e565b600454604080518082019091526002815261313360f01b6020820152906001600160a01b03163314611b855760405162461bcd60e51b815260040161099b9190612e45565b50600e54604080518082019091526002815261323160f01b602082015290600160a01b900460ff1615611bcb5760405162461bcd60e51b815260040161099b9190612e45565b5060008281526003602090815260409182902060029081015483518085019094529083527f31360000000000000000000000000000000000000000000000000000000000009183019190915260ff1615611c385760405162461bcd60e51b815260040161099b9190612e45565b506000611c4361224d565b9050611c4e816123a2565b6001546040805163313ce56760e01b815290516000926001600160a01b03169163313ce5679160048083019260209291908290030181865afa158015611c98573d6000803e3d6000fd5b505050506040513d601f19601f82011682018060405250810190611cbc9190612cca565b611cc790600a612de7565b611cdd6b033b2e3c9fd0803ce800000085612df6565b611ce79190612e23565b600654909150600090611d049083906001600160801b0316612563565b6000868152600960205260409020549091508110611f1b57600085815260096020526040812054600c805491929091611d3e908490612e94565b90915550506006546000868152600960205260408120549091611d6a91906001600160801b031661235e565b6001546040805163313ce56760e01b815290519293506000926b033b2e3c9fd0803ce8000000926001600160a01b03169163313ce5679160048083019260209291908290030181865afa158015611dc5573d6000803e3d6000fd5b505050506040513d601f19601f82011682018060405250810190611de99190612cca565b611df490600a612de7565b611dfe9084612df6565b611e089190612e23565b6000888152600960205260408120819055909150611e279083906123db565b604080860151600089815260096020529190912054611e4591612563565b600b6000828254611e569190612ec4565b9250508190555080600d6000828254611e6f9190612ec4565b9091555050600154600480546040516323b872dd60e01b81526001600160a01b039182169281019290925230602483015260448201849052909116906323b872dd906064016020604051808303816000875af1158015611ed3573d6000803e3d6000fd5b505050506040513d601f19601f82011682018060405250810190611ef79190612ea7565b5050506000858152600360205260409020600201805460ff19166001179055612030565b600085815260096020526040812054611f35908390612e94565b905081600c6000828254611f499190612e94565b90915550506000868152600960205260408120829055611f6a9084906123db565b6040840151611f7a908490612563565b600b6000828254611f8b9190612ec4565b9250508190555084600d6000828254611fa49190612ec4565b9091555050600154600480546040516323b872dd60e01b81526001600160a01b039182169281019290925230602483015260448201889052909116906323b872dd906064015b6020604051808303816000875af1158015612009573d6000803e3d6000fd5b505050506040513d601f19601f8201168201806040525081019061202d9190612ea7565b50505b5050505050565b600e546040805180820190915260018152601960f91b6020820152906001600160a01b0316331461207b5760405162461bcd60e51b815260040161099b9190612e45565b506040517f70a082310000000000000000000000000000000000000000000000000000000081523060048201526001600160a01b0383169063a9059cbb90839083906370a0823190602401602060405180830381865afa1580156120e3573d6000803e3d6000fd5b505050506040513d601f19601f820116820180604052508101906121079190612ef0565b6040517fffffffff0000000000000000000000000000000000000000000000000000000060e085901b1681526001600160a01b03909216600483015260248201526044016020604051808303816000875af115801561216a573d6000803e3d6000fd5b505050506040513d601f19601f8201168201806040525081019061218e9190612ea7565b505050565b600e546040805180820190915260018152601960f91b6020820152906001600160a01b031633146121d75760405162461bcd60e51b815260040161099b9190612e45565b5060005b825181101561218e578181815181106121f6576121f6612f09565b602002602001015160008085848151811061221357612213612f09565b6020908102919091018101516001600160a01b03168252810191909152604001600020805460ff19169115159190911790556001016121db565b61229c60405180610100016040528060008152602001600081526020016000815260200160008152602001600081526020016000815260200160008152602001600064ffffffffff1681525090565b6122eb60405180610100016040528060008152602001600081526020016000815260200160008152602001600081526020016000815260200160008152602001600064ffffffffff1681525090565b6005546001600160801b03808216604084018190526020840152600654808216608085018190526060850152600160801b92839004821660a0850152919091041660c082015260075464ffffffffff1660e0820152600c548152919050565b6000612357838342612769565b9392505050565b600081156b019d971e4fe8401e74000000198390048411151761238057600080fd5b506b033b2e3c9fd0803ce800000091026b019d971e4fe8401e74000000010490565b60075464ffffffffff4281169116036123b85750565b6123c181612895565b506007805464ffffffffff19164264ffffffffff16179055565b6123ff60405180606001604052806000815260200160008152602001600081525090565b6007546040805160808101825285815260208101859052600654600c546701000000000000009094046001600160a01b0316936356eaf2649383019161244e91906001600160801b031661235e565b8152600554600b5460209092019161246e916001600160801b031661235e565b9052604080517fffffffff0000000000000000000000000000000000000000000000000000000060e085901b168152825160048201526020830151602482015290820151604482015260609091015160648201526084016040805180830381865afa1580156124e1573d6000803e3d6000fd5b505050506040513d601f19601f820116820180604052508101906125059190612f1f565b602083015280825261251690612978565b600580546001600160801b03928316600160801b029216919091179055602081015161254190612978565b600680546001600160801b03928316600160801b029216919091179055505050565b600081156b033b2e3c9fd0803ce80000006002840419048411171561258757600080fd5b506b033b2e3c9fd0803ce80000009190910260028204010490565b81156127285760006125b261224d565b90506125bd816123a2565b6001546040805163313ce56760e01b815290516000926001600160a01b03169163313ce5679160048083019260209291908290030181865afa158015612607573d6000803e3d6000fd5b505050506040513d601f19601f8201168201806040525081019061262b9190612cca565b61263690600a612de7565b61264c6b033b2e3c9fd0803ce800000086612df6565b6126569190612e23565b905060006126738360400151600b5461235e90919063ffffffff16565b9050600061269b826126958660400151868661268f9190612ec4565b9061235e565b90612563565b90506126a681612978565b600580546fffffffffffffffffffffffffffffffff19166001600160801b0392909216919091179055600d80548791906000906126e4908490612ec4565b90915550506001546040516323b872dd60e01b81526001600160a01b03878116600483015230602483015260448201899052909116906323b872dd90606401611fea565b5050565b60008061274064ffffffffff841642612e94565b61274a9085612df6565b6301e1338090049050611a60816b033b2e3c9fd0803ce8000000612ec4565b60008061277d64ffffffffff851684612e94565b90508060000361279c576b033b2e3c9fd0803ce8000000915050612357565b600019810160008080600285116127b45760006127b9565b600285035b925066038882915c40006127cd8a8061235e565b816127da576127da612e0d565b0491506301e133806127ec838b61235e565b816127f9576127f9612e0d565b0490506000826128098688612df6565b6128139190612df6565b60029004905060008285612827888a612df6565b6128319190612df6565b61283b9190612df6565b60069004905080826301e133806128528a8f612df6565b61285c9190612e23565b612872906b033b2e3c9fd0803ce8000000612ec4565b61287c9190612ec4565b6128869190612ec4565b9b9a5050505050505050505050565b60a0810151156129075760006128b38260a001518360e0015161272c565b90506128cc82602001518261235e90919063ffffffff16565b604083018190526128dc90612978565b600580546fffffffffffffffffffffffffffffffff19166001600160801b0392909216919091179055505b8051156119685760006129228260c001518360e0015161234a565b905061293b82606001518261235e90919063ffffffff16565b6080830181905261294b90612978565b600680546fffffffffffffffffffffffffffffffff19166001600160801b03929092169190911790555050565b60006001600160801b038211156129c5576040517f6dfcc650000000000000000000000000000000000000000000000000000000008152608060048201526024810183905260440161099b565b5090565b6001600160a01b038116811461196857600080fd5b6000602082840312156129f057600080fd5b8135612357816129c9565b801515811461196857600080fd5b600060208284031215612a1b57600080fd5b8135612357816129fb565b600080600060608486031215612a3b57600080fd5b8335612a46816129c9565b92506020840135612a56816129c9565b929592945050506040919091013590565b600060208284031215612a7957600080fd5b5035919050565b60008060008060808587031215612a9657600080fd5b84359350602085013592506040850135612aaf816129c9565b91506060850135612abf816129fb565b939692955090935050565b60008060408385031215612add57600080fd5b50508035926020909101359150565b60008060408385031215612aff57600080fd5b8235612b0a816129c9565b91506020830135612b1a816129c9565b809150509250929050565b634e487b7160e01b600052604160045260246000fd5b604051601f8201601f1916810167ffffffffffffffff81118282101715612b6457612b64612b25565b604052919050565b600067ffffffffffffffff821115612b8657612b86612b25565b5060051b60200190565b600082601f830112612ba157600080fd5b81356020612bb6612bb183612b6c565b612b3b565b8083825260208201915060208460051b870101935086841115612bd857600080fd5b602086015b84811015612bfd578035612bf0816129fb565b8352918301918301612bdd565b509695505050505050565b60008060408385031215612c1b57600080fd5b823567ffffffffffffffff80821115612c3357600080fd5b818501915085601f830112612c4757600080fd5b81356020612c57612bb183612b6c565b82815260059290921b84018101918181019089841115612c7657600080fd5b948201945b83861015612c9d578535612c8e816129c9565b82529482019490820190612c7b565b96505086013592505080821115612cb357600080fd5b50612cc085828601612b90565b9150509250929050565b600060208284031215612cdc57600080fd5b815160ff8116811461235757600080fd5b634e487b7160e01b600052601160045260246000fd5b600181815b80851115612d3e578160001904821115612d2457612d24612ced565b80851615612d3157918102915b93841c9390800290612d08565b509250929050565b600082612d55575060016116f3565b81612d62575060006116f3565b8160018114612d785760028114612d8257612d9e565b60019150506116f3565b60ff841115612d9357612d93612ced565b50506001821b6116f3565b5060208310610133831016604e8410600b8410161715612dc1575081810a6116f3565b612dcb8383612d03565b8060001904821115612ddf57612ddf612ced565b029392505050565b600061235760ff841683612d46565b80820281158282048414176116f3576116f3612ced565b634e487b7160e01b600052601260045260246000fd5b600082612e4057634e487b7160e01b600052601260045260246000fd5b500490565b60006020808352835180602085015260005b81811015612e7357858101830151858201604001528201612e57565b506000604082860101526040601f19601f8301168501019250505092915050565b818103818111156116f3576116f3612ced565b600060208284031215612eb957600080fd5b8151612357816129fb565b808201808211156116f3576116f3612ced565b60ff82811682821603908111156116f3576116f3612ced565b600060208284031215612f0257600080fd5b5051919050565b634e487b7160e01b600052603260045260246000fd5b60008060408385031215612f3257600080fd5b50508051602090910151909290915056fea2646970667358221220806a8095527aae3eeed67910427f9085110adbd791089c83e64bf570d6e098c264736f6c63430008180033",
  "linkReferences": {},
  "deployedLinkReferences": {}
}