{
  "_format": "hh-sol-artifact-1",
  "contractName": "CCFLLoan",
  "sourceName": "contracts/CCFLLoan.sol",
  "abi": [
    {
      "inputs": [],
      "stateMutability": "nonpayable",
      "type": "constructor"
    },
    {
      "inputs": [],
      "name": "InvalidInitialization",
      "type": "error"
    },
    {
      "inputs": [],
      "name": "NotInitializing",
      "type": "error"
    },
    {
      "anonymous": false,
      "inputs": [
        {
          "indexed": false,
          "internalType": "uint64",
          "name": "version",
          "type": "uint64"
        }
      ],
      "name": "Initialized",
      "type": "event"
    },
    {
      "anonymous": false,
      "inputs": [
        {
          "indexed": true,
          "internalType": "address",
          "name": "onBehalfOf",
          "type": "address"
        },
        {
          "indexed": true,
          "internalType": "address",
          "name": "_token",
          "type": "address"
        },
        {
          "indexed": false,
          "internalType": "uint256",
          "name": "_amount",
          "type": "uint256"
        }
      ],
      "name": "LiquiditySupplied",
      "type": "event"
    },
    {
      "anonymous": false,
      "inputs": [
        {
          "indexed": true,
          "internalType": "address",
          "name": "to",
          "type": "address"
        },
        {
          "indexed": true,
          "internalType": "address",
          "name": "_token",
          "type": "address"
        },
        {
          "indexed": false,
          "internalType": "uint256",
          "name": "_amount",
          "type": "uint256"
        }
      ],
      "name": "LiquidityWithdrawn",
      "type": "event"
    },
    {
      "inputs": [],
      "name": "aToken",
      "outputs": [
        {
          "internalType": "contract IERC20Standard",
          "name": "",
          "type": "address"
        }
      ],
      "stateMutability": "view",
      "type": "function"
    },
    {
      "inputs": [
        {
          "internalType": "uint256",
          "name": "_currentDebt",
          "type": "uint256"
        },
        {
          "internalType": "uint256",
          "name": "_amountOut",
          "type": "uint256"
        }
      ],
      "name": "calculateLiquidation",
      "outputs": [
        {
          "internalType": "uint256",
          "name": "",
          "type": "uint256"
        },
        {
          "internalType": "uint256",
          "name": "",
          "type": "uint256"
        },
        {
          "internalType": "uint256",
          "name": "",
          "type": "uint256"
        },
        {
          "internalType": "uint256",
          "name": "",
          "type": "uint256"
        }
      ],
      "stateMutability": "view",
      "type": "function"
    },
    {
      "inputs": [
        {
          "internalType": "uint256",
          "name": "_currentDebt",
          "type": "uint256"
        }
      ],
      "name": "calculateSwap",
      "outputs": [
        {
          "internalType": "uint256",
          "name": "",
          "type": "uint256"
        },
        {
          "internalType": "uint256",
          "name": "",
          "type": "uint256"
        }
      ],
      "stateMutability": "nonpayable",
      "type": "function"
    },
    {
      "inputs": [],
      "name": "ccfl",
      "outputs": [
        {
          "internalType": "address",
          "name": "",
          "type": "address"
        }
      ],
      "stateMutability": "view",
      "type": "function"
    },
    {
      "inputs": [],
      "name": "closeLoan",
      "outputs": [
        {
          "internalType": "uint256",
          "name": "",
          "type": "uint256"
        },
        {
          "internalType": "uint256",
          "name": "",
          "type": "uint256"
        }
      ],
      "stateMutability": "nonpayable",
      "type": "function"
    },
    {
      "inputs": [],
      "name": "collateralAmount",
      "outputs": [
        {
          "internalType": "uint256",
          "name": "",
          "type": "uint256"
        }
      ],
      "stateMutability": "view",
      "type": "function"
    },
    {
      "inputs": [],
      "name": "collateralToken",
      "outputs": [
        {
          "internalType": "contract IERC20Standard",
          "name": "",
          "type": "address"
        }
      ],
      "stateMutability": "view",
      "type": "function"
    },
    {
      "inputs": [],
      "name": "earnBorrower",
      "outputs": [
        {
          "internalType": "uint256",
          "name": "",
          "type": "uint256"
        }
      ],
      "stateMutability": "view",
      "type": "function"
    },
    {
      "inputs": [],
      "name": "earnLender",
      "outputs": [
        {
          "internalType": "uint256",
          "name": "",
          "type": "uint256"
        }
      ],
      "stateMutability": "view",
      "type": "function"
    },
    {
      "inputs": [],
      "name": "earnPlatform",
      "outputs": [
        {
          "internalType": "uint256",
          "name": "",
          "type": "uint256"
        }
      ],
      "stateMutability": "view",
      "type": "function"
    },
    {
      "inputs": [],
      "name": "factory",
      "outputs": [
        {
          "internalType": "contract IUniswapV3Factory",
          "name": "",
          "type": "address"
        }
      ],
      "stateMutability": "view",
      "type": "function"
    },
    {
      "inputs": [],
      "name": "feeTier",
      "outputs": [
        {
          "internalType": "uint24",
          "name": "",
          "type": "uint24"
        }
      ],
      "stateMutability": "view",
      "type": "function"
    },
    {
      "inputs": [],
      "name": "getCollateralAmount",
      "outputs": [
        {
          "internalType": "uint256",
          "name": "",
          "type": "uint256"
        }
      ],
      "stateMutability": "view",
      "type": "function"
    },
    {
      "inputs": [],
      "name": "getCollateralToken",
      "outputs": [
        {
          "internalType": "contract IERC20Standard",
          "name": "",
          "type": "address"
        }
      ],
      "stateMutability": "view",
      "type": "function"
    },
    {
      "inputs": [
        {
          "internalType": "uint256",
          "name": "currentDebt",
          "type": "uint256"
        },
        {
          "internalType": "uint256",
          "name": "addCollateral",
          "type": "uint256"
        }
      ],
      "name": "getHealthFactor",
      "outputs": [
        {
          "internalType": "uint256",
          "name": "",
          "type": "uint256"
        }
      ],
      "stateMutability": "view",
      "type": "function"
    },
    {
      "inputs": [],
      "name": "getIsYeild",
      "outputs": [
        {
          "internalType": "bool",
          "name": "",
          "type": "bool"
        }
      ],
      "stateMutability": "view",
      "type": "function"
    },
    {
      "inputs": [
        {
          "internalType": "contract IERC20Standard",
          "name": "_coin",
          "type": "address"
        },
        {
          "internalType": "bool",
          "name": "isPool",
          "type": "bool"
        }
      ],
      "name": "getLatestPrice",
      "outputs": [
        {
          "internalType": "uint256",
          "name": "",
          "type": "uint256"
        }
      ],
      "stateMutability": "view",
      "type": "function"
    },
    {
      "inputs": [],
      "name": "getLoanInfo",
      "outputs": [
        {
          "components": [
            {
              "internalType": "uint256",
              "name": "loanId",
              "type": "uint256"
            },
            {
              "internalType": "bool",
              "name": "isPaid",
              "type": "bool"
            },
            {
              "internalType": "uint256",
              "name": "amount",
              "type": "uint256"
            },
            {
              "internalType": "bool",
              "name": "isClosed",
              "type": "bool"
            },
            {
              "internalType": "address",
              "name": "borrower",
              "type": "address"
            },
            {
              "internalType": "bool",
              "name": "isLiquidated",
              "type": "bool"
            },
            {
              "internalType": "contract IERC20Standard",
              "name": "stableCoin",
              "type": "address"
            },
            {
              "internalType": "bool",
              "name": "isFinalty",
              "type": "bool"
            },
            {
              "internalType": "bool",
              "name": "isFiat",
              "type": "bool"
            },
            {
              "internalType": "uint256",
              "name": "closedAmount",
              "type": "uint256"
            }
          ],
          "internalType": "struct DataTypes.Loan",
          "name": "",
          "type": "tuple"
        }
      ],
      "stateMutability": "view",
      "type": "function"
    },
    {
      "inputs": [
        {
          "internalType": "address",
          "name": "user",
          "type": "address"
        }
      ],
      "name": "getUserAccountData",
      "outputs": [
        {
          "internalType": "uint256",
          "name": "totalCollateralBase",
          "type": "uint256"
        },
        {
          "internalType": "uint256",
          "name": "totalDebtBase",
          "type": "uint256"
        },
        {
          "internalType": "uint256",
          "name": "availableBorrowsBase",
          "type": "uint256"
        },
        {
          "internalType": "uint256",
          "name": "currentLiquidationThreshold",
          "type": "uint256"
        },
        {
          "internalType": "uint256",
          "name": "ltv",
          "type": "uint256"
        },
        {
          "internalType": "uint256",
          "name": "healthFactor",
          "type": "uint256"
        }
      ],
      "stateMutability": "view",
      "type": "function"
    },
    {
      "inputs": [
        {
          "internalType": "uint256",
          "name": "_earnBorrower",
          "type": "uint256"
        }
      ],
      "name": "getYieldEarned",
      "outputs": [
        {
          "internalType": "uint256",
          "name": "",
          "type": "uint256"
        }
      ],
      "stateMutability": "view",
      "type": "function"
    },
    {
      "inputs": [],
      "name": "iCCFLConfig",
      "outputs": [
        {
          "internalType": "contract ICCFLConfig",
          "name": "",
          "type": "address"
        }
      ],
      "stateMutability": "view",
      "type": "function"
    },
    {
      "inputs": [],
      "name": "initLoan",
      "outputs": [
        {
          "internalType": "uint256",
          "name": "loanId",
          "type": "uint256"
        },
        {
          "internalType": "bool",
          "name": "isPaid",
          "type": "bool"
        },
        {
          "internalType": "uint256",
          "name": "amount",
          "type": "uint256"
        },
        {
          "internalType": "bool",
          "name": "isClosed",
          "type": "bool"
        },
        {
          "internalType": "address",
          "name": "borrower",
          "type": "address"
        },
        {
          "internalType": "bool",
          "name": "isLiquidated",
          "type": "bool"
        },
        {
          "internalType": "contract IERC20Standard",
          "name": "stableCoin",
          "type": "address"
        },
        {
          "internalType": "bool",
          "name": "isFinalty",
          "type": "bool"
        },
        {
          "internalType": "bool",
          "name": "isFiat",
          "type": "bool"
        },
        {
          "internalType": "uint256",
          "name": "closedAmount",
          "type": "uint256"
        }
      ],
      "stateMutability": "view",
      "type": "function"
    },
    {
      "inputs": [
        {
          "components": [
            {
              "internalType": "uint256",
              "name": "loanId",
              "type": "uint256"
            },
            {
              "internalType": "bool",
              "name": "isPaid",
              "type": "bool"
            },
            {
              "internalType": "uint256",
              "name": "amount",
              "type": "uint256"
            },
            {
              "internalType": "bool",
              "name": "isClosed",
              "type": "bool"
            },
            {
              "internalType": "address",
              "name": "borrower",
              "type": "address"
            },
            {
              "internalType": "bool",
              "name": "isLiquidated",
              "type": "bool"
            },
            {
              "internalType": "contract IERC20Standard",
              "name": "stableCoin",
              "type": "address"
            },
            {
              "internalType": "bool",
              "name": "isFinalty",
              "type": "bool"
            },
            {
              "internalType": "bool",
              "name": "isFiat",
              "type": "bool"
            },
            {
              "internalType": "uint256",
              "name": "closedAmount",
              "type": "uint256"
            }
          ],
          "internalType": "struct DataTypes.Loan",
          "name": "_loan",
          "type": "tuple"
        },
        {
          "internalType": "contract IERC20Standard",
          "name": "_collateralToken",
          "type": "address"
        },
        {
          "internalType": "contract IERC20Standard",
          "name": "_aToken",
          "type": "address"
        },
        {
          "internalType": "contract AggregatorV3Interface",
          "name": "_priceFeed",
          "type": "address"
        },
        {
          "internalType": "contract AggregatorV3Interface",
          "name": "_pricePoolFeed",
          "type": "address"
        },
        {
          "internalType": "contract ICCFLConfig",
          "name": "_iCCFLConfig",
          "type": "address"
        }
      ],
      "name": "initialize",
      "outputs": [],
      "stateMutability": "nonpayable",
      "type": "function"
    },
    {
      "inputs": [],
      "name": "isStakeAave",
      "outputs": [
        {
          "internalType": "bool",
          "name": "",
          "type": "bool"
        }
      ],
      "stateMutability": "view",
      "type": "function"
    },
    {
      "inputs": [
        {
          "internalType": "uint256",
          "name": "_currentDebt",
          "type": "uint256"
        }
      ],
      "name": "liquidate",
      "outputs": [
        {
          "internalType": "uint256",
          "name": "",
          "type": "uint256"
        },
        {
          "internalType": "uint256",
          "name": "",
          "type": "uint256"
        },
        {
          "internalType": "uint256",
          "name": "",
          "type": "uint256"
        },
        {
          "internalType": "uint256",
          "name": "",
          "type": "uint256"
        }
      ],
      "stateMutability": "nonpayable",
      "type": "function"
    },
    {
      "inputs": [],
      "name": "owner",
      "outputs": [
        {
          "internalType": "address",
          "name": "",
          "type": "address"
        }
      ],
      "stateMutability": "view",
      "type": "function"
    },
    {
      "inputs": [],
      "name": "penaltyLender",
      "outputs": [
        {
          "internalType": "uint256",
          "name": "",
          "type": "uint256"
        }
      ],
      "stateMutability": "view",
      "type": "function"
    },
    {
      "inputs": [],
      "name": "penaltyLiquidator",
      "outputs": [
        {
          "internalType": "uint256",
          "name": "",
          "type": "uint256"
        }
      ],
      "stateMutability": "view",
      "type": "function"
    },
    {
      "inputs": [],
      "name": "penaltyPlatform",
      "outputs": [
        {
          "internalType": "uint256",
          "name": "",
          "type": "uint256"
        }
      ],
      "stateMutability": "view",
      "type": "function"
    },
    {
      "inputs": [],
      "name": "platform",
      "outputs": [
        {
          "internalType": "address",
          "name": "",
          "type": "address"
        }
      ],
      "stateMutability": "view",
      "type": "function"
    },
    {
      "inputs": [],
      "name": "priceFeed",
      "outputs": [
        {
          "internalType": "contract AggregatorV3Interface",
          "name": "",
          "type": "address"
        }
      ],
      "stateMutability": "view",
      "type": "function"
    },
    {
      "inputs": [],
      "name": "pricePoolFeed",
      "outputs": [
        {
          "internalType": "contract AggregatorV3Interface",
          "name": "",
          "type": "address"
        }
      ],
      "stateMutability": "view",
      "type": "function"
    },
    {
      "inputs": [],
      "name": "quoter",
      "outputs": [
        {
          "internalType": "contract IQuoterV2",
          "name": "",
          "type": "address"
        }
      ],
      "stateMutability": "view",
      "type": "function"
    },
    {
      "inputs": [
        {
          "internalType": "address",
          "name": "_ccfl",
          "type": "address"
        }
      ],
      "name": "setCCFL",
      "outputs": [],
      "stateMutability": "nonpayable",
      "type": "function"
    },
    {
      "inputs": [
        {
          "internalType": "uint256",
          "name": "_borrower",
          "type": "uint256"
        },
        {
          "internalType": "uint256",
          "name": "_platform",
          "type": "uint256"
        },
        {
          "internalType": "uint256",
          "name": "_lender",
          "type": "uint256"
        }
      ],
      "name": "setEarnShare",
      "outputs": [],
      "stateMutability": "nonpayable",
      "type": "function"
    },
    {
      "inputs": [],
      "name": "setPaid",
      "outputs": [],
      "stateMutability": "nonpayable",
      "type": "function"
    },
    {
      "inputs": [
        {
          "internalType": "uint256",
          "name": "_platform",
          "type": "uint256"
        },
        {
          "internalType": "uint256",
          "name": "_liquidator",
          "type": "uint256"
        },
        {
          "internalType": "uint256",
          "name": "_lender",
          "type": "uint256"
        }
      ],
      "name": "setPenalty",
      "outputs": [],
      "stateMutability": "nonpayable",
      "type": "function"
    },
    {
      "inputs": [
        {
          "internalType": "contract IV3SwapRouter",
          "name": "_swapRouter",
          "type": "address"
        },
        {
          "internalType": "contract IUniswapV3Factory",
          "name": "_factory",
          "type": "address"
        },
        {
          "internalType": "contract IQuoterV2",
          "name": "_quoter",
          "type": "address"
        }
      ],
      "name": "setSwapRouter",
      "outputs": [],
      "stateMutability": "nonpayable",
      "type": "function"
    },
    {
      "inputs": [
        {
          "internalType": "uint24",
          "name": "_uniFee",
          "type": "uint24"
        }
      ],
      "name": "setUniFee",
      "outputs": [],
      "stateMutability": "nonpayable",
      "type": "function"
    },
    {
      "inputs": [],
      "name": "shareBorrower",
      "outputs": [
        {
          "internalType": "uint256",
          "name": "",
          "type": "uint256"
        }
      ],
      "stateMutability": "view",
      "type": "function"
    },
    {
      "inputs": [],
      "name": "shareLender",
      "outputs": [
        {
          "internalType": "uint256",
          "name": "",
          "type": "uint256"
        }
      ],
      "stateMutability": "view",
      "type": "function"
    },
    {
      "inputs": [],
      "name": "sharePlatform",
      "outputs": [
        {
          "internalType": "uint256",
          "name": "",
          "type": "uint256"
        }
      ],
      "stateMutability": "view",
      "type": "function"
    },
    {
      "inputs": [],
      "name": "supplyLiquidity",
      "outputs": [],
      "stateMutability": "nonpayable",
      "type": "function"
    },
    {
      "inputs": [],
      "name": "swapRouter",
      "outputs": [
        {
          "internalType": "contract IV3SwapRouter",
          "name": "",
          "type": "address"
        }
      ],
      "stateMutability": "view",
      "type": "function"
    },
    {
      "inputs": [
        {
          "internalType": "uint256",
          "name": "amount",
          "type": "uint256"
        }
      ],
      "name": "updateCollateral",
      "outputs": [],
      "stateMutability": "nonpayable",
      "type": "function"
    },
    {
      "inputs": [
        {
          "internalType": "address",
          "name": "_receiver",
          "type": "address"
        },
        {
          "internalType": "bool",
          "name": "_isETH",
          "type": "bool"
        }
      ],
      "name": "withdrawAllCollateral",
      "outputs": [],
      "stateMutability": "nonpayable",
      "type": "function"
    },
    {
      "inputs": [
        {
          "internalType": "uint256",
          "name": "_earnPlatform",
          "type": "uint256"
        },
        {
          "internalType": "uint256",
          "name": "_earnBorrower",
          "type": "uint256"
        },
        {
          "internalType": "uint256",
          "name": "_earnLender",
          "type": "uint256"
        }
      ],
      "name": "withdrawLiquidity",
      "outputs": [],
      "stateMutability": "nonpayable",
      "type": "function"
    },
    {
      "stateMutability": "payable",
      "type": "receive"
    }
  ],
  "bytecode": "0x60806040526002805462ffffff60a01b191661017760a31b17905534801561002657600080fd5b50613729806100366000396000f3fe60806040526004361061030c5760003560e01c806372f5d98a1161019a578063a58bab62116100e1578063c31c9c071161008a578063f3cf4ada11610064578063f3cf4ada14610a4e578063f6597bbb14610a6e578063fab320e914610a8457600080fd5b8063c31c9c07146109ee578063c45a015514610a0e578063c6bbd5a714610a2e57600080fd5b8063b2016bd4116100bb578063b2016bd414610961578063b3bffeaa14610981578063bf92857c146109a157600080fd5b8063a58bab6214610915578063a95d71321461092b578063b15624f31461094157600080fd5b80638ac1b77511610143578063964236631161011d57806396423663146108b7578063a0c1f15e146108d5578063a13cd37e146108f557600080fd5b80638ac1b775146108615780638da5cb5b1461088157806392d09ceb146108a157600080fd5b80637ce67d60116101745780637ce67d6014610766578063805a288f14610821578063894059c61461084157600080fd5b806372f5d98a146106f9578063741bef1a14610730578063792f436f1461075057600080fd5b80633666eefa1161025e57806358b275d71161020757806368dcad58116101e157806368dcad581461069957806369fa97c0146106b95780636cb0ab5e146106d957600080fd5b806358b275d7146105575780635d3e2fa1146105775780636721de261461067957600080fd5b80634bde38c8116102385780634bde38c8146104df5780634d2c872a146105175780635825f5351461053757600080fd5b80633666eefa146104695780633a0720e614610489578063415f12401461049f57600080fd5b806311256603116102c0578063288cc89e1161029a578063288cc89e14610428578063315deeaa1461043e57806332df398e1461045357600080fd5b806311256603146103ae5780631c783def146103df578063232fa733146103fe57600080fd5b8063101b9d31116102f1578063101b9d3114610358578063102cb82e1461036e57806310ac5c3c1461038e57600080fd5b806305b57c0b1461031857806307a6bf691461034157600080fd5b3661031357005b600080fd5b34801561032457600080fd5b5061032e60165481565b6040519081526020015b60405180910390f35b34801561034d57600080fd5b50610356610a99565b005b34801561036457600080fd5b5061032e60195481565b34801561037a57600080fd5b50610356610389366004612faa565b610dea565b34801561039a57600080fd5b506103566103a9366004612fe3565b6111b5565b3480156103ba57600080fd5b506001546103cf90600160a01b900460ff1681565b6040519015158152602001610338565b3480156103eb57600080fd5b50600154600160a01b900460ff166103cf565b34801561040a57600080fd5b50610413611246565b60408051928352602083019190915201610338565b34801561043457600080fd5b5061032e60145481565b34801561044a57600080fd5b5060055461032e565b34801561045f57600080fd5b5061032e60115481565b34801561047557600080fd5b5061041361048436600461302e565b6114f9565b34801561049557600080fd5b5061032e60135481565b3480156104ab57600080fd5b506104bf6104ba36600461302e565b611634565b604080519485526020850193909352918301526060820152608001610338565b3480156104eb57600080fd5b506010546104ff906001600160a01b031681565b6040516001600160a01b039091168152602001610338565b34801561052357600080fd5b5061032e610532366004613047565b611872565b34801561054357600080fd5b50600f546104ff906001600160a01b031681565b34801561056357600080fd5b506104bf610572366004613047565b611ac7565b34801561058357600080fd5b5061066c6040805161014081018252600080825260208201819052918101829052606081018290526080810182905260a0810182905260c0810182905260e081018290526101008101829052610120810191909152506040805161014081018252600754815260085460ff9081161515602083015260095492820192909252600a54808316151560608301526001600160a01b0361010080830482166080850152600160a81b928390048516151560a0850152600b5491821660c0850152600160a01b82048516151560e0850152919004909216151591810191909152600c5461012082015290565b6040516103389190613069565b34801561068557600080fd5b5061035661069436600461302e565b611bb9565b3480156106a557600080fd5b50600e546104ff906001600160a01b031681565b3480156106c557600080fd5b5061032e6106d436600461302e565b611c18565b3480156106e557600080fd5b506103566106f4366004613122565b611cbc565b34801561070557600080fd5b5060025461071c90600160a01b900462ffffff1681565b60405162ffffff9091168152602001610338565b34801561073c57600080fd5b50600d546104ff906001600160a01b031681565b34801561075c57600080fd5b5061032e60155481565b34801561077257600080fd5b50600754600854600954600a54600b54600c546107c7959460ff9081169493808216936001600160a01b036101008304811694600160a81b9384900485169491831693600160a01b840483169304909116908a565b604080519a8b5298151560208b01529789019690965293151560608801526001600160a01b03928316608088015290151560a08701521660c0850152151560e0840152151561010083015261012082015261014001610338565b34801561082d57600080fd5b5061035661083c36600461315f565b611d0f565b34801561084d57600080fd5b5061035661085c366004613122565b611d98565b34801561086d57600080fd5b5061035661087c366004613183565b612181565b34801561088d57600080fd5b506000546104ff906001600160a01b031681565b3480156108ad57600080fd5b5061032e60055481565b3480156108c357600080fd5b506006546001600160a01b03166104ff565b3480156108e157600080fd5b506001546104ff906001600160a01b031681565b34801561090157600080fd5b506103566109103660046131d8565b6121f5565b34801561092157600080fd5b5061032e60185481565b34801561093757600080fd5b5061032e60125481565b34801561094d57600080fd5b50601a546104ff906001600160a01b031681565b34801561096d57600080fd5b506006546104ff906001600160a01b031681565b34801561098d57600080fd5b5061032e61099c366004612faa565b612537565b3480156109ad57600080fd5b506109c16109bc366004613183565b61262e565b604080519687526020870195909552938501929092526060840152608083015260a082015260c001610338565b3480156109fa57600080fd5b506002546104ff906001600160a01b031681565b348015610a1a57600080fd5b506003546104ff906001600160a01b031681565b348015610a3a57600080fd5b506004546104ff906001600160a01b031681565b348015610a5a57600080fd5b50610356610a69366004613122565b6127b3565b348015610a7a57600080fd5b5061032e60175481565b348015610a9057600080fd5b50610356612803565b6000546040805180820190915260018152601960f91b6020820152906001600160a01b03163314610ae65760405162461bcd60e51b8152600401610add919061331c565b60405180910390fd5b506006546040516370a0823160e01b81523060048201526001600160a01b039091169060009082906370a0823190602401602060405180830381865afa158015610b34573d6000803e3d6000fd5b505050506040513d601f19601f82011682018060405250810190610b58919061334f565b90506000811160405180604001604052806002815260200161031360f41b81525090610b975760405162461bcd60e51b8152600401610add919061331c565b506000309050600080601a60009054906101000a90046001600160a01b03166001600160a01b031663d03f6bac6040518163ffffffff1660e01b8152600401602060405180830381865afa158015610bf3573d6000803e3d6000fd5b505050506040513d601f19601f82011682018060405250810190610c179190613368565b90506000816001600160a01b031663026b1d5f6040518163ffffffff1660e01b8152600401602060405180830381865afa158015610c59573d6000803e3d6000fd5b505050506040513d601f19601f82011682018060405250810190610c7d9190613368565b60405163095ea7b360e01b81526001600160a01b038083166004830152602482018890529192509087169063095ea7b3906044016020604051808303816000875af1158015610cd0573d6000803e3d6000fd5b505050506040513d601f19601f82011682018060405250810190610cf49190613385565b506040517f617ba0370000000000000000000000000000000000000000000000000000000081526001600160a01b03878116600483015260248201879052858116604483015261ffff8516606483015282169063617ba03790608401600060405180830381600087803b158015610d6a57600080fd5b505af1158015610d7e573d6000803e3d6000fd5b50505050856001600160a01b0316846001600160a01b03167f51a2b359618aeb0bcc2a495a6667c0bdbfddc3bb27eb0dd5b8e3b33a4c15865f87604051610dc791815260200190565b60405180910390a350506001805460ff60a01b1916600160a01b17905550505050565b6000546040805180820190915260018152601960f91b6020820152906001600160a01b03163314610e2e5760405162461bcd60e51b8152600401610add919061331c565b50600a5460ff1615156001148015610e505750600b54600160a01b900460ff16155b6040518060400160405280600281526020017f313200000000000000000000000000000000000000000000000000000000000081525090610ea45760405162461bcd60e51b8152600401610add919061331c565b50801561109f57601a54604080517fcae5f11e00000000000000000000000000000000000000000000000000000000815290516000926001600160a01b03169163cae5f11e9160048083019260209291908290030181865afa158015610f0e573d6000803e3d6000fd5b505050506040513d601f19601f82011682018060405250810190610f329190613368565b6006546040516370a0823160e01b81523060048201529192506001600160a01b0380841692632e1a7d4d9291909116906370a0823190602401602060405180830381865afa158015610f88573d6000803e3d6000fd5b505050506040513d601f19601f82011682018060405250810190610fac919061334f565b6040518263ffffffff1660e01b8152600401610fca91815260200190565b600060405180830381600087803b158015610fe457600080fd5b505af1158015610ff8573d6000803e3d6000fd5b50506006546040516370a0823160e01b81523060048201526001600160a01b0387811694506108fc9350909116906370a0823190602401602060405180830381865afa15801561104c573d6000803e3d6000fd5b505050506040513d601f19601f82011682018060405250810190611070919061334f565b6040518115909202916000818181858888f19350505050158015611098573d6000803e3d6000fd5b505061119e565b6006546040516370a0823160e01b81523060048201526001600160a01b039091169063a9059cbb90849083906370a0823190602401602060405180830381865afa1580156110f1573d6000803e3d6000fd5b505050506040513d601f19601f82011682018060405250810190611115919061334f565b6040517fffffffff0000000000000000000000000000000000000000000000000000000060e085901b1681526001600160a01b03909216600483015260248201526044016020604051808303816000875af1158015611178573d6000803e3d6000fd5b505050506040513d601f19601f8201168201806040525081019061119c9190613385565b505b5050600b805460ff60a01b1916600160a01b179055565b6000546040805180820190915260018152601960f91b6020820152906001600160a01b031633146111f95760405162461bcd60e51b8152600401610add919061331c565b50600280546001600160a01b0394851673ffffffffffffffffffffffffffffffffffffffff1991821617909155600380549385169382169390931790925560048054919093169116179055565b600080546040805180820190915260018152601960f91b602082015282916001600160a01b0316331461128c5760405162461bcd60e51b8152600401610add919061331c565b50600a805460ff19166001908117909155600954600c5554600160a01b900460ff1615611336576001546040516370a0823160e01b81523060048201526001600160a01b03909116906370a0823190602401602060405180830381865afa1580156112fb573d6000803e3d6000fd5b505050506040513d601f19601f8201168201806040525081019061131f919061334f565b600c55601154601254601354611336929190611d98565b600060145460155461134891906133b8565b11156114ee576006546002546014546015546001600160a01b039384169363095ea7b3931691611377916133b8565b6040517fffffffff0000000000000000000000000000000000000000000000000000000060e085901b1681526001600160a01b03909216600483015260248201526044016020604051808303816000875af11580156113da573d6000803e3d6000fd5b505050506040513d601f19601f820116820180604052508101906113fe9190613385565b50600061142c60145460155461141491906133b8565b600b546006546001600160a01b039182169116612857565b600b54600f5460405163095ea7b360e01b81526001600160a01b03918216600482015260248101849052929350169063095ea7b3906044016020604051808303816000875af1158015611483573d6000803e3d6000fd5b505050506040513d601f19601f820116820180604052508101906114a79190613385565b5060006011546013546114ba91906133b8565b826013546114c891906133cb565b6114d291906133e2565b905060006114e08284613404565b9194509092506114f5915050565b5060009050805b9091565b600080600060175460185460195461151191906133b8565b61151b91906133b8565b905060008060145460155461153091906133b8565b11156115645761156160145460155461154991906133b8565b600654600b546001600160a01b039182169116612a3d565b90505b600061271061157384886133cb565b61157d91906133e2565b905060008261158c83896133b8565b61159691906133b8565b6006546040516370a0823160e01b81523060048201529192506000916116269184916001600160a01b03909116906370a0823190602401602060405180830381865afa1580156115ea573d6000803e3d6000fd5b505050506040513d601f19601f8201168201806040525081019061160e919061334f565b600b546006546001600160a01b039182169116612c33565b989397509295505050505050565b600080546040805180820190915260018152601960f91b60208201528291829182916001600160a01b0316331461167e5760405162461bcd60e51b8152600401610add919061331c565b50606461168c866000611872565b106040518060400160405280600281526020017f3131000000000000000000000000000000000000000000000000000000000000815250906116e15760405162461bcd60e51b8152600401610add919061331c565b50600954600c55600154600160a01b900460ff161561177d576001546040516370a0823160e01b81523060048201526001600160a01b03909116906370a0823190602401602060405180830381865afa158015611742573d6000803e3d6000fd5b505050506040513d601f19601f82011682018060405250810190611766919061334f565b600c5560115460125460135461177d929190611d98565b600080611789876114f9565b9150915060008060008061179d8b86611ac7565b600a80547fffffffffffffffffffff00ffffffffffffffffffffffffffffffffffffffff00167501000000000000000000000000000000000000000001179055600b54600f5460405163095ea7b360e01b81526001600160a01b039182166004820152602481018d90529599509397509195509350169063095ea7b3906044016020604051808303816000875af115801561183c573d6000803e3d6000fd5b505050506040513d601f19601f820116820180604052508101906118609190613385565b50929a91995097509095509350505050565b600b54600090819061188e906001600160a01b03166001612537565b9050600080846005546118a191906133b8565b6006549091506001600160a01b031681156119f85760006118c3826000612537565b601a54604080517fe75235b8000000000000000000000000000000000000000000000000000000008152815193945060009384936001600160a01b03169263e75235b892600480820193918290030181865afa158015611927573d6000803e3d6000fd5b505050506040513d601f19601f8201168201806040525081019061194b9190613417565b91509150836001600160a01b031663313ce5676040518163ffffffff1660e01b8152600401602060405180830381865afa15801561198d573d6000803e3d6000fd5b505050506040513d601f19601f820116820180604052508101906119b1919061343b565b6119bc90600a613542565b612710826119ca86896133cb565b6119d491906133cb565b6119de91906133e2565b6119e891906133e2565b6119f290876133b8565b95505050505b600b54604080517f313ce56700000000000000000000000000000000000000000000000000000000815290516000926001600160a01b03169163313ce5679160048281019260209291908290030181865afa158015611a5b573d6000803e3d6000fd5b505050506040513d601f19601f82011682018060405250810190611a7f919061343b565b611a8a90600a613542565b611a94868a6133cb565b611a9e91906133e2565b9050600081611aae8660646133cb565b611ab891906133e2565b96505050505050505b92915050565b6000806000806000601754601854601954611ae291906133b8565b611aec91906133b8565b90506000612710611afd838a6133cb565b611b0791906133e2565b905060008260195483611b1a91906133cb565b611b2491906133e2565b905060008360175484611b3791906133cb565b611b4191906133e2565b9050600081611b508486613404565b611b5a9190613404565b90506000601154601354611b6e91906133b8565b601354611b7b908d6133cb565b611b8591906133e2565b90506000611b93828d613404565b90508482611ba183876133b8565b919f909e50909c50929a509198505050505050505050565b6000546040805180820190915260018152601960f91b6020820152906001600160a01b03163314611bfd5760405162461bcd60e51b8152600401610add919061331c565b508060056000828254611c1091906133b8565b909155505050565b6001546040516370a0823160e01b815230600482015260009182916001600160a01b03909116906370a0823190602401602060405180830381865afa158015611c65573d6000803e3d6000fd5b505050506040513d601f19601f82011682018060405250810190611c89919061334f565b9050600060055482611c9b9190613404565b9050612710611caa85836133cb565b611cb491906133e2565b949350505050565b6000546040805180820190915260018152601960f91b6020820152906001600160a01b03163314611d005760405162461bcd60e51b8152600401610add919061331c565b50601355601291909155601155565b6000546040805180820190915260018152601960f91b6020820152906001600160a01b03163314611d535760405162461bcd60e51b8152600401610add919061331c565b5062ffffff811615611d9557600280547fffffffffffffffffff000000ffffffffffffffffffffffffffffffffffffffff16600160a01b62ffffff8416021790555b50565b6000546040805180820190915260018152601960f91b6020820152906001600160a01b03163314611ddc5760405162461bcd60e51b8152600401610add919061331c565b506006546001546040516370a0823160e01b81523060048201526001600160a01b039283169260009216906370a0823190602401602060405180830381865afa158015611e2d573d6000803e3d6000fd5b505050506040513d601f19601f82011682018060405250810190611e51919061334f565b90506000811160405180604001604052806002815260200161031360f41b81525090611e905760405162461bcd60e51b8152600401610add919061331c565b50601a54604080517fd03f6bac00000000000000000000000000000000000000000000000000000000815290516000926001600160a01b03169163d03f6bac9160048083019260209291908290030181865afa158015611ef4573d6000803e3d6000fd5b505050506040513d601f19601f82011682018060405250810190611f189190613368565b90506000816001600160a01b031663026b1d5f6040518163ffffffff1660e01b8152600401602060405180830381865afa158015611f5a573d6000803e3d6000fd5b505050506040513d601f19601f82011682018060405250810190611f7e9190613368565b6040517f69328dec0000000000000000000000000000000000000000000000000000000081526001600160a01b03868116600483015260248201869052306044830152919250908216906369328dec906064016020604051808303816000875af1158015611ff0573d6000803e3d6000fd5b505050506040513d601f19601f82011682018060405250810190612014919061334f565b506040518381526001600160a01b0385169030907f83aa598dd3e269af677698c6847b3ba594a67d286a771d01099aafa911a91b649060200160405180910390a36001805460ff60a01b191690556006546040516370a0823160e01b81523060048201526000916001600160a01b0316906370a0823190602401602060405180830381865afa1580156120ab573d6000803e3d6000fd5b505050506040513d601f19601f820116820180604052508101906120cf919061334f565b90506000600554826120e19190613404565b11156121775761271087600554836120f99190613404565b61210391906133cb565b61210d91906133e2565b60165561211a88876133b8565b886016546005548461212c9190613404565b6121369190613404565b61214091906133cb565b61214a91906133e2565b601481905560165460055461215f9084613404565b6121699190613404565b6121739190613404565b6015555b5050505050505050565b6000546040805180820190915260018152601960f91b6020820152906001600160a01b031633146121c55760405162461bcd60e51b8152600401610add919061331c565b50600f805473ffffffffffffffffffffffffffffffffffffffff19166001600160a01b0392909216919091179055565b7ff0c57e16840df040f15088dc2f81fe391c3923bec73e23a9662efc9c229c6a00805468010000000000000000810460ff16159067ffffffffffffffff166000811580156122405750825b905060008267ffffffffffffffff16600114801561225d5750303b155b90508115801561226b575080155b156122a2576040517ff92ee8a900000000000000000000000000000000000000000000000000000000815260040160405180910390fd5b845467ffffffffffffffff1916600117855583156122d657845468ff00000000000000001916680100000000000000001785555b336000806101000a8154816001600160a01b0302191690836001600160a01b0316021790555085601a60006101000a8154816001600160a01b0302191690836001600160a01b031602179055508a60076000820151816000015560208201518160010160006101000a81548160ff0219169083151502179055506040820151816002015560608201518160030160006101000a81548160ff02191690831515021790555060808201518160030160016101000a8154816001600160a01b0302191690836001600160a01b0316021790555060a08201518160030160156101000a81548160ff02191690831515021790555060c08201518160040160006101000a8154816001600160a01b0302191690836001600160a01b0316021790555060e08201518160040160146101000a81548160ff0219169083151502179055506101008201518160040160156101000a81548160ff021916908315150217905550610120820151816005015590505089600660006101000a8154816001600160a01b0302191690836001600160a01b0316021790555088600160006101000a8154816001600160a01b0302191690836001600160a01b0316021790555087600d60006101000a8154816001600160a01b0302191690836001600160a01b0316021790555086600e60006101000a8154816001600160a01b0302191690836001600160a01b03160217905550831561252a57845468ff000000000000000019168555604051600181527fc7f505b2f371ae2175ee4913f4499e1f2633a7b5936321eed1cdaeb6115181d29060200160405180910390a15b5050505050505050505050565b600081151581036125d3576000806000806000600d60009054906101000a90046001600160a01b03166001600160a01b031663feaf968c6040518163ffffffff1660e01b815260040160a060405180830381865afa15801561259d573d6000803e3d6000fd5b505050506040513d601f19601f820116820180604052508101906125c1919061356b565b50919850611ac1975050505050505050565b6000806000806000600e60009054906101000a90046001600160a01b03166001600160a01b031663feaf968c6040518163ffffffff1660e01b815260040160a060405180830381865afa15801561259d573d6000803e3d6000fd5b6000806000806000806000601a60009054906101000a90046001600160a01b03166001600160a01b031663d03f6bac6040518163ffffffff1660e01b8152600401602060405180830381865afa15801561268c573d6000803e3d6000fd5b505050506040513d601f19601f820116820180604052508101906126b09190613368565b90506000816001600160a01b031663026b1d5f6040518163ffffffff1660e01b8152600401602060405180830381865afa1580156126f2573d6000803e3d6000fd5b505050506040513d601f19601f820116820180604052508101906127169190613368565b6040517fbf92857c0000000000000000000000000000000000000000000000000000000081526001600160a01b038b811660048301529192509082169063bf92857c9060240160c060405180830381865afa158015612779573d6000803e3d6000fd5b505050506040513d601f19601f8201168201806040525081019061279d91906135bb565b949e939d50919b50995097509095509350505050565b6000546040805180820190915260018152601960f91b6020820152906001600160a01b031633146127f75760405162461bcd60e51b8152600401610add919061331c565b50601955601855601755565b6000546040805180820190915260018152601960f91b6020820152906001600160a01b031633146128475760405162461bcd60e51b8152600401610add919061331c565b506008805460ff19166001179055565b6002546000906128729083906001600160a01b031686612e3c565b600354600254604051630b4c774160e11b81526001600160a01b0385811660048301528681166024830152600160a01b90920462ffffff1660448201526000929190911690631698ee8290606401602060405180830381865afa1580156128dd573d6000803e3d6000fd5b505050506040513d601f19601f820116820180604052508101906129019190613368565b90506000816001600160a01b031663ddca3f436040518163ffffffff1660e01b8152600401602060405180830381865afa158015612943573d6000803e3d6000fd5b505050506040513d601f19601f820116820180604052508101906129679190613605565b6040805160e0810182526001600160a01b038088168252888116602083015262ffffff841682840152306060830152608082018a9052600060a0830181905260c083015260025492517f04e45aaf00000000000000000000000000000000000000000000000000000000815293945090929116906304e45aaf906129ef908490600401613622565b6020604051808303816000875af1158015612a0e573d6000803e3d6000fd5b505050506040513d601f19601f82011682018060405250810190612a32919061334f565b979650505050505050565b600354600254604051630b4c774160e11b81526001600160a01b0384811660048301528581166024830152600160a01b90920462ffffff16604482015260009283921690631698ee8290606401602060405180830381865afa158015612aa7573d6000803e3d6000fd5b505050506040513d601f19601f82011682018060405250810190612acb9190613368565b90506000816001600160a01b031663ddca3f436040518163ffffffff1660e01b8152600401602060405180830381865afa158015612b0d573d6000803e3d6000fd5b505050506040513d601f19601f82011682018060405250810190612b319190613605565b6040805160a0810182526001600160a01b038781168252888116602083019081528284018b815262ffffff868116606086019081526000608087018181526004805499517fc6a5026a00000000000000000000000000000000000000000000000000000000815289518916918101919091529551871660248701529351604486015290519091166064840152905183166084830152949550919392839283928392169063c6a5026a9060a4016080604051808303816000875af1158015612bfc573d6000803e3d6000fd5b505050506040513d601f19601f82011682018060405250810190612c209190613685565b50919d9c50505050505050505050505050565b600254600090612c4e9083906001600160a01b031686612e3c565b600354600254604051630b4c774160e11b81526001600160a01b0385811660048301528681166024830152600160a01b90920462ffffff1660448201526000929190911690631698ee8290606401602060405180830381865afa158015612cb9573d6000803e3d6000fd5b505050506040513d601f19601f82011682018060405250810190612cdd9190613368565b90506000816001600160a01b031663ddca3f436040518163ffffffff1660e01b8152600401602060405180830381865afa158015612d1f573d6000803e3d6000fd5b505050506040513d601f19601f82011682018060405250810190612d439190613605565b6040805160e0810182526001600160a01b038088168252888116602083015262ffffff841682840152306060830152608082018b905260a082018a9052600060c083015260025492517f5023b4df0000000000000000000000000000000000000000000000000000000081529394509092911690635023b4df90612dcb908490600401613622565b6020604051808303816000875af1158015612dea573d6000803e3d6000fd5b505050506040513d601f19601f82011682018060405250810190612e0e919061334f565b935086841015612e3157600254612e319086906001600160a01b03166000612e3c565b505050949350505050565b604080516001600160a01b038481166024830152604480830185905283518084039091018152606490920183526020820180517bffffffffffffffffffffffffffffffffffffffffffffffffffffffff1663095ea7b360e01b1790529151600092839290871691612ead91906136d7565b6000604051808303816000865af19150503d8060008114612eea576040519150601f19603f3d011682016040523d82523d6000602084013e612eef565b606091505b5091509150818015612f19575080511580612f19575080806020019051810190612f199190613385565b612f655760405162461bcd60e51b815260206004820152600260248201527f53410000000000000000000000000000000000000000000000000000000000006044820152606401610add565b5050505050565b6001600160a01b0381168114611d9557600080fd5b8035612f8c81612f6c565b919050565b8015158114611d9557600080fd5b8035612f8c81612f91565b60008060408385031215612fbd57600080fd5b8235612fc881612f6c565b91506020830135612fd881612f91565b809150509250929050565b600080600060608486031215612ff857600080fd5b833561300381612f6c565b9250602084013561301381612f6c565b9150604084013561302381612f6c565b809150509250925092565b60006020828403121561304057600080fd5b5035919050565b6000806040838503121561305a57600080fd5b50508035926020909101359150565b815181526020808301516101408301916130869084018215159052565b506040830151604083015260608301516130a4606084018215159052565b5060808301516130bf60808401826001600160a01b03169052565b5060a08301516130d360a084018215159052565b5060c08301516130ee60c08401826001600160a01b03169052565b5060e083015161310260e084018215159052565b506101008381015180151584830152505061012092830151919092015290565b60008060006060848603121561313757600080fd5b505081359360208301359350604090920135919050565b62ffffff81168114611d9557600080fd5b60006020828403121561317157600080fd5b813561317c8161314e565b9392505050565b60006020828403121561319557600080fd5b813561317c81612f6c565b604051610140810167ffffffffffffffff811182821017156131d257634e487b7160e01b600052604160045260246000fd5b60405290565b6000806000806000808688036101e08112156131f357600080fd5b6101408082121561320357600080fd5b61320b6131a0565b91508835825261321d60208a01612f9f565b60208301526040890135604083015261323860608a01612f9f565b606083015261324960808a01612f81565b608083015261325a60a08a01612f9f565b60a083015261326b60c08a01612f81565b60c083015261327c60e08a01612f9f565b60e083015261010061328f818b01612f9f565b8184015250610120808a013581840152508197506132ae818a01612f81565b965050506132bf6101608801612f81565b93506132ce6101808801612f81565b92506132dd6101a08801612f81565b91506132ec6101c08801612f81565b90509295509295509295565b60005b838110156133135781810151838201526020016132fb565b50506000910152565b602081526000825180602084015261333b8160408501602087016132f8565b601f01601f19169190910160400192915050565b60006020828403121561336157600080fd5b5051919050565b60006020828403121561337a57600080fd5b815161317c81612f6c565b60006020828403121561339757600080fd5b815161317c81612f91565b634e487b7160e01b600052601160045260246000fd5b80820180821115611ac157611ac16133a2565b8082028115828204841417611ac157611ac16133a2565b6000826133ff57634e487b7160e01b600052601260045260246000fd5b500490565b81810381811115611ac157611ac16133a2565b6000806040838503121561342a57600080fd5b505080516020909101519092909150565b60006020828403121561344d57600080fd5b815160ff8116811461317c57600080fd5b600181815b8085111561349957816000190482111561347f5761347f6133a2565b8085161561348c57918102915b93841c9390800290613463565b509250929050565b6000826134b057506001611ac1565b816134bd57506000611ac1565b81600181146134d357600281146134dd576134f9565b6001915050611ac1565b60ff8411156134ee576134ee6133a2565b50506001821b611ac1565b5060208310610133831016604e8410600b841016171561351c575081810a611ac1565b613526838361345e565b806000190482111561353a5761353a6133a2565b029392505050565b600061317c60ff8416836134a1565b805169ffffffffffffffffffff81168114612f8c57600080fd5b600080600080600060a0868803121561358357600080fd5b61358c86613551565b94506020860151935060408601519250606086015191506135af60808701613551565b90509295509295909350565b60008060008060008060c087890312156135d457600080fd5b865195506020870151945060408701519350606087015192506080870151915060a087015190509295509295509295565b60006020828403121561361757600080fd5b815161317c8161314e565b60e08101611ac182846001600160a01b0380825116835280602083015116602084015262ffffff60408301511660408401528060608301511660608401526080820151608084015260a082015160a08401528060c08301511660c0840152505050565b6000806000806080858703121561369b57600080fd5b8451935060208501516136ad81612f6c565b604086015190935063ffffffff811681146136c757600080fd5b6060959095015193969295505050565b600082516136e98184602087016132f8565b919091019291505056fea264697066735822122070a003a023db3ef8421d9d543ecdcf49be2428a142059c68d24d04408fbeaed164736f6c63430008180033",
  "linkReferences": {},
  "deployedLinkReferences": {}
}