{
  "_format": "hh-sol-artifact-1",
  "contractName": "CCFLPool",
  "sourceName": "contracts/CCFLPool.sol",
  "abi": [
    {
      "inputs": [],
      "name": "InvalidInitialization",
      "type": "error"
    },
    {
      "inputs": [],
      "name": "NotInitializing",
      "type": "error"
    },
    {
      "inputs": [
        {
          "internalType": "uint8",
          "name": "bits",
          "type": "uint8"
        },
        {
          "internalType": "uint256",
          "name": "value",
          "type": "uint256"
        }
      ],
      "name": "SafeCastOverflowedUintDowncast",
      "type": "error"
    },
    {
      "anonymous": false,
      "inputs": [
        {
          "indexed": true,
          "internalType": "address",
          "name": "lender",
          "type": "address"
        },
        {
          "indexed": true,
          "internalType": "contract IERC20Standard",
          "name": "supply",
          "type": "address"
        },
        {
          "indexed": false,
          "internalType": "uint256",
          "name": "amount",
          "type": "uint256"
        },
        {
          "indexed": false,
          "internalType": "uint256",
          "name": "timestamp",
          "type": "uint256"
        }
      ],
      "name": "AddSupply",
      "type": "event"
    },
    {
      "anonymous": false,
      "inputs": [
        {
          "indexed": false,
          "internalType": "uint64",
          "name": "version",
          "type": "uint64"
        }
      ],
      "name": "Initialized",
      "type": "event"
    },
    {
      "anonymous": false,
      "inputs": [
        {
          "indexed": true,
          "internalType": "address",
          "name": "lender",
          "type": "address"
        },
        {
          "indexed": true,
          "internalType": "contract IERC20Standard",
          "name": "supply",
          "type": "address"
        },
        {
          "indexed": false,
          "internalType": "uint256",
          "name": "amount",
          "type": "uint256"
        },
        {
          "indexed": false,
          "internalType": "uint256",
          "name": "timestamp",
          "type": "uint256"
        }
      ],
      "name": "WithdrawSupply",
      "type": "event"
    },
    {
      "inputs": [],
      "name": "CCFL",
      "outputs": [
        {
          "internalType": "address",
          "name": "",
          "type": "address"
        }
      ],
      "stateMutability": "view",
      "type": "function"
    },
    {
      "inputs": [
        {
          "internalType": "address",
          "name": "_user",
          "type": "address"
        }
      ],
      "name": "balanceOf",
      "outputs": [
        {
          "internalType": "uint256",
          "name": "",
          "type": "uint256"
        }
      ],
      "stateMutability": "view",
      "type": "function"
    },
    {
      "inputs": [
        {
          "internalType": "uint256",
          "name": "_loanId",
          "type": "uint256"
        },
        {
          "internalType": "uint256",
          "name": "_amount",
          "type": "uint256"
        },
        {
          "internalType": "address",
          "name": "_borrower",
          "type": "address"
        },
        {
          "internalType": "bool",
          "name": "_isFiat",
          "type": "bool"
        }
      ],
      "name": "borrow",
      "outputs": [],
      "stateMutability": "nonpayable",
      "type": "function"
    },
    {
      "inputs": [
        {
          "internalType": "uint256",
          "name": "",
          "type": "uint256"
        }
      ],
      "name": "debt",
      "outputs": [
        {
          "internalType": "uint256",
          "name": "",
          "type": "uint256"
        }
      ],
      "stateMutability": "view",
      "type": "function"
    },
    {
      "inputs": [
        {
          "internalType": "uint256",
          "name": "_amount",
          "type": "uint256"
        }
      ],
      "name": "earnStaking",
      "outputs": [],
      "stateMutability": "nonpayable",
      "type": "function"
    },
    {
      "inputs": [
        {
          "internalType": "uint256",
          "name": "_loanId",
          "type": "uint256"
        }
      ],
      "name": "getCurrentLoan",
      "outputs": [
        {
          "internalType": "uint256",
          "name": "",
          "type": "uint256"
        }
      ],
      "stateMutability": "view",
      "type": "function"
    },
    {
      "inputs": [],
      "name": "getCurrentRate",
      "outputs": [
        {
          "internalType": "uint256",
          "name": "",
          "type": "uint256"
        },
        {
          "internalType": "uint256",
          "name": "",
          "type": "uint256"
        },
        {
          "internalType": "uint256",
          "name": "",
          "type": "uint256"
        },
        {
          "internalType": "uint256",
          "name": "",
          "type": "uint256"
        }
      ],
      "stateMutability": "view",
      "type": "function"
    },
    {
      "inputs": [],
      "name": "getDebtPool",
      "outputs": [
        {
          "internalType": "uint256",
          "name": "amount",
          "type": "uint256"
        }
      ],
      "stateMutability": "view",
      "type": "function"
    },
    {
      "inputs": [],
      "name": "getRemainingPool",
      "outputs": [
        {
          "internalType": "uint256",
          "name": "amount",
          "type": "uint256"
        }
      ],
      "stateMutability": "view",
      "type": "function"
    },
    {
      "inputs": [],
      "name": "getTotalSupply",
      "outputs": [
        {
          "internalType": "uint256",
          "name": "",
          "type": "uint256"
        }
      ],
      "stateMutability": "view",
      "type": "function"
    },
    {
      "inputs": [
        {
          "internalType": "contract IERC20Standard",
          "name": "_stableCoinAddress",
          "type": "address"
        },
        {
          "internalType": "address",
          "name": "interestRateStrategyAddress",
          "type": "address"
        }
      ],
      "name": "initialize",
      "outputs": [],
      "stateMutability": "nonpayable",
      "type": "function"
    },
    {
      "inputs": [
        {
          "internalType": "uint256",
          "name": "",
          "type": "uint256"
        }
      ],
      "name": "lenders",
      "outputs": [
        {
          "internalType": "address",
          "name": "",
          "type": "address"
        }
      ],
      "stateMutability": "view",
      "type": "function"
    },
    {
      "inputs": [
        {
          "internalType": "uint256",
          "name": "_loanId",
          "type": "uint256"
        },
        {
          "internalType": "uint256",
          "name": "_amount",
          "type": "uint256"
        }
      ],
      "name": "liquidatePenalty",
      "outputs": [],
      "stateMutability": "nonpayable",
      "type": "function"
    },
    {
      "inputs": [
        {
          "internalType": "uint256",
          "name": "",
          "type": "uint256"
        }
      ],
      "name": "loans",
      "outputs": [
        {
          "internalType": "uint256",
          "name": "loanId",
          "type": "uint256"
        },
        {
          "internalType": "bool",
          "name": "isPaid",
          "type": "bool"
        },
        {
          "internalType": "uint256",
          "name": "amount",
          "type": "uint256"
        },
        {
          "internalType": "bool",
          "name": "isClosed",
          "type": "bool"
        },
        {
          "internalType": "address",
          "name": "borrower",
          "type": "address"
        },
        {
          "internalType": "bool",
          "name": "isLiquidated",
          "type": "bool"
        },
        {
          "internalType": "contract IERC20Standard",
          "name": "stableCoin",
          "type": "address"
        },
        {
          "internalType": "bool",
          "name": "isFinalty",
          "type": "bool"
        },
        {
          "internalType": "bool",
          "name": "isFiat",
          "type": "bool"
        }
      ],
      "stateMutability": "view",
      "type": "function"
    },
    {
      "inputs": [],
      "name": "remainingPool",
      "outputs": [
        {
          "internalType": "uint256",
          "name": "",
          "type": "uint256"
        }
      ],
      "stateMutability": "view",
      "type": "function"
    },
    {
      "inputs": [
        {
          "internalType": "uint256",
          "name": "_loanId",
          "type": "uint256"
        },
        {
          "internalType": "uint256",
          "name": "_amount",
          "type": "uint256"
        }
      ],
      "name": "repay",
      "outputs": [],
      "stateMutability": "nonpayable",
      "type": "function"
    },
    {
      "inputs": [],
      "name": "reserve",
      "outputs": [
        {
          "internalType": "uint128",
          "name": "liquidityIndex",
          "type": "uint128"
        },
        {
          "internalType": "uint128",
          "name": "currentLiquidityRate",
          "type": "uint128"
        },
        {
          "internalType": "uint128",
          "name": "variableBorrowIndex",
          "type": "uint128"
        },
        {
          "internalType": "uint128",
          "name": "currentVariableBorrowRate",
          "type": "uint128"
        },
        {
          "internalType": "uint40",
          "name": "lastUpdateTimestamp",
          "type": "uint40"
        },
        {
          "internalType": "uint16",
          "name": "id",
          "type": "uint16"
        },
        {
          "internalType": "address",
          "name": "interestRateStrategyAddress",
          "type": "address"
        }
      ],
      "stateMutability": "view",
      "type": "function"
    },
    {
      "inputs": [
        {
          "internalType": "address",
          "name": "_ccfl",
          "type": "address"
        }
      ],
      "name": "setCCFL",
      "outputs": [],
      "stateMutability": "nonpayable",
      "type": "function"
    },
    {
      "inputs": [
        {
          "internalType": "address",
          "name": "",
          "type": "address"
        }
      ],
      "name": "share",
      "outputs": [
        {
          "internalType": "uint256",
          "name": "",
          "type": "uint256"
        }
      ],
      "stateMutability": "view",
      "type": "function"
    },
    {
      "inputs": [],
      "name": "stableCoinAddress",
      "outputs": [
        {
          "internalType": "contract IERC20Standard",
          "name": "",
          "type": "address"
        }
      ],
      "stateMutability": "view",
      "type": "function"
    },
    {
      "inputs": [
        {
          "internalType": "uint256",
          "name": "_amount",
          "type": "uint256"
        }
      ],
      "name": "supply",
      "outputs": [],
      "stateMutability": "nonpayable",
      "type": "function"
    },
    {
      "inputs": [],
      "name": "totalDebt",
      "outputs": [
        {
          "internalType": "uint256",
          "name": "",
          "type": "uint256"
        }
      ],
      "stateMutability": "view",
      "type": "function"
    },
    {
      "inputs": [],
      "name": "totalLiquidity",
      "outputs": [
        {
          "internalType": "uint256",
          "name": "",
          "type": "uint256"
        }
      ],
      "stateMutability": "view",
      "type": "function"
    },
    {
      "inputs": [],
      "name": "totalSupply",
      "outputs": [
        {
          "internalType": "uint256",
          "name": "",
          "type": "uint256"
        }
      ],
      "stateMutability": "view",
      "type": "function"
    },
    {
      "inputs": [
        {
          "internalType": "uint256",
          "name": "_amount",
          "type": "uint256"
        }
      ],
      "name": "withdraw",
      "outputs": [],
      "stateMutability": "nonpayable",
      "type": "function"
    },
    {
      "inputs": [
        {
          "internalType": "address",
          "name": "_receiver",
          "type": "address"
        },
        {
          "internalType": "uint256",
          "name": "_loanId",
          "type": "uint256"
        }
      ],
      "name": "withdrawLoan",
      "outputs": [],
      "stateMutability": "nonpayable",
      "type": "function"
    },
    {
      "stateMutability": "payable",
      "type": "receive"
    }
  ],
  "bytecode": "0x608060405234801561001057600080fd5b5061257c806100206000396000f3fe6080604052600436106101a55760003560e01c80638ac1b775116100e1578063c4e41b221161008a578063e1ec3c6811610064578063e1ec3c681461051f578063ec7be39d14610602578063f7fb07b014610622578063fc7b9c181461066f57600080fd5b8063c4e41b2214610424578063cd3293de14610439578063d8aed145146104ff57600080fd5b80639b78dbfc116100bb5780639b78dbfc146103ce578063a52f38d1146103ee578063b14d37c01461040e57600080fd5b80638ac1b7751461036e578063929eea211461038e578063982aae46146103ae57600080fd5b8063354030231161014e5780633b4675a7116101285780633b4675a7146102d6578063485cc9551461030e57806370a082311461032e5780637f3940311461034e57600080fd5b806335403023146102815780633870862b146102a15780633b24cc21146102c157600080fd5b80631877bb5c1161017f5780631877bb5c146102055780631e0029c8146102325780632e1a7d4d1461025f57600080fd5b806303ec357f146101b157806315770f92146101d957806318160ddd146101ef57600080fd5b366101ac57005b600080fd5b3480156101bd57600080fd5b506101c6610685565b6040519081526020015b60405180910390f35b3480156101e557600080fd5b506101c6600a5481565b3480156101fb57600080fd5b506101c660095481565b34801561021157600080fd5b506101c6610220366004612200565b60076020526000908152604090205481565b34801561023e57600080fd5b506101c661024d36600461221d565b60086020526000908152604090205481565b34801561026b57600080fd5b5061027f61027a36600461221d565b610775565b005b34801561028d57600080fd5b5061027f61029c36600461221d565b6109d8565b3480156102ad57600080fd5b5061027f6102bc366004612244565b610bf3565b3480156102cd57600080fd5b50600c546101c6565b3480156102e257600080fd5b506003546102f6906001600160a01b031681565b6040516001600160a01b0390911681526020016101d0565b34801561031a57600080fd5b5061027f61032936600461228e565b610e67565b34801561033a57600080fd5b506101c6610349366004612200565b611047565b34801561035a57600080fd5b5061027f6103693660046122c7565b611086565b34801561037a57600080fd5b5061027f610389366004612200565b61116a565b34801561039a57600080fd5b506102f66103a936600461221d565b6111fa565b3480156103ba57600080fd5b506000546102f6906001600160a01b031681565b3480156103da57600080fd5b5061027f6103e936600461221d565b611224565b3480156103fa57600080fd5b506101c661040936600461221d565b611277565b34801561041a57600080fd5b506101c6600c5481565b34801561043057600080fd5b506101c6611374565b34801561044557600080fd5b506004546005546006546104a4926001600160801b0380821693600160801b92839004821693828216939091049091169064ffffffffff81169065010000000000810461ffff169067010000000000000090046001600160a01b031687565b604080516001600160801b03988916815296881660208801529487169486019490945294909116606084015264ffffffffff16608083015261ffff90921660a08201526001600160a01b0390911660c082015260e0016101d0565b34801561050b57600080fd5b5061027f61051a3660046122c7565b61144c565b34801561052b57600080fd5b506105af61053a36600461221d565b600260208190526000918252604090912080546001820154928201546003830154600490930154919360ff908116939192828216926001600160a01b036101008204811693600160a81b9283900481169391821692740100000000000000000000000000000000000000008304821692041689565b60408051998a5297151560208a01529688019590955292151560608701526001600160a01b039182166080870152151560a08601521660c0840152151560e08301521515610100820152610120016101d0565b34801561060e57600080fd5b5061027f61061d3660046122e9565b6118fe565b34801561062e57600080fd5b50600554600454604080516001600160801b03600160801b8086048216835284048116602083015293841691810191909152911660608201526080016101d0565b34801561067b57600080fd5b506101c6600b5481565b600080610690611a4c565b905060006106a68260c001518360e00151611b49565b6005549091506106c09082906001600160801b0316611b5d565b60808301526000546040805163313ce56760e01b815290516b033b2e3c9fd0803ce8000000926001600160a01b03169163313ce5679160048083019260209291908290030181865afa15801561071a573d6000803e3d6000fd5b505050506040513d601f19601f8201168201806040525081019061073e9190612315565b61074990600a612432565b6080840151600b5461075a91611b5d565b6107649190612441565b61076e919061246e565b9250505090565b600061077f611a4c565b905061078a81611ba1565b60008060009054906101000a90046001600160a01b03166001600160a01b031663313ce5676040518163ffffffff1660e01b8152600401602060405180830381865afa1580156107de573d6000803e3d6000fd5b505050506040513d601f19601f820116820180604052508101906108029190612315565b61080d90600a612432565b6108236b033b2e3c9fd0803ce800000085612441565b61082d919061246e565b905061083a600082611bda565b6004546000906108549083906001600160801b0316611d62565b3360009081526007602052604081205491925090610873908390612490565b905081600960008282546108879190612490565b9250508190555081600a60008282546108a09190612490565b909155505060408051808201909152600181527f380000000000000000000000000000000000000000000000000000000000000060208201526108e7565b60405180910390fd5b50336000908152600760205260408120829055600c805487929061090c908490612490565b909155505060005460405163a9059cbb60e01b8152336004820152602481018790526001600160a01b039091169063a9059cbb906044016020604051808303816000875af1158015610962573d6000803e3d6000fd5b505050506040513d601f19601f8201168201806040525081019061098691906124f2565b50600054604080518781524260208201526001600160a01b039092169133917ff920a98209abfdc322e529414e4f3e4daf45c2a9cf6a1a1245a903648c84b3a391015b60405180910390a35050505050565b60006109e2611a4c565b90506109ed81611ba1565b60008060009054906101000a90046001600160a01b03166001600160a01b031663313ce5676040518163ffffffff1660e01b8152600401602060405180830381865afa158015610a41573d6000803e3d6000fd5b505050506040513d601f19601f82011682018060405250810190610a659190612315565b610a7090600a612432565b610a866b033b2e3c9fd0803ce800000085612441565b610a90919061246e565b9050610a9d816000611bda565b600454600090610ab79083906001600160801b0316611d62565b3360009081526007602052604081205491925090610ad690839061250f565b90508160096000828254610aea919061250f565b9250508190555081600a6000828254610b03919061250f565b9091555050336000908152600760205260408120829055600c8054879290610b2c90849061250f565b90915550506000546040516323b872dd60e01b8152336004820152306024820152604481018790526001600160a01b03909116906323b872dd906064016020604051808303816000875af1158015610b88573d6000803e3d6000fd5b505050506040513d601f19601f82011682018060405250810190610bac91906124f2565b50600054604080518781524260208201526001600160a01b039092169133917fcae7933f97cc1867dc5809b71fe2fef50587154907804d33215880df5ff6a98991016109c9565b600354604080518082019091526002815261313360f01b6020820152906001600160a01b03163314610c385760405162461bcd60e51b81526004016108de91906124a3565b506000610c43611a4c565b9050610c4e81611ba1565b60008060009054906101000a90046001600160a01b03166001600160a01b031663313ce5676040518163ffffffff1660e01b8152600401602060405180830381865afa158015610ca2573d6000803e3d6000fd5b505050506040513d601f19601f82011682018060405250810190610cc69190612315565b610cd190600a612432565b610ce76b033b2e3c9fd0803ce800000087612441565b610cf1919061246e565b90506000610d0c836080015183611d6290919063ffffffff16565b60008881526008602052604081205491925090610d2a90839061250f565b905081600b6000828254610d3e919061250f565b9091555050600c5460408051808201909152600281527f3135000000000000000000000000000000000000000000000000000000000000602082015290881115610d9b5760405162461bcd60e51b81526004016108de91906124a3565b506000888152600260208181526040808420600890925283208490558a81559081018990556003810180547fffffffffffffffffffffff0000000000000000000000000000000000000000ff166101006001600160a01b038b160217905560048101805460ff60a81b1916600160a81b8915150217905590610e1d9085611bda565b6040850151610e2d908590611d62565b600a6000828254610e3e9190612490565b9250508190555087600c6000828254610e579190612490565b9091555050505050505050505050565b7ff0c57e16840df040f15088dc2f81fe391c3923bec73e23a9662efc9c229c6a00805468010000000000000000810460ff16159067ffffffffffffffff16600081158015610eb25750825b905060008267ffffffffffffffff166001148015610ecf5750303b155b905081158015610edd575080155b15610f14576040517ff92ee8a900000000000000000000000000000000000000000000000000000000815260040160405180910390fd5b845467ffffffffffffffff191660011785558315610f4857845468ff00000000000000001916680100000000000000001785555b600080546001600160a01b03808a1673ffffffffffffffffffffffffffffffffffffffff199283161790925560068054928916670100000000000000027fffffffffff0000000000000000000000000000000000000000ffffffffffffff90931692909217909155600480546fffffffffffffffffffffffffffffffff199081166b033b2e3c9fd0803ce8000000908117909255600580549091169091179055600d805490911633179055831561103e57845468ff000000000000000019168555604051600181527fc7f505b2f371ae2175ee4913f4499e1f2633a7b5936321eed1cdaeb6115181d29060200160405180910390a15b50505050505050565b6004546001600160a01b03821660009081526007602052604081205490916110809161107b916001600160801b0316611b5d565b611da1565b92915050565b600354604080518082019091526002815261313360f01b6020820152906001600160a01b031633146110cb5760405162461bcd60e51b81526004016108de91906124a3565b506000828152600260208181526040928390206003015483518085019094529183527f313700000000000000000000000000000000000000000000000000000000000090830152600160a81b900460ff161561113a5760405162461bcd60e51b81526004016108de91906124a3565b506111458133611dc4565b506000908152600260205260409020600301805460ff60a81b1916600160a81b179055565b600d5460408051808201909152600181527f32000000000000000000000000000000000000000000000000000000000000006020820152906001600160a01b031633146111ca5760405162461bcd60e51b81526004016108de91906124a3565b506003805473ffffffffffffffffffffffffffffffffffffffff19166001600160a01b0392909216919091179055565b6001818154811061120a57600080fd5b6000918252602090912001546001600160a01b0316905081565b600354604080518082019091526002815261313360f01b6020820152906001600160a01b031633146112695760405162461bcd60e51b81526004016108de91906124a3565b506112748133611dc4565b50565b600080611282611a4c565b905060006112988260c001518360e00151611b49565b6005549091506112b29082906001600160801b0316611b5d565b60808301526000546040805163313ce56760e01b815290516b033b2e3c9fd0803ce8000000926001600160a01b03169163313ce5679160048083019260209291908290030181865afa15801561130c573d6000803e3d6000fd5b505050506040513d601f19601f820116820180604052508101906113309190612315565b61133b90600a612432565b608084015160008781526008602052604090205461135891611b5d565b6113629190612441565b61136c919061246e565b949350505050565b60008061137f611a4c565b905060006113958260a001518360e00151611f4e565b90506113ae826040015182611b5d90919063ffffffff16565b604080840191909152600054815163313ce56760e01b815291516b033b2e3c9fd0803ce8000000926001600160a01b039092169163313ce5679160048083019260209291908290030181865afa15801561140c573d6000803e3d6000fd5b505050506040513d601f19601f820116820180604052508101906114309190612315565b61143b90600a612432565b604084015160095461075a91611b5d565b600354604080518082019091526002815261313360f01b6020820152906001600160a01b031633146114915760405162461bcd60e51b81526004016108de91906124a3565b506000828152600260208181526040928390206003015483518085019094529183527f31360000000000000000000000000000000000000000000000000000000000009083015260ff16156114f95760405162461bcd60e51b81526004016108de91906124a3565b506000611504611a4c565b905061150f81611ba1565b60008060009054906101000a90046001600160a01b03166001600160a01b031663313ce5676040518163ffffffff1660e01b8152600401602060405180830381865afa158015611563573d6000803e3d6000fd5b505050506040513d601f19601f820116820180604052508101906115879190612315565b61159290600a612432565b6115a86b033b2e3c9fd0803ce800000085612441565b6115b2919061246e565b6005549091506000906115cf9083906001600160801b0316611d62565b60008681526008602052604090205490915081106117ed57600085815260086020526040812054600b805491929091611609908490612490565b9091555050600554600086815260086020526040812054909161163591906001600160801b0316611b5d565b905060006b033b2e3c9fd0803ce80000006001600160801b031660008054906101000a90046001600160a01b03166001600160a01b031663313ce5676040518163ffffffff1660e01b8152600401602060405180830381865afa1580156116a0573d6000803e3d6000fd5b505050506040513d601f19601f820116820180604052508101906116c49190612315565b6116cf90600a612432565b6116d99084612441565b6116e3919061246e565b60008881526008602052604081208190559091506117019080611bda565b60408086015160008981526008602052919091205461171f91611d62565b600a6000828254611730919061250f565b9250508190555080600c6000828254611749919061250f565b90915550506000546040516323b872dd60e01b8152336004820152306024820152604481018390526001600160a01b03909116906323b872dd906064016020604051808303816000875af11580156117a5573d6000803e3d6000fd5b505050506040513d601f19601f820116820180604052508101906117c991906124f2565b5050506000858152600260205260409020600301805460ff191660011790556118f7565b600085815260086020526040812054611807908390612490565b905081600b600082825461181b9190612490565b9091555050600086815260086020526040812082905561183c908490611bda565b604084015161184c908490611d62565b600a600082825461185d919061250f565b9250508190555084600c6000828254611876919061250f565b90915550506000546040516323b872dd60e01b8152336004820152306024820152604481018790526001600160a01b03909116906323b872dd906064015b6020604051808303816000875af11580156118d3573d6000803e3d6000fd5b505050506040513d601f19601f8201168201806040525081019061103e91906124f2565b5050505050565b600354604080518082019091526002815261313360f01b6020820152906001600160a01b031633146119435760405162461bcd60e51b81526004016108de91906124a3565b506000818152600260208181526040928390206001015483518085019094529183527f31340000000000000000000000000000000000000000000000000000000000009083015260ff16156119ab5760405162461bcd60e51b81526004016108de91906124a3565b5060008181526002602081905260408083206001808201805460ff1916909117905592549290910154905163a9059cbb60e01b81526001600160a01b038581166004830152602482019290925291169063a9059cbb906044016020604051808303816000875af1158015611a23573d6000803e3d6000fd5b505050506040513d601f19601f82011682018060405250810190611a4791906124f2565b505050565b611a9b60405180610100016040528060008152602001600081526020016000815260200160008152602001600081526020016000815260200160008152602001600064ffffffffff1681525090565b611aea60405180610100016040528060008152602001600081526020016000815260200160008152602001600081526020016000815260200160008152602001600064ffffffffff1681525090565b6004546001600160801b03808216604084018190526020840152600554808216608085018190526060850152600160801b92839004821660a0850152919091041660c082015260065464ffffffffff1660e0820152600b548152919050565b6000611b56838342611f8b565b9392505050565b600081156b019d971e4fe8401e740000001983900484111517611b7f57600080fd5b506b033b2e3c9fd0803ce800000091026b019d971e4fe8401e74000000010490565b60065464ffffffffff428116911603611bb75750565b611bc0816120b7565b506006805464ffffffffff19164264ffffffffff16179055565b611bfe60405180606001604052806000815260200160008152602001600081525090565b6006546040805160808101825285815260208101859052600554600b546701000000000000009094046001600160a01b0316936356eaf26493830191611c4d91906001600160801b0316611b5d565b8152600454600a54602090920191611c6d916001600160801b0316611b5d565b9052604080517fffffffff0000000000000000000000000000000000000000000000000000000060e085901b168152825160048201526020830151602482015290820151604482015260609091015160648201526084016040805180830381865afa158015611ce0573d6000803e3d6000fd5b505050506040513d601f19601f82011682018060405250810190611d049190612522565b6020830152808252611d159061219a565b600480546001600160801b03928316600160801b0292169190911790556020810151611d409061219a565b600580546001600160801b03928316600160801b029216919091179055505050565b600081156b033b2e3c9fd0803ce800000060028404190484111715611d8657600080fd5b506b033b2e3c9fd0803ce80000009190910260028204010490565b633b9aca00808204908206631dcd65008110611dbe576001820191505b50919050565b6000611dce611a4c565b9050611dd981611ba1565b60008060009054906101000a90046001600160a01b03166001600160a01b031663313ce5676040518163ffffffff1660e01b8152600401602060405180830381865afa158015611e2d573d6000803e3d6000fd5b505050506040513d601f19601f82011682018060405250810190611e519190612315565b611e5c90600a612432565b611e726b033b2e3c9fd0803ce800000086612441565b611e7c919061246e565b90506000611e998360400151600a54611b5d90919063ffffffff16565b90506000611ec182611ebb86604001518686611eb5919061250f565b90611b5d565b90611d62565b9050611ecc8161219a565b600480546fffffffffffffffffffffffffffffffff19166001600160801b0392909216919091179055600c8054879190600090611f0a90849061250f565b90915550506000546040516323b872dd60e01b81526001600160a01b03878116600483015230602483015260448201899052909116906323b872dd906064016118b4565b600080611f6264ffffffffff841642612490565b611f6c9085612441565b6301e133809004905061136c816b033b2e3c9fd0803ce800000061250f565b600080611f9f64ffffffffff851684612490565b905080600003611fbe576b033b2e3c9fd0803ce8000000915050611b56565b60001981016000808060028511611fd6576000611fdb565b600285035b925066038882915c4000611fef8a80611b5d565b81611ffc57611ffc612458565b0491506301e1338061200e838b611b5d565b8161201b5761201b612458565b04905060008261202b8688612441565b6120359190612441565b60029004905060008285612049888a612441565b6120539190612441565b61205d9190612441565b60069004905080826301e133806120748a8f612441565b61207e919061246e565b612094906b033b2e3c9fd0803ce800000061250f565b61209e919061250f565b6120a8919061250f565b9b9a5050505050505050505050565b60a0810151156121295760006120d58260a001518360e00151611f4e565b90506120ee826020015182611b5d90919063ffffffff16565b604083018190526120fe9061219a565b600480546fffffffffffffffffffffffffffffffff19166001600160801b0392909216919091179055505b8051156112745760006121448260c001518360e00151611b49565b905061215d826060015182611b5d90919063ffffffff16565b6080830181905261216d9061219a565b600580546fffffffffffffffffffffffffffffffff19166001600160801b03929092169190911790555050565b60006001600160801b038211156121e7576040517f6dfcc65000000000000000000000000000000000000000000000000000000000815260806004820152602481018390526044016108de565b5090565b6001600160a01b038116811461127457600080fd5b60006020828403121561221257600080fd5b8135611b56816121eb565b60006020828403121561222f57600080fd5b5035919050565b801515811461127457600080fd5b6000806000806080858703121561225a57600080fd5b84359350602085013592506040850135612273816121eb565b9150606085013561228381612236565b939692955090935050565b600080604083850312156122a157600080fd5b82356122ac816121eb565b915060208301356122bc816121eb565b809150509250929050565b600080604083850312156122da57600080fd5b50508035926020909101359150565b600080604083850312156122fc57600080fd5b8235612307816121eb565b946020939093013593505050565b60006020828403121561232757600080fd5b815160ff81168114611b5657600080fd5b634e487b7160e01b600052601160045260246000fd5b600181815b8085111561238957816000190482111561236f5761236f612338565b8085161561237c57918102915b93841c9390800290612353565b509250929050565b6000826123a057506001611080565b816123ad57506000611080565b81600181146123c357600281146123cd576123e9565b6001915050611080565b60ff8411156123de576123de612338565b50506001821b611080565b5060208310610133831016604e8410600b841016171561240c575081810a611080565b612416838361234e565b806000190482111561242a5761242a612338565b029392505050565b6000611b5660ff841683612391565b808202811582820484141761108057611080612338565b634e487b7160e01b600052601260045260246000fd5b60008261248b57634e487b7160e01b600052601260045260246000fd5b500490565b8181038181111561108057611080612338565b60006020808352835180602085015260005b818110156124d1578581018301518582016040015282016124b5565b506000604082860101526040601f19601f8301168501019250505092915050565b60006020828403121561250457600080fd5b8151611b5681612236565b8082018082111561108057611080612338565b6000806040838503121561253557600080fd5b50508051602090910151909290915056fea26469706673582212202035316e5ba73b2d0f7b44f866cd550b479c3ba20aa0db4565b852c7765091a164736f6c63430008180033",
  "linkReferences": {},
  "deployedLinkReferences": {}
}