{
  "_format": "hh-sol-artifact-1",
  "contractName": "CCFLPool",
  "sourceName": "contracts/CCFLPool.sol",
  "abi": [
    {
      "inputs": [],
      "name": "InvalidInitialization",
      "type": "error"
    },
    {
      "inputs": [],
      "name": "NotInitializing",
      "type": "error"
    },
    {
      "inputs": [
        {
          "internalType": "uint8",
          "name": "bits",
          "type": "uint8"
        },
        {
          "internalType": "uint256",
          "name": "value",
          "type": "uint256"
        }
      ],
      "name": "SafeCastOverflowedUintDowncast",
      "type": "error"
    },
    {
      "anonymous": false,
      "inputs": [
        {
          "indexed": true,
          "internalType": "address",
          "name": "lender",
          "type": "address"
        },
        {
          "indexed": true,
          "internalType": "contract IERC20Standard",
          "name": "supply",
          "type": "address"
        },
        {
          "indexed": false,
          "internalType": "uint256",
          "name": "amount",
          "type": "uint256"
        },
        {
          "indexed": false,
          "internalType": "uint256",
          "name": "timestamp",
          "type": "uint256"
        }
      ],
      "name": "AddSupply",
      "type": "event"
    },
    {
      "anonymous": false,
      "inputs": [
        {
          "indexed": false,
          "internalType": "uint64",
          "name": "version",
          "type": "uint64"
        }
      ],
      "name": "Initialized",
      "type": "event"
    },
    {
      "anonymous": false,
      "inputs": [
        {
          "indexed": true,
          "internalType": "address",
          "name": "lender",
          "type": "address"
        },
        {
          "indexed": true,
          "internalType": "contract IERC20Standard",
          "name": "supply",
          "type": "address"
        },
        {
          "indexed": false,
          "internalType": "uint256",
          "name": "amount",
          "type": "uint256"
        },
        {
          "indexed": false,
          "internalType": "uint256",
          "name": "timestamp",
          "type": "uint256"
        }
      ],
      "name": "WithdrawSupply",
      "type": "event"
    },
    {
      "inputs": [],
      "name": "CCFL",
      "outputs": [
        {
          "internalType": "address",
          "name": "",
          "type": "address"
        }
      ],
      "stateMutability": "view",
      "type": "function"
    },
    {
      "inputs": [
        {
          "internalType": "address",
          "name": "_user",
          "type": "address"
        }
      ],
      "name": "balanceOf",
      "outputs": [
        {
          "internalType": "uint256",
          "name": "",
          "type": "uint256"
        }
      ],
      "stateMutability": "view",
      "type": "function"
    },
    {
      "inputs": [
        {
          "internalType": "uint256",
          "name": "_loanId",
          "type": "uint256"
        },
        {
          "internalType": "uint256",
          "name": "_amount",
          "type": "uint256"
        },
        {
          "internalType": "address",
          "name": "_borrower",
          "type": "address"
        },
        {
          "internalType": "bool",
          "name": "_isFiat",
          "type": "bool"
        }
      ],
      "name": "borrow",
      "outputs": [],
      "stateMutability": "nonpayable",
      "type": "function"
    },
    {
      "inputs": [
        {
          "internalType": "uint256",
          "name": "",
          "type": "uint256"
        }
      ],
      "name": "debt",
      "outputs": [
        {
          "internalType": "uint256",
          "name": "",
          "type": "uint256"
        }
      ],
      "stateMutability": "view",
      "type": "function"
    },
    {
      "inputs": [
        {
          "internalType": "uint256",
          "name": "_amount",
          "type": "uint256"
        }
      ],
      "name": "earnStaking",
      "outputs": [],
      "stateMutability": "nonpayable",
      "type": "function"
    },
    {
      "inputs": [
        {
          "internalType": "uint256",
          "name": "_loanId",
          "type": "uint256"
        }
      ],
      "name": "getCurrentLoan",
      "outputs": [
        {
          "internalType": "uint256",
          "name": "",
          "type": "uint256"
        }
      ],
      "stateMutability": "view",
      "type": "function"
    },
    {
      "inputs": [],
      "name": "getCurrentRate",
      "outputs": [
        {
          "internalType": "uint256",
          "name": "",
          "type": "uint256"
        },
        {
          "internalType": "uint256",
          "name": "",
          "type": "uint256"
        },
        {
          "internalType": "uint256",
          "name": "",
          "type": "uint256"
        },
        {
          "internalType": "uint256",
          "name": "",
          "type": "uint256"
        }
      ],
      "stateMutability": "view",
      "type": "function"
    },
    {
      "inputs": [],
      "name": "getDebtPool",
      "outputs": [
        {
          "internalType": "uint256",
          "name": "amount",
          "type": "uint256"
        }
      ],
      "stateMutability": "view",
      "type": "function"
    },
    {
      "inputs": [],
      "name": "getRemainingPool",
      "outputs": [
        {
          "internalType": "uint256",
          "name": "amount",
          "type": "uint256"
        }
      ],
      "stateMutability": "view",
      "type": "function"
    },
    {
      "inputs": [],
      "name": "getTotalSupply",
      "outputs": [
        {
          "internalType": "uint256",
          "name": "",
          "type": "uint256"
        }
      ],
      "stateMutability": "view",
      "type": "function"
    },
    {
      "inputs": [
        {
          "internalType": "contract IERC20Standard",
          "name": "_stableCoinAddress",
          "type": "address"
        },
        {
          "internalType": "address",
          "name": "interestRateStrategyAddress",
          "type": "address"
        }
      ],
      "name": "initialize",
      "outputs": [],
      "stateMutability": "nonpayable",
      "type": "function"
    },
    {
      "inputs": [],
      "name": "isPaused",
      "outputs": [
        {
          "internalType": "bool",
          "name": "",
          "type": "bool"
        }
      ],
      "stateMutability": "view",
      "type": "function"
    },
    {
      "inputs": [
        {
          "internalType": "uint256",
          "name": "",
          "type": "uint256"
        }
      ],
      "name": "lenders",
      "outputs": [
        {
          "internalType": "address",
          "name": "",
          "type": "address"
        }
      ],
      "stateMutability": "view",
      "type": "function"
    },
    {
      "inputs": [
        {
          "internalType": "uint256",
          "name": "_loanId",
          "type": "uint256"
        },
        {
          "internalType": "uint256",
          "name": "_amount",
          "type": "uint256"
        }
      ],
      "name": "liquidatePenalty",
      "outputs": [],
      "stateMutability": "nonpayable",
      "type": "function"
    },
    {
      "inputs": [
        {
          "internalType": "uint256",
          "name": "",
          "type": "uint256"
        }
      ],
      "name": "loans",
      "outputs": [
        {
          "internalType": "uint256",
          "name": "loanId",
          "type": "uint256"
        },
        {
          "internalType": "bool",
          "name": "isPaid",
          "type": "bool"
        },
        {
          "internalType": "uint256",
          "name": "amount",
          "type": "uint256"
        },
        {
          "internalType": "bool",
          "name": "isClosed",
          "type": "bool"
        },
        {
          "internalType": "address",
          "name": "borrower",
          "type": "address"
        },
        {
          "internalType": "bool",
          "name": "isLiquidated",
          "type": "bool"
        },
        {
          "internalType": "contract IERC20Standard",
          "name": "stableCoin",
          "type": "address"
        },
        {
          "internalType": "bool",
          "name": "isFinalty",
          "type": "bool"
        },
        {
          "internalType": "bool",
          "name": "isFiat",
          "type": "bool"
        }
      ],
      "stateMutability": "view",
      "type": "function"
    },
    {
      "inputs": [
        {
          "internalType": "address",
          "name": "",
          "type": "address"
        }
      ],
      "name": "operators",
      "outputs": [
        {
          "internalType": "bool",
          "name": "",
          "type": "bool"
        }
      ],
      "stateMutability": "view",
      "type": "function"
    },
    {
      "inputs": [],
      "name": "remainingPool",
      "outputs": [
        {
          "internalType": "uint256",
          "name": "",
          "type": "uint256"
        }
      ],
      "stateMutability": "view",
      "type": "function"
    },
    {
      "inputs": [
        {
          "internalType": "uint256",
          "name": "_loanId",
          "type": "uint256"
        },
        {
          "internalType": "uint256",
          "name": "_amount",
          "type": "uint256"
        }
      ],
      "name": "repay",
      "outputs": [],
      "stateMutability": "nonpayable",
      "type": "function"
    },
    {
      "inputs": [],
      "name": "reserve",
      "outputs": [
        {
          "internalType": "uint128",
          "name": "liquidityIndex",
          "type": "uint128"
        },
        {
          "internalType": "uint128",
          "name": "currentLiquidityRate",
          "type": "uint128"
        },
        {
          "internalType": "uint128",
          "name": "variableBorrowIndex",
          "type": "uint128"
        },
        {
          "internalType": "uint128",
          "name": "currentVariableBorrowRate",
          "type": "uint128"
        },
        {
          "internalType": "uint40",
          "name": "lastUpdateTimestamp",
          "type": "uint40"
        },
        {
          "internalType": "uint16",
          "name": "id",
          "type": "uint16"
        },
        {
          "internalType": "address",
          "name": "interestRateStrategyAddress",
          "type": "address"
        }
      ],
      "stateMutability": "view",
      "type": "function"
    },
    {
      "inputs": [
        {
          "internalType": "address",
          "name": "_ccfl",
          "type": "address"
        }
      ],
      "name": "setCCFL",
      "outputs": [],
      "stateMutability": "nonpayable",
      "type": "function"
    },
    {
      "inputs": [
        {
          "internalType": "address[]",
          "name": "_addresses",
          "type": "address[]"
        },
        {
          "internalType": "bool[]",
          "name": "_isActives",
          "type": "bool[]"
        }
      ],
      "name": "setOperators",
      "outputs": [],
      "stateMutability": "nonpayable",
      "type": "function"
    },
    {
      "inputs": [
        {
          "internalType": "bool",
          "name": "_paused",
          "type": "bool"
        }
      ],
      "name": "setPaused",
      "outputs": [],
      "stateMutability": "nonpayable",
      "type": "function"
    },
    {
      "inputs": [
        {
          "internalType": "address",
          "name": "",
          "type": "address"
        }
      ],
      "name": "share",
      "outputs": [
        {
          "internalType": "uint256",
          "name": "",
          "type": "uint256"
        }
      ],
      "stateMutability": "view",
      "type": "function"
    },
    {
      "inputs": [],
      "name": "stableCoinAddress",
      "outputs": [
        {
          "internalType": "contract IERC20Standard",
          "name": "",
          "type": "address"
        }
      ],
      "stateMutability": "view",
      "type": "function"
    },
    {
      "inputs": [
        {
          "internalType": "uint256",
          "name": "_amount",
          "type": "uint256"
        }
      ],
      "name": "supply",
      "outputs": [],
      "stateMutability": "nonpayable",
      "type": "function"
    },
    {
      "inputs": [],
      "name": "totalDebt",
      "outputs": [
        {
          "internalType": "uint256",
          "name": "",
          "type": "uint256"
        }
      ],
      "stateMutability": "view",
      "type": "function"
    },
    {
      "inputs": [],
      "name": "totalLiquidity",
      "outputs": [
        {
          "internalType": "uint256",
          "name": "",
          "type": "uint256"
        }
      ],
      "stateMutability": "view",
      "type": "function"
    },
    {
      "inputs": [],
      "name": "totalSupply",
      "outputs": [
        {
          "internalType": "uint256",
          "name": "",
          "type": "uint256"
        }
      ],
      "stateMutability": "view",
      "type": "function"
    },
    {
      "inputs": [
        {
          "internalType": "uint256",
          "name": "_amount",
          "type": "uint256"
        }
      ],
      "name": "withdraw",
      "outputs": [],
      "stateMutability": "nonpayable",
      "type": "function"
    },
    {
      "inputs": [],
      "name": "withdrawAllByAdmin",
      "outputs": [],
      "stateMutability": "nonpayable",
      "type": "function"
    },
    {
      "inputs": [
        {
          "internalType": "address",
          "name": "_receiver",
          "type": "address"
        },
        {
          "internalType": "uint256",
          "name": "_loanId",
          "type": "uint256"
        }
      ],
      "name": "withdrawLoan",
      "outputs": [],
      "stateMutability": "nonpayable",
      "type": "function"
    },
    {
      "stateMutability": "payable",
      "type": "receive"
    }
  ],
  "bytecode": "0x608060405234801561001057600080fd5b50612d47806100206000396000f3fe6080604052600436106101dc5760003560e01c80638ac1b77511610102578063c4e41b2211610095578063ec7be39d11610064578063ec7be39d146106c1578063f4305035146106e1578063f7fb07b014610701578063fc7b9c181461074e57600080fd5b8063c4e41b22146104f1578063cd3293de14610506578063d8aed145146105cc578063e1ec3c68146105ec57600080fd5b80639b78dbfc116100d15780639b78dbfc1461047a578063a52f38d11461049a578063b14d37c0146104ba578063b187bd26146104d057600080fd5b80638ac1b77514610405578063929eea211461042557806394a368d214610445578063982aae461461045a57600080fd5b80632e1a7d4d1161017a5780633b4675a7116101495780633b4675a71461036d578063485cc955146103a557806370a08231146103c55780637f394031146103e557600080fd5b80632e1a7d4d146102f857806335403023146103185780633870862b146103385780633b24cc211461035857600080fd5b806316c38b3c116101b657806316c38b3c1461026657806318160ddd146102885780631877bb5c1461029e5780631e0029c8146102cb57600080fd5b806303ec357f146101e857806313e7c9d81461021057806315770f921461025057600080fd5b366101e357005b600080fd5b3480156101f457600080fd5b506101fd610764565b6040519081526020015b60405180910390f35b34801561021c57600080fd5b5061024061022b3660046127c1565b60006020819052908152604090205460ff1681565b6040519015158152602001610207565b34801561025c57600080fd5b506101fd600b5481565b34801561027257600080fd5b506102866102813660046127ec565b610854565b005b34801561029457600080fd5b506101fd600a5481565b3480156102aa57600080fd5b506101fd6102b93660046127c1565b60086020526000908152604090205481565b3480156102d757600080fd5b506101fd6102e6366004612809565b60096020526000908152604090205481565b34801561030457600080fd5b50610286610313366004612809565b6108db565b34801561032457600080fd5b50610286610333366004612809565b610b6c565b34801561034457600080fd5b50610286610353366004612822565b610dc3565b34801561036457600080fd5b50600d546101fd565b34801561037957600080fd5b5060045461038d906001600160a01b031681565b6040516001600160a01b039091168152602001610207565b3480156103b157600080fd5b506102866103c036600461286c565b611073565b3480156103d157600080fd5b506101fd6103e03660046127c1565b61126d565b3480156103f157600080fd5b506102866104003660046128a5565b61132f565b34801561041157600080fd5b506102866104203660046127c1565b61145e565b34801561043157600080fd5b5061038d610440366004612809565b6114f9565b34801561045157600080fd5b50610286611523565b34801561046657600080fd5b5060015461038d906001600160a01b031681565b34801561048657600080fd5b50610286610495366004612809565b611681565b3480156104a657600080fd5b506101fd6104b5366004612809565b611717565b3480156104c657600080fd5b506101fd600d5481565b3480156104dc57600080fd5b50600e5461024090600160a01b900460ff1681565b3480156104fd57600080fd5b506101fd611814565b34801561051257600080fd5b50600554600654600754610571926001600160801b0380821693600160801b92839004821693828216939091049091169064ffffffffff81169065010000000000810461ffff169067010000000000000090046001600160a01b031687565b604080516001600160801b03988916815296881660208801529487169486019490945294909116606084015264ffffffffff16608083015261ffff90921660a08201526001600160a01b0390911660c082015260e001610207565b3480156105d857600080fd5b506102866105e73660046128a5565b6118ec565b3480156105f857600080fd5b5061066e610607366004612809565b600360208190526000918252604090912080546001820154600283015493830154600490930154919360ff918216939092818316926001600160a01b036101008404811693600160a81b9081900483169391821692600160a01b8304811692919091041689565b60408051998a5297151560208a01529688019590955292151560608701526001600160a01b039182166080870152151560a08601521660c0840152151560e0830152151561010082015261012001610207565b3480156106cd57600080fd5b506102866106dc3660046128c7565b611de0565b3480156106ed57600080fd5b506102866106fc3660046129d6565b611f76565b34801561070d57600080fd5b50600654600554604080516001600160801b03600160801b808604821683528404811660208301529384169181019190915291166060820152608001610207565b34801561075a57600080fd5b506101fd600c5481565b60008061076f612030565b905060006107858260c001518360e0015161212d565b60065490915061079f9082906001600160801b0316612141565b60808301526001546040805163313ce56760e01b815290516b033b2e3c9fd0803ce8000000926001600160a01b03169163313ce5679160048083019260209291908290030181865afa1580156107f9573d6000803e3d6000fd5b505050506040513d601f19601f8201168201806040525081019061081d9190612a98565b61082890600a612bb5565b6080840151600c5461083991612141565b6108439190612bc4565b61084d9190612bf1565b9250505090565b600e546040805180820190915260018152601960f91b6020820152906001600160a01b031633146108a15760405162461bcd60e51b81526004016108989190612c13565b60405180910390fd5b50600e8054911515600160a01b027fffffffffffffffffffffff00ffffffffffffffffffffffffffffffffffffffff909216919091179055565b600e54604080518082019091526002815261323160f01b602082015290600160a01b900460ff16156109205760405162461bcd60e51b81526004016108989190612c13565b50600061092b612030565b905061093681612185565b6001546040805163313ce56760e01b815290516000926001600160a01b03169163313ce5679160048083019260209291908290030181865afa158015610980573d6000803e3d6000fd5b505050506040513d601f19601f820116820180604052508101906109a49190612a98565b6109af90600a612bb5565b6109c56b033b2e3c9fd0803ce800000085612bc4565b6109cf9190612bf1565b90506109dc6000826121be565b6005546000906109f69083906001600160801b0316612346565b3360009081526008602052604081205491925090610a15908390612c62565b905081600a6000828254610a299190612c62565b9250508190555081600b6000828254610a429190612c62565b909155505060408051808201909152600181527f3800000000000000000000000000000000000000000000000000000000000000602082015250336000908152600860205260408120829055600d8054879290610aa0908490612c62565b909155505060015460405163a9059cbb60e01b8152336004820152602481018790526001600160a01b039091169063a9059cbb906044016020604051808303816000875af1158015610af6573d6000803e3d6000fd5b505050506040513d601f19601f82011682018060405250810190610b1a9190612c75565b50600154604080518781524260208201526001600160a01b039092169133917ff920a98209abfdc322e529414e4f3e4daf45c2a9cf6a1a1245a903648c84b3a391015b60405180910390a35050505050565b600e54604080518082019091526002815261323160f01b602082015290600160a01b900460ff1615610bb15760405162461bcd60e51b81526004016108989190612c13565b506000610bbc612030565b9050610bc781612185565b6001546040805163313ce56760e01b815290516000926001600160a01b03169163313ce5679160048083019260209291908290030181865afa158015610c11573d6000803e3d6000fd5b505050506040513d601f19601f82011682018060405250810190610c359190612a98565b610c4090600a612bb5565b610c566b033b2e3c9fd0803ce800000085612bc4565b610c609190612bf1565b9050610c6d8160006121be565b600554600090610c879083906001600160801b0316612346565b3360009081526008602052604081205491925090610ca6908390612c92565b905081600a6000828254610cba9190612c92565b9250508190555081600b6000828254610cd39190612c92565b9091555050336000908152600860205260408120829055600d8054879290610cfc908490612c92565b90915550506001546040516323b872dd60e01b8152336004820152306024820152604481018790526001600160a01b03909116906323b872dd906064016020604051808303816000875af1158015610d58573d6000803e3d6000fd5b505050506040513d601f19601f82011682018060405250810190610d7c9190612c75565b50600154604080518781524260208201526001600160a01b039092169133917fcae7933f97cc1867dc5809b71fe2fef50587154907804d33215880df5ff6a9899101610b5d565b600454604080518082019091526002815261313360f01b6020820152906001600160a01b03163314610e085760405162461bcd60e51b81526004016108989190612c13565b50600e54604080518082019091526002815261323160f01b602082015290600160a01b900460ff1615610e4e5760405162461bcd60e51b81526004016108989190612c13565b506000610e59612030565b9050610e6481612185565b6001546040805163313ce56760e01b815290516000926001600160a01b03169163313ce5679160048083019260209291908290030181865afa158015610eae573d6000803e3d6000fd5b505050506040513d601f19601f82011682018060405250810190610ed29190612a98565b610edd90600a612bb5565b610ef36b033b2e3c9fd0803ce800000087612bc4565b610efd9190612bf1565b90506000610f1883608001518361234690919063ffffffff16565b60008881526009602052604081205491925090610f36908390612c92565b905081600c6000828254610f4a9190612c92565b9091555050600d5460408051808201909152600281527f3135000000000000000000000000000000000000000000000000000000000000602082015290881115610fa75760405162461bcd60e51b81526004016108989190612c13565b506000888152600360208181526040808420600990925283208490558a8155600281018a905590810180547fffffffffffffffffffffff0000000000000000000000000000000000000000ff166101006001600160a01b038b160217905560048101805460ff60a81b1916600160a81b891515021790559061102990856121be565b6040850151611039908590612346565b600b600082825461104a9190612c62565b9250508190555087600d60008282546110639190612c62565b9091555050505050505050505050565b7ff0c57e16840df040f15088dc2f81fe391c3923bec73e23a9662efc9c229c6a00805468010000000000000000810460ff16159067ffffffffffffffff166000811580156110be5750825b905060008267ffffffffffffffff1660011480156110db5750303b155b9050811580156110e9575080155b15611120576040517ff92ee8a900000000000000000000000000000000000000000000000000000000815260040160405180910390fd5b845467ffffffffffffffff19166001178555831561115457845468ff00000000000000001916680100000000000000001785555b600180546001600160a01b03808a1673ffffffffffffffffffffffffffffffffffffffff1992831617835560078054918a16670100000000000000027fffffffffff0000000000000000000000000000000000000000ffffffffffffff909216919091179055600580546fffffffffffffffffffffffffffffffff199081166b033b2e3c9fd0803ce8000000908117909255600680549091169091179055600e8054909116339081179091556000908152602081905260409020805460ff19169091179055831561126457845468ff000000000000000019168555604051600181527fc7f505b2f371ae2175ee4913f4499e1f2633a7b5936321eed1cdaeb6115181d29060200160405180910390a15b50505050505050565b6001546040805163313ce56760e01b815290516000926001600160a01b03169163313ce5679160048083019260209291908290030181865afa1580156112b7573d6000803e3d6000fd5b505050506040513d601f19601f820116820180604052508101906112db9190612a98565b6112e690601b612ca5565b6112f190600a612bb5565b6005546001600160a01b03841660009081526008602052604090205461131f916001600160801b0316612141565b6113299190612bf1565b92915050565b600454604080518082019091526002815261313360f01b6020820152906001600160a01b031633146113745760405162461bcd60e51b81526004016108989190612c13565b50600e54604080518082019091526002815261323160f01b602082015290600160a01b900460ff16156113ba5760405162461bcd60e51b81526004016108989190612c13565b50600082815260036020818152604092839020909101548251808401909352600283527f313700000000000000000000000000000000000000000000000000000000000091830191909152600160a81b900460ff161561142d5760405162461bcd60e51b81526004016108989190612c13565b506114388133612385565b50600090815260036020819052604090912001805460ff60a81b1916600160a81b179055565b3360009081526020818152604091829020548251808401909352600283527f31380000000000000000000000000000000000000000000000000000000000009183019190915260ff1615156001146114c95760405162461bcd60e51b81526004016108989190612c13565b506004805473ffffffffffffffffffffffffffffffffffffffff19166001600160a01b0392909216919091179055565b6002818154811061150957600080fd5b6000918252602090912001546001600160a01b0316905081565b600e546040805180820190915260018152601960f91b6020820152906001600160a01b031633146115675760405162461bcd60e51b81526004016108989190612c13565b506001546040517f70a082310000000000000000000000000000000000000000000000000000000081523060048201526001600160a01b039091169063a9059cbb90339083906370a0823190602401602060405180830381865afa1580156115d3573d6000803e3d6000fd5b505050506040513d601f19601f820116820180604052508101906115f79190612cbe565b6040517fffffffff0000000000000000000000000000000000000000000000000000000060e085901b1681526001600160a01b03909216600483015260248201526044016020604051808303816000875af115801561165a573d6000803e3d6000fd5b505050506040513d601f19601f8201168201806040525081019061167e9190612c75565b50565b600454604080518082019091526002815261313360f01b6020820152906001600160a01b031633146116c65760405162461bcd60e51b81526004016108989190612c13565b50600e54604080518082019091526002815261323160f01b602082015290600160a01b900460ff161561170c5760405162461bcd60e51b81526004016108989190612c13565b5061167e8133612385565b600080611722612030565b905060006117388260c001518360e0015161212d565b6006549091506117529082906001600160801b0316612141565b60808301526001546040805163313ce56760e01b815290516b033b2e3c9fd0803ce8000000926001600160a01b03169163313ce5679160048083019260209291908290030181865afa1580156117ac573d6000803e3d6000fd5b505050506040513d601f19601f820116820180604052508101906117d09190612a98565b6117db90600a612bb5565b60808401516000878152600960205260409020546117f891612141565b6118029190612bc4565b61180c9190612bf1565b949350505050565b60008061181f612030565b905060006118358260a001518360e0015161250f565b905061184e82604001518261214190919063ffffffff16565b604080840191909152600154815163313ce56760e01b815291516b033b2e3c9fd0803ce8000000926001600160a01b039092169163313ce5679160048083019260209291908290030181865afa1580156118ac573d6000803e3d6000fd5b505050506040513d601f19601f820116820180604052508101906118d09190612a98565b6118db90600a612bb5565b6040840151600a5461083991612141565b600454604080518082019091526002815261313360f01b6020820152906001600160a01b031633146119315760405162461bcd60e51b81526004016108989190612c13565b50600e54604080518082019091526002815261323160f01b602082015290600160a01b900460ff16156119775760405162461bcd60e51b81526004016108989190612c13565b50600082815260036020818152604092839020909101548251808401909352600283527f31360000000000000000000000000000000000000000000000000000000000009183019190915260ff16156119e35760405162461bcd60e51b81526004016108989190612c13565b5060006119ee612030565b90506119f981612185565b6001546040805163313ce56760e01b815290516000926001600160a01b03169163313ce5679160048083019260209291908290030181865afa158015611a43573d6000803e3d6000fd5b505050506040513d601f19601f82011682018060405250810190611a679190612a98565b611a7290600a612bb5565b611a886b033b2e3c9fd0803ce800000085612bc4565b611a929190612bf1565b600654909150600090611aaf9083906001600160801b0316612346565b6000868152600960205260409020549091508110611cc757600085815260096020526040812054600c805491929091611ae9908490612c62565b90915550506006546000868152600960205260408120549091611b1591906001600160801b0316612141565b6001546040805163313ce56760e01b815290519293506000926b033b2e3c9fd0803ce8000000926001600160a01b03169163313ce5679160048083019260209291908290030181865afa158015611b70573d6000803e3d6000fd5b505050506040513d601f19601f82011682018060405250810190611b949190612a98565b611b9f90600a612bb5565b611ba99084612bc4565b611bb39190612bf1565b6000888152600960205260408120819055909150611bd29083906121be565b604080860151600089815260096020529190912054611bf091612346565b600b6000828254611c019190612c92565b9250508190555080600d6000828254611c1a9190612c92565b9091555050600154600480546040516323b872dd60e01b81526001600160a01b039182169281019290925230602483015260448201849052909116906323b872dd906064016020604051808303816000875af1158015611c7e573d6000803e3d6000fd5b505050506040513d601f19601f82011682018060405250810190611ca29190612c75565b505050600085815260036020819052604090912001805460ff19166001179055611dd9565b600085815260096020526040812054611ce1908390612c62565b905081600c6000828254611cf59190612c62565b90915550506000868152600960205260408120829055611d169084906121be565b6040840151611d26908490612346565b600b6000828254611d379190612c92565b9250508190555084600d6000828254611d509190612c92565b9091555050600154600480546040516323b872dd60e01b81526001600160a01b039182169281019290925230602483015260448201889052909116906323b872dd906064015b6020604051808303816000875af1158015611db5573d6000803e3d6000fd5b505050506040513d601f19601f820116820180604052508101906112649190612c75565b5050505050565b600454604080518082019091526002815261313360f01b6020820152906001600160a01b03163314611e255760405162461bcd60e51b81526004016108989190612c13565b50600e54604080518082019091526002815261323160f01b602082015290600160a01b900460ff1615611e6b5760405162461bcd60e51b81526004016108989190612c13565b50600081815260036020908152604091829020600101548251808401909352600283527f31340000000000000000000000000000000000000000000000000000000000009183019190915260ff1615611ed75760405162461bcd60e51b81526004016108989190612c13565b50600081815260036020526040908190206001808201805460ff19168217905554600290910154915163a9059cbb60e01b81526001600160a01b038581166004830152602482019390935291169063a9059cbb906044016020604051808303816000875af1158015611f4d573d6000803e3d6000fd5b505050506040513d601f19601f82011682018060405250810190611f719190612c75565b505050565b600e546040805180820190915260018152601960f91b6020820152906001600160a01b03163314611fba5760405162461bcd60e51b81526004016108989190612c13565b5060005b8251811015611f7157818181518110611fd957611fd9612cd7565b6020026020010151600080858481518110611ff657611ff6612cd7565b6020908102919091018101516001600160a01b03168252810191909152604001600020805460ff1916911515919091179055600101611fbe565b61207f60405180610100016040528060008152602001600081526020016000815260200160008152602001600081526020016000815260200160008152602001600064ffffffffff1681525090565b6120ce60405180610100016040528060008152602001600081526020016000815260200160008152602001600081526020016000815260200160008152602001600064ffffffffff1681525090565b6005546001600160801b03808216604084018190526020840152600654808216608085018190526060850152600160801b92839004821660a0850152919091041660c082015260075464ffffffffff1660e0820152600c548152919050565b600061213a83834261254c565b9392505050565b600081156b019d971e4fe8401e74000000198390048411151761216357600080fd5b506b033b2e3c9fd0803ce800000091026b019d971e4fe8401e74000000010490565b60075464ffffffffff42811691160361219b5750565b6121a481612678565b506007805464ffffffffff19164264ffffffffff16179055565b6121e260405180606001604052806000815260200160008152602001600081525090565b6007546040805160808101825285815260208101859052600654600c546701000000000000009094046001600160a01b0316936356eaf2649383019161223191906001600160801b0316612141565b8152600554600b54602090920191612251916001600160801b0316612141565b9052604080517fffffffff0000000000000000000000000000000000000000000000000000000060e085901b168152825160048201526020830151602482015290820151604482015260609091015160648201526084016040805180830381865afa1580156122c4573d6000803e3d6000fd5b505050506040513d601f19601f820116820180604052508101906122e89190612ced565b60208301528082526122f99061275b565b600580546001600160801b03928316600160801b02921691909117905560208101516123249061275b565b600680546001600160801b03928316600160801b029216919091179055505050565b600081156b033b2e3c9fd0803ce80000006002840419048411171561236a57600080fd5b506b033b2e3c9fd0803ce80000009190910260028204010490565b811561250b576000612395612030565b90506123a081612185565b6001546040805163313ce56760e01b815290516000926001600160a01b03169163313ce5679160048083019260209291908290030181865afa1580156123ea573d6000803e3d6000fd5b505050506040513d601f19601f8201168201806040525081019061240e9190612a98565b61241990600a612bb5565b61242f6b033b2e3c9fd0803ce800000086612bc4565b6124399190612bf1565b905060006124568360400151600b5461214190919063ffffffff16565b9050600061247e82612478866040015186866124729190612c92565b90612141565b90612346565b90506124898161275b565b600580546fffffffffffffffffffffffffffffffff19166001600160801b0392909216919091179055600d80548791906000906124c7908490612c92565b90915550506001546040516323b872dd60e01b81526001600160a01b03878116600483015230602483015260448201899052909116906323b872dd90606401611d96565b5050565b60008061252364ffffffffff841642612c62565b61252d9085612bc4565b6301e133809004905061180c816b033b2e3c9fd0803ce8000000612c92565b60008061256064ffffffffff851684612c62565b90508060000361257f576b033b2e3c9fd0803ce800000091505061213a565b6000198101600080806002851161259757600061259c565b600285035b925066038882915c40006125b08a80612141565b816125bd576125bd612bdb565b0491506301e133806125cf838b612141565b816125dc576125dc612bdb565b0490506000826125ec8688612bc4565b6125f69190612bc4565b6002900490506000828561260a888a612bc4565b6126149190612bc4565b61261e9190612bc4565b60069004905080826301e133806126358a8f612bc4565b61263f9190612bf1565b612655906b033b2e3c9fd0803ce8000000612c92565b61265f9190612c92565b6126699190612c92565b9b9a5050505050505050505050565b60a0810151156126ea5760006126968260a001518360e0015161250f565b90506126af82602001518261214190919063ffffffff16565b604083018190526126bf9061275b565b600580546fffffffffffffffffffffffffffffffff19166001600160801b0392909216919091179055505b80511561167e5760006127058260c001518360e0015161212d565b905061271e82606001518261214190919063ffffffff16565b6080830181905261272e9061275b565b600680546fffffffffffffffffffffffffffffffff19166001600160801b03929092169190911790555050565b60006001600160801b038211156127a8576040517f6dfcc6500000000000000000000000000000000000000000000000000000000081526080600482015260248101839052604401610898565b5090565b6001600160a01b038116811461167e57600080fd5b6000602082840312156127d357600080fd5b813561213a816127ac565b801515811461167e57600080fd5b6000602082840312156127fe57600080fd5b813561213a816127de565b60006020828403121561281b57600080fd5b5035919050565b6000806000806080858703121561283857600080fd5b84359350602085013592506040850135612851816127ac565b91506060850135612861816127de565b939692955090935050565b6000806040838503121561287f57600080fd5b823561288a816127ac565b9150602083013561289a816127ac565b809150509250929050565b600080604083850312156128b857600080fd5b50508035926020909101359150565b600080604083850312156128da57600080fd5b82356128e5816127ac565b946020939093013593505050565b634e487b7160e01b600052604160045260246000fd5b604051601f8201601f1916810167ffffffffffffffff81118282101715612932576129326128f3565b604052919050565b600067ffffffffffffffff821115612954576129546128f3565b5060051b60200190565b600082601f83011261296f57600080fd5b8135602061298461297f8361293a565b612909565b8083825260208201915060208460051b8701019350868411156129a657600080fd5b602086015b848110156129cb5780356129be816127de565b83529183019183016129ab565b509695505050505050565b600080604083850312156129e957600080fd5b823567ffffffffffffffff80821115612a0157600080fd5b818501915085601f830112612a1557600080fd5b81356020612a2561297f8361293a565b82815260059290921b84018101918181019089841115612a4457600080fd5b948201945b83861015612a6b578535612a5c816127ac565b82529482019490820190612a49565b96505086013592505080821115612a8157600080fd5b50612a8e8582860161295e565b9150509250929050565b600060208284031215612aaa57600080fd5b815160ff8116811461213a57600080fd5b634e487b7160e01b600052601160045260246000fd5b600181815b80851115612b0c578160001904821115612af257612af2612abb565b80851615612aff57918102915b93841c9390800290612ad6565b509250929050565b600082612b2357506001611329565b81612b3057506000611329565b8160018114612b465760028114612b5057612b6c565b6001915050611329565b60ff841115612b6157612b61612abb565b50506001821b611329565b5060208310610133831016604e8410600b8410161715612b8f575081810a611329565b612b998383612ad1565b8060001904821115612bad57612bad612abb565b029392505050565b600061213a60ff841683612b14565b808202811582820484141761132957611329612abb565b634e487b7160e01b600052601260045260246000fd5b600082612c0e57634e487b7160e01b600052601260045260246000fd5b500490565b60006020808352835180602085015260005b81811015612c4157858101830151858201604001528201612c25565b506000604082860101526040601f19601f8301168501019250505092915050565b8181038181111561132957611329612abb565b600060208284031215612c8757600080fd5b815161213a816127de565b8082018082111561132957611329612abb565b60ff828116828216039081111561132957611329612abb565b600060208284031215612cd057600080fd5b5051919050565b634e487b7160e01b600052603260045260246000fd5b60008060408385031215612d0057600080fd5b50508051602090910151909290915056fea2646970667358221220177c47d2f0aee7aa78ffe361213cc717cd8a55746567ba00a3f414c7aebcf44a64736f6c63430008180033",
  "linkReferences": {},
  "deployedLinkReferences": {}
}