{
  "_format": "hh-sol-artifact-1",
  "contractName": "CCFL",
  "sourceName": "contracts/CCFL.sol",
  "abi": [
    {
      "inputs": [],
      "name": "ERC1167FailedCreateClone",
      "type": "error"
    },
    {
      "inputs": [],
      "name": "InvalidInitialization",
      "type": "error"
    },
    {
      "inputs": [],
      "name": "NotInitializing",
      "type": "error"
    },
    {
      "anonymous": false,
      "inputs": [
        {
          "indexed": true,
          "internalType": "address",
          "name": "borrower",
          "type": "address"
        },
        {
          "indexed": false,
          "internalType": "uint256",
          "name": "loanId",
          "type": "uint256"
        },
        {
          "indexed": false,
          "internalType": "uint256",
          "name": "collateralAmount",
          "type": "uint256"
        },
        {
          "indexed": false,
          "internalType": "contract IERC20Standard",
          "name": "collateral",
          "type": "address"
        },
        {
          "indexed": false,
          "internalType": "bool",
          "name": "isETH",
          "type": "bool"
        },
        {
          "indexed": false,
          "internalType": "uint256",
          "name": "timestamp",
          "type": "uint256"
        }
      ],
      "name": "AddCollateral",
      "type": "event"
    },
    {
      "anonymous": false,
      "inputs": [
        {
          "indexed": true,
          "internalType": "address",
          "name": "borrower",
          "type": "address"
        },
        {
          "indexed": false,
          "internalType": "uint256",
          "name": "loanAmount",
          "type": "uint256"
        },
        {
          "indexed": false,
          "internalType": "contract IERC20Standard",
          "name": "supply",
          "type": "address"
        },
        {
          "indexed": false,
          "internalType": "uint256",
          "name": "collateralAmount",
          "type": "uint256"
        },
        {
          "indexed": false,
          "internalType": "contract IERC20Standard",
          "name": "collateral",
          "type": "address"
        },
        {
          "indexed": false,
          "internalType": "bool",
          "name": "isYieldGenerating",
          "type": "bool"
        },
        {
          "indexed": false,
          "internalType": "bool",
          "name": "isETH",
          "type": "bool"
        },
        {
          "indexed": false,
          "internalType": "uint256",
          "name": "loanId",
          "type": "uint256"
        },
        {
          "indexed": false,
          "internalType": "uint256",
          "name": "timestamp",
          "type": "uint256"
        }
      ],
      "name": "CreateLoan",
      "type": "event"
    },
    {
      "anonymous": false,
      "inputs": [
        {
          "indexed": false,
          "internalType": "uint64",
          "name": "version",
          "type": "uint64"
        }
      ],
      "name": "Initialized",
      "type": "event"
    },
    {
      "anonymous": false,
      "inputs": [
        {
          "indexed": true,
          "internalType": "address",
          "name": "liquidator",
          "type": "address"
        },
        {
          "indexed": false,
          "internalType": "uint256",
          "name": "loanId",
          "type": "uint256"
        },
        {
          "indexed": false,
          "internalType": "uint256",
          "name": "timestamp",
          "type": "uint256"
        }
      ],
      "name": "Liquidate",
      "type": "event"
    },
    {
      "anonymous": false,
      "inputs": [
        {
          "indexed": true,
          "internalType": "address",
          "name": "borrower",
          "type": "address"
        },
        {
          "indexed": false,
          "internalType": "uint256",
          "name": "loanId",
          "type": "uint256"
        },
        {
          "indexed": false,
          "internalType": "uint256",
          "name": "amount",
          "type": "uint256"
        },
        {
          "indexed": false,
          "internalType": "contract IERC20Standard",
          "name": "supply",
          "type": "address"
        },
        {
          "indexed": false,
          "internalType": "uint256",
          "name": "timestamp",
          "type": "uint256"
        }
      ],
      "name": "RepayLoan",
      "type": "event"
    },
    {
      "anonymous": false,
      "inputs": [
        {
          "indexed": true,
          "internalType": "address",
          "name": "borrower",
          "type": "address"
        },
        {
          "indexed": false,
          "internalType": "uint256",
          "name": "loanId",
          "type": "uint256"
        },
        {
          "indexed": false,
          "internalType": "bool",
          "name": "isETH",
          "type": "bool"
        },
        {
          "indexed": false,
          "internalType": "uint256",
          "name": "timestamp",
          "type": "uint256"
        }
      ],
      "name": "WithdrawAllCollateral",
      "type": "event"
    },
    {
      "anonymous": false,
      "inputs": [
        {
          "indexed": true,
          "internalType": "address",
          "name": "borrower",
          "type": "address"
        },
        {
          "indexed": false,
          "internalType": "uint256",
          "name": "loanId",
          "type": "uint256"
        },
        {
          "indexed": false,
          "internalType": "contract IERC20Standard",
          "name": "supply",
          "type": "address"
        },
        {
          "indexed": false,
          "internalType": "uint256",
          "name": "timestamp",
          "type": "uint256"
        }
      ],
      "name": "WithdrawLoan",
      "type": "event"
    },
    {
      "inputs": [
        {
          "internalType": "contract IERC20Standard",
          "name": "",
          "type": "address"
        }
      ],
      "name": "aTokens",
      "outputs": [
        {
          "internalType": "contract IERC20Standard",
          "name": "",
          "type": "address"
        }
      ],
      "stateMutability": "view",
      "type": "function"
    },
    {
      "inputs": [],
      "name": "aaveAddressProvider",
      "outputs": [
        {
          "internalType": "contract IPoolAddressesProvider",
          "name": "",
          "type": "address"
        }
      ],
      "stateMutability": "view",
      "type": "function"
    },
    {
      "inputs": [
        {
          "internalType": "uint256",
          "name": "_loanId",
          "type": "uint256"
        },
        {
          "internalType": "uint256",
          "name": "_amountCollateral",
          "type": "uint256"
        },
        {
          "internalType": "contract IERC20Standard",
          "name": "_collateral",
          "type": "address"
        }
      ],
      "name": "addCollateral",
      "outputs": [],
      "stateMutability": "nonpayable",
      "type": "function"
    },
    {
      "inputs": [
        {
          "internalType": "uint256",
          "name": "_loanId",
          "type": "uint256"
        },
        {
          "internalType": "uint256",
          "name": "_amountETH",
          "type": "uint256"
        }
      ],
      "name": "addCollateralByETH",
      "outputs": [],
      "stateMutability": "payable",
      "type": "function"
    },
    {
      "inputs": [
        {
          "internalType": "uint256",
          "name": "_loanId",
          "type": "uint256"
        },
        {
          "internalType": "uint256",
          "name": "_amountCollateral",
          "type": "uint256"
        }
      ],
      "name": "addCollateralHealthFactor",
      "outputs": [
        {
          "internalType": "uint256",
          "name": "",
          "type": "uint256"
        }
      ],
      "stateMutability": "view",
      "type": "function"
    },
    {
      "inputs": [
        {
          "internalType": "contract IERC20Standard",
          "name": "",
          "type": "address"
        }
      ],
      "name": "ccflActiveCollaterals",
      "outputs": [
        {
          "internalType": "bool",
          "name": "",
          "type": "bool"
        }
      ],
      "stateMutability": "view",
      "type": "function"
    },
    {
      "inputs": [
        {
          "internalType": "contract IERC20Standard",
          "name": "",
          "type": "address"
        }
      ],
      "name": "ccflActivePoolStableCoins",
      "outputs": [
        {
          "internalType": "bool",
          "name": "",
          "type": "bool"
        }
      ],
      "stateMutability": "view",
      "type": "function"
    },
    {
      "inputs": [
        {
          "internalType": "uint256",
          "name": "",
          "type": "uint256"
        }
      ],
      "name": "ccflPoolStableCoins",
      "outputs": [
        {
          "internalType": "contract IERC20Standard",
          "name": "",
          "type": "address"
        }
      ],
      "stateMutability": "view",
      "type": "function"
    },
    {
      "inputs": [
        {
          "internalType": "contract IERC20Standard",
          "name": "",
          "type": "address"
        }
      ],
      "name": "ccflPools",
      "outputs": [
        {
          "internalType": "contract ICCFLPool",
          "name": "",
          "type": "address"
        }
      ],
      "stateMutability": "view",
      "type": "function"
    },
    {
      "inputs": [
        {
          "internalType": "contract IERC20Standard[]",
          "name": "array",
          "type": "address[]"
        },
        {
          "internalType": "contract IERC20Standard",
          "name": "el",
          "type": "address"
        }
      ],
      "name": "checkExistElement",
      "outputs": [
        {
          "internalType": "bool",
          "name": "",
          "type": "bool"
        }
      ],
      "stateMutability": "pure",
      "type": "function"
    },
    {
      "inputs": [
        {
          "internalType": "uint256",
          "name": "_amount",
          "type": "uint256"
        },
        {
          "internalType": "contract IERC20Standard",
          "name": "_stableCoin",
          "type": "address"
        },
        {
          "internalType": "contract IERC20Standard",
          "name": "_collateral",
          "type": "address"
        }
      ],
      "name": "checkMinimalCollateralForLoan",
      "outputs": [
        {
          "internalType": "uint256",
          "name": "",
          "type": "uint256"
        }
      ],
      "stateMutability": "view",
      "type": "function"
    },
    {
      "inputs": [
        {
          "internalType": "uint256",
          "name": "",
          "type": "uint256"
        }
      ],
      "name": "collateralTokens",
      "outputs": [
        {
          "internalType": "contract IERC20Standard",
          "name": "",
          "type": "address"
        }
      ],
      "stateMutability": "view",
      "type": "function"
    },
    {
      "inputs": [
        {
          "internalType": "address",
          "name": "",
          "type": "address"
        },
        {
          "internalType": "contract IERC20Standard",
          "name": "",
          "type": "address"
        }
      ],
      "name": "collaterals",
      "outputs": [
        {
          "internalType": "uint256",
          "name": "",
          "type": "uint256"
        }
      ],
      "stateMutability": "view",
      "type": "function"
    },
    {
      "inputs": [
        {
          "internalType": "uint256",
          "name": "_amount",
          "type": "uint256"
        },
        {
          "internalType": "contract IERC20Standard",
          "name": "_stableCoin",
          "type": "address"
        },
        {
          "internalType": "uint256",
          "name": "_amountCollateral",
          "type": "uint256"
        },
        {
          "internalType": "contract IERC20Standard",
          "name": "_collateral",
          "type": "address"
        },
        {
          "internalType": "bool",
          "name": "_isYieldGenerating",
          "type": "bool"
        },
        {
          "internalType": "bool",
          "name": "_isFiat",
          "type": "bool"
        }
      ],
      "name": "createLoan",
      "outputs": [],
      "stateMutability": "nonpayable",
      "type": "function"
    },
    {
      "inputs": [
        {
          "internalType": "uint256",
          "name": "_amount",
          "type": "uint256"
        },
        {
          "internalType": "contract IERC20Standard",
          "name": "_stableCoin",
          "type": "address"
        },
        {
          "internalType": "uint256",
          "name": "_amountETH",
          "type": "uint256"
        },
        {
          "internalType": "bool",
          "name": "_isYieldGenerating",
          "type": "bool"
        },
        {
          "internalType": "bool",
          "name": "_isFiat",
          "type": "bool"
        }
      ],
      "name": "createLoanByETH",
      "outputs": [],
      "stateMutability": "payable",
      "type": "function"
    },
    {
      "inputs": [],
      "name": "earnBorrower",
      "outputs": [
        {
          "internalType": "uint256",
          "name": "",
          "type": "uint256"
        }
      ],
      "stateMutability": "view",
      "type": "function"
    },
    {
      "inputs": [],
      "name": "earnLender",
      "outputs": [
        {
          "internalType": "uint256",
          "name": "",
          "type": "uint256"
        }
      ],
      "stateMutability": "view",
      "type": "function"
    },
    {
      "inputs": [],
      "name": "earnPlatform",
      "outputs": [
        {
          "internalType": "uint256",
          "name": "",
          "type": "uint256"
        }
      ],
      "stateMutability": "view",
      "type": "function"
    },
    {
      "inputs": [],
      "name": "factory",
      "outputs": [
        {
          "internalType": "contract IUniswapV3Factory",
          "name": "",
          "type": "address"
        }
      ],
      "stateMutability": "view",
      "type": "function"
    },
    {
      "inputs": [
        {
          "internalType": "uint256",
          "name": "_loanId",
          "type": "uint256"
        }
      ],
      "name": "getHealthFactor",
      "outputs": [
        {
          "internalType": "uint256",
          "name": "",
          "type": "uint256"
        }
      ],
      "stateMutability": "view",
      "type": "function"
    },
    {
      "inputs": [
        {
          "internalType": "contract IERC20Standard",
          "name": "_stableCoin",
          "type": "address"
        },
        {
          "internalType": "bool",
          "name": "isPool",
          "type": "bool"
        }
      ],
      "name": "getLatestPrice",
      "outputs": [
        {
          "internalType": "uint256",
          "name": "",
          "type": "uint256"
        }
      ],
      "stateMutability": "view",
      "type": "function"
    },
    {
      "inputs": [
        {
          "internalType": "uint256",
          "name": "_loanId",
          "type": "uint256"
        }
      ],
      "name": "getLoanAddress",
      "outputs": [
        {
          "internalType": "address",
          "name": "",
          "type": "address"
        }
      ],
      "stateMutability": "view",
      "type": "function"
    },
    {
      "inputs": [
        {
          "internalType": "address",
          "name": "borrower",
          "type": "address"
        }
      ],
      "name": "getLoanIds",
      "outputs": [
        {
          "internalType": "uint256[]",
          "name": "",
          "type": "uint256[]"
        }
      ],
      "stateMutability": "view",
      "type": "function"
    },
    {
      "inputs": [
        {
          "internalType": "contract IERC20Standard[]",
          "name": "_ccflPoolStableCoin",
          "type": "address[]"
        },
        {
          "internalType": "contract AggregatorV3Interface[]",
          "name": "_poolAggregators",
          "type": "address[]"
        },
        {
          "internalType": "contract ICCFLPool[]",
          "name": "_ccflPools",
          "type": "address[]"
        },
        {
          "internalType": "contract IERC20Standard[]",
          "name": "_collateralTokens",
          "type": "address[]"
        },
        {
          "internalType": "contract AggregatorV3Interface[]",
          "name": "_collateralAggregators",
          "type": "address[]"
        },
        {
          "internalType": "contract IERC20Standard[]",
          "name": "_aTokens",
          "type": "address[]"
        },
        {
          "internalType": "contract IPoolAddressesProvider",
          "name": "_aaveAddressProvider",
          "type": "address"
        },
        {
          "internalType": "uint256",
          "name": "_maxLTV",
          "type": "uint256"
        },
        {
          "internalType": "uint256",
          "name": "_liquidationThreshold",
          "type": "uint256"
        },
        {
          "internalType": "contract ICCFLLoan",
          "name": "_ccflLoan",
          "type": "address"
        }
      ],
      "name": "initialize",
      "outputs": [],
      "stateMutability": "nonpayable",
      "type": "function"
    },
    {
      "inputs": [],
      "name": "isPaused",
      "outputs": [
        {
          "internalType": "bool",
          "name": "",
          "type": "bool"
        }
      ],
      "stateMutability": "view",
      "type": "function"
    },
    {
      "inputs": [
        {
          "internalType": "uint256",
          "name": "_loanId",
          "type": "uint256"
        }
      ],
      "name": "liquidate",
      "outputs": [],
      "stateMutability": "nonpayable",
      "type": "function"
    },
    {
      "inputs": [],
      "name": "liquidationThreshold",
      "outputs": [
        {
          "internalType": "uint256",
          "name": "",
          "type": "uint256"
        }
      ],
      "stateMutability": "view",
      "type": "function"
    },
    {
      "inputs": [],
      "name": "liquidator",
      "outputs": [
        {
          "internalType": "address",
          "name": "",
          "type": "address"
        }
      ],
      "stateMutability": "view",
      "type": "function"
    },
    {
      "inputs": [],
      "name": "loandIds",
      "outputs": [
        {
          "internalType": "uint256",
          "name": "",
          "type": "uint256"
        }
      ],
      "stateMutability": "view",
      "type": "function"
    },
    {
      "inputs": [],
      "name": "maxLTV",
      "outputs": [
        {
          "internalType": "uint256",
          "name": "",
          "type": "uint256"
        }
      ],
      "stateMutability": "view",
      "type": "function"
    },
    {
      "inputs": [
        {
          "internalType": "address",
          "name": "",
          "type": "address"
        }
      ],
      "name": "operators",
      "outputs": [
        {
          "internalType": "bool",
          "name": "",
          "type": "bool"
        }
      ],
      "stateMutability": "view",
      "type": "function"
    },
    {
      "inputs": [],
      "name": "owner",
      "outputs": [
        {
          "internalType": "address",
          "name": "",
          "type": "address"
        }
      ],
      "stateMutability": "view",
      "type": "function"
    },
    {
      "inputs": [],
      "name": "penaltyLender",
      "outputs": [
        {
          "internalType": "uint256",
          "name": "",
          "type": "uint256"
        }
      ],
      "stateMutability": "view",
      "type": "function"
    },
    {
      "inputs": [],
      "name": "penaltyLiquidator",
      "outputs": [
        {
          "internalType": "uint256",
          "name": "",
          "type": "uint256"
        }
      ],
      "stateMutability": "view",
      "type": "function"
    },
    {
      "inputs": [],
      "name": "penaltyPlatform",
      "outputs": [
        {
          "internalType": "uint256",
          "name": "",
          "type": "uint256"
        }
      ],
      "stateMutability": "view",
      "type": "function"
    },
    {
      "inputs": [],
      "name": "platform",
      "outputs": [
        {
          "internalType": "address",
          "name": "",
          "type": "address"
        }
      ],
      "stateMutability": "view",
      "type": "function"
    },
    {
      "inputs": [
        {
          "internalType": "contract IERC20Standard",
          "name": "",
          "type": "address"
        }
      ],
      "name": "priceFeeds",
      "outputs": [
        {
          "internalType": "contract AggregatorV3Interface",
          "name": "",
          "type": "address"
        }
      ],
      "stateMutability": "view",
      "type": "function"
    },
    {
      "inputs": [
        {
          "internalType": "contract IERC20Standard",
          "name": "",
          "type": "address"
        }
      ],
      "name": "pricePoolFeeds",
      "outputs": [
        {
          "internalType": "contract AggregatorV3Interface",
          "name": "",
          "type": "address"
        }
      ],
      "stateMutability": "view",
      "type": "function"
    },
    {
      "inputs": [
        {
          "internalType": "uint256",
          "name": "_loanId",
          "type": "uint256"
        },
        {
          "internalType": "uint256",
          "name": "_amount",
          "type": "uint256"
        }
      ],
      "name": "repayHealthFactor",
      "outputs": [
        {
          "internalType": "uint256",
          "name": "",
          "type": "uint256"
        }
      ],
      "stateMutability": "view",
      "type": "function"
    },
    {
      "inputs": [
        {
          "internalType": "uint256",
          "name": "_loanId",
          "type": "uint256"
        },
        {
          "internalType": "uint256",
          "name": "_amount",
          "type": "uint256"
        },
        {
          "internalType": "contract IERC20Standard",
          "name": "_stableCoin",
          "type": "address"
        }
      ],
      "name": "repayLoan",
      "outputs": [],
      "stateMutability": "nonpayable",
      "type": "function"
    },
    {
      "inputs": [
        {
          "internalType": "contract IPoolAddressesProvider",
          "name": "_aaveAddressProvider",
          "type": "address"
        }
      ],
      "name": "setAaveProvider",
      "outputs": [],
      "stateMutability": "nonpayable",
      "type": "function"
    },
    {
      "inputs": [
        {
          "internalType": "contract IERC20Standard",
          "name": "_token",
          "type": "address"
        },
        {
          "internalType": "bool",
          "name": "_isActived",
          "type": "bool"
        },
        {
          "internalType": "bool",
          "name": "_isPoolToken",
          "type": "bool"
        }
      ],
      "name": "setActiveToken",
      "outputs": [],
      "stateMutability": "nonpayable",
      "type": "function"
    },
    {
      "inputs": [
        {
          "internalType": "contract ICCFLLoan",
          "name": "_loan",
          "type": "address"
        }
      ],
      "name": "setCCFLLoan",
      "outputs": [],
      "stateMutability": "nonpayable",
      "type": "function"
    },
    {
      "inputs": [
        {
          "internalType": "contract IERC20Standard[]",
          "name": "_collateralTokens",
          "type": "address[]"
        },
        {
          "internalType": "contract AggregatorV3Interface[]",
          "name": "_collateralAggregators",
          "type": "address[]"
        },
        {
          "internalType": "contract IERC20Standard[]",
          "name": "_aTokens",
          "type": "address[]"
        }
      ],
      "name": "setCollaterals",
      "outputs": [],
      "stateMutability": "nonpayable",
      "type": "function"
    },
    {
      "inputs": [
        {
          "internalType": "uint256",
          "name": "_borrower",
          "type": "uint256"
        },
        {
          "internalType": "uint256",
          "name": "_platform",
          "type": "uint256"
        },
        {
          "internalType": "uint256",
          "name": "_lender",
          "type": "uint256"
        }
      ],
      "name": "setEarnShare",
      "outputs": [],
      "stateMutability": "nonpayable",
      "type": "function"
    },
    {
      "inputs": [
        {
          "internalType": "bool",
          "name": "_isActived",
          "type": "bool"
        }
      ],
      "name": "setEnableETHNative",
      "outputs": [],
      "stateMutability": "nonpayable",
      "type": "function"
    },
    {
      "inputs": [
        {
          "internalType": "address[]",
          "name": "_addresses",
          "type": "address[]"
        },
        {
          "internalType": "bool[]",
          "name": "_isActives",
          "type": "bool[]"
        }
      ],
      "name": "setOperators",
      "outputs": [],
      "stateMutability": "nonpayable",
      "type": "function"
    },
    {
      "inputs": [
        {
          "internalType": "bool",
          "name": "_paused",
          "type": "bool"
        }
      ],
      "name": "setPaused",
      "outputs": [],
      "stateMutability": "nonpayable",
      "type": "function"
    },
    {
      "inputs": [
        {
          "internalType": "uint256",
          "name": "_platform",
          "type": "uint256"
        },
        {
          "internalType": "uint256",
          "name": "_liquidator",
          "type": "uint256"
        },
        {
          "internalType": "uint256",
          "name": "_lender",
          "type": "uint256"
        }
      ],
      "name": "setPenalty",
      "outputs": [],
      "stateMutability": "nonpayable",
      "type": "function"
    },
    {
      "inputs": [
        {
          "internalType": "address",
          "name": "_liquidator",
          "type": "address"
        },
        {
          "internalType": "address",
          "name": "_platform",
          "type": "address"
        }
      ],
      "name": "setPlatformAddress",
      "outputs": [],
      "stateMutability": "nonpayable",
      "type": "function"
    },
    {
      "inputs": [
        {
          "internalType": "contract IERC20Standard[]",
          "name": "_ccflPoolStableCoin",
          "type": "address[]"
        },
        {
          "internalType": "contract AggregatorV3Interface[]",
          "name": "_poolAggregators",
          "type": "address[]"
        },
        {
          "internalType": "contract ICCFLPool[]",
          "name": "_ccflPools",
          "type": "address[]"
        }
      ],
      "name": "setPools",
      "outputs": [],
      "stateMutability": "nonpayable",
      "type": "function"
    },
    {
      "inputs": [
        {
          "internalType": "contract ISwapRouter",
          "name": "_swapRouter",
          "type": "address"
        },
        {
          "internalType": "contract IUniswapV3Factory",
          "name": "_factory",
          "type": "address"
        }
      ],
      "name": "setSwapRouter",
      "outputs": [],
      "stateMutability": "nonpayable",
      "type": "function"
    },
    {
      "inputs": [
        {
          "internalType": "uint256",
          "name": "_maxLTV",
          "type": "uint256"
        },
        {
          "internalType": "uint256",
          "name": "_liquidationThreshold",
          "type": "uint256"
        }
      ],
      "name": "setThreshold",
      "outputs": [],
      "stateMutability": "nonpayable",
      "type": "function"
    },
    {
      "inputs": [
        {
          "internalType": "contract IWETH",
          "name": "_iWETH",
          "type": "address"
        }
      ],
      "name": "setWETH",
      "outputs": [],
      "stateMutability": "nonpayable",
      "type": "function"
    },
    {
      "inputs": [
        {
          "internalType": "address",
          "name": "",
          "type": "address"
        },
        {
          "internalType": "uint256",
          "name": "",
          "type": "uint256"
        }
      ],
      "name": "userLoans",
      "outputs": [
        {
          "internalType": "uint256",
          "name": "",
          "type": "uint256"
        }
      ],
      "stateMutability": "view",
      "type": "function"
    },
    {
      "inputs": [],
      "name": "wETH",
      "outputs": [
        {
          "internalType": "contract IWETH",
          "name": "",
          "type": "address"
        }
      ],
      "stateMutability": "view",
      "type": "function"
    },
    {
      "inputs": [
        {
          "internalType": "uint256",
          "name": "_loanId",
          "type": "uint256"
        },
        {
          "internalType": "bool",
          "name": "isETH",
          "type": "bool"
        }
      ],
      "name": "withdrawAllCollateral",
      "outputs": [],
      "stateMutability": "nonpayable",
      "type": "function"
    },
    {
      "inputs": [
        {
          "internalType": "uint256",
          "name": "_loanId",
          "type": "uint256"
        },
        {
          "internalType": "bool",
          "name": "isETH",
          "type": "bool"
        }
      ],
      "name": "withdrawAllCollateralByAdmin",
      "outputs": [],
      "stateMutability": "nonpayable",
      "type": "function"
    },
    {
      "inputs": [
        {
          "internalType": "contract IERC20Standard",
          "name": "_stableCoin",
          "type": "address"
        },
        {
          "internalType": "uint256",
          "name": "_loanId",
          "type": "uint256"
        }
      ],
      "name": "withdrawFiatLoan",
      "outputs": [],
      "stateMutability": "nonpayable",
      "type": "function"
    },
    {
      "inputs": [
        {
          "internalType": "contract IERC20Standard",
          "name": "_stableCoin",
          "type": "address"
        },
        {
          "internalType": "uint256",
          "name": "_loanId",
          "type": "uint256"
        }
      ],
      "name": "withdrawLoan",
      "outputs": [],
      "stateMutability": "nonpayable",
      "type": "function"
    },
    {
      "stateMutability": "payable",
      "type": "receive"
    }
  ],
  "bytecode": "0x608060405234801561001057600080fd5b50615a8780620000216000396000f3fe60806040526004361061039b5760003560e01c8063989397d4116101dc578063cff212e611610102578063ef3c5d25116100a0578063f43050351161006f578063f430503514610b25578063f6597bbb14610b45578063f8f126ff14610b5b578063fdb2b32c14610b7b57600080fd5b8063ef3c5d2514610aaf578063f242862114610acf578063f384bd0514610aef578063f3cf4ada14610b0557600080fd5b8063e43b03d6116100dc578063e43b03d614610a0a578063e51e119e14610a2a578063e787ea2c14610a5f578063ec7be39d14610a8f57600080fd5b8063cff212e6146109b7578063d8bad5bd146109ca578063dc40e2d0146109ea57600080fd5b8063b3bffeaa1161017a578063c0d0154611610149578063c0d0154614610921578063c45a015514610957578063c694fdc114610977578063cdaabe411461099757600080fd5b8063b3bffeaa1461089e578063b5dbde5f146108be578063b92dd925146108d1578063b9c362091461090157600080fd5b8063a8700c3c116101b6578063a8700c3c14610827578063a95d713214610847578063af6a85c41461085d578063b187bd261461087d57600080fd5b8063989397d4146107a55780639dcb511a146107db578063a58bab621461081157600080fd5b80634046ebae116102c1578063611f347d1161025f5780636eb0fdd01161022e5780636eb0fdd01461072f5780636f43d3dd1461074f5780638ba02e1c1461076f5780638da5cb5b1461078557600080fd5b8063611f347d146106a257806364b52097146106c25780636b64c885146106e25780636cb0ab5e1461070f57600080fd5b80634bde38c81161029b5780634bde38c8146106225780635b769f3c146106425780635c8edac4146106625780635f499ebc1461068257600080fd5b80634046ebae146105c2578063415f1240146105e2578063474843ea1461060257600080fd5b80631d9eb5d9116103395780633a0720e6116103085780633a0720e6146105405780633a2ad9ae146105565780633e108ad9146105765780634031234c146105ac57600080fd5b80631d9eb5d9146104ca57806325e9d2fa146104ea57806332df398e1461050a57806338ef67171461052057600080fd5b806316c38b3c1161037557806316c38b3c14610432578063172c48c71461045257806317845c691461048a5780631bb514cf146104aa57600080fd5b80630769594d146103a7578063101b9d31146103c957806313e7c9d8146103f257600080fd5b366103a257005b600080fd5b3480156103b357600080fd5b506103c76103c2366004614f91565b610bb1565b005b3480156103d557600080fd5b506103df60195481565b6040519081526020015b60405180910390f35b3480156103fe57600080fd5b5061042261040d366004615019565b60016020526000908152604090205460ff1681565b60405190151581526020016103e9565b34801561043e57600080fd5b506103c761044d36600461504b565b610dbf565b34801561045e57600080fd5b5061047261046d366004615068565b610e3d565b6040516001600160a01b0390911681526020016103e9565b34801561049657600080fd5b506103df6104a5366004615068565b610e67565b3480156104b657600080fd5b506103df6104c5366004615081565b610fe5565b3480156104d657600080fd5b506104226104e53660046150c3565b611121565b3480156104f657600080fd5b506103df610505366004615115565b61117c565b34801561051657600080fd5b506103df601a5481565b34801561052c57600080fd5b506103c761053b366004615019565b6112fc565b34801561054c57600080fd5b506103df601c5481565b34801561056257600080fd5b506103c7610571366004615142565b61136f565b34801561058257600080fd5b50610472610591366004615019565b600b602052600090815260409020546001600160a01b031681565b3480156105b857600080fd5b506103df600d5481565b3480156105ce57600080fd5b50601254610472906001600160a01b031681565b3480156105ee57600080fd5b506103c76105fd366004615068565b611559565b34801561060e57600080fd5b506103c761061d366004615019565b611d49565b34801561062e57600080fd5b50601354610472906001600160a01b031681565b34801561064e57600080fd5b506103c761065d366004615019565b611dbc565b34801561066e57600080fd5b506103c761067d366004615182565b611e2f565b34801561068e57600080fd5b506103c761069d36600461504b565b611faa565b3480156106ae57600080fd5b506103c76106bd3660046151a7565b61200e565b3480156106ce57600080fd5b506103c76106dd366004614f91565b6123f0565b3480156106ee57600080fd5b506107026106fd366004615019565b6125ed565b6040516103e991906152d4565b34801561071b57600080fd5b506103c761072a366004615318565b612659565b34801561073b57600080fd5b506103c761074a366004615344565b6126b8565b34801561075b57600080fd5b506103c761076a366004615372565b612a89565b34801561077b57600080fd5b506103df60025481565b34801561079157600080fd5b50601454610472906001600160a01b031681565b3480156107b157600080fd5b506104726107c0366004615019565b600f602052600090815260409020546001600160a01b031681565b3480156107e757600080fd5b506104726107f6366004615019565b600e602052600090815260409020546001600160a01b031681565b34801561081d57600080fd5b506103df60185481565b34801561083357600080fd5b506103c761084236600461539e565b612d0e565b34801561085357600080fd5b506103df601b5481565b34801561086957600080fd5b506103c7610878366004615182565b61362a565b34801561088957600080fd5b5060155461042290600160a01b900460ff1681565b3480156108aa57600080fd5b506103df6108b936600461540e565b61372f565b6103c76108cc36600461543c565b613830565b3480156108dd57600080fd5b506104226108ec366004615019565b60076020526000908152604090205460ff1681565b34801561090d57600080fd5b506103c761091c366004615115565b6141f0565b34801561092d57600080fd5b5061047261093c366004615019565b6003602052600090815260409020546001600160a01b031681565b34801561096357600080fd5b50601154610472906001600160a01b031681565b34801561098357600080fd5b50610472610992366004615068565b61424c565b3480156109a357600080fd5b50600a54610472906001600160a01b031681565b6103c76109c5366004615115565b61425c565b3480156109d657600080fd5b506103df6109e5366004615372565b614585565b3480156109f657600080fd5b506103c7610a0536600461549b565b6145b6565b348015610a1657600080fd5b506103df610a25366004615115565b614635565b348015610a3657600080fd5b506103df610a4536600461549b565b600060208181529281526040808220909352908152205481565b348015610a6b57600080fd5b50610422610a7a366004615019565b60096020526000908152604090205460ff1681565b348015610a9b57600080fd5b506103c7610aaa366004615372565b61477d565b348015610abb57600080fd5b506103c7610aca366004615344565b6148bf565b348015610adb57600080fd5b50601554610472906001600160a01b031681565b348015610afb57600080fd5b506103df600c5481565b348015610b1157600080fd5b506103c7610b20366004615318565b614b69565b348015610b3157600080fd5b506103c7610b40366004615531565b614bc5565b348015610b5157600080fd5b506103df60175481565b348015610b6757600080fd5b506103c7610b7636600461549b565b614c80565b348015610b8757600080fd5b50610472610b96366004615068565b6000908152600660205260409020546001600160a01b031690565b336000908152600160208181526040928390205483518085019094526002845261062760f31b9184019190915260ff16151514610c0a5760405162461bcd60e51b8152600401610c0191906155f3565b60405180910390fd5b5060005b8351811015610db9576000848281518110610c2b57610c2b615642565b60200260200101519050610c996004805480602002602001604051908101604052809291908181526020018280548015610c8e57602002820191906000526020600020905b81546001600160a01b03168152600190910190602001808311610c70575b505050505082611121565b1515600003610cee57600480546001810182556000919091527f8a35acfbc15ff81a39ae7d344fd709f28e8600b4aa8c65c6b64bfe7fe36bd19b0180546001600160a01b0319166001600160a01b0383161790555b828281518110610d0057610d00615642565b602002602001015160036000836001600160a01b03166001600160a01b0316815260200190815260200160002060006101000a8154816001600160a01b0302191690836001600160a01b03160217905550838281518110610d6357610d63615642565b6020908102919091018101516001600160a01b039283166000908152600f8352604080822080546001600160a01b0319169590931694909417909155600790915220805460ff1916600190811790915501610c0e565b50505050565b6014546040805180820190915260018152601960f91b6020820152906001600160a01b03163314610e035760405162461bcd60e51b8152600401610c0191906155f3565b5060158054911515600160a01b027fffffffffffffffffffffff00ffffffffffffffffffffffffffffffffffffffff909216919091179055565b60088181548110610e4d57600080fd5b6000918252602090912001546001600160a01b0316905081565b600081815260066020526040808220548151635d3e2fa160e01b815291516001600160a01b039091169183918391635d3e2fa1916004808301926101209291908290030181865afa158015610ec0573d6000803e3d6000fd5b505050506040513d601f19601f82011682018060405250810190610ee4919061566e565b60c08101516001600160a01b0390811660009081526003602052604080822054905163a52f38d160e01b815260048101899052939450909291169063a52f38d190602401602060405180830381865afa158015610f45573d6000803e3d6000fd5b505050506040513d601f19601f82011682018060405250810190610f699190615716565b604051632696439560e11b815260048101829052600060248201529091506001600160a01b03841690634d2c872a90604401602060405180830381865afa158015610fb8573d6000803e3d6000fd5b505050506040513d601f19601f82011682018060405250810190610fdc9190615716565b95945050505050565b6000610ff282600061372f565b612710846001600160a01b031663313ce5676040518163ffffffff1660e01b8152600401602060405180830381865afa158015611033573d6000803e3d6000fd5b505050506040513d601f19601f82011682018060405250810190611057919061572f565b61106290600a61584c565b61106d86600161372f565b600c54866001600160a01b031663313ce5676040518163ffffffff1660e01b8152600401602060405180830381865afa1580156110ae573d6000803e3d6000fd5b505050506040513d601f19601f820116820180604052508101906110d2919061572f565b6110dd90600a61584c565b6110e7908a61585b565b6110f1919061585b565b6110fb919061585b565b6111059190615872565b61110f9190615872565b6111199190615872565b949350505050565b600080805b845181101561117257836001600160a01b031685828151811061114b5761114b615642565b60200260200101516001600160a01b03160361116a5760019150611172565b600101611126565b5090505b92915050565b600082815260066020526040808220548151635d3e2fa160e01b815291516001600160a01b039091169183918391635d3e2fa1916004808301926101209291908290030181865afa1580156111d5573d6000803e3d6000fd5b505050506040513d601f19601f820116820180604052508101906111f9919061566e565b60c08101516001600160a01b0390811660009081526003602052604080822054905163a52f38d160e01b8152600481018a9052939450909291169063a52f38d190602401602060405180830381865afa15801561125a573d6000803e3d6000fd5b505050506040513d601f19601f8201168201806040525081019061127e9190615716565b604051632696439560e11b815260048101829052602481018790529091506001600160a01b03841690634d2c872a906044015b602060405180830381865afa1580156112ce573d6000803e3d6000fd5b505050506040513d601f19601f820116820180604052508101906112f29190615716565b9695505050505050565b336000908152600160208181526040928390205483518085019094526002845261062760f31b9184019190915260ff1615151461134c5760405162461bcd60e51b8152600401610c0191906155f3565b50600a80546001600160a01b0319166001600160a01b0392909216919091179055565b336000908152600160208181526040928390205483518085019094526002845261062760f31b9184019190915260ff161515146113bf5760405162461bcd60e51b8152600401610c0191906155f3565b5080156114915761142a600480548060200260200160405190810160405280929190818152602001828054801561141f57602002820191906000526020600020905b81546001600160a01b03168152600190910190602001808311611401575b505050505084611121565b604080518082019091526001808252603560f81b602083015290911515146114655760405162461bcd60e51b8152600401610c0191906155f3565b506001600160a01b0383166000908152600960205260409020805483151560ff19909116179055505050565b6114f3600880548060200260200160405190810160405280929190818152602001828054801561141f576020028201919060005260206000209081546001600160a01b0316815260019091019060200180831161140157505050505084611121565b604080518082019091526001808252603560f81b6020830152909115151461152e5760405162461bcd60e51b8152600401610c0191906155f3565b506001600160a01b0383166000908152600760205260409020805460ff19168315151790555b505050565b601554604080518082019091526002815261323160f01b602082015290600160a01b900460ff161561159e5760405162461bcd60e51b8152600401610c0191906155f3565b50600081815260066020526040808220548151635d3e2fa160e01b815291516001600160a01b0390911692918391635d3e2fa191600480820192610120929091908290030181865afa1580156115f8573d6000803e3d6000fd5b505050506040513d601f19601f8201168201806040525081019061161c919061566e565b60c08101516001600160a01b0390811660009081526003602052604080822054905163a52f38d160e01b815260048101889052939450909291169063a52f38d190602401602060405180830381865afa15801561167d573d6000803e3d6000fd5b505050506040513d601f19601f820116820180604052508101906116a19190615716565b90506000836001600160a01b031663d296d1f1836017546018546019546116c89190615894565b6116d29190615894565b6040516001600160e01b031960e085901b168152600481019290925260248201526044016020604051808303816000875af1158015611715573d6000803e3d6000fd5b505050506040513d601f19601f820116820180604052508101906117399190615716565b90508260c001516001600160a01b03166323b872dd85306127106017546018546019546127106117699190615894565b6117739190615894565b61177d9190615894565b611787908861585b565b6117919190615872565b6040516001600160e01b031960e086901b1681526001600160a01b03938416600482015292909116602483015260448201526064016020604051808303816000875af11580156117e5573d6000803e3d6000fd5b505050506040513d601f19601f8201168201806040525081019061180991906158a7565b5060c08301516001600160a01b039081166000818152600360205260409081902054905163095ea7b360e01b815292166004830152602482018490529063095ea7b3906044016020604051808303816000875af115801561186e573d6000803e3d6000fd5b505050506040513d601f19601f8201168201806040525081019061189291906158a7565b5060c08301516001600160a01b039081166000908152600360205260409081902054905163d8aed14560e01b8152600481018890526024810185905291169063d8aed14590604401600060405180830381600087803b1580156118f457600080fd5b505af1158015611908573d6000803e3d6000fd5b505050508260c001516001600160a01b031663a9059cbb601360009054906101000a90046001600160a01b031661271060175486611946919061585b565b6119509190615872565b6040516001600160e01b031960e085901b1681526001600160a01b03909216600483015260248201526044016020604051808303816000875af115801561199b573d6000803e3d6000fd5b505050506040513d601f19601f820116820180604052508101906119bf91906158a7565b5060c08301516012546018546001600160a01b039283169263a9059cbb921690612710906119ed908761585b565b6119f79190615872565b6040516001600160e01b031960e085901b1681526001600160a01b03909216600483015260248201526044016020604051808303816000875af1158015611a42573d6000803e3d6000fd5b505050506040513d601f19601f82011682018060405250810190611a6691906158a7565b50600061271060185484611a7a919061585b565b611a849190615872565b61271060175485611a95919061585b565b611a9f9190615872565b84612710601754601854601954612710611ab99190615894565b611ac39190615894565b611acd9190615894565b611ad7908861585b565b611ae19190615872565b611aeb91906158c4565b611af591906158c4565b611aff91906158c4565b60c08501516001600160a01b039081166000818152600360205260409081902054905163095ea7b360e01b8152921660048301526024820183905291925063095ea7b3906044016020604051808303816000875af1158015611b65573d6000803e3d6000fd5b505050506040513d601f19601f82011682018060405250810190611b8991906158a7565b5060c08401516001600160a01b03908116600090815260036020526040908190205490517f7f3940310000000000000000000000000000000000000000000000000000000081526004810189905260248101849052911690637f39403190604401600060405180830381600087803b158015611c0457600080fd5b505af1158015611c18573d6000803e3d6000fd5b5050505060c08401516001600160a01b03908116600090815260036020526040908190205490516326de36ff60e21b815260048101859052911690639b78dbfc90602401600060405180830381600087803b158015611c7657600080fd5b505af1158015611c8a573d6000803e3d6000fd5b505050600087815260066020908152604080832054815163232fa73360e01b815291516001600160a01b03909116945063232fa733936004808401949383900301908290875af1158015611ce2573d6000803e3d6000fd5b505050506040513d601f19601f82011682018060405250810190611d069190615716565b506040805187815242602082015233917f3c4b1d42b9c7fa283f6fe657533f6a5a8a7ad1d36f9ef1d9d89ad04485e10d2c910160405180910390a2505050505050565b336000908152600160208181526040928390205483518085019094526002845261062760f31b9184019190915260ff16151514611d995760405162461bcd60e51b8152600401610c0191906155f3565b50600580546001600160a01b0319166001600160a01b0392909216919091179055565b336000908152600160208181526040928390205483518085019094526002845261062760f31b9184019190915260ff16151514611e0c5760405162461bcd60e51b8152600401610c0191906155f3565b50601580546001600160a01b0319166001600160a01b0392909216919091179055565b601554604080518082019091526002815261323160f01b602082015290600160a01b900460ff1615611e745760405162461bcd60e51b8152600401610c0191906155f3565b50600082815260066020526040808220548151635d3e2fa160e01b815291516001600160a01b0390911692918391635d3e2fa191600480820192610120929091908290030181865afa158015611ece573d6000803e3d6000fd5b505050506040513d601f19601f82011682018060405250810190611ef2919061566e565b60808101516040516308165c1760e11b81526001600160a01b039182166004820152851515602482015291925083169063102cb82e90604401600060405180830381600087803b158015611f4557600080fd5b505af1158015611f59573d6000803e3d6000fd5b505060408051878152861515602082015242918101919091523392507f8d1d302d01bababc9c00da7a7d2adabd6e02f4ccdb4855101e617c2ef159db0c91506060015b60405180910390a250505050565b336000908152600160208181526040928390205483518085019094526002845261062760f31b9184019190915260ff16151514611ffa5760405162461bcd60e51b8152600401610c0191906155f3565b50601d805460ff1916911515919091179055565b7ff0c57e16840df040f15088dc2f81fe391c3923bec73e23a9662efc9c229c6a00805468010000000000000000810460ff16159067ffffffffffffffff166000811580156120595750825b905060008267ffffffffffffffff1660011480156120765750303b155b905081158015612084575080155b156120bb576040517ff92ee8a900000000000000000000000000000000000000000000000000000000815260040160405180910390fd5b845467ffffffffffffffff1916600117855583156120ef57845468ff00000000000000001916680100000000000000001785555b8e60049080519060200190612105929190614d8a565b50600160025560005b6004548110156122135760006004828154811061212d5761212d615642565b6000918252602090912001548f516001600160a01b0390911691508f908390811061215a5761215a615642565b602002602001015160036000836001600160a01b03166001600160a01b0316815260200190815260200160002060006101000a8154816001600160a01b0302191690836001600160a01b031602179055508f82815181106121bd576121bd615642565b6020908102919091018101516001600160a01b039283166000908152600f8352604080822080546001600160a01b0319169590931694909417909155600790915220805460ff191660019081179091550161210e565b508b516122279060089060208f0190614d8a565b5060005b6008548110156123305760006008828154811061224a5761224a615642565b6000918252602090912001548d516001600160a01b0390911691508d908390811061227757612277615642565b6020026020010151600e6000836001600160a01b03166001600160a01b0316815260200190815260200160002060006101000a8154816001600160a01b0302191690836001600160a01b031602179055508b82815181106122da576122da615642565b6020908102919091018101516001600160a01b039283166000908152600b8352604080822080546001600160a01b0319169590931694909417909155600990915220805460ff191660019081179091550161222b565b50600a80546001600160a01b03199081166001600160a01b038c81169190911790925560058054821692891692909217909155600c899055600d88905560148054339216821790556000908152600160208190526040909120805460ff1916909117905583156123df57845468ff000000000000000019168555604051600181527fc7f505b2f371ae2175ee4913f4499e1f2633a7b5936321eed1cdaeb6115181d29060200160405180910390a15b505050505050505050505050505050565b336000908152600160208181526040928390205483518085019094526002845261062760f31b9184019190915260ff161515146124405760405162461bcd60e51b8152600401610c0191906155f3565b5060005b8351811015610db957600084828151811061246157612461615642565b602002602001015190506124cd6008805480602002602001604051908101604052809291908181526020018280548015610c8e576020028201919060005260206000209081546001600160a01b03168152600190910190602001808311610c7057505050505082611121565b151560000361252257600880546001810182556000919091527ff3f7a9fe364faab93b216da50a3214154f22a0a2b415b23a84c8169e8b636ee30180546001600160a01b0319166001600160a01b0383161790555b83828151811061253457612534615642565b6020026020010151600e6000836001600160a01b03166001600160a01b0316815260200190815260200160002060006101000a8154816001600160a01b0302191690836001600160a01b0316021790555082828151811061259757612597615642565b6020908102919091018101516001600160a01b039283166000908152600b8352604080822080546001600160a01b0319169590931694909417909155600990915220805460ff1916600190811790915501612444565b6001600160a01b03811660009081526016602090815260409182902080548351818402810184019094528084526060939283018282801561264d57602002820191906000526020600020905b815481526020019060010190808311612639575b50505050509050919050565b336000908152600160208181526040928390205483518085019094526002845261062760f31b9184019190915260ff161515146126a95760405162461bcd60e51b8152600401610c0191906155f3565b50601c55601b91909155601a55565b6001600160a01b0381166000908152600760209081526040918290205482518084019093526001808452603360f81b9284019290925283929160ff9091161515146127165760405162461bcd60e51b8152600401610c0191906155f3565b50601554604080518082019091526002815261323160f01b602082015290600160a01b900460ff161561275c5760405162461bcd60e51b8152600401610c0191906155f3565b506040516323b872dd60e01b8152336004820152306024820152604481018490526001600160a01b038316906323b872dd906064016020604051808303816000875af11580156127b0573d6000803e3d6000fd5b505050506040513d601f19601f820116820180604052508101906127d491906158a7565b506001600160a01b038281166000818152600360205260409081902054905163095ea7b360e01b815292166004830152602482018590529063095ea7b3906044016020604051808303816000875af1158015612834573d6000803e3d6000fd5b505050506040513d601f19601f8201168201806040525081019061285891906158a7565b506001600160a01b038281166000908152600360205260409081902054905163d8aed14560e01b8152600481018790526024810186905291169063d8aed14590604401600060405180830381600087803b1580156128b557600080fd5b505af11580156128c9573d6000803e3d6000fd5b505050506001600160a01b038281166000908152600360205260409081902054905163a52f38d160e01b81526004810187905291169063a52f38d190602401602060405180830381865afa158015612925573d6000803e3d6000fd5b505050506040513d601f19601f820116820180604052508101906129499190615716565b600003612a3857600084815260066020908152604080832054815163232fa73360e01b815291516001600160a01b039091169263232fa7339260048082019391829003018187875af11580156129a3573d6000803e3d6000fd5b505050506040513d601f19601f820116820180604052508101906129c79190615716565b6001600160a01b03848116600090815260036020526040908190205490516326de36ff60e21b8152600481018490529293501690639b78dbfc90602401600060405180830381600087803b158015612a1e57600080fd5b505af1158015612a32573d6000803e3d6000fd5b50505050505b60408051858152602081018590526001600160a01b0384169181019190915242606082015233907f516b9ee1e9b8b43ca5f4a91397869e2190ccd60972b6ec439739892922434cb090608001611f9c565b336000908152600160208181526040928390205483518085019094526002845261062760f31b9184019190915260ff16151514612ad95760405162461bcd60e51b8152600401610c0191906155f3565b50601554604080518082019091526002815261323160f01b602082015290600160a01b900460ff1615612b1f5760405162461bcd60e51b8152600401610c0191906155f3565b50600081815260066020526040808220548151635d3e2fa160e01b815291516001600160a01b0390911692918391635d3e2fa191600480820192610120929091908290030181865afa158015612b79573d6000803e3d6000fd5b505050506040513d601f19601f82011682018060405250810190612b9d919061566e565b61010081015160408051808201909152600281527f313900000000000000000000000000000000000000000000000000000000000060208201529192501515600114612bfc5760405162461bcd60e51b8152600401610c0191906155f3565b506001600160a01b038481166000908152600360205260409081902054905163ec7be39d60e01b81523360048201526024810186905291169063ec7be39d906044015b600060405180830381600087803b158015612c5957600080fd5b505af1158015612c6d573d6000803e3d6000fd5b50505050816001600160a01b031663fab320e96040518163ffffffff1660e01b8152600401600060405180830381600087803b158015612cac57600080fd5b505af1158015612cc0573d6000803e3d6000fd5b5050604080518681526001600160a01b038816602082015242918101919091523392507f926902dafb3e2e10ccc80a644aed5f39170af68180261fbcde7c04fa328c9c419150606001611f9c565b6001600160a01b0385166000908152600760209081526040918290205482518084019093526001808452603360f81b9284019290925287929160ff909116151514612d6c5760405162461bcd60e51b8152600401610c0191906155f3565b506001600160a01b0384166000908152600960209081526040918290205482518084019093526001808452600d60fa1b9284019290925286929160ff909116151514612dcb5760405162461bcd60e51b8152600401610c0191906155f3565b50601554604080518082019091526002815261323160f01b602082015290600160a01b900460ff1615612e115760405162461bcd60e51b8152600401610c0191906155f3565b50866001600160a01b031663313ce5676040518163ffffffff1660e01b8152600401602060405180830381865afa158015612e50573d6000803e3d6000fd5b505050506040513d601f19601f82011682018060405250810190612e74919061572f565b612e7f90600a61584c565b612e8a88600161372f565b612e94908a61585b565b612ea09061271061585b565b612eaa9190615872565b856001600160a01b031663313ce5676040518163ffffffff1660e01b8152600401602060405180830381865afa158015612ee8573d6000803e3d6000fd5b505050506040513d601f19601f82011682018060405250810190612f0c919061572f565b612f1790600a61584c565b600c54612f2588600061372f565b612f2f908a61585b565b612f39919061585b565b612f439190615872565b1015604051806040016040528060018152602001603760f81b81525090612f7d5760405162461bcd60e51b8152600401610c0191906155f3565b506001600160a01b03808816600090815260036020908152604091829020548251633b24cc2160e01b815292518c949190911692633b24cc219260048083019391928290030181865afa158015612fd8573d6000803e3d6000fd5b505050506040513d601f19601f82011682018060405250810190612ffc9190615716565b1015604051806040016040528060018152602001600760fb1b815250906130365760405162461bcd60e51b8152600401610c0191906155f3565b506040805161012081018252600060208083018290526060830182905260a0830182905260e0830182905233608084018181528486018e815260025486526001600160a01b038e811660c088018190528b151561010089019081529087526003909552948790205486519151925194519751633870862b60e01b81526004810192909252602482019290925292841660448401529415156064830152929390911690633870862b90608401600060405180830381600087803b1580156130fb57600080fd5b505af115801561310f573d6000803e3d6000fd5b5050506001600160a01b03808b166000908152600f602052604081205460055490831693508a926131409116614cff565b90506000819050806001600160a01b031663a2c7fd158785600a60009054906101000a90046001600160a01b0316600b6000896001600160a01b03166001600160a01b0316815260200190815260200160002060009054906101000a90046001600160a01b0316600c54600d54600e60008c6001600160a01b03166001600160a01b0316815260200190815260200160002060009054906101000a90046001600160a01b03168c601360009054906101000a90046001600160a01b0316601560009054906101000a90046001600160a01b03166040518b63ffffffff1660e01b81526004016132389a999897969594939291906158d7565b600060405180830381600087803b15801561325257600080fd5b505af1158015613266573d6000803e3d6000fd5b5050604051638ac1b77560e01b81523060048201526001600160a01b0384169250638ac1b7759150602401600060405180830381600087803b1580156132ab57600080fd5b505af11580156132bf573d6000803e3d6000fd5b5050601054601154604051630dc40e2d60e41b81526001600160a01b0392831660048201529082166024820152908416925063dc40e2d09150604401600060405180830381600087803b15801561331557600080fd5b505af1158015613329573d6000803e3d6000fd5b5050601b54601a54601c5460405163365855af60e11b81526004810193909352602483019190915260448201526001600160a01b0384169250636cb0ab5e9150606401600060405180830381600087803b15801561338657600080fd5b505af115801561339a573d6000803e3d6000fd5b5050604051633390ef1360e11b8152600481018f90526001600160a01b0384169250636721de269150602401600060405180830381600087803b1580156133e057600080fd5b505af11580156133f4573d6000803e3d6000fd5b505050508a6001600160a01b03166323b872dd33848f6040518463ffffffff1660e01b8152600401613447939291906001600160a01b039384168152919092166020820152604081019190915260600190565b6020604051808303816000875af1158015613466573d6000803e3d6000fd5b505050506040513d601f19601f8201168201806040525081019061348a91906158a7565b508915156001036134e957806001600160a01b03166307a6bf696040518163ffffffff1660e01b8152600401600060405180830381600087803b1580156134d057600080fd5b505af11580156134e4573d6000803e3d6000fd5b505050505b8060066000600254815260200190815260200160002060006101000a8154816001600160a01b0302191690836001600160a01b0316021790555060166000336001600160a01b03166001600160a01b031681526020019081526020016000206002549080600181540180825580915050600190039060005260206000200160009091909190915055336001600160a01b03167f5727112172b6092c7288ef1d857adc455935319c0870d1ace4c13383215e53dc8f8f8f8f8f6000600254426040516135fd9897969594939291909788526001600160a01b03968716602089015260408801959095529290941660608601521515608085015291151560a084015260c083019190915260e08201526101000190565b60405180910390a260028054906000613615836159ce565b91905055505050505050505050505050505050565b6014546040805180820190915260018152601960f91b6020820152906001600160a01b0316331461366e5760405162461bcd60e51b8152600401610c0191906155f3565b50600082815260066020526040908190205490516308165c1760e11b815233600482015282151560248201526001600160a01b0390911690819063102cb82e90604401600060405180830381600087803b1580156136cb57600080fd5b505af11580156136df573d6000803e3d6000fd5b505060408051868152851515602082015242918101919091523392507f8d1d302d01bababc9c00da7a7d2adabd6e02f4ccdb4855101e617c2ef159db0c91506060015b60405180910390a2505050565b600081151581036137d0576001600160a01b038084166000908152600e6020526040808220548151633fabe5a360e21b8152915192938493849384938493169163feaf968c9160048082019260a0929091908290030181865afa15801561379a573d6000803e3d6000fd5b505050506040513d601f19601f820116820180604052508101906137be9190615a01565b50919850611176975050505050505050565b6001600160a01b038084166000908152600f6020526040808220548151633fabe5a360e21b8152915192938493849384938493169163feaf968c9160048082019260a0929091908290030181865afa15801561379a573d6000803e3d6000fd5b6001600160a01b0384166000908152600760209081526040918290205482518084019093526001808452603360f81b9284019290925286929160ff90911615151461388e5760405162461bcd60e51b8152600401610c0191906155f3565b50601d54604080518082019091526002815261032360f41b60208201529060ff1615156001146138d15760405162461bcd60e51b8152600401610c0191906155f3565b50601554604080518082019091526002815261323160f01b602082015290600160a01b900460ff16156139175760405162461bcd60e51b8152600401610c0191906155f3565b506040805180820190915260018152601b60f91b6020820152348511156139515760405162461bcd60e51b8152600401610c0191906155f3565b50601560009054906101000a90046001600160a01b03166001600160a01b031663d0e30db0856040518263ffffffff1660e01b81526004016000604051808303818588803b1580156139a257600080fd5b505af11580156139b6573d6000803e3d6000fd5b5050505050846001600160a01b031663313ce5676040518163ffffffff1660e01b8152600401602060405180830381865afa1580156139f9573d6000803e3d6000fd5b505050506040513d601f19601f82011682018060405250810190613a1d919061572f565b613a2890600a61584c565b613a3386600161372f565b613a3d908861585b565b613a499061271061585b565b613a539190615872565b601560009054906101000a90046001600160a01b03166001600160a01b031663313ce5676040518163ffffffff1660e01b8152600401602060405180830381865afa158015613aa6573d6000803e3d6000fd5b505050506040513d601f19601f82011682018060405250810190613aca919061572f565b613ad590600a61584c565b600c54601554613aef906001600160a01b0316600061372f565b613af9908861585b565b613b03919061585b565b613b0d9190615872565b1015604051806040016040528060018152602001603760f81b81525090613b475760405162461bcd60e51b8152600401610c0191906155f3565b506001600160a01b03808616600090815260036020908152604091829020548251633b24cc2160e01b815292518a949190911692633b24cc219260048083019391928290030181865afa158015613ba2573d6000803e3d6000fd5b505050506040513d601f19601f82011682018060405250810190613bc69190615716565b1015604051806040016040528060018152602001600760fb1b81525090613c005760405162461bcd60e51b8152600401610c0191906155f3565b506040805161012081018252600060208083018290526060830182905260a0830182905260e0830182905233608084018181528486018c815260025486526001600160a01b038c811660c088018190528a151561010089019081529087526003909552948790205486519151925194519751633870862b60e01b81526004810192909252602482019290925292841660448401529415156064830152929390911690633870862b90608401600060405180830381600087803b158015613cc557600080fd5b505af1158015613cd9573d6000803e3d6000fd5b5050506001600160a01b038089166000908152600f60205260408120546015546005549184169450831692613d0e9116614cff565b90506000819050806001600160a01b031663a2c7fd158785600a60009054906101000a90046001600160a01b0316600b6000896001600160a01b03166001600160a01b0316815260200190815260200160002060009054906101000a90046001600160a01b0316600c54600d54600e60008c6001600160a01b03166001600160a01b0316815260200190815260200160002060009054906101000a90046001600160a01b03168c601360009054906101000a90046001600160a01b0316601560009054906101000a90046001600160a01b03166040518b63ffffffff1660e01b8152600401613e069a999897969594939291906158d7565b600060405180830381600087803b158015613e2057600080fd5b505af1158015613e34573d6000803e3d6000fd5b5050604051638ac1b77560e01b81523060048201526001600160a01b0384169250638ac1b7759150602401600060405180830381600087803b158015613e7957600080fd5b505af1158015613e8d573d6000803e3d6000fd5b5050601054601154604051630dc40e2d60e41b81526001600160a01b0392831660048201529082166024820152908416925063dc40e2d09150604401600060405180830381600087803b158015613ee357600080fd5b505af1158015613ef7573d6000803e3d6000fd5b5050601b54601a54601c5460405163365855af60e11b81526004810193909352602483019190915260448201526001600160a01b0384169250636cb0ab5e9150606401600060405180830381600087803b158015613f5457600080fd5b505af1158015613f68573d6000803e3d6000fd5b5050604051633390ef1360e11b8152600481018d90526001600160a01b0384169250636721de269150602401600060405180830381600087803b158015613fae57600080fd5b505af1158015613fc2573d6000803e3d6000fd5b505060155460405163a9059cbb60e01b81526001600160a01b038681166004830152602482018f9052909116925063a9059cbb91506044016020604051808303816000875af1158015614019573d6000803e3d6000fd5b505050506040513d601f19601f8201168201806040525081019061403d91906158a7565b5088151560010361409c57806001600160a01b03166307a6bf696040518163ffffffff1660e01b8152600401600060405180830381600087803b15801561408357600080fd5b505af1158015614097573d6000803e3d6000fd5b505050505b8060066000600254815260200190815260200160002060006101000a8154816001600160a01b0302191690836001600160a01b0316021790555060166000336001600160a01b03166001600160a01b031681526020019081526020016000206002549080600181540180825580915050600190039060005260206000200160009091909190915055336001600160a01b03167f5727112172b6092c7288ef1d857adc455935319c0870d1ace4c13383215e53dc8d8d8d601560009054906101000a90046001600160a01b03168e6001600254426040516141c59897969594939291909788526001600160a01b03968716602089015260408801959095529290941660608601521515608085015291151560a084015260c083019190915260e08201526101000190565b60405180910390a2600280549060006141dd836159ce565b9190505550505050505050505050505050565b336000908152600160208181526040928390205483518085019094526002845261062760f31b9184019190915260ff161515146142405760405162461bcd60e51b8152600401610c0191906155f3565b50600c91909155600d55565b60048181548110610e4d57600080fd5b601d54604080518082019091526002815261032360f41b60208201529060ff16151560011461429e5760405162461bcd60e51b8152600401610c0191906155f3565b50601554604080518082019091526002815261323160f01b602082015290600160a01b900460ff16156142e45760405162461bcd60e51b8152600401610c0191906155f3565b506040805180820190915260018152601b60f91b60208201523482111561431e5760405162461bcd60e51b8152600401610c0191906155f3565b50601560009054906101000a90046001600160a01b03166001600160a01b031663d0e30db0826040518263ffffffff1660e01b81526004016000604051808303818588803b15801561436f57600080fd5b505af1158015614383573d6000803e3d6000fd5b50505060008481526006602052604090819020549051633390ef1360e11b8152600481018590526001600160a01b039091169250829150636721de2690602401600060405180830381600087803b1580156143dd57600080fd5b505af11580156143f1573d6000803e3d6000fd5b505060155460405163a9059cbb60e01b81526001600160a01b03858116600483015260248201879052909116925063a9059cbb91506044016020604051808303816000875af1158015614448573d6000803e3d6000fd5b505050506040513d601f19601f8201168201806040525081019061446c91906158a7565b50806001600160a01b0316631c783def6040518163ffffffff1660e01b8152600401602060405180830381865afa1580156144ab573d6000803e3d6000fd5b505050506040513d601f19601f820116820180604052508101906144cf91906158a7565b151560010361452c57806001600160a01b03166307a6bf696040518163ffffffff1660e01b8152600401600060405180830381600087803b15801561451357600080fd5b505af1158015614527573d6000803e3d6000fd5b505050505b60155460408051858152602081018590526001600160a01b03909216908201526001606082015242608082015233907fa41307c7b4c963a200284b8ab310b85c69dc52a94c312708afc5944c278caaf79060a001613722565b601660205281600052604060002081815481106145a157600080fd5b90600052602060002001600091509150505481565b336000908152600160208181526040928390205483518085019094526002845261062760f31b9184019190915260ff161515146146065760405162461bcd60e51b8152600401610c0191906155f3565b50601080546001600160a01b039384166001600160a01b03199182161790915560118054929093169116179055565b600082815260066020526040808220548151635d3e2fa160e01b815291516001600160a01b039091169183918391635d3e2fa1916004808301926101209291908290030181865afa15801561468e573d6000803e3d6000fd5b505050506040513d601f19601f820116820180604052508101906146b2919061566e565b60c08101516001600160a01b0390811660009081526003602052604080822054905163a52f38d160e01b8152600481018a9052939450909291169063a52f38d190602401602060405180830381865afa158015614713573d6000803e3d6000fd5b505050506040513d601f19601f820116820180604052508101906147379190615716565b90506001600160a01b038316634d2c872a61475287846158c4565b6040516001600160e01b031960e084901b1681526004810191909152600060248201526044016112b1565b600081815260066020526040808220548151635d3e2fa160e01b815291516001600160a01b0390911692918391635d3e2fa191600480820192610120929091908290030181865afa1580156147d6573d6000803e3d6000fd5b505050506040513d601f19601f820116820180604052508101906147fa919061566e565b60808101519091506001600160a01b03163314801561481c5750610100810151155b6040518060400160405280600181526020017f3900000000000000000000000000000000000000000000000000000000000000815250906148705760405162461bcd60e51b8152600401610c0191906155f3565b506001600160a01b0384811660009081526003602052604090819020546080840151915163ec7be39d60e01b81529183166004830152602482018690529091169063ec7be39d90604401612c3f565b6001600160a01b0381166000908152600960209081526040918290205482518084019093526001808452600d60fa1b9284019290925283929160ff90911615151461491d5760405162461bcd60e51b8152600401610c0191906155f3565b50601554604080518082019091526002815261323160f01b602082015290600160a01b900460ff16156149635760405162461bcd60e51b8152600401610c0191906155f3565b5060008481526006602052604090819020549051633390ef1360e11b8152600481018590526001600160a01b03909116908190636721de2690602401600060405180830381600087803b1580156149b957600080fd5b505af11580156149cd573d6000803e3d6000fd5b50506040516323b872dd60e01b81523360048201526001600160a01b03848116602483015260448201889052861692506323b872dd91506064016020604051808303816000875af1158015614a26573d6000803e3d6000fd5b505050506040513d601f19601f82011682018060405250810190614a4a91906158a7565b50806001600160a01b0316631c783def6040518163ffffffff1660e01b8152600401602060405180830381865afa158015614a89573d6000803e3d6000fd5b505050506040513d601f19601f82011682018060405250810190614aad91906158a7565b1515600103614b0a57806001600160a01b03166307a6bf696040518163ffffffff1660e01b8152600401600060405180830381600087803b158015614af157600080fd5b505af1158015614b05573d6000803e3d6000fd5b505050505b60408051868152602081018690526001600160a01b0385168183015260006060820152426080820152905133917fa41307c7b4c963a200284b8ab310b85c69dc52a94c312708afc5944c278caaf7919081900360a00190a25050505050565b336000908152600160208181526040928390205483518085019094526002845261062760f31b9184019190915260ff16151514614bb95760405162461bcd60e51b8152600401610c0191906155f3565b50601955601855601755565b6014546040805180820190915260018152601960f91b6020820152906001600160a01b03163314614c095760405162461bcd60e51b8152600401610c0191906155f3565b5060005b825181101561155457818181518110614c2857614c28615642565b602002602001015160016000858481518110614c4657614c46615642565b6020908102919091018101516001600160a01b03168252810191909152604001600020805460ff1916911515919091179055600101614c0d565b336000908152600160208181526040928390205483518085019094526002845261062760f31b9184019190915260ff16151514614cd05760405162461bcd60e51b8152600401610c0191906155f3565b50601280546001600160a01b039384166001600160a01b03199182161790915560138054929093169116179055565b6000763d602d80600a3d3981f3363d3d373d3d3d363d730000008260601b60e81c176000526e5af43d82803e903d91602b57fd5bf38260781b17602052603760096000f090506001600160a01b038116614d85576040517fc2f868f400000000000000000000000000000000000000000000000000000000815260040160405180910390fd5b919050565b828054828255906000526020600020908101928215614ddf579160200282015b82811115614ddf57825182546001600160a01b0319166001600160a01b03909116178255602090920191600190910190614daa565b50614deb929150614def565b5090565b5b80821115614deb5760008155600101614df0565b634e487b7160e01b600052604160045260246000fd5b604051610120810167ffffffffffffffff81118282101715614e3e57614e3e614e04565b60405290565b604051601f8201601f1916810167ffffffffffffffff81118282101715614e6d57614e6d614e04565b604052919050565b600067ffffffffffffffff821115614e8f57614e8f614e04565b5060051b60200190565b6001600160a01b0381168114614eae57600080fd5b50565b600082601f830112614ec257600080fd5b81356020614ed7614ed283614e75565b614e44565b8083825260208201915060208460051b870101935086841115614ef957600080fd5b602086015b84811015614f1e578035614f1181614e99565b8352918301918301614efe565b509695505050505050565b600082601f830112614f3a57600080fd5b81356020614f4a614ed283614e75565b8083825260208201915060208460051b870101935086841115614f6c57600080fd5b602086015b84811015614f1e578035614f8481614e99565b8352918301918301614f71565b600080600060608486031215614fa657600080fd5b833567ffffffffffffffff80821115614fbe57600080fd5b614fca87838801614eb1565b94506020860135915080821115614fe057600080fd5b614fec87838801614f29565b9350604086013591508082111561500257600080fd5b5061500f86828701614eb1565b9150509250925092565b60006020828403121561502b57600080fd5b813561503681614e99565b9392505050565b8015158114614eae57600080fd5b60006020828403121561505d57600080fd5b81356150368161503d565b60006020828403121561507a57600080fd5b5035919050565b60008060006060848603121561509657600080fd5b8335925060208401356150a881614e99565b915060408401356150b881614e99565b809150509250925092565b600080604083850312156150d657600080fd5b823567ffffffffffffffff8111156150ed57600080fd5b6150f985828601614eb1565b925050602083013561510a81614e99565b809150509250929050565b6000806040838503121561512857600080fd5b50508035926020909101359150565b8035614d8581614e99565b60008060006060848603121561515757600080fd5b833561516281614e99565b925060208401356151728161503d565b915060408401356150b88161503d565b6000806040838503121561519557600080fd5b82359150602083013561510a8161503d565b6000806000806000806000806000806101408b8d0312156151c757600080fd5b8a3567ffffffffffffffff808211156151df57600080fd5b6151eb8e838f01614eb1565b9b5060208d013591508082111561520157600080fd5b61520d8e838f01614f29565b9a5060408d013591508082111561522357600080fd5b61522f8e838f01614eb1565b995060608d013591508082111561524557600080fd5b6152518e838f01614eb1565b985060808d013591508082111561526757600080fd5b6152738e838f01614f29565b975060a08d013591508082111561528957600080fd5b506152968d828e01614eb1565b9550506152a560c08c01615137565b935060e08b013592506101008b013591506152c36101208c01615137565b90509295989b9194979a5092959850565b6020808252825182820181905260009190848201906040850190845b8181101561530c578351835292840192918401916001016152f0565b50909695505050505050565b60008060006060848603121561532d57600080fd5b505081359360208301359350604090920135919050565b60008060006060848603121561535957600080fd5b833592506020840135915060408401356150b881614e99565b6000806040838503121561538557600080fd5b823561539081614e99565b946020939093013593505050565b60008060008060008060c087890312156153b757600080fd5b8635955060208701356153c981614e99565b94506040870135935060608701356153e081614e99565b925060808701356153f08161503d565b915060a08701356154008161503d565b809150509295509295509295565b6000806040838503121561542157600080fd5b823561542c81614e99565b9150602083013561510a8161503d565b600080600080600060a0868803121561545457600080fd5b85359450602086013561546681614e99565b935060408601359250606086013561547d8161503d565b9150608086013561548d8161503d565b809150509295509295909350565b600080604083850312156154ae57600080fd5b82356154b981614e99565b9150602083013561510a81614e99565b600082601f8301126154da57600080fd5b813560206154ea614ed283614e75565b8083825260208201915060208460051b87010193508684111561550c57600080fd5b602086015b84811015614f1e5780356155248161503d565b8352918301918301615511565b6000806040838503121561554457600080fd5b823567ffffffffffffffff8082111561555c57600080fd5b818501915085601f83011261557057600080fd5b81356020615580614ed283614e75565b82815260059290921b8401810191818101908984111561559f57600080fd5b948201945b838610156155c65785356155b781614e99565b825294820194908201906155a4565b965050860135925050808211156155dc57600080fd5b506155e9858286016154c9565b9150509250929050565b60006020808352835180602085015260005b8181101561562157858101830151858201604001528201615605565b506000604082860101526040601f19601f8301168501019250505092915050565b634e487b7160e01b600052603260045260246000fd5b8051614d858161503d565b8051614d8581614e99565b6000610120828403121561568157600080fd5b615689614e1a565b8251815261569960208401615658565b6020820152604083015160408201526156b460608401615658565b60608201526156c560808401615663565b60808201526156d660a08401615658565b60a08201526156e760c08401615663565b60c08201526156f860e08401615658565b60e082015261010061570b818501615658565b908201529392505050565b60006020828403121561572857600080fd5b5051919050565b60006020828403121561574157600080fd5b815160ff8116811461503657600080fd5b634e487b7160e01b600052601160045260246000fd5b600181815b808511156157a357816000190482111561578957615789615752565b8085161561579657918102915b93841c939080029061576d565b509250929050565b6000826157ba57506001611176565b816157c757506000611176565b81600181146157dd57600281146157e757615803565b6001915050611176565b60ff8411156157f8576157f8615752565b50506001821b611176565b5060208310610133831016604e8410600b8410161715615826575081810a611176565b6158308383615768565b806000190482111561584457615844615752565b029392505050565b600061503660ff8416836157ab565b808202811582820484141761117657611176615752565b60008261588f57634e487b7160e01b600052601260045260246000fd5b500490565b8082018082111561117657611176615752565b6000602082840312156158b957600080fd5b81516150368161503d565b8181038181111561117657611176615752565b6000610240820190508b51825260208c01511515602083015260408c0151604083015260608c01511515606083015260808c015161592060808401826001600160a01b03169052565b5060a08c015161593460a084018215159052565b5060c08c015161594f60c08401826001600160a01b03169052565b5060e08c015161596360e084018215159052565b506101009b8c015115159b82019b909b526001600160a01b03998a166101208201529789166101408901529588166101608801526101808701949094526101a086019290925285166101c085015284166101e084015283166102008301529091166102209091015290565b6000600182016159e0576159e0615752565b5060010190565b805169ffffffffffffffffffff81168114614d8557600080fd5b600080600080600060a08688031215615a1957600080fd5b615a22866159e7565b9450602086015193506040860151925060608601519150615a45608087016159e7565b9050929550929590935056fea2646970667358221220844ea7a5d8b2c076776f8150e175abc0d14ad6d3e39fccf7e8d64d1d3007639b64736f6c63430008180033",
  "linkReferences": {},
  "deployedLinkReferences": {}
}