{
  "_format": "hh-sol-artifact-1",
  "contractName": "CCFL",
  "sourceName": "contracts/CCFL.sol",
  "abi": [
    {
      "inputs": [],
      "name": "ERC1167FailedCreateClone",
      "type": "error"
    },
    {
      "inputs": [],
      "name": "InvalidInitialization",
      "type": "error"
    },
    {
      "inputs": [],
      "name": "NotInitializing",
      "type": "error"
    },
    {
      "anonymous": false,
      "inputs": [
        {
          "indexed": true,
          "internalType": "address",
          "name": "borrower",
          "type": "address"
        },
        {
          "components": [
            {
              "internalType": "uint256",
              "name": "loanId",
              "type": "uint256"
            },
            {
              "internalType": "bool",
              "name": "isPaid",
              "type": "bool"
            },
            {
              "internalType": "uint256",
              "name": "amount",
              "type": "uint256"
            },
            {
              "internalType": "bool",
              "name": "isClosed",
              "type": "bool"
            },
            {
              "internalType": "address",
              "name": "borrower",
              "type": "address"
            },
            {
              "internalType": "bool",
              "name": "isLiquidated",
              "type": "bool"
            },
            {
              "internalType": "contract IERC20Standard",
              "name": "stableCoin",
              "type": "address"
            },
            {
              "internalType": "bool",
              "name": "isFinalty",
              "type": "bool"
            },
            {
              "internalType": "bool",
              "name": "isFiat",
              "type": "bool"
            },
            {
              "internalType": "uint256",
              "name": "closedAmount",
              "type": "uint256"
            }
          ],
          "indexed": false,
          "internalType": "struct DataTypes.Loan",
          "name": "loanInfo",
          "type": "tuple"
        },
        {
          "indexed": false,
          "internalType": "uint256",
          "name": "collateralAmount",
          "type": "uint256"
        },
        {
          "indexed": false,
          "internalType": "contract IERC20Standard",
          "name": "collateral",
          "type": "address"
        },
        {
          "indexed": false,
          "internalType": "bool",
          "name": "isETH",
          "type": "bool"
        }
      ],
      "name": "AddCollateral",
      "type": "event"
    },
    {
      "anonymous": false,
      "inputs": [
        {
          "indexed": true,
          "internalType": "address",
          "name": "borrower",
          "type": "address"
        },
        {
          "indexed": false,
          "internalType": "address",
          "name": "loanAddress",
          "type": "address"
        },
        {
          "components": [
            {
              "internalType": "uint256",
              "name": "loanId",
              "type": "uint256"
            },
            {
              "internalType": "bool",
              "name": "isPaid",
              "type": "bool"
            },
            {
              "internalType": "uint256",
              "name": "amount",
              "type": "uint256"
            },
            {
              "internalType": "bool",
              "name": "isClosed",
              "type": "bool"
            },
            {
              "internalType": "address",
              "name": "borrower",
              "type": "address"
            },
            {
              "internalType": "bool",
              "name": "isLiquidated",
              "type": "bool"
            },
            {
              "internalType": "contract IERC20Standard",
              "name": "stableCoin",
              "type": "address"
            },
            {
              "internalType": "bool",
              "name": "isFinalty",
              "type": "bool"
            },
            {
              "internalType": "bool",
              "name": "isFiat",
              "type": "bool"
            },
            {
              "internalType": "uint256",
              "name": "closedAmount",
              "type": "uint256"
            }
          ],
          "indexed": false,
          "internalType": "struct DataTypes.Loan",
          "name": "loanInfo",
          "type": "tuple"
        },
        {
          "indexed": false,
          "internalType": "uint256",
          "name": "collateralAmount",
          "type": "uint256"
        },
        {
          "indexed": false,
          "internalType": "contract IERC20Standard",
          "name": "collateral",
          "type": "address"
        },
        {
          "indexed": false,
          "internalType": "bool",
          "name": "isYieldGenerating",
          "type": "bool"
        },
        {
          "indexed": false,
          "internalType": "bool",
          "name": "isETH",
          "type": "bool"
        }
      ],
      "name": "CreateLoan",
      "type": "event"
    },
    {
      "anonymous": false,
      "inputs": [
        {
          "indexed": false,
          "internalType": "uint64",
          "name": "version",
          "type": "uint64"
        }
      ],
      "name": "Initialized",
      "type": "event"
    },
    {
      "anonymous": false,
      "inputs": [
        {
          "indexed": true,
          "internalType": "address",
          "name": "liquidator",
          "type": "address"
        },
        {
          "indexed": true,
          "internalType": "address",
          "name": "borrower",
          "type": "address"
        },
        {
          "components": [
            {
              "internalType": "uint256",
              "name": "loanId",
              "type": "uint256"
            },
            {
              "internalType": "bool",
              "name": "isPaid",
              "type": "bool"
            },
            {
              "internalType": "uint256",
              "name": "amount",
              "type": "uint256"
            },
            {
              "internalType": "bool",
              "name": "isClosed",
              "type": "bool"
            },
            {
              "internalType": "address",
              "name": "borrower",
              "type": "address"
            },
            {
              "internalType": "bool",
              "name": "isLiquidated",
              "type": "bool"
            },
            {
              "internalType": "contract IERC20Standard",
              "name": "stableCoin",
              "type": "address"
            },
            {
              "internalType": "bool",
              "name": "isFinalty",
              "type": "bool"
            },
            {
              "internalType": "bool",
              "name": "isFiat",
              "type": "bool"
            },
            {
              "internalType": "uint256",
              "name": "closedAmount",
              "type": "uint256"
            }
          ],
          "indexed": false,
          "internalType": "struct DataTypes.Loan",
          "name": "loanInfo",
          "type": "tuple"
        },
        {
          "indexed": false,
          "internalType": "uint256",
          "name": "collateralAmount",
          "type": "uint256"
        },
        {
          "indexed": false,
          "internalType": "contract IERC20Standard",
          "name": "collateral",
          "type": "address"
        }
      ],
      "name": "Liquidate",
      "type": "event"
    },
    {
      "anonymous": false,
      "inputs": [
        {
          "indexed": true,
          "internalType": "address",
          "name": "borrower",
          "type": "address"
        },
        {
          "components": [
            {
              "internalType": "uint256",
              "name": "loanId",
              "type": "uint256"
            },
            {
              "internalType": "bool",
              "name": "isPaid",
              "type": "bool"
            },
            {
              "internalType": "uint256",
              "name": "amount",
              "type": "uint256"
            },
            {
              "internalType": "bool",
              "name": "isClosed",
              "type": "bool"
            },
            {
              "internalType": "address",
              "name": "borrower",
              "type": "address"
            },
            {
              "internalType": "bool",
              "name": "isLiquidated",
              "type": "bool"
            },
            {
              "internalType": "contract IERC20Standard",
              "name": "stableCoin",
              "type": "address"
            },
            {
              "internalType": "bool",
              "name": "isFinalty",
              "type": "bool"
            },
            {
              "internalType": "bool",
              "name": "isFiat",
              "type": "bool"
            },
            {
              "internalType": "uint256",
              "name": "closedAmount",
              "type": "uint256"
            }
          ],
          "indexed": false,
          "internalType": "struct DataTypes.Loan",
          "name": "loanInfo",
          "type": "tuple"
        },
        {
          "indexed": false,
          "internalType": "uint256",
          "name": "repayAmount",
          "type": "uint256"
        },
        {
          "indexed": false,
          "internalType": "uint256",
          "name": "debtRemain",
          "type": "uint256"
        }
      ],
      "name": "RepayLoan",
      "type": "event"
    },
    {
      "anonymous": false,
      "inputs": [
        {
          "indexed": true,
          "internalType": "address",
          "name": "borrower",
          "type": "address"
        },
        {
          "components": [
            {
              "internalType": "uint256",
              "name": "loanId",
              "type": "uint256"
            },
            {
              "internalType": "bool",
              "name": "isPaid",
              "type": "bool"
            },
            {
              "internalType": "uint256",
              "name": "amount",
              "type": "uint256"
            },
            {
              "internalType": "bool",
              "name": "isClosed",
              "type": "bool"
            },
            {
              "internalType": "address",
              "name": "borrower",
              "type": "address"
            },
            {
              "internalType": "bool",
              "name": "isLiquidated",
              "type": "bool"
            },
            {
              "internalType": "contract IERC20Standard",
              "name": "stableCoin",
              "type": "address"
            },
            {
              "internalType": "bool",
              "name": "isFinalty",
              "type": "bool"
            },
            {
              "internalType": "bool",
              "name": "isFiat",
              "type": "bool"
            },
            {
              "internalType": "uint256",
              "name": "closedAmount",
              "type": "uint256"
            }
          ],
          "indexed": false,
          "internalType": "struct DataTypes.Loan",
          "name": "loanInfo",
          "type": "tuple"
        },
        {
          "indexed": false,
          "internalType": "uint256",
          "name": "collateralAmount",
          "type": "uint256"
        },
        {
          "indexed": false,
          "internalType": "contract IERC20Standard",
          "name": "collateral",
          "type": "address"
        },
        {
          "indexed": false,
          "internalType": "bool",
          "name": "isETH",
          "type": "bool"
        }
      ],
      "name": "WithdrawAllCollateral",
      "type": "event"
    },
    {
      "anonymous": false,
      "inputs": [
        {
          "indexed": true,
          "internalType": "address",
          "name": "admin",
          "type": "address"
        },
        {
          "components": [
            {
              "internalType": "uint256",
              "name": "loanId",
              "type": "uint256"
            },
            {
              "internalType": "bool",
              "name": "isPaid",
              "type": "bool"
            },
            {
              "internalType": "uint256",
              "name": "amount",
              "type": "uint256"
            },
            {
              "internalType": "bool",
              "name": "isClosed",
              "type": "bool"
            },
            {
              "internalType": "address",
              "name": "borrower",
              "type": "address"
            },
            {
              "internalType": "bool",
              "name": "isLiquidated",
              "type": "bool"
            },
            {
              "internalType": "contract IERC20Standard",
              "name": "stableCoin",
              "type": "address"
            },
            {
              "internalType": "bool",
              "name": "isFinalty",
              "type": "bool"
            },
            {
              "internalType": "bool",
              "name": "isFiat",
              "type": "bool"
            },
            {
              "internalType": "uint256",
              "name": "closedAmount",
              "type": "uint256"
            }
          ],
          "indexed": false,
          "internalType": "struct DataTypes.Loan",
          "name": "loanInfo",
          "type": "tuple"
        },
        {
          "indexed": false,
          "internalType": "uint256",
          "name": "collateralAmount",
          "type": "uint256"
        },
        {
          "indexed": false,
          "internalType": "contract IERC20Standard",
          "name": "collateral",
          "type": "address"
        },
        {
          "indexed": false,
          "internalType": "bool",
          "name": "isETH",
          "type": "bool"
        }
      ],
      "name": "WithdrawAllCollateralByAdmin",
      "type": "event"
    },
    {
      "anonymous": false,
      "inputs": [
        {
          "indexed": true,
          "internalType": "address",
          "name": "borrower",
          "type": "address"
        },
        {
          "components": [
            {
              "internalType": "uint256",
              "name": "loanId",
              "type": "uint256"
            },
            {
              "internalType": "bool",
              "name": "isPaid",
              "type": "bool"
            },
            {
              "internalType": "uint256",
              "name": "amount",
              "type": "uint256"
            },
            {
              "internalType": "bool",
              "name": "isClosed",
              "type": "bool"
            },
            {
              "internalType": "address",
              "name": "borrower",
              "type": "address"
            },
            {
              "internalType": "bool",
              "name": "isLiquidated",
              "type": "bool"
            },
            {
              "internalType": "contract IERC20Standard",
              "name": "stableCoin",
              "type": "address"
            },
            {
              "internalType": "bool",
              "name": "isFinalty",
              "type": "bool"
            },
            {
              "internalType": "bool",
              "name": "isFiat",
              "type": "bool"
            },
            {
              "internalType": "uint256",
              "name": "closedAmount",
              "type": "uint256"
            }
          ],
          "indexed": false,
          "internalType": "struct DataTypes.Loan",
          "name": "loanInfo",
          "type": "tuple"
        }
      ],
      "name": "WithdrawLoan",
      "type": "event"
    },
    {
      "inputs": [
        {
          "internalType": "uint256",
          "name": "_loanId",
          "type": "uint256"
        },
        {
          "internalType": "uint256",
          "name": "_amountCollateral",
          "type": "uint256"
        },
        {
          "internalType": "contract IERC20Standard",
          "name": "_collateral",
          "type": "address"
        }
      ],
      "name": "addCollateral",
      "outputs": [],
      "stateMutability": "nonpayable",
      "type": "function"
    },
    {
      "inputs": [
        {
          "internalType": "uint256",
          "name": "_loanId",
          "type": "uint256"
        },
        {
          "internalType": "uint256",
          "name": "_amountETH",
          "type": "uint256"
        }
      ],
      "name": "addCollateralByETH",
      "outputs": [],
      "stateMutability": "payable",
      "type": "function"
    },
    {
      "inputs": [
        {
          "internalType": "uint256",
          "name": "_loanId",
          "type": "uint256"
        },
        {
          "internalType": "uint256",
          "name": "_amountCollateral",
          "type": "uint256"
        }
      ],
      "name": "addCollateralHealthFactor",
      "outputs": [
        {
          "internalType": "uint256",
          "name": "",
          "type": "uint256"
        }
      ],
      "stateMutability": "view",
      "type": "function"
    },
    {
      "inputs": [],
      "name": "ccflConfig",
      "outputs": [
        {
          "internalType": "contract ICCFLConfig",
          "name": "",
          "type": "address"
        }
      ],
      "stateMutability": "view",
      "type": "function"
    },
    {
      "inputs": [],
      "name": "ccflLoan",
      "outputs": [
        {
          "internalType": "contract ICCFLLoan",
          "name": "",
          "type": "address"
        }
      ],
      "stateMutability": "view",
      "type": "function"
    },
    {
      "inputs": [
        {
          "internalType": "contract IERC20Standard",
          "name": "",
          "type": "address"
        }
      ],
      "name": "ccflPools",
      "outputs": [
        {
          "internalType": "contract ICCFLPool",
          "name": "",
          "type": "address"
        }
      ],
      "stateMutability": "view",
      "type": "function"
    },
    {
      "inputs": [
        {
          "internalType": "contract IERC20Standard[]",
          "name": "array",
          "type": "address[]"
        },
        {
          "internalType": "contract IERC20Standard",
          "name": "el",
          "type": "address"
        }
      ],
      "name": "checkExistElement",
      "outputs": [
        {
          "internalType": "bool",
          "name": "",
          "type": "bool"
        }
      ],
      "stateMutability": "pure",
      "type": "function"
    },
    {
      "inputs": [
        {
          "internalType": "uint256",
          "name": "_amount",
          "type": "uint256"
        },
        {
          "internalType": "contract IERC20Standard",
          "name": "_stableCoin",
          "type": "address"
        },
        {
          "internalType": "contract IERC20Standard",
          "name": "_collateral",
          "type": "address"
        }
      ],
      "name": "checkMinimalCollateralForLoan",
      "outputs": [
        {
          "internalType": "uint256",
          "name": "",
          "type": "uint256"
        }
      ],
      "stateMutability": "view",
      "type": "function"
    },
    {
      "inputs": [
        {
          "internalType": "uint256",
          "name": "_amount",
          "type": "uint256"
        },
        {
          "internalType": "contract IERC20Standard",
          "name": "_stableCoin",
          "type": "address"
        },
        {
          "internalType": "uint256",
          "name": "_amountCollateral",
          "type": "uint256"
        },
        {
          "internalType": "contract IERC20Standard",
          "name": "_collateral",
          "type": "address"
        },
        {
          "internalType": "bool",
          "name": "_isYieldGenerating",
          "type": "bool"
        },
        {
          "internalType": "bool",
          "name": "_isFiat",
          "type": "bool"
        }
      ],
      "name": "createLoan",
      "outputs": [],
      "stateMutability": "nonpayable",
      "type": "function"
    },
    {
      "inputs": [
        {
          "internalType": "uint256",
          "name": "_amount",
          "type": "uint256"
        },
        {
          "internalType": "contract IERC20Standard",
          "name": "_stableCoin",
          "type": "address"
        },
        {
          "internalType": "uint256",
          "name": "_amountETH",
          "type": "uint256"
        },
        {
          "internalType": "bool",
          "name": "_isYieldGenerating",
          "type": "bool"
        },
        {
          "internalType": "bool",
          "name": "_isFiat",
          "type": "bool"
        }
      ],
      "name": "createLoanByETH",
      "outputs": [],
      "stateMutability": "payable",
      "type": "function"
    },
    {
      "inputs": [
        {
          "internalType": "contract IERC20Standard",
          "name": "_stableCoin",
          "type": "address"
        },
        {
          "internalType": "uint256",
          "name": "_amount",
          "type": "uint256"
        },
        {
          "internalType": "contract IERC20Standard",
          "name": "_collateralToken",
          "type": "address"
        },
        {
          "internalType": "uint256",
          "name": "_amountCollateral",
          "type": "uint256"
        }
      ],
      "name": "estimateHealthFactor",
      "outputs": [
        {
          "internalType": "uint256",
          "name": "",
          "type": "uint256"
        }
      ],
      "stateMutability": "view",
      "type": "function"
    },
    {
      "inputs": [
        {
          "internalType": "uint256",
          "name": "_loanId",
          "type": "uint256"
        }
      ],
      "name": "getHealthFactor",
      "outputs": [
        {
          "internalType": "uint256",
          "name": "",
          "type": "uint256"
        }
      ],
      "stateMutability": "view",
      "type": "function"
    },
    {
      "inputs": [
        {
          "internalType": "uint256",
          "name": "_loanId",
          "type": "uint256"
        }
      ],
      "name": "getLoanAddress",
      "outputs": [
        {
          "internalType": "address",
          "name": "",
          "type": "address"
        }
      ],
      "stateMutability": "view",
      "type": "function"
    },
    {
      "inputs": [
        {
          "internalType": "address",
          "name": "borrower",
          "type": "address"
        }
      ],
      "name": "getLoanIds",
      "outputs": [
        {
          "internalType": "uint256[]",
          "name": "",
          "type": "uint256[]"
        }
      ],
      "stateMutability": "view",
      "type": "function"
    },
    {
      "inputs": [
        {
          "internalType": "contract IERC20Standard[]",
          "name": "_ccflPoolStableCoin",
          "type": "address[]"
        },
        {
          "internalType": "contract ICCFLPool[]",
          "name": "_ccflPools",
          "type": "address[]"
        },
        {
          "internalType": "contract ICCFLConfig",
          "name": "_ccflConfig",
          "type": "address"
        },
        {
          "internalType": "contract ICCFLLoan",
          "name": "_ccflLoan",
          "type": "address"
        }
      ],
      "name": "initialize",
      "outputs": [],
      "stateMutability": "nonpayable",
      "type": "function"
    },
    {
      "inputs": [],
      "name": "isPaused",
      "outputs": [
        {
          "internalType": "bool",
          "name": "",
          "type": "bool"
        }
      ],
      "stateMutability": "view",
      "type": "function"
    },
    {
      "inputs": [
        {
          "internalType": "uint256",
          "name": "_loanId",
          "type": "uint256"
        }
      ],
      "name": "liquidate",
      "outputs": [],
      "stateMutability": "nonpayable",
      "type": "function"
    },
    {
      "inputs": [],
      "name": "loandIds",
      "outputs": [
        {
          "internalType": "uint256",
          "name": "",
          "type": "uint256"
        }
      ],
      "stateMutability": "view",
      "type": "function"
    },
    {
      "inputs": [
        {
          "internalType": "address",
          "name": "",
          "type": "address"
        }
      ],
      "name": "operators",
      "outputs": [
        {
          "internalType": "bool",
          "name": "",
          "type": "bool"
        }
      ],
      "stateMutability": "view",
      "type": "function"
    },
    {
      "inputs": [],
      "name": "owner",
      "outputs": [
        {
          "internalType": "address",
          "name": "",
          "type": "address"
        }
      ],
      "stateMutability": "view",
      "type": "function"
    },
    {
      "inputs": [
        {
          "internalType": "uint256",
          "name": "_loanId",
          "type": "uint256"
        },
        {
          "internalType": "uint256",
          "name": "_amount",
          "type": "uint256"
        }
      ],
      "name": "repayHealthFactor",
      "outputs": [
        {
          "internalType": "uint256",
          "name": "",
          "type": "uint256"
        }
      ],
      "stateMutability": "view",
      "type": "function"
    },
    {
      "inputs": [
        {
          "internalType": "uint256",
          "name": "_loanId",
          "type": "uint256"
        },
        {
          "internalType": "uint256",
          "name": "_amount",
          "type": "uint256"
        },
        {
          "internalType": "contract IERC20Standard",
          "name": "_stableCoin",
          "type": "address"
        }
      ],
      "name": "repayLoan",
      "outputs": [],
      "stateMutability": "nonpayable",
      "type": "function"
    },
    {
      "inputs": [
        {
          "internalType": "contract ICCFLLoan",
          "name": "_loan",
          "type": "address"
        }
      ],
      "name": "setCCFLLoan",
      "outputs": [],
      "stateMutability": "nonpayable",
      "type": "function"
    },
    {
      "inputs": [
        {
          "internalType": "address[]",
          "name": "_addresses",
          "type": "address[]"
        },
        {
          "internalType": "bool[]",
          "name": "_isActives",
          "type": "bool[]"
        }
      ],
      "name": "setOperators",
      "outputs": [],
      "stateMutability": "nonpayable",
      "type": "function"
    },
    {
      "inputs": [
        {
          "internalType": "bool",
          "name": "_paused",
          "type": "bool"
        }
      ],
      "name": "setPaused",
      "outputs": [],
      "stateMutability": "nonpayable",
      "type": "function"
    },
    {
      "inputs": [
        {
          "internalType": "contract IERC20Standard[]",
          "name": "_ccflPoolStableCoin",
          "type": "address[]"
        },
        {
          "internalType": "contract ICCFLPool[]",
          "name": "_ccflPools",
          "type": "address[]"
        }
      ],
      "name": "setPools",
      "outputs": [],
      "stateMutability": "nonpayable",
      "type": "function"
    },
    {
      "inputs": [
        {
          "internalType": "address",
          "name": "",
          "type": "address"
        },
        {
          "internalType": "uint256",
          "name": "",
          "type": "uint256"
        }
      ],
      "name": "userLoans",
      "outputs": [
        {
          "internalType": "uint256",
          "name": "",
          "type": "uint256"
        }
      ],
      "stateMutability": "view",
      "type": "function"
    },
    {
      "inputs": [
        {
          "internalType": "uint256",
          "name": "_loanId",
          "type": "uint256"
        },
        {
          "internalType": "bool",
          "name": "_isETH",
          "type": "bool"
        }
      ],
      "name": "withdrawAllCollateral",
      "outputs": [],
      "stateMutability": "nonpayable",
      "type": "function"
    },
    {
      "inputs": [
        {
          "internalType": "uint256",
          "name": "_loanId",
          "type": "uint256"
        },
        {
          "internalType": "bool",
          "name": "isETH",
          "type": "bool"
        }
      ],
      "name": "withdrawAllCollateralByAdmin",
      "outputs": [],
      "stateMutability": "nonpayable",
      "type": "function"
    },
    {
      "inputs": [
        {
          "internalType": "contract IERC20Standard",
          "name": "_stableCoin",
          "type": "address"
        },
        {
          "internalType": "uint256",
          "name": "_loanId",
          "type": "uint256"
        }
      ],
      "name": "withdrawFiatLoan",
      "outputs": [],
      "stateMutability": "nonpayable",
      "type": "function"
    },
    {
      "inputs": [
        {
          "internalType": "contract IERC20Standard",
          "name": "_stableCoin",
          "type": "address"
        },
        {
          "internalType": "uint256",
          "name": "_loanId",
          "type": "uint256"
        }
      ],
      "name": "withdrawLoan",
      "outputs": [],
      "stateMutability": "nonpayable",
      "type": "function"
    },
    {
      "stateMutability": "payable",
      "type": "receive"
    }
  ],
  "bytecode": "0x608060405234801561001057600080fd5b5061524e806100206000396000f3fe6080604052600436106101dc5760003560e01c80638858ddc511610102578063c0d0154611610095578063ec7be39d11610064578063ec7be39d14610595578063ef3c5d25146105b5578063f4305035146105d5578063fdb2b32c146105f557600080fd5b8063c0d015461461050c578063cff212e614610542578063d8bad5bd14610555578063e43b03d61461057557600080fd5b8063a8700c3c116100d1578063a8700c3c14610498578063af6a85c4146104b8578063b187bd26146104d8578063b5dbde5f146104f957600080fd5b80638858ddc5146104225780638ba02e1c146104425780638ba2444e146104585780638da5cb5b1461047857600080fd5b80633c8bf9b31161017a5780636b64c885116101495780636b64c885146103955780636eb0fdd0146103c25780636f43d3dd146103e25780636f6012171461040257600080fd5b80633c8bf9b314610315578063415f124014610335578063474843ea146103555780635c8edac41461037557600080fd5b80631bb514cf116101b65780631bb514cf1461027d5780631d9eb5d91461029d57806325e9d2fa146102bd57806330135641146102dd57600080fd5b806313e7c9d8146101e857806316c38b3c1461022d57806317845c691461024f57600080fd5b366101e357005b600080fd5b3480156101f457600080fd5b50610218610203366004614605565b60006020819052908152604090205460ff1681565b60405190151581526020015b60405180910390f35b34801561023957600080fd5b5061024d610248366004614637565b61062b565b005b34801561025b57600080fd5b5061026f61026a366004614654565b6106b2565b604051908152602001610224565b34801561028957600080fd5b5061026f61029836600461466d565b610830565b3480156102a957600080fd5b506102186102b83660046147bc565b610ac1565b3480156102c957600080fd5b5061026f6102d836600461480e565b610b1c565b3480156102e957600080fd5b506004546102fd906001600160a01b031681565b6040516001600160a01b039091168152602001610224565b34801561032157600080fd5b5061024d610330366004614898565b610c92565b34801561034157600080fd5b5061024d610350366004614654565b610ea5565b34801561036157600080fd5b5061024d610370366004614605565b611699565b34801561038157600080fd5b5061024d610390366004614921565b611700565b3480156103a157600080fd5b506103b56103b0366004614605565b6119aa565b6040516102249190614946565b3480156103ce57600080fd5b5061024d6103dd36600461498a565b611a16565b3480156103ee57600080fd5b5061024d6103fd3660046149b8565b61219c565b34801561040e57600080fd5b5061024d61041d3660046149e4565b61240f565b34801561042e57600080fd5b5061026f61043d366004614a48565b6124e5565b34801561044e57600080fd5b5061026f60015481565b34801561046457600080fd5b506005546102fd906001600160a01b031681565b34801561048457600080fd5b506002546102fd906001600160a01b031681565b3480156104a457600080fd5b5061024d6104b3366004614a90565b6127a5565b3480156104c457600080fd5b5061024d6104d3366004614921565b612c19565b3480156104e457600080fd5b5060025461021890600160a01b900460ff1681565b61024d610507366004614b00565b612cd7565b34801561051857600080fd5b506102fd610527366004614605565b6006602052600090815260409020546001600160a01b031681565b61024d61055036600461480e565b613241565b34801561056157600080fd5b5061026f6105703660046149b8565b613694565b34801561058157600080fd5b5061026f61059036600461480e565b6136c5565b3480156105a157600080fd5b5061024d6105b03660046149b8565b61383a565b3480156105c157600080fd5b5061024d6105d036600461498a565b61397c565b3480156105e157600080fd5b5061024d6105f0366004614bc7565b613cd3565b34801561060157600080fd5b506102fd610610366004614654565b6000908152600760205260409020546001600160a01b031690565b6002546040805180820190915260018152601960f91b6020820152906001600160a01b031633146106785760405162461bcd60e51b815260040161066f9190614c7f565b60405180910390fd5b5060028054911515600160a01b027fffffffffffffffffffffff00ffffffffffffffffffffffffffffffffffffffff909216919091179055565b600081815260076020526040808220548151635d3e2fa160e01b815291516001600160a01b039091169183918391635d3e2fa1916004808301926101409291908290030181865afa15801561070b573d6000803e3d6000fd5b505050506040513d601f19601f8201168201806040525081019061072f9190614ce4565b60c08101516001600160a01b0390811660009081526006602052604080822054905163a52f38d160e01b815260048101899052939450909291169063a52f38d190602401602060405180830381865afa158015610790573d6000803e3d6000fd5b505050506040513d601f19601f820116820180604052508101906107b49190614d99565b604051632696439560e11b815260048101829052600060248201529091506001600160a01b03841690634d2c872a90604401602060405180830381865afa158015610803573d6000803e3d6000fd5b505050506040513d601f19601f820116820180604052508101906108279190614d99565b95945050505050565b6000806000600460009054906101000a90046001600160a01b03166001600160a01b031663e75235b86040518163ffffffff1660e01b81526004016040805180830381865afa158015610887573d6000803e3d6000fd5b505050506040513d601f19601f820116820180604052508101906108ab9190614db2565b600480546040516359dfff5560e11b81526001600160a01b038981169382019390935260006024820152939550919350169063b3bffeaa90604401602060405180830381865afa158015610903573d6000803e3d6000fd5b505050506040513d601f19601f820116820180604052508101906109279190614d99565b82866001600160a01b031663313ce5676040518163ffffffff1660e01b8152600401602060405180830381865afa158015610966573d6000803e3d6000fd5b505050506040513d601f19601f8201168201806040525081019061098a9190614dd6565b61099590600a614ef3565b600480546040516359dfff5560e11b81526001600160a01b038b8116938201939093526001602482015291169063b3bffeaa90604401602060405180830381865afa1580156109e8573d6000803e3d6000fd5b505050506040513d601f19601f82011682018060405250810190610a0c9190614d99565b876001600160a01b031663313ce5676040518163ffffffff1660e01b8152600401602060405180830381865afa158015610a4a573d6000803e3d6000fd5b505050506040513d601f19601f82011682018060405250810190610a6e9190614dd6565b610a7990600a614ef3565b610a83908b614f02565b610a8f90612710614f02565b610a999190614f02565b610aa39190614f19565b610aad9190614f19565b610ab79190614f19565b9695505050505050565b600080805b8451811015610b1257836001600160a01b0316858281518110610aeb57610aeb614f3b565b60200260200101516001600160a01b031603610b0a5760019150610b12565b600101610ac6565b5090505b92915050565b600082815260076020526040808220548151635d3e2fa160e01b815291516001600160a01b039091169183918391635d3e2fa1916004808301926101409291908290030181865afa158015610b75573d6000803e3d6000fd5b505050506040513d601f19601f82011682018060405250810190610b999190614ce4565b60c08101516001600160a01b0390811660009081526006602052604080822054905163a52f38d160e01b8152600481018a9052939450909291169063a52f38d190602401602060405180830381865afa158015610bfa573d6000803e3d6000fd5b505050506040513d601f19601f82011682018060405250810190610c1e9190614d99565b604051632696439560e11b815260048101829052602481018790529091506001600160a01b03841690634d2c872a906044015b602060405180830381865afa158015610c6e573d6000803e3d6000fd5b505050506040513d601f19601f82011682018060405250810190610ab79190614d99565b7ff0c57e16840df040f15088dc2f81fe391c3923bec73e23a9662efc9c229c6a00805468010000000000000000810460ff16159067ffffffffffffffff16600081158015610cdd5750825b905060008267ffffffffffffffff166001148015610cfa5750303b155b905081158015610d08575080155b15610d3f576040517ff92ee8a900000000000000000000000000000000000000000000000000000000815260040160405180910390fd5b845467ffffffffffffffff191660011785558315610d7357845468ff00000000000000001916680100000000000000001785555b60005b8851811015610df357888181518110610d9157610d91614f3b565b6020026020010151600660008c8481518110610daf57610daf614f3b565b6020908102919091018101516001600160a01b0390811683529082019290925260400160002080546001600160a01b03191692909116919091179055600101610d76565b50600180805560028054336001600160a01b03199182168117909255600091825260208290526040909120805460ff19169092179091556004805482166001600160a01b038a811691909117909155600580549092169088161790558315610e9a57845468ff000000000000000019168555604051600181527fc7f505b2f371ae2175ee4913f4499e1f2633a7b5936321eed1cdaeb6115181d29060200160405180910390a15b505050505050505050565b600280546040805180820190915291825261323160f01b6020830152600160a01b900460ff1615610ee95760405162461bcd60e51b815260040161066f9190614c7f565b50600081815260076020526040808220548151635d3e2fa160e01b815291516001600160a01b0390911692918391635d3e2fa191600480820192610140929091908290030181865afa158015610f43573d6000803e3d6000fd5b505050506040513d601f19601f82011682018060405250810190610f679190614ce4565b60c08101516001600160a01b0390811660009081526006602052604080822054905163a52f38d160e01b815260048101889052939450909291169063a52f38d190602401602060405180830381865afa158015610fc8573d6000803e3d6000fd5b505050506040513d601f19601f82011682018060405250810190610fec9190614d99565b9050600080600080866001600160a01b031663415f1240866040518263ffffffff1660e01b815260040161102291815260200190565b6080604051808303816000875af1158015611041573d6000803e3d6000fd5b505050506040513d601f19601f820116820180604052508101906110659190614f51565b93509350935093508560c001516001600160a01b03166323b872dd883086888a61108f9190614f87565b6110999190614f87565b6040517fffffffff0000000000000000000000000000000000000000000000000000000060e086901b1681526001600160a01b03938416600482015292909116602483015260448201526064016020604051808303816000875af1158015611105573d6000803e3d6000fd5b505050506040513d601f19601f820116820180604052508101906111299190614f9a565b5060c08601516001600160a01b039081166000818152600660205260409081902054905163095ea7b360e01b815292166004830152602482018790529063095ea7b3906044016020604051808303816000875af115801561118e573d6000803e3d6000fd5b505050506040513d601f19601f820116820180604052508101906111b29190614f9a565b5060c08601516001600160a01b039081166000908152600660205260409081902054905163d8aed14560e01b8152600481018b90526024810188905291169063d8aed14590604401600060405180830381600087803b15801561121457600080fd5b505af1158015611228573d6000803e3d6000fd5b50505050600080600460009054906101000a90046001600160a01b03166001600160a01b0316633c0c45666040518163ffffffff1660e01b81526004016040805180830381865afa158015611281573d6000803e3d6000fd5b505050506040513d601f19601f820116820180604052508101906112a59190614fb7565b60c08a01516040516323b872dd60e01b81526001600160a01b038d8116600483015280841660248301526044820189905293955091935091909116906323b872dd906064016020604051808303816000875af1158015611309573d6000803e3d6000fd5b505050506040513d601f19601f8201168201806040525081019061132d9190614f9a565b5060c08801516040516323b872dd60e01b81526001600160a01b038b81166004830152848116602483015260448201869052909116906323b872dd906064016020604051808303816000875af115801561138b573d6000803e3d6000fd5b505050506040513d601f19601f820116820180604052508101906113af9190614f9a565b5060c08801516001600160a01b03908116600081815260066020526040902054909163095ea7b391166113e2888a614f87565b6040517fffffffff0000000000000000000000000000000000000000000000000000000060e085901b1681526001600160a01b03909216600483015260248201526044016020604051808303816000875af1158015611445573d6000803e3d6000fd5b505050506040513d601f19601f820116820180604052508101906114699190614f9a565b5060c08801516001600160a01b03908116600090815260066020526040908190205490517f7f394031000000000000000000000000000000000000000000000000000000008152600481018d905260248101899052911690637f39403190604401600060405180830381600087803b1580156114e457600080fd5b505af11580156114f8573d6000803e3d6000fd5b5050505060008511156115785760c08801516001600160a01b03908116600090815260066020526040908190205490516326de36ff60e21b815260048101889052911690639b78dbfc90602401600060405180830381600087803b15801561155f57600080fd5b505af1158015611573573d6000803e3d6000fd5b505050505b87608001516001600160a01b0316336001600160a01b03167f50ae99a0f4b29683aadd73511c3e176be68b159e0ad2bde41b7ad74a634fcd188a8c6001600160a01b031663315deeaa6040518163ffffffff1660e01b8152600401602060405180830381865afa1580156115f0573d6000803e3d6000fd5b505050506040513d601f19601f820116820180604052508101906116149190614d99565b8d6001600160a01b031663964236636040518163ffffffff1660e01b8152600401602060405180830381865afa158015611652573d6000803e3d6000fd5b505050506040513d601f19601f820116820180604052508101906116769190614fe6565b604051611685939291906150b0565b60405180910390a350505050505050505050565b6002546040805180820190915260018152601960f91b6020820152906001600160a01b031633146116dd5760405162461bcd60e51b815260040161066f9190614c7f565b50600580546001600160a01b0319166001600160a01b0392909216919091179055565b600280546040805180820190915291825261323160f01b6020830152600160a01b900460ff16156117445760405162461bcd60e51b815260040161066f9190614c7f565b50600082815260076020526040808220548151635d3e2fa160e01b815291516001600160a01b0390911692918391635d3e2fa191600480820192610140929091908290030181865afa15801561179e573d6000803e3d6000fd5b505050506040513d601f19601f820116820180604052508101906117c29190614ce4565b905080608001516001600160a01b0316336001600160a01b0316146040518060400160405280600281526020017f3232000000000000000000000000000000000000000000000000000000000000815250906118315760405162461bcd60e51b815260040161066f9190614c7f565b5060808101516040516308165c1760e11b81526001600160a01b03918216600482015284151560248201529083169063102cb82e90604401600060405180830381600087803b15801561188357600080fd5b505af1158015611897573d6000803e3d6000fd5b50505050336001600160a01b03167fca342d978a428f07e2ddb65bd2d508b47435f260b9a4358d12bf17f8015a680e82846001600160a01b031663315deeaa6040518163ffffffff1660e01b8152600401602060405180830381865afa158015611905573d6000803e3d6000fd5b505050506040513d601f19601f820116820180604052508101906119299190614d99565b856001600160a01b031663964236636040518163ffffffff1660e01b8152600401602060405180830381865afa158015611967573d6000803e3d6000fd5b505050506040513d601f19601f8201168201806040525081019061198b9190614fe6565b8760405161199c94939291906150de565b60405180910390a250505050565b6001600160a01b038116600090815260036020908152604091829020805483518184028101840190945280845260609392830182828015611a0a57602002820191906000526020600020905b8154815260200190600101908083116119f6575b50505050509050919050565b60048054604051630e7f137960e21b81526001600160a01b03808516938201939093528392909116906339fc4de490602401602060405180830381865afa158015611a65573d6000803e3d6000fd5b505050506040513d601f19601f82011682018060405250810190611a899190614f9a565b604080518082019091526001808252603360f81b60208301529091151514611ac45760405162461bcd60e51b815260040161066f9190614c7f565b50600280546040805180820190915291825261323160f01b6020830152600160a01b900460ff1615611b095760405162461bcd60e51b815260040161066f9190614c7f565b506001600160a01b038281166000908152600660205260409081902054905163a52f38d160e01b8152600481018790528592919091169063a52f38d190602401602060405180830381865afa158015611b66573d6000803e3d6000fd5b505050506040513d601f19601f82011682018060405250810190611b8a9190614d99565b841115611c10576001600160a01b038381166000908152600660205260409081902054905163a52f38d160e01b81526004810188905291169063a52f38d190602401602060405180830381865afa158015611be9573d6000803e3d6000fd5b505050506040513d601f19601f82011682018060405250810190611c0d9190614d99565b90505b600085815260076020526040808220548151635d3e2fa160e01b815291516001600160a01b0390911692918391635d3e2fa191600480820192610140929091908290030181865afa158015611c69573d6000803e3d6000fd5b505050506040513d601f19601f82011682018060405250810190611c8d9190614ce4565b6040516323b872dd60e01b8152336004820152306024820152604481018590529091506001600160a01b038616906323b872dd906064016020604051808303816000875af1158015611ce3573d6000803e3d6000fd5b505050506040513d601f19601f82011682018060405250810190611d079190614f9a565b506001600160a01b038581166000818152600660205260409081902054905163095ea7b360e01b815292166004830152602482018590529063095ea7b3906044016020604051808303816000875af1158015611d67573d6000803e3d6000fd5b505050506040513d601f19601f82011682018060405250810190611d8b9190614f9a565b506001600160a01b038581166000908152600660205260409081902054905163d8aed14560e01b8152600481018a90526024810186905291169063d8aed14590604401600060405180830381600087803b158015611de857600080fd5b505af1158015611dfc573d6000803e3d6000fd5b505050506001600160a01b0385811660009081526006602052604080822054905163a52f38d160e01b8152600481018b90529192169063a52f38d190602401602060405180830381865afa158015611e58573d6000803e3d6000fd5b505050506040513d601f19601f82011682018060405250810190611e7c9190614d99565b90508060000361214d576000888152600760205260408082205481517f232fa733000000000000000000000000000000000000000000000000000000008152825184936001600160a01b039093169263232fa7339260048082019391829003018187875af1158015611ef2573d6000803e3d6000fd5b505050506040513d601f19601f82011682018060405250810190611f169190614db2565b909250905081156120295760008a8152600760209081526040808320546001600160a01b038c81168086526006909452938290205491516323b872dd60e01b815290841660048201529216602483015260448201849052906323b872dd906064016020604051808303816000875af1158015611f96573d6000803e3d6000fd5b505050506040513d601f19601f82011682018060405250810190611fba9190614f9a565b506001600160a01b03888116600090815260066020526040908190205490516326de36ff60e21b815260048101859052911690639b78dbfc90602401600060405180830381600087803b15801561201057600080fd5b505af1158015612024573d6000803e3d6000fd5b505050505b60048054604080517f3c0c4566000000000000000000000000000000000000000000000000000000008152815160009485946001600160a01b031693633c0c456693808301939192908290030181865afa15801561208b573d6000803e3d6000fd5b505050506040513d601f19601f820116820180604052508101906120af9190614fb7565b909250905082156121485760008c815260076020526040908190205490516323b872dd60e01b81526001600160a01b039182166004820152828216602482015260448101859052908b16906323b872dd906064016020604051808303816000875af1158015612122573d6000803e3d6000fd5b505050506040513d601f19601f820116820180604052508101906121469190614f9a565b505b505050505b336001600160a01b03167fadc378173a62bab769bed82749db12a50dc49a4a95c340b6a607dda354f8bfd883898460405161218a93929190615116565b60405180910390a25050505050505050565b33600090815260208181526040918290205482518084019093526002835261062760f31b9183019190915260ff1615156001146121ec5760405162461bcd60e51b815260040161066f9190614c7f565b50600280546040805180820190915291825261323160f01b6020830152600160a01b900460ff16156122315760405162461bcd60e51b815260040161066f9190614c7f565b50600081815260076020526040808220548151635d3e2fa160e01b815291516001600160a01b0390911692918391635d3e2fa191600480820192610140929091908290030181865afa15801561228b573d6000803e3d6000fd5b505050506040513d601f19601f820116820180604052508101906122af9190614ce4565b61010081015160408051808201909152600281527f31390000000000000000000000000000000000000000000000000000000000006020820152919250151560011461230e5760405162461bcd60e51b815260040161066f9190614c7f565b506001600160a01b038481166000908152600660205260409081902054905163ec7be39d60e01b81523360048201526024810186905291169063ec7be39d906044015b600060405180830381600087803b15801561236b57600080fd5b505af115801561237f573d6000803e3d6000fd5b50505050816001600160a01b031663fab320e96040518163ffffffff1660e01b8152600401600060405180830381600087803b1580156123be57600080fd5b505af11580156123d2573d6000803e3d6000fd5b50505050336001600160a01b03167fef41bc389463cc7bed371efb4b9809aaab2e8360be55f906e407bcf55f2314ee8260405161199c9190615138565b33600090815260208181526040918290205482518084019093526002835261062760f31b9183019190915260ff16151560011461245f5760405162461bcd60e51b815260040161066f9190614c7f565b5060005b81518110156124e05781818151811061247e5761247e614f3b565b60200260200101516006600085848151811061249c5761249c614f3b565b6020908102919091018101516001600160a01b0390811683529082019290925260400160002080546001600160a01b03191692909116919091179055600101612463565b505050565b600480546040516359dfff5560e11b81526001600160a01b0387811693820193909352600160248201526000928392169063b3bffeaa90604401602060405180830381865afa15801561253c573d6000803e3d6000fd5b505050506040513d601f19601f820116820180604052508101906125609190614d99565b600480546040516359dfff5560e11b81526001600160a01b038881169382019390935260006024820181905293945091169063b3bffeaa90604401602060405180830381865afa1580156125b8573d6000803e3d6000fd5b505050506040513d601f19601f820116820180604052508101906125dc9190614d99565b9050600080600460009054906101000a90046001600160a01b03166001600160a01b031663e75235b86040518163ffffffff1660e01b81526004016040805180830381865afa158015612633573d6000803e3d6000fd5b505050506040513d601f19601f820116820180604052508101906126579190614db2565b915091506000876001600160a01b031663313ce5676040518163ffffffff1660e01b8152600401602060405180830381865afa15801561269b573d6000803e3d6000fd5b505050506040513d601f19601f820116820180604052508101906126bf9190614dd6565b6126ca90600a614ef3565b612710836126d8878b614f02565b6126e29190614f02565b6126ec9190614f19565b6126f69190614f19565b905060008a6001600160a01b031663313ce5676040518163ffffffff1660e01b8152600401602060405180830381865afa158015612738573d6000803e3d6000fd5b505050506040513d601f19601f8201168201806040525081019061275c9190614dd6565b61276790600a614ef3565b612771878c614f02565b61277b9190614f19565b905060008161278b846064614f02565b6127959190614f19565b9c9b505050505050505050505050565b60048054604051630e7f137960e21b81526001600160a01b03808916938201939093528792909116906339fc4de490602401602060405180830381865afa1580156127f4573d6000803e3d6000fd5b505050506040513d601f19601f820116820180604052508101906128189190614f9a565b604080518082019091526001808252603360f81b602083015290911515146128535760405162461bcd60e51b815260040161066f9190614c7f565b5060048054604051630e7f137960e21b81526001600160a01b03808816938201939093528692909116906339fc4de490602401602060405180830381865afa1580156128a3573d6000803e3d6000fd5b505050506040513d601f19601f820116820180604052508101906128c79190614f9a565b604080518082019091526001808252600d60fa1b602083015290911515146129025760405162461bcd60e51b815260040161066f9190614c7f565b50600280546040805180820190915291825261323160f01b6020830152600160a01b900460ff16156129475760405162461bcd60e51b815260040161066f9190614c7f565b506004805460408051631cea46b760e31b8152815160009485946001600160a01b03169363e75235b893808301939192908290030181865afa158015612991573d6000803e3d6000fd5b505050506040513d601f19601f820116820180604052508101906129b59190614db2565b91509150886001600160a01b031663313ce5676040518163ffffffff1660e01b8152600401602060405180830381865afa1580156129f7573d6000803e3d6000fd5b505050506040513d601f19601f82011682018060405250810190612a1b9190614dd6565b612a2690600a614ef3565b600480546040516359dfff5560e11b81526001600160a01b038d8116938201939093526001602482015291169063b3bffeaa90604401602060405180830381865afa158015612a79573d6000803e3d6000fd5b505050506040513d601f19601f82011682018060405250810190612a9d9190614d99565b612aa7908c614f02565b612ab390612710614f02565b612abd9190614f19565b876001600160a01b031663313ce5676040518163ffffffff1660e01b8152600401602060405180830381865afa158015612afb573d6000803e3d6000fd5b505050506040513d601f19601f82011682018060405250810190612b1f9190614dd6565b612b2a90600a614ef3565b600480546040516359dfff5560e11b81526001600160a01b038c8116938201939093526000602482015286929091169063b3bffeaa90604401602060405180830381865afa158015612b80573d6000803e3d6000fd5b505050506040513d601f19601f82011682018060405250810190612ba49190614d99565b612bae908c614f02565b612bb89190614f02565b612bc29190614f19565b1015604051806040016040528060018152602001603760f81b81525090612bfc5760405162461bcd60e51b815260040161066f9190614c7f565b50612c0d8a8a8a8a8a8a6000613d8d565b50505050505050505050565b6002546040805180820190915260018152601960f91b6020820152906001600160a01b03163314612c5d5760405162461bcd60e51b815260040161066f9190614c7f565b50600082815260076020526040908190205490516308165c1760e11b815233600482015282151560248201526001600160a01b0390911690819063102cb82e90604401600060405180830381600087803b158015612cba57600080fd5b505af1158015612cce573d6000803e3d6000fd5b50505050505050565b60048054604051630e7f137960e21b81526001600160a01b03808816938201939093528692909116906339fc4de490602401602060405180830381865afa158015612d26573d6000803e3d6000fd5b505050506040513d601f19601f82011682018060405250810190612d4a9190614f9a565b604080518082019091526001808252603360f81b60208301529091151514612d855760405162461bcd60e51b815260040161066f9190614c7f565b506004805460408051634c2a6d8160e11b815290516001600160a01b0390921692639854db029282820192602092908290030181865afa158015612dcd573d6000803e3d6000fd5b505050506040513d601f19601f82011682018060405250810190612df19190614f9a565b604080518082019091526002815261032360f41b6020820152901515600114612e2d5760405162461bcd60e51b815260040161066f9190614c7f565b50600280546040805180820190915291825261323160f01b6020830152600160a01b900460ff1615612e725760405162461bcd60e51b815260040161066f9190614c7f565b506040805180820190915260018152601b60f91b602082015234851115612eac5760405162461bcd60e51b815260040161066f9190614c7f565b506000600460009054906101000a90046001600160a01b03166001600160a01b031663cae5f11e6040518163ffffffff1660e01b8152600401602060405180830381865afa158015612f02573d6000803e3d6000fd5b505050506040513d601f19601f82011682018060405250810190612f269190614fe6565b9050806001600160a01b031663d0e30db0866040518263ffffffff1660e01b81526004016000604051808303818588803b158015612f6357600080fd5b505af1158015612f77573d6000803e3d6000fd5b50506004805460408051631cea46b760e31b81528151600097508796506001600160a01b03909316945063e75235b89381810193918290030181865afa158015612fc5573d6000803e3d6000fd5b505050506040513d601f19601f82011682018060405250810190612fe99190614db2565b91509150876001600160a01b031663313ce5676040518163ffffffff1660e01b8152600401602060405180830381865afa15801561302b573d6000803e3d6000fd5b505050506040513d601f19601f8201168201806040525081019061304f9190614dd6565b61305a90600a614ef3565b600480546040516359dfff5560e11b81526001600160a01b038c8116938201939093526001602482015291169063b3bffeaa90604401602060405180830381865afa1580156130ad573d6000803e3d6000fd5b505050506040513d601f19601f820116820180604052508101906130d19190614d99565b6130db908b614f02565b6130e790612710614f02565b6130f19190614f19565b836001600160a01b031663313ce5676040518163ffffffff1660e01b8152600401602060405180830381865afa15801561312f573d6000803e3d6000fd5b505050506040513d601f19601f820116820180604052508101906131539190614dd6565b61315e90600a614ef3565b600480546040516359dfff5560e11b81526001600160a01b03888116938201939093526000602482015286929091169063b3bffeaa90604401602060405180830381865afa1580156131b4573d6000803e3d6000fd5b505050506040513d601f19601f820116820180604052508101906131d89190614d99565b6131e2908b614f02565b6131ec9190614f02565b6131f69190614f19565b1015604051806040016040528060018152602001603760f81b815250906132305760405162461bcd60e51b815260040161066f9190614c7f565b50610e9a898989868a8a6000613d8d565b6004805460408051634c2a6d8160e11b815290516001600160a01b0390921692639854db029282820192602092908290030181865afa158015613288573d6000803e3d6000fd5b505050506040513d601f19601f820116820180604052508101906132ac9190614f9a565b604080518082019091526002815261032360f41b60208201529015156001146132e85760405162461bcd60e51b815260040161066f9190614c7f565b50600280546040805180820190915291825261323160f01b6020830152600160a01b900460ff161561332d5760405162461bcd60e51b815260040161066f9190614c7f565b506040805180820190915260018152601b60f91b6020820152348211156133675760405162461bcd60e51b815260040161066f9190614c7f565b506000600460009054906101000a90046001600160a01b03166001600160a01b031663cae5f11e6040518163ffffffff1660e01b8152600401602060405180830381865afa1580156133bd573d6000803e3d6000fd5b505050506040513d601f19601f820116820180604052508101906133e19190614fe6565b9050806001600160a01b031663d0e30db0836040518263ffffffff1660e01b81526004016000604051808303818588803b15801561341e57600080fd5b505af1158015613432573d6000803e3d6000fd5b505050600085815260076020526040808220548151635d3e2fa160e01b815291516001600160a01b0390911694509192508391635d3e2fa191600480820192610140929091908290030181865afa158015613491573d6000803e3d6000fd5b505050506040513d601f19601f820116820180604052508101906134b59190614ce4565b604051633390ef1360e11b8152600481018690529091506001600160a01b03831690636721de2690602401600060405180830381600087803b1580156134fa57600080fd5b505af115801561350e573d6000803e3d6000fd5b505060405163a9059cbb60e01b81526001600160a01b038581166004830152602482018890528616925063a9059cbb91506044016020604051808303816000875af1158015613561573d6000803e3d6000fd5b505050506040513d601f19601f820116820180604052508101906135859190614f9a565b50816001600160a01b0316631c783def6040518163ffffffff1660e01b8152600401602060405180830381865afa1580156135c4573d6000803e3d6000fd5b505050506040513d601f19601f820116820180604052508101906135e89190614f9a565b151560010361364557816001600160a01b03166307a6bf696040518163ffffffff1660e01b8152600401600060405180830381600087803b15801561362c57600080fd5b505af1158015613640573d6000803e3d6000fd5b505050505b336001600160a01b03167fe474797e92cecc3dd725263d8aa6b5ba5f84756e80f4cb9d15863ddc26c84acc828686600160405161368594939291906150de565b60405180910390a25050505050565b600360205281600052604060002081815481106136b057600080fd5b90600052602060002001600091509150505481565b600082815260076020526040808220548151635d3e2fa160e01b815291516001600160a01b039091169183918391635d3e2fa1916004808301926101409291908290030181865afa15801561371e573d6000803e3d6000fd5b505050506040513d601f19601f820116820180604052508101906137429190614ce4565b60c08101516001600160a01b0390811660009081526006602052604080822054905163a52f38d160e01b8152600481018a9052939450909291169063a52f38d190602401602060405180830381865afa1580156137a3573d6000803e3d6000fd5b505050506040513d601f19601f820116820180604052508101906137c79190614d99565b90508085106137de576201869f9350505050610b16565b6001600160a01b038316634d2c872a6137f78784615147565b6040517fffffffff0000000000000000000000000000000000000000000000000000000060e084901b168152600481019190915260006024820152604401610c51565b600081815260076020526040808220548151635d3e2fa160e01b815291516001600160a01b0390911692918391635d3e2fa191600480820192610140929091908290030181865afa158015613893573d6000803e3d6000fd5b505050506040513d601f19601f820116820180604052508101906138b79190614ce4565b60808101519091506001600160a01b0316331480156138d95750610100810151155b6040518060400160405280600181526020017f39000000000000000000000000000000000000000000000000000000000000008152509061392d5760405162461bcd60e51b815260040161066f9190614c7f565b506001600160a01b0384811660009081526006602052604090819020546080840151915163ec7be39d60e01b81529183166004830152602482018690529091169063ec7be39d90604401612351565b60048054604051630e7f137960e21b81526001600160a01b03808516938201939093528392909116906339fc4de490602401602060405180830381865afa1580156139cb573d6000803e3d6000fd5b505050506040513d601f19601f820116820180604052508101906139ef9190614f9a565b604080518082019091526001808252600d60fa1b60208301529091151514613a2a5760405162461bcd60e51b815260040161066f9190614c7f565b50600280546040805180820190915291825261323160f01b6020830152600160a01b900460ff1615613a6f5760405162461bcd60e51b815260040161066f9190614c7f565b50600084815260076020526040808220548151635d3e2fa160e01b815291516001600160a01b0390911692918391635d3e2fa191600480820192610140929091908290030181865afa158015613ac9573d6000803e3d6000fd5b505050506040513d601f19601f82011682018060405250810190613aed9190614ce4565b604051633390ef1360e11b8152600481018790529091506001600160a01b03831690636721de2690602401600060405180830381600087803b158015613b3257600080fd5b505af1158015613b46573d6000803e3d6000fd5b50506040516323b872dd60e01b81523360048201526001600160a01b03858116602483015260448201899052871692506323b872dd91506064016020604051808303816000875af1158015613b9f573d6000803e3d6000fd5b505050506040513d601f19601f82011682018060405250810190613bc39190614f9a565b50816001600160a01b0316631c783def6040518163ffffffff1660e01b8152600401602060405180830381865afa158015613c02573d6000803e3d6000fd5b505050506040513d601f19601f82011682018060405250810190613c269190614f9a565b1515600103613c8357816001600160a01b03166307a6bf696040518163ffffffff1660e01b8152600401600060405180830381600087803b158015613c6a57600080fd5b505af1158015613c7e573d6000803e3d6000fd5b505050505b336001600160a01b03167fe474797e92cecc3dd725263d8aa6b5ba5f84756e80f4cb9d15863ddc26c84acc8287876000604051613cc394939291906150de565b60405180910390a2505050505050565b6002546040805180820190915260018152601960f91b6020820152906001600160a01b03163314613d175760405162461bcd60e51b815260040161066f9190614c7f565b5060005b82518110156124e057818181518110613d3657613d36614f3b565b6020026020010151600080858481518110613d5357613d53614f3b565b6020908102919091018101516001600160a01b03168252810191909152604001600020805460ff1916911515919091179055600101613d1b565b6001600160a01b038087166000908152600660209081526040918290205482517f3b24cc2100000000000000000000000000000000000000000000000000000000815292518b949190911692633b24cc219260048083019391928290030181865afa158015613e00573d6000803e3d6000fd5b505050506040513d601f19601f82011682018060405250810190613e249190614d99565b10156040518060400160405280600181526020017f380000000000000000000000000000000000000000000000000000000000000081525090613e7a5760405162461bcd60e51b815260040161066f9190614c7f565b506040805161014081018252600060208083018290526060830182905260a0830182905260e08301829052610120830182905233608084019081528385018c815260015485526001600160a01b038c811660c08701819052891515610100880190815290865260069094529386902054855191519251935196517f3870862b000000000000000000000000000000000000000000000000000000008152600481019290925260248201929092529183166044830152931515606482015291921690633870862b90608401600060405180830381600087803b158015613f5e57600080fd5b505af1158015613f72573d6000803e3d6000fd5b505060055487925060009150613f90906001600160a01b0316614562565b6004805460408051631cea46b760e31b81528151949550859460009485946001600160a01b03169363e75235b893808301939192908290030181865afa158015613fde573d6000803e3d6000fd5b505050506040513d601f19601f820116820180604052508101906140029190614db2565b600480546040517f58559a340000000000000000000000000000000000000000000000000000000081529395509193506001600160a01b03808716936358559a3493614055938c938c939216910161515a565b600060405180830381600087803b15801561406f57600080fd5b505af1158015614083573d6000803e3d6000fd5b50506040517f8ac1b7750000000000000000000000000000000000000000000000000000000081523060048201526001600160a01b0386169450638ac1b775935060240191506140d09050565b600060405180830381600087803b1580156140ea57600080fd5b505af11580156140fe573d6000803e3d6000fd5b5050600480546040517f365bef000000000000000000000000000000000000000000000000000000000081526001600160a01b03888116938201939093528e83166024820152600094509116915063365bef0090604401602060405180830381865afa158015614172573d6000803e3d6000fd5b505050506040513d601f19601f82011682018060405250810190614196919061518c565b6040517f805a288f00000000000000000000000000000000000000000000000000000000815262ffffff821660048201529091506001600160a01b0383169063805a288f90602401600060405180830381600087803b1580156141f857600080fd5b505af115801561420c573d6000803e3d6000fd5b5050505085151560000390506142f557604051633390ef1360e11b8152600481018a90526001600160a01b03821690636721de2690602401600060405180830381600087803b15801561425e57600080fd5b505af1158015614272573d6000803e3d6000fd5b50506040516323b872dd60e01b81523360048201526001600160a01b038581166024830152604482018d90528b1692506323b872dd91506064016020604051808303816000875af11580156142cb573d6000803e3d6000fd5b505050506040513d601f19601f820116820180604052508101906142ef9190614f9a565b50614442565b604051633390ef1360e11b8152600481018a90526001600160a01b03821690636721de2690602401600060405180830381600087803b15801561433757600080fd5b505af115801561434b573d6000803e3d6000fd5b505050506000600460009054906101000a90046001600160a01b03166001600160a01b031663cae5f11e6040518163ffffffff1660e01b8152600401602060405180830381865afa1580156143a4573d6000803e3d6000fd5b505050506040513d601f19601f820116820180604052508101906143c89190614fe6565b60405163a9059cbb60e01b81526001600160a01b038581166004830152602482018d90529192509082169063a9059cbb906044016020604051808303816000875af115801561441b573d6000803e3d6000fd5b505050506040513d601f19601f8201168201806040525081019061443f9190614f9a565b50505b8615156001036144a057806001600160a01b03166307a6bf696040518163ffffffff1660e01b8152600401600060405180830381600087803b15801561448757600080fd5b505af115801561449b573d6000803e3d6000fd5b505050505b60018054600090815260076020818152604080842080546001600160a01b0319166001600160a01b0388811691909117909155338086526003845282862087548154808a018355918852858820909101559554855292909152918290205491517fbc2d4eb506fbd7b120aab5a0c94776c0416f23ed12a154e146f923454a80390e9261453892169088908e908e908e908d15906151b1565b60405180910390a260018054906000614550836151ff565b91905055505050505050505050505050565b6000763d602d80600a3d3981f3363d3d373d3d3d363d730000008260601b60e81c176000526e5af43d82803e903d91602b57fd5bf38260781b17602052603760096000f090506001600160a01b0381166145e8576040517fc2f868f400000000000000000000000000000000000000000000000000000000815260040160405180910390fd5b919050565b6001600160a01b038116811461460257600080fd5b50565b60006020828403121561461757600080fd5b8135614622816145ed565b9392505050565b801515811461460257600080fd5b60006020828403121561464957600080fd5b813561462281614629565b60006020828403121561466657600080fd5b5035919050565b60008060006060848603121561468257600080fd5b833592506020840135614694816145ed565b915060408401356146a4816145ed565b809150509250925092565b634e487b7160e01b600052604160045260246000fd5b604051610140810167ffffffffffffffff811182821017156146e9576146e96146af565b60405290565b604051601f8201601f1916810167ffffffffffffffff81118282101715614718576147186146af565b604052919050565b600067ffffffffffffffff82111561473a5761473a6146af565b5060051b60200190565b600082601f83011261475557600080fd5b8135602061476a61476583614720565b6146ef565b8083825260208201915060208460051b87010193508684111561478c57600080fd5b602086015b848110156147b15780356147a4816145ed565b8352918301918301614791565b509695505050505050565b600080604083850312156147cf57600080fd5b823567ffffffffffffffff8111156147e657600080fd5b6147f285828601614744565b9250506020830135614803816145ed565b809150509250929050565b6000806040838503121561482157600080fd5b50508035926020909101359150565b600082601f83011261484157600080fd5b8135602061485161476583614720565b8083825260208201915060208460051b87010193508684111561487357600080fd5b602086015b848110156147b157803561488b816145ed565b8352918301918301614878565b600080600080608085870312156148ae57600080fd5b843567ffffffffffffffff808211156148c657600080fd5b6148d288838901614744565b955060208701359150808211156148e857600080fd5b506148f587828801614830565b9350506040850135614906816145ed565b91506060850135614916816145ed565b939692955090935050565b6000806040838503121561493457600080fd5b82359150602083013561480381614629565b6020808252825182820181905260009190848201906040850190845b8181101561497e57835183529284019291840191600101614962565b50909695505050505050565b60008060006060848603121561499f57600080fd5b833592506020840135915060408401356146a4816145ed565b600080604083850312156149cb57600080fd5b82356149d6816145ed565b946020939093013593505050565b600080604083850312156149f757600080fd5b823567ffffffffffffffff80821115614a0f57600080fd5b614a1b86838701614744565b93506020850135915080821115614a3157600080fd5b50614a3e85828601614830565b9150509250929050565b60008060008060808587031215614a5e57600080fd5b8435614a69816145ed565b9350602085013592506040850135614a80816145ed565b9396929550929360600135925050565b60008060008060008060c08789031215614aa957600080fd5b863595506020870135614abb816145ed565b9450604087013593506060870135614ad2816145ed565b92506080870135614ae281614629565b915060a0870135614af281614629565b809150509295509295509295565b600080600080600060a08688031215614b1857600080fd5b853594506020860135614b2a816145ed565b9350604086013592506060860135614b4181614629565b91506080860135614b5181614629565b809150509295509295909350565b600082601f830112614b7057600080fd5b81356020614b8061476583614720565b8083825260208201915060208460051b870101935086841115614ba257600080fd5b602086015b848110156147b1578035614bba81614629565b8352918301918301614ba7565b60008060408385031215614bda57600080fd5b823567ffffffffffffffff80821115614bf257600080fd5b818501915085601f830112614c0657600080fd5b81356020614c1661476583614720565b82815260059290921b84018101918181019089841115614c3557600080fd5b948201945b83861015614c5c578535614c4d816145ed565b82529482019490820190614c3a565b96505086013592505080821115614c7257600080fd5b50614a3e85828601614b5f565b60006020808352835180602085015260005b81811015614cad57858101830151858201604001528201614c91565b506000604082860101526040601f19601f8301168501019250505092915050565b80516145e881614629565b80516145e8816145ed565b60006101408284031215614cf757600080fd5b614cff6146c5565b82518152614d0f60208401614cce565b602082015260408301516040820152614d2a60608401614cce565b6060820152614d3b60808401614cd9565b6080820152614d4c60a08401614cce565b60a0820152614d5d60c08401614cd9565b60c0820152614d6e60e08401614cce565b60e0820152610100614d81818501614cce565b90820152610120928301519281019290925250919050565b600060208284031215614dab57600080fd5b5051919050565b60008060408385031215614dc557600080fd5b505080516020909101519092909150565b600060208284031215614de857600080fd5b815160ff8116811461462257600080fd5b634e487b7160e01b600052601160045260246000fd5b600181815b80851115614e4a578160001904821115614e3057614e30614df9565b80851615614e3d57918102915b93841c9390800290614e14565b509250929050565b600082614e6157506001610b16565b81614e6e57506000610b16565b8160018114614e845760028114614e8e57614eaa565b6001915050610b16565b60ff841115614e9f57614e9f614df9565b50506001821b610b16565b5060208310610133831016604e8410600b8410161715614ecd575081810a610b16565b614ed78383614e0f565b8060001904821115614eeb57614eeb614df9565b029392505050565b600061462260ff841683614e52565b8082028115828204841417610b1657610b16614df9565b600082614f3657634e487b7160e01b600052601260045260246000fd5b500490565b634e487b7160e01b600052603260045260246000fd5b60008060008060808587031215614f6757600080fd5b505082516020840151604085015160609095015191969095509092509050565b80820180821115610b1657610b16614df9565b600060208284031215614fac57600080fd5b815161462281614629565b60008060408385031215614fca57600080fd5b8251614fd5816145ed565b6020840151909250614803816145ed565b600060208284031215614ff857600080fd5b8151614622816145ed565b80518252602081015161501a602084018215159052565b50604081015160408301526060810151615038606084018215159052565b50608081015161505360808401826001600160a01b03169052565b5060a081015161506760a084018215159052565b5060c081015161508260c08401826001600160a01b03169052565b5060e081015161509660e084018215159052565b506101008181015115159083015261012090810151910152565b61018081016150bf8286615003565b836101408301526001600160a01b038316610160830152949350505050565b6101a081016150ed8287615003565b846101408301526001600160a01b03841661016083015282151561018083015295945050505050565b61018081016151258286615003565b6101408201939093526101600152919050565b6101408101610b168284615003565b81810381811115610b1657610b16614df9565b61018081016151698286615003565b6001600160a01b0380851661014084015280841661016084015250949350505050565b60006020828403121561519e57600080fd5b815162ffffff8116811461462257600080fd5b6001600160a01b0387811682526101e08201906151d16020840189615003565b86610160840152808616610180840152508315156101a08301528215156101c0830152979650505050505050565b60006001820161521157615211614df9565b506001019056fea26469706673582212207df3c45470ca411d9dd6431e18d22c6ab4fec0d24acfa850326d0604b596048d64736f6c63430008180033",
  "linkReferences": {},
  "deployedLinkReferences": {}
}